{
	"StakeFactory.sol": {
		"StakeFactory": {
			"abi": [
				{
					"inputs": [
						{
							"internalType": "contract IERC20",
							"name": "_token",
							"type": "address"
						},
						{
							"internalType": "contract IERC20",
							"name": "_rewardToken",
							"type": "address"
						},
						{
							"internalType": "address",
							"name": "_taxreceiver",
							"type": "address"
						},
						{
							"internalType": "uint256",
							"name": "_deductionPercentage",
							"type": "uint256"
						},
						{
							"components": [
								{
									"internalType": "uint256",
									"name": "lockTimeDays",
									"type": "uint256"
								},
								{
									"internalType": "uint256",
									"name": "minimumDeposit",
									"type": "uint256"
								},
								{
									"internalType": "uint256",
									"name": "percentageBasisPoints",
									"type": "uint256"
								},
								{
									"internalType": "uint256",
									"name": "maxRate",
									"type": "uint256"
								},
								{
									"internalType": "uint256",
									"name": "minRate",
									"type": "uint256"
								},
								{
									"internalType": "uint256",
									"name": "decrementStep",
									"type": "uint256"
								},
								{
									"internalType": "uint256",
									"name": "stepSize",
									"type": "uint256"
								},
								{
									"internalType": "bool",
									"name": "fixedBasisPoints",
									"type": "bool"
								},
								{
									"internalType": "uint256",
									"name": "stakedAmount",
									"type": "uint256"
								}
							],
							"internalType": "struct StakeFactory.LockPeriodParams[]",
							"name": "_initLockPeriods",
							"type": "tuple[]"
						}
					],
					"stateMutability": "nonpayable",
					"type": "constructor"
				},
				{
					"anonymous": false,
					"inputs": [
						{
							"indexed": true,
							"internalType": "address",
							"name": "to",
							"type": "address"
						},
						{
							"indexed": true,
							"internalType": "address",
							"name": "From",
							"type": "address"
						},
						{
							"indexed": false,
							"internalType": "uint256",
							"name": "amount",
							"type": "uint256"
						},
						{
							"indexed": false,
							"internalType": "uint256",
							"name": "day",
							"type": "uint256"
						},
						{
							"indexed": false,
							"internalType": "uint256",
							"name": "time",
							"type": "uint256"
						}
					],
					"name": "Deposite_",
					"type": "event"
				},
				{
					"anonymous": false,
					"inputs": [
						{
							"indexed": true,
							"internalType": "address",
							"name": "previousOwner",
							"type": "address"
						},
						{
							"indexed": true,
							"internalType": "address",
							"name": "newOwner",
							"type": "address"
						}
					],
					"name": "OwnershipTransferred",
					"type": "event"
				},
				{
					"anonymous": false,
					"inputs": [
						{
							"indexed": false,
							"internalType": "address",
							"name": "account",
							"type": "address"
						}
					],
					"name": "Paused",
					"type": "event"
				},
				{
					"anonymous": false,
					"inputs": [
						{
							"indexed": false,
							"internalType": "address",
							"name": "account",
							"type": "address"
						}
					],
					"name": "Unpaused",
					"type": "event"
				},
				{
					"inputs": [],
					"name": "IS_ULTIMATE_STAKE_FACTORY",
					"outputs": [
						{
							"internalType": "bool",
							"name": "",
							"type": "bool"
						}
					],
					"stateMutability": "view",
					"type": "function"
				},
				{
					"inputs": [],
					"name": "Token",
					"outputs": [
						{
							"internalType": "contract IERC20",
							"name": "",
							"type": "address"
						}
					],
					"stateMutability": "view",
					"type": "function"
				},
				{
					"inputs": [
						{
							"internalType": "address",
							"name": "_addr",
							"type": "address"
						}
					],
					"name": "addSpam",
					"outputs": [],
					"stateMutability": "nonpayable",
					"type": "function"
				},
				{
					"inputs": [
						{
							"internalType": "uint256",
							"name": "",
							"type": "uint256"
						}
					],
					"name": "allocation",
					"outputs": [
						{
							"internalType": "uint256",
							"name": "",
							"type": "uint256"
						}
					],
					"stateMutability": "view",
					"type": "function"
				},
				{
					"inputs": [
						{
							"internalType": "uint256",
							"name": "",
							"type": "uint256"
						}
					],
					"name": "allowedLockPeriods",
					"outputs": [
						{
							"internalType": "uint256",
							"name": "",
							"type": "uint256"
						}
					],
					"stateMutability": "view",
					"type": "function"
				},
				{
					"inputs": [
						{
							"internalType": "uint256",
							"name": "inAmountTokenA",
							"type": "uint256"
						},
						{
							"internalType": "uint8",
							"name": "tokenADecimals",
							"type": "uint8"
						},
						{
							"internalType": "uint8",
							"name": "tokenBDecimals",
							"type": "uint8"
						}
					],
					"name": "convertTokenAToTokenB",
					"outputs": [
						{
							"internalType": "uint256",
							"name": "outAmountTokenB",
							"type": "uint256"
						}
					],
					"stateMutability": "pure",
					"type": "function"
				},
				{
					"inputs": [],
					"name": "deductionPercentage",
					"outputs": [
						{
							"internalType": "uint256",
							"name": "",
							"type": "uint256"
						}
					],
					"stateMutability": "view",
					"type": "function"
				},
				{
					"inputs": [
						{
							"internalType": "uint256",
							"name": "_amount",
							"type": "uint256"
						},
						{
							"internalType": "uint256",
							"name": "_lockDays",
							"type": "uint256"
						}
					],
					"name": "deposit",
					"outputs": [],
					"stateMutability": "nonpayable",
					"type": "function"
				},
				{
					"inputs": [],
					"name": "depositTokenDecimals",
					"outputs": [
						{
							"internalType": "uint8",
							"name": "",
							"type": "uint8"
						}
					],
					"stateMutability": "view",
					"type": "function"
				},
				{
					"inputs": [
						{
							"internalType": "address",
							"name": "",
							"type": "address"
						},
						{
							"internalType": "uint256",
							"name": "",
							"type": "uint256"
						}
					],
					"name": "depositeTime",
					"outputs": [
						{
							"internalType": "uint256",
							"name": "",
							"type": "uint256"
						}
					],
					"stateMutability": "view",
					"type": "function"
				},
				{
					"inputs": [
						{
							"internalType": "address",
							"name": "",
							"type": "address"
						},
						{
							"internalType": "uint256",
							"name": "",
							"type": "uint256"
						}
					],
					"name": "depositeToken",
					"outputs": [
						{
							"internalType": "uint256",
							"name": "",
							"type": "uint256"
						}
					],
					"stateMutability": "view",
					"type": "function"
				},
				{
					"inputs": [
						{
							"internalType": "address",
							"name": "",
							"type": "address"
						}
					],
					"name": "depositeTokensTotal",
					"outputs": [
						{
							"internalType": "uint256",
							"name": "",
							"type": "uint256"
						}
					],
					"stateMutability": "view",
					"type": "function"
				},
				{
					"inputs": [
						{
							"internalType": "contract IERC20",
							"name": "_token",
							"type": "address"
						},
						{
							"internalType": "uint256",
							"name": "_amount",
							"type": "uint256"
						}
					],
					"name": "emergencyWithdrawTokens",
					"outputs": [],
					"stateMutability": "nonpayable",
					"type": "function"
				},
				{
					"inputs": [
						{
							"internalType": "uint256",
							"name": "_amount",
							"type": "uint256"
						}
					],
					"name": "emergencyWithdrawWei",
					"outputs": [],
					"stateMutability": "nonpayable",
					"type": "function"
				},
				{
					"inputs": [
						{
							"internalType": "uint256",
							"name": "_days",
							"type": "uint256"
						}
					],
					"name": "getLockPeriodParams",
					"outputs": [
						{
							"components": [
								{
									"internalType": "uint256",
									"name": "lockTimeDays",
									"type": "uint256"
								},
								{
									"internalType": "uint256",
									"name": "minimumDeposit",
									"type": "uint256"
								},
								{
									"internalType": "uint256",
									"name": "percentageBasisPoints",
									"type": "uint256"
								},
								{
									"internalType": "uint256",
									"name": "maxRate",
									"type": "uint256"
								},
								{
									"internalType": "uint256",
									"name": "minRate",
									"type": "uint256"
								},
								{
									"internalType": "uint256",
									"name": "decrementStep",
									"type": "uint256"
								},
								{
									"internalType": "uint256",
									"name": "stepSize",
									"type": "uint256"
								},
								{
									"internalType": "bool",
									"name": "fixedBasisPoints",
									"type": "bool"
								},
								{
									"internalType": "uint256",
									"name": "stakedAmount",
									"type": "uint256"
								}
							],
							"internalType": "struct StakeFactory.LockPeriodParams",
							"name": "",
							"type": "tuple"
						}
					],
					"stateMutability": "view",
					"type": "function"
				},
				{
					"inputs": [],
					"name": "getLockPeriods",
					"outputs": [
						{
							"internalType": "uint256[]",
							"name": "",
							"type": "uint256[]"
						}
					],
					"stateMutability": "view",
					"type": "function"
				},
				{
					"inputs": [],
					"name": "getLockPeriodsInfo",
					"outputs": [
						{
							"components": [
								{
									"internalType": "uint256",
									"name": "lockTimeDays",
									"type": "uint256"
								},
								{
									"internalType": "uint256",
									"name": "minimumDeposit",
									"type": "uint256"
								},
								{
									"internalType": "uint256",
									"name": "percentageBasisPoints",
									"type": "uint256"
								},
								{
									"internalType": "uint256",
									"name": "maxRate",
									"type": "uint256"
								},
								{
									"internalType": "uint256",
									"name": "minRate",
									"type": "uint256"
								},
								{
									"internalType": "uint256",
									"name": "decrementStep",
									"type": "uint256"
								},
								{
									"internalType": "uint256",
									"name": "stepSize",
									"type": "uint256"
								},
								{
									"internalType": "bool",
									"name": "fixedBasisPoints",
									"type": "bool"
								},
								{
									"internalType": "uint256",
									"name": "stakedAmount",
									"type": "uint256"
								}
							],
							"internalType": "struct StakeFactory.LockPeriodParams[]",
							"name": "ret",
							"type": "tuple[]"
						}
					],
					"stateMutability": "view",
					"type": "function"
				},
				{
					"inputs": [],
					"name": "getRewardTokenInfo",
					"outputs": [
						{
							"internalType": "address",
							"name": "addr",
							"type": "address"
						},
						{
							"internalType": "string",
							"name": "name",
							"type": "string"
						},
						{
							"internalType": "string",
							"name": "symbol",
							"type": "string"
						},
						{
							"internalType": "uint8",
							"name": "decimals",
							"type": "uint8"
						},
						{
							"internalType": "uint256",
							"name": "balance",
							"type": "uint256"
						}
					],
					"stateMutability": "view",
					"type": "function"
				},
				{
					"inputs": [],
					"name": "getStakeTokenInfo",
					"outputs": [
						{
							"internalType": "address",
							"name": "addr",
							"type": "address"
						},
						{
							"internalType": "string",
							"name": "name",
							"type": "string"
						},
						{
							"internalType": "string",
							"name": "symbol",
							"type": "string"
						},
						{
							"internalType": "uint8",
							"name": "decimals",
							"type": "uint8"
						},
						{
							"internalType": "uint256",
							"name": "balance",
							"type": "uint256"
						}
					],
					"stateMutability": "view",
					"type": "function"
				},
				{
					"inputs": [
						{
							"internalType": "address",
							"name": "user",
							"type": "address"
						}
					],
					"name": "getUser",
					"outputs": [
						{
							"components": [
								{
									"internalType": "address",
									"name": "Address",
									"type": "address"
								},
								{
									"internalType": "uint256",
									"name": "DepositeTokenTotal",
									"type": "uint256"
								},
								{
									"internalType": "uint256",
									"name": "LastUpdated",
									"type": "uint256"
								},
								{
									"internalType": "uint256[]",
									"name": "LockableDays",
									"type": "uint256[]"
								},
								{
									"internalType": "uint256[]",
									"name": "DepositeTokens",
									"type": "uint256[]"
								},
								{
									"internalType": "uint256[]",
									"name": "DepositeTime",
									"type": "uint256[]"
								},
								{
									"internalType": "uint256",
									"name": "WithdrawedReward",
									"type": "uint256"
								},
								{
									"internalType": "uint256",
									"name": "WithdrawAbleReward",
									"type": "uint256"
								}
							],
							"internalType": "struct StakeFactory.UserInfo",
							"name": "info",
							"type": "tuple"
						}
					],
					"stateMutability": "view",
					"type": "function"
				},
				{
					"inputs": [
						{
							"internalType": "uint256",
							"name": "_offset",
							"type": "uint256"
						},
						{
							"internalType": "uint256",
							"name": "_limit",
							"type": "uint256"
						}
					],
					"name": "getUsers",
					"outputs": [
						{
							"components": [
								{
									"internalType": "address",
									"name": "Address",
									"type": "address"
								},
								{
									"internalType": "uint256",
									"name": "DepositeTokenTotal",
									"type": "uint256"
								},
								{
									"internalType": "uint256",
									"name": "LastUpdated",
									"type": "uint256"
								},
								{
									"internalType": "uint256[]",
									"name": "LockableDays",
									"type": "uint256[]"
								},
								{
									"internalType": "uint256[]",
									"name": "DepositeTokens",
									"type": "uint256[]"
								},
								{
									"internalType": "uint256[]",
									"name": "DepositeTime",
									"type": "uint256[]"
								},
								{
									"internalType": "uint256",
									"name": "WithdrawedReward",
									"type": "uint256"
								},
								{
									"internalType": "uint256",
									"name": "WithdrawAbleReward",
									"type": "uint256"
								}
							],
							"internalType": "struct StakeFactory.UserInfo[]",
							"name": "ret",
							"type": "tuple[]"
						}
					],
					"stateMutability": "view",
					"type": "function"
				},
				{
					"inputs": [
						{
							"internalType": "uint256[]",
							"name": "_index",
							"type": "uint256[]"
						}
					],
					"name": "harwest",
					"outputs": [
						{
							"internalType": "uint256",
							"name": "_totalWithdrawAmount",
							"type": "uint256"
						},
						{
							"internalType": "uint256",
							"name": "_totalReward",
							"type": "uint256"
						},
						{
							"internalType": "uint256",
							"name": "_deductionFee",
							"type": "uint256"
						}
					],
					"stateMutability": "nonpayable",
					"type": "function"
				},
				{
					"inputs": [
						{
							"internalType": "address",
							"name": "",
							"type": "address"
						}
					],
					"name": "isSpam",
					"outputs": [
						{
							"internalType": "bool",
							"name": "",
							"type": "bool"
						}
					],
					"stateMutability": "view",
					"type": "function"
				},
				{
					"inputs": [
						{
							"internalType": "address",
							"name": "",
							"type": "address"
						}
					],
					"name": "lastUpdated",
					"outputs": [
						{
							"internalType": "uint256",
							"name": "",
							"type": "uint256"
						}
					],
					"stateMutability": "view",
					"type": "function"
				},
				{
					"inputs": [
						{
							"internalType": "uint256",
							"name": "",
							"type": "uint256"
						}
					],
					"name": "lockPeriodParams",
					"outputs": [
						{
							"internalType": "uint256",
							"name": "lockTimeDays",
							"type": "uint256"
						},
						{
							"internalType": "uint256",
							"name": "minimumDeposit",
							"type": "uint256"
						},
						{
							"internalType": "uint256",
							"name": "percentageBasisPoints",
							"type": "uint256"
						},
						{
							"internalType": "uint256",
							"name": "maxRate",
							"type": "uint256"
						},
						{
							"internalType": "uint256",
							"name": "minRate",
							"type": "uint256"
						},
						{
							"internalType": "uint256",
							"name": "decrementStep",
							"type": "uint256"
						},
						{
							"internalType": "uint256",
							"name": "stepSize",
							"type": "uint256"
						},
						{
							"internalType": "bool",
							"name": "fixedBasisPoints",
							"type": "bool"
						},
						{
							"internalType": "uint256",
							"name": "stakedAmount",
							"type": "uint256"
						}
					],
					"stateMutability": "view",
					"type": "function"
				},
				{
					"inputs": [
						{
							"internalType": "address",
							"name": "",
							"type": "address"
						},
						{
							"internalType": "uint256",
							"name": "",
							"type": "uint256"
						}
					],
					"name": "lockableDays",
					"outputs": [
						{
							"internalType": "uint256",
							"name": "",
							"type": "uint256"
						}
					],
					"stateMutability": "view",
					"type": "function"
				},
				{
					"inputs": [],
					"name": "owner",
					"outputs": [
						{
							"internalType": "address",
							"name": "",
							"type": "address"
						}
					],
					"stateMutability": "view",
					"type": "function"
				},
				{
					"inputs": [],
					"name": "paused",
					"outputs": [
						{
							"internalType": "bool",
							"name": "",
							"type": "bool"
						}
					],
					"stateMutability": "view",
					"type": "function"
				},
				{
					"inputs": [
						{
							"internalType": "address",
							"name": "_address",
							"type": "address"
						}
					],
					"name": "pendingRewards",
					"outputs": [
						{
							"internalType": "uint256",
							"name": "reward",
							"type": "uint256"
						}
					],
					"stateMutability": "view",
					"type": "function"
				},
				{
					"inputs": [
						{
							"internalType": "uint256",
							"name": "_days",
							"type": "uint256"
						}
					],
					"name": "removeLockPeriod",
					"outputs": [],
					"stateMutability": "nonpayable",
					"type": "function"
				},
				{
					"inputs": [
						{
							"internalType": "address",
							"name": "_addr",
							"type": "address"
						}
					],
					"name": "removeSpam",
					"outputs": [],
					"stateMutability": "nonpayable",
					"type": "function"
				},
				{
					"inputs": [],
					"name": "rewardToken",
					"outputs": [
						{
							"internalType": "contract IERC20",
							"name": "",
							"type": "address"
						}
					],
					"stateMutability": "view",
					"type": "function"
				},
				{
					"inputs": [],
					"name": "rewardTokenDecimals",
					"outputs": [
						{
							"internalType": "uint8",
							"name": "",
							"type": "uint8"
						}
					],
					"stateMutability": "view",
					"type": "function"
				},
				{
					"inputs": [
						{
							"internalType": "uint256",
							"name": "_days",
							"type": "uint256"
						},
						{
							"internalType": "uint256",
							"name": "_minimumDeposit",
							"type": "uint256"
						},
						{
							"internalType": "uint256",
							"name": "percentageBasisPoints",
							"type": "uint256"
						},
						{
							"internalType": "uint256",
							"name": "_maxRate",
							"type": "uint256"
						},
						{
							"internalType": "uint256",
							"name": "_minRate",
							"type": "uint256"
						},
						{
							"internalType": "uint256",
							"name": "_decrementStep",
							"type": "uint256"
						},
						{
							"internalType": "uint256",
							"name": "_stepSize",
							"type": "uint256"
						},
						{
							"internalType": "bool",
							"name": "_fixedBasisPoints",
							"type": "bool"
						}
					],
					"name": "setAllocation",
					"outputs": [],
					"stateMutability": "nonpayable",
					"type": "function"
				},
				{
					"inputs": [
						{
							"internalType": "uint256",
							"name": "percentageBasisPoints",
							"type": "uint256"
						}
					],
					"name": "setDeductionPercentage",
					"outputs": [],
					"stateMutability": "nonpayable",
					"type": "function"
				},
				{
					"inputs": [
						{
							"internalType": "address",
							"name": "_newTaxReceiver",
							"type": "address"
						}
					],
					"name": "setTaxReceiver",
					"outputs": [],
					"stateMutability": "nonpayable",
					"type": "function"
				},
				{
					"inputs": [],
					"name": "taxreceiver",
					"outputs": [
						{
							"internalType": "address",
							"name": "",
							"type": "address"
						}
					],
					"stateMutability": "view",
					"type": "function"
				},
				{
					"inputs": [],
					"name": "time",
					"outputs": [
						{
							"internalType": "uint256",
							"name": "",
							"type": "uint256"
						}
					],
					"stateMutability": "view",
					"type": "function"
				},
				{
					"inputs": [
						{
							"internalType": "address",
							"name": "newOwner",
							"type": "address"
						}
					],
					"name": "transferOwnership",
					"outputs": [],
					"stateMutability": "nonpayable",
					"type": "function"
				},
				{
					"inputs": [
						{
							"internalType": "uint256",
							"name": "",
							"type": "uint256"
						}
					],
					"name": "users",
					"outputs": [
						{
							"internalType": "address",
							"name": "",
							"type": "address"
						}
					],
					"stateMutability": "view",
					"type": "function"
				},
				{
					"inputs": [],
					"name": "usersCount",
					"outputs": [
						{
							"internalType": "uint256",
							"name": "",
							"type": "uint256"
						}
					],
					"stateMutability": "view",
					"type": "function"
				},
				{
					"inputs": [
						{
							"internalType": "address",
							"name": "",
							"type": "address"
						}
					],
					"name": "usersExists",
					"outputs": [
						{
							"internalType": "bool",
							"name": "",
							"type": "bool"
						}
					],
					"stateMutability": "view",
					"type": "function"
				},
				{
					"inputs": [
						{
							"internalType": "address",
							"name": "",
							"type": "address"
						}
					],
					"name": "withdrawedReward",
					"outputs": [
						{
							"internalType": "uint256",
							"name": "",
							"type": "uint256"
						}
					],
					"stateMutability": "view",
					"type": "function"
				},
				{
					"stateMutability": "payable",
					"type": "receive"
				}
			],
			"devdoc": {
				"kind": "dev",
				"methods": {
					"owner()": {
						"details": "Returns the address of the current owner."
					},
					"paused()": {
						"details": "Returns true if the contract is paused, and false otherwise.\t"
					},
					"transferOwnership(address)": {
						"details": "Transfers ownership of the contract to a new account (`newOwner`). Can only be called by the current owner."
					}
				},
				"version": 1
			},
			"evm": {
				"assembly": "    /* \"StakeFactory.sol\":8438:26133  contract StakeFactory is Ownable, Pausable, ReentrancyGuard {... */\n  mstore(0x40, 0x80)\n    /* \"StakeFactory.sol\":8565:8609  bool public IS_ULTIMATE_STAKE_FACTORY = true */\n  0x03\n  dup1\n  sload\n  not(shl(0xa0, 0xff))\n  and\n  shl(0xa0, 0x01)\n  or\n  swap1\n  sstore\n    /* \"StakeFactory.sol\":9995:9999  2500 */\n  0x09c4\n    /* \"StakeFactory.sol\":9958:9999  uint256 public deductionPercentage = 2500 */\n  0x11\n  sstore\n    /* \"StakeFactory.sol\":10107:10109  60 */\n  0x3c\n    /* \"StakeFactory.sol\":10085:10109  uint256 public time = 60 */\n  0x12\n  sstore\n    /* \"StakeFactory.sol\":10925:11974  constructor(IERC20 _token, IERC20 _rewardToken, address _taxreceiver, uint256 _deductionPercentage, LockPeriodParams[] memory _initLockPeriods) {... */\n  callvalue\n  dup1\n  iszero\n  tag_1\n  jumpi\n  0x00\n  dup1\n  revert\ntag_1:\n  pop\n  mload(0x40)\n  sub(codesize, bytecodeSize)\n  dup1\n  bytecodeSize\n  dup4\n  codecopy\n  dup2\n  add\n  0x40\n  dup2\n  swap1\n  mstore\n  tag_2\n  swap2\n  tag_3\n  jump\t// in\ntag_2:\n    /* \"StakeFactory.sol\":7522:7528  _owner */\n  0x00\n    /* \"StakeFactory.sol\":7522:7541  _owner = msg.sender */\n  dup1\n  sload\n  not(sub(shl(0xa0, 0x01), 0x01))\n  and\n    /* \"StakeFactory.sol\":7531:7541  msg.sender */\n  caller\n    /* \"StakeFactory.sol\":7522:7541  _owner = msg.sender */\n  swap1\n  dup2\n  or\n  dup3\n  sstore\n    /* \"StakeFactory.sol\":7559:7599  OwnershipTransferred(address(0), _owner) */\n  mload(0x40)\n    /* \"StakeFactory.sol\":7531:7541  msg.sender */\n  swap1\n  swap2\n    /* \"StakeFactory.sol\":7522:7528  _owner */\n  swap1\n    /* \"StakeFactory.sol\":7559:7599  OwnershipTransferred(address(0), _owner) */\n  0x8be0079c531659141344cd1fd0a4f28419497f9722a3daafe3b4186f6b6457e0\n  swap1\n    /* \"StakeFactory.sol\":7522:7528  _owner */\n  dup3\n  swap1\n    /* \"StakeFactory.sol\":7559:7599  OwnershipTransferred(address(0), _owner) */\n  log3\n    /* \"StakeFactory.sol\":5876:5881  false */\n  0x00\n    /* \"StakeFactory.sol\":5866:5881  _paused = false */\n  dup1\n  sload\n  not(shl(0xa0, 0xff))\n  and\n  swap1\n  sstore\n  0x01\n    /* \"StakeFactory.sol\":2310:2332  _status = _NOT_ENTERED */\n  dup1\n  sstore\n    /* \"StakeFactory.sol\":11080:11085  Token */\n  0x02\n    /* \"StakeFactory.sol\":11080:11094  Token = _token */\n  dup1\n  sload\n  sub(shl(0xa0, 0x01), 0x01)\n  dup1\n  dup9\n  and\n  not(sub(shl(0xa0, 0x01), 0x01))\n  swap3\n  dup4\n  and\n  dup2\n  or\n  swap1\n  swap4\n  sstore\n    /* \"StakeFactory.sol\":11105:11116  rewardToken */\n  0x03\n    /* \"StakeFactory.sol\":11105:11131  rewardToken = _rewardToken */\n  dup1\n  sload\n  swap2\n  dup9\n  and\n  swap2\n  swap1\n  swap3\n  and\n  or\n  swap1\n  sstore\n    /* \"StakeFactory.sol\":11142:11161  deductionPercentage */\n  0x11\n    /* \"StakeFactory.sol\":11142:11184  deductionPercentage = _deductionPercentage */\n  dup4\n  swap1\n  sstore\n    /* \"StakeFactory.sol\":11218:11234  Token.decimals() */\n  0x40\n  dup1\n  mload\n  shl(0xe0, 0x313ce567)\n  dup2\n  mstore\n  swap1\n  mload\n    /* \"StakeFactory.sol\":11218:11232  Token.decimals */\n  0x313ce567\n  swap2\n    /* \"StakeFactory.sol\":11218:11234  Token.decimals() */\n  0x04\n  dup1\n  dup3\n  add\n  swap3\n  0x20\n  swap3\n  swap1\n  swap2\n  swap1\n  dup3\n  swap1\n  sub\n  add\n  dup2\n    /* \"StakeFactory.sol\":11080:11094  Token = _token */\n  dup7\n    /* \"StakeFactory.sol\":11218:11234  Token.decimals() */\n  gas\n  staticcall\n  iszero\n  dup1\n  iszero\n  tag_13\n  jumpi\n  returndatasize\n  0x00\n  dup1\n  returndatacopy\n  revert(0x00, returndatasize)\ntag_13:\n  pop\n  pop\n  pop\n  pop\n  mload(0x40)\n  returndatasize\n  not(0x1f)\n  0x1f\n  dup3\n  add\n  and\n  dup3\n  add\n  dup1\n  0x40\n  mstore\n  pop\n  dup2\n  add\n  swap1\n  tag_14\n  swap2\n  swap1\n  tag_15\n  jump\t// in\ntag_14:\n    /* \"StakeFactory.sol\":11195:11215  depositTokenDecimals */\n  0x03\n  0x15\n    /* \"StakeFactory.sol\":11195:11234  depositTokenDecimals = Token.decimals() */\n  0x0100\n  exp\n  dup2\n  sload\n  dup2\n  0xff\n  mul\n  not\n  and\n  swap1\n  dup4\n  0xff\n  and\n  mul\n  or\n  swap1\n  sstore\n  pop\n    /* \"StakeFactory.sol\":11267:11278  rewardToken */\n  0x03\n  0x00\n  swap1\n  sload\n  swap1\n  0x0100\n  exp\n  swap1\n  div\n  sub(shl(0xa0, 0x01), 0x01)\n  and\n  sub(shl(0xa0, 0x01), 0x01)\n    /* \"StakeFactory.sol\":11267:11287  rewardToken.decimals */\n  and\n  0x313ce567\n    /* \"StakeFactory.sol\":11267:11289  rewardToken.decimals() */\n  mload(0x40)\n  dup2\n  0xffffffff\n  and\n  0xe0\n  shl\n  dup2\n  mstore\n  0x04\n  add\n  0x20\n  mload(0x40)\n  dup1\n  dup4\n  sub\n  dup2\n  dup7\n  gas\n  staticcall\n  iszero\n  dup1\n  iszero\n  tag_17\n  jumpi\n  returndatasize\n  0x00\n  dup1\n  returndatacopy\n  revert(0x00, returndatasize)\ntag_17:\n  pop\n  pop\n  pop\n  pop\n  mload(0x40)\n  returndatasize\n  not(0x1f)\n  0x1f\n  dup3\n  add\n  and\n  dup3\n  add\n  dup1\n  0x40\n  mstore\n  pop\n  dup2\n  add\n  swap1\n  tag_18\n  swap2\n  swap1\n  tag_15\n  jump\t// in\ntag_18:\n    /* \"StakeFactory.sol\":11245:11264  rewardTokenDecimals */\n  0x03\n    /* \"StakeFactory.sol\":11245:11289  rewardTokenDecimals = rewardToken.decimals() */\n  dup1\n  sload\n  not(shl(0xb0, 0xff))\n  and\n  shl(0xb0, 0x01)\n  0xff\n  swap4\n  swap1\n  swap4\n  and\n  swap3\n  swap1\n  swap3\n  mul\n  swap2\n  swap1\n  swap2\n  or\n  swap1\n  sstore\n    /* \"StakeFactory.sol\":11302:11313  taxreceiver */\n  0x06\n    /* \"StakeFactory.sol\":11302:11328  taxreceiver = _taxreceiver */\n  dup1\n  sload\n  not(sub(shl(0xa0, 0x01), 0x01))\n  and\n  sub(shl(0xa0, 0x01), 0x01)\n  dup6\n  and\n  or\n  swap1\n  sstore\n  0x00\n    /* \"StakeFactory.sol\":11434:11967  for (uint256 i = 0; i < _initLockPeriods.length; i++) {... */\ntag_19:\n    /* \"StakeFactory.sol\":11458:11474  _initLockPeriods */\n  dup2\n    /* \"StakeFactory.sol\":11458:11481  _initLockPeriods.length */\n  mload\n    /* \"StakeFactory.sol\":11454:11455  i */\n  dup2\n    /* \"StakeFactory.sol\":11454:11481  i < _initLockPeriods.length */\n  lt\n    /* \"StakeFactory.sol\":11434:11967  for (uint256 i = 0; i < _initLockPeriods.length; i++) {... */\n  iszero\n  tag_20\n  jumpi\n    /* \"StakeFactory.sol\":11503:11941  setAllocation(... */\n  tag_22\n    /* \"StakeFactory.sol\":11535:11551  _initLockPeriods */\n  dup3\n    /* \"StakeFactory.sol\":11552:11553  i */\n  dup3\n    /* \"StakeFactory.sol\":11535:11554  _initLockPeriods[i] */\n  dup2\n  mload\n  dup2\n  lt\n  tag_24\n  jumpi\n  tag_24\n  tag_25\n  jump\t// in\ntag_24:\n  0x20\n  mul\n  0x20\n  add\n  add\n  mload\n    /* \"StakeFactory.sol\":11535:11567  _initLockPeriods[i].lockTimeDays */\n  0x00\n  add\n  mload\n    /* \"StakeFactory.sol\":11586:11602  _initLockPeriods */\n  dup4\n    /* \"StakeFactory.sol\":11603:11604  i */\n  dup4\n    /* \"StakeFactory.sol\":11586:11605  _initLockPeriods[i] */\n  dup2\n  mload\n  dup2\n  lt\n  tag_27\n  jumpi\n  tag_27\n  tag_25\n  jump\t// in\ntag_27:\n  0x20\n  mul\n  0x20\n  add\n  add\n  mload\n    /* \"StakeFactory.sol\":11586:11620  _initLockPeriods[i].minimumDeposit */\n  0x20\n  add\n  mload\n    /* \"StakeFactory.sol\":11639:11655  _initLockPeriods */\n  dup5\n    /* \"StakeFactory.sol\":11656:11657  i */\n  dup5\n    /* \"StakeFactory.sol\":11639:11658  _initLockPeriods[i] */\n  dup2\n  mload\n  dup2\n  lt\n  tag_29\n  jumpi\n  tag_29\n  tag_25\n  jump\t// in\ntag_29:\n  0x20\n  mul\n  0x20\n  add\n  add\n  mload\n    /* \"StakeFactory.sol\":11639:11680  _initLockPeriods[i].percentageBasisPoints */\n  0x40\n  add\n  mload\n    /* \"StakeFactory.sol\":11699:11715  _initLockPeriods */\n  dup6\n    /* \"StakeFactory.sol\":11716:11717  i */\n  dup6\n    /* \"StakeFactory.sol\":11699:11718  _initLockPeriods[i] */\n  dup2\n  mload\n  dup2\n  lt\n  tag_31\n  jumpi\n  tag_31\n  tag_25\n  jump\t// in\ntag_31:\n  0x20\n  mul\n  0x20\n  add\n  add\n  mload\n    /* \"StakeFactory.sol\":11699:11726  _initLockPeriods[i].maxRate */\n  0x60\n  add\n  mload\n    /* \"StakeFactory.sol\":11745:11761  _initLockPeriods */\n  dup7\n    /* \"StakeFactory.sol\":11762:11763  i */\n  dup7\n    /* \"StakeFactory.sol\":11745:11764  _initLockPeriods[i] */\n  dup2\n  mload\n  dup2\n  lt\n  tag_33\n  jumpi\n  tag_33\n  tag_25\n  jump\t// in\ntag_33:\n  0x20\n  mul\n  0x20\n  add\n  add\n  mload\n    /* \"StakeFactory.sol\":11745:11772  _initLockPeriods[i].minRate */\n  0x80\n  add\n  mload\n    /* \"StakeFactory.sol\":11791:11807  _initLockPeriods */\n  dup8\n    /* \"StakeFactory.sol\":11808:11809  i */\n  dup8\n    /* \"StakeFactory.sol\":11791:11810  _initLockPeriods[i] */\n  dup2\n  mload\n  dup2\n  lt\n  tag_35\n  jumpi\n  tag_35\n  tag_25\n  jump\t// in\ntag_35:\n  0x20\n  mul\n  0x20\n  add\n  add\n  mload\n    /* \"StakeFactory.sol\":11791:11824  _initLockPeriods[i].decrementStep */\n  0xa0\n  add\n  mload\n    /* \"StakeFactory.sol\":11843:11859  _initLockPeriods */\n  dup9\n    /* \"StakeFactory.sol\":11860:11861  i */\n  dup9\n    /* \"StakeFactory.sol\":11843:11862  _initLockPeriods[i] */\n  dup2\n  mload\n  dup2\n  lt\n  tag_37\n  jumpi\n  tag_37\n  tag_25\n  jump\t// in\ntag_37:\n  0x20\n  mul\n  0x20\n  add\n  add\n  mload\n    /* \"StakeFactory.sol\":11843:11871  _initLockPeriods[i].stepSize */\n  0xc0\n  add\n  mload\n    /* \"StakeFactory.sol\":11890:11906  _initLockPeriods */\n  dup10\n    /* \"StakeFactory.sol\":11907:11908  i */\n  dup10\n    /* \"StakeFactory.sol\":11890:11909  _initLockPeriods[i] */\n  dup2\n  mload\n  dup2\n  lt\n  tag_39\n  jumpi\n  tag_39\n  tag_25\n  jump\t// in\ntag_39:\n  0x20\n  mul\n  0x20\n  add\n  add\n  mload\n    /* \"StakeFactory.sol\":11890:11926  _initLockPeriods[i].fixedBasisPoints */\n  0xe0\n  add\n  mload\n    /* \"StakeFactory.sol\":11503:11516  setAllocation */\n  shl(0x20, tag_40)\n    /* \"StakeFactory.sol\":11503:11941  setAllocation(... */\n  0x20\n  shr\n  jump\t// in\ntag_22:\n    /* \"StakeFactory.sol\":11483:11486  i++ */\n  dup1\n  tag_41\n  dup2\n  tag_42\n  jump\t// in\ntag_41:\n  swap2\n  pop\n  pop\n    /* \"StakeFactory.sol\":11434:11967  for (uint256 i = 0; i < _initLockPeriods.length; i++) {... */\n  jump(tag_19)\ntag_20:\n  pop\n    /* \"StakeFactory.sol\":10925:11974  constructor(IERC20 _token, IERC20 _rewardToken, address _taxreceiver, uint256 _deductionPercentage, LockPeriodParams[] memory _initLockPeriods) {... */\n  pop\n  pop\n  pop\n  pop\n  pop\n    /* \"StakeFactory.sol\":8438:26133  contract StakeFactory is Ownable, Pausable, ReentrancyGuard {... */\n  jump(tag_76)\n    /* \"StakeFactory.sol\":18294:19708  function setAllocation(... */\ntag_40:\n    /* \"StakeFactory.sol\":7912:7918  _owner */\n  and(sub(shl(0xa0, 0x01), 0x01), sload(0x00))\n    /* \"StakeFactory.sol\":7922:7932  msg.sender */\n  caller\n    /* \"StakeFactory.sol\":7912:7932  _owner == msg.sender */\n  eq\n    /* \"StakeFactory.sol\":7904:7969  require(_owner == msg.sender, \"Ownable: caller is not the owner\") */\n  tag_45\n  jumpi\n  mload(0x40)\n  shl(0xe5, 0x461bcd)\n  dup2\n  mstore\n    /* \"#utility.yul\":4149:4151   */\n  0x20\n    /* \"StakeFactory.sol\":7904:7969  require(_owner == msg.sender, \"Ownable: caller is not the owner\") */\n  0x04\n  dup3\n  add\n    /* \"#utility.yul\":4131:4152   */\n  dup2\n  swap1\n  mstore\n    /* \"#utility.yul\":4168:4186   */\n  0x24\n  dup3\n  add\n    /* \"#utility.yul\":4161:4191   */\n  mstore\n    /* \"#utility.yul\":4227:4261   */\n  0x4f776e61626c653a2063616c6c6572206973206e6f7420746865206f776e6572\n    /* \"#utility.yul\":4207:4225   */\n  0x44\n  dup3\n  add\n    /* \"#utility.yul\":4200:4262   */\n  mstore\n    /* \"#utility.yul\":4279:4297   */\n  0x64\n  add\n    /* \"StakeFactory.sol\":7904:7969  require(_owner == msg.sender, \"Ownable: caller is not the owner\") */\ntag_46:\n  mload(0x40)\n  dup1\n  swap2\n  sub\n  swap1\n  revert\ntag_45:\n    /* \"StakeFactory.sol\":18634:18639  10000 */\n  0x2710\n    /* \"StakeFactory.sol\":18609:18630  percentageBasisPoints */\n  dup7\n    /* \"StakeFactory.sol\":18609:18639  percentageBasisPoints <= 10000 */\n  gt\n  iszero\n    /* \"StakeFactory.sol\":18601:18662  require(percentageBasisPoints <= 10000, \"Invalid percentage\") */\n  tag_49\n  jumpi\n  mload(0x40)\n  shl(0xe5, 0x461bcd)\n  dup2\n  mstore\n    /* \"#utility.yul\":4510:4512   */\n  0x20\n    /* \"StakeFactory.sol\":18601:18662  require(percentageBasisPoints <= 10000, \"Invalid percentage\") */\n  0x04\n  dup3\n  add\n    /* \"#utility.yul\":4492:4513   */\n  mstore\n    /* \"#utility.yul\":4549:4551   */\n  0x12\n    /* \"#utility.yul\":4529:4547   */\n  0x24\n  dup3\n  add\n    /* \"#utility.yul\":4522:4552   */\n  mstore\n  shl(0x70, 0x496e76616c69642070657263656e74616765)\n    /* \"#utility.yul\":4568:4586   */\n  0x44\n  dup3\n  add\n    /* \"#utility.yul\":4561:4609   */\n  mstore\n    /* \"#utility.yul\":4626:4644   */\n  0x64\n  add\n    /* \"StakeFactory.sol\":18601:18662  require(percentageBasisPoints <= 10000, \"Invalid percentage\") */\n  tag_46\n    /* \"#utility.yul\":4308:4650   */\n  jump\n    /* \"StakeFactory.sol\":18601:18662  require(percentageBasisPoints <= 10000, \"Invalid percentage\") */\ntag_49:\n    /* \"StakeFactory.sol\":18693:18701  _minRate */\n  dup4\n    /* \"StakeFactory.sol\":18681:18689  _maxRate */\n  dup6\n    /* \"StakeFactory.sol\":18681:18701  _maxRate >= _minRate */\n  lt\n  iszero\n    /* \"StakeFactory.sol\":18673:18756  require(_maxRate >= _minRate, \"Max rate must be greater than or equal to min rate\") */\n  tag_52\n  jumpi\n  mload(0x40)\n  shl(0xe5, 0x461bcd)\n  dup2\n  mstore\n    /* \"#utility.yul\":4857:4859   */\n  0x20\n    /* \"StakeFactory.sol\":18673:18756  require(_maxRate >= _minRate, \"Max rate must be greater than or equal to min rate\") */\n  0x04\n  dup3\n  add\n    /* \"#utility.yul\":4839:4860   */\n  mstore\n    /* \"#utility.yul\":4896:4898   */\n  0x32\n    /* \"#utility.yul\":4876:4894   */\n  0x24\n  dup3\n  add\n    /* \"#utility.yul\":4869:4899   */\n  mstore\n    /* \"#utility.yul\":4935:4969   */\n  0x4d61782072617465206d7573742062652067726561746572207468616e206f72\n    /* \"#utility.yul\":4915:4933   */\n  0x44\n  dup3\n  add\n    /* \"#utility.yul\":4908:4970   */\n  mstore\n  shl(0x70, 0x20657175616c20746f206d696e2072617465)\n    /* \"#utility.yul\":4986:5004   */\n  0x64\n  dup3\n  add\n    /* \"#utility.yul\":4979:5027   */\n  mstore\n    /* \"#utility.yul\":5044:5063   */\n  0x84\n  add\n    /* \"StakeFactory.sol\":18673:18756  require(_maxRate >= _minRate, \"Max rate must be greater than or equal to min rate\") */\n  tag_46\n    /* \"#utility.yul\":4655:5069   */\n  jump\n    /* \"StakeFactory.sol\":18673:18756  require(_maxRate >= _minRate, \"Max rate must be greater than or equal to min rate\") */\ntag_52:\n    /* \"StakeFactory.sol\":18787:18788  0 */\n  0x00\n    /* \"StakeFactory.sol\":18775:18784  _stepSize */\n  dup3\n    /* \"StakeFactory.sol\":18775:18788  _stepSize > 0 */\n  gt\n    /* \"StakeFactory.sol\":18767:18825  require(_stepSize > 0, \"Step size must be greater than 0\") */\n  tag_55\n  jumpi\n  mload(0x40)\n  shl(0xe5, 0x461bcd)\n  dup2\n  mstore\n    /* \"#utility.yul\":5276:5278   */\n  0x20\n    /* \"StakeFactory.sol\":18767:18825  require(_stepSize > 0, \"Step size must be greater than 0\") */\n  0x04\n  dup3\n  add\n    /* \"#utility.yul\":5258:5279   */\n  dup2\n  swap1\n  mstore\n    /* \"#utility.yul\":5295:5313   */\n  0x24\n  dup3\n  add\n    /* \"#utility.yul\":5288:5318   */\n  mstore\n    /* \"#utility.yul\":5354:5388   */\n  0x537465702073697a65206d7573742062652067726561746572207468616e2030\n    /* \"#utility.yul\":5334:5352   */\n  0x44\n  dup3\n  add\n    /* \"#utility.yul\":5327:5389   */\n  mstore\n    /* \"#utility.yul\":5406:5424   */\n  0x64\n  add\n    /* \"StakeFactory.sol\":18767:18825  require(_stepSize > 0, \"Step size must be greater than 0\") */\n  tag_46\n    /* \"#utility.yul\":5074:5430   */\n  jump\n    /* \"StakeFactory.sol\":18767:18825  require(_stepSize > 0, \"Step size must be greater than 0\") */\ntag_55:\n    /* \"StakeFactory.sol\":18838:18855  allocation[_days] */\n  0x00\n  dup9\n  dup2\n  mstore\n    /* \"StakeFactory.sol\":18838:18848  allocation */\n  0x04\n    /* \"StakeFactory.sol\":18838:18855  allocation[_days] */\n  0x20\n  mstore\n  0x40\n  swap1\n  keccak256\n    /* \"StakeFactory.sol\":18838:18879  allocation[_days] = percentageBasisPoints */\n  dup7\n  swap1\n  sstore\n    /* \"StakeFactory.sol\":18897:18923  isLockPeriodAllowed(_days) */\n  tag_58\n    /* \"StakeFactory.sol\":18849:18854  _days */\n  dup9\n    /* \"StakeFactory.sol\":18897:18916  isLockPeriodAllowed */\n  tag_59\n    /* \"StakeFactory.sol\":18897:18923  isLockPeriodAllowed(_days) */\n  jump\t// in\ntag_58:\n    /* \"StakeFactory.sol\":18892:19054  if (!isLockPeriodAllowed(_days)) {... */\n  tag_60\n  jumpi\n    /* \"StakeFactory.sol\":18940:18958  allowedLockPeriods */\n  0x13\n    /* \"StakeFactory.sol\":18940:18970  allowedLockPeriods.push(_days) */\n  dup1\n  sload\n  0x01\n  dup2\n  add\n  dup3\n  sstore\n  0x00\n  swap2\n  swap1\n  swap2\n  mstore\n  0x66de8ffda797e3de9c05e8fc57b3bf0ec28a930d40b0d285d93c06501cf6a090\n  add\n  dup9\n  swap1\n  sstore\n    /* \"StakeFactory.sol\":18892:19054  if (!isLockPeriodAllowed(_days)) {... */\ntag_60:\n    /* \"StakeFactory.sol\":19187:19700  LockPeriodParams({... */\n  0x40\n  dup1\n  mload\n  0x0120\n  dup2\n  add\n  dup3\n  mstore\n  dup10\n  dup2\n  mstore\n  0x20\n  dup1\n  dup3\n  add\n  swap10\n  dup11\n  mstore\n  dup2\n  dup4\n  add\n  swap9\n  dup10\n  mstore\n  0x60\n  dup3\n  add\n  swap8\n  dup9\n  mstore\n  0x80\n  dup3\n  add\n  swap7\n  dup8\n  mstore\n  0xa0\n  dup3\n  add\n  swap6\n  dup7\n  mstore\n  0xc0\n  dup3\n  add\n  swap5\n  dup6\n  mstore\n  swap3\n  iszero\n  iszero\n  0xe0\n  dup3\n  add\n  swap1\n  dup2\n  mstore\n  0x00\n    /* \"StakeFactory.sol\":19652:19675  lockPeriodParams[_days] */\n  dup12\n  dup2\n  mstore\n    /* \"StakeFactory.sol\":19652:19668  lockPeriodParams */\n  0x05\n    /* \"StakeFactory.sol\":19652:19675  lockPeriodParams[_days] */\n  dup1\n  dup7\n  mstore\n  swap4\n  dup2\n  keccak256\n    /* \"StakeFactory.sol\":19652:19688  lockPeriodParams[_days].stakedAmount */\n  0x08\n  dup2\n  add\n  dup1\n  sload\n    /* \"StakeFactory.sol\":19187:19700  LockPeriodParams({... */\n  0x0100\n  dup7\n  add\n  swap1\n  dup2\n  mstore\n    /* \"StakeFactory.sol\":19161:19184  lockPeriodParams[_days] */\n  swap14\n  swap1\n  swap3\n  mstore\n  swap5\n  dup5\n  swap1\n  mstore\n    /* \"StakeFactory.sol\":19161:19700  lockPeriodParams[_days] = LockPeriodParams({... */\n  swap2\n  mload\n  dup5\n  sstore\n  swap9\n  mload\n  0x01\n  dup5\n  add\n  sstore\n  swap7\n  mload\n  0x02\n  dup4\n  add\n  sstore\n  swap5\n  mload\n  0x03\n  dup3\n  add\n  sstore\n  swap3\n  mload\n  0x04\n  dup5\n  add\n  sstore\n  swap1\n  mload\n  swap3\n  dup3\n  add\n  swap3\n  swap1\n  swap3\n  sstore\n  swap1\n  mload\n  0x06\n  dup3\n  add\n  sstore\n  swap2\n  mload\n  0x07\n  swap1\n  swap3\n  add\n  dup1\n  sload\n  not(0xff)\n  and\n  swap3\n  iszero\n  iszero\n  swap3\n  swap1\n  swap3\n  or\n  swap1\n  swap2\n  sstore\n  swap1\n  mload\n  swap1\n  sstore\n    /* \"StakeFactory.sol\":18294:19708  function setAllocation(... */\n  jump\t// out\n    /* \"StakeFactory.sol\":19822:20100  function isLockPeriodAllowed(uint256 _days) internal view returns (bool) {... */\ntag_59:\n    /* \"StakeFactory.sol\":19889:19893  bool */\n  0x00\n  dup1\n    /* \"StakeFactory.sol\":19906:20070  for (uint256 i = 0; i < allowedLockPeriods.length; i++) {... */\ntag_63:\n    /* \"StakeFactory.sol\":19930:19948  allowedLockPeriods */\n  0x13\n    /* \"StakeFactory.sol\":19930:19955  allowedLockPeriods.length */\n  sload\n    /* \"StakeFactory.sol\":19926:19955  i < allowedLockPeriods.length */\n  dup2\n  lt\n    /* \"StakeFactory.sol\":19906:20070  for (uint256 i = 0; i < allowedLockPeriods.length; i++) {... */\n  iszero\n  tag_64\n  jumpi\n    /* \"StakeFactory.sol\":20006:20011  _days */\n  dup3\n    /* \"StakeFactory.sol\":19981:19999  allowedLockPeriods */\n  0x13\n    /* \"StakeFactory.sol\":20000:20001  i */\n  dup3\n    /* \"StakeFactory.sol\":19981:20002  allowedLockPeriods[i] */\n  dup2\n  sload\n  dup2\n  lt\n  tag_67\n  jumpi\n  tag_67\n  tag_25\n  jump\t// in\ntag_67:\n  swap1\n  0x00\n  mstore\n  keccak256(0x00, 0x20)\n  add\n  sload\n    /* \"StakeFactory.sol\":19981:20011  allowedLockPeriods[i] == _days */\n  eq\n    /* \"StakeFactory.sol\":19977:20059  if (allowedLockPeriods[i] == _days) {... */\n  iszero\n  tag_69\n  jumpi\n  pop\n    /* \"StakeFactory.sol\":20039:20043  true */\n  0x01\n  swap3\n    /* \"StakeFactory.sol\":19822:20100  function isLockPeriodAllowed(uint256 _days) internal view returns (bool) {... */\n  swap2\n  pop\n  pop\n  jump\t// out\n    /* \"StakeFactory.sol\":19977:20059  if (allowedLockPeriods[i] == _days) {... */\ntag_69:\n    /* \"StakeFactory.sol\":19957:19960  i++ */\n  dup1\n  tag_70\n  dup2\n  tag_42\n  jump\t// in\ntag_70:\n  swap2\n  pop\n  pop\n    /* \"StakeFactory.sol\":19906:20070  for (uint256 i = 0; i < allowedLockPeriods.length; i++) {... */\n  jump(tag_63)\ntag_64:\n  pop\n    /* \"StakeFactory.sol\":20087:20092  false */\n  0x00\n  swap3\n    /* \"StakeFactory.sol\":19822:20100  function isLockPeriodAllowed(uint256 _days) internal view returns (bool) {... */\n  swap2\n  pop\n  pop\n  jump\t// out\n    /* \"#utility.yul\":14:153   */\ntag_71:\n  sub(shl(0xa0, 0x01), 0x01)\n    /* \"#utility.yul\":97:128   */\n  dup2\n  and\n    /* \"#utility.yul\":87:129   */\n  dup2\n  eq\n    /* \"#utility.yul\":77:147   */\n  tag_78\n  jumpi\n    /* \"#utility.yul\":143:144   */\n  0x00\n    /* \"#utility.yul\":140:141   */\n  dup1\n    /* \"#utility.yul\":133:145   */\n  revert\n    /* \"#utility.yul\":77:147   */\ntag_78:\n    /* \"#utility.yul\":14:153   */\n  pop\n  jump\t// out\n    /* \"#utility.yul\":158:285   */\ntag_72:\n    /* \"#utility.yul\":219:229   */\n  0x4e487b71\n    /* \"#utility.yul\":214:217   */\n  0xe0\n    /* \"#utility.yul\":210:230   */\n  shl\n    /* \"#utility.yul\":207:208   */\n  0x00\n    /* \"#utility.yul\":200:231   */\n  mstore\n    /* \"#utility.yul\":250:254   */\n  0x41\n    /* \"#utility.yul\":247:248   */\n  0x04\n    /* \"#utility.yul\":240:255   */\n  mstore\n    /* \"#utility.yul\":274:278   */\n  0x24\n    /* \"#utility.yul\":271:272   */\n  0x00\n    /* \"#utility.yul\":264:279   */\n  revert\n    /* \"#utility.yul\":290:545   */\ntag_73:\n    /* \"#utility.yul\":362:364   */\n  0x40\n    /* \"#utility.yul\":356:365   */\n  mload\n    /* \"#utility.yul\":404:410   */\n  0x0120\n    /* \"#utility.yul\":392:411   */\n  dup2\n  add\n  sub(shl(0x40, 0x01), 0x01)\n    /* \"#utility.yul\":426:460   */\n  dup2\n  gt\n    /* \"#utility.yul\":462:484   */\n  dup3\n  dup3\n  lt\n    /* \"#utility.yul\":423:485   */\n  or\n    /* \"#utility.yul\":420:508   */\n  iszero\n  tag_82\n  jumpi\n    /* \"#utility.yul\":488:506   */\n  tag_82\n  tag_72\n  jump\t// in\ntag_82:\n    /* \"#utility.yul\":524:526   */\n  0x40\n    /* \"#utility.yul\":517:539   */\n  mstore\n    /* \"#utility.yul\":290:545   */\n  swap1\n  jump\t// out\n    /* \"#utility.yul\":550:825   */\ntag_74:\n    /* \"#utility.yul\":621:623   */\n  0x40\n    /* \"#utility.yul\":615:624   */\n  mload\n    /* \"#utility.yul\":686:688   */\n  0x1f\n    /* \"#utility.yul\":667:680   */\n  dup3\n  add\n  not(0x1f)\n    /* \"#utility.yul\":663:690   */\n  and\n    /* \"#utility.yul\":651:691   */\n  dup2\n  add\n  sub(shl(0x40, 0x01), 0x01)\n    /* \"#utility.yul\":706:740   */\n  dup2\n  gt\n    /* \"#utility.yul\":742:764   */\n  dup3\n  dup3\n  lt\n    /* \"#utility.yul\":703:765   */\n  or\n    /* \"#utility.yul\":700:788   */\n  iszero\n  tag_85\n  jumpi\n    /* \"#utility.yul\":768:786   */\n  tag_85\n  tag_72\n  jump\t// in\ntag_85:\n    /* \"#utility.yul\":804:806   */\n  0x40\n    /* \"#utility.yul\":797:819   */\n  mstore\n    /* \"#utility.yul\":550:825   */\n  swap2\n  swap1\n  pop\n  jump\t// out\n    /* \"#utility.yul\":830:994   */\ntag_75:\n    /* \"#utility.yul\":906:919   */\n  dup1\n  mload\n    /* \"#utility.yul\":955:968   */\n  dup1\n  iszero\n    /* \"#utility.yul\":948:969   */\n  iszero\n    /* \"#utility.yul\":938:970   */\n  dup2\n  eq\n    /* \"#utility.yul\":928:988   */\n  tag_87\n  jumpi\n    /* \"#utility.yul\":984:985   */\n  0x00\n    /* \"#utility.yul\":981:982   */\n  dup1\n    /* \"#utility.yul\":974:986   */\n  revert\n    /* \"#utility.yul\":928:988   */\ntag_87:\n    /* \"#utility.yul\":830:994   */\n  swap2\n  swap1\n  pop\n  jump\t// out\n    /* \"#utility.yul\":999:3295   */\ntag_3:\n    /* \"#utility.yul\":1189:1195   */\n  0x00\n    /* \"#utility.yul\":1197:1203   */\n  dup1\n    /* \"#utility.yul\":1205:1211   */\n  0x00\n    /* \"#utility.yul\":1213:1219   */\n  dup1\n    /* \"#utility.yul\":1221:1227   */\n  0x00\n    /* \"#utility.yul\":1274:1277   */\n  0xa0\n    /* \"#utility.yul\":1262:1271   */\n  dup7\n    /* \"#utility.yul\":1253:1260   */\n  dup9\n    /* \"#utility.yul\":1249:1272   */\n  sub\n    /* \"#utility.yul\":1245:1278   */\n  slt\n    /* \"#utility.yul\":1242:1295   */\n  iszero\n  tag_89\n  jumpi\n    /* \"#utility.yul\":1291:1292   */\n  0x00\n    /* \"#utility.yul\":1288:1289   */\n  dup1\n    /* \"#utility.yul\":1281:1293   */\n  revert\n    /* \"#utility.yul\":1242:1295   */\ntag_89:\n    /* \"#utility.yul\":1323:1332   */\n  dup6\n    /* \"#utility.yul\":1317:1333   */\n  mload\n    /* \"#utility.yul\":1342:1381   */\n  tag_90\n    /* \"#utility.yul\":1375:1380   */\n  dup2\n    /* \"#utility.yul\":1342:1381   */\n  tag_71\n  jump\t// in\ntag_90:\n    /* \"#utility.yul\":1400:1405   */\n  dup1\n    /* \"#utility.yul\":1390:1405   */\n  swap6\n  pop\n  pop\n    /* \"#utility.yul\":1424:1426   */\n  0x20\n    /* \"#utility.yul\":1471:1473   */\n  dup1\n    /* \"#utility.yul\":1460:1469   */\n  dup8\n    /* \"#utility.yul\":1456:1474   */\n  add\n    /* \"#utility.yul\":1450:1475   */\n  mload\n    /* \"#utility.yul\":1484:1525   */\n  tag_91\n    /* \"#utility.yul\":1517:1524   */\n  dup2\n    /* \"#utility.yul\":1484:1525   */\n  tag_71\n  jump\t// in\ntag_91:\n    /* \"#utility.yul\":1596:1598   */\n  0x40\n    /* \"#utility.yul\":1581:1599   */\n  dup9\n  add\n    /* \"#utility.yul\":1575:1600   */\n  mload\n    /* \"#utility.yul\":1544:1551   */\n  swap1\n  swap6\n  pop\n    /* \"#utility.yul\":1609:1650   */\n  tag_92\n    /* \"#utility.yul\":1575:1600   */\n  dup2\n    /* \"#utility.yul\":1609:1650   */\n  tag_71\n  jump\t// in\ntag_92:\n    /* \"#utility.yul\":1716:1718   */\n  0x60\n    /* \"#utility.yul\":1701:1719   */\n  dup9\n  add\n    /* \"#utility.yul\":1695:1720   */\n  mload\n    /* \"#utility.yul\":1739:1742   */\n  0x80\n    /* \"#utility.yul\":1771:1789   */\n  dup1\n  dup11\n  add\n    /* \"#utility.yul\":1765:1790   */\n  mload\n    /* \"#utility.yul\":1669:1676   */\n  swap3\n  swap7\n  pop\n    /* \"#utility.yul\":1695:1720   */\n  swap1\n  swap5\n  pop\n    /* \"#utility.yul\":1739:1742   */\n  swap1\n  sub(shl(0x40, 0x01), 0x01)\n    /* \"#utility.yul\":1839:1853   */\n  dup1\n  dup3\n  gt\n    /* \"#utility.yul\":1836:1870   */\n  iszero\n  tag_93\n  jumpi\n    /* \"#utility.yul\":1866:1867   */\n  0x00\n    /* \"#utility.yul\":1863:1864   */\n  dup1\n    /* \"#utility.yul\":1856:1868   */\n  revert\n    /* \"#utility.yul\":1836:1870   */\ntag_93:\n    /* \"#utility.yul\":1904:1910   */\n  dup2\n    /* \"#utility.yul\":1893:1902   */\n  dup11\n    /* \"#utility.yul\":1889:1911   */\n  add\n    /* \"#utility.yul\":1879:1911   */\n  swap2\n  pop\n    /* \"#utility.yul\":1949:1956   */\n  dup11\n    /* \"#utility.yul\":1942:1946   */\n  0x1f\n    /* \"#utility.yul\":1938:1940   */\n  dup4\n    /* \"#utility.yul\":1934:1947   */\n  add\n    /* \"#utility.yul\":1930:1957   */\n  slt\n    /* \"#utility.yul\":1920:1975   */\n  tag_94\n  jumpi\n    /* \"#utility.yul\":1971:1972   */\n  0x00\n    /* \"#utility.yul\":1968:1969   */\n  dup1\n    /* \"#utility.yul\":1961:1973   */\n  revert\n    /* \"#utility.yul\":1920:1975   */\ntag_94:\n    /* \"#utility.yul\":2000:2002   */\n  dup2\n    /* \"#utility.yul\":1994:2003   */\n  mload\n    /* \"#utility.yul\":2022:2024   */\n  dup2\n    /* \"#utility.yul\":2018:2020   */\n  dup2\n    /* \"#utility.yul\":2015:2025   */\n  gt\n    /* \"#utility.yul\":2012:2048   */\n  iszero\n  tag_96\n  jumpi\n    /* \"#utility.yul\":2028:2046   */\n  tag_96\n  tag_72\n  jump\t// in\ntag_96:\n    /* \"#utility.yul\":2068:2104   */\n  tag_97\n    /* \"#utility.yul\":2100:2102   */\n  dup6\n    /* \"#utility.yul\":2095:2097   */\n  dup3\n    /* \"#utility.yul\":2092:2093   */\n  0x05\n    /* \"#utility.yul\":2088:2098   */\n  shl\n    /* \"#utility.yul\":2084:2103   */\n  add\n    /* \"#utility.yul\":2068:2104   */\n  tag_74\n  jump\t// in\ntag_97:\n    /* \"#utility.yul\":2138:2153   */\n  dup2\n  dup2\n  mstore\n    /* \"#utility.yul\":2169:2181   */\n  dup6\n  dup2\n  add\n  swap3\n  pop\n    /* \"#utility.yul\":2200:2206   */\n  0x0120\n    /* \"#utility.yul\":2241:2252   */\n  swap2\n  dup3\n  mul\n    /* \"#utility.yul\":2233:2253   */\n  dup5\n  add\n    /* \"#utility.yul\":2229:2258   */\n  dup7\n  add\n  swap2\n    /* \"#utility.yul\":2270:2289   */\n  dup14\n  dup4\n  gt\n    /* \"#utility.yul\":2267:2306   */\n  iszero\n  tag_98\n  jumpi\n    /* \"#utility.yul\":2302:2303   */\n  0x00\n    /* \"#utility.yul\":2299:2300   */\n  dup1\n    /* \"#utility.yul\":2292:2304   */\n  revert\n    /* \"#utility.yul\":2267:2306   */\ntag_98:\n    /* \"#utility.yul\":2326:2337   */\n  swap4\n  dup7\n  add\n  swap4\n    /* \"#utility.yul\":2346:3265   */\ntag_99:\n    /* \"#utility.yul\":2362:2368   */\n  dup3\n    /* \"#utility.yul\":2357:2360   */\n  dup6\n    /* \"#utility.yul\":2354:2369   */\n  lt\n    /* \"#utility.yul\":2346:3265   */\n  iszero\n  tag_101\n  jumpi\n    /* \"#utility.yul\":2442:2444   */\n  dup1\n    /* \"#utility.yul\":2436:2439   */\n  dup6\n    /* \"#utility.yul\":2427:2434   */\n  dup16\n    /* \"#utility.yul\":2423:2440   */\n  sub\n    /* \"#utility.yul\":2419:2445   */\n  slt\n    /* \"#utility.yul\":2416:2532   */\n  iszero\n  tag_102\n  jumpi\n    /* \"#utility.yul\":2486:2487   */\n  0x00\n    /* \"#utility.yul\":2515:2517   */\n  dup1\n    /* \"#utility.yul\":2511:2513   */\n  dup2\n    /* \"#utility.yul\":2504:2518   */\n  revert\n    /* \"#utility.yul\":2416:2532   */\ntag_102:\n    /* \"#utility.yul\":2560:2582   */\n  tag_103\n  tag_73\n  jump\t// in\ntag_103:\n    /* \"#utility.yul\":2617:2620   */\n  dup6\n    /* \"#utility.yul\":2611:2621   */\n  mload\n    /* \"#utility.yul\":2602:2609   */\n  dup2\n    /* \"#utility.yul\":2595:2622   */\n  mstore\n    /* \"#utility.yul\":2675:2677   */\n  dup8\n    /* \"#utility.yul\":2670:2673   */\n  dup7\n    /* \"#utility.yul\":2666:2678   */\n  add\n    /* \"#utility.yul\":2660:2679   */\n  mload\n    /* \"#utility.yul\":2655:2657   */\n  dup9\n    /* \"#utility.yul\":2646:2653   */\n  dup3\n    /* \"#utility.yul\":2642:2658   */\n  add\n    /* \"#utility.yul\":2635:2680   */\n  mstore\n    /* \"#utility.yul\":2733:2735   */\n  0x40\n    /* \"#utility.yul\":2728:2731   */\n  dup7\n    /* \"#utility.yul\":2724:2736   */\n  add\n    /* \"#utility.yul\":2718:2737   */\n  mload\n    /* \"#utility.yul\":2713:2715   */\n  0x40\n    /* \"#utility.yul\":2704:2711   */\n  dup3\n    /* \"#utility.yul\":2700:2716   */\n  add\n    /* \"#utility.yul\":2693:2738   */\n  mstore\n    /* \"#utility.yul\":2791:2793   */\n  0x60\n    /* \"#utility.yul\":2786:2789   */\n  dup7\n    /* \"#utility.yul\":2782:2794   */\n  add\n    /* \"#utility.yul\":2776:2795   */\n  mload\n    /* \"#utility.yul\":2771:2773   */\n  0x60\n    /* \"#utility.yul\":2762:2769   */\n  dup3\n    /* \"#utility.yul\":2758:2774   */\n  add\n    /* \"#utility.yul\":2751:2796   */\n  mstore\n    /* \"#utility.yul\":2849:2851   */\n  dup7\n    /* \"#utility.yul\":2844:2847   */\n  dup7\n    /* \"#utility.yul\":2840:2852   */\n  add\n    /* \"#utility.yul\":2834:2853   */\n  mload\n    /* \"#utility.yul\":2829:2831   */\n  dup8\n    /* \"#utility.yul\":2820:2827   */\n  dup3\n    /* \"#utility.yul\":2816:2832   */\n  add\n    /* \"#utility.yul\":2809:2854   */\n  mstore\n    /* \"#utility.yul\":2908:2911   */\n  0xa0\n    /* \"#utility.yul\":2903:2906   */\n  dup7\n    /* \"#utility.yul\":2899:2912   */\n  add\n    /* \"#utility.yul\":2893:2913   */\n  mload\n    /* \"#utility.yul\":2887:2890   */\n  0xa0\n    /* \"#utility.yul\":2878:2885   */\n  dup3\n    /* \"#utility.yul\":2874:2891   */\n  add\n    /* \"#utility.yul\":2867:2914   */\n  mstore\n    /* \"#utility.yul\":2937:2940   */\n  0xc0\n    /* \"#utility.yul\":2993:2995   */\n  dup1\n    /* \"#utility.yul\":2988:2991   */\n  dup8\n    /* \"#utility.yul\":2984:2996   */\n  add\n    /* \"#utility.yul\":2978:2997   */\n  mload\n    /* \"#utility.yul\":2973:2975   */\n  dup2\n    /* \"#utility.yul\":2964:2971   */\n  dup4\n    /* \"#utility.yul\":2960:2976   */\n  add\n    /* \"#utility.yul\":2953:2998   */\n  mstore\n  pop\n    /* \"#utility.yul\":3021:3024   */\n  0xe0\n    /* \"#utility.yul\":3062:3102   */\n  tag_104\n    /* \"#utility.yul\":3098:3100   */\n  dup2\n    /* \"#utility.yul\":3093:3096   */\n  dup9\n    /* \"#utility.yul\":3089:3101   */\n  add\n    /* \"#utility.yul\":3062:3102   */\n  tag_75\n  jump\t// in\ntag_104:\n    /* \"#utility.yul\":3044:3060   */\n  swap1\n  dup3\n  add\n    /* \"#utility.yul\":3037:3103   */\n  mstore\n    /* \"#utility.yul\":3127:3130   */\n  0x0100\n    /* \"#utility.yul\":3175:3188   */\n  dup7\n  dup2\n  add\n    /* \"#utility.yul\":3169:3189   */\n  mload\n    /* \"#utility.yul\":3150:3167   */\n  swap1\n  dup3\n  add\n    /* \"#utility.yul\":3143:3190   */\n  mstore\n    /* \"#utility.yul\":3203:3223   */\n  dup5\n  mstore\n    /* \"#utility.yul\":2379:2391   */\n  swap4\n  dup5\n  add\n  swap4\n    /* \"#utility.yul\":3243:3255   */\n  swap3\n  dup7\n  add\n  swap3\n    /* \"#utility.yul\":2346:3265   */\n  jump(tag_99)\ntag_101:\n    /* \"#utility.yul\":2350:2353   */\n  pop\n    /* \"#utility.yul\":3284:3289   */\n  dup1\n    /* \"#utility.yul\":3274:3289   */\n  swap7\n  pop\n  pop\n  pop\n  pop\n  pop\n  pop\n  pop\n    /* \"#utility.yul\":999:3295   */\n  swap3\n  swap6\n  pop\n  swap3\n  swap6\n  swap1\n  swap4\n  pop\n  jump\t// out\n    /* \"#utility.yul\":3300:3573   */\ntag_15:\n    /* \"#utility.yul\":3368:3374   */\n  0x00\n    /* \"#utility.yul\":3421:3423   */\n  0x20\n    /* \"#utility.yul\":3409:3418   */\n  dup3\n    /* \"#utility.yul\":3400:3407   */\n  dup5\n    /* \"#utility.yul\":3396:3419   */\n  sub\n    /* \"#utility.yul\":3392:3424   */\n  slt\n    /* \"#utility.yul\":3389:3441   */\n  iszero\n  tag_106\n  jumpi\n    /* \"#utility.yul\":3437:3438   */\n  0x00\n    /* \"#utility.yul\":3434:3435   */\n  dup1\n    /* \"#utility.yul\":3427:3439   */\n  revert\n    /* \"#utility.yul\":3389:3441   */\ntag_106:\n    /* \"#utility.yul\":3469:3478   */\n  dup2\n    /* \"#utility.yul\":3463:3479   */\n  mload\n    /* \"#utility.yul\":3519:3523   */\n  0xff\n    /* \"#utility.yul\":3512:3517   */\n  dup2\n    /* \"#utility.yul\":3508:3524   */\n  and\n    /* \"#utility.yul\":3501:3506   */\n  dup2\n    /* \"#utility.yul\":3498:3525   */\n  eq\n    /* \"#utility.yul\":3488:3543   */\n  tag_107\n  jumpi\n    /* \"#utility.yul\":3539:3540   */\n  0x00\n    /* \"#utility.yul\":3536:3537   */\n  dup1\n    /* \"#utility.yul\":3529:3541   */\n  revert\n    /* \"#utility.yul\":3488:3543   */\ntag_107:\n    /* \"#utility.yul\":3562:3567   */\n  swap4\n    /* \"#utility.yul\":3300:3573   */\n  swap3\n  pop\n  pop\n  pop\n  jump\t// out\n    /* \"#utility.yul\":3578:3705   */\ntag_25:\n    /* \"#utility.yul\":3639:3649   */\n  0x4e487b71\n    /* \"#utility.yul\":3634:3637   */\n  0xe0\n    /* \"#utility.yul\":3630:3650   */\n  shl\n    /* \"#utility.yul\":3627:3628   */\n  0x00\n    /* \"#utility.yul\":3620:3651   */\n  mstore\n    /* \"#utility.yul\":3670:3674   */\n  0x32\n    /* \"#utility.yul\":3667:3668   */\n  0x04\n    /* \"#utility.yul\":3660:3675   */\n  mstore\n    /* \"#utility.yul\":3694:3698   */\n  0x24\n    /* \"#utility.yul\":3691:3692   */\n  0x00\n    /* \"#utility.yul\":3684:3699   */\n  revert\n    /* \"#utility.yul\":3710:3942   */\ntag_42:\n    /* \"#utility.yul\":3749:3752   */\n  0x00\n  not(0x00)\n    /* \"#utility.yul\":3770:3787   */\n  dup3\n  eq\n    /* \"#utility.yul\":3767:3907   */\n  iszero\n  tag_110\n  jumpi\n    /* \"#utility.yul\":3829:3839   */\n  0x4e487b71\n    /* \"#utility.yul\":3824:3827   */\n  0xe0\n    /* \"#utility.yul\":3820:3840   */\n  shl\n    /* \"#utility.yul\":3817:3818   */\n  0x00\n    /* \"#utility.yul\":3810:3841   */\n  mstore\n    /* \"#utility.yul\":3864:3868   */\n  0x11\n    /* \"#utility.yul\":3861:3862   */\n  0x04\n    /* \"#utility.yul\":3854:3869   */\n  mstore\n    /* \"#utility.yul\":3892:3896   */\n  0x24\n    /* \"#utility.yul\":3889:3890   */\n  0x00\n    /* \"#utility.yul\":3882:3897   */\n  revert\n    /* \"#utility.yul\":3767:3907   */\ntag_110:\n  pop\n    /* \"#utility.yul\":3934:3935   */\n  0x01\n    /* \"#utility.yul\":3923:3936   */\n  add\n  swap1\n    /* \"#utility.yul\":3710:3942   */\n  jump\t// out\n    /* \"#utility.yul\":5074:5430   */\ntag_76:\n    /* \"StakeFactory.sol\":8438:26133  contract StakeFactory is Ownable, Pausable, ReentrancyGuard {... */\n  dataSize(sub_0)\n  dup1\n  dataOffset(sub_0)\n  0x00\n  codecopy\n  0x00\n  return\nstop\n\nsub_0: assembly {\n        /* \"StakeFactory.sol\":8438:26133  contract StakeFactory is Ownable, Pausable, ReentrancyGuard {... */\n      mstore(0x40, 0x80)\n      jumpi(tag_1, lt(calldatasize, 0x04))\n      shr(0xe0, calldataload(0x00))\n      dup1\n      0x850bad94\n      gt\n      tag_46\n      jumpi\n      dup1\n      0xc2e5fe76\n      gt\n      tag_47\n      jumpi\n      dup1\n      0xde644c76\n      gt\n      tag_48\n      jumpi\n      dup1\n      0xde644c76\n      eq\n      tag_40\n      jumpi\n      dup1\n      0xe2bbb158\n      eq\n      tag_41\n      jumpi\n      dup1\n      0xf256dfc5\n      eq\n      tag_42\n      jumpi\n      dup1\n      0xf2fde38b\n      eq\n      tag_43\n      jumpi\n      dup1\n      0xf66e4be3\n      eq\n      tag_44\n      jumpi\n      dup1\n      0xf7c618c1\n      eq\n      tag_45\n      jumpi\n      0x00\n      dup1\n      revert\n    tag_48:\n      dup1\n      0xc2e5fe76\n      eq\n      tag_35\n      jumpi\n      dup1\n      0xc53c5fc1\n      eq\n      tag_36\n      jumpi\n      dup1\n      0xc5c35196\n      eq\n      tag_37\n      jumpi\n      dup1\n      0xcd099205\n      eq\n      tag_38\n      jumpi\n      dup1\n      0xcd8de42c\n      eq\n      tag_39\n      jumpi\n      0x00\n      dup1\n      revert\n    tag_47:\n      dup1\n      0x9953ba47\n      gt\n      tag_49\n      jumpi\n      dup1\n      0x9953ba47\n      eq\n      tag_29\n      jumpi\n      dup1\n      0x9a4577a2\n      eq\n      tag_30\n      jumpi\n      dup1\n      0x9bdcecd1\n      eq\n      tag_31\n      jumpi\n      dup1\n      0xba743f99\n      eq\n      tag_32\n      jumpi\n      dup1\n      0xc0941214\n      eq\n      tag_33\n      jumpi\n      dup1\n      0xc2412676\n      eq\n      tag_34\n      jumpi\n      0x00\n      dup1\n      revert\n    tag_49:\n      dup1\n      0x850bad94\n      eq\n      tag_24\n      jumpi\n      dup1\n      0x8da5cb5b\n      eq\n      tag_25\n      jumpi\n      dup1\n      0x917bb998\n      eq\n      tag_26\n      jumpi\n      dup1\n      0x91dc842e\n      eq\n      tag_27\n      jumpi\n      dup1\n      0x95302cc0\n      eq\n      tag_28\n      jumpi\n      0x00\n      dup1\n      revert\n    tag_46:\n      dup1\n      0x41ee13be\n      gt\n      tag_50\n      jumpi\n      dup1\n      0x5c975abb\n      gt\n      tag_51\n      jumpi\n      dup1\n      0x5c975abb\n      eq\n      tag_18\n      jumpi\n      dup1\n      0x647428b9\n      eq\n      tag_19\n      jumpi\n      dup1\n      0x6a1d18d2\n      eq\n      tag_20\n      jumpi\n      dup1\n      0x6b130dc2\n      eq\n      tag_21\n      jumpi\n      dup1\n      0x6ba13a82\n      eq\n      tag_22\n      jumpi\n      dup1\n      0x6f77926b\n      eq\n      tag_23\n      jumpi\n      0x00\n      dup1\n      revert\n    tag_51:\n      dup1\n      0x41ee13be\n      eq\n      tag_13\n      jumpi\n      dup1\n      0x45982a66\n      eq\n      tag_14\n      jumpi\n      dup1\n      0x4d70378a\n      eq\n      tag_15\n      jumpi\n      dup1\n      0x52b8745f\n      eq\n      tag_16\n      jumpi\n      dup1\n      0x58098bf4\n      eq\n      tag_17\n      jumpi\n      0x00\n      dup1\n      revert\n    tag_50:\n      dup1\n      0x2b4a16a0\n      gt\n      tag_52\n      jumpi\n      dup1\n      0x2b4a16a0\n      eq\n      tag_8\n      jumpi\n      dup1\n      0x31d7a262\n      eq\n      tag_9\n      jumpi\n      dup1\n      0x365b98b2\n      eq\n      tag_10\n      jumpi\n      dup1\n      0x39129cff\n      eq\n      tag_11\n      jumpi\n      dup1\n      0x3d51c72d\n      eq\n      tag_12\n      jumpi\n      0x00\n      dup1\n      revert\n    tag_52:\n      dup1\n      0x03962d46\n      eq\n      tag_3\n      jumpi\n      dup1\n      0x0a6f93e6\n      eq\n      tag_4\n      jumpi\n      dup1\n      0x16ada547\n      eq\n      tag_5\n      jumpi\n      dup1\n      0x230ffa0f\n      eq\n      tag_6\n      jumpi\n      dup1\n      0x27ba372c\n      eq\n      tag_7\n      jumpi\n      0x00\n      dup1\n      revert\n    tag_1:\n      jumpi(tag_2, calldatasize)\n      stop\n    tag_2:\n      0x00\n      dup1\n      revert\n        /* \"StakeFactory.sol\":9665:9716  mapping(address => uint256) public withdrawedReward */\n    tag_3:\n      callvalue\n      dup1\n      iszero\n      tag_55\n      jumpi\n      0x00\n      dup1\n      revert\n    tag_55:\n      pop\n      tag_56\n      tag_57\n      calldatasize\n      0x04\n      tag_58\n      jump\t// in\n    tag_57:\n      mstore(0x20, 0x0b)\n      0x00\n      swap1\n      dup2\n      mstore\n      0x40\n      swap1\n      keccak256\n      sload\n      dup2\n      jump\n    tag_56:\n      mload(0x40)\n        /* \"#utility.yul\":548:573   */\n      swap1\n      dup2\n      mstore\n        /* \"#utility.yul\":536:538   */\n      0x20\n        /* \"#utility.yul\":521:539   */\n      add\n        /* \"StakeFactory.sol\":9665:9716  mapping(address => uint256) public withdrawedReward */\n    tag_60:\n      mload(0x40)\n      dup1\n      swap2\n      sub\n      swap1\n      return\n        /* \"StakeFactory.sol\":9723:9769  mapping(address => uint256) public lastUpdated */\n    tag_4:\n      callvalue\n      dup1\n      iszero\n      tag_62\n      jumpi\n      0x00\n      dup1\n      revert\n    tag_62:\n      pop\n      tag_56\n      tag_64\n      calldatasize\n      0x04\n      tag_58\n      jump\t// in\n    tag_64:\n      mstore(0x20, 0x0c)\n      0x00\n      swap1\n      dup2\n      mstore\n      0x40\n      swap1\n      keccak256\n      sload\n      dup2\n      jump\n        /* \"StakeFactory.sol\":10085:10109  uint256 public time = 60 */\n    tag_5:\n      callvalue\n      dup1\n      iszero\n      tag_67\n      jumpi\n      0x00\n      dup1\n      revert\n    tag_67:\n      pop\n      tag_56\n      sload(0x12)\n      dup2\n      jump\n        /* \"StakeFactory.sol\":24332:24534  function emergencyWithdrawWei(uint256 _amount) public onlyOwner {... */\n    tag_6:\n      callvalue\n      dup1\n      iszero\n      tag_71\n      jumpi\n      0x00\n      dup1\n      revert\n    tag_71:\n      pop\n      tag_72\n      tag_73\n      calldatasize\n      0x04\n      tag_74\n      jump\t// in\n    tag_73:\n      tag_75\n      jump\t// in\n    tag_72:\n      stop\n        /* \"StakeFactory.sol\":9492:9546  mapping(address => uint256) public depositeTokensTotal */\n    tag_7:\n      callvalue\n      dup1\n      iszero\n      tag_76\n      jumpi\n      0x00\n      dup1\n      revert\n    tag_76:\n      pop\n      tag_56\n      tag_78\n      calldatasize\n      0x04\n      tag_58\n      jump\t// in\n    tag_78:\n      mstore(0x20, 0x08)\n      0x00\n      swap1\n      dup2\n      mstore\n      0x40\n      swap1\n      keccak256\n      sload\n      dup2\n      jump\n        /* \"StakeFactory.sol\":10135:10170  uint256[] public allowedLockPeriods */\n    tag_8:\n      callvalue\n      dup1\n      iszero\n      tag_81\n      jumpi\n      0x00\n      dup1\n      revert\n    tag_81:\n      pop\n      tag_56\n      tag_83\n      calldatasize\n      0x04\n      tag_74\n      jump\t// in\n    tag_83:\n      tag_84\n      jump\t// in\n        /* \"StakeFactory.sol\":13245:13970  function pendingRewards(address _address) public view returns (uint256 reward) {... */\n    tag_9:\n      callvalue\n      dup1\n      iszero\n      tag_86\n      jumpi\n      0x00\n      dup1\n      revert\n    tag_86:\n      pop\n      tag_56\n      tag_88\n      calldatasize\n      0x04\n      tag_58\n      jump\t// in\n    tag_88:\n      tag_89\n      jump\t// in\n        /* \"StakeFactory.sol\":9830:9870  mapping(uint256 => address) public users */\n    tag_10:\n      callvalue\n      dup1\n      iszero\n      tag_91\n      jumpi\n      0x00\n      dup1\n      revert\n    tag_91:\n      pop\n      tag_92\n      tag_93\n      calldatasize\n      0x04\n      tag_74\n      jump\t// in\n    tag_93:\n      mstore(0x20, 0x0e)\n      0x00\n      swap1\n      dup2\n      mstore\n      0x40\n      swap1\n      keccak256\n      sload\n      sub(shl(0xa0, 0x01), 0x01)\n      and\n      dup2\n      jump\n    tag_92:\n      mload(0x40)\n      sub(shl(0xa0, 0x01), 0x01)\n        /* \"#utility.yul\":933:965   */\n      swap1\n      swap2\n      and\n        /* \"#utility.yul\":915:966   */\n      dup2\n      mstore\n        /* \"#utility.yul\":903:905   */\n      0x20\n        /* \"#utility.yul\":888:906   */\n      add\n        /* \"StakeFactory.sol\":9830:9870  mapping(uint256 => address) public users */\n      tag_60\n        /* \"#utility.yul\":769:972   */\n      jump\n        /* \"StakeFactory.sol\":9253:9313  mapping(uint256 => LockPeriodParams) public lockPeriodParams */\n    tag_11:\n      callvalue\n      dup1\n      iszero\n      tag_97\n      jumpi\n      0x00\n      dup1\n      revert\n    tag_97:\n      pop\n      tag_98\n      tag_99\n      calldatasize\n      0x04\n      tag_74\n      jump\t// in\n    tag_99:\n      0x05\n      0x20\n      dup2\n      swap1\n      mstore\n      0x00\n      swap2\n      dup3\n      mstore\n      0x40\n      swap1\n      swap2\n      keccak256\n      dup1\n      sload\n      0x01\n      dup3\n      add\n      sload\n      0x02\n      dup4\n      add\n      sload\n      0x03\n      dup5\n      add\n      sload\n      0x04\n      dup6\n      add\n      sload\n      swap6\n      dup6\n      add\n      sload\n      0x06\n      dup7\n      add\n      sload\n      0x07\n      dup8\n      add\n      sload\n      0x08\n      swap1\n      swap8\n      add\n      sload\n      swap6\n      swap8\n      swap5\n      swap7\n      swap4\n      swap6\n      swap3\n      swap5\n      swap4\n      swap2\n      swap3\n      swap1\n      swap2\n      0xff\n      and\n      swap1\n      dup10\n      jump\n    tag_98:\n      0x40\n      dup1\n      mload\n        /* \"#utility.yul\":1342:1367   */\n      swap10\n      dup11\n      mstore\n        /* \"#utility.yul\":1398:1400   */\n      0x20\n        /* \"#utility.yul\":1383:1401   */\n      dup11\n      add\n        /* \"#utility.yul\":1376:1410   */\n      swap9\n      swap1\n      swap9\n      mstore\n        /* \"#utility.yul\":1426:1444   */\n      swap7\n      dup9\n      add\n        /* \"#utility.yul\":1419:1453   */\n      swap6\n      swap1\n      swap6\n      mstore\n        /* \"#utility.yul\":1484:1486   */\n      0x60\n        /* \"#utility.yul\":1469:1487   */\n      dup8\n      add\n        /* \"#utility.yul\":1462:1496   */\n      swap4\n      swap1\n      swap4\n      mstore\n        /* \"#utility.yul\":1527:1530   */\n      0x80\n        /* \"#utility.yul\":1512:1531   */\n      dup7\n      add\n        /* \"#utility.yul\":1505:1540   */\n      swap2\n      swap1\n      swap2\n      mstore\n        /* \"#utility.yul\":1571:1574   */\n      0xa0\n        /* \"#utility.yul\":1556:1575   */\n      dup6\n      add\n        /* \"#utility.yul\":1549:1584   */\n      mstore\n        /* \"#utility.yul\":1615:1618   */\n      0xc0\n        /* \"#utility.yul\":1600:1619   */\n      dup5\n      add\n        /* \"#utility.yul\":1593:1628   */\n      mstore\n        /* \"#utility.yul\":1672:1686   */\n      iszero\n        /* \"#utility.yul\":1665:1687   */\n      iszero\n        /* \"#utility.yul\":1659:1662   */\n      0xe0\n        /* \"#utility.yul\":1644:1663   */\n      dup4\n      add\n        /* \"#utility.yul\":1637:1688   */\n      mstore\n        /* \"#utility.yul\":1719:1722   */\n      0x0100\n        /* \"#utility.yul\":1704:1723   */\n      dup3\n      add\n        /* \"#utility.yul\":1697:1732   */\n      mstore\n        /* \"#utility.yul\":1329:1332   */\n      0x0120\n        /* \"#utility.yul\":1314:1333   */\n      add\n        /* \"StakeFactory.sol\":9253:9313  mapping(uint256 => LockPeriodParams) public lockPeriodParams */\n      tag_60\n        /* \"#utility.yul\":977:1738   */\n      jump\n        /* \"StakeFactory.sol\":23442:23654  function getLockPeriodParams(uint256 _days) external view returns (LockPeriodParams memory) {... */\n    tag_12:\n      callvalue\n      dup1\n      iszero\n      tag_103\n      jumpi\n      0x00\n      dup1\n      revert\n    tag_103:\n      pop\n      tag_104\n      tag_105\n      calldatasize\n      0x04\n      tag_74\n      jump\t// in\n    tag_105:\n      tag_106\n      jump\t// in\n    tag_104:\n      mload(0x40)\n      tag_60\n      swap2\n      swap1\n      tag_108\n      jump\t// in\n        /* \"StakeFactory.sol\":21045:21156  function getLockPeriods() external view returns (uint256[] memory) {... */\n    tag_13:\n      callvalue\n      dup1\n      iszero\n      tag_109\n      jumpi\n      0x00\n      dup1\n      revert\n    tag_109:\n      pop\n      tag_110\n      tag_111\n      jump\t// in\n    tag_110:\n      mload(0x40)\n      tag_60\n      swap2\n      swap1\n      tag_113\n      jump\t// in\n        /* \"StakeFactory.sol\":14492:14980  function getUsers(uint256 _offset, uint256 _limit) public view returns(UserInfo[] memory ret) {... */\n    tag_14:\n      callvalue\n      dup1\n      iszero\n      tag_114\n      jumpi\n      0x00\n      dup1\n      revert\n    tag_114:\n      pop\n      tag_115\n      tag_116\n      calldatasize\n      0x04\n      tag_117\n      jump\t// in\n    tag_116:\n      tag_118\n      jump\t// in\n    tag_115:\n      mload(0x40)\n      tag_60\n      swap2\n      swap1\n      tag_120\n      jump\t// in\n        /* \"StakeFactory.sol\":20191:20916  function removeLockPeriod(uint256 _days) external onlyOwner {... */\n    tag_15:\n      callvalue\n      dup1\n      iszero\n      tag_121\n      jumpi\n      0x00\n      dup1\n      revert\n    tag_121:\n      pop\n      tag_72\n      tag_123\n      calldatasize\n      0x04\n      tag_74\n      jump\t// in\n    tag_123:\n      tag_124\n      jump\t// in\n        /* \"StakeFactory.sol\":24542:24786  function addSpam(address _addr) public onlyOwner {... */\n    tag_16:\n      callvalue\n      dup1\n      iszero\n      tag_125\n      jumpi\n      0x00\n      dup1\n      revert\n    tag_125:\n      pop\n      tag_72\n      tag_127\n      calldatasize\n      0x04\n      tag_58\n      jump\t// in\n    tag_127:\n      tag_128\n      jump\t// in\n        /* \"StakeFactory.sol\":24794:25039  function removeSpam(address _addr) public onlyOwner {... */\n    tag_17:\n      callvalue\n      dup1\n      iszero\n      tag_129\n      jumpi\n      0x00\n      dup1\n      revert\n    tag_129:\n      pop\n      tag_72\n      tag_131\n      calldatasize\n      0x04\n      tag_58\n      jump\t// in\n    tag_131:\n      tag_132\n      jump\t// in\n        /* \"StakeFactory.sol\":5992:6080  function paused() public view virtual returns (bool) {\t... */\n    tag_18:\n      callvalue\n      dup1\n      iszero\n      tag_133\n      jumpi\n      0x00\n      dup1\n      revert\n    tag_133:\n      pop\n        /* \"StakeFactory.sol\":6039:6043  bool */\n      0x00\n        /* \"StakeFactory.sol\":6064:6071  _paused */\n      sload\n      shl(0xa0, 0x01)\n      swap1\n      div\n      0xff\n      and\n        /* \"StakeFactory.sol\":5992:6080  function paused() public view virtual returns (bool) {\t... */\n    tag_134:\n      mload(0x40)\n        /* \"#utility.yul\":5871:5885   */\n      swap1\n      iszero\n        /* \"#utility.yul\":5864:5886   */\n      iszero\n        /* \"#utility.yul\":5846:5887   */\n      dup2\n      mstore\n        /* \"#utility.yul\":5834:5836   */\n      0x20\n        /* \"#utility.yul\":5819:5837   */\n      add\n        /* \"StakeFactory.sol\":5992:6080  function paused() public view virtual returns (bool) {\t... */\n      tag_60\n        /* \"#utility.yul\":5706:5893   */\n      jump\n        /* \"StakeFactory.sol\":21930:22345  function getRewardTokenInfo() public view returns (... */\n    tag_19:\n      callvalue\n      dup1\n      iszero\n      tag_138\n      jumpi\n      0x00\n      dup1\n      revert\n    tag_138:\n      pop\n      tag_139\n      tag_140\n      jump\t// in\n    tag_139:\n      mload(0x40)\n      tag_60\n      swap6\n      swap5\n      swap4\n      swap3\n      swap2\n      swap1\n      tag_142\n      jump\t// in\n        /* \"StakeFactory.sol\":23761:23975  function setDeductionPercentage(uint256 percentageBasisPoints) public onlyOwner {... */\n    tag_20:\n      callvalue\n      dup1\n      iszero\n      tag_143\n      jumpi\n      0x00\n      dup1\n      revert\n    tag_143:\n      pop\n      tag_72\n      tag_145\n      calldatasize\n      0x04\n      tag_74\n      jump\t// in\n    tag_145:\n      tag_146\n      jump\t// in\n        /* \"StakeFactory.sol\":9958:9999  uint256 public deductionPercentage = 2500 */\n    tag_21:\n      callvalue\n      dup1\n      iszero\n      tag_147\n      jumpi\n      0x00\n      dup1\n      revert\n    tag_147:\n      pop\n      tag_56\n      sload(0x11)\n      dup2\n      jump\n        /* \"StakeFactory.sol\":9877:9902  uint256 public usersCount */\n    tag_22:\n      callvalue\n      dup1\n      iszero\n      tag_151\n      jumpi\n      0x00\n      dup1\n      revert\n    tag_151:\n      pop\n      tag_56\n      sload(0x0f)\n      dup2\n      jump\n        /* \"StakeFactory.sol\":13978:14486  function getUser(address user) public view returns (UserInfo memory info) {... */\n    tag_23:\n      callvalue\n      dup1\n      iszero\n      tag_155\n      jumpi\n      0x00\n      dup1\n      revert\n    tag_155:\n      pop\n      tag_156\n      tag_157\n      calldatasize\n      0x04\n      tag_58\n      jump\t// in\n    tag_157:\n      tag_158\n      jump\t// in\n    tag_156:\n      mload(0x40)\n      tag_60\n      swap2\n      swap1\n      tag_160\n      jump\t// in\n        /* \"StakeFactory.sol\":9106:9151  mapping(uint256 => uint256) public allocation */\n    tag_24:\n      callvalue\n      dup1\n      iszero\n      tag_161\n      jumpi\n      0x00\n      dup1\n      revert\n    tag_161:\n      pop\n      tag_56\n      tag_163\n      calldatasize\n      0x04\n      tag_74\n      jump\t// in\n    tag_163:\n      mstore(0x20, 0x04)\n      0x00\n      swap1\n      dup2\n      mstore\n      0x40\n      swap1\n      keccak256\n      sload\n      dup2\n      jump\n        /* \"StakeFactory.sol\":7694:7773  function owner() public view returns (address) {... */\n    tag_25:\n      callvalue\n      dup1\n      iszero\n      tag_166\n      jumpi\n      0x00\n      dup1\n      revert\n    tag_166:\n      pop\n        /* \"StakeFactory.sol\":7732:7739  address */\n      0x00\n        /* \"StakeFactory.sol\":7759:7765  _owner */\n      sload\n      sub(shl(0xa0, 0x01), 0x01)\n      and\n        /* \"StakeFactory.sol\":7694:7773  function owner() public view returns (address) {... */\n      jump(tag_92)\n        /* \"StakeFactory.sol\":24101:24324  function emergencyWithdrawTokens(IERC20 _token, uint256 _amount) public onlyOwner {... */\n    tag_26:\n      callvalue\n      dup1\n      iszero\n      tag_170\n      jumpi\n      0x00\n      dup1\n      revert\n    tag_170:\n      pop\n      tag_72\n      tag_172\n      calldatasize\n      0x04\n      tag_173\n      jump\t// in\n    tag_172:\n      tag_174\n      jump\t// in\n        /* \"StakeFactory.sol\":9435:9485  mapping(address => uint256[]) public depositeToken */\n    tag_27:\n      callvalue\n      dup1\n      iszero\n      tag_175\n      jumpi\n      0x00\n      dup1\n      revert\n    tag_175:\n      pop\n      tag_56\n      tag_177\n      calldatasize\n      0x04\n      tag_173\n      jump\t// in\n    tag_177:\n      tag_179\n      jump\t// in\n        /* \"StakeFactory.sol\":9553:9602  mapping(address => uint256[]) public lockableDays */\n    tag_28:\n      callvalue\n      dup1\n      iszero\n      tag_181\n      jumpi\n      0x00\n      dup1\n      revert\n    tag_181:\n      pop\n      tag_56\n      tag_183\n      calldatasize\n      0x04\n      tag_173\n      jump\t// in\n    tag_183:\n      tag_184\n      jump\t// in\n        /* \"StakeFactory.sol\":25047:26095  function convertTokenAToTokenB(... */\n    tag_29:\n      callvalue\n      dup1\n      iszero\n      tag_186\n      jumpi\n      0x00\n      dup1\n      revert\n    tag_186:\n      pop\n      tag_56\n      tag_188\n      calldatasize\n      0x04\n      tag_189\n      jump\t// in\n    tag_188:\n      tag_190\n      jump\t// in\n        /* \"StakeFactory.sol\":18294:19708  function setAllocation(... */\n    tag_30:\n      callvalue\n      dup1\n      iszero\n      tag_192\n      jumpi\n      0x00\n      dup1\n      revert\n    tag_192:\n      pop\n      tag_72\n      tag_194\n      calldatasize\n      0x04\n      tag_195\n      jump\t// in\n    tag_194:\n      tag_196\n      jump\t// in\n        /* \"StakeFactory.sol\":8658:8690  uint8 public rewardTokenDecimals */\n    tag_31:\n      callvalue\n      dup1\n      iszero\n      tag_197\n      jumpi\n      0x00\n      dup1\n      revert\n    tag_197:\n      pop\n      sload(0x03)\n      tag_198\n      swap1\n      shl(0xb0, 0x01)\n      swap1\n      div\n      0xff\n      and\n      dup2\n      jump\n    tag_198:\n      mload(0x40)\n        /* \"#utility.yul\":9572:9576   */\n      0xff\n        /* \"#utility.yul\":9560:9577   */\n      swap1\n      swap2\n      and\n        /* \"#utility.yul\":9542:9578   */\n      dup2\n      mstore\n        /* \"#utility.yul\":9530:9532   */\n      0x20\n        /* \"#utility.yul\":9515:9533   */\n      add\n        /* \"StakeFactory.sol\":8658:8690  uint8 public rewardTokenDecimals */\n      tag_60\n        /* \"#utility.yul\":9400:9584   */\n      jump\n        /* \"StakeFactory.sol\":9609:9658  mapping(address => uint256[]) public depositeTime */\n    tag_32:\n      callvalue\n      dup1\n      iszero\n      tag_202\n      jumpi\n      0x00\n      dup1\n      revert\n    tag_202:\n      pop\n      tag_56\n      tag_204\n      calldatasize\n      0x04\n      tag_173\n      jump\t// in\n    tag_204:\n      tag_205\n      jump\t// in\n        /* \"StakeFactory.sol\":8618:8651  uint8 public depositTokenDecimals */\n    tag_33:\n      callvalue\n      dup1\n      iszero\n      tag_207\n      jumpi\n      0x00\n      dup1\n      revert\n    tag_207:\n      pop\n      sload(0x03)\n      tag_198\n      swap1\n      shl(0xa8, 0x01)\n      swap1\n      div\n      0xff\n      and\n      dup2\n      jump\n        /* \"StakeFactory.sol\":8505:8524  IERC20 public Token */\n    tag_34:\n      callvalue\n      dup1\n      iszero\n      tag_211\n      jumpi\n      0x00\n      dup1\n      revert\n    tag_211:\n      pop\n      sload(0x02)\n      tag_92\n      swap1\n      sub(shl(0xa0, 0x01), 0x01)\n      and\n      dup2\n      jump\n        /* \"StakeFactory.sol\":9780:9823  mapping(address => bool) public usersExists */\n    tag_35:\n      callvalue\n      dup1\n      iszero\n      tag_216\n      jumpi\n      0x00\n      dup1\n      revert\n    tag_216:\n      pop\n      tag_134\n      tag_218\n      calldatasize\n      0x04\n      tag_58\n      jump\t// in\n    tag_218:\n      mstore(0x20, 0x0d)\n      0x00\n      swap1\n      dup2\n      mstore\n      0x40\n      swap1\n      keccak256\n      sload\n      0xff\n      and\n      dup2\n      jump\n        /* \"StakeFactory.sol\":21540:21924  function getStakeTokenInfo() public view returns (... */\n    tag_36:\n      callvalue\n      dup1\n      iszero\n      tag_221\n      jumpi\n      0x00\n      dup1\n      revert\n    tag_221:\n      pop\n      tag_139\n      tag_223\n      jump\t// in\n        /* \"StakeFactory.sol\":15044:18179  function harwest(uint256[] memory _index) external whenNotPaused nonReentrant returns (... */\n    tag_37:\n      callvalue\n      dup1\n      iszero\n      tag_225\n      jumpi\n      0x00\n      dup1\n      revert\n    tag_225:\n      pop\n      tag_226\n      tag_227\n      calldatasize\n      0x04\n      tag_228\n      jump\t// in\n    tag_227:\n      tag_229\n      jump\t// in\n    tag_226:\n      0x40\n      dup1\n      mload\n        /* \"#utility.yul\":11375:11400   */\n      swap4\n      dup5\n      mstore\n        /* \"#utility.yul\":11431:11433   */\n      0x20\n        /* \"#utility.yul\":11416:11434   */\n      dup5\n      add\n        /* \"#utility.yul\":11409:11443   */\n      swap3\n      swap1\n      swap3\n      mstore\n        /* \"#utility.yul\":11459:11477   */\n      swap1\n      dup3\n      add\n        /* \"#utility.yul\":11452:11486   */\n      mstore\n        /* \"#utility.yul\":11363:11365   */\n      0x60\n        /* \"#utility.yul\":11348:11366   */\n      add\n        /* \"StakeFactory.sol\":15044:18179  function harwest(uint256[] memory _index) external whenNotPaused nonReentrant returns (... */\n      tag_60\n        /* \"#utility.yul\":11173:11492   */\n      jump\n        /* \"StakeFactory.sol\":9911:9949  mapping(address => bool) public isSpam */\n    tag_38:\n      callvalue\n      dup1\n      iszero\n      tag_232\n      jumpi\n      0x00\n      dup1\n      revert\n    tag_232:\n      pop\n      tag_134\n      tag_234\n      calldatasize\n      0x04\n      tag_58\n      jump\t// in\n    tag_234:\n      mstore(0x20, 0x10)\n      0x00\n      swap1\n      dup2\n      mstore\n      0x40\n      swap1\n      keccak256\n      sload\n      0xff\n      and\n      dup2\n      jump\n        /* \"StakeFactory.sol\":23981:24095  function setTaxReceiver(address _newTaxReceiver) public onlyOwner {... */\n    tag_39:\n      callvalue\n      dup1\n      iszero\n      tag_237\n      jumpi\n      0x00\n      dup1\n      revert\n    tag_237:\n      pop\n      tag_72\n      tag_239\n      calldatasize\n      0x04\n      tag_58\n      jump\t// in\n    tag_239:\n      tag_240\n      jump\t// in\n        /* \"StakeFactory.sol\":21162:21534  function getLockPeriodsInfo() external view returns (LockPeriodParams[] memory ret) {... */\n    tag_40:\n      callvalue\n      dup1\n      iszero\n      tag_241\n      jumpi\n      0x00\n      dup1\n      revert\n    tag_241:\n      pop\n      tag_242\n      tag_243\n      jump\t// in\n    tag_242:\n      mload(0x40)\n      tag_60\n      swap2\n      swap1\n      tag_245\n      jump\t// in\n        /* \"StakeFactory.sol\":12046:13163  function deposit(uint256 _amount, uint256 _lockDays) external whenNotPaused nonReentrant {... */\n    tag_41:\n      callvalue\n      dup1\n      iszero\n      tag_246\n      jumpi\n      0x00\n      dup1\n      revert\n    tag_246:\n      pop\n      tag_72\n      tag_248\n      calldatasize\n      0x04\n      tag_117\n      jump\t// in\n    tag_248:\n      tag_249\n      jump\t// in\n        /* \"StakeFactory.sol\":9400:9426  address public taxreceiver */\n    tag_42:\n      callvalue\n      dup1\n      iszero\n      tag_250\n      jumpi\n      0x00\n      dup1\n      revert\n    tag_250:\n      pop\n      sload(0x06)\n      tag_92\n      swap1\n      sub(shl(0xa0, 0x01), 0x01)\n      and\n      dup2\n      jump\n        /* \"StakeFactory.sol\":8154:8431  function transferOwnership(address newOwner) public onlyOwner {... */\n    tag_43:\n      callvalue\n      dup1\n      iszero\n      tag_254\n      jumpi\n      0x00\n      dup1\n      revert\n    tag_254:\n      pop\n      tag_72\n      tag_256\n      calldatasize\n      0x04\n      tag_58\n      jump\t// in\n    tag_256:\n      tag_257\n      jump\t// in\n        /* \"StakeFactory.sol\":8565:8609  bool public IS_ULTIMATE_STAKE_FACTORY = true */\n    tag_44:\n      callvalue\n      dup1\n      iszero\n      tag_258\n      jumpi\n      0x00\n      dup1\n      revert\n    tag_258:\n      pop\n      sload(0x03)\n      tag_134\n      swap1\n      shl(0xa0, 0x01)\n      swap1\n      div\n      0xff\n      and\n      dup2\n      jump\n        /* \"StakeFactory.sol\":8531:8556  IERC20 public rewardToken */\n    tag_45:\n      callvalue\n      dup1\n      iszero\n      tag_262\n      jumpi\n      0x00\n      dup1\n      revert\n    tag_262:\n      pop\n      sload(0x03)\n      tag_92\n      swap1\n      sub(shl(0xa0, 0x01), 0x01)\n      and\n      dup2\n      jump\n        /* \"StakeFactory.sol\":24332:24534  function emergencyWithdrawWei(uint256 _amount) public onlyOwner {... */\n    tag_75:\n        /* \"StakeFactory.sol\":7912:7918  _owner */\n      and(sub(shl(0xa0, 0x01), 0x01), sload(0x00))\n        /* \"StakeFactory.sol\":7922:7932  msg.sender */\n      caller\n        /* \"StakeFactory.sol\":7912:7932  _owner == msg.sender */\n      eq\n        /* \"StakeFactory.sol\":7904:7969  require(_owner == msg.sender, \"Ownable: caller is not the owner\") */\n      tag_267\n      jumpi\n      mload(0x40)\n      shl(0xe5, 0x461bcd)\n      dup2\n      mstore\n      0x04\n      add\n      tag_268\n      swap1\n      tag_269\n      jump\t// in\n    tag_268:\n      mload(0x40)\n      dup1\n      swap2\n      sub\n      swap1\n      revert\n    tag_267:\n        /* \"StakeFactory.sol\":24440:24447  _amount */\n      dup1\n        /* \"StakeFactory.sol\":24415:24436  address(this).balance */\n      selfbalance\n        /* \"StakeFactory.sol\":24415:24447  address(this).balance >= _amount */\n      lt\n      iszero\n        /* \"StakeFactory.sol\":24407:24478  require(address(this).balance >= _amount, \"Insufficient ether balance\") */\n      tag_271\n      jumpi\n      mload(0x40)\n      shl(0xe5, 0x461bcd)\n      dup2\n      mstore\n        /* \"#utility.yul\":12795:12797   */\n      0x20\n        /* \"StakeFactory.sol\":24407:24478  require(address(this).balance >= _amount, \"Insufficient ether balance\") */\n      0x04\n      dup3\n      add\n        /* \"#utility.yul\":12777:12798   */\n      mstore\n        /* \"#utility.yul\":12834:12836   */\n      0x1a\n        /* \"#utility.yul\":12814:12832   */\n      0x24\n      dup3\n      add\n        /* \"#utility.yul\":12807:12837   */\n      mstore\n        /* \"#utility.yul\":12873:12901   */\n      0x496e73756666696369656e742065746865722062616c616e6365000000000000\n        /* \"#utility.yul\":12853:12871   */\n      0x44\n      dup3\n      add\n        /* \"#utility.yul\":12846:12902   */\n      mstore\n        /* \"#utility.yul\":12919:12937   */\n      0x64\n      add\n        /* \"StakeFactory.sol\":24407:24478  require(address(this).balance >= _amount, \"Insufficient ether balance\") */\n      tag_268\n        /* \"#utility.yul\":12593:12943   */\n      jump\n        /* \"StakeFactory.sol\":24407:24478  require(address(this).balance >= _amount, \"Insufficient ether balance\") */\n    tag_271:\n        /* \"StakeFactory.sol\":24489:24526  payable(msg.sender).transfer(_amount) */\n      mload(0x40)\n        /* \"StakeFactory.sol\":24497:24507  msg.sender */\n      caller\n      swap1\n        /* \"StakeFactory.sol\":24489:24526  payable(msg.sender).transfer(_amount) */\n      dup3\n      iszero\n      0x08fc\n      mul\n      swap1\n        /* \"StakeFactory.sol\":24518:24525  _amount */\n      dup4\n      swap1\n        /* \"StakeFactory.sol\":24489:24526  payable(msg.sender).transfer(_amount) */\n      0x00\n      dup2\n      dup2\n      dup2\n        /* \"StakeFactory.sol\":24518:24525  _amount */\n      dup6\n        /* \"StakeFactory.sol\":24497:24507  msg.sender */\n      dup9\n        /* \"StakeFactory.sol\":24489:24526  payable(msg.sender).transfer(_amount) */\n      dup9\n      call\n      swap4\n      pop\n      pop\n      pop\n      pop\n      iszero\n      dup1\n      iszero\n      tag_275\n      jumpi\n      returndatasize\n      0x00\n      dup1\n      returndatacopy\n      revert(0x00, returndatasize)\n    tag_275:\n      pop\n        /* \"StakeFactory.sol\":24332:24534  function emergencyWithdrawWei(uint256 _amount) public onlyOwner {... */\n      pop\n      jump\t// out\n        /* \"StakeFactory.sol\":10135:10170  uint256[] public allowedLockPeriods */\n    tag_84:\n      0x13\n      dup2\n      dup2\n      sload\n      dup2\n      lt\n      tag_276\n      jumpi\n      0x00\n      dup1\n      revert\n    tag_276:\n      0x00\n      swap2\n      dup3\n      mstore\n      0x20\n      swap1\n      swap2\n      keccak256\n      add\n      sload\n      swap1\n      pop\n      dup2\n      jump\t// out\n        /* \"StakeFactory.sol\":13245:13970  function pendingRewards(address _address) public view returns (uint256 reward) {... */\n    tag_89:\n        /* \"StakeFactory.sol\":13308:13322  uint256 reward */\n      0x00\n      dup1\n        /* \"StakeFactory.sol\":13385:13400  block.timestamp */\n      timestamp\n        /* \"StakeFactory.sol\":13308:13322  uint256 reward */\n      dup2\n        /* \"StakeFactory.sol\":13411:13932  for (uint256 z = 0; z < depositeToken[_address].length; z++) {... */\n    tag_279:\n      sub(shl(0xa0, 0x01), 0x01)\n        /* \"StakeFactory.sol\":13435:13458  depositeToken[_address] */\n      dup6\n      and\n      0x00\n      swap1\n      dup2\n      mstore\n        /* \"StakeFactory.sol\":13435:13448  depositeToken */\n      0x07\n        /* \"StakeFactory.sol\":13435:13458  depositeToken[_address] */\n      0x20\n      mstore\n      0x40\n      swap1\n      keccak256\n        /* \"StakeFactory.sol\":13435:13465  depositeToken[_address].length */\n      sload\n        /* \"StakeFactory.sol\":13431:13465  z < depositeToken[_address].length */\n      dup2\n      lt\n        /* \"StakeFactory.sol\":13411:13932  for (uint256 z = 0; z < depositeToken[_address].length; z++) {... */\n      iszero\n      tag_280\n      jumpi\n        /* \"StakeFactory.sol\":13563:13567  time */\n      sload(0x12)\n      sub(shl(0xa0, 0x01), 0x01)\n        /* \"StakeFactory.sol\":13535:13557  lockableDays[_address] */\n      dup7\n      and\n        /* \"StakeFactory.sol\":13487:13503  uint256 lockTime */\n      0x00\n        /* \"StakeFactory.sol\":13535:13557  lockableDays[_address] */\n      swap1\n      dup2\n      mstore\n        /* \"StakeFactory.sol\":13535:13547  lockableDays */\n      0x09\n        /* \"StakeFactory.sol\":13535:13557  lockableDays[_address] */\n      0x20\n      mstore\n      0x40\n      dup2\n      keccak256\n        /* \"StakeFactory.sol\":13535:13560  lockableDays[_address][z] */\n      dup1\n      sload\n        /* \"StakeFactory.sol\":13487:13503  uint256 lockTime */\n      swap2\n      swap3\n        /* \"StakeFactory.sol\":13563:13567  time */\n      swap2\n        /* \"StakeFactory.sol\":13558:13559  z */\n      dup5\n      swap1\n        /* \"StakeFactory.sol\":13535:13560  lockableDays[_address][z] */\n      dup2\n      lt\n      tag_283\n      jumpi\n      tag_283\n      tag_284\n      jump\t// in\n    tag_283:\n      swap1\n      0x00\n      mstore\n      keccak256(0x00, 0x20)\n      add\n      sload\n        /* \"StakeFactory.sol\":13535:13567  lockableDays[_address][z] * time */\n      tag_286\n      swap2\n      swap1\n      tag_287\n      jump\t// in\n    tag_286:\n      sub(shl(0xa0, 0x01), 0x01)\n        /* \"StakeFactory.sol\":13506:13528  depositeTime[_address] */\n      dup8\n      and\n      0x00\n      swap1\n      dup2\n      mstore\n        /* \"StakeFactory.sol\":13506:13518  depositeTime */\n      0x0a\n        /* \"StakeFactory.sol\":13506:13528  depositeTime[_address] */\n      0x20\n      mstore\n      0x40\n      swap1\n      keccak256\n        /* \"StakeFactory.sol\":13506:13531  depositeTime[_address][z] */\n      dup1\n      sload\n        /* \"StakeFactory.sol\":13529:13530  z */\n      dup5\n      swap1\n        /* \"StakeFactory.sol\":13506:13531  depositeTime[_address][z] */\n      dup2\n      lt\n      tag_289\n      jumpi\n      tag_289\n      tag_284\n      jump\t// in\n    tag_289:\n      swap1\n      0x00\n      mstore\n      keccak256(0x00, 0x20)\n      add\n      sload\n        /* \"StakeFactory.sol\":13506:13568  depositeTime[_address][z] + (lockableDays[_address][z] * time) */\n      tag_291\n      swap2\n      swap1\n      tag_292\n      jump\t// in\n    tag_291:\n        /* \"StakeFactory.sol\":13487:13568  uint256 lockTime = depositeTime[_address][z] + (lockableDays[_address][z] * time) */\n      swap1\n      pop\n        /* \"StakeFactory.sol\":13601:13609  lockTime */\n      dup1\n        /* \"StakeFactory.sol\":13589:13598  blockTime */\n      dup4\n        /* \"StakeFactory.sol\":13589:13609  blockTime > lockTime */\n      gt\n        /* \"StakeFactory.sol\":13585:13921  if (blockTime > lockTime) {... */\n      iszero\n      tag_293\n      jumpi\n      sub(shl(0xa0, 0x01), 0x01)\n        /* \"StakeFactory.sol\":13698:13720  lockableDays[_address] */\n      dup7\n      and\n        /* \"StakeFactory.sol\":13630:13654  uint256 calculatedReward */\n      0x00\n        /* \"StakeFactory.sol\":13698:13720  lockableDays[_address] */\n      swap1\n      dup2\n      mstore\n        /* \"StakeFactory.sol\":13698:13710  lockableDays */\n      0x09\n        /* \"StakeFactory.sol\":13698:13720  lockableDays[_address] */\n      0x20\n      mstore\n      0x40\n      dup2\n      keccak256\n        /* \"StakeFactory.sol\":13698:13723  lockableDays[_address][z] */\n      dup1\n      sload\n        /* \"StakeFactory.sol\":13728:13733  10000 */\n      0x2710\n      swap2\n        /* \"StakeFactory.sol\":13687:13697  allocation */\n      0x04\n      swap2\n        /* \"StakeFactory.sol\":13630:13654  uint256 calculatedReward */\n      dup5\n      swap2\n        /* \"StakeFactory.sol\":13698:13720  lockableDays[_address] */\n      swap1\n        /* \"StakeFactory.sol\":13721:13722  z */\n      dup8\n      swap1\n        /* \"StakeFactory.sol\":13698:13723  lockableDays[_address][z] */\n      dup2\n      lt\n      tag_295\n      jumpi\n      tag_295\n      tag_284\n      jump\t// in\n    tag_295:\n      swap1\n      0x00\n      mstore\n      keccak256(0x00, 0x20)\n      add\n      sload\n        /* \"StakeFactory.sol\":13687:13724  allocation[lockableDays[_address][z]] */\n      dup2\n      mstore\n      0x20\n      add\n      swap1\n      dup2\n      mstore\n      0x20\n      add\n      0x00\n      keccak256\n      sload\n        /* \"StakeFactory.sol\":13658:13671  depositeToken */\n      0x07\n        /* \"StakeFactory.sol\":13658:13681  depositeToken[_address] */\n      0x00\n        /* \"StakeFactory.sol\":13672:13680  _address */\n      dup11\n      sub(shl(0xa0, 0x01), 0x01)\n        /* \"StakeFactory.sol\":13658:13681  depositeToken[_address] */\n      and\n      sub(shl(0xa0, 0x01), 0x01)\n      and\n      dup2\n      mstore\n      0x20\n      add\n      swap1\n      dup2\n      mstore\n      0x20\n      add\n      0x00\n      keccak256\n        /* \"StakeFactory.sol\":13682:13683  z */\n      dup6\n        /* \"StakeFactory.sol\":13658:13684  depositeToken[_address][z] */\n      dup2\n      sload\n      dup2\n      lt\n      tag_298\n      jumpi\n      tag_298\n      tag_284\n      jump\t// in\n    tag_298:\n      swap1\n      0x00\n      mstore\n      keccak256(0x00, 0x20)\n      add\n      sload\n        /* \"StakeFactory.sol\":13658:13724  depositeToken[_address][z] * allocation[lockableDays[_address][z]] */\n      tag_300\n      swap2\n      swap1\n      tag_287\n      jump\t// in\n    tag_300:\n        /* \"StakeFactory.sol\":13657:13733  (depositeToken[_address][z] * allocation[lockableDays[_address][z]]) / 10000 */\n      tag_301\n      swap2\n      swap1\n      tag_302\n      jump\t// in\n    tag_301:\n        /* \"StakeFactory.sol\":13811:13831  depositTokenDecimals */\n      sload(0x03)\n        /* \"StakeFactory.sol\":13630:13733  uint256 calculatedReward = (depositeToken[_address][z] * allocation[lockableDays[_address][z]]) / 10000 */\n      swap1\n      swap2\n      pop\n        /* \"StakeFactory.sol\":13771:13853  convertTokenAToTokenB(calculatedReward, depositTokenDecimals, rewardTokenDecimals) */\n      tag_303\n      swap1\n        /* \"StakeFactory.sol\":13630:13733  uint256 calculatedReward = (depositeToken[_address][z] * allocation[lockableDays[_address][z]]) / 10000 */\n      dup3\n      swap1\n        /* \"StakeFactory.sol\":13811:13831  depositTokenDecimals */\n      0xff\n      shl(0xa8, 0x01)\n      dup3\n      div\n      dup2\n      and\n      swap2\n      shl(0xb0, 0x01)\n        /* \"StakeFactory.sol\":13833:13852  rewardTokenDecimals */\n      swap1\n      div\n      and\n        /* \"StakeFactory.sol\":13771:13792  convertTokenAToTokenB */\n      tag_190\n        /* \"StakeFactory.sol\":13771:13853  convertTokenAToTokenB(calculatedReward, depositTokenDecimals, rewardTokenDecimals) */\n      jump\t// in\n    tag_303:\n        /* \"StakeFactory.sol\":13752:13853  calculatedReward = convertTokenAToTokenB(calculatedReward, depositTokenDecimals, rewardTokenDecimals) */\n      swap1\n      pop\n        /* \"StakeFactory.sol\":13874:13905  totalReward += calculatedReward */\n      tag_304\n        /* \"StakeFactory.sol\":13752:13853  calculatedReward = convertTokenAToTokenB(calculatedReward, depositTokenDecimals, rewardTokenDecimals) */\n      dup2\n        /* \"StakeFactory.sol\":13874:13905  totalReward += calculatedReward */\n      dup7\n      tag_292\n      jump\t// in\n    tag_304:\n      swap5\n      pop\n        /* \"StakeFactory.sol\":13611:13921  {... */\n      pop\n        /* \"StakeFactory.sol\":13585:13921  if (blockTime > lockTime) {... */\n    tag_293:\n      pop\n        /* \"StakeFactory.sol\":13467:13470  z++ */\n      dup1\n      tag_305\n      dup2\n      tag_306\n      jump\t// in\n    tag_305:\n      swap2\n      pop\n      pop\n        /* \"StakeFactory.sol\":13411:13932  for (uint256 z = 0; z < depositeToken[_address].length; z++) {... */\n      jump(tag_279)\n    tag_280:\n      pop\n        /* \"StakeFactory.sol\":13951:13962  totalReward */\n      swap1\n      swap4\n        /* \"StakeFactory.sol\":13245:13970  function pendingRewards(address _address) public view returns (uint256 reward) {... */\n      swap3\n      pop\n      pop\n      pop\n      jump\t// out\n        /* \"StakeFactory.sol\":23442:23654  function getLockPeriodParams(uint256 _days) external view returns (LockPeriodParams memory) {... */\n    tag_106:\n        /* \"StakeFactory.sol\":23509:23532  LockPeriodParams memory */\n      tag_307\n      tag_308\n      jump\t// in\n    tag_307:\n        /* \"StakeFactory.sol\":23553:23579  isLockPeriodAllowed(_days) */\n      tag_310\n        /* \"StakeFactory.sol\":23573:23578  _days */\n      dup3\n        /* \"StakeFactory.sol\":23553:23572  isLockPeriodAllowed */\n      tag_311\n        /* \"StakeFactory.sol\":23553:23579  isLockPeriodAllowed(_days) */\n      jump\t// in\n    tag_310:\n        /* \"StakeFactory.sol\":23545:23605  require(isLockPeriodAllowed(_days), \"Lock period not found\") */\n      tag_312\n      jumpi\n      mload(0x40)\n      shl(0xe5, 0x461bcd)\n      dup2\n      mstore\n      0x04\n      add\n      tag_268\n      swap1\n      tag_314\n      jump\t// in\n    tag_312:\n      pop\n        /* \"StakeFactory.sol\":23623:23646  lockPeriodParams[_days] */\n      0x00\n      swap1\n      dup2\n      mstore\n        /* \"StakeFactory.sol\":23623:23639  lockPeriodParams */\n      0x05\n        /* \"StakeFactory.sol\":23623:23646  lockPeriodParams[_days] */\n      0x20\n      dup2\n      dup2\n      mstore\n      0x40\n      swap3\n      dup4\n      swap1\n      keccak256\n        /* \"StakeFactory.sol\":23616:23646  return lockPeriodParams[_days] */\n      dup4\n      mload\n      0x0120\n      dup2\n      add\n      dup6\n      mstore\n      dup2\n      sload\n      dup2\n      mstore\n      0x01\n      dup3\n      add\n      sload\n      swap3\n      dup2\n      add\n      swap3\n      swap1\n      swap3\n      mstore\n      0x02\n      dup2\n      add\n      sload\n      swap4\n      dup3\n      add\n      swap4\n      swap1\n      swap4\n      mstore\n      0x03\n      dup4\n      add\n      sload\n      0x60\n      dup3\n      add\n      mstore\n      0x04\n      dup4\n      add\n      sload\n      0x80\n      dup3\n      add\n      mstore\n      swap1\n      dup3\n      add\n      sload\n      0xa0\n      dup3\n      add\n      mstore\n      0x06\n      dup3\n      add\n      sload\n      0xc0\n      dup3\n      add\n      mstore\n      0x07\n      dup3\n      add\n      sload\n      0xff\n      and\n      iszero\n      iszero\n      0xe0\n      dup3\n      add\n      mstore\n      0x08\n      swap1\n      swap2\n      add\n      sload\n      0x0100\n      dup3\n      add\n      mstore\n      swap1\n        /* \"StakeFactory.sol\":23442:23654  function getLockPeriodParams(uint256 _days) external view returns (LockPeriodParams memory) {... */\n      jump\t// out\n        /* \"StakeFactory.sol\":21045:21156  function getLockPeriods() external view returns (uint256[] memory) {... */\n    tag_111:\n        /* \"StakeFactory.sol\":21094:21110  uint256[] memory */\n      0x60\n        /* \"StakeFactory.sol\":21130:21148  allowedLockPeriods */\n      0x13\n        /* \"StakeFactory.sol\":21123:21148  return allowedLockPeriods */\n      dup1\n      sload\n      dup1\n      0x20\n      mul\n      0x20\n      add\n      mload(0x40)\n      swap1\n      dup2\n      add\n      0x40\n      mstore\n      dup1\n      swap3\n      swap2\n      swap1\n      dup2\n      dup2\n      mstore\n      0x20\n      add\n      dup3\n      dup1\n      sload\n      dup1\n      iszero\n      tag_316\n      jumpi\n      0x20\n      mul\n      dup3\n      add\n      swap2\n      swap1\n      0x00\n      mstore\n      keccak256(0x00, 0x20)\n      swap1\n    tag_317:\n      dup2\n      sload\n      dup2\n      mstore\n      0x20\n      add\n      swap1\n      0x01\n      add\n      swap1\n      dup1\n      dup4\n      gt\n      tag_317\n      jumpi\n    tag_316:\n      pop\n      pop\n      pop\n      pop\n      pop\n      swap1\n      pop\n        /* \"StakeFactory.sol\":21045:21156  function getLockPeriods() external view returns (uint256[] memory) {... */\n      swap1\n      jump\t// out\n        /* \"StakeFactory.sol\":14492:14980  function getUsers(uint256 _offset, uint256 _limit) public view returns(UserInfo[] memory ret) {... */\n    tag_118:\n        /* \"StakeFactory.sol\":14563:14584  UserInfo[] memory ret */\n      0x60\n        /* \"StakeFactory.sol\":14601:14612  _limit == 0 */\n      dup2\n        /* \"StakeFactory.sol\":14597:14633  if (_limit == 0) _limit = usersCount */\n      tag_319\n      jumpi\n        /* \"StakeFactory.sol\":14623:14633  usersCount */\n      sload(0x0f)\n        /* \"StakeFactory.sol\":14614:14633  _limit = usersCount */\n      swap2\n      pop\n        /* \"StakeFactory.sol\":14597:14633  if (_limit == 0) _limit = usersCount */\n    tag_319:\n        /* \"StakeFactory.sol\":14644:14656  uint256 iEnd */\n      0x00\n        /* \"StakeFactory.sol\":14659:14675  _offset + _limit */\n      tag_320\n        /* \"StakeFactory.sol\":14669:14675  _limit */\n      dup4\n        /* \"StakeFactory.sol\":14659:14666  _offset */\n      dup6\n        /* \"StakeFactory.sol\":14659:14675  _offset + _limit */\n      tag_292\n      jump\t// in\n    tag_320:\n        /* \"StakeFactory.sol\":14644:14675  uint256 iEnd = _offset + _limit */\n      swap1\n      pop\n        /* \"StakeFactory.sol\":14753:14767  iEnd - _offset */\n      tag_322\n        /* \"StakeFactory.sol\":14760:14767  _offset */\n      dup5\n        /* \"StakeFactory.sol\":14753:14757  iEnd */\n      dup3\n        /* \"StakeFactory.sol\":14753:14767  iEnd - _offset */\n      tag_323\n      jump\t// in\n    tag_322:\n        /* \"StakeFactory.sol\":14738:14768  new UserInfo[](iEnd - _offset) */\n      0xffffffffffffffff\n      dup2\n      gt\n      iszero\n      tag_325\n      jumpi\n      tag_325\n      tag_326\n      jump\t// in\n    tag_325:\n      mload(0x40)\n      swap1\n      dup1\n      dup3\n      mstore\n      dup1\n      0x20\n      mul\n      0x20\n      add\n      dup3\n      add\n      0x40\n      mstore\n      dup1\n      iszero\n      tag_327\n      jumpi\n      dup2\n      0x20\n      add\n    tag_328:\n      tag_329\n      tag_330\n      jump\t// in\n    tag_329:\n      dup2\n      mstore\n      0x20\n      add\n      swap1\n      0x01\n      swap1\n      sub\n      swap1\n      dup2\n      tag_328\n      jumpi\n      swap1\n      pop\n    tag_327:\n      pop\n        /* \"StakeFactory.sol\":14732:14768  ret = new UserInfo[](iEnd - _offset) */\n      swap2\n      pop\n        /* \"StakeFactory.sol\":14784:14793  uint256 i */\n      0x00\n        /* \"StakeFactory.sol\":14779:14973  for (uint256 i = 0; i < iEnd - _offset ; i++) {... */\n    tag_331:\n        /* \"StakeFactory.sol\":14803:14817  iEnd - _offset */\n      tag_334\n        /* \"StakeFactory.sol\":14810:14817  _offset */\n      dup6\n        /* \"StakeFactory.sol\":14803:14807  iEnd */\n      dup4\n        /* \"StakeFactory.sol\":14803:14817  iEnd - _offset */\n      tag_323\n      jump\t// in\n    tag_334:\n        /* \"StakeFactory.sol\":14799:14800  i */\n      dup2\n        /* \"StakeFactory.sol\":14799:14817  i < iEnd - _offset */\n      lt\n        /* \"StakeFactory.sol\":14779:14973  for (uint256 i = 0; i < iEnd - _offset ; i++) {... */\n      iszero\n      tag_332\n      jumpi\n        /* \"StakeFactory.sol\":14849:14961  getUser(... */\n      tag_335\n        /* \"StakeFactory.sol\":14875:14880  users */\n      0x0e\n        /* \"StakeFactory.sol\":14875:14946  users[... */\n      0x00\n        /* \"StakeFactory.sol\":14920:14927  _offset */\n      dup8\n        /* \"StakeFactory.sol\":14916:14917  i */\n      dup5\n        /* \"StakeFactory.sol\":14903:14913  usersCount */\n      sload(0x0f)\n        /* \"StakeFactory.sol\":14903:14917  usersCount - i */\n      tag_336\n      swap2\n      swap1\n      tag_323\n      jump\t// in\n    tag_336:\n        /* \"StakeFactory.sol\":14903:14927  usersCount - i - _offset */\n      tag_337\n      swap2\n      swap1\n      tag_323\n      jump\t// in\n    tag_337:\n        /* \"StakeFactory.sol\":14875:14946  users[... */\n      dup2\n      mstore\n      0x20\n      dup2\n      add\n      swap2\n      swap1\n      swap2\n      mstore\n      0x40\n      add\n      0x00\n      keccak256\n      sload\n      sub(shl(0xa0, 0x01), 0x01)\n      and\n        /* \"StakeFactory.sol\":14849:14856  getUser */\n      tag_158\n        /* \"StakeFactory.sol\":14849:14961  getUser(... */\n      jump\t// in\n    tag_335:\n        /* \"StakeFactory.sol\":14840:14843  ret */\n      dup4\n        /* \"StakeFactory.sol\":14844:14845  i */\n      dup3\n        /* \"StakeFactory.sol\":14840:14846  ret[i] */\n      dup2\n      mload\n      dup2\n      lt\n      tag_339\n      jumpi\n      tag_339\n      tag_284\n      jump\t// in\n    tag_339:\n      0x20\n      mul\n      0x20\n      add\n      add\n        /* \"StakeFactory.sol\":14840:14961  ret[i] = getUser(... */\n      dup2\n      swap1\n      mstore\n      pop\n        /* \"StakeFactory.sol\":14820:14823  i++ */\n      dup1\n      dup1\n      tag_340\n      swap1\n      tag_306\n      jump\t// in\n    tag_340:\n      swap2\n      pop\n      pop\n        /* \"StakeFactory.sol\":14779:14973  for (uint256 i = 0; i < iEnd - _offset ; i++) {... */\n      jump(tag_331)\n    tag_332:\n      pop\n        /* \"StakeFactory.sol\":14586:14980  {... */\n      pop\n        /* \"StakeFactory.sol\":14492:14980  function getUsers(uint256 _offset, uint256 _limit) public view returns(UserInfo[] memory ret) {... */\n      swap3\n      swap2\n      pop\n      pop\n      jump\t// out\n        /* \"StakeFactory.sol\":20191:20916  function removeLockPeriod(uint256 _days) external onlyOwner {... */\n    tag_124:\n        /* \"StakeFactory.sol\":7912:7918  _owner */\n      and(sub(shl(0xa0, 0x01), 0x01), sload(0x00))\n        /* \"StakeFactory.sol\":7922:7932  msg.sender */\n      caller\n        /* \"StakeFactory.sol\":7912:7932  _owner == msg.sender */\n      eq\n        /* \"StakeFactory.sol\":7904:7969  require(_owner == msg.sender, \"Ownable: caller is not the owner\") */\n      tag_342\n      jumpi\n      mload(0x40)\n      shl(0xe5, 0x461bcd)\n      dup2\n      mstore\n      0x04\n      add\n      tag_268\n      swap1\n      tag_269\n      jump\t// in\n    tag_342:\n        /* \"StakeFactory.sol\":20270:20296  isLockPeriodAllowed(_days) */\n      tag_345\n        /* \"StakeFactory.sol\":20290:20295  _days */\n      dup2\n        /* \"StakeFactory.sol\":20270:20289  isLockPeriodAllowed */\n      tag_311\n        /* \"StakeFactory.sol\":20270:20296  isLockPeriodAllowed(_days) */\n      jump\t// in\n    tag_345:\n        /* \"StakeFactory.sol\":20262:20322  require(isLockPeriodAllowed(_days), \"Lock period not found\") */\n      tag_346\n      jumpi\n      mload(0x40)\n      shl(0xe5, 0x461bcd)\n      dup2\n      mstore\n      0x04\n      add\n      tag_268\n      swap1\n      tag_314\n      jump\t// in\n    tag_346:\n        /* \"StakeFactory.sol\":20335:20356  uint256 indexToRemove */\n      0x00\n      dup1\n      dup1\n        /* \"StakeFactory.sol\":20398:20623  for (uint256 i = 0; i < allowedLockPeriods.length; i++) {... */\n    tag_348:\n        /* \"StakeFactory.sol\":20422:20440  allowedLockPeriods */\n      0x13\n        /* \"StakeFactory.sol\":20422:20447  allowedLockPeriods.length */\n      sload\n        /* \"StakeFactory.sol\":20418:20447  i < allowedLockPeriods.length */\n      dup2\n      lt\n        /* \"StakeFactory.sol\":20398:20623  for (uint256 i = 0; i < allowedLockPeriods.length; i++) {... */\n      iszero\n      tag_349\n      jumpi\n        /* \"StakeFactory.sol\":20498:20503  _days */\n      dup4\n        /* \"StakeFactory.sol\":20473:20491  allowedLockPeriods */\n      0x13\n        /* \"StakeFactory.sol\":20492:20493  i */\n      dup3\n        /* \"StakeFactory.sol\":20473:20494  allowedLockPeriods[i] */\n      dup2\n      sload\n      dup2\n      lt\n      tag_352\n      jumpi\n      tag_352\n      tag_284\n      jump\t// in\n    tag_352:\n      swap1\n      0x00\n      mstore\n      keccak256(0x00, 0x20)\n      add\n      sload\n        /* \"StakeFactory.sol\":20473:20503  allowedLockPeriods[i] == _days */\n      eq\n        /* \"StakeFactory.sol\":20469:20612  if (allowedLockPeriods[i] == _days) {... */\n      iszero\n      tag_354\n      jumpi\n        /* \"StakeFactory.sol\":20540:20541  i */\n      dup1\n        /* \"StakeFactory.sol\":20524:20541  indexToRemove = i */\n      swap3\n      pop\n        /* \"StakeFactory.sol\":20568:20572  true */\n      0x01\n        /* \"StakeFactory.sol\":20560:20572  found = true */\n      swap2\n      pop\n        /* \"StakeFactory.sol\":20591:20596  break */\n      jump(tag_349)\n        /* \"StakeFactory.sol\":20469:20612  if (allowedLockPeriods[i] == _days) {... */\n    tag_354:\n        /* \"StakeFactory.sol\":20449:20452  i++ */\n      dup1\n      tag_355\n      dup2\n      tag_306\n      jump\t// in\n    tag_355:\n      swap2\n      pop\n      pop\n        /* \"StakeFactory.sol\":20398:20623  for (uint256 i = 0; i < allowedLockPeriods.length; i++) {... */\n      jump(tag_348)\n    tag_349:\n      pop\n        /* \"StakeFactory.sol\":20643:20648  found */\n      dup1\n        /* \"StakeFactory.sol\":20635:20674  require(found, \"Lock period not found\") */\n      tag_356\n      jumpi\n      mload(0x40)\n      shl(0xe5, 0x461bcd)\n      dup2\n      mstore\n      0x04\n      add\n      tag_268\n      swap1\n      tag_314\n      jump\t// in\n    tag_356:\n        /* \"StakeFactory.sol\":20692:20715  lockPeriodParams[_days] */\n      0x00\n      dup4\n      dup2\n      mstore\n        /* \"StakeFactory.sol\":20692:20708  lockPeriodParams */\n      0x05\n        /* \"StakeFactory.sol\":20692:20715  lockPeriodParams[_days] */\n      0x20\n      dup2\n      swap1\n      mstore\n      0x40\n      dup3\n      keccak256\n        /* \"StakeFactory.sol\":20685:20715  delete lockPeriodParams[_days] */\n      dup3\n      dup2\n      sstore\n      0x01\n      dup2\n      add\n      dup4\n      swap1\n      sstore\n      0x02\n      dup2\n      add\n      dup4\n      swap1\n      sstore\n      0x03\n      dup2\n      add\n      dup4\n      swap1\n      sstore\n      0x04\n      dup2\n      add\n      dup4\n      swap1\n      sstore\n      swap1\n      dup2\n      add\n      dup3\n      swap1\n      sstore\n      0x06\n      dup2\n      add\n      dup3\n      swap1\n      sstore\n      0x07\n      dup2\n      add\n      dup1\n      sload\n      not(0xff)\n      and\n      swap1\n      sstore\n      0x08\n      add\n      sstore\n        /* \"StakeFactory.sol\":20743:20756  indexToRemove */\n      dup2\n        /* \"StakeFactory.sol\":20726:20874  for (uint256 i = indexToRemove; i < allowedLockPeriods.length - 1; i++) {... */\n    tag_358:\n        /* \"StakeFactory.sol\":20762:20780  allowedLockPeriods */\n      0x13\n        /* \"StakeFactory.sol\":20762:20787  allowedLockPeriods.length */\n      sload\n        /* \"StakeFactory.sol\":20762:20791  allowedLockPeriods.length - 1 */\n      tag_361\n      swap1\n        /* \"StakeFactory.sol\":20790:20791  1 */\n      0x01\n      swap1\n        /* \"StakeFactory.sol\":20762:20791  allowedLockPeriods.length - 1 */\n      tag_323\n      jump\t// in\n    tag_361:\n        /* \"StakeFactory.sol\":20758:20759  i */\n      dup2\n        /* \"StakeFactory.sol\":20758:20791  i < allowedLockPeriods.length - 1 */\n      lt\n        /* \"StakeFactory.sol\":20726:20874  for (uint256 i = indexToRemove; i < allowedLockPeriods.length - 1; i++) {... */\n      iszero\n      tag_359\n      jumpi\n        /* \"StakeFactory.sol\":20837:20855  allowedLockPeriods */\n      0x13\n        /* \"StakeFactory.sol\":20856:20861  i + 1 */\n      tag_362\n        /* \"StakeFactory.sol\":20856:20857  i */\n      dup3\n        /* \"StakeFactory.sol\":20860:20861  1 */\n      0x01\n        /* \"StakeFactory.sol\":20856:20861  i + 1 */\n      tag_292\n      jump\t// in\n    tag_362:\n        /* \"StakeFactory.sol\":20837:20862  allowedLockPeriods[i + 1] */\n      dup2\n      sload\n      dup2\n      lt\n      tag_364\n      jumpi\n      tag_364\n      tag_284\n      jump\t// in\n    tag_364:\n      swap1\n      0x00\n      mstore\n      keccak256(0x00, 0x20)\n      add\n      sload\n        /* \"StakeFactory.sol\":20813:20831  allowedLockPeriods */\n      0x13\n        /* \"StakeFactory.sol\":20832:20833  i */\n      dup3\n        /* \"StakeFactory.sol\":20813:20834  allowedLockPeriods[i] */\n      dup2\n      sload\n      dup2\n      lt\n      tag_367\n      jumpi\n      tag_367\n      tag_284\n      jump\t// in\n    tag_367:\n      0x00\n      swap2\n      dup3\n      mstore\n      0x20\n      swap1\n      swap2\n      keccak256\n      add\n        /* \"StakeFactory.sol\":20813:20862  allowedLockPeriods[i] = allowedLockPeriods[i + 1] */\n      sstore\n        /* \"StakeFactory.sol\":20793:20796  i++ */\n      dup1\n      tag_369\n      dup2\n      tag_306\n      jump\t// in\n    tag_369:\n      swap2\n      pop\n      pop\n        /* \"StakeFactory.sol\":20726:20874  for (uint256 i = indexToRemove; i < allowedLockPeriods.length - 1; i++) {... */\n      jump(tag_358)\n    tag_359:\n      pop\n        /* \"StakeFactory.sol\":20884:20902  allowedLockPeriods */\n      0x13\n        /* \"StakeFactory.sol\":20884:20908  allowedLockPeriods.pop() */\n      dup1\n      sload\n      dup1\n      tag_371\n      jumpi\n      tag_371\n      tag_372\n      jump\t// in\n    tag_371:\n      0x01\n      swap1\n      sub\n      dup2\n      dup2\n      swap1\n      0x00\n      mstore\n      keccak256(0x00, 0x20)\n      add\n      0x00\n      swap1\n      sstore\n      swap1\n      sstore\n        /* \"StakeFactory.sol\":20251:20916  {... */\n      pop\n      pop\n        /* \"StakeFactory.sol\":20191:20916  function removeLockPeriod(uint256 _days) external onlyOwner {... */\n      pop\n      jump\t// out\n        /* \"StakeFactory.sol\":24542:24786  function addSpam(address _addr) public onlyOwner {... */\n    tag_128:\n        /* \"StakeFactory.sol\":7912:7918  _owner */\n      and(sub(shl(0xa0, 0x01), 0x01), sload(0x00))\n        /* \"StakeFactory.sol\":7922:7932  msg.sender */\n      caller\n        /* \"StakeFactory.sol\":7912:7932  _owner == msg.sender */\n      eq\n        /* \"StakeFactory.sol\":7904:7969  require(_owner == msg.sender, \"Ownable: caller is not the owner\") */\n      tag_375\n      jumpi\n      mload(0x40)\n      shl(0xe5, 0x461bcd)\n      dup2\n      mstore\n      0x04\n      add\n      tag_268\n      swap1\n      tag_269\n      jump\t// in\n    tag_375:\n      sub(shl(0xa0, 0x01), 0x01)\n        /* \"StakeFactory.sol\":24610:24629  _addr != address(0) */\n      dup2\n      and\n        /* \"StakeFactory.sol\":24602:24649  require(_addr != address(0), \"Invalid address\") */\n      tag_378\n      jumpi\n      mload(0x40)\n      shl(0xe5, 0x461bcd)\n      dup2\n      mstore\n        /* \"#utility.yul\":14694:14696   */\n      0x20\n        /* \"StakeFactory.sol\":24602:24649  require(_addr != address(0), \"Invalid address\") */\n      0x04\n      dup3\n      add\n        /* \"#utility.yul\":14676:14697   */\n      mstore\n        /* \"#utility.yul\":14733:14735   */\n      0x0f\n        /* \"#utility.yul\":14713:14731   */\n      0x24\n      dup3\n      add\n        /* \"#utility.yul\":14706:14736   */\n      mstore\n      shl(0x88, 0x496e76616c69642061646472657373)\n        /* \"#utility.yul\":14752:14770   */\n      0x44\n      dup3\n      add\n        /* \"#utility.yul\":14745:14790   */\n      mstore\n        /* \"#utility.yul\":14807:14825   */\n      0x64\n      add\n        /* \"StakeFactory.sol\":24602:24649  require(_addr != address(0), \"Invalid address\") */\n      tag_268\n        /* \"#utility.yul\":14492:14831   */\n      jump\n        /* \"StakeFactory.sol\":24602:24649  require(_addr != address(0), \"Invalid address\") */\n    tag_378:\n      sub(shl(0xa0, 0x01), 0x01)\n        /* \"StakeFactory.sol\":24711:24724  isSpam[_addr] */\n      and\n      0x00\n      swap1\n      dup2\n      mstore\n        /* \"StakeFactory.sol\":24711:24717  isSpam */\n      0x10\n        /* \"StakeFactory.sol\":24711:24724  isSpam[_addr] */\n      0x20\n      mstore\n      0x40\n      swap1\n      keccak256\n        /* \"StakeFactory.sol\":24711:24731  isSpam[_addr] = true */\n      dup1\n      sload\n      not(0xff)\n      and\n        /* \"StakeFactory.sol\":24727:24731  true */\n      0x01\n        /* \"StakeFactory.sol\":24711:24731  isSpam[_addr] = true */\n      or\n      swap1\n      sstore\n        /* \"StakeFactory.sol\":24542:24786  function addSpam(address _addr) public onlyOwner {... */\n      jump\t// out\n        /* \"StakeFactory.sol\":24794:25039  function removeSpam(address _addr) public onlyOwner {... */\n    tag_132:\n        /* \"StakeFactory.sol\":7912:7918  _owner */\n      and(sub(shl(0xa0, 0x01), 0x01), sload(0x00))\n        /* \"StakeFactory.sol\":7922:7932  msg.sender */\n      caller\n        /* \"StakeFactory.sol\":7912:7932  _owner == msg.sender */\n      eq\n        /* \"StakeFactory.sol\":7904:7969  require(_owner == msg.sender, \"Ownable: caller is not the owner\") */\n      tag_382\n      jumpi\n      mload(0x40)\n      shl(0xe5, 0x461bcd)\n      dup2\n      mstore\n      0x04\n      add\n      tag_268\n      swap1\n      tag_269\n      jump\t// in\n    tag_382:\n      sub(shl(0xa0, 0x01), 0x01)\n        /* \"StakeFactory.sol\":24865:24884  _addr != address(0) */\n      dup2\n      and\n        /* \"StakeFactory.sol\":24857:24904  require(_addr != address(0), \"Invalid address\") */\n      tag_385\n      jumpi\n      mload(0x40)\n      shl(0xe5, 0x461bcd)\n      dup2\n      mstore\n        /* \"#utility.yul\":14694:14696   */\n      0x20\n        /* \"StakeFactory.sol\":24857:24904  require(_addr != address(0), \"Invalid address\") */\n      0x04\n      dup3\n      add\n        /* \"#utility.yul\":14676:14697   */\n      mstore\n        /* \"#utility.yul\":14733:14735   */\n      0x0f\n        /* \"#utility.yul\":14713:14731   */\n      0x24\n      dup3\n      add\n        /* \"#utility.yul\":14706:14736   */\n      mstore\n      shl(0x88, 0x496e76616c69642061646472657373)\n        /* \"#utility.yul\":14752:14770   */\n      0x44\n      dup3\n      add\n        /* \"#utility.yul\":14745:14790   */\n      mstore\n        /* \"#utility.yul\":14807:14825   */\n      0x64\n      add\n        /* \"StakeFactory.sol\":24857:24904  require(_addr != address(0), \"Invalid address\") */\n      tag_268\n        /* \"#utility.yul\":14492:14831   */\n      jump\n        /* \"StakeFactory.sol\":24857:24904  require(_addr != address(0), \"Invalid address\") */\n    tag_385:\n      sub(shl(0xa0, 0x01), 0x01)\n        /* \"StakeFactory.sol\":24966:24979  isSpam[_addr] */\n      and\n        /* \"StakeFactory.sol\":24982:24987  false */\n      0x00\n        /* \"StakeFactory.sol\":24966:24979  isSpam[_addr] */\n      swap1\n      dup2\n      mstore\n        /* \"StakeFactory.sol\":24966:24972  isSpam */\n      0x10\n        /* \"StakeFactory.sol\":24966:24979  isSpam[_addr] */\n      0x20\n      mstore\n      0x40\n      swap1\n      keccak256\n        /* \"StakeFactory.sol\":24966:24987  isSpam[_addr] = false */\n      dup1\n      sload\n      not(0xff)\n      and\n      swap1\n      sstore\n        /* \"StakeFactory.sol\":24794:25039  function removeSpam(address _addr) public onlyOwner {... */\n      jump\t// out\n        /* \"StakeFactory.sol\":21930:22345  function getRewardTokenInfo() public view returns (... */\n    tag_140:\n        /* \"StakeFactory.sol\":22148:22159  rewardToken */\n      sload(0x03)\n        /* \"StakeFactory.sol\":22178:22196  rewardToken.name() */\n      0x40\n      dup1\n      mload\n      shl(0xe0, 0x06fdde03)\n      dup2\n      mstore\n      swap1\n      mload\n      sub(shl(0xa0, 0x01), 0x01)\n        /* \"StakeFactory.sol\":22148:22159  rewardToken */\n      swap1\n      swap3\n      and\n      swap2\n        /* \"StakeFactory.sol\":22014:22032  string memory name */\n      0x60\n      swap2\n      dup3\n      swap2\n        /* \"StakeFactory.sol\":21991:22003  address addr */\n      0x00\n      swap2\n      dup3\n      swap2\n        /* \"StakeFactory.sol\":22148:22159  rewardToken */\n      dup7\n      swap2\n        /* \"StakeFactory.sol\":22178:22194  rewardToken.name */\n      0x06fdde03\n      swap2\n        /* \"StakeFactory.sol\":22178:22196  rewardToken.name() */\n      0x04\n      dup1\n      dup4\n      add\n      swap3\n        /* \"StakeFactory.sol\":21991:22003  address addr */\n      dup7\n      swap3\n        /* \"StakeFactory.sol\":22178:22196  rewardToken.name() */\n      swap2\n      swap1\n      dup3\n      swap1\n      sub\n      add\n      dup2\n        /* \"StakeFactory.sol\":22148:22159  rewardToken */\n      dup7\n        /* \"StakeFactory.sol\":22178:22196  rewardToken.name() */\n      gas\n      staticcall\n      iszero\n      dup1\n      iszero\n      tag_390\n      jumpi\n      returndatasize\n      0x00\n      dup1\n      returndatacopy\n      revert(0x00, returndatasize)\n    tag_390:\n      pop\n      pop\n      pop\n      pop\n      mload(0x40)\n      returndatasize\n      0x00\n      dup3\n      returndatacopy\n      0x1f\n      returndatasize\n      swap1\n      dup2\n      add\n      not(0x1f)\n      and\n      dup3\n      add\n      0x40\n      mstore\n      tag_391\n      swap2\n      swap1\n      dup2\n      add\n      swap1\n      tag_392\n      jump\t// in\n    tag_391:\n        /* \"StakeFactory.sol\":22171:22196  name = rewardToken.name() */\n      swap4\n      pop\n        /* \"StakeFactory.sol\":22216:22227  rewardToken */\n      0x03\n      0x00\n      swap1\n      sload\n      swap1\n      0x0100\n      exp\n      swap1\n      div\n      sub(shl(0xa0, 0x01), 0x01)\n      and\n      sub(shl(0xa0, 0x01), 0x01)\n        /* \"StakeFactory.sol\":22216:22234  rewardToken.symbol */\n      and\n      0x95d89b41\n        /* \"StakeFactory.sol\":22216:22236  rewardToken.symbol() */\n      mload(0x40)\n      dup2\n      0xffffffff\n      and\n      0xe0\n      shl\n      dup2\n      mstore\n      0x04\n      add\n      0x00\n      mload(0x40)\n      dup1\n      dup4\n      sub\n      dup2\n      dup7\n      gas\n      staticcall\n      iszero\n      dup1\n      iszero\n      tag_394\n      jumpi\n      returndatasize\n      0x00\n      dup1\n      returndatacopy\n      revert(0x00, returndatasize)\n    tag_394:\n      pop\n      pop\n      pop\n      pop\n      mload(0x40)\n      returndatasize\n      0x00\n      dup3\n      returndatacopy\n      0x1f\n      returndatasize\n      swap1\n      dup2\n      add\n      not(0x1f)\n      and\n      dup3\n      add\n      0x40\n      mstore\n      tag_395\n      swap2\n      swap1\n      dup2\n      add\n      swap1\n      tag_392\n      jump\t// in\n    tag_395:\n        /* \"StakeFactory.sol\":22207:22236  symbol = rewardToken.symbol() */\n      swap3\n      pop\n        /* \"StakeFactory.sol\":22258:22269  rewardToken */\n      0x03\n      0x00\n      swap1\n      sload\n      swap1\n      0x0100\n      exp\n      swap1\n      div\n      sub(shl(0xa0, 0x01), 0x01)\n      and\n      sub(shl(0xa0, 0x01), 0x01)\n        /* \"StakeFactory.sol\":22258:22278  rewardToken.decimals */\n      and\n      0x313ce567\n        /* \"StakeFactory.sol\":22258:22280  rewardToken.decimals() */\n      mload(0x40)\n      dup2\n      0xffffffff\n      and\n      0xe0\n      shl\n      dup2\n      mstore\n      0x04\n      add\n      0x20\n      mload(0x40)\n      dup1\n      dup4\n      sub\n      dup2\n      dup7\n      gas\n      staticcall\n      iszero\n      dup1\n      iszero\n      tag_397\n      jumpi\n      returndatasize\n      0x00\n      dup1\n      returndatacopy\n      revert(0x00, returndatasize)\n    tag_397:\n      pop\n      pop\n      pop\n      pop\n      mload(0x40)\n      returndatasize\n      not(0x1f)\n      0x1f\n      dup3\n      add\n      and\n      dup3\n      add\n      dup1\n      0x40\n      mstore\n      pop\n      dup2\n      add\n      swap1\n      tag_398\n      swap2\n      swap1\n      tag_399\n      jump\t// in\n    tag_398:\n        /* \"StakeFactory.sol\":22301:22312  rewardToken */\n      sload(0x03)\n        /* \"StakeFactory.sol\":22301:22337  rewardToken.balanceOf(address(this)) */\n      mload(0x40)\n      shl(0xe0, 0x70a08231)\n      dup2\n      mstore\n        /* \"StakeFactory.sol\":22331:22335  this */\n      address\n        /* \"StakeFactory.sol\":22301:22337  rewardToken.balanceOf(address(this)) */\n      0x04\n      dup3\n      add\n        /* \"#utility.yul\":915:966   */\n      mstore\n        /* \"StakeFactory.sol\":22247:22280  decimals = rewardToken.decimals() */\n      swap2\n      swap4\n      pop\n      sub(shl(0xa0, 0x01), 0x01)\n        /* \"StakeFactory.sol\":22301:22312  rewardToken */\n      and\n      swap1\n        /* \"StakeFactory.sol\":22301:22322  rewardToken.balanceOf */\n      0x70a08231\n      swap1\n        /* \"#utility.yul\":888:906   */\n      0x24\n      add\n        /* \"StakeFactory.sol\":22301:22337  rewardToken.balanceOf(address(this)) */\n    tag_400:\n      0x20\n      mload(0x40)\n      dup1\n      dup4\n      sub\n      dup2\n      dup7\n      gas\n      staticcall\n      iszero\n      dup1\n      iszero\n      tag_402\n      jumpi\n      returndatasize\n      0x00\n      dup1\n      returndatacopy\n      revert(0x00, returndatasize)\n    tag_402:\n      pop\n      pop\n      pop\n      pop\n      mload(0x40)\n      returndatasize\n      not(0x1f)\n      0x1f\n      dup3\n      add\n      and\n      dup3\n      add\n      dup1\n      0x40\n      mstore\n      pop\n      dup2\n      add\n      swap1\n      tag_403\n      swap2\n      swap1\n      tag_404\n      jump\t// in\n    tag_403:\n        /* \"StakeFactory.sol\":22291:22337  balance = rewardToken.balanceOf(address(this)) */\n      swap1\n      pop\n        /* \"StakeFactory.sol\":21930:22345  function getRewardTokenInfo() public view returns (... */\n      swap1\n      swap2\n      swap3\n      swap4\n      swap5\n      jump\t// out\n        /* \"StakeFactory.sol\":23761:23975  function setDeductionPercentage(uint256 percentageBasisPoints) public onlyOwner {... */\n    tag_146:\n        /* \"StakeFactory.sol\":7912:7918  _owner */\n      and(sub(shl(0xa0, 0x01), 0x01), sload(0x00))\n        /* \"StakeFactory.sol\":7922:7932  msg.sender */\n      caller\n        /* \"StakeFactory.sol\":7912:7932  _owner == msg.sender */\n      eq\n        /* \"StakeFactory.sol\":7904:7969  require(_owner == msg.sender, \"Ownable: caller is not the owner\") */\n      tag_406\n      jumpi\n      mload(0x40)\n      shl(0xe5, 0x461bcd)\n      dup2\n      mstore\n      0x04\n      add\n      tag_268\n      swap1\n      tag_269\n      jump\t// in\n    tag_406:\n        /* \"StakeFactory.sol\":23885:23890  10000 */\n      0x2710\n        /* \"StakeFactory.sol\":23860:23881  percentageBasisPoints */\n      dup2\n        /* \"StakeFactory.sol\":23860:23890  percentageBasisPoints <= 10000 */\n      gt\n      iszero\n        /* \"StakeFactory.sol\":23852:23913  require(percentageBasisPoints <= 10000, \"Invalid percentage\") */\n      tag_409\n      jumpi\n      mload(0x40)\n      shl(0xe5, 0x461bcd)\n      dup2\n      mstore\n        /* \"#utility.yul\":16190:16192   */\n      0x20\n        /* \"StakeFactory.sol\":23852:23913  require(percentageBasisPoints <= 10000, \"Invalid percentage\") */\n      0x04\n      dup3\n      add\n        /* \"#utility.yul\":16172:16193   */\n      mstore\n        /* \"#utility.yul\":16229:16231   */\n      0x12\n        /* \"#utility.yul\":16209:16227   */\n      0x24\n      dup3\n      add\n        /* \"#utility.yul\":16202:16232   */\n      mstore\n      shl(0x70, 0x496e76616c69642070657263656e74616765)\n        /* \"#utility.yul\":16248:16266   */\n      0x44\n      dup3\n      add\n        /* \"#utility.yul\":16241:16289   */\n      mstore\n        /* \"#utility.yul\":16306:16324   */\n      0x64\n      add\n        /* \"StakeFactory.sol\":23852:23913  require(percentageBasisPoints <= 10000, \"Invalid percentage\") */\n      tag_268\n        /* \"#utility.yul\":15988:16330   */\n      jump\n        /* \"StakeFactory.sol\":23852:23913  require(percentageBasisPoints <= 10000, \"Invalid percentage\") */\n    tag_409:\n        /* \"StakeFactory.sol\":23924:23943  deductionPercentage */\n      0x11\n        /* \"StakeFactory.sol\":23924:23967  deductionPercentage = percentageBasisPoints */\n      sstore\n        /* \"StakeFactory.sol\":23761:23975  function setDeductionPercentage(uint256 percentageBasisPoints) public onlyOwner {... */\n      jump\t// out\n        /* \"StakeFactory.sol\":13978:14486  function getUser(address user) public view returns (UserInfo memory info) {... */\n    tag_158:\n        /* \"StakeFactory.sol\":14030:14050  UserInfo memory info */\n      tag_412\n      tag_330\n      jump\t// in\n    tag_412:\n        /* \"StakeFactory.sol\":14070:14478  UserInfo({... */\n      0x40\n      dup1\n      mload\n      0x0100\n      dup2\n      add\n      dup3\n      mstore\n      sub(shl(0xa0, 0x01), 0x01)\n      dup5\n      and\n      dup1\n      dup3\n      mstore\n      0x00\n        /* \"StakeFactory.sol\":14142:14167  depositeTokensTotal[user] */\n      dup2\n      dup2\n      mstore\n        /* \"StakeFactory.sol\":14142:14161  depositeTokensTotal */\n      0x08\n        /* \"StakeFactory.sol\":14070:14478  UserInfo({... */\n      0x20\n        /* \"StakeFactory.sol\":14142:14167  depositeTokensTotal[user] */\n      swap1\n      dup2\n      mstore\n      dup5\n      dup3\n      keccak256\n      sload\n        /* \"StakeFactory.sol\":14070:14478  UserInfo({... */\n      dup2\n      dup6\n      add\n      mstore\n        /* \"StakeFactory.sol\":14245:14262  lastUpdated[user] */\n      dup3\n      dup3\n      mstore\n        /* \"StakeFactory.sol\":14245:14256  lastUpdated */\n      0x0c\n        /* \"StakeFactory.sol\":14245:14262  lastUpdated[user] */\n      dup2\n      mstore\n      dup5\n      dup3\n      keccak256\n      sload\n        /* \"StakeFactory.sol\":14070:14478  UserInfo({... */\n      dup5\n      dup7\n      add\n      mstore\n        /* \"StakeFactory.sol\":14291:14309  lockableDays[user] */\n      swap2\n      dup2\n      mstore\n        /* \"StakeFactory.sol\":14291:14303  lockableDays */\n      0x09\n        /* \"StakeFactory.sol\":14291:14309  lockableDays[user] */\n      dup3\n      mstore\n      dup4\n      swap1\n      keccak256\n        /* \"StakeFactory.sol\":14070:14478  UserInfo({... */\n      dup1\n      sload\n      dup5\n      mload\n      dup2\n      dup5\n      mul\n      dup2\n      add\n      dup5\n      add\n      swap1\n      swap6\n      mstore\n      dup1\n      dup6\n      mstore\n      swap3\n      swap4\n      0x60\n      dup6\n      add\n      swap4\n      swap1\n      swap3\n      dup4\n      add\n        /* \"StakeFactory.sol\":14291:14309  lockableDays[user] */\n      dup3\n        /* \"StakeFactory.sol\":14070:14478  UserInfo({... */\n      dup3\n      dup1\n      iszero\n      tag_414\n      jumpi\n      0x20\n      mul\n      dup3\n      add\n      swap2\n      swap1\n      0x00\n      mstore\n      keccak256(0x00, 0x20)\n      swap1\n    tag_415:\n      dup2\n      sload\n      dup2\n      mstore\n      0x20\n      add\n      swap1\n      0x01\n      add\n      swap1\n      dup1\n      dup4\n      gt\n      tag_415\n      jumpi\n    tag_414:\n      pop\n      pop\n      pop\n      swap2\n      dup4\n      mstore\n      pop\n      pop\n      sub(shl(0xa0, 0x01), 0x01)\n        /* \"StakeFactory.sol\":14198:14217  depositeToken[user] */\n      dup5\n      and\n      0x00\n      swap1\n      dup2\n      mstore\n        /* \"StakeFactory.sol\":14198:14211  depositeToken */\n      0x07\n        /* \"StakeFactory.sol\":14070:14478  UserInfo({... */\n      0x20\n        /* \"StakeFactory.sol\":14198:14217  depositeToken[user] */\n      swap1\n      dup2\n      mstore\n      0x40\n      swap2\n      dup3\n      swap1\n      keccak256\n        /* \"StakeFactory.sol\":14070:14478  UserInfo({... */\n      dup1\n      sload\n      dup4\n      mload\n      dup2\n      dup5\n      mul\n      dup2\n      add\n      dup5\n      add\n      swap1\n      swap5\n      mstore\n      dup1\n      dup5\n      mstore\n      swap4\n      dup3\n      add\n      swap4\n        /* \"StakeFactory.sol\":14198:14217  depositeToken[user] */\n      swap1\n      swap2\n        /* \"StakeFactory.sol\":14070:14478  UserInfo({... */\n      dup4\n      add\n        /* \"StakeFactory.sol\":14198:14217  depositeToken[user] */\n      dup3\n        /* \"StakeFactory.sol\":14070:14478  UserInfo({... */\n      dup3\n      dup1\n      iszero\n      tag_416\n      jumpi\n      0x20\n      mul\n      dup3\n      add\n      swap2\n      swap1\n      0x00\n      mstore\n      keccak256(0x00, 0x20)\n      swap1\n    tag_417:\n      dup2\n      sload\n      dup2\n      mstore\n      0x20\n      add\n      swap1\n      0x01\n      add\n      swap1\n      dup1\n      dup4\n      gt\n      tag_417\n      jumpi\n    tag_416:\n      pop\n      pop\n      pop\n      swap2\n      dup4\n      mstore\n      pop\n      pop\n      sub(shl(0xa0, 0x01), 0x01)\n        /* \"StakeFactory.sol\":14448:14466  depositeTime[user] */\n      dup5\n      and\n      0x00\n      swap1\n      dup2\n      mstore\n        /* \"StakeFactory.sol\":14448:14460  depositeTime */\n      0x0a\n        /* \"StakeFactory.sol\":14070:14478  UserInfo({... */\n      0x20\n        /* \"StakeFactory.sol\":14448:14466  depositeTime[user] */\n      swap1\n      dup2\n      mstore\n      0x40\n      swap2\n      dup3\n      swap1\n      keccak256\n        /* \"StakeFactory.sol\":14070:14478  UserInfo({... */\n      dup1\n      sload\n      dup4\n      mload\n      dup2\n      dup5\n      mul\n      dup2\n      add\n      dup5\n      add\n      swap1\n      swap5\n      mstore\n      dup1\n      dup5\n      mstore\n      swap4\n      dup3\n      add\n      swap4\n        /* \"StakeFactory.sol\":14448:14466  depositeTime[user] */\n      swap1\n      swap2\n        /* \"StakeFactory.sol\":14070:14478  UserInfo({... */\n      dup4\n      add\n        /* \"StakeFactory.sol\":14448:14466  depositeTime[user] */\n      dup3\n        /* \"StakeFactory.sol\":14070:14478  UserInfo({... */\n      dup3\n      dup1\n      iszero\n      tag_418\n      jumpi\n      0x20\n      mul\n      dup3\n      add\n      swap2\n      swap1\n      0x00\n      mstore\n      keccak256(0x00, 0x20)\n      swap1\n    tag_419:\n      dup2\n      sload\n      dup2\n      mstore\n      0x20\n      add\n      swap1\n      0x01\n      add\n      swap1\n      dup1\n      dup4\n      gt\n      tag_419\n      jumpi\n    tag_418:\n      pop\n      pop\n      pop\n      swap2\n      dup4\n      mstore\n      pop\n      pop\n      sub(shl(0xa0, 0x01), 0x01)\n        /* \"StakeFactory.sol\":14342:14364  withdrawedReward[user] */\n      dup5\n      and\n      0x00\n      swap1\n      dup2\n      mstore\n        /* \"StakeFactory.sol\":14342:14358  withdrawedReward */\n      0x0b\n        /* \"StakeFactory.sol\":14070:14478  UserInfo({... */\n      0x20\n        /* \"StakeFactory.sol\":14342:14364  withdrawedReward[user] */\n      swap1\n      dup2\n      mstore\n      0x40\n      swap2\n      dup3\n      swap1\n      keccak256\n      sload\n        /* \"StakeFactory.sol\":14070:14478  UserInfo({... */\n      swap1\n      dup4\n      add\n      mstore\n      add\n        /* \"StakeFactory.sol\":14399:14419  pendingRewards(user) */\n      tag_420\n        /* \"StakeFactory.sol\":14359:14363  user */\n      dup5\n        /* \"StakeFactory.sol\":14399:14413  pendingRewards */\n      tag_89\n        /* \"StakeFactory.sol\":14399:14419  pendingRewards(user) */\n      jump\t// in\n    tag_420:\n        /* \"StakeFactory.sol\":14070:14478  UserInfo({... */\n      swap1\n      mstore\n        /* \"StakeFactory.sol\":14063:14478  info = UserInfo({... */\n      swap3\n        /* \"StakeFactory.sol\":13978:14486  function getUser(address user) public view returns (UserInfo memory info) {... */\n      swap2\n      pop\n      pop\n      jump\t// out\n        /* \"StakeFactory.sol\":24101:24324  function emergencyWithdrawTokens(IERC20 _token, uint256 _amount) public onlyOwner {... */\n    tag_174:\n        /* \"StakeFactory.sol\":7912:7918  _owner */\n      and(sub(shl(0xa0, 0x01), 0x01), sload(0x00))\n        /* \"StakeFactory.sol\":7922:7932  msg.sender */\n      caller\n        /* \"StakeFactory.sol\":7912:7932  _owner == msg.sender */\n      eq\n        /* \"StakeFactory.sol\":7904:7969  require(_owner == msg.sender, \"Ownable: caller is not the owner\") */\n      tag_423\n      jumpi\n      mload(0x40)\n      shl(0xe5, 0x461bcd)\n      dup2\n      mstore\n      0x04\n      add\n      tag_268\n      swap1\n      tag_269\n      jump\t// in\n    tag_423:\n        /* \"StakeFactory.sol\":24202:24233  _token.balanceOf(address(this)) */\n      mload(0x40)\n      shl(0xe0, 0x70a08231)\n      dup2\n      mstore\n        /* \"StakeFactory.sol\":24227:24231  this */\n      address\n        /* \"StakeFactory.sol\":24202:24233  _token.balanceOf(address(this)) */\n      0x04\n      dup3\n      add\n        /* \"#utility.yul\":915:966   */\n      mstore\n        /* \"StakeFactory.sol\":24237:24244  _amount */\n      dup2\n      swap1\n      sub(shl(0xa0, 0x01), 0x01)\n        /* \"StakeFactory.sol\":24202:24218  _token.balanceOf */\n      dup5\n      and\n      swap1\n      0x70a08231\n      swap1\n        /* \"#utility.yul\":888:906   */\n      0x24\n      add\n        /* \"StakeFactory.sol\":24202:24233  _token.balanceOf(address(this)) */\n      0x20\n      mload(0x40)\n      dup1\n      dup4\n      sub\n      dup2\n      dup7\n      gas\n      staticcall\n      iszero\n      dup1\n      iszero\n      tag_428\n      jumpi\n      returndatasize\n      0x00\n      dup1\n      returndatacopy\n      revert(0x00, returndatasize)\n    tag_428:\n      pop\n      pop\n      pop\n      pop\n      mload(0x40)\n      returndatasize\n      not(0x1f)\n      0x1f\n      dup3\n      add\n      and\n      dup3\n      add\n      dup1\n      0x40\n      mstore\n      pop\n      dup2\n      add\n      swap1\n      tag_429\n      swap2\n      swap1\n      tag_404\n      jump\t// in\n    tag_429:\n        /* \"StakeFactory.sol\":24202:24244  _token.balanceOf(address(this)) >= _amount */\n      lt\n      iszero\n        /* \"StakeFactory.sol\":24194:24269  require(_token.balanceOf(address(this)) >= _amount, \"Insufficient balance\") */\n      tag_430\n      jumpi\n      mload(0x40)\n      shl(0xe5, 0x461bcd)\n      dup2\n      mstore\n        /* \"#utility.yul\":16537:16539   */\n      0x20\n        /* \"StakeFactory.sol\":24194:24269  require(_token.balanceOf(address(this)) >= _amount, \"Insufficient balance\") */\n      0x04\n      dup3\n      add\n        /* \"#utility.yul\":16519:16540   */\n      mstore\n        /* \"#utility.yul\":16576:16578   */\n      0x14\n        /* \"#utility.yul\":16556:16574   */\n      0x24\n      dup3\n      add\n        /* \"#utility.yul\":16549:16579   */\n      mstore\n      shl(0x60, 0x496e73756666696369656e742062616c616e6365)\n        /* \"#utility.yul\":16595:16613   */\n      0x44\n      dup3\n      add\n        /* \"#utility.yul\":16588:16638   */\n      mstore\n        /* \"#utility.yul\":16655:16673   */\n      0x64\n      add\n        /* \"StakeFactory.sol\":24194:24269  require(_token.balanceOf(address(this)) >= _amount, \"Insufficient balance\") */\n      tag_268\n        /* \"#utility.yul\":16335:16679   */\n      jump\n        /* \"StakeFactory.sol\":24194:24269  require(_token.balanceOf(address(this)) >= _amount, \"Insufficient balance\") */\n    tag_430:\n        /* \"StakeFactory.sol\":24280:24316  _token.transfer(msg.sender, _amount) */\n      mload(0x40)\n      shl(0xe0, 0xa9059cbb)\n      dup2\n      mstore\n        /* \"StakeFactory.sol\":24296:24306  msg.sender */\n      caller\n        /* \"StakeFactory.sol\":24280:24316  _token.transfer(msg.sender, _amount) */\n      0x04\n      dup3\n      add\n        /* \"#utility.yul\":16858:16909   */\n      mstore\n        /* \"#utility.yul\":16925:16943   */\n      0x24\n      dup2\n      add\n        /* \"#utility.yul\":16918:16952   */\n      dup3\n      swap1\n      mstore\n      sub(shl(0xa0, 0x01), 0x01)\n        /* \"StakeFactory.sol\":24280:24295  _token.transfer */\n      dup4\n      and\n      swap1\n      0xa9059cbb\n      swap1\n        /* \"#utility.yul\":16831:16849   */\n      0x44\n      add\n        /* \"StakeFactory.sol\":24280:24316  _token.transfer(msg.sender, _amount) */\n      0x20\n      mload(0x40)\n      dup1\n      dup4\n      sub\n      dup2\n      0x00\n      dup8\n      gas\n      call\n      iszero\n      dup1\n      iszero\n      tag_436\n      jumpi\n      returndatasize\n      0x00\n      dup1\n      returndatacopy\n      revert(0x00, returndatasize)\n    tag_436:\n      pop\n      pop\n      pop\n      pop\n      mload(0x40)\n      returndatasize\n      not(0x1f)\n      0x1f\n      dup3\n      add\n      and\n      dup3\n      add\n      dup1\n      0x40\n      mstore\n      pop\n      dup2\n      add\n      swap1\n      tag_437\n      swap2\n      swap1\n      tag_438\n      jump\t// in\n    tag_437:\n      pop\n        /* \"StakeFactory.sol\":24101:24324  function emergencyWithdrawTokens(IERC20 _token, uint256 _amount) public onlyOwner {... */\n      pop\n      pop\n      jump\t// out\n        /* \"StakeFactory.sol\":9435:9485  mapping(address => uint256[]) public depositeToken */\n    tag_179:\n      mstore(0x20, 0x07)\n      dup2\n      0x00\n      mstore\n      keccak256(0x00, 0x40)\n      dup2\n      dup2\n      sload\n      dup2\n      lt\n      tag_439\n      jumpi\n      0x00\n      dup1\n      revert\n    tag_439:\n      swap1\n      0x00\n      mstore\n      keccak256(0x00, 0x20)\n      add\n      0x00\n      swap2\n      pop\n      swap2\n      pop\n      pop\n      sload\n      dup2\n      jump\t// out\n        /* \"StakeFactory.sol\":9553:9602  mapping(address => uint256[]) public lockableDays */\n    tag_184:\n      mstore(0x20, 0x09)\n      dup2\n      0x00\n      mstore\n      keccak256(0x00, 0x40)\n      dup2\n      dup2\n      sload\n      dup2\n      lt\n      tag_439\n      jumpi\n      0x00\n      dup1\n      revert\n        /* \"StakeFactory.sol\":25047:26095  function convertTokenAToTokenB(... */\n    tag_190:\n        /* \"StakeFactory.sol\":25201:25224  uint256 outAmountTokenB */\n      0x00\n        /* \"StakeFactory.sol\":25258:25272  tokenBDecimals */\n      dup2\n        /* \"StakeFactory.sol\":25241:25272  tokenADecimals > tokenBDecimals */\n      0xff\n      and\n        /* \"StakeFactory.sol\":25241:25255  tokenADecimals */\n      dup4\n        /* \"StakeFactory.sol\":25241:25272  tokenADecimals > tokenBDecimals */\n      0xff\n      and\n      gt\n        /* \"StakeFactory.sol\":25237:26088  if (tokenADecimals > tokenBDecimals) {... */\n      iszero\n      tag_444\n      jumpi\n        /* \"StakeFactory.sol\":25408:25426  uint256 difference */\n      0x00\n        /* \"StakeFactory.sol\":25429:25460  tokenADecimals - tokenBDecimals */\n      tag_445\n        /* \"StakeFactory.sol\":25446:25460  tokenBDecimals */\n      dup4\n        /* \"StakeFactory.sol\":25429:25443  tokenADecimals */\n      dup6\n        /* \"StakeFactory.sol\":25429:25460  tokenADecimals - tokenBDecimals */\n      tag_446\n      jump\t// in\n    tag_445:\n        /* \"StakeFactory.sol\":25408:25460  uint256 difference = tokenADecimals - tokenBDecimals */\n      0xff\n      and\n      swap1\n      pop\n        /* \"StakeFactory.sol\":25511:25527  10 ** difference */\n      tag_447\n        /* \"StakeFactory.sol\":25408:25460  uint256 difference = tokenADecimals - tokenBDecimals */\n      dup2\n        /* \"StakeFactory.sol\":25511:25513  10 */\n      0x0a\n        /* \"StakeFactory.sol\":25511:25527  10 ** difference */\n      tag_448\n      jump\t// in\n    tag_447:\n        /* \"StakeFactory.sol\":25493:25528  inAmountTokenA / (10 ** difference) */\n      tag_449\n      swap1\n        /* \"StakeFactory.sol\":25493:25507  inAmountTokenA */\n      dup7\n        /* \"StakeFactory.sol\":25493:25528  inAmountTokenA / (10 ** difference) */\n      tag_302\n      jump\t// in\n    tag_449:\n        /* \"StakeFactory.sol\":25475:25528  outAmountTokenB = inAmountTokenA / (10 ** difference) */\n      swap2\n      pop\n        /* \"StakeFactory.sol\":25274:25540  {... */\n      pop\n        /* \"StakeFactory.sol\":25237:26088  if (tokenADecimals > tokenBDecimals) {... */\n      jump(tag_455)\n    tag_444:\n        /* \"StakeFactory.sol\":25567:25581  tokenBDecimals */\n      dup2\n        /* \"StakeFactory.sol\":25550:25581  tokenADecimals < tokenBDecimals */\n      0xff\n      and\n        /* \"StakeFactory.sol\":25550:25564  tokenADecimals */\n      dup4\n        /* \"StakeFactory.sol\":25550:25581  tokenADecimals < tokenBDecimals */\n      0xff\n      and\n      lt\n        /* \"StakeFactory.sol\":25546:26088  if (tokenADecimals < tokenBDecimals) {... */\n      iszero\n      tag_451\n      jumpi\n        /* \"StakeFactory.sol\":25723:25741  uint256 difference */\n      0x00\n        /* \"StakeFactory.sol\":25744:25775  tokenBDecimals - tokenADecimals */\n      tag_452\n        /* \"StakeFactory.sol\":25761:25775  tokenADecimals */\n      dup5\n        /* \"StakeFactory.sol\":25744:25758  tokenBDecimals */\n      dup5\n        /* \"StakeFactory.sol\":25744:25775  tokenBDecimals - tokenADecimals */\n      tag_446\n      jump\t// in\n    tag_452:\n        /* \"StakeFactory.sol\":25723:25775  uint256 difference = tokenBDecimals - tokenADecimals */\n      0xff\n      and\n      swap1\n      pop\n        /* \"StakeFactory.sol\":25826:25842  10 ** difference */\n      tag_453\n        /* \"StakeFactory.sol\":25723:25775  uint256 difference = tokenBDecimals - tokenADecimals */\n      dup2\n        /* \"StakeFactory.sol\":25826:25828  10 */\n      0x0a\n        /* \"StakeFactory.sol\":25826:25842  10 ** difference */\n      tag_448\n      jump\t// in\n    tag_453:\n        /* \"StakeFactory.sol\":25808:25843  inAmountTokenA * (10 ** difference) */\n      tag_449\n      swap1\n        /* \"StakeFactory.sol\":25808:25822  inAmountTokenA */\n      dup7\n        /* \"StakeFactory.sol\":25808:25843  inAmountTokenA * (10 ** difference) */\n      tag_287\n      jump\t// in\n        /* \"StakeFactory.sol\":25546:26088  if (tokenADecimals < tokenBDecimals) {... */\n    tag_451:\n      pop\n        /* \"StakeFactory.sol\":26062:26076  inAmountTokenA */\n      dup3\n        /* \"StakeFactory.sol\":25546:26088  if (tokenADecimals < tokenBDecimals) {... */\n    tag_455:\n        /* \"StakeFactory.sol\":25047:26095  function convertTokenAToTokenB(... */\n      swap4\n      swap3\n      pop\n      pop\n      pop\n      jump\t// out\n        /* \"StakeFactory.sol\":18294:19708  function setAllocation(... */\n    tag_196:\n        /* \"StakeFactory.sol\":7912:7918  _owner */\n      and(sub(shl(0xa0, 0x01), 0x01), sload(0x00))\n        /* \"StakeFactory.sol\":7922:7932  msg.sender */\n      caller\n        /* \"StakeFactory.sol\":7912:7932  _owner == msg.sender */\n      eq\n        /* \"StakeFactory.sol\":7904:7969  require(_owner == msg.sender, \"Ownable: caller is not the owner\") */\n      tag_457\n      jumpi\n      mload(0x40)\n      shl(0xe5, 0x461bcd)\n      dup2\n      mstore\n      0x04\n      add\n      tag_268\n      swap1\n      tag_269\n      jump\t// in\n    tag_457:\n        /* \"StakeFactory.sol\":18634:18639  10000 */\n      0x2710\n        /* \"StakeFactory.sol\":18609:18630  percentageBasisPoints */\n      dup7\n        /* \"StakeFactory.sol\":18609:18639  percentageBasisPoints <= 10000 */\n      gt\n      iszero\n        /* \"StakeFactory.sol\":18601:18662  require(percentageBasisPoints <= 10000, \"Invalid percentage\") */\n      tag_460\n      jumpi\n      mload(0x40)\n      shl(0xe5, 0x461bcd)\n      dup2\n      mstore\n        /* \"#utility.yul\":16190:16192   */\n      0x20\n        /* \"StakeFactory.sol\":18601:18662  require(percentageBasisPoints <= 10000, \"Invalid percentage\") */\n      0x04\n      dup3\n      add\n        /* \"#utility.yul\":16172:16193   */\n      mstore\n        /* \"#utility.yul\":16229:16231   */\n      0x12\n        /* \"#utility.yul\":16209:16227   */\n      0x24\n      dup3\n      add\n        /* \"#utility.yul\":16202:16232   */\n      mstore\n      shl(0x70, 0x496e76616c69642070657263656e74616765)\n        /* \"#utility.yul\":16248:16266   */\n      0x44\n      dup3\n      add\n        /* \"#utility.yul\":16241:16289   */\n      mstore\n        /* \"#utility.yul\":16306:16324   */\n      0x64\n      add\n        /* \"StakeFactory.sol\":18601:18662  require(percentageBasisPoints <= 10000, \"Invalid percentage\") */\n      tag_268\n        /* \"#utility.yul\":15988:16330   */\n      jump\n        /* \"StakeFactory.sol\":18601:18662  require(percentageBasisPoints <= 10000, \"Invalid percentage\") */\n    tag_460:\n        /* \"StakeFactory.sol\":18693:18701  _minRate */\n      dup4\n        /* \"StakeFactory.sol\":18681:18689  _maxRate */\n      dup6\n        /* \"StakeFactory.sol\":18681:18701  _maxRate >= _minRate */\n      lt\n      iszero\n        /* \"StakeFactory.sol\":18673:18756  require(_maxRate >= _minRate, \"Max rate must be greater than or equal to min rate\") */\n      tag_462\n      jumpi\n      mload(0x40)\n      shl(0xe5, 0x461bcd)\n      dup2\n      mstore\n        /* \"#utility.yul\":18989:18991   */\n      0x20\n        /* \"StakeFactory.sol\":18673:18756  require(_maxRate >= _minRate, \"Max rate must be greater than or equal to min rate\") */\n      0x04\n      dup3\n      add\n        /* \"#utility.yul\":18971:18992   */\n      mstore\n        /* \"#utility.yul\":19028:19030   */\n      0x32\n        /* \"#utility.yul\":19008:19026   */\n      0x24\n      dup3\n      add\n        /* \"#utility.yul\":19001:19031   */\n      mstore\n        /* \"#utility.yul\":19067:19101   */\n      0x4d61782072617465206d7573742062652067726561746572207468616e206f72\n        /* \"#utility.yul\":19047:19065   */\n      0x44\n      dup3\n      add\n        /* \"#utility.yul\":19040:19102   */\n      mstore\n      shl(0x70, 0x20657175616c20746f206d696e2072617465)\n        /* \"#utility.yul\":19118:19136   */\n      0x64\n      dup3\n      add\n        /* \"#utility.yul\":19111:19159   */\n      mstore\n        /* \"#utility.yul\":19176:19195   */\n      0x84\n      add\n        /* \"StakeFactory.sol\":18673:18756  require(_maxRate >= _minRate, \"Max rate must be greater than or equal to min rate\") */\n      tag_268\n        /* \"#utility.yul\":18787:19201   */\n      jump\n        /* \"StakeFactory.sol\":18673:18756  require(_maxRate >= _minRate, \"Max rate must be greater than or equal to min rate\") */\n    tag_462:\n        /* \"StakeFactory.sol\":18787:18788  0 */\n      0x00\n        /* \"StakeFactory.sol\":18775:18784  _stepSize */\n      dup3\n        /* \"StakeFactory.sol\":18775:18788  _stepSize > 0 */\n      gt\n        /* \"StakeFactory.sol\":18767:18825  require(_stepSize > 0, \"Step size must be greater than 0\") */\n      tag_465\n      jumpi\n      mload(0x40)\n      shl(0xe5, 0x461bcd)\n      dup2\n      mstore\n        /* \"#utility.yul\":19408:19410   */\n      0x20\n        /* \"StakeFactory.sol\":18767:18825  require(_stepSize > 0, \"Step size must be greater than 0\") */\n      0x04\n      dup3\n      add\n        /* \"#utility.yul\":19390:19411   */\n      dup2\n      swap1\n      mstore\n        /* \"#utility.yul\":19427:19445   */\n      0x24\n      dup3\n      add\n        /* \"#utility.yul\":19420:19450   */\n      mstore\n        /* \"#utility.yul\":19486:19520   */\n      0x537465702073697a65206d7573742062652067726561746572207468616e2030\n        /* \"#utility.yul\":19466:19484   */\n      0x44\n      dup3\n      add\n        /* \"#utility.yul\":19459:19521   */\n      mstore\n        /* \"#utility.yul\":19538:19556   */\n      0x64\n      add\n        /* \"StakeFactory.sol\":18767:18825  require(_stepSize > 0, \"Step size must be greater than 0\") */\n      tag_268\n        /* \"#utility.yul\":19206:19562   */\n      jump\n        /* \"StakeFactory.sol\":18767:18825  require(_stepSize > 0, \"Step size must be greater than 0\") */\n    tag_465:\n        /* \"StakeFactory.sol\":18838:18855  allocation[_days] */\n      0x00\n      dup9\n      dup2\n      mstore\n        /* \"StakeFactory.sol\":18838:18848  allocation */\n      0x04\n        /* \"StakeFactory.sol\":18838:18855  allocation[_days] */\n      0x20\n      mstore\n      0x40\n      swap1\n      keccak256\n        /* \"StakeFactory.sol\":18838:18879  allocation[_days] = percentageBasisPoints */\n      dup7\n      swap1\n      sstore\n        /* \"StakeFactory.sol\":18897:18923  isLockPeriodAllowed(_days) */\n      tag_468\n        /* \"StakeFactory.sol\":18849:18854  _days */\n      dup9\n        /* \"StakeFactory.sol\":18897:18916  isLockPeriodAllowed */\n      tag_311\n        /* \"StakeFactory.sol\":18897:18923  isLockPeriodAllowed(_days) */\n      jump\t// in\n    tag_468:\n        /* \"StakeFactory.sol\":18892:19054  if (!isLockPeriodAllowed(_days)) {... */\n      tag_469\n      jumpi\n        /* \"StakeFactory.sol\":18940:18958  allowedLockPeriods */\n      0x13\n        /* \"StakeFactory.sol\":18940:18970  allowedLockPeriods.push(_days) */\n      dup1\n      sload\n      0x01\n      dup2\n      add\n      dup3\n      sstore\n      0x00\n      swap2\n      swap1\n      swap2\n      mstore\n      0x66de8ffda797e3de9c05e8fc57b3bf0ec28a930d40b0d285d93c06501cf6a090\n      add\n      dup9\n      swap1\n      sstore\n        /* \"StakeFactory.sol\":18892:19054  if (!isLockPeriodAllowed(_days)) {... */\n    tag_469:\n        /* \"StakeFactory.sol\":19187:19700  LockPeriodParams({... */\n      0x40\n      dup1\n      mload\n      0x0120\n      dup2\n      add\n      dup3\n      mstore\n      dup10\n      dup2\n      mstore\n      0x20\n      dup1\n      dup3\n      add\n      swap10\n      dup11\n      mstore\n      dup2\n      dup4\n      add\n      swap9\n      dup10\n      mstore\n      0x60\n      dup3\n      add\n      swap8\n      dup9\n      mstore\n      0x80\n      dup3\n      add\n      swap7\n      dup8\n      mstore\n      0xa0\n      dup3\n      add\n      swap6\n      dup7\n      mstore\n      0xc0\n      dup3\n      add\n      swap5\n      dup6\n      mstore\n      swap3\n      iszero\n      iszero\n      0xe0\n      dup3\n      add\n      swap1\n      dup2\n      mstore\n      0x00\n        /* \"StakeFactory.sol\":19652:19675  lockPeriodParams[_days] */\n      dup12\n      dup2\n      mstore\n        /* \"StakeFactory.sol\":19652:19668  lockPeriodParams */\n      0x05\n        /* \"StakeFactory.sol\":19652:19675  lockPeriodParams[_days] */\n      dup1\n      dup7\n      mstore\n      swap4\n      dup2\n      keccak256\n        /* \"StakeFactory.sol\":19652:19688  lockPeriodParams[_days].stakedAmount */\n      0x08\n      dup2\n      add\n      dup1\n      sload\n        /* \"StakeFactory.sol\":19187:19700  LockPeriodParams({... */\n      0x0100\n      dup7\n      add\n      swap1\n      dup2\n      mstore\n        /* \"StakeFactory.sol\":19161:19184  lockPeriodParams[_days] */\n      swap14\n      swap1\n      swap3\n      mstore\n      swap5\n      dup5\n      swap1\n      mstore\n        /* \"StakeFactory.sol\":19161:19700  lockPeriodParams[_days] = LockPeriodParams({... */\n      swap2\n      mload\n      dup5\n      sstore\n      swap9\n      mload\n      0x01\n      dup5\n      add\n      sstore\n      swap7\n      mload\n      0x02\n      dup4\n      add\n      sstore\n      swap5\n      mload\n      0x03\n      dup3\n      add\n      sstore\n      swap3\n      mload\n      0x04\n      dup5\n      add\n      sstore\n      swap1\n      mload\n      swap3\n      dup3\n      add\n      swap3\n      swap1\n      swap3\n      sstore\n      swap1\n      mload\n      0x06\n      dup3\n      add\n      sstore\n      swap2\n      mload\n      0x07\n      swap1\n      swap3\n      add\n      dup1\n      sload\n      not(0xff)\n      and\n      swap3\n      iszero\n      iszero\n      swap3\n      swap1\n      swap3\n      or\n      swap1\n      swap2\n      sstore\n      swap1\n      mload\n      swap1\n      sstore\n        /* \"StakeFactory.sol\":18294:19708  function setAllocation(... */\n      jump\t// out\n        /* \"StakeFactory.sol\":9609:9658  mapping(address => uint256[]) public depositeTime */\n    tag_205:\n      mstore(0x20, 0x0a)\n      dup2\n      0x00\n      mstore\n      keccak256(0x00, 0x40)\n      dup2\n      dup2\n      sload\n      dup2\n      lt\n      tag_439\n      jumpi\n      0x00\n      dup1\n      revert\n        /* \"StakeFactory.sol\":21540:21924  function getStakeTokenInfo() public view returns (... */\n    tag_223:\n        /* \"StakeFactory.sol\":21757:21762  Token */\n      sload(0x02)\n        /* \"StakeFactory.sol\":21781:21793  Token.name() */\n      0x40\n      dup1\n      mload\n      shl(0xe0, 0x06fdde03)\n      dup2\n      mstore\n      swap1\n      mload\n      sub(shl(0xa0, 0x01), 0x01)\n        /* \"StakeFactory.sol\":21757:21762  Token */\n      swap1\n      swap3\n      and\n      swap2\n        /* \"StakeFactory.sol\":21623:21641  string memory name */\n      0x60\n      swap2\n      dup3\n      swap2\n        /* \"StakeFactory.sol\":21600:21612  address addr */\n      0x00\n      swap2\n      dup3\n      swap2\n        /* \"StakeFactory.sol\":21757:21762  Token */\n      dup7\n      swap2\n        /* \"StakeFactory.sol\":21781:21791  Token.name */\n      0x06fdde03\n      swap2\n        /* \"StakeFactory.sol\":21781:21793  Token.name() */\n      0x04\n      dup1\n      dup4\n      add\n      swap3\n        /* \"StakeFactory.sol\":21600:21612  address addr */\n      dup7\n      swap3\n        /* \"StakeFactory.sol\":21781:21793  Token.name() */\n      swap2\n      swap1\n      dup3\n      swap1\n      sub\n      add\n      dup2\n        /* \"StakeFactory.sol\":21757:21762  Token */\n      dup7\n        /* \"StakeFactory.sol\":21781:21793  Token.name() */\n      gas\n      staticcall\n      iszero\n      dup1\n      iszero\n      tag_475\n      jumpi\n      returndatasize\n      0x00\n      dup1\n      returndatacopy\n      revert(0x00, returndatasize)\n    tag_475:\n      pop\n      pop\n      pop\n      pop\n      mload(0x40)\n      returndatasize\n      0x00\n      dup3\n      returndatacopy\n      0x1f\n      returndatasize\n      swap1\n      dup2\n      add\n      not(0x1f)\n      and\n      dup3\n      add\n      0x40\n      mstore\n      tag_476\n      swap2\n      swap1\n      dup2\n      add\n      swap1\n      tag_392\n      jump\t// in\n    tag_476:\n        /* \"StakeFactory.sol\":21774:21793  name = Token.name() */\n      swap4\n      pop\n        /* \"StakeFactory.sol\":21813:21818  Token */\n      0x02\n      0x00\n      swap1\n      sload\n      swap1\n      0x0100\n      exp\n      swap1\n      div\n      sub(shl(0xa0, 0x01), 0x01)\n      and\n      sub(shl(0xa0, 0x01), 0x01)\n        /* \"StakeFactory.sol\":21813:21825  Token.symbol */\n      and\n      0x95d89b41\n        /* \"StakeFactory.sol\":21813:21827  Token.symbol() */\n      mload(0x40)\n      dup2\n      0xffffffff\n      and\n      0xe0\n      shl\n      dup2\n      mstore\n      0x04\n      add\n      0x00\n      mload(0x40)\n      dup1\n      dup4\n      sub\n      dup2\n      dup7\n      gas\n      staticcall\n      iszero\n      dup1\n      iszero\n      tag_478\n      jumpi\n      returndatasize\n      0x00\n      dup1\n      returndatacopy\n      revert(0x00, returndatasize)\n    tag_478:\n      pop\n      pop\n      pop\n      pop\n      mload(0x40)\n      returndatasize\n      0x00\n      dup3\n      returndatacopy\n      0x1f\n      returndatasize\n      swap1\n      dup2\n      add\n      not(0x1f)\n      and\n      dup3\n      add\n      0x40\n      mstore\n      tag_479\n      swap2\n      swap1\n      dup2\n      add\n      swap1\n      tag_392\n      jump\t// in\n    tag_479:\n        /* \"StakeFactory.sol\":21804:21827  symbol = Token.symbol() */\n      swap3\n      pop\n        /* \"StakeFactory.sol\":21849:21854  Token */\n      0x02\n      0x00\n      swap1\n      sload\n      swap1\n      0x0100\n      exp\n      swap1\n      div\n      sub(shl(0xa0, 0x01), 0x01)\n      and\n      sub(shl(0xa0, 0x01), 0x01)\n        /* \"StakeFactory.sol\":21849:21863  Token.decimals */\n      and\n      0x313ce567\n        /* \"StakeFactory.sol\":21849:21865  Token.decimals() */\n      mload(0x40)\n      dup2\n      0xffffffff\n      and\n      0xe0\n      shl\n      dup2\n      mstore\n      0x04\n      add\n      0x20\n      mload(0x40)\n      dup1\n      dup4\n      sub\n      dup2\n      dup7\n      gas\n      staticcall\n      iszero\n      dup1\n      iszero\n      tag_481\n      jumpi\n      returndatasize\n      0x00\n      dup1\n      returndatacopy\n      revert(0x00, returndatasize)\n    tag_481:\n      pop\n      pop\n      pop\n      pop\n      mload(0x40)\n      returndatasize\n      not(0x1f)\n      0x1f\n      dup3\n      add\n      and\n      dup3\n      add\n      dup1\n      0x40\n      mstore\n      pop\n      dup2\n      add\n      swap1\n      tag_482\n      swap2\n      swap1\n      tag_399\n      jump\t// in\n    tag_482:\n        /* \"StakeFactory.sol\":21886:21891  Token */\n      sload(0x02)\n        /* \"StakeFactory.sol\":21886:21916  Token.balanceOf(address(this)) */\n      mload(0x40)\n      shl(0xe0, 0x70a08231)\n      dup2\n      mstore\n        /* \"StakeFactory.sol\":21910:21914  this */\n      address\n        /* \"StakeFactory.sol\":21886:21916  Token.balanceOf(address(this)) */\n      0x04\n      dup3\n      add\n        /* \"#utility.yul\":915:966   */\n      mstore\n        /* \"StakeFactory.sol\":21838:21865  decimals = Token.decimals() */\n      swap2\n      swap4\n      pop\n      sub(shl(0xa0, 0x01), 0x01)\n        /* \"StakeFactory.sol\":21886:21891  Token */\n      and\n      swap1\n        /* \"StakeFactory.sol\":21886:21901  Token.balanceOf */\n      0x70a08231\n      swap1\n        /* \"#utility.yul\":888:906   */\n      0x24\n      add\n        /* \"StakeFactory.sol\":21886:21916  Token.balanceOf(address(this)) */\n      tag_400\n        /* \"#utility.yul\":769:972   */\n      jump\n        /* \"StakeFactory.sol\":15044:18179  function harwest(uint256[] memory _index) external whenNotPaused nonReentrant returns (... */\n    tag_229:\n        /* \"StakeFactory.sol\":15141:15169  uint256 _totalWithdrawAmount */\n      0x00\n        /* \"StakeFactory.sol\":15180:15200  uint256 _totalReward */\n      dup1\n        /* \"StakeFactory.sol\":15211:15232  uint256 _deductionFee */\n      0x00\n        /* \"StakeFactory.sol\":6327:6335  paused() */\n      tag_488\n        /* \"StakeFactory.sol\":6039:6043  bool */\n      0x00\n        /* \"StakeFactory.sol\":6064:6071  _paused */\n      sload\n      0xff\n      shl(0xa0, 0x01)\n      swap1\n      swap2\n      div\n      and\n      swap1\n        /* \"StakeFactory.sol\":5992:6080  function paused() public view virtual returns (bool) {\t... */\n      jump\n        /* \"StakeFactory.sol\":6327:6335  paused() */\n    tag_488:\n        /* \"StakeFactory.sol\":6326:6335  !paused() */\n      iszero\n        /* \"StakeFactory.sol\":6318:6356  require(!paused(), \"Pausable: paused\") */\n      tag_489\n      jumpi\n      mload(0x40)\n      shl(0xe5, 0x461bcd)\n      dup2\n      mstore\n        /* \"#utility.yul\":19769:19771   */\n      0x20\n        /* \"StakeFactory.sol\":6318:6356  require(!paused(), \"Pausable: paused\") */\n      0x04\n      dup3\n      add\n        /* \"#utility.yul\":19751:19772   */\n      mstore\n        /* \"#utility.yul\":19808:19810   */\n      0x10\n        /* \"#utility.yul\":19788:19806   */\n      0x24\n      dup3\n      add\n        /* \"#utility.yul\":19781:19811   */\n      mstore\n      shl(0x82, 0x14185d5cd8589b194e881c185d5cd959)\n        /* \"#utility.yul\":19827:19845   */\n      0x44\n      dup3\n      add\n        /* \"#utility.yul\":19820:19866   */\n      mstore\n        /* \"#utility.yul\":19883:19901   */\n      0x64\n      add\n        /* \"StakeFactory.sol\":6318:6356  require(!paused(), \"Pausable: paused\") */\n      tag_268\n        /* \"#utility.yul\":19567:19907   */\n      jump\n        /* \"StakeFactory.sol\":6318:6356  require(!paused(), \"Pausable: paused\") */\n    tag_489:\n        /* \"StakeFactory.sol\":2761:2782  _nonReentrantBefore() */\n      tag_493\n        /* \"StakeFactory.sol\":2761:2780  _nonReentrantBefore */\n      tag_494\n        /* \"StakeFactory.sol\":2761:2782  _nonReentrantBefore() */\n      jump\t// in\n    tag_493:\n        /* \"StakeFactory.sol\":15265:15275  msg.sender */\n      caller\n        /* \"StakeFactory.sol\":15258:15276  isSpam[msg.sender] */\n      0x00\n      swap1\n      dup2\n      mstore\n        /* \"StakeFactory.sol\":15258:15264  isSpam */\n      0x10\n        /* \"StakeFactory.sol\":15258:15276  isSpam[msg.sender] */\n      0x20\n      mstore\n      0x40\n      swap1\n      keccak256\n      sload\n      0xff\n      and\n        /* \"StakeFactory.sol\":15258:15285  isSpam[msg.sender] == false */\n      iszero\n        /* \"StakeFactory.sol\":15250:15306  require(isSpam[msg.sender] == false, \"Account is spam!\") */\n      tag_496\n      jumpi\n      mload(0x40)\n      shl(0xe5, 0x461bcd)\n      dup2\n      mstore\n        /* \"#utility.yul\":20114:20116   */\n      0x20\n        /* \"StakeFactory.sol\":15250:15306  require(isSpam[msg.sender] == false, \"Account is spam!\") */\n      0x04\n      dup3\n      add\n        /* \"#utility.yul\":20096:20117   */\n      mstore\n        /* \"#utility.yul\":20153:20155   */\n      0x10\n        /* \"#utility.yul\":20133:20151   */\n      0x24\n      dup3\n      add\n        /* \"#utility.yul\":20126:20156   */\n      mstore\n      shl(0x80, 0x4163636f756e74206973207370616d21)\n        /* \"#utility.yul\":20172:20190   */\n      0x44\n      dup3\n      add\n        /* \"#utility.yul\":20165:20211   */\n      mstore\n        /* \"#utility.yul\":20228:20246   */\n      0x64\n      add\n        /* \"StakeFactory.sol\":15250:15306  require(isSpam[msg.sender] == false, \"Account is spam!\") */\n      tag_268\n        /* \"#utility.yul\":19912:20252   */\n      jump\n        /* \"StakeFactory.sol\":15250:15306  require(isSpam[msg.sender] == false, \"Account is spam!\") */\n    tag_496:\n        /* \"StakeFactory.sol\":15464:15474  msg.sender */\n      caller\n        /* \"StakeFactory.sol\":15319:15346  uint256 totalWithdrawAmount */\n      0x00\n        /* \"StakeFactory.sol\":15444:15475  depositeTokensTotal[msg.sender] */\n      swap1\n      dup2\n      mstore\n        /* \"StakeFactory.sol\":15444:15463  depositeTokensTotal */\n      0x08\n        /* \"StakeFactory.sol\":15444:15475  depositeTokensTotal[msg.sender] */\n      0x20\n      mstore\n      0x40\n      dup2\n      keccak256\n      sload\n        /* \"StakeFactory.sol\":15319:15346  uint256 totalWithdrawAmount */\n      dup2\n      swap1\n      dup2\n      swap1\n        /* \"StakeFactory.sol\":15507:15522  block.timestamp */\n      timestamp\n        /* \"StakeFactory.sol\":15319:15346  uint256 totalWithdrawAmount */\n      dup3\n        /* \"StakeFactory.sol\":15535:16977  for (uint256 z = 0; z < _index.length; z++) {... */\n    tag_499:\n        /* \"StakeFactory.sol\":15559:15565  _index */\n      dup10\n        /* \"StakeFactory.sol\":15559:15572  _index.length */\n      mload\n        /* \"StakeFactory.sol\":15555:15556  z */\n      dup2\n        /* \"StakeFactory.sol\":15555:15572  z < _index.length */\n      lt\n        /* \"StakeFactory.sol\":15535:16977  for (uint256 z = 0; z < _index.length; z++) {... */\n      iszero\n      tag_500\n      jumpi\n        /* \"StakeFactory.sol\":15689:15699  msg.sender */\n      caller\n        /* \"StakeFactory.sol\":15714:15715  0 */\n      0x00\n        /* \"StakeFactory.sol\":15675:15700  depositeToken[msg.sender] */\n      swap1\n      dup2\n      mstore\n        /* \"StakeFactory.sol\":15675:15688  depositeToken */\n      0x07\n        /* \"StakeFactory.sol\":15675:15700  depositeToken[msg.sender] */\n      0x20\n      mstore\n      0x40\n      dup2\n      keccak256\n        /* \"StakeFactory.sol\":15701:15710  _index[z] */\n      dup12\n      mload\n        /* \"StakeFactory.sol\":15701:15707  _index */\n      dup13\n      swap1\n        /* \"StakeFactory.sol\":15708:15709  z */\n      dup5\n      swap1\n        /* \"StakeFactory.sol\":15701:15710  _index[z] */\n      dup2\n      lt\n      tag_503\n      jumpi\n      tag_503\n      tag_284\n      jump\t// in\n    tag_503:\n      0x20\n      mul\n      0x20\n      add\n      add\n      mload\n        /* \"StakeFactory.sol\":15675:15711  depositeToken[msg.sender][_index[z]] */\n      dup2\n      sload\n      dup2\n      lt\n      tag_505\n      jumpi\n      tag_505\n      tag_284\n      jump\t// in\n    tag_505:\n      swap1\n      0x00\n      mstore\n      keccak256(0x00, 0x20)\n      add\n      sload\n        /* \"StakeFactory.sol\":15675:15715  depositeToken[msg.sender][_index[z]] > 0 */\n      gt\n        /* \"StakeFactory.sol\":15671:16966  if (depositeToken[msg.sender][_index[z]] > 0) {... */\n      iszero\n      tag_507\n      jumpi\n        /* \"StakeFactory.sol\":15832:15836  time */\n      sload(0x12)\n        /* \"StakeFactory.sol\":15807:15817  msg.sender */\n      caller\n        /* \"StakeFactory.sol\":15736:15752  uint256 lockTime */\n      0x00\n        /* \"StakeFactory.sol\":15794:15818  lockableDays[msg.sender] */\n      swap1\n      dup2\n      mstore\n        /* \"StakeFactory.sol\":15794:15806  lockableDays */\n      0x09\n        /* \"StakeFactory.sol\":15794:15818  lockableDays[msg.sender] */\n      0x20\n      mstore\n      0x40\n      dup2\n      keccak256\n        /* \"StakeFactory.sol\":15819:15828  _index[z] */\n      dup13\n      mload\n        /* \"StakeFactory.sol\":15736:15752  uint256 lockTime */\n      swap2\n      swap3\n        /* \"StakeFactory.sol\":15832:15836  time */\n      swap2\n        /* \"StakeFactory.sol\":15819:15825  _index */\n      dup14\n      swap1\n        /* \"StakeFactory.sol\":15826:15827  z */\n      dup6\n      swap1\n        /* \"StakeFactory.sol\":15819:15828  _index[z] */\n      dup2\n      lt\n      tag_509\n      jumpi\n      tag_509\n      tag_284\n      jump\t// in\n    tag_509:\n      0x20\n      mul\n      0x20\n      add\n      add\n      mload\n        /* \"StakeFactory.sol\":15794:15829  lockableDays[msg.sender][_index[z]] */\n      dup2\n      sload\n      dup2\n      lt\n      tag_511\n      jumpi\n      tag_511\n      tag_284\n      jump\t// in\n    tag_511:\n      swap1\n      0x00\n      mstore\n      keccak256(0x00, 0x20)\n      add\n      sload\n        /* \"StakeFactory.sol\":15794:15836  lockableDays[msg.sender][_index[z]] * time */\n      tag_513\n      swap2\n      swap1\n      tag_287\n      jump\t// in\n    tag_513:\n        /* \"StakeFactory.sol\":15768:15778  msg.sender */\n      caller\n        /* \"StakeFactory.sol\":15755:15779  depositeTime[msg.sender] */\n      0x00\n      swap1\n      dup2\n      mstore\n        /* \"StakeFactory.sol\":15755:15767  depositeTime */\n      0x0a\n        /* \"StakeFactory.sol\":15755:15779  depositeTime[msg.sender] */\n      0x20\n      mstore\n      0x40\n      swap1\n      keccak256\n        /* \"StakeFactory.sol\":15780:15789  _index[z] */\n      dup13\n      mload\n        /* \"StakeFactory.sol\":15780:15786  _index */\n      dup14\n      swap1\n        /* \"StakeFactory.sol\":15787:15788  z */\n      dup6\n      swap1\n        /* \"StakeFactory.sol\":15780:15789  _index[z] */\n      dup2\n      lt\n      tag_515\n      jumpi\n      tag_515\n      tag_284\n      jump\t// in\n    tag_515:\n      0x20\n      mul\n      0x20\n      add\n      add\n      mload\n        /* \"StakeFactory.sol\":15755:15790  depositeTime[msg.sender][_index[z]] */\n      dup2\n      sload\n      dup2\n      lt\n      tag_517\n      jumpi\n      tag_517\n      tag_284\n      jump\t// in\n    tag_517:\n      swap1\n      0x00\n      mstore\n      keccak256(0x00, 0x20)\n      add\n      sload\n        /* \"StakeFactory.sol\":15755:15837  depositeTime[msg.sender][_index[z]] + (lockableDays[msg.sender][_index[z]] * time) */\n      tag_519\n      swap2\n      swap1\n      tag_292\n      jump\t// in\n    tag_519:\n        /* \"StakeFactory.sol\":15736:15837  uint256 lockTime = depositeTime[msg.sender][_index[z]] + (lockableDays[msg.sender][_index[z]] * time) */\n      swap1\n      pop\n        /* \"StakeFactory.sol\":15874:15882  lockTime */\n      dup1\n        /* \"StakeFactory.sol\":15862:15871  blockTime */\n      dup4\n        /* \"StakeFactory.sol\":15862:15882  blockTime > lockTime */\n      gt\n        /* \"StakeFactory.sol\":15858:16712  if (blockTime > lockTime) {... */\n      iszero\n      tag_520\n      jumpi\n        /* \"StakeFactory.sol\":15907:15921  uint256 reward */\n      0x00\n        /* \"StakeFactory.sol\":16015:16020  10000 */\n      0x2710\n        /* \"StakeFactory.sol\":15964:15974  allocation */\n      0x04\n        /* \"StakeFactory.sol\":15964:16011  allocation[lockableDays[msg.sender][_index[z]]] */\n      0x00\n        /* \"StakeFactory.sol\":15975:15987  lockableDays */\n      0x09\n        /* \"StakeFactory.sol\":15975:15999  lockableDays[msg.sender] */\n      0x00\n        /* \"StakeFactory.sol\":15988:15998  msg.sender */\n      caller\n      sub(shl(0xa0, 0x01), 0x01)\n        /* \"StakeFactory.sol\":15975:15999  lockableDays[msg.sender] */\n      and\n      sub(shl(0xa0, 0x01), 0x01)\n      and\n      dup2\n      mstore\n      0x20\n      add\n      swap1\n      dup2\n      mstore\n      0x20\n      add\n      0x00\n      keccak256\n        /* \"StakeFactory.sol\":16000:16006  _index */\n      dup16\n        /* \"StakeFactory.sol\":16007:16008  z */\n      dup8\n        /* \"StakeFactory.sol\":16000:16009  _index[z] */\n      dup2\n      mload\n      dup2\n      lt\n      tag_522\n      jumpi\n      tag_522\n      tag_284\n      jump\t// in\n    tag_522:\n      0x20\n      mul\n      0x20\n      add\n      add\n      mload\n        /* \"StakeFactory.sol\":15975:16010  lockableDays[msg.sender][_index[z]] */\n      dup2\n      sload\n      dup2\n      lt\n      tag_524\n      jumpi\n      tag_524\n      tag_284\n      jump\t// in\n    tag_524:\n      swap1\n      0x00\n      mstore\n      keccak256(0x00, 0x20)\n      add\n      sload\n        /* \"StakeFactory.sol\":15964:16011  allocation[lockableDays[msg.sender][_index[z]]] */\n      dup2\n      mstore\n      0x20\n      add\n      swap1\n      dup2\n      mstore\n      0x20\n      add\n      0x00\n      keccak256\n      sload\n        /* \"StakeFactory.sol\":15925:15938  depositeToken */\n      0x07\n        /* \"StakeFactory.sol\":15925:15950  depositeToken[msg.sender] */\n      0x00\n        /* \"StakeFactory.sol\":15939:15949  msg.sender */\n      caller\n      sub(shl(0xa0, 0x01), 0x01)\n        /* \"StakeFactory.sol\":15925:15950  depositeToken[msg.sender] */\n      and\n      sub(shl(0xa0, 0x01), 0x01)\n      and\n      dup2\n      mstore\n      0x20\n      add\n      swap1\n      dup2\n      mstore\n      0x20\n      add\n      0x00\n      keccak256\n        /* \"StakeFactory.sol\":15951:15957  _index */\n      dup15\n        /* \"StakeFactory.sol\":15958:15959  z */\n      dup7\n        /* \"StakeFactory.sol\":15951:15960  _index[z] */\n      dup2\n      mload\n      dup2\n      lt\n      tag_527\n      jumpi\n      tag_527\n      tag_284\n      jump\t// in\n    tag_527:\n      0x20\n      mul\n      0x20\n      add\n      add\n      mload\n        /* \"StakeFactory.sol\":15925:15961  depositeToken[msg.sender][_index[z]] */\n      dup2\n      sload\n      dup2\n      lt\n      tag_529\n      jumpi\n      tag_529\n      tag_284\n      jump\t// in\n    tag_529:\n      swap1\n      0x00\n      mstore\n      keccak256(0x00, 0x20)\n      add\n      sload\n        /* \"StakeFactory.sol\":15925:16011  depositeToken[msg.sender][_index[z]] * allocation[lockableDays[msg.sender][_index[z]]] */\n      tag_531\n      swap2\n      swap1\n      tag_287\n      jump\t// in\n    tag_531:\n        /* \"StakeFactory.sol\":15924:16020  (depositeToken[msg.sender][_index[z]] * allocation[lockableDays[msg.sender][_index[z]]]) / 10000 */\n      tag_532\n      swap2\n      swap1\n      tag_302\n      jump\t// in\n    tag_532:\n        /* \"StakeFactory.sol\":16082:16102  depositTokenDecimals */\n      sload(0x03)\n        /* \"StakeFactory.sol\":15907:16020  uint256 reward = (depositeToken[msg.sender][_index[z]] * allocation[lockableDays[msg.sender][_index[z]]]) / 10000 */\n      swap1\n      swap2\n      pop\n        /* \"StakeFactory.sol\":16052:16124  convertTokenAToTokenB(reward, depositTokenDecimals, rewardTokenDecimals) */\n      tag_533\n      swap1\n        /* \"StakeFactory.sol\":15907:16020  uint256 reward = (depositeToken[msg.sender][_index[z]] * allocation[lockableDays[msg.sender][_index[z]]]) / 10000 */\n      dup3\n      swap1\n        /* \"StakeFactory.sol\":16082:16102  depositTokenDecimals */\n      0xff\n      shl(0xa8, 0x01)\n      dup3\n      div\n      dup2\n      and\n      swap2\n      shl(0xb0, 0x01)\n        /* \"StakeFactory.sol\":16104:16123  rewardTokenDecimals */\n      swap1\n      div\n      and\n        /* \"StakeFactory.sol\":16052:16073  convertTokenAToTokenB */\n      tag_190\n        /* \"StakeFactory.sol\":16052:16124  convertTokenAToTokenB(reward, depositTokenDecimals, rewardTokenDecimals) */\n      jump\t// in\n    tag_533:\n        /* \"StakeFactory.sol\":16043:16124  reward = convertTokenAToTokenB(reward, depositTokenDecimals, rewardTokenDecimals) */\n      swap1\n      pop\n        /* \"StakeFactory.sol\":16171:16192  totalReward += reward */\n      tag_534\n        /* \"StakeFactory.sol\":16043:16124  reward = convertTokenAToTokenB(reward, depositTokenDecimals, rewardTokenDecimals) */\n      dup2\n        /* \"StakeFactory.sol\":16171:16192  totalReward += reward */\n      dup9\n      tag_292\n      jump\t// in\n    tag_534:\n        /* \"StakeFactory.sol\":16252:16262  msg.sender */\n      caller\n        /* \"StakeFactory.sol\":16238:16263  depositeToken[msg.sender] */\n      0x00\n      swap1\n      dup2\n      mstore\n        /* \"StakeFactory.sol\":16238:16251  depositeToken */\n      0x07\n        /* \"StakeFactory.sol\":16238:16263  depositeToken[msg.sender] */\n      0x20\n      mstore\n      0x40\n      swap1\n      keccak256\n        /* \"StakeFactory.sol\":16264:16273  _index[z] */\n      dup14\n      mload\n        /* \"StakeFactory.sol\":16171:16192  totalReward += reward */\n      swap2\n      swap9\n      pop\n        /* \"StakeFactory.sol\":16238:16263  depositeToken[msg.sender] */\n      swap1\n        /* \"StakeFactory.sol\":16264:16270  _index */\n      dup14\n      swap1\n        /* \"StakeFactory.sol\":16271:16272  z */\n      dup6\n      swap1\n        /* \"StakeFactory.sol\":16264:16273  _index[z] */\n      dup2\n      lt\n      tag_536\n      jumpi\n      tag_536\n      tag_284\n      jump\t// in\n    tag_536:\n      0x20\n      mul\n      0x20\n      add\n      add\n      mload\n        /* \"StakeFactory.sol\":16238:16274  depositeToken[msg.sender][_index[z]] */\n      dup2\n      sload\n      dup2\n      lt\n      tag_538\n      jumpi\n      tag_538\n      tag_284\n      jump\t// in\n    tag_538:\n      swap1\n      0x00\n      mstore\n      keccak256(0x00, 0x20)\n      add\n      sload\n        /* \"StakeFactory.sol\":16215:16274  totalWithdrawAmount += depositeToken[msg.sender][_index[z]] */\n      dup9\n      tag_540\n      swap2\n      swap1\n      tag_292\n      jump\t// in\n    tag_540:\n      swap8\n      pop\n        /* \"StakeFactory.sol\":15884:16294  {... */\n      pop\n        /* \"StakeFactory.sol\":15858:16712  if (blockTime > lockTime) {... */\n      jump(tag_541)\n    tag_520:\n        /* \"StakeFactory.sol\":16359:16378  deductionPercentage */\n      sload(0x11)\n        /* \"StakeFactory.sol\":16323:16332  uint256 a */\n      0x00\n      swap1\n        /* \"StakeFactory.sol\":16359:16382  deductionPercentage > 0 */\n      iszero\n        /* \"StakeFactory.sol\":16355:16507  if (deductionPercentage > 0) {... */\n      tag_542\n      jumpi\n        /* \"StakeFactory.sol\":16455:16474  deductionPercentage */\n      sload(0x11)\n        /* \"StakeFactory.sol\":16430:16440  msg.sender */\n      caller\n        /* \"StakeFactory.sol\":16416:16441  depositeToken[msg.sender] */\n      0x00\n      swap1\n      dup2\n      mstore\n        /* \"StakeFactory.sol\":16416:16429  depositeToken */\n      0x07\n        /* \"StakeFactory.sol\":16416:16441  depositeToken[msg.sender] */\n      0x20\n      mstore\n      0x40\n      swap1\n      keccak256\n        /* \"StakeFactory.sol\":16442:16451  _index[z] */\n      dup14\n      mload\n        /* \"StakeFactory.sol\":16478:16483  10000 */\n      0x2710\n      swap3\n        /* \"StakeFactory.sol\":16455:16474  deductionPercentage */\n      swap2\n        /* \"StakeFactory.sol\":16416:16441  depositeToken[msg.sender] */\n      swap1\n        /* \"StakeFactory.sol\":16442:16448  _index */\n      dup16\n      swap1\n        /* \"StakeFactory.sol\":16449:16450  z */\n      dup8\n      swap1\n        /* \"StakeFactory.sol\":16442:16451  _index[z] */\n      dup2\n      lt\n      tag_544\n      jumpi\n      tag_544\n      tag_284\n      jump\t// in\n    tag_544:\n      0x20\n      mul\n      0x20\n      add\n      add\n      mload\n        /* \"StakeFactory.sol\":16416:16452  depositeToken[msg.sender][_index[z]] */\n      dup2\n      sload\n      dup2\n      lt\n      tag_546\n      jumpi\n      tag_546\n      tag_284\n      jump\t// in\n    tag_546:\n      swap1\n      0x00\n      mstore\n      keccak256(0x00, 0x20)\n      add\n      sload\n        /* \"StakeFactory.sol\":16416:16474  depositeToken[msg.sender][_index[z]] * deductionPercentage */\n      tag_548\n      swap2\n      swap1\n      tag_287\n      jump\t// in\n    tag_548:\n        /* \"StakeFactory.sol\":16415:16483  (depositeToken[msg.sender][_index[z]] * deductionPercentage) / 10000 */\n      tag_549\n      swap2\n      swap1\n      tag_302\n      jump\t// in\n    tag_549:\n        /* \"StakeFactory.sol\":16411:16483  a = (depositeToken[msg.sender][_index[z]] * deductionPercentage) / 10000 */\n      swap1\n      pop\n        /* \"StakeFactory.sol\":16355:16507  if (deductionPercentage > 0) {... */\n    tag_542:\n        /* \"StakeFactory.sol\":16555:16565  msg.sender */\n      caller\n        /* \"StakeFactory.sol\":16529:16538  uint256 b */\n      0x00\n        /* \"StakeFactory.sol\":16541:16566  depositeToken[msg.sender] */\n      swap1\n      dup2\n      mstore\n        /* \"StakeFactory.sol\":16541:16554  depositeToken */\n      0x07\n        /* \"StakeFactory.sol\":16541:16566  depositeToken[msg.sender] */\n      0x20\n      mstore\n      0x40\n      dup2\n      keccak256\n        /* \"StakeFactory.sol\":16567:16576  _index[z] */\n      dup14\n      mload\n        /* \"StakeFactory.sol\":16580:16581  a */\n      dup4\n      swap2\n        /* \"StakeFactory.sol\":16541:16566  depositeToken[msg.sender] */\n      swap1\n        /* \"StakeFactory.sol\":16567:16573  _index */\n      dup16\n      swap1\n        /* \"StakeFactory.sol\":16574:16575  z */\n      dup8\n      swap1\n        /* \"StakeFactory.sol\":16567:16576  _index[z] */\n      dup2\n      lt\n      tag_551\n      jumpi\n      tag_551\n      tag_284\n      jump\t// in\n    tag_551:\n      0x20\n      mul\n      0x20\n      add\n      add\n      mload\n        /* \"StakeFactory.sol\":16541:16577  depositeToken[msg.sender][_index[z]] */\n      dup2\n      sload\n      dup2\n      lt\n      tag_553\n      jumpi\n      tag_553\n      tag_284\n      jump\t// in\n    tag_553:\n      swap1\n      0x00\n      mstore\n      keccak256(0x00, 0x20)\n      add\n      sload\n        /* \"StakeFactory.sol\":16541:16581  depositeToken[msg.sender][_index[z]] - a */\n      tag_555\n      swap2\n      swap1\n      tag_323\n      jump\t// in\n    tag_555:\n        /* \"StakeFactory.sol\":16529:16581  uint256 b = depositeToken[msg.sender][_index[z]] - a */\n      swap1\n      pop\n        /* \"StakeFactory.sol\":16606:16630  totalWithdrawAmount += b */\n      tag_556\n        /* \"StakeFactory.sol\":16529:16581  uint256 b = depositeToken[msg.sender][_index[z]] - a */\n      dup2\n        /* \"StakeFactory.sol\":16606:16630  totalWithdrawAmount += b */\n      dup11\n      tag_292\n      jump\t// in\n    tag_556:\n      swap9\n      pop\n        /* \"StakeFactory.sol\":16675:16692  deductionFee += a */\n      tag_557\n        /* \"StakeFactory.sol\":16691:16692  a */\n      dup3\n        /* \"StakeFactory.sol\":16675:16692  deductionFee += a */\n      dup9\n      tag_292\n      jump\t// in\n    tag_557:\n      swap7\n      pop\n        /* \"StakeFactory.sol\":16300:16712  {... */\n      pop\n      pop\n        /* \"StakeFactory.sol\":15858:16712  if (blockTime > lockTime) {... */\n    tag_541:\n        /* \"StakeFactory.sol\":16854:16864  msg.sender */\n      caller\n        /* \"StakeFactory.sol\":16840:16865  depositeToken[msg.sender] */\n      0x00\n      swap1\n      dup2\n      mstore\n        /* \"StakeFactory.sol\":16840:16853  depositeToken */\n      0x07\n        /* \"StakeFactory.sol\":16840:16865  depositeToken[msg.sender] */\n      0x20\n      mstore\n      0x40\n      swap1\n      keccak256\n        /* \"StakeFactory.sol\":16866:16875  _index[z] */\n      dup12\n      mload\n        /* \"StakeFactory.sol\":16866:16872  _index */\n      dup13\n      swap1\n        /* \"StakeFactory.sol\":16873:16874  z */\n      dup5\n      swap1\n        /* \"StakeFactory.sol\":16866:16875  _index[z] */\n      dup2\n      lt\n      tag_559\n      jumpi\n      tag_559\n      tag_284\n      jump\t// in\n    tag_559:\n      0x20\n      mul\n      0x20\n      add\n      add\n      mload\n        /* \"StakeFactory.sol\":16840:16876  depositeToken[msg.sender][_index[z]] */\n      dup2\n      sload\n      dup2\n      lt\n      tag_561\n      jumpi\n      tag_561\n      tag_284\n      jump\t// in\n    tag_561:\n      swap1\n      0x00\n      mstore\n      keccak256(0x00, 0x20)\n      add\n      sload\n        /* \"StakeFactory.sol\":16730:16746  lockPeriodParams */\n      0x05\n        /* \"StakeFactory.sol\":16730:16823  lockPeriodParams[... */\n      0x00\n        /* \"StakeFactory.sol\":16769:16781  lockableDays */\n      0x09\n        /* \"StakeFactory.sol\":16769:16793  lockableDays[msg.sender] */\n      0x00\n        /* \"StakeFactory.sol\":16782:16792  msg.sender */\n      caller\n      sub(shl(0xa0, 0x01), 0x01)\n        /* \"StakeFactory.sol\":16769:16793  lockableDays[msg.sender] */\n      and\n      sub(shl(0xa0, 0x01), 0x01)\n      and\n      dup2\n      mstore\n      0x20\n      add\n      swap1\n      dup2\n      mstore\n      0x20\n      add\n      0x00\n      keccak256\n        /* \"StakeFactory.sol\":16794:16800  _index */\n      dup15\n        /* \"StakeFactory.sol\":16801:16802  z */\n      dup7\n        /* \"StakeFactory.sol\":16794:16803  _index[z] */\n      dup2\n      mload\n      dup2\n      lt\n      tag_564\n      jumpi\n      tag_564\n      tag_284\n      jump\t// in\n    tag_564:\n      0x20\n      mul\n      0x20\n      add\n      add\n      mload\n        /* \"StakeFactory.sol\":16769:16804  lockableDays[msg.sender][_index[z]] */\n      dup2\n      sload\n      dup2\n      lt\n      tag_566\n      jumpi\n      tag_566\n      tag_284\n      jump\t// in\n    tag_566:\n      swap1\n      0x00\n      mstore\n      keccak256(0x00, 0x20)\n      add\n      sload\n        /* \"StakeFactory.sol\":16730:16823  lockPeriodParams[... */\n      dup2\n      mstore\n      0x20\n      add\n      swap1\n      dup2\n      mstore\n      0x20\n      add\n      0x00\n      keccak256\n        /* \"StakeFactory.sol\":16730:16836  lockPeriodParams[... */\n      0x08\n      add\n      0x00\n        /* \"StakeFactory.sol\":16730:16876  lockPeriodParams[... */\n      dup3\n      dup3\n      sload\n      tag_568\n      swap2\n      swap1\n      tag_323\n      jump\t// in\n    tag_568:\n      swap1\n      swap2\n      sstore\n      pop\n      pop\n        /* \"StakeFactory.sol\":16928:16938  msg.sender */\n      caller\n        /* \"StakeFactory.sol\":16914:16939  depositeToken[msg.sender] */\n      0x00\n      swap1\n      dup2\n      mstore\n        /* \"StakeFactory.sol\":16914:16927  depositeToken */\n      0x07\n        /* \"StakeFactory.sol\":16914:16939  depositeToken[msg.sender] */\n      0x20\n      mstore\n      0x40\n      swap1\n      keccak256\n        /* \"StakeFactory.sol\":16940:16949  _index[z] */\n      dup12\n      mload\n        /* \"StakeFactory.sol\":16940:16946  _index */\n      dup13\n      swap1\n        /* \"StakeFactory.sol\":16947:16948  z */\n      dup5\n      swap1\n        /* \"StakeFactory.sol\":16940:16949  _index[z] */\n      dup2\n      lt\n      tag_570\n      jumpi\n      tag_570\n      tag_284\n      jump\t// in\n    tag_570:\n      0x20\n      mul\n      0x20\n      add\n      add\n      mload\n        /* \"StakeFactory.sol\":16914:16950  depositeToken[msg.sender][_index[z]] */\n      dup2\n      sload\n      dup2\n      lt\n      tag_572\n      jumpi\n      tag_572\n      tag_284\n      jump\t// in\n    tag_572:\n      swap1\n      0x00\n      mstore\n      keccak256(0x00, 0x20)\n      add\n      sload\n        /* \"StakeFactory.sol\":16895:16950  depositedTokens -= depositeToken[msg.sender][_index[z]] */\n      dup5\n      tag_574\n      swap2\n      swap1\n      tag_323\n      jump\t// in\n    tag_574:\n      swap4\n      pop\n        /* \"StakeFactory.sol\":15717:16966  {... */\n      pop\n        /* \"StakeFactory.sol\":15671:16966  if (depositeToken[msg.sender][_index[z]] > 0) {... */\n    tag_507:\n        /* \"StakeFactory.sol\":15574:15577  z++ */\n      dup1\n      tag_575\n      dup2\n      tag_306\n      jump\t// in\n    tag_575:\n      swap2\n      pop\n      pop\n        /* \"StakeFactory.sol\":15535:16977  for (uint256 z = 0; z < _index.length; z++) {... */\n      jump(tag_499)\n    tag_500:\n      pop\n        /* \"StakeFactory.sol\":17072:17081  uint256 t */\n      0x00\n        /* \"StakeFactory.sol\":17067:17606  for (uint256 t = 0; t < _index.length; t++) {... */\n    tag_576:\n        /* \"StakeFactory.sol\":17091:17097  _index */\n      dup10\n        /* \"StakeFactory.sol\":17091:17104  _index.length */\n      mload\n        /* \"StakeFactory.sol\":17087:17088  t */\n      dup2\n        /* \"StakeFactory.sol\":17087:17104  t < _index.length */\n      lt\n        /* \"StakeFactory.sol\":17067:17606  for (uint256 t = 0; t < _index.length; t++) {... */\n      iszero\n      tag_577\n      jumpi\n        /* \"StakeFactory.sol\":17131:17140  uint256 i */\n      0x00\n        /* \"StakeFactory.sol\":17143:17149  _index */\n      dup11\n        /* \"StakeFactory.sol\":17150:17151  t */\n      dup3\n        /* \"StakeFactory.sol\":17143:17152  _index[t] */\n      dup2\n      mload\n      dup2\n      lt\n      tag_583\n      jumpi\n      tag_583\n      tag_284\n      jump\t// in\n    tag_583:\n      0x20\n      mul\n      0x20\n      add\n      add\n      mload\n        /* \"StakeFactory.sol\":17131:17152  uint256 i = _index[t] */\n      swap1\n      pop\n        /* \"StakeFactory.sol\":17126:17459  for (uint256 i = _index[t]; i < depositeToken[msg.sender].length - 1; i++) {... */\n    tag_579:\n        /* \"StakeFactory.sol\":17172:17182  msg.sender */\n      caller\n        /* \"StakeFactory.sol\":17158:17183  depositeToken[msg.sender] */\n      0x00\n      swap1\n      dup2\n      mstore\n        /* \"StakeFactory.sol\":17158:17171  depositeToken */\n      0x07\n        /* \"StakeFactory.sol\":17158:17183  depositeToken[msg.sender] */\n      0x20\n      mstore\n      0x40\n      swap1\n      keccak256\n        /* \"StakeFactory.sol\":17158:17190  depositeToken[msg.sender].length */\n      sload\n        /* \"StakeFactory.sol\":17158:17194  depositeToken[msg.sender].length - 1 */\n      tag_584\n      swap1\n        /* \"StakeFactory.sol\":17193:17194  1 */\n      0x01\n      swap1\n        /* \"StakeFactory.sol\":17158:17194  depositeToken[msg.sender].length - 1 */\n      tag_323\n      jump\t// in\n    tag_584:\n        /* \"StakeFactory.sol\":17154:17155  i */\n      dup2\n        /* \"StakeFactory.sol\":17154:17194  i < depositeToken[msg.sender].length - 1 */\n      lt\n        /* \"StakeFactory.sol\":17126:17459  for (uint256 i = _index[t]; i < depositeToken[msg.sender].length - 1; i++) {... */\n      iszero\n      tag_580\n      jumpi\n        /* \"StakeFactory.sol\":17265:17275  msg.sender */\n      caller\n        /* \"StakeFactory.sol\":17251:17276  depositeToken[msg.sender] */\n      0x00\n      swap1\n      dup2\n      mstore\n        /* \"StakeFactory.sol\":17251:17264  depositeToken */\n      0x07\n        /* \"StakeFactory.sol\":17251:17276  depositeToken[msg.sender] */\n      0x20\n      mstore\n      0x40\n      swap1\n      keccak256\n        /* \"StakeFactory.sol\":17277:17282  i + 1 */\n      tag_585\n        /* \"StakeFactory.sol\":17277:17278  i */\n      dup3\n        /* \"StakeFactory.sol\":17281:17282  1 */\n      0x01\n        /* \"StakeFactory.sol\":17277:17282  i + 1 */\n      tag_292\n      jump\t// in\n    tag_585:\n        /* \"StakeFactory.sol\":17251:17283  depositeToken[msg.sender][i + 1] */\n      dup2\n      sload\n      dup2\n      lt\n      tag_587\n      jumpi\n      tag_587\n      tag_284\n      jump\t// in\n    tag_587:\n      0x00\n      swap2\n      dup3\n      mstore\n      0x20\n      dup1\n      dup4\n      keccak256\n      swap1\n      swap2\n      add\n      sload\n        /* \"StakeFactory.sol\":17234:17244  msg.sender */\n      caller\n        /* \"StakeFactory.sol\":17220:17245  depositeToken[msg.sender] */\n      dup4\n      mstore\n        /* \"StakeFactory.sol\":17220:17233  depositeToken */\n      0x07\n        /* \"StakeFactory.sol\":17220:17245  depositeToken[msg.sender] */\n      swap1\n      swap2\n      mstore\n      0x40\n      swap1\n      swap2\n      keccak256\n        /* \"StakeFactory.sol\":17220:17248  depositeToken[msg.sender][i] */\n      dup1\n      sload\n        /* \"StakeFactory.sol\":17246:17247  i */\n      dup4\n      swap1\n        /* \"StakeFactory.sol\":17220:17248  depositeToken[msg.sender][i] */\n      dup2\n      lt\n      tag_590\n      jumpi\n      tag_590\n      tag_284\n      jump\t// in\n    tag_590:\n      0x00\n      swap2\n      dup3\n      mstore\n      0x20\n      dup1\n      dup4\n      keccak256\n      swap1\n      swap2\n      add\n        /* \"StakeFactory.sol\":17220:17283  depositeToken[msg.sender][i] = depositeToken[msg.sender][i + 1] */\n      swap3\n      swap1\n      swap3\n      sstore\n        /* \"StakeFactory.sol\":17345:17355  msg.sender */\n      caller\n        /* \"StakeFactory.sol\":17332:17356  lockableDays[msg.sender] */\n      dup2\n      mstore\n        /* \"StakeFactory.sol\":17332:17344  lockableDays */\n      0x09\n        /* \"StakeFactory.sol\":17332:17356  lockableDays[msg.sender] */\n      swap1\n      swap2\n      mstore\n      0x40\n      swap1\n      keccak256\n        /* \"StakeFactory.sol\":17357:17362  i + 1 */\n      tag_592\n        /* \"StakeFactory.sol\":17357:17358  i */\n      dup3\n        /* \"StakeFactory.sol\":17361:17362  1 */\n      0x01\n        /* \"StakeFactory.sol\":17357:17362  i + 1 */\n      tag_292\n      jump\t// in\n    tag_592:\n        /* \"StakeFactory.sol\":17332:17363  lockableDays[msg.sender][i + 1] */\n      dup2\n      sload\n      dup2\n      lt\n      tag_594\n      jumpi\n      tag_594\n      tag_284\n      jump\t// in\n    tag_594:\n      0x00\n      swap2\n      dup3\n      mstore\n      0x20\n      dup1\n      dup4\n      keccak256\n      swap1\n      swap2\n      add\n      sload\n        /* \"StakeFactory.sol\":17315:17325  msg.sender */\n      caller\n        /* \"StakeFactory.sol\":17302:17326  lockableDays[msg.sender] */\n      dup4\n      mstore\n        /* \"StakeFactory.sol\":17302:17314  lockableDays */\n      0x09\n        /* \"StakeFactory.sol\":17302:17326  lockableDays[msg.sender] */\n      swap1\n      swap2\n      mstore\n      0x40\n      swap1\n      swap2\n      keccak256\n        /* \"StakeFactory.sol\":17302:17329  lockableDays[msg.sender][i] */\n      dup1\n      sload\n        /* \"StakeFactory.sol\":17327:17328  i */\n      dup4\n      swap1\n        /* \"StakeFactory.sol\":17302:17329  lockableDays[msg.sender][i] */\n      dup2\n      lt\n      tag_597\n      jumpi\n      tag_597\n      tag_284\n      jump\t// in\n    tag_597:\n      0x00\n      swap2\n      dup3\n      mstore\n      0x20\n      dup1\n      dup4\n      keccak256\n      swap1\n      swap2\n      add\n        /* \"StakeFactory.sol\":17302:17363  lockableDays[msg.sender][i] = lockableDays[msg.sender][i + 1] */\n      swap3\n      swap1\n      swap3\n      sstore\n        /* \"StakeFactory.sol\":17425:17435  msg.sender */\n      caller\n        /* \"StakeFactory.sol\":17412:17436  depositeTime[msg.sender] */\n      dup2\n      mstore\n        /* \"StakeFactory.sol\":17412:17424  depositeTime */\n      0x0a\n        /* \"StakeFactory.sol\":17412:17436  depositeTime[msg.sender] */\n      swap1\n      swap2\n      mstore\n      0x40\n      swap1\n      keccak256\n        /* \"StakeFactory.sol\":17437:17442  i + 1 */\n      tag_599\n        /* \"StakeFactory.sol\":17437:17438  i */\n      dup3\n        /* \"StakeFactory.sol\":17441:17442  1 */\n      0x01\n        /* \"StakeFactory.sol\":17437:17442  i + 1 */\n      tag_292\n      jump\t// in\n    tag_599:\n        /* \"StakeFactory.sol\":17412:17443  depositeTime[msg.sender][i + 1] */\n      dup2\n      sload\n      dup2\n      lt\n      tag_601\n      jumpi\n      tag_601\n      tag_284\n      jump\t// in\n    tag_601:\n      0x00\n      swap2\n      dup3\n      mstore\n      0x20\n      dup1\n      dup4\n      keccak256\n      swap1\n      swap2\n      add\n      sload\n        /* \"StakeFactory.sol\":17395:17405  msg.sender */\n      caller\n        /* \"StakeFactory.sol\":17382:17406  depositeTime[msg.sender] */\n      dup4\n      mstore\n        /* \"StakeFactory.sol\":17382:17394  depositeTime */\n      0x0a\n        /* \"StakeFactory.sol\":17382:17406  depositeTime[msg.sender] */\n      swap1\n      swap2\n      mstore\n      0x40\n      swap1\n      swap2\n      keccak256\n        /* \"StakeFactory.sol\":17382:17409  depositeTime[msg.sender][i] */\n      dup1\n      sload\n        /* \"StakeFactory.sol\":17407:17408  i */\n      dup4\n      swap1\n        /* \"StakeFactory.sol\":17382:17409  depositeTime[msg.sender][i] */\n      dup2\n      lt\n      tag_604\n      jumpi\n      tag_604\n      tag_284\n      jump\t// in\n    tag_604:\n      0x00\n      swap2\n      dup3\n      mstore\n      0x20\n      swap1\n      swap2\n      keccak256\n      add\n        /* \"StakeFactory.sol\":17382:17443  depositeTime[msg.sender][i] = depositeTime[msg.sender][i + 1] */\n      sstore\n        /* \"StakeFactory.sol\":17196:17199  i++ */\n      dup1\n      tag_606\n      dup2\n      tag_306\n      jump\t// in\n    tag_606:\n      swap2\n      pop\n      pop\n        /* \"StakeFactory.sol\":17126:17459  for (uint256 i = _index[t]; i < depositeToken[msg.sender].length - 1; i++) {... */\n      jump(tag_579)\n    tag_580:\n      pop\n        /* \"StakeFactory.sol\":17487:17497  msg.sender */\n      caller\n        /* \"StakeFactory.sol\":17473:17498  depositeToken[msg.sender] */\n      0x00\n      swap1\n      dup2\n      mstore\n        /* \"StakeFactory.sol\":17473:17486  depositeToken */\n      0x07\n        /* \"StakeFactory.sol\":17473:17498  depositeToken[msg.sender] */\n      0x20\n      mstore\n      0x40\n      swap1\n      keccak256\n        /* \"StakeFactory.sol\":17473:17504  depositeToken[msg.sender].pop() */\n      dup1\n      sload\n      dup1\n      tag_608\n      jumpi\n      tag_608\n      tag_372\n      jump\t// in\n    tag_608:\n      0x00\n      dup3\n      dup2\n      mstore\n      0x20\n      dup1\n      dup3\n      keccak256\n      dup4\n      add\n      not(0x00)\n      swap1\n      dup2\n      add\n      dup4\n      swap1\n      sstore\n      swap1\n      swap3\n      add\n      swap1\n      swap3\n      sstore\n        /* \"StakeFactory.sol\":17532:17542  msg.sender */\n      caller\n        /* \"StakeFactory.sol\":17519:17543  lockableDays[msg.sender] */\n      dup3\n      mstore\n        /* \"StakeFactory.sol\":17519:17531  lockableDays */\n      0x09\n        /* \"StakeFactory.sol\":17519:17543  lockableDays[msg.sender] */\n      swap1\n      mstore\n      0x40\n      swap1\n      keccak256\n        /* \"StakeFactory.sol\":17519:17549  lockableDays[msg.sender].pop() */\n      dup1\n      sload\n      dup1\n      tag_611\n      jumpi\n      tag_611\n      tag_372\n      jump\t// in\n    tag_611:\n      0x00\n      dup3\n      dup2\n      mstore\n      0x20\n      dup1\n      dup3\n      keccak256\n      dup4\n      add\n      not(0x00)\n      swap1\n      dup2\n      add\n      dup4\n      swap1\n      sstore\n      swap1\n      swap3\n      add\n      swap1\n      swap3\n      sstore\n        /* \"StakeFactory.sol\":17577:17587  msg.sender */\n      caller\n        /* \"StakeFactory.sol\":17564:17588  depositeTime[msg.sender] */\n      dup3\n      mstore\n        /* \"StakeFactory.sol\":17564:17576  depositeTime */\n      0x0a\n        /* \"StakeFactory.sol\":17564:17588  depositeTime[msg.sender] */\n      swap1\n      mstore\n      0x40\n      swap1\n      keccak256\n        /* \"StakeFactory.sol\":17564:17594  depositeTime[msg.sender].pop() */\n      dup1\n      sload\n      dup1\n      tag_614\n      jumpi\n      tag_614\n      tag_372\n      jump\t// in\n    tag_614:\n      0x01\n      swap1\n      sub\n      dup2\n      dup2\n      swap1\n      0x00\n      mstore\n      keccak256(0x00, 0x20)\n      add\n      0x00\n      swap1\n      sstore\n      swap1\n      sstore\n        /* \"StakeFactory.sol\":17106:17109  t++ */\n      dup1\n      dup1\n      tag_616\n      swap1\n      tag_306\n      jump\t// in\n    tag_616:\n      swap2\n      pop\n      pop\n        /* \"StakeFactory.sol\":17067:17606  for (uint256 t = 0; t < _index.length; t++) {... */\n      jump(tag_576)\n    tag_577:\n      pop\n        /* \"StakeFactory.sol\":17632:17655  totalWithdrawAmount > 0 */\n      dup5\n      iszero\n        /* \"StakeFactory.sol\":17628:17731  if (totalWithdrawAmount > 0) {... */\n      tag_617\n      jumpi\n        /* \"StakeFactory.sol\":17672:17677  Token */\n      sload(0x02)\n        /* \"StakeFactory.sol\":17672:17719  Token.transfer(msg.sender, totalWithdrawAmount) */\n      mload(0x40)\n      shl(0xe0, 0xa9059cbb)\n      dup2\n      mstore\n        /* \"StakeFactory.sol\":17687:17697  msg.sender */\n      caller\n        /* \"StakeFactory.sol\":17672:17719  Token.transfer(msg.sender, totalWithdrawAmount) */\n      0x04\n      dup3\n      add\n        /* \"#utility.yul\":16858:16909   */\n      mstore\n        /* \"#utility.yul\":16925:16943   */\n      0x24\n      dup2\n      add\n        /* \"#utility.yul\":16918:16952   */\n      dup8\n      swap1\n      mstore\n      sub(shl(0xa0, 0x01), 0x01)\n        /* \"StakeFactory.sol\":17672:17677  Token */\n      swap1\n      swap2\n      and\n      swap1\n        /* \"StakeFactory.sol\":17672:17686  Token.transfer */\n      0xa9059cbb\n      swap1\n        /* \"#utility.yul\":16831:16849   */\n      0x44\n      add\n        /* \"StakeFactory.sol\":17672:17719  Token.transfer(msg.sender, totalWithdrawAmount) */\n      0x20\n      mload(0x40)\n      dup1\n      dup4\n      sub\n      dup2\n      0x00\n      dup8\n      gas\n      call\n      iszero\n      dup1\n      iszero\n      tag_620\n      jumpi\n      returndatasize\n      0x00\n      dup1\n      returndatacopy\n      revert(0x00, returndatasize)\n    tag_620:\n      pop\n      pop\n      pop\n      pop\n      mload(0x40)\n      returndatasize\n      not(0x1f)\n      0x1f\n      dup3\n      add\n      and\n      dup3\n      add\n      dup1\n      0x40\n      mstore\n      pop\n      dup2\n      add\n      swap1\n      tag_621\n      swap2\n      swap1\n      tag_438\n      jump\t// in\n    tag_621:\n      pop\n        /* \"StakeFactory.sol\":17628:17731  if (totalWithdrawAmount > 0) {... */\n    tag_617:\n        /* \"StakeFactory.sol\":17747:17762  totalReward > 0 */\n      dup4\n      iszero\n        /* \"StakeFactory.sol\":17743:17836  if (totalReward > 0) {... */\n      tag_622\n      jumpi\n        /* \"StakeFactory.sol\":17779:17790  rewardToken */\n      sload(0x03)\n        /* \"StakeFactory.sol\":17779:17824  rewardToken.transfer(msg.sender, totalReward) */\n      mload(0x40)\n      shl(0xe0, 0xa9059cbb)\n      dup2\n      mstore\n        /* \"StakeFactory.sol\":17800:17810  msg.sender */\n      caller\n        /* \"StakeFactory.sol\":17779:17824  rewardToken.transfer(msg.sender, totalReward) */\n      0x04\n      dup3\n      add\n        /* \"#utility.yul\":16858:16909   */\n      mstore\n        /* \"#utility.yul\":16925:16943   */\n      0x24\n      dup2\n      add\n        /* \"#utility.yul\":16918:16952   */\n      dup7\n      swap1\n      mstore\n      sub(shl(0xa0, 0x01), 0x01)\n        /* \"StakeFactory.sol\":17779:17790  rewardToken */\n      swap1\n      swap2\n      and\n      swap1\n        /* \"StakeFactory.sol\":17779:17799  rewardToken.transfer */\n      0xa9059cbb\n      swap1\n        /* \"#utility.yul\":16831:16849   */\n      0x44\n      add\n        /* \"StakeFactory.sol\":17779:17824  rewardToken.transfer(msg.sender, totalReward) */\n      0x20\n      mload(0x40)\n      dup1\n      dup4\n      sub\n      dup2\n      0x00\n      dup8\n      gas\n      call\n      iszero\n      dup1\n      iszero\n      tag_625\n      jumpi\n      returndatasize\n      0x00\n      dup1\n      returndatacopy\n      revert(0x00, returndatasize)\n    tag_625:\n      pop\n      pop\n      pop\n      pop\n      mload(0x40)\n      returndatasize\n      not(0x1f)\n      0x1f\n      dup3\n      add\n      and\n      dup3\n      add\n      dup1\n      0x40\n      mstore\n      pop\n      dup2\n      add\n      swap1\n      tag_626\n      swap2\n      swap1\n      tag_438\n      jump\t// in\n    tag_626:\n      pop\n        /* \"StakeFactory.sol\":17743:17836  if (totalReward > 0) {... */\n    tag_622:\n        /* \"StakeFactory.sol\":17852:17868  deductionFee > 0 */\n      dup3\n      iszero\n        /* \"StakeFactory.sol\":17848:17938  if (deductionFee > 0) {... */\n      tag_627\n      jumpi\n        /* \"StakeFactory.sol\":17885:17890  Token */\n      sload(0x02)\n        /* \"StakeFactory.sol\":17900:17911  taxreceiver */\n      sload(0x06)\n        /* \"StakeFactory.sol\":17885:17926  Token.transfer(taxreceiver, deductionFee) */\n      mload(0x40)\n      shl(0xe0, 0xa9059cbb)\n      dup2\n      mstore\n      sub(shl(0xa0, 0x01), 0x01)\n        /* \"StakeFactory.sol\":17900:17911  taxreceiver */\n      swap2\n      dup3\n      and\n        /* \"StakeFactory.sol\":17885:17926  Token.transfer(taxreceiver, deductionFee) */\n      0x04\n      dup3\n      add\n        /* \"#utility.yul\":16858:16909   */\n      mstore\n        /* \"#utility.yul\":16925:16943   */\n      0x24\n      dup2\n      add\n        /* \"#utility.yul\":16918:16952   */\n      dup7\n      swap1\n      mstore\n        /* \"StakeFactory.sol\":17885:17890  Token */\n      swap2\n      and\n      swap1\n        /* \"StakeFactory.sol\":17885:17899  Token.transfer */\n      0xa9059cbb\n      swap1\n        /* \"#utility.yul\":16831:16849   */\n      0x44\n      add\n        /* \"StakeFactory.sol\":17885:17926  Token.transfer(taxreceiver, deductionFee) */\n      0x20\n      mload(0x40)\n      dup1\n      dup4\n      sub\n      dup2\n      0x00\n      dup8\n      gas\n      call\n      iszero\n      dup1\n      iszero\n      tag_630\n      jumpi\n      returndatasize\n      0x00\n      dup1\n      returndatacopy\n      revert(0x00, returndatasize)\n    tag_630:\n      pop\n      pop\n      pop\n      pop\n      mload(0x40)\n      returndatasize\n      not(0x1f)\n      0x1f\n      dup3\n      add\n      and\n      dup3\n      add\n      dup1\n      0x40\n      mstore\n      pop\n      dup2\n      add\n      swap1\n      tag_631\n      swap2\n      swap1\n      tag_438\n      jump\t// in\n    tag_631:\n      pop\n        /* \"StakeFactory.sol\":17848:17938  if (deductionFee > 0) {... */\n    tag_627:\n        /* \"StakeFactory.sol\":17968:17978  msg.sender */\n      caller\n        /* \"StakeFactory.sol\":17948:17979  depositeTokensTotal[msg.sender] */\n      0x00\n      swap1\n      dup2\n      mstore\n        /* \"StakeFactory.sol\":17948:17967  depositeTokensTotal */\n      0x08\n        /* \"StakeFactory.sol\":17948:17979  depositeTokensTotal[msg.sender] */\n      0x20\n      swap1\n      dup2\n      mstore\n      0x40\n      dup1\n      dup4\n      keccak256\n        /* \"StakeFactory.sol\":17948:17997  depositeTokensTotal[msg.sender] = depositedTokens */\n      dup6\n      swap1\n      sstore\n        /* \"StakeFactory.sol\":18008:18024  withdrawedReward */\n      0x0b\n        /* \"StakeFactory.sol\":18008:18036  withdrawedReward[msg.sender] */\n      swap1\n      swap2\n      mstore\n      dup2\n      keccak256\n        /* \"StakeFactory.sol\":18008:18051  withdrawedReward[msg.sender] += totalReward */\n      dup1\n      sload\n        /* \"StakeFactory.sol\":18040:18051  totalReward */\n      dup7\n      swap3\n        /* \"StakeFactory.sol\":17948:17979  depositeTokensTotal[msg.sender] */\n      swap1\n        /* \"StakeFactory.sol\":18008:18051  withdrawedReward[msg.sender] += totalReward */\n      tag_632\n      swap1\n        /* \"StakeFactory.sol\":18040:18051  totalReward */\n      dup5\n      swap1\n        /* \"StakeFactory.sol\":18008:18051  withdrawedReward[msg.sender] += totalReward */\n      tag_292\n      jump\t// in\n    tag_632:\n      swap1\n      swap2\n      sstore\n      pop\n      pop\n        /* \"StakeFactory.sol\":18074:18084  msg.sender */\n      caller\n        /* \"StakeFactory.sol\":18062:18085  lastUpdated[msg.sender] */\n      0x00\n      swap1\n      dup2\n      mstore\n        /* \"StakeFactory.sol\":18062:18073  lastUpdated */\n      0x0c\n        /* \"StakeFactory.sol\":18062:18085  lastUpdated[msg.sender] */\n      0x20\n      mstore\n      0x40\n      swap1\n      keccak256\n        /* \"StakeFactory.sol\":18088:18103  block.timestamp */\n      timestamp\n        /* \"StakeFactory.sol\":18062:18103  lastUpdated[msg.sender] = block.timestamp */\n      swap1\n      sstore\n      pop\n      pop\n        /* \"StakeFactory.sol\":2199:2200  1 */\n      0x01\n        /* \"StakeFactory.sol\":3321:3343  _status = _NOT_ENTERED */\n      dup1\n      sstore\n        /* \"StakeFactory.sol\":18124:18143  totalWithdrawAmount */\n      swap2\n      swap7\n        /* \"StakeFactory.sol\":18145:18156  totalReward */\n      swap1\n      swap6\n      pop\n        /* \"StakeFactory.sol\":18124:18143  totalWithdrawAmount */\n      swap1\n      swap4\n      pop\n        /* \"StakeFactory.sol\":15044:18179  function harwest(uint256[] memory _index) external whenNotPaused nonReentrant returns (... */\n      swap2\n      pop\n      pop\n      jump\t// out\n        /* \"StakeFactory.sol\":23981:24095  function setTaxReceiver(address _newTaxReceiver) public onlyOwner {... */\n    tag_240:\n        /* \"StakeFactory.sol\":7912:7918  _owner */\n      and(sub(shl(0xa0, 0x01), 0x01), sload(0x00))\n        /* \"StakeFactory.sol\":7922:7932  msg.sender */\n      caller\n        /* \"StakeFactory.sol\":7912:7932  _owner == msg.sender */\n      eq\n        /* \"StakeFactory.sol\":7904:7969  require(_owner == msg.sender, \"Ownable: caller is not the owner\") */\n      tag_636\n      jumpi\n      mload(0x40)\n      shl(0xe5, 0x461bcd)\n      dup2\n      mstore\n      0x04\n      add\n      tag_268\n      swap1\n      tag_269\n      jump\t// in\n    tag_636:\n        /* \"StakeFactory.sol\":24058:24069  taxreceiver */\n      0x06\n        /* \"StakeFactory.sol\":24058:24087  taxreceiver = _newTaxReceiver */\n      dup1\n      sload\n      not(sub(shl(0xa0, 0x01), 0x01))\n      and\n      sub(shl(0xa0, 0x01), 0x01)\n      swap3\n      swap1\n      swap3\n      and\n      swap2\n      swap1\n      swap2\n      or\n      swap1\n      sstore\n        /* \"StakeFactory.sol\":23981:24095  function setTaxReceiver(address _newTaxReceiver) public onlyOwner {... */\n      jump\t// out\n        /* \"StakeFactory.sol\":21162:21534  function getLockPeriodsInfo() external view returns (LockPeriodParams[] memory ret) {... */\n    tag_243:\n        /* \"StakeFactory.sol\":21261:21279  allowedLockPeriods */\n      0x13\n        /* \"StakeFactory.sol\":21261:21286  allowedLockPeriods.length */\n      sload\n        /* \"StakeFactory.sol\":21215:21244  LockPeriodParams[] memory ret */\n      0x60\n      swap1\n        /* \"StakeFactory.sol\":21261:21290  allowedLockPeriods.length > 0 */\n      iszero\n        /* \"StakeFactory.sol\":21257:21527  if (allowedLockPeriods.length > 0) {... */\n      tag_640\n      jumpi\n        /* \"StakeFactory.sol\":21336:21354  allowedLockPeriods */\n      0x13\n        /* \"StakeFactory.sol\":21336:21361  allowedLockPeriods.length */\n      sload\n        /* \"StakeFactory.sol\":21313:21362  new LockPeriodParams[](allowedLockPeriods.length) */\n      0xffffffffffffffff\n      dup2\n      gt\n      iszero\n      tag_642\n      jumpi\n      tag_642\n      tag_326\n      jump\t// in\n    tag_642:\n      mload(0x40)\n      swap1\n      dup1\n      dup3\n      mstore\n      dup1\n      0x20\n      mul\n      0x20\n      add\n      dup3\n      add\n      0x40\n      mstore\n      dup1\n      iszero\n      tag_643\n      jumpi\n      dup2\n      0x20\n      add\n    tag_644:\n      tag_645\n      tag_308\n      jump\t// in\n    tag_645:\n      dup2\n      mstore\n      0x20\n      add\n      swap1\n      0x01\n      swap1\n      sub\n      swap1\n      dup2\n      tag_644\n      jumpi\n      swap1\n      pop\n    tag_643:\n      pop\n        /* \"StakeFactory.sol\":21307:21362  ret = new LockPeriodParams[](allowedLockPeriods.length) */\n      swap1\n      pop\n        /* \"StakeFactory.sol\":21382:21391  uint256 i */\n      0x00\n        /* \"StakeFactory.sol\":21377:21516  for (uint256 i = 0; i < allowedLockPeriods.length; i++) {... */\n    tag_646:\n        /* \"StakeFactory.sol\":21401:21419  allowedLockPeriods */\n      0x13\n        /* \"StakeFactory.sol\":21401:21426  allowedLockPeriods.length */\n      sload\n        /* \"StakeFactory.sol\":21397:21426  i < allowedLockPeriods.length */\n      dup2\n      lt\n        /* \"StakeFactory.sol\":21377:21516  for (uint256 i = 0; i < allowedLockPeriods.length; i++) {... */\n      iszero\n      tag_647\n      jumpi\n        /* \"StakeFactory.sol\":21461:21477  lockPeriodParams */\n      0x05\n        /* \"StakeFactory.sol\":21461:21500  lockPeriodParams[allowedLockPeriods[i]] */\n      0x00\n        /* \"StakeFactory.sol\":21478:21496  allowedLockPeriods */\n      0x13\n        /* \"StakeFactory.sol\":21497:21498  i */\n      dup4\n        /* \"StakeFactory.sol\":21478:21499  allowedLockPeriods[i] */\n      dup2\n      sload\n      dup2\n      lt\n      tag_650\n      jumpi\n      tag_650\n      tag_284\n      jump\t// in\n    tag_650:\n      swap1\n      0x00\n      mstore\n      keccak256(0x00, 0x20)\n      add\n      sload\n        /* \"StakeFactory.sol\":21461:21500  lockPeriodParams[allowedLockPeriods[i]] */\n      dup2\n      mstore\n      0x20\n      add\n      swap1\n      dup2\n      mstore\n      0x20\n      add\n      0x00\n      keccak256\n        /* \"StakeFactory.sol\":21452:21500  ret[i] = lockPeriodParams[allowedLockPeriods[i]] */\n      mload(0x40)\n      dup1\n      0x0120\n      add\n      0x40\n      mstore\n      swap1\n      dup2\n      0x00\n      dup3\n      add\n      sload\n      dup2\n      mstore\n      0x20\n      add\n      0x01\n      dup3\n      add\n      sload\n      dup2\n      mstore\n      0x20\n      add\n      0x02\n      dup3\n      add\n      sload\n      dup2\n      mstore\n      0x20\n      add\n      0x03\n      dup3\n      add\n      sload\n      dup2\n      mstore\n      0x20\n      add\n      0x04\n      dup3\n      add\n      sload\n      dup2\n      mstore\n      0x20\n      add\n      0x05\n      dup3\n      add\n      sload\n      dup2\n      mstore\n      0x20\n      add\n      0x06\n      dup3\n      add\n      sload\n      dup2\n      mstore\n      0x20\n      add\n      0x07\n      dup3\n      add\n      0x00\n      swap1\n      sload\n      swap1\n      0x0100\n      exp\n      swap1\n      div\n      0xff\n      and\n      iszero\n      iszero\n      iszero\n      iszero\n      dup2\n      mstore\n      0x20\n      add\n      0x08\n      dup3\n      add\n      sload\n      dup2\n      mstore\n      pop\n      pop\n        /* \"StakeFactory.sol\":21452:21455  ret */\n      dup3\n        /* \"StakeFactory.sol\":21456:21457  i */\n      dup3\n        /* \"StakeFactory.sol\":21452:21458  ret[i] */\n      dup2\n      mload\n      dup2\n      lt\n      tag_653\n      jumpi\n      tag_653\n      tag_284\n      jump\t// in\n    tag_653:\n      0x20\n      mul\n      0x20\n      add\n      add\n        /* \"StakeFactory.sol\":21452:21500  ret[i] = lockPeriodParams[allowedLockPeriods[i]] */\n      dup2\n      swap1\n      mstore\n      pop\n        /* \"StakeFactory.sol\":21428:21431  i++ */\n      dup1\n      dup1\n      tag_654\n      swap1\n      tag_306\n      jump\t// in\n    tag_654:\n      swap2\n      pop\n      pop\n        /* \"StakeFactory.sol\":21377:21516  for (uint256 i = 0; i < allowedLockPeriods.length; i++) {... */\n      jump(tag_646)\n    tag_647:\n      pop\n        /* \"StakeFactory.sol\":21257:21527  if (allowedLockPeriods.length > 0) {... */\n    tag_640:\n        /* \"StakeFactory.sol\":21162:21534  function getLockPeriodsInfo() external view returns (LockPeriodParams[] memory ret) {... */\n      swap1\n      jump\t// out\n        /* \"StakeFactory.sol\":12046:13163  function deposit(uint256 _amount, uint256 _lockDays) external whenNotPaused nonReentrant {... */\n    tag_249:\n        /* \"StakeFactory.sol\":6039:6043  bool */\n      0x00\n        /* \"StakeFactory.sol\":6064:6071  _paused */\n      sload\n      shl(0xa0, 0x01)\n      swap1\n      div\n      0xff\n      and\n        /* \"StakeFactory.sol\":6326:6335  !paused() */\n      iszero\n        /* \"StakeFactory.sol\":6318:6356  require(!paused(), \"Pausable: paused\") */\n      tag_657\n      jumpi\n      mload(0x40)\n      shl(0xe5, 0x461bcd)\n      dup2\n      mstore\n        /* \"#utility.yul\":19769:19771   */\n      0x20\n        /* \"StakeFactory.sol\":6318:6356  require(!paused(), \"Pausable: paused\") */\n      0x04\n      dup3\n      add\n        /* \"#utility.yul\":19751:19772   */\n      mstore\n        /* \"#utility.yul\":19808:19810   */\n      0x10\n        /* \"#utility.yul\":19788:19806   */\n      0x24\n      dup3\n      add\n        /* \"#utility.yul\":19781:19811   */\n      mstore\n      shl(0x82, 0x14185d5cd8589b194e881c185d5cd959)\n        /* \"#utility.yul\":19827:19845   */\n      0x44\n      dup3\n      add\n        /* \"#utility.yul\":19820:19866   */\n      mstore\n        /* \"#utility.yul\":19883:19901   */\n      0x64\n      add\n        /* \"StakeFactory.sol\":6318:6356  require(!paused(), \"Pausable: paused\") */\n      tag_268\n        /* \"#utility.yul\":19567:19907   */\n      jump\n        /* \"StakeFactory.sol\":6318:6356  require(!paused(), \"Pausable: paused\") */\n    tag_657:\n        /* \"StakeFactory.sol\":2761:2782  _nonReentrantBefore() */\n      tag_660\n        /* \"StakeFactory.sol\":2761:2780  _nonReentrantBefore */\n      tag_494\n        /* \"StakeFactory.sol\":2761:2782  _nonReentrantBefore() */\n      jump\t// in\n    tag_660:\n        /* \"StakeFactory.sol\":12161:12171  msg.sender */\n      caller\n        /* \"StakeFactory.sol\":12154:12172  isSpam[msg.sender] */\n      0x00\n      swap1\n      dup2\n      mstore\n        /* \"StakeFactory.sol\":12154:12160  isSpam */\n      0x10\n        /* \"StakeFactory.sol\":12154:12172  isSpam[msg.sender] */\n      0x20\n      mstore\n      0x40\n      swap1\n      keccak256\n      sload\n      0xff\n      and\n        /* \"StakeFactory.sol\":12154:12181  isSpam[msg.sender] == false */\n      iszero\n        /* \"StakeFactory.sol\":12146:12202  require(isSpam[msg.sender] == false, \"Account is spam!\") */\n      tag_662\n      jumpi\n      mload(0x40)\n      shl(0xe5, 0x461bcd)\n      dup2\n      mstore\n        /* \"#utility.yul\":20114:20116   */\n      0x20\n        /* \"StakeFactory.sol\":12146:12202  require(isSpam[msg.sender] == false, \"Account is spam!\") */\n      0x04\n      dup3\n      add\n        /* \"#utility.yul\":20096:20117   */\n      mstore\n        /* \"#utility.yul\":20153:20155   */\n      0x10\n        /* \"#utility.yul\":20133:20151   */\n      0x24\n      dup3\n      add\n        /* \"#utility.yul\":20126:20156   */\n      mstore\n      shl(0x80, 0x4163636f756e74206973207370616d21)\n        /* \"#utility.yul\":20172:20190   */\n      0x44\n      dup3\n      add\n        /* \"#utility.yul\":20165:20211   */\n      mstore\n        /* \"#utility.yul\":20228:20246   */\n      0x64\n      add\n        /* \"StakeFactory.sol\":12146:12202  require(isSpam[msg.sender] == false, \"Account is spam!\") */\n      tag_268\n        /* \"#utility.yul\":19912:20252   */\n      jump\n        /* \"StakeFactory.sol\":12146:12202  require(isSpam[msg.sender] == false, \"Account is spam!\") */\n    tag_662:\n        /* \"StakeFactory.sol\":12221:12251  isLockPeriodAllowed(_lockDays) */\n      tag_664\n        /* \"StakeFactory.sol\":12241:12250  _lockDays */\n      dup2\n        /* \"StakeFactory.sol\":12221:12240  isLockPeriodAllowed */\n      tag_311\n        /* \"StakeFactory.sol\":12221:12251  isLockPeriodAllowed(_lockDays) */\n      jump\t// in\n    tag_664:\n        /* \"StakeFactory.sol\":12213:12275  require(isLockPeriodAllowed(_lockDays), \"Invalid lock period\") */\n      tag_665\n      jumpi\n      mload(0x40)\n      shl(0xe5, 0x461bcd)\n      dup2\n      mstore\n        /* \"#utility.yul\":20459:20461   */\n      0x20\n        /* \"StakeFactory.sol\":12213:12275  require(isLockPeriodAllowed(_lockDays), \"Invalid lock period\") */\n      0x04\n      dup3\n      add\n        /* \"#utility.yul\":20441:20462   */\n      mstore\n        /* \"#utility.yul\":20498:20500   */\n      0x13\n        /* \"#utility.yul\":20478:20496   */\n      0x24\n      dup3\n      add\n        /* \"#utility.yul\":20471:20501   */\n      mstore\n      shl(0x6a, 0x125b9d985b1a59081b1bd8dac81c195c9a5bd9)\n        /* \"#utility.yul\":20517:20535   */\n      0x44\n      dup3\n      add\n        /* \"#utility.yul\":20510:20559   */\n      mstore\n        /* \"#utility.yul\":20576:20594   */\n      0x64\n      add\n        /* \"StakeFactory.sol\":12213:12275  require(isLockPeriodAllowed(_lockDays), \"Invalid lock period\") */\n      tag_268\n        /* \"#utility.yul\":20257:20600   */\n      jump\n        /* \"StakeFactory.sol\":12213:12275  require(isLockPeriodAllowed(_lockDays), \"Invalid lock period\") */\n    tag_665:\n        /* \"StakeFactory.sol\":12305:12332  lockPeriodParams[_lockDays] */\n      0x00\n      dup2\n      dup2\n      mstore\n        /* \"StakeFactory.sol\":12305:12321  lockPeriodParams */\n      0x05\n        /* \"StakeFactory.sol\":12305:12332  lockPeriodParams[_lockDays] */\n      0x20\n      mstore\n      0x40\n      swap1\n      keccak256\n        /* \"StakeFactory.sol\":12305:12347  lockPeriodParams[_lockDays].minimumDeposit */\n      0x01\n      add\n      sload\n        /* \"StakeFactory.sol\":12294:12347  _amount >= lockPeriodParams[_lockDays].minimumDeposit */\n      dup3\n      lt\n      iszero\n        /* \"StakeFactory.sol\":12286:12366  require(_amount >= lockPeriodParams[_lockDays].minimumDeposit, \"Invalid amount\") */\n      tag_668\n      jumpi\n      mload(0x40)\n      shl(0xe5, 0x461bcd)\n      dup2\n      mstore\n        /* \"#utility.yul\":20807:20809   */\n      0x20\n        /* \"StakeFactory.sol\":12286:12366  require(_amount >= lockPeriodParams[_lockDays].minimumDeposit, \"Invalid amount\") */\n      0x04\n      dup3\n      add\n        /* \"#utility.yul\":20789:20810   */\n      mstore\n        /* \"#utility.yul\":20846:20848   */\n      0x0e\n        /* \"#utility.yul\":20826:20844   */\n      0x24\n      dup3\n      add\n        /* \"#utility.yul\":20819:20849   */\n      mstore\n      shl(0x92, 0x125b9d985b1a5908185b5bdd5b9d)\n        /* \"#utility.yul\":20865:20883   */\n      0x44\n      dup3\n      add\n        /* \"#utility.yul\":20858:20902   */\n      mstore\n        /* \"#utility.yul\":20919:20937   */\n      0x64\n      add\n        /* \"StakeFactory.sol\":12286:12366  require(_amount >= lockPeriodParams[_lockDays].minimumDeposit, \"Invalid amount\") */\n      tag_268\n        /* \"#utility.yul\":20605:20943   */\n      jump\n        /* \"StakeFactory.sol\":12286:12366  require(_amount >= lockPeriodParams[_lockDays].minimumDeposit, \"Invalid amount\") */\n    tag_668:\n        /* \"StakeFactory.sol\":12427:12432  Token */\n      sload(0x02)\n        /* \"StakeFactory.sol\":12427:12481  Token.transferFrom(msg.sender, address(this), _amount) */\n      mload(0x40)\n      shl(0xe0, 0x23b872dd)\n      dup2\n      mstore\n        /* \"StakeFactory.sol\":12446:12456  msg.sender */\n      caller\n        /* \"StakeFactory.sol\":12427:12481  Token.transferFrom(msg.sender, address(this), _amount) */\n      0x04\n      dup3\n      add\n        /* \"#utility.yul\":21188:21222   */\n      mstore\n        /* \"StakeFactory.sol\":12466:12470  this */\n      address\n        /* \"#utility.yul\":21238:21256   */\n      0x24\n      dup3\n      add\n        /* \"#utility.yul\":21231:21274   */\n      mstore\n        /* \"#utility.yul\":21290:21308   */\n      0x44\n      dup2\n      add\n        /* \"#utility.yul\":21283:21317   */\n      dup5\n      swap1\n      mstore\n        /* \"StakeFactory.sol\":12399:12414  block.timestamp */\n      timestamp\n      swap2\n      sub(shl(0xa0, 0x01), 0x01)\n        /* \"StakeFactory.sol\":12427:12432  Token */\n      and\n      swap1\n        /* \"StakeFactory.sol\":12427:12445  Token.transferFrom */\n      0x23b872dd\n      swap1\n        /* \"#utility.yul\":21123:21141   */\n      0x64\n      add\n        /* \"StakeFactory.sol\":12427:12481  Token.transferFrom(msg.sender, address(this), _amount) */\n      0x20\n      mload(0x40)\n      dup1\n      dup4\n      sub\n      dup2\n      0x00\n      dup8\n      gas\n      call\n      iszero\n      dup1\n      iszero\n      tag_674\n      jumpi\n      returndatasize\n      0x00\n      dup1\n      returndatacopy\n      revert(0x00, returndatasize)\n    tag_674:\n      pop\n      pop\n      pop\n      pop\n      mload(0x40)\n      returndatasize\n      not(0x1f)\n      0x1f\n      dup3\n      add\n      and\n      dup3\n      add\n      dup1\n      0x40\n      mstore\n      pop\n      dup2\n      add\n      swap1\n      tag_675\n      swap2\n      swap1\n      tag_438\n      jump\t// in\n    tag_675:\n      pop\n        /* \"StakeFactory.sol\":12506:12516  msg.sender */\n      caller\n        /* \"StakeFactory.sol\":12492:12517  depositeToken[msg.sender] */\n      0x00\n      dup2\n      dup2\n      mstore\n        /* \"StakeFactory.sol\":12492:12505  depositeToken */\n      0x07\n        /* \"StakeFactory.sol\":12492:12517  depositeToken[msg.sender] */\n      0x20\n      swap1\n      dup2\n      mstore\n      0x40\n      dup1\n      dup4\n      keccak256\n        /* \"StakeFactory.sol\":12492:12531  depositeToken[msg.sender].push(_amount) */\n      dup1\n      sload\n      0x01\n      dup2\n      dup2\n      add\n      dup4\n      sstore\n      swap2\n      dup6\n      mstore\n      dup4\n      dup6\n      keccak256\n      add\n      dup9\n      swap1\n      sstore\n        /* \"StakeFactory.sol\":12542:12566  depositeTime[msg.sender] */\n      dup5\n      dup5\n      mstore\n        /* \"StakeFactory.sol\":12542:12554  depositeTime */\n      0x0a\n        /* \"StakeFactory.sol\":12542:12566  depositeTime[msg.sender] */\n      dup4\n      mstore\n      dup2\n      dup5\n      keccak256\n        /* \"StakeFactory.sol\":12542:12590  depositeTime[msg.sender].push(uint40(blockTime)) */\n      dup1\n      sload\n      swap2\n      dup3\n      add\n      dup2\n      sstore\n      dup5\n      mstore\n      dup3\n      dup5\n      keccak256\n      0xffffffffff\n      dup8\n      and\n      swap2\n      add\n      sstore\n        /* \"StakeFactory.sol\":12601:12632  depositeTokensTotal[msg.sender] */\n      swap3\n      dup3\n      mstore\n        /* \"StakeFactory.sol\":12601:12620  depositeTokensTotal */\n      0x08\n        /* \"StakeFactory.sol\":12601:12632  depositeTokensTotal[msg.sender] */\n      swap1\n      mstore\n      swap1\n      dup2\n      keccak256\n        /* \"StakeFactory.sol\":12601:12643  depositeTokensTotal[msg.sender] += _amount */\n      dup1\n      sload\n        /* \"StakeFactory.sol\":12523:12530  _amount */\n      dup6\n      swap3\n        /* \"StakeFactory.sol\":12492:12517  depositeToken[msg.sender] */\n      swap1\n        /* \"StakeFactory.sol\":12601:12643  depositeTokensTotal[msg.sender] += _amount */\n      tag_678\n      swap1\n        /* \"StakeFactory.sol\":12523:12530  _amount */\n      dup5\n      swap1\n        /* \"StakeFactory.sol\":12601:12643  depositeTokensTotal[msg.sender] += _amount */\n      tag_292\n      jump\t// in\n    tag_678:\n      swap1\n      swap2\n      sstore\n      pop\n      pop\n        /* \"StakeFactory.sol\":12667:12677  msg.sender */\n      caller\n        /* \"StakeFactory.sol\":12654:12678  lockableDays[msg.sender] */\n      0x00\n      dup2\n      dup2\n      mstore\n        /* \"StakeFactory.sol\":12654:12666  lockableDays */\n      0x09\n        /* \"StakeFactory.sol\":12654:12678  lockableDays[msg.sender] */\n      0x20\n      swap1\n      dup2\n      mstore\n      0x40\n      dup1\n      dup4\n      keccak256\n        /* \"StakeFactory.sol\":12654:12694  lockableDays[msg.sender].push(_lockDays) */\n      dup1\n      sload\n      0x01\n      dup2\n      add\n      dup3\n      sstore\n      swap1\n      dup5\n      mstore\n      dup3\n      dup5\n      keccak256\n      add\n      dup7\n      swap1\n      sstore\n        /* \"StakeFactory.sol\":12705:12728  lastUpdated[msg.sender] */\n      swap3\n      dup3\n      mstore\n        /* \"StakeFactory.sol\":12705:12716  lastUpdated */\n      0x0c\n        /* \"StakeFactory.sol\":12705:12728  lastUpdated[msg.sender] */\n      dup2\n      mstore\n      dup3\n      dup3\n      keccak256\n        /* \"StakeFactory.sol\":12731:12746  block.timestamp */\n      timestamp\n        /* \"StakeFactory.sol\":12705:12746  lastUpdated[msg.sender] = block.timestamp */\n      swap1\n      sstore\n        /* \"StakeFactory.sol\":12757:12784  lockPeriodParams[_lockDays] */\n      dup5\n      dup3\n      mstore\n        /* \"StakeFactory.sol\":12757:12773  lockPeriodParams */\n      0x05\n        /* \"StakeFactory.sol\":12757:12784  lockPeriodParams[_lockDays] */\n      swap1\n      mstore\n      swap1\n      dup2\n      keccak256\n        /* \"StakeFactory.sol\":12757:12797  lockPeriodParams[_lockDays].stakedAmount */\n      0x08\n      add\n        /* \"StakeFactory.sol\":12757:12808  lockPeriodParams[_lockDays].stakedAmount += _amount */\n      dup1\n      sload\n        /* \"StakeFactory.sol\":12801:12808  _amount */\n      dup6\n      swap3\n        /* \"StakeFactory.sol\":12654:12678  lockableDays[msg.sender] */\n      swap1\n        /* \"StakeFactory.sol\":12757:12808  lockPeriodParams[_lockDays].stakedAmount += _amount */\n      tag_680\n      swap1\n        /* \"StakeFactory.sol\":12801:12808  _amount */\n      dup5\n      swap1\n        /* \"StakeFactory.sol\":12757:12808  lockPeriodParams[_lockDays].stakedAmount += _amount */\n      tag_292\n      jump\t// in\n    tag_680:\n      swap1\n      swap2\n      sstore\n      pop\n      pop\n        /* \"StakeFactory.sol\":12836:12846  msg.sender */\n      caller\n        /* \"StakeFactory.sol\":12824:12847  usersExists[msg.sender] */\n      0x00\n      swap1\n      dup2\n      mstore\n        /* \"StakeFactory.sol\":12824:12835  usersExists */\n      0x0d\n        /* \"StakeFactory.sol\":12824:12847  usersExists[msg.sender] */\n      0x20\n      mstore\n      0x40\n      swap1\n      keccak256\n      sload\n      0xff\n      and\n        /* \"StakeFactory.sol\":12819:12978  if (!usersExists[msg.sender]) {... */\n      tag_681\n      jumpi\n        /* \"StakeFactory.sol\":12864:12874  usersCount */\n      0x0f\n        /* \"StakeFactory.sol\":12864:12876  usersCount++ */\n      dup1\n      sload\n      swap1\n        /* \"StakeFactory.sol\":12864:12874  usersCount */\n      0x00\n        /* \"StakeFactory.sol\":12864:12876  usersCount++ */\n      tag_682\n      dup4\n      tag_306\n      jump\t// in\n    tag_682:\n      swap1\n      swap2\n      sstore\n      pop\n      pop\n        /* \"StakeFactory.sol\":12897:12907  usersCount */\n      sload(0x0f)\n        /* \"StakeFactory.sol\":12891:12908  users[usersCount] */\n      0x00\n      swap1\n      dup2\n      mstore\n        /* \"StakeFactory.sol\":12891:12896  users */\n      0x0e\n        /* \"StakeFactory.sol\":12891:12908  users[usersCount] */\n      0x20\n      swap1\n      dup2\n      mstore\n      0x40\n      dup1\n      dup4\n      keccak256\n        /* \"StakeFactory.sol\":12891:12921  users[usersCount] = msg.sender */\n      dup1\n      sload\n      not(sub(shl(0xa0, 0x01), 0x01))\n      and\n        /* \"StakeFactory.sol\":12911:12921  msg.sender */\n      caller\n        /* \"StakeFactory.sol\":12891:12921  users[usersCount] = msg.sender */\n      swap1\n      dup2\n      or\n      swap1\n      swap2\n      sstore\n        /* \"StakeFactory.sol\":12936:12959  usersExists[msg.sender] */\n      dup4\n      mstore\n        /* \"StakeFactory.sol\":12936:12947  usersExists */\n      0x0d\n        /* \"StakeFactory.sol\":12936:12959  usersExists[msg.sender] */\n      swap1\n      swap2\n      mstore\n      swap1\n      keccak256\n        /* \"StakeFactory.sol\":12936:12966  usersExists[msg.sender] = true */\n      dup1\n      sload\n      not(0xff)\n      and\n        /* \"StakeFactory.sol\":12891:12921  users[usersCount] = msg.sender */\n      0x01\n        /* \"StakeFactory.sol\":12936:12966  usersExists[msg.sender] = true */\n      or\n      swap1\n      sstore\n        /* \"StakeFactory.sol\":12819:12978  if (!usersExists[msg.sender]) {... */\n    tag_681:\n        /* \"StakeFactory.sol\":12988:13016  allocationPercentageUpdate() */\n      tag_683\n        /* \"StakeFactory.sol\":12988:13014  allocationPercentageUpdate */\n      tag_684\n        /* \"StakeFactory.sol\":12988:13016  allocationPercentageUpdate() */\n      jump\t// in\n    tag_683:\n        /* \"StakeFactory.sol\":13088:13155  Deposite_(msg.sender, address(this), _amount, _lockDays, blockTime) */\n      0x40\n      dup1\n      mload\n        /* \"#utility.yul\":11375:11400   */\n      dup5\n      dup2\n      mstore\n        /* \"#utility.yul\":11431:11433   */\n      0x20\n        /* \"#utility.yul\":11416:11434   */\n      dup2\n      add\n        /* \"#utility.yul\":11409:11443   */\n      dup5\n      swap1\n      mstore\n        /* \"#utility.yul\":11459:11477   */\n      swap1\n      dup2\n      add\n        /* \"#utility.yul\":11452:11486   */\n      dup3\n      swap1\n      mstore\n        /* \"StakeFactory.sol\":13118:13122  this */\n      address\n      swap1\n        /* \"StakeFactory.sol\":13098:13108  msg.sender */\n      caller\n      swap1\n        /* \"StakeFactory.sol\":13088:13155  Deposite_(msg.sender, address(this), _amount, _lockDays, blockTime) */\n      0xe44628ed4b392c5ef46ffc833d640eefd957e81a312e583e0cc57eed5f04ada3\n      swap1\n        /* \"#utility.yul\":11363:11365   */\n      0x60\n        /* \"#utility.yul\":11348:11366   */\n      add\n        /* \"StakeFactory.sol\":13088:13155  Deposite_(msg.sender, address(this), _amount, _lockDays, blockTime) */\n      mload(0x40)\n      dup1\n      swap2\n      sub\n      swap1\n      log3\n        /* \"StakeFactory.sol\":12135:13163  {... */\n      pop\n        /* \"StakeFactory.sol\":2805:2825  _nonReentrantAfter() */\n      tag_275\n        /* \"StakeFactory.sol\":2199:2200  1 */\n      0x01\n        /* \"StakeFactory.sol\":3321:3343  _status = _NOT_ENTERED */\n      dup1\n      sstore\n        /* \"StakeFactory.sol\":3138:3351  function _nonReentrantAfter() private {... */\n      jump\n        /* \"StakeFactory.sol\":8154:8431  function transferOwnership(address newOwner) public onlyOwner {... */\n    tag_257:\n        /* \"StakeFactory.sol\":7912:7918  _owner */\n      and(sub(shl(0xa0, 0x01), 0x01), sload(0x00))\n        /* \"StakeFactory.sol\":7922:7932  msg.sender */\n      caller\n        /* \"StakeFactory.sol\":7912:7932  _owner == msg.sender */\n      eq\n        /* \"StakeFactory.sol\":7904:7969  require(_owner == msg.sender, \"Ownable: caller is not the owner\") */\n      tag_688\n      jumpi\n      mload(0x40)\n      shl(0xe5, 0x461bcd)\n      dup2\n      mstore\n      0x04\n      add\n      tag_268\n      swap1\n      tag_269\n      jump\t// in\n    tag_688:\n      sub(shl(0xa0, 0x01), 0x01)\n        /* \"StakeFactory.sol\":8249:8271  newOwner != address(0) */\n      dup2\n      and\n        /* \"StakeFactory.sol\":8227:8337  require(... */\n      tag_691\n      jumpi\n      mload(0x40)\n      shl(0xe5, 0x461bcd)\n      dup2\n      mstore\n        /* \"#utility.yul\":21530:21532   */\n      0x20\n        /* \"StakeFactory.sol\":8227:8337  require(... */\n      0x04\n      dup3\n      add\n        /* \"#utility.yul\":21512:21533   */\n      mstore\n        /* \"#utility.yul\":21569:21571   */\n      0x26\n        /* \"#utility.yul\":21549:21567   */\n      0x24\n      dup3\n      add\n        /* \"#utility.yul\":21542:21572   */\n      mstore\n        /* \"#utility.yul\":21608:21642   */\n      0x4f776e61626c653a206e6577206f776e657220697320746865207a65726f2061\n        /* \"#utility.yul\":21588:21606   */\n      0x44\n      dup3\n      add\n        /* \"#utility.yul\":21581:21643   */\n      mstore\n      shl(0xd0, 0x646472657373)\n        /* \"#utility.yul\":21659:21677   */\n      0x64\n      dup3\n      add\n        /* \"#utility.yul\":21652:21688   */\n      mstore\n        /* \"#utility.yul\":21705:21724   */\n      0x84\n      add\n        /* \"StakeFactory.sol\":8227:8337  require(... */\n      tag_268\n        /* \"#utility.yul\":21328:21730   */\n      jump\n        /* \"StakeFactory.sol\":8227:8337  require(... */\n    tag_691:\n        /* \"StakeFactory.sol\":8376:8382  _owner */\n      0x00\n      dup1\n      sload\n        /* \"StakeFactory.sol\":8355:8393  OwnershipTransferred(_owner, newOwner) */\n      mload(0x40)\n      sub(shl(0xa0, 0x01), 0x01)\n      dup1\n      dup6\n      and\n      swap4\n        /* \"StakeFactory.sol\":8376:8382  _owner */\n      swap3\n      and\n      swap2\n        /* \"StakeFactory.sol\":8355:8393  OwnershipTransferred(_owner, newOwner) */\n      0x8be0079c531659141344cd1fd0a4f28419497f9722a3daafe3b4186f6b6457e0\n      swap2\n      log3\n        /* \"StakeFactory.sol\":8406:8412  _owner */\n      0x00\n        /* \"StakeFactory.sol\":8406:8423  _owner = newOwner */\n      dup1\n      sload\n      not(sub(shl(0xa0, 0x01), 0x01))\n      and\n      sub(shl(0xa0, 0x01), 0x01)\n      swap3\n      swap1\n      swap3\n      and\n      swap2\n      swap1\n      swap2\n      or\n      swap1\n      sstore\n        /* \"StakeFactory.sol\":8154:8431  function transferOwnership(address newOwner) public onlyOwner {... */\n      jump\t// out\n        /* \"StakeFactory.sol\":19822:20100  function isLockPeriodAllowed(uint256 _days) internal view returns (bool) {... */\n    tag_311:\n        /* \"StakeFactory.sol\":19889:19893  bool */\n      0x00\n      dup1\n        /* \"StakeFactory.sol\":19906:20070  for (uint256 i = 0; i < allowedLockPeriods.length; i++) {... */\n    tag_695:\n        /* \"StakeFactory.sol\":19930:19948  allowedLockPeriods */\n      0x13\n        /* \"StakeFactory.sol\":19930:19955  allowedLockPeriods.length */\n      sload\n        /* \"StakeFactory.sol\":19926:19955  i < allowedLockPeriods.length */\n      dup2\n      lt\n        /* \"StakeFactory.sol\":19906:20070  for (uint256 i = 0; i < allowedLockPeriods.length; i++) {... */\n      iszero\n      tag_696\n      jumpi\n        /* \"StakeFactory.sol\":20006:20011  _days */\n      dup3\n        /* \"StakeFactory.sol\":19981:19999  allowedLockPeriods */\n      0x13\n        /* \"StakeFactory.sol\":20000:20001  i */\n      dup3\n        /* \"StakeFactory.sol\":19981:20002  allowedLockPeriods[i] */\n      dup2\n      sload\n      dup2\n      lt\n      tag_699\n      jumpi\n      tag_699\n      tag_284\n      jump\t// in\n    tag_699:\n      swap1\n      0x00\n      mstore\n      keccak256(0x00, 0x20)\n      add\n      sload\n        /* \"StakeFactory.sol\":19981:20011  allowedLockPeriods[i] == _days */\n      eq\n        /* \"StakeFactory.sol\":19977:20059  if (allowedLockPeriods[i] == _days) {... */\n      iszero\n      tag_701\n      jumpi\n      pop\n        /* \"StakeFactory.sol\":20039:20043  true */\n      0x01\n      swap3\n        /* \"StakeFactory.sol\":19822:20100  function isLockPeriodAllowed(uint256 _days) internal view returns (bool) {... */\n      swap2\n      pop\n      pop\n      jump\t// out\n        /* \"StakeFactory.sol\":19977:20059  if (allowedLockPeriods[i] == _days) {... */\n    tag_701:\n        /* \"StakeFactory.sol\":19957:19960  i++ */\n      dup1\n      tag_702\n      dup2\n      tag_306\n      jump\t// in\n    tag_702:\n      swap2\n      pop\n      pop\n        /* \"StakeFactory.sol\":19906:20070  for (uint256 i = 0; i < allowedLockPeriods.length; i++) {... */\n      jump(tag_695)\n    tag_696:\n      pop\n        /* \"StakeFactory.sol\":20087:20092  false */\n      0x00\n      swap3\n        /* \"StakeFactory.sol\":19822:20100  function isLockPeriodAllowed(uint256 _days) internal view returns (bool) {... */\n      swap2\n      pop\n      pop\n      jump\t// out\n        /* \"StakeFactory.sol\":2841:3130  function _nonReentrantBefore() private {... */\n    tag_494:\n        /* \"StakeFactory.sol\":2243:2244  2 */\n      0x02\n        /* \"StakeFactory.sol\":2971:2978  _status */\n      sload(0x01)\n        /* \"StakeFactory.sol\":2971:2990  _status != _ENTERED */\n      eq\n      iszero\n        /* \"StakeFactory.sol\":2963:3026  require(_status != _ENTERED, \"ReentrancyGuard: reentrant call\") */\n      tag_704\n      jumpi\n      mload(0x40)\n      shl(0xe5, 0x461bcd)\n      dup2\n      mstore\n        /* \"#utility.yul\":21937:21939   */\n      0x20\n        /* \"StakeFactory.sol\":2963:3026  require(_status != _ENTERED, \"ReentrancyGuard: reentrant call\") */\n      0x04\n      dup3\n      add\n        /* \"#utility.yul\":21919:21940   */\n      mstore\n        /* \"#utility.yul\":21976:21978   */\n      0x1f\n        /* \"#utility.yul\":21956:21974   */\n      0x24\n      dup3\n      add\n        /* \"#utility.yul\":21949:21979   */\n      mstore\n        /* \"#utility.yul\":22015:22048   */\n      0x5265656e7472616e637947756172643a207265656e7472616e742063616c6c00\n        /* \"#utility.yul\":21995:22013   */\n      0x44\n      dup3\n      add\n        /* \"#utility.yul\":21988:22049   */\n      mstore\n        /* \"#utility.yul\":22066:22084   */\n      0x64\n      add\n        /* \"StakeFactory.sol\":2963:3026  require(_status != _ENTERED, \"ReentrancyGuard: reentrant call\") */\n      tag_268\n        /* \"#utility.yul\":21735:22090   */\n      jump\n        /* \"StakeFactory.sol\":2963:3026  require(_status != _ENTERED, \"ReentrancyGuard: reentrant call\") */\n    tag_704:\n        /* \"StakeFactory.sol\":2243:2244  2 */\n      0x02\n        /* \"StakeFactory.sol\":3104:3111  _status */\n      0x01\n        /* \"StakeFactory.sol\":3104:3122  _status = _ENTERED */\n      sstore\n        /* \"StakeFactory.sol\":2841:3130  function _nonReentrantBefore() private {... */\n      jump\t// out\n        /* \"StakeFactory.sol\":22436:23328  function allocationPercentageUpdate() internal {... */\n    tag_684:\n        /* \"StakeFactory.sol\":22517:22522  Token */\n      sload(0x02)\n        /* \"StakeFactory.sol\":22517:22547  Token.balanceOf(address(this)) */\n      mload(0x40)\n      shl(0xe0, 0x70a08231)\n      dup2\n      mstore\n        /* \"StakeFactory.sol\":22541:22545  this */\n      address\n        /* \"StakeFactory.sol\":22517:22547  Token.balanceOf(address(this)) */\n      0x04\n      dup3\n      add\n        /* \"#utility.yul\":915:966   */\n      mstore\n        /* \"StakeFactory.sol\":22494:22514  uint256 tokenbalance */\n      0x00\n      swap2\n      sub(shl(0xa0, 0x01), 0x01)\n        /* \"StakeFactory.sol\":22517:22522  Token */\n      and\n      swap1\n        /* \"StakeFactory.sol\":22517:22532  Token.balanceOf */\n      0x70a08231\n      swap1\n        /* \"#utility.yul\":888:906   */\n      0x24\n      add\n        /* \"StakeFactory.sol\":22517:22547  Token.balanceOf(address(this)) */\n      0x20\n      mload(0x40)\n      dup1\n      dup4\n      sub\n      dup2\n      dup7\n      gas\n      staticcall\n      iszero\n      dup1\n      iszero\n      tag_711\n      jumpi\n      returndatasize\n      0x00\n      dup1\n      returndatacopy\n      revert(0x00, returndatasize)\n    tag_711:\n      pop\n      pop\n      pop\n      pop\n      mload(0x40)\n      returndatasize\n      not(0x1f)\n      0x1f\n      dup3\n      add\n      and\n      dup3\n      add\n      dup1\n      0x40\n      mstore\n      pop\n      dup2\n      add\n      swap1\n      tag_712\n      swap2\n      swap1\n      tag_404\n      jump\t// in\n    tag_712:\n        /* \"StakeFactory.sol\":22494:22547  uint256 tokenbalance = Token.balanceOf(address(this)) */\n      swap1\n      pop\n        /* \"StakeFactory.sol\":22604:22613  uint256 i */\n      0x00\n        /* \"StakeFactory.sol\":22599:23321  for (uint256 i = 0; i < allowedLockPeriods.length; i++) {... */\n    tag_713:\n        /* \"StakeFactory.sol\":22623:22641  allowedLockPeriods */\n      0x13\n        /* \"StakeFactory.sol\":22623:22648  allowedLockPeriods.length */\n      sload\n        /* \"StakeFactory.sol\":22619:22648  i < allowedLockPeriods.length */\n      dup2\n      lt\n        /* \"StakeFactory.sol\":22599:23321  for (uint256 i = 0; i < allowedLockPeriods.length; i++) {... */\n      iszero\n      tag_275\n      jumpi\n        /* \"StakeFactory.sol\":22670:22683  uint256 _days */\n      0x00\n        /* \"StakeFactory.sol\":22686:22704  allowedLockPeriods */\n      0x13\n        /* \"StakeFactory.sol\":22705:22706  i */\n      dup3\n        /* \"StakeFactory.sol\":22686:22707  allowedLockPeriods[i] */\n      dup2\n      sload\n      dup2\n      lt\n      tag_717\n      jumpi\n      tag_717\n      tag_284\n      jump\t// in\n    tag_717:\n      0x00\n      swap2\n      dup3\n      mstore\n      0x20\n      dup1\n      dup4\n      keccak256\n      swap1\n      swap2\n      add\n      sload\n        /* \"StakeFactory.sol\":22755:22778  lockPeriodParams[_days] */\n      dup1\n      dup4\n      mstore\n        /* \"StakeFactory.sol\":22755:22771  lockPeriodParams */\n      0x05\n        /* \"StakeFactory.sol\":22755:22778  lockPeriodParams[_days] */\n      dup1\n      dup4\n      mstore\n      0x40\n      swap4\n      dup5\n      swap1\n      keccak256\n        /* \"StakeFactory.sol\":22722:22778  LockPeriodParams memory params = lockPeriodParams[_days] */\n      dup5\n      mload\n      0x0120\n      dup2\n      add\n      dup7\n      mstore\n      dup2\n      sload\n      dup2\n      mstore\n      0x01\n      dup3\n      add\n      sload\n      swap5\n      dup2\n      add\n      swap5\n      swap1\n      swap5\n      mstore\n      0x02\n      dup2\n      add\n      sload\n      swap5\n      dup5\n      add\n      swap5\n      swap1\n      swap5\n      mstore\n      0x03\n      dup5\n      add\n      sload\n      0x60\n      dup5\n      add\n      mstore\n      0x04\n      dup5\n      add\n      sload\n      0x80\n      dup5\n      add\n      mstore\n      dup4\n      add\n      sload\n      0xa0\n      dup4\n      add\n      mstore\n      0x06\n      dup4\n      add\n      sload\n      0xc0\n      dup4\n      add\n      mstore\n      0x07\n      dup4\n      add\n      sload\n      0xff\n      and\n      iszero\n      iszero\n      0xe0\n      dup4\n      add\n      dup2\n      swap1\n      mstore\n      0x08\n      swap1\n      swap4\n      add\n      sload\n      0x0100\n      dup4\n      add\n      mstore\n        /* \"StakeFactory.sol\":22686:22707  allowedLockPeriods[i] */\n      swap3\n      pop\n        /* \"StakeFactory.sol\":22722:22778  LockPeriodParams memory params = lockPeriodParams[_days] */\n      swap1\n        /* \"StakeFactory.sol\":22793:23310  if (!params.fixedBasisPoints) {... */\n      tag_719\n      jumpi\n        /* \"StakeFactory.sol\":22842:22860  uint256 multiplier */\n      0x00\n        /* \"StakeFactory.sol\":22878:22884  params */\n      dup2\n        /* \"StakeFactory.sol\":22878:22893  params.stepSize */\n      0xc0\n      add\n      mload\n        /* \"StakeFactory.sol\":22863:22875  tokenbalance */\n      dup6\n        /* \"StakeFactory.sol\":22863:22893  tokenbalance / params.stepSize */\n      tag_720\n      swap2\n      swap1\n      tag_302\n      jump\t// in\n    tag_720:\n        /* \"StakeFactory.sol\":22842:22893  uint256 multiplier = tokenbalance / params.stepSize */\n      swap1\n      pop\n        /* \"StakeFactory.sol\":22912:22930  uint256 minusValue */\n      0x00\n        /* \"StakeFactory.sol\":22946:22952  params */\n      dup3\n        /* \"StakeFactory.sol\":22946:22966  params.decrementStep */\n      0xa0\n      add\n      mload\n        /* \"StakeFactory.sol\":22933:22943  multiplier */\n      dup3\n        /* \"StakeFactory.sol\":22933:22966  multiplier * params.decrementStep */\n      tag_721\n      swap2\n      swap1\n      tag_287\n      jump\t// in\n    tag_721:\n        /* \"StakeFactory.sol\":22912:22966  uint256 minusValue = multiplier * params.decrementStep */\n      swap1\n      pop\n        /* \"StakeFactory.sol\":23022:23028  params */\n      dup3\n        /* \"StakeFactory.sol\":23022:23036  params.minRate */\n      0x80\n      add\n      mload\n        /* \"StakeFactory.sol\":23005:23011  params */\n      dup4\n        /* \"StakeFactory.sol\":23005:23019  params.maxRate */\n      0x60\n      add\n      mload\n        /* \"StakeFactory.sol\":23005:23036  params.maxRate - params.minRate */\n      tag_722\n      swap2\n      swap1\n      tag_323\n      jump\t// in\n    tag_722:\n        /* \"StakeFactory.sol\":22991:23001  minusValue */\n      dup2\n        /* \"StakeFactory.sol\":22991:23036  minusValue <= params.maxRate - params.minRate */\n      gt\n        /* \"StakeFactory.sol\":22987:23211  if (minusValue <= params.maxRate - params.minRate) {... */\n      tag_723\n      jumpi\n        /* \"StakeFactory.sol\":23098:23108  minusValue */\n      dup1\n        /* \"StakeFactory.sol\":23081:23087  params */\n      dup4\n        /* \"StakeFactory.sol\":23081:23095  params.maxRate */\n      0x60\n      add\n      mload\n        /* \"StakeFactory.sol\":23081:23108  params.maxRate - minusValue */\n      tag_724\n      swap2\n      swap1\n      tag_323\n      jump\t// in\n    tag_724:\n        /* \"StakeFactory.sol\":23061:23078  allocation[_days] */\n      0x00\n      dup6\n      dup2\n      mstore\n        /* \"StakeFactory.sol\":23061:23071  allocation */\n      0x04\n        /* \"StakeFactory.sol\":23061:23078  allocation[_days] */\n      0x20\n      mstore\n      0x40\n      swap1\n      keccak256\n        /* \"StakeFactory.sol\":23061:23108  allocation[_days] = params.maxRate - minusValue */\n      sstore\n        /* \"StakeFactory.sol\":22987:23211  if (minusValue <= params.maxRate - params.minRate) {... */\n      jump(tag_725)\n    tag_723:\n        /* \"StakeFactory.sol\":23177:23191  params.minRate */\n      0x80\n      dup4\n      add\n      mload\n        /* \"StakeFactory.sol\":23157:23174  allocation[_days] */\n      0x00\n      dup6\n      dup2\n      mstore\n        /* \"StakeFactory.sol\":23157:23167  allocation */\n      0x04\n        /* \"StakeFactory.sol\":23157:23174  allocation[_days] */\n      0x20\n      mstore\n      0x40\n      swap1\n      keccak256\n        /* \"StakeFactory.sol\":23157:23191  allocation[_days] = params.minRate */\n      sstore\n        /* \"StakeFactory.sol\":22987:23211  if (minusValue <= params.maxRate - params.minRate) {... */\n    tag_725:\n      pop\n      pop\n        /* \"StakeFactory.sol\":23277:23294  allocation[_days] */\n      0x00\n      dup3\n      dup2\n      mstore\n        /* \"StakeFactory.sol\":23277:23287  allocation */\n      0x04\n        /* \"StakeFactory.sol\":23277:23294  allocation[_days] */\n      0x20\n      swap1\n      dup2\n      mstore\n      0x40\n      dup1\n      dup4\n      keccak256\n      sload\n        /* \"StakeFactory.sol\":23229:23245  lockPeriodParams */\n      0x05\n        /* \"StakeFactory.sol\":23229:23252  lockPeriodParams[_days] */\n      swap1\n      swap3\n      mstore\n      swap1\n      swap2\n      keccak256\n        /* \"StakeFactory.sol\":23229:23274  lockPeriodParams[_days].percentageBasisPoints */\n      0x02\n      add\n        /* \"StakeFactory.sol\":23229:23294  lockPeriodParams[_days].percentageBasisPoints = allocation[_days] */\n      sstore\n        /* \"StakeFactory.sol\":22793:23310  if (!params.fixedBasisPoints) {... */\n    tag_719:\n        /* \"StakeFactory.sol\":22655:23321  {... */\n      pop\n      pop\n        /* \"StakeFactory.sol\":22650:22653  i++ */\n      dup1\n      dup1\n      tag_726\n      swap1\n      tag_306\n      jump\t// in\n    tag_726:\n      swap2\n      pop\n      pop\n        /* \"StakeFactory.sol\":22599:23321  for (uint256 i = 0; i < allowedLockPeriods.length; i++) {... */\n      jump(tag_713)\n    tag_308:\n      mload(0x40)\n      dup1\n      0x0120\n      add\n      0x40\n      mstore\n      dup1\n      0x00\n      dup2\n      mstore\n      0x20\n      add\n      0x00\n      dup2\n      mstore\n      0x20\n      add\n      0x00\n      dup2\n      mstore\n      0x20\n      add\n      0x00\n      dup2\n      mstore\n      0x20\n      add\n      0x00\n      dup2\n      mstore\n      0x20\n      add\n      0x00\n      dup2\n      mstore\n      0x20\n      add\n      0x00\n      dup2\n      mstore\n      0x20\n      add\n      iszero(iszero(0x00))\n      dup2\n      mstore\n      0x20\n      add\n      0x00\n      dup2\n      mstore\n      pop\n      swap1\n      jump\t// out\n    tag_330:\n      mload(0x40)\n      dup1\n      0x0100\n      add\n      0x40\n      mstore\n      dup1\n      and(sub(shl(0xa0, 0x01), 0x01), 0x00)\n      dup2\n      mstore\n      0x20\n      add\n      0x00\n      dup2\n      mstore\n      0x20\n      add\n      0x00\n      dup2\n      mstore\n      0x20\n      add\n      0x60\n      dup2\n      mstore\n      0x20\n      add\n      0x60\n      dup2\n      mstore\n      0x20\n      add\n      0x60\n      dup2\n      mstore\n      0x20\n      add\n      0x00\n      dup2\n      mstore\n      0x20\n      add\n      0x00\n      dup2\n      mstore\n      pop\n      swap1\n      jump\t// out\n        /* \"#utility.yul\":14:145   */\n    tag_727:\n      sub(shl(0xa0, 0x01), 0x01)\n        /* \"#utility.yul\":89:120   */\n      dup2\n      and\n        /* \"#utility.yul\":79:121   */\n      dup2\n      eq\n        /* \"#utility.yul\":69:139   */\n      tag_741\n      jumpi\n        /* \"#utility.yul\":135:136   */\n      0x00\n        /* \"#utility.yul\":132:133   */\n      dup1\n        /* \"#utility.yul\":125:137   */\n      revert\n        /* \"#utility.yul\":69:139   */\n    tag_741:\n        /* \"#utility.yul\":14:145   */\n      pop\n      jump\t// out\n        /* \"#utility.yul\":150:397   */\n    tag_58:\n        /* \"#utility.yul\":209:215   */\n      0x00\n        /* \"#utility.yul\":262:264   */\n      0x20\n        /* \"#utility.yul\":250:259   */\n      dup3\n        /* \"#utility.yul\":241:248   */\n      dup5\n        /* \"#utility.yul\":237:260   */\n      sub\n        /* \"#utility.yul\":233:265   */\n      slt\n        /* \"#utility.yul\":230:282   */\n      iszero\n      tag_743\n      jumpi\n        /* \"#utility.yul\":278:279   */\n      0x00\n        /* \"#utility.yul\":275:276   */\n      dup1\n        /* \"#utility.yul\":268:280   */\n      revert\n        /* \"#utility.yul\":230:282   */\n    tag_743:\n        /* \"#utility.yul\":317:326   */\n      dup2\n        /* \"#utility.yul\":304:327   */\n      calldataload\n        /* \"#utility.yul\":336:367   */\n      tag_455\n        /* \"#utility.yul\":361:366   */\n      dup2\n        /* \"#utility.yul\":336:367   */\n      tag_727\n      jump\t// in\n        /* \"#utility.yul\":584:764   */\n    tag_74:\n        /* \"#utility.yul\":643:649   */\n      0x00\n        /* \"#utility.yul\":696:698   */\n      0x20\n        /* \"#utility.yul\":684:693   */\n      dup3\n        /* \"#utility.yul\":675:682   */\n      dup5\n        /* \"#utility.yul\":671:694   */\n      sub\n        /* \"#utility.yul\":667:699   */\n      slt\n        /* \"#utility.yul\":664:716   */\n      iszero\n      tag_747\n      jumpi\n        /* \"#utility.yul\":712:713   */\n      0x00\n        /* \"#utility.yul\":709:710   */\n      dup1\n        /* \"#utility.yul\":702:714   */\n      revert\n        /* \"#utility.yul\":664:716   */\n    tag_747:\n      pop\n        /* \"#utility.yul\":735:758   */\n      calldataload\n      swap2\n        /* \"#utility.yul\":584:764   */\n      swap1\n      pop\n      jump\t// out\n        /* \"#utility.yul\":1743:2329   */\n    tag_728:\n        /* \"#utility.yul\":1831:1836   */\n      dup1\n        /* \"#utility.yul\":1825:1837   */\n      mload\n        /* \"#utility.yul\":1820:1823   */\n      dup3\n        /* \"#utility.yul\":1813:1838   */\n      mstore\n        /* \"#utility.yul\":1887:1891   */\n      0x20\n        /* \"#utility.yul\":1880:1885   */\n      dup2\n        /* \"#utility.yul\":1876:1892   */\n      add\n        /* \"#utility.yul\":1870:1893   */\n      mload\n        /* \"#utility.yul\":1863:1867   */\n      0x20\n        /* \"#utility.yul\":1858:1861   */\n      dup4\n        /* \"#utility.yul\":1854:1868   */\n      add\n        /* \"#utility.yul\":1847:1894   */\n      mstore\n        /* \"#utility.yul\":1943:1947   */\n      0x40\n        /* \"#utility.yul\":1936:1941   */\n      dup2\n        /* \"#utility.yul\":1932:1948   */\n      add\n        /* \"#utility.yul\":1926:1949   */\n      mload\n        /* \"#utility.yul\":1919:1923   */\n      0x40\n        /* \"#utility.yul\":1914:1917   */\n      dup4\n        /* \"#utility.yul\":1910:1924   */\n      add\n        /* \"#utility.yul\":1903:1950   */\n      mstore\n        /* \"#utility.yul\":1999:2003   */\n      0x60\n        /* \"#utility.yul\":1992:1997   */\n      dup2\n        /* \"#utility.yul\":1988:2004   */\n      add\n        /* \"#utility.yul\":1982:2005   */\n      mload\n        /* \"#utility.yul\":1975:1979   */\n      0x60\n        /* \"#utility.yul\":1970:1973   */\n      dup4\n        /* \"#utility.yul\":1966:1980   */\n      add\n        /* \"#utility.yul\":1959:2006   */\n      mstore\n        /* \"#utility.yul\":2055:2059   */\n      0x80\n        /* \"#utility.yul\":2048:2053   */\n      dup2\n        /* \"#utility.yul\":2044:2060   */\n      add\n        /* \"#utility.yul\":2038:2061   */\n      mload\n        /* \"#utility.yul\":2031:2035   */\n      0x80\n        /* \"#utility.yul\":2026:2029   */\n      dup4\n        /* \"#utility.yul\":2022:2036   */\n      add\n        /* \"#utility.yul\":2015:2062   */\n      mstore\n        /* \"#utility.yul\":2111:2115   */\n      0xa0\n        /* \"#utility.yul\":2104:2109   */\n      dup2\n        /* \"#utility.yul\":2100:2116   */\n      add\n        /* \"#utility.yul\":2094:2117   */\n      mload\n        /* \"#utility.yul\":2087:2091   */\n      0xa0\n        /* \"#utility.yul\":2082:2085   */\n      dup4\n        /* \"#utility.yul\":2078:2092   */\n      add\n        /* \"#utility.yul\":2071:2118   */\n      mstore\n        /* \"#utility.yul\":2167:2171   */\n      0xc0\n        /* \"#utility.yul\":2160:2165   */\n      dup2\n        /* \"#utility.yul\":2156:2172   */\n      add\n        /* \"#utility.yul\":2150:2173   */\n      mload\n        /* \"#utility.yul\":2143:2147   */\n      0xc0\n        /* \"#utility.yul\":2138:2141   */\n      dup4\n        /* \"#utility.yul\":2134:2148   */\n      add\n        /* \"#utility.yul\":2127:2174   */\n      mstore\n        /* \"#utility.yul\":2237:2241   */\n      0xe0\n        /* \"#utility.yul\":2230:2235   */\n      dup2\n        /* \"#utility.yul\":2226:2242   */\n      add\n        /* \"#utility.yul\":2220:2243   */\n      mload\n        /* \"#utility.yul\":2213:2244   */\n      iszero\n        /* \"#utility.yul\":2206:2245   */\n      iszero\n        /* \"#utility.yul\":2199:2203   */\n      0xe0\n        /* \"#utility.yul\":2194:2197   */\n      dup4\n        /* \"#utility.yul\":2190:2204   */\n      add\n        /* \"#utility.yul\":2183:2246   */\n      mstore\n        /* \"#utility.yul\":2265:2271   */\n      0x0100\n        /* \"#utility.yul\":2318:2320   */\n      dup1\n        /* \"#utility.yul\":2311:2316   */\n      dup3\n        /* \"#utility.yul\":2307:2321   */\n      add\n        /* \"#utility.yul\":2301:2322   */\n      mload\n        /* \"#utility.yul\":2296:2298   */\n      dup2\n        /* \"#utility.yul\":2291:2294   */\n      dup5\n        /* \"#utility.yul\":2287:2299   */\n      add\n        /* \"#utility.yul\":2280:2323   */\n      mstore\n      pop\n        /* \"#utility.yul\":1743:2329   */\n      pop\n      pop\n      jump\t// out\n        /* \"#utility.yul\":2334:2606   */\n    tag_108:\n        /* \"#utility.yul\":2534:2537   */\n      0x0120\n        /* \"#utility.yul\":2519:2538   */\n      dup2\n      add\n        /* \"#utility.yul\":2547:2600   */\n      tag_752\n        /* \"#utility.yul\":2523:2532   */\n      dup3\n        /* \"#utility.yul\":2582:2588   */\n      dup5\n        /* \"#utility.yul\":2547:2600   */\n      tag_728\n      jump\t// in\n    tag_752:\n        /* \"#utility.yul\":2334:2606   */\n      swap3\n      swap2\n      pop\n      pop\n      jump\t// out\n        /* \"#utility.yul\":2611:3243   */\n    tag_113:\n        /* \"#utility.yul\":2782:2784   */\n      0x20\n        /* \"#utility.yul\":2834:2855   */\n      dup1\n      dup3\n      mstore\n        /* \"#utility.yul\":2904:2917   */\n      dup3\n      mload\n        /* \"#utility.yul\":2807:2825   */\n      dup3\n      dup3\n      add\n        /* \"#utility.yul\":2926:2948   */\n      dup2\n      swap1\n      mstore\n        /* \"#utility.yul\":2753:2757   */\n      0x00\n      swap2\n        /* \"#utility.yul\":2782:2784   */\n      swap1\n        /* \"#utility.yul\":3005:3020   */\n      dup5\n      dup3\n      add\n      swap1\n        /* \"#utility.yul\":2979:2981   */\n      0x40\n        /* \"#utility.yul\":2964:2982   */\n      dup6\n      add\n      swap1\n        /* \"#utility.yul\":2753:2757   */\n      dup5\n        /* \"#utility.yul\":3048:3217   */\n    tag_754:\n        /* \"#utility.yul\":3062:3068   */\n      dup2\n        /* \"#utility.yul\":3059:3060   */\n      dup2\n        /* \"#utility.yul\":3056:3069   */\n      lt\n        /* \"#utility.yul\":3048:3217   */\n      iszero\n      tag_756\n      jumpi\n        /* \"#utility.yul\":3123:3136   */\n      dup4\n      mload\n        /* \"#utility.yul\":3111:3137   */\n      dup4\n      mstore\n        /* \"#utility.yul\":3192:3207   */\n      swap3\n      dup5\n      add\n      swap3\n        /* \"#utility.yul\":3157:3169   */\n      swap2\n      dup5\n      add\n      swap2\n        /* \"#utility.yul\":3084:3085   */\n      0x01\n        /* \"#utility.yul\":3077:3086   */\n      add\n        /* \"#utility.yul\":3048:3217   */\n      jump(tag_754)\n    tag_756:\n      pop\n        /* \"#utility.yul\":3234:3237   */\n      swap1\n      swap7\n        /* \"#utility.yul\":2611:3243   */\n      swap6\n      pop\n      pop\n      pop\n      pop\n      pop\n      pop\n      jump\t// out\n        /* \"#utility.yul\":3248:3496   */\n    tag_117:\n        /* \"#utility.yul\":3316:3322   */\n      0x00\n        /* \"#utility.yul\":3324:3330   */\n      dup1\n        /* \"#utility.yul\":3377:3379   */\n      0x40\n        /* \"#utility.yul\":3365:3374   */\n      dup4\n        /* \"#utility.yul\":3356:3363   */\n      dup6\n        /* \"#utility.yul\":3352:3375   */\n      sub\n        /* \"#utility.yul\":3348:3380   */\n      slt\n        /* \"#utility.yul\":3345:3397   */\n      iszero\n      tag_758\n      jumpi\n        /* \"#utility.yul\":3393:3394   */\n      0x00\n        /* \"#utility.yul\":3390:3391   */\n      dup1\n        /* \"#utility.yul\":3383:3395   */\n      revert\n        /* \"#utility.yul\":3345:3397   */\n    tag_758:\n      pop\n      pop\n        /* \"#utility.yul\":3416:3439   */\n      dup1\n      calldataload\n      swap3\n        /* \"#utility.yul\":3486:3488   */\n      0x20\n        /* \"#utility.yul\":3471:3489   */\n      swap1\n      swap2\n      add\n        /* \"#utility.yul\":3458:3490   */\n      calldataload\n      swap2\n      pop\n        /* \"#utility.yul\":3248:3496   */\n      jump\t// out\n        /* \"#utility.yul\":3501:3936   */\n    tag_729:\n        /* \"#utility.yul\":3554:3557   */\n      0x00\n        /* \"#utility.yul\":3592:3597   */\n      dup2\n        /* \"#utility.yul\":3586:3598   */\n      mload\n        /* \"#utility.yul\":3619:3625   */\n      dup1\n        /* \"#utility.yul\":3614:3617   */\n      dup5\n        /* \"#utility.yul\":3607:3626   */\n      mstore\n        /* \"#utility.yul\":3645:3649   */\n      0x20\n        /* \"#utility.yul\":3674:3676   */\n      dup1\n        /* \"#utility.yul\":3669:3672   */\n      dup6\n        /* \"#utility.yul\":3665:3677   */\n      add\n        /* \"#utility.yul\":3658:3677   */\n      swap5\n      pop\n        /* \"#utility.yul\":3711:3713   */\n      dup1\n        /* \"#utility.yul\":3704:3709   */\n      dup5\n        /* \"#utility.yul\":3700:3714   */\n      add\n        /* \"#utility.yul\":3732:3733   */\n      0x00\n        /* \"#utility.yul\":3742:3911   */\n    tag_760:\n        /* \"#utility.yul\":3756:3762   */\n      dup4\n        /* \"#utility.yul\":3753:3754   */\n      dup2\n        /* \"#utility.yul\":3750:3763   */\n      lt\n        /* \"#utility.yul\":3742:3911   */\n      iszero\n      tag_762\n      jumpi\n        /* \"#utility.yul\":3817:3830   */\n      dup2\n      mload\n        /* \"#utility.yul\":3805:3831   */\n      dup8\n      mstore\n        /* \"#utility.yul\":3851:3863   */\n      swap6\n      dup3\n      add\n      swap6\n        /* \"#utility.yul\":3886:3901   */\n      swap1\n      dup3\n      add\n      swap1\n        /* \"#utility.yul\":3778:3779   */\n      0x01\n        /* \"#utility.yul\":3771:3780   */\n      add\n        /* \"#utility.yul\":3742:3911   */\n      jump(tag_760)\n    tag_762:\n      pop\n        /* \"#utility.yul\":3927:3930   */\n      swap5\n      swap6\n        /* \"#utility.yul\":3501:3936   */\n      swap5\n      pop\n      pop\n      pop\n      pop\n      pop\n      jump\t// out\n        /* \"#utility.yul\":3941:4854   */\n    tag_730:\n        /* \"#utility.yul\":3992:3995   */\n      0x00\n        /* \"#utility.yul\":4020:4026   */\n      0x0100\n        /* \"#utility.yul\":4082:4083   */\n      0x01\n        /* \"#utility.yul\":4078:4079   */\n      dup1\n        /* \"#utility.yul\":4073:4076   */\n      0xa0\n        /* \"#utility.yul\":4069:4080   */\n      shl\n        /* \"#utility.yul\":4065:4084   */\n      sub\n        /* \"#utility.yul\":4057:4062   */\n      dup4\n        /* \"#utility.yul\":4051:4063   */\n      mload\n        /* \"#utility.yul\":4047:4085   */\n      and\n        /* \"#utility.yul\":4042:4045   */\n      dup5\n        /* \"#utility.yul\":4035:4086   */\n      mstore\n        /* \"#utility.yul\":4135:4139   */\n      0x20\n        /* \"#utility.yul\":4128:4133   */\n      dup4\n        /* \"#utility.yul\":4124:4140   */\n      add\n        /* \"#utility.yul\":4118:4141   */\n      mload\n        /* \"#utility.yul\":4111:4115   */\n      0x20\n        /* \"#utility.yul\":4106:4109   */\n      dup6\n        /* \"#utility.yul\":4102:4116   */\n      add\n        /* \"#utility.yul\":4095:4142   */\n      mstore\n        /* \"#utility.yul\":4191:4195   */\n      0x40\n        /* \"#utility.yul\":4184:4189   */\n      dup4\n        /* \"#utility.yul\":4180:4196   */\n      add\n        /* \"#utility.yul\":4174:4197   */\n      mload\n        /* \"#utility.yul\":4167:4171   */\n      0x40\n        /* \"#utility.yul\":4162:4165   */\n      dup6\n        /* \"#utility.yul\":4158:4172   */\n      add\n        /* \"#utility.yul\":4151:4198   */\n      mstore\n        /* \"#utility.yul\":4244:4248   */\n      0x60\n        /* \"#utility.yul\":4237:4242   */\n      dup4\n        /* \"#utility.yul\":4233:4249   */\n      add\n        /* \"#utility.yul\":4227:4250   */\n      mload\n        /* \"#utility.yul\":4282:4284   */\n      dup2\n        /* \"#utility.yul\":4275:4279   */\n      0x60\n        /* \"#utility.yul\":4270:4273   */\n      dup7\n        /* \"#utility.yul\":4266:4280   */\n      add\n        /* \"#utility.yul\":4259:4285   */\n      mstore\n        /* \"#utility.yul\":4306:4362   */\n      tag_764\n        /* \"#utility.yul\":4358:4360   */\n      dup3\n        /* \"#utility.yul\":4353:4356   */\n      dup7\n        /* \"#utility.yul\":4349:4361   */\n      add\n        /* \"#utility.yul\":4335:4347   */\n      dup3\n        /* \"#utility.yul\":4306:4362   */\n      tag_729\n      jump\t// in\n    tag_764:\n        /* \"#utility.yul\":4294:4362   */\n      swap2\n      pop\n      pop\n        /* \"#utility.yul\":4410:4414   */\n      0x80\n        /* \"#utility.yul\":4403:4408   */\n      dup4\n        /* \"#utility.yul\":4399:4415   */\n      add\n        /* \"#utility.yul\":4393:4416   */\n      mload\n        /* \"#utility.yul\":4458:4461   */\n      dup5\n        /* \"#utility.yul\":4452:4456   */\n      dup3\n        /* \"#utility.yul\":4448:4462   */\n      sub\n        /* \"#utility.yul\":4441:4445   */\n      0x80\n        /* \"#utility.yul\":4436:4439   */\n      dup7\n        /* \"#utility.yul\":4432:4446   */\n      add\n        /* \"#utility.yul\":4425:4463   */\n      mstore\n        /* \"#utility.yul\":4486:4536   */\n      tag_765\n        /* \"#utility.yul\":4531:4535   */\n      dup3\n        /* \"#utility.yul\":4515:4529   */\n      dup3\n        /* \"#utility.yul\":4486:4536   */\n      tag_729\n      jump\t// in\n    tag_765:\n        /* \"#utility.yul\":4472:4536   */\n      swap2\n      pop\n      pop\n        /* \"#utility.yul\":4584:4588   */\n      0xa0\n        /* \"#utility.yul\":4577:4582   */\n      dup4\n        /* \"#utility.yul\":4573:4589   */\n      add\n        /* \"#utility.yul\":4567:4590   */\n      mload\n        /* \"#utility.yul\":4634:4637   */\n      dup5\n        /* \"#utility.yul\":4626:4632   */\n      dup3\n        /* \"#utility.yul\":4622:4638   */\n      sub\n        /* \"#utility.yul\":4615:4619   */\n      0xa0\n        /* \"#utility.yul\":4610:4613   */\n      dup7\n        /* \"#utility.yul\":4606:4620   */\n      add\n        /* \"#utility.yul\":4599:4639   */\n      mstore\n        /* \"#utility.yul\":4662:4714   */\n      tag_766\n        /* \"#utility.yul\":4707:4713   */\n      dup3\n        /* \"#utility.yul\":4691:4705   */\n      dup3\n        /* \"#utility.yul\":4662:4714   */\n      tag_729\n      jump\t// in\n    tag_766:\n        /* \"#utility.yul\":4648:4714   */\n      swap2\n      pop\n      pop\n        /* \"#utility.yul\":4763:4767   */\n      0xc0\n        /* \"#utility.yul\":4756:4761   */\n      dup4\n        /* \"#utility.yul\":4752:4768   */\n      add\n        /* \"#utility.yul\":4746:4769   */\n      mload\n        /* \"#utility.yul\":4739:4743   */\n      0xc0\n        /* \"#utility.yul\":4734:4737   */\n      dup6\n        /* \"#utility.yul\":4730:4744   */\n      add\n        /* \"#utility.yul\":4723:4770   */\n      mstore\n        /* \"#utility.yul\":4819:4823   */\n      0xe0\n        /* \"#utility.yul\":4812:4817   */\n      dup4\n        /* \"#utility.yul\":4808:4824   */\n      add\n        /* \"#utility.yul\":4802:4825   */\n      mload\n        /* \"#utility.yul\":4795:4799   */\n      0xe0\n        /* \"#utility.yul\":4790:4793   */\n      dup6\n        /* \"#utility.yul\":4786:4800   */\n      add\n        /* \"#utility.yul\":4779:4826   */\n      mstore\n        /* \"#utility.yul\":4842:4848   */\n      dup1\n        /* \"#utility.yul\":4835:4848   */\n      swap2\n      pop\n      pop\n        /* \"#utility.yul\":3941:4854   */\n      swap3\n      swap2\n      pop\n      pop\n      jump\t// out\n        /* \"#utility.yul\":4859:5701   */\n    tag_120:\n        /* \"#utility.yul\":5051:5055   */\n      0x00\n        /* \"#utility.yul\":5080:5082   */\n      0x20\n        /* \"#utility.yul\":5120:5122   */\n      dup1\n        /* \"#utility.yul\":5109:5118   */\n      dup4\n        /* \"#utility.yul\":5105:5123   */\n      add\n        /* \"#utility.yul\":5150:5152   */\n      dup2\n        /* \"#utility.yul\":5139:5148   */\n      dup5\n        /* \"#utility.yul\":5132:5153   */\n      mstore\n        /* \"#utility.yul\":5173:5179   */\n      dup1\n        /* \"#utility.yul\":5208:5214   */\n      dup6\n        /* \"#utility.yul\":5202:5215   */\n      mload\n        /* \"#utility.yul\":5239:5245   */\n      dup1\n        /* \"#utility.yul\":5231:5237   */\n      dup4\n        /* \"#utility.yul\":5224:5246   */\n      mstore\n        /* \"#utility.yul\":5277:5279   */\n      0x40\n        /* \"#utility.yul\":5266:5275   */\n      dup7\n        /* \"#utility.yul\":5262:5280   */\n      add\n        /* \"#utility.yul\":5255:5280   */\n      swap2\n      pop\n        /* \"#utility.yul\":5339:5341   */\n      0x40\n        /* \"#utility.yul\":5329:5335   */\n      dup2\n        /* \"#utility.yul\":5326:5327   */\n      0x05\n        /* \"#utility.yul\":5322:5336   */\n      shl\n        /* \"#utility.yul\":5311:5320   */\n      dup8\n        /* \"#utility.yul\":5307:5337   */\n      add\n        /* \"#utility.yul\":5303:5342   */\n      add\n        /* \"#utility.yul\":5289:5342   */\n      swap3\n      pop\n        /* \"#utility.yul\":5377:5379   */\n      dup4\n        /* \"#utility.yul\":5369:5375   */\n      dup8\n        /* \"#utility.yul\":5365:5380   */\n      add\n        /* \"#utility.yul\":5398:5399   */\n      0x00\n        /* \"#utility.yul\":5408:5672   */\n    tag_768:\n        /* \"#utility.yul\":5422:5428   */\n      dup3\n        /* \"#utility.yul\":5419:5420   */\n      dup2\n        /* \"#utility.yul\":5416:5429   */\n      lt\n        /* \"#utility.yul\":5408:5672   */\n      iszero\n      tag_770\n      jumpi\n        /* \"#utility.yul\":5515:5517   */\n      0x3f\n        /* \"#utility.yul\":5511:5518   */\n      not\n        /* \"#utility.yul\":5499:5508   */\n      dup9\n        /* \"#utility.yul\":5491:5497   */\n      dup7\n        /* \"#utility.yul\":5487:5509   */\n      sub\n        /* \"#utility.yul\":5483:5519   */\n      add\n        /* \"#utility.yul\":5478:5481   */\n      dup5\n        /* \"#utility.yul\":5471:5520   */\n      mstore\n        /* \"#utility.yul\":5543:5592   */\n      tag_771\n        /* \"#utility.yul\":5585:5591   */\n      dup6\n        /* \"#utility.yul\":5576:5582   */\n      dup4\n        /* \"#utility.yul\":5570:5583   */\n      mload\n        /* \"#utility.yul\":5543:5592   */\n      tag_730\n      jump\t// in\n    tag_771:\n        /* \"#utility.yul\":5533:5592   */\n      swap5\n      pop\n        /* \"#utility.yul\":5650:5662   */\n      swap3\n      dup6\n      add\n      swap3\n        /* \"#utility.yul\":5615:5630   */\n      swap1\n      dup6\n      add\n      swap1\n        /* \"#utility.yul\":5444:5445   */\n      0x01\n        /* \"#utility.yul\":5437:5446   */\n      add\n        /* \"#utility.yul\":5408:5672   */\n      jump(tag_768)\n    tag_770:\n      pop\n        /* \"#utility.yul\":5689:5695   */\n      swap3\n      swap8\n        /* \"#utility.yul\":4859:5701   */\n      swap7\n      pop\n      pop\n      pop\n      pop\n      pop\n      pop\n      pop\n      jump\t// out\n        /* \"#utility.yul\":5898:6156   */\n    tag_731:\n        /* \"#utility.yul\":5970:5971   */\n      0x00\n        /* \"#utility.yul\":5980:6093   */\n    tag_774:\n        /* \"#utility.yul\":5994:6000   */\n      dup4\n        /* \"#utility.yul\":5991:5992   */\n      dup2\n        /* \"#utility.yul\":5988:6001   */\n      lt\n        /* \"#utility.yul\":5980:6093   */\n      iszero\n      tag_776\n      jumpi\n        /* \"#utility.yul\":6070:6081   */\n      dup2\n      dup2\n      add\n        /* \"#utility.yul\":6064:6082   */\n      mload\n        /* \"#utility.yul\":6051:6062   */\n      dup4\n      dup3\n      add\n        /* \"#utility.yul\":6044:6083   */\n      mstore\n        /* \"#utility.yul\":6016:6018   */\n      0x20\n        /* \"#utility.yul\":6009:6019   */\n      add\n        /* \"#utility.yul\":5980:6093   */\n      jump(tag_774)\n    tag_776:\n        /* \"#utility.yul\":6111:6117   */\n      dup4\n        /* \"#utility.yul\":6108:6109   */\n      dup2\n        /* \"#utility.yul\":6105:6118   */\n      gt\n        /* \"#utility.yul\":6102:6150   */\n      iszero\n      tag_777\n      jumpi\n        /* \"#utility.yul\":6146:6147   */\n      0x00\n        /* \"#utility.yul\":6137:6143   */\n      dup5\n        /* \"#utility.yul\":6132:6135   */\n      dup5\n        /* \"#utility.yul\":6128:6144   */\n      add\n        /* \"#utility.yul\":6121:6148   */\n      mstore\n        /* \"#utility.yul\":6102:6150   */\n    tag_777:\n      pop\n        /* \"#utility.yul\":5898:6156   */\n      pop\n      pop\n      pop\n      jump\t// out\n        /* \"#utility.yul\":6161:6419   */\n    tag_732:\n        /* \"#utility.yul\":6203:6206   */\n      0x00\n        /* \"#utility.yul\":6241:6246   */\n      dup2\n        /* \"#utility.yul\":6235:6247   */\n      mload\n        /* \"#utility.yul\":6268:6274   */\n      dup1\n        /* \"#utility.yul\":6263:6266   */\n      dup5\n        /* \"#utility.yul\":6256:6275   */\n      mstore\n        /* \"#utility.yul\":6284:6347   */\n      tag_779\n        /* \"#utility.yul\":6340:6346   */\n      dup2\n        /* \"#utility.yul\":6333:6337   */\n      0x20\n        /* \"#utility.yul\":6328:6331   */\n      dup7\n        /* \"#utility.yul\":6324:6338   */\n      add\n        /* \"#utility.yul\":6317:6321   */\n      0x20\n        /* \"#utility.yul\":6310:6315   */\n      dup7\n        /* \"#utility.yul\":6306:6322   */\n      add\n        /* \"#utility.yul\":6284:6347   */\n      tag_731\n      jump\t// in\n    tag_779:\n        /* \"#utility.yul\":6401:6403   */\n      0x1f\n        /* \"#utility.yul\":6380:6395   */\n      add\n      not(0x1f)\n        /* \"#utility.yul\":6376:6405   */\n      and\n        /* \"#utility.yul\":6367:6406   */\n      swap3\n      swap1\n      swap3\n      add\n        /* \"#utility.yul\":6408:6412   */\n      0x20\n        /* \"#utility.yul\":6363:6413   */\n      add\n      swap3\n        /* \"#utility.yul\":6161:6419   */\n      swap2\n      pop\n      pop\n      jump\t// out\n        /* \"#utility.yul\":6424:7056   */\n    tag_142:\n      sub(shl(0xa0, 0x01), 0x01)\n        /* \"#utility.yul\":6701:6733   */\n      dup7\n      and\n        /* \"#utility.yul\":6683:6734   */\n      dup2\n      mstore\n        /* \"#utility.yul\":6721:6724   */\n      0xa0\n        /* \"#utility.yul\":6765:6767   */\n      0x20\n        /* \"#utility.yul\":6750:6768   */\n      dup3\n      add\n        /* \"#utility.yul\":6743:6774   */\n      dup2\n      swap1\n      mstore\n      0x00\n      swap1\n        /* \"#utility.yul\":6797:6843   */\n      tag_781\n      swap1\n        /* \"#utility.yul\":6823:6842   */\n      dup4\n      add\n        /* \"#utility.yul\":6815:6821   */\n      dup8\n        /* \"#utility.yul\":6797:6843   */\n      tag_732\n      jump\t// in\n    tag_781:\n        /* \"#utility.yul\":6891:6900   */\n      dup3\n        /* \"#utility.yul\":6883:6889   */\n      dup2\n        /* \"#utility.yul\":6879:6901   */\n      sub\n        /* \"#utility.yul\":6874:6876   */\n      0x40\n        /* \"#utility.yul\":6863:6872   */\n      dup5\n        /* \"#utility.yul\":6859:6877   */\n      add\n        /* \"#utility.yul\":6852:6902   */\n      mstore\n        /* \"#utility.yul\":6919:6952   */\n      tag_782\n        /* \"#utility.yul\":6945:6951   */\n      dup2\n        /* \"#utility.yul\":6937:6943   */\n      dup8\n        /* \"#utility.yul\":6919:6952   */\n      tag_732\n      jump\t// in\n    tag_782:\n        /* \"#utility.yul\":7000:7004   */\n      0xff\n        /* \"#utility.yul\":6988:7005   */\n      swap6\n      swap1\n      swap6\n      and\n        /* \"#utility.yul\":6983:6985   */\n      0x60\n        /* \"#utility.yul\":6968:6986   */\n      dup5\n      add\n        /* \"#utility.yul\":6961:7006   */\n      mstore\n      pop\n      pop\n        /* \"#utility.yul\":7037:7040   */\n      0x80\n        /* \"#utility.yul\":7022:7041   */\n      add\n        /* \"#utility.yul\":7015:7050   */\n      mstore\n        /* \"#utility.yul\":6911:6952   */\n      swap4\n        /* \"#utility.yul\":6424:7056   */\n      swap3\n      pop\n      pop\n      pop\n      jump\t// out\n        /* \"#utility.yul\":7061:7320   */\n    tag_160:\n        /* \"#utility.yul\":7240:7242   */\n      0x20\n        /* \"#utility.yul\":7229:7238   */\n      dup2\n        /* \"#utility.yul\":7222:7243   */\n      mstore\n        /* \"#utility.yul\":7203:7207   */\n      0x00\n        /* \"#utility.yul\":7260:7314   */\n      tag_455\n        /* \"#utility.yul\":7310:7312   */\n      0x20\n        /* \"#utility.yul\":7299:7308   */\n      dup4\n        /* \"#utility.yul\":7295:7313   */\n      add\n        /* \"#utility.yul\":7287:7293   */\n      dup5\n        /* \"#utility.yul\":7260:7314   */\n      tag_730\n      jump\t// in\n        /* \"#utility.yul\":7325:7653   */\n    tag_173:\n        /* \"#utility.yul\":7406:7412   */\n      0x00\n        /* \"#utility.yul\":7414:7420   */\n      dup1\n        /* \"#utility.yul\":7467:7469   */\n      0x40\n        /* \"#utility.yul\":7455:7464   */\n      dup4\n        /* \"#utility.yul\":7446:7453   */\n      dup6\n        /* \"#utility.yul\":7442:7465   */\n      sub\n        /* \"#utility.yul\":7438:7470   */\n      slt\n        /* \"#utility.yul\":7435:7487   */\n      iszero\n      tag_786\n      jumpi\n        /* \"#utility.yul\":7483:7484   */\n      0x00\n        /* \"#utility.yul\":7480:7481   */\n      dup1\n        /* \"#utility.yul\":7473:7485   */\n      revert\n        /* \"#utility.yul\":7435:7487   */\n    tag_786:\n        /* \"#utility.yul\":7522:7531   */\n      dup3\n        /* \"#utility.yul\":7509:7532   */\n      calldataload\n        /* \"#utility.yul\":7541:7572   */\n      tag_787\n        /* \"#utility.yul\":7566:7571   */\n      dup2\n        /* \"#utility.yul\":7541:7572   */\n      tag_727\n      jump\t// in\n    tag_787:\n        /* \"#utility.yul\":7591:7596   */\n      swap5\n        /* \"#utility.yul\":7643:7645   */\n      0x20\n        /* \"#utility.yul\":7628:7646   */\n      swap4\n      swap1\n      swap4\n      add\n        /* \"#utility.yul\":7615:7647   */\n      calldataload\n      swap4\n      pop\n      pop\n      pop\n        /* \"#utility.yul\":7325:7653   */\n      jump\t// out\n        /* \"#utility.yul\":7978:8092   */\n    tag_733:\n        /* \"#utility.yul\":8062:8066   */\n      0xff\n        /* \"#utility.yul\":8055:8060   */\n      dup2\n        /* \"#utility.yul\":8051:8067   */\n      and\n        /* \"#utility.yul\":8044:8049   */\n      dup2\n        /* \"#utility.yul\":8041:8068   */\n      eq\n        /* \"#utility.yul\":8031:8086   */\n      tag_741\n      jumpi\n        /* \"#utility.yul\":8082:8083   */\n      0x00\n        /* \"#utility.yul\":8079:8080   */\n      dup1\n        /* \"#utility.yul\":8072:8084   */\n      revert\n        /* \"#utility.yul\":8097:8545   */\n    tag_189:\n        /* \"#utility.yul\":8170:8176   */\n      0x00\n        /* \"#utility.yul\":8178:8184   */\n      dup1\n        /* \"#utility.yul\":8186:8192   */\n      0x00\n        /* \"#utility.yul\":8239:8241   */\n      0x60\n        /* \"#utility.yul\":8227:8236   */\n      dup5\n        /* \"#utility.yul\":8218:8225   */\n      dup7\n        /* \"#utility.yul\":8214:8237   */\n      sub\n        /* \"#utility.yul\":8210:8242   */\n      slt\n        /* \"#utility.yul\":8207:8259   */\n      iszero\n      tag_794\n      jumpi\n        /* \"#utility.yul\":8255:8256   */\n      0x00\n        /* \"#utility.yul\":8252:8253   */\n      dup1\n        /* \"#utility.yul\":8245:8257   */\n      revert\n        /* \"#utility.yul\":8207:8259   */\n    tag_794:\n        /* \"#utility.yul\":8291:8300   */\n      dup4\n        /* \"#utility.yul\":8278:8301   */\n      calldataload\n        /* \"#utility.yul\":8268:8301   */\n      swap3\n      pop\n        /* \"#utility.yul\":8351:8353   */\n      0x20\n        /* \"#utility.yul\":8340:8349   */\n      dup5\n        /* \"#utility.yul\":8336:8354   */\n      add\n        /* \"#utility.yul\":8323:8355   */\n      calldataload\n        /* \"#utility.yul\":8364:8393   */\n      tag_795\n        /* \"#utility.yul\":8387:8392   */\n      dup2\n        /* \"#utility.yul\":8364:8393   */\n      tag_733\n      jump\t// in\n    tag_795:\n        /* \"#utility.yul\":8412:8417   */\n      swap2\n      pop\n        /* \"#utility.yul\":8469:8471   */\n      0x40\n        /* \"#utility.yul\":8454:8472   */\n      dup5\n      add\n        /* \"#utility.yul\":8441:8473   */\n      calldataload\n        /* \"#utility.yul\":8482:8513   */\n      tag_796\n        /* \"#utility.yul\":8441:8473   */\n      dup2\n        /* \"#utility.yul\":8482:8513   */\n      tag_733\n      jump\t// in\n    tag_796:\n        /* \"#utility.yul\":8532:8539   */\n      dup1\n        /* \"#utility.yul\":8522:8539   */\n      swap2\n      pop\n      pop\n        /* \"#utility.yul\":8097:8545   */\n      swap3\n      pop\n      swap3\n      pop\n      swap3\n      jump\t// out\n        /* \"#utility.yul\":8550:8668   */\n    tag_734:\n        /* \"#utility.yul\":8636:8641   */\n      dup1\n        /* \"#utility.yul\":8629:8642   */\n      iszero\n        /* \"#utility.yul\":8622:8643   */\n      iszero\n        /* \"#utility.yul\":8615:8620   */\n      dup2\n        /* \"#utility.yul\":8612:8644   */\n      eq\n        /* \"#utility.yul\":8602:8662   */\n      tag_741\n      jumpi\n        /* \"#utility.yul\":8658:8659   */\n      0x00\n        /* \"#utility.yul\":8655:8656   */\n      dup1\n        /* \"#utility.yul\":8648:8660   */\n      revert\n        /* \"#utility.yul\":8673:9395   */\n    tag_195:\n        /* \"#utility.yul\":8792:8798   */\n      0x00\n        /* \"#utility.yul\":8800:8806   */\n      dup1\n        /* \"#utility.yul\":8808:8814   */\n      0x00\n        /* \"#utility.yul\":8816:8822   */\n      dup1\n        /* \"#utility.yul\":8824:8830   */\n      0x00\n        /* \"#utility.yul\":8832:8838   */\n      dup1\n        /* \"#utility.yul\":8840:8846   */\n      0x00\n        /* \"#utility.yul\":8848:8854   */\n      dup1\n        /* \"#utility.yul\":8901:8904   */\n      0x0100\n        /* \"#utility.yul\":8889:8898   */\n      dup10\n        /* \"#utility.yul\":8880:8887   */\n      dup12\n        /* \"#utility.yul\":8876:8899   */\n      sub\n        /* \"#utility.yul\":8872:8905   */\n      slt\n        /* \"#utility.yul\":8869:8922   */\n      iszero\n      tag_800\n      jumpi\n        /* \"#utility.yul\":8918:8919   */\n      0x00\n        /* \"#utility.yul\":8915:8916   */\n      dup1\n        /* \"#utility.yul\":8908:8920   */\n      revert\n        /* \"#utility.yul\":8869:8922   */\n    tag_800:\n        /* \"#utility.yul\":8954:8963   */\n      dup9\n        /* \"#utility.yul\":8941:8964   */\n      calldataload\n        /* \"#utility.yul\":8931:8964   */\n      swap8\n      pop\n        /* \"#utility.yul\":9011:9013   */\n      0x20\n        /* \"#utility.yul\":9000:9009   */\n      dup10\n        /* \"#utility.yul\":8996:9014   */\n      add\n        /* \"#utility.yul\":8983:9015   */\n      calldataload\n        /* \"#utility.yul\":8973:9015   */\n      swap7\n      pop\n        /* \"#utility.yul\":9062:9064   */\n      0x40\n        /* \"#utility.yul\":9051:9060   */\n      dup10\n        /* \"#utility.yul\":9047:9065   */\n      add\n        /* \"#utility.yul\":9034:9066   */\n      calldataload\n        /* \"#utility.yul\":9024:9066   */\n      swap6\n      pop\n        /* \"#utility.yul\":9113:9115   */\n      0x60\n        /* \"#utility.yul\":9102:9111   */\n      dup10\n        /* \"#utility.yul\":9098:9116   */\n      add\n        /* \"#utility.yul\":9085:9117   */\n      calldataload\n        /* \"#utility.yul\":9075:9117   */\n      swap5\n      pop\n        /* \"#utility.yul\":9164:9167   */\n      0x80\n        /* \"#utility.yul\":9153:9162   */\n      dup10\n        /* \"#utility.yul\":9149:9168   */\n      add\n        /* \"#utility.yul\":9136:9169   */\n      calldataload\n        /* \"#utility.yul\":9126:9169   */\n      swap4\n      pop\n        /* \"#utility.yul\":9216:9219   */\n      0xa0\n        /* \"#utility.yul\":9205:9214   */\n      dup10\n        /* \"#utility.yul\":9201:9220   */\n      add\n        /* \"#utility.yul\":9188:9221   */\n      calldataload\n        /* \"#utility.yul\":9178:9221   */\n      swap3\n      pop\n        /* \"#utility.yul\":9268:9271   */\n      0xc0\n        /* \"#utility.yul\":9257:9266   */\n      dup10\n        /* \"#utility.yul\":9253:9272   */\n      add\n        /* \"#utility.yul\":9240:9273   */\n      calldataload\n        /* \"#utility.yul\":9230:9273   */\n      swap2\n      pop\n        /* \"#utility.yul\":9323:9326   */\n      0xe0\n        /* \"#utility.yul\":9312:9321   */\n      dup10\n        /* \"#utility.yul\":9308:9327   */\n      add\n        /* \"#utility.yul\":9295:9328   */\n      calldataload\n        /* \"#utility.yul\":9337:9365   */\n      tag_801\n        /* \"#utility.yul\":9359:9364   */\n      dup2\n        /* \"#utility.yul\":9337:9365   */\n      tag_734\n      jump\t// in\n    tag_801:\n        /* \"#utility.yul\":9384:9389   */\n      dup1\n        /* \"#utility.yul\":9374:9389   */\n      swap2\n      pop\n      pop\n        /* \"#utility.yul\":8673:9395   */\n      swap3\n      swap6\n      swap9\n      pop\n      swap3\n      swap6\n      swap9\n      swap1\n      swap4\n      swap7\n      pop\n      jump\t// out\n        /* \"#utility.yul\":9810:9937   */\n    tag_326:\n        /* \"#utility.yul\":9871:9881   */\n      0x4e487b71\n        /* \"#utility.yul\":9866:9869   */\n      0xe0\n        /* \"#utility.yul\":9862:9882   */\n      shl\n        /* \"#utility.yul\":9859:9860   */\n      0x00\n        /* \"#utility.yul\":9852:9883   */\n      mstore\n        /* \"#utility.yul\":9902:9906   */\n      0x41\n        /* \"#utility.yul\":9899:9900   */\n      0x04\n        /* \"#utility.yul\":9892:9907   */\n      mstore\n        /* \"#utility.yul\":9926:9930   */\n      0x24\n        /* \"#utility.yul\":9923:9924   */\n      0x00\n        /* \"#utility.yul\":9916:9931   */\n      revert\n        /* \"#utility.yul\":9942:10217   */\n    tag_735:\n        /* \"#utility.yul\":10013:10015   */\n      0x40\n        /* \"#utility.yul\":10007:10016   */\n      mload\n        /* \"#utility.yul\":10078:10080   */\n      0x1f\n        /* \"#utility.yul\":10059:10072   */\n      dup3\n      add\n      not(0x1f)\n        /* \"#utility.yul\":10055:10082   */\n      and\n        /* \"#utility.yul\":10043:10083   */\n      dup2\n      add\n        /* \"#utility.yul\":10113:10131   */\n      0xffffffffffffffff\n        /* \"#utility.yul\":10098:10132   */\n      dup2\n      gt\n        /* \"#utility.yul\":10134:10156   */\n      dup3\n      dup3\n      lt\n        /* \"#utility.yul\":10095:10157   */\n      or\n        /* \"#utility.yul\":10092:10180   */\n      iszero\n      tag_807\n      jumpi\n        /* \"#utility.yul\":10160:10178   */\n      tag_807\n      tag_326\n      jump\t// in\n    tag_807:\n        /* \"#utility.yul\":10196:10198   */\n      0x40\n        /* \"#utility.yul\":10189:10211   */\n      mstore\n        /* \"#utility.yul\":9942:10217   */\n      swap2\n      swap1\n      pop\n      jump\t// out\n        /* \"#utility.yul\":10222:11168   */\n    tag_228:\n        /* \"#utility.yul\":10306:10312   */\n      0x00\n        /* \"#utility.yul\":10337:10339   */\n      0x20\n        /* \"#utility.yul\":10380:10382   */\n      dup1\n        /* \"#utility.yul\":10368:10377   */\n      dup4\n        /* \"#utility.yul\":10359:10366   */\n      dup6\n        /* \"#utility.yul\":10355:10378   */\n      sub\n        /* \"#utility.yul\":10351:10383   */\n      slt\n        /* \"#utility.yul\":10348:10400   */\n      iszero\n      tag_809\n      jumpi\n        /* \"#utility.yul\":10396:10397   */\n      0x00\n        /* \"#utility.yul\":10393:10394   */\n      dup1\n        /* \"#utility.yul\":10386:10398   */\n      revert\n        /* \"#utility.yul\":10348:10400   */\n    tag_809:\n        /* \"#utility.yul\":10436:10445   */\n      dup3\n        /* \"#utility.yul\":10423:10446   */\n      calldataload\n        /* \"#utility.yul\":10465:10483   */\n      0xffffffffffffffff\n        /* \"#utility.yul\":10506:10508   */\n      dup1\n        /* \"#utility.yul\":10498:10504   */\n      dup3\n        /* \"#utility.yul\":10495:10509   */\n      gt\n        /* \"#utility.yul\":10492:10526   */\n      iszero\n      tag_810\n      jumpi\n        /* \"#utility.yul\":10522:10523   */\n      0x00\n        /* \"#utility.yul\":10519:10520   */\n      dup1\n        /* \"#utility.yul\":10512:10524   */\n      revert\n        /* \"#utility.yul\":10492:10526   */\n    tag_810:\n        /* \"#utility.yul\":10560:10566   */\n      dup2\n        /* \"#utility.yul\":10549:10558   */\n      dup6\n        /* \"#utility.yul\":10545:10567   */\n      add\n        /* \"#utility.yul\":10535:10567   */\n      swap2\n      pop\n        /* \"#utility.yul\":10605:10612   */\n      dup6\n        /* \"#utility.yul\":10598:10602   */\n      0x1f\n        /* \"#utility.yul\":10594:10596   */\n      dup4\n        /* \"#utility.yul\":10590:10603   */\n      add\n        /* \"#utility.yul\":10586:10613   */\n      slt\n        /* \"#utility.yul\":10576:10631   */\n      tag_811\n      jumpi\n        /* \"#utility.yul\":10627:10628   */\n      0x00\n        /* \"#utility.yul\":10624:10625   */\n      dup1\n        /* \"#utility.yul\":10617:10629   */\n      revert\n        /* \"#utility.yul\":10576:10631   */\n    tag_811:\n        /* \"#utility.yul\":10663:10665   */\n      dup2\n        /* \"#utility.yul\":10650:10666   */\n      calldataload\n        /* \"#utility.yul\":10685:10687   */\n      dup2\n        /* \"#utility.yul\":10681:10683   */\n      dup2\n        /* \"#utility.yul\":10678:10688   */\n      gt\n        /* \"#utility.yul\":10675:10711   */\n      iszero\n      tag_813\n      jumpi\n        /* \"#utility.yul\":10691:10709   */\n      tag_813\n      tag_326\n      jump\t// in\n    tag_813:\n        /* \"#utility.yul\":10737:10739   */\n      dup1\n        /* \"#utility.yul\":10734:10735   */\n      0x05\n        /* \"#utility.yul\":10730:10740   */\n      shl\n        /* \"#utility.yul\":10720:10740   */\n      swap2\n      pop\n        /* \"#utility.yul\":10760:10788   */\n      tag_814\n        /* \"#utility.yul\":10784:10786   */\n      dup5\n        /* \"#utility.yul\":10780:10782   */\n      dup4\n        /* \"#utility.yul\":10776:10787   */\n      add\n        /* \"#utility.yul\":10760:10788   */\n      tag_735\n      jump\t// in\n    tag_814:\n        /* \"#utility.yul\":10822:10837   */\n      dup2\n      dup2\n      mstore\n        /* \"#utility.yul\":10892:10903   */\n      swap2\n      dup4\n      add\n        /* \"#utility.yul\":10888:10908   */\n      dup5\n      add\n      swap2\n        /* \"#utility.yul\":10853:10865   */\n      dup5\n      dup2\n      add\n      swap1\n        /* \"#utility.yul\":10920:10939   */\n      dup9\n      dup5\n      gt\n        /* \"#utility.yul\":10917:10956   */\n      iszero\n      tag_815\n      jumpi\n        /* \"#utility.yul\":10952:10953   */\n      0x00\n        /* \"#utility.yul\":10949:10950   */\n      dup1\n        /* \"#utility.yul\":10942:10954   */\n      revert\n        /* \"#utility.yul\":10917:10956   */\n    tag_815:\n        /* \"#utility.yul\":10976:10987   */\n      swap4\n      dup6\n      add\n      swap4\n        /* \"#utility.yul\":10996:11138   */\n    tag_816:\n        /* \"#utility.yul\":11012:11018   */\n      dup4\n        /* \"#utility.yul\":11007:11010   */\n      dup6\n        /* \"#utility.yul\":11004:11019   */\n      lt\n        /* \"#utility.yul\":10996:11138   */\n      iszero\n      tag_818\n      jumpi\n        /* \"#utility.yul\":11078:11095   */\n      dup5\n      calldataload\n        /* \"#utility.yul\":11066:11096   */\n      dup3\n      mstore\n        /* \"#utility.yul\":11029:11041   */\n      swap4\n      dup6\n      add\n      swap4\n        /* \"#utility.yul\":11116:11128   */\n      swap1\n      dup6\n      add\n      swap1\n        /* \"#utility.yul\":10996:11138   */\n      jump(tag_816)\n    tag_818:\n        /* \"#utility.yul\":11157:11162   */\n      swap9\n        /* \"#utility.yul\":10222:11168   */\n      swap8\n      pop\n      pop\n      pop\n      pop\n      pop\n      pop\n      pop\n      pop\n      jump\t// out\n        /* \"#utility.yul\":11497:12227   */\n    tag_245:\n        /* \"#utility.yul\":11734:11736   */\n      0x20\n        /* \"#utility.yul\":11786:11807   */\n      dup1\n      dup3\n      mstore\n        /* \"#utility.yul\":11856:11869   */\n      dup3\n      mload\n        /* \"#utility.yul\":11759:11777   */\n      dup3\n      dup3\n      add\n        /* \"#utility.yul\":11878:11900   */\n      dup2\n      swap1\n      mstore\n        /* \"#utility.yul\":11705:11709   */\n      0x00\n      swap2\n        /* \"#utility.yul\":11734:11736   */\n      swap1\n        /* \"#utility.yul\":11957:11972   */\n      dup5\n      dup3\n      add\n      swap1\n        /* \"#utility.yul\":11931:11933   */\n      0x40\n        /* \"#utility.yul\":11916:11934   */\n      dup6\n      add\n      swap1\n        /* \"#utility.yul\":11705:11709   */\n      dup5\n        /* \"#utility.yul\":12000:12201   */\n    tag_821:\n        /* \"#utility.yul\":12014:12020   */\n      dup2\n        /* \"#utility.yul\":12011:12012   */\n      dup2\n        /* \"#utility.yul\":12008:12021   */\n      lt\n        /* \"#utility.yul\":12000:12201   */\n      iszero\n      tag_756\n      jumpi\n        /* \"#utility.yul\":12063:12117   */\n      tag_824\n        /* \"#utility.yul\":12113:12116   */\n      dup4\n        /* \"#utility.yul\":12104:12110   */\n      dup6\n        /* \"#utility.yul\":12098:12111   */\n      mload\n        /* \"#utility.yul\":12063:12117   */\n      tag_728\n      jump\t// in\n    tag_824:\n        /* \"#utility.yul\":12176:12191   */\n      swap3\n      dup5\n      add\n      swap3\n        /* \"#utility.yul\":12146:12152   */\n      0x0120\n        /* \"#utility.yul\":12137:12153   */\n      swap3\n      swap1\n      swap3\n      add\n      swap2\n        /* \"#utility.yul\":12036:12037   */\n      0x01\n        /* \"#utility.yul\":12029:12038   */\n      add\n        /* \"#utility.yul\":12000:12201   */\n      jump(tag_821)\n        /* \"#utility.yul\":12232:12588   */\n    tag_269:\n        /* \"#utility.yul\":12434:12436   */\n      0x20\n        /* \"#utility.yul\":12416:12437   */\n      dup1\n      dup3\n      mstore\n        /* \"#utility.yul\":12453:12471   */\n      dup2\n      dup2\n      add\n        /* \"#utility.yul\":12446:12476   */\n      mstore\n        /* \"#utility.yul\":12512:12546   */\n      0x4f776e61626c653a2063616c6c6572206973206e6f7420746865206f776e6572\n        /* \"#utility.yul\":12507:12509   */\n      0x40\n        /* \"#utility.yul\":12492:12510   */\n      dup3\n      add\n        /* \"#utility.yul\":12485:12547   */\n      mstore\n        /* \"#utility.yul\":12579:12581   */\n      0x60\n        /* \"#utility.yul\":12564:12582   */\n      add\n      swap1\n        /* \"#utility.yul\":12232:12588   */\n      jump\t// out\n        /* \"#utility.yul\":12948:13075   */\n    tag_284:\n        /* \"#utility.yul\":13009:13019   */\n      0x4e487b71\n        /* \"#utility.yul\":13004:13007   */\n      0xe0\n        /* \"#utility.yul\":13000:13020   */\n      shl\n        /* \"#utility.yul\":12997:12998   */\n      0x00\n        /* \"#utility.yul\":12990:13021   */\n      mstore\n        /* \"#utility.yul\":13040:13044   */\n      0x32\n        /* \"#utility.yul\":13037:13038   */\n      0x04\n        /* \"#utility.yul\":13030:13045   */\n      mstore\n        /* \"#utility.yul\":13064:13068   */\n      0x24\n        /* \"#utility.yul\":13061:13062   */\n      0x00\n        /* \"#utility.yul\":13054:13069   */\n      revert\n        /* \"#utility.yul\":13080:13207   */\n    tag_736:\n        /* \"#utility.yul\":13141:13151   */\n      0x4e487b71\n        /* \"#utility.yul\":13136:13139   */\n      0xe0\n        /* \"#utility.yul\":13132:13152   */\n      shl\n        /* \"#utility.yul\":13129:13130   */\n      0x00\n        /* \"#utility.yul\":13122:13153   */\n      mstore\n        /* \"#utility.yul\":13172:13176   */\n      0x11\n        /* \"#utility.yul\":13169:13170   */\n      0x04\n        /* \"#utility.yul\":13162:13177   */\n      mstore\n        /* \"#utility.yul\":13196:13200   */\n      0x24\n        /* \"#utility.yul\":13193:13194   */\n      0x00\n        /* \"#utility.yul\":13186:13201   */\n      revert\n        /* \"#utility.yul\":13212:13380   */\n    tag_287:\n        /* \"#utility.yul\":13252:13259   */\n      0x00\n        /* \"#utility.yul\":13318:13319   */\n      dup2\n        /* \"#utility.yul\":13314:13315   */\n      0x00\n        /* \"#utility.yul\":13310:13316   */\n      not\n        /* \"#utility.yul\":13306:13320   */\n      div\n        /* \"#utility.yul\":13303:13304   */\n      dup4\n        /* \"#utility.yul\":13300:13321   */\n      gt\n        /* \"#utility.yul\":13295:13296   */\n      dup3\n        /* \"#utility.yul\":13288:13297   */\n      iszero\n        /* \"#utility.yul\":13281:13298   */\n      iszero\n        /* \"#utility.yul\":13277:13322   */\n      and\n        /* \"#utility.yul\":13274:13345   */\n      iszero\n      tag_831\n      jumpi\n        /* \"#utility.yul\":13325:13343   */\n      tag_831\n      tag_736\n      jump\t// in\n    tag_831:\n      pop\n        /* \"#utility.yul\":13365:13374   */\n      mul\n      swap1\n        /* \"#utility.yul\":13212:13380   */\n      jump\t// out\n        /* \"#utility.yul\":13385:13513   */\n    tag_292:\n        /* \"#utility.yul\":13425:13428   */\n      0x00\n        /* \"#utility.yul\":13456:13457   */\n      dup3\n        /* \"#utility.yul\":13452:13458   */\n      not\n        /* \"#utility.yul\":13449:13450   */\n      dup3\n        /* \"#utility.yul\":13446:13459   */\n      gt\n        /* \"#utility.yul\":13443:13482   */\n      iszero\n      tag_834\n      jumpi\n        /* \"#utility.yul\":13462:13480   */\n      tag_834\n      tag_736\n      jump\t// in\n    tag_834:\n      pop\n        /* \"#utility.yul\":13498:13507   */\n      add\n      swap1\n        /* \"#utility.yul\":13385:13513   */\n      jump\t// out\n        /* \"#utility.yul\":13518:13735   */\n    tag_302:\n        /* \"#utility.yul\":13558:13559   */\n      0x00\n        /* \"#utility.yul\":13584:13585   */\n      dup3\n        /* \"#utility.yul\":13574:13706   */\n      tag_836\n      jumpi\n        /* \"#utility.yul\":13628:13638   */\n      0x4e487b71\n        /* \"#utility.yul\":13623:13626   */\n      0xe0\n        /* \"#utility.yul\":13619:13639   */\n      shl\n        /* \"#utility.yul\":13616:13617   */\n      0x00\n        /* \"#utility.yul\":13609:13640   */\n      mstore\n        /* \"#utility.yul\":13663:13667   */\n      0x12\n        /* \"#utility.yul\":13660:13661   */\n      0x04\n        /* \"#utility.yul\":13653:13668   */\n      mstore\n        /* \"#utility.yul\":13691:13695   */\n      0x24\n        /* \"#utility.yul\":13688:13689   */\n      0x00\n        /* \"#utility.yul\":13681:13696   */\n      revert\n        /* \"#utility.yul\":13574:13706   */\n    tag_836:\n      pop\n        /* \"#utility.yul\":13720:13729   */\n      div\n      swap1\n        /* \"#utility.yul\":13518:13735   */\n      jump\t// out\n        /* \"#utility.yul\":13740:13875   */\n    tag_306:\n        /* \"#utility.yul\":13779:13782   */\n      0x00\n      not(0x00)\n        /* \"#utility.yul\":13800:13817   */\n      dup3\n      eq\n        /* \"#utility.yul\":13797:13840   */\n      iszero\n      tag_839\n      jumpi\n        /* \"#utility.yul\":13820:13838   */\n      tag_839\n      tag_736\n      jump\t// in\n    tag_839:\n      pop\n        /* \"#utility.yul\":13867:13868   */\n      0x01\n        /* \"#utility.yul\":13856:13869   */\n      add\n      swap1\n        /* \"#utility.yul\":13740:13875   */\n      jump\t// out\n        /* \"#utility.yul\":13880:14225   */\n    tag_314:\n        /* \"#utility.yul\":14082:14084   */\n      0x20\n        /* \"#utility.yul\":14064:14085   */\n      dup1\n      dup3\n      mstore\n        /* \"#utility.yul\":14121:14123   */\n      0x15\n        /* \"#utility.yul\":14101:14119   */\n      swap1\n      dup3\n      add\n        /* \"#utility.yul\":14094:14124   */\n      mstore\n      shl(0x5a, 0x131bd8dac81c195c9a5bd9081b9bdd08199bdd5b99)\n        /* \"#utility.yul\":14155:14157   */\n      0x40\n        /* \"#utility.yul\":14140:14158   */\n      dup3\n      add\n        /* \"#utility.yul\":14133:14184   */\n      mstore\n        /* \"#utility.yul\":14216:14218   */\n      0x60\n        /* \"#utility.yul\":14201:14219   */\n      add\n      swap1\n        /* \"#utility.yul\":13880:14225   */\n      jump\t// out\n        /* \"#utility.yul\":14230:14355   */\n    tag_323:\n        /* \"#utility.yul\":14270:14274   */\n      0x00\n        /* \"#utility.yul\":14298:14299   */\n      dup3\n        /* \"#utility.yul\":14295:14296   */\n      dup3\n        /* \"#utility.yul\":14292:14300   */\n      lt\n        /* \"#utility.yul\":14289:14323   */\n      iszero\n      tag_843\n      jumpi\n        /* \"#utility.yul\":14303:14321   */\n      tag_843\n      tag_736\n      jump\t// in\n    tag_843:\n      pop\n        /* \"#utility.yul\":14340:14349   */\n      sub\n      swap1\n        /* \"#utility.yul\":14230:14355   */\n      jump\t// out\n        /* \"#utility.yul\":14360:14487   */\n    tag_372:\n        /* \"#utility.yul\":14421:14431   */\n      0x4e487b71\n        /* \"#utility.yul\":14416:14419   */\n      0xe0\n        /* \"#utility.yul\":14412:14432   */\n      shl\n        /* \"#utility.yul\":14409:14410   */\n      0x00\n        /* \"#utility.yul\":14402:14433   */\n      mstore\n        /* \"#utility.yul\":14452:14456   */\n      0x31\n        /* \"#utility.yul\":14449:14450   */\n      0x04\n        /* \"#utility.yul\":14442:14457   */\n      mstore\n        /* \"#utility.yul\":14476:14480   */\n      0x24\n        /* \"#utility.yul\":14473:14474   */\n      0x00\n        /* \"#utility.yul\":14466:14481   */\n      revert\n        /* \"#utility.yul\":14836:15542   */\n    tag_392:\n        /* \"#utility.yul\":14916:14922   */\n      0x00\n        /* \"#utility.yul\":14969:14971   */\n      0x20\n        /* \"#utility.yul\":14957:14966   */\n      dup3\n        /* \"#utility.yul\":14948:14955   */\n      dup5\n        /* \"#utility.yul\":14944:14967   */\n      sub\n        /* \"#utility.yul\":14940:14972   */\n      slt\n        /* \"#utility.yul\":14937:14989   */\n      iszero\n      tag_847\n      jumpi\n        /* \"#utility.yul\":14985:14986   */\n      0x00\n        /* \"#utility.yul\":14982:14983   */\n      dup1\n        /* \"#utility.yul\":14975:14987   */\n      revert\n        /* \"#utility.yul\":14937:14989   */\n    tag_847:\n        /* \"#utility.yul\":15018:15027   */\n      dup2\n        /* \"#utility.yul\":15012:15028   */\n      mload\n        /* \"#utility.yul\":15047:15065   */\n      0xffffffffffffffff\n        /* \"#utility.yul\":15088:15090   */\n      dup1\n        /* \"#utility.yul\":15080:15086   */\n      dup3\n        /* \"#utility.yul\":15077:15091   */\n      gt\n        /* \"#utility.yul\":15074:15108   */\n      iszero\n      tag_848\n      jumpi\n        /* \"#utility.yul\":15104:15105   */\n      0x00\n        /* \"#utility.yul\":15101:15102   */\n      dup1\n        /* \"#utility.yul\":15094:15106   */\n      revert\n        /* \"#utility.yul\":15074:15108   */\n    tag_848:\n        /* \"#utility.yul\":15142:15148   */\n      dup2\n        /* \"#utility.yul\":15131:15140   */\n      dup5\n        /* \"#utility.yul\":15127:15149   */\n      add\n        /* \"#utility.yul\":15117:15149   */\n      swap2\n      pop\n        /* \"#utility.yul\":15187:15194   */\n      dup5\n        /* \"#utility.yul\":15180:15184   */\n      0x1f\n        /* \"#utility.yul\":15176:15178   */\n      dup4\n        /* \"#utility.yul\":15172:15185   */\n      add\n        /* \"#utility.yul\":15168:15195   */\n      slt\n        /* \"#utility.yul\":15158:15213   */\n      tag_849\n      jumpi\n        /* \"#utility.yul\":15209:15210   */\n      0x00\n        /* \"#utility.yul\":15206:15207   */\n      dup1\n        /* \"#utility.yul\":15199:15211   */\n      revert\n        /* \"#utility.yul\":15158:15213   */\n    tag_849:\n        /* \"#utility.yul\":15238:15240   */\n      dup2\n        /* \"#utility.yul\":15232:15241   */\n      mload\n        /* \"#utility.yul\":15260:15262   */\n      dup2\n        /* \"#utility.yul\":15256:15258   */\n      dup2\n        /* \"#utility.yul\":15253:15263   */\n      gt\n        /* \"#utility.yul\":15250:15286   */\n      iszero\n      tag_851\n      jumpi\n        /* \"#utility.yul\":15266:15284   */\n      tag_851\n      tag_326\n      jump\t// in\n    tag_851:\n        /* \"#utility.yul\":15308:15361   */\n      tag_852\n        /* \"#utility.yul\":15351:15353   */\n      0x1f\n        /* \"#utility.yul\":15332:15345   */\n      dup3\n      add\n      not(0x1f)\n        /* \"#utility.yul\":15328:15355   */\n      and\n        /* \"#utility.yul\":15357:15359   */\n      0x20\n        /* \"#utility.yul\":15324:15360   */\n      add\n        /* \"#utility.yul\":15308:15361   */\n      tag_735\n      jump\t// in\n    tag_852:\n        /* \"#utility.yul\":15295:15361   */\n      swap2\n      pop\n        /* \"#utility.yul\":15384:15386   */\n      dup1\n        /* \"#utility.yul\":15377:15382   */\n      dup3\n        /* \"#utility.yul\":15370:15387   */\n      mstore\n        /* \"#utility.yul\":15424:15431   */\n      dup6\n        /* \"#utility.yul\":15419:15421   */\n      0x20\n        /* \"#utility.yul\":15414:15416   */\n      dup3\n        /* \"#utility.yul\":15410:15412   */\n      dup6\n        /* \"#utility.yul\":15406:15417   */\n      add\n        /* \"#utility.yul\":15402:15422   */\n      add\n        /* \"#utility.yul\":15399:15432   */\n      gt\n        /* \"#utility.yul\":15396:15449   */\n      iszero\n      tag_853\n      jumpi\n        /* \"#utility.yul\":15445:15446   */\n      0x00\n        /* \"#utility.yul\":15442:15443   */\n      dup1\n        /* \"#utility.yul\":15435:15447   */\n      revert\n        /* \"#utility.yul\":15396:15449   */\n    tag_853:\n        /* \"#utility.yul\":15458:15512   */\n      tag_854\n        /* \"#utility.yul\":15509:15511   */\n      dup2\n        /* \"#utility.yul\":15504:15506   */\n      0x20\n        /* \"#utility.yul\":15497:15502   */\n      dup5\n        /* \"#utility.yul\":15493:15507   */\n      add\n        /* \"#utility.yul\":15488:15490   */\n      0x20\n        /* \"#utility.yul\":15484:15486   */\n      dup7\n        /* \"#utility.yul\":15480:15491   */\n      add\n        /* \"#utility.yul\":15458:15512   */\n      tag_731\n      jump\t// in\n    tag_854:\n      pop\n        /* \"#utility.yul\":15531:15536   */\n      swap5\n        /* \"#utility.yul\":14836:15542   */\n      swap4\n      pop\n      pop\n      pop\n      pop\n      jump\t// out\n        /* \"#utility.yul\":15547:15794   */\n    tag_399:\n        /* \"#utility.yul\":15615:15621   */\n      0x00\n        /* \"#utility.yul\":15668:15670   */\n      0x20\n        /* \"#utility.yul\":15656:15665   */\n      dup3\n        /* \"#utility.yul\":15647:15654   */\n      dup5\n        /* \"#utility.yul\":15643:15666   */\n      sub\n        /* \"#utility.yul\":15639:15671   */\n      slt\n        /* \"#utility.yul\":15636:15688   */\n      iszero\n      tag_856\n      jumpi\n        /* \"#utility.yul\":15684:15685   */\n      0x00\n        /* \"#utility.yul\":15681:15682   */\n      dup1\n        /* \"#utility.yul\":15674:15686   */\n      revert\n        /* \"#utility.yul\":15636:15688   */\n    tag_856:\n        /* \"#utility.yul\":15716:15725   */\n      dup2\n        /* \"#utility.yul\":15710:15726   */\n      mload\n        /* \"#utility.yul\":15735:15764   */\n      tag_455\n        /* \"#utility.yul\":15758:15763   */\n      dup2\n        /* \"#utility.yul\":15735:15764   */\n      tag_733\n      jump\t// in\n        /* \"#utility.yul\":15799:15983   */\n    tag_404:\n        /* \"#utility.yul\":15869:15875   */\n      0x00\n        /* \"#utility.yul\":15922:15924   */\n      0x20\n        /* \"#utility.yul\":15910:15919   */\n      dup3\n        /* \"#utility.yul\":15901:15908   */\n      dup5\n        /* \"#utility.yul\":15897:15920   */\n      sub\n        /* \"#utility.yul\":15893:15925   */\n      slt\n        /* \"#utility.yul\":15890:15942   */\n      iszero\n      tag_859\n      jumpi\n        /* \"#utility.yul\":15938:15939   */\n      0x00\n        /* \"#utility.yul\":15935:15936   */\n      dup1\n        /* \"#utility.yul\":15928:15940   */\n      revert\n        /* \"#utility.yul\":15890:15942   */\n    tag_859:\n      pop\n        /* \"#utility.yul\":15961:15977   */\n      mload\n      swap2\n        /* \"#utility.yul\":15799:15983   */\n      swap1\n      pop\n      jump\t// out\n        /* \"#utility.yul\":16963:17208   */\n    tag_438:\n        /* \"#utility.yul\":17030:17036   */\n      0x00\n        /* \"#utility.yul\":17083:17085   */\n      0x20\n        /* \"#utility.yul\":17071:17080   */\n      dup3\n        /* \"#utility.yul\":17062:17069   */\n      dup5\n        /* \"#utility.yul\":17058:17081   */\n      sub\n        /* \"#utility.yul\":17054:17086   */\n      slt\n        /* \"#utility.yul\":17051:17103   */\n      iszero\n      tag_864\n      jumpi\n        /* \"#utility.yul\":17099:17100   */\n      0x00\n        /* \"#utility.yul\":17096:17097   */\n      dup1\n        /* \"#utility.yul\":17089:17101   */\n      revert\n        /* \"#utility.yul\":17051:17103   */\n    tag_864:\n        /* \"#utility.yul\":17131:17140   */\n      dup2\n        /* \"#utility.yul\":17125:17141   */\n      mload\n        /* \"#utility.yul\":17150:17178   */\n      tag_455\n        /* \"#utility.yul\":17172:17177   */\n      dup2\n        /* \"#utility.yul\":17150:17178   */\n      tag_734\n      jump\t// in\n        /* \"#utility.yul\":17213:17408   */\n    tag_446:\n        /* \"#utility.yul\":17251:17255   */\n      0x00\n        /* \"#utility.yul\":17288:17292   */\n      0xff\n        /* \"#utility.yul\":17285:17286   */\n      dup3\n        /* \"#utility.yul\":17281:17293   */\n      and\n        /* \"#utility.yul\":17320:17324   */\n      0xff\n        /* \"#utility.yul\":17317:17318   */\n      dup5\n        /* \"#utility.yul\":17313:17325   */\n      and\n        /* \"#utility.yul\":17345:17348   */\n      dup1\n        /* \"#utility.yul\":17340:17343   */\n      dup3\n        /* \"#utility.yul\":17337:17349   */\n      lt\n        /* \"#utility.yul\":17334:17372   */\n      iszero\n      tag_868\n      jumpi\n        /* \"#utility.yul\":17352:17370   */\n      tag_868\n      tag_736\n      jump\t// in\n    tag_868:\n        /* \"#utility.yul\":17389:17402   */\n      swap1\n      sub\n      swap4\n        /* \"#utility.yul\":17213:17408   */\n      swap3\n      pop\n      pop\n      pop\n      jump\t// out\n        /* \"#utility.yul\":17413:17835   */\n    tag_737:\n        /* \"#utility.yul\":17502:17503   */\n      0x01\n        /* \"#utility.yul\":17545:17550   */\n      dup2\n        /* \"#utility.yul\":17502:17503   */\n      dup2\n        /* \"#utility.yul\":17559:17829   */\n    tag_870:\n        /* \"#utility.yul\":17580:17587   */\n      dup1\n        /* \"#utility.yul\":17570:17578   */\n      dup6\n        /* \"#utility.yul\":17567:17588   */\n      gt\n        /* \"#utility.yul\":17559:17829   */\n      iszero\n      tag_872\n      jumpi\n        /* \"#utility.yul\":17639:17643   */\n      dup2\n        /* \"#utility.yul\":17635:17636   */\n      0x00\n        /* \"#utility.yul\":17631:17637   */\n      not\n        /* \"#utility.yul\":17627:17644   */\n      div\n        /* \"#utility.yul\":17621:17625   */\n      dup3\n        /* \"#utility.yul\":17618:17645   */\n      gt\n        /* \"#utility.yul\":17615:17668   */\n      iszero\n      tag_874\n      jumpi\n        /* \"#utility.yul\":17648:17666   */\n      tag_874\n      tag_736\n      jump\t// in\n    tag_874:\n        /* \"#utility.yul\":17698:17705   */\n      dup1\n        /* \"#utility.yul\":17688:17696   */\n      dup6\n        /* \"#utility.yul\":17684:17706   */\n      and\n        /* \"#utility.yul\":17681:17736   */\n      iszero\n      tag_875\n      jumpi\n        /* \"#utility.yul\":17718:17734   */\n      swap2\n      dup2\n      mul\n      swap2\n        /* \"#utility.yul\":17681:17736   */\n    tag_875:\n        /* \"#utility.yul\":17797:17819   */\n      swap4\n      dup5\n      shr\n      swap4\n        /* \"#utility.yul\":17757:17772   */\n      swap1\n      dup1\n      mul\n      swap1\n        /* \"#utility.yul\":17559:17829   */\n      jump(tag_870)\n    tag_872:\n        /* \"#utility.yul\":17563:17566   */\n      pop\n        /* \"#utility.yul\":17413:17835   */\n      swap3\n      pop\n      swap3\n      swap1\n      pop\n      jump\t// out\n        /* \"#utility.yul\":17840:18646   */\n    tag_738:\n        /* \"#utility.yul\":17889:17894   */\n      0x00\n        /* \"#utility.yul\":17919:17927   */\n      dup3\n        /* \"#utility.yul\":17909:17989   */\n      tag_877\n      jumpi\n      pop\n        /* \"#utility.yul\":17960:17961   */\n      0x01\n        /* \"#utility.yul\":17974:17979   */\n      jump(tag_752)\n        /* \"#utility.yul\":17909:17989   */\n    tag_877:\n        /* \"#utility.yul\":18008:18012   */\n      dup2\n        /* \"#utility.yul\":17998:18074   */\n      tag_878\n      jumpi\n      pop\n        /* \"#utility.yul\":18045:18046   */\n      0x00\n        /* \"#utility.yul\":18059:18064   */\n      jump(tag_752)\n        /* \"#utility.yul\":17998:18074   */\n    tag_878:\n        /* \"#utility.yul\":18090:18094   */\n      dup2\n        /* \"#utility.yul\":18108:18109   */\n      0x01\n        /* \"#utility.yul\":18103:18162   */\n      dup2\n      eq\n      tag_880\n      jumpi\n        /* \"#utility.yul\":18176:18177   */\n      0x02\n        /* \"#utility.yul\":18171:18301   */\n      dup2\n      eq\n      tag_881\n      jumpi\n        /* \"#utility.yul\":18083:18301   */\n      jump(tag_879)\n        /* \"#utility.yul\":18103:18162   */\n    tag_880:\n        /* \"#utility.yul\":18133:18134   */\n      0x01\n        /* \"#utility.yul\":18124:18134   */\n      swap2\n      pop\n        /* \"#utility.yul\":18147:18152   */\n      pop\n      jump(tag_752)\n        /* \"#utility.yul\":18171:18301   */\n    tag_881:\n        /* \"#utility.yul\":18208:18211   */\n      0xff\n        /* \"#utility.yul\":18198:18206   */\n      dup5\n        /* \"#utility.yul\":18195:18212   */\n      gt\n        /* \"#utility.yul\":18192:18235   */\n      iszero\n      tag_883\n      jumpi\n        /* \"#utility.yul\":18215:18233   */\n      tag_883\n      tag_736\n      jump\t// in\n    tag_883:\n      pop\n      pop\n        /* \"#utility.yul\":18271:18272   */\n      0x01\n        /* \"#utility.yul\":18257:18273   */\n      dup3\n      shl\n        /* \"#utility.yul\":18286:18291   */\n      jump(tag_752)\n        /* \"#utility.yul\":18083:18301   */\n    tag_879:\n      pop\n        /* \"#utility.yul\":18385:18387   */\n      0x20\n        /* \"#utility.yul\":18375:18383   */\n      dup4\n        /* \"#utility.yul\":18372:18388   */\n      lt\n        /* \"#utility.yul\":18366:18369   */\n      0x0133\n        /* \"#utility.yul\":18360:18364   */\n      dup4\n        /* \"#utility.yul\":18357:18370   */\n      lt\n        /* \"#utility.yul\":18353:18389   */\n      and\n        /* \"#utility.yul\":18347:18349   */\n      0x4e\n        /* \"#utility.yul\":18337:18345   */\n      dup5\n        /* \"#utility.yul\":18334:18350   */\n      lt\n        /* \"#utility.yul\":18329:18331   */\n      0x0b\n        /* \"#utility.yul\":18323:18327   */\n      dup5\n        /* \"#utility.yul\":18320:18332   */\n      lt\n        /* \"#utility.yul\":18316:18351   */\n      and\n        /* \"#utility.yul\":18313:18390   */\n      or\n        /* \"#utility.yul\":18310:18469   */\n      iszero\n      tag_884\n      jumpi\n      pop\n        /* \"#utility.yul\":18422:18441   */\n      dup2\n      dup2\n      exp\n        /* \"#utility.yul\":18454:18459   */\n      jump(tag_752)\n        /* \"#utility.yul\":18310:18469   */\n    tag_884:\n        /* \"#utility.yul\":18501:18535   */\n      tag_885\n        /* \"#utility.yul\":18526:18534   */\n      dup4\n        /* \"#utility.yul\":18520:18524   */\n      dup4\n        /* \"#utility.yul\":18501:18535   */\n      tag_737\n      jump\t// in\n    tag_885:\n        /* \"#utility.yul\":18571:18577   */\n      dup1\n        /* \"#utility.yul\":18567:18568   */\n      0x00\n        /* \"#utility.yul\":18563:18569   */\n      not\n        /* \"#utility.yul\":18559:18578   */\n      div\n        /* \"#utility.yul\":18550:18557   */\n      dup3\n        /* \"#utility.yul\":18547:18579   */\n      gt\n        /* \"#utility.yul\":18544:18602   */\n      iszero\n      tag_887\n      jumpi\n        /* \"#utility.yul\":18582:18600   */\n      tag_887\n      tag_736\n      jump\t// in\n    tag_887:\n        /* \"#utility.yul\":18620:18640   */\n      mul\n      swap4\n        /* \"#utility.yul\":17840:18646   */\n      swap3\n      pop\n      pop\n      pop\n      jump\t// out\n        /* \"#utility.yul\":18651:18782   */\n    tag_448:\n        /* \"#utility.yul\":18711:18716   */\n      0x00\n        /* \"#utility.yul\":18740:18776   */\n      tag_455\n        /* \"#utility.yul\":18767:18775   */\n      dup4\n        /* \"#utility.yul\":18761:18765   */\n      dup4\n        /* \"#utility.yul\":18740:18776   */\n      tag_738\n      jump\t// in\n\n    auxdata: 0xa2646970667358221220860bb80b90818c071f02a40cd6e16f107b762a1e38e450d791d29d95e424468664736f6c634300080c0033\n}\n",
				"bytecode": {
					"linkReferences": {},
					"object": "60806040526003805460ff60a01b1916600160a01b1790556109c4601155603c6012553480156200002f57600080fd5b5060405162003e1538038062003e158339810160408190526200005291620006c0565b600080546001600160a01b0319163390811782556040519091907f8be0079c531659141344cd1fd0a4f28419497f9722a3daafe3b4186f6b6457e0908290a36000805460ff60a01b1916905560018055600280546001600160a01b038088166001600160a01b03199283168117909355600380549188169190921617905560118390556040805163313ce56760e01b8152905163313ce567916004808201926020929091908290030181865afa15801562000111573d6000803e3d6000fd5b505050506040513d601f19601f8201168201806040525081019062000137919062000839565b600360156101000a81548160ff021916908360ff160217905550600360009054906101000a90046001600160a01b03166001600160a01b031663313ce5676040518163ffffffff1660e01b8152600401602060405180830381865afa158015620001a5573d6000803e3d6000fd5b505050506040513d601f19601f82011682018060405250810190620001cb919062000839565b6003805460ff60b01b1916600160b01b60ff9390931692909202919091179055600680546001600160a01b0319166001600160a01b03851617905560005b815181101562000340576200032b8282815181106200022c576200022c62000865565b6020026020010151600001518383815181106200024d576200024d62000865565b6020026020010151602001518484815181106200026e576200026e62000865565b6020026020010151604001518585815181106200028f576200028f62000865565b602002602001015160600151868681518110620002b057620002b062000865565b602002602001015160800151878781518110620002d157620002d162000865565b602002602001015160a00151888881518110620002f257620002f262000865565b602002602001015160c0015189898151811062000313576200031362000865565b602002602001015160e001516200034c60201b60201c565b8062000337816200087b565b91505062000209565b505050505050620008a5565b6000546001600160a01b03163314620003ac5760405162461bcd60e51b815260206004820181905260248201527f4f776e61626c653a2063616c6c6572206973206e6f7420746865206f776e657260448201526064015b60405180910390fd5b612710861115620003f55760405162461bcd60e51b8152602060048201526012602482015271496e76616c69642070657263656e7461676560701b6044820152606401620003a3565b83851015620004625760405162461bcd60e51b815260206004820152603260248201527f4d61782072617465206d7573742062652067726561746572207468616e206f7260448201527120657175616c20746f206d696e207261746560701b6064820152608401620003a3565b60008211620004b45760405162461bcd60e51b815260206004820181905260248201527f537465702073697a65206d7573742062652067726561746572207468616e20306044820152606401620003a3565b6000888152600460205260409020869055620004d088620005bd565b6200050b57601380546001810182556000919091527f66de8ffda797e3de9c05e8fc57b3bf0ec28a930d40b0d285d93c06501cf6a090018890555b60408051610120810182528981526020808201998a52818301988952606082019788526080820196875260a0820195865260c0820194855292151560e0820190815260008b8152600580865293812060088101805461010086019081529d9092529484905291518455985160018401559651600283015594516003820155925160048401559051928201929092559051600682015591516007909201805460ff19169215159290921790915590519055565b6000805b60135481101562000613578260138281548110620005e357620005e362000865565b90600052602060002001541415620005fe5750600192915050565b806200060a816200087b565b915050620005c1565b50600092915050565b6001600160a01b03811681146200063257600080fd5b50565b634e487b7160e01b600052604160045260246000fd5b60405161012081016001600160401b038111828210171562000671576200067162000635565b60405290565b604051601f8201601f191681016001600160401b0381118282101715620006a257620006a262000635565b604052919050565b80518015158114620006bb57600080fd5b919050565b600080600080600060a08688031215620006d957600080fd5b8551620006e6816200061c565b80955050602080870151620006fb816200061c565b60408801519095506200070e816200061c565b60608801516080808a0151929650909450906001600160401b03808211156200073657600080fd5b818a0191508a601f8301126200074b57600080fd5b81518181111562000760576200076062000635565b62000770858260051b0162000677565b818152858101925061012091820284018601918d8311156200079157600080fd5b938601935b82851015620008255780858f031215620007b05760008081fd5b620007ba6200064b565b8551815287860151888201526040860151604082015260608601516060820152868601518782015260a086015160a082015260c080870151818301525060e062000806818801620006aa565b9082015261010086810151908201528452938401939286019262000796565b508096505050505050509295509295909350565b6000602082840312156200084c57600080fd5b815160ff811681146200085e57600080fd5b9392505050565b634e487b7160e01b600052603260045260246000fd5b60006000198214156200089e57634e487b7160e01b600052601160045260246000fd5b5060010190565b61356080620008b56000396000f3fe6080604052600436106102605760003560e01c8063850bad9411610144578063c2e5fe76116100b6578063de644c761161007a578063de644c7614610871578063e2bbb15814610893578063f256dfc5146108b3578063f2fde38b146108d3578063f66e4be3146108f3578063f7c618c11461091457600080fd5b8063c2e5fe76146107a1578063c53c5fc1146107d1578063c5c35196146107e6578063cd09920514610821578063cd8de42c1461085157600080fd5b80639953ba47116101085780639953ba47146106cd5780639a4577a2146106ed5780639bdcecd11461070d578063ba743f9914610740578063c094121414610760578063c24126761461078157600080fd5b8063850bad94146106225780638da5cb5b1461064f578063917bb9981461066d57806391dc842e1461068d57806395302cc0146106ad57600080fd5b806341ee13be116101dd5780635c975abb116101a15780635c975abb14610558578063647428b9146105835780636a1d18d2146105a95780636b130dc2146105c95780636ba13a82146105df5780636f77926b146105f557600080fd5b806341ee13be146104a957806345982a66146104cb5780634d70378a146104f857806352b8745f1461051857806358098bf41461053857600080fd5b80632b4a16a0116102245780632b4a16a01461033e57806331d7a2621461035e578063365b98b21461037e57806339129cff146103cc5780633d51c72d1461047c57600080fd5b806303962d461461026c5780630a6f93e6146102ac57806316ada547146102d9578063230ffa0f146102ef57806327ba372c1461031157600080fd5b3661026757005b600080fd5b34801561027857600080fd5b50610299610287366004612ce2565b600b6020526000908152604090205481565b6040519081526020015b60405180910390f35b3480156102b857600080fd5b506102996102c7366004612ce2565b600c6020526000908152604090205481565b3480156102e557600080fd5b5061029960125481565b3480156102fb57600080fd5b5061030f61030a366004612cff565b610934565b005b34801561031d57600080fd5b5061029961032c366004612ce2565b60086020526000908152604090205481565b34801561034a57600080fd5b50610299610359366004612cff565b6109e8565b34801561036a57600080fd5b50610299610379366004612ce2565b610a09565b34801561038a57600080fd5b506103b4610399366004612cff565b600e602052600090815260409020546001600160a01b031681565b6040516001600160a01b0390911681526020016102a3565b3480156103d857600080fd5b506104366103e7366004612cff565b60056020819052600091825260409091208054600182015460028301546003840154600485015495850154600686015460078701546008909701549597949693959294939192909160ff169089565b60408051998a5260208a0198909852968801959095526060870193909352608086019190915260a085015260c0840152151560e0830152610100820152610120016102a3565b34801561048857600080fd5b5061049c610497366004612cff565b610bb1565b6040516102a39190612d74565b3480156104b557600080fd5b506104be610c5b565b6040516102a39190612d89565b3480156104d757600080fd5b506104eb6104e6366004612dcd565b610cb3565b6040516102a39190612ebb565b34801561050457600080fd5b5061030f610513366004612cff565b610db7565b34801561052457600080fd5b5061030f610533366004612ce2565b610f60565b34801561054457600080fd5b5061030f610553366004612ce2565b610ff6565b34801561056457600080fd5b50600054600160a01b900460ff165b60405190151581526020016102a3565b34801561058f57600080fd5b50610598611089565b6040516102a3959493929190612f79565b3480156105b557600080fd5b5061030f6105c4366004612cff565b611272565b3480156105d557600080fd5b5061029960115481565b3480156105eb57600080fd5b50610299600f5481565b34801561060157600080fd5b50610615610610366004612ce2565b6112e8565b6040516102a39190612fc7565b34801561062e57600080fd5b5061029961063d366004612cff565b60046020526000908152604090205481565b34801561065b57600080fd5b506000546001600160a01b03166103b4565b34801561067957600080fd5b5061030f610688366004612fda565b61148d565b34801561069957600080fd5b506102996106a8366004612fda565b6115dc565b3480156106b957600080fd5b506102996106c8366004612fda565b61160d565b3480156106d957600080fd5b506102996106e8366004613015565b611629565b3480156106f957600080fd5b5061030f610708366004613065565b6116a5565b34801561071957600080fd5b5060035461072e90600160b01b900460ff1681565b60405160ff90911681526020016102a3565b34801561074c57600080fd5b5061029961075b366004612fda565b6118d7565b34801561076c57600080fd5b5060035461072e90600160a81b900460ff1681565b34801561078d57600080fd5b506002546103b4906001600160a01b031681565b3480156107ad57600080fd5b506105736107bc366004612ce2565b600d6020526000908152604090205460ff1681565b3480156107dd57600080fd5b506105986118f3565b3480156107f257600080fd5b50610806610801366004613116565b611a96565b604080519384526020840192909252908201526060016102a3565b34801561082d57600080fd5b5061057361083c366004612ce2565b60106020526000908152604090205460ff1681565b34801561085d57600080fd5b5061030f61086c366004612ce2565b6123f7565b34801561087d57600080fd5b50610886612443565b6040516102a391906131bc565b34801561089f57600080fd5b5061030f6108ae366004612dcd565b61258e565b3480156108bf57600080fd5b506006546103b4906001600160a01b031681565b3480156108df57600080fd5b5061030f6108ee366004612ce2565b6128c6565b3480156108ff57600080fd5b5060035461057390600160a01b900460ff1681565b34801561092057600080fd5b506003546103b4906001600160a01b031681565b6000546001600160a01b031633146109675760405162461bcd60e51b815260040161095e906131ff565b60405180910390fd5b804710156109b75760405162461bcd60e51b815260206004820152601a60248201527f496e73756666696369656e742065746865722062616c616e6365000000000000604482015260640161095e565b604051339082156108fc029083906000818181858888f193505050501580156109e4573d6000803e3d6000fd5b5050565b601381815481106109f857600080fd5b600091825260209091200154905081565b60008042815b6001600160a01b038516600090815260076020526040902054811015610ba8576012546001600160a01b0386166000908152600960205260408120805491929184908110610a5f57610a5f613234565b9060005260206000200154610a749190613260565b6001600160a01b0387166000908152600a60205260409020805484908110610a9e57610a9e613234565b9060005260206000200154610ab3919061327f565b905080831115610b95576001600160a01b038616600090815260096020526040812080546127109160049184919087908110610af157610af1613234565b9060005260206000200154815260200190815260200160002054600760008a6001600160a01b03166001600160a01b031681526020019081526020016000208581548110610b4157610b41613234565b9060005260206000200154610b569190613260565b610b609190613297565b600354909150610b8590829060ff600160a81b8204811691600160b01b900416611629565b9050610b91818661327f565b9450505b5080610ba0816132b9565b915050610a0f565b50909392505050565b610bb9612c2e565b610bc2826129b0565b610bde5760405162461bcd60e51b815260040161095e906132d4565b506000908152600560208181526040928390208351610120810185528154815260018201549281019290925260028101549382019390935260038301546060820152600483015460808201529082015460a0820152600682015460c0820152600782015460ff16151560e082015260089091015461010082015290565b60606013805480602002602001604051908101604052809291908181526020018280548015610ca957602002820191906000526020600020905b815481526020019060010190808311610c95575b5050505050905090565b606081610cc057600f5491505b6000610ccc838561327f565b9050610cd88482613303565b67ffffffffffffffff811115610cf057610cf06130cf565b604051908082528060200260200182016040528015610d2957816020015b610d16612c7c565b815260200190600190039081610d0e5790505b50915060005b610d398583613303565b811015610daf57610d7f600e60008784600f54610d569190613303565b610d609190613303565b81526020810191909152604001600020546001600160a01b03166112e8565b838281518110610d9157610d91613234565b60200260200101819052508080610da7906132b9565b915050610d2f565b505092915050565b6000546001600160a01b03163314610de15760405162461bcd60e51b815260040161095e906131ff565b610dea816129b0565b610e065760405162461bcd60e51b815260040161095e906132d4565b600080805b601354811015610e58578360138281548110610e2957610e29613234565b90600052602060002001541415610e465780925060019150610e58565b80610e50816132b9565b915050610e0b565b5080610e765760405162461bcd60e51b815260040161095e906132d4565b60008381526005602081905260408220828155600181018390556002810183905560038101839055600481018390559081018290556006810182905560078101805460ff1916905560080155815b601354610ed390600190613303565b811015610f33576013610ee782600161327f565b81548110610ef757610ef7613234565b906000526020600020015460138281548110610f1557610f15613234565b60009182526020909120015580610f2b816132b9565b915050610ec4565b506013805480610f4557610f4561331a565b60019003818190600052602060002001600090559055505050565b6000546001600160a01b03163314610f8a5760405162461bcd60e51b815260040161095e906131ff565b6001600160a01b038116610fd25760405162461bcd60e51b815260206004820152600f60248201526e496e76616c6964206164647265737360881b604482015260640161095e565b6001600160a01b03166000908152601060205260409020805460ff19166001179055565b6000546001600160a01b031633146110205760405162461bcd60e51b815260040161095e906131ff565b6001600160a01b0381166110685760405162461bcd60e51b815260206004820152600f60248201526e496e76616c6964206164647265737360881b604482015260640161095e565b6001600160a01b03166000908152601060205260409020805460ff19169055565b600354604080516306fdde0360e01b815290516001600160a01b03909216916060918291600091829186916306fdde0391600480830192869291908290030181865afa1580156110dd573d6000803e3d6000fd5b505050506040513d6000823e601f3d908101601f191682016040526111059190810190613330565b9350600360009054906101000a90046001600160a01b03166001600160a01b03166395d89b416040518163ffffffff1660e01b8152600401600060405180830381865afa15801561115a573d6000803e3d6000fd5b505050506040513d6000823e601f3d908101601f191682016040526111829190810190613330565b9250600360009054906101000a90046001600160a01b03166001600160a01b031663313ce5676040518163ffffffff1660e01b8152600401602060405180830381865afa1580156111d7573d6000803e3d6000fd5b505050506040513d601f19601f820116820180604052508101906111fb91906133c4565b6003546040516370a0823160e01b81523060048201529193506001600160a01b0316906370a08231906024015b602060405180830381865afa158015611245573d6000803e3d6000fd5b505050506040513d601f19601f8201168201806040525081019061126991906133e1565b90509091929394565b6000546001600160a01b0316331461129c5760405162461bcd60e51b815260040161095e906131ff565b6127108111156112e35760405162461bcd60e51b8152602060048201526012602482015271496e76616c69642070657263656e7461676560701b604482015260640161095e565b601155565b6112f0612c7c565b60408051610100810182526001600160a01b0384168082526000818152600860209081528482205481850152828252600c8152848220548486015291815260098252839020805484518184028101840190955280855292936060850193909283018282801561137e57602002820191906000526020600020905b81548152602001906001019080831161136a575b50505091835250506001600160a01b03841660009081526007602090815260409182902080548351818402810184019094528084529382019390918301828280156113e857602002820191906000526020600020905b8154815260200190600101908083116113d4575b50505091835250506001600160a01b0384166000908152600a6020908152604091829020805483518184028101840190945280845293820193909183018282801561145257602002820191906000526020600020905b81548152602001906001019080831161143e575b50505091835250506001600160a01b0384166000908152600b602090815260409182902054908301520161148584610a09565b905292915050565b6000546001600160a01b031633146114b75760405162461bcd60e51b815260040161095e906131ff565b6040516370a0823160e01b815230600482015281906001600160a01b038416906370a0823190602401602060405180830381865afa1580156114fd573d6000803e3d6000fd5b505050506040513d601f19601f8201168201806040525081019061152191906133e1565b10156115665760405162461bcd60e51b8152602060048201526014602482015273496e73756666696369656e742062616c616e636560601b604482015260640161095e565b60405163a9059cbb60e01b8152336004820152602481018290526001600160a01b0383169063a9059cbb906044016020604051808303816000875af11580156115b3573d6000803e3d6000fd5b505050506040513d601f19601f820116820180604052508101906115d791906133fa565b505050565b600760205281600052604060002081815481106115f857600080fd5b90600052602060002001600091509150505481565b600960205281600052604060002081815481106115f857600080fd5b60008160ff168360ff1611156116675760006116458385613417565b60ff16905061165581600a61351e565b61165f9086613297565b91505061169e565b8160ff168360ff16101561169b5760006116818484613417565b60ff16905061169181600a61351e565b61165f9086613260565b50825b9392505050565b6000546001600160a01b031633146116cf5760405162461bcd60e51b815260040161095e906131ff565b6127108611156117165760405162461bcd60e51b8152602060048201526012602482015271496e76616c69642070657263656e7461676560701b604482015260640161095e565b838510156117815760405162461bcd60e51b815260206004820152603260248201527f4d61782072617465206d7573742062652067726561746572207468616e206f7260448201527120657175616c20746f206d696e207261746560701b606482015260840161095e565b600082116117d15760405162461bcd60e51b815260206004820181905260248201527f537465702073697a65206d7573742062652067726561746572207468616e2030604482015260640161095e565b60008881526004602052604090208690556117eb886129b0565b61182557601380546001810182556000919091527f66de8ffda797e3de9c05e8fc57b3bf0ec28a930d40b0d285d93c06501cf6a090018890555b60408051610120810182528981526020808201998a52818301988952606082019788526080820196875260a0820195865260c0820194855292151560e0820190815260008b8152600580865293812060088101805461010086019081529d9092529484905291518455985160018401559651600283015594516003820155925160048401559051928201929092559051600682015591516007909201805460ff19169215159290921790915590519055565b600a60205281600052604060002081815481106115f857600080fd5b600254604080516306fdde0360e01b815290516001600160a01b03909216916060918291600091829186916306fdde0391600480830192869291908290030181865afa158015611947573d6000803e3d6000fd5b505050506040513d6000823e601f3d908101601f1916820160405261196f9190810190613330565b9350600260009054906101000a90046001600160a01b03166001600160a01b03166395d89b416040518163ffffffff1660e01b8152600401600060405180830381865afa1580156119c4573d6000803e3d6000fd5b505050506040513d6000823e601f3d908101601f191682016040526119ec9190810190613330565b9250600260009054906101000a90046001600160a01b03166001600160a01b031663313ce5676040518163ffffffff1660e01b8152600401602060405180830381865afa158015611a41573d6000803e3d6000fd5b505050506040513d601f19601f82011682018060405250810190611a6591906133c4565b6002546040516370a0823160e01b81523060048201529193506001600160a01b0316906370a0823190602401611228565b6000806000611aaf60005460ff600160a01b9091041690565b15611aef5760405162461bcd60e51b815260206004820152601060248201526f14185d5cd8589b194e881c185d5cd95960821b604482015260640161095e565b611af7612a07565b3360009081526010602052604090205460ff1615611b4a5760405162461bcd60e51b815260206004820152601060248201526f4163636f756e74206973207370616d2160801b604482015260640161095e565b336000908152600860205260408120548190819042825b8951811015611fe5573360009081526007602052604081208b518c9084908110611b8d57611b8d613234565b602002602001015181548110611ba557611ba5613234565b90600052602060002001541115611fd3576012543360009081526009602052604081208c519192918d9085908110611bdf57611bdf613234565b602002602001015181548110611bf757611bf7613234565b9060005260206000200154611c0c9190613260565b336000908152600a602052604090208c518d9085908110611c2f57611c2f613234565b602002602001015181548110611c4757611c47613234565b9060005260206000200154611c5c919061327f565b905080831115611dd45760006127106004600060096000336001600160a01b03166001600160a01b031681526020019081526020016000208f8781518110611ca657611ca6613234565b602002602001015181548110611cbe57611cbe613234565b906000526020600020015481526020019081526020016000205460076000336001600160a01b03166001600160a01b031681526020019081526020016000208e8681518110611d0f57611d0f613234565b602002602001015181548110611d2757611d27613234565b9060005260206000200154611d3c9190613260565b611d469190613297565b600354909150611d6b90829060ff600160a81b8204811691600160b01b900416611629565b9050611d77818861327f565b3360009081526007602052604090208d51919850908d9085908110611d9e57611d9e613234565b602002602001015181548110611db657611db6613234565b906000526020600020015488611dcc919061327f565b975050611eb5565b60115460009015611e45576011543360009081526007602052604090208d516127109291908f9087908110611e0b57611e0b613234565b602002602001015181548110611e2357611e23613234565b9060005260206000200154611e389190613260565b611e429190613297565b90505b3360009081526007602052604081208d518391908f9087908110611e6b57611e6b613234565b602002602001015181548110611e8357611e83613234565b9060005260206000200154611e989190613303565b9050611ea4818a61327f565b9850611eb0828861327f565b965050505b3360009081526007602052604090208b518c9084908110611ed857611ed8613234565b602002602001015181548110611ef057611ef0613234565b90600052602060002001546005600060096000336001600160a01b03166001600160a01b031681526020019081526020016000208e8681518110611f3657611f36613234565b602002602001015181548110611f4e57611f4e613234565b906000526020600020015481526020019081526020016000206008016000828254611f799190613303565b90915550503360009081526007602052604090208b518c9084908110611fa157611fa1613234565b602002602001015181548110611fb957611fb9613234565b906000526020600020015484611fcf9190613303565b9350505b80611fdd816132b9565b915050611b61565b5060005b89518110156122255760008a828151811061200657612006613234565b602002602001015190505b3360009081526007602052604090205461202d90600190613303565b8110156121735733600090815260076020526040902061204e82600161327f565b8154811061205e5761205e613234565b60009182526020808320909101543383526007909152604090912080548390811061208b5761208b613234565b60009182526020808320909101929092553381526009909152604090206120b382600161327f565b815481106120c3576120c3613234565b6000918252602080832090910154338352600990915260409091208054839081106120f0576120f0613234565b6000918252602080832090910192909255338152600a9091526040902061211882600161327f565b8154811061212857612128613234565b6000918252602080832090910154338352600a909152604090912080548390811061215557612155613234565b6000918252602090912001558061216b816132b9565b915050612011565b503360009081526007602052604090208054806121925761219261331a565b60008281526020808220830160001990810183905590920190925533825260099052604090208054806121c7576121c761331a565b600082815260208082208301600019908101839055909201909255338252600a9052604090208054806121fc576121fc61331a565b60019003818190600052602060002001600090559055808061221d906132b9565b915050611fe9565b5084156122a35760025460405163a9059cbb60e01b8152336004820152602481018790526001600160a01b039091169063a9059cbb906044016020604051808303816000875af115801561227d573d6000803e3d6000fd5b505050506040513d601f19601f820116820180604052508101906122a191906133fa565b505b83156123205760035460405163a9059cbb60e01b8152336004820152602481018690526001600160a01b039091169063a9059cbb906044016020604051808303816000875af11580156122fa573d6000803e3d6000fd5b505050506040513d601f19601f8201168201806040525081019061231e91906133fa565b505b82156123a15760025460065460405163a9059cbb60e01b81526001600160a01b0391821660048201526024810186905291169063a9059cbb906044016020604051808303816000875af115801561237b573d6000803e3d6000fd5b505050506040513d601f19601f8201168201806040525081019061239f91906133fa565b505b336000908152600860209081526040808320859055600b909152812080548692906123cd90849061327f565b9091555050336000908152600c602052604090204290555050600180559196909550909350915050565b6000546001600160a01b031633146124215760405162461bcd60e51b815260040161095e906131ff565b600680546001600160a01b0319166001600160a01b0392909216919091179055565b6013546060901561258b5760135467ffffffffffffffff811115612469576124696130cf565b6040519080825280602002602001820160405280156124a257816020015b61248f612c2e565b8152602001906001900390816124875790505b50905060005b6013548110156125895760056000601383815481106124c9576124c9613234565b9060005260206000200154815260200190815260200160002060405180610120016040529081600082015481526020016001820154815260200160028201548152602001600382015481526020016004820154815260200160058201548152602001600682015481526020016007820160009054906101000a900460ff1615151515815260200160088201548152505082828151811061256b5761256b613234565b60200260200101819052508080612581906132b9565b9150506124a8565b505b90565b600054600160a01b900460ff16156125db5760405162461bcd60e51b815260206004820152601060248201526f14185d5cd8589b194e881c185d5cd95960821b604482015260640161095e565b6125e3612a07565b3360009081526010602052604090205460ff16156126365760405162461bcd60e51b815260206004820152601060248201526f4163636f756e74206973207370616d2160801b604482015260640161095e565b61263f816129b0565b6126815760405162461bcd60e51b8152602060048201526013602482015272125b9d985b1a59081b1bd8dac81c195c9a5bd9606a1b604482015260640161095e565b6000818152600560205260409020600101548210156126d35760405162461bcd60e51b815260206004820152600e60248201526d125b9d985b1a5908185b5bdd5b9d60921b604482015260640161095e565b6002546040516323b872dd60e01b81523360048201523060248201526044810184905242916001600160a01b0316906323b872dd906064016020604051808303816000875af115801561272a573d6000803e3d6000fd5b505050506040513d601f19601f8201168201806040525081019061274e91906133fa565b5033600081815260076020908152604080832080546001818101835591855283852001889055848452600a835281842080549182018155845282842064ffffffffff87169101559282526008905290812080548592906127af90849061327f565b9091555050336000818152600960209081526040808320805460018101825590845282842001869055928252600c815282822042905584825260059052908120600801805485929061280290849061327f565b9091555050336000908152600d602052604090205460ff1661286f57600f805490600061282e836132b9565b9091555050600f546000908152600e6020908152604080832080546001600160a01b031916339081179091558352600d9091529020805460ff191660011790555b612877612a61565b6040805184815260208101849052908101829052309033907fe44628ed4b392c5ef46ffc833d640eefd957e81a312e583e0cc57eed5f04ada39060600160405180910390a3506109e460018055565b6000546001600160a01b031633146128f05760405162461bcd60e51b815260040161095e906131ff565b6001600160a01b0381166129555760405162461bcd60e51b815260206004820152602660248201527f4f776e61626c653a206e6577206f776e657220697320746865207a65726f206160448201526564647265737360d01b606482015260840161095e565b600080546040516001600160a01b03808516939216917f8be0079c531659141344cd1fd0a4f28419497f9722a3daafe3b4186f6b6457e091a3600080546001600160a01b0319166001600160a01b0392909216919091179055565b6000805b6013548110156129fe5782601382815481106129d2576129d2613234565b906000526020600020015414156129ec5750600192915050565b806129f6816132b9565b9150506129b4565b50600092915050565b60026001541415612a5a5760405162461bcd60e51b815260206004820152601f60248201527f5265656e7472616e637947756172643a207265656e7472616e742063616c6c00604482015260640161095e565b6002600155565b6002546040516370a0823160e01b81523060048201526000916001600160a01b0316906370a0823190602401602060405180830381865afa158015612aaa573d6000803e3d6000fd5b505050506040513d601f19601f82011682018060405250810190612ace91906133e1565b905060005b6013548110156109e457600060138281548110612af257612af2613234565b6000918252602080832090910154808352600580835260409384902084516101208101865281548152600182015494810194909452600281015494840194909452600384015460608401526004840154608084015283015460a0830152600683015460c0830152600783015460ff16151560e08301819052600890930154610100830152925090612c195760008160c0015185612b8f9190613297565b905060008260a0015182612ba39190613260565b905082608001518360600151612bb99190613303565b8111612be357808360600151612bcf9190613303565b600085815260046020526040902055612bf8565b60808301516000858152600460205260409020555b50506000828152600460209081526040808320546005909252909120600201555b50508080612c26906132b9565b915050612ad3565b60405180610120016040528060008152602001600081526020016000815260200160008152602001600081526020016000815260200160008152602001600015158152602001600081525090565b60405180610100016040528060006001600160a01b03168152602001600081526020016000815260200160608152602001606081526020016060815260200160008152602001600081525090565b6001600160a01b0381168114612cdf57600080fd5b50565b600060208284031215612cf457600080fd5b813561169e81612cca565b600060208284031215612d1157600080fd5b5035919050565b805182526020810151602083015260408101516040830152606081015160608301526080810151608083015260a081015160a083015260c081015160c083015260e0810151151560e08301526101008082015181840152505050565b6101208101612d838284612d18565b92915050565b6020808252825182820181905260009190848201906040850190845b81811015612dc157835183529284019291840191600101612da5565b50909695505050505050565b60008060408385031215612de057600080fd5b50508035926020909101359150565b600081518084526020808501945080840160005b83811015612e1f57815187529582019590820190600101612e03565b509495945050505050565b600061010060018060a01b03835116845260208301516020850152604083015160408501526060830151816060860152612e6682860182612def565b91505060808301518482036080860152612e808282612def565b91505060a083015184820360a0860152612e9a8282612def565b91505060c083015160c085015260e083015160e08501528091505092915050565b6000602080830181845280855180835260408601915060408160051b870101925083870160005b82811015612f1057603f19888603018452612efe858351612e2a565b94509285019290850190600101612ee2565b5092979650505050505050565b60005b83811015612f38578181015183820152602001612f20565b83811115612f47576000848401525b50505050565b60008151808452612f65816020860160208601612f1d565b601f01601f19169290920160200192915050565b6001600160a01b038616815260a060208201819052600090612f9d90830187612f4d565b8281036040840152612faf8187612f4d565b60ff9590951660608401525050608001529392505050565b60208152600061169e6020830184612e2a565b60008060408385031215612fed57600080fd5b8235612ff881612cca565b946020939093013593505050565b60ff81168114612cdf57600080fd5b60008060006060848603121561302a57600080fd5b83359250602084013561303c81613006565b9150604084013561304c81613006565b809150509250925092565b8015158114612cdf57600080fd5b600080600080600080600080610100898b03121561308257600080fd5b883597506020890135965060408901359550606089013594506080890135935060a0890135925060c0890135915060e08901356130be81613057565b809150509295985092959890939650565b634e487b7160e01b600052604160045260246000fd5b604051601f8201601f1916810167ffffffffffffffff8111828210171561310e5761310e6130cf565b604052919050565b6000602080838503121561312957600080fd5b823567ffffffffffffffff8082111561314157600080fd5b818501915085601f83011261315557600080fd5b813581811115613167576131676130cf565b8060051b91506131788483016130e5565b818152918301840191848101908884111561319257600080fd5b938501935b838510156131b057843582529385019390850190613197565b98975050505050505050565b6020808252825182820181905260009190848201906040850190845b81811015612dc1576131eb838551612d18565b9284019261012092909201916001016131d8565b6020808252818101527f4f776e61626c653a2063616c6c6572206973206e6f7420746865206f776e6572604082015260600190565b634e487b7160e01b600052603260045260246000fd5b634e487b7160e01b600052601160045260246000fd5b600081600019048311821515161561327a5761327a61324a565b500290565b600082198211156132925761329261324a565b500190565b6000826132b457634e487b7160e01b600052601260045260246000fd5b500490565b60006000198214156132cd576132cd61324a565b5060010190565b602080825260159082015274131bd8dac81c195c9a5bd9081b9bdd08199bdd5b99605a1b604082015260600190565b6000828210156133155761331561324a565b500390565b634e487b7160e01b600052603160045260246000fd5b60006020828403121561334257600080fd5b815167ffffffffffffffff8082111561335a57600080fd5b818401915084601f83011261336e57600080fd5b815181811115613380576133806130cf565b613393601f8201601f19166020016130e5565b91508082528560208285010111156133aa57600080fd5b6133bb816020840160208601612f1d565b50949350505050565b6000602082840312156133d657600080fd5b815161169e81613006565b6000602082840312156133f357600080fd5b5051919050565b60006020828403121561340c57600080fd5b815161169e81613057565b600060ff821660ff8416808210156134315761343161324a565b90039392505050565b600181815b8085111561347557816000190482111561345b5761345b61324a565b8085161561346857918102915b93841c939080029061343f565b509250929050565b60008261348c57506001612d83565b8161349957506000612d83565b81600181146134af57600281146134b9576134d5565b6001915050612d83565b60ff8411156134ca576134ca61324a565b50506001821b612d83565b5060208310610133831016604e8410600b84101617156134f8575081810a612d83565b613502838361343a565b80600019048211156135165761351661324a565b029392505050565b600061169e838361347d56fea2646970667358221220860bb80b90818c071f02a40cd6e16f107b762a1e38e450d791d29d95e424468664736f6c634300080c0033",
					"opcodes": "PUSH1 0x80 PUSH1 0x40 MSTORE PUSH1 0x3 DUP1 SLOAD PUSH1 0xFF PUSH1 0xA0 SHL NOT AND PUSH1 0x1 PUSH1 0xA0 SHL OR SWAP1 SSTORE PUSH2 0x9C4 PUSH1 0x11 SSTORE PUSH1 0x3C PUSH1 0x12 SSTORE CALLVALUE DUP1 ISZERO PUSH3 0x2F JUMPI PUSH1 0x0 DUP1 REVERT JUMPDEST POP PUSH1 0x40 MLOAD PUSH3 0x3E15 CODESIZE SUB DUP1 PUSH3 0x3E15 DUP4 CODECOPY DUP2 ADD PUSH1 0x40 DUP2 SWAP1 MSTORE PUSH3 0x52 SWAP2 PUSH3 0x6C0 JUMP JUMPDEST PUSH1 0x0 DUP1 SLOAD PUSH1 0x1 PUSH1 0x1 PUSH1 0xA0 SHL SUB NOT AND CALLER SWAP1 DUP2 OR DUP3 SSTORE PUSH1 0x40 MLOAD SWAP1 SWAP2 SWAP1 PUSH32 0x8BE0079C531659141344CD1FD0A4F28419497F9722A3DAAFE3B4186F6B6457E0 SWAP1 DUP3 SWAP1 LOG3 PUSH1 0x0 DUP1 SLOAD PUSH1 0xFF PUSH1 0xA0 SHL NOT AND SWAP1 SSTORE PUSH1 0x1 DUP1 SSTORE PUSH1 0x2 DUP1 SLOAD PUSH1 0x1 PUSH1 0x1 PUSH1 0xA0 SHL SUB DUP1 DUP9 AND PUSH1 0x1 PUSH1 0x1 PUSH1 0xA0 SHL SUB NOT SWAP3 DUP4 AND DUP2 OR SWAP1 SWAP4 SSTORE PUSH1 0x3 DUP1 SLOAD SWAP2 DUP9 AND SWAP2 SWAP1 SWAP3 AND OR SWAP1 SSTORE PUSH1 0x11 DUP4 SWAP1 SSTORE PUSH1 0x40 DUP1 MLOAD PUSH4 0x313CE567 PUSH1 0xE0 SHL DUP2 MSTORE SWAP1 MLOAD PUSH4 0x313CE567 SWAP2 PUSH1 0x4 DUP1 DUP3 ADD SWAP3 PUSH1 0x20 SWAP3 SWAP1 SWAP2 SWAP1 DUP3 SWAP1 SUB ADD DUP2 DUP7 GAS STATICCALL ISZERO DUP1 ISZERO PUSH3 0x111 JUMPI RETURNDATASIZE PUSH1 0x0 DUP1 RETURNDATACOPY RETURNDATASIZE PUSH1 0x0 REVERT JUMPDEST POP POP POP POP PUSH1 0x40 MLOAD RETURNDATASIZE PUSH1 0x1F NOT PUSH1 0x1F DUP3 ADD AND DUP3 ADD DUP1 PUSH1 0x40 MSTORE POP DUP2 ADD SWAP1 PUSH3 0x137 SWAP2 SWAP1 PUSH3 0x839 JUMP JUMPDEST PUSH1 0x3 PUSH1 0x15 PUSH2 0x100 EXP DUP2 SLOAD DUP2 PUSH1 0xFF MUL NOT AND SWAP1 DUP4 PUSH1 0xFF AND MUL OR SWAP1 SSTORE POP PUSH1 0x3 PUSH1 0x0 SWAP1 SLOAD SWAP1 PUSH2 0x100 EXP SWAP1 DIV PUSH1 0x1 PUSH1 0x1 PUSH1 0xA0 SHL SUB AND PUSH1 0x1 PUSH1 0x1 PUSH1 0xA0 SHL SUB AND PUSH4 0x313CE567 PUSH1 0x40 MLOAD DUP2 PUSH4 0xFFFFFFFF AND PUSH1 0xE0 SHL DUP2 MSTORE PUSH1 0x4 ADD PUSH1 0x20 PUSH1 0x40 MLOAD DUP1 DUP4 SUB DUP2 DUP7 GAS STATICCALL ISZERO DUP1 ISZERO PUSH3 0x1A5 JUMPI RETURNDATASIZE PUSH1 0x0 DUP1 RETURNDATACOPY RETURNDATASIZE PUSH1 0x0 REVERT JUMPDEST POP POP POP POP PUSH1 0x40 MLOAD RETURNDATASIZE PUSH1 0x1F NOT PUSH1 0x1F DUP3 ADD AND DUP3 ADD DUP1 PUSH1 0x40 MSTORE POP DUP2 ADD SWAP1 PUSH3 0x1CB SWAP2 SWAP1 PUSH3 0x839 JUMP JUMPDEST PUSH1 0x3 DUP1 SLOAD PUSH1 0xFF PUSH1 0xB0 SHL NOT AND PUSH1 0x1 PUSH1 0xB0 SHL PUSH1 0xFF SWAP4 SWAP1 SWAP4 AND SWAP3 SWAP1 SWAP3 MUL SWAP2 SWAP1 SWAP2 OR SWAP1 SSTORE PUSH1 0x6 DUP1 SLOAD PUSH1 0x1 PUSH1 0x1 PUSH1 0xA0 SHL SUB NOT AND PUSH1 0x1 PUSH1 0x1 PUSH1 0xA0 SHL SUB DUP6 AND OR SWAP1 SSTORE PUSH1 0x0 JUMPDEST DUP2 MLOAD DUP2 LT ISZERO PUSH3 0x340 JUMPI PUSH3 0x32B DUP3 DUP3 DUP2 MLOAD DUP2 LT PUSH3 0x22C JUMPI PUSH3 0x22C PUSH3 0x865 JUMP JUMPDEST PUSH1 0x20 MUL PUSH1 0x20 ADD ADD MLOAD PUSH1 0x0 ADD MLOAD DUP4 DUP4 DUP2 MLOAD DUP2 LT PUSH3 0x24D JUMPI PUSH3 0x24D PUSH3 0x865 JUMP JUMPDEST PUSH1 0x20 MUL PUSH1 0x20 ADD ADD MLOAD PUSH1 0x20 ADD MLOAD DUP5 DUP5 DUP2 MLOAD DUP2 LT PUSH3 0x26E JUMPI PUSH3 0x26E PUSH3 0x865 JUMP JUMPDEST PUSH1 0x20 MUL PUSH1 0x20 ADD ADD MLOAD PUSH1 0x40 ADD MLOAD DUP6 DUP6 DUP2 MLOAD DUP2 LT PUSH3 0x28F JUMPI PUSH3 0x28F PUSH3 0x865 JUMP JUMPDEST PUSH1 0x20 MUL PUSH1 0x20 ADD ADD MLOAD PUSH1 0x60 ADD MLOAD DUP7 DUP7 DUP2 MLOAD DUP2 LT PUSH3 0x2B0 JUMPI PUSH3 0x2B0 PUSH3 0x865 JUMP JUMPDEST PUSH1 0x20 MUL PUSH1 0x20 ADD ADD MLOAD PUSH1 0x80 ADD MLOAD DUP8 DUP8 DUP2 MLOAD DUP2 LT PUSH3 0x2D1 JUMPI PUSH3 0x2D1 PUSH3 0x865 JUMP JUMPDEST PUSH1 0x20 MUL PUSH1 0x20 ADD ADD MLOAD PUSH1 0xA0 ADD MLOAD DUP9 DUP9 DUP2 MLOAD DUP2 LT PUSH3 0x2F2 JUMPI PUSH3 0x2F2 PUSH3 0x865 JUMP JUMPDEST PUSH1 0x20 MUL PUSH1 0x20 ADD ADD MLOAD PUSH1 0xC0 ADD MLOAD DUP10 DUP10 DUP2 MLOAD DUP2 LT PUSH3 0x313 JUMPI PUSH3 0x313 PUSH3 0x865 JUMP JUMPDEST PUSH1 0x20 MUL PUSH1 0x20 ADD ADD MLOAD PUSH1 0xE0 ADD MLOAD PUSH3 0x34C PUSH1 0x20 SHL PUSH1 0x20 SHR JUMP JUMPDEST DUP1 PUSH3 0x337 DUP2 PUSH3 0x87B JUMP JUMPDEST SWAP2 POP POP PUSH3 0x209 JUMP JUMPDEST POP POP POP POP POP POP PUSH3 0x8A5 JUMP JUMPDEST PUSH1 0x0 SLOAD PUSH1 0x1 PUSH1 0x1 PUSH1 0xA0 SHL SUB AND CALLER EQ PUSH3 0x3AC JUMPI PUSH1 0x40 MLOAD PUSH3 0x461BCD PUSH1 0xE5 SHL DUP2 MSTORE PUSH1 0x20 PUSH1 0x4 DUP3 ADD DUP2 SWAP1 MSTORE PUSH1 0x24 DUP3 ADD MSTORE PUSH32 0x4F776E61626C653A2063616C6C6572206973206E6F7420746865206F776E6572 PUSH1 0x44 DUP3 ADD MSTORE PUSH1 0x64 ADD JUMPDEST PUSH1 0x40 MLOAD DUP1 SWAP2 SUB SWAP1 REVERT JUMPDEST PUSH2 0x2710 DUP7 GT ISZERO PUSH3 0x3F5 JUMPI PUSH1 0x40 MLOAD PUSH3 0x461BCD PUSH1 0xE5 SHL DUP2 MSTORE PUSH1 0x20 PUSH1 0x4 DUP3 ADD MSTORE PUSH1 0x12 PUSH1 0x24 DUP3 ADD MSTORE PUSH18 0x496E76616C69642070657263656E74616765 PUSH1 0x70 SHL PUSH1 0x44 DUP3 ADD MSTORE PUSH1 0x64 ADD PUSH3 0x3A3 JUMP JUMPDEST DUP4 DUP6 LT ISZERO PUSH3 0x462 JUMPI PUSH1 0x40 MLOAD PUSH3 0x461BCD PUSH1 0xE5 SHL DUP2 MSTORE PUSH1 0x20 PUSH1 0x4 DUP3 ADD MSTORE PUSH1 0x32 PUSH1 0x24 DUP3 ADD MSTORE PUSH32 0x4D61782072617465206D7573742062652067726561746572207468616E206F72 PUSH1 0x44 DUP3 ADD MSTORE PUSH18 0x20657175616C20746F206D696E2072617465 PUSH1 0x70 SHL PUSH1 0x64 DUP3 ADD MSTORE PUSH1 0x84 ADD PUSH3 0x3A3 JUMP JUMPDEST PUSH1 0x0 DUP3 GT PUSH3 0x4B4 JUMPI PUSH1 0x40 MLOAD PUSH3 0x461BCD PUSH1 0xE5 SHL DUP2 MSTORE PUSH1 0x20 PUSH1 0x4 DUP3 ADD DUP2 SWAP1 MSTORE PUSH1 0x24 DUP3 ADD MSTORE PUSH32 0x537465702073697A65206D7573742062652067726561746572207468616E2030 PUSH1 0x44 DUP3 ADD MSTORE PUSH1 0x64 ADD PUSH3 0x3A3 JUMP JUMPDEST PUSH1 0x0 DUP9 DUP2 MSTORE PUSH1 0x4 PUSH1 0x20 MSTORE PUSH1 0x40 SWAP1 KECCAK256 DUP7 SWAP1 SSTORE PUSH3 0x4D0 DUP9 PUSH3 0x5BD JUMP JUMPDEST PUSH3 0x50B JUMPI PUSH1 0x13 DUP1 SLOAD PUSH1 0x1 DUP2 ADD DUP3 SSTORE PUSH1 0x0 SWAP2 SWAP1 SWAP2 MSTORE PUSH32 0x66DE8FFDA797E3DE9C05E8FC57B3BF0EC28A930D40B0D285D93C06501CF6A090 ADD DUP9 SWAP1 SSTORE JUMPDEST PUSH1 0x40 DUP1 MLOAD PUSH2 0x120 DUP2 ADD DUP3 MSTORE DUP10 DUP2 MSTORE PUSH1 0x20 DUP1 DUP3 ADD SWAP10 DUP11 MSTORE DUP2 DUP4 ADD SWAP9 DUP10 MSTORE PUSH1 0x60 DUP3 ADD SWAP8 DUP9 MSTORE PUSH1 0x80 DUP3 ADD SWAP7 DUP8 MSTORE PUSH1 0xA0 DUP3 ADD SWAP6 DUP7 MSTORE PUSH1 0xC0 DUP3 ADD SWAP5 DUP6 MSTORE SWAP3 ISZERO ISZERO PUSH1 0xE0 DUP3 ADD SWAP1 DUP2 MSTORE PUSH1 0x0 DUP12 DUP2 MSTORE PUSH1 0x5 DUP1 DUP7 MSTORE SWAP4 DUP2 KECCAK256 PUSH1 0x8 DUP2 ADD DUP1 SLOAD PUSH2 0x100 DUP7 ADD SWAP1 DUP2 MSTORE SWAP14 SWAP1 SWAP3 MSTORE SWAP5 DUP5 SWAP1 MSTORE SWAP2 MLOAD DUP5 SSTORE SWAP9 MLOAD PUSH1 0x1 DUP5 ADD SSTORE SWAP7 MLOAD PUSH1 0x2 DUP4 ADD SSTORE SWAP5 MLOAD PUSH1 0x3 DUP3 ADD SSTORE SWAP3 MLOAD PUSH1 0x4 DUP5 ADD SSTORE SWAP1 MLOAD SWAP3 DUP3 ADD SWAP3 SWAP1 SWAP3 SSTORE SWAP1 MLOAD PUSH1 0x6 DUP3 ADD SSTORE SWAP2 MLOAD PUSH1 0x7 SWAP1 SWAP3 ADD DUP1 SLOAD PUSH1 0xFF NOT AND SWAP3 ISZERO ISZERO SWAP3 SWAP1 SWAP3 OR SWAP1 SWAP2 SSTORE SWAP1 MLOAD SWAP1 SSTORE JUMP JUMPDEST PUSH1 0x0 DUP1 JUMPDEST PUSH1 0x13 SLOAD DUP2 LT ISZERO PUSH3 0x613 JUMPI DUP3 PUSH1 0x13 DUP3 DUP2 SLOAD DUP2 LT PUSH3 0x5E3 JUMPI PUSH3 0x5E3 PUSH3 0x865 JUMP JUMPDEST SWAP1 PUSH1 0x0 MSTORE PUSH1 0x20 PUSH1 0x0 KECCAK256 ADD SLOAD EQ ISZERO PUSH3 0x5FE JUMPI POP PUSH1 0x1 SWAP3 SWAP2 POP POP JUMP JUMPDEST DUP1 PUSH3 0x60A DUP2 PUSH3 0x87B JUMP JUMPDEST SWAP2 POP POP PUSH3 0x5C1 JUMP JUMPDEST POP PUSH1 0x0 SWAP3 SWAP2 POP POP JUMP JUMPDEST PUSH1 0x1 PUSH1 0x1 PUSH1 0xA0 SHL SUB DUP2 AND DUP2 EQ PUSH3 0x632 JUMPI PUSH1 0x0 DUP1 REVERT JUMPDEST POP JUMP JUMPDEST PUSH4 0x4E487B71 PUSH1 0xE0 SHL PUSH1 0x0 MSTORE PUSH1 0x41 PUSH1 0x4 MSTORE PUSH1 0x24 PUSH1 0x0 REVERT JUMPDEST PUSH1 0x40 MLOAD PUSH2 0x120 DUP2 ADD PUSH1 0x1 PUSH1 0x1 PUSH1 0x40 SHL SUB DUP2 GT DUP3 DUP3 LT OR ISZERO PUSH3 0x671 JUMPI PUSH3 0x671 PUSH3 0x635 JUMP JUMPDEST PUSH1 0x40 MSTORE SWAP1 JUMP JUMPDEST PUSH1 0x40 MLOAD PUSH1 0x1F DUP3 ADD PUSH1 0x1F NOT AND DUP2 ADD PUSH1 0x1 PUSH1 0x1 PUSH1 0x40 SHL SUB DUP2 GT DUP3 DUP3 LT OR ISZERO PUSH3 0x6A2 JUMPI PUSH3 0x6A2 PUSH3 0x635 JUMP JUMPDEST PUSH1 0x40 MSTORE SWAP2 SWAP1 POP JUMP JUMPDEST DUP1 MLOAD DUP1 ISZERO ISZERO DUP2 EQ PUSH3 0x6BB JUMPI PUSH1 0x0 DUP1 REVERT JUMPDEST SWAP2 SWAP1 POP JUMP JUMPDEST PUSH1 0x0 DUP1 PUSH1 0x0 DUP1 PUSH1 0x0 PUSH1 0xA0 DUP7 DUP9 SUB SLT ISZERO PUSH3 0x6D9 JUMPI PUSH1 0x0 DUP1 REVERT JUMPDEST DUP6 MLOAD PUSH3 0x6E6 DUP2 PUSH3 0x61C JUMP JUMPDEST DUP1 SWAP6 POP POP PUSH1 0x20 DUP1 DUP8 ADD MLOAD PUSH3 0x6FB DUP2 PUSH3 0x61C JUMP JUMPDEST PUSH1 0x40 DUP9 ADD MLOAD SWAP1 SWAP6 POP PUSH3 0x70E DUP2 PUSH3 0x61C JUMP JUMPDEST PUSH1 0x60 DUP9 ADD MLOAD PUSH1 0x80 DUP1 DUP11 ADD MLOAD SWAP3 SWAP7 POP SWAP1 SWAP5 POP SWAP1 PUSH1 0x1 PUSH1 0x1 PUSH1 0x40 SHL SUB DUP1 DUP3 GT ISZERO PUSH3 0x736 JUMPI PUSH1 0x0 DUP1 REVERT JUMPDEST DUP2 DUP11 ADD SWAP2 POP DUP11 PUSH1 0x1F DUP4 ADD SLT PUSH3 0x74B JUMPI PUSH1 0x0 DUP1 REVERT JUMPDEST DUP2 MLOAD DUP2 DUP2 GT ISZERO PUSH3 0x760 JUMPI PUSH3 0x760 PUSH3 0x635 JUMP JUMPDEST PUSH3 0x770 DUP6 DUP3 PUSH1 0x5 SHL ADD PUSH3 0x677 JUMP JUMPDEST DUP2 DUP2 MSTORE DUP6 DUP2 ADD SWAP3 POP PUSH2 0x120 SWAP2 DUP3 MUL DUP5 ADD DUP7 ADD SWAP2 DUP14 DUP4 GT ISZERO PUSH3 0x791 JUMPI PUSH1 0x0 DUP1 REVERT JUMPDEST SWAP4 DUP7 ADD SWAP4 JUMPDEST DUP3 DUP6 LT ISZERO PUSH3 0x825 JUMPI DUP1 DUP6 DUP16 SUB SLT ISZERO PUSH3 0x7B0 JUMPI PUSH1 0x0 DUP1 DUP2 REVERT JUMPDEST PUSH3 0x7BA PUSH3 0x64B JUMP JUMPDEST DUP6 MLOAD DUP2 MSTORE DUP8 DUP7 ADD MLOAD DUP9 DUP3 ADD MSTORE PUSH1 0x40 DUP7 ADD MLOAD PUSH1 0x40 DUP3 ADD MSTORE PUSH1 0x60 DUP7 ADD MLOAD PUSH1 0x60 DUP3 ADD MSTORE DUP7 DUP7 ADD MLOAD DUP8 DUP3 ADD MSTORE PUSH1 0xA0 DUP7 ADD MLOAD PUSH1 0xA0 DUP3 ADD MSTORE PUSH1 0xC0 DUP1 DUP8 ADD MLOAD DUP2 DUP4 ADD MSTORE POP PUSH1 0xE0 PUSH3 0x806 DUP2 DUP9 ADD PUSH3 0x6AA JUMP JUMPDEST SWAP1 DUP3 ADD MSTORE PUSH2 0x100 DUP7 DUP2 ADD MLOAD SWAP1 DUP3 ADD MSTORE DUP5 MSTORE SWAP4 DUP5 ADD SWAP4 SWAP3 DUP7 ADD SWAP3 PUSH3 0x796 JUMP JUMPDEST POP DUP1 SWAP7 POP POP POP POP POP POP POP SWAP3 SWAP6 POP SWAP3 SWAP6 SWAP1 SWAP4 POP JUMP JUMPDEST PUSH1 0x0 PUSH1 0x20 DUP3 DUP5 SUB SLT ISZERO PUSH3 0x84C JUMPI PUSH1 0x0 DUP1 REVERT JUMPDEST DUP2 MLOAD PUSH1 0xFF DUP2 AND DUP2 EQ PUSH3 0x85E JUMPI PUSH1 0x0 DUP1 REVERT JUMPDEST SWAP4 SWAP3 POP POP POP JUMP JUMPDEST PUSH4 0x4E487B71 PUSH1 0xE0 SHL PUSH1 0x0 MSTORE PUSH1 0x32 PUSH1 0x4 MSTORE PUSH1 0x24 PUSH1 0x0 REVERT JUMPDEST PUSH1 0x0 PUSH1 0x0 NOT DUP3 EQ ISZERO PUSH3 0x89E JUMPI PUSH4 0x4E487B71 PUSH1 0xE0 SHL PUSH1 0x0 MSTORE PUSH1 0x11 PUSH1 0x4 MSTORE PUSH1 0x24 PUSH1 0x0 REVERT JUMPDEST POP PUSH1 0x1 ADD SWAP1 JUMP JUMPDEST PUSH2 0x3560 DUP1 PUSH3 0x8B5 PUSH1 0x0 CODECOPY PUSH1 0x0 RETURN INVALID PUSH1 0x80 PUSH1 0x40 MSTORE PUSH1 0x4 CALLDATASIZE LT PUSH2 0x260 JUMPI PUSH1 0x0 CALLDATALOAD PUSH1 0xE0 SHR DUP1 PUSH4 0x850BAD94 GT PUSH2 0x144 JUMPI DUP1 PUSH4 0xC2E5FE76 GT PUSH2 0xB6 JUMPI DUP1 PUSH4 0xDE644C76 GT PUSH2 0x7A JUMPI DUP1 PUSH4 0xDE644C76 EQ PUSH2 0x871 JUMPI DUP1 PUSH4 0xE2BBB158 EQ PUSH2 0x893 JUMPI DUP1 PUSH4 0xF256DFC5 EQ PUSH2 0x8B3 JUMPI DUP1 PUSH4 0xF2FDE38B EQ PUSH2 0x8D3 JUMPI DUP1 PUSH4 0xF66E4BE3 EQ PUSH2 0x8F3 JUMPI DUP1 PUSH4 0xF7C618C1 EQ PUSH2 0x914 JUMPI PUSH1 0x0 DUP1 REVERT JUMPDEST DUP1 PUSH4 0xC2E5FE76 EQ PUSH2 0x7A1 JUMPI DUP1 PUSH4 0xC53C5FC1 EQ PUSH2 0x7D1 JUMPI DUP1 PUSH4 0xC5C35196 EQ PUSH2 0x7E6 JUMPI DUP1 PUSH4 0xCD099205 EQ PUSH2 0x821 JUMPI DUP1 PUSH4 0xCD8DE42C EQ PUSH2 0x851 JUMPI PUSH1 0x0 DUP1 REVERT JUMPDEST DUP1 PUSH4 0x9953BA47 GT PUSH2 0x108 JUMPI DUP1 PUSH4 0x9953BA47 EQ PUSH2 0x6CD JUMPI DUP1 PUSH4 0x9A4577A2 EQ PUSH2 0x6ED JUMPI DUP1 PUSH4 0x9BDCECD1 EQ PUSH2 0x70D JUMPI DUP1 PUSH4 0xBA743F99 EQ PUSH2 0x740 JUMPI DUP1 PUSH4 0xC0941214 EQ PUSH2 0x760 JUMPI DUP1 PUSH4 0xC2412676 EQ PUSH2 0x781 JUMPI PUSH1 0x0 DUP1 REVERT JUMPDEST DUP1 PUSH4 0x850BAD94 EQ PUSH2 0x622 JUMPI DUP1 PUSH4 0x8DA5CB5B EQ PUSH2 0x64F JUMPI DUP1 PUSH4 0x917BB998 EQ PUSH2 0x66D JUMPI DUP1 PUSH4 0x91DC842E EQ PUSH2 0x68D JUMPI DUP1 PUSH4 0x95302CC0 EQ PUSH2 0x6AD JUMPI PUSH1 0x0 DUP1 REVERT JUMPDEST DUP1 PUSH4 0x41EE13BE GT PUSH2 0x1DD JUMPI DUP1 PUSH4 0x5C975ABB GT PUSH2 0x1A1 JUMPI DUP1 PUSH4 0x5C975ABB EQ PUSH2 0x558 JUMPI DUP1 PUSH4 0x647428B9 EQ PUSH2 0x583 JUMPI DUP1 PUSH4 0x6A1D18D2 EQ PUSH2 0x5A9 JUMPI DUP1 PUSH4 0x6B130DC2 EQ PUSH2 0x5C9 JUMPI DUP1 PUSH4 0x6BA13A82 EQ PUSH2 0x5DF JUMPI DUP1 PUSH4 0x6F77926B EQ PUSH2 0x5F5 JUMPI PUSH1 0x0 DUP1 REVERT JUMPDEST DUP1 PUSH4 0x41EE13BE EQ PUSH2 0x4A9 JUMPI DUP1 PUSH4 0x45982A66 EQ PUSH2 0x4CB JUMPI DUP1 PUSH4 0x4D70378A EQ PUSH2 0x4F8 JUMPI DUP1 PUSH4 0x52B8745F EQ PUSH2 0x518 JUMPI DUP1 PUSH4 0x58098BF4 EQ PUSH2 0x538 JUMPI PUSH1 0x0 DUP1 REVERT JUMPDEST DUP1 PUSH4 0x2B4A16A0 GT PUSH2 0x224 JUMPI DUP1 PUSH4 0x2B4A16A0 EQ PUSH2 0x33E JUMPI DUP1 PUSH4 0x31D7A262 EQ PUSH2 0x35E JUMPI DUP1 PUSH4 0x365B98B2 EQ PUSH2 0x37E JUMPI DUP1 PUSH4 0x39129CFF EQ PUSH2 0x3CC JUMPI DUP1 PUSH4 0x3D51C72D EQ PUSH2 0x47C JUMPI PUSH1 0x0 DUP1 REVERT JUMPDEST DUP1 PUSH4 0x3962D46 EQ PUSH2 0x26C JUMPI DUP1 PUSH4 0xA6F93E6 EQ PUSH2 0x2AC JUMPI DUP1 PUSH4 0x16ADA547 EQ PUSH2 0x2D9 JUMPI DUP1 PUSH4 0x230FFA0F EQ PUSH2 0x2EF JUMPI DUP1 PUSH4 0x27BA372C EQ PUSH2 0x311 JUMPI PUSH1 0x0 DUP1 REVERT JUMPDEST CALLDATASIZE PUSH2 0x267 JUMPI STOP JUMPDEST PUSH1 0x0 DUP1 REVERT JUMPDEST CALLVALUE DUP1 ISZERO PUSH2 0x278 JUMPI PUSH1 0x0 DUP1 REVERT JUMPDEST POP PUSH2 0x299 PUSH2 0x287 CALLDATASIZE PUSH1 0x4 PUSH2 0x2CE2 JUMP JUMPDEST PUSH1 0xB PUSH1 0x20 MSTORE PUSH1 0x0 SWAP1 DUP2 MSTORE PUSH1 0x40 SWAP1 KECCAK256 SLOAD DUP2 JUMP JUMPDEST PUSH1 0x40 MLOAD SWAP1 DUP2 MSTORE PUSH1 0x20 ADD JUMPDEST PUSH1 0x40 MLOAD DUP1 SWAP2 SUB SWAP1 RETURN JUMPDEST CALLVALUE DUP1 ISZERO PUSH2 0x2B8 JUMPI PUSH1 0x0 DUP1 REVERT JUMPDEST POP PUSH2 0x299 PUSH2 0x2C7 CALLDATASIZE PUSH1 0x4 PUSH2 0x2CE2 JUMP JUMPDEST PUSH1 0xC PUSH1 0x20 MSTORE PUSH1 0x0 SWAP1 DUP2 MSTORE PUSH1 0x40 SWAP1 KECCAK256 SLOAD DUP2 JUMP JUMPDEST CALLVALUE DUP1 ISZERO PUSH2 0x2E5 JUMPI PUSH1 0x0 DUP1 REVERT JUMPDEST POP PUSH2 0x299 PUSH1 0x12 SLOAD DUP2 JUMP JUMPDEST CALLVALUE DUP1 ISZERO PUSH2 0x2FB JUMPI PUSH1 0x0 DUP1 REVERT JUMPDEST POP PUSH2 0x30F PUSH2 0x30A CALLDATASIZE PUSH1 0x4 PUSH2 0x2CFF JUMP JUMPDEST PUSH2 0x934 JUMP JUMPDEST STOP JUMPDEST CALLVALUE DUP1 ISZERO PUSH2 0x31D JUMPI PUSH1 0x0 DUP1 REVERT JUMPDEST POP PUSH2 0x299 PUSH2 0x32C CALLDATASIZE PUSH1 0x4 PUSH2 0x2CE2 JUMP JUMPDEST PUSH1 0x8 PUSH1 0x20 MSTORE PUSH1 0x0 SWAP1 DUP2 MSTORE PUSH1 0x40 SWAP1 KECCAK256 SLOAD DUP2 JUMP JUMPDEST CALLVALUE DUP1 ISZERO PUSH2 0x34A JUMPI PUSH1 0x0 DUP1 REVERT JUMPDEST POP PUSH2 0x299 PUSH2 0x359 CALLDATASIZE PUSH1 0x4 PUSH2 0x2CFF JUMP JUMPDEST PUSH2 0x9E8 JUMP JUMPDEST CALLVALUE DUP1 ISZERO PUSH2 0x36A JUMPI PUSH1 0x0 DUP1 REVERT JUMPDEST POP PUSH2 0x299 PUSH2 0x379 CALLDATASIZE PUSH1 0x4 PUSH2 0x2CE2 JUMP JUMPDEST PUSH2 0xA09 JUMP JUMPDEST CALLVALUE DUP1 ISZERO PUSH2 0x38A JUMPI PUSH1 0x0 DUP1 REVERT JUMPDEST POP PUSH2 0x3B4 PUSH2 0x399 CALLDATASIZE PUSH1 0x4 PUSH2 0x2CFF JUMP JUMPDEST PUSH1 0xE PUSH1 0x20 MSTORE PUSH1 0x0 SWAP1 DUP2 MSTORE PUSH1 0x40 SWAP1 KECCAK256 SLOAD PUSH1 0x1 PUSH1 0x1 PUSH1 0xA0 SHL SUB AND DUP2 JUMP JUMPDEST PUSH1 0x40 MLOAD PUSH1 0x1 PUSH1 0x1 PUSH1 0xA0 SHL SUB SWAP1 SWAP2 AND DUP2 MSTORE PUSH1 0x20 ADD PUSH2 0x2A3 JUMP JUMPDEST CALLVALUE DUP1 ISZERO PUSH2 0x3D8 JUMPI PUSH1 0x0 DUP1 REVERT JUMPDEST POP PUSH2 0x436 PUSH2 0x3E7 CALLDATASIZE PUSH1 0x4 PUSH2 0x2CFF JUMP JUMPDEST PUSH1 0x5 PUSH1 0x20 DUP2 SWAP1 MSTORE PUSH1 0x0 SWAP2 DUP3 MSTORE PUSH1 0x40 SWAP1 SWAP2 KECCAK256 DUP1 SLOAD PUSH1 0x1 DUP3 ADD SLOAD PUSH1 0x2 DUP4 ADD SLOAD PUSH1 0x3 DUP5 ADD SLOAD PUSH1 0x4 DUP6 ADD SLOAD SWAP6 DUP6 ADD SLOAD PUSH1 0x6 DUP7 ADD SLOAD PUSH1 0x7 DUP8 ADD SLOAD PUSH1 0x8 SWAP1 SWAP8 ADD SLOAD SWAP6 SWAP8 SWAP5 SWAP7 SWAP4 SWAP6 SWAP3 SWAP5 SWAP4 SWAP2 SWAP3 SWAP1 SWAP2 PUSH1 0xFF AND SWAP1 DUP10 JUMP JUMPDEST PUSH1 0x40 DUP1 MLOAD SWAP10 DUP11 MSTORE PUSH1 0x20 DUP11 ADD SWAP9 SWAP1 SWAP9 MSTORE SWAP7 DUP9 ADD SWAP6 SWAP1 SWAP6 MSTORE PUSH1 0x60 DUP8 ADD SWAP4 SWAP1 SWAP4 MSTORE PUSH1 0x80 DUP7 ADD SWAP2 SWAP1 SWAP2 MSTORE PUSH1 0xA0 DUP6 ADD MSTORE PUSH1 0xC0 DUP5 ADD MSTORE ISZERO ISZERO PUSH1 0xE0 DUP4 ADD MSTORE PUSH2 0x100 DUP3 ADD MSTORE PUSH2 0x120 ADD PUSH2 0x2A3 JUMP JUMPDEST CALLVALUE DUP1 ISZERO PUSH2 0x488 JUMPI PUSH1 0x0 DUP1 REVERT JUMPDEST POP PUSH2 0x49C PUSH2 0x497 CALLDATASIZE PUSH1 0x4 PUSH2 0x2CFF JUMP JUMPDEST PUSH2 0xBB1 JUMP JUMPDEST PUSH1 0x40 MLOAD PUSH2 0x2A3 SWAP2 SWAP1 PUSH2 0x2D74 JUMP JUMPDEST CALLVALUE DUP1 ISZERO PUSH2 0x4B5 JUMPI PUSH1 0x0 DUP1 REVERT JUMPDEST POP PUSH2 0x4BE PUSH2 0xC5B JUMP JUMPDEST PUSH1 0x40 MLOAD PUSH2 0x2A3 SWAP2 SWAP1 PUSH2 0x2D89 JUMP JUMPDEST CALLVALUE DUP1 ISZERO PUSH2 0x4D7 JUMPI PUSH1 0x0 DUP1 REVERT JUMPDEST POP PUSH2 0x4EB PUSH2 0x4E6 CALLDATASIZE PUSH1 0x4 PUSH2 0x2DCD JUMP JUMPDEST PUSH2 0xCB3 JUMP JUMPDEST PUSH1 0x40 MLOAD PUSH2 0x2A3 SWAP2 SWAP1 PUSH2 0x2EBB JUMP JUMPDEST CALLVALUE DUP1 ISZERO PUSH2 0x504 JUMPI PUSH1 0x0 DUP1 REVERT JUMPDEST POP PUSH2 0x30F PUSH2 0x513 CALLDATASIZE PUSH1 0x4 PUSH2 0x2CFF JUMP JUMPDEST PUSH2 0xDB7 JUMP JUMPDEST CALLVALUE DUP1 ISZERO PUSH2 0x524 JUMPI PUSH1 0x0 DUP1 REVERT JUMPDEST POP PUSH2 0x30F PUSH2 0x533 CALLDATASIZE PUSH1 0x4 PUSH2 0x2CE2 JUMP JUMPDEST PUSH2 0xF60 JUMP JUMPDEST CALLVALUE DUP1 ISZERO PUSH2 0x544 JUMPI PUSH1 0x0 DUP1 REVERT JUMPDEST POP PUSH2 0x30F PUSH2 0x553 CALLDATASIZE PUSH1 0x4 PUSH2 0x2CE2 JUMP JUMPDEST PUSH2 0xFF6 JUMP JUMPDEST CALLVALUE DUP1 ISZERO PUSH2 0x564 JUMPI PUSH1 0x0 DUP1 REVERT JUMPDEST POP PUSH1 0x0 SLOAD PUSH1 0x1 PUSH1 0xA0 SHL SWAP1 DIV PUSH1 0xFF AND JUMPDEST PUSH1 0x40 MLOAD SWAP1 ISZERO ISZERO DUP2 MSTORE PUSH1 0x20 ADD PUSH2 0x2A3 JUMP JUMPDEST CALLVALUE DUP1 ISZERO PUSH2 0x58F JUMPI PUSH1 0x0 DUP1 REVERT JUMPDEST POP PUSH2 0x598 PUSH2 0x1089 JUMP JUMPDEST PUSH1 0x40 MLOAD PUSH2 0x2A3 SWAP6 SWAP5 SWAP4 SWAP3 SWAP2 SWAP1 PUSH2 0x2F79 JUMP JUMPDEST CALLVALUE DUP1 ISZERO PUSH2 0x5B5 JUMPI PUSH1 0x0 DUP1 REVERT JUMPDEST POP PUSH2 0x30F PUSH2 0x5C4 CALLDATASIZE PUSH1 0x4 PUSH2 0x2CFF JUMP JUMPDEST PUSH2 0x1272 JUMP JUMPDEST CALLVALUE DUP1 ISZERO PUSH2 0x5D5 JUMPI PUSH1 0x0 DUP1 REVERT JUMPDEST POP PUSH2 0x299 PUSH1 0x11 SLOAD DUP2 JUMP JUMPDEST CALLVALUE DUP1 ISZERO PUSH2 0x5EB JUMPI PUSH1 0x0 DUP1 REVERT JUMPDEST POP PUSH2 0x299 PUSH1 0xF SLOAD DUP2 JUMP JUMPDEST CALLVALUE DUP1 ISZERO PUSH2 0x601 JUMPI PUSH1 0x0 DUP1 REVERT JUMPDEST POP PUSH2 0x615 PUSH2 0x610 CALLDATASIZE PUSH1 0x4 PUSH2 0x2CE2 JUMP JUMPDEST PUSH2 0x12E8 JUMP JUMPDEST PUSH1 0x40 MLOAD PUSH2 0x2A3 SWAP2 SWAP1 PUSH2 0x2FC7 JUMP JUMPDEST CALLVALUE DUP1 ISZERO PUSH2 0x62E JUMPI PUSH1 0x0 DUP1 REVERT JUMPDEST POP PUSH2 0x299 PUSH2 0x63D CALLDATASIZE PUSH1 0x4 PUSH2 0x2CFF JUMP JUMPDEST PUSH1 0x4 PUSH1 0x20 MSTORE PUSH1 0x0 SWAP1 DUP2 MSTORE PUSH1 0x40 SWAP1 KECCAK256 SLOAD DUP2 JUMP JUMPDEST CALLVALUE DUP1 ISZERO PUSH2 0x65B JUMPI PUSH1 0x0 DUP1 REVERT JUMPDEST POP PUSH1 0x0 SLOAD PUSH1 0x1 PUSH1 0x1 PUSH1 0xA0 SHL SUB AND PUSH2 0x3B4 JUMP JUMPDEST CALLVALUE DUP1 ISZERO PUSH2 0x679 JUMPI PUSH1 0x0 DUP1 REVERT JUMPDEST POP PUSH2 0x30F PUSH2 0x688 CALLDATASIZE PUSH1 0x4 PUSH2 0x2FDA JUMP JUMPDEST PUSH2 0x148D JUMP JUMPDEST CALLVALUE DUP1 ISZERO PUSH2 0x699 JUMPI PUSH1 0x0 DUP1 REVERT JUMPDEST POP PUSH2 0x299 PUSH2 0x6A8 CALLDATASIZE PUSH1 0x4 PUSH2 0x2FDA JUMP JUMPDEST PUSH2 0x15DC JUMP JUMPDEST CALLVALUE DUP1 ISZERO PUSH2 0x6B9 JUMPI PUSH1 0x0 DUP1 REVERT JUMPDEST POP PUSH2 0x299 PUSH2 0x6C8 CALLDATASIZE PUSH1 0x4 PUSH2 0x2FDA JUMP JUMPDEST PUSH2 0x160D JUMP JUMPDEST CALLVALUE DUP1 ISZERO PUSH2 0x6D9 JUMPI PUSH1 0x0 DUP1 REVERT JUMPDEST POP PUSH2 0x299 PUSH2 0x6E8 CALLDATASIZE PUSH1 0x4 PUSH2 0x3015 JUMP JUMPDEST PUSH2 0x1629 JUMP JUMPDEST CALLVALUE DUP1 ISZERO PUSH2 0x6F9 JUMPI PUSH1 0x0 DUP1 REVERT JUMPDEST POP PUSH2 0x30F PUSH2 0x708 CALLDATASIZE PUSH1 0x4 PUSH2 0x3065 JUMP JUMPDEST PUSH2 0x16A5 JUMP JUMPDEST CALLVALUE DUP1 ISZERO PUSH2 0x719 JUMPI PUSH1 0x0 DUP1 REVERT JUMPDEST POP PUSH1 0x3 SLOAD PUSH2 0x72E SWAP1 PUSH1 0x1 PUSH1 0xB0 SHL SWAP1 DIV PUSH1 0xFF AND DUP2 JUMP JUMPDEST PUSH1 0x40 MLOAD PUSH1 0xFF SWAP1 SWAP2 AND DUP2 MSTORE PUSH1 0x20 ADD PUSH2 0x2A3 JUMP JUMPDEST CALLVALUE DUP1 ISZERO PUSH2 0x74C JUMPI PUSH1 0x0 DUP1 REVERT JUMPDEST POP PUSH2 0x299 PUSH2 0x75B CALLDATASIZE PUSH1 0x4 PUSH2 0x2FDA JUMP JUMPDEST PUSH2 0x18D7 JUMP JUMPDEST CALLVALUE DUP1 ISZERO PUSH2 0x76C JUMPI PUSH1 0x0 DUP1 REVERT JUMPDEST POP PUSH1 0x3 SLOAD PUSH2 0x72E SWAP1 PUSH1 0x1 PUSH1 0xA8 SHL SWAP1 DIV PUSH1 0xFF AND DUP2 JUMP JUMPDEST CALLVALUE DUP1 ISZERO PUSH2 0x78D JUMPI PUSH1 0x0 DUP1 REVERT JUMPDEST POP PUSH1 0x2 SLOAD PUSH2 0x3B4 SWAP1 PUSH1 0x1 PUSH1 0x1 PUSH1 0xA0 SHL SUB AND DUP2 JUMP JUMPDEST CALLVALUE DUP1 ISZERO PUSH2 0x7AD JUMPI PUSH1 0x0 DUP1 REVERT JUMPDEST POP PUSH2 0x573 PUSH2 0x7BC CALLDATASIZE PUSH1 0x4 PUSH2 0x2CE2 JUMP JUMPDEST PUSH1 0xD PUSH1 0x20 MSTORE PUSH1 0x0 SWAP1 DUP2 MSTORE PUSH1 0x40 SWAP1 KECCAK256 SLOAD PUSH1 0xFF AND DUP2 JUMP JUMPDEST CALLVALUE DUP1 ISZERO PUSH2 0x7DD JUMPI PUSH1 0x0 DUP1 REVERT JUMPDEST POP PUSH2 0x598 PUSH2 0x18F3 JUMP JUMPDEST CALLVALUE DUP1 ISZERO PUSH2 0x7F2 JUMPI PUSH1 0x0 DUP1 REVERT JUMPDEST POP PUSH2 0x806 PUSH2 0x801 CALLDATASIZE PUSH1 0x4 PUSH2 0x3116 JUMP JUMPDEST PUSH2 0x1A96 JUMP JUMPDEST PUSH1 0x40 DUP1 MLOAD SWAP4 DUP5 MSTORE PUSH1 0x20 DUP5 ADD SWAP3 SWAP1 SWAP3 MSTORE SWAP1 DUP3 ADD MSTORE PUSH1 0x60 ADD PUSH2 0x2A3 JUMP JUMPDEST CALLVALUE DUP1 ISZERO PUSH2 0x82D JUMPI PUSH1 0x0 DUP1 REVERT JUMPDEST POP PUSH2 0x573 PUSH2 0x83C CALLDATASIZE PUSH1 0x4 PUSH2 0x2CE2 JUMP JUMPDEST PUSH1 0x10 PUSH1 0x20 MSTORE PUSH1 0x0 SWAP1 DUP2 MSTORE PUSH1 0x40 SWAP1 KECCAK256 SLOAD PUSH1 0xFF AND DUP2 JUMP JUMPDEST CALLVALUE DUP1 ISZERO PUSH2 0x85D JUMPI PUSH1 0x0 DUP1 REVERT JUMPDEST POP PUSH2 0x30F PUSH2 0x86C CALLDATASIZE PUSH1 0x4 PUSH2 0x2CE2 JUMP JUMPDEST PUSH2 0x23F7 JUMP JUMPDEST CALLVALUE DUP1 ISZERO PUSH2 0x87D JUMPI PUSH1 0x0 DUP1 REVERT JUMPDEST POP PUSH2 0x886 PUSH2 0x2443 JUMP JUMPDEST PUSH1 0x40 MLOAD PUSH2 0x2A3 SWAP2 SWAP1 PUSH2 0x31BC JUMP JUMPDEST CALLVALUE DUP1 ISZERO PUSH2 0x89F JUMPI PUSH1 0x0 DUP1 REVERT JUMPDEST POP PUSH2 0x30F PUSH2 0x8AE CALLDATASIZE PUSH1 0x4 PUSH2 0x2DCD JUMP JUMPDEST PUSH2 0x258E JUMP JUMPDEST CALLVALUE DUP1 ISZERO PUSH2 0x8BF JUMPI PUSH1 0x0 DUP1 REVERT JUMPDEST POP PUSH1 0x6 SLOAD PUSH2 0x3B4 SWAP1 PUSH1 0x1 PUSH1 0x1 PUSH1 0xA0 SHL SUB AND DUP2 JUMP JUMPDEST CALLVALUE DUP1 ISZERO PUSH2 0x8DF JUMPI PUSH1 0x0 DUP1 REVERT JUMPDEST POP PUSH2 0x30F PUSH2 0x8EE CALLDATASIZE PUSH1 0x4 PUSH2 0x2CE2 JUMP JUMPDEST PUSH2 0x28C6 JUMP JUMPDEST CALLVALUE DUP1 ISZERO PUSH2 0x8FF JUMPI PUSH1 0x0 DUP1 REVERT JUMPDEST POP PUSH1 0x3 SLOAD PUSH2 0x573 SWAP1 PUSH1 0x1 PUSH1 0xA0 SHL SWAP1 DIV PUSH1 0xFF AND DUP2 JUMP JUMPDEST CALLVALUE DUP1 ISZERO PUSH2 0x920 JUMPI PUSH1 0x0 DUP1 REVERT JUMPDEST POP PUSH1 0x3 SLOAD PUSH2 0x3B4 SWAP1 PUSH1 0x1 PUSH1 0x1 PUSH1 0xA0 SHL SUB AND DUP2 JUMP JUMPDEST PUSH1 0x0 SLOAD PUSH1 0x1 PUSH1 0x1 PUSH1 0xA0 SHL SUB AND CALLER EQ PUSH2 0x967 JUMPI PUSH1 0x40 MLOAD PUSH3 0x461BCD PUSH1 0xE5 SHL DUP2 MSTORE PUSH1 0x4 ADD PUSH2 0x95E SWAP1 PUSH2 0x31FF JUMP JUMPDEST PUSH1 0x40 MLOAD DUP1 SWAP2 SUB SWAP1 REVERT JUMPDEST DUP1 SELFBALANCE LT ISZERO PUSH2 0x9B7 JUMPI PUSH1 0x40 MLOAD PUSH3 0x461BCD PUSH1 0xE5 SHL DUP2 MSTORE PUSH1 0x20 PUSH1 0x4 DUP3 ADD MSTORE PUSH1 0x1A PUSH1 0x24 DUP3 ADD MSTORE PUSH32 0x496E73756666696369656E742065746865722062616C616E6365000000000000 PUSH1 0x44 DUP3 ADD MSTORE PUSH1 0x64 ADD PUSH2 0x95E JUMP JUMPDEST PUSH1 0x40 MLOAD CALLER SWAP1 DUP3 ISZERO PUSH2 0x8FC MUL SWAP1 DUP4 SWAP1 PUSH1 0x0 DUP2 DUP2 DUP2 DUP6 DUP9 DUP9 CALL SWAP4 POP POP POP POP ISZERO DUP1 ISZERO PUSH2 0x9E4 JUMPI RETURNDATASIZE PUSH1 0x0 DUP1 RETURNDATACOPY RETURNDATASIZE PUSH1 0x0 REVERT JUMPDEST POP POP JUMP JUMPDEST PUSH1 0x13 DUP2 DUP2 SLOAD DUP2 LT PUSH2 0x9F8 JUMPI PUSH1 0x0 DUP1 REVERT JUMPDEST PUSH1 0x0 SWAP2 DUP3 MSTORE PUSH1 0x20 SWAP1 SWAP2 KECCAK256 ADD SLOAD SWAP1 POP DUP2 JUMP JUMPDEST PUSH1 0x0 DUP1 TIMESTAMP DUP2 JUMPDEST PUSH1 0x1 PUSH1 0x1 PUSH1 0xA0 SHL SUB DUP6 AND PUSH1 0x0 SWAP1 DUP2 MSTORE PUSH1 0x7 PUSH1 0x20 MSTORE PUSH1 0x40 SWAP1 KECCAK256 SLOAD DUP2 LT ISZERO PUSH2 0xBA8 JUMPI PUSH1 0x12 SLOAD PUSH1 0x1 PUSH1 0x1 PUSH1 0xA0 SHL SUB DUP7 AND PUSH1 0x0 SWAP1 DUP2 MSTORE PUSH1 0x9 PUSH1 0x20 MSTORE PUSH1 0x40 DUP2 KECCAK256 DUP1 SLOAD SWAP2 SWAP3 SWAP2 DUP5 SWAP1 DUP2 LT PUSH2 0xA5F JUMPI PUSH2 0xA5F PUSH2 0x3234 JUMP JUMPDEST SWAP1 PUSH1 0x0 MSTORE PUSH1 0x20 PUSH1 0x0 KECCAK256 ADD SLOAD PUSH2 0xA74 SWAP2 SWAP1 PUSH2 0x3260 JUMP JUMPDEST PUSH1 0x1 PUSH1 0x1 PUSH1 0xA0 SHL SUB DUP8 AND PUSH1 0x0 SWAP1 DUP2 MSTORE PUSH1 0xA PUSH1 0x20 MSTORE PUSH1 0x40 SWAP1 KECCAK256 DUP1 SLOAD DUP5 SWAP1 DUP2 LT PUSH2 0xA9E JUMPI PUSH2 0xA9E PUSH2 0x3234 JUMP JUMPDEST SWAP1 PUSH1 0x0 MSTORE PUSH1 0x20 PUSH1 0x0 KECCAK256 ADD SLOAD PUSH2 0xAB3 SWAP2 SWAP1 PUSH2 0x327F JUMP JUMPDEST SWAP1 POP DUP1 DUP4 GT ISZERO PUSH2 0xB95 JUMPI PUSH1 0x1 PUSH1 0x1 PUSH1 0xA0 SHL SUB DUP7 AND PUSH1 0x0 SWAP1 DUP2 MSTORE PUSH1 0x9 PUSH1 0x20 MSTORE PUSH1 0x40 DUP2 KECCAK256 DUP1 SLOAD PUSH2 0x2710 SWAP2 PUSH1 0x4 SWAP2 DUP5 SWAP2 SWAP1 DUP8 SWAP1 DUP2 LT PUSH2 0xAF1 JUMPI PUSH2 0xAF1 PUSH2 0x3234 JUMP JUMPDEST SWAP1 PUSH1 0x0 MSTORE PUSH1 0x20 PUSH1 0x0 KECCAK256 ADD SLOAD DUP2 MSTORE PUSH1 0x20 ADD SWAP1 DUP2 MSTORE PUSH1 0x20 ADD PUSH1 0x0 KECCAK256 SLOAD PUSH1 0x7 PUSH1 0x0 DUP11 PUSH1 0x1 PUSH1 0x1 PUSH1 0xA0 SHL SUB AND PUSH1 0x1 PUSH1 0x1 PUSH1 0xA0 SHL SUB AND DUP2 MSTORE PUSH1 0x20 ADD SWAP1 DUP2 MSTORE PUSH1 0x20 ADD PUSH1 0x0 KECCAK256 DUP6 DUP2 SLOAD DUP2 LT PUSH2 0xB41 JUMPI PUSH2 0xB41 PUSH2 0x3234 JUMP JUMPDEST SWAP1 PUSH1 0x0 MSTORE PUSH1 0x20 PUSH1 0x0 KECCAK256 ADD SLOAD PUSH2 0xB56 SWAP2 SWAP1 PUSH2 0x3260 JUMP JUMPDEST PUSH2 0xB60 SWAP2 SWAP1 PUSH2 0x3297 JUMP JUMPDEST PUSH1 0x3 SLOAD SWAP1 SWAP2 POP PUSH2 0xB85 SWAP1 DUP3 SWAP1 PUSH1 0xFF PUSH1 0x1 PUSH1 0xA8 SHL DUP3 DIV DUP2 AND SWAP2 PUSH1 0x1 PUSH1 0xB0 SHL SWAP1 DIV AND PUSH2 0x1629 JUMP JUMPDEST SWAP1 POP PUSH2 0xB91 DUP2 DUP7 PUSH2 0x327F JUMP JUMPDEST SWAP5 POP POP JUMPDEST POP DUP1 PUSH2 0xBA0 DUP2 PUSH2 0x32B9 JUMP JUMPDEST SWAP2 POP POP PUSH2 0xA0F JUMP JUMPDEST POP SWAP1 SWAP4 SWAP3 POP POP POP JUMP JUMPDEST PUSH2 0xBB9 PUSH2 0x2C2E JUMP JUMPDEST PUSH2 0xBC2 DUP3 PUSH2 0x29B0 JUMP JUMPDEST PUSH2 0xBDE JUMPI PUSH1 0x40 MLOAD PUSH3 0x461BCD PUSH1 0xE5 SHL DUP2 MSTORE PUSH1 0x4 ADD PUSH2 0x95E SWAP1 PUSH2 0x32D4 JUMP JUMPDEST POP PUSH1 0x0 SWAP1 DUP2 MSTORE PUSH1 0x5 PUSH1 0x20 DUP2 DUP2 MSTORE PUSH1 0x40 SWAP3 DUP4 SWAP1 KECCAK256 DUP4 MLOAD PUSH2 0x120 DUP2 ADD DUP6 MSTORE DUP2 SLOAD DUP2 MSTORE PUSH1 0x1 DUP3 ADD SLOAD SWAP3 DUP2 ADD SWAP3 SWAP1 SWAP3 MSTORE PUSH1 0x2 DUP2 ADD SLOAD SWAP4 DUP3 ADD SWAP4 SWAP1 SWAP4 MSTORE PUSH1 0x3 DUP4 ADD SLOAD PUSH1 0x60 DUP3 ADD MSTORE PUSH1 0x4 DUP4 ADD SLOAD PUSH1 0x80 DUP3 ADD MSTORE SWAP1 DUP3 ADD SLOAD PUSH1 0xA0 DUP3 ADD MSTORE PUSH1 0x6 DUP3 ADD SLOAD PUSH1 0xC0 DUP3 ADD MSTORE PUSH1 0x7 DUP3 ADD SLOAD PUSH1 0xFF AND ISZERO ISZERO PUSH1 0xE0 DUP3 ADD MSTORE PUSH1 0x8 SWAP1 SWAP2 ADD SLOAD PUSH2 0x100 DUP3 ADD MSTORE SWAP1 JUMP JUMPDEST PUSH1 0x60 PUSH1 0x13 DUP1 SLOAD DUP1 PUSH1 0x20 MUL PUSH1 0x20 ADD PUSH1 0x40 MLOAD SWAP1 DUP2 ADD PUSH1 0x40 MSTORE DUP1 SWAP3 SWAP2 SWAP1 DUP2 DUP2 MSTORE PUSH1 0x20 ADD DUP3 DUP1 SLOAD DUP1 ISZERO PUSH2 0xCA9 JUMPI PUSH1 0x20 MUL DUP3 ADD SWAP2 SWAP1 PUSH1 0x0 MSTORE PUSH1 0x20 PUSH1 0x0 KECCAK256 SWAP1 JUMPDEST DUP2 SLOAD DUP2 MSTORE PUSH1 0x20 ADD SWAP1 PUSH1 0x1 ADD SWAP1 DUP1 DUP4 GT PUSH2 0xC95 JUMPI JUMPDEST POP POP POP POP POP SWAP1 POP SWAP1 JUMP JUMPDEST PUSH1 0x60 DUP2 PUSH2 0xCC0 JUMPI PUSH1 0xF SLOAD SWAP2 POP JUMPDEST PUSH1 0x0 PUSH2 0xCCC DUP4 DUP6 PUSH2 0x327F JUMP JUMPDEST SWAP1 POP PUSH2 0xCD8 DUP5 DUP3 PUSH2 0x3303 JUMP JUMPDEST PUSH8 0xFFFFFFFFFFFFFFFF DUP2 GT ISZERO PUSH2 0xCF0 JUMPI PUSH2 0xCF0 PUSH2 0x30CF JUMP JUMPDEST PUSH1 0x40 MLOAD SWAP1 DUP1 DUP3 MSTORE DUP1 PUSH1 0x20 MUL PUSH1 0x20 ADD DUP3 ADD PUSH1 0x40 MSTORE DUP1 ISZERO PUSH2 0xD29 JUMPI DUP2 PUSH1 0x20 ADD JUMPDEST PUSH2 0xD16 PUSH2 0x2C7C JUMP JUMPDEST DUP2 MSTORE PUSH1 0x20 ADD SWAP1 PUSH1 0x1 SWAP1 SUB SWAP1 DUP2 PUSH2 0xD0E JUMPI SWAP1 POP JUMPDEST POP SWAP2 POP PUSH1 0x0 JUMPDEST PUSH2 0xD39 DUP6 DUP4 PUSH2 0x3303 JUMP JUMPDEST DUP2 LT ISZERO PUSH2 0xDAF JUMPI PUSH2 0xD7F PUSH1 0xE PUSH1 0x0 DUP8 DUP5 PUSH1 0xF SLOAD PUSH2 0xD56 SWAP2 SWAP1 PUSH2 0x3303 JUMP JUMPDEST PUSH2 0xD60 SWAP2 SWAP1 PUSH2 0x3303 JUMP JUMPDEST DUP2 MSTORE PUSH1 0x20 DUP2 ADD SWAP2 SWAP1 SWAP2 MSTORE PUSH1 0x40 ADD PUSH1 0x0 KECCAK256 SLOAD PUSH1 0x1 PUSH1 0x1 PUSH1 0xA0 SHL SUB AND PUSH2 0x12E8 JUMP JUMPDEST DUP4 DUP3 DUP2 MLOAD DUP2 LT PUSH2 0xD91 JUMPI PUSH2 0xD91 PUSH2 0x3234 JUMP JUMPDEST PUSH1 0x20 MUL PUSH1 0x20 ADD ADD DUP2 SWAP1 MSTORE POP DUP1 DUP1 PUSH2 0xDA7 SWAP1 PUSH2 0x32B9 JUMP JUMPDEST SWAP2 POP POP PUSH2 0xD2F JUMP JUMPDEST POP POP SWAP3 SWAP2 POP POP JUMP JUMPDEST PUSH1 0x0 SLOAD PUSH1 0x1 PUSH1 0x1 PUSH1 0xA0 SHL SUB AND CALLER EQ PUSH2 0xDE1 JUMPI PUSH1 0x40 MLOAD PUSH3 0x461BCD PUSH1 0xE5 SHL DUP2 MSTORE PUSH1 0x4 ADD PUSH2 0x95E SWAP1 PUSH2 0x31FF JUMP JUMPDEST PUSH2 0xDEA DUP2 PUSH2 0x29B0 JUMP JUMPDEST PUSH2 0xE06 JUMPI PUSH1 0x40 MLOAD PUSH3 0x461BCD PUSH1 0xE5 SHL DUP2 MSTORE PUSH1 0x4 ADD PUSH2 0x95E SWAP1 PUSH2 0x32D4 JUMP JUMPDEST PUSH1 0x0 DUP1 DUP1 JUMPDEST PUSH1 0x13 SLOAD DUP2 LT ISZERO PUSH2 0xE58 JUMPI DUP4 PUSH1 0x13 DUP3 DUP2 SLOAD DUP2 LT PUSH2 0xE29 JUMPI PUSH2 0xE29 PUSH2 0x3234 JUMP JUMPDEST SWAP1 PUSH1 0x0 MSTORE PUSH1 0x20 PUSH1 0x0 KECCAK256 ADD SLOAD EQ ISZERO PUSH2 0xE46 JUMPI DUP1 SWAP3 POP PUSH1 0x1 SWAP2 POP PUSH2 0xE58 JUMP JUMPDEST DUP1 PUSH2 0xE50 DUP2 PUSH2 0x32B9 JUMP JUMPDEST SWAP2 POP POP PUSH2 0xE0B JUMP JUMPDEST POP DUP1 PUSH2 0xE76 JUMPI PUSH1 0x40 MLOAD PUSH3 0x461BCD PUSH1 0xE5 SHL DUP2 MSTORE PUSH1 0x4 ADD PUSH2 0x95E SWAP1 PUSH2 0x32D4 JUMP JUMPDEST PUSH1 0x0 DUP4 DUP2 MSTORE PUSH1 0x5 PUSH1 0x20 DUP2 SWAP1 MSTORE PUSH1 0x40 DUP3 KECCAK256 DUP3 DUP2 SSTORE PUSH1 0x1 DUP2 ADD DUP4 SWAP1 SSTORE PUSH1 0x2 DUP2 ADD DUP4 SWAP1 SSTORE PUSH1 0x3 DUP2 ADD DUP4 SWAP1 SSTORE PUSH1 0x4 DUP2 ADD DUP4 SWAP1 SSTORE SWAP1 DUP2 ADD DUP3 SWAP1 SSTORE PUSH1 0x6 DUP2 ADD DUP3 SWAP1 SSTORE PUSH1 0x7 DUP2 ADD DUP1 SLOAD PUSH1 0xFF NOT AND SWAP1 SSTORE PUSH1 0x8 ADD SSTORE DUP2 JUMPDEST PUSH1 0x13 SLOAD PUSH2 0xED3 SWAP1 PUSH1 0x1 SWAP1 PUSH2 0x3303 JUMP JUMPDEST DUP2 LT ISZERO PUSH2 0xF33 JUMPI PUSH1 0x13 PUSH2 0xEE7 DUP3 PUSH1 0x1 PUSH2 0x327F JUMP JUMPDEST DUP2 SLOAD DUP2 LT PUSH2 0xEF7 JUMPI PUSH2 0xEF7 PUSH2 0x3234 JUMP JUMPDEST SWAP1 PUSH1 0x0 MSTORE PUSH1 0x20 PUSH1 0x0 KECCAK256 ADD SLOAD PUSH1 0x13 DUP3 DUP2 SLOAD DUP2 LT PUSH2 0xF15 JUMPI PUSH2 0xF15 PUSH2 0x3234 JUMP JUMPDEST PUSH1 0x0 SWAP2 DUP3 MSTORE PUSH1 0x20 SWAP1 SWAP2 KECCAK256 ADD SSTORE DUP1 PUSH2 0xF2B DUP2 PUSH2 0x32B9 JUMP JUMPDEST SWAP2 POP POP PUSH2 0xEC4 JUMP JUMPDEST POP PUSH1 0x13 DUP1 SLOAD DUP1 PUSH2 0xF45 JUMPI PUSH2 0xF45 PUSH2 0x331A JUMP JUMPDEST PUSH1 0x1 SWAP1 SUB DUP2 DUP2 SWAP1 PUSH1 0x0 MSTORE PUSH1 0x20 PUSH1 0x0 KECCAK256 ADD PUSH1 0x0 SWAP1 SSTORE SWAP1 SSTORE POP POP POP JUMP JUMPDEST PUSH1 0x0 SLOAD PUSH1 0x1 PUSH1 0x1 PUSH1 0xA0 SHL SUB AND CALLER EQ PUSH2 0xF8A JUMPI PUSH1 0x40 MLOAD PUSH3 0x461BCD PUSH1 0xE5 SHL DUP2 MSTORE PUSH1 0x4 ADD PUSH2 0x95E SWAP1 PUSH2 0x31FF JUMP JUMPDEST PUSH1 0x1 PUSH1 0x1 PUSH1 0xA0 SHL SUB DUP2 AND PUSH2 0xFD2 JUMPI PUSH1 0x40 MLOAD PUSH3 0x461BCD PUSH1 0xE5 SHL DUP2 MSTORE PUSH1 0x20 PUSH1 0x4 DUP3 ADD MSTORE PUSH1 0xF PUSH1 0x24 DUP3 ADD MSTORE PUSH15 0x496E76616C69642061646472657373 PUSH1 0x88 SHL PUSH1 0x44 DUP3 ADD MSTORE PUSH1 0x64 ADD PUSH2 0x95E JUMP JUMPDEST PUSH1 0x1 PUSH1 0x1 PUSH1 0xA0 SHL SUB AND PUSH1 0x0 SWAP1 DUP2 MSTORE PUSH1 0x10 PUSH1 0x20 MSTORE PUSH1 0x40 SWAP1 KECCAK256 DUP1 SLOAD PUSH1 0xFF NOT AND PUSH1 0x1 OR SWAP1 SSTORE JUMP JUMPDEST PUSH1 0x0 SLOAD PUSH1 0x1 PUSH1 0x1 PUSH1 0xA0 SHL SUB AND CALLER EQ PUSH2 0x1020 JUMPI PUSH1 0x40 MLOAD PUSH3 0x461BCD PUSH1 0xE5 SHL DUP2 MSTORE PUSH1 0x4 ADD PUSH2 0x95E SWAP1 PUSH2 0x31FF JUMP JUMPDEST PUSH1 0x1 PUSH1 0x1 PUSH1 0xA0 SHL SUB DUP2 AND PUSH2 0x1068 JUMPI PUSH1 0x40 MLOAD PUSH3 0x461BCD PUSH1 0xE5 SHL DUP2 MSTORE PUSH1 0x20 PUSH1 0x4 DUP3 ADD MSTORE PUSH1 0xF PUSH1 0x24 DUP3 ADD MSTORE PUSH15 0x496E76616C69642061646472657373 PUSH1 0x88 SHL PUSH1 0x44 DUP3 ADD MSTORE PUSH1 0x64 ADD PUSH2 0x95E JUMP JUMPDEST PUSH1 0x1 PUSH1 0x1 PUSH1 0xA0 SHL SUB AND PUSH1 0x0 SWAP1 DUP2 MSTORE PUSH1 0x10 PUSH1 0x20 MSTORE PUSH1 0x40 SWAP1 KECCAK256 DUP1 SLOAD PUSH1 0xFF NOT AND SWAP1 SSTORE JUMP JUMPDEST PUSH1 0x3 SLOAD PUSH1 0x40 DUP1 MLOAD PUSH4 0x6FDDE03 PUSH1 0xE0 SHL DUP2 MSTORE SWAP1 MLOAD PUSH1 0x1 PUSH1 0x1 PUSH1 0xA0 SHL SUB SWAP1 SWAP3 AND SWAP2 PUSH1 0x60 SWAP2 DUP3 SWAP2 PUSH1 0x0 SWAP2 DUP3 SWAP2 DUP7 SWAP2 PUSH4 0x6FDDE03 SWAP2 PUSH1 0x4 DUP1 DUP4 ADD SWAP3 DUP7 SWAP3 SWAP2 SWAP1 DUP3 SWAP1 SUB ADD DUP2 DUP7 GAS STATICCALL ISZERO DUP1 ISZERO PUSH2 0x10DD JUMPI RETURNDATASIZE PUSH1 0x0 DUP1 RETURNDATACOPY RETURNDATASIZE PUSH1 0x0 REVERT JUMPDEST POP POP POP POP PUSH1 0x40 MLOAD RETURNDATASIZE PUSH1 0x0 DUP3 RETURNDATACOPY PUSH1 0x1F RETURNDATASIZE SWAP1 DUP2 ADD PUSH1 0x1F NOT AND DUP3 ADD PUSH1 0x40 MSTORE PUSH2 0x1105 SWAP2 SWAP1 DUP2 ADD SWAP1 PUSH2 0x3330 JUMP JUMPDEST SWAP4 POP PUSH1 0x3 PUSH1 0x0 SWAP1 SLOAD SWAP1 PUSH2 0x100 EXP SWAP1 DIV PUSH1 0x1 PUSH1 0x1 PUSH1 0xA0 SHL SUB AND PUSH1 0x1 PUSH1 0x1 PUSH1 0xA0 SHL SUB AND PUSH4 0x95D89B41 PUSH1 0x40 MLOAD DUP2 PUSH4 0xFFFFFFFF AND PUSH1 0xE0 SHL DUP2 MSTORE PUSH1 0x4 ADD PUSH1 0x0 PUSH1 0x40 MLOAD DUP1 DUP4 SUB DUP2 DUP7 GAS STATICCALL ISZERO DUP1 ISZERO PUSH2 0x115A JUMPI RETURNDATASIZE PUSH1 0x0 DUP1 RETURNDATACOPY RETURNDATASIZE PUSH1 0x0 REVERT JUMPDEST POP POP POP POP PUSH1 0x40 MLOAD RETURNDATASIZE PUSH1 0x0 DUP3 RETURNDATACOPY PUSH1 0x1F RETURNDATASIZE SWAP1 DUP2 ADD PUSH1 0x1F NOT AND DUP3 ADD PUSH1 0x40 MSTORE PUSH2 0x1182 SWAP2 SWAP1 DUP2 ADD SWAP1 PUSH2 0x3330 JUMP JUMPDEST SWAP3 POP PUSH1 0x3 PUSH1 0x0 SWAP1 SLOAD SWAP1 PUSH2 0x100 EXP SWAP1 DIV PUSH1 0x1 PUSH1 0x1 PUSH1 0xA0 SHL SUB AND PUSH1 0x1 PUSH1 0x1 PUSH1 0xA0 SHL SUB AND PUSH4 0x313CE567 PUSH1 0x40 MLOAD DUP2 PUSH4 0xFFFFFFFF AND PUSH1 0xE0 SHL DUP2 MSTORE PUSH1 0x4 ADD PUSH1 0x20 PUSH1 0x40 MLOAD DUP1 DUP4 SUB DUP2 DUP7 GAS STATICCALL ISZERO DUP1 ISZERO PUSH2 0x11D7 JUMPI RETURNDATASIZE PUSH1 0x0 DUP1 RETURNDATACOPY RETURNDATASIZE PUSH1 0x0 REVERT JUMPDEST POP POP POP POP PUSH1 0x40 MLOAD RETURNDATASIZE PUSH1 0x1F NOT PUSH1 0x1F DUP3 ADD AND DUP3 ADD DUP1 PUSH1 0x40 MSTORE POP DUP2 ADD SWAP1 PUSH2 0x11FB SWAP2 SWAP1 PUSH2 0x33C4 JUMP JUMPDEST PUSH1 0x3 SLOAD PUSH1 0x40 MLOAD PUSH4 0x70A08231 PUSH1 0xE0 SHL DUP2 MSTORE ADDRESS PUSH1 0x4 DUP3 ADD MSTORE SWAP2 SWAP4 POP PUSH1 0x1 PUSH1 0x1 PUSH1 0xA0 SHL SUB AND SWAP1 PUSH4 0x70A08231 SWAP1 PUSH1 0x24 ADD JUMPDEST PUSH1 0x20 PUSH1 0x40 MLOAD DUP1 DUP4 SUB DUP2 DUP7 GAS STATICCALL ISZERO DUP1 ISZERO PUSH2 0x1245 JUMPI RETURNDATASIZE PUSH1 0x0 DUP1 RETURNDATACOPY RETURNDATASIZE PUSH1 0x0 REVERT JUMPDEST POP POP POP POP PUSH1 0x40 MLOAD RETURNDATASIZE PUSH1 0x1F NOT PUSH1 0x1F DUP3 ADD AND DUP3 ADD DUP1 PUSH1 0x40 MSTORE POP DUP2 ADD SWAP1 PUSH2 0x1269 SWAP2 SWAP1 PUSH2 0x33E1 JUMP JUMPDEST SWAP1 POP SWAP1 SWAP2 SWAP3 SWAP4 SWAP5 JUMP JUMPDEST PUSH1 0x0 SLOAD PUSH1 0x1 PUSH1 0x1 PUSH1 0xA0 SHL SUB AND CALLER EQ PUSH2 0x129C JUMPI PUSH1 0x40 MLOAD PUSH3 0x461BCD PUSH1 0xE5 SHL DUP2 MSTORE PUSH1 0x4 ADD PUSH2 0x95E SWAP1 PUSH2 0x31FF JUMP JUMPDEST PUSH2 0x2710 DUP2 GT ISZERO PUSH2 0x12E3 JUMPI PUSH1 0x40 MLOAD PUSH3 0x461BCD PUSH1 0xE5 SHL DUP2 MSTORE PUSH1 0x20 PUSH1 0x4 DUP3 ADD MSTORE PUSH1 0x12 PUSH1 0x24 DUP3 ADD MSTORE PUSH18 0x496E76616C69642070657263656E74616765 PUSH1 0x70 SHL PUSH1 0x44 DUP3 ADD MSTORE PUSH1 0x64 ADD PUSH2 0x95E JUMP JUMPDEST PUSH1 0x11 SSTORE JUMP JUMPDEST PUSH2 0x12F0 PUSH2 0x2C7C JUMP JUMPDEST PUSH1 0x40 DUP1 MLOAD PUSH2 0x100 DUP2 ADD DUP3 MSTORE PUSH1 0x1 PUSH1 0x1 PUSH1 0xA0 SHL SUB DUP5 AND DUP1 DUP3 MSTORE PUSH1 0x0 DUP2 DUP2 MSTORE PUSH1 0x8 PUSH1 0x20 SWAP1 DUP2 MSTORE DUP5 DUP3 KECCAK256 SLOAD DUP2 DUP6 ADD MSTORE DUP3 DUP3 MSTORE PUSH1 0xC DUP2 MSTORE DUP5 DUP3 KECCAK256 SLOAD DUP5 DUP7 ADD MSTORE SWAP2 DUP2 MSTORE PUSH1 0x9 DUP3 MSTORE DUP4 SWAP1 KECCAK256 DUP1 SLOAD DUP5 MLOAD DUP2 DUP5 MUL DUP2 ADD DUP5 ADD SWAP1 SWAP6 MSTORE DUP1 DUP6 MSTORE SWAP3 SWAP4 PUSH1 0x60 DUP6 ADD SWAP4 SWAP1 SWAP3 DUP4 ADD DUP3 DUP3 DUP1 ISZERO PUSH2 0x137E JUMPI PUSH1 0x20 MUL DUP3 ADD SWAP2 SWAP1 PUSH1 0x0 MSTORE PUSH1 0x20 PUSH1 0x0 KECCAK256 SWAP1 JUMPDEST DUP2 SLOAD DUP2 MSTORE PUSH1 0x20 ADD SWAP1 PUSH1 0x1 ADD SWAP1 DUP1 DUP4 GT PUSH2 0x136A JUMPI JUMPDEST POP POP POP SWAP2 DUP4 MSTORE POP POP PUSH1 0x1 PUSH1 0x1 PUSH1 0xA0 SHL SUB DUP5 AND PUSH1 0x0 SWAP1 DUP2 MSTORE PUSH1 0x7 PUSH1 0x20 SWAP1 DUP2 MSTORE PUSH1 0x40 SWAP2 DUP3 SWAP1 KECCAK256 DUP1 SLOAD DUP4 MLOAD DUP2 DUP5 MUL DUP2 ADD DUP5 ADD SWAP1 SWAP5 MSTORE DUP1 DUP5 MSTORE SWAP4 DUP3 ADD SWAP4 SWAP1 SWAP2 DUP4 ADD DUP3 DUP3 DUP1 ISZERO PUSH2 0x13E8 JUMPI PUSH1 0x20 MUL DUP3 ADD SWAP2 SWAP1 PUSH1 0x0 MSTORE PUSH1 0x20 PUSH1 0x0 KECCAK256 SWAP1 JUMPDEST DUP2 SLOAD DUP2 MSTORE PUSH1 0x20 ADD SWAP1 PUSH1 0x1 ADD SWAP1 DUP1 DUP4 GT PUSH2 0x13D4 JUMPI JUMPDEST POP POP POP SWAP2 DUP4 MSTORE POP POP PUSH1 0x1 PUSH1 0x1 PUSH1 0xA0 SHL SUB DUP5 AND PUSH1 0x0 SWAP1 DUP2 MSTORE PUSH1 0xA PUSH1 0x20 SWAP1 DUP2 MSTORE PUSH1 0x40 SWAP2 DUP3 SWAP1 KECCAK256 DUP1 SLOAD DUP4 MLOAD DUP2 DUP5 MUL DUP2 ADD DUP5 ADD SWAP1 SWAP5 MSTORE DUP1 DUP5 MSTORE SWAP4 DUP3 ADD SWAP4 SWAP1 SWAP2 DUP4 ADD DUP3 DUP3 DUP1 ISZERO PUSH2 0x1452 JUMPI PUSH1 0x20 MUL DUP3 ADD SWAP2 SWAP1 PUSH1 0x0 MSTORE PUSH1 0x20 PUSH1 0x0 KECCAK256 SWAP1 JUMPDEST DUP2 SLOAD DUP2 MSTORE PUSH1 0x20 ADD SWAP1 PUSH1 0x1 ADD SWAP1 DUP1 DUP4 GT PUSH2 0x143E JUMPI JUMPDEST POP POP POP SWAP2 DUP4 MSTORE POP POP PUSH1 0x1 PUSH1 0x1 PUSH1 0xA0 SHL SUB DUP5 AND PUSH1 0x0 SWAP1 DUP2 MSTORE PUSH1 0xB PUSH1 0x20 SWAP1 DUP2 MSTORE PUSH1 0x40 SWAP2 DUP3 SWAP1 KECCAK256 SLOAD SWAP1 DUP4 ADD MSTORE ADD PUSH2 0x1485 DUP5 PUSH2 0xA09 JUMP JUMPDEST SWAP1 MSTORE SWAP3 SWAP2 POP POP JUMP JUMPDEST PUSH1 0x0 SLOAD PUSH1 0x1 PUSH1 0x1 PUSH1 0xA0 SHL SUB AND CALLER EQ PUSH2 0x14B7 JUMPI PUSH1 0x40 MLOAD PUSH3 0x461BCD PUSH1 0xE5 SHL DUP2 MSTORE PUSH1 0x4 ADD PUSH2 0x95E SWAP1 PUSH2 0x31FF JUMP JUMPDEST PUSH1 0x40 MLOAD PUSH4 0x70A08231 PUSH1 0xE0 SHL DUP2 MSTORE ADDRESS PUSH1 0x4 DUP3 ADD MSTORE DUP2 SWAP1 PUSH1 0x1 PUSH1 0x1 PUSH1 0xA0 SHL SUB DUP5 AND SWAP1 PUSH4 0x70A08231 SWAP1 PUSH1 0x24 ADD PUSH1 0x20 PUSH1 0x40 MLOAD DUP1 DUP4 SUB DUP2 DUP7 GAS STATICCALL ISZERO DUP1 ISZERO PUSH2 0x14FD JUMPI RETURNDATASIZE PUSH1 0x0 DUP1 RETURNDATACOPY RETURNDATASIZE PUSH1 0x0 REVERT JUMPDEST POP POP POP POP PUSH1 0x40 MLOAD RETURNDATASIZE PUSH1 0x1F NOT PUSH1 0x1F DUP3 ADD AND DUP3 ADD DUP1 PUSH1 0x40 MSTORE POP DUP2 ADD SWAP1 PUSH2 0x1521 SWAP2 SWAP1 PUSH2 0x33E1 JUMP JUMPDEST LT ISZERO PUSH2 0x1566 JUMPI PUSH1 0x40 MLOAD PUSH3 0x461BCD PUSH1 0xE5 SHL DUP2 MSTORE PUSH1 0x20 PUSH1 0x4 DUP3 ADD MSTORE PUSH1 0x14 PUSH1 0x24 DUP3 ADD MSTORE PUSH20 0x496E73756666696369656E742062616C616E6365 PUSH1 0x60 SHL PUSH1 0x44 DUP3 ADD MSTORE PUSH1 0x64 ADD PUSH2 0x95E JUMP JUMPDEST PUSH1 0x40 MLOAD PUSH4 0xA9059CBB PUSH1 0xE0 SHL DUP2 MSTORE CALLER PUSH1 0x4 DUP3 ADD MSTORE PUSH1 0x24 DUP2 ADD DUP3 SWAP1 MSTORE PUSH1 0x1 PUSH1 0x1 PUSH1 0xA0 SHL SUB DUP4 AND SWAP1 PUSH4 0xA9059CBB SWAP1 PUSH1 0x44 ADD PUSH1 0x20 PUSH1 0x40 MLOAD DUP1 DUP4 SUB DUP2 PUSH1 0x0 DUP8 GAS CALL ISZERO DUP1 ISZERO PUSH2 0x15B3 JUMPI RETURNDATASIZE PUSH1 0x0 DUP1 RETURNDATACOPY RETURNDATASIZE PUSH1 0x0 REVERT JUMPDEST POP POP POP POP PUSH1 0x40 MLOAD RETURNDATASIZE PUSH1 0x1F NOT PUSH1 0x1F DUP3 ADD AND DUP3 ADD DUP1 PUSH1 0x40 MSTORE POP DUP2 ADD SWAP1 PUSH2 0x15D7 SWAP2 SWAP1 PUSH2 0x33FA JUMP JUMPDEST POP POP POP JUMP JUMPDEST PUSH1 0x7 PUSH1 0x20 MSTORE DUP2 PUSH1 0x0 MSTORE PUSH1 0x40 PUSH1 0x0 KECCAK256 DUP2 DUP2 SLOAD DUP2 LT PUSH2 0x15F8 JUMPI PUSH1 0x0 DUP1 REVERT JUMPDEST SWAP1 PUSH1 0x0 MSTORE PUSH1 0x20 PUSH1 0x0 KECCAK256 ADD PUSH1 0x0 SWAP2 POP SWAP2 POP POP SLOAD DUP2 JUMP JUMPDEST PUSH1 0x9 PUSH1 0x20 MSTORE DUP2 PUSH1 0x0 MSTORE PUSH1 0x40 PUSH1 0x0 KECCAK256 DUP2 DUP2 SLOAD DUP2 LT PUSH2 0x15F8 JUMPI PUSH1 0x0 DUP1 REVERT JUMPDEST PUSH1 0x0 DUP2 PUSH1 0xFF AND DUP4 PUSH1 0xFF AND GT ISZERO PUSH2 0x1667 JUMPI PUSH1 0x0 PUSH2 0x1645 DUP4 DUP6 PUSH2 0x3417 JUMP JUMPDEST PUSH1 0xFF AND SWAP1 POP PUSH2 0x1655 DUP2 PUSH1 0xA PUSH2 0x351E JUMP JUMPDEST PUSH2 0x165F SWAP1 DUP7 PUSH2 0x3297 JUMP JUMPDEST SWAP2 POP POP PUSH2 0x169E JUMP JUMPDEST DUP2 PUSH1 0xFF AND DUP4 PUSH1 0xFF AND LT ISZERO PUSH2 0x169B JUMPI PUSH1 0x0 PUSH2 0x1681 DUP5 DUP5 PUSH2 0x3417 JUMP JUMPDEST PUSH1 0xFF AND SWAP1 POP PUSH2 0x1691 DUP2 PUSH1 0xA PUSH2 0x351E JUMP JUMPDEST PUSH2 0x165F SWAP1 DUP7 PUSH2 0x3260 JUMP JUMPDEST POP DUP3 JUMPDEST SWAP4 SWAP3 POP POP POP JUMP JUMPDEST PUSH1 0x0 SLOAD PUSH1 0x1 PUSH1 0x1 PUSH1 0xA0 SHL SUB AND CALLER EQ PUSH2 0x16CF JUMPI PUSH1 0x40 MLOAD PUSH3 0x461BCD PUSH1 0xE5 SHL DUP2 MSTORE PUSH1 0x4 ADD PUSH2 0x95E SWAP1 PUSH2 0x31FF JUMP JUMPDEST PUSH2 0x2710 DUP7 GT ISZERO PUSH2 0x1716 JUMPI PUSH1 0x40 MLOAD PUSH3 0x461BCD PUSH1 0xE5 SHL DUP2 MSTORE PUSH1 0x20 PUSH1 0x4 DUP3 ADD MSTORE PUSH1 0x12 PUSH1 0x24 DUP3 ADD MSTORE PUSH18 0x496E76616C69642070657263656E74616765 PUSH1 0x70 SHL PUSH1 0x44 DUP3 ADD MSTORE PUSH1 0x64 ADD PUSH2 0x95E JUMP JUMPDEST DUP4 DUP6 LT ISZERO PUSH2 0x1781 JUMPI PUSH1 0x40 MLOAD PUSH3 0x461BCD PUSH1 0xE5 SHL DUP2 MSTORE PUSH1 0x20 PUSH1 0x4 DUP3 ADD MSTORE PUSH1 0x32 PUSH1 0x24 DUP3 ADD MSTORE PUSH32 0x4D61782072617465206D7573742062652067726561746572207468616E206F72 PUSH1 0x44 DUP3 ADD MSTORE PUSH18 0x20657175616C20746F206D696E2072617465 PUSH1 0x70 SHL PUSH1 0x64 DUP3 ADD MSTORE PUSH1 0x84 ADD PUSH2 0x95E JUMP JUMPDEST PUSH1 0x0 DUP3 GT PUSH2 0x17D1 JUMPI PUSH1 0x40 MLOAD PUSH3 0x461BCD PUSH1 0xE5 SHL DUP2 MSTORE PUSH1 0x20 PUSH1 0x4 DUP3 ADD DUP2 SWAP1 MSTORE PUSH1 0x24 DUP3 ADD MSTORE PUSH32 0x537465702073697A65206D7573742062652067726561746572207468616E2030 PUSH1 0x44 DUP3 ADD MSTORE PUSH1 0x64 ADD PUSH2 0x95E JUMP JUMPDEST PUSH1 0x0 DUP9 DUP2 MSTORE PUSH1 0x4 PUSH1 0x20 MSTORE PUSH1 0x40 SWAP1 KECCAK256 DUP7 SWAP1 SSTORE PUSH2 0x17EB DUP9 PUSH2 0x29B0 JUMP JUMPDEST PUSH2 0x1825 JUMPI PUSH1 0x13 DUP1 SLOAD PUSH1 0x1 DUP2 ADD DUP3 SSTORE PUSH1 0x0 SWAP2 SWAP1 SWAP2 MSTORE PUSH32 0x66DE8FFDA797E3DE9C05E8FC57B3BF0EC28A930D40B0D285D93C06501CF6A090 ADD DUP9 SWAP1 SSTORE JUMPDEST PUSH1 0x40 DUP1 MLOAD PUSH2 0x120 DUP2 ADD DUP3 MSTORE DUP10 DUP2 MSTORE PUSH1 0x20 DUP1 DUP3 ADD SWAP10 DUP11 MSTORE DUP2 DUP4 ADD SWAP9 DUP10 MSTORE PUSH1 0x60 DUP3 ADD SWAP8 DUP9 MSTORE PUSH1 0x80 DUP3 ADD SWAP7 DUP8 MSTORE PUSH1 0xA0 DUP3 ADD SWAP6 DUP7 MSTORE PUSH1 0xC0 DUP3 ADD SWAP5 DUP6 MSTORE SWAP3 ISZERO ISZERO PUSH1 0xE0 DUP3 ADD SWAP1 DUP2 MSTORE PUSH1 0x0 DUP12 DUP2 MSTORE PUSH1 0x5 DUP1 DUP7 MSTORE SWAP4 DUP2 KECCAK256 PUSH1 0x8 DUP2 ADD DUP1 SLOAD PUSH2 0x100 DUP7 ADD SWAP1 DUP2 MSTORE SWAP14 SWAP1 SWAP3 MSTORE SWAP5 DUP5 SWAP1 MSTORE SWAP2 MLOAD DUP5 SSTORE SWAP9 MLOAD PUSH1 0x1 DUP5 ADD SSTORE SWAP7 MLOAD PUSH1 0x2 DUP4 ADD SSTORE SWAP5 MLOAD PUSH1 0x3 DUP3 ADD SSTORE SWAP3 MLOAD PUSH1 0x4 DUP5 ADD SSTORE SWAP1 MLOAD SWAP3 DUP3 ADD SWAP3 SWAP1 SWAP3 SSTORE SWAP1 MLOAD PUSH1 0x6 DUP3 ADD SSTORE SWAP2 MLOAD PUSH1 0x7 SWAP1 SWAP3 ADD DUP1 SLOAD PUSH1 0xFF NOT AND SWAP3 ISZERO ISZERO SWAP3 SWAP1 SWAP3 OR SWAP1 SWAP2 SSTORE SWAP1 MLOAD SWAP1 SSTORE JUMP JUMPDEST PUSH1 0xA PUSH1 0x20 MSTORE DUP2 PUSH1 0x0 MSTORE PUSH1 0x40 PUSH1 0x0 KECCAK256 DUP2 DUP2 SLOAD DUP2 LT PUSH2 0x15F8 JUMPI PUSH1 0x0 DUP1 REVERT JUMPDEST PUSH1 0x2 SLOAD PUSH1 0x40 DUP1 MLOAD PUSH4 0x6FDDE03 PUSH1 0xE0 SHL DUP2 MSTORE SWAP1 MLOAD PUSH1 0x1 PUSH1 0x1 PUSH1 0xA0 SHL SUB SWAP1 SWAP3 AND SWAP2 PUSH1 0x60 SWAP2 DUP3 SWAP2 PUSH1 0x0 SWAP2 DUP3 SWAP2 DUP7 SWAP2 PUSH4 0x6FDDE03 SWAP2 PUSH1 0x4 DUP1 DUP4 ADD SWAP3 DUP7 SWAP3 SWAP2 SWAP1 DUP3 SWAP1 SUB ADD DUP2 DUP7 GAS STATICCALL ISZERO DUP1 ISZERO PUSH2 0x1947 JUMPI RETURNDATASIZE PUSH1 0x0 DUP1 RETURNDATACOPY RETURNDATASIZE PUSH1 0x0 REVERT JUMPDEST POP POP POP POP PUSH1 0x40 MLOAD RETURNDATASIZE PUSH1 0x0 DUP3 RETURNDATACOPY PUSH1 0x1F RETURNDATASIZE SWAP1 DUP2 ADD PUSH1 0x1F NOT AND DUP3 ADD PUSH1 0x40 MSTORE PUSH2 0x196F SWAP2 SWAP1 DUP2 ADD SWAP1 PUSH2 0x3330 JUMP JUMPDEST SWAP4 POP PUSH1 0x2 PUSH1 0x0 SWAP1 SLOAD SWAP1 PUSH2 0x100 EXP SWAP1 DIV PUSH1 0x1 PUSH1 0x1 PUSH1 0xA0 SHL SUB AND PUSH1 0x1 PUSH1 0x1 PUSH1 0xA0 SHL SUB AND PUSH4 0x95D89B41 PUSH1 0x40 MLOAD DUP2 PUSH4 0xFFFFFFFF AND PUSH1 0xE0 SHL DUP2 MSTORE PUSH1 0x4 ADD PUSH1 0x0 PUSH1 0x40 MLOAD DUP1 DUP4 SUB DUP2 DUP7 GAS STATICCALL ISZERO DUP1 ISZERO PUSH2 0x19C4 JUMPI RETURNDATASIZE PUSH1 0x0 DUP1 RETURNDATACOPY RETURNDATASIZE PUSH1 0x0 REVERT JUMPDEST POP POP POP POP PUSH1 0x40 MLOAD RETURNDATASIZE PUSH1 0x0 DUP3 RETURNDATACOPY PUSH1 0x1F RETURNDATASIZE SWAP1 DUP2 ADD PUSH1 0x1F NOT AND DUP3 ADD PUSH1 0x40 MSTORE PUSH2 0x19EC SWAP2 SWAP1 DUP2 ADD SWAP1 PUSH2 0x3330 JUMP JUMPDEST SWAP3 POP PUSH1 0x2 PUSH1 0x0 SWAP1 SLOAD SWAP1 PUSH2 0x100 EXP SWAP1 DIV PUSH1 0x1 PUSH1 0x1 PUSH1 0xA0 SHL SUB AND PUSH1 0x1 PUSH1 0x1 PUSH1 0xA0 SHL SUB AND PUSH4 0x313CE567 PUSH1 0x40 MLOAD DUP2 PUSH4 0xFFFFFFFF AND PUSH1 0xE0 SHL DUP2 MSTORE PUSH1 0x4 ADD PUSH1 0x20 PUSH1 0x40 MLOAD DUP1 DUP4 SUB DUP2 DUP7 GAS STATICCALL ISZERO DUP1 ISZERO PUSH2 0x1A41 JUMPI RETURNDATASIZE PUSH1 0x0 DUP1 RETURNDATACOPY RETURNDATASIZE PUSH1 0x0 REVERT JUMPDEST POP POP POP POP PUSH1 0x40 MLOAD RETURNDATASIZE PUSH1 0x1F NOT PUSH1 0x1F DUP3 ADD AND DUP3 ADD DUP1 PUSH1 0x40 MSTORE POP DUP2 ADD SWAP1 PUSH2 0x1A65 SWAP2 SWAP1 PUSH2 0x33C4 JUMP JUMPDEST PUSH1 0x2 SLOAD PUSH1 0x40 MLOAD PUSH4 0x70A08231 PUSH1 0xE0 SHL DUP2 MSTORE ADDRESS PUSH1 0x4 DUP3 ADD MSTORE SWAP2 SWAP4 POP PUSH1 0x1 PUSH1 0x1 PUSH1 0xA0 SHL SUB AND SWAP1 PUSH4 0x70A08231 SWAP1 PUSH1 0x24 ADD PUSH2 0x1228 JUMP JUMPDEST PUSH1 0x0 DUP1 PUSH1 0x0 PUSH2 0x1AAF PUSH1 0x0 SLOAD PUSH1 0xFF PUSH1 0x1 PUSH1 0xA0 SHL SWAP1 SWAP2 DIV AND SWAP1 JUMP JUMPDEST ISZERO PUSH2 0x1AEF JUMPI PUSH1 0x40 MLOAD PUSH3 0x461BCD PUSH1 0xE5 SHL DUP2 MSTORE PUSH1 0x20 PUSH1 0x4 DUP3 ADD MSTORE PUSH1 0x10 PUSH1 0x24 DUP3 ADD MSTORE PUSH16 0x14185D5CD8589B194E881C185D5CD959 PUSH1 0x82 SHL PUSH1 0x44 DUP3 ADD MSTORE PUSH1 0x64 ADD PUSH2 0x95E JUMP JUMPDEST PUSH2 0x1AF7 PUSH2 0x2A07 JUMP JUMPDEST CALLER PUSH1 0x0 SWAP1 DUP2 MSTORE PUSH1 0x10 PUSH1 0x20 MSTORE PUSH1 0x40 SWAP1 KECCAK256 SLOAD PUSH1 0xFF AND ISZERO PUSH2 0x1B4A JUMPI PUSH1 0x40 MLOAD PUSH3 0x461BCD PUSH1 0xE5 SHL DUP2 MSTORE PUSH1 0x20 PUSH1 0x4 DUP3 ADD MSTORE PUSH1 0x10 PUSH1 0x24 DUP3 ADD MSTORE PUSH16 0x4163636F756E74206973207370616D21 PUSH1 0x80 SHL PUSH1 0x44 DUP3 ADD MSTORE PUSH1 0x64 ADD PUSH2 0x95E JUMP JUMPDEST CALLER PUSH1 0x0 SWAP1 DUP2 MSTORE PUSH1 0x8 PUSH1 0x20 MSTORE PUSH1 0x40 DUP2 KECCAK256 SLOAD DUP2 SWAP1 DUP2 SWAP1 TIMESTAMP DUP3 JUMPDEST DUP10 MLOAD DUP2 LT ISZERO PUSH2 0x1FE5 JUMPI CALLER PUSH1 0x0 SWAP1 DUP2 MSTORE PUSH1 0x7 PUSH1 0x20 MSTORE PUSH1 0x40 DUP2 KECCAK256 DUP12 MLOAD DUP13 SWAP1 DUP5 SWAP1 DUP2 LT PUSH2 0x1B8D JUMPI PUSH2 0x1B8D PUSH2 0x3234 JUMP JUMPDEST PUSH1 0x20 MUL PUSH1 0x20 ADD ADD MLOAD DUP2 SLOAD DUP2 LT PUSH2 0x1BA5 JUMPI PUSH2 0x1BA5 PUSH2 0x3234 JUMP JUMPDEST SWAP1 PUSH1 0x0 MSTORE PUSH1 0x20 PUSH1 0x0 KECCAK256 ADD SLOAD GT ISZERO PUSH2 0x1FD3 JUMPI PUSH1 0x12 SLOAD CALLER PUSH1 0x0 SWAP1 DUP2 MSTORE PUSH1 0x9 PUSH1 0x20 MSTORE PUSH1 0x40 DUP2 KECCAK256 DUP13 MLOAD SWAP2 SWAP3 SWAP2 DUP14 SWAP1 DUP6 SWAP1 DUP2 LT PUSH2 0x1BDF JUMPI PUSH2 0x1BDF PUSH2 0x3234 JUMP JUMPDEST PUSH1 0x20 MUL PUSH1 0x20 ADD ADD MLOAD DUP2 SLOAD DUP2 LT PUSH2 0x1BF7 JUMPI PUSH2 0x1BF7 PUSH2 0x3234 JUMP JUMPDEST SWAP1 PUSH1 0x0 MSTORE PUSH1 0x20 PUSH1 0x0 KECCAK256 ADD SLOAD PUSH2 0x1C0C SWAP2 SWAP1 PUSH2 0x3260 JUMP JUMPDEST CALLER PUSH1 0x0 SWAP1 DUP2 MSTORE PUSH1 0xA PUSH1 0x20 MSTORE PUSH1 0x40 SWAP1 KECCAK256 DUP13 MLOAD DUP14 SWAP1 DUP6 SWAP1 DUP2 LT PUSH2 0x1C2F JUMPI PUSH2 0x1C2F PUSH2 0x3234 JUMP JUMPDEST PUSH1 0x20 MUL PUSH1 0x20 ADD ADD MLOAD DUP2 SLOAD DUP2 LT PUSH2 0x1C47 JUMPI PUSH2 0x1C47 PUSH2 0x3234 JUMP JUMPDEST SWAP1 PUSH1 0x0 MSTORE PUSH1 0x20 PUSH1 0x0 KECCAK256 ADD SLOAD PUSH2 0x1C5C SWAP2 SWAP1 PUSH2 0x327F JUMP JUMPDEST SWAP1 POP DUP1 DUP4 GT ISZERO PUSH2 0x1DD4 JUMPI PUSH1 0x0 PUSH2 0x2710 PUSH1 0x4 PUSH1 0x0 PUSH1 0x9 PUSH1 0x0 CALLER PUSH1 0x1 PUSH1 0x1 PUSH1 0xA0 SHL SUB AND PUSH1 0x1 PUSH1 0x1 PUSH1 0xA0 SHL SUB AND DUP2 MSTORE PUSH1 0x20 ADD SWAP1 DUP2 MSTORE PUSH1 0x20 ADD PUSH1 0x0 KECCAK256 DUP16 DUP8 DUP2 MLOAD DUP2 LT PUSH2 0x1CA6 JUMPI PUSH2 0x1CA6 PUSH2 0x3234 JUMP JUMPDEST PUSH1 0x20 MUL PUSH1 0x20 ADD ADD MLOAD DUP2 SLOAD DUP2 LT PUSH2 0x1CBE JUMPI PUSH2 0x1CBE PUSH2 0x3234 JUMP JUMPDEST SWAP1 PUSH1 0x0 MSTORE PUSH1 0x20 PUSH1 0x0 KECCAK256 ADD SLOAD DUP2 MSTORE PUSH1 0x20 ADD SWAP1 DUP2 MSTORE PUSH1 0x20 ADD PUSH1 0x0 KECCAK256 SLOAD PUSH1 0x7 PUSH1 0x0 CALLER PUSH1 0x1 PUSH1 0x1 PUSH1 0xA0 SHL SUB AND PUSH1 0x1 PUSH1 0x1 PUSH1 0xA0 SHL SUB AND DUP2 MSTORE PUSH1 0x20 ADD SWAP1 DUP2 MSTORE PUSH1 0x20 ADD PUSH1 0x0 KECCAK256 DUP15 DUP7 DUP2 MLOAD DUP2 LT PUSH2 0x1D0F JUMPI PUSH2 0x1D0F PUSH2 0x3234 JUMP JUMPDEST PUSH1 0x20 MUL PUSH1 0x20 ADD ADD MLOAD DUP2 SLOAD DUP2 LT PUSH2 0x1D27 JUMPI PUSH2 0x1D27 PUSH2 0x3234 JUMP JUMPDEST SWAP1 PUSH1 0x0 MSTORE PUSH1 0x20 PUSH1 0x0 KECCAK256 ADD SLOAD PUSH2 0x1D3C SWAP2 SWAP1 PUSH2 0x3260 JUMP JUMPDEST PUSH2 0x1D46 SWAP2 SWAP1 PUSH2 0x3297 JUMP JUMPDEST PUSH1 0x3 SLOAD SWAP1 SWAP2 POP PUSH2 0x1D6B SWAP1 DUP3 SWAP1 PUSH1 0xFF PUSH1 0x1 PUSH1 0xA8 SHL DUP3 DIV DUP2 AND SWAP2 PUSH1 0x1 PUSH1 0xB0 SHL SWAP1 DIV AND PUSH2 0x1629 JUMP JUMPDEST SWAP1 POP PUSH2 0x1D77 DUP2 DUP9 PUSH2 0x327F JUMP JUMPDEST CALLER PUSH1 0x0 SWAP1 DUP2 MSTORE PUSH1 0x7 PUSH1 0x20 MSTORE PUSH1 0x40 SWAP1 KECCAK256 DUP14 MLOAD SWAP2 SWAP9 POP SWAP1 DUP14 SWAP1 DUP6 SWAP1 DUP2 LT PUSH2 0x1D9E JUMPI PUSH2 0x1D9E PUSH2 0x3234 JUMP JUMPDEST PUSH1 0x20 MUL PUSH1 0x20 ADD ADD MLOAD DUP2 SLOAD DUP2 LT PUSH2 0x1DB6 JUMPI PUSH2 0x1DB6 PUSH2 0x3234 JUMP JUMPDEST SWAP1 PUSH1 0x0 MSTORE PUSH1 0x20 PUSH1 0x0 KECCAK256 ADD SLOAD DUP9 PUSH2 0x1DCC SWAP2 SWAP1 PUSH2 0x327F JUMP JUMPDEST SWAP8 POP POP PUSH2 0x1EB5 JUMP JUMPDEST PUSH1 0x11 SLOAD PUSH1 0x0 SWAP1 ISZERO PUSH2 0x1E45 JUMPI PUSH1 0x11 SLOAD CALLER PUSH1 0x0 SWAP1 DUP2 MSTORE PUSH1 0x7 PUSH1 0x20 MSTORE PUSH1 0x40 SWAP1 KECCAK256 DUP14 MLOAD PUSH2 0x2710 SWAP3 SWAP2 SWAP1 DUP16 SWAP1 DUP8 SWAP1 DUP2 LT PUSH2 0x1E0B JUMPI PUSH2 0x1E0B PUSH2 0x3234 JUMP JUMPDEST PUSH1 0x20 MUL PUSH1 0x20 ADD ADD MLOAD DUP2 SLOAD DUP2 LT PUSH2 0x1E23 JUMPI PUSH2 0x1E23 PUSH2 0x3234 JUMP JUMPDEST SWAP1 PUSH1 0x0 MSTORE PUSH1 0x20 PUSH1 0x0 KECCAK256 ADD SLOAD PUSH2 0x1E38 SWAP2 SWAP1 PUSH2 0x3260 JUMP JUMPDEST PUSH2 0x1E42 SWAP2 SWAP1 PUSH2 0x3297 JUMP JUMPDEST SWAP1 POP JUMPDEST CALLER PUSH1 0x0 SWAP1 DUP2 MSTORE PUSH1 0x7 PUSH1 0x20 MSTORE PUSH1 0x40 DUP2 KECCAK256 DUP14 MLOAD DUP4 SWAP2 SWAP1 DUP16 SWAP1 DUP8 SWAP1 DUP2 LT PUSH2 0x1E6B JUMPI PUSH2 0x1E6B PUSH2 0x3234 JUMP JUMPDEST PUSH1 0x20 MUL PUSH1 0x20 ADD ADD MLOAD DUP2 SLOAD DUP2 LT PUSH2 0x1E83 JUMPI PUSH2 0x1E83 PUSH2 0x3234 JUMP JUMPDEST SWAP1 PUSH1 0x0 MSTORE PUSH1 0x20 PUSH1 0x0 KECCAK256 ADD SLOAD PUSH2 0x1E98 SWAP2 SWAP1 PUSH2 0x3303 JUMP JUMPDEST SWAP1 POP PUSH2 0x1EA4 DUP2 DUP11 PUSH2 0x327F JUMP JUMPDEST SWAP9 POP PUSH2 0x1EB0 DUP3 DUP9 PUSH2 0x327F JUMP JUMPDEST SWAP7 POP POP POP JUMPDEST CALLER PUSH1 0x0 SWAP1 DUP2 MSTORE PUSH1 0x7 PUSH1 0x20 MSTORE PUSH1 0x40 SWAP1 KECCAK256 DUP12 MLOAD DUP13 SWAP1 DUP5 SWAP1 DUP2 LT PUSH2 0x1ED8 JUMPI PUSH2 0x1ED8 PUSH2 0x3234 JUMP JUMPDEST PUSH1 0x20 MUL PUSH1 0x20 ADD ADD MLOAD DUP2 SLOAD DUP2 LT PUSH2 0x1EF0 JUMPI PUSH2 0x1EF0 PUSH2 0x3234 JUMP JUMPDEST SWAP1 PUSH1 0x0 MSTORE PUSH1 0x20 PUSH1 0x0 KECCAK256 ADD SLOAD PUSH1 0x5 PUSH1 0x0 PUSH1 0x9 PUSH1 0x0 CALLER PUSH1 0x1 PUSH1 0x1 PUSH1 0xA0 SHL SUB AND PUSH1 0x1 PUSH1 0x1 PUSH1 0xA0 SHL SUB AND DUP2 MSTORE PUSH1 0x20 ADD SWAP1 DUP2 MSTORE PUSH1 0x20 ADD PUSH1 0x0 KECCAK256 DUP15 DUP7 DUP2 MLOAD DUP2 LT PUSH2 0x1F36 JUMPI PUSH2 0x1F36 PUSH2 0x3234 JUMP JUMPDEST PUSH1 0x20 MUL PUSH1 0x20 ADD ADD MLOAD DUP2 SLOAD DUP2 LT PUSH2 0x1F4E JUMPI PUSH2 0x1F4E PUSH2 0x3234 JUMP JUMPDEST SWAP1 PUSH1 0x0 MSTORE PUSH1 0x20 PUSH1 0x0 KECCAK256 ADD SLOAD DUP2 MSTORE PUSH1 0x20 ADD SWAP1 DUP2 MSTORE PUSH1 0x20 ADD PUSH1 0x0 KECCAK256 PUSH1 0x8 ADD PUSH1 0x0 DUP3 DUP3 SLOAD PUSH2 0x1F79 SWAP2 SWAP1 PUSH2 0x3303 JUMP JUMPDEST SWAP1 SWAP2 SSTORE POP POP CALLER PUSH1 0x0 SWAP1 DUP2 MSTORE PUSH1 0x7 PUSH1 0x20 MSTORE PUSH1 0x40 SWAP1 KECCAK256 DUP12 MLOAD DUP13 SWAP1 DUP5 SWAP1 DUP2 LT PUSH2 0x1FA1 JUMPI PUSH2 0x1FA1 PUSH2 0x3234 JUMP JUMPDEST PUSH1 0x20 MUL PUSH1 0x20 ADD ADD MLOAD DUP2 SLOAD DUP2 LT PUSH2 0x1FB9 JUMPI PUSH2 0x1FB9 PUSH2 0x3234 JUMP JUMPDEST SWAP1 PUSH1 0x0 MSTORE PUSH1 0x20 PUSH1 0x0 KECCAK256 ADD SLOAD DUP5 PUSH2 0x1FCF SWAP2 SWAP1 PUSH2 0x3303 JUMP JUMPDEST SWAP4 POP POP JUMPDEST DUP1 PUSH2 0x1FDD DUP2 PUSH2 0x32B9 JUMP JUMPDEST SWAP2 POP POP PUSH2 0x1B61 JUMP JUMPDEST POP PUSH1 0x0 JUMPDEST DUP10 MLOAD DUP2 LT ISZERO PUSH2 0x2225 JUMPI PUSH1 0x0 DUP11 DUP3 DUP2 MLOAD DUP2 LT PUSH2 0x2006 JUMPI PUSH2 0x2006 PUSH2 0x3234 JUMP JUMPDEST PUSH1 0x20 MUL PUSH1 0x20 ADD ADD MLOAD SWAP1 POP JUMPDEST CALLER PUSH1 0x0 SWAP1 DUP2 MSTORE PUSH1 0x7 PUSH1 0x20 MSTORE PUSH1 0x40 SWAP1 KECCAK256 SLOAD PUSH2 0x202D SWAP1 PUSH1 0x1 SWAP1 PUSH2 0x3303 JUMP JUMPDEST DUP2 LT ISZERO PUSH2 0x2173 JUMPI CALLER PUSH1 0x0 SWAP1 DUP2 MSTORE PUSH1 0x7 PUSH1 0x20 MSTORE PUSH1 0x40 SWAP1 KECCAK256 PUSH2 0x204E DUP3 PUSH1 0x1 PUSH2 0x327F JUMP JUMPDEST DUP2 SLOAD DUP2 LT PUSH2 0x205E JUMPI PUSH2 0x205E PUSH2 0x3234 JUMP JUMPDEST PUSH1 0x0 SWAP2 DUP3 MSTORE PUSH1 0x20 DUP1 DUP4 KECCAK256 SWAP1 SWAP2 ADD SLOAD CALLER DUP4 MSTORE PUSH1 0x7 SWAP1 SWAP2 MSTORE PUSH1 0x40 SWAP1 SWAP2 KECCAK256 DUP1 SLOAD DUP4 SWAP1 DUP2 LT PUSH2 0x208B JUMPI PUSH2 0x208B PUSH2 0x3234 JUMP JUMPDEST PUSH1 0x0 SWAP2 DUP3 MSTORE PUSH1 0x20 DUP1 DUP4 KECCAK256 SWAP1 SWAP2 ADD SWAP3 SWAP1 SWAP3 SSTORE CALLER DUP2 MSTORE PUSH1 0x9 SWAP1 SWAP2 MSTORE PUSH1 0x40 SWAP1 KECCAK256 PUSH2 0x20B3 DUP3 PUSH1 0x1 PUSH2 0x327F JUMP JUMPDEST DUP2 SLOAD DUP2 LT PUSH2 0x20C3 JUMPI PUSH2 0x20C3 PUSH2 0x3234 JUMP JUMPDEST PUSH1 0x0 SWAP2 DUP3 MSTORE PUSH1 0x20 DUP1 DUP4 KECCAK256 SWAP1 SWAP2 ADD SLOAD CALLER DUP4 MSTORE PUSH1 0x9 SWAP1 SWAP2 MSTORE PUSH1 0x40 SWAP1 SWAP2 KECCAK256 DUP1 SLOAD DUP4 SWAP1 DUP2 LT PUSH2 0x20F0 JUMPI PUSH2 0x20F0 PUSH2 0x3234 JUMP JUMPDEST PUSH1 0x0 SWAP2 DUP3 MSTORE PUSH1 0x20 DUP1 DUP4 KECCAK256 SWAP1 SWAP2 ADD SWAP3 SWAP1 SWAP3 SSTORE CALLER DUP2 MSTORE PUSH1 0xA SWAP1 SWAP2 MSTORE PUSH1 0x40 SWAP1 KECCAK256 PUSH2 0x2118 DUP3 PUSH1 0x1 PUSH2 0x327F JUMP JUMPDEST DUP2 SLOAD DUP2 LT PUSH2 0x2128 JUMPI PUSH2 0x2128 PUSH2 0x3234 JUMP JUMPDEST PUSH1 0x0 SWAP2 DUP3 MSTORE PUSH1 0x20 DUP1 DUP4 KECCAK256 SWAP1 SWAP2 ADD SLOAD CALLER DUP4 MSTORE PUSH1 0xA SWAP1 SWAP2 MSTORE PUSH1 0x40 SWAP1 SWAP2 KECCAK256 DUP1 SLOAD DUP4 SWAP1 DUP2 LT PUSH2 0x2155 JUMPI PUSH2 0x2155 PUSH2 0x3234 JUMP JUMPDEST PUSH1 0x0 SWAP2 DUP3 MSTORE PUSH1 0x20 SWAP1 SWAP2 KECCAK256 ADD SSTORE DUP1 PUSH2 0x216B DUP2 PUSH2 0x32B9 JUMP JUMPDEST SWAP2 POP POP PUSH2 0x2011 JUMP JUMPDEST POP CALLER PUSH1 0x0 SWAP1 DUP2 MSTORE PUSH1 0x7 PUSH1 0x20 MSTORE PUSH1 0x40 SWAP1 KECCAK256 DUP1 SLOAD DUP1 PUSH2 0x2192 JUMPI PUSH2 0x2192 PUSH2 0x331A JUMP JUMPDEST PUSH1 0x0 DUP3 DUP2 MSTORE PUSH1 0x20 DUP1 DUP3 KECCAK256 DUP4 ADD PUSH1 0x0 NOT SWAP1 DUP2 ADD DUP4 SWAP1 SSTORE SWAP1 SWAP3 ADD SWAP1 SWAP3 SSTORE CALLER DUP3 MSTORE PUSH1 0x9 SWAP1 MSTORE PUSH1 0x40 SWAP1 KECCAK256 DUP1 SLOAD DUP1 PUSH2 0x21C7 JUMPI PUSH2 0x21C7 PUSH2 0x331A JUMP JUMPDEST PUSH1 0x0 DUP3 DUP2 MSTORE PUSH1 0x20 DUP1 DUP3 KECCAK256 DUP4 ADD PUSH1 0x0 NOT SWAP1 DUP2 ADD DUP4 SWAP1 SSTORE SWAP1 SWAP3 ADD SWAP1 SWAP3 SSTORE CALLER DUP3 MSTORE PUSH1 0xA SWAP1 MSTORE PUSH1 0x40 SWAP1 KECCAK256 DUP1 SLOAD DUP1 PUSH2 0x21FC JUMPI PUSH2 0x21FC PUSH2 0x331A JUMP JUMPDEST PUSH1 0x1 SWAP1 SUB DUP2 DUP2 SWAP1 PUSH1 0x0 MSTORE PUSH1 0x20 PUSH1 0x0 KECCAK256 ADD PUSH1 0x0 SWAP1 SSTORE SWAP1 SSTORE DUP1 DUP1 PUSH2 0x221D SWAP1 PUSH2 0x32B9 JUMP JUMPDEST SWAP2 POP POP PUSH2 0x1FE9 JUMP JUMPDEST POP DUP5 ISZERO PUSH2 0x22A3 JUMPI PUSH1 0x2 SLOAD PUSH1 0x40 MLOAD PUSH4 0xA9059CBB PUSH1 0xE0 SHL DUP2 MSTORE CALLER PUSH1 0x4 DUP3 ADD MSTORE PUSH1 0x24 DUP2 ADD DUP8 SWAP1 MSTORE PUSH1 0x1 PUSH1 0x1 PUSH1 0xA0 SHL SUB SWAP1 SWAP2 AND SWAP1 PUSH4 0xA9059CBB SWAP1 PUSH1 0x44 ADD PUSH1 0x20 PUSH1 0x40 MLOAD DUP1 DUP4 SUB DUP2 PUSH1 0x0 DUP8 GAS CALL ISZERO DUP1 ISZERO PUSH2 0x227D JUMPI RETURNDATASIZE PUSH1 0x0 DUP1 RETURNDATACOPY RETURNDATASIZE PUSH1 0x0 REVERT JUMPDEST POP POP POP POP PUSH1 0x40 MLOAD RETURNDATASIZE PUSH1 0x1F NOT PUSH1 0x1F DUP3 ADD AND DUP3 ADD DUP1 PUSH1 0x40 MSTORE POP DUP2 ADD SWAP1 PUSH2 0x22A1 SWAP2 SWAP1 PUSH2 0x33FA JUMP JUMPDEST POP JUMPDEST DUP4 ISZERO PUSH2 0x2320 JUMPI PUSH1 0x3 SLOAD PUSH1 0x40 MLOAD PUSH4 0xA9059CBB PUSH1 0xE0 SHL DUP2 MSTORE CALLER PUSH1 0x4 DUP3 ADD MSTORE PUSH1 0x24 DUP2 ADD DUP7 SWAP1 MSTORE PUSH1 0x1 PUSH1 0x1 PUSH1 0xA0 SHL SUB SWAP1 SWAP2 AND SWAP1 PUSH4 0xA9059CBB SWAP1 PUSH1 0x44 ADD PUSH1 0x20 PUSH1 0x40 MLOAD DUP1 DUP4 SUB DUP2 PUSH1 0x0 DUP8 GAS CALL ISZERO DUP1 ISZERO PUSH2 0x22FA JUMPI RETURNDATASIZE PUSH1 0x0 DUP1 RETURNDATACOPY RETURNDATASIZE PUSH1 0x0 REVERT JUMPDEST POP POP POP POP PUSH1 0x40 MLOAD RETURNDATASIZE PUSH1 0x1F NOT PUSH1 0x1F DUP3 ADD AND DUP3 ADD DUP1 PUSH1 0x40 MSTORE POP DUP2 ADD SWAP1 PUSH2 0x231E SWAP2 SWAP1 PUSH2 0x33FA JUMP JUMPDEST POP JUMPDEST DUP3 ISZERO PUSH2 0x23A1 JUMPI PUSH1 0x2 SLOAD PUSH1 0x6 SLOAD PUSH1 0x40 MLOAD PUSH4 0xA9059CBB PUSH1 0xE0 SHL DUP2 MSTORE PUSH1 0x1 PUSH1 0x1 PUSH1 0xA0 SHL SUB SWAP2 DUP3 AND PUSH1 0x4 DUP3 ADD MSTORE PUSH1 0x24 DUP2 ADD DUP7 SWAP1 MSTORE SWAP2 AND SWAP1 PUSH4 0xA9059CBB SWAP1 PUSH1 0x44 ADD PUSH1 0x20 PUSH1 0x40 MLOAD DUP1 DUP4 SUB DUP2 PUSH1 0x0 DUP8 GAS CALL ISZERO DUP1 ISZERO PUSH2 0x237B JUMPI RETURNDATASIZE PUSH1 0x0 DUP1 RETURNDATACOPY RETURNDATASIZE PUSH1 0x0 REVERT JUMPDEST POP POP POP POP PUSH1 0x40 MLOAD RETURNDATASIZE PUSH1 0x1F NOT PUSH1 0x1F DUP3 ADD AND DUP3 ADD DUP1 PUSH1 0x40 MSTORE POP DUP2 ADD SWAP1 PUSH2 0x239F SWAP2 SWAP1 PUSH2 0x33FA JUMP JUMPDEST POP JUMPDEST CALLER PUSH1 0x0 SWAP1 DUP2 MSTORE PUSH1 0x8 PUSH1 0x20 SWAP1 DUP2 MSTORE PUSH1 0x40 DUP1 DUP4 KECCAK256 DUP6 SWAP1 SSTORE PUSH1 0xB SWAP1 SWAP2 MSTORE DUP2 KECCAK256 DUP1 SLOAD DUP7 SWAP3 SWAP1 PUSH2 0x23CD SWAP1 DUP5 SWAP1 PUSH2 0x327F JUMP JUMPDEST SWAP1 SWAP2 SSTORE POP POP CALLER PUSH1 0x0 SWAP1 DUP2 MSTORE PUSH1 0xC PUSH1 0x20 MSTORE PUSH1 0x40 SWAP1 KECCAK256 TIMESTAMP SWAP1 SSTORE POP POP PUSH1 0x1 DUP1 SSTORE SWAP2 SWAP7 SWAP1 SWAP6 POP SWAP1 SWAP4 POP SWAP2 POP POP JUMP JUMPDEST PUSH1 0x0 SLOAD PUSH1 0x1 PUSH1 0x1 PUSH1 0xA0 SHL SUB AND CALLER EQ PUSH2 0x2421 JUMPI PUSH1 0x40 MLOAD PUSH3 0x461BCD PUSH1 0xE5 SHL DUP2 MSTORE PUSH1 0x4 ADD PUSH2 0x95E SWAP1 PUSH2 0x31FF JUMP JUMPDEST PUSH1 0x6 DUP1 SLOAD PUSH1 0x1 PUSH1 0x1 PUSH1 0xA0 SHL SUB NOT AND PUSH1 0x1 PUSH1 0x1 PUSH1 0xA0 SHL SUB SWAP3 SWAP1 SWAP3 AND SWAP2 SWAP1 SWAP2 OR SWAP1 SSTORE JUMP JUMPDEST PUSH1 0x13 SLOAD PUSH1 0x60 SWAP1 ISZERO PUSH2 0x258B JUMPI PUSH1 0x13 SLOAD PUSH8 0xFFFFFFFFFFFFFFFF DUP2 GT ISZERO PUSH2 0x2469 JUMPI PUSH2 0x2469 PUSH2 0x30CF JUMP JUMPDEST PUSH1 0x40 MLOAD SWAP1 DUP1 DUP3 MSTORE DUP1 PUSH1 0x20 MUL PUSH1 0x20 ADD DUP3 ADD PUSH1 0x40 MSTORE DUP1 ISZERO PUSH2 0x24A2 JUMPI DUP2 PUSH1 0x20 ADD JUMPDEST PUSH2 0x248F PUSH2 0x2C2E JUMP JUMPDEST DUP2 MSTORE PUSH1 0x20 ADD SWAP1 PUSH1 0x1 SWAP1 SUB SWAP1 DUP2 PUSH2 0x2487 JUMPI SWAP1 POP JUMPDEST POP SWAP1 POP PUSH1 0x0 JUMPDEST PUSH1 0x13 SLOAD DUP2 LT ISZERO PUSH2 0x2589 JUMPI PUSH1 0x5 PUSH1 0x0 PUSH1 0x13 DUP4 DUP2 SLOAD DUP2 LT PUSH2 0x24C9 JUMPI PUSH2 0x24C9 PUSH2 0x3234 JUMP JUMPDEST SWAP1 PUSH1 0x0 MSTORE PUSH1 0x20 PUSH1 0x0 KECCAK256 ADD SLOAD DUP2 MSTORE PUSH1 0x20 ADD SWAP1 DUP2 MSTORE PUSH1 0x20 ADD PUSH1 0x0 KECCAK256 PUSH1 0x40 MLOAD DUP1 PUSH2 0x120 ADD PUSH1 0x40 MSTORE SWAP1 DUP2 PUSH1 0x0 DUP3 ADD SLOAD DUP2 MSTORE PUSH1 0x20 ADD PUSH1 0x1 DUP3 ADD SLOAD DUP2 MSTORE PUSH1 0x20 ADD PUSH1 0x2 DUP3 ADD SLOAD DUP2 MSTORE PUSH1 0x20 ADD PUSH1 0x3 DUP3 ADD SLOAD DUP2 MSTORE PUSH1 0x20 ADD PUSH1 0x4 DUP3 ADD SLOAD DUP2 MSTORE PUSH1 0x20 ADD PUSH1 0x5 DUP3 ADD SLOAD DUP2 MSTORE PUSH1 0x20 ADD PUSH1 0x6 DUP3 ADD SLOAD DUP2 MSTORE PUSH1 0x20 ADD PUSH1 0x7 DUP3 ADD PUSH1 0x0 SWAP1 SLOAD SWAP1 PUSH2 0x100 EXP SWAP1 DIV PUSH1 0xFF AND ISZERO ISZERO ISZERO ISZERO DUP2 MSTORE PUSH1 0x20 ADD PUSH1 0x8 DUP3 ADD SLOAD DUP2 MSTORE POP POP DUP3 DUP3 DUP2 MLOAD DUP2 LT PUSH2 0x256B JUMPI PUSH2 0x256B PUSH2 0x3234 JUMP JUMPDEST PUSH1 0x20 MUL PUSH1 0x20 ADD ADD DUP2 SWAP1 MSTORE POP DUP1 DUP1 PUSH2 0x2581 SWAP1 PUSH2 0x32B9 JUMP JUMPDEST SWAP2 POP POP PUSH2 0x24A8 JUMP JUMPDEST POP JUMPDEST SWAP1 JUMP JUMPDEST PUSH1 0x0 SLOAD PUSH1 0x1 PUSH1 0xA0 SHL SWAP1 DIV PUSH1 0xFF AND ISZERO PUSH2 0x25DB JUMPI PUSH1 0x40 MLOAD PUSH3 0x461BCD PUSH1 0xE5 SHL DUP2 MSTORE PUSH1 0x20 PUSH1 0x4 DUP3 ADD MSTORE PUSH1 0x10 PUSH1 0x24 DUP3 ADD MSTORE PUSH16 0x14185D5CD8589B194E881C185D5CD959 PUSH1 0x82 SHL PUSH1 0x44 DUP3 ADD MSTORE PUSH1 0x64 ADD PUSH2 0x95E JUMP JUMPDEST PUSH2 0x25E3 PUSH2 0x2A07 JUMP JUMPDEST CALLER PUSH1 0x0 SWAP1 DUP2 MSTORE PUSH1 0x10 PUSH1 0x20 MSTORE PUSH1 0x40 SWAP1 KECCAK256 SLOAD PUSH1 0xFF AND ISZERO PUSH2 0x2636 JUMPI PUSH1 0x40 MLOAD PUSH3 0x461BCD PUSH1 0xE5 SHL DUP2 MSTORE PUSH1 0x20 PUSH1 0x4 DUP3 ADD MSTORE PUSH1 0x10 PUSH1 0x24 DUP3 ADD MSTORE PUSH16 0x4163636F756E74206973207370616D21 PUSH1 0x80 SHL PUSH1 0x44 DUP3 ADD MSTORE PUSH1 0x64 ADD PUSH2 0x95E JUMP JUMPDEST PUSH2 0x263F DUP2 PUSH2 0x29B0 JUMP JUMPDEST PUSH2 0x2681 JUMPI PUSH1 0x40 MLOAD PUSH3 0x461BCD PUSH1 0xE5 SHL DUP2 MSTORE PUSH1 0x20 PUSH1 0x4 DUP3 ADD MSTORE PUSH1 0x13 PUSH1 0x24 DUP3 ADD MSTORE PUSH19 0x125B9D985B1A59081B1BD8DAC81C195C9A5BD9 PUSH1 0x6A SHL PUSH1 0x44 DUP3 ADD MSTORE PUSH1 0x64 ADD PUSH2 0x95E JUMP JUMPDEST PUSH1 0x0 DUP2 DUP2 MSTORE PUSH1 0x5 PUSH1 0x20 MSTORE PUSH1 0x40 SWAP1 KECCAK256 PUSH1 0x1 ADD SLOAD DUP3 LT ISZERO PUSH2 0x26D3 JUMPI PUSH1 0x40 MLOAD PUSH3 0x461BCD PUSH1 0xE5 SHL DUP2 MSTORE PUSH1 0x20 PUSH1 0x4 DUP3 ADD MSTORE PUSH1 0xE PUSH1 0x24 DUP3 ADD MSTORE PUSH14 0x125B9D985B1A5908185B5BDD5B9D PUSH1 0x92 SHL PUSH1 0x44 DUP3 ADD MSTORE PUSH1 0x64 ADD PUSH2 0x95E JUMP JUMPDEST PUSH1 0x2 SLOAD PUSH1 0x40 MLOAD PUSH4 0x23B872DD PUSH1 0xE0 SHL DUP2 MSTORE CALLER PUSH1 0x4 DUP3 ADD MSTORE ADDRESS PUSH1 0x24 DUP3 ADD MSTORE PUSH1 0x44 DUP2 ADD DUP5 SWAP1 MSTORE TIMESTAMP SWAP2 PUSH1 0x1 PUSH1 0x1 PUSH1 0xA0 SHL SUB AND SWAP1 PUSH4 0x23B872DD SWAP1 PUSH1 0x64 ADD PUSH1 0x20 PUSH1 0x40 MLOAD DUP1 DUP4 SUB DUP2 PUSH1 0x0 DUP8 GAS CALL ISZERO DUP1 ISZERO PUSH2 0x272A JUMPI RETURNDATASIZE PUSH1 0x0 DUP1 RETURNDATACOPY RETURNDATASIZE PUSH1 0x0 REVERT JUMPDEST POP POP POP POP PUSH1 0x40 MLOAD RETURNDATASIZE PUSH1 0x1F NOT PUSH1 0x1F DUP3 ADD AND DUP3 ADD DUP1 PUSH1 0x40 MSTORE POP DUP2 ADD SWAP1 PUSH2 0x274E SWAP2 SWAP1 PUSH2 0x33FA JUMP JUMPDEST POP CALLER PUSH1 0x0 DUP2 DUP2 MSTORE PUSH1 0x7 PUSH1 0x20 SWAP1 DUP2 MSTORE PUSH1 0x40 DUP1 DUP4 KECCAK256 DUP1 SLOAD PUSH1 0x1 DUP2 DUP2 ADD DUP4 SSTORE SWAP2 DUP6 MSTORE DUP4 DUP6 KECCAK256 ADD DUP9 SWAP1 SSTORE DUP5 DUP5 MSTORE PUSH1 0xA DUP4 MSTORE DUP2 DUP5 KECCAK256 DUP1 SLOAD SWAP2 DUP3 ADD DUP2 SSTORE DUP5 MSTORE DUP3 DUP5 KECCAK256 PUSH5 0xFFFFFFFFFF DUP8 AND SWAP2 ADD SSTORE SWAP3 DUP3 MSTORE PUSH1 0x8 SWAP1 MSTORE SWAP1 DUP2 KECCAK256 DUP1 SLOAD DUP6 SWAP3 SWAP1 PUSH2 0x27AF SWAP1 DUP5 SWAP1 PUSH2 0x327F JUMP JUMPDEST SWAP1 SWAP2 SSTORE POP POP CALLER PUSH1 0x0 DUP2 DUP2 MSTORE PUSH1 0x9 PUSH1 0x20 SWAP1 DUP2 MSTORE PUSH1 0x40 DUP1 DUP4 KECCAK256 DUP1 SLOAD PUSH1 0x1 DUP2 ADD DUP3 SSTORE SWAP1 DUP5 MSTORE DUP3 DUP5 KECCAK256 ADD DUP7 SWAP1 SSTORE SWAP3 DUP3 MSTORE PUSH1 0xC DUP2 MSTORE DUP3 DUP3 KECCAK256 TIMESTAMP SWAP1 SSTORE DUP5 DUP3 MSTORE PUSH1 0x5 SWAP1 MSTORE SWAP1 DUP2 KECCAK256 PUSH1 0x8 ADD DUP1 SLOAD DUP6 SWAP3 SWAP1 PUSH2 0x2802 SWAP1 DUP5 SWAP1 PUSH2 0x327F JUMP JUMPDEST SWAP1 SWAP2 SSTORE POP POP CALLER PUSH1 0x0 SWAP1 DUP2 MSTORE PUSH1 0xD PUSH1 0x20 MSTORE PUSH1 0x40 SWAP1 KECCAK256 SLOAD PUSH1 0xFF AND PUSH2 0x286F JUMPI PUSH1 0xF DUP1 SLOAD SWAP1 PUSH1 0x0 PUSH2 0x282E DUP4 PUSH2 0x32B9 JUMP JUMPDEST SWAP1 SWAP2 SSTORE POP POP PUSH1 0xF SLOAD PUSH1 0x0 SWAP1 DUP2 MSTORE PUSH1 0xE PUSH1 0x20 SWAP1 DUP2 MSTORE PUSH1 0x40 DUP1 DUP4 KECCAK256 DUP1 SLOAD PUSH1 0x1 PUSH1 0x1 PUSH1 0xA0 SHL SUB NOT AND CALLER SWAP1 DUP2 OR SWAP1 SWAP2 SSTORE DUP4 MSTORE PUSH1 0xD SWAP1 SWAP2 MSTORE SWAP1 KECCAK256 DUP1 SLOAD PUSH1 0xFF NOT AND PUSH1 0x1 OR SWAP1 SSTORE JUMPDEST PUSH2 0x2877 PUSH2 0x2A61 JUMP JUMPDEST PUSH1 0x40 DUP1 MLOAD DUP5 DUP2 MSTORE PUSH1 0x20 DUP2 ADD DUP5 SWAP1 MSTORE SWAP1 DUP2 ADD DUP3 SWAP1 MSTORE ADDRESS SWAP1 CALLER SWAP1 PUSH32 0xE44628ED4B392C5EF46FFC833D640EEFD957E81A312E583E0CC57EED5F04ADA3 SWAP1 PUSH1 0x60 ADD PUSH1 0x40 MLOAD DUP1 SWAP2 SUB SWAP1 LOG3 POP PUSH2 0x9E4 PUSH1 0x1 DUP1 SSTORE JUMP JUMPDEST PUSH1 0x0 SLOAD PUSH1 0x1 PUSH1 0x1 PUSH1 0xA0 SHL SUB AND CALLER EQ PUSH2 0x28F0 JUMPI PUSH1 0x40 MLOAD PUSH3 0x461BCD PUSH1 0xE5 SHL DUP2 MSTORE PUSH1 0x4 ADD PUSH2 0x95E SWAP1 PUSH2 0x31FF JUMP JUMPDEST PUSH1 0x1 PUSH1 0x1 PUSH1 0xA0 SHL SUB DUP2 AND PUSH2 0x2955 JUMPI PUSH1 0x40 MLOAD PUSH3 0x461BCD PUSH1 0xE5 SHL DUP2 MSTORE PUSH1 0x20 PUSH1 0x4 DUP3 ADD MSTORE PUSH1 0x26 PUSH1 0x24 DUP3 ADD MSTORE PUSH32 0x4F776E61626C653A206E6577206F776E657220697320746865207A65726F2061 PUSH1 0x44 DUP3 ADD MSTORE PUSH6 0x646472657373 PUSH1 0xD0 SHL PUSH1 0x64 DUP3 ADD MSTORE PUSH1 0x84 ADD PUSH2 0x95E JUMP JUMPDEST PUSH1 0x0 DUP1 SLOAD PUSH1 0x40 MLOAD PUSH1 0x1 PUSH1 0x1 PUSH1 0xA0 SHL SUB DUP1 DUP6 AND SWAP4 SWAP3 AND SWAP2 PUSH32 0x8BE0079C531659141344CD1FD0A4F28419497F9722A3DAAFE3B4186F6B6457E0 SWAP2 LOG3 PUSH1 0x0 DUP1 SLOAD PUSH1 0x1 PUSH1 0x1 PUSH1 0xA0 SHL SUB NOT AND PUSH1 0x1 PUSH1 0x1 PUSH1 0xA0 SHL SUB SWAP3 SWAP1 SWAP3 AND SWAP2 SWAP1 SWAP2 OR SWAP1 SSTORE JUMP JUMPDEST PUSH1 0x0 DUP1 JUMPDEST PUSH1 0x13 SLOAD DUP2 LT ISZERO PUSH2 0x29FE JUMPI DUP3 PUSH1 0x13 DUP3 DUP2 SLOAD DUP2 LT PUSH2 0x29D2 JUMPI PUSH2 0x29D2 PUSH2 0x3234 JUMP JUMPDEST SWAP1 PUSH1 0x0 MSTORE PUSH1 0x20 PUSH1 0x0 KECCAK256 ADD SLOAD EQ ISZERO PUSH2 0x29EC JUMPI POP PUSH1 0x1 SWAP3 SWAP2 POP POP JUMP JUMPDEST DUP1 PUSH2 0x29F6 DUP2 PUSH2 0x32B9 JUMP JUMPDEST SWAP2 POP POP PUSH2 0x29B4 JUMP JUMPDEST POP PUSH1 0x0 SWAP3 SWAP2 POP POP JUMP JUMPDEST PUSH1 0x2 PUSH1 0x1 SLOAD EQ ISZERO PUSH2 0x2A5A JUMPI PUSH1 0x40 MLOAD PUSH3 0x461BCD PUSH1 0xE5 SHL DUP2 MSTORE PUSH1 0x20 PUSH1 0x4 DUP3 ADD MSTORE PUSH1 0x1F PUSH1 0x24 DUP3 ADD MSTORE PUSH32 0x5265656E7472616E637947756172643A207265656E7472616E742063616C6C00 PUSH1 0x44 DUP3 ADD MSTORE PUSH1 0x64 ADD PUSH2 0x95E JUMP JUMPDEST PUSH1 0x2 PUSH1 0x1 SSTORE JUMP JUMPDEST PUSH1 0x2 SLOAD PUSH1 0x40 MLOAD PUSH4 0x70A08231 PUSH1 0xE0 SHL DUP2 MSTORE ADDRESS PUSH1 0x4 DUP3 ADD MSTORE PUSH1 0x0 SWAP2 PUSH1 0x1 PUSH1 0x1 PUSH1 0xA0 SHL SUB AND SWAP1 PUSH4 0x70A08231 SWAP1 PUSH1 0x24 ADD PUSH1 0x20 PUSH1 0x40 MLOAD DUP1 DUP4 SUB DUP2 DUP7 GAS STATICCALL ISZERO DUP1 ISZERO PUSH2 0x2AAA JUMPI RETURNDATASIZE PUSH1 0x0 DUP1 RETURNDATACOPY RETURNDATASIZE PUSH1 0x0 REVERT JUMPDEST POP POP POP POP PUSH1 0x40 MLOAD RETURNDATASIZE PUSH1 0x1F NOT PUSH1 0x1F DUP3 ADD AND DUP3 ADD DUP1 PUSH1 0x40 MSTORE POP DUP2 ADD SWAP1 PUSH2 0x2ACE SWAP2 SWAP1 PUSH2 0x33E1 JUMP JUMPDEST SWAP1 POP PUSH1 0x0 JUMPDEST PUSH1 0x13 SLOAD DUP2 LT ISZERO PUSH2 0x9E4 JUMPI PUSH1 0x0 PUSH1 0x13 DUP3 DUP2 SLOAD DUP2 LT PUSH2 0x2AF2 JUMPI PUSH2 0x2AF2 PUSH2 0x3234 JUMP JUMPDEST PUSH1 0x0 SWAP2 DUP3 MSTORE PUSH1 0x20 DUP1 DUP4 KECCAK256 SWAP1 SWAP2 ADD SLOAD DUP1 DUP4 MSTORE PUSH1 0x5 DUP1 DUP4 MSTORE PUSH1 0x40 SWAP4 DUP5 SWAP1 KECCAK256 DUP5 MLOAD PUSH2 0x120 DUP2 ADD DUP7 MSTORE DUP2 SLOAD DUP2 MSTORE PUSH1 0x1 DUP3 ADD SLOAD SWAP5 DUP2 ADD SWAP5 SWAP1 SWAP5 MSTORE PUSH1 0x2 DUP2 ADD SLOAD SWAP5 DUP5 ADD SWAP5 SWAP1 SWAP5 MSTORE PUSH1 0x3 DUP5 ADD SLOAD PUSH1 0x60 DUP5 ADD MSTORE PUSH1 0x4 DUP5 ADD SLOAD PUSH1 0x80 DUP5 ADD MSTORE DUP4 ADD SLOAD PUSH1 0xA0 DUP4 ADD MSTORE PUSH1 0x6 DUP4 ADD SLOAD PUSH1 0xC0 DUP4 ADD MSTORE PUSH1 0x7 DUP4 ADD SLOAD PUSH1 0xFF AND ISZERO ISZERO PUSH1 0xE0 DUP4 ADD DUP2 SWAP1 MSTORE PUSH1 0x8 SWAP1 SWAP4 ADD SLOAD PUSH2 0x100 DUP4 ADD MSTORE SWAP3 POP SWAP1 PUSH2 0x2C19 JUMPI PUSH1 0x0 DUP2 PUSH1 0xC0 ADD MLOAD DUP6 PUSH2 0x2B8F SWAP2 SWAP1 PUSH2 0x3297 JUMP JUMPDEST SWAP1 POP PUSH1 0x0 DUP3 PUSH1 0xA0 ADD MLOAD DUP3 PUSH2 0x2BA3 SWAP2 SWAP1 PUSH2 0x3260 JUMP JUMPDEST SWAP1 POP DUP3 PUSH1 0x80 ADD MLOAD DUP4 PUSH1 0x60 ADD MLOAD PUSH2 0x2BB9 SWAP2 SWAP1 PUSH2 0x3303 JUMP JUMPDEST DUP2 GT PUSH2 0x2BE3 JUMPI DUP1 DUP4 PUSH1 0x60 ADD MLOAD PUSH2 0x2BCF SWAP2 SWAP1 PUSH2 0x3303 JUMP JUMPDEST PUSH1 0x0 DUP6 DUP2 MSTORE PUSH1 0x4 PUSH1 0x20 MSTORE PUSH1 0x40 SWAP1 KECCAK256 SSTORE PUSH2 0x2BF8 JUMP JUMPDEST PUSH1 0x80 DUP4 ADD MLOAD PUSH1 0x0 DUP6 DUP2 MSTORE PUSH1 0x4 PUSH1 0x20 MSTORE PUSH1 0x40 SWAP1 KECCAK256 SSTORE JUMPDEST POP POP PUSH1 0x0 DUP3 DUP2 MSTORE PUSH1 0x4 PUSH1 0x20 SWAP1 DUP2 MSTORE PUSH1 0x40 DUP1 DUP4 KECCAK256 SLOAD PUSH1 0x5 SWAP1 SWAP3 MSTORE SWAP1 SWAP2 KECCAK256 PUSH1 0x2 ADD SSTORE JUMPDEST POP POP DUP1 DUP1 PUSH2 0x2C26 SWAP1 PUSH2 0x32B9 JUMP JUMPDEST SWAP2 POP POP PUSH2 0x2AD3 JUMP JUMPDEST PUSH1 0x40 MLOAD DUP1 PUSH2 0x120 ADD PUSH1 0x40 MSTORE DUP1 PUSH1 0x0 DUP2 MSTORE PUSH1 0x20 ADD PUSH1 0x0 DUP2 MSTORE PUSH1 0x20 ADD PUSH1 0x0 DUP2 MSTORE PUSH1 0x20 ADD PUSH1 0x0 DUP2 MSTORE PUSH1 0x20 ADD PUSH1 0x0 DUP2 MSTORE PUSH1 0x20 ADD PUSH1 0x0 DUP2 MSTORE PUSH1 0x20 ADD PUSH1 0x0 DUP2 MSTORE PUSH1 0x20 ADD PUSH1 0x0 ISZERO ISZERO DUP2 MSTORE PUSH1 0x20 ADD PUSH1 0x0 DUP2 MSTORE POP SWAP1 JUMP JUMPDEST PUSH1 0x40 MLOAD DUP1 PUSH2 0x100 ADD PUSH1 0x40 MSTORE DUP1 PUSH1 0x0 PUSH1 0x1 PUSH1 0x1 PUSH1 0xA0 SHL SUB AND DUP2 MSTORE PUSH1 0x20 ADD PUSH1 0x0 DUP2 MSTORE PUSH1 0x20 ADD PUSH1 0x0 DUP2 MSTORE PUSH1 0x20 ADD PUSH1 0x60 DUP2 MSTORE PUSH1 0x20 ADD PUSH1 0x60 DUP2 MSTORE PUSH1 0x20 ADD PUSH1 0x60 DUP2 MSTORE PUSH1 0x20 ADD PUSH1 0x0 DUP2 MSTORE PUSH1 0x20 ADD PUSH1 0x0 DUP2 MSTORE POP SWAP1 JUMP JUMPDEST PUSH1 0x1 PUSH1 0x1 PUSH1 0xA0 SHL SUB DUP2 AND DUP2 EQ PUSH2 0x2CDF JUMPI PUSH1 0x0 DUP1 REVERT JUMPDEST POP JUMP JUMPDEST PUSH1 0x0 PUSH1 0x20 DUP3 DUP5 SUB SLT ISZERO PUSH2 0x2CF4 JUMPI PUSH1 0x0 DUP1 REVERT JUMPDEST DUP2 CALLDATALOAD PUSH2 0x169E DUP2 PUSH2 0x2CCA JUMP JUMPDEST PUSH1 0x0 PUSH1 0x20 DUP3 DUP5 SUB SLT ISZERO PUSH2 0x2D11 JUMPI PUSH1 0x0 DUP1 REVERT JUMPDEST POP CALLDATALOAD SWAP2 SWAP1 POP JUMP JUMPDEST DUP1 MLOAD DUP3 MSTORE PUSH1 0x20 DUP2 ADD MLOAD PUSH1 0x20 DUP4 ADD MSTORE PUSH1 0x40 DUP2 ADD MLOAD PUSH1 0x40 DUP4 ADD MSTORE PUSH1 0x60 DUP2 ADD MLOAD PUSH1 0x60 DUP4 ADD MSTORE PUSH1 0x80 DUP2 ADD MLOAD PUSH1 0x80 DUP4 ADD MSTORE PUSH1 0xA0 DUP2 ADD MLOAD PUSH1 0xA0 DUP4 ADD MSTORE PUSH1 0xC0 DUP2 ADD MLOAD PUSH1 0xC0 DUP4 ADD MSTORE PUSH1 0xE0 DUP2 ADD MLOAD ISZERO ISZERO PUSH1 0xE0 DUP4 ADD MSTORE PUSH2 0x100 DUP1 DUP3 ADD MLOAD DUP2 DUP5 ADD MSTORE POP POP POP JUMP JUMPDEST PUSH2 0x120 DUP2 ADD PUSH2 0x2D83 DUP3 DUP5 PUSH2 0x2D18 JUMP JUMPDEST SWAP3 SWAP2 POP POP JUMP JUMPDEST PUSH1 0x20 DUP1 DUP3 MSTORE DUP3 MLOAD DUP3 DUP3 ADD DUP2 SWAP1 MSTORE PUSH1 0x0 SWAP2 SWAP1 DUP5 DUP3 ADD SWAP1 PUSH1 0x40 DUP6 ADD SWAP1 DUP5 JUMPDEST DUP2 DUP2 LT ISZERO PUSH2 0x2DC1 JUMPI DUP4 MLOAD DUP4 MSTORE SWAP3 DUP5 ADD SWAP3 SWAP2 DUP5 ADD SWAP2 PUSH1 0x1 ADD PUSH2 0x2DA5 JUMP JUMPDEST POP SWAP1 SWAP7 SWAP6 POP POP POP POP POP POP JUMP JUMPDEST PUSH1 0x0 DUP1 PUSH1 0x40 DUP4 DUP6 SUB SLT ISZERO PUSH2 0x2DE0 JUMPI PUSH1 0x0 DUP1 REVERT JUMPDEST POP POP DUP1 CALLDATALOAD SWAP3 PUSH1 0x20 SWAP1 SWAP2 ADD CALLDATALOAD SWAP2 POP JUMP JUMPDEST PUSH1 0x0 DUP2 MLOAD DUP1 DUP5 MSTORE PUSH1 0x20 DUP1 DUP6 ADD SWAP5 POP DUP1 DUP5 ADD PUSH1 0x0 JUMPDEST DUP4 DUP2 LT ISZERO PUSH2 0x2E1F JUMPI DUP2 MLOAD DUP8 MSTORE SWAP6 DUP3 ADD SWAP6 SWAP1 DUP3 ADD SWAP1 PUSH1 0x1 ADD PUSH2 0x2E03 JUMP JUMPDEST POP SWAP5 SWAP6 SWAP5 POP POP POP POP POP JUMP JUMPDEST PUSH1 0x0 PUSH2 0x100 PUSH1 0x1 DUP1 PUSH1 0xA0 SHL SUB DUP4 MLOAD AND DUP5 MSTORE PUSH1 0x20 DUP4 ADD MLOAD PUSH1 0x20 DUP6 ADD MSTORE PUSH1 0x40 DUP4 ADD MLOAD PUSH1 0x40 DUP6 ADD MSTORE PUSH1 0x60 DUP4 ADD MLOAD DUP2 PUSH1 0x60 DUP7 ADD MSTORE PUSH2 0x2E66 DUP3 DUP7 ADD DUP3 PUSH2 0x2DEF JUMP JUMPDEST SWAP2 POP POP PUSH1 0x80 DUP4 ADD MLOAD DUP5 DUP3 SUB PUSH1 0x80 DUP7 ADD MSTORE PUSH2 0x2E80 DUP3 DUP3 PUSH2 0x2DEF JUMP JUMPDEST SWAP2 POP POP PUSH1 0xA0 DUP4 ADD MLOAD DUP5 DUP3 SUB PUSH1 0xA0 DUP7 ADD MSTORE PUSH2 0x2E9A DUP3 DUP3 PUSH2 0x2DEF JUMP JUMPDEST SWAP2 POP POP PUSH1 0xC0 DUP4 ADD MLOAD PUSH1 0xC0 DUP6 ADD MSTORE PUSH1 0xE0 DUP4 ADD MLOAD PUSH1 0xE0 DUP6 ADD MSTORE DUP1 SWAP2 POP POP SWAP3 SWAP2 POP POP JUMP JUMPDEST PUSH1 0x0 PUSH1 0x20 DUP1 DUP4 ADD DUP2 DUP5 MSTORE DUP1 DUP6 MLOAD DUP1 DUP4 MSTORE PUSH1 0x40 DUP7 ADD SWAP2 POP PUSH1 0x40 DUP2 PUSH1 0x5 SHL DUP8 ADD ADD SWAP3 POP DUP4 DUP8 ADD PUSH1 0x0 JUMPDEST DUP3 DUP2 LT ISZERO PUSH2 0x2F10 JUMPI PUSH1 0x3F NOT DUP9 DUP7 SUB ADD DUP5 MSTORE PUSH2 0x2EFE DUP6 DUP4 MLOAD PUSH2 0x2E2A JUMP JUMPDEST SWAP5 POP SWAP3 DUP6 ADD SWAP3 SWAP1 DUP6 ADD SWAP1 PUSH1 0x1 ADD PUSH2 0x2EE2 JUMP JUMPDEST POP SWAP3 SWAP8 SWAP7 POP POP POP POP POP POP POP JUMP JUMPDEST PUSH1 0x0 JUMPDEST DUP4 DUP2 LT ISZERO PUSH2 0x2F38 JUMPI DUP2 DUP2 ADD MLOAD DUP4 DUP3 ADD MSTORE PUSH1 0x20 ADD PUSH2 0x2F20 JUMP JUMPDEST DUP4 DUP2 GT ISZERO PUSH2 0x2F47 JUMPI PUSH1 0x0 DUP5 DUP5 ADD MSTORE JUMPDEST POP POP POP POP JUMP JUMPDEST PUSH1 0x0 DUP2 MLOAD DUP1 DUP5 MSTORE PUSH2 0x2F65 DUP2 PUSH1 0x20 DUP7 ADD PUSH1 0x20 DUP7 ADD PUSH2 0x2F1D JUMP JUMPDEST PUSH1 0x1F ADD PUSH1 0x1F NOT AND SWAP3 SWAP1 SWAP3 ADD PUSH1 0x20 ADD SWAP3 SWAP2 POP POP JUMP JUMPDEST PUSH1 0x1 PUSH1 0x1 PUSH1 0xA0 SHL SUB DUP7 AND DUP2 MSTORE PUSH1 0xA0 PUSH1 0x20 DUP3 ADD DUP2 SWAP1 MSTORE PUSH1 0x0 SWAP1 PUSH2 0x2F9D SWAP1 DUP4 ADD DUP8 PUSH2 0x2F4D JUMP JUMPDEST DUP3 DUP2 SUB PUSH1 0x40 DUP5 ADD MSTORE PUSH2 0x2FAF DUP2 DUP8 PUSH2 0x2F4D JUMP JUMPDEST PUSH1 0xFF SWAP6 SWAP1 SWAP6 AND PUSH1 0x60 DUP5 ADD MSTORE POP POP PUSH1 0x80 ADD MSTORE SWAP4 SWAP3 POP POP POP JUMP JUMPDEST PUSH1 0x20 DUP2 MSTORE PUSH1 0x0 PUSH2 0x169E PUSH1 0x20 DUP4 ADD DUP5 PUSH2 0x2E2A JUMP JUMPDEST PUSH1 0x0 DUP1 PUSH1 0x40 DUP4 DUP6 SUB SLT ISZERO PUSH2 0x2FED JUMPI PUSH1 0x0 DUP1 REVERT JUMPDEST DUP3 CALLDATALOAD PUSH2 0x2FF8 DUP2 PUSH2 0x2CCA JUMP JUMPDEST SWAP5 PUSH1 0x20 SWAP4 SWAP1 SWAP4 ADD CALLDATALOAD SWAP4 POP POP POP JUMP JUMPDEST PUSH1 0xFF DUP2 AND DUP2 EQ PUSH2 0x2CDF JUMPI PUSH1 0x0 DUP1 REVERT JUMPDEST PUSH1 0x0 DUP1 PUSH1 0x0 PUSH1 0x60 DUP5 DUP7 SUB SLT ISZERO PUSH2 0x302A JUMPI PUSH1 0x0 DUP1 REVERT JUMPDEST DUP4 CALLDATALOAD SWAP3 POP PUSH1 0x20 DUP5 ADD CALLDATALOAD PUSH2 0x303C DUP2 PUSH2 0x3006 JUMP JUMPDEST SWAP2 POP PUSH1 0x40 DUP5 ADD CALLDATALOAD PUSH2 0x304C DUP2 PUSH2 0x3006 JUMP JUMPDEST DUP1 SWAP2 POP POP SWAP3 POP SWAP3 POP SWAP3 JUMP JUMPDEST DUP1 ISZERO ISZERO DUP2 EQ PUSH2 0x2CDF JUMPI PUSH1 0x0 DUP1 REVERT JUMPDEST PUSH1 0x0 DUP1 PUSH1 0x0 DUP1 PUSH1 0x0 DUP1 PUSH1 0x0 DUP1 PUSH2 0x100 DUP10 DUP12 SUB SLT ISZERO PUSH2 0x3082 JUMPI PUSH1 0x0 DUP1 REVERT JUMPDEST DUP9 CALLDATALOAD SWAP8 POP PUSH1 0x20 DUP10 ADD CALLDATALOAD SWAP7 POP PUSH1 0x40 DUP10 ADD CALLDATALOAD SWAP6 POP PUSH1 0x60 DUP10 ADD CALLDATALOAD SWAP5 POP PUSH1 0x80 DUP10 ADD CALLDATALOAD SWAP4 POP PUSH1 0xA0 DUP10 ADD CALLDATALOAD SWAP3 POP PUSH1 0xC0 DUP10 ADD CALLDATALOAD SWAP2 POP PUSH1 0xE0 DUP10 ADD CALLDATALOAD PUSH2 0x30BE DUP2 PUSH2 0x3057 JUMP JUMPDEST DUP1 SWAP2 POP POP SWAP3 SWAP6 SWAP9 POP SWAP3 SWAP6 SWAP9 SWAP1 SWAP4 SWAP7 POP JUMP JUMPDEST PUSH4 0x4E487B71 PUSH1 0xE0 SHL PUSH1 0x0 MSTORE PUSH1 0x41 PUSH1 0x4 MSTORE PUSH1 0x24 PUSH1 0x0 REVERT JUMPDEST PUSH1 0x40 MLOAD PUSH1 0x1F DUP3 ADD PUSH1 0x1F NOT AND DUP2 ADD PUSH8 0xFFFFFFFFFFFFFFFF DUP2 GT DUP3 DUP3 LT OR ISZERO PUSH2 0x310E JUMPI PUSH2 0x310E PUSH2 0x30CF JUMP JUMPDEST PUSH1 0x40 MSTORE SWAP2 SWAP1 POP JUMP JUMPDEST PUSH1 0x0 PUSH1 0x20 DUP1 DUP4 DUP6 SUB SLT ISZERO PUSH2 0x3129 JUMPI PUSH1 0x0 DUP1 REVERT JUMPDEST DUP3 CALLDATALOAD PUSH8 0xFFFFFFFFFFFFFFFF DUP1 DUP3 GT ISZERO PUSH2 0x3141 JUMPI PUSH1 0x0 DUP1 REVERT JUMPDEST DUP2 DUP6 ADD SWAP2 POP DUP6 PUSH1 0x1F DUP4 ADD SLT PUSH2 0x3155 JUMPI PUSH1 0x0 DUP1 REVERT JUMPDEST DUP2 CALLDATALOAD DUP2 DUP2 GT ISZERO PUSH2 0x3167 JUMPI PUSH2 0x3167 PUSH2 0x30CF JUMP JUMPDEST DUP1 PUSH1 0x5 SHL SWAP2 POP PUSH2 0x3178 DUP5 DUP4 ADD PUSH2 0x30E5 JUMP JUMPDEST DUP2 DUP2 MSTORE SWAP2 DUP4 ADD DUP5 ADD SWAP2 DUP5 DUP2 ADD SWAP1 DUP9 DUP5 GT ISZERO PUSH2 0x3192 JUMPI PUSH1 0x0 DUP1 REVERT JUMPDEST SWAP4 DUP6 ADD SWAP4 JUMPDEST DUP4 DUP6 LT ISZERO PUSH2 0x31B0 JUMPI DUP5 CALLDATALOAD DUP3 MSTORE SWAP4 DUP6 ADD SWAP4 SWAP1 DUP6 ADD SWAP1 PUSH2 0x3197 JUMP JUMPDEST SWAP9 SWAP8 POP POP POP POP POP POP POP POP JUMP JUMPDEST PUSH1 0x20 DUP1 DUP3 MSTORE DUP3 MLOAD DUP3 DUP3 ADD DUP2 SWAP1 MSTORE PUSH1 0x0 SWAP2 SWAP1 DUP5 DUP3 ADD SWAP1 PUSH1 0x40 DUP6 ADD SWAP1 DUP5 JUMPDEST DUP2 DUP2 LT ISZERO PUSH2 0x2DC1 JUMPI PUSH2 0x31EB DUP4 DUP6 MLOAD PUSH2 0x2D18 JUMP JUMPDEST SWAP3 DUP5 ADD SWAP3 PUSH2 0x120 SWAP3 SWAP1 SWAP3 ADD SWAP2 PUSH1 0x1 ADD PUSH2 0x31D8 JUMP JUMPDEST PUSH1 0x20 DUP1 DUP3 MSTORE DUP2 DUP2 ADD MSTORE PUSH32 0x4F776E61626C653A2063616C6C6572206973206E6F7420746865206F776E6572 PUSH1 0x40 DUP3 ADD MSTORE PUSH1 0x60 ADD SWAP1 JUMP JUMPDEST PUSH4 0x4E487B71 PUSH1 0xE0 SHL PUSH1 0x0 MSTORE PUSH1 0x32 PUSH1 0x4 MSTORE PUSH1 0x24 PUSH1 0x0 REVERT JUMPDEST PUSH4 0x4E487B71 PUSH1 0xE0 SHL PUSH1 0x0 MSTORE PUSH1 0x11 PUSH1 0x4 MSTORE PUSH1 0x24 PUSH1 0x0 REVERT JUMPDEST PUSH1 0x0 DUP2 PUSH1 0x0 NOT DIV DUP4 GT DUP3 ISZERO ISZERO AND ISZERO PUSH2 0x327A JUMPI PUSH2 0x327A PUSH2 0x324A JUMP JUMPDEST POP MUL SWAP1 JUMP JUMPDEST PUSH1 0x0 DUP3 NOT DUP3 GT ISZERO PUSH2 0x3292 JUMPI PUSH2 0x3292 PUSH2 0x324A JUMP JUMPDEST POP ADD SWAP1 JUMP JUMPDEST PUSH1 0x0 DUP3 PUSH2 0x32B4 JUMPI PUSH4 0x4E487B71 PUSH1 0xE0 SHL PUSH1 0x0 MSTORE PUSH1 0x12 PUSH1 0x4 MSTORE PUSH1 0x24 PUSH1 0x0 REVERT JUMPDEST POP DIV SWAP1 JUMP JUMPDEST PUSH1 0x0 PUSH1 0x0 NOT DUP3 EQ ISZERO PUSH2 0x32CD JUMPI PUSH2 0x32CD PUSH2 0x324A JUMP JUMPDEST POP PUSH1 0x1 ADD SWAP1 JUMP JUMPDEST PUSH1 0x20 DUP1 DUP3 MSTORE PUSH1 0x15 SWAP1 DUP3 ADD MSTORE PUSH21 0x131BD8DAC81C195C9A5BD9081B9BDD08199BDD5B99 PUSH1 0x5A SHL PUSH1 0x40 DUP3 ADD MSTORE PUSH1 0x60 ADD SWAP1 JUMP JUMPDEST PUSH1 0x0 DUP3 DUP3 LT ISZERO PUSH2 0x3315 JUMPI PUSH2 0x3315 PUSH2 0x324A JUMP JUMPDEST POP SUB SWAP1 JUMP JUMPDEST PUSH4 0x4E487B71 PUSH1 0xE0 SHL PUSH1 0x0 MSTORE PUSH1 0x31 PUSH1 0x4 MSTORE PUSH1 0x24 PUSH1 0x0 REVERT JUMPDEST PUSH1 0x0 PUSH1 0x20 DUP3 DUP5 SUB SLT ISZERO PUSH2 0x3342 JUMPI PUSH1 0x0 DUP1 REVERT JUMPDEST DUP2 MLOAD PUSH8 0xFFFFFFFFFFFFFFFF DUP1 DUP3 GT ISZERO PUSH2 0x335A JUMPI PUSH1 0x0 DUP1 REVERT JUMPDEST DUP2 DUP5 ADD SWAP2 POP DUP5 PUSH1 0x1F DUP4 ADD SLT PUSH2 0x336E JUMPI PUSH1 0x0 DUP1 REVERT JUMPDEST DUP2 MLOAD DUP2 DUP2 GT ISZERO PUSH2 0x3380 JUMPI PUSH2 0x3380 PUSH2 0x30CF JUMP JUMPDEST PUSH2 0x3393 PUSH1 0x1F DUP3 ADD PUSH1 0x1F NOT AND PUSH1 0x20 ADD PUSH2 0x30E5 JUMP JUMPDEST SWAP2 POP DUP1 DUP3 MSTORE DUP6 PUSH1 0x20 DUP3 DUP6 ADD ADD GT ISZERO PUSH2 0x33AA JUMPI PUSH1 0x0 DUP1 REVERT JUMPDEST PUSH2 0x33BB DUP2 PUSH1 0x20 DUP5 ADD PUSH1 0x20 DUP7 ADD PUSH2 0x2F1D JUMP JUMPDEST POP SWAP5 SWAP4 POP POP POP POP JUMP JUMPDEST PUSH1 0x0 PUSH1 0x20 DUP3 DUP5 SUB SLT ISZERO PUSH2 0x33D6 JUMPI PUSH1 0x0 DUP1 REVERT JUMPDEST DUP2 MLOAD PUSH2 0x169E DUP2 PUSH2 0x3006 JUMP JUMPDEST PUSH1 0x0 PUSH1 0x20 DUP3 DUP5 SUB SLT ISZERO PUSH2 0x33F3 JUMPI PUSH1 0x0 DUP1 REVERT JUMPDEST POP MLOAD SWAP2 SWAP1 POP JUMP JUMPDEST PUSH1 0x0 PUSH1 0x20 DUP3 DUP5 SUB SLT ISZERO PUSH2 0x340C JUMPI PUSH1 0x0 DUP1 REVERT JUMPDEST DUP2 MLOAD PUSH2 0x169E DUP2 PUSH2 0x3057 JUMP JUMPDEST PUSH1 0x0 PUSH1 0xFF DUP3 AND PUSH1 0xFF DUP5 AND DUP1 DUP3 LT ISZERO PUSH2 0x3431 JUMPI PUSH2 0x3431 PUSH2 0x324A JUMP JUMPDEST SWAP1 SUB SWAP4 SWAP3 POP POP POP JUMP JUMPDEST PUSH1 0x1 DUP2 DUP2 JUMPDEST DUP1 DUP6 GT ISZERO PUSH2 0x3475 JUMPI DUP2 PUSH1 0x0 NOT DIV DUP3 GT ISZERO PUSH2 0x345B JUMPI PUSH2 0x345B PUSH2 0x324A JUMP JUMPDEST DUP1 DUP6 AND ISZERO PUSH2 0x3468 JUMPI SWAP2 DUP2 MUL SWAP2 JUMPDEST SWAP4 DUP5 SHR SWAP4 SWAP1 DUP1 MUL SWAP1 PUSH2 0x343F JUMP JUMPDEST POP SWAP3 POP SWAP3 SWAP1 POP JUMP JUMPDEST PUSH1 0x0 DUP3 PUSH2 0x348C JUMPI POP PUSH1 0x1 PUSH2 0x2D83 JUMP JUMPDEST DUP2 PUSH2 0x3499 JUMPI POP PUSH1 0x0 PUSH2 0x2D83 JUMP JUMPDEST DUP2 PUSH1 0x1 DUP2 EQ PUSH2 0x34AF JUMPI PUSH1 0x2 DUP2 EQ PUSH2 0x34B9 JUMPI PUSH2 0x34D5 JUMP JUMPDEST PUSH1 0x1 SWAP2 POP POP PUSH2 0x2D83 JUMP JUMPDEST PUSH1 0xFF DUP5 GT ISZERO PUSH2 0x34CA JUMPI PUSH2 0x34CA PUSH2 0x324A JUMP JUMPDEST POP POP PUSH1 0x1 DUP3 SHL PUSH2 0x2D83 JUMP JUMPDEST POP PUSH1 0x20 DUP4 LT PUSH2 0x133 DUP4 LT AND PUSH1 0x4E DUP5 LT PUSH1 0xB DUP5 LT AND OR ISZERO PUSH2 0x34F8 JUMPI POP DUP2 DUP2 EXP PUSH2 0x2D83 JUMP JUMPDEST PUSH2 0x3502 DUP4 DUP4 PUSH2 0x343A JUMP JUMPDEST DUP1 PUSH1 0x0 NOT DIV DUP3 GT ISZERO PUSH2 0x3516 JUMPI PUSH2 0x3516 PUSH2 0x324A JUMP JUMPDEST MUL SWAP4 SWAP3 POP POP POP JUMP JUMPDEST PUSH1 0x0 PUSH2 0x169E DUP4 DUP4 PUSH2 0x347D JUMP INVALID LOG2 PUSH5 0x6970667358 0x22 SLT KECCAK256 DUP7 SIGNEXTEND 0xB8 SIGNEXTEND SWAP1 DUP2 DUP13 SMOD 0x1F MUL LOG4 0xC 0xD6 0xE1 PUSH16 0x107B762A1E38E450D791D29D95E42446 DUP7 PUSH5 0x736F6C6343 STOP ADDMOD 0xC STOP CALLER "
				},
				"gasEstimates": {
					"creation": {
						"codeDepositCost": "2732800",
						"executionCost": "infinite",
						"totalCost": "infinite"
					},
					"external": {
						"IS_ULTIMATE_STAKE_FACTORY()": "2459",
						"Token()": "2492",
						"addSpam(address)": "26891",
						"allocation(uint256)": "2473",
						"allowedLockPeriods(uint256)": "4610",
						"convertTokenAToTokenB(uint256,uint8,uint8)": "infinite",
						"deductionPercentage()": "2395",
						"deposit(uint256,uint256)": "infinite",
						"depositTokenDecimals()": "2463",
						"depositeTime(address,uint256)": "4838",
						"depositeToken(address,uint256)": "4839",
						"depositeTokensTotal(address)": "2637",
						"emergencyWithdrawTokens(address,uint256)": "infinite",
						"emergencyWithdrawWei(uint256)": "infinite",
						"getLockPeriodParams(uint256)": "infinite",
						"getLockPeriods()": "infinite",
						"getLockPeriodsInfo()": "infinite",
						"getRewardTokenInfo()": "infinite",
						"getStakeTokenInfo()": "infinite",
						"getUser(address)": "infinite",
						"getUsers(uint256,uint256)": "infinite",
						"harwest(uint256[])": "infinite",
						"isSpam(address)": "2636",
						"lastUpdated(address)": "2571",
						"lockPeriodParams(uint256)": "19650",
						"lockableDays(address,uint256)": "4861",
						"owner()": "2399",
						"paused()": "2355",
						"pendingRewards(address)": "infinite",
						"removeLockPeriod(uint256)": "infinite",
						"removeSpam(address)": "26907",
						"rewardToken()": "2491",
						"rewardTokenDecimals()": "2419",
						"setAllocation(uint256,uint256,uint256,uint256,uint256,uint256,uint256,bool)": "infinite",
						"setDeductionPercentage(uint256)": "24579",
						"setTaxReceiver(address)": "26838",
						"taxreceiver()": "2425",
						"time()": "2375",
						"transferOwnership(address)": "30504",
						"users(uint256)": "2567",
						"usersCount()": "2417",
						"usersExists(address)": "2570",
						"withdrawedReward(address)": "2549"
					},
					"internal": {
						"allocationPercentageUpdate()": "infinite",
						"isLockPeriodAllowed(uint256)": "infinite"
					}
				},
				"methodIdentifiers": {
					"IS_ULTIMATE_STAKE_FACTORY()": "f66e4be3",
					"Token()": "c2412676",
					"addSpam(address)": "52b8745f",
					"allocation(uint256)": "850bad94",
					"allowedLockPeriods(uint256)": "2b4a16a0",
					"convertTokenAToTokenB(uint256,uint8,uint8)": "9953ba47",
					"deductionPercentage()": "6b130dc2",
					"deposit(uint256,uint256)": "e2bbb158",
					"depositTokenDecimals()": "c0941214",
					"depositeTime(address,uint256)": "ba743f99",
					"depositeToken(address,uint256)": "91dc842e",
					"depositeTokensTotal(address)": "27ba372c",
					"emergencyWithdrawTokens(address,uint256)": "917bb998",
					"emergencyWithdrawWei(uint256)": "230ffa0f",
					"getLockPeriodParams(uint256)": "3d51c72d",
					"getLockPeriods()": "41ee13be",
					"getLockPeriodsInfo()": "de644c76",
					"getRewardTokenInfo()": "647428b9",
					"getStakeTokenInfo()": "c53c5fc1",
					"getUser(address)": "6f77926b",
					"getUsers(uint256,uint256)": "45982a66",
					"harwest(uint256[])": "c5c35196",
					"isSpam(address)": "cd099205",
					"lastUpdated(address)": "0a6f93e6",
					"lockPeriodParams(uint256)": "39129cff",
					"lockableDays(address,uint256)": "95302cc0",
					"owner()": "8da5cb5b",
					"paused()": "5c975abb",
					"pendingRewards(address)": "31d7a262",
					"removeLockPeriod(uint256)": "4d70378a",
					"removeSpam(address)": "58098bf4",
					"rewardToken()": "f7c618c1",
					"rewardTokenDecimals()": "9bdcecd1",
					"setAllocation(uint256,uint256,uint256,uint256,uint256,uint256,uint256,bool)": "9a4577a2",
					"setDeductionPercentage(uint256)": "6a1d18d2",
					"setTaxReceiver(address)": "cd8de42c",
					"taxreceiver()": "f256dfc5",
					"time()": "16ada547",
					"transferOwnership(address)": "f2fde38b",
					"users(uint256)": "365b98b2",
					"usersCount()": "6ba13a82",
					"usersExists(address)": "c2e5fe76",
					"withdrawedReward(address)": "03962d46"
				}
			},
			"storageLayout": {
				"storage": [
					{
						"astId": 345,
						"contract": "StakeFactory.sol:StakeFactory",
						"label": "_owner",
						"offset": 0,
						"slot": "0",
						"type": "t_address"
					},
					{
						"astId": 269,
						"contract": "StakeFactory.sol:StakeFactory",
						"label": "_paused",
						"offset": 20,
						"slot": "0",
						"type": "t_bool"
					},
					{
						"astId": 62,
						"contract": "StakeFactory.sol:StakeFactory",
						"label": "_status",
						"offset": 0,
						"slot": "1",
						"type": "t_uint256"
					},
					{
						"astId": 429,
						"contract": "StakeFactory.sol:StakeFactory",
						"label": "Token",
						"offset": 0,
						"slot": "2",
						"type": "t_contract(IERC20)53"
					},
					{
						"astId": 432,
						"contract": "StakeFactory.sol:StakeFactory",
						"label": "rewardToken",
						"offset": 0,
						"slot": "3",
						"type": "t_contract(IERC20)53"
					},
					{
						"astId": 435,
						"contract": "StakeFactory.sol:StakeFactory",
						"label": "IS_ULTIMATE_STAKE_FACTORY",
						"offset": 20,
						"slot": "3",
						"type": "t_bool"
					},
					{
						"astId": 437,
						"contract": "StakeFactory.sol:StakeFactory",
						"label": "depositTokenDecimals",
						"offset": 21,
						"slot": "3",
						"type": "t_uint8"
					},
					{
						"astId": 439,
						"contract": "StakeFactory.sol:StakeFactory",
						"label": "rewardTokenDecimals",
						"offset": 22,
						"slot": "3",
						"type": "t_uint8"
					},
					{
						"astId": 475,
						"contract": "StakeFactory.sol:StakeFactory",
						"label": "allocation",
						"offset": 0,
						"slot": "4",
						"type": "t_mapping(t_uint256,t_uint256)"
					},
					{
						"astId": 480,
						"contract": "StakeFactory.sol:StakeFactory",
						"label": "lockPeriodParams",
						"offset": 0,
						"slot": "5",
						"type": "t_mapping(t_uint256,t_struct(LockPeriodParams)551_storage)"
					},
					{
						"astId": 482,
						"contract": "StakeFactory.sol:StakeFactory",
						"label": "taxreceiver",
						"offset": 0,
						"slot": "6",
						"type": "t_address"
					},
					{
						"astId": 487,
						"contract": "StakeFactory.sol:StakeFactory",
						"label": "depositeToken",
						"offset": 0,
						"slot": "7",
						"type": "t_mapping(t_address,t_array(t_uint256)dyn_storage)"
					},
					{
						"astId": 491,
						"contract": "StakeFactory.sol:StakeFactory",
						"label": "depositeTokensTotal",
						"offset": 0,
						"slot": "8",
						"type": "t_mapping(t_address,t_uint256)"
					},
					{
						"astId": 496,
						"contract": "StakeFactory.sol:StakeFactory",
						"label": "lockableDays",
						"offset": 0,
						"slot": "9",
						"type": "t_mapping(t_address,t_array(t_uint256)dyn_storage)"
					},
					{
						"astId": 501,
						"contract": "StakeFactory.sol:StakeFactory",
						"label": "depositeTime",
						"offset": 0,
						"slot": "10",
						"type": "t_mapping(t_address,t_array(t_uint256)dyn_storage)"
					},
					{
						"astId": 505,
						"contract": "StakeFactory.sol:StakeFactory",
						"label": "withdrawedReward",
						"offset": 0,
						"slot": "11",
						"type": "t_mapping(t_address,t_uint256)"
					},
					{
						"astId": 509,
						"contract": "StakeFactory.sol:StakeFactory",
						"label": "lastUpdated",
						"offset": 0,
						"slot": "12",
						"type": "t_mapping(t_address,t_uint256)"
					},
					{
						"astId": 513,
						"contract": "StakeFactory.sol:StakeFactory",
						"label": "usersExists",
						"offset": 0,
						"slot": "13",
						"type": "t_mapping(t_address,t_bool)"
					},
					{
						"astId": 517,
						"contract": "StakeFactory.sol:StakeFactory",
						"label": "users",
						"offset": 0,
						"slot": "14",
						"type": "t_mapping(t_uint256,t_address)"
					},
					{
						"astId": 519,
						"contract": "StakeFactory.sol:StakeFactory",
						"label": "usersCount",
						"offset": 0,
						"slot": "15",
						"type": "t_uint256"
					},
					{
						"astId": 523,
						"contract": "StakeFactory.sol:StakeFactory",
						"label": "isSpam",
						"offset": 0,
						"slot": "16",
						"type": "t_mapping(t_address,t_bool)"
					},
					{
						"astId": 526,
						"contract": "StakeFactory.sol:StakeFactory",
						"label": "deductionPercentage",
						"offset": 0,
						"slot": "17",
						"type": "t_uint256"
					},
					{
						"astId": 529,
						"contract": "StakeFactory.sol:StakeFactory",
						"label": "time",
						"offset": 0,
						"slot": "18",
						"type": "t_uint256"
					},
					{
						"astId": 532,
						"contract": "StakeFactory.sol:StakeFactory",
						"label": "allowedLockPeriods",
						"offset": 0,
						"slot": "19",
						"type": "t_array(t_uint256)dyn_storage"
					}
				],
				"types": {
					"t_address": {
						"encoding": "inplace",
						"label": "address",
						"numberOfBytes": "20"
					},
					"t_array(t_uint256)dyn_storage": {
						"base": "t_uint256",
						"encoding": "dynamic_array",
						"label": "uint256[]",
						"numberOfBytes": "32"
					},
					"t_bool": {
						"encoding": "inplace",
						"label": "bool",
						"numberOfBytes": "1"
					},
					"t_contract(IERC20)53": {
						"encoding": "inplace",
						"label": "contract IERC20",
						"numberOfBytes": "20"
					},
					"t_mapping(t_address,t_array(t_uint256)dyn_storage)": {
						"encoding": "mapping",
						"key": "t_address",
						"label": "mapping(address => uint256[])",
						"numberOfBytes": "32",
						"value": "t_array(t_uint256)dyn_storage"
					},
					"t_mapping(t_address,t_bool)": {
						"encoding": "mapping",
						"key": "t_address",
						"label": "mapping(address => bool)",
						"numberOfBytes": "32",
						"value": "t_bool"
					},
					"t_mapping(t_address,t_uint256)": {
						"encoding": "mapping",
						"key": "t_address",
						"label": "mapping(address => uint256)",
						"numberOfBytes": "32",
						"value": "t_uint256"
					},
					"t_mapping(t_uint256,t_address)": {
						"encoding": "mapping",
						"key": "t_uint256",
						"label": "mapping(uint256 => address)",
						"numberOfBytes": "32",
						"value": "t_address"
					},
					"t_mapping(t_uint256,t_struct(LockPeriodParams)551_storage)": {
						"encoding": "mapping",
						"key": "t_uint256",
						"label": "mapping(uint256 => struct StakeFactory.LockPeriodParams)",
						"numberOfBytes": "32",
						"value": "t_struct(LockPeriodParams)551_storage"
					},
					"t_mapping(t_uint256,t_uint256)": {
						"encoding": "mapping",
						"key": "t_uint256",
						"label": "mapping(uint256 => uint256)",
						"numberOfBytes": "32",
						"value": "t_uint256"
					},
					"t_struct(LockPeriodParams)551_storage": {
						"encoding": "inplace",
						"label": "struct StakeFactory.LockPeriodParams",
						"members": [
							{
								"astId": 534,
								"contract": "StakeFactory.sol:StakeFactory",
								"label": "lockTimeDays",
								"offset": 0,
								"slot": "0",
								"type": "t_uint256"
							},
							{
								"astId": 536,
								"contract": "StakeFactory.sol:StakeFactory",
								"label": "minimumDeposit",
								"offset": 0,
								"slot": "1",
								"type": "t_uint256"
							},
							{
								"astId": 538,
								"contract": "StakeFactory.sol:StakeFactory",
								"label": "percentageBasisPoints",
								"offset": 0,
								"slot": "2",
								"type": "t_uint256"
							},
							{
								"astId": 540,
								"contract": "StakeFactory.sol:StakeFactory",
								"label": "maxRate",
								"offset": 0,
								"slot": "3",
								"type": "t_uint256"
							},
							{
								"astId": 542,
								"contract": "StakeFactory.sol:StakeFactory",
								"label": "minRate",
								"offset": 0,
								"slot": "4",
								"type": "t_uint256"
							},
							{
								"astId": 544,
								"contract": "StakeFactory.sol:StakeFactory",
								"label": "decrementStep",
								"offset": 0,
								"slot": "5",
								"type": "t_uint256"
							},
							{
								"astId": 546,
								"contract": "StakeFactory.sol:StakeFactory",
								"label": "stepSize",
								"offset": 0,
								"slot": "6",
								"type": "t_uint256"
							},
							{
								"astId": 548,
								"contract": "StakeFactory.sol:StakeFactory",
								"label": "fixedBasisPoints",
								"offset": 0,
								"slot": "7",
								"type": "t_bool"
							},
							{
								"astId": 550,
								"contract": "StakeFactory.sol:StakeFactory",
								"label": "stakedAmount",
								"offset": 0,
								"slot": "8",
								"type": "t_uint256"
							}
						],
						"numberOfBytes": "288"
					},
					"t_uint256": {
						"encoding": "inplace",
						"label": "uint256",
						"numberOfBytes": "32"
					},
					"t_uint8": {
						"encoding": "inplace",
						"label": "uint8",
						"numberOfBytes": "1"
					}
				}
			},
			"userdoc": {
				"kind": "user",
				"methods": {},
				"version": 1
			}
		}
	}
}