{
	"StakeFactory.sol": {
		"StakeFactory": {
			"abi": [
				{
					"inputs": [
						{
							"internalType": "contract IERC20",
							"name": "_token",
							"type": "address"
						},
						{
							"internalType": "contract IERC20",
							"name": "_rewardToken",
							"type": "address"
						},
						{
							"internalType": "address",
							"name": "_taxreceiver",
							"type": "address"
						},
						{
							"internalType": "uint256",
							"name": "_deductionPercentage",
							"type": "uint256"
						},
						{
							"components": [
								{
									"internalType": "uint256",
									"name": "lockTimeDays",
									"type": "uint256"
								},
								{
									"internalType": "uint256",
									"name": "minimumDeposit",
									"type": "uint256"
								},
								{
									"internalType": "uint256",
									"name": "percentageBasisPoints",
									"type": "uint256"
								},
								{
									"internalType": "uint256",
									"name": "maxRate",
									"type": "uint256"
								},
								{
									"internalType": "uint256",
									"name": "minRate",
									"type": "uint256"
								},
								{
									"internalType": "uint256",
									"name": "decrementStep",
									"type": "uint256"
								},
								{
									"internalType": "uint256",
									"name": "stepSize",
									"type": "uint256"
								},
								{
									"internalType": "bool",
									"name": "fixedBasisPoints",
									"type": "bool"
								},
								{
									"internalType": "uint256",
									"name": "stakedAmount",
									"type": "uint256"
								}
							],
							"internalType": "struct StakeFactory.LockPeriodParams[]",
							"name": "_initLockPeriods",
							"type": "tuple[]"
						}
					],
					"stateMutability": "nonpayable",
					"type": "constructor"
				},
				{
					"anonymous": false,
					"inputs": [
						{
							"indexed": true,
							"internalType": "address",
							"name": "to",
							"type": "address"
						},
						{
							"indexed": true,
							"internalType": "address",
							"name": "From",
							"type": "address"
						},
						{
							"indexed": false,
							"internalType": "uint256",
							"name": "amount",
							"type": "uint256"
						},
						{
							"indexed": false,
							"internalType": "uint256",
							"name": "day",
							"type": "uint256"
						},
						{
							"indexed": false,
							"internalType": "uint256",
							"name": "time",
							"type": "uint256"
						}
					],
					"name": "Deposite_",
					"type": "event"
				},
				{
					"anonymous": false,
					"inputs": [
						{
							"indexed": true,
							"internalType": "address",
							"name": "previousOwner",
							"type": "address"
						},
						{
							"indexed": true,
							"internalType": "address",
							"name": "newOwner",
							"type": "address"
						}
					],
					"name": "OwnershipTransferred",
					"type": "event"
				},
				{
					"anonymous": false,
					"inputs": [
						{
							"indexed": false,
							"internalType": "address",
							"name": "account",
							"type": "address"
						}
					],
					"name": "Paused",
					"type": "event"
				},
				{
					"anonymous": false,
					"inputs": [
						{
							"indexed": false,
							"internalType": "address",
							"name": "account",
							"type": "address"
						}
					],
					"name": "Unpaused",
					"type": "event"
				},
				{
					"inputs": [],
					"name": "IS_ULTIMATE_STAKE_FACTORY",
					"outputs": [
						{
							"internalType": "bool",
							"name": "",
							"type": "bool"
						}
					],
					"stateMutability": "view",
					"type": "function"
				},
				{
					"inputs": [],
					"name": "Token",
					"outputs": [
						{
							"internalType": "contract IERC20",
							"name": "",
							"type": "address"
						}
					],
					"stateMutability": "view",
					"type": "function"
				},
				{
					"inputs": [
						{
							"internalType": "address",
							"name": "_addr",
							"type": "address"
						}
					],
					"name": "addSpam",
					"outputs": [],
					"stateMutability": "nonpayable",
					"type": "function"
				},
				{
					"inputs": [
						{
							"internalType": "uint256",
							"name": "",
							"type": "uint256"
						}
					],
					"name": "allocation",
					"outputs": [
						{
							"internalType": "uint256",
							"name": "",
							"type": "uint256"
						}
					],
					"stateMutability": "view",
					"type": "function"
				},
				{
					"inputs": [
						{
							"internalType": "uint256",
							"name": "",
							"type": "uint256"
						}
					],
					"name": "allowedLockPeriods",
					"outputs": [
						{
							"internalType": "uint256",
							"name": "",
							"type": "uint256"
						}
					],
					"stateMutability": "view",
					"type": "function"
				},
				{
					"inputs": [],
					"name": "deductionPercentage",
					"outputs": [
						{
							"internalType": "uint256",
							"name": "",
							"type": "uint256"
						}
					],
					"stateMutability": "view",
					"type": "function"
				},
				{
					"inputs": [
						{
							"internalType": "uint256",
							"name": "_amount",
							"type": "uint256"
						},
						{
							"internalType": "uint256",
							"name": "_lockDays",
							"type": "uint256"
						}
					],
					"name": "deposit",
					"outputs": [],
					"stateMutability": "nonpayable",
					"type": "function"
				},
				{
					"inputs": [],
					"name": "depositTokenDecimals",
					"outputs": [
						{
							"internalType": "uint8",
							"name": "",
							"type": "uint8"
						}
					],
					"stateMutability": "view",
					"type": "function"
				},
				{
					"inputs": [
						{
							"internalType": "address",
							"name": "",
							"type": "address"
						},
						{
							"internalType": "uint256",
							"name": "",
							"type": "uint256"
						}
					],
					"name": "depositeTime",
					"outputs": [
						{
							"internalType": "uint256",
							"name": "",
							"type": "uint256"
						}
					],
					"stateMutability": "view",
					"type": "function"
				},
				{
					"inputs": [
						{
							"internalType": "address",
							"name": "",
							"type": "address"
						},
						{
							"internalType": "uint256",
							"name": "",
							"type": "uint256"
						}
					],
					"name": "depositeToken",
					"outputs": [
						{
							"internalType": "uint256",
							"name": "",
							"type": "uint256"
						}
					],
					"stateMutability": "view",
					"type": "function"
				},
				{
					"inputs": [
						{
							"internalType": "address",
							"name": "",
							"type": "address"
						}
					],
					"name": "depositeTokensTotal",
					"outputs": [
						{
							"internalType": "uint256",
							"name": "",
							"type": "uint256"
						}
					],
					"stateMutability": "view",
					"type": "function"
				},
				{
					"inputs": [
						{
							"internalType": "contract IERC20",
							"name": "_token",
							"type": "address"
						},
						{
							"internalType": "uint256",
							"name": "_amount",
							"type": "uint256"
						}
					],
					"name": "emergencyWithdrawTokens",
					"outputs": [],
					"stateMutability": "nonpayable",
					"type": "function"
				},
				{
					"inputs": [
						{
							"internalType": "uint256",
							"name": "_amount",
							"type": "uint256"
						}
					],
					"name": "emergencyWithdrawWei",
					"outputs": [],
					"stateMutability": "nonpayable",
					"type": "function"
				},
				{
					"inputs": [
						{
							"internalType": "uint256",
							"name": "_days",
							"type": "uint256"
						}
					],
					"name": "getLockPeriodParams",
					"outputs": [
						{
							"components": [
								{
									"internalType": "uint256",
									"name": "lockTimeDays",
									"type": "uint256"
								},
								{
									"internalType": "uint256",
									"name": "minimumDeposit",
									"type": "uint256"
								},
								{
									"internalType": "uint256",
									"name": "percentageBasisPoints",
									"type": "uint256"
								},
								{
									"internalType": "uint256",
									"name": "maxRate",
									"type": "uint256"
								},
								{
									"internalType": "uint256",
									"name": "minRate",
									"type": "uint256"
								},
								{
									"internalType": "uint256",
									"name": "decrementStep",
									"type": "uint256"
								},
								{
									"internalType": "uint256",
									"name": "stepSize",
									"type": "uint256"
								},
								{
									"internalType": "bool",
									"name": "fixedBasisPoints",
									"type": "bool"
								},
								{
									"internalType": "uint256",
									"name": "stakedAmount",
									"type": "uint256"
								}
							],
							"internalType": "struct StakeFactory.LockPeriodParams",
							"name": "",
							"type": "tuple"
						}
					],
					"stateMutability": "view",
					"type": "function"
				},
				{
					"inputs": [],
					"name": "getLockPeriods",
					"outputs": [
						{
							"internalType": "uint256[]",
							"name": "",
							"type": "uint256[]"
						}
					],
					"stateMutability": "view",
					"type": "function"
				},
				{
					"inputs": [],
					"name": "getLockPeriodsInfo",
					"outputs": [
						{
							"components": [
								{
									"internalType": "uint256",
									"name": "lockTimeDays",
									"type": "uint256"
								},
								{
									"internalType": "uint256",
									"name": "minimumDeposit",
									"type": "uint256"
								},
								{
									"internalType": "uint256",
									"name": "percentageBasisPoints",
									"type": "uint256"
								},
								{
									"internalType": "uint256",
									"name": "maxRate",
									"type": "uint256"
								},
								{
									"internalType": "uint256",
									"name": "minRate",
									"type": "uint256"
								},
								{
									"internalType": "uint256",
									"name": "decrementStep",
									"type": "uint256"
								},
								{
									"internalType": "uint256",
									"name": "stepSize",
									"type": "uint256"
								},
								{
									"internalType": "bool",
									"name": "fixedBasisPoints",
									"type": "bool"
								},
								{
									"internalType": "uint256",
									"name": "stakedAmount",
									"type": "uint256"
								}
							],
							"internalType": "struct StakeFactory.LockPeriodParams[]",
							"name": "ret",
							"type": "tuple[]"
						}
					],
					"stateMutability": "view",
					"type": "function"
				},
				{
					"inputs": [],
					"name": "getRewardTokenInfo",
					"outputs": [
						{
							"internalType": "address",
							"name": "addr",
							"type": "address"
						},
						{
							"internalType": "string",
							"name": "name",
							"type": "string"
						},
						{
							"internalType": "string",
							"name": "symbol",
							"type": "string"
						},
						{
							"internalType": "uint8",
							"name": "decimals",
							"type": "uint8"
						},
						{
							"internalType": "uint256",
							"name": "balance",
							"type": "uint256"
						}
					],
					"stateMutability": "view",
					"type": "function"
				},
				{
					"inputs": [],
					"name": "getStakeTokenInfo",
					"outputs": [
						{
							"internalType": "address",
							"name": "addr",
							"type": "address"
						},
						{
							"internalType": "string",
							"name": "name",
							"type": "string"
						},
						{
							"internalType": "string",
							"name": "symbol",
							"type": "string"
						},
						{
							"internalType": "uint8",
							"name": "decimals",
							"type": "uint8"
						},
						{
							"internalType": "uint256",
							"name": "balance",
							"type": "uint256"
						}
					],
					"stateMutability": "view",
					"type": "function"
				},
				{
					"inputs": [
						{
							"internalType": "address",
							"name": "user",
							"type": "address"
						}
					],
					"name": "getUser",
					"outputs": [
						{
							"components": [
								{
									"internalType": "address",
									"name": "Address",
									"type": "address"
								},
								{
									"internalType": "uint256",
									"name": "DepositeTokenTotal",
									"type": "uint256"
								},
								{
									"internalType": "uint256",
									"name": "LastUpdated",
									"type": "uint256"
								},
								{
									"internalType": "uint256[]",
									"name": "LockableDays",
									"type": "uint256[]"
								},
								{
									"internalType": "uint256",
									"name": "WithdrawedReward",
									"type": "uint256"
								},
								{
									"internalType": "uint256",
									"name": "WithdrawAbleReward",
									"type": "uint256"
								},
								{
									"internalType": "uint256[]",
									"name": "DepositeTime",
									"type": "uint256[]"
								}
							],
							"internalType": "struct StakeFactory.UserInfo",
							"name": "info",
							"type": "tuple"
						}
					],
					"stateMutability": "view",
					"type": "function"
				},
				{
					"inputs": [
						{
							"internalType": "uint256",
							"name": "_offset",
							"type": "uint256"
						},
						{
							"internalType": "uint256",
							"name": "_limit",
							"type": "uint256"
						}
					],
					"name": "getUsers",
					"outputs": [
						{
							"components": [
								{
									"internalType": "address",
									"name": "Address",
									"type": "address"
								},
								{
									"internalType": "uint256",
									"name": "DepositeTokenTotal",
									"type": "uint256"
								},
								{
									"internalType": "uint256",
									"name": "LastUpdated",
									"type": "uint256"
								},
								{
									"internalType": "uint256[]",
									"name": "LockableDays",
									"type": "uint256[]"
								},
								{
									"internalType": "uint256",
									"name": "WithdrawedReward",
									"type": "uint256"
								},
								{
									"internalType": "uint256",
									"name": "WithdrawAbleReward",
									"type": "uint256"
								},
								{
									"internalType": "uint256[]",
									"name": "DepositeTime",
									"type": "uint256[]"
								}
							],
							"internalType": "struct StakeFactory.UserInfo[]",
							"name": "ret",
							"type": "tuple[]"
						}
					],
					"stateMutability": "view",
					"type": "function"
				},
				{
					"inputs": [
						{
							"internalType": "uint256[]",
							"name": "_index",
							"type": "uint256[]"
						}
					],
					"name": "harwest",
					"outputs": [
						{
							"internalType": "uint256",
							"name": "_totalWithdrawAmount",
							"type": "uint256"
						},
						{
							"internalType": "uint256",
							"name": "_totalReward",
							"type": "uint256"
						},
						{
							"internalType": "uint256",
							"name": "_deductionFee",
							"type": "uint256"
						}
					],
					"stateMutability": "nonpayable",
					"type": "function"
				},
				{
					"inputs": [
						{
							"internalType": "address",
							"name": "",
							"type": "address"
						}
					],
					"name": "isSpam",
					"outputs": [
						{
							"internalType": "bool",
							"name": "",
							"type": "bool"
						}
					],
					"stateMutability": "view",
					"type": "function"
				},
				{
					"inputs": [
						{
							"internalType": "address",
							"name": "",
							"type": "address"
						}
					],
					"name": "lastUpdated",
					"outputs": [
						{
							"internalType": "uint256",
							"name": "",
							"type": "uint256"
						}
					],
					"stateMutability": "view",
					"type": "function"
				},
				{
					"inputs": [
						{
							"internalType": "uint256",
							"name": "",
							"type": "uint256"
						}
					],
					"name": "lockPeriodParams",
					"outputs": [
						{
							"internalType": "uint256",
							"name": "lockTimeDays",
							"type": "uint256"
						},
						{
							"internalType": "uint256",
							"name": "minimumDeposit",
							"type": "uint256"
						},
						{
							"internalType": "uint256",
							"name": "percentageBasisPoints",
							"type": "uint256"
						},
						{
							"internalType": "uint256",
							"name": "maxRate",
							"type": "uint256"
						},
						{
							"internalType": "uint256",
							"name": "minRate",
							"type": "uint256"
						},
						{
							"internalType": "uint256",
							"name": "decrementStep",
							"type": "uint256"
						},
						{
							"internalType": "uint256",
							"name": "stepSize",
							"type": "uint256"
						},
						{
							"internalType": "bool",
							"name": "fixedBasisPoints",
							"type": "bool"
						},
						{
							"internalType": "uint256",
							"name": "stakedAmount",
							"type": "uint256"
						}
					],
					"stateMutability": "view",
					"type": "function"
				},
				{
					"inputs": [
						{
							"internalType": "address",
							"name": "",
							"type": "address"
						},
						{
							"internalType": "uint256",
							"name": "",
							"type": "uint256"
						}
					],
					"name": "lockableDays",
					"outputs": [
						{
							"internalType": "uint256",
							"name": "",
							"type": "uint256"
						}
					],
					"stateMutability": "view",
					"type": "function"
				},
				{
					"inputs": [],
					"name": "owner",
					"outputs": [
						{
							"internalType": "address",
							"name": "",
							"type": "address"
						}
					],
					"stateMutability": "view",
					"type": "function"
				},
				{
					"inputs": [],
					"name": "paused",
					"outputs": [
						{
							"internalType": "bool",
							"name": "",
							"type": "bool"
						}
					],
					"stateMutability": "view",
					"type": "function"
				},
				{
					"inputs": [
						{
							"internalType": "address",
							"name": "_address",
							"type": "address"
						}
					],
					"name": "pendingRewards",
					"outputs": [
						{
							"internalType": "uint256",
							"name": "reward",
							"type": "uint256"
						}
					],
					"stateMutability": "view",
					"type": "function"
				},
				{
					"inputs": [
						{
							"internalType": "uint256",
							"name": "_days",
							"type": "uint256"
						}
					],
					"name": "removeLockPeriod",
					"outputs": [],
					"stateMutability": "nonpayable",
					"type": "function"
				},
				{
					"inputs": [
						{
							"internalType": "address",
							"name": "_addr",
							"type": "address"
						}
					],
					"name": "removeSpam",
					"outputs": [],
					"stateMutability": "nonpayable",
					"type": "function"
				},
				{
					"inputs": [],
					"name": "rewardToken",
					"outputs": [
						{
							"internalType": "contract IERC20",
							"name": "",
							"type": "address"
						}
					],
					"stateMutability": "view",
					"type": "function"
				},
				{
					"inputs": [],
					"name": "rewardTokenDecimals",
					"outputs": [
						{
							"internalType": "uint8",
							"name": "",
							"type": "uint8"
						}
					],
					"stateMutability": "view",
					"type": "function"
				},
				{
					"inputs": [
						{
							"internalType": "uint256",
							"name": "_days",
							"type": "uint256"
						},
						{
							"internalType": "uint256",
							"name": "_minimumDeposit",
							"type": "uint256"
						},
						{
							"internalType": "uint256",
							"name": "percentageBasisPoints",
							"type": "uint256"
						},
						{
							"internalType": "uint256",
							"name": "_maxRate",
							"type": "uint256"
						},
						{
							"internalType": "uint256",
							"name": "_minRate",
							"type": "uint256"
						},
						{
							"internalType": "uint256",
							"name": "_decrementStep",
							"type": "uint256"
						},
						{
							"internalType": "uint256",
							"name": "_stepSize",
							"type": "uint256"
						},
						{
							"internalType": "bool",
							"name": "_fixedBasisPoints",
							"type": "bool"
						}
					],
					"name": "setAllocation",
					"outputs": [],
					"stateMutability": "nonpayable",
					"type": "function"
				},
				{
					"inputs": [
						{
							"internalType": "uint256",
							"name": "percentageBasisPoints",
							"type": "uint256"
						}
					],
					"name": "setDeductionPercentage",
					"outputs": [],
					"stateMutability": "nonpayable",
					"type": "function"
				},
				{
					"inputs": [
						{
							"internalType": "address",
							"name": "_newTaxReceiver",
							"type": "address"
						}
					],
					"name": "setTaxReceiver",
					"outputs": [],
					"stateMutability": "nonpayable",
					"type": "function"
				},
				{
					"inputs": [],
					"name": "taxreceiver",
					"outputs": [
						{
							"internalType": "address",
							"name": "",
							"type": "address"
						}
					],
					"stateMutability": "view",
					"type": "function"
				},
				{
					"inputs": [],
					"name": "time",
					"outputs": [
						{
							"internalType": "uint256",
							"name": "",
							"type": "uint256"
						}
					],
					"stateMutability": "view",
					"type": "function"
				},
				{
					"inputs": [
						{
							"internalType": "address",
							"name": "newOwner",
							"type": "address"
						}
					],
					"name": "transferOwnership",
					"outputs": [],
					"stateMutability": "nonpayable",
					"type": "function"
				},
				{
					"inputs": [
						{
							"internalType": "uint256",
							"name": "",
							"type": "uint256"
						}
					],
					"name": "users",
					"outputs": [
						{
							"internalType": "address",
							"name": "",
							"type": "address"
						}
					],
					"stateMutability": "view",
					"type": "function"
				},
				{
					"inputs": [],
					"name": "usersCount",
					"outputs": [
						{
							"internalType": "uint256",
							"name": "",
							"type": "uint256"
						}
					],
					"stateMutability": "view",
					"type": "function"
				},
				{
					"inputs": [
						{
							"internalType": "address",
							"name": "",
							"type": "address"
						}
					],
					"name": "usersExists",
					"outputs": [
						{
							"internalType": "bool",
							"name": "",
							"type": "bool"
						}
					],
					"stateMutability": "view",
					"type": "function"
				},
				{
					"inputs": [
						{
							"internalType": "address",
							"name": "",
							"type": "address"
						}
					],
					"name": "withdrawedReward",
					"outputs": [
						{
							"internalType": "uint256",
							"name": "",
							"type": "uint256"
						}
					],
					"stateMutability": "view",
					"type": "function"
				},
				{
					"stateMutability": "payable",
					"type": "receive"
				}
			],
			"devdoc": {
				"events": {
					"Paused(address)": {
						"details": "Emitted when the pause is triggered by `account`.\t"
					},
					"Unpaused(address)": {
						"details": "Emitted when the pause is lifted by `account`.\t"
					}
				},
				"kind": "dev",
				"methods": {
					"owner()": {
						"details": "Returns the address of the current owner."
					},
					"paused()": {
						"details": "Returns true if the contract is paused, and false otherwise.\t"
					},
					"transferOwnership(address)": {
						"details": "Transfers ownership of the contract to a new account (`newOwner`). Can only be called by the current owner."
					}
				},
				"version": 1
			},
			"evm": {
				"assembly": "    /* \"StakeFactory.sol\":8438:24976  contract StakeFactory is Ownable, Pausable, ReentrancyGuard {... */\n  mstore(0x40, 0x80)\n    /* \"StakeFactory.sol\":8565:8609  bool public IS_ULTIMATE_STAKE_FACTORY = true */\n  0x03\n  dup1\n  sload\n  not(shl(0xa0, 0xff))\n  and\n  shl(0xa0, 0x01)\n  or\n  swap1\n  sstore\n    /* \"StakeFactory.sol\":9960:9964  2500 */\n  0x09c4\n    /* \"StakeFactory.sol\":9923:9964  uint256 public deductionPercentage = 2500 */\n  0x11\n  sstore\n    /* \"StakeFactory.sol\":10041:10045  3600 */\n  0x0e10\n    /* \"StakeFactory.sol\":10019:10045  uint256 public time = 3600 */\n  0x12\n  sstore\n    /* \"StakeFactory.sol\":10852:11901  constructor(IERC20 _token, IERC20 _rewardToken, address _taxreceiver, uint256 _deductionPercentage, LockPeriodParams[] memory _initLockPeriods) {... */\n  callvalue\n  dup1\n  iszero\n  tag_1\n  jumpi\n  0x00\n  dup1\n  revert\ntag_1:\n  pop\n  mload(0x40)\n  sub(codesize, bytecodeSize)\n  dup1\n  bytecodeSize\n  dup4\n  codecopy\n  dup2\n  add\n  0x40\n  dup2\n  swap1\n  mstore\n  tag_2\n  swap2\n  tag_3\n  jump\t// in\ntag_2:\n    /* \"StakeFactory.sol\":7522:7528  _owner */\n  0x00\n    /* \"StakeFactory.sol\":7522:7541  _owner = msg.sender */\n  dup1\n  sload\n  not(sub(shl(0xa0, 0x01), 0x01))\n  and\n    /* \"StakeFactory.sol\":7531:7541  msg.sender */\n  caller\n    /* \"StakeFactory.sol\":7522:7541  _owner = msg.sender */\n  swap1\n  dup2\n  or\n  dup3\n  sstore\n    /* \"StakeFactory.sol\":7559:7599  OwnershipTransferred(address(0), _owner) */\n  mload(0x40)\n    /* \"StakeFactory.sol\":7531:7541  msg.sender */\n  swap1\n  swap2\n    /* \"StakeFactory.sol\":7522:7528  _owner */\n  swap1\n    /* \"StakeFactory.sol\":7559:7599  OwnershipTransferred(address(0), _owner) */\n  0x8be0079c531659141344cd1fd0a4f28419497f9722a3daafe3b4186f6b6457e0\n  swap1\n    /* \"StakeFactory.sol\":7522:7528  _owner */\n  dup3\n  swap1\n    /* \"StakeFactory.sol\":7559:7599  OwnershipTransferred(address(0), _owner) */\n  log3\n    /* \"StakeFactory.sol\":5876:5881  false */\n  0x00\n    /* \"StakeFactory.sol\":5866:5881  _paused = false */\n  dup1\n  sload\n  not(shl(0xa0, 0xff))\n  and\n  swap1\n  sstore\n  0x01\n    /* \"StakeFactory.sol\":2310:2332  _status = _NOT_ENTERED */\n  dup1\n  sstore\n    /* \"StakeFactory.sol\":11007:11012  Token */\n  0x02\n    /* \"StakeFactory.sol\":11007:11021  Token = _token */\n  dup1\n  sload\n  sub(shl(0xa0, 0x01), 0x01)\n  dup1\n  dup9\n  and\n  not(sub(shl(0xa0, 0x01), 0x01))\n  swap3\n  dup4\n  and\n  dup2\n  or\n  swap1\n  swap4\n  sstore\n    /* \"StakeFactory.sol\":11032:11043  rewardToken */\n  0x03\n    /* \"StakeFactory.sol\":11032:11058  rewardToken = _rewardToken */\n  dup1\n  sload\n  swap2\n  dup9\n  and\n  swap2\n  swap1\n  swap3\n  and\n  or\n  swap1\n  sstore\n    /* \"StakeFactory.sol\":11069:11088  deductionPercentage */\n  0x11\n    /* \"StakeFactory.sol\":11069:11111  deductionPercentage = _deductionPercentage */\n  dup4\n  swap1\n  sstore\n    /* \"StakeFactory.sol\":11145:11161  Token.decimals() */\n  0x40\n  dup1\n  mload\n  shl(0xe0, 0x313ce567)\n  dup2\n  mstore\n  swap1\n  mload\n    /* \"StakeFactory.sol\":11145:11159  Token.decimals */\n  0x313ce567\n  swap2\n    /* \"StakeFactory.sol\":11145:11161  Token.decimals() */\n  0x04\n  dup1\n  dup3\n  add\n  swap3\n  0x20\n  swap3\n  swap1\n  swap2\n  swap1\n  dup3\n  swap1\n  sub\n  add\n  dup2\n    /* \"StakeFactory.sol\":11007:11021  Token = _token */\n  dup7\n    /* \"StakeFactory.sol\":11145:11161  Token.decimals() */\n  gas\n  staticcall\n  iszero\n  dup1\n  iszero\n  tag_13\n  jumpi\n  returndatasize\n  0x00\n  dup1\n  returndatacopy\n  revert(0x00, returndatasize)\ntag_13:\n  pop\n  pop\n  pop\n  pop\n  mload(0x40)\n  returndatasize\n  not(0x1f)\n  0x1f\n  dup3\n  add\n  and\n  dup3\n  add\n  dup1\n  0x40\n  mstore\n  pop\n  dup2\n  add\n  swap1\n  tag_14\n  swap2\n  swap1\n  tag_15\n  jump\t// in\ntag_14:\n    /* \"StakeFactory.sol\":11122:11142  depositTokenDecimals */\n  0x03\n  0x15\n    /* \"StakeFactory.sol\":11122:11161  depositTokenDecimals = Token.decimals() */\n  0x0100\n  exp\n  dup2\n  sload\n  dup2\n  0xff\n  mul\n  not\n  and\n  swap1\n  dup4\n  0xff\n  and\n  mul\n  or\n  swap1\n  sstore\n  pop\n    /* \"StakeFactory.sol\":11194:11205  rewardToken */\n  0x03\n  0x00\n  swap1\n  sload\n  swap1\n  0x0100\n  exp\n  swap1\n  div\n  sub(shl(0xa0, 0x01), 0x01)\n  and\n  sub(shl(0xa0, 0x01), 0x01)\n    /* \"StakeFactory.sol\":11194:11214  rewardToken.decimals */\n  and\n  0x313ce567\n    /* \"StakeFactory.sol\":11194:11216  rewardToken.decimals() */\n  mload(0x40)\n  dup2\n  0xffffffff\n  and\n  0xe0\n  shl\n  dup2\n  mstore\n  0x04\n  add\n  0x20\n  mload(0x40)\n  dup1\n  dup4\n  sub\n  dup2\n  dup7\n  gas\n  staticcall\n  iszero\n  dup1\n  iszero\n  tag_17\n  jumpi\n  returndatasize\n  0x00\n  dup1\n  returndatacopy\n  revert(0x00, returndatasize)\ntag_17:\n  pop\n  pop\n  pop\n  pop\n  mload(0x40)\n  returndatasize\n  not(0x1f)\n  0x1f\n  dup3\n  add\n  and\n  dup3\n  add\n  dup1\n  0x40\n  mstore\n  pop\n  dup2\n  add\n  swap1\n  tag_18\n  swap2\n  swap1\n  tag_15\n  jump\t// in\ntag_18:\n    /* \"StakeFactory.sol\":11172:11191  rewardTokenDecimals */\n  0x03\n    /* \"StakeFactory.sol\":11172:11216  rewardTokenDecimals = rewardToken.decimals() */\n  dup1\n  sload\n  not(shl(0xb0, 0xff))\n  and\n  shl(0xb0, 0x01)\n  0xff\n  swap4\n  swap1\n  swap4\n  and\n  swap3\n  swap1\n  swap3\n  mul\n  swap2\n  swap1\n  swap2\n  or\n  swap1\n  sstore\n    /* \"StakeFactory.sol\":11229:11240  taxreceiver */\n  0x06\n    /* \"StakeFactory.sol\":11229:11255  taxreceiver = _taxreceiver */\n  dup1\n  sload\n  not(sub(shl(0xa0, 0x01), 0x01))\n  and\n  sub(shl(0xa0, 0x01), 0x01)\n  dup6\n  and\n  or\n  swap1\n  sstore\n  0x00\n    /* \"StakeFactory.sol\":11361:11894  for (uint256 i = 0; i < _initLockPeriods.length; i++) {... */\ntag_19:\n    /* \"StakeFactory.sol\":11385:11401  _initLockPeriods */\n  dup2\n    /* \"StakeFactory.sol\":11385:11408  _initLockPeriods.length */\n  mload\n    /* \"StakeFactory.sol\":11381:11382  i */\n  dup2\n    /* \"StakeFactory.sol\":11381:11408  i < _initLockPeriods.length */\n  lt\n    /* \"StakeFactory.sol\":11361:11894  for (uint256 i = 0; i < _initLockPeriods.length; i++) {... */\n  iszero\n  tag_20\n  jumpi\n    /* \"StakeFactory.sol\":11430:11868  setAllocation(... */\n  tag_22\n    /* \"StakeFactory.sol\":11462:11478  _initLockPeriods */\n  dup3\n    /* \"StakeFactory.sol\":11479:11480  i */\n  dup3\n    /* \"StakeFactory.sol\":11462:11481  _initLockPeriods[i] */\n  dup2\n  mload\n  dup2\n  lt\n  tag_24\n  jumpi\n  tag_24\n  tag_25\n  jump\t// in\ntag_24:\n  0x20\n  mul\n  0x20\n  add\n  add\n  mload\n    /* \"StakeFactory.sol\":11462:11494  _initLockPeriods[i].lockTimeDays */\n  0x00\n  add\n  mload\n    /* \"StakeFactory.sol\":11513:11529  _initLockPeriods */\n  dup4\n    /* \"StakeFactory.sol\":11530:11531  i */\n  dup4\n    /* \"StakeFactory.sol\":11513:11532  _initLockPeriods[i] */\n  dup2\n  mload\n  dup2\n  lt\n  tag_27\n  jumpi\n  tag_27\n  tag_25\n  jump\t// in\ntag_27:\n  0x20\n  mul\n  0x20\n  add\n  add\n  mload\n    /* \"StakeFactory.sol\":11513:11547  _initLockPeriods[i].minimumDeposit */\n  0x20\n  add\n  mload\n    /* \"StakeFactory.sol\":11566:11582  _initLockPeriods */\n  dup5\n    /* \"StakeFactory.sol\":11583:11584  i */\n  dup5\n    /* \"StakeFactory.sol\":11566:11585  _initLockPeriods[i] */\n  dup2\n  mload\n  dup2\n  lt\n  tag_29\n  jumpi\n  tag_29\n  tag_25\n  jump\t// in\ntag_29:\n  0x20\n  mul\n  0x20\n  add\n  add\n  mload\n    /* \"StakeFactory.sol\":11566:11607  _initLockPeriods[i].percentageBasisPoints */\n  0x40\n  add\n  mload\n    /* \"StakeFactory.sol\":11626:11642  _initLockPeriods */\n  dup6\n    /* \"StakeFactory.sol\":11643:11644  i */\n  dup6\n    /* \"StakeFactory.sol\":11626:11645  _initLockPeriods[i] */\n  dup2\n  mload\n  dup2\n  lt\n  tag_31\n  jumpi\n  tag_31\n  tag_25\n  jump\t// in\ntag_31:\n  0x20\n  mul\n  0x20\n  add\n  add\n  mload\n    /* \"StakeFactory.sol\":11626:11653  _initLockPeriods[i].maxRate */\n  0x60\n  add\n  mload\n    /* \"StakeFactory.sol\":11672:11688  _initLockPeriods */\n  dup7\n    /* \"StakeFactory.sol\":11689:11690  i */\n  dup7\n    /* \"StakeFactory.sol\":11672:11691  _initLockPeriods[i] */\n  dup2\n  mload\n  dup2\n  lt\n  tag_33\n  jumpi\n  tag_33\n  tag_25\n  jump\t// in\ntag_33:\n  0x20\n  mul\n  0x20\n  add\n  add\n  mload\n    /* \"StakeFactory.sol\":11672:11699  _initLockPeriods[i].minRate */\n  0x80\n  add\n  mload\n    /* \"StakeFactory.sol\":11718:11734  _initLockPeriods */\n  dup8\n    /* \"StakeFactory.sol\":11735:11736  i */\n  dup8\n    /* \"StakeFactory.sol\":11718:11737  _initLockPeriods[i] */\n  dup2\n  mload\n  dup2\n  lt\n  tag_35\n  jumpi\n  tag_35\n  tag_25\n  jump\t// in\ntag_35:\n  0x20\n  mul\n  0x20\n  add\n  add\n  mload\n    /* \"StakeFactory.sol\":11718:11751  _initLockPeriods[i].decrementStep */\n  0xa0\n  add\n  mload\n    /* \"StakeFactory.sol\":11770:11786  _initLockPeriods */\n  dup9\n    /* \"StakeFactory.sol\":11787:11788  i */\n  dup9\n    /* \"StakeFactory.sol\":11770:11789  _initLockPeriods[i] */\n  dup2\n  mload\n  dup2\n  lt\n  tag_37\n  jumpi\n  tag_37\n  tag_25\n  jump\t// in\ntag_37:\n  0x20\n  mul\n  0x20\n  add\n  add\n  mload\n    /* \"StakeFactory.sol\":11770:11798  _initLockPeriods[i].stepSize */\n  0xc0\n  add\n  mload\n    /* \"StakeFactory.sol\":11817:11833  _initLockPeriods */\n  dup10\n    /* \"StakeFactory.sol\":11834:11835  i */\n  dup10\n    /* \"StakeFactory.sol\":11817:11836  _initLockPeriods[i] */\n  dup2\n  mload\n  dup2\n  lt\n  tag_39\n  jumpi\n  tag_39\n  tag_25\n  jump\t// in\ntag_39:\n  0x20\n  mul\n  0x20\n  add\n  add\n  mload\n    /* \"StakeFactory.sol\":11817:11853  _initLockPeriods[i].fixedBasisPoints */\n  0xe0\n  add\n  mload\n    /* \"StakeFactory.sol\":11430:11443  setAllocation */\n  shl(0x20, tag_40)\n    /* \"StakeFactory.sol\":11430:11868  setAllocation(... */\n  0x20\n  shr\n  jump\t// in\ntag_22:\n    /* \"StakeFactory.sol\":11410:11413  i++ */\n  0x01\n  add\n    /* \"StakeFactory.sol\":11361:11894  for (uint256 i = 0; i < _initLockPeriods.length; i++) {... */\n  jump(tag_19)\ntag_20:\n  pop\n    /* \"StakeFactory.sol\":10852:11901  constructor(IERC20 _token, IERC20 _rewardToken, address _taxreceiver, uint256 _deductionPercentage, LockPeriodParams[] memory _initLockPeriods) {... */\n  pop\n  pop\n  pop\n  pop\n  pop\n    /* \"StakeFactory.sol\":8438:24976  contract StakeFactory is Ownable, Pausable, ReentrancyGuard {... */\n  jump(tag_73)\n    /* \"StakeFactory.sol\":18191:19605  function setAllocation(... */\ntag_40:\n    /* \"StakeFactory.sol\":7912:7918  _owner */\n  and(sub(shl(0xa0, 0x01), 0x01), sload(0x00))\n    /* \"StakeFactory.sol\":7922:7932  msg.sender */\n  caller\n    /* \"StakeFactory.sol\":7912:7932  _owner == msg.sender */\n  eq\n    /* \"StakeFactory.sol\":7904:7969  require(_owner == msg.sender, \"Ownable: caller is not the owner\") */\n  tag_43\n  jumpi\n  mload(0x40)\n  shl(0xe5, 0x461bcd)\n  dup2\n  mstore\n    /* \"#utility.yul\":4268:4270   */\n  0x20\n    /* \"StakeFactory.sol\":7904:7969  require(_owner == msg.sender, \"Ownable: caller is not the owner\") */\n  0x04\n  dup3\n  add\n    /* \"#utility.yul\":4250:4271   */\n  dup2\n  swap1\n  mstore\n    /* \"#utility.yul\":4287:4305   */\n  0x24\n  dup3\n  add\n    /* \"#utility.yul\":4280:4310   */\n  mstore\n    /* \"#utility.yul\":4346:4380   */\n  0x4f776e61626c653a2063616c6c6572206973206e6f7420746865206f776e6572\n    /* \"#utility.yul\":4326:4344   */\n  0x44\n  dup3\n  add\n    /* \"#utility.yul\":4319:4381   */\n  mstore\n    /* \"#utility.yul\":4398:4416   */\n  0x64\n  add\n    /* \"StakeFactory.sol\":7904:7969  require(_owner == msg.sender, \"Ownable: caller is not the owner\") */\ntag_44:\n  mload(0x40)\n  dup1\n  swap2\n  sub\n  swap1\n  revert\ntag_43:\n    /* \"StakeFactory.sol\":18531:18536  10000 */\n  0x2710\n    /* \"StakeFactory.sol\":18506:18527  percentageBasisPoints */\n  dup7\n    /* \"StakeFactory.sol\":18506:18536  percentageBasisPoints <= 10000 */\n  gt\n  iszero\n    /* \"StakeFactory.sol\":18498:18559  require(percentageBasisPoints <= 10000, \"Invalid percentage\") */\n  tag_47\n  jumpi\n  mload(0x40)\n  shl(0xe5, 0x461bcd)\n  dup2\n  mstore\n    /* \"#utility.yul\":4629:4631   */\n  0x20\n    /* \"StakeFactory.sol\":18498:18559  require(percentageBasisPoints <= 10000, \"Invalid percentage\") */\n  0x04\n  dup3\n  add\n    /* \"#utility.yul\":4611:4632   */\n  mstore\n    /* \"#utility.yul\":4668:4670   */\n  0x12\n    /* \"#utility.yul\":4648:4666   */\n  0x24\n  dup3\n  add\n    /* \"#utility.yul\":4641:4671   */\n  mstore\n  shl(0x70, 0x496e76616c69642070657263656e74616765)\n    /* \"#utility.yul\":4687:4705   */\n  0x44\n  dup3\n  add\n    /* \"#utility.yul\":4680:4728   */\n  mstore\n    /* \"#utility.yul\":4745:4763   */\n  0x64\n  add\n    /* \"StakeFactory.sol\":18498:18559  require(percentageBasisPoints <= 10000, \"Invalid percentage\") */\n  tag_44\n    /* \"#utility.yul\":4427:4769   */\n  jump\n    /* \"StakeFactory.sol\":18498:18559  require(percentageBasisPoints <= 10000, \"Invalid percentage\") */\ntag_47:\n    /* \"StakeFactory.sol\":18590:18598  _minRate */\n  dup4\n    /* \"StakeFactory.sol\":18578:18586  _maxRate */\n  dup6\n    /* \"StakeFactory.sol\":18578:18598  _maxRate >= _minRate */\n  lt\n  iszero\n    /* \"StakeFactory.sol\":18570:18653  require(_maxRate >= _minRate, \"Max rate must be greater than or equal to min rate\") */\n  tag_50\n  jumpi\n  mload(0x40)\n  shl(0xe5, 0x461bcd)\n  dup2\n  mstore\n    /* \"#utility.yul\":4976:4978   */\n  0x20\n    /* \"StakeFactory.sol\":18570:18653  require(_maxRate >= _minRate, \"Max rate must be greater than or equal to min rate\") */\n  0x04\n  dup3\n  add\n    /* \"#utility.yul\":4958:4979   */\n  mstore\n    /* \"#utility.yul\":5015:5017   */\n  0x32\n    /* \"#utility.yul\":4995:5013   */\n  0x24\n  dup3\n  add\n    /* \"#utility.yul\":4988:5018   */\n  mstore\n    /* \"#utility.yul\":5054:5088   */\n  0x4d61782072617465206d7573742062652067726561746572207468616e206f72\n    /* \"#utility.yul\":5034:5052   */\n  0x44\n  dup3\n  add\n    /* \"#utility.yul\":5027:5089   */\n  mstore\n  shl(0x70, 0x20657175616c20746f206d696e2072617465)\n    /* \"#utility.yul\":5105:5123   */\n  0x64\n  dup3\n  add\n    /* \"#utility.yul\":5098:5146   */\n  mstore\n    /* \"#utility.yul\":5163:5182   */\n  0x84\n  add\n    /* \"StakeFactory.sol\":18570:18653  require(_maxRate >= _minRate, \"Max rate must be greater than or equal to min rate\") */\n  tag_44\n    /* \"#utility.yul\":4774:5188   */\n  jump\n    /* \"StakeFactory.sol\":18570:18653  require(_maxRate >= _minRate, \"Max rate must be greater than or equal to min rate\") */\ntag_50:\n    /* \"StakeFactory.sol\":18684:18685  0 */\n  0x00\n    /* \"StakeFactory.sol\":18672:18681  _stepSize */\n  dup3\n    /* \"StakeFactory.sol\":18672:18685  _stepSize > 0 */\n  gt\n    /* \"StakeFactory.sol\":18664:18722  require(_stepSize > 0, \"Step size must be greater than 0\") */\n  tag_53\n  jumpi\n  mload(0x40)\n  shl(0xe5, 0x461bcd)\n  dup2\n  mstore\n    /* \"#utility.yul\":5395:5397   */\n  0x20\n    /* \"StakeFactory.sol\":18664:18722  require(_stepSize > 0, \"Step size must be greater than 0\") */\n  0x04\n  dup3\n  add\n    /* \"#utility.yul\":5377:5398   */\n  dup2\n  swap1\n  mstore\n    /* \"#utility.yul\":5414:5432   */\n  0x24\n  dup3\n  add\n    /* \"#utility.yul\":5407:5437   */\n  mstore\n    /* \"#utility.yul\":5473:5507   */\n  0x537465702073697a65206d7573742062652067726561746572207468616e2030\n    /* \"#utility.yul\":5453:5471   */\n  0x44\n  dup3\n  add\n    /* \"#utility.yul\":5446:5508   */\n  mstore\n    /* \"#utility.yul\":5525:5543   */\n  0x64\n  add\n    /* \"StakeFactory.sol\":18664:18722  require(_stepSize > 0, \"Step size must be greater than 0\") */\n  tag_44\n    /* \"#utility.yul\":5193:5549   */\n  jump\n    /* \"StakeFactory.sol\":18664:18722  require(_stepSize > 0, \"Step size must be greater than 0\") */\ntag_53:\n    /* \"StakeFactory.sol\":18735:18752  allocation[_days] */\n  0x00\n  dup9\n  dup2\n  mstore\n    /* \"StakeFactory.sol\":18735:18745  allocation */\n  0x04\n    /* \"StakeFactory.sol\":18735:18752  allocation[_days] */\n  0x20\n  mstore\n  0x40\n  swap1\n  keccak256\n    /* \"StakeFactory.sol\":18735:18776  allocation[_days] = percentageBasisPoints */\n  dup7\n  swap1\n  sstore\n    /* \"StakeFactory.sol\":18794:18820  isLockPeriodAllowed(_days) */\n  tag_56\n    /* \"StakeFactory.sol\":18746:18751  _days */\n  dup9\n    /* \"StakeFactory.sol\":18794:18813  isLockPeriodAllowed */\n  tag_57\n    /* \"StakeFactory.sol\":18794:18820  isLockPeriodAllowed(_days) */\n  jump\t// in\ntag_56:\n    /* \"StakeFactory.sol\":18789:18951  if (!isLockPeriodAllowed(_days)) {... */\n  tag_58\n  jumpi\n    /* \"StakeFactory.sol\":18837:18855  allowedLockPeriods */\n  0x13\n    /* \"StakeFactory.sol\":18837:18867  allowedLockPeriods.push(_days) */\n  dup1\n  sload\n  0x01\n  dup2\n  add\n  dup3\n  sstore\n  0x00\n  swap2\n  swap1\n  swap2\n  mstore\n  0x66de8ffda797e3de9c05e8fc57b3bf0ec28a930d40b0d285d93c06501cf6a090\n  add\n  dup9\n  swap1\n  sstore\n    /* \"StakeFactory.sol\":18789:18951  if (!isLockPeriodAllowed(_days)) {... */\ntag_58:\n    /* \"StakeFactory.sol\":19084:19597  LockPeriodParams({... */\n  0x40\n  dup1\n  mload\n  0x0120\n  dup2\n  add\n  dup3\n  mstore\n  dup10\n  dup2\n  mstore\n  0x20\n  dup1\n  dup3\n  add\n  swap10\n  dup11\n  mstore\n  dup2\n  dup4\n  add\n  swap9\n  dup10\n  mstore\n  0x60\n  dup3\n  add\n  swap8\n  dup9\n  mstore\n  0x80\n  dup3\n  add\n  swap7\n  dup8\n  mstore\n  0xa0\n  dup3\n  add\n  swap6\n  dup7\n  mstore\n  0xc0\n  dup3\n  add\n  swap5\n  dup6\n  mstore\n  swap3\n  iszero\n  iszero\n  0xe0\n  dup3\n  add\n  swap1\n  dup2\n  mstore\n  0x00\n    /* \"StakeFactory.sol\":19549:19572  lockPeriodParams[_days] */\n  dup12\n  dup2\n  mstore\n    /* \"StakeFactory.sol\":19549:19565  lockPeriodParams */\n  0x05\n    /* \"StakeFactory.sol\":19549:19572  lockPeriodParams[_days] */\n  dup1\n  dup7\n  mstore\n  swap4\n  dup2\n  keccak256\n    /* \"StakeFactory.sol\":19549:19585  lockPeriodParams[_days].stakedAmount */\n  0x08\n  dup2\n  add\n  dup1\n  sload\n    /* \"StakeFactory.sol\":19084:19597  LockPeriodParams({... */\n  0x0100\n  dup7\n  add\n  swap1\n  dup2\n  mstore\n    /* \"StakeFactory.sol\":19058:19081  lockPeriodParams[_days] */\n  swap14\n  swap1\n  swap3\n  mstore\n  swap5\n  dup5\n  swap1\n  mstore\n    /* \"StakeFactory.sol\":19058:19597  lockPeriodParams[_days] = LockPeriodParams({... */\n  swap2\n  mload\n  dup5\n  sstore\n  swap9\n  mload\n  0x01\n  dup5\n  add\n  sstore\n  swap7\n  mload\n  0x02\n  dup4\n  add\n  sstore\n  swap5\n  mload\n  0x03\n  dup3\n  add\n  sstore\n  swap3\n  mload\n  0x04\n  dup5\n  add\n  sstore\n  swap1\n  mload\n  swap3\n  dup3\n  add\n  swap3\n  swap1\n  swap3\n  sstore\n  swap1\n  mload\n  0x06\n  dup3\n  add\n  sstore\n  swap2\n  mload\n  0x07\n  swap1\n  swap3\n  add\n  dup1\n  sload\n  not(0xff)\n  and\n  swap3\n  iszero\n  iszero\n  swap3\n  swap1\n  swap3\n  or\n  swap1\n  swap2\n  sstore\n  swap1\n  mload\n  swap1\n  sstore\n    /* \"StakeFactory.sol\":18191:19605  function setAllocation(... */\n  jump\t// out\n    /* \"StakeFactory.sol\":19719:19997  function isLockPeriodAllowed(uint256 _days) internal view returns (bool) {... */\ntag_57:\n    /* \"StakeFactory.sol\":19786:19790  bool */\n  0x00\n  dup1\n    /* \"StakeFactory.sol\":19803:19967  for (uint256 i = 0; i < allowedLockPeriods.length; i++) {... */\ntag_61:\n    /* \"StakeFactory.sol\":19827:19845  allowedLockPeriods */\n  0x13\n    /* \"StakeFactory.sol\":19827:19852  allowedLockPeriods.length */\n  sload\n    /* \"StakeFactory.sol\":19823:19852  i < allowedLockPeriods.length */\n  dup2\n  lt\n    /* \"StakeFactory.sol\":19803:19967  for (uint256 i = 0; i < allowedLockPeriods.length; i++) {... */\n  iszero\n  tag_62\n  jumpi\n    /* \"StakeFactory.sol\":19903:19908  _days */\n  dup3\n    /* \"StakeFactory.sol\":19878:19896  allowedLockPeriods */\n  0x13\n    /* \"StakeFactory.sol\":19897:19898  i */\n  dup3\n    /* \"StakeFactory.sol\":19878:19899  allowedLockPeriods[i] */\n  dup2\n  sload\n  dup2\n  lt\n  tag_65\n  jumpi\n  tag_65\n  tag_25\n  jump\t// in\ntag_65:\n  swap1\n  0x00\n  mstore\n  keccak256(0x00, 0x20)\n  add\n  sload\n    /* \"StakeFactory.sol\":19878:19908  allowedLockPeriods[i] == _days */\n  sub\n    /* \"StakeFactory.sol\":19874:19956  if (allowedLockPeriods[i] == _days) {... */\n  tag_67\n  jumpi\n  pop\n    /* \"StakeFactory.sol\":19936:19940  true */\n  0x01\n  swap3\n    /* \"StakeFactory.sol\":19719:19997  function isLockPeriodAllowed(uint256 _days) internal view returns (bool) {... */\n  swap2\n  pop\n  pop\n  jump\t// out\n    /* \"StakeFactory.sol\":19874:19956  if (allowedLockPeriods[i] == _days) {... */\ntag_67:\n    /* \"StakeFactory.sol\":19854:19857  i++ */\n  0x01\n  add\n    /* \"StakeFactory.sol\":19803:19967  for (uint256 i = 0; i < allowedLockPeriods.length; i++) {... */\n  jump(tag_61)\ntag_62:\n  pop\n    /* \"StakeFactory.sol\":19984:19989  false */\n  0x00\n  swap3\n    /* \"StakeFactory.sol\":19719:19997  function isLockPeriodAllowed(uint256 _days) internal view returns (bool) {... */\n  swap2\n  pop\n  pop\n  jump\t// out\n    /* \"#utility.yul\":14:153   */\ntag_68:\n  sub(shl(0xa0, 0x01), 0x01)\n    /* \"#utility.yul\":97:128   */\n  dup2\n  and\n    /* \"#utility.yul\":87:129   */\n  dup2\n  eq\n    /* \"#utility.yul\":77:147   */\n  tag_75\n  jumpi\n    /* \"#utility.yul\":143:144   */\n  0x00\n    /* \"#utility.yul\":140:141   */\n  dup1\n    /* \"#utility.yul\":133:145   */\n  revert\n    /* \"#utility.yul\":77:147   */\ntag_75:\n    /* \"#utility.yul\":14:153   */\n  pop\n  jump\t// out\n    /* \"#utility.yul\":158:285   */\ntag_69:\n    /* \"#utility.yul\":219:229   */\n  0x4e487b71\n    /* \"#utility.yul\":214:217   */\n  0xe0\n    /* \"#utility.yul\":210:230   */\n  shl\n    /* \"#utility.yul\":207:208   */\n  0x00\n    /* \"#utility.yul\":200:231   */\n  mstore\n    /* \"#utility.yul\":250:254   */\n  0x41\n    /* \"#utility.yul\":247:248   */\n  0x04\n    /* \"#utility.yul\":240:255   */\n  mstore\n    /* \"#utility.yul\":274:278   */\n  0x24\n    /* \"#utility.yul\":271:272   */\n  0x00\n    /* \"#utility.yul\":264:279   */\n  revert\n    /* \"#utility.yul\":290:544   */\ntag_70:\n    /* \"#utility.yul\":361:363   */\n  0x40\n    /* \"#utility.yul\":355:364   */\n  mload\n    /* \"#utility.yul\":403:409   */\n  0x0120\n    /* \"#utility.yul\":391:410   */\n  dup2\n  add\n  sub(shl(0x40, 0x01), 0x01)\n    /* \"#utility.yul\":425:459   */\n  dup2\n  gt\n    /* \"#utility.yul\":461:483   */\n  dup3\n  dup3\n  lt\n    /* \"#utility.yul\":422:484   */\n  or\n    /* \"#utility.yul\":419:507   */\n  iszero\n  tag_79\n  jumpi\n    /* \"#utility.yul\":487:505   */\n  tag_79\n  tag_69\n  jump\t// in\ntag_79:\n    /* \"#utility.yul\":523:525   */\n  0x40\n    /* \"#utility.yul\":516:538   */\n  mstore\n    /* \"#utility.yul\":290:544   */\n  swap1\n  jump\t// out\n    /* \"#utility.yul\":549:824   */\ntag_71:\n    /* \"#utility.yul\":620:622   */\n  0x40\n    /* \"#utility.yul\":614:623   */\n  mload\n    /* \"#utility.yul\":685:687   */\n  0x1f\n    /* \"#utility.yul\":666:679   */\n  dup3\n  add\n  not(0x1f)\n    /* \"#utility.yul\":662:689   */\n  and\n    /* \"#utility.yul\":650:690   */\n  dup2\n  add\n  sub(shl(0x40, 0x01), 0x01)\n    /* \"#utility.yul\":705:739   */\n  dup2\n  gt\n    /* \"#utility.yul\":741:763   */\n  dup3\n  dup3\n  lt\n    /* \"#utility.yul\":702:764   */\n  or\n    /* \"#utility.yul\":699:787   */\n  iszero\n  tag_82\n  jumpi\n    /* \"#utility.yul\":767:785   */\n  tag_82\n  tag_69\n  jump\t// in\ntag_82:\n    /* \"#utility.yul\":803:805   */\n  0x40\n    /* \"#utility.yul\":796:818   */\n  mstore\n    /* \"#utility.yul\":549:824   */\n  swap2\n  swap1\n  pop\n  jump\t// out\n    /* \"#utility.yul\":829:993   */\ntag_72:\n    /* \"#utility.yul\":905:918   */\n  dup1\n  mload\n    /* \"#utility.yul\":954:967   */\n  dup1\n  iszero\n    /* \"#utility.yul\":947:968   */\n  iszero\n    /* \"#utility.yul\":937:969   */\n  dup2\n  eq\n    /* \"#utility.yul\":927:987   */\n  tag_84\n  jumpi\n    /* \"#utility.yul\":983:984   */\n  0x00\n    /* \"#utility.yul\":980:981   */\n  dup1\n    /* \"#utility.yul\":973:985   */\n  revert\n    /* \"#utility.yul\":927:987   */\ntag_84:\n    /* \"#utility.yul\":829:993   */\n  swap2\n  swap1\n  pop\n  jump\t// out\n    /* \"#utility.yul\":998:3651   */\ntag_3:\n    /* \"#utility.yul\":1188:1194   */\n  0x00\n    /* \"#utility.yul\":1196:1202   */\n  dup1\n    /* \"#utility.yul\":1204:1210   */\n  0x00\n    /* \"#utility.yul\":1212:1218   */\n  dup1\n    /* \"#utility.yul\":1220:1226   */\n  0x00\n    /* \"#utility.yul\":1273:1276   */\n  0xa0\n    /* \"#utility.yul\":1261:1270   */\n  dup7\n    /* \"#utility.yul\":1252:1259   */\n  dup9\n    /* \"#utility.yul\":1248:1271   */\n  sub\n    /* \"#utility.yul\":1244:1277   */\n  slt\n    /* \"#utility.yul\":1241:1294   */\n  iszero\n  tag_86\n  jumpi\n    /* \"#utility.yul\":1290:1291   */\n  0x00\n    /* \"#utility.yul\":1287:1288   */\n  dup1\n    /* \"#utility.yul\":1280:1292   */\n  revert\n    /* \"#utility.yul\":1241:1294   */\ntag_86:\n    /* \"#utility.yul\":1322:1331   */\n  dup6\n    /* \"#utility.yul\":1316:1332   */\n  mload\n    /* \"#utility.yul\":1341:1380   */\n  tag_87\n    /* \"#utility.yul\":1374:1379   */\n  dup2\n    /* \"#utility.yul\":1341:1380   */\n  tag_68\n  jump\t// in\ntag_87:\n    /* \"#utility.yul\":1449:1451   */\n  0x20\n    /* \"#utility.yul\":1434:1452   */\n  dup8\n  add\n    /* \"#utility.yul\":1428:1453   */\n  mload\n    /* \"#utility.yul\":1399:1404   */\n  swap1\n  swap6\n  pop\n    /* \"#utility.yul\":1462:1503   */\n  tag_88\n    /* \"#utility.yul\":1428:1453   */\n  dup2\n    /* \"#utility.yul\":1462:1503   */\n  tag_68\n  jump\t// in\ntag_88:\n    /* \"#utility.yul\":1574:1576   */\n  0x40\n    /* \"#utility.yul\":1559:1577   */\n  dup8\n  add\n    /* \"#utility.yul\":1553:1578   */\n  mload\n    /* \"#utility.yul\":1522:1529   */\n  swap1\n  swap5\n  pop\n    /* \"#utility.yul\":1587:1628   */\n  tag_89\n    /* \"#utility.yul\":1553:1578   */\n  dup2\n    /* \"#utility.yul\":1587:1628   */\n  tag_68\n  jump\t// in\ntag_89:\n    /* \"#utility.yul\":1720:1722   */\n  0x60\n    /* \"#utility.yul\":1705:1723   */\n  dup8\n  add\n    /* \"#utility.yul\":1699:1724   */\n  mload\n    /* \"#utility.yul\":1794:1797   */\n  0x80\n    /* \"#utility.yul\":1779:1798   */\n  dup9\n  add\n    /* \"#utility.yul\":1773:1799   */\n  mload\n    /* \"#utility.yul\":1647:1654   */\n  swap2\n  swap5\n  pop\n    /* \"#utility.yul\":1699:1724   */\n  swap3\n  pop\n  sub(shl(0x40, 0x01), 0x01)\n    /* \"#utility.yul\":1811:1841   */\n  dup2\n  gt\n    /* \"#utility.yul\":1808:1858   */\n  iszero\n  tag_90\n  jumpi\n    /* \"#utility.yul\":1854:1855   */\n  0x00\n    /* \"#utility.yul\":1851:1852   */\n  dup1\n    /* \"#utility.yul\":1844:1856   */\n  revert\n    /* \"#utility.yul\":1808:1858   */\ntag_90:\n    /* \"#utility.yul\":1877:1899   */\n  dup7\n  add\n    /* \"#utility.yul\":1930:1934   */\n  0x1f\n    /* \"#utility.yul\":1922:1935   */\n  dup2\n  add\n    /* \"#utility.yul\":1918:1945   */\n  dup9\n  sgt\n    /* \"#utility.yul\":1908:1963   */\n  tag_91\n  jumpi\n    /* \"#utility.yul\":1959:1960   */\n  0x00\n    /* \"#utility.yul\":1956:1957   */\n  dup1\n    /* \"#utility.yul\":1949:1961   */\n  revert\n    /* \"#utility.yul\":1908:1963   */\ntag_91:\n    /* \"#utility.yul\":1986:1995   */\n  dup1\n  mload\n  sub(shl(0x40, 0x01), 0x01)\n    /* \"#utility.yul\":2007:2037   */\n  dup2\n  gt\n    /* \"#utility.yul\":2004:2060   */\n  iszero\n  tag_93\n  jumpi\n    /* \"#utility.yul\":2040:2058   */\n  tag_93\n  tag_69\n  jump\t// in\ntag_93:\n    /* \"#utility.yul\":2080:2120   */\n  tag_94\n    /* \"#utility.yul\":2116:2118   */\n  0x20\n    /* \"#utility.yul\":2107:2113   */\n  dup3\n    /* \"#utility.yul\":2104:2105   */\n  0x05\n    /* \"#utility.yul\":2100:2114   */\n  shl\n    /* \"#utility.yul\":2096:2119   */\n  add\n    /* \"#utility.yul\":2080:2120   */\n  tag_71\n  jump\t// in\ntag_94:\n    /* \"#utility.yul\":2142:2145   */\n  dup1\n    /* \"#utility.yul\":2166:2172   */\n  dup3\n    /* \"#utility.yul\":2161:2164   */\n  dup3\n    /* \"#utility.yul\":2154:2173   */\n  mstore\n    /* \"#utility.yul\":2198:2200   */\n  0x20\n    /* \"#utility.yul\":2193:2196   */\n  dup3\n    /* \"#utility.yul\":2189:2201   */\n  add\n    /* \"#utility.yul\":2182:2201   */\n  swap2\n  pop\n    /* \"#utility.yul\":2258:2260   */\n  0x20\n    /* \"#utility.yul\":2248:2254   */\n  0x0120\n    /* \"#utility.yul\":2240:2246   */\n  dup5\n    /* \"#utility.yul\":2236:2255   */\n  mul\n    /* \"#utility.yul\":2232:2234   */\n  dup6\n    /* \"#utility.yul\":2228:2256   */\n  add\n    /* \"#utility.yul\":2224:2261   */\n  add\n    /* \"#utility.yul\":2210:2261   */\n  swap3\n  pop\n    /* \"#utility.yul\":2284:2291   */\n  dup11\n    /* \"#utility.yul\":2276:2282   */\n  dup4\n    /* \"#utility.yul\":2273:2292   */\n  gt\n    /* \"#utility.yul\":2270:2309   */\n  iszero\n  tag_95\n  jumpi\n    /* \"#utility.yul\":2305:2306   */\n  0x00\n    /* \"#utility.yul\":2302:2303   */\n  dup1\n    /* \"#utility.yul\":2295:2307   */\n  revert\n    /* \"#utility.yul\":2270:2309   */\ntag_95:\n    /* \"#utility.yul\":2337:2339   */\n  0x20\n    /* \"#utility.yul\":2333:2335   */\n  dup5\n    /* \"#utility.yul\":2329:2340   */\n  add\n    /* \"#utility.yul\":2318:2340   */\n  swap4\n  pop\n    /* \"#utility.yul\":2349:3621   */\ntag_96:\n    /* \"#utility.yul\":2365:2371   */\n  dup3\n    /* \"#utility.yul\":2360:2363   */\n  dup5\n    /* \"#utility.yul\":2357:2372   */\n  lt\n    /* \"#utility.yul\":2349:3621   */\n  iszero\n  tag_98\n  jumpi\n    /* \"#utility.yul\":2449:2455   */\n  0x0120\n    /* \"#utility.yul\":2443:2446   */\n  dup5\n    /* \"#utility.yul\":2434:2441   */\n  dup13\n    /* \"#utility.yul\":2430:2447   */\n  sub\n    /* \"#utility.yul\":2426:2456   */\n  slt\n    /* \"#utility.yul\":2423:2473   */\n  iszero\n  tag_99\n  jumpi\n    /* \"#utility.yul\":2469:2470   */\n  0x00\n    /* \"#utility.yul\":2466:2467   */\n  dup1\n    /* \"#utility.yul\":2459:2471   */\n  revert\n    /* \"#utility.yul\":2423:2473   */\ntag_99:\n    /* \"#utility.yul\":2501:2522   */\n  tag_100\n  tag_70\n  jump\t// in\ntag_100:\n    /* \"#utility.yul\":2575:2585   */\n  dup5\n  mload\n    /* \"#utility.yul\":2598:2622   */\n  dup2\n  mstore\n    /* \"#utility.yul\":2690:2692   */\n  0x20\n    /* \"#utility.yul\":2681:2693   */\n  dup1\n  dup7\n  add\n    /* \"#utility.yul\":2675:2694   */\n  mload\n    /* \"#utility.yul\":2714:2730   */\n  swap1\n  dup3\n  add\n    /* \"#utility.yul\":2707:2740   */\n  mstore\n    /* \"#utility.yul\":2808:2810   */\n  0x40\n    /* \"#utility.yul\":2799:2811   */\n  dup1\n  dup7\n  add\n    /* \"#utility.yul\":2793:2812   */\n  mload\n    /* \"#utility.yul\":2832:2848   */\n  swap1\n  dup3\n  add\n    /* \"#utility.yul\":2825:2858   */\n  mstore\n    /* \"#utility.yul\":2926:2928   */\n  0x60\n    /* \"#utility.yul\":2917:2929   */\n  dup1\n  dup7\n  add\n    /* \"#utility.yul\":2911:2930   */\n  mload\n    /* \"#utility.yul\":2950:2966   */\n  swap1\n  dup3\n  add\n    /* \"#utility.yul\":2943:2976   */\n  mstore\n    /* \"#utility.yul\":3044:3047   */\n  0x80\n    /* \"#utility.yul\":3035:3048   */\n  dup1\n  dup7\n  add\n    /* \"#utility.yul\":3029:3049   */\n  mload\n    /* \"#utility.yul\":3069:3086   */\n  swap1\n  dup3\n  add\n    /* \"#utility.yul\":3062:3096   */\n  mstore\n    /* \"#utility.yul\":3166:3169   */\n  0xa0\n    /* \"#utility.yul\":3157:3170   */\n  dup1\n  dup7\n  add\n    /* \"#utility.yul\":3151:3171   */\n  mload\n    /* \"#utility.yul\":3191:3208   */\n  swap1\n  dup3\n  add\n    /* \"#utility.yul\":3184:3219   */\n  mstore\n    /* \"#utility.yul\":3289:3292   */\n  0xc0\n    /* \"#utility.yul\":3280:3293   */\n  dup1\n  dup7\n  add\n    /* \"#utility.yul\":3274:3294   */\n  mload\n    /* \"#utility.yul\":3314:3331   */\n  swap1\n  dup3\n  add\n    /* \"#utility.yul\":3307:3342   */\n  mstore\n    /* \"#utility.yul\":3381:3422   */\n  tag_101\n    /* \"#utility.yul\":3417:3420   */\n  0xe0\n    /* \"#utility.yul\":3408:3421   */\n  dup7\n  add\n    /* \"#utility.yul\":3381:3422   */\n  tag_72\n  jump\t// in\ntag_101:\n    /* \"#utility.yul\":3375:3378   */\n  0xe0\n    /* \"#utility.yul\":3362:3379   */\n  dup3\n  add\n    /* \"#utility.yul\":3355:3423   */\n  mstore\n    /* \"#utility.yul\":3493:3496   */\n  0x0100\n    /* \"#utility.yul\":3484:3497   */\n  dup6\n  dup2\n  add\n    /* \"#utility.yul\":3478:3498   */\n  mload\n    /* \"#utility.yul\":3518:3535   */\n  swap1\n  dup3\n  add\n    /* \"#utility.yul\":3511:3546   */\n  mstore\n    /* \"#utility.yul\":3559:3579   */\n  dup3\n  mstore\n    /* \"#utility.yul\":2391:2397   */\n  0x0120\n    /* \"#utility.yul\":2382:2398   */\n  swap1\n  swap4\n  add\n  swap3\n    /* \"#utility.yul\":3608:3610   */\n  0x20\n    /* \"#utility.yul\":3599:3611   */\n  swap1\n  swap2\n  add\n  swap1\n    /* \"#utility.yul\":2349:3621   */\n  jump(tag_96)\ntag_98:\n    /* \"#utility.yul\":3640:3645   */\n  dup1\n    /* \"#utility.yul\":3630:3645   */\n  swap5\n  pop\n  pop\n  pop\n  pop\n  pop\n    /* \"#utility.yul\":998:3651   */\n  swap3\n  swap6\n  pop\n  swap3\n  swap6\n  swap1\n  swap4\n  pop\n  jump\t// out\n    /* \"#utility.yul\":3656:3929   */\ntag_15:\n    /* \"#utility.yul\":3724:3730   */\n  0x00\n    /* \"#utility.yul\":3777:3779   */\n  0x20\n    /* \"#utility.yul\":3765:3774   */\n  dup3\n    /* \"#utility.yul\":3756:3763   */\n  dup5\n    /* \"#utility.yul\":3752:3775   */\n  sub\n    /* \"#utility.yul\":3748:3780   */\n  slt\n    /* \"#utility.yul\":3745:3797   */\n  iszero\n  tag_103\n  jumpi\n    /* \"#utility.yul\":3793:3794   */\n  0x00\n    /* \"#utility.yul\":3790:3791   */\n  dup1\n    /* \"#utility.yul\":3783:3795   */\n  revert\n    /* \"#utility.yul\":3745:3797   */\ntag_103:\n    /* \"#utility.yul\":3825:3834   */\n  dup2\n    /* \"#utility.yul\":3819:3835   */\n  mload\n    /* \"#utility.yul\":3875:3879   */\n  0xff\n    /* \"#utility.yul\":3868:3873   */\n  dup2\n    /* \"#utility.yul\":3864:3880   */\n  and\n    /* \"#utility.yul\":3857:3862   */\n  dup2\n    /* \"#utility.yul\":3854:3881   */\n  eq\n    /* \"#utility.yul\":3844:3899   */\n  tag_104\n  jumpi\n    /* \"#utility.yul\":3895:3896   */\n  0x00\n    /* \"#utility.yul\":3892:3893   */\n  dup1\n    /* \"#utility.yul\":3885:3897   */\n  revert\n    /* \"#utility.yul\":3844:3899   */\ntag_104:\n    /* \"#utility.yul\":3918:3923   */\n  swap4\n    /* \"#utility.yul\":3656:3929   */\n  swap3\n  pop\n  pop\n  pop\n  jump\t// out\n    /* \"#utility.yul\":3934:4061   */\ntag_25:\n    /* \"#utility.yul\":3995:4005   */\n  0x4e487b71\n    /* \"#utility.yul\":3990:3993   */\n  0xe0\n    /* \"#utility.yul\":3986:4006   */\n  shl\n    /* \"#utility.yul\":3983:3984   */\n  0x00\n    /* \"#utility.yul\":3976:4007   */\n  mstore\n    /* \"#utility.yul\":4026:4030   */\n  0x32\n    /* \"#utility.yul\":4023:4024   */\n  0x04\n    /* \"#utility.yul\":4016:4031   */\n  mstore\n    /* \"#utility.yul\":4050:4054   */\n  0x24\n    /* \"#utility.yul\":4047:4048   */\n  0x00\n    /* \"#utility.yul\":4040:4055   */\n  revert\n    /* \"#utility.yul\":5193:5549   */\ntag_73:\n    /* \"StakeFactory.sol\":8438:24976  contract StakeFactory is Ownable, Pausable, ReentrancyGuard {... */\n  dataSize(sub_0)\n  dup1\n  dataOffset(sub_0)\n  0x00\n  codecopy\n  0x00\n  return\nstop\n\nsub_0: assembly {\n        /* \"StakeFactory.sol\":8438:24976  contract StakeFactory is Ownable, Pausable, ReentrancyGuard {... */\n      mstore(0x40, 0x80)\n      jumpi(tag_1, lt(calldatasize, 0x04))\n      shr(0xe0, calldataload(0x00))\n      dup1\n      0x850bad94\n      gt\n      tag_45\n      jumpi\n      dup1\n      0xc2e5fe76\n      gt\n      tag_46\n      jumpi\n      dup1\n      0xde644c76\n      gt\n      tag_47\n      jumpi\n      dup1\n      0xde644c76\n      eq\n      tag_39\n      jumpi\n      dup1\n      0xe2bbb158\n      eq\n      tag_40\n      jumpi\n      dup1\n      0xf256dfc5\n      eq\n      tag_41\n      jumpi\n      dup1\n      0xf2fde38b\n      eq\n      tag_42\n      jumpi\n      dup1\n      0xf66e4be3\n      eq\n      tag_43\n      jumpi\n      dup1\n      0xf7c618c1\n      eq\n      tag_44\n      jumpi\n      0x00\n      dup1\n      revert\n    tag_47:\n      dup1\n      0xc2e5fe76\n      eq\n      tag_34\n      jumpi\n      dup1\n      0xc53c5fc1\n      eq\n      tag_35\n      jumpi\n      dup1\n      0xc5c35196\n      eq\n      tag_36\n      jumpi\n      dup1\n      0xcd099205\n      eq\n      tag_37\n      jumpi\n      dup1\n      0xcd8de42c\n      eq\n      tag_38\n      jumpi\n      0x00\n      dup1\n      revert\n    tag_46:\n      dup1\n      0x9a4577a2\n      gt\n      tag_48\n      jumpi\n      dup1\n      0x9a4577a2\n      eq\n      tag_29\n      jumpi\n      dup1\n      0x9bdcecd1\n      eq\n      tag_30\n      jumpi\n      dup1\n      0xba743f99\n      eq\n      tag_31\n      jumpi\n      dup1\n      0xc0941214\n      eq\n      tag_32\n      jumpi\n      dup1\n      0xc2412676\n      eq\n      tag_33\n      jumpi\n      0x00\n      dup1\n      revert\n    tag_48:\n      dup1\n      0x850bad94\n      eq\n      tag_24\n      jumpi\n      dup1\n      0x8da5cb5b\n      eq\n      tag_25\n      jumpi\n      dup1\n      0x917bb998\n      eq\n      tag_26\n      jumpi\n      dup1\n      0x91dc842e\n      eq\n      tag_27\n      jumpi\n      dup1\n      0x95302cc0\n      eq\n      tag_28\n      jumpi\n      0x00\n      dup1\n      revert\n    tag_45:\n      dup1\n      0x41ee13be\n      gt\n      tag_49\n      jumpi\n      dup1\n      0x5c975abb\n      gt\n      tag_50\n      jumpi\n      dup1\n      0x5c975abb\n      eq\n      tag_18\n      jumpi\n      dup1\n      0x647428b9\n      eq\n      tag_19\n      jumpi\n      dup1\n      0x6a1d18d2\n      eq\n      tag_20\n      jumpi\n      dup1\n      0x6b130dc2\n      eq\n      tag_21\n      jumpi\n      dup1\n      0x6ba13a82\n      eq\n      tag_22\n      jumpi\n      dup1\n      0x6f77926b\n      eq\n      tag_23\n      jumpi\n      0x00\n      dup1\n      revert\n    tag_50:\n      dup1\n      0x41ee13be\n      eq\n      tag_13\n      jumpi\n      dup1\n      0x45982a66\n      eq\n      tag_14\n      jumpi\n      dup1\n      0x4d70378a\n      eq\n      tag_15\n      jumpi\n      dup1\n      0x52b8745f\n      eq\n      tag_16\n      jumpi\n      dup1\n      0x58098bf4\n      eq\n      tag_17\n      jumpi\n      0x00\n      dup1\n      revert\n    tag_49:\n      dup1\n      0x2b4a16a0\n      gt\n      tag_51\n      jumpi\n      dup1\n      0x2b4a16a0\n      eq\n      tag_8\n      jumpi\n      dup1\n      0x31d7a262\n      eq\n      tag_9\n      jumpi\n      dup1\n      0x365b98b2\n      eq\n      tag_10\n      jumpi\n      dup1\n      0x39129cff\n      eq\n      tag_11\n      jumpi\n      dup1\n      0x3d51c72d\n      eq\n      tag_12\n      jumpi\n      0x00\n      dup1\n      revert\n    tag_51:\n      dup1\n      0x03962d46\n      eq\n      tag_3\n      jumpi\n      dup1\n      0x0a6f93e6\n      eq\n      tag_4\n      jumpi\n      dup1\n      0x16ada547\n      eq\n      tag_5\n      jumpi\n      dup1\n      0x230ffa0f\n      eq\n      tag_6\n      jumpi\n      dup1\n      0x27ba372c\n      eq\n      tag_7\n      jumpi\n      0x00\n      dup1\n      revert\n    tag_1:\n      jumpi(tag_2, calldatasize)\n      stop\n    tag_2:\n      0x00\n      dup1\n      revert\n        /* \"StakeFactory.sol\":9630:9681  mapping(address => uint256) public withdrawedReward */\n    tag_3:\n      callvalue\n      dup1\n      iszero\n      tag_54\n      jumpi\n      0x00\n      dup1\n      revert\n    tag_54:\n      pop\n      tag_55\n      tag_56\n      calldatasize\n      0x04\n      tag_57\n      jump\t// in\n    tag_56:\n      mstore(0x20, 0x0b)\n      0x00\n      swap1\n      dup2\n      mstore\n      0x40\n      swap1\n      keccak256\n      sload\n      dup2\n      jump\n    tag_55:\n      mload(0x40)\n        /* \"#utility.yul\":548:573   */\n      swap1\n      dup2\n      mstore\n        /* \"#utility.yul\":536:538   */\n      0x20\n        /* \"#utility.yul\":521:539   */\n      add\n        /* \"StakeFactory.sol\":9630:9681  mapping(address => uint256) public withdrawedReward */\n    tag_59:\n      mload(0x40)\n      dup1\n      swap2\n      sub\n      swap1\n      return\n        /* \"StakeFactory.sol\":9688:9734  mapping(address => uint256) public lastUpdated */\n    tag_4:\n      callvalue\n      dup1\n      iszero\n      tag_61\n      jumpi\n      0x00\n      dup1\n      revert\n    tag_61:\n      pop\n      tag_55\n      tag_63\n      calldatasize\n      0x04\n      tag_57\n      jump\t// in\n    tag_63:\n      mstore(0x20, 0x0c)\n      0x00\n      swap1\n      dup2\n      mstore\n      0x40\n      swap1\n      keccak256\n      sload\n      dup2\n      jump\n        /* \"StakeFactory.sol\":10019:10045  uint256 public time = 3600 */\n    tag_5:\n      callvalue\n      dup1\n      iszero\n      tag_66\n      jumpi\n      0x00\n      dup1\n      revert\n    tag_66:\n      pop\n      tag_55\n      sload(0x12)\n      dup2\n      jump\n        /* \"StakeFactory.sol\":24229:24431  function emergencyWithdrawWei(uint256 _amount) public onlyOwner {... */\n    tag_6:\n      callvalue\n      dup1\n      iszero\n      tag_70\n      jumpi\n      0x00\n      dup1\n      revert\n    tag_70:\n      pop\n      tag_71\n      tag_72\n      calldatasize\n      0x04\n      tag_73\n      jump\t// in\n    tag_72:\n      tag_74\n      jump\t// in\n    tag_71:\n      stop\n        /* \"StakeFactory.sol\":9457:9511  mapping(address => uint256) public depositeTokensTotal */\n    tag_7:\n      callvalue\n      dup1\n      iszero\n      tag_75\n      jumpi\n      0x00\n      dup1\n      revert\n    tag_75:\n      pop\n      tag_55\n      tag_77\n      calldatasize\n      0x04\n      tag_57\n      jump\t// in\n    tag_77:\n      mstore(0x20, 0x08)\n      0x00\n      swap1\n      dup2\n      mstore\n      0x40\n      swap1\n      keccak256\n      sload\n      dup2\n      jump\n        /* \"StakeFactory.sol\":10062:10097  uint256[] public allowedLockPeriods */\n    tag_8:\n      callvalue\n      dup1\n      iszero\n      tag_80\n      jumpi\n      0x00\n      dup1\n      revert\n    tag_80:\n      pop\n      tag_55\n      tag_82\n      calldatasize\n      0x04\n      tag_73\n      jump\t// in\n    tag_82:\n      tag_83\n      jump\t// in\n        /* \"StakeFactory.sol\":13172:13849  function pendingRewards(address _address) public view returns (uint256 reward) {... */\n    tag_9:\n      callvalue\n      dup1\n      iszero\n      tag_85\n      jumpi\n      0x00\n      dup1\n      revert\n    tag_85:\n      pop\n      tag_55\n      tag_87\n      calldatasize\n      0x04\n      tag_57\n      jump\t// in\n    tag_87:\n      tag_88\n      jump\t// in\n        /* \"StakeFactory.sol\":9795:9835  mapping(uint256 => address) public users */\n    tag_10:\n      callvalue\n      dup1\n      iszero\n      tag_90\n      jumpi\n      0x00\n      dup1\n      revert\n    tag_90:\n      pop\n      tag_91\n      tag_92\n      calldatasize\n      0x04\n      tag_73\n      jump\t// in\n    tag_92:\n      mstore(0x20, 0x0e)\n      0x00\n      swap1\n      dup2\n      mstore\n      0x40\n      swap1\n      keccak256\n      sload\n      sub(shl(0xa0, 0x01), 0x01)\n      and\n      dup2\n      jump\n    tag_91:\n      mload(0x40)\n      sub(shl(0xa0, 0x01), 0x01)\n        /* \"#utility.yul\":979:1011   */\n      swap1\n      swap2\n      and\n        /* \"#utility.yul\":961:1012   */\n      dup2\n      mstore\n        /* \"#utility.yul\":949:951   */\n      0x20\n        /* \"#utility.yul\":934:952   */\n      add\n        /* \"StakeFactory.sol\":9795:9835  mapping(uint256 => address) public users */\n      tag_59\n        /* \"#utility.yul\":815:1018   */\n      jump\n        /* \"StakeFactory.sol\":9218:9278  mapping(uint256 => LockPeriodParams) public lockPeriodParams */\n    tag_11:\n      callvalue\n      dup1\n      iszero\n      tag_96\n      jumpi\n      0x00\n      dup1\n      revert\n    tag_96:\n      pop\n      tag_97\n      tag_98\n      calldatasize\n      0x04\n      tag_73\n      jump\t// in\n    tag_98:\n      0x05\n      0x20\n      dup2\n      swap1\n      mstore\n      0x00\n      swap2\n      dup3\n      mstore\n      0x40\n      swap1\n      swap2\n      keccak256\n      dup1\n      sload\n      0x01\n      dup3\n      add\n      sload\n      0x02\n      dup4\n      add\n      sload\n      0x03\n      dup5\n      add\n      sload\n      0x04\n      dup6\n      add\n      sload\n      swap6\n      dup6\n      add\n      sload\n      0x06\n      dup7\n      add\n      sload\n      0x07\n      dup8\n      add\n      sload\n      0x08\n      swap1\n      swap8\n      add\n      sload\n      swap6\n      swap8\n      swap5\n      swap7\n      swap4\n      swap6\n      swap3\n      swap5\n      swap4\n      swap2\n      swap3\n      swap1\n      swap2\n      0xff\n      and\n      swap1\n      dup10\n      jump\n    tag_97:\n      0x40\n      dup1\n      mload\n        /* \"#utility.yul\":1388:1413   */\n      swap10\n      dup11\n      mstore\n        /* \"#utility.yul\":1444:1446   */\n      0x20\n        /* \"#utility.yul\":1429:1447   */\n      dup11\n      add\n        /* \"#utility.yul\":1422:1456   */\n      swap9\n      swap1\n      swap9\n      mstore\n        /* \"#utility.yul\":1472:1490   */\n      swap7\n      dup9\n      add\n        /* \"#utility.yul\":1465:1499   */\n      swap6\n      swap1\n      swap6\n      mstore\n        /* \"#utility.yul\":1530:1532   */\n      0x60\n        /* \"#utility.yul\":1515:1533   */\n      dup8\n      add\n        /* \"#utility.yul\":1508:1542   */\n      swap4\n      swap1\n      swap4\n      mstore\n        /* \"#utility.yul\":1573:1576   */\n      0x80\n        /* \"#utility.yul\":1558:1577   */\n      dup7\n      add\n        /* \"#utility.yul\":1551:1586   */\n      swap2\n      swap1\n      swap2\n      mstore\n        /* \"#utility.yul\":1617:1620   */\n      0xa0\n        /* \"#utility.yul\":1602:1621   */\n      dup6\n      add\n        /* \"#utility.yul\":1595:1630   */\n      mstore\n        /* \"#utility.yul\":1661:1664   */\n      0xc0\n        /* \"#utility.yul\":1646:1665   */\n      dup5\n      add\n        /* \"#utility.yul\":1639:1674   */\n      mstore\n        /* \"#utility.yul\":1718:1732   */\n      iszero\n        /* \"#utility.yul\":1711:1733   */\n      iszero\n        /* \"#utility.yul\":1705:1708   */\n      0xe0\n        /* \"#utility.yul\":1690:1709   */\n      dup4\n      add\n        /* \"#utility.yul\":1683:1734   */\n      mstore\n        /* \"#utility.yul\":1765:1768   */\n      0x0100\n        /* \"#utility.yul\":1750:1769   */\n      dup3\n      add\n        /* \"#utility.yul\":1743:1778   */\n      mstore\n        /* \"#utility.yul\":1375:1378   */\n      0x0120\n        /* \"#utility.yul\":1360:1379   */\n      add\n        /* \"StakeFactory.sol\":9218:9278  mapping(uint256 => LockPeriodParams) public lockPeriodParams */\n      tag_59\n        /* \"#utility.yul\":1023:1784   */\n      jump\n        /* \"StakeFactory.sol\":23339:23551  function getLockPeriodParams(uint256 _days) external view returns (LockPeriodParams memory) {... */\n    tag_12:\n      callvalue\n      dup1\n      iszero\n      tag_102\n      jumpi\n      0x00\n      dup1\n      revert\n    tag_102:\n      pop\n      tag_103\n      tag_104\n      calldatasize\n      0x04\n      tag_73\n      jump\t// in\n    tag_104:\n      tag_105\n      jump\t// in\n    tag_103:\n      mload(0x40)\n      tag_59\n      swap2\n      swap1\n      tag_107\n      jump\t// in\n        /* \"StakeFactory.sol\":20942:21053  function getLockPeriods() external view returns (uint256[] memory) {... */\n    tag_13:\n      callvalue\n      dup1\n      iszero\n      tag_108\n      jumpi\n      0x00\n      dup1\n      revert\n    tag_108:\n      pop\n      tag_109\n      tag_110\n      jump\t// in\n    tag_109:\n      mload(0x40)\n      tag_59\n      swap2\n      swap1\n      tag_112\n      jump\t// in\n        /* \"StakeFactory.sol\":14321:14809  function getUsers(uint256 _offset, uint256 _limit) public view returns(UserInfo[] memory ret) {... */\n    tag_14:\n      callvalue\n      dup1\n      iszero\n      tag_113\n      jumpi\n      0x00\n      dup1\n      revert\n    tag_113:\n      pop\n      tag_114\n      tag_115\n      calldatasize\n      0x04\n      tag_116\n      jump\t// in\n    tag_115:\n      tag_117\n      jump\t// in\n    tag_114:\n      mload(0x40)\n      tag_59\n      swap2\n      swap1\n      tag_119\n      jump\t// in\n        /* \"StakeFactory.sol\":20088:20813  function removeLockPeriod(uint256 _days) external onlyOwner {... */\n    tag_15:\n      callvalue\n      dup1\n      iszero\n      tag_120\n      jumpi\n      0x00\n      dup1\n      revert\n    tag_120:\n      pop\n      tag_71\n      tag_122\n      calldatasize\n      0x04\n      tag_73\n      jump\t// in\n    tag_122:\n      tag_123\n      jump\t// in\n        /* \"StakeFactory.sol\":24439:24683  function addSpam(address _addr) public onlyOwner {... */\n    tag_16:\n      callvalue\n      dup1\n      iszero\n      tag_124\n      jumpi\n      0x00\n      dup1\n      revert\n    tag_124:\n      pop\n      tag_71\n      tag_126\n      calldatasize\n      0x04\n      tag_57\n      jump\t// in\n    tag_126:\n      tag_127\n      jump\t// in\n        /* \"StakeFactory.sol\":24691:24936  function removeSpam(address _addr) public onlyOwner {... */\n    tag_17:\n      callvalue\n      dup1\n      iszero\n      tag_128\n      jumpi\n      0x00\n      dup1\n      revert\n    tag_128:\n      pop\n      tag_71\n      tag_130\n      calldatasize\n      0x04\n      tag_57\n      jump\t// in\n    tag_130:\n      tag_131\n      jump\t// in\n        /* \"StakeFactory.sol\":5992:6080  function paused() public view virtual returns (bool) {\t... */\n    tag_18:\n      callvalue\n      dup1\n      iszero\n      tag_132\n      jumpi\n      0x00\n      dup1\n      revert\n    tag_132:\n      pop\n        /* \"StakeFactory.sol\":6039:6043  bool */\n      0x00\n        /* \"StakeFactory.sol\":6064:6071  _paused */\n      sload\n      shl(0xa0, 0x01)\n      swap1\n      div\n      0xff\n      and\n        /* \"StakeFactory.sol\":5992:6080  function paused() public view virtual returns (bool) {\t... */\n    tag_133:\n      mload(0x40)\n        /* \"#utility.yul\":5713:5727   */\n      swap1\n      iszero\n        /* \"#utility.yul\":5706:5728   */\n      iszero\n        /* \"#utility.yul\":5688:5729   */\n      dup2\n      mstore\n        /* \"#utility.yul\":5676:5678   */\n      0x20\n        /* \"#utility.yul\":5661:5679   */\n      add\n        /* \"StakeFactory.sol\":5992:6080  function paused() public view virtual returns (bool) {\t... */\n      tag_59\n        /* \"#utility.yul\":5548:5735   */\n      jump\n        /* \"StakeFactory.sol\":21827:22242  function getRewardTokenInfo() public view returns (... */\n    tag_19:\n      callvalue\n      dup1\n      iszero\n      tag_137\n      jumpi\n      0x00\n      dup1\n      revert\n    tag_137:\n      pop\n      tag_138\n      tag_139\n      jump\t// in\n    tag_138:\n      mload(0x40)\n      tag_59\n      swap6\n      swap5\n      swap4\n      swap3\n      swap2\n      swap1\n      tag_141\n      jump\t// in\n        /* \"StakeFactory.sol\":23658:23872  function setDeductionPercentage(uint256 percentageBasisPoints) public onlyOwner {... */\n    tag_20:\n      callvalue\n      dup1\n      iszero\n      tag_142\n      jumpi\n      0x00\n      dup1\n      revert\n    tag_142:\n      pop\n      tag_71\n      tag_144\n      calldatasize\n      0x04\n      tag_73\n      jump\t// in\n    tag_144:\n      tag_145\n      jump\t// in\n        /* \"StakeFactory.sol\":9923:9964  uint256 public deductionPercentage = 2500 */\n    tag_21:\n      callvalue\n      dup1\n      iszero\n      tag_146\n      jumpi\n      0x00\n      dup1\n      revert\n    tag_146:\n      pop\n      tag_55\n      sload(0x11)\n      dup2\n      jump\n        /* \"StakeFactory.sol\":9842:9867  uint256 public usersCount */\n    tag_22:\n      callvalue\n      dup1\n      iszero\n      tag_150\n      jumpi\n      0x00\n      dup1\n      revert\n    tag_150:\n      pop\n      tag_55\n      sload(0x0f)\n      dup2\n      jump\n        /* \"StakeFactory.sol\":13857:14315  function getUser(address user) public view returns (UserInfo memory info) {... */\n    tag_23:\n      callvalue\n      dup1\n      iszero\n      tag_154\n      jumpi\n      0x00\n      dup1\n      revert\n    tag_154:\n      pop\n      tag_155\n      tag_156\n      calldatasize\n      0x04\n      tag_57\n      jump\t// in\n    tag_156:\n      tag_157\n      jump\t// in\n    tag_155:\n      mload(0x40)\n      tag_59\n      swap2\n      swap1\n      tag_159\n      jump\t// in\n        /* \"StakeFactory.sol\":9071:9116  mapping(uint256 => uint256) public allocation */\n    tag_24:\n      callvalue\n      dup1\n      iszero\n      tag_160\n      jumpi\n      0x00\n      dup1\n      revert\n    tag_160:\n      pop\n      tag_55\n      tag_162\n      calldatasize\n      0x04\n      tag_73\n      jump\t// in\n    tag_162:\n      mstore(0x20, 0x04)\n      0x00\n      swap1\n      dup2\n      mstore\n      0x40\n      swap1\n      keccak256\n      sload\n      dup2\n      jump\n        /* \"StakeFactory.sol\":7694:7773  function owner() public view returns (address) {... */\n    tag_25:\n      callvalue\n      dup1\n      iszero\n      tag_165\n      jumpi\n      0x00\n      dup1\n      revert\n    tag_165:\n      pop\n        /* \"StakeFactory.sol\":7732:7739  address */\n      0x00\n        /* \"StakeFactory.sol\":7759:7765  _owner */\n      sload\n      sub(shl(0xa0, 0x01), 0x01)\n      and\n        /* \"StakeFactory.sol\":7694:7773  function owner() public view returns (address) {... */\n      jump(tag_91)\n        /* \"StakeFactory.sol\":23998:24221  function emergencyWithdrawTokens(IERC20 _token, uint256 _amount) public onlyOwner {... */\n    tag_26:\n      callvalue\n      dup1\n      iszero\n      tag_169\n      jumpi\n      0x00\n      dup1\n      revert\n    tag_169:\n      pop\n      tag_71\n      tag_171\n      calldatasize\n      0x04\n      tag_172\n      jump\t// in\n    tag_171:\n      tag_173\n      jump\t// in\n        /* \"StakeFactory.sol\":9400:9450  mapping(address => uint256[]) public depositeToken */\n    tag_27:\n      callvalue\n      dup1\n      iszero\n      tag_174\n      jumpi\n      0x00\n      dup1\n      revert\n    tag_174:\n      pop\n      tag_55\n      tag_176\n      calldatasize\n      0x04\n      tag_172\n      jump\t// in\n    tag_176:\n      tag_178\n      jump\t// in\n        /* \"StakeFactory.sol\":9518:9567  mapping(address => uint256[]) public lockableDays */\n    tag_28:\n      callvalue\n      dup1\n      iszero\n      tag_180\n      jumpi\n      0x00\n      dup1\n      revert\n    tag_180:\n      pop\n      tag_55\n      tag_182\n      calldatasize\n      0x04\n      tag_172\n      jump\t// in\n    tag_182:\n      tag_183\n      jump\t// in\n        /* \"StakeFactory.sol\":18191:19605  function setAllocation(... */\n    tag_29:\n      callvalue\n      dup1\n      iszero\n      tag_185\n      jumpi\n      0x00\n      dup1\n      revert\n    tag_185:\n      pop\n      tag_71\n      tag_187\n      calldatasize\n      0x04\n      tag_188\n      jump\t// in\n    tag_187:\n      tag_189\n      jump\t// in\n        /* \"StakeFactory.sol\":8658:8690  uint8 public rewardTokenDecimals */\n    tag_30:\n      callvalue\n      dup1\n      iszero\n      tag_190\n      jumpi\n      0x00\n      dup1\n      revert\n    tag_190:\n      pop\n      sload(0x03)\n      tag_191\n      swap1\n      shl(0xb0, 0x01)\n      swap1\n      div\n      0xff\n      and\n      dup2\n      jump\n    tag_191:\n      mload(0x40)\n        /* \"#utility.yul\":9078:9082   */\n      0xff\n        /* \"#utility.yul\":9066:9083   */\n      swap1\n      swap2\n      and\n        /* \"#utility.yul\":9048:9084   */\n      dup2\n      mstore\n        /* \"#utility.yul\":9036:9038   */\n      0x20\n        /* \"#utility.yul\":9021:9039   */\n      add\n        /* \"StakeFactory.sol\":8658:8690  uint8 public rewardTokenDecimals */\n      tag_59\n        /* \"#utility.yul\":8906:9090   */\n      jump\n        /* \"StakeFactory.sol\":9574:9623  mapping(address => uint256[]) public depositeTime */\n    tag_31:\n      callvalue\n      dup1\n      iszero\n      tag_195\n      jumpi\n      0x00\n      dup1\n      revert\n    tag_195:\n      pop\n      tag_55\n      tag_197\n      calldatasize\n      0x04\n      tag_172\n      jump\t// in\n    tag_197:\n      tag_198\n      jump\t// in\n        /* \"StakeFactory.sol\":8618:8651  uint8 public depositTokenDecimals */\n    tag_32:\n      callvalue\n      dup1\n      iszero\n      tag_200\n      jumpi\n      0x00\n      dup1\n      revert\n    tag_200:\n      pop\n      sload(0x03)\n      tag_191\n      swap1\n      shl(0xa8, 0x01)\n      swap1\n      div\n      0xff\n      and\n      dup2\n      jump\n        /* \"StakeFactory.sol\":8505:8524  IERC20 public Token */\n    tag_33:\n      callvalue\n      dup1\n      iszero\n      tag_204\n      jumpi\n      0x00\n      dup1\n      revert\n    tag_204:\n      pop\n      sload(0x02)\n      tag_91\n      swap1\n      sub(shl(0xa0, 0x01), 0x01)\n      and\n      dup2\n      jump\n        /* \"StakeFactory.sol\":9745:9788  mapping(address => bool) public usersExists */\n    tag_34:\n      callvalue\n      dup1\n      iszero\n      tag_209\n      jumpi\n      0x00\n      dup1\n      revert\n    tag_209:\n      pop\n      tag_133\n      tag_211\n      calldatasize\n      0x04\n      tag_57\n      jump\t// in\n    tag_211:\n      mstore(0x20, 0x0d)\n      0x00\n      swap1\n      dup2\n      mstore\n      0x40\n      swap1\n      keccak256\n      sload\n      0xff\n      and\n      dup2\n      jump\n        /* \"StakeFactory.sol\":21437:21821  function getStakeTokenInfo() public view returns (... */\n    tag_35:\n      callvalue\n      dup1\n      iszero\n      tag_214\n      jumpi\n      0x00\n      dup1\n      revert\n    tag_214:\n      pop\n      tag_138\n      tag_216\n      jump\t// in\n        /* \"StakeFactory.sol\":14873:18076  function harwest(uint256[] memory _index) external whenNotPaused nonReentrant returns (... */\n    tag_36:\n      callvalue\n      dup1\n      iszero\n      tag_218\n      jumpi\n      0x00\n      dup1\n      revert\n    tag_218:\n      pop\n      tag_219\n      tag_220\n      calldatasize\n      0x04\n      tag_221\n      jump\t// in\n    tag_220:\n      tag_222\n      jump\t// in\n    tag_219:\n      0x40\n      dup1\n      mload\n        /* \"#utility.yul\":10925:10950   */\n      swap4\n      dup5\n      mstore\n        /* \"#utility.yul\":10981:10983   */\n      0x20\n        /* \"#utility.yul\":10966:10984   */\n      dup5\n      add\n        /* \"#utility.yul\":10959:10993   */\n      swap3\n      swap1\n      swap3\n      mstore\n        /* \"#utility.yul\":11009:11027   */\n      swap1\n      dup3\n      add\n        /* \"#utility.yul\":11002:11036   */\n      mstore\n        /* \"#utility.yul\":10913:10915   */\n      0x60\n        /* \"#utility.yul\":10898:10916   */\n      add\n        /* \"StakeFactory.sol\":14873:18076  function harwest(uint256[] memory _index) external whenNotPaused nonReentrant returns (... */\n      tag_59\n        /* \"#utility.yul\":10723:11042   */\n      jump\n        /* \"StakeFactory.sol\":9876:9914  mapping(address => bool) public isSpam */\n    tag_37:\n      callvalue\n      dup1\n      iszero\n      tag_225\n      jumpi\n      0x00\n      dup1\n      revert\n    tag_225:\n      pop\n      tag_133\n      tag_227\n      calldatasize\n      0x04\n      tag_57\n      jump\t// in\n    tag_227:\n      mstore(0x20, 0x10)\n      0x00\n      swap1\n      dup2\n      mstore\n      0x40\n      swap1\n      keccak256\n      sload\n      0xff\n      and\n      dup2\n      jump\n        /* \"StakeFactory.sol\":23878:23992  function setTaxReceiver(address _newTaxReceiver) public onlyOwner {... */\n    tag_38:\n      callvalue\n      dup1\n      iszero\n      tag_230\n      jumpi\n      0x00\n      dup1\n      revert\n    tag_230:\n      pop\n      tag_71\n      tag_232\n      calldatasize\n      0x04\n      tag_57\n      jump\t// in\n    tag_232:\n      tag_233\n      jump\t// in\n        /* \"StakeFactory.sol\":21059:21431  function getLockPeriodsInfo() external view returns (LockPeriodParams[] memory ret) {... */\n    tag_39:\n      callvalue\n      dup1\n      iszero\n      tag_234\n      jumpi\n      0x00\n      dup1\n      revert\n    tag_234:\n      pop\n      tag_235\n      tag_236\n      jump\t// in\n    tag_235:\n      mload(0x40)\n      tag_59\n      swap2\n      swap1\n      tag_238\n      jump\t// in\n        /* \"StakeFactory.sol\":11973:13090  function deposit(uint256 _amount, uint256 _lockDays) external whenNotPaused nonReentrant {... */\n    tag_40:\n      callvalue\n      dup1\n      iszero\n      tag_239\n      jumpi\n      0x00\n      dup1\n      revert\n    tag_239:\n      pop\n      tag_71\n      tag_241\n      calldatasize\n      0x04\n      tag_116\n      jump\t// in\n    tag_241:\n      tag_242\n      jump\t// in\n        /* \"StakeFactory.sol\":9365:9391  address public taxreceiver */\n    tag_41:\n      callvalue\n      dup1\n      iszero\n      tag_243\n      jumpi\n      0x00\n      dup1\n      revert\n    tag_243:\n      pop\n      sload(0x06)\n      tag_91\n      swap1\n      sub(shl(0xa0, 0x01), 0x01)\n      and\n      dup2\n      jump\n        /* \"StakeFactory.sol\":8154:8431  function transferOwnership(address newOwner) public onlyOwner {... */\n    tag_42:\n      callvalue\n      dup1\n      iszero\n      tag_247\n      jumpi\n      0x00\n      dup1\n      revert\n    tag_247:\n      pop\n      tag_71\n      tag_249\n      calldatasize\n      0x04\n      tag_57\n      jump\t// in\n    tag_249:\n      tag_250\n      jump\t// in\n        /* \"StakeFactory.sol\":8565:8609  bool public IS_ULTIMATE_STAKE_FACTORY = true */\n    tag_43:\n      callvalue\n      dup1\n      iszero\n      tag_251\n      jumpi\n      0x00\n      dup1\n      revert\n    tag_251:\n      pop\n      sload(0x03)\n      tag_133\n      swap1\n      shl(0xa0, 0x01)\n      swap1\n      div\n      0xff\n      and\n      dup2\n      jump\n        /* \"StakeFactory.sol\":8531:8556  IERC20 public rewardToken */\n    tag_44:\n      callvalue\n      dup1\n      iszero\n      tag_255\n      jumpi\n      0x00\n      dup1\n      revert\n    tag_255:\n      pop\n      sload(0x03)\n      tag_91\n      swap1\n      sub(shl(0xa0, 0x01), 0x01)\n      and\n      dup2\n      jump\n        /* \"StakeFactory.sol\":24229:24431  function emergencyWithdrawWei(uint256 _amount) public onlyOwner {... */\n    tag_74:\n        /* \"StakeFactory.sol\":7912:7918  _owner */\n      and(sub(shl(0xa0, 0x01), 0x01), sload(0x00))\n        /* \"StakeFactory.sol\":7922:7932  msg.sender */\n      caller\n        /* \"StakeFactory.sol\":7912:7932  _owner == msg.sender */\n      eq\n        /* \"StakeFactory.sol\":7904:7969  require(_owner == msg.sender, \"Ownable: caller is not the owner\") */\n      tag_260\n      jumpi\n      mload(0x40)\n      shl(0xe5, 0x461bcd)\n      dup2\n      mstore\n      0x04\n      add\n      tag_261\n      swap1\n      tag_262\n      jump\t// in\n    tag_261:\n      mload(0x40)\n      dup1\n      swap2\n      sub\n      swap1\n      revert\n    tag_260:\n        /* \"StakeFactory.sol\":24337:24344  _amount */\n      dup1\n        /* \"StakeFactory.sol\":24312:24333  address(this).balance */\n      selfbalance\n        /* \"StakeFactory.sol\":24312:24344  address(this).balance >= _amount */\n      lt\n      iszero\n        /* \"StakeFactory.sol\":24304:24375  require(address(this).balance >= _amount, \"Insufficient ether balance\") */\n      tag_264\n      jumpi\n      mload(0x40)\n      shl(0xe5, 0x461bcd)\n      dup2\n      mstore\n        /* \"#utility.yul\":12324:12326   */\n      0x20\n        /* \"StakeFactory.sol\":24304:24375  require(address(this).balance >= _amount, \"Insufficient ether balance\") */\n      0x04\n      dup3\n      add\n        /* \"#utility.yul\":12306:12327   */\n      mstore\n        /* \"#utility.yul\":12363:12365   */\n      0x1a\n        /* \"#utility.yul\":12343:12361   */\n      0x24\n      dup3\n      add\n        /* \"#utility.yul\":12336:12366   */\n      mstore\n        /* \"#utility.yul\":12402:12430   */\n      0x496e73756666696369656e742065746865722062616c616e6365000000000000\n        /* \"#utility.yul\":12382:12400   */\n      0x44\n      dup3\n      add\n        /* \"#utility.yul\":12375:12431   */\n      mstore\n        /* \"#utility.yul\":12448:12466   */\n      0x64\n      add\n        /* \"StakeFactory.sol\":24304:24375  require(address(this).balance >= _amount, \"Insufficient ether balance\") */\n      tag_261\n        /* \"#utility.yul\":12122:12472   */\n      jump\n        /* \"StakeFactory.sol\":24304:24375  require(address(this).balance >= _amount, \"Insufficient ether balance\") */\n    tag_264:\n        /* \"StakeFactory.sol\":24386:24423  payable(msg.sender).transfer(_amount) */\n      mload(0x40)\n        /* \"StakeFactory.sol\":24394:24404  msg.sender */\n      caller\n      swap1\n        /* \"StakeFactory.sol\":24386:24423  payable(msg.sender).transfer(_amount) */\n      dup3\n      iszero\n      0x08fc\n      mul\n      swap1\n        /* \"StakeFactory.sol\":24415:24422  _amount */\n      dup4\n      swap1\n        /* \"StakeFactory.sol\":24386:24423  payable(msg.sender).transfer(_amount) */\n      0x00\n      dup2\n      dup2\n      dup2\n        /* \"StakeFactory.sol\":24415:24422  _amount */\n      dup6\n        /* \"StakeFactory.sol\":24394:24404  msg.sender */\n      dup9\n        /* \"StakeFactory.sol\":24386:24423  payable(msg.sender).transfer(_amount) */\n      dup9\n      call\n      swap4\n      pop\n      pop\n      pop\n      pop\n      iszero\n      dup1\n      iszero\n      tag_268\n      jumpi\n      returndatasize\n      0x00\n      dup1\n      returndatacopy\n      revert(0x00, returndatasize)\n    tag_268:\n      pop\n        /* \"StakeFactory.sol\":24229:24431  function emergencyWithdrawWei(uint256 _amount) public onlyOwner {... */\n      pop\n      jump\t// out\n        /* \"StakeFactory.sol\":10062:10097  uint256[] public allowedLockPeriods */\n    tag_83:\n      0x13\n      dup2\n      dup2\n      sload\n      dup2\n      lt\n      tag_269\n      jumpi\n      0x00\n      dup1\n      revert\n    tag_269:\n      0x00\n      swap2\n      dup3\n      mstore\n      0x20\n      swap1\n      swap2\n      keccak256\n      add\n      sload\n      swap1\n      pop\n      dup2\n      jump\t// out\n        /* \"StakeFactory.sol\":13172:13849  function pendingRewards(address _address) public view returns (uint256 reward) {... */\n    tag_88:\n        /* \"StakeFactory.sol\":13235:13249  uint256 reward */\n      0x00\n      dup1\n        /* \"StakeFactory.sol\":13312:13327  block.timestamp */\n      timestamp\n        /* \"StakeFactory.sol\":13235:13249  uint256 reward */\n      dup2\n        /* \"StakeFactory.sol\":13338:13811  for (uint256 z = 0; z < depositeToken[_address].length; z++) {... */\n    tag_272:\n      sub(shl(0xa0, 0x01), 0x01)\n        /* \"StakeFactory.sol\":13362:13385  depositeToken[_address] */\n      dup6\n      and\n      0x00\n      swap1\n      dup2\n      mstore\n        /* \"StakeFactory.sol\":13362:13375  depositeToken */\n      0x07\n        /* \"StakeFactory.sol\":13362:13385  depositeToken[_address] */\n      0x20\n      mstore\n      0x40\n      swap1\n      keccak256\n        /* \"StakeFactory.sol\":13362:13392  depositeToken[_address].length */\n      sload\n        /* \"StakeFactory.sol\":13358:13392  z < depositeToken[_address].length */\n      dup2\n      lt\n        /* \"StakeFactory.sol\":13338:13811  for (uint256 z = 0; z < depositeToken[_address].length; z++) {... */\n      iszero\n      tag_273\n      jumpi\n        /* \"StakeFactory.sol\":13490:13494  time */\n      sload(0x12)\n      sub(shl(0xa0, 0x01), 0x01)\n        /* \"StakeFactory.sol\":13462:13484  lockableDays[_address] */\n      dup7\n      and\n        /* \"StakeFactory.sol\":13414:13430  uint256 lockTime */\n      0x00\n        /* \"StakeFactory.sol\":13462:13484  lockableDays[_address] */\n      swap1\n      dup2\n      mstore\n        /* \"StakeFactory.sol\":13462:13474  lockableDays */\n      0x09\n        /* \"StakeFactory.sol\":13462:13484  lockableDays[_address] */\n      0x20\n      mstore\n      0x40\n      dup2\n      keccak256\n        /* \"StakeFactory.sol\":13462:13487  lockableDays[_address][z] */\n      dup1\n      sload\n        /* \"StakeFactory.sol\":13414:13430  uint256 lockTime */\n      swap2\n      swap3\n        /* \"StakeFactory.sol\":13490:13494  time */\n      swap2\n        /* \"StakeFactory.sol\":13485:13486  z */\n      dup5\n      swap1\n        /* \"StakeFactory.sol\":13462:13487  lockableDays[_address][z] */\n      dup2\n      lt\n      tag_276\n      jumpi\n      tag_276\n      tag_277\n      jump\t// in\n    tag_276:\n      swap1\n      0x00\n      mstore\n      keccak256(0x00, 0x20)\n      add\n      sload\n        /* \"StakeFactory.sol\":13462:13494  lockableDays[_address][z] * time */\n      tag_279\n      swap2\n      swap1\n      tag_280\n      jump\t// in\n    tag_279:\n      sub(shl(0xa0, 0x01), 0x01)\n        /* \"StakeFactory.sol\":13433:13455  depositeTime[_address] */\n      dup8\n      and\n      0x00\n      swap1\n      dup2\n      mstore\n        /* \"StakeFactory.sol\":13433:13445  depositeTime */\n      0x0a\n        /* \"StakeFactory.sol\":13433:13455  depositeTime[_address] */\n      0x20\n      mstore\n      0x40\n      swap1\n      keccak256\n        /* \"StakeFactory.sol\":13433:13458  depositeTime[_address][z] */\n      dup1\n      sload\n        /* \"StakeFactory.sol\":13456:13457  z */\n      dup5\n      swap1\n        /* \"StakeFactory.sol\":13433:13458  depositeTime[_address][z] */\n      dup2\n      lt\n      tag_282\n      jumpi\n      tag_282\n      tag_277\n      jump\t// in\n    tag_282:\n      swap1\n      0x00\n      mstore\n      keccak256(0x00, 0x20)\n      add\n      sload\n        /* \"StakeFactory.sol\":13433:13495  depositeTime[_address][z] + (lockableDays[_address][z] * time) */\n      tag_284\n      swap2\n      swap1\n      tag_285\n      jump\t// in\n    tag_284:\n        /* \"StakeFactory.sol\":13414:13495  uint256 lockTime = depositeTime[_address][z] + (lockableDays[_address][z] * time) */\n      swap1\n      pop\n        /* \"StakeFactory.sol\":13528:13536  lockTime */\n      dup1\n        /* \"StakeFactory.sol\":13516:13525  blockTime */\n      dup4\n        /* \"StakeFactory.sol\":13516:13536  blockTime > lockTime */\n      gt\n        /* \"StakeFactory.sol\":13512:13800  if (blockTime > lockTime) {... */\n      iszero\n      tag_286\n      jumpi\n      sub(shl(0xa0, 0x01), 0x01)\n        /* \"StakeFactory.sol\":13625:13647  lockableDays[_address] */\n      dup7\n      and\n        /* \"StakeFactory.sol\":13557:13581  uint256 calculatedReward */\n      0x00\n        /* \"StakeFactory.sol\":13625:13647  lockableDays[_address] */\n      swap1\n      dup2\n      mstore\n        /* \"StakeFactory.sol\":13625:13637  lockableDays */\n      0x09\n        /* \"StakeFactory.sol\":13625:13647  lockableDays[_address] */\n      0x20\n      mstore\n      0x40\n      dup2\n      keccak256\n        /* \"StakeFactory.sol\":13625:13650  lockableDays[_address][z] */\n      dup1\n      sload\n        /* \"StakeFactory.sol\":13655:13660  10000 */\n      0x2710\n      swap2\n        /* \"StakeFactory.sol\":13614:13624  allocation */\n      0x04\n      swap2\n        /* \"StakeFactory.sol\":13557:13581  uint256 calculatedReward */\n      dup5\n      swap2\n        /* \"StakeFactory.sol\":13625:13647  lockableDays[_address] */\n      swap1\n        /* \"StakeFactory.sol\":13648:13649  z */\n      dup8\n      swap1\n        /* \"StakeFactory.sol\":13625:13650  lockableDays[_address][z] */\n      dup2\n      lt\n      tag_288\n      jumpi\n      tag_288\n      tag_277\n      jump\t// in\n    tag_288:\n      swap1\n      0x00\n      mstore\n      keccak256(0x00, 0x20)\n      add\n      sload\n        /* \"StakeFactory.sol\":13614:13651  allocation[lockableDays[_address][z]] */\n      dup2\n      mstore\n      0x20\n      add\n      swap1\n      dup2\n      mstore\n      0x20\n      add\n      0x00\n      keccak256\n      sload\n        /* \"StakeFactory.sol\":13585:13598  depositeToken */\n      0x07\n        /* \"StakeFactory.sol\":13585:13608  depositeToken[_address] */\n      0x00\n        /* \"StakeFactory.sol\":13599:13607  _address */\n      dup11\n      sub(shl(0xa0, 0x01), 0x01)\n        /* \"StakeFactory.sol\":13585:13608  depositeToken[_address] */\n      and\n      sub(shl(0xa0, 0x01), 0x01)\n      and\n      dup2\n      mstore\n      0x20\n      add\n      swap1\n      dup2\n      mstore\n      0x20\n      add\n      0x00\n      keccak256\n        /* \"StakeFactory.sol\":13609:13610  z */\n      dup6\n        /* \"StakeFactory.sol\":13585:13611  depositeToken[_address][z] */\n      dup2\n      sload\n      dup2\n      lt\n      tag_291\n      jumpi\n      tag_291\n      tag_277\n      jump\t// in\n    tag_291:\n      swap1\n      0x00\n      mstore\n      keccak256(0x00, 0x20)\n      add\n      sload\n        /* \"StakeFactory.sol\":13585:13651  depositeToken[_address][z] * allocation[lockableDays[_address][z]] */\n      tag_293\n      swap2\n      swap1\n      tag_280\n      jump\t// in\n    tag_293:\n        /* \"StakeFactory.sol\":13584:13660  (depositeToken[_address][z] * allocation[lockableDays[_address][z]]) / 10000 */\n      tag_294\n      swap2\n      swap1\n      tag_295\n      jump\t// in\n    tag_294:\n        /* \"StakeFactory.sol\":13711:13731  depositTokenDecimals */\n      sload(0x03)\n        /* \"StakeFactory.sol\":13557:13660  uint256 calculatedReward = (depositeToken[_address][z] * allocation[lockableDays[_address][z]]) / 10000 */\n      swap1\n      swap2\n      pop\n        /* \"StakeFactory.sol\":13699:13732  10**uint256(depositTokenDecimals) */\n      tag_296\n      swap1\n      shl(0xa8, 0x01)\n        /* \"StakeFactory.sol\":13711:13731  depositTokenDecimals */\n      swap1\n      div\n      0xff\n      and\n        /* \"StakeFactory.sol\":13699:13701  10 */\n      0x0a\n        /* \"StakeFactory.sol\":13699:13732  10**uint256(depositTokenDecimals) */\n      tag_297\n      jump\t// in\n    tag_296:\n        /* \"StakeFactory.sol\":13679:13732  calculatedReward /= 10**uint256(depositTokenDecimals) */\n      tag_298\n      swap1\n      dup3\n      tag_295\n      jump\t// in\n    tag_298:\n      swap1\n      pop\n        /* \"StakeFactory.sol\":13753:13784  totalReward += calculatedReward */\n      tag_299\n        /* \"StakeFactory.sol\":13679:13732  calculatedReward /= 10**uint256(depositTokenDecimals) */\n      dup2\n        /* \"StakeFactory.sol\":13753:13784  totalReward += calculatedReward */\n      dup7\n      tag_285\n      jump\t// in\n    tag_299:\n      swap5\n      pop\n        /* \"StakeFactory.sol\":13538:13800  {... */\n      pop\n        /* \"StakeFactory.sol\":13512:13800  if (blockTime > lockTime) {... */\n    tag_286:\n      pop\n        /* \"StakeFactory.sol\":13394:13397  z++ */\n      0x01\n      add\n        /* \"StakeFactory.sol\":13338:13811  for (uint256 z = 0; z < depositeToken[_address].length; z++) {... */\n      jump(tag_272)\n    tag_273:\n      pop\n        /* \"StakeFactory.sol\":13830:13841  totalReward */\n      swap1\n      swap4\n        /* \"StakeFactory.sol\":13172:13849  function pendingRewards(address _address) public view returns (uint256 reward) {... */\n      swap3\n      pop\n      pop\n      pop\n      jump\t// out\n        /* \"StakeFactory.sol\":23339:23551  function getLockPeriodParams(uint256 _days) external view returns (LockPeriodParams memory) {... */\n    tag_105:\n        /* \"StakeFactory.sol\":23406:23429  LockPeriodParams memory */\n      tag_300\n      tag_301\n      jump\t// in\n    tag_300:\n        /* \"StakeFactory.sol\":23450:23476  isLockPeriodAllowed(_days) */\n      tag_303\n        /* \"StakeFactory.sol\":23470:23475  _days */\n      dup3\n        /* \"StakeFactory.sol\":23450:23469  isLockPeriodAllowed */\n      tag_304\n        /* \"StakeFactory.sol\":23450:23476  isLockPeriodAllowed(_days) */\n      jump\t// in\n    tag_303:\n        /* \"StakeFactory.sol\":23442:23502  require(isLockPeriodAllowed(_days), \"Lock period not found\") */\n      tag_305\n      jumpi\n      mload(0x40)\n      shl(0xe5, 0x461bcd)\n      dup2\n      mstore\n      0x04\n      add\n      tag_261\n      swap1\n      tag_307\n      jump\t// in\n    tag_305:\n      pop\n        /* \"StakeFactory.sol\":23520:23543  lockPeriodParams[_days] */\n      0x00\n      swap1\n      dup2\n      mstore\n        /* \"StakeFactory.sol\":23520:23536  lockPeriodParams */\n      0x05\n        /* \"StakeFactory.sol\":23520:23543  lockPeriodParams[_days] */\n      0x20\n      dup2\n      dup2\n      mstore\n      0x40\n      swap3\n      dup4\n      swap1\n      keccak256\n        /* \"StakeFactory.sol\":23513:23543  return lockPeriodParams[_days] */\n      dup4\n      mload\n      0x0120\n      dup2\n      add\n      dup6\n      mstore\n      dup2\n      sload\n      dup2\n      mstore\n      0x01\n      dup3\n      add\n      sload\n      swap3\n      dup2\n      add\n      swap3\n      swap1\n      swap3\n      mstore\n      0x02\n      dup2\n      add\n      sload\n      swap4\n      dup3\n      add\n      swap4\n      swap1\n      swap4\n      mstore\n      0x03\n      dup4\n      add\n      sload\n      0x60\n      dup3\n      add\n      mstore\n      0x04\n      dup4\n      add\n      sload\n      0x80\n      dup3\n      add\n      mstore\n      swap1\n      dup3\n      add\n      sload\n      0xa0\n      dup3\n      add\n      mstore\n      0x06\n      dup3\n      add\n      sload\n      0xc0\n      dup3\n      add\n      mstore\n      0x07\n      dup3\n      add\n      sload\n      0xff\n      and\n      iszero\n      iszero\n      0xe0\n      dup3\n      add\n      mstore\n      0x08\n      swap1\n      swap2\n      add\n      sload\n      0x0100\n      dup3\n      add\n      mstore\n      swap1\n        /* \"StakeFactory.sol\":23339:23551  function getLockPeriodParams(uint256 _days) external view returns (LockPeriodParams memory) {... */\n      jump\t// out\n        /* \"StakeFactory.sol\":20942:21053  function getLockPeriods() external view returns (uint256[] memory) {... */\n    tag_110:\n        /* \"StakeFactory.sol\":20991:21007  uint256[] memory */\n      0x60\n        /* \"StakeFactory.sol\":21027:21045  allowedLockPeriods */\n      0x13\n        /* \"StakeFactory.sol\":21020:21045  return allowedLockPeriods */\n      dup1\n      sload\n      dup1\n      0x20\n      mul\n      0x20\n      add\n      mload(0x40)\n      swap1\n      dup2\n      add\n      0x40\n      mstore\n      dup1\n      swap3\n      swap2\n      swap1\n      dup2\n      dup2\n      mstore\n      0x20\n      add\n      dup3\n      dup1\n      sload\n      dup1\n      iszero\n      tag_309\n      jumpi\n      0x20\n      mul\n      dup3\n      add\n      swap2\n      swap1\n      0x00\n      mstore\n      keccak256(0x00, 0x20)\n      swap1\n    tag_310:\n      dup2\n      sload\n      dup2\n      mstore\n      0x20\n      add\n      swap1\n      0x01\n      add\n      swap1\n      dup1\n      dup4\n      gt\n      tag_310\n      jumpi\n    tag_309:\n      pop\n      pop\n      pop\n      pop\n      pop\n      swap1\n      pop\n        /* \"StakeFactory.sol\":20942:21053  function getLockPeriods() external view returns (uint256[] memory) {... */\n      swap1\n      jump\t// out\n        /* \"StakeFactory.sol\":14321:14809  function getUsers(uint256 _offset, uint256 _limit) public view returns(UserInfo[] memory ret) {... */\n    tag_117:\n        /* \"StakeFactory.sol\":14392:14413  UserInfo[] memory ret */\n      0x60\n        /* \"StakeFactory.sol\":14430:14436  _limit */\n      dup2\n        /* \"StakeFactory.sol\":14440:14441  0 */\n      0x00\n        /* \"StakeFactory.sol\":14430:14441  _limit == 0 */\n      sub\n        /* \"StakeFactory.sol\":14426:14462  if (_limit == 0) _limit = usersCount */\n      tag_312\n      jumpi\n        /* \"StakeFactory.sol\":14452:14462  usersCount */\n      sload(0x0f)\n        /* \"StakeFactory.sol\":14443:14462  _limit = usersCount */\n      swap2\n      pop\n        /* \"StakeFactory.sol\":14426:14462  if (_limit == 0) _limit = usersCount */\n    tag_312:\n        /* \"StakeFactory.sol\":14473:14485  uint256 iEnd */\n      0x00\n        /* \"StakeFactory.sol\":14488:14504  _offset + _limit */\n      tag_313\n        /* \"StakeFactory.sol\":14498:14504  _limit */\n      dup4\n        /* \"StakeFactory.sol\":14488:14495  _offset */\n      dup6\n        /* \"StakeFactory.sol\":14488:14504  _offset + _limit */\n      tag_285\n      jump\t// in\n    tag_313:\n        /* \"StakeFactory.sol\":14473:14504  uint256 iEnd = _offset + _limit */\n      swap1\n      pop\n        /* \"StakeFactory.sol\":14582:14596  iEnd - _offset */\n      tag_315\n        /* \"StakeFactory.sol\":14589:14596  _offset */\n      dup5\n        /* \"StakeFactory.sol\":14582:14586  iEnd */\n      dup3\n        /* \"StakeFactory.sol\":14582:14596  iEnd - _offset */\n      tag_316\n      jump\t// in\n    tag_315:\n        /* \"StakeFactory.sol\":14567:14597  new UserInfo[](iEnd - _offset) */\n      0xffffffffffffffff\n      dup2\n      gt\n      iszero\n      tag_318\n      jumpi\n      tag_318\n      tag_319\n      jump\t// in\n    tag_318:\n      mload(0x40)\n      swap1\n      dup1\n      dup3\n      mstore\n      dup1\n      0x20\n      mul\n      0x20\n      add\n      dup3\n      add\n      0x40\n      mstore\n      dup1\n      iszero\n      tag_320\n      jumpi\n      dup2\n      0x20\n      add\n    tag_321:\n      tag_322\n      tag_323\n      jump\t// in\n    tag_322:\n      dup2\n      mstore\n      0x20\n      add\n      swap1\n      0x01\n      swap1\n      sub\n      swap1\n      dup2\n      tag_321\n      jumpi\n      swap1\n      pop\n    tag_320:\n      pop\n        /* \"StakeFactory.sol\":14561:14597  ret = new UserInfo[](iEnd - _offset) */\n      swap2\n      pop\n        /* \"StakeFactory.sol\":14613:14622  uint256 i */\n      0x00\n        /* \"StakeFactory.sol\":14608:14802  for (uint256 i = 0; i < iEnd - _offset ; i++) {... */\n    tag_324:\n        /* \"StakeFactory.sol\":14632:14646  iEnd - _offset */\n      tag_327\n        /* \"StakeFactory.sol\":14639:14646  _offset */\n      dup6\n        /* \"StakeFactory.sol\":14632:14636  iEnd */\n      dup4\n        /* \"StakeFactory.sol\":14632:14646  iEnd - _offset */\n      tag_316\n      jump\t// in\n    tag_327:\n        /* \"StakeFactory.sol\":14628:14629  i */\n      dup2\n        /* \"StakeFactory.sol\":14628:14646  i < iEnd - _offset */\n      lt\n        /* \"StakeFactory.sol\":14608:14802  for (uint256 i = 0; i < iEnd - _offset ; i++) {... */\n      iszero\n      tag_325\n      jumpi\n        /* \"StakeFactory.sol\":14678:14790  getUser(... */\n      tag_328\n        /* \"StakeFactory.sol\":14704:14709  users */\n      0x0e\n        /* \"StakeFactory.sol\":14704:14775  users[... */\n      0x00\n        /* \"StakeFactory.sol\":14749:14756  _offset */\n      dup8\n        /* \"StakeFactory.sol\":14745:14746  i */\n      dup5\n        /* \"StakeFactory.sol\":14732:14742  usersCount */\n      sload(0x0f)\n        /* \"StakeFactory.sol\":14732:14746  usersCount - i */\n      tag_329\n      swap2\n      swap1\n      tag_316\n      jump\t// in\n    tag_329:\n        /* \"StakeFactory.sol\":14732:14756  usersCount - i - _offset */\n      tag_330\n      swap2\n      swap1\n      tag_316\n      jump\t// in\n    tag_330:\n        /* \"StakeFactory.sol\":14704:14775  users[... */\n      dup2\n      mstore\n      0x20\n      dup2\n      add\n      swap2\n      swap1\n      swap2\n      mstore\n      0x40\n      add\n      0x00\n      keccak256\n      sload\n      sub(shl(0xa0, 0x01), 0x01)\n      and\n        /* \"StakeFactory.sol\":14678:14685  getUser */\n      tag_157\n        /* \"StakeFactory.sol\":14678:14790  getUser(... */\n      jump\t// in\n    tag_328:\n        /* \"StakeFactory.sol\":14669:14672  ret */\n      dup4\n        /* \"StakeFactory.sol\":14673:14674  i */\n      dup3\n        /* \"StakeFactory.sol\":14669:14675  ret[i] */\n      dup2\n      mload\n      dup2\n      lt\n      tag_332\n      jumpi\n      tag_332\n      tag_277\n      jump\t// in\n    tag_332:\n      0x20\n      swap1\n      dup2\n      mul\n      swap2\n      swap1\n      swap2\n      add\n      add\n        /* \"StakeFactory.sol\":14669:14790  ret[i] = getUser(... */\n      mstore\n        /* \"StakeFactory.sol\":14649:14652  i++ */\n      0x01\n      add\n        /* \"StakeFactory.sol\":14608:14802  for (uint256 i = 0; i < iEnd - _offset ; i++) {... */\n      jump(tag_324)\n    tag_325:\n      pop\n        /* \"StakeFactory.sol\":14415:14809  {... */\n      pop\n        /* \"StakeFactory.sol\":14321:14809  function getUsers(uint256 _offset, uint256 _limit) public view returns(UserInfo[] memory ret) {... */\n      swap3\n      swap2\n      pop\n      pop\n      jump\t// out\n        /* \"StakeFactory.sol\":20088:20813  function removeLockPeriod(uint256 _days) external onlyOwner {... */\n    tag_123:\n        /* \"StakeFactory.sol\":7912:7918  _owner */\n      and(sub(shl(0xa0, 0x01), 0x01), sload(0x00))\n        /* \"StakeFactory.sol\":7922:7932  msg.sender */\n      caller\n        /* \"StakeFactory.sol\":7912:7932  _owner == msg.sender */\n      eq\n        /* \"StakeFactory.sol\":7904:7969  require(_owner == msg.sender, \"Ownable: caller is not the owner\") */\n      tag_334\n      jumpi\n      mload(0x40)\n      shl(0xe5, 0x461bcd)\n      dup2\n      mstore\n      0x04\n      add\n      tag_261\n      swap1\n      tag_262\n      jump\t// in\n    tag_334:\n        /* \"StakeFactory.sol\":20167:20193  isLockPeriodAllowed(_days) */\n      tag_337\n        /* \"StakeFactory.sol\":20187:20192  _days */\n      dup2\n        /* \"StakeFactory.sol\":20167:20186  isLockPeriodAllowed */\n      tag_304\n        /* \"StakeFactory.sol\":20167:20193  isLockPeriodAllowed(_days) */\n      jump\t// in\n    tag_337:\n        /* \"StakeFactory.sol\":20159:20219  require(isLockPeriodAllowed(_days), \"Lock period not found\") */\n      tag_338\n      jumpi\n      mload(0x40)\n      shl(0xe5, 0x461bcd)\n      dup2\n      mstore\n      0x04\n      add\n      tag_261\n      swap1\n      tag_307\n      jump\t// in\n    tag_338:\n        /* \"StakeFactory.sol\":20232:20253  uint256 indexToRemove */\n      0x00\n      dup1\n      dup1\n        /* \"StakeFactory.sol\":20295:20520  for (uint256 i = 0; i < allowedLockPeriods.length; i++) {... */\n    tag_340:\n        /* \"StakeFactory.sol\":20319:20337  allowedLockPeriods */\n      0x13\n        /* \"StakeFactory.sol\":20319:20344  allowedLockPeriods.length */\n      sload\n        /* \"StakeFactory.sol\":20315:20344  i < allowedLockPeriods.length */\n      dup2\n      lt\n        /* \"StakeFactory.sol\":20295:20520  for (uint256 i = 0; i < allowedLockPeriods.length; i++) {... */\n      iszero\n      tag_341\n      jumpi\n        /* \"StakeFactory.sol\":20395:20400  _days */\n      dup4\n        /* \"StakeFactory.sol\":20370:20388  allowedLockPeriods */\n      0x13\n        /* \"StakeFactory.sol\":20389:20390  i */\n      dup3\n        /* \"StakeFactory.sol\":20370:20391  allowedLockPeriods[i] */\n      dup2\n      sload\n      dup2\n      lt\n      tag_344\n      jumpi\n      tag_344\n      tag_277\n      jump\t// in\n    tag_344:\n      swap1\n      0x00\n      mstore\n      keccak256(0x00, 0x20)\n      add\n      sload\n        /* \"StakeFactory.sol\":20370:20400  allowedLockPeriods[i] == _days */\n      sub\n        /* \"StakeFactory.sol\":20366:20509  if (allowedLockPeriods[i] == _days) {... */\n      tag_346\n      jumpi\n        /* \"StakeFactory.sol\":20437:20438  i */\n      dup1\n        /* \"StakeFactory.sol\":20421:20438  indexToRemove = i */\n      swap3\n      pop\n        /* \"StakeFactory.sol\":20465:20469  true */\n      0x01\n        /* \"StakeFactory.sol\":20457:20469  found = true */\n      swap2\n      pop\n        /* \"StakeFactory.sol\":20488:20493  break */\n      jump(tag_341)\n        /* \"StakeFactory.sol\":20366:20509  if (allowedLockPeriods[i] == _days) {... */\n    tag_346:\n        /* \"StakeFactory.sol\":20346:20349  i++ */\n      0x01\n      add\n        /* \"StakeFactory.sol\":20295:20520  for (uint256 i = 0; i < allowedLockPeriods.length; i++) {... */\n      jump(tag_340)\n    tag_341:\n      pop\n        /* \"StakeFactory.sol\":20540:20545  found */\n      dup1\n        /* \"StakeFactory.sol\":20532:20571  require(found, \"Lock period not found\") */\n      tag_347\n      jumpi\n      mload(0x40)\n      shl(0xe5, 0x461bcd)\n      dup2\n      mstore\n      0x04\n      add\n      tag_261\n      swap1\n      tag_307\n      jump\t// in\n    tag_347:\n        /* \"StakeFactory.sol\":20589:20612  lockPeriodParams[_days] */\n      0x00\n      dup4\n      dup2\n      mstore\n        /* \"StakeFactory.sol\":20589:20605  lockPeriodParams */\n      0x05\n        /* \"StakeFactory.sol\":20589:20612  lockPeriodParams[_days] */\n      0x20\n      dup2\n      swap1\n      mstore\n      0x40\n      dup3\n      keccak256\n        /* \"StakeFactory.sol\":20582:20612  delete lockPeriodParams[_days] */\n      dup3\n      dup2\n      sstore\n      0x01\n      dup2\n      add\n      dup4\n      swap1\n      sstore\n      0x02\n      dup2\n      add\n      dup4\n      swap1\n      sstore\n      0x03\n      dup2\n      add\n      dup4\n      swap1\n      sstore\n      0x04\n      dup2\n      add\n      dup4\n      swap1\n      sstore\n      swap1\n      dup2\n      add\n      dup3\n      swap1\n      sstore\n      0x06\n      dup2\n      add\n      dup3\n      swap1\n      sstore\n      0x07\n      dup2\n      add\n      dup1\n      sload\n      not(0xff)\n      and\n      swap1\n      sstore\n      0x08\n      add\n      sstore\n        /* \"StakeFactory.sol\":20640:20653  indexToRemove */\n      dup2\n        /* \"StakeFactory.sol\":20623:20771  for (uint256 i = indexToRemove; i < allowedLockPeriods.length - 1; i++) {... */\n    tag_349:\n        /* \"StakeFactory.sol\":20659:20677  allowedLockPeriods */\n      0x13\n        /* \"StakeFactory.sol\":20659:20684  allowedLockPeriods.length */\n      sload\n        /* \"StakeFactory.sol\":20659:20688  allowedLockPeriods.length - 1 */\n      tag_352\n      swap1\n        /* \"StakeFactory.sol\":20687:20688  1 */\n      0x01\n      swap1\n        /* \"StakeFactory.sol\":20659:20688  allowedLockPeriods.length - 1 */\n      tag_316\n      jump\t// in\n    tag_352:\n        /* \"StakeFactory.sol\":20655:20656  i */\n      dup2\n        /* \"StakeFactory.sol\":20655:20688  i < allowedLockPeriods.length - 1 */\n      lt\n        /* \"StakeFactory.sol\":20623:20771  for (uint256 i = indexToRemove; i < allowedLockPeriods.length - 1; i++) {... */\n      iszero\n      tag_350\n      jumpi\n        /* \"StakeFactory.sol\":20734:20752  allowedLockPeriods */\n      0x13\n        /* \"StakeFactory.sol\":20753:20758  i + 1 */\n      tag_353\n        /* \"StakeFactory.sol\":20753:20754  i */\n      dup3\n        /* \"StakeFactory.sol\":20757:20758  1 */\n      0x01\n        /* \"StakeFactory.sol\":20753:20758  i + 1 */\n      tag_285\n      jump\t// in\n    tag_353:\n        /* \"StakeFactory.sol\":20734:20759  allowedLockPeriods[i + 1] */\n      dup2\n      sload\n      dup2\n      lt\n      tag_355\n      jumpi\n      tag_355\n      tag_277\n      jump\t// in\n    tag_355:\n      swap1\n      0x00\n      mstore\n      keccak256(0x00, 0x20)\n      add\n      sload\n        /* \"StakeFactory.sol\":20710:20728  allowedLockPeriods */\n      0x13\n        /* \"StakeFactory.sol\":20729:20730  i */\n      dup3\n        /* \"StakeFactory.sol\":20710:20731  allowedLockPeriods[i] */\n      dup2\n      sload\n      dup2\n      lt\n      tag_358\n      jumpi\n      tag_358\n      tag_277\n      jump\t// in\n    tag_358:\n      0x00\n      swap2\n      dup3\n      mstore\n      0x20\n      swap1\n      swap2\n      keccak256\n      add\n        /* \"StakeFactory.sol\":20710:20759  allowedLockPeriods[i] = allowedLockPeriods[i + 1] */\n      sstore\n        /* \"StakeFactory.sol\":20690:20693  i++ */\n      0x01\n      add\n        /* \"StakeFactory.sol\":20623:20771  for (uint256 i = indexToRemove; i < allowedLockPeriods.length - 1; i++) {... */\n      jump(tag_349)\n    tag_350:\n      pop\n        /* \"StakeFactory.sol\":20781:20799  allowedLockPeriods */\n      0x13\n        /* \"StakeFactory.sol\":20781:20805  allowedLockPeriods.pop() */\n      dup1\n      sload\n      dup1\n      tag_361\n      jumpi\n      tag_361\n      tag_362\n      jump\t// in\n    tag_361:\n      0x01\n      swap1\n      sub\n      dup2\n      dup2\n      swap1\n      0x00\n      mstore\n      keccak256(0x00, 0x20)\n      add\n      0x00\n      swap1\n      sstore\n      swap1\n      sstore\n        /* \"StakeFactory.sol\":20148:20813  {... */\n      pop\n      pop\n        /* \"StakeFactory.sol\":20088:20813  function removeLockPeriod(uint256 _days) external onlyOwner {... */\n      pop\n      jump\t// out\n        /* \"StakeFactory.sol\":24439:24683  function addSpam(address _addr) public onlyOwner {... */\n    tag_127:\n        /* \"StakeFactory.sol\":7912:7918  _owner */\n      and(sub(shl(0xa0, 0x01), 0x01), sload(0x00))\n        /* \"StakeFactory.sol\":7922:7932  msg.sender */\n      caller\n        /* \"StakeFactory.sol\":7912:7932  _owner == msg.sender */\n      eq\n        /* \"StakeFactory.sol\":7904:7969  require(_owner == msg.sender, \"Ownable: caller is not the owner\") */\n      tag_365\n      jumpi\n      mload(0x40)\n      shl(0xe5, 0x461bcd)\n      dup2\n      mstore\n      0x04\n      add\n      tag_261\n      swap1\n      tag_262\n      jump\t// in\n    tag_365:\n      sub(shl(0xa0, 0x01), 0x01)\n        /* \"StakeFactory.sol\":24507:24526  _addr != address(0) */\n      dup2\n      and\n        /* \"StakeFactory.sol\":24499:24546  require(_addr != address(0), \"Invalid address\") */\n      tag_368\n      jumpi\n      mload(0x40)\n      shl(0xe5, 0x461bcd)\n      dup2\n      mstore\n        /* \"#utility.yul\":15506:15508   */\n      0x20\n        /* \"StakeFactory.sol\":24499:24546  require(_addr != address(0), \"Invalid address\") */\n      0x04\n      dup3\n      add\n        /* \"#utility.yul\":15488:15509   */\n      mstore\n        /* \"#utility.yul\":15545:15547   */\n      0x0f\n        /* \"#utility.yul\":15525:15543   */\n      0x24\n      dup3\n      add\n        /* \"#utility.yul\":15518:15548   */\n      mstore\n      shl(0x88, 0x496e76616c69642061646472657373)\n        /* \"#utility.yul\":15564:15582   */\n      0x44\n      dup3\n      add\n        /* \"#utility.yul\":15557:15602   */\n      mstore\n        /* \"#utility.yul\":15619:15637   */\n      0x64\n      add\n        /* \"StakeFactory.sol\":24499:24546  require(_addr != address(0), \"Invalid address\") */\n      tag_261\n        /* \"#utility.yul\":15304:15643   */\n      jump\n        /* \"StakeFactory.sol\":24499:24546  require(_addr != address(0), \"Invalid address\") */\n    tag_368:\n      sub(shl(0xa0, 0x01), 0x01)\n        /* \"StakeFactory.sol\":24608:24621  isSpam[_addr] */\n      and\n      0x00\n      swap1\n      dup2\n      mstore\n        /* \"StakeFactory.sol\":24608:24614  isSpam */\n      0x10\n        /* \"StakeFactory.sol\":24608:24621  isSpam[_addr] */\n      0x20\n      mstore\n      0x40\n      swap1\n      keccak256\n        /* \"StakeFactory.sol\":24608:24628  isSpam[_addr] = true */\n      dup1\n      sload\n      not(0xff)\n      and\n        /* \"StakeFactory.sol\":24624:24628  true */\n      0x01\n        /* \"StakeFactory.sol\":24608:24628  isSpam[_addr] = true */\n      or\n      swap1\n      sstore\n        /* \"StakeFactory.sol\":24439:24683  function addSpam(address _addr) public onlyOwner {... */\n      jump\t// out\n        /* \"StakeFactory.sol\":24691:24936  function removeSpam(address _addr) public onlyOwner {... */\n    tag_131:\n        /* \"StakeFactory.sol\":7912:7918  _owner */\n      and(sub(shl(0xa0, 0x01), 0x01), sload(0x00))\n        /* \"StakeFactory.sol\":7922:7932  msg.sender */\n      caller\n        /* \"StakeFactory.sol\":7912:7932  _owner == msg.sender */\n      eq\n        /* \"StakeFactory.sol\":7904:7969  require(_owner == msg.sender, \"Ownable: caller is not the owner\") */\n      tag_372\n      jumpi\n      mload(0x40)\n      shl(0xe5, 0x461bcd)\n      dup2\n      mstore\n      0x04\n      add\n      tag_261\n      swap1\n      tag_262\n      jump\t// in\n    tag_372:\n      sub(shl(0xa0, 0x01), 0x01)\n        /* \"StakeFactory.sol\":24762:24781  _addr != address(0) */\n      dup2\n      and\n        /* \"StakeFactory.sol\":24754:24801  require(_addr != address(0), \"Invalid address\") */\n      tag_375\n      jumpi\n      mload(0x40)\n      shl(0xe5, 0x461bcd)\n      dup2\n      mstore\n        /* \"#utility.yul\":15506:15508   */\n      0x20\n        /* \"StakeFactory.sol\":24754:24801  require(_addr != address(0), \"Invalid address\") */\n      0x04\n      dup3\n      add\n        /* \"#utility.yul\":15488:15509   */\n      mstore\n        /* \"#utility.yul\":15545:15547   */\n      0x0f\n        /* \"#utility.yul\":15525:15543   */\n      0x24\n      dup3\n      add\n        /* \"#utility.yul\":15518:15548   */\n      mstore\n      shl(0x88, 0x496e76616c69642061646472657373)\n        /* \"#utility.yul\":15564:15582   */\n      0x44\n      dup3\n      add\n        /* \"#utility.yul\":15557:15602   */\n      mstore\n        /* \"#utility.yul\":15619:15637   */\n      0x64\n      add\n        /* \"StakeFactory.sol\":24754:24801  require(_addr != address(0), \"Invalid address\") */\n      tag_261\n        /* \"#utility.yul\":15304:15643   */\n      jump\n        /* \"StakeFactory.sol\":24754:24801  require(_addr != address(0), \"Invalid address\") */\n    tag_375:\n      sub(shl(0xa0, 0x01), 0x01)\n        /* \"StakeFactory.sol\":24863:24876  isSpam[_addr] */\n      and\n        /* \"StakeFactory.sol\":24879:24884  false */\n      0x00\n        /* \"StakeFactory.sol\":24863:24876  isSpam[_addr] */\n      swap1\n      dup2\n      mstore\n        /* \"StakeFactory.sol\":24863:24869  isSpam */\n      0x10\n        /* \"StakeFactory.sol\":24863:24876  isSpam[_addr] */\n      0x20\n      mstore\n      0x40\n      swap1\n      keccak256\n        /* \"StakeFactory.sol\":24863:24884  isSpam[_addr] = false */\n      dup1\n      sload\n      not(0xff)\n      and\n      swap1\n      sstore\n        /* \"StakeFactory.sol\":24691:24936  function removeSpam(address _addr) public onlyOwner {... */\n      jump\t// out\n        /* \"StakeFactory.sol\":21827:22242  function getRewardTokenInfo() public view returns (... */\n    tag_139:\n        /* \"StakeFactory.sol\":22045:22056  rewardToken */\n      sload(0x03)\n        /* \"StakeFactory.sol\":22075:22093  rewardToken.name() */\n      0x40\n      dup1\n      mload\n      shl(0xe0, 0x06fdde03)\n      dup2\n      mstore\n      swap1\n      mload\n      sub(shl(0xa0, 0x01), 0x01)\n        /* \"StakeFactory.sol\":22045:22056  rewardToken */\n      swap1\n      swap3\n      and\n      swap2\n        /* \"StakeFactory.sol\":21911:21929  string memory name */\n      0x60\n      swap2\n      dup3\n      swap2\n        /* \"StakeFactory.sol\":21888:21900  address addr */\n      0x00\n      swap2\n      dup3\n      swap2\n        /* \"StakeFactory.sol\":22045:22056  rewardToken */\n      dup7\n      swap2\n        /* \"StakeFactory.sol\":22075:22091  rewardToken.name */\n      0x06fdde03\n      swap2\n        /* \"StakeFactory.sol\":22075:22093  rewardToken.name() */\n      0x04\n      dup1\n      dup4\n      add\n      swap3\n        /* \"StakeFactory.sol\":21888:21900  address addr */\n      dup7\n      swap3\n        /* \"StakeFactory.sol\":22075:22093  rewardToken.name() */\n      swap2\n      swap1\n      dup3\n      swap1\n      sub\n      add\n      dup2\n        /* \"StakeFactory.sol\":22045:22056  rewardToken */\n      dup7\n        /* \"StakeFactory.sol\":22075:22093  rewardToken.name() */\n      gas\n      staticcall\n      iszero\n      dup1\n      iszero\n      tag_380\n      jumpi\n      returndatasize\n      0x00\n      dup1\n      returndatacopy\n      revert(0x00, returndatasize)\n    tag_380:\n      pop\n      pop\n      pop\n      pop\n      mload(0x40)\n      returndatasize\n      0x00\n      dup3\n      returndatacopy\n      0x1f\n      returndatasize\n      swap1\n      dup2\n      add\n      not(0x1f)\n      and\n      dup3\n      add\n      0x40\n      mstore\n      tag_381\n      swap2\n      swap1\n      dup2\n      add\n      swap1\n      tag_382\n      jump\t// in\n    tag_381:\n        /* \"StakeFactory.sol\":22068:22093  name = rewardToken.name() */\n      swap4\n      pop\n        /* \"StakeFactory.sol\":22113:22124  rewardToken */\n      0x03\n      0x00\n      swap1\n      sload\n      swap1\n      0x0100\n      exp\n      swap1\n      div\n      sub(shl(0xa0, 0x01), 0x01)\n      and\n      sub(shl(0xa0, 0x01), 0x01)\n        /* \"StakeFactory.sol\":22113:22131  rewardToken.symbol */\n      and\n      0x95d89b41\n        /* \"StakeFactory.sol\":22113:22133  rewardToken.symbol() */\n      mload(0x40)\n      dup2\n      0xffffffff\n      and\n      0xe0\n      shl\n      dup2\n      mstore\n      0x04\n      add\n      0x00\n      mload(0x40)\n      dup1\n      dup4\n      sub\n      dup2\n      dup7\n      gas\n      staticcall\n      iszero\n      dup1\n      iszero\n      tag_384\n      jumpi\n      returndatasize\n      0x00\n      dup1\n      returndatacopy\n      revert(0x00, returndatasize)\n    tag_384:\n      pop\n      pop\n      pop\n      pop\n      mload(0x40)\n      returndatasize\n      0x00\n      dup3\n      returndatacopy\n      0x1f\n      returndatasize\n      swap1\n      dup2\n      add\n      not(0x1f)\n      and\n      dup3\n      add\n      0x40\n      mstore\n      tag_385\n      swap2\n      swap1\n      dup2\n      add\n      swap1\n      tag_382\n      jump\t// in\n    tag_385:\n        /* \"StakeFactory.sol\":22104:22133  symbol = rewardToken.symbol() */\n      swap3\n      pop\n        /* \"StakeFactory.sol\":22155:22166  rewardToken */\n      0x03\n      0x00\n      swap1\n      sload\n      swap1\n      0x0100\n      exp\n      swap1\n      div\n      sub(shl(0xa0, 0x01), 0x01)\n      and\n      sub(shl(0xa0, 0x01), 0x01)\n        /* \"StakeFactory.sol\":22155:22175  rewardToken.decimals */\n      and\n      0x313ce567\n        /* \"StakeFactory.sol\":22155:22177  rewardToken.decimals() */\n      mload(0x40)\n      dup2\n      0xffffffff\n      and\n      0xe0\n      shl\n      dup2\n      mstore\n      0x04\n      add\n      0x20\n      mload(0x40)\n      dup1\n      dup4\n      sub\n      dup2\n      dup7\n      gas\n      staticcall\n      iszero\n      dup1\n      iszero\n      tag_387\n      jumpi\n      returndatasize\n      0x00\n      dup1\n      returndatacopy\n      revert(0x00, returndatasize)\n    tag_387:\n      pop\n      pop\n      pop\n      pop\n      mload(0x40)\n      returndatasize\n      not(0x1f)\n      0x1f\n      dup3\n      add\n      and\n      dup3\n      add\n      dup1\n      0x40\n      mstore\n      pop\n      dup2\n      add\n      swap1\n      tag_388\n      swap2\n      swap1\n      tag_389\n      jump\t// in\n    tag_388:\n        /* \"StakeFactory.sol\":22198:22209  rewardToken */\n      sload(0x03)\n        /* \"StakeFactory.sol\":22198:22234  rewardToken.balanceOf(address(this)) */\n      mload(0x40)\n      shl(0xe0, 0x70a08231)\n      dup2\n      mstore\n        /* \"StakeFactory.sol\":22228:22232  this */\n      address\n        /* \"StakeFactory.sol\":22198:22234  rewardToken.balanceOf(address(this)) */\n      0x04\n      dup3\n      add\n        /* \"#utility.yul\":961:1012   */\n      mstore\n        /* \"StakeFactory.sol\":22144:22177  decimals = rewardToken.decimals() */\n      swap2\n      swap4\n      pop\n      sub(shl(0xa0, 0x01), 0x01)\n        /* \"StakeFactory.sol\":22198:22209  rewardToken */\n      and\n      swap1\n        /* \"StakeFactory.sol\":22198:22219  rewardToken.balanceOf */\n      0x70a08231\n      swap1\n        /* \"#utility.yul\":934:952   */\n      0x24\n      add\n        /* \"StakeFactory.sol\":22198:22234  rewardToken.balanceOf(address(this)) */\n    tag_390:\n      0x20\n      mload(0x40)\n      dup1\n      dup4\n      sub\n      dup2\n      dup7\n      gas\n      staticcall\n      iszero\n      dup1\n      iszero\n      tag_392\n      jumpi\n      returndatasize\n      0x00\n      dup1\n      returndatacopy\n      revert(0x00, returndatasize)\n    tag_392:\n      pop\n      pop\n      pop\n      pop\n      mload(0x40)\n      returndatasize\n      not(0x1f)\n      0x1f\n      dup3\n      add\n      and\n      dup3\n      add\n      dup1\n      0x40\n      mstore\n      pop\n      dup2\n      add\n      swap1\n      tag_393\n      swap2\n      swap1\n      tag_394\n      jump\t// in\n    tag_393:\n        /* \"StakeFactory.sol\":22188:22234  balance = rewardToken.balanceOf(address(this)) */\n      swap1\n      pop\n        /* \"StakeFactory.sol\":21827:22242  function getRewardTokenInfo() public view returns (... */\n      swap1\n      swap2\n      swap3\n      swap4\n      swap5\n      jump\t// out\n        /* \"StakeFactory.sol\":23658:23872  function setDeductionPercentage(uint256 percentageBasisPoints) public onlyOwner {... */\n    tag_145:\n        /* \"StakeFactory.sol\":7912:7918  _owner */\n      and(sub(shl(0xa0, 0x01), 0x01), sload(0x00))\n        /* \"StakeFactory.sol\":7922:7932  msg.sender */\n      caller\n        /* \"StakeFactory.sol\":7912:7932  _owner == msg.sender */\n      eq\n        /* \"StakeFactory.sol\":7904:7969  require(_owner == msg.sender, \"Ownable: caller is not the owner\") */\n      tag_396\n      jumpi\n      mload(0x40)\n      shl(0xe5, 0x461bcd)\n      dup2\n      mstore\n      0x04\n      add\n      tag_261\n      swap1\n      tag_262\n      jump\t// in\n    tag_396:\n        /* \"StakeFactory.sol\":23782:23787  10000 */\n      0x2710\n        /* \"StakeFactory.sol\":23757:23778  percentageBasisPoints */\n      dup2\n        /* \"StakeFactory.sol\":23757:23787  percentageBasisPoints <= 10000 */\n      gt\n      iszero\n        /* \"StakeFactory.sol\":23749:23810  require(percentageBasisPoints <= 10000, \"Invalid percentage\") */\n      tag_399\n      jumpi\n      mload(0x40)\n      shl(0xe5, 0x461bcd)\n      dup2\n      mstore\n        /* \"#utility.yul\":17078:17080   */\n      0x20\n        /* \"StakeFactory.sol\":23749:23810  require(percentageBasisPoints <= 10000, \"Invalid percentage\") */\n      0x04\n      dup3\n      add\n        /* \"#utility.yul\":17060:17081   */\n      mstore\n        /* \"#utility.yul\":17117:17119   */\n      0x12\n        /* \"#utility.yul\":17097:17115   */\n      0x24\n      dup3\n      add\n        /* \"#utility.yul\":17090:17120   */\n      mstore\n      shl(0x70, 0x496e76616c69642070657263656e74616765)\n        /* \"#utility.yul\":17136:17154   */\n      0x44\n      dup3\n      add\n        /* \"#utility.yul\":17129:17177   */\n      mstore\n        /* \"#utility.yul\":17194:17212   */\n      0x64\n      add\n        /* \"StakeFactory.sol\":23749:23810  require(percentageBasisPoints <= 10000, \"Invalid percentage\") */\n      tag_261\n        /* \"#utility.yul\":16876:17218   */\n      jump\n        /* \"StakeFactory.sol\":23749:23810  require(percentageBasisPoints <= 10000, \"Invalid percentage\") */\n    tag_399:\n        /* \"StakeFactory.sol\":23821:23840  deductionPercentage */\n      0x11\n        /* \"StakeFactory.sol\":23821:23864  deductionPercentage = percentageBasisPoints */\n      sstore\n        /* \"StakeFactory.sol\":23658:23872  function setDeductionPercentage(uint256 percentageBasisPoints) public onlyOwner {... */\n      jump\t// out\n        /* \"StakeFactory.sol\":13857:14315  function getUser(address user) public view returns (UserInfo memory info) {... */\n    tag_157:\n        /* \"StakeFactory.sol\":13909:13929  UserInfo memory info */\n      tag_402\n      tag_323\n      jump\t// in\n    tag_402:\n        /* \"StakeFactory.sol\":13949:14307  UserInfo({... */\n      0x40\n      dup1\n      mload\n      0xe0\n      dup2\n      add\n      dup3\n      mstore\n      sub(shl(0xa0, 0x01), 0x01)\n      dup5\n      and\n      dup1\n      dup3\n      mstore\n      0x00\n        /* \"StakeFactory.sol\":14021:14046  depositeTokensTotal[user] */\n      dup2\n      dup2\n      mstore\n        /* \"StakeFactory.sol\":14021:14040  depositeTokensTotal */\n      0x08\n        /* \"StakeFactory.sol\":13949:14307  UserInfo({... */\n      0x20\n        /* \"StakeFactory.sol\":14021:14046  depositeTokensTotal[user] */\n      swap1\n      dup2\n      mstore\n      dup5\n      dup3\n      keccak256\n      sload\n        /* \"StakeFactory.sol\":13949:14307  UserInfo({... */\n      dup2\n      dup6\n      add\n      mstore\n        /* \"StakeFactory.sol\":14074:14091  lastUpdated[user] */\n      dup3\n      dup3\n      mstore\n        /* \"StakeFactory.sol\":14074:14085  lastUpdated */\n      0x0c\n        /* \"StakeFactory.sol\":14074:14091  lastUpdated[user] */\n      dup2\n      mstore\n      dup5\n      dup3\n      keccak256\n      sload\n        /* \"StakeFactory.sol\":13949:14307  UserInfo({... */\n      dup5\n      dup7\n      add\n      mstore\n        /* \"StakeFactory.sol\":14120:14138  lockableDays[user] */\n      swap2\n      dup2\n      mstore\n        /* \"StakeFactory.sol\":14120:14132  lockableDays */\n      0x09\n        /* \"StakeFactory.sol\":14120:14138  lockableDays[user] */\n      dup3\n      mstore\n      dup4\n      swap1\n      keccak256\n        /* \"StakeFactory.sol\":13949:14307  UserInfo({... */\n      dup1\n      sload\n      dup5\n      mload\n      dup2\n      dup5\n      mul\n      dup2\n      add\n      dup5\n      add\n      swap1\n      swap6\n      mstore\n      dup1\n      dup6\n      mstore\n      swap3\n      swap4\n      0x60\n      dup6\n      add\n      swap4\n      swap1\n      swap3\n      dup4\n      add\n        /* \"StakeFactory.sol\":14120:14138  lockableDays[user] */\n      dup3\n        /* \"StakeFactory.sol\":13949:14307  UserInfo({... */\n      dup3\n      dup1\n      iszero\n      tag_404\n      jumpi\n      0x20\n      mul\n      dup3\n      add\n      swap2\n      swap1\n      0x00\n      mstore\n      keccak256(0x00, 0x20)\n      swap1\n    tag_405:\n      dup2\n      sload\n      dup2\n      mstore\n      0x20\n      add\n      swap1\n      0x01\n      add\n      swap1\n      dup1\n      dup4\n      gt\n      tag_405\n      jumpi\n    tag_404:\n      pop\n      pop\n      pop\n      swap2\n      dup4\n      mstore\n      pop\n      pop\n      sub(shl(0xa0, 0x01), 0x01)\n        /* \"StakeFactory.sol\":14171:14193  withdrawedReward[user] */\n      dup5\n      and\n      0x00\n      swap1\n      dup2\n      mstore\n        /* \"StakeFactory.sol\":14171:14187  withdrawedReward */\n      0x0b\n        /* \"StakeFactory.sol\":13949:14307  UserInfo({... */\n      0x20\n        /* \"StakeFactory.sol\":14171:14193  withdrawedReward[user] */\n      swap1\n      dup2\n      mstore\n      0x40\n      swap2\n      dup3\n      swap1\n      keccak256\n      sload\n        /* \"StakeFactory.sol\":13949:14307  UserInfo({... */\n      swap1\n      dup4\n      add\n      mstore\n      add\n        /* \"StakeFactory.sol\":14228:14248  pendingRewards(user) */\n      tag_406\n        /* \"StakeFactory.sol\":14188:14192  user */\n      dup5\n        /* \"StakeFactory.sol\":14228:14242  pendingRewards */\n      tag_88\n        /* \"StakeFactory.sol\":14228:14248  pendingRewards(user) */\n      jump\t// in\n    tag_406:\n        /* \"StakeFactory.sol\":13949:14307  UserInfo({... */\n      dup2\n      mstore\n      sub(shl(0xa0, 0x01), 0x01)\n        /* \"StakeFactory.sol\":14277:14295  depositeTime[user] */\n      dup5\n      and\n      0x00\n      swap1\n      dup2\n      mstore\n        /* \"StakeFactory.sol\":14277:14289  depositeTime */\n      0x0a\n        /* \"StakeFactory.sol\":13949:14307  UserInfo({... */\n      0x20\n        /* \"StakeFactory.sol\":14277:14295  depositeTime[user] */\n      swap1\n      dup2\n      mstore\n      0x40\n      swap2\n      dup3\n      swap1\n      keccak256\n        /* \"StakeFactory.sol\":13949:14307  UserInfo({... */\n      dup1\n      sload\n      dup4\n      mload\n      dup2\n      dup5\n      mul\n      dup2\n      add\n      dup5\n      add\n      swap1\n      swap5\n      mstore\n      dup1\n      dup5\n      mstore\n      swap4\n      dup3\n      add\n      swap4\n        /* \"StakeFactory.sol\":14277:14295  depositeTime[user] */\n      swap1\n      swap2\n        /* \"StakeFactory.sol\":13949:14307  UserInfo({... */\n      dup4\n      add\n        /* \"StakeFactory.sol\":14277:14295  depositeTime[user] */\n      dup3\n        /* \"StakeFactory.sol\":13949:14307  UserInfo({... */\n      dup3\n      dup1\n      iszero\n      tag_407\n      jumpi\n      0x20\n      mul\n      dup3\n      add\n      swap2\n      swap1\n      0x00\n      mstore\n      keccak256(0x00, 0x20)\n      swap1\n    tag_408:\n      dup2\n      sload\n      dup2\n      mstore\n      0x20\n      add\n      swap1\n      0x01\n      add\n      swap1\n      dup1\n      dup4\n      gt\n      tag_408\n      jumpi\n    tag_407:\n      pop\n      pop\n      pop\n      pop\n      pop\n      dup2\n      mstore\n      pop\n        /* \"StakeFactory.sol\":13942:14307  info = UserInfo({... */\n      swap1\n      pop\n        /* \"StakeFactory.sol\":13857:14315  function getUser(address user) public view returns (UserInfo memory info) {... */\n      swap2\n      swap1\n      pop\n      jump\t// out\n        /* \"StakeFactory.sol\":23998:24221  function emergencyWithdrawTokens(IERC20 _token, uint256 _amount) public onlyOwner {... */\n    tag_173:\n        /* \"StakeFactory.sol\":7912:7918  _owner */\n      and(sub(shl(0xa0, 0x01), 0x01), sload(0x00))\n        /* \"StakeFactory.sol\":7922:7932  msg.sender */\n      caller\n        /* \"StakeFactory.sol\":7912:7932  _owner == msg.sender */\n      eq\n        /* \"StakeFactory.sol\":7904:7969  require(_owner == msg.sender, \"Ownable: caller is not the owner\") */\n      tag_411\n      jumpi\n      mload(0x40)\n      shl(0xe5, 0x461bcd)\n      dup2\n      mstore\n      0x04\n      add\n      tag_261\n      swap1\n      tag_262\n      jump\t// in\n    tag_411:\n        /* \"StakeFactory.sol\":24099:24130  _token.balanceOf(address(this)) */\n      mload(0x40)\n      shl(0xe0, 0x70a08231)\n      dup2\n      mstore\n        /* \"StakeFactory.sol\":24124:24128  this */\n      address\n        /* \"StakeFactory.sol\":24099:24130  _token.balanceOf(address(this)) */\n      0x04\n      dup3\n      add\n        /* \"#utility.yul\":961:1012   */\n      mstore\n        /* \"StakeFactory.sol\":24134:24141  _amount */\n      dup2\n      swap1\n      sub(shl(0xa0, 0x01), 0x01)\n        /* \"StakeFactory.sol\":24099:24115  _token.balanceOf */\n      dup5\n      and\n      swap1\n      0x70a08231\n      swap1\n        /* \"#utility.yul\":934:952   */\n      0x24\n      add\n        /* \"StakeFactory.sol\":24099:24130  _token.balanceOf(address(this)) */\n      0x20\n      mload(0x40)\n      dup1\n      dup4\n      sub\n      dup2\n      dup7\n      gas\n      staticcall\n      iszero\n      dup1\n      iszero\n      tag_416\n      jumpi\n      returndatasize\n      0x00\n      dup1\n      returndatacopy\n      revert(0x00, returndatasize)\n    tag_416:\n      pop\n      pop\n      pop\n      pop\n      mload(0x40)\n      returndatasize\n      not(0x1f)\n      0x1f\n      dup3\n      add\n      and\n      dup3\n      add\n      dup1\n      0x40\n      mstore\n      pop\n      dup2\n      add\n      swap1\n      tag_417\n      swap2\n      swap1\n      tag_394\n      jump\t// in\n    tag_417:\n        /* \"StakeFactory.sol\":24099:24141  _token.balanceOf(address(this)) >= _amount */\n      lt\n      iszero\n        /* \"StakeFactory.sol\":24091:24166  require(_token.balanceOf(address(this)) >= _amount, \"Insufficient balance\") */\n      tag_418\n      jumpi\n      mload(0x40)\n      shl(0xe5, 0x461bcd)\n      dup2\n      mstore\n        /* \"#utility.yul\":17425:17427   */\n      0x20\n        /* \"StakeFactory.sol\":24091:24166  require(_token.balanceOf(address(this)) >= _amount, \"Insufficient balance\") */\n      0x04\n      dup3\n      add\n        /* \"#utility.yul\":17407:17428   */\n      mstore\n        /* \"#utility.yul\":17464:17466   */\n      0x14\n        /* \"#utility.yul\":17444:17462   */\n      0x24\n      dup3\n      add\n        /* \"#utility.yul\":17437:17467   */\n      mstore\n      shl(0x60, 0x496e73756666696369656e742062616c616e6365)\n        /* \"#utility.yul\":17483:17501   */\n      0x44\n      dup3\n      add\n        /* \"#utility.yul\":17476:17526   */\n      mstore\n        /* \"#utility.yul\":17543:17561   */\n      0x64\n      add\n        /* \"StakeFactory.sol\":24091:24166  require(_token.balanceOf(address(this)) >= _amount, \"Insufficient balance\") */\n      tag_261\n        /* \"#utility.yul\":17223:17567   */\n      jump\n        /* \"StakeFactory.sol\":24091:24166  require(_token.balanceOf(address(this)) >= _amount, \"Insufficient balance\") */\n    tag_418:\n        /* \"StakeFactory.sol\":24177:24213  _token.transfer(msg.sender, _amount) */\n      mload(0x40)\n      shl(0xe0, 0xa9059cbb)\n      dup2\n      mstore\n        /* \"StakeFactory.sol\":24193:24203  msg.sender */\n      caller\n        /* \"StakeFactory.sol\":24177:24213  _token.transfer(msg.sender, _amount) */\n      0x04\n      dup3\n      add\n        /* \"#utility.yul\":17746:17797   */\n      mstore\n        /* \"#utility.yul\":17813:17831   */\n      0x24\n      dup2\n      add\n        /* \"#utility.yul\":17806:17840   */\n      dup3\n      swap1\n      mstore\n      sub(shl(0xa0, 0x01), 0x01)\n        /* \"StakeFactory.sol\":24177:24192  _token.transfer */\n      dup4\n      and\n      swap1\n      0xa9059cbb\n      swap1\n        /* \"#utility.yul\":17719:17737   */\n      0x44\n      add\n        /* \"StakeFactory.sol\":24177:24213  _token.transfer(msg.sender, _amount) */\n      0x20\n      mload(0x40)\n      dup1\n      dup4\n      sub\n      dup2\n      0x00\n      dup8\n      gas\n      call\n      iszero\n      dup1\n      iszero\n      tag_424\n      jumpi\n      returndatasize\n      0x00\n      dup1\n      returndatacopy\n      revert(0x00, returndatasize)\n    tag_424:\n      pop\n      pop\n      pop\n      pop\n      mload(0x40)\n      returndatasize\n      not(0x1f)\n      0x1f\n      dup3\n      add\n      and\n      dup3\n      add\n      dup1\n      0x40\n      mstore\n      pop\n      dup2\n      add\n      swap1\n      tag_425\n      swap2\n      swap1\n      tag_426\n      jump\t// in\n    tag_425:\n      pop\n        /* \"StakeFactory.sol\":23998:24221  function emergencyWithdrawTokens(IERC20 _token, uint256 _amount) public onlyOwner {... */\n      pop\n      pop\n      jump\t// out\n        /* \"StakeFactory.sol\":9400:9450  mapping(address => uint256[]) public depositeToken */\n    tag_178:\n      mstore(0x20, 0x07)\n      dup2\n      0x00\n      mstore\n      keccak256(0x00, 0x40)\n      dup2\n      dup2\n      sload\n      dup2\n      lt\n      tag_427\n      jumpi\n      0x00\n      dup1\n      revert\n    tag_427:\n      swap1\n      0x00\n      mstore\n      keccak256(0x00, 0x20)\n      add\n      0x00\n      swap2\n      pop\n      swap2\n      pop\n      pop\n      sload\n      dup2\n      jump\t// out\n        /* \"StakeFactory.sol\":9518:9567  mapping(address => uint256[]) public lockableDays */\n    tag_183:\n      mstore(0x20, 0x09)\n      dup2\n      0x00\n      mstore\n      keccak256(0x00, 0x40)\n      dup2\n      dup2\n      sload\n      dup2\n      lt\n      tag_427\n      jumpi\n      0x00\n      dup1\n      revert\n        /* \"StakeFactory.sol\":18191:19605  function setAllocation(... */\n    tag_189:\n        /* \"StakeFactory.sol\":7912:7918  _owner */\n      and(sub(shl(0xa0, 0x01), 0x01), sload(0x00))\n        /* \"StakeFactory.sol\":7922:7932  msg.sender */\n      caller\n        /* \"StakeFactory.sol\":7912:7932  _owner == msg.sender */\n      eq\n        /* \"StakeFactory.sol\":7904:7969  require(_owner == msg.sender, \"Ownable: caller is not the owner\") */\n      tag_432\n      jumpi\n      mload(0x40)\n      shl(0xe5, 0x461bcd)\n      dup2\n      mstore\n      0x04\n      add\n      tag_261\n      swap1\n      tag_262\n      jump\t// in\n    tag_432:\n        /* \"StakeFactory.sol\":18531:18536  10000 */\n      0x2710\n        /* \"StakeFactory.sol\":18506:18527  percentageBasisPoints */\n      dup7\n        /* \"StakeFactory.sol\":18506:18536  percentageBasisPoints <= 10000 */\n      gt\n      iszero\n        /* \"StakeFactory.sol\":18498:18559  require(percentageBasisPoints <= 10000, \"Invalid percentage\") */\n      tag_435\n      jumpi\n      mload(0x40)\n      shl(0xe5, 0x461bcd)\n      dup2\n      mstore\n        /* \"#utility.yul\":17078:17080   */\n      0x20\n        /* \"StakeFactory.sol\":18498:18559  require(percentageBasisPoints <= 10000, \"Invalid percentage\") */\n      0x04\n      dup3\n      add\n        /* \"#utility.yul\":17060:17081   */\n      mstore\n        /* \"#utility.yul\":17117:17119   */\n      0x12\n        /* \"#utility.yul\":17097:17115   */\n      0x24\n      dup3\n      add\n        /* \"#utility.yul\":17090:17120   */\n      mstore\n      shl(0x70, 0x496e76616c69642070657263656e74616765)\n        /* \"#utility.yul\":17136:17154   */\n      0x44\n      dup3\n      add\n        /* \"#utility.yul\":17129:17177   */\n      mstore\n        /* \"#utility.yul\":17194:17212   */\n      0x64\n      add\n        /* \"StakeFactory.sol\":18498:18559  require(percentageBasisPoints <= 10000, \"Invalid percentage\") */\n      tag_261\n        /* \"#utility.yul\":16876:17218   */\n      jump\n        /* \"StakeFactory.sol\":18498:18559  require(percentageBasisPoints <= 10000, \"Invalid percentage\") */\n    tag_435:\n        /* \"StakeFactory.sol\":18590:18598  _minRate */\n      dup4\n        /* \"StakeFactory.sol\":18578:18586  _maxRate */\n      dup6\n        /* \"StakeFactory.sol\":18578:18598  _maxRate >= _minRate */\n      lt\n      iszero\n        /* \"StakeFactory.sol\":18570:18653  require(_maxRate >= _minRate, \"Max rate must be greater than or equal to min rate\") */\n      tag_437\n      jumpi\n      mload(0x40)\n      shl(0xe5, 0x461bcd)\n      dup2\n      mstore\n        /* \"#utility.yul\":18303:18305   */\n      0x20\n        /* \"StakeFactory.sol\":18570:18653  require(_maxRate >= _minRate, \"Max rate must be greater than or equal to min rate\") */\n      0x04\n      dup3\n      add\n        /* \"#utility.yul\":18285:18306   */\n      mstore\n        /* \"#utility.yul\":18342:18344   */\n      0x32\n        /* \"#utility.yul\":18322:18340   */\n      0x24\n      dup3\n      add\n        /* \"#utility.yul\":18315:18345   */\n      mstore\n        /* \"#utility.yul\":18381:18415   */\n      0x4d61782072617465206d7573742062652067726561746572207468616e206f72\n        /* \"#utility.yul\":18361:18379   */\n      0x44\n      dup3\n      add\n        /* \"#utility.yul\":18354:18416   */\n      mstore\n      shl(0x70, 0x20657175616c20746f206d696e2072617465)\n        /* \"#utility.yul\":18432:18450   */\n      0x64\n      dup3\n      add\n        /* \"#utility.yul\":18425:18473   */\n      mstore\n        /* \"#utility.yul\":18490:18509   */\n      0x84\n      add\n        /* \"StakeFactory.sol\":18570:18653  require(_maxRate >= _minRate, \"Max rate must be greater than or equal to min rate\") */\n      tag_261\n        /* \"#utility.yul\":18101:18515   */\n      jump\n        /* \"StakeFactory.sol\":18570:18653  require(_maxRate >= _minRate, \"Max rate must be greater than or equal to min rate\") */\n    tag_437:\n        /* \"StakeFactory.sol\":18684:18685  0 */\n      0x00\n        /* \"StakeFactory.sol\":18672:18681  _stepSize */\n      dup3\n        /* \"StakeFactory.sol\":18672:18685  _stepSize > 0 */\n      gt\n        /* \"StakeFactory.sol\":18664:18722  require(_stepSize > 0, \"Step size must be greater than 0\") */\n      tag_440\n      jumpi\n      mload(0x40)\n      shl(0xe5, 0x461bcd)\n      dup2\n      mstore\n        /* \"#utility.yul\":18722:18724   */\n      0x20\n        /* \"StakeFactory.sol\":18664:18722  require(_stepSize > 0, \"Step size must be greater than 0\") */\n      0x04\n      dup3\n      add\n        /* \"#utility.yul\":18704:18725   */\n      dup2\n      swap1\n      mstore\n        /* \"#utility.yul\":18741:18759   */\n      0x24\n      dup3\n      add\n        /* \"#utility.yul\":18734:18764   */\n      mstore\n        /* \"#utility.yul\":18800:18834   */\n      0x537465702073697a65206d7573742062652067726561746572207468616e2030\n        /* \"#utility.yul\":18780:18798   */\n      0x44\n      dup3\n      add\n        /* \"#utility.yul\":18773:18835   */\n      mstore\n        /* \"#utility.yul\":18852:18870   */\n      0x64\n      add\n        /* \"StakeFactory.sol\":18664:18722  require(_stepSize > 0, \"Step size must be greater than 0\") */\n      tag_261\n        /* \"#utility.yul\":18520:18876   */\n      jump\n        /* \"StakeFactory.sol\":18664:18722  require(_stepSize > 0, \"Step size must be greater than 0\") */\n    tag_440:\n        /* \"StakeFactory.sol\":18735:18752  allocation[_days] */\n      0x00\n      dup9\n      dup2\n      mstore\n        /* \"StakeFactory.sol\":18735:18745  allocation */\n      0x04\n        /* \"StakeFactory.sol\":18735:18752  allocation[_days] */\n      0x20\n      mstore\n      0x40\n      swap1\n      keccak256\n        /* \"StakeFactory.sol\":18735:18776  allocation[_days] = percentageBasisPoints */\n      dup7\n      swap1\n      sstore\n        /* \"StakeFactory.sol\":18794:18820  isLockPeriodAllowed(_days) */\n      tag_443\n        /* \"StakeFactory.sol\":18746:18751  _days */\n      dup9\n        /* \"StakeFactory.sol\":18794:18813  isLockPeriodAllowed */\n      tag_304\n        /* \"StakeFactory.sol\":18794:18820  isLockPeriodAllowed(_days) */\n      jump\t// in\n    tag_443:\n        /* \"StakeFactory.sol\":18789:18951  if (!isLockPeriodAllowed(_days)) {... */\n      tag_444\n      jumpi\n        /* \"StakeFactory.sol\":18837:18855  allowedLockPeriods */\n      0x13\n        /* \"StakeFactory.sol\":18837:18867  allowedLockPeriods.push(_days) */\n      dup1\n      sload\n      0x01\n      dup2\n      add\n      dup3\n      sstore\n      0x00\n      swap2\n      swap1\n      swap2\n      mstore\n      0x66de8ffda797e3de9c05e8fc57b3bf0ec28a930d40b0d285d93c06501cf6a090\n      add\n      dup9\n      swap1\n      sstore\n        /* \"StakeFactory.sol\":18789:18951  if (!isLockPeriodAllowed(_days)) {... */\n    tag_444:\n        /* \"StakeFactory.sol\":19084:19597  LockPeriodParams({... */\n      0x40\n      dup1\n      mload\n      0x0120\n      dup2\n      add\n      dup3\n      mstore\n      dup10\n      dup2\n      mstore\n      0x20\n      dup1\n      dup3\n      add\n      swap10\n      dup11\n      mstore\n      dup2\n      dup4\n      add\n      swap9\n      dup10\n      mstore\n      0x60\n      dup3\n      add\n      swap8\n      dup9\n      mstore\n      0x80\n      dup3\n      add\n      swap7\n      dup8\n      mstore\n      0xa0\n      dup3\n      add\n      swap6\n      dup7\n      mstore\n      0xc0\n      dup3\n      add\n      swap5\n      dup6\n      mstore\n      swap3\n      iszero\n      iszero\n      0xe0\n      dup3\n      add\n      swap1\n      dup2\n      mstore\n      0x00\n        /* \"StakeFactory.sol\":19549:19572  lockPeriodParams[_days] */\n      dup12\n      dup2\n      mstore\n        /* \"StakeFactory.sol\":19549:19565  lockPeriodParams */\n      0x05\n        /* \"StakeFactory.sol\":19549:19572  lockPeriodParams[_days] */\n      dup1\n      dup7\n      mstore\n      swap4\n      dup2\n      keccak256\n        /* \"StakeFactory.sol\":19549:19585  lockPeriodParams[_days].stakedAmount */\n      0x08\n      dup2\n      add\n      dup1\n      sload\n        /* \"StakeFactory.sol\":19084:19597  LockPeriodParams({... */\n      0x0100\n      dup7\n      add\n      swap1\n      dup2\n      mstore\n        /* \"StakeFactory.sol\":19058:19081  lockPeriodParams[_days] */\n      swap14\n      swap1\n      swap3\n      mstore\n      swap5\n      dup5\n      swap1\n      mstore\n        /* \"StakeFactory.sol\":19058:19597  lockPeriodParams[_days] = LockPeriodParams({... */\n      swap2\n      mload\n      dup5\n      sstore\n      swap9\n      mload\n      0x01\n      dup5\n      add\n      sstore\n      swap7\n      mload\n      0x02\n      dup4\n      add\n      sstore\n      swap5\n      mload\n      0x03\n      dup3\n      add\n      sstore\n      swap3\n      mload\n      0x04\n      dup5\n      add\n      sstore\n      swap1\n      mload\n      swap3\n      dup3\n      add\n      swap3\n      swap1\n      swap3\n      sstore\n      swap1\n      mload\n      0x06\n      dup3\n      add\n      sstore\n      swap2\n      mload\n      0x07\n      swap1\n      swap3\n      add\n      dup1\n      sload\n      not(0xff)\n      and\n      swap3\n      iszero\n      iszero\n      swap3\n      swap1\n      swap3\n      or\n      swap1\n      swap2\n      sstore\n      swap1\n      mload\n      swap1\n      sstore\n        /* \"StakeFactory.sol\":18191:19605  function setAllocation(... */\n      jump\t// out\n        /* \"StakeFactory.sol\":9574:9623  mapping(address => uint256[]) public depositeTime */\n    tag_198:\n      mstore(0x20, 0x0a)\n      dup2\n      0x00\n      mstore\n      keccak256(0x00, 0x40)\n      dup2\n      dup2\n      sload\n      dup2\n      lt\n      tag_427\n      jumpi\n      0x00\n      dup1\n      revert\n        /* \"StakeFactory.sol\":21437:21821  function getStakeTokenInfo() public view returns (... */\n    tag_216:\n        /* \"StakeFactory.sol\":21654:21659  Token */\n      sload(0x02)\n        /* \"StakeFactory.sol\":21678:21690  Token.name() */\n      0x40\n      dup1\n      mload\n      shl(0xe0, 0x06fdde03)\n      dup2\n      mstore\n      swap1\n      mload\n      sub(shl(0xa0, 0x01), 0x01)\n        /* \"StakeFactory.sol\":21654:21659  Token */\n      swap1\n      swap3\n      and\n      swap2\n        /* \"StakeFactory.sol\":21520:21538  string memory name */\n      0x60\n      swap2\n      dup3\n      swap2\n        /* \"StakeFactory.sol\":21497:21509  address addr */\n      0x00\n      swap2\n      dup3\n      swap2\n        /* \"StakeFactory.sol\":21654:21659  Token */\n      dup7\n      swap2\n        /* \"StakeFactory.sol\":21678:21688  Token.name */\n      0x06fdde03\n      swap2\n        /* \"StakeFactory.sol\":21678:21690  Token.name() */\n      0x04\n      dup1\n      dup4\n      add\n      swap3\n        /* \"StakeFactory.sol\":21497:21509  address addr */\n      dup7\n      swap3\n        /* \"StakeFactory.sol\":21678:21690  Token.name() */\n      swap2\n      swap1\n      dup3\n      swap1\n      sub\n      add\n      dup2\n        /* \"StakeFactory.sol\":21654:21659  Token */\n      dup7\n        /* \"StakeFactory.sol\":21678:21690  Token.name() */\n      gas\n      staticcall\n      iszero\n      dup1\n      iszero\n      tag_450\n      jumpi\n      returndatasize\n      0x00\n      dup1\n      returndatacopy\n      revert(0x00, returndatasize)\n    tag_450:\n      pop\n      pop\n      pop\n      pop\n      mload(0x40)\n      returndatasize\n      0x00\n      dup3\n      returndatacopy\n      0x1f\n      returndatasize\n      swap1\n      dup2\n      add\n      not(0x1f)\n      and\n      dup3\n      add\n      0x40\n      mstore\n      tag_451\n      swap2\n      swap1\n      dup2\n      add\n      swap1\n      tag_382\n      jump\t// in\n    tag_451:\n        /* \"StakeFactory.sol\":21671:21690  name = Token.name() */\n      swap4\n      pop\n        /* \"StakeFactory.sol\":21710:21715  Token */\n      0x02\n      0x00\n      swap1\n      sload\n      swap1\n      0x0100\n      exp\n      swap1\n      div\n      sub(shl(0xa0, 0x01), 0x01)\n      and\n      sub(shl(0xa0, 0x01), 0x01)\n        /* \"StakeFactory.sol\":21710:21722  Token.symbol */\n      and\n      0x95d89b41\n        /* \"StakeFactory.sol\":21710:21724  Token.symbol() */\n      mload(0x40)\n      dup2\n      0xffffffff\n      and\n      0xe0\n      shl\n      dup2\n      mstore\n      0x04\n      add\n      0x00\n      mload(0x40)\n      dup1\n      dup4\n      sub\n      dup2\n      dup7\n      gas\n      staticcall\n      iszero\n      dup1\n      iszero\n      tag_453\n      jumpi\n      returndatasize\n      0x00\n      dup1\n      returndatacopy\n      revert(0x00, returndatasize)\n    tag_453:\n      pop\n      pop\n      pop\n      pop\n      mload(0x40)\n      returndatasize\n      0x00\n      dup3\n      returndatacopy\n      0x1f\n      returndatasize\n      swap1\n      dup2\n      add\n      not(0x1f)\n      and\n      dup3\n      add\n      0x40\n      mstore\n      tag_454\n      swap2\n      swap1\n      dup2\n      add\n      swap1\n      tag_382\n      jump\t// in\n    tag_454:\n        /* \"StakeFactory.sol\":21701:21724  symbol = Token.symbol() */\n      swap3\n      pop\n        /* \"StakeFactory.sol\":21746:21751  Token */\n      0x02\n      0x00\n      swap1\n      sload\n      swap1\n      0x0100\n      exp\n      swap1\n      div\n      sub(shl(0xa0, 0x01), 0x01)\n      and\n      sub(shl(0xa0, 0x01), 0x01)\n        /* \"StakeFactory.sol\":21746:21760  Token.decimals */\n      and\n      0x313ce567\n        /* \"StakeFactory.sol\":21746:21762  Token.decimals() */\n      mload(0x40)\n      dup2\n      0xffffffff\n      and\n      0xe0\n      shl\n      dup2\n      mstore\n      0x04\n      add\n      0x20\n      mload(0x40)\n      dup1\n      dup4\n      sub\n      dup2\n      dup7\n      gas\n      staticcall\n      iszero\n      dup1\n      iszero\n      tag_456\n      jumpi\n      returndatasize\n      0x00\n      dup1\n      returndatacopy\n      revert(0x00, returndatasize)\n    tag_456:\n      pop\n      pop\n      pop\n      pop\n      mload(0x40)\n      returndatasize\n      not(0x1f)\n      0x1f\n      dup3\n      add\n      and\n      dup3\n      add\n      dup1\n      0x40\n      mstore\n      pop\n      dup2\n      add\n      swap1\n      tag_457\n      swap2\n      swap1\n      tag_389\n      jump\t// in\n    tag_457:\n        /* \"StakeFactory.sol\":21783:21788  Token */\n      sload(0x02)\n        /* \"StakeFactory.sol\":21783:21813  Token.balanceOf(address(this)) */\n      mload(0x40)\n      shl(0xe0, 0x70a08231)\n      dup2\n      mstore\n        /* \"StakeFactory.sol\":21807:21811  this */\n      address\n        /* \"StakeFactory.sol\":21783:21813  Token.balanceOf(address(this)) */\n      0x04\n      dup3\n      add\n        /* \"#utility.yul\":961:1012   */\n      mstore\n        /* \"StakeFactory.sol\":21735:21762  decimals = Token.decimals() */\n      swap2\n      swap4\n      pop\n      sub(shl(0xa0, 0x01), 0x01)\n        /* \"StakeFactory.sol\":21783:21788  Token */\n      and\n      swap1\n        /* \"StakeFactory.sol\":21783:21798  Token.balanceOf */\n      0x70a08231\n      swap1\n        /* \"#utility.yul\":934:952   */\n      0x24\n      add\n        /* \"StakeFactory.sol\":21783:21813  Token.balanceOf(address(this)) */\n      tag_390\n        /* \"#utility.yul\":815:1018   */\n      jump\n        /* \"StakeFactory.sol\":14873:18076  function harwest(uint256[] memory _index) external whenNotPaused nonReentrant returns (... */\n    tag_222:\n        /* \"StakeFactory.sol\":14970:14998  uint256 _totalWithdrawAmount */\n      0x00\n        /* \"StakeFactory.sol\":15009:15029  uint256 _totalReward */\n      dup1\n        /* \"StakeFactory.sol\":15040:15061  uint256 _deductionFee */\n      0x00\n        /* \"StakeFactory.sol\":6327:6335  paused() */\n      tag_463\n        /* \"StakeFactory.sol\":6039:6043  bool */\n      0x00\n        /* \"StakeFactory.sol\":6064:6071  _paused */\n      sload\n      0xff\n      shl(0xa0, 0x01)\n      swap1\n      swap2\n      div\n      and\n      swap1\n        /* \"StakeFactory.sol\":5992:6080  function paused() public view virtual returns (bool) {\t... */\n      jump\n        /* \"StakeFactory.sol\":6327:6335  paused() */\n    tag_463:\n        /* \"StakeFactory.sol\":6326:6335  !paused() */\n      iszero\n        /* \"StakeFactory.sol\":6318:6356  require(!paused(), \"Pausable: paused\") */\n      tag_464\n      jumpi\n      mload(0x40)\n      shl(0xe5, 0x461bcd)\n      dup2\n      mstore\n        /* \"#utility.yul\":19083:19085   */\n      0x20\n        /* \"StakeFactory.sol\":6318:6356  require(!paused(), \"Pausable: paused\") */\n      0x04\n      dup3\n      add\n        /* \"#utility.yul\":19065:19086   */\n      mstore\n        /* \"#utility.yul\":19122:19124   */\n      0x10\n        /* \"#utility.yul\":19102:19120   */\n      0x24\n      dup3\n      add\n        /* \"#utility.yul\":19095:19125   */\n      mstore\n      shl(0x82, 0x14185d5cd8589b194e881c185d5cd959)\n        /* \"#utility.yul\":19141:19159   */\n      0x44\n      dup3\n      add\n        /* \"#utility.yul\":19134:19180   */\n      mstore\n        /* \"#utility.yul\":19197:19215   */\n      0x64\n      add\n        /* \"StakeFactory.sol\":6318:6356  require(!paused(), \"Pausable: paused\") */\n      tag_261\n        /* \"#utility.yul\":18881:19221   */\n      jump\n        /* \"StakeFactory.sol\":6318:6356  require(!paused(), \"Pausable: paused\") */\n    tag_464:\n        /* \"StakeFactory.sol\":2761:2782  _nonReentrantBefore() */\n      tag_468\n        /* \"StakeFactory.sol\":2761:2780  _nonReentrantBefore */\n      tag_469\n        /* \"StakeFactory.sol\":2761:2782  _nonReentrantBefore() */\n      jump\t// in\n    tag_468:\n        /* \"StakeFactory.sol\":15094:15104  msg.sender */\n      caller\n        /* \"StakeFactory.sol\":15087:15105  isSpam[msg.sender] */\n      0x00\n      swap1\n      dup2\n      mstore\n        /* \"StakeFactory.sol\":15087:15093  isSpam */\n      0x10\n        /* \"StakeFactory.sol\":15087:15105  isSpam[msg.sender] */\n      0x20\n      mstore\n      0x40\n      swap1\n      keccak256\n      sload\n      0xff\n      and\n        /* \"StakeFactory.sol\":15087:15114  isSpam[msg.sender] == false */\n      iszero\n        /* \"StakeFactory.sol\":15079:15135  require(isSpam[msg.sender] == false, \"Account is spam!\") */\n      tag_471\n      jumpi\n      mload(0x40)\n      shl(0xe5, 0x461bcd)\n      dup2\n      mstore\n        /* \"#utility.yul\":19428:19430   */\n      0x20\n        /* \"StakeFactory.sol\":15079:15135  require(isSpam[msg.sender] == false, \"Account is spam!\") */\n      0x04\n      dup3\n      add\n        /* \"#utility.yul\":19410:19431   */\n      mstore\n        /* \"#utility.yul\":19467:19469   */\n      0x10\n        /* \"#utility.yul\":19447:19465   */\n      0x24\n      dup3\n      add\n        /* \"#utility.yul\":19440:19470   */\n      mstore\n      shl(0x80, 0x4163636f756e74206973207370616d21)\n        /* \"#utility.yul\":19486:19504   */\n      0x44\n      dup3\n      add\n        /* \"#utility.yul\":19479:19525   */\n      mstore\n        /* \"#utility.yul\":19542:19560   */\n      0x64\n      add\n        /* \"StakeFactory.sol\":15079:15135  require(isSpam[msg.sender] == false, \"Account is spam!\") */\n      tag_261\n        /* \"#utility.yul\":19226:19566   */\n      jump\n        /* \"StakeFactory.sol\":15079:15135  require(isSpam[msg.sender] == false, \"Account is spam!\") */\n    tag_471:\n        /* \"StakeFactory.sol\":15293:15303  msg.sender */\n      caller\n        /* \"StakeFactory.sol\":15148:15175  uint256 totalWithdrawAmount */\n      0x00\n        /* \"StakeFactory.sol\":15273:15304  depositeTokensTotal[msg.sender] */\n      swap1\n      dup2\n      mstore\n        /* \"StakeFactory.sol\":15273:15292  depositeTokensTotal */\n      0x08\n        /* \"StakeFactory.sol\":15273:15304  depositeTokensTotal[msg.sender] */\n      0x20\n      mstore\n      0x40\n      dup2\n      keccak256\n      sload\n        /* \"StakeFactory.sol\":15148:15175  uint256 totalWithdrawAmount */\n      dup2\n      swap1\n      dup2\n      swap1\n        /* \"StakeFactory.sol\":15336:15351  block.timestamp */\n      timestamp\n        /* \"StakeFactory.sol\":15148:15175  uint256 totalWithdrawAmount */\n      dup3\n        /* \"StakeFactory.sol\":15364:16767  for (uint256 z = 0; z < _index.length; z++) {... */\n    tag_474:\n        /* \"StakeFactory.sol\":15388:15394  _index */\n      dup10\n        /* \"StakeFactory.sol\":15388:15401  _index.length */\n      mload\n        /* \"StakeFactory.sol\":15384:15385  z */\n      dup2\n        /* \"StakeFactory.sol\":15384:15401  z < _index.length */\n      lt\n        /* \"StakeFactory.sol\":15364:16767  for (uint256 z = 0; z < _index.length; z++) {... */\n      iszero\n      tag_475\n      jumpi\n        /* \"StakeFactory.sol\":15518:15528  msg.sender */\n      caller\n        /* \"StakeFactory.sol\":15543:15544  0 */\n      0x00\n        /* \"StakeFactory.sol\":15504:15529  depositeToken[msg.sender] */\n      swap1\n      dup2\n      mstore\n        /* \"StakeFactory.sol\":15504:15517  depositeToken */\n      0x07\n        /* \"StakeFactory.sol\":15504:15529  depositeToken[msg.sender] */\n      0x20\n      mstore\n      0x40\n      dup2\n      keccak256\n        /* \"StakeFactory.sol\":15530:15539  _index[z] */\n      dup12\n      mload\n        /* \"StakeFactory.sol\":15530:15536  _index */\n      dup13\n      swap1\n        /* \"StakeFactory.sol\":15537:15538  z */\n      dup5\n      swap1\n        /* \"StakeFactory.sol\":15530:15539  _index[z] */\n      dup2\n      lt\n      tag_478\n      jumpi\n      tag_478\n      tag_277\n      jump\t// in\n    tag_478:\n      0x20\n      mul\n      0x20\n      add\n      add\n      mload\n        /* \"StakeFactory.sol\":15504:15540  depositeToken[msg.sender][_index[z]] */\n      dup2\n      sload\n      dup2\n      lt\n      tag_480\n      jumpi\n      tag_480\n      tag_277\n      jump\t// in\n    tag_480:\n      swap1\n      0x00\n      mstore\n      keccak256(0x00, 0x20)\n      add\n      sload\n        /* \"StakeFactory.sol\":15504:15544  depositeToken[msg.sender][_index[z]] > 0 */\n      gt\n        /* \"StakeFactory.sol\":15500:16756  if (depositeToken[msg.sender][_index[z]] > 0) {... */\n      iszero\n      tag_482\n      jumpi\n        /* \"StakeFactory.sol\":15661:15665  time */\n      sload(0x12)\n        /* \"StakeFactory.sol\":15636:15646  msg.sender */\n      caller\n        /* \"StakeFactory.sol\":15565:15581  uint256 lockTime */\n      0x00\n        /* \"StakeFactory.sol\":15623:15647  lockableDays[msg.sender] */\n      swap1\n      dup2\n      mstore\n        /* \"StakeFactory.sol\":15623:15635  lockableDays */\n      0x09\n        /* \"StakeFactory.sol\":15623:15647  lockableDays[msg.sender] */\n      0x20\n      mstore\n      0x40\n      dup2\n      keccak256\n        /* \"StakeFactory.sol\":15648:15657  _index[z] */\n      dup13\n      mload\n        /* \"StakeFactory.sol\":15565:15581  uint256 lockTime */\n      swap2\n      swap3\n        /* \"StakeFactory.sol\":15661:15665  time */\n      swap2\n        /* \"StakeFactory.sol\":15648:15654  _index */\n      dup14\n      swap1\n        /* \"StakeFactory.sol\":15655:15656  z */\n      dup6\n      swap1\n        /* \"StakeFactory.sol\":15648:15657  _index[z] */\n      dup2\n      lt\n      tag_484\n      jumpi\n      tag_484\n      tag_277\n      jump\t// in\n    tag_484:\n      0x20\n      mul\n      0x20\n      add\n      add\n      mload\n        /* \"StakeFactory.sol\":15623:15658  lockableDays[msg.sender][_index[z]] */\n      dup2\n      sload\n      dup2\n      lt\n      tag_486\n      jumpi\n      tag_486\n      tag_277\n      jump\t// in\n    tag_486:\n      swap1\n      0x00\n      mstore\n      keccak256(0x00, 0x20)\n      add\n      sload\n        /* \"StakeFactory.sol\":15623:15665  lockableDays[msg.sender][_index[z]] * time */\n      tag_488\n      swap2\n      swap1\n      tag_280\n      jump\t// in\n    tag_488:\n        /* \"StakeFactory.sol\":15597:15607  msg.sender */\n      caller\n        /* \"StakeFactory.sol\":15584:15608  depositeTime[msg.sender] */\n      0x00\n      swap1\n      dup2\n      mstore\n        /* \"StakeFactory.sol\":15584:15596  depositeTime */\n      0x0a\n        /* \"StakeFactory.sol\":15584:15608  depositeTime[msg.sender] */\n      0x20\n      mstore\n      0x40\n      swap1\n      keccak256\n        /* \"StakeFactory.sol\":15609:15618  _index[z] */\n      dup13\n      mload\n        /* \"StakeFactory.sol\":15609:15615  _index */\n      dup14\n      swap1\n        /* \"StakeFactory.sol\":15616:15617  z */\n      dup6\n      swap1\n        /* \"StakeFactory.sol\":15609:15618  _index[z] */\n      dup2\n      lt\n      tag_490\n      jumpi\n      tag_490\n      tag_277\n      jump\t// in\n    tag_490:\n      0x20\n      mul\n      0x20\n      add\n      add\n      mload\n        /* \"StakeFactory.sol\":15584:15619  depositeTime[msg.sender][_index[z]] */\n      dup2\n      sload\n      dup2\n      lt\n      tag_492\n      jumpi\n      tag_492\n      tag_277\n      jump\t// in\n    tag_492:\n      swap1\n      0x00\n      mstore\n      keccak256(0x00, 0x20)\n      add\n      sload\n        /* \"StakeFactory.sol\":15584:15666  depositeTime[msg.sender][_index[z]] + (lockableDays[msg.sender][_index[z]] * time) */\n      tag_494\n      swap2\n      swap1\n      tag_285\n      jump\t// in\n    tag_494:\n        /* \"StakeFactory.sol\":15565:15666  uint256 lockTime = depositeTime[msg.sender][_index[z]] + (lockableDays[msg.sender][_index[z]] * time) */\n      swap1\n      pop\n        /* \"StakeFactory.sol\":15703:15711  lockTime */\n      dup1\n        /* \"StakeFactory.sol\":15691:15700  blockTime */\n      dup4\n        /* \"StakeFactory.sol\":15691:15711  blockTime > lockTime */\n      gt\n        /* \"StakeFactory.sol\":15687:16568  if (blockTime > lockTime) {... */\n      iszero\n      tag_495\n      jumpi\n        /* \"StakeFactory.sol\":15736:15750  uint256 reward */\n      0x00\n        /* \"StakeFactory.sol\":15844:15849  10000 */\n      0x2710\n        /* \"StakeFactory.sol\":15793:15803  allocation */\n      0x04\n        /* \"StakeFactory.sol\":15793:15840  allocation[lockableDays[msg.sender][_index[z]]] */\n      0x00\n        /* \"StakeFactory.sol\":15804:15816  lockableDays */\n      0x09\n        /* \"StakeFactory.sol\":15804:15828  lockableDays[msg.sender] */\n      0x00\n        /* \"StakeFactory.sol\":15817:15827  msg.sender */\n      caller\n      sub(shl(0xa0, 0x01), 0x01)\n        /* \"StakeFactory.sol\":15804:15828  lockableDays[msg.sender] */\n      and\n      sub(shl(0xa0, 0x01), 0x01)\n      and\n      dup2\n      mstore\n      0x20\n      add\n      swap1\n      dup2\n      mstore\n      0x20\n      add\n      0x00\n      keccak256\n        /* \"StakeFactory.sol\":15829:15835  _index */\n      dup16\n        /* \"StakeFactory.sol\":15836:15837  z */\n      dup8\n        /* \"StakeFactory.sol\":15829:15838  _index[z] */\n      dup2\n      mload\n      dup2\n      lt\n      tag_497\n      jumpi\n      tag_497\n      tag_277\n      jump\t// in\n    tag_497:\n      0x20\n      mul\n      0x20\n      add\n      add\n      mload\n        /* \"StakeFactory.sol\":15804:15839  lockableDays[msg.sender][_index[z]] */\n      dup2\n      sload\n      dup2\n      lt\n      tag_499\n      jumpi\n      tag_499\n      tag_277\n      jump\t// in\n    tag_499:\n      swap1\n      0x00\n      mstore\n      keccak256(0x00, 0x20)\n      add\n      sload\n        /* \"StakeFactory.sol\":15793:15840  allocation[lockableDays[msg.sender][_index[z]]] */\n      dup2\n      mstore\n      0x20\n      add\n      swap1\n      dup2\n      mstore\n      0x20\n      add\n      0x00\n      keccak256\n      sload\n        /* \"StakeFactory.sol\":15754:15767  depositeToken */\n      0x07\n        /* \"StakeFactory.sol\":15754:15779  depositeToken[msg.sender] */\n      0x00\n        /* \"StakeFactory.sol\":15768:15778  msg.sender */\n      caller\n      sub(shl(0xa0, 0x01), 0x01)\n        /* \"StakeFactory.sol\":15754:15779  depositeToken[msg.sender] */\n      and\n      sub(shl(0xa0, 0x01), 0x01)\n      and\n      dup2\n      mstore\n      0x20\n      add\n      swap1\n      dup2\n      mstore\n      0x20\n      add\n      0x00\n      keccak256\n        /* \"StakeFactory.sol\":15780:15786  _index */\n      dup15\n        /* \"StakeFactory.sol\":15787:15788  z */\n      dup7\n        /* \"StakeFactory.sol\":15780:15789  _index[z] */\n      dup2\n      mload\n      dup2\n      lt\n      tag_502\n      jumpi\n      tag_502\n      tag_277\n      jump\t// in\n    tag_502:\n      0x20\n      mul\n      0x20\n      add\n      add\n      mload\n        /* \"StakeFactory.sol\":15754:15790  depositeToken[msg.sender][_index[z]] */\n      dup2\n      sload\n      dup2\n      lt\n      tag_504\n      jumpi\n      tag_504\n      tag_277\n      jump\t// in\n    tag_504:\n      swap1\n      0x00\n      mstore\n      keccak256(0x00, 0x20)\n      add\n      sload\n        /* \"StakeFactory.sol\":15754:15840  depositeToken[msg.sender][_index[z]] * allocation[lockableDays[msg.sender][_index[z]]] */\n      tag_506\n      swap2\n      swap1\n      tag_280\n      jump\t// in\n    tag_506:\n        /* \"StakeFactory.sol\":15753:15849  (depositeToken[msg.sender][_index[z]] * allocation[lockableDays[msg.sender][_index[z]]]) / 10000 */\n      tag_507\n      swap2\n      swap1\n      tag_295\n      jump\t// in\n    tag_507:\n        /* \"StakeFactory.sol\":15894:15914  depositTokenDecimals */\n      sload(0x03)\n        /* \"StakeFactory.sol\":15736:15849  uint256 reward = (depositeToken[msg.sender][_index[z]] * allocation[lockableDays[msg.sender][_index[z]]]) / 10000 */\n      swap1\n      swap2\n      pop\n        /* \"StakeFactory.sol\":15882:15915  10**uint256(depositTokenDecimals) */\n      tag_508\n      swap1\n      shl(0xa8, 0x01)\n        /* \"StakeFactory.sol\":15894:15914  depositTokenDecimals */\n      swap1\n      div\n      0xff\n      and\n        /* \"StakeFactory.sol\":15882:15884  10 */\n      0x0a\n        /* \"StakeFactory.sol\":15882:15915  10**uint256(depositTokenDecimals) */\n      tag_297\n      jump\t// in\n    tag_508:\n        /* \"StakeFactory.sol\":15872:15915  reward /= 10**uint256(depositTokenDecimals) */\n      tag_509\n      swap1\n      dup3\n      tag_295\n      jump\t// in\n    tag_509:\n      swap1\n      pop\n        /* \"StakeFactory.sol\":15962:15983  totalReward += reward */\n      tag_510\n        /* \"StakeFactory.sol\":15872:15915  reward /= 10**uint256(depositTokenDecimals) */\n      dup2\n        /* \"StakeFactory.sol\":15962:15983  totalReward += reward */\n      dup9\n      tag_285\n      jump\t// in\n    tag_510:\n        /* \"StakeFactory.sol\":16043:16053  msg.sender */\n      caller\n        /* \"StakeFactory.sol\":16029:16054  depositeToken[msg.sender] */\n      0x00\n      swap1\n      dup2\n      mstore\n        /* \"StakeFactory.sol\":16029:16042  depositeToken */\n      0x07\n        /* \"StakeFactory.sol\":16029:16054  depositeToken[msg.sender] */\n      0x20\n      mstore\n      0x40\n      swap1\n      keccak256\n        /* \"StakeFactory.sol\":16055:16064  _index[z] */\n      dup14\n      mload\n        /* \"StakeFactory.sol\":15962:15983  totalReward += reward */\n      swap2\n      swap9\n      pop\n        /* \"StakeFactory.sol\":16029:16054  depositeToken[msg.sender] */\n      swap1\n        /* \"StakeFactory.sol\":16055:16061  _index */\n      dup14\n      swap1\n        /* \"StakeFactory.sol\":16062:16063  z */\n      dup6\n      swap1\n        /* \"StakeFactory.sol\":16055:16064  _index[z] */\n      dup2\n      lt\n      tag_512\n      jumpi\n      tag_512\n      tag_277\n      jump\t// in\n    tag_512:\n      0x20\n      mul\n      0x20\n      add\n      add\n      mload\n        /* \"StakeFactory.sol\":16029:16065  depositeToken[msg.sender][_index[z]] */\n      dup2\n      sload\n      dup2\n      lt\n      tag_514\n      jumpi\n      tag_514\n      tag_277\n      jump\t// in\n    tag_514:\n      swap1\n      0x00\n      mstore\n      keccak256(0x00, 0x20)\n      add\n      sload\n        /* \"StakeFactory.sol\":16006:16065  totalWithdrawAmount += depositeToken[msg.sender][_index[z]] */\n      dup9\n      tag_516\n      swap2\n      swap1\n      tag_285\n      jump\t// in\n    tag_516:\n      swap8\n      pop\n        /* \"StakeFactory.sol\":15713:16085  {... */\n      pop\n        /* \"StakeFactory.sol\":15687:16568  if (blockTime > lockTime) {... */\n      jump(tag_517)\n    tag_495:\n        /* \"StakeFactory.sol\":16150:16169  deductionPercentage */\n      sload(0x11)\n        /* \"StakeFactory.sol\":16114:16123  uint256 a */\n      0x00\n      swap1\n        /* \"StakeFactory.sol\":16150:16173  deductionPercentage > 0 */\n      iszero\n        /* \"StakeFactory.sol\":16146:16363  if (deductionPercentage > 0) {... */\n      tag_518\n      jumpi\n        /* \"StakeFactory.sol\":16246:16265  deductionPercentage */\n      sload(0x11)\n        /* \"StakeFactory.sol\":16221:16231  msg.sender */\n      caller\n        /* \"StakeFactory.sol\":16207:16232  depositeToken[msg.sender] */\n      0x00\n      swap1\n      dup2\n      mstore\n        /* \"StakeFactory.sol\":16207:16220  depositeToken */\n      0x07\n        /* \"StakeFactory.sol\":16207:16232  depositeToken[msg.sender] */\n      0x20\n      mstore\n      0x40\n      swap1\n      keccak256\n        /* \"StakeFactory.sol\":16233:16242  _index[z] */\n      dup14\n      mload\n        /* \"StakeFactory.sol\":16269:16274  10000 */\n      0x2710\n      swap3\n        /* \"StakeFactory.sol\":16246:16265  deductionPercentage */\n      swap2\n        /* \"StakeFactory.sol\":16207:16232  depositeToken[msg.sender] */\n      swap1\n        /* \"StakeFactory.sol\":16233:16239  _index */\n      dup16\n      swap1\n        /* \"StakeFactory.sol\":16240:16241  z */\n      dup8\n      swap1\n        /* \"StakeFactory.sol\":16233:16242  _index[z] */\n      dup2\n      lt\n      tag_520\n      jumpi\n      tag_520\n      tag_277\n      jump\t// in\n    tag_520:\n      0x20\n      mul\n      0x20\n      add\n      add\n      mload\n        /* \"StakeFactory.sol\":16207:16243  depositeToken[msg.sender][_index[z]] */\n      dup2\n      sload\n      dup2\n      lt\n      tag_522\n      jumpi\n      tag_522\n      tag_277\n      jump\t// in\n    tag_522:\n      swap1\n      0x00\n      mstore\n      keccak256(0x00, 0x20)\n      add\n      sload\n        /* \"StakeFactory.sol\":16207:16265  depositeToken[msg.sender][_index[z]] * deductionPercentage */\n      tag_524\n      swap2\n      swap1\n      tag_280\n      jump\t// in\n    tag_524:\n        /* \"StakeFactory.sol\":16206:16274  (depositeToken[msg.sender][_index[z]] * deductionPercentage) / 10000 */\n      tag_525\n      swap2\n      swap1\n      tag_295\n      jump\t// in\n    tag_525:\n        /* \"StakeFactory.sol\":16318:16338  depositTokenDecimals */\n      sload(0x03)\n        /* \"StakeFactory.sol\":16202:16274  a = (depositeToken[msg.sender][_index[z]] * deductionPercentage) / 10000 */\n      swap1\n      swap2\n      pop\n        /* \"StakeFactory.sol\":16306:16339  10**uint256(depositTokenDecimals) */\n      tag_526\n      swap1\n      shl(0xa8, 0x01)\n        /* \"StakeFactory.sol\":16318:16338  depositTokenDecimals */\n      swap1\n      div\n      0xff\n      and\n        /* \"StakeFactory.sol\":16306:16308  10 */\n      0x0a\n        /* \"StakeFactory.sol\":16306:16339  10**uint256(depositTokenDecimals) */\n      tag_297\n      jump\t// in\n    tag_526:\n        /* \"StakeFactory.sol\":16301:16339  a /= 10**uint256(depositTokenDecimals) */\n      tag_527\n      swap1\n      dup3\n      tag_295\n      jump\t// in\n    tag_527:\n      swap1\n      pop\n        /* \"StakeFactory.sol\":16146:16363  if (deductionPercentage > 0) {... */\n    tag_518:\n        /* \"StakeFactory.sol\":16411:16421  msg.sender */\n      caller\n        /* \"StakeFactory.sol\":16385:16394  uint256 b */\n      0x00\n        /* \"StakeFactory.sol\":16397:16422  depositeToken[msg.sender] */\n      swap1\n      dup2\n      mstore\n        /* \"StakeFactory.sol\":16397:16410  depositeToken */\n      0x07\n        /* \"StakeFactory.sol\":16397:16422  depositeToken[msg.sender] */\n      0x20\n      mstore\n      0x40\n      dup2\n      keccak256\n        /* \"StakeFactory.sol\":16423:16432  _index[z] */\n      dup14\n      mload\n        /* \"StakeFactory.sol\":16436:16437  a */\n      dup4\n      swap2\n        /* \"StakeFactory.sol\":16397:16422  depositeToken[msg.sender] */\n      swap1\n        /* \"StakeFactory.sol\":16423:16429  _index */\n      dup16\n      swap1\n        /* \"StakeFactory.sol\":16430:16431  z */\n      dup8\n      swap1\n        /* \"StakeFactory.sol\":16423:16432  _index[z] */\n      dup2\n      lt\n      tag_529\n      jumpi\n      tag_529\n      tag_277\n      jump\t// in\n    tag_529:\n      0x20\n      mul\n      0x20\n      add\n      add\n      mload\n        /* \"StakeFactory.sol\":16397:16433  depositeToken[msg.sender][_index[z]] */\n      dup2\n      sload\n      dup2\n      lt\n      tag_531\n      jumpi\n      tag_531\n      tag_277\n      jump\t// in\n    tag_531:\n      swap1\n      0x00\n      mstore\n      keccak256(0x00, 0x20)\n      add\n      sload\n        /* \"StakeFactory.sol\":16397:16437  depositeToken[msg.sender][_index[z]] - a */\n      tag_533\n      swap2\n      swap1\n      tag_316\n      jump\t// in\n    tag_533:\n        /* \"StakeFactory.sol\":16385:16437  uint256 b = depositeToken[msg.sender][_index[z]] - a */\n      swap1\n      pop\n        /* \"StakeFactory.sol\":16462:16486  totalWithdrawAmount += b */\n      tag_534\n        /* \"StakeFactory.sol\":16385:16437  uint256 b = depositeToken[msg.sender][_index[z]] - a */\n      dup2\n        /* \"StakeFactory.sol\":16462:16486  totalWithdrawAmount += b */\n      dup11\n      tag_285\n      jump\t// in\n    tag_534:\n      swap9\n      pop\n        /* \"StakeFactory.sol\":16531:16548  deductionFee += a */\n      tag_535\n        /* \"StakeFactory.sol\":16547:16548  a */\n      dup3\n        /* \"StakeFactory.sol\":16531:16548  deductionFee += a */\n      dup9\n      tag_285\n      jump\t// in\n    tag_535:\n      swap7\n      pop\n        /* \"StakeFactory.sol\":16091:16568  {... */\n      pop\n      pop\n        /* \"StakeFactory.sol\":15687:16568  if (blockTime > lockTime) {... */\n    tag_517:\n        /* \"StakeFactory.sol\":16644:16654  msg.sender */\n      caller\n        /* \"StakeFactory.sol\":16630:16655  depositeToken[msg.sender] */\n      0x00\n      swap1\n      dup2\n      mstore\n        /* \"StakeFactory.sol\":16630:16643  depositeToken */\n      0x07\n        /* \"StakeFactory.sol\":16630:16655  depositeToken[msg.sender] */\n      0x20\n      mstore\n      0x40\n      swap1\n      keccak256\n        /* \"StakeFactory.sol\":16656:16665  _index[z] */\n      dup12\n      mload\n        /* \"StakeFactory.sol\":16656:16662  _index */\n      dup13\n      swap1\n        /* \"StakeFactory.sol\":16663:16664  z */\n      dup5\n      swap1\n        /* \"StakeFactory.sol\":16656:16665  _index[z] */\n      dup2\n      lt\n      tag_537\n      jumpi\n      tag_537\n      tag_277\n      jump\t// in\n    tag_537:\n      0x20\n      mul\n      0x20\n      add\n      add\n      mload\n        /* \"StakeFactory.sol\":16630:16666  depositeToken[msg.sender][_index[z]] */\n      dup2\n      sload\n      dup2\n      lt\n      tag_539\n      jumpi\n      tag_539\n      tag_277\n      jump\t// in\n    tag_539:\n      swap1\n      0x00\n      mstore\n      keccak256(0x00, 0x20)\n      add\n      sload\n        /* \"StakeFactory.sol\":16586:16602  lockPeriodParams */\n      0x05\n        /* \"StakeFactory.sol\":16586:16613  lockPeriodParams[_index[z]] */\n      0x00\n        /* \"StakeFactory.sol\":16603:16609  _index */\n      dup14\n        /* \"StakeFactory.sol\":16610:16611  z */\n      dup6\n        /* \"StakeFactory.sol\":16603:16612  _index[z] */\n      dup2\n      mload\n      dup2\n      lt\n      tag_542\n      jumpi\n      tag_542\n      tag_277\n      jump\t// in\n    tag_542:\n      0x20\n      mul\n      0x20\n      add\n      add\n      mload\n        /* \"StakeFactory.sol\":16586:16613  lockPeriodParams[_index[z]] */\n      dup2\n      mstore\n      0x20\n      add\n      swap1\n      dup2\n      mstore\n      0x20\n      add\n      0x00\n      keccak256\n        /* \"StakeFactory.sol\":16586:16626  lockPeriodParams[_index[z]].stakedAmount */\n      0x08\n      add\n      0x00\n        /* \"StakeFactory.sol\":16586:16666  lockPeriodParams[_index[z]].stakedAmount -= depositeToken[msg.sender][_index[z]] */\n      dup3\n      dup3\n      sload\n      tag_543\n      swap2\n      swap1\n      tag_316\n      jump\t// in\n    tag_543:\n      swap1\n      swap2\n      sstore\n      pop\n      pop\n        /* \"StakeFactory.sol\":16718:16728  msg.sender */\n      caller\n        /* \"StakeFactory.sol\":16704:16729  depositeToken[msg.sender] */\n      0x00\n      swap1\n      dup2\n      mstore\n        /* \"StakeFactory.sol\":16704:16717  depositeToken */\n      0x07\n        /* \"StakeFactory.sol\":16704:16729  depositeToken[msg.sender] */\n      0x20\n      mstore\n      0x40\n      swap1\n      keccak256\n        /* \"StakeFactory.sol\":16730:16739  _index[z] */\n      dup12\n      mload\n        /* \"StakeFactory.sol\":16730:16736  _index */\n      dup13\n      swap1\n        /* \"StakeFactory.sol\":16737:16738  z */\n      dup5\n      swap1\n        /* \"StakeFactory.sol\":16730:16739  _index[z] */\n      dup2\n      lt\n      tag_545\n      jumpi\n      tag_545\n      tag_277\n      jump\t// in\n    tag_545:\n      0x20\n      mul\n      0x20\n      add\n      add\n      mload\n        /* \"StakeFactory.sol\":16704:16740  depositeToken[msg.sender][_index[z]] */\n      dup2\n      sload\n      dup2\n      lt\n      tag_547\n      jumpi\n      tag_547\n      tag_277\n      jump\t// in\n    tag_547:\n      swap1\n      0x00\n      mstore\n      keccak256(0x00, 0x20)\n      add\n      sload\n        /* \"StakeFactory.sol\":16685:16740  depositedTokens -= depositeToken[msg.sender][_index[z]] */\n      dup5\n      tag_549\n      swap2\n      swap1\n      tag_316\n      jump\t// in\n    tag_549:\n      swap4\n      pop\n        /* \"StakeFactory.sol\":15546:16756  {... */\n      pop\n        /* \"StakeFactory.sol\":15500:16756  if (depositeToken[msg.sender][_index[z]] > 0) {... */\n    tag_482:\n        /* \"StakeFactory.sol\":15403:15406  z++ */\n      0x01\n      add\n        /* \"StakeFactory.sol\":15364:16767  for (uint256 z = 0; z < _index.length; z++) {... */\n      jump(tag_474)\n    tag_475:\n      pop\n        /* \"StakeFactory.sol\":16862:16871  uint256 t */\n      0x00\n        /* \"StakeFactory.sol\":16857:17396  for (uint256 t = 0; t < _index.length; t++) {... */\n    tag_550:\n        /* \"StakeFactory.sol\":16881:16887  _index */\n      dup10\n        /* \"StakeFactory.sol\":16881:16894  _index.length */\n      mload\n        /* \"StakeFactory.sol\":16877:16878  t */\n      dup2\n        /* \"StakeFactory.sol\":16877:16894  t < _index.length */\n      lt\n        /* \"StakeFactory.sol\":16857:17396  for (uint256 t = 0; t < _index.length; t++) {... */\n      iszero\n      tag_551\n      jumpi\n        /* \"StakeFactory.sol\":16921:16930  uint256 i */\n      0x00\n        /* \"StakeFactory.sol\":16933:16939  _index */\n      dup11\n        /* \"StakeFactory.sol\":16940:16941  t */\n      dup3\n        /* \"StakeFactory.sol\":16933:16942  _index[t] */\n      dup2\n      mload\n      dup2\n      lt\n      tag_557\n      jumpi\n      tag_557\n      tag_277\n      jump\t// in\n    tag_557:\n      0x20\n      mul\n      0x20\n      add\n      add\n      mload\n        /* \"StakeFactory.sol\":16921:16942  uint256 i = _index[t] */\n      swap1\n      pop\n        /* \"StakeFactory.sol\":16916:17249  for (uint256 i = _index[t]; i < depositeToken[msg.sender].length - 1; i++) {... */\n    tag_553:\n        /* \"StakeFactory.sol\":16962:16972  msg.sender */\n      caller\n        /* \"StakeFactory.sol\":16948:16973  depositeToken[msg.sender] */\n      0x00\n      swap1\n      dup2\n      mstore\n        /* \"StakeFactory.sol\":16948:16961  depositeToken */\n      0x07\n        /* \"StakeFactory.sol\":16948:16973  depositeToken[msg.sender] */\n      0x20\n      mstore\n      0x40\n      swap1\n      keccak256\n        /* \"StakeFactory.sol\":16948:16980  depositeToken[msg.sender].length */\n      sload\n        /* \"StakeFactory.sol\":16948:16984  depositeToken[msg.sender].length - 1 */\n      tag_558\n      swap1\n        /* \"StakeFactory.sol\":16983:16984  1 */\n      0x01\n      swap1\n        /* \"StakeFactory.sol\":16948:16984  depositeToken[msg.sender].length - 1 */\n      tag_316\n      jump\t// in\n    tag_558:\n        /* \"StakeFactory.sol\":16944:16945  i */\n      dup2\n        /* \"StakeFactory.sol\":16944:16984  i < depositeToken[msg.sender].length - 1 */\n      lt\n        /* \"StakeFactory.sol\":16916:17249  for (uint256 i = _index[t]; i < depositeToken[msg.sender].length - 1; i++) {... */\n      iszero\n      tag_554\n      jumpi\n        /* \"StakeFactory.sol\":17055:17065  msg.sender */\n      caller\n        /* \"StakeFactory.sol\":17041:17066  depositeToken[msg.sender] */\n      0x00\n      swap1\n      dup2\n      mstore\n        /* \"StakeFactory.sol\":17041:17054  depositeToken */\n      0x07\n        /* \"StakeFactory.sol\":17041:17066  depositeToken[msg.sender] */\n      0x20\n      mstore\n      0x40\n      swap1\n      keccak256\n        /* \"StakeFactory.sol\":17067:17072  i + 1 */\n      tag_559\n        /* \"StakeFactory.sol\":17067:17068  i */\n      dup3\n        /* \"StakeFactory.sol\":17071:17072  1 */\n      0x01\n        /* \"StakeFactory.sol\":17067:17072  i + 1 */\n      tag_285\n      jump\t// in\n    tag_559:\n        /* \"StakeFactory.sol\":17041:17073  depositeToken[msg.sender][i + 1] */\n      dup2\n      sload\n      dup2\n      lt\n      tag_561\n      jumpi\n      tag_561\n      tag_277\n      jump\t// in\n    tag_561:\n      0x00\n      swap2\n      dup3\n      mstore\n      0x20\n      dup1\n      dup4\n      keccak256\n      swap1\n      swap2\n      add\n      sload\n        /* \"StakeFactory.sol\":17024:17034  msg.sender */\n      caller\n        /* \"StakeFactory.sol\":17010:17035  depositeToken[msg.sender] */\n      dup4\n      mstore\n        /* \"StakeFactory.sol\":17010:17023  depositeToken */\n      0x07\n        /* \"StakeFactory.sol\":17010:17035  depositeToken[msg.sender] */\n      swap1\n      swap2\n      mstore\n      0x40\n      swap1\n      swap2\n      keccak256\n        /* \"StakeFactory.sol\":17010:17038  depositeToken[msg.sender][i] */\n      dup1\n      sload\n        /* \"StakeFactory.sol\":17036:17037  i */\n      dup4\n      swap1\n        /* \"StakeFactory.sol\":17010:17038  depositeToken[msg.sender][i] */\n      dup2\n      lt\n      tag_564\n      jumpi\n      tag_564\n      tag_277\n      jump\t// in\n    tag_564:\n      0x00\n      swap2\n      dup3\n      mstore\n      0x20\n      dup1\n      dup4\n      keccak256\n      swap1\n      swap2\n      add\n        /* \"StakeFactory.sol\":17010:17073  depositeToken[msg.sender][i] = depositeToken[msg.sender][i + 1] */\n      swap3\n      swap1\n      swap3\n      sstore\n        /* \"StakeFactory.sol\":17135:17145  msg.sender */\n      caller\n        /* \"StakeFactory.sol\":17122:17146  lockableDays[msg.sender] */\n      dup2\n      mstore\n        /* \"StakeFactory.sol\":17122:17134  lockableDays */\n      0x09\n        /* \"StakeFactory.sol\":17122:17146  lockableDays[msg.sender] */\n      swap1\n      swap2\n      mstore\n      0x40\n      swap1\n      keccak256\n        /* \"StakeFactory.sol\":17147:17152  i + 1 */\n      tag_566\n        /* \"StakeFactory.sol\":17147:17148  i */\n      dup3\n        /* \"StakeFactory.sol\":17151:17152  1 */\n      0x01\n        /* \"StakeFactory.sol\":17147:17152  i + 1 */\n      tag_285\n      jump\t// in\n    tag_566:\n        /* \"StakeFactory.sol\":17122:17153  lockableDays[msg.sender][i + 1] */\n      dup2\n      sload\n      dup2\n      lt\n      tag_568\n      jumpi\n      tag_568\n      tag_277\n      jump\t// in\n    tag_568:\n      0x00\n      swap2\n      dup3\n      mstore\n      0x20\n      dup1\n      dup4\n      keccak256\n      swap1\n      swap2\n      add\n      sload\n        /* \"StakeFactory.sol\":17105:17115  msg.sender */\n      caller\n        /* \"StakeFactory.sol\":17092:17116  lockableDays[msg.sender] */\n      dup4\n      mstore\n        /* \"StakeFactory.sol\":17092:17104  lockableDays */\n      0x09\n        /* \"StakeFactory.sol\":17092:17116  lockableDays[msg.sender] */\n      swap1\n      swap2\n      mstore\n      0x40\n      swap1\n      swap2\n      keccak256\n        /* \"StakeFactory.sol\":17092:17119  lockableDays[msg.sender][i] */\n      dup1\n      sload\n        /* \"StakeFactory.sol\":17117:17118  i */\n      dup4\n      swap1\n        /* \"StakeFactory.sol\":17092:17119  lockableDays[msg.sender][i] */\n      dup2\n      lt\n      tag_571\n      jumpi\n      tag_571\n      tag_277\n      jump\t// in\n    tag_571:\n      0x00\n      swap2\n      dup3\n      mstore\n      0x20\n      dup1\n      dup4\n      keccak256\n      swap1\n      swap2\n      add\n        /* \"StakeFactory.sol\":17092:17153  lockableDays[msg.sender][i] = lockableDays[msg.sender][i + 1] */\n      swap3\n      swap1\n      swap3\n      sstore\n        /* \"StakeFactory.sol\":17215:17225  msg.sender */\n      caller\n        /* \"StakeFactory.sol\":17202:17226  depositeTime[msg.sender] */\n      dup2\n      mstore\n        /* \"StakeFactory.sol\":17202:17214  depositeTime */\n      0x0a\n        /* \"StakeFactory.sol\":17202:17226  depositeTime[msg.sender] */\n      swap1\n      swap2\n      mstore\n      0x40\n      swap1\n      keccak256\n        /* \"StakeFactory.sol\":17227:17232  i + 1 */\n      tag_573\n        /* \"StakeFactory.sol\":17227:17228  i */\n      dup3\n        /* \"StakeFactory.sol\":17231:17232  1 */\n      0x01\n        /* \"StakeFactory.sol\":17227:17232  i + 1 */\n      tag_285\n      jump\t// in\n    tag_573:\n        /* \"StakeFactory.sol\":17202:17233  depositeTime[msg.sender][i + 1] */\n      dup2\n      sload\n      dup2\n      lt\n      tag_575\n      jumpi\n      tag_575\n      tag_277\n      jump\t// in\n    tag_575:\n      0x00\n      swap2\n      dup3\n      mstore\n      0x20\n      dup1\n      dup4\n      keccak256\n      swap1\n      swap2\n      add\n      sload\n        /* \"StakeFactory.sol\":17185:17195  msg.sender */\n      caller\n        /* \"StakeFactory.sol\":17172:17196  depositeTime[msg.sender] */\n      dup4\n      mstore\n        /* \"StakeFactory.sol\":17172:17184  depositeTime */\n      0x0a\n        /* \"StakeFactory.sol\":17172:17196  depositeTime[msg.sender] */\n      swap1\n      swap2\n      mstore\n      0x40\n      swap1\n      swap2\n      keccak256\n        /* \"StakeFactory.sol\":17172:17199  depositeTime[msg.sender][i] */\n      dup1\n      sload\n        /* \"StakeFactory.sol\":17197:17198  i */\n      dup4\n      swap1\n        /* \"StakeFactory.sol\":17172:17199  depositeTime[msg.sender][i] */\n      dup2\n      lt\n      tag_578\n      jumpi\n      tag_578\n      tag_277\n      jump\t// in\n    tag_578:\n      0x00\n      swap2\n      dup3\n      mstore\n      0x20\n      swap1\n      swap2\n      keccak256\n      add\n        /* \"StakeFactory.sol\":17172:17233  depositeTime[msg.sender][i] = depositeTime[msg.sender][i + 1] */\n      sstore\n        /* \"StakeFactory.sol\":16986:16989  i++ */\n      0x01\n      add\n        /* \"StakeFactory.sol\":16916:17249  for (uint256 i = _index[t]; i < depositeToken[msg.sender].length - 1; i++) {... */\n      jump(tag_553)\n    tag_554:\n      pop\n        /* \"StakeFactory.sol\":17277:17287  msg.sender */\n      caller\n        /* \"StakeFactory.sol\":17263:17288  depositeToken[msg.sender] */\n      0x00\n      swap1\n      dup2\n      mstore\n        /* \"StakeFactory.sol\":17263:17276  depositeToken */\n      0x07\n        /* \"StakeFactory.sol\":17263:17288  depositeToken[msg.sender] */\n      0x20\n      mstore\n      0x40\n      swap1\n      keccak256\n        /* \"StakeFactory.sol\":17263:17294  depositeToken[msg.sender].pop() */\n      dup1\n      sload\n      dup1\n      tag_581\n      jumpi\n      tag_581\n      tag_362\n      jump\t// in\n    tag_581:\n      0x00\n      dup3\n      dup2\n      mstore\n      0x20\n      dup1\n      dup3\n      keccak256\n      dup4\n      add\n      not(0x00)\n      swap1\n      dup2\n      add\n      dup4\n      swap1\n      sstore\n      swap1\n      swap3\n      add\n      swap1\n      swap3\n      sstore\n        /* \"StakeFactory.sol\":17322:17332  msg.sender */\n      caller\n        /* \"StakeFactory.sol\":17309:17333  lockableDays[msg.sender] */\n      dup3\n      mstore\n        /* \"StakeFactory.sol\":17309:17321  lockableDays */\n      0x09\n        /* \"StakeFactory.sol\":17309:17333  lockableDays[msg.sender] */\n      swap1\n      mstore\n      0x40\n      swap1\n      keccak256\n        /* \"StakeFactory.sol\":17309:17339  lockableDays[msg.sender].pop() */\n      dup1\n      sload\n      dup1\n      tag_584\n      jumpi\n      tag_584\n      tag_362\n      jump\t// in\n    tag_584:\n      0x00\n      dup3\n      dup2\n      mstore\n      0x20\n      dup1\n      dup3\n      keccak256\n      dup4\n      add\n      not(0x00)\n      swap1\n      dup2\n      add\n      dup4\n      swap1\n      sstore\n      swap1\n      swap3\n      add\n      swap1\n      swap3\n      sstore\n        /* \"StakeFactory.sol\":17367:17377  msg.sender */\n      caller\n        /* \"StakeFactory.sol\":17354:17378  depositeTime[msg.sender] */\n      dup3\n      mstore\n        /* \"StakeFactory.sol\":17354:17366  depositeTime */\n      0x0a\n        /* \"StakeFactory.sol\":17354:17378  depositeTime[msg.sender] */\n      swap1\n      mstore\n      0x40\n      swap1\n      keccak256\n        /* \"StakeFactory.sol\":17354:17384  depositeTime[msg.sender].pop() */\n      dup1\n      sload\n      dup1\n      tag_587\n      jumpi\n      tag_587\n      tag_362\n      jump\t// in\n    tag_587:\n      0x00\n      dup3\n      dup2\n      mstore\n      0x20\n      dup2\n      keccak256\n      dup3\n      add\n      not(0x00)\n      swap1\n      dup2\n      add\n      swap2\n      swap1\n      swap2\n      sstore\n      add\n      swap1\n      sstore\n      0x01\n        /* \"StakeFactory.sol\":16896:16899  t++ */\n      add\n        /* \"StakeFactory.sol\":16857:17396  for (uint256 t = 0; t < _index.length; t++) {... */\n      jump(tag_550)\n    tag_551:\n      pop\n        /* \"StakeFactory.sol\":17422:17445  totalWithdrawAmount > 0 */\n      dup5\n      iszero\n        /* \"StakeFactory.sol\":17418:17557  if (totalWithdrawAmount > 0) {... */\n      tag_589\n      jumpi\n        /* \"StakeFactory.sol\":17462:17467  Token */\n      sload(0x02)\n        /* \"StakeFactory.sol\":17523:17543  depositTokenDecimals */\n      sload(0x03)\n      sub(shl(0xa0, 0x01), 0x01)\n        /* \"StakeFactory.sol\":17462:17467  Token */\n      swap1\n      swap2\n      and\n      swap1\n        /* \"StakeFactory.sol\":17462:17476  Token.transfer */\n      0xa9059cbb\n      swap1\n        /* \"StakeFactory.sol\":17477:17487  msg.sender */\n      caller\n      swap1\n        /* \"StakeFactory.sol\":17511:17544  10**uint256(depositTokenDecimals) */\n      tag_590\n      swap1\n      shl(0xa8, 0x01)\n        /* \"StakeFactory.sol\":17523:17543  depositTokenDecimals */\n      swap1\n      div\n      0xff\n      and\n        /* \"StakeFactory.sol\":17511:17513  10 */\n      0x0a\n        /* \"StakeFactory.sol\":17511:17544  10**uint256(depositTokenDecimals) */\n      tag_297\n      jump\t// in\n    tag_590:\n        /* \"StakeFactory.sol\":17489:17544  totalWithdrawAmount / 10**uint256(depositTokenDecimals) */\n      tag_591\n      swap1\n        /* \"StakeFactory.sol\":17489:17508  totalWithdrawAmount */\n      dup10\n        /* \"StakeFactory.sol\":17489:17544  totalWithdrawAmount / 10**uint256(depositTokenDecimals) */\n      tag_295\n      jump\t// in\n    tag_591:\n        /* \"StakeFactory.sol\":17462:17545  Token.transfer(msg.sender, totalWithdrawAmount / 10**uint256(depositTokenDecimals)) */\n      mload(0x40)\n      not(sub(shl(0xe0, 0x01), 0x01))\n      0xe0\n      dup6\n      swap1\n      shl\n      and\n      dup2\n      mstore\n      sub(shl(0xa0, 0x01), 0x01)\n        /* \"#utility.yul\":17764:17796   */\n      swap1\n      swap3\n      and\n        /* \"StakeFactory.sol\":17462:17545  Token.transfer(msg.sender, totalWithdrawAmount / 10**uint256(depositTokenDecimals)) */\n      0x04\n      dup4\n      add\n        /* \"#utility.yul\":17746:17797   */\n      mstore\n        /* \"#utility.yul\":17813:17831   */\n      0x24\n      dup3\n      add\n        /* \"#utility.yul\":17806:17840   */\n      mstore\n        /* \"#utility.yul\":17719:17737   */\n      0x44\n      add\n        /* \"StakeFactory.sol\":17462:17545  Token.transfer(msg.sender, totalWithdrawAmount / 10**uint256(depositTokenDecimals)) */\n      0x20\n      mload(0x40)\n      dup1\n      dup4\n      sub\n      dup2\n      0x00\n      dup8\n      gas\n      call\n      iszero\n      dup1\n      iszero\n      tag_594\n      jumpi\n      returndatasize\n      0x00\n      dup1\n      returndatacopy\n      revert(0x00, returndatasize)\n    tag_594:\n      pop\n      pop\n      pop\n      pop\n      mload(0x40)\n      returndatasize\n      not(0x1f)\n      0x1f\n      dup3\n      add\n      and\n      dup3\n      add\n      dup1\n      0x40\n      mstore\n      pop\n      dup2\n      add\n      swap1\n      tag_595\n      swap2\n      swap1\n      tag_426\n      jump\t// in\n    tag_595:\n      pop\n        /* \"StakeFactory.sol\":17418:17557  if (totalWithdrawAmount > 0) {... */\n    tag_589:\n        /* \"StakeFactory.sol\":17573:17588  totalReward > 0 */\n      dup4\n      iszero\n        /* \"StakeFactory.sol\":17569:17697  if (totalReward > 0) {... */\n      tag_596\n      jumpi\n        /* \"StakeFactory.sol\":17605:17616  rewardToken */\n      sload(0x03)\n      sub(shl(0xa0, 0x01), 0x01)\n      dup2\n      and\n      swap1\n        /* \"StakeFactory.sol\":17605:17625  rewardToken.transfer */\n      0xa9059cbb\n      swap1\n        /* \"StakeFactory.sol\":17626:17636  msg.sender */\n      caller\n      swap1\n        /* \"StakeFactory.sol\":17652:17684  10**uint256(rewardTokenDecimals) */\n      tag_597\n      swap1\n      shl(0xb0, 0x01)\n        /* \"StakeFactory.sol\":17664:17683  rewardTokenDecimals */\n      swap1\n      div\n      0xff\n      and\n        /* \"StakeFactory.sol\":17652:17654  10 */\n      0x0a\n        /* \"StakeFactory.sol\":17652:17684  10**uint256(rewardTokenDecimals) */\n      tag_297\n      jump\t// in\n    tag_597:\n        /* \"StakeFactory.sol\":17638:17684  totalReward / 10**uint256(rewardTokenDecimals) */\n      tag_598\n      swap1\n        /* \"StakeFactory.sol\":17638:17649  totalReward */\n      dup9\n        /* \"StakeFactory.sol\":17638:17684  totalReward / 10**uint256(rewardTokenDecimals) */\n      tag_295\n      jump\t// in\n    tag_598:\n        /* \"StakeFactory.sol\":17605:17685  rewardToken.transfer(msg.sender, totalReward / 10**uint256(rewardTokenDecimals)) */\n      mload(0x40)\n      not(sub(shl(0xe0, 0x01), 0x01))\n      0xe0\n      dup6\n      swap1\n      shl\n      and\n      dup2\n      mstore\n      sub(shl(0xa0, 0x01), 0x01)\n        /* \"#utility.yul\":17764:17796   */\n      swap1\n      swap3\n      and\n        /* \"StakeFactory.sol\":17605:17685  rewardToken.transfer(msg.sender, totalReward / 10**uint256(rewardTokenDecimals)) */\n      0x04\n      dup4\n      add\n        /* \"#utility.yul\":17746:17797   */\n      mstore\n        /* \"#utility.yul\":17813:17831   */\n      0x24\n      dup3\n      add\n        /* \"#utility.yul\":17806:17840   */\n      mstore\n        /* \"#utility.yul\":17719:17737   */\n      0x44\n      add\n        /* \"StakeFactory.sol\":17605:17685  rewardToken.transfer(msg.sender, totalReward / 10**uint256(rewardTokenDecimals)) */\n      0x20\n      mload(0x40)\n      dup1\n      dup4\n      sub\n      dup2\n      0x00\n      dup8\n      gas\n      call\n      iszero\n      dup1\n      iszero\n      tag_601\n      jumpi\n      returndatasize\n      0x00\n      dup1\n      returndatacopy\n      revert(0x00, returndatasize)\n    tag_601:\n      pop\n      pop\n      pop\n      pop\n      mload(0x40)\n      returndatasize\n      not(0x1f)\n      0x1f\n      dup3\n      add\n      and\n      dup3\n      add\n      dup1\n      0x40\n      mstore\n      pop\n      dup2\n      add\n      swap1\n      tag_602\n      swap2\n      swap1\n      tag_426\n      jump\t// in\n    tag_602:\n      pop\n        /* \"StakeFactory.sol\":17569:17697  if (totalReward > 0) {... */\n    tag_596:\n        /* \"StakeFactory.sol\":17713:17729  deductionFee > 0 */\n      dup3\n      iszero\n        /* \"StakeFactory.sol\":17709:17835  if (deductionFee > 0) {... */\n      tag_603\n      jumpi\n        /* \"StakeFactory.sol\":17746:17751  Token */\n      sload(0x02)\n        /* \"StakeFactory.sol\":17761:17772  taxreceiver */\n      sload(0x06)\n        /* \"StakeFactory.sol\":17801:17821  depositTokenDecimals */\n      sload(0x03)\n      sub(shl(0xa0, 0x01), 0x01)\n        /* \"StakeFactory.sol\":17746:17751  Token */\n      swap3\n      dup4\n      and\n      swap3\n        /* \"StakeFactory.sol\":17746:17760  Token.transfer */\n      0xa9059cbb\n      swap3\n        /* \"StakeFactory.sol\":17761:17772  taxreceiver */\n      and\n      swap1\n        /* \"StakeFactory.sol\":17789:17822  10**uint256(depositTokenDecimals) */\n      tag_604\n      swap1\n      shl(0xa8, 0x01)\n        /* \"StakeFactory.sol\":17801:17821  depositTokenDecimals */\n      swap1\n      div\n      0xff\n      and\n        /* \"StakeFactory.sol\":17789:17791  10 */\n      0x0a\n        /* \"StakeFactory.sol\":17789:17822  10**uint256(depositTokenDecimals) */\n      tag_297\n      jump\t// in\n    tag_604:\n        /* \"StakeFactory.sol\":17774:17822  deductionFee / 10**uint256(depositTokenDecimals) */\n      tag_605\n      swap1\n        /* \"StakeFactory.sol\":17774:17786  deductionFee */\n      dup8\n        /* \"StakeFactory.sol\":17774:17822  deductionFee / 10**uint256(depositTokenDecimals) */\n      tag_295\n      jump\t// in\n    tag_605:\n        /* \"StakeFactory.sol\":17746:17823  Token.transfer(taxreceiver, deductionFee / 10**uint256(depositTokenDecimals)) */\n      mload(0x40)\n      not(sub(shl(0xe0, 0x01), 0x01))\n      0xe0\n      dup6\n      swap1\n      shl\n      and\n      dup2\n      mstore\n      sub(shl(0xa0, 0x01), 0x01)\n        /* \"#utility.yul\":17764:17796   */\n      swap1\n      swap3\n      and\n        /* \"StakeFactory.sol\":17746:17823  Token.transfer(taxreceiver, deductionFee / 10**uint256(depositTokenDecimals)) */\n      0x04\n      dup4\n      add\n        /* \"#utility.yul\":17746:17797   */\n      mstore\n        /* \"#utility.yul\":17813:17831   */\n      0x24\n      dup3\n      add\n        /* \"#utility.yul\":17806:17840   */\n      mstore\n        /* \"#utility.yul\":17719:17737   */\n      0x44\n      add\n        /* \"StakeFactory.sol\":17746:17823  Token.transfer(taxreceiver, deductionFee / 10**uint256(depositTokenDecimals)) */\n      0x20\n      mload(0x40)\n      dup1\n      dup4\n      sub\n      dup2\n      0x00\n      dup8\n      gas\n      call\n      iszero\n      dup1\n      iszero\n      tag_608\n      jumpi\n      returndatasize\n      0x00\n      dup1\n      returndatacopy\n      revert(0x00, returndatasize)\n    tag_608:\n      pop\n      pop\n      pop\n      pop\n      mload(0x40)\n      returndatasize\n      not(0x1f)\n      0x1f\n      dup3\n      add\n      and\n      dup3\n      add\n      dup1\n      0x40\n      mstore\n      pop\n      dup2\n      add\n      swap1\n      tag_609\n      swap2\n      swap1\n      tag_426\n      jump\t// in\n    tag_609:\n      pop\n        /* \"StakeFactory.sol\":17709:17835  if (deductionFee > 0) {... */\n    tag_603:\n        /* \"StakeFactory.sol\":17865:17875  msg.sender */\n      caller\n        /* \"StakeFactory.sol\":17845:17876  depositeTokensTotal[msg.sender] */\n      0x00\n      swap1\n      dup2\n      mstore\n        /* \"StakeFactory.sol\":17845:17864  depositeTokensTotal */\n      0x08\n        /* \"StakeFactory.sol\":17845:17876  depositeTokensTotal[msg.sender] */\n      0x20\n      swap1\n      dup2\n      mstore\n      0x40\n      dup1\n      dup4\n      keccak256\n        /* \"StakeFactory.sol\":17845:17894  depositeTokensTotal[msg.sender] = depositedTokens */\n      dup6\n      swap1\n      sstore\n        /* \"StakeFactory.sol\":17905:17921  withdrawedReward */\n      0x0b\n        /* \"StakeFactory.sol\":17905:17933  withdrawedReward[msg.sender] */\n      swap1\n      swap2\n      mstore\n      dup2\n      keccak256\n        /* \"StakeFactory.sol\":17905:17948  withdrawedReward[msg.sender] += totalReward */\n      dup1\n      sload\n        /* \"StakeFactory.sol\":17937:17948  totalReward */\n      dup7\n      swap3\n        /* \"StakeFactory.sol\":17845:17876  depositeTokensTotal[msg.sender] */\n      swap1\n        /* \"StakeFactory.sol\":17905:17948  withdrawedReward[msg.sender] += totalReward */\n      tag_610\n      swap1\n        /* \"StakeFactory.sol\":17937:17948  totalReward */\n      dup5\n      swap1\n        /* \"StakeFactory.sol\":17905:17948  withdrawedReward[msg.sender] += totalReward */\n      tag_285\n      jump\t// in\n    tag_610:\n      swap1\n      swap2\n      sstore\n      pop\n      pop\n        /* \"StakeFactory.sol\":17971:17981  msg.sender */\n      caller\n        /* \"StakeFactory.sol\":17959:17982  lastUpdated[msg.sender] */\n      0x00\n      swap1\n      dup2\n      mstore\n        /* \"StakeFactory.sol\":17959:17970  lastUpdated */\n      0x0c\n        /* \"StakeFactory.sol\":17959:17982  lastUpdated[msg.sender] */\n      0x20\n      mstore\n      0x40\n      swap1\n      keccak256\n        /* \"StakeFactory.sol\":17985:18000  block.timestamp */\n      timestamp\n        /* \"StakeFactory.sol\":17959:18000  lastUpdated[msg.sender] = block.timestamp */\n      swap1\n      sstore\n      pop\n      pop\n        /* \"StakeFactory.sol\":2199:2200  1 */\n      0x01\n        /* \"StakeFactory.sol\":3321:3343  _status = _NOT_ENTERED */\n      dup1\n      sstore\n        /* \"StakeFactory.sol\":18021:18040  totalWithdrawAmount */\n      swap2\n      swap7\n        /* \"StakeFactory.sol\":18042:18053  totalReward */\n      swap1\n      swap6\n      pop\n        /* \"StakeFactory.sol\":18021:18040  totalWithdrawAmount */\n      swap1\n      swap4\n      pop\n        /* \"StakeFactory.sol\":14873:18076  function harwest(uint256[] memory _index) external whenNotPaused nonReentrant returns (... */\n      swap2\n      pop\n      pop\n      jump\t// out\n        /* \"StakeFactory.sol\":23878:23992  function setTaxReceiver(address _newTaxReceiver) public onlyOwner {... */\n    tag_233:\n        /* \"StakeFactory.sol\":7912:7918  _owner */\n      and(sub(shl(0xa0, 0x01), 0x01), sload(0x00))\n        /* \"StakeFactory.sol\":7922:7932  msg.sender */\n      caller\n        /* \"StakeFactory.sol\":7912:7932  _owner == msg.sender */\n      eq\n        /* \"StakeFactory.sol\":7904:7969  require(_owner == msg.sender, \"Ownable: caller is not the owner\") */\n      tag_614\n      jumpi\n      mload(0x40)\n      shl(0xe5, 0x461bcd)\n      dup2\n      mstore\n      0x04\n      add\n      tag_261\n      swap1\n      tag_262\n      jump\t// in\n    tag_614:\n        /* \"StakeFactory.sol\":23955:23966  taxreceiver */\n      0x06\n        /* \"StakeFactory.sol\":23955:23984  taxreceiver = _newTaxReceiver */\n      dup1\n      sload\n      not(sub(shl(0xa0, 0x01), 0x01))\n      and\n      sub(shl(0xa0, 0x01), 0x01)\n      swap3\n      swap1\n      swap3\n      and\n      swap2\n      swap1\n      swap2\n      or\n      swap1\n      sstore\n        /* \"StakeFactory.sol\":23878:23992  function setTaxReceiver(address _newTaxReceiver) public onlyOwner {... */\n      jump\t// out\n        /* \"StakeFactory.sol\":21059:21431  function getLockPeriodsInfo() external view returns (LockPeriodParams[] memory ret) {... */\n    tag_236:\n        /* \"StakeFactory.sol\":21158:21176  allowedLockPeriods */\n      0x13\n        /* \"StakeFactory.sol\":21158:21183  allowedLockPeriods.length */\n      sload\n        /* \"StakeFactory.sol\":21112:21141  LockPeriodParams[] memory ret */\n      0x60\n      swap1\n        /* \"StakeFactory.sol\":21158:21187  allowedLockPeriods.length > 0 */\n      iszero\n        /* \"StakeFactory.sol\":21154:21424  if (allowedLockPeriods.length > 0) {... */\n      tag_618\n      jumpi\n        /* \"StakeFactory.sol\":21233:21251  allowedLockPeriods */\n      0x13\n        /* \"StakeFactory.sol\":21233:21258  allowedLockPeriods.length */\n      sload\n        /* \"StakeFactory.sol\":21210:21259  new LockPeriodParams[](allowedLockPeriods.length) */\n      0xffffffffffffffff\n      dup2\n      gt\n      iszero\n      tag_620\n      jumpi\n      tag_620\n      tag_319\n      jump\t// in\n    tag_620:\n      mload(0x40)\n      swap1\n      dup1\n      dup3\n      mstore\n      dup1\n      0x20\n      mul\n      0x20\n      add\n      dup3\n      add\n      0x40\n      mstore\n      dup1\n      iszero\n      tag_621\n      jumpi\n      dup2\n      0x20\n      add\n    tag_622:\n      tag_623\n      tag_301\n      jump\t// in\n    tag_623:\n      dup2\n      mstore\n      0x20\n      add\n      swap1\n      0x01\n      swap1\n      sub\n      swap1\n      dup2\n      tag_622\n      jumpi\n      swap1\n      pop\n    tag_621:\n      pop\n        /* \"StakeFactory.sol\":21204:21259  ret = new LockPeriodParams[](allowedLockPeriods.length) */\n      swap1\n      pop\n        /* \"StakeFactory.sol\":21279:21288  uint256 i */\n      0x00\n        /* \"StakeFactory.sol\":21274:21413  for (uint256 i = 0; i < allowedLockPeriods.length; i++) {... */\n    tag_624:\n        /* \"StakeFactory.sol\":21298:21316  allowedLockPeriods */\n      0x13\n        /* \"StakeFactory.sol\":21298:21323  allowedLockPeriods.length */\n      sload\n        /* \"StakeFactory.sol\":21294:21323  i < allowedLockPeriods.length */\n      dup2\n      lt\n        /* \"StakeFactory.sol\":21274:21413  for (uint256 i = 0; i < allowedLockPeriods.length; i++) {... */\n      iszero\n      tag_625\n      jumpi\n        /* \"StakeFactory.sol\":21358:21374  lockPeriodParams */\n      0x05\n        /* \"StakeFactory.sol\":21358:21397  lockPeriodParams[allowedLockPeriods[i]] */\n      0x00\n        /* \"StakeFactory.sol\":21375:21393  allowedLockPeriods */\n      0x13\n        /* \"StakeFactory.sol\":21394:21395  i */\n      dup4\n        /* \"StakeFactory.sol\":21375:21396  allowedLockPeriods[i] */\n      dup2\n      sload\n      dup2\n      lt\n      tag_628\n      jumpi\n      tag_628\n      tag_277\n      jump\t// in\n    tag_628:\n      swap1\n      0x00\n      mstore\n      keccak256(0x00, 0x20)\n      add\n      sload\n        /* \"StakeFactory.sol\":21358:21397  lockPeriodParams[allowedLockPeriods[i]] */\n      dup2\n      mstore\n      0x20\n      add\n      swap1\n      dup2\n      mstore\n      0x20\n      add\n      0x00\n      keccak256\n        /* \"StakeFactory.sol\":21349:21397  ret[i] = lockPeriodParams[allowedLockPeriods[i]] */\n      mload(0x40)\n      dup1\n      0x0120\n      add\n      0x40\n      mstore\n      swap1\n      dup2\n      0x00\n      dup3\n      add\n      sload\n      dup2\n      mstore\n      0x20\n      add\n      0x01\n      dup3\n      add\n      sload\n      dup2\n      mstore\n      0x20\n      add\n      0x02\n      dup3\n      add\n      sload\n      dup2\n      mstore\n      0x20\n      add\n      0x03\n      dup3\n      add\n      sload\n      dup2\n      mstore\n      0x20\n      add\n      0x04\n      dup3\n      add\n      sload\n      dup2\n      mstore\n      0x20\n      add\n      0x05\n      dup3\n      add\n      sload\n      dup2\n      mstore\n      0x20\n      add\n      0x06\n      dup3\n      add\n      sload\n      dup2\n      mstore\n      0x20\n      add\n      0x07\n      dup3\n      add\n      0x00\n      swap1\n      sload\n      swap1\n      0x0100\n      exp\n      swap1\n      div\n      0xff\n      and\n      iszero\n      iszero\n      iszero\n      iszero\n      dup2\n      mstore\n      0x20\n      add\n      0x08\n      dup3\n      add\n      sload\n      dup2\n      mstore\n      pop\n      pop\n        /* \"StakeFactory.sol\":21349:21352  ret */\n      dup3\n        /* \"StakeFactory.sol\":21353:21354  i */\n      dup3\n        /* \"StakeFactory.sol\":21349:21355  ret[i] */\n      dup2\n      mload\n      dup2\n      lt\n      tag_631\n      jumpi\n      tag_631\n      tag_277\n      jump\t// in\n    tag_631:\n      0x20\n      swap1\n      dup2\n      mul\n      swap2\n      swap1\n      swap2\n      add\n      add\n        /* \"StakeFactory.sol\":21349:21397  ret[i] = lockPeriodParams[allowedLockPeriods[i]] */\n      mstore\n        /* \"StakeFactory.sol\":21325:21328  i++ */\n      0x01\n      add\n        /* \"StakeFactory.sol\":21274:21413  for (uint256 i = 0; i < allowedLockPeriods.length; i++) {... */\n      jump(tag_624)\n    tag_625:\n      pop\n        /* \"StakeFactory.sol\":21154:21424  if (allowedLockPeriods.length > 0) {... */\n    tag_618:\n        /* \"StakeFactory.sol\":21059:21431  function getLockPeriodsInfo() external view returns (LockPeriodParams[] memory ret) {... */\n      swap1\n      jump\t// out\n        /* \"StakeFactory.sol\":11973:13090  function deposit(uint256 _amount, uint256 _lockDays) external whenNotPaused nonReentrant {... */\n    tag_242:\n        /* \"StakeFactory.sol\":6039:6043  bool */\n      0x00\n        /* \"StakeFactory.sol\":6064:6071  _paused */\n      sload\n      shl(0xa0, 0x01)\n      swap1\n      div\n      0xff\n      and\n        /* \"StakeFactory.sol\":6326:6335  !paused() */\n      iszero\n        /* \"StakeFactory.sol\":6318:6356  require(!paused(), \"Pausable: paused\") */\n      tag_634\n      jumpi\n      mload(0x40)\n      shl(0xe5, 0x461bcd)\n      dup2\n      mstore\n        /* \"#utility.yul\":19083:19085   */\n      0x20\n        /* \"StakeFactory.sol\":6318:6356  require(!paused(), \"Pausable: paused\") */\n      0x04\n      dup3\n      add\n        /* \"#utility.yul\":19065:19086   */\n      mstore\n        /* \"#utility.yul\":19122:19124   */\n      0x10\n        /* \"#utility.yul\":19102:19120   */\n      0x24\n      dup3\n      add\n        /* \"#utility.yul\":19095:19125   */\n      mstore\n      shl(0x82, 0x14185d5cd8589b194e881c185d5cd959)\n        /* \"#utility.yul\":19141:19159   */\n      0x44\n      dup3\n      add\n        /* \"#utility.yul\":19134:19180   */\n      mstore\n        /* \"#utility.yul\":19197:19215   */\n      0x64\n      add\n        /* \"StakeFactory.sol\":6318:6356  require(!paused(), \"Pausable: paused\") */\n      tag_261\n        /* \"#utility.yul\":18881:19221   */\n      jump\n        /* \"StakeFactory.sol\":6318:6356  require(!paused(), \"Pausable: paused\") */\n    tag_634:\n        /* \"StakeFactory.sol\":2761:2782  _nonReentrantBefore() */\n      tag_637\n        /* \"StakeFactory.sol\":2761:2780  _nonReentrantBefore */\n      tag_469\n        /* \"StakeFactory.sol\":2761:2782  _nonReentrantBefore() */\n      jump\t// in\n    tag_637:\n        /* \"StakeFactory.sol\":12088:12098  msg.sender */\n      caller\n        /* \"StakeFactory.sol\":12081:12099  isSpam[msg.sender] */\n      0x00\n      swap1\n      dup2\n      mstore\n        /* \"StakeFactory.sol\":12081:12087  isSpam */\n      0x10\n        /* \"StakeFactory.sol\":12081:12099  isSpam[msg.sender] */\n      0x20\n      mstore\n      0x40\n      swap1\n      keccak256\n      sload\n      0xff\n      and\n        /* \"StakeFactory.sol\":12081:12108  isSpam[msg.sender] == false */\n      iszero\n        /* \"StakeFactory.sol\":12073:12129  require(isSpam[msg.sender] == false, \"Account is spam!\") */\n      tag_639\n      jumpi\n      mload(0x40)\n      shl(0xe5, 0x461bcd)\n      dup2\n      mstore\n        /* \"#utility.yul\":19428:19430   */\n      0x20\n        /* \"StakeFactory.sol\":12073:12129  require(isSpam[msg.sender] == false, \"Account is spam!\") */\n      0x04\n      dup3\n      add\n        /* \"#utility.yul\":19410:19431   */\n      mstore\n        /* \"#utility.yul\":19467:19469   */\n      0x10\n        /* \"#utility.yul\":19447:19465   */\n      0x24\n      dup3\n      add\n        /* \"#utility.yul\":19440:19470   */\n      mstore\n      shl(0x80, 0x4163636f756e74206973207370616d21)\n        /* \"#utility.yul\":19486:19504   */\n      0x44\n      dup3\n      add\n        /* \"#utility.yul\":19479:19525   */\n      mstore\n        /* \"#utility.yul\":19542:19560   */\n      0x64\n      add\n        /* \"StakeFactory.sol\":12073:12129  require(isSpam[msg.sender] == false, \"Account is spam!\") */\n      tag_261\n        /* \"#utility.yul\":19226:19566   */\n      jump\n        /* \"StakeFactory.sol\":12073:12129  require(isSpam[msg.sender] == false, \"Account is spam!\") */\n    tag_639:\n        /* \"StakeFactory.sol\":12148:12178  isLockPeriodAllowed(_lockDays) */\n      tag_641\n        /* \"StakeFactory.sol\":12168:12177  _lockDays */\n      dup2\n        /* \"StakeFactory.sol\":12148:12167  isLockPeriodAllowed */\n      tag_304\n        /* \"StakeFactory.sol\":12148:12178  isLockPeriodAllowed(_lockDays) */\n      jump\t// in\n    tag_641:\n        /* \"StakeFactory.sol\":12140:12202  require(isLockPeriodAllowed(_lockDays), \"Invalid lock period\") */\n      tag_642\n      jumpi\n      mload(0x40)\n      shl(0xe5, 0x461bcd)\n      dup2\n      mstore\n        /* \"#utility.yul\":19773:19775   */\n      0x20\n        /* \"StakeFactory.sol\":12140:12202  require(isLockPeriodAllowed(_lockDays), \"Invalid lock period\") */\n      0x04\n      dup3\n      add\n        /* \"#utility.yul\":19755:19776   */\n      mstore\n        /* \"#utility.yul\":19812:19814   */\n      0x13\n        /* \"#utility.yul\":19792:19810   */\n      0x24\n      dup3\n      add\n        /* \"#utility.yul\":19785:19815   */\n      mstore\n      shl(0x6a, 0x125b9d985b1a59081b1bd8dac81c195c9a5bd9)\n        /* \"#utility.yul\":19831:19849   */\n      0x44\n      dup3\n      add\n        /* \"#utility.yul\":19824:19873   */\n      mstore\n        /* \"#utility.yul\":19890:19908   */\n      0x64\n      add\n        /* \"StakeFactory.sol\":12140:12202  require(isLockPeriodAllowed(_lockDays), \"Invalid lock period\") */\n      tag_261\n        /* \"#utility.yul\":19571:19914   */\n      jump\n        /* \"StakeFactory.sol\":12140:12202  require(isLockPeriodAllowed(_lockDays), \"Invalid lock period\") */\n    tag_642:\n        /* \"StakeFactory.sol\":12232:12259  lockPeriodParams[_lockDays] */\n      0x00\n      dup2\n      dup2\n      mstore\n        /* \"StakeFactory.sol\":12232:12248  lockPeriodParams */\n      0x05\n        /* \"StakeFactory.sol\":12232:12259  lockPeriodParams[_lockDays] */\n      0x20\n      mstore\n      0x40\n      swap1\n      keccak256\n        /* \"StakeFactory.sol\":12232:12274  lockPeriodParams[_lockDays].minimumDeposit */\n      0x01\n      add\n      sload\n        /* \"StakeFactory.sol\":12221:12274  _amount >= lockPeriodParams[_lockDays].minimumDeposit */\n      dup3\n      lt\n      iszero\n        /* \"StakeFactory.sol\":12213:12293  require(_amount >= lockPeriodParams[_lockDays].minimumDeposit, \"Invalid amount\") */\n      tag_645\n      jumpi\n      mload(0x40)\n      shl(0xe5, 0x461bcd)\n      dup2\n      mstore\n        /* \"#utility.yul\":20121:20123   */\n      0x20\n        /* \"StakeFactory.sol\":12213:12293  require(_amount >= lockPeriodParams[_lockDays].minimumDeposit, \"Invalid amount\") */\n      0x04\n      dup3\n      add\n        /* \"#utility.yul\":20103:20124   */\n      mstore\n        /* \"#utility.yul\":20160:20162   */\n      0x0e\n        /* \"#utility.yul\":20140:20158   */\n      0x24\n      dup3\n      add\n        /* \"#utility.yul\":20133:20163   */\n      mstore\n      shl(0x92, 0x125b9d985b1a5908185b5bdd5b9d)\n        /* \"#utility.yul\":20179:20197   */\n      0x44\n      dup3\n      add\n        /* \"#utility.yul\":20172:20216   */\n      mstore\n        /* \"#utility.yul\":20233:20251   */\n      0x64\n      add\n        /* \"StakeFactory.sol\":12213:12293  require(_amount >= lockPeriodParams[_lockDays].minimumDeposit, \"Invalid amount\") */\n      tag_261\n        /* \"#utility.yul\":19919:20257   */\n      jump\n        /* \"StakeFactory.sol\":12213:12293  require(_amount >= lockPeriodParams[_lockDays].minimumDeposit, \"Invalid amount\") */\n    tag_645:\n        /* \"StakeFactory.sol\":12354:12359  Token */\n      sload(0x02)\n        /* \"StakeFactory.sol\":12354:12408  Token.transferFrom(msg.sender, address(this), _amount) */\n      mload(0x40)\n      shl(0xe0, 0x23b872dd)\n      dup2\n      mstore\n        /* \"StakeFactory.sol\":12373:12383  msg.sender */\n      caller\n        /* \"StakeFactory.sol\":12354:12408  Token.transferFrom(msg.sender, address(this), _amount) */\n      0x04\n      dup3\n      add\n        /* \"#utility.yul\":20464:20515   */\n      mstore\n        /* \"StakeFactory.sol\":12393:12397  this */\n      address\n        /* \"#utility.yul\":20531:20549   */\n      0x24\n      dup3\n      add\n        /* \"#utility.yul\":20524:20584   */\n      mstore\n        /* \"#utility.yul\":20600:20618   */\n      0x44\n      dup2\n      add\n        /* \"#utility.yul\":20593:20627   */\n      dup5\n      swap1\n      mstore\n        /* \"StakeFactory.sol\":12326:12341  block.timestamp */\n      timestamp\n      swap2\n      sub(shl(0xa0, 0x01), 0x01)\n        /* \"StakeFactory.sol\":12354:12359  Token */\n      and\n      swap1\n        /* \"StakeFactory.sol\":12354:12372  Token.transferFrom */\n      0x23b872dd\n      swap1\n        /* \"#utility.yul\":20437:20455   */\n      0x64\n      add\n        /* \"StakeFactory.sol\":12354:12408  Token.transferFrom(msg.sender, address(this), _amount) */\n      0x20\n      mload(0x40)\n      dup1\n      dup4\n      sub\n      dup2\n      0x00\n      dup8\n      gas\n      call\n      iszero\n      dup1\n      iszero\n      tag_651\n      jumpi\n      returndatasize\n      0x00\n      dup1\n      returndatacopy\n      revert(0x00, returndatasize)\n    tag_651:\n      pop\n      pop\n      pop\n      pop\n      mload(0x40)\n      returndatasize\n      not(0x1f)\n      0x1f\n      dup3\n      add\n      and\n      dup3\n      add\n      dup1\n      0x40\n      mstore\n      pop\n      dup2\n      add\n      swap1\n      tag_652\n      swap2\n      swap1\n      tag_426\n      jump\t// in\n    tag_652:\n      pop\n        /* \"StakeFactory.sol\":12433:12443  msg.sender */\n      caller\n        /* \"StakeFactory.sol\":12419:12444  depositeToken[msg.sender] */\n      0x00\n      dup2\n      dup2\n      mstore\n        /* \"StakeFactory.sol\":12419:12432  depositeToken */\n      0x07\n        /* \"StakeFactory.sol\":12419:12444  depositeToken[msg.sender] */\n      0x20\n      swap1\n      dup2\n      mstore\n      0x40\n      dup1\n      dup4\n      keccak256\n        /* \"StakeFactory.sol\":12419:12458  depositeToken[msg.sender].push(_amount) */\n      dup1\n      sload\n      0x01\n      dup2\n      dup2\n      add\n      dup4\n      sstore\n      swap2\n      dup6\n      mstore\n      dup4\n      dup6\n      keccak256\n      add\n      dup9\n      swap1\n      sstore\n        /* \"StakeFactory.sol\":12469:12493  depositeTime[msg.sender] */\n      dup5\n      dup5\n      mstore\n        /* \"StakeFactory.sol\":12469:12481  depositeTime */\n      0x0a\n        /* \"StakeFactory.sol\":12469:12493  depositeTime[msg.sender] */\n      dup4\n      mstore\n      dup2\n      dup5\n      keccak256\n        /* \"StakeFactory.sol\":12469:12517  depositeTime[msg.sender].push(uint40(blockTime)) */\n      dup1\n      sload\n      swap2\n      dup3\n      add\n      dup2\n      sstore\n      dup5\n      mstore\n      dup3\n      dup5\n      keccak256\n      0xffffffffff\n      dup8\n      and\n      swap2\n      add\n      sstore\n        /* \"StakeFactory.sol\":12528:12559  depositeTokensTotal[msg.sender] */\n      swap3\n      dup3\n      mstore\n        /* \"StakeFactory.sol\":12528:12547  depositeTokensTotal */\n      0x08\n        /* \"StakeFactory.sol\":12528:12559  depositeTokensTotal[msg.sender] */\n      swap1\n      mstore\n      swap1\n      dup2\n      keccak256\n        /* \"StakeFactory.sol\":12528:12570  depositeTokensTotal[msg.sender] += _amount */\n      dup1\n      sload\n        /* \"StakeFactory.sol\":12450:12457  _amount */\n      dup6\n      swap3\n        /* \"StakeFactory.sol\":12419:12444  depositeToken[msg.sender] */\n      swap1\n        /* \"StakeFactory.sol\":12528:12570  depositeTokensTotal[msg.sender] += _amount */\n      tag_655\n      swap1\n        /* \"StakeFactory.sol\":12450:12457  _amount */\n      dup5\n      swap1\n        /* \"StakeFactory.sol\":12528:12570  depositeTokensTotal[msg.sender] += _amount */\n      tag_285\n      jump\t// in\n    tag_655:\n      swap1\n      swap2\n      sstore\n      pop\n      pop\n        /* \"StakeFactory.sol\":12594:12604  msg.sender */\n      caller\n        /* \"StakeFactory.sol\":12581:12605  lockableDays[msg.sender] */\n      0x00\n      dup2\n      dup2\n      mstore\n        /* \"StakeFactory.sol\":12581:12593  lockableDays */\n      0x09\n        /* \"StakeFactory.sol\":12581:12605  lockableDays[msg.sender] */\n      0x20\n      swap1\n      dup2\n      mstore\n      0x40\n      dup1\n      dup4\n      keccak256\n        /* \"StakeFactory.sol\":12581:12621  lockableDays[msg.sender].push(_lockDays) */\n      dup1\n      sload\n      0x01\n      dup2\n      add\n      dup3\n      sstore\n      swap1\n      dup5\n      mstore\n      dup3\n      dup5\n      keccak256\n      add\n      dup7\n      swap1\n      sstore\n        /* \"StakeFactory.sol\":12632:12655  lastUpdated[msg.sender] */\n      swap3\n      dup3\n      mstore\n        /* \"StakeFactory.sol\":12632:12643  lastUpdated */\n      0x0c\n        /* \"StakeFactory.sol\":12632:12655  lastUpdated[msg.sender] */\n      dup2\n      mstore\n      dup3\n      dup3\n      keccak256\n        /* \"StakeFactory.sol\":12658:12673  block.timestamp */\n      timestamp\n        /* \"StakeFactory.sol\":12632:12673  lastUpdated[msg.sender] = block.timestamp */\n      swap1\n      sstore\n        /* \"StakeFactory.sol\":12684:12711  lockPeriodParams[_lockDays] */\n      dup5\n      dup3\n      mstore\n        /* \"StakeFactory.sol\":12684:12700  lockPeriodParams */\n      0x05\n        /* \"StakeFactory.sol\":12684:12711  lockPeriodParams[_lockDays] */\n      swap1\n      mstore\n      swap1\n      dup2\n      keccak256\n        /* \"StakeFactory.sol\":12684:12724  lockPeriodParams[_lockDays].stakedAmount */\n      0x08\n      add\n        /* \"StakeFactory.sol\":12684:12735  lockPeriodParams[_lockDays].stakedAmount += _amount */\n      dup1\n      sload\n        /* \"StakeFactory.sol\":12728:12735  _amount */\n      dup6\n      swap3\n        /* \"StakeFactory.sol\":12581:12605  lockableDays[msg.sender] */\n      swap1\n        /* \"StakeFactory.sol\":12684:12735  lockPeriodParams[_lockDays].stakedAmount += _amount */\n      tag_657\n      swap1\n        /* \"StakeFactory.sol\":12728:12735  _amount */\n      dup5\n      swap1\n        /* \"StakeFactory.sol\":12684:12735  lockPeriodParams[_lockDays].stakedAmount += _amount */\n      tag_285\n      jump\t// in\n    tag_657:\n      swap1\n      swap2\n      sstore\n      pop\n      pop\n        /* \"StakeFactory.sol\":12763:12773  msg.sender */\n      caller\n        /* \"StakeFactory.sol\":12751:12774  usersExists[msg.sender] */\n      0x00\n      swap1\n      dup2\n      mstore\n        /* \"StakeFactory.sol\":12751:12762  usersExists */\n      0x0d\n        /* \"StakeFactory.sol\":12751:12774  usersExists[msg.sender] */\n      0x20\n      mstore\n      0x40\n      swap1\n      keccak256\n      sload\n      0xff\n      and\n        /* \"StakeFactory.sol\":12746:12905  if (!usersExists[msg.sender]) {... */\n      tag_658\n      jumpi\n        /* \"StakeFactory.sol\":12791:12801  usersCount */\n      0x0f\n        /* \"StakeFactory.sol\":12791:12803  usersCount++ */\n      dup1\n      sload\n      swap1\n        /* \"StakeFactory.sol\":12791:12801  usersCount */\n      0x00\n        /* \"StakeFactory.sol\":12791:12803  usersCount++ */\n      tag_659\n      dup4\n      tag_660\n      jump\t// in\n    tag_659:\n      swap1\n      swap2\n      sstore\n      pop\n      pop\n        /* \"StakeFactory.sol\":12824:12834  usersCount */\n      sload(0x0f)\n        /* \"StakeFactory.sol\":12818:12835  users[usersCount] */\n      0x00\n      swap1\n      dup2\n      mstore\n        /* \"StakeFactory.sol\":12818:12823  users */\n      0x0e\n        /* \"StakeFactory.sol\":12818:12835  users[usersCount] */\n      0x20\n      swap1\n      dup2\n      mstore\n      0x40\n      dup1\n      dup4\n      keccak256\n        /* \"StakeFactory.sol\":12818:12848  users[usersCount] = msg.sender */\n      dup1\n      sload\n      not(sub(shl(0xa0, 0x01), 0x01))\n      and\n        /* \"StakeFactory.sol\":12838:12848  msg.sender */\n      caller\n        /* \"StakeFactory.sol\":12818:12848  users[usersCount] = msg.sender */\n      swap1\n      dup2\n      or\n      swap1\n      swap2\n      sstore\n        /* \"StakeFactory.sol\":12863:12886  usersExists[msg.sender] */\n      dup4\n      mstore\n        /* \"StakeFactory.sol\":12863:12874  usersExists */\n      0x0d\n        /* \"StakeFactory.sol\":12863:12886  usersExists[msg.sender] */\n      swap1\n      swap2\n      mstore\n      swap1\n      keccak256\n        /* \"StakeFactory.sol\":12863:12893  usersExists[msg.sender] = true */\n      dup1\n      sload\n      not(0xff)\n      and\n        /* \"StakeFactory.sol\":12818:12848  users[usersCount] = msg.sender */\n      0x01\n        /* \"StakeFactory.sol\":12863:12893  usersExists[msg.sender] = true */\n      or\n      swap1\n      sstore\n        /* \"StakeFactory.sol\":12746:12905  if (!usersExists[msg.sender]) {... */\n    tag_658:\n        /* \"StakeFactory.sol\":12915:12943  allocationPercentageUpdate() */\n      tag_661\n        /* \"StakeFactory.sol\":12915:12941  allocationPercentageUpdate */\n      tag_662\n        /* \"StakeFactory.sol\":12915:12943  allocationPercentageUpdate() */\n      jump\t// in\n    tag_661:\n        /* \"StakeFactory.sol\":13015:13082  Deposite_(msg.sender, address(this), _amount, _lockDays, blockTime) */\n      0x40\n      dup1\n      mload\n        /* \"#utility.yul\":10925:10950   */\n      dup5\n      dup2\n      mstore\n        /* \"#utility.yul\":10981:10983   */\n      0x20\n        /* \"#utility.yul\":10966:10984   */\n      dup2\n      add\n        /* \"#utility.yul\":10959:10993   */\n      dup5\n      swap1\n      mstore\n        /* \"#utility.yul\":11009:11027   */\n      swap1\n      dup2\n      add\n        /* \"#utility.yul\":11002:11036   */\n      dup3\n      swap1\n      mstore\n        /* \"StakeFactory.sol\":13045:13049  this */\n      address\n      swap1\n        /* \"StakeFactory.sol\":13025:13035  msg.sender */\n      caller\n      swap1\n        /* \"StakeFactory.sol\":13015:13082  Deposite_(msg.sender, address(this), _amount, _lockDays, blockTime) */\n      0xe44628ed4b392c5ef46ffc833d640eefd957e81a312e583e0cc57eed5f04ada3\n      swap1\n        /* \"#utility.yul\":10913:10915   */\n      0x60\n        /* \"#utility.yul\":10898:10916   */\n      add\n        /* \"StakeFactory.sol\":13015:13082  Deposite_(msg.sender, address(this), _amount, _lockDays, blockTime) */\n      mload(0x40)\n      dup1\n      swap2\n      sub\n      swap1\n      log3\n        /* \"StakeFactory.sol\":12062:13090  {... */\n      pop\n        /* \"StakeFactory.sol\":2805:2825  _nonReentrantAfter() */\n      tag_268\n        /* \"StakeFactory.sol\":2199:2200  1 */\n      0x01\n        /* \"StakeFactory.sol\":3321:3343  _status = _NOT_ENTERED */\n      dup1\n      sstore\n        /* \"StakeFactory.sol\":3138:3351  function _nonReentrantAfter() private {... */\n      jump\n        /* \"StakeFactory.sol\":8154:8431  function transferOwnership(address newOwner) public onlyOwner {... */\n    tag_250:\n        /* \"StakeFactory.sol\":7912:7918  _owner */\n      and(sub(shl(0xa0, 0x01), 0x01), sload(0x00))\n        /* \"StakeFactory.sol\":7922:7932  msg.sender */\n      caller\n        /* \"StakeFactory.sol\":7912:7932  _owner == msg.sender */\n      eq\n        /* \"StakeFactory.sol\":7904:7969  require(_owner == msg.sender, \"Ownable: caller is not the owner\") */\n      tag_666\n      jumpi\n      mload(0x40)\n      shl(0xe5, 0x461bcd)\n      dup2\n      mstore\n      0x04\n      add\n      tag_261\n      swap1\n      tag_262\n      jump\t// in\n    tag_666:\n      sub(shl(0xa0, 0x01), 0x01)\n        /* \"StakeFactory.sol\":8249:8271  newOwner != address(0) */\n      dup2\n      and\n        /* \"StakeFactory.sol\":8227:8337  require(... */\n      tag_669\n      jumpi\n      mload(0x40)\n      shl(0xe5, 0x461bcd)\n      dup2\n      mstore\n        /* \"#utility.yul\":20980:20982   */\n      0x20\n        /* \"StakeFactory.sol\":8227:8337  require(... */\n      0x04\n      dup3\n      add\n        /* \"#utility.yul\":20962:20983   */\n      mstore\n        /* \"#utility.yul\":21019:21021   */\n      0x26\n        /* \"#utility.yul\":20999:21017   */\n      0x24\n      dup3\n      add\n        /* \"#utility.yul\":20992:21022   */\n      mstore\n        /* \"#utility.yul\":21058:21092   */\n      0x4f776e61626c653a206e6577206f776e657220697320746865207a65726f2061\n        /* \"#utility.yul\":21038:21056   */\n      0x44\n      dup3\n      add\n        /* \"#utility.yul\":21031:21093   */\n      mstore\n      shl(0xd0, 0x646472657373)\n        /* \"#utility.yul\":21109:21127   */\n      0x64\n      dup3\n      add\n        /* \"#utility.yul\":21102:21138   */\n      mstore\n        /* \"#utility.yul\":21155:21174   */\n      0x84\n      add\n        /* \"StakeFactory.sol\":8227:8337  require(... */\n      tag_261\n        /* \"#utility.yul\":20778:21180   */\n      jump\n        /* \"StakeFactory.sol\":8227:8337  require(... */\n    tag_669:\n        /* \"StakeFactory.sol\":8376:8382  _owner */\n      0x00\n      dup1\n      sload\n        /* \"StakeFactory.sol\":8355:8393  OwnershipTransferred(_owner, newOwner) */\n      mload(0x40)\n      sub(shl(0xa0, 0x01), 0x01)\n      dup1\n      dup6\n      and\n      swap4\n        /* \"StakeFactory.sol\":8376:8382  _owner */\n      swap3\n      and\n      swap2\n        /* \"StakeFactory.sol\":8355:8393  OwnershipTransferred(_owner, newOwner) */\n      0x8be0079c531659141344cd1fd0a4f28419497f9722a3daafe3b4186f6b6457e0\n      swap2\n      log3\n        /* \"StakeFactory.sol\":8406:8412  _owner */\n      0x00\n        /* \"StakeFactory.sol\":8406:8423  _owner = newOwner */\n      dup1\n      sload\n      not(sub(shl(0xa0, 0x01), 0x01))\n      and\n      sub(shl(0xa0, 0x01), 0x01)\n      swap3\n      swap1\n      swap3\n      and\n      swap2\n      swap1\n      swap2\n      or\n      swap1\n      sstore\n        /* \"StakeFactory.sol\":8154:8431  function transferOwnership(address newOwner) public onlyOwner {... */\n      jump\t// out\n        /* \"StakeFactory.sol\":19719:19997  function isLockPeriodAllowed(uint256 _days) internal view returns (bool) {... */\n    tag_304:\n        /* \"StakeFactory.sol\":19786:19790  bool */\n      0x00\n      dup1\n        /* \"StakeFactory.sol\":19803:19967  for (uint256 i = 0; i < allowedLockPeriods.length; i++) {... */\n    tag_673:\n        /* \"StakeFactory.sol\":19827:19845  allowedLockPeriods */\n      0x13\n        /* \"StakeFactory.sol\":19827:19852  allowedLockPeriods.length */\n      sload\n        /* \"StakeFactory.sol\":19823:19852  i < allowedLockPeriods.length */\n      dup2\n      lt\n        /* \"StakeFactory.sol\":19803:19967  for (uint256 i = 0; i < allowedLockPeriods.length; i++) {... */\n      iszero\n      tag_674\n      jumpi\n        /* \"StakeFactory.sol\":19903:19908  _days */\n      dup3\n        /* \"StakeFactory.sol\":19878:19896  allowedLockPeriods */\n      0x13\n        /* \"StakeFactory.sol\":19897:19898  i */\n      dup3\n        /* \"StakeFactory.sol\":19878:19899  allowedLockPeriods[i] */\n      dup2\n      sload\n      dup2\n      lt\n      tag_677\n      jumpi\n      tag_677\n      tag_277\n      jump\t// in\n    tag_677:\n      swap1\n      0x00\n      mstore\n      keccak256(0x00, 0x20)\n      add\n      sload\n        /* \"StakeFactory.sol\":19878:19908  allowedLockPeriods[i] == _days */\n      sub\n        /* \"StakeFactory.sol\":19874:19956  if (allowedLockPeriods[i] == _days) {... */\n      tag_679\n      jumpi\n      pop\n        /* \"StakeFactory.sol\":19936:19940  true */\n      0x01\n      swap3\n        /* \"StakeFactory.sol\":19719:19997  function isLockPeriodAllowed(uint256 _days) internal view returns (bool) {... */\n      swap2\n      pop\n      pop\n      jump\t// out\n        /* \"StakeFactory.sol\":19874:19956  if (allowedLockPeriods[i] == _days) {... */\n    tag_679:\n        /* \"StakeFactory.sol\":19854:19857  i++ */\n      0x01\n      add\n        /* \"StakeFactory.sol\":19803:19967  for (uint256 i = 0; i < allowedLockPeriods.length; i++) {... */\n      jump(tag_673)\n    tag_674:\n      pop\n        /* \"StakeFactory.sol\":19984:19989  false */\n      0x00\n      swap3\n        /* \"StakeFactory.sol\":19719:19997  function isLockPeriodAllowed(uint256 _days) internal view returns (bool) {... */\n      swap2\n      pop\n      pop\n      jump\t// out\n        /* \"StakeFactory.sol\":2841:3130  function _nonReentrantBefore() private {... */\n    tag_469:\n        /* \"StakeFactory.sol\":2243:2244  2 */\n      0x02\n        /* \"StakeFactory.sol\":2971:2978  _status */\n      sload(0x01)\n        /* \"StakeFactory.sol\":2971:2990  _status != _ENTERED */\n      sub\n        /* \"StakeFactory.sol\":2963:3026  require(_status != _ENTERED, \"ReentrancyGuard: reentrant call\") */\n      tag_681\n      jumpi\n      mload(0x40)\n      shl(0xe5, 0x461bcd)\n      dup2\n      mstore\n        /* \"#utility.yul\":21387:21389   */\n      0x20\n        /* \"StakeFactory.sol\":2963:3026  require(_status != _ENTERED, \"ReentrancyGuard: reentrant call\") */\n      0x04\n      dup3\n      add\n        /* \"#utility.yul\":21369:21390   */\n      mstore\n        /* \"#utility.yul\":21426:21428   */\n      0x1f\n        /* \"#utility.yul\":21406:21424   */\n      0x24\n      dup3\n      add\n        /* \"#utility.yul\":21399:21429   */\n      mstore\n        /* \"#utility.yul\":21465:21498   */\n      0x5265656e7472616e637947756172643a207265656e7472616e742063616c6c00\n        /* \"#utility.yul\":21445:21463   */\n      0x44\n      dup3\n      add\n        /* \"#utility.yul\":21438:21499   */\n      mstore\n        /* \"#utility.yul\":21516:21534   */\n      0x64\n      add\n        /* \"StakeFactory.sol\":2963:3026  require(_status != _ENTERED, \"ReentrancyGuard: reentrant call\") */\n      tag_261\n        /* \"#utility.yul\":21185:21540   */\n      jump\n        /* \"StakeFactory.sol\":2963:3026  require(_status != _ENTERED, \"ReentrancyGuard: reentrant call\") */\n    tag_681:\n        /* \"StakeFactory.sol\":2243:2244  2 */\n      0x02\n        /* \"StakeFactory.sol\":3104:3111  _status */\n      0x01\n        /* \"StakeFactory.sol\":3104:3122  _status = _ENTERED */\n      sstore\n        /* \"StakeFactory.sol\":2841:3130  function _nonReentrantBefore() private {... */\n      jump\t// out\n        /* \"StakeFactory.sol\":22333:23225  function allocationPercentageUpdate() internal {... */\n    tag_662:\n        /* \"StakeFactory.sol\":22414:22419  Token */\n      sload(0x02)\n        /* \"StakeFactory.sol\":22414:22444  Token.balanceOf(address(this)) */\n      mload(0x40)\n      shl(0xe0, 0x70a08231)\n      dup2\n      mstore\n        /* \"StakeFactory.sol\":22438:22442  this */\n      address\n        /* \"StakeFactory.sol\":22414:22444  Token.balanceOf(address(this)) */\n      0x04\n      dup3\n      add\n        /* \"#utility.yul\":961:1012   */\n      mstore\n        /* \"StakeFactory.sol\":22391:22411  uint256 tokenbalance */\n      0x00\n      swap2\n      sub(shl(0xa0, 0x01), 0x01)\n        /* \"StakeFactory.sol\":22414:22419  Token */\n      and\n      swap1\n        /* \"StakeFactory.sol\":22414:22429  Token.balanceOf */\n      0x70a08231\n      swap1\n        /* \"#utility.yul\":934:952   */\n      0x24\n      add\n        /* \"StakeFactory.sol\":22414:22444  Token.balanceOf(address(this)) */\n      0x20\n      mload(0x40)\n      dup1\n      dup4\n      sub\n      dup2\n      dup7\n      gas\n      staticcall\n      iszero\n      dup1\n      iszero\n      tag_688\n      jumpi\n      returndatasize\n      0x00\n      dup1\n      returndatacopy\n      revert(0x00, returndatasize)\n    tag_688:\n      pop\n      pop\n      pop\n      pop\n      mload(0x40)\n      returndatasize\n      not(0x1f)\n      0x1f\n      dup3\n      add\n      and\n      dup3\n      add\n      dup1\n      0x40\n      mstore\n      pop\n      dup2\n      add\n      swap1\n      tag_689\n      swap2\n      swap1\n      tag_394\n      jump\t// in\n    tag_689:\n        /* \"StakeFactory.sol\":22391:22444  uint256 tokenbalance = Token.balanceOf(address(this)) */\n      swap1\n      pop\n        /* \"StakeFactory.sol\":22501:22510  uint256 i */\n      0x00\n        /* \"StakeFactory.sol\":22496:23218  for (uint256 i = 0; i < allowedLockPeriods.length; i++) {... */\n    tag_690:\n        /* \"StakeFactory.sol\":22520:22538  allowedLockPeriods */\n      0x13\n        /* \"StakeFactory.sol\":22520:22545  allowedLockPeriods.length */\n      sload\n        /* \"StakeFactory.sol\":22516:22545  i < allowedLockPeriods.length */\n      dup2\n      lt\n        /* \"StakeFactory.sol\":22496:23218  for (uint256 i = 0; i < allowedLockPeriods.length; i++) {... */\n      iszero\n      tag_268\n      jumpi\n        /* \"StakeFactory.sol\":22567:22580  uint256 _days */\n      0x00\n        /* \"StakeFactory.sol\":22583:22601  allowedLockPeriods */\n      0x13\n        /* \"StakeFactory.sol\":22602:22603  i */\n      dup3\n        /* \"StakeFactory.sol\":22583:22604  allowedLockPeriods[i] */\n      dup2\n      sload\n      dup2\n      lt\n      tag_694\n      jumpi\n      tag_694\n      tag_277\n      jump\t// in\n    tag_694:\n      0x00\n      swap2\n      dup3\n      mstore\n      0x20\n      dup1\n      dup4\n      keccak256\n      swap1\n      swap2\n      add\n      sload\n        /* \"StakeFactory.sol\":22652:22675  lockPeriodParams[_days] */\n      dup1\n      dup4\n      mstore\n        /* \"StakeFactory.sol\":22652:22668  lockPeriodParams */\n      0x05\n        /* \"StakeFactory.sol\":22652:22675  lockPeriodParams[_days] */\n      dup1\n      dup4\n      mstore\n      0x40\n      swap4\n      dup5\n      swap1\n      keccak256\n        /* \"StakeFactory.sol\":22619:22675  LockPeriodParams memory params = lockPeriodParams[_days] */\n      dup5\n      mload\n      0x0120\n      dup2\n      add\n      dup7\n      mstore\n      dup2\n      sload\n      dup2\n      mstore\n      0x01\n      dup3\n      add\n      sload\n      swap5\n      dup2\n      add\n      swap5\n      swap1\n      swap5\n      mstore\n      0x02\n      dup2\n      add\n      sload\n      swap5\n      dup5\n      add\n      swap5\n      swap1\n      swap5\n      mstore\n      0x03\n      dup5\n      add\n      sload\n      0x60\n      dup5\n      add\n      mstore\n      0x04\n      dup5\n      add\n      sload\n      0x80\n      dup5\n      add\n      mstore\n      dup4\n      add\n      sload\n      0xa0\n      dup4\n      add\n      mstore\n      0x06\n      dup4\n      add\n      sload\n      0xc0\n      dup4\n      add\n      mstore\n      0x07\n      dup4\n      add\n      sload\n      0xff\n      and\n      iszero\n      iszero\n      0xe0\n      dup4\n      add\n      dup2\n      swap1\n      mstore\n      0x08\n      swap1\n      swap4\n      add\n      sload\n      0x0100\n      dup4\n      add\n      mstore\n        /* \"StakeFactory.sol\":22583:22604  allowedLockPeriods[i] */\n      swap3\n      pop\n        /* \"StakeFactory.sol\":22619:22675  LockPeriodParams memory params = lockPeriodParams[_days] */\n      swap1\n        /* \"StakeFactory.sol\":22690:23207  if (!params.fixedBasisPoints) {... */\n      tag_696\n      jumpi\n        /* \"StakeFactory.sol\":22739:22757  uint256 multiplier */\n      0x00\n        /* \"StakeFactory.sol\":22775:22781  params */\n      dup2\n        /* \"StakeFactory.sol\":22775:22790  params.stepSize */\n      0xc0\n      add\n      mload\n        /* \"StakeFactory.sol\":22760:22772  tokenbalance */\n      dup6\n        /* \"StakeFactory.sol\":22760:22790  tokenbalance / params.stepSize */\n      tag_697\n      swap2\n      swap1\n      tag_295\n      jump\t// in\n    tag_697:\n        /* \"StakeFactory.sol\":22739:22790  uint256 multiplier = tokenbalance / params.stepSize */\n      swap1\n      pop\n        /* \"StakeFactory.sol\":22809:22827  uint256 minusValue */\n      0x00\n        /* \"StakeFactory.sol\":22843:22849  params */\n      dup3\n        /* \"StakeFactory.sol\":22843:22863  params.decrementStep */\n      0xa0\n      add\n      mload\n        /* \"StakeFactory.sol\":22830:22840  multiplier */\n      dup3\n        /* \"StakeFactory.sol\":22830:22863  multiplier * params.decrementStep */\n      tag_698\n      swap2\n      swap1\n      tag_280\n      jump\t// in\n    tag_698:\n        /* \"StakeFactory.sol\":22809:22863  uint256 minusValue = multiplier * params.decrementStep */\n      swap1\n      pop\n        /* \"StakeFactory.sol\":22919:22925  params */\n      dup3\n        /* \"StakeFactory.sol\":22919:22933  params.minRate */\n      0x80\n      add\n      mload\n        /* \"StakeFactory.sol\":22902:22908  params */\n      dup4\n        /* \"StakeFactory.sol\":22902:22916  params.maxRate */\n      0x60\n      add\n      mload\n        /* \"StakeFactory.sol\":22902:22933  params.maxRate - params.minRate */\n      tag_699\n      swap2\n      swap1\n      tag_316\n      jump\t// in\n    tag_699:\n        /* \"StakeFactory.sol\":22888:22898  minusValue */\n      dup2\n        /* \"StakeFactory.sol\":22888:22933  minusValue <= params.maxRate - params.minRate */\n      gt\n        /* \"StakeFactory.sol\":22884:23108  if (minusValue <= params.maxRate - params.minRate) {... */\n      tag_700\n      jumpi\n        /* \"StakeFactory.sol\":22995:23005  minusValue */\n      dup1\n        /* \"StakeFactory.sol\":22978:22984  params */\n      dup4\n        /* \"StakeFactory.sol\":22978:22992  params.maxRate */\n      0x60\n      add\n      mload\n        /* \"StakeFactory.sol\":22978:23005  params.maxRate - minusValue */\n      tag_701\n      swap2\n      swap1\n      tag_316\n      jump\t// in\n    tag_701:\n        /* \"StakeFactory.sol\":22958:22975  allocation[_days] */\n      0x00\n      dup6\n      dup2\n      mstore\n        /* \"StakeFactory.sol\":22958:22968  allocation */\n      0x04\n        /* \"StakeFactory.sol\":22958:22975  allocation[_days] */\n      0x20\n      mstore\n      0x40\n      swap1\n      keccak256\n        /* \"StakeFactory.sol\":22958:23005  allocation[_days] = params.maxRate - minusValue */\n      sstore\n        /* \"StakeFactory.sol\":22884:23108  if (minusValue <= params.maxRate - params.minRate) {... */\n      jump(tag_702)\n    tag_700:\n        /* \"StakeFactory.sol\":23074:23088  params.minRate */\n      0x80\n      dup4\n      add\n      mload\n        /* \"StakeFactory.sol\":23054:23071  allocation[_days] */\n      0x00\n      dup6\n      dup2\n      mstore\n        /* \"StakeFactory.sol\":23054:23064  allocation */\n      0x04\n        /* \"StakeFactory.sol\":23054:23071  allocation[_days] */\n      0x20\n      mstore\n      0x40\n      swap1\n      keccak256\n        /* \"StakeFactory.sol\":23054:23088  allocation[_days] = params.minRate */\n      sstore\n        /* \"StakeFactory.sol\":22884:23108  if (minusValue <= params.maxRate - params.minRate) {... */\n    tag_702:\n      pop\n      pop\n        /* \"StakeFactory.sol\":23174:23191  allocation[_days] */\n      0x00\n      dup3\n      dup2\n      mstore\n        /* \"StakeFactory.sol\":23174:23184  allocation */\n      0x04\n        /* \"StakeFactory.sol\":23174:23191  allocation[_days] */\n      0x20\n      swap1\n      dup2\n      mstore\n      0x40\n      dup1\n      dup4\n      keccak256\n      sload\n        /* \"StakeFactory.sol\":23126:23142  lockPeriodParams */\n      0x05\n        /* \"StakeFactory.sol\":23126:23149  lockPeriodParams[_days] */\n      swap1\n      swap3\n      mstore\n      swap1\n      swap2\n      keccak256\n        /* \"StakeFactory.sol\":23126:23171  lockPeriodParams[_days].percentageBasisPoints */\n      0x02\n      add\n        /* \"StakeFactory.sol\":23126:23191  lockPeriodParams[_days].percentageBasisPoints = allocation[_days] */\n      sstore\n        /* \"StakeFactory.sol\":22690:23207  if (!params.fixedBasisPoints) {... */\n    tag_696:\n      pop\n      pop\n        /* \"StakeFactory.sol\":22547:22550  i++ */\n      0x01\n      add\n        /* \"StakeFactory.sol\":22496:23218  for (uint256 i = 0; i < allowedLockPeriods.length; i++) {... */\n      jump(tag_690)\n    tag_301:\n      mload(0x40)\n      dup1\n      0x0120\n      add\n      0x40\n      mstore\n      dup1\n      0x00\n      dup2\n      mstore\n      0x20\n      add\n      0x00\n      dup2\n      mstore\n      0x20\n      add\n      0x00\n      dup2\n      mstore\n      0x20\n      add\n      0x00\n      dup2\n      mstore\n      0x20\n      add\n      0x00\n      dup2\n      mstore\n      0x20\n      add\n      0x00\n      dup2\n      mstore\n      0x20\n      add\n      0x00\n      dup2\n      mstore\n      0x20\n      add\n      iszero(iszero(0x00))\n      dup2\n      mstore\n      0x20\n      add\n      0x00\n      dup2\n      mstore\n      pop\n      swap1\n      jump\t// out\n    tag_323:\n      mload(0x40)\n      dup1\n      0xe0\n      add\n      0x40\n      mstore\n      dup1\n      and(sub(shl(0xa0, 0x01), 0x01), 0x00)\n      dup2\n      mstore\n      0x20\n      add\n      0x00\n      dup2\n      mstore\n      0x20\n      add\n      0x00\n      dup2\n      mstore\n      0x20\n      add\n      0x60\n      dup2\n      mstore\n      0x20\n      add\n      0x00\n      dup2\n      mstore\n      0x20\n      add\n      0x00\n      dup2\n      mstore\n      0x20\n      add\n      0x60\n      dup2\n      mstore\n      pop\n      swap1\n      jump\t// out\n        /* \"#utility.yul\":14:145   */\n    tag_703:\n      sub(shl(0xa0, 0x01), 0x01)\n        /* \"#utility.yul\":89:120   */\n      dup2\n      and\n        /* \"#utility.yul\":79:121   */\n      dup2\n      eq\n        /* \"#utility.yul\":69:139   */\n      tag_715\n      jumpi\n        /* \"#utility.yul\":135:136   */\n      0x00\n        /* \"#utility.yul\":132:133   */\n      dup1\n        /* \"#utility.yul\":125:137   */\n      revert\n        /* \"#utility.yul\":69:139   */\n    tag_715:\n        /* \"#utility.yul\":14:145   */\n      pop\n      jump\t// out\n        /* \"#utility.yul\":150:397   */\n    tag_57:\n        /* \"#utility.yul\":209:215   */\n      0x00\n        /* \"#utility.yul\":262:264   */\n      0x20\n        /* \"#utility.yul\":250:259   */\n      dup3\n        /* \"#utility.yul\":241:248   */\n      dup5\n        /* \"#utility.yul\":237:260   */\n      sub\n        /* \"#utility.yul\":233:265   */\n      slt\n        /* \"#utility.yul\":230:282   */\n      iszero\n      tag_717\n      jumpi\n        /* \"#utility.yul\":278:279   */\n      0x00\n        /* \"#utility.yul\":275:276   */\n      dup1\n        /* \"#utility.yul\":268:280   */\n      revert\n        /* \"#utility.yul\":230:282   */\n    tag_717:\n        /* \"#utility.yul\":317:326   */\n      dup2\n        /* \"#utility.yul\":304:327   */\n      calldataload\n        /* \"#utility.yul\":336:367   */\n      tag_718\n        /* \"#utility.yul\":361:366   */\n      dup2\n        /* \"#utility.yul\":336:367   */\n      tag_703\n      jump\t// in\n    tag_718:\n        /* \"#utility.yul\":386:391   */\n      swap4\n        /* \"#utility.yul\":150:397   */\n      swap3\n      pop\n      pop\n      pop\n      jump\t// out\n        /* \"#utility.yul\":584:810   */\n    tag_73:\n        /* \"#utility.yul\":643:649   */\n      0x00\n        /* \"#utility.yul\":696:698   */\n      0x20\n        /* \"#utility.yul\":684:693   */\n      dup3\n        /* \"#utility.yul\":675:682   */\n      dup5\n        /* \"#utility.yul\":671:694   */\n      sub\n        /* \"#utility.yul\":667:699   */\n      slt\n        /* \"#utility.yul\":664:716   */\n      iszero\n      tag_721\n      jumpi\n        /* \"#utility.yul\":712:713   */\n      0x00\n        /* \"#utility.yul\":709:710   */\n      dup1\n        /* \"#utility.yul\":702:714   */\n      revert\n        /* \"#utility.yul\":664:716   */\n    tag_721:\n      pop\n        /* \"#utility.yul\":757:780   */\n      calldataload\n      swap2\n        /* \"#utility.yul\":584:810   */\n      swap1\n      pop\n      jump\t// out\n        /* \"#utility.yul\":1789:2358   */\n    tag_704:\n        /* \"#utility.yul\":1877:1882   */\n      dup1\n        /* \"#utility.yul\":1871:1883   */\n      mload\n        /* \"#utility.yul\":1866:1869   */\n      dup3\n        /* \"#utility.yul\":1859:1884   */\n      mstore\n        /* \"#utility.yul\":1933:1937   */\n      0x20\n        /* \"#utility.yul\":1926:1931   */\n      dup2\n        /* \"#utility.yul\":1922:1938   */\n      add\n        /* \"#utility.yul\":1916:1939   */\n      mload\n        /* \"#utility.yul\":1909:1913   */\n      0x20\n        /* \"#utility.yul\":1904:1907   */\n      dup4\n        /* \"#utility.yul\":1900:1914   */\n      add\n        /* \"#utility.yul\":1893:1940   */\n      mstore\n        /* \"#utility.yul\":1989:1993   */\n      0x40\n        /* \"#utility.yul\":1982:1987   */\n      dup2\n        /* \"#utility.yul\":1978:1994   */\n      add\n        /* \"#utility.yul\":1972:1995   */\n      mload\n        /* \"#utility.yul\":1965:1969   */\n      0x40\n        /* \"#utility.yul\":1960:1963   */\n      dup4\n        /* \"#utility.yul\":1956:1970   */\n      add\n        /* \"#utility.yul\":1949:1996   */\n      mstore\n        /* \"#utility.yul\":2045:2049   */\n      0x60\n        /* \"#utility.yul\":2038:2043   */\n      dup2\n        /* \"#utility.yul\":2034:2050   */\n      add\n        /* \"#utility.yul\":2028:2051   */\n      mload\n        /* \"#utility.yul\":2021:2025   */\n      0x60\n        /* \"#utility.yul\":2016:2019   */\n      dup4\n        /* \"#utility.yul\":2012:2026   */\n      add\n        /* \"#utility.yul\":2005:2052   */\n      mstore\n        /* \"#utility.yul\":2101:2105   */\n      0x80\n        /* \"#utility.yul\":2094:2099   */\n      dup2\n        /* \"#utility.yul\":2090:2106   */\n      add\n        /* \"#utility.yul\":2084:2107   */\n      mload\n        /* \"#utility.yul\":2077:2081   */\n      0x80\n        /* \"#utility.yul\":2072:2075   */\n      dup4\n        /* \"#utility.yul\":2068:2082   */\n      add\n        /* \"#utility.yul\":2061:2108   */\n      mstore\n        /* \"#utility.yul\":2157:2161   */\n      0xa0\n        /* \"#utility.yul\":2150:2155   */\n      dup2\n        /* \"#utility.yul\":2146:2162   */\n      add\n        /* \"#utility.yul\":2140:2163   */\n      mload\n        /* \"#utility.yul\":2133:2137   */\n      0xa0\n        /* \"#utility.yul\":2128:2131   */\n      dup4\n        /* \"#utility.yul\":2124:2138   */\n      add\n        /* \"#utility.yul\":2117:2164   */\n      mstore\n        /* \"#utility.yul\":2213:2217   */\n      0xc0\n        /* \"#utility.yul\":2206:2211   */\n      dup2\n        /* \"#utility.yul\":2202:2218   */\n      add\n        /* \"#utility.yul\":2196:2219   */\n      mload\n        /* \"#utility.yul\":2189:2193   */\n      0xc0\n        /* \"#utility.yul\":2184:2187   */\n      dup4\n        /* \"#utility.yul\":2180:2194   */\n      add\n        /* \"#utility.yul\":2173:2220   */\n      mstore\n        /* \"#utility.yul\":2283:2287   */\n      0xe0\n        /* \"#utility.yul\":2276:2281   */\n      dup2\n        /* \"#utility.yul\":2272:2288   */\n      add\n        /* \"#utility.yul\":2266:2289   */\n      mload\n        /* \"#utility.yul\":2259:2290   */\n      iszero\n        /* \"#utility.yul\":2252:2291   */\n      iszero\n        /* \"#utility.yul\":2245:2249   */\n      0xe0\n        /* \"#utility.yul\":2240:2243   */\n      dup4\n        /* \"#utility.yul\":2236:2250   */\n      add\n        /* \"#utility.yul\":2229:2292   */\n      mstore\n        /* \"#utility.yul\":2343:2349   */\n      0x0100\n        /* \"#utility.yul\":2336:2341   */\n      dup2\n        /* \"#utility.yul\":2332:2350   */\n      add\n        /* \"#utility.yul\":2326:2351   */\n      mload\n        /* \"#utility.yul\":2317:2323   */\n      0x0100\n        /* \"#utility.yul\":2312:2315   */\n      dup4\n        /* \"#utility.yul\":2308:2324   */\n      add\n        /* \"#utility.yul\":2301:2352   */\n      mstore\n      pop\n      pop\n        /* \"#utility.yul\":1789:2358   */\n      jump\t// out\n        /* \"#utility.yul\":2363:2635   */\n    tag_107:\n        /* \"#utility.yul\":2563:2566   */\n      0x0120\n        /* \"#utility.yul\":2548:2567   */\n      dup2\n      add\n        /* \"#utility.yul\":2576:2629   */\n      tag_726\n        /* \"#utility.yul\":2552:2561   */\n      dup3\n        /* \"#utility.yul\":2611:2617   */\n      dup5\n        /* \"#utility.yul\":2576:2629   */\n      tag_704\n      jump\t// in\n    tag_726:\n        /* \"#utility.yul\":2363:2635   */\n      swap3\n      swap2\n      pop\n      pop\n      jump\t// out\n        /* \"#utility.yul\":2640:3251   */\n    tag_112:\n        /* \"#utility.yul\":2830:2832   */\n      0x20\n        /* \"#utility.yul\":2842:2863   */\n      dup1\n      dup3\n      mstore\n        /* \"#utility.yul\":2912:2925   */\n      dup3\n      mload\n        /* \"#utility.yul\":2815:2833   */\n      dup3\n      dup3\n      add\n        /* \"#utility.yul\":2934:2956   */\n      dup2\n      swap1\n      mstore\n        /* \"#utility.yul\":2782:2786   */\n      0x00\n      swap2\n        /* \"#utility.yul\":3013:3028   */\n      dup5\n      add\n      swap1\n        /* \"#utility.yul\":2987:2989   */\n      0x40\n        /* \"#utility.yul\":2972:2990   */\n      dup5\n      add\n      swap1\n        /* \"#utility.yul\":2782:2786   */\n      dup4\n        /* \"#utility.yul\":3056:3225   */\n    tag_728:\n        /* \"#utility.yul\":3070:3076   */\n      dup2\n        /* \"#utility.yul\":3067:3068   */\n      dup2\n        /* \"#utility.yul\":3064:3077   */\n      lt\n        /* \"#utility.yul\":3056:3225   */\n      iszero\n      tag_730\n      jumpi\n        /* \"#utility.yul\":3131:3144   */\n      dup4\n      mload\n        /* \"#utility.yul\":3119:3145   */\n      dup4\n      mstore\n        /* \"#utility.yul\":3174:3176   */\n      0x20\n        /* \"#utility.yul\":3200:3215   */\n      swap4\n      dup5\n      add\n      swap4\n        /* \"#utility.yul\":3165:3177   */\n      swap1\n      swap3\n      add\n      swap2\n        /* \"#utility.yul\":3092:3093   */\n      0x01\n        /* \"#utility.yul\":3085:3094   */\n      add\n        /* \"#utility.yul\":3056:3225   */\n      jump(tag_728)\n    tag_730:\n      pop\n        /* \"#utility.yul\":3242:3245   */\n      swap1\n      swap6\n        /* \"#utility.yul\":2640:3251   */\n      swap5\n      pop\n      pop\n      pop\n      pop\n      pop\n      jump\t// out\n        /* \"#utility.yul\":3256:3602   */\n    tag_116:\n        /* \"#utility.yul\":3324:3330   */\n      0x00\n        /* \"#utility.yul\":3332:3338   */\n      dup1\n        /* \"#utility.yul\":3385:3387   */\n      0x40\n        /* \"#utility.yul\":3373:3382   */\n      dup4\n        /* \"#utility.yul\":3364:3371   */\n      dup6\n        /* \"#utility.yul\":3360:3383   */\n      sub\n        /* \"#utility.yul\":3356:3388   */\n      slt\n        /* \"#utility.yul\":3353:3405   */\n      iszero\n      tag_732\n      jumpi\n        /* \"#utility.yul\":3401:3402   */\n      0x00\n        /* \"#utility.yul\":3398:3399   */\n      dup1\n        /* \"#utility.yul\":3391:3403   */\n      revert\n        /* \"#utility.yul\":3353:3405   */\n    tag_732:\n      pop\n      pop\n        /* \"#utility.yul\":3446:3469   */\n      dup1\n      calldataload\n      swap3\n        /* \"#utility.yul\":3566:3568   */\n      0x20\n        /* \"#utility.yul\":3551:3569   */\n      swap1\n      swap2\n      add\n        /* \"#utility.yul\":3538:3570   */\n      calldataload\n      swap2\n      pop\n        /* \"#utility.yul\":3256:3602   */\n      jump\t// out\n        /* \"#utility.yul\":3607:4027   */\n    tag_705:\n        /* \"#utility.yul\":3660:3663   */\n      0x00\n        /* \"#utility.yul\":3698:3703   */\n      dup2\n        /* \"#utility.yul\":3692:3704   */\n      mload\n        /* \"#utility.yul\":3725:3731   */\n      dup1\n        /* \"#utility.yul\":3720:3723   */\n      dup5\n        /* \"#utility.yul\":3713:3732   */\n      mstore\n        /* \"#utility.yul\":3757:3761   */\n      0x20\n        /* \"#utility.yul\":3752:3755   */\n      dup5\n        /* \"#utility.yul\":3748:3762   */\n      add\n        /* \"#utility.yul\":3741:3762   */\n      swap4\n      pop\n        /* \"#utility.yul\":3796:3800   */\n      0x20\n        /* \"#utility.yul\":3789:3794   */\n      dup4\n        /* \"#utility.yul\":3785:3801   */\n      add\n        /* \"#utility.yul\":3819:3820   */\n      0x00\n        /* \"#utility.yul\":3829:4002   */\n    tag_734:\n        /* \"#utility.yul\":3843:3849   */\n      dup3\n        /* \"#utility.yul\":3840:3841   */\n      dup2\n        /* \"#utility.yul\":3837:3850   */\n      lt\n        /* \"#utility.yul\":3829:4002   */\n      iszero\n      tag_736\n      jumpi\n        /* \"#utility.yul\":3904:3917   */\n      dup2\n      mload\n        /* \"#utility.yul\":3892:3918   */\n      dup7\n      mstore\n        /* \"#utility.yul\":3947:3951   */\n      0x20\n        /* \"#utility.yul\":3938:3952   */\n      swap6\n      dup7\n      add\n      swap6\n        /* \"#utility.yul\":3975:3992   */\n      swap1\n      swap2\n      add\n      swap1\n        /* \"#utility.yul\":3865:3866   */\n      0x01\n        /* \"#utility.yul\":3858:3867   */\n      add\n        /* \"#utility.yul\":3829:4002   */\n      jump(tag_734)\n    tag_736:\n      pop\n        /* \"#utility.yul\":4018:4021   */\n      swap4\n      swap5\n        /* \"#utility.yul\":3607:4027   */\n      swap4\n      pop\n      pop\n      pop\n      pop\n      jump\t// out\n        /* \"#utility.yul\":4032:4717   */\n    tag_706:\n        /* \"#utility.yul\":4148:4149   */\n      0x01\n        /* \"#utility.yul\":4144:4145   */\n      dup1\n        /* \"#utility.yul\":4139:4142   */\n      0xa0\n        /* \"#utility.yul\":4135:4146   */\n      shl\n        /* \"#utility.yul\":4131:4150   */\n      sub\n        /* \"#utility.yul\":4123:4128   */\n      dup2\n        /* \"#utility.yul\":4117:4129   */\n      mload\n        /* \"#utility.yul\":4113:4151   */\n      and\n        /* \"#utility.yul\":4108:4111   */\n      dup3\n        /* \"#utility.yul\":4101:4152   */\n      mstore\n        /* \"#utility.yul\":4201:4205   */\n      0x20\n        /* \"#utility.yul\":4194:4199   */\n      dup2\n        /* \"#utility.yul\":4190:4206   */\n      add\n        /* \"#utility.yul\":4184:4207   */\n      mload\n        /* \"#utility.yul\":4177:4181   */\n      0x20\n        /* \"#utility.yul\":4172:4175   */\n      dup4\n        /* \"#utility.yul\":4168:4182   */\n      add\n        /* \"#utility.yul\":4161:4208   */\n      mstore\n        /* \"#utility.yul\":4257:4261   */\n      0x40\n        /* \"#utility.yul\":4250:4255   */\n      dup2\n        /* \"#utility.yul\":4246:4262   */\n      add\n        /* \"#utility.yul\":4240:4263   */\n      mload\n        /* \"#utility.yul\":4233:4237   */\n      0x40\n        /* \"#utility.yul\":4228:4231   */\n      dup4\n        /* \"#utility.yul\":4224:4238   */\n      add\n        /* \"#utility.yul\":4217:4264   */\n      mstore\n        /* \"#utility.yul\":4083:4086   */\n      0x00\n        /* \"#utility.yul\":4310:4314   */\n      0x60\n        /* \"#utility.yul\":4303:4308   */\n      dup3\n        /* \"#utility.yul\":4299:4315   */\n      add\n        /* \"#utility.yul\":4293:4316   */\n      mload\n        /* \"#utility.yul\":4348:4352   */\n      0xe0\n        /* \"#utility.yul\":4341:4345   */\n      0x60\n        /* \"#utility.yul\":4336:4339   */\n      dup6\n        /* \"#utility.yul\":4332:4346   */\n      add\n        /* \"#utility.yul\":4325:4353   */\n      mstore\n        /* \"#utility.yul\":4374:4432   */\n      tag_738\n        /* \"#utility.yul\":4426:4430   */\n      0xe0\n        /* \"#utility.yul\":4421:4424   */\n      dup6\n        /* \"#utility.yul\":4417:4431   */\n      add\n        /* \"#utility.yul\":4403:4415   */\n      dup3\n        /* \"#utility.yul\":4374:4432   */\n      tag_705\n      jump\t// in\n    tag_738:\n        /* \"#utility.yul\":4362:4432   */\n      swap1\n      pop\n        /* \"#utility.yul\":4481:4485   */\n      0x80\n        /* \"#utility.yul\":4474:4479   */\n      dup4\n        /* \"#utility.yul\":4470:4486   */\n      add\n        /* \"#utility.yul\":4464:4487   */\n      mload\n        /* \"#utility.yul\":4457:4461   */\n      0x80\n        /* \"#utility.yul\":4452:4455   */\n      dup6\n        /* \"#utility.yul\":4448:4462   */\n      add\n        /* \"#utility.yul\":4441:4488   */\n      mstore\n        /* \"#utility.yul\":4537:4541   */\n      0xa0\n        /* \"#utility.yul\":4530:4535   */\n      dup4\n        /* \"#utility.yul\":4526:4542   */\n      add\n        /* \"#utility.yul\":4520:4543   */\n      mload\n        /* \"#utility.yul\":4513:4517   */\n      0xa0\n        /* \"#utility.yul\":4508:4511   */\n      dup6\n        /* \"#utility.yul\":4504:4518   */\n      add\n        /* \"#utility.yul\":4497:4544   */\n      mstore\n        /* \"#utility.yul\":4592:4596   */\n      0xc0\n        /* \"#utility.yul\":4585:4590   */\n      dup4\n        /* \"#utility.yul\":4581:4597   */\n      add\n        /* \"#utility.yul\":4575:4598   */\n      mload\n        /* \"#utility.yul\":4640:4643   */\n      dup5\n        /* \"#utility.yul\":4634:4638   */\n      dup3\n        /* \"#utility.yul\":4630:4644   */\n      sub\n        /* \"#utility.yul\":4623:4627   */\n      0xc0\n        /* \"#utility.yul\":4618:4621   */\n      dup7\n        /* \"#utility.yul\":4614:4628   */\n      add\n        /* \"#utility.yul\":4607:4645   */\n      mstore\n        /* \"#utility.yul\":4661:4711   */\n      tag_739\n        /* \"#utility.yul\":4706:4710   */\n      dup3\n        /* \"#utility.yul\":4690:4704   */\n      dup3\n        /* \"#utility.yul\":4661:4711   */\n      tag_705\n      jump\t// in\n    tag_739:\n        /* \"#utility.yul\":4654:4711   */\n      swap6\n        /* \"#utility.yul\":4032:4717   */\n      swap5\n      pop\n      pop\n      pop\n      pop\n      pop\n      jump\t// out\n        /* \"#utility.yul\":4722:5543   */\n    tag_119:\n        /* \"#utility.yul\":4914:4918   */\n      0x00\n        /* \"#utility.yul\":4962:4964   */\n      0x20\n        /* \"#utility.yul\":4951:4960   */\n      dup3\n        /* \"#utility.yul\":4947:4965   */\n      add\n        /* \"#utility.yul\":4992:4994   */\n      0x20\n        /* \"#utility.yul\":4981:4990   */\n      dup4\n        /* \"#utility.yul\":4974:4995   */\n      mstore\n        /* \"#utility.yul\":5015:5021   */\n      dup1\n        /* \"#utility.yul\":5050:5056   */\n      dup5\n        /* \"#utility.yul\":5044:5057   */\n      mload\n        /* \"#utility.yul\":5081:5087   */\n      dup1\n        /* \"#utility.yul\":5073:5079   */\n      dup4\n        /* \"#utility.yul\":5066:5088   */\n      mstore\n        /* \"#utility.yul\":5119:5121   */\n      0x40\n        /* \"#utility.yul\":5108:5117   */\n      dup6\n        /* \"#utility.yul\":5104:5122   */\n      add\n        /* \"#utility.yul\":5097:5122   */\n      swap2\n      pop\n        /* \"#utility.yul\":5181:5183   */\n      0x40\n        /* \"#utility.yul\":5171:5177   */\n      dup2\n        /* \"#utility.yul\":5168:5169   */\n      0x05\n        /* \"#utility.yul\":5164:5178   */\n      shl\n        /* \"#utility.yul\":5153:5162   */\n      dup7\n        /* \"#utility.yul\":5149:5179   */\n      add\n        /* \"#utility.yul\":5145:5184   */\n      add\n        /* \"#utility.yul\":5131:5184   */\n      swap3\n      pop\n        /* \"#utility.yul\":5219:5221   */\n      0x20\n        /* \"#utility.yul\":5211:5217   */\n      dup7\n        /* \"#utility.yul\":5207:5222   */\n      add\n        /* \"#utility.yul\":5240:5241   */\n      0x00\n        /* \"#utility.yul\":5250:5514   */\n    tag_741:\n        /* \"#utility.yul\":5264:5270   */\n      dup3\n        /* \"#utility.yul\":5261:5262   */\n      dup2\n        /* \"#utility.yul\":5258:5271   */\n      lt\n        /* \"#utility.yul\":5250:5514   */\n      iszero\n      tag_743\n      jumpi\n        /* \"#utility.yul\":5357:5359   */\n      0x3f\n        /* \"#utility.yul\":5353:5360   */\n      not\n        /* \"#utility.yul\":5341:5350   */\n      dup8\n        /* \"#utility.yul\":5333:5339   */\n      dup7\n        /* \"#utility.yul\":5329:5351   */\n      sub\n        /* \"#utility.yul\":5325:5361   */\n      add\n        /* \"#utility.yul\":5320:5323   */\n      dup5\n        /* \"#utility.yul\":5313:5362   */\n      mstore\n        /* \"#utility.yul\":5385:5434   */\n      tag_744\n        /* \"#utility.yul\":5427:5433   */\n      dup6\n        /* \"#utility.yul\":5418:5424   */\n      dup4\n        /* \"#utility.yul\":5412:5425   */\n      mload\n        /* \"#utility.yul\":5385:5434   */\n      tag_706\n      jump\t// in\n    tag_744:\n        /* \"#utility.yul\":5375:5434   */\n      swap5\n      pop\n        /* \"#utility.yul\":5469:5471   */\n      0x20\n        /* \"#utility.yul\":5492:5504   */\n      swap4\n      dup5\n      add\n      swap4\n        /* \"#utility.yul\":5457:5472   */\n      swap2\n      swap1\n      swap2\n      add\n      swap1\n        /* \"#utility.yul\":5286:5287   */\n      0x01\n        /* \"#utility.yul\":5279:5288   */\n      add\n        /* \"#utility.yul\":5250:5514   */\n      jump(tag_741)\n    tag_743:\n      pop\n        /* \"#utility.yul\":5531:5537   */\n      swap3\n      swap7\n        /* \"#utility.yul\":4722:5543   */\n      swap6\n      pop\n      pop\n      pop\n      pop\n      pop\n      pop\n      jump\t// out\n        /* \"#utility.yul\":5740:6029   */\n    tag_707:\n        /* \"#utility.yul\":5782:5785   */\n      0x00\n        /* \"#utility.yul\":5820:5825   */\n      dup2\n        /* \"#utility.yul\":5814:5826   */\n      mload\n        /* \"#utility.yul\":5847:5853   */\n      dup1\n        /* \"#utility.yul\":5842:5845   */\n      dup5\n        /* \"#utility.yul\":5835:5854   */\n      mstore\n        /* \"#utility.yul\":5903:5909   */\n      dup1\n        /* \"#utility.yul\":5896:5900   */\n      0x20\n        /* \"#utility.yul\":5889:5894   */\n      dup5\n        /* \"#utility.yul\":5885:5901   */\n      add\n        /* \"#utility.yul\":5878:5882   */\n      0x20\n        /* \"#utility.yul\":5873:5876   */\n      dup7\n        /* \"#utility.yul\":5869:5883   */\n      add\n        /* \"#utility.yul\":5863:5910   */\n      mcopy\n        /* \"#utility.yul\":5955:5956   */\n      0x00\n        /* \"#utility.yul\":5948:5952   */\n      0x20\n        /* \"#utility.yul\":5939:5945   */\n      dup3\n        /* \"#utility.yul\":5934:5937   */\n      dup7\n        /* \"#utility.yul\":5930:5946   */\n      add\n        /* \"#utility.yul\":5926:5953   */\n      add\n        /* \"#utility.yul\":5919:5957   */\n      mstore\n        /* \"#utility.yul\":6018:6022   */\n      0x20\n        /* \"#utility.yul\":6011:6013   */\n      0x1f\n        /* \"#utility.yul\":6007:6014   */\n      not\n        /* \"#utility.yul\":6002:6004   */\n      0x1f\n        /* \"#utility.yul\":5994:6000   */\n      dup4\n        /* \"#utility.yul\":5990:6005   */\n      add\n        /* \"#utility.yul\":5986:6015   */\n      and\n        /* \"#utility.yul\":5981:5984   */\n      dup6\n        /* \"#utility.yul\":5977:6016   */\n      add\n        /* \"#utility.yul\":5973:6023   */\n      add\n        /* \"#utility.yul\":5966:6023   */\n      swap2\n      pop\n      pop\n        /* \"#utility.yul\":5740:6029   */\n      swap3\n      swap2\n      pop\n      pop\n      jump\t// out\n        /* \"#utility.yul\":6034:6666   */\n    tag_141:\n      sub(shl(0xa0, 0x01), 0x01)\n        /* \"#utility.yul\":6311:6343   */\n      dup7\n      and\n        /* \"#utility.yul\":6293:6344   */\n      dup2\n      mstore\n        /* \"#utility.yul\":6331:6334   */\n      0xa0\n        /* \"#utility.yul\":6375:6377   */\n      0x20\n        /* \"#utility.yul\":6360:6378   */\n      dup3\n      add\n        /* \"#utility.yul\":6353:6384   */\n      dup2\n      swap1\n      mstore\n      0x00\n      swap1\n        /* \"#utility.yul\":6407:6453   */\n      tag_748\n      swap1\n        /* \"#utility.yul\":6433:6452   */\n      dup4\n      add\n        /* \"#utility.yul\":6425:6431   */\n      dup8\n        /* \"#utility.yul\":6407:6453   */\n      tag_707\n      jump\t// in\n    tag_748:\n        /* \"#utility.yul\":6501:6510   */\n      dup3\n        /* \"#utility.yul\":6493:6499   */\n      dup2\n        /* \"#utility.yul\":6489:6511   */\n      sub\n        /* \"#utility.yul\":6484:6486   */\n      0x40\n        /* \"#utility.yul\":6473:6482   */\n      dup5\n        /* \"#utility.yul\":6469:6487   */\n      add\n        /* \"#utility.yul\":6462:6512   */\n      mstore\n        /* \"#utility.yul\":6529:6562   */\n      tag_749\n        /* \"#utility.yul\":6555:6561   */\n      dup2\n        /* \"#utility.yul\":6547:6553   */\n      dup8\n        /* \"#utility.yul\":6529:6562   */\n      tag_707\n      jump\t// in\n    tag_749:\n        /* \"#utility.yul\":6610:6614   */\n      0xff\n        /* \"#utility.yul\":6598:6615   */\n      swap6\n      swap1\n      swap6\n      and\n        /* \"#utility.yul\":6593:6595   */\n      0x60\n        /* \"#utility.yul\":6578:6596   */\n      dup5\n      add\n        /* \"#utility.yul\":6571:6616   */\n      mstore\n      pop\n      pop\n        /* \"#utility.yul\":6647:6650   */\n      0x80\n        /* \"#utility.yul\":6632:6651   */\n      add\n        /* \"#utility.yul\":6625:6660   */\n      mstore\n        /* \"#utility.yul\":6521:6562   */\n      swap4\n        /* \"#utility.yul\":6034:6666   */\n      swap3\n      pop\n      pop\n      pop\n      jump\t// out\n        /* \"#utility.yul\":6671:6930   */\n    tag_159:\n        /* \"#utility.yul\":6850:6852   */\n      0x20\n        /* \"#utility.yul\":6839:6848   */\n      dup2\n        /* \"#utility.yul\":6832:6853   */\n      mstore\n        /* \"#utility.yul\":6813:6817   */\n      0x00\n        /* \"#utility.yul\":6870:6924   */\n      tag_718\n        /* \"#utility.yul\":6920:6922   */\n      0x20\n        /* \"#utility.yul\":6909:6918   */\n      dup4\n        /* \"#utility.yul\":6905:6923   */\n      add\n        /* \"#utility.yul\":6897:6903   */\n      dup5\n        /* \"#utility.yul\":6870:6924   */\n      tag_706\n      jump\t// in\n        /* \"#utility.yul\":6935:7315   */\n    tag_172:\n        /* \"#utility.yul\":7016:7022   */\n      0x00\n        /* \"#utility.yul\":7024:7030   */\n      dup1\n        /* \"#utility.yul\":7077:7079   */\n      0x40\n        /* \"#utility.yul\":7065:7074   */\n      dup4\n        /* \"#utility.yul\":7056:7063   */\n      dup6\n        /* \"#utility.yul\":7052:7075   */\n      sub\n        /* \"#utility.yul\":7048:7080   */\n      slt\n        /* \"#utility.yul\":7045:7097   */\n      iszero\n      tag_753\n      jumpi\n        /* \"#utility.yul\":7093:7094   */\n      0x00\n        /* \"#utility.yul\":7090:7091   */\n      dup1\n        /* \"#utility.yul\":7083:7095   */\n      revert\n        /* \"#utility.yul\":7045:7097   */\n    tag_753:\n        /* \"#utility.yul\":7132:7141   */\n      dup3\n        /* \"#utility.yul\":7119:7142   */\n      calldataload\n        /* \"#utility.yul\":7151:7182   */\n      tag_754\n        /* \"#utility.yul\":7176:7181   */\n      dup2\n        /* \"#utility.yul\":7151:7182   */\n      tag_703\n      jump\t// in\n    tag_754:\n        /* \"#utility.yul\":7201:7206   */\n      swap5\n        /* \"#utility.yul\":7279:7281   */\n      0x20\n        /* \"#utility.yul\":7264:7282   */\n      swap4\n      swap1\n      swap4\n      add\n        /* \"#utility.yul\":7251:7283   */\n      calldataload\n      swap4\n      pop\n      pop\n      pop\n        /* \"#utility.yul\":6935:7315   */\n      jump\t// out\n        /* \"#utility.yul\":7692:7810   */\n    tag_708:\n        /* \"#utility.yul\":7778:7783   */\n      dup1\n        /* \"#utility.yul\":7771:7784   */\n      iszero\n        /* \"#utility.yul\":7764:7785   */\n      iszero\n        /* \"#utility.yul\":7757:7762   */\n      dup2\n        /* \"#utility.yul\":7754:7786   */\n      eq\n        /* \"#utility.yul\":7744:7804   */\n      tag_715\n      jumpi\n        /* \"#utility.yul\":7800:7801   */\n      0x00\n        /* \"#utility.yul\":7797:7798   */\n      dup1\n        /* \"#utility.yul\":7790:7802   */\n      revert\n        /* \"#utility.yul\":7815:8901   */\n    tag_188:\n        /* \"#utility.yul\":7934:7940   */\n      0x00\n        /* \"#utility.yul\":7942:7948   */\n      dup1\n        /* \"#utility.yul\":7950:7956   */\n      0x00\n        /* \"#utility.yul\":7958:7964   */\n      dup1\n        /* \"#utility.yul\":7966:7972   */\n      0x00\n        /* \"#utility.yul\":7974:7980   */\n      dup1\n        /* \"#utility.yul\":7982:7988   */\n      0x00\n        /* \"#utility.yul\":7990:7996   */\n      dup1\n        /* \"#utility.yul\":8043:8046   */\n      0x0100\n        /* \"#utility.yul\":8031:8040   */\n      dup10\n        /* \"#utility.yul\":8022:8029   */\n      dup12\n        /* \"#utility.yul\":8018:8041   */\n      sub\n        /* \"#utility.yul\":8014:8047   */\n      slt\n        /* \"#utility.yul\":8011:8064   */\n      iszero\n      tag_761\n      jumpi\n        /* \"#utility.yul\":8060:8061   */\n      0x00\n        /* \"#utility.yul\":8057:8058   */\n      dup1\n        /* \"#utility.yul\":8050:8062   */\n      revert\n        /* \"#utility.yul\":8011:8064   */\n    tag_761:\n        /* \"#utility.yul\":8105:8128   */\n      dup9\n      calldataload\n      swap8\n      pop\n        /* \"#utility.yul\":8225:8227   */\n      0x20\n        /* \"#utility.yul\":8210:8228   */\n      dup10\n      add\n        /* \"#utility.yul\":8197:8229   */\n      calldataload\n      swap7\n      pop\n        /* \"#utility.yul\":8328:8330   */\n      0x40\n        /* \"#utility.yul\":8313:8331   */\n      dup10\n      add\n        /* \"#utility.yul\":8300:8332   */\n      calldataload\n      swap6\n      pop\n        /* \"#utility.yul\":8431:8433   */\n      0x60\n        /* \"#utility.yul\":8416:8434   */\n      dup10\n      add\n        /* \"#utility.yul\":8403:8435   */\n      calldataload\n      swap5\n      pop\n        /* \"#utility.yul\":8534:8537   */\n      0x80\n        /* \"#utility.yul\":8519:8538   */\n      dup10\n      add\n        /* \"#utility.yul\":8506:8539   */\n      calldataload\n      swap4\n      pop\n        /* \"#utility.yul\":8638:8641   */\n      0xa0\n        /* \"#utility.yul\":8623:8642   */\n      dup10\n      add\n        /* \"#utility.yul\":8610:8643   */\n      calldataload\n      swap3\n      pop\n        /* \"#utility.yul\":8742:8745   */\n      0xc0\n        /* \"#utility.yul\":8727:8746   */\n      dup10\n      add\n        /* \"#utility.yul\":8714:8747   */\n      calldataload\n      swap2\n      pop\n        /* \"#utility.yul\":8825:8828   */\n      0xe0\n        /* \"#utility.yul\":8810:8829   */\n      dup10\n      add\n        /* \"#utility.yul\":8797:8830   */\n      calldataload\n        /* \"#utility.yul\":8839:8869   */\n      tag_762\n        /* \"#utility.yul\":8797:8830   */\n      dup2\n        /* \"#utility.yul\":8839:8869   */\n      tag_708\n      jump\t// in\n    tag_762:\n        /* \"#utility.yul\":8888:8895   */\n      dup1\n        /* \"#utility.yul\":8878:8895   */\n      swap2\n      pop\n      pop\n        /* \"#utility.yul\":7815:8901   */\n      swap3\n      swap6\n      swap9\n      pop\n      swap3\n      swap6\n      swap9\n      swap1\n      swap4\n      swap7\n      pop\n      jump\t// out\n        /* \"#utility.yul\":9316:9443   */\n    tag_319:\n        /* \"#utility.yul\":9377:9387   */\n      0x4e487b71\n        /* \"#utility.yul\":9372:9375   */\n      0xe0\n        /* \"#utility.yul\":9368:9388   */\n      shl\n        /* \"#utility.yul\":9365:9366   */\n      0x00\n        /* \"#utility.yul\":9358:9389   */\n      mstore\n        /* \"#utility.yul\":9408:9412   */\n      0x41\n        /* \"#utility.yul\":9405:9406   */\n      0x04\n        /* \"#utility.yul\":9398:9413   */\n      mstore\n        /* \"#utility.yul\":9432:9436   */\n      0x24\n        /* \"#utility.yul\":9429:9430   */\n      0x00\n        /* \"#utility.yul\":9422:9437   */\n      revert\n        /* \"#utility.yul\":9448:9723   */\n    tag_709:\n        /* \"#utility.yul\":9519:9521   */\n      0x40\n        /* \"#utility.yul\":9513:9522   */\n      mload\n        /* \"#utility.yul\":9584:9586   */\n      0x1f\n        /* \"#utility.yul\":9565:9578   */\n      dup3\n      add\n      not(0x1f)\n        /* \"#utility.yul\":9561:9588   */\n      and\n        /* \"#utility.yul\":9549:9589   */\n      dup2\n      add\n        /* \"#utility.yul\":9619:9637   */\n      0xffffffffffffffff\n        /* \"#utility.yul\":9604:9638   */\n      dup2\n      gt\n        /* \"#utility.yul\":9640:9662   */\n      dup3\n      dup3\n      lt\n        /* \"#utility.yul\":9601:9663   */\n      or\n        /* \"#utility.yul\":9598:9686   */\n      iszero\n      tag_768\n      jumpi\n        /* \"#utility.yul\":9666:9684   */\n      tag_768\n      tag_319\n      jump\t// in\n    tag_768:\n        /* \"#utility.yul\":9702:9704   */\n      0x40\n        /* \"#utility.yul\":9695:9717   */\n      mstore\n        /* \"#utility.yul\":9448:9723   */\n      swap2\n      swap1\n      pop\n      jump\t// out\n        /* \"#utility.yul\":9728:10718   */\n    tag_221:\n        /* \"#utility.yul\":9812:9818   */\n      0x00\n        /* \"#utility.yul\":9865:9867   */\n      0x20\n        /* \"#utility.yul\":9853:9862   */\n      dup3\n        /* \"#utility.yul\":9844:9851   */\n      dup5\n        /* \"#utility.yul\":9840:9863   */\n      sub\n        /* \"#utility.yul\":9836:9868   */\n      slt\n        /* \"#utility.yul\":9833:9885   */\n      iszero\n      tag_770\n      jumpi\n        /* \"#utility.yul\":9881:9882   */\n      0x00\n        /* \"#utility.yul\":9878:9879   */\n      dup1\n        /* \"#utility.yul\":9871:9883   */\n      revert\n        /* \"#utility.yul\":9833:9885   */\n    tag_770:\n        /* \"#utility.yul\":9921:9930   */\n      dup2\n        /* \"#utility.yul\":9908:9931   */\n      calldataload\n        /* \"#utility.yul\":9954:9972   */\n      0xffffffffffffffff\n        /* \"#utility.yul\":9946:9952   */\n      dup2\n        /* \"#utility.yul\":9943:9973   */\n      gt\n        /* \"#utility.yul\":9940:9990   */\n      iszero\n      tag_771\n      jumpi\n        /* \"#utility.yul\":9986:9987   */\n      0x00\n        /* \"#utility.yul\":9983:9984   */\n      dup1\n        /* \"#utility.yul\":9976:9988   */\n      revert\n        /* \"#utility.yul\":9940:9990   */\n    tag_771:\n        /* \"#utility.yul\":10009:10031   */\n      dup3\n      add\n        /* \"#utility.yul\":10062:10066   */\n      0x1f\n        /* \"#utility.yul\":10054:10067   */\n      dup2\n      add\n        /* \"#utility.yul\":10050:10077   */\n      dup5\n      sgt\n        /* \"#utility.yul\":10040:10095   */\n      tag_772\n      jumpi\n        /* \"#utility.yul\":10091:10092   */\n      0x00\n        /* \"#utility.yul\":10088:10089   */\n      dup1\n        /* \"#utility.yul\":10081:10093   */\n      revert\n        /* \"#utility.yul\":10040:10095   */\n    tag_772:\n        /* \"#utility.yul\":10131:10133   */\n      dup1\n        /* \"#utility.yul\":10118:10134   */\n      calldataload\n        /* \"#utility.yul\":10157:10175   */\n      0xffffffffffffffff\n        /* \"#utility.yul\":10149:10155   */\n      dup2\n        /* \"#utility.yul\":10146:10176   */\n      gt\n        /* \"#utility.yul\":10143:10199   */\n      iszero\n      tag_774\n      jumpi\n        /* \"#utility.yul\":10179:10197   */\n      tag_774\n      tag_319\n      jump\t// in\n    tag_774:\n        /* \"#utility.yul\":10225:10231   */\n      dup1\n        /* \"#utility.yul\":10222:10223   */\n      0x05\n        /* \"#utility.yul\":10218:10232   */\n      shl\n        /* \"#utility.yul\":10252:10280   */\n      tag_775\n        /* \"#utility.yul\":10276:10278   */\n      0x20\n        /* \"#utility.yul\":10272:10274   */\n      dup3\n        /* \"#utility.yul\":10268:10279   */\n      add\n        /* \"#utility.yul\":10252:10280   */\n      tag_709\n      jump\t// in\n    tag_775:\n        /* \"#utility.yul\":10314:10333   */\n      swap2\n      dup3\n      mstore\n        /* \"#utility.yul\":10358:10360   */\n      0x20\n        /* \"#utility.yul\":10388:10399   */\n      dup2\n      dup5\n      add\n        /* \"#utility.yul\":10384:10404   */\n      dup2\n      add\n      swap3\n        /* \"#utility.yul\":10349:10361   */\n      swap1\n      dup2\n      add\n      swap1\n        /* \"#utility.yul\":10416:10435   */\n      dup8\n      dup5\n      gt\n        /* \"#utility.yul\":10413:10452   */\n      iszero\n      tag_776\n      jumpi\n        /* \"#utility.yul\":10448:10449   */\n      0x00\n        /* \"#utility.yul\":10445:10446   */\n      dup1\n        /* \"#utility.yul\":10438:10450   */\n      revert\n        /* \"#utility.yul\":10413:10452   */\n    tag_776:\n        /* \"#utility.yul\":10480:10482   */\n      0x20\n        /* \"#utility.yul\":10476:10478   */\n      dup6\n        /* \"#utility.yul\":10472:10483   */\n      add\n        /* \"#utility.yul\":10461:10483   */\n      swap5\n      pop\n        /* \"#utility.yul\":10492:10688   */\n    tag_777:\n        /* \"#utility.yul\":10508:10514   */\n      dup4\n        /* \"#utility.yul\":10503:10506   */\n      dup6\n        /* \"#utility.yul\":10500:10515   */\n      lt\n        /* \"#utility.yul\":10492:10688   */\n      iszero\n      tag_779\n      jumpi\n        /* \"#utility.yul\":10598:10615   */\n      dup5\n      calldataload\n        /* \"#utility.yul\":10628:10646   */\n      dup1\n      dup4\n      mstore\n        /* \"#utility.yul\":10675:10677   */\n      0x20\n        /* \"#utility.yul\":10525:10537   */\n      swap6\n      dup7\n      add\n      swap6\n        /* \"#utility.yul\":10598:10615   */\n      swap1\n      swap4\n      pop\n        /* \"#utility.yul\":10666:10678   */\n      swap1\n      swap2\n      add\n      swap1\n        /* \"#utility.yul\":10492:10688   */\n      jump(tag_777)\n    tag_779:\n        /* \"#utility.yul\":10707:10712   */\n      swap8\n        /* \"#utility.yul\":9728:10718   */\n      swap7\n      pop\n      pop\n      pop\n      pop\n      pop\n      pop\n      pop\n      jump\t// out\n        /* \"#utility.yul\":11047:11756   */\n    tag_238:\n        /* \"#utility.yul\":11303:11305   */\n      0x20\n        /* \"#utility.yul\":11315:11336   */\n      dup1\n      dup3\n      mstore\n        /* \"#utility.yul\":11385:11398   */\n      dup3\n      mload\n        /* \"#utility.yul\":11288:11306   */\n      dup3\n      dup3\n      add\n        /* \"#utility.yul\":11407:11429   */\n      dup2\n      swap1\n      mstore\n        /* \"#utility.yul\":11255:11259   */\n      0x00\n      swap2\n        /* \"#utility.yul\":11486:11501   */\n      dup5\n      add\n      swap1\n        /* \"#utility.yul\":11460:11462   */\n      0x40\n        /* \"#utility.yul\":11445:11463   */\n      dup5\n      add\n      swap1\n        /* \"#utility.yul\":11255:11259   */\n      dup4\n        /* \"#utility.yul\":11529:11730   */\n    tag_782:\n        /* \"#utility.yul\":11543:11549   */\n      dup2\n        /* \"#utility.yul\":11540:11541   */\n      dup2\n        /* \"#utility.yul\":11537:11550   */\n      lt\n        /* \"#utility.yul\":11529:11730   */\n      iszero\n      tag_730\n      jumpi\n        /* \"#utility.yul\":11592:11646   */\n      tag_785\n        /* \"#utility.yul\":11642:11645   */\n      dup4\n        /* \"#utility.yul\":11633:11639   */\n      dup6\n        /* \"#utility.yul\":11627:11640   */\n      mload\n        /* \"#utility.yul\":11592:11646   */\n      tag_704\n      jump\t// in\n    tag_785:\n        /* \"#utility.yul\":11717:11719   */\n      0x20\n        /* \"#utility.yul\":11705:11720   */\n      swap4\n      swap1\n      swap4\n      add\n      swap3\n        /* \"#utility.yul\":11675:11681   */\n      0x0120\n        /* \"#utility.yul\":11666:11682   */\n      swap3\n      swap1\n      swap3\n      add\n      swap2\n        /* \"#utility.yul\":11565:11566   */\n      0x01\n        /* \"#utility.yul\":11558:11567   */\n      add\n        /* \"#utility.yul\":11529:11730   */\n      jump(tag_782)\n        /* \"#utility.yul\":11761:12117   */\n    tag_262:\n        /* \"#utility.yul\":11963:11965   */\n      0x20\n        /* \"#utility.yul\":11945:11966   */\n      dup1\n      dup3\n      mstore\n        /* \"#utility.yul\":11982:12000   */\n      dup2\n      dup2\n      add\n        /* \"#utility.yul\":11975:12005   */\n      mstore\n        /* \"#utility.yul\":12041:12075   */\n      0x4f776e61626c653a2063616c6c6572206973206e6f7420746865206f776e6572\n        /* \"#utility.yul\":12036:12038   */\n      0x40\n        /* \"#utility.yul\":12021:12039   */\n      dup3\n      add\n        /* \"#utility.yul\":12014:12076   */\n      mstore\n        /* \"#utility.yul\":12108:12110   */\n      0x60\n        /* \"#utility.yul\":12093:12111   */\n      add\n      swap1\n        /* \"#utility.yul\":11761:12117   */\n      jump\t// out\n        /* \"#utility.yul\":12477:12604   */\n    tag_277:\n        /* \"#utility.yul\":12538:12548   */\n      0x4e487b71\n        /* \"#utility.yul\":12533:12536   */\n      0xe0\n        /* \"#utility.yul\":12529:12549   */\n      shl\n        /* \"#utility.yul\":12526:12527   */\n      0x00\n        /* \"#utility.yul\":12519:12550   */\n      mstore\n        /* \"#utility.yul\":12569:12573   */\n      0x32\n        /* \"#utility.yul\":12566:12567   */\n      0x04\n        /* \"#utility.yul\":12559:12574   */\n      mstore\n        /* \"#utility.yul\":12593:12597   */\n      0x24\n        /* \"#utility.yul\":12590:12591   */\n      0x00\n        /* \"#utility.yul\":12583:12598   */\n      revert\n        /* \"#utility.yul\":12609:12736   */\n    tag_710:\n        /* \"#utility.yul\":12670:12680   */\n      0x4e487b71\n        /* \"#utility.yul\":12665:12668   */\n      0xe0\n        /* \"#utility.yul\":12661:12681   */\n      shl\n        /* \"#utility.yul\":12658:12659   */\n      0x00\n        /* \"#utility.yul\":12651:12682   */\n      mstore\n        /* \"#utility.yul\":12701:12705   */\n      0x11\n        /* \"#utility.yul\":12698:12699   */\n      0x04\n        /* \"#utility.yul\":12691:12706   */\n      mstore\n        /* \"#utility.yul\":12725:12729   */\n      0x24\n        /* \"#utility.yul\":12722:12723   */\n      0x00\n        /* \"#utility.yul\":12715:12730   */\n      revert\n        /* \"#utility.yul\":12741:12909   */\n    tag_280:\n        /* \"#utility.yul\":12814:12823   */\n      dup1\n      dup3\n      mul\n        /* \"#utility.yul\":12845:12854   */\n      dup2\n      iszero\n        /* \"#utility.yul\":12862:12877   */\n      dup3\n      dup3\n      div\n        /* \"#utility.yul\":12856:12878   */\n      dup5\n      eq\n        /* \"#utility.yul\":12842:12879   */\n      or\n        /* \"#utility.yul\":12832:12903   */\n      tag_726\n      jumpi\n        /* \"#utility.yul\":12883:12901   */\n      tag_726\n      tag_710\n      jump\t// in\n        /* \"#utility.yul\":12914:13039   */\n    tag_285:\n        /* \"#utility.yul\":12979:12988   */\n      dup1\n      dup3\n      add\n        /* \"#utility.yul\":13000:13010   */\n      dup1\n      dup3\n      gt\n        /* \"#utility.yul\":12997:13033   */\n      iszero\n      tag_726\n      jumpi\n        /* \"#utility.yul\":13013:13031   */\n      tag_726\n      tag_710\n      jump\t// in\n        /* \"#utility.yul\":13044:13261   */\n    tag_295:\n        /* \"#utility.yul\":13084:13085   */\n      0x00\n        /* \"#utility.yul\":13110:13111   */\n      dup3\n        /* \"#utility.yul\":13100:13232   */\n      tag_797\n      jumpi\n        /* \"#utility.yul\":13154:13164   */\n      0x4e487b71\n        /* \"#utility.yul\":13149:13152   */\n      0xe0\n        /* \"#utility.yul\":13145:13165   */\n      shl\n        /* \"#utility.yul\":13142:13143   */\n      0x00\n        /* \"#utility.yul\":13135:13166   */\n      mstore\n        /* \"#utility.yul\":13189:13193   */\n      0x12\n        /* \"#utility.yul\":13186:13187   */\n      0x04\n        /* \"#utility.yul\":13179:13194   */\n      mstore\n        /* \"#utility.yul\":13217:13221   */\n      0x24\n        /* \"#utility.yul\":13214:13215   */\n      0x00\n        /* \"#utility.yul\":13207:13222   */\n      revert\n        /* \"#utility.yul\":13100:13232   */\n    tag_797:\n      pop\n        /* \"#utility.yul\":13246:13255   */\n      div\n      swap1\n        /* \"#utility.yul\":13044:13261   */\n      jump\t// out\n        /* \"#utility.yul\":13266:13641   */\n    tag_711:\n        /* \"#utility.yul\":13354:13355   */\n      0x01\n        /* \"#utility.yul\":13372:13377   */\n      dup2\n        /* \"#utility.yul\":13386:13635   */\n    tag_799:\n        /* \"#utility.yul\":13407:13408   */\n      0x01\n        /* \"#utility.yul\":13397:13405   */\n      dup5\n        /* \"#utility.yul\":13394:13409   */\n      gt\n        /* \"#utility.yul\":13386:13635   */\n      iszero\n      tag_801\n      jumpi\n        /* \"#utility.yul\":13457:13461   */\n      dup1\n        /* \"#utility.yul\":13452:13455   */\n      dup6\n        /* \"#utility.yul\":13448:13462   */\n      div\n        /* \"#utility.yul\":13442:13446   */\n      dup2\n        /* \"#utility.yul\":13439:13463   */\n      gt\n        /* \"#utility.yul\":13436:13486   */\n      iszero\n      tag_803\n      jumpi\n        /* \"#utility.yul\":13466:13484   */\n      tag_803\n      tag_710\n      jump\t// in\n    tag_803:\n        /* \"#utility.yul\":13516:13517   */\n      0x01\n        /* \"#utility.yul\":13506:13514   */\n      dup5\n        /* \"#utility.yul\":13502:13518   */\n      and\n        /* \"#utility.yul\":13499:13548   */\n      iszero\n      tag_804\n      jumpi\n        /* \"#utility.yul\":13530:13546   */\n      swap1\n      dup2\n      mul\n      swap1\n        /* \"#utility.yul\":13499:13548   */\n    tag_804:\n        /* \"#utility.yul\":13613:13614   */\n      0x01\n        /* \"#utility.yul\":13609:13625   */\n      swap4\n      swap1\n      swap4\n      shr\n      swap3\n        /* \"#utility.yul\":13569:13584   */\n      dup1\n      mul\n        /* \"#utility.yul\":13386:13635   */\n      jump(tag_799)\n    tag_801:\n        /* \"#utility.yul\":13266:13641   */\n      swap4\n      pop\n      swap4\n      swap2\n      pop\n      pop\n      jump\t// out\n        /* \"#utility.yul\":13646:14548   */\n    tag_712:\n        /* \"#utility.yul\":13695:13700   */\n      0x00\n        /* \"#utility.yul\":13725:13733   */\n      dup3\n        /* \"#utility.yul\":13715:13795   */\n      tag_806\n      jumpi\n      pop\n        /* \"#utility.yul\":13766:13767   */\n      0x01\n        /* \"#utility.yul\":13780:13785   */\n      jump(tag_726)\n        /* \"#utility.yul\":13715:13795   */\n    tag_806:\n        /* \"#utility.yul\":13814:13818   */\n      dup2\n        /* \"#utility.yul\":13804:13880   */\n      tag_807\n      jumpi\n      pop\n        /* \"#utility.yul\":13851:13852   */\n      0x00\n        /* \"#utility.yul\":13865:13870   */\n      jump(tag_726)\n        /* \"#utility.yul\":13804:13880   */\n    tag_807:\n        /* \"#utility.yul\":13896:13900   */\n      dup2\n        /* \"#utility.yul\":13914:13915   */\n      0x01\n        /* \"#utility.yul\":13909:13968   */\n      dup2\n      eq\n      tag_809\n      jumpi\n        /* \"#utility.yul\":13982:13983   */\n      0x02\n        /* \"#utility.yul\":13977:14151   */\n      dup2\n      eq\n      tag_810\n      jumpi\n        /* \"#utility.yul\":13889:14151   */\n      jump(tag_808)\n        /* \"#utility.yul\":13909:13968   */\n    tag_809:\n        /* \"#utility.yul\":13939:13940   */\n      0x01\n        /* \"#utility.yul\":13930:13940   */\n      swap2\n      pop\n        /* \"#utility.yul\":13953:13958   */\n      pop\n      jump(tag_726)\n        /* \"#utility.yul\":13977:14151   */\n    tag_810:\n        /* \"#utility.yul\":14014:14017   */\n      0xff\n        /* \"#utility.yul\":14004:14012   */\n      dup5\n        /* \"#utility.yul\":14001:14018   */\n      gt\n        /* \"#utility.yul\":13998:14041   */\n      iszero\n      tag_812\n      jumpi\n        /* \"#utility.yul\":14021:14039   */\n      tag_812\n      tag_710\n      jump\t// in\n    tag_812:\n      pop\n      pop\n        /* \"#utility.yul\":14077:14078   */\n      0x01\n        /* \"#utility.yul\":14063:14079   */\n      dup3\n      shl\n        /* \"#utility.yul\":14136:14141   */\n      jump(tag_726)\n        /* \"#utility.yul\":13889:14151   */\n    tag_808:\n      pop\n        /* \"#utility.yul\":14235:14237   */\n      0x20\n        /* \"#utility.yul\":14225:14233   */\n      dup4\n        /* \"#utility.yul\":14222:14238   */\n      lt\n        /* \"#utility.yul\":14216:14219   */\n      0x0133\n        /* \"#utility.yul\":14210:14214   */\n      dup4\n        /* \"#utility.yul\":14207:14220   */\n      lt\n        /* \"#utility.yul\":14203:14239   */\n      and\n        /* \"#utility.yul\":14197:14199   */\n      0x4e\n        /* \"#utility.yul\":14187:14195   */\n      dup5\n        /* \"#utility.yul\":14184:14200   */\n      lt\n        /* \"#utility.yul\":14179:14181   */\n      0x0b\n        /* \"#utility.yul\":14173:14177   */\n      dup5\n        /* \"#utility.yul\":14170:14182   */\n      lt\n        /* \"#utility.yul\":14166:14201   */\n      and\n        /* \"#utility.yul\":14163:14240   */\n      or\n        /* \"#utility.yul\":14160:14363   */\n      iszero\n      tag_813\n      jumpi\n      pop\n        /* \"#utility.yul\":14272:14291   */\n      dup2\n      dup2\n      exp\n        /* \"#utility.yul\":14348:14353   */\n      jump(tag_726)\n        /* \"#utility.yul\":14160:14363   */\n    tag_813:\n        /* \"#utility.yul\":14395:14437   */\n      tag_814\n      not(0x00)\n        /* \"#utility.yul\":14420:14428   */\n      dup5\n        /* \"#utility.yul\":14414:14418   */\n      dup5\n        /* \"#utility.yul\":14395:14437   */\n      tag_711\n      jump\t// in\n    tag_814:\n        /* \"#utility.yul\":14473:14479   */\n      dup1\n        /* \"#utility.yul\":14469:14470   */\n      0x00\n        /* \"#utility.yul\":14465:14471   */\n      not\n        /* \"#utility.yul\":14461:14480   */\n      div\n        /* \"#utility.yul\":14452:14459   */\n      dup3\n        /* \"#utility.yul\":14449:14481   */\n      gt\n        /* \"#utility.yul\":14446:14504   */\n      iszero\n      tag_816\n      jumpi\n        /* \"#utility.yul\":14484:14502   */\n      tag_816\n      tag_710\n      jump\t// in\n    tag_816:\n        /* \"#utility.yul\":14522:14542   */\n      mul\n      swap4\n        /* \"#utility.yul\":13646:14548   */\n      swap3\n      pop\n      pop\n      pop\n      jump\t// out\n        /* \"#utility.yul\":14553:14684   */\n    tag_297:\n        /* \"#utility.yul\":14613:14618   */\n      0x00\n        /* \"#utility.yul\":14642:14678   */\n      tag_718\n        /* \"#utility.yul\":14669:14677   */\n      dup4\n        /* \"#utility.yul\":14663:14667   */\n      dup4\n        /* \"#utility.yul\":14642:14678   */\n      tag_712\n      jump\t// in\n        /* \"#utility.yul\":14689:15034   */\n    tag_307:\n        /* \"#utility.yul\":14891:14893   */\n      0x20\n        /* \"#utility.yul\":14873:14894   */\n      dup1\n      dup3\n      mstore\n        /* \"#utility.yul\":14930:14932   */\n      0x15\n        /* \"#utility.yul\":14910:14928   */\n      swap1\n      dup3\n      add\n        /* \"#utility.yul\":14903:14933   */\n      mstore\n      shl(0x5a, 0x131bd8dac81c195c9a5bd9081b9bdd08199bdd5b99)\n        /* \"#utility.yul\":14964:14966   */\n      0x40\n        /* \"#utility.yul\":14949:14967   */\n      dup3\n      add\n        /* \"#utility.yul\":14942:14993   */\n      mstore\n        /* \"#utility.yul\":15025:15027   */\n      0x60\n        /* \"#utility.yul\":15010:15028   */\n      add\n      swap1\n        /* \"#utility.yul\":14689:15034   */\n      jump\t// out\n        /* \"#utility.yul\":15039:15167   */\n    tag_316:\n        /* \"#utility.yul\":15106:15115   */\n      dup2\n      dup2\n      sub\n        /* \"#utility.yul\":15127:15138   */\n      dup2\n      dup2\n      gt\n        /* \"#utility.yul\":15124:15161   */\n      iszero\n      tag_726\n      jumpi\n        /* \"#utility.yul\":15141:15159   */\n      tag_726\n      tag_710\n      jump\t// in\n        /* \"#utility.yul\":15172:15299   */\n    tag_362:\n        /* \"#utility.yul\":15233:15243   */\n      0x4e487b71\n        /* \"#utility.yul\":15228:15231   */\n      0xe0\n        /* \"#utility.yul\":15224:15244   */\n      shl\n        /* \"#utility.yul\":15221:15222   */\n      0x00\n        /* \"#utility.yul\":15214:15245   */\n      mstore\n        /* \"#utility.yul\":15264:15268   */\n      0x31\n        /* \"#utility.yul\":15261:15262   */\n      0x04\n        /* \"#utility.yul\":15254:15269   */\n      mstore\n        /* \"#utility.yul\":15288:15292   */\n      0x24\n        /* \"#utility.yul\":15285:15286   */\n      0x00\n        /* \"#utility.yul\":15278:15293   */\n      revert\n        /* \"#utility.yul\":15648:16404   */\n    tag_382:\n        /* \"#utility.yul\":15728:15734   */\n      0x00\n        /* \"#utility.yul\":15781:15783   */\n      0x20\n        /* \"#utility.yul\":15769:15778   */\n      dup3\n        /* \"#utility.yul\":15760:15767   */\n      dup5\n        /* \"#utility.yul\":15756:15779   */\n      sub\n        /* \"#utility.yul\":15752:15784   */\n      slt\n        /* \"#utility.yul\":15749:15801   */\n      iszero\n      tag_826\n      jumpi\n        /* \"#utility.yul\":15797:15798   */\n      0x00\n        /* \"#utility.yul\":15794:15795   */\n      dup1\n        /* \"#utility.yul\":15787:15799   */\n      revert\n        /* \"#utility.yul\":15749:15801   */\n    tag_826:\n        /* \"#utility.yul\":15830:15839   */\n      dup2\n        /* \"#utility.yul\":15824:15840   */\n      mload\n        /* \"#utility.yul\":15863:15881   */\n      0xffffffffffffffff\n        /* \"#utility.yul\":15855:15861   */\n      dup2\n        /* \"#utility.yul\":15852:15882   */\n      gt\n        /* \"#utility.yul\":15849:15899   */\n      iszero\n      tag_827\n      jumpi\n        /* \"#utility.yul\":15895:15896   */\n      0x00\n        /* \"#utility.yul\":15892:15893   */\n      dup1\n        /* \"#utility.yul\":15885:15897   */\n      revert\n        /* \"#utility.yul\":15849:15899   */\n    tag_827:\n        /* \"#utility.yul\":15918:15940   */\n      dup3\n      add\n        /* \"#utility.yul\":15971:15975   */\n      0x1f\n        /* \"#utility.yul\":15963:15976   */\n      dup2\n      add\n        /* \"#utility.yul\":15959:15986   */\n      dup5\n      sgt\n        /* \"#utility.yul\":15949:16004   */\n      tag_828\n      jumpi\n        /* \"#utility.yul\":16000:16001   */\n      0x00\n        /* \"#utility.yul\":15997:15998   */\n      dup1\n        /* \"#utility.yul\":15990:16002   */\n      revert\n        /* \"#utility.yul\":15949:16004   */\n    tag_828:\n        /* \"#utility.yul\":16033:16035   */\n      dup1\n        /* \"#utility.yul\":16027:16036   */\n      mload\n        /* \"#utility.yul\":16059:16077   */\n      0xffffffffffffffff\n        /* \"#utility.yul\":16051:16057   */\n      dup2\n        /* \"#utility.yul\":16048:16078   */\n      gt\n        /* \"#utility.yul\":16045:16101   */\n      iszero\n      tag_830\n      jumpi\n        /* \"#utility.yul\":16081:16099   */\n      tag_830\n      tag_319\n      jump\t// in\n    tag_830:\n        /* \"#utility.yul\":16123:16180   */\n      tag_831\n        /* \"#utility.yul\":16170:16172   */\n      0x1f\n        /* \"#utility.yul\":16147:16164   */\n      dup3\n      add\n      not(0x1f)\n        /* \"#utility.yul\":16143:16174   */\n      and\n        /* \"#utility.yul\":16176:16178   */\n      0x20\n        /* \"#utility.yul\":16139:16179   */\n      add\n        /* \"#utility.yul\":16123:16180   */\n      tag_709\n      jump\t// in\n    tag_831:\n        /* \"#utility.yul\":16203:16209   */\n      dup2\n        /* \"#utility.yul\":16196:16201   */\n      dup2\n        /* \"#utility.yul\":16189:16210   */\n      mstore\n        /* \"#utility.yul\":16251:16258   */\n      dup6\n        /* \"#utility.yul\":16246:16248   */\n      0x20\n        /* \"#utility.yul\":16237:16243   */\n      dup4\n        /* \"#utility.yul\":16233:16235   */\n      dup6\n        /* \"#utility.yul\":16229:16244   */\n      add\n        /* \"#utility.yul\":16225:16249   */\n      add\n        /* \"#utility.yul\":16222:16259   */\n      gt\n        /* \"#utility.yul\":16219:16276   */\n      iszero\n      tag_832\n      jumpi\n        /* \"#utility.yul\":16272:16273   */\n      0x00\n        /* \"#utility.yul\":16269:16270   */\n      dup1\n        /* \"#utility.yul\":16262:16274   */\n      revert\n        /* \"#utility.yul\":16219:16276   */\n    tag_832:\n        /* \"#utility.yul\":16320:16326   */\n      dup2\n        /* \"#utility.yul\":16315:16317   */\n      0x20\n        /* \"#utility.yul\":16311:16313   */\n      dup5\n        /* \"#utility.yul\":16307:16318   */\n      add\n        /* \"#utility.yul\":16302:16304   */\n      0x20\n        /* \"#utility.yul\":16295:16300   */\n      dup4\n        /* \"#utility.yul\":16291:16305   */\n      add\n        /* \"#utility.yul\":16285:16327   */\n      mcopy\n        /* \"#utility.yul\":16372:16373   */\n      0x00\n        /* \"#utility.yul\":16347:16365   */\n      swap2\n      dup2\n      add\n        /* \"#utility.yul\":16367:16369   */\n      0x20\n        /* \"#utility.yul\":16343:16370   */\n      add\n        /* \"#utility.yul\":16336:16374   */\n      swap2\n      swap1\n      swap2\n      mstore\n        /* \"#utility.yul\":16351:16356   */\n      swap5\n        /* \"#utility.yul\":15648:16404   */\n      swap4\n      pop\n      pop\n      pop\n      pop\n      jump\t// out\n        /* \"#utility.yul\":16409:16682   */\n    tag_389:\n        /* \"#utility.yul\":16477:16483   */\n      0x00\n        /* \"#utility.yul\":16530:16532   */\n      0x20\n        /* \"#utility.yul\":16518:16527   */\n      dup3\n        /* \"#utility.yul\":16509:16516   */\n      dup5\n        /* \"#utility.yul\":16505:16528   */\n      sub\n        /* \"#utility.yul\":16501:16533   */\n      slt\n        /* \"#utility.yul\":16498:16550   */\n      iszero\n      tag_834\n      jumpi\n        /* \"#utility.yul\":16546:16547   */\n      0x00\n        /* \"#utility.yul\":16543:16544   */\n      dup1\n        /* \"#utility.yul\":16536:16548   */\n      revert\n        /* \"#utility.yul\":16498:16550   */\n    tag_834:\n        /* \"#utility.yul\":16578:16587   */\n      dup2\n        /* \"#utility.yul\":16572:16588   */\n      mload\n        /* \"#utility.yul\":16628:16632   */\n      0xff\n        /* \"#utility.yul\":16621:16626   */\n      dup2\n        /* \"#utility.yul\":16617:16633   */\n      and\n        /* \"#utility.yul\":16610:16615   */\n      dup2\n        /* \"#utility.yul\":16607:16634   */\n      eq\n        /* \"#utility.yul\":16597:16652   */\n      tag_718\n      jumpi\n        /* \"#utility.yul\":16648:16649   */\n      0x00\n        /* \"#utility.yul\":16645:16646   */\n      dup1\n        /* \"#utility.yul\":16638:16650   */\n      revert\n        /* \"#utility.yul\":16687:16871   */\n    tag_394:\n        /* \"#utility.yul\":16757:16763   */\n      0x00\n        /* \"#utility.yul\":16810:16812   */\n      0x20\n        /* \"#utility.yul\":16798:16807   */\n      dup3\n        /* \"#utility.yul\":16789:16796   */\n      dup5\n        /* \"#utility.yul\":16785:16808   */\n      sub\n        /* \"#utility.yul\":16781:16813   */\n      slt\n        /* \"#utility.yul\":16778:16830   */\n      iszero\n      tag_837\n      jumpi\n        /* \"#utility.yul\":16826:16827   */\n      0x00\n        /* \"#utility.yul\":16823:16824   */\n      dup1\n        /* \"#utility.yul\":16816:16828   */\n      revert\n        /* \"#utility.yul\":16778:16830   */\n    tag_837:\n      pop\n        /* \"#utility.yul\":16849:16865   */\n      mload\n      swap2\n        /* \"#utility.yul\":16687:16871   */\n      swap1\n      pop\n      jump\t// out\n        /* \"#utility.yul\":17851:18096   */\n    tag_426:\n        /* \"#utility.yul\":17918:17924   */\n      0x00\n        /* \"#utility.yul\":17971:17973   */\n      0x20\n        /* \"#utility.yul\":17959:17968   */\n      dup3\n        /* \"#utility.yul\":17950:17957   */\n      dup5\n        /* \"#utility.yul\":17946:17969   */\n      sub\n        /* \"#utility.yul\":17942:17974   */\n      slt\n        /* \"#utility.yul\":17939:17991   */\n      iszero\n      tag_842\n      jumpi\n        /* \"#utility.yul\":17987:17988   */\n      0x00\n        /* \"#utility.yul\":17984:17985   */\n      dup1\n        /* \"#utility.yul\":17977:17989   */\n      revert\n        /* \"#utility.yul\":17939:17991   */\n    tag_842:\n        /* \"#utility.yul\":18019:18028   */\n      dup2\n        /* \"#utility.yul\":18013:18029   */\n      mload\n        /* \"#utility.yul\":18038:18066   */\n      tag_718\n        /* \"#utility.yul\":18060:18065   */\n      dup2\n        /* \"#utility.yul\":18038:18066   */\n      tag_708\n      jump\t// in\n        /* \"#utility.yul\":20638:20773   */\n    tag_660:\n        /* \"#utility.yul\":20677:20680   */\n      0x00\n        /* \"#utility.yul\":20698:20715   */\n      0x01\n      dup3\n      add\n        /* \"#utility.yul\":20695:20738   */\n      tag_853\n      jumpi\n        /* \"#utility.yul\":20718:20736   */\n      tag_853\n      tag_710\n      jump\t// in\n    tag_853:\n      pop\n        /* \"#utility.yul\":20765:20766   */\n      0x01\n        /* \"#utility.yul\":20754:20767   */\n      add\n      swap1\n        /* \"#utility.yul\":20638:20773   */\n      jump\t// out\n\n    auxdata: 0xa2646970667358221220ef98f1fb294fe5687edbd88e55ffead82e354968c856525a6935ec4c193f058364736f6c634300081a0033\n}\n",
				"bytecode": {
					"linkReferences": {},
					"object": "60806040526003805460ff60a01b1916600160a01b1790556109c4601155610e1060125534801561002e575f80fd5b50604051613a4e380380613a4e83398101604081905261004d91610651565b5f80546001600160a01b0319163390811782556040519091907f8be0079c531659141344cd1fd0a4f28419497f9722a3daafe3b4186f6b6457e0908290a35f805460ff60a01b1916905560018055600280546001600160a01b038088166001600160a01b03199283168117909355600380549188169190921617905560118390556040805163313ce56760e01b8152905163313ce567916004808201926020929091908290030181865afa158015610107573d5f803e3d5ffd5b505050506040513d601f19601f8201168201806040525081019061012b91906107b6565b600360156101000a81548160ff021916908360ff16021790555060035f9054906101000a90046001600160a01b03166001600160a01b031663313ce5676040518163ffffffff1660e01b8152600401602060405180830381865afa158015610195573d5f803e3d5ffd5b505050506040513d601f19601f820116820180604052508101906101b991906107b6565b6003805460ff60b01b1916600160b01b60ff9390931692909202919091179055600680546001600160a01b0319166001600160a01b0385161790555f5b8151811015610304576102fc828281518110610214576102146107dd565b60200260200101515f0151838381518110610231576102316107dd565b60200260200101516020015184848151811061024f5761024f6107dd565b60200260200101516040015185858151811061026d5761026d6107dd565b60200260200101516060015186868151811061028b5761028b6107dd565b6020026020010151608001518787815181106102a9576102a96107dd565b602002602001015160a001518888815181106102c7576102c76107dd565b602002602001015160c001518989815181106102e5576102e56107dd565b602002602001015160e0015161030f60201b60201c565b6001016101f6565b5050505050506107f1565b5f546001600160a01b0316331461036d5760405162461bcd60e51b815260206004820181905260248201527f4f776e61626c653a2063616c6c6572206973206e6f7420746865206f776e657260448201526064015b60405180910390fd5b6127108611156103b45760405162461bcd60e51b8152602060048201526012602482015271496e76616c69642070657263656e7461676560701b6044820152606401610364565b8385101561041f5760405162461bcd60e51b815260206004820152603260248201527f4d61782072617465206d7573742062652067726561746572207468616e206f7260448201527120657175616c20746f206d696e207261746560701b6064820152608401610364565b5f821161046e5760405162461bcd60e51b815260206004820181905260248201527f537465702073697a65206d7573742062652067726561746572207468616e20306044820152606401610364565b5f88815260046020526040902086905561048788610571565b6104c057601380546001810182555f919091527f66de8ffda797e3de9c05e8fc57b3bf0ec28a930d40b0d285d93c06501cf6a090018890555b60408051610120810182528981526020808201998a52818301988952606082019788526080820196875260a0820195865260c0820194855292151560e082019081525f8b8152600580865293812060088101805461010086019081529d9092529484905291518455985160018401559651600283015594516003820155925160048401559051928201929092559051600682015591516007909201805460ff19169215159290921790915590519055565b5f805b6013548110156105b1578260138281548110610592576105926107dd565b905f5260205f200154036105a95750600192915050565b600101610574565b505f92915050565b6001600160a01b03811681146105cd575f80fd5b50565b634e487b7160e01b5f52604160045260245ffd5b60405161012081016001600160401b0381118282101715610607576106076105d0565b60405290565b604051601f8201601f191681016001600160401b0381118282101715610635576106356105d0565b604052919050565b8051801515811461064c575f80fd5b919050565b5f805f805f60a08688031215610665575f80fd5b8551610670816105b9565b6020870151909550610681816105b9565b6040870151909450610692816105b9565b6060870151608088015191945092506001600160401b038111156106b4575f80fd5b8601601f810188136106c4575f80fd5b80516001600160401b038111156106dd576106dd6105d0565b6106ec60208260051b0161060d565b808282526020820191506020610120840285010192508a83111561070e575f80fd5b6020840193505b828410156107a557610120848c03121561072d575f80fd5b6107356105e4565b845181526020808601519082015260408086015190820152606080860151908201526080808601519082015260a0808601519082015260c0808601519082015261078160e0860161063d565b60e08201526101008581015190820152825261012090930192602090910190610715565b809450505050509295509295909350565b5f602082840312156107c6575f80fd5b815160ff811681146107d6575f80fd5b9392505050565b634e487b7160e01b5f52603260045260245ffd5b613250806107fe5f395ff3fe60806040526004361061024c575f3560e01c8063850bad9411610134578063c2e5fe76116100b3578063de644c7611610078578063de644c761461080e578063e2bbb1581461082f578063f256dfc51461084e578063f2fde38b1461086d578063f66e4be31461088c578063f7c618c1146108ac575f80fd5b8063c2e5fe7614610745578063c53c5fc114610773578063c5c3519614610787578063cd099205146107c1578063cd8de42c146107ef575f80fd5b80639a4577a2116100f95780639a4577a2146106965780639bdcecd1146106b5578063ba743f99146106e7578063c094121414610706578063c241267614610726575f80fd5b8063850bad94146105f25780638da5cb5b1461061d578063917bb9981461063957806391dc842e1461065857806395302cc014610677575f80fd5b806341ee13be116101cb5780635c975abb116101905780635c975abb1461052f578063647428b9146105585780636a1d18d21461057d5780636b130dc21461059c5780636ba13a82146105b15780636f77926b146105c6575f80fd5b806341ee13be1461048557806345982a66146104a65780634d70378a146104d257806352b8745f146104f157806358098bf414610510575f80fd5b80632b4a16a0116102115780632b4a16a01461032157806331d7a26214610340578063365b98b21461035f57806339129cff146103ab5780633d51c72d14610459575f80fd5b806303962d46146102575780630a6f93e61461029557806316ada547146102c0578063230ffa0f146102d557806327ba372c146102f6575f80fd5b3661025357005b5f80fd5b348015610262575f80fd5b50610282610271366004612abc565b600b6020525f908152604090205481565b6040519081526020015b60405180910390f35b3480156102a0575f80fd5b506102826102af366004612abc565b600c6020525f908152604090205481565b3480156102cb575f80fd5b5061028260125481565b3480156102e0575f80fd5b506102f46102ef366004612ade565b6108cb565b005b348015610301575f80fd5b50610282610310366004612abc565b60086020525f908152604090205481565b34801561032c575f80fd5b5061028261033b366004612ade565b61097b565b34801561034b575f80fd5b5061028261035a366004612abc565b61099a565b34801561036a575f80fd5b50610393610379366004612ade565b600e6020525f90815260409020546001600160a01b031681565b6040516001600160a01b03909116815260200161028c565b3480156103b6575f80fd5b506104136103c5366004612ade565b600560208190525f91825260409091208054600182015460028301546003840154600485015495850154600686015460078701546008909701549597949693959294939192909160ff169089565b60408051998a5260208a0198909852968801959095526060870193909352608086019190915260a085015260c0840152151560e08301526101008201526101200161028c565b348015610464575f80fd5b50610478610473366004612ade565b610b28565b60405161028c9190612b51565b348015610490575f80fd5b50610499610bd1565b60405161028c9190612b66565b3480156104b1575f80fd5b506104c56104c0366004612ba8565b610c27565b60405161028c9190612c72565b3480156104dd575f80fd5b506102f46104ec366004612ade565b610d1e565b3480156104fc575f80fd5b506102f461050b366004612abc565b610ea7565b34801561051b575f80fd5b506102f461052a366004612abc565b610f3b565b34801561053a575f80fd5b505f54600160a01b900460ff165b604051901515815260200161028c565b348015610563575f80fd5b5061056c610fcc565b60405161028c959493929190612d03565b348015610588575f80fd5b506102f4610597366004612ade565b6111a7565b3480156105a7575f80fd5b5061028260115481565b3480156105bc575f80fd5b50610282600f5481565b3480156105d1575f80fd5b506105e56105e0366004612abc565b61121c565b60405161028c9190612d50565b3480156105fd575f80fd5b5061028261060c366004612ade565b60046020525f908152604090205481565b348015610628575f80fd5b505f546001600160a01b0316610393565b348015610644575f80fd5b506102f4610653366004612d62565b611350565b348015610663575f80fd5b50610282610672366004612d62565b611499565b348015610682575f80fd5b50610282610691366004612d62565b6114c4565b3480156106a1575f80fd5b506102f46106b0366004612d99565b6114dd565b3480156106c0575f80fd5b506003546106d590600160b01b900460ff1681565b60405160ff909116815260200161028c565b3480156106f2575f80fd5b50610282610701366004612d62565b61170a565b348015610711575f80fd5b506003546106d590600160a81b900460ff1681565b348015610731575f80fd5b50600254610393906001600160a01b031681565b348015610750575f80fd5b5061054861075f366004612abc565b600d6020525f908152604090205460ff1681565b34801561077e575f80fd5b5061056c611723565b348015610792575f80fd5b506107a66107a1366004612e43565b6118ba565b6040805193845260208401929092529082015260600161028c565b3480156107cc575f80fd5b506105486107db366004612abc565b60106020525f908152604090205460ff1681565b3480156107fa575f80fd5b506102f4610809366004612abc565b61222f565b348015610819575f80fd5b5061082261227a565b60405161028c9190612eef565b34801561083a575f80fd5b506102f4610849366004612ba8565b6123b3565b348015610859575f80fd5b50600654610393906001600160a01b031681565b348015610878575f80fd5b506102f4610887366004612abc565b6126e0565b348015610897575f80fd5b5060035461054890600160a01b900460ff1681565b3480156108b7575f80fd5b50600354610393906001600160a01b031681565b5f546001600160a01b031633146108fd5760405162461bcd60e51b81526004016108f490612f32565b60405180910390fd5b8047101561094d5760405162461bcd60e51b815260206004820152601a60248201527f496e73756666696369656e742065746865722062616c616e636500000000000060448201526064016108f4565b604051339082156108fc029083905f818181858888f19350505050158015610977573d5f803e3d5ffd5b5050565b6013818154811061098a575f80fd5b5f91825260209091200154905081565b5f8042815b6001600160a01b0385165f90815260076020526040902054811015610b1f576012546001600160a01b0386165f9081526009602052604081208054919291849081106109ed576109ed612f67565b905f5260205f200154610a009190612f8f565b6001600160a01b0387165f908152600a60205260409020805484908110610a2957610a29612f67565b905f5260205f200154610a3c9190612fa6565b905080831115610b16576001600160a01b0386165f90815260096020526040812080546127109160049184919087908110610a7957610a79612f67565b905f5260205f20015481526020019081526020015f205460075f8a6001600160a01b03166001600160a01b031681526020019081526020015f208581548110610ac457610ac4612f67565b905f5260205f200154610ad79190612f8f565b610ae19190612fb9565b600354909150610afc90600160a81b900460ff16600a6130bb565b610b069082612fb9565b9050610b128186612fa6565b9450505b5060010161099f565b50909392505050565b610b30612a1f565b610b39826127c7565b610b555760405162461bcd60e51b81526004016108f4906130c6565b505f908152600560208181526040928390208351610120810185528154815260018201549281019290925260028101549382019390935260038301546060820152600483015460808201529082015460a0820152600682015460c0820152600782015460ff16151560e082015260089091015461010082015290565b60606013805480602002602001604051908101604052809291908181526020018280548015610c1d57602002820191905f5260205f20905b815481526020019060010190808311610c09575b5050505050905090565b6060815f03610c3657600f5491505b5f610c418385612fa6565b9050610c4d84826130f5565b67ffffffffffffffff811115610c6557610c65612dfe565b604051908082528060200260200182016040528015610c9e57816020015b610c8b612a64565b815260200190600190039081610c835790505b5091505f5b610cad85836130f5565b811015610d1657610cf1600e5f8784600f54610cc991906130f5565b610cd391906130f5565b815260208101919091526040015f20546001600160a01b031661121c565b838281518110610d0357610d03612f67565b6020908102919091010152600101610ca3565b505092915050565b5f546001600160a01b03163314610d475760405162461bcd60e51b81526004016108f490612f32565b610d50816127c7565b610d6c5760405162461bcd60e51b81526004016108f4906130c6565b5f80805b601354811015610db0578360138281548110610d8e57610d8e612f67565b905f5260205f20015403610da85780925060019150610db0565b600101610d70565b5080610dce5760405162461bcd60e51b81526004016108f4906130c6565b5f8381526005602081905260408220828155600181018390556002810183905560038101839055600481018390559081018290556006810182905560078101805460ff1916905560080155815b601354610e2a906001906130f5565b811015610e7d576013610e3e826001612fa6565b81548110610e4e57610e4e612f67565b905f5260205f20015460138281548110610e6a57610e6a612f67565b5f91825260209091200155600101610e1b565b506013805480610e8f57610e8f613108565b600190038181905f5260205f20015f90559055505050565b5f546001600160a01b03163314610ed05760405162461bcd60e51b81526004016108f490612f32565b6001600160a01b038116610f185760405162461bcd60e51b815260206004820152600f60248201526e496e76616c6964206164647265737360881b60448201526064016108f4565b6001600160a01b03165f908152601060205260409020805460ff19166001179055565b5f546001600160a01b03163314610f645760405162461bcd60e51b81526004016108f490612f32565b6001600160a01b038116610fac5760405162461bcd60e51b815260206004820152600f60248201526e496e76616c6964206164647265737360881b60448201526064016108f4565b6001600160a01b03165f908152601060205260409020805460ff19169055565b600354604080516306fdde0360e01b815290516001600160a01b039092169160609182915f91829186916306fdde0391600480830192869291908290030181865afa15801561101d573d5f803e3d5ffd5b505050506040513d5f823e601f3d908101601f19168201604052611044919081019061311c565b935060035f9054906101000a90046001600160a01b03166001600160a01b03166395d89b416040518163ffffffff1660e01b81526004015f60405180830381865afa158015611095573d5f803e3d5ffd5b505050506040513d5f823e601f3d908101601f191682016040526110bc919081019061311c565b925060035f9054906101000a90046001600160a01b03166001600160a01b031663313ce5676040518163ffffffff1660e01b8152600401602060405180830381865afa15801561110e573d5f803e3d5ffd5b505050506040513d601f19601f8201168201806040525081019061113291906131b0565b6003546040516370a0823160e01b81523060048201529193506001600160a01b0316906370a08231906024015b602060405180830381865afa15801561117a573d5f803e3d5ffd5b505050506040513d601f19601f8201168201806040525081019061119e91906131d0565b90509091929394565b5f546001600160a01b031633146111d05760405162461bcd60e51b81526004016108f490612f32565b6127108111156112175760405162461bcd60e51b8152602060048201526012602482015271496e76616c69642070657263656e7461676560701b60448201526064016108f4565b601155565b611224612a64565b6040805160e0810182526001600160a01b0384168082525f818152600860209081528482205481850152828252600c815284822054848601529181526009825283902080548451818402810184019095528085529293606085019390928301828280156112ae57602002820191905f5260205f20905b81548152602001906001019080831161129a575b50505091835250506001600160a01b0384165f908152600b60209081526040918290205490830152016112e08461099a565b81526001600160a01b0384165f908152600a6020908152604091829020805483518184028101840190945280845293820193909183018282801561134157602002820191905f5260205f20905b81548152602001906001019080831161132d575b50505050508152509050919050565b5f546001600160a01b031633146113795760405162461bcd60e51b81526004016108f490612f32565b6040516370a0823160e01b815230600482015281906001600160a01b038416906370a0823190602401602060405180830381865afa1580156113bd573d5f803e3d5ffd5b505050506040513d601f19601f820116820180604052508101906113e191906131d0565b10156114265760405162461bcd60e51b8152602060048201526014602482015273496e73756666696369656e742062616c616e636560601b60448201526064016108f4565b60405163a9059cbb60e01b8152336004820152602481018290526001600160a01b0383169063a9059cbb906044016020604051808303815f875af1158015611470573d5f803e3d5ffd5b505050506040513d601f19601f8201168201806040525081019061149491906131e7565b505050565b6007602052815f5260405f2081815481106114b2575f80fd5b905f5260205f20015f91509150505481565b6009602052815f5260405f2081815481106114b2575f80fd5b5f546001600160a01b031633146115065760405162461bcd60e51b81526004016108f490612f32565b61271086111561154d5760405162461bcd60e51b8152602060048201526012602482015271496e76616c69642070657263656e7461676560701b60448201526064016108f4565b838510156115b85760405162461bcd60e51b815260206004820152603260248201527f4d61782072617465206d7573742062652067726561746572207468616e206f7260448201527120657175616c20746f206d696e207261746560701b60648201526084016108f4565b5f82116116075760405162461bcd60e51b815260206004820181905260248201527f537465702073697a65206d7573742062652067726561746572207468616e203060448201526064016108f4565b5f888152600460205260409020869055611620886127c7565b61165957601380546001810182555f919091527f66de8ffda797e3de9c05e8fc57b3bf0ec28a930d40b0d285d93c06501cf6a090018890555b60408051610120810182528981526020808201998a52818301988952606082019788526080820196875260a0820195865260c0820194855292151560e082019081525f8b8152600580865293812060088101805461010086019081529d9092529484905291518455985160018401559651600283015594516003820155925160048401559051928201929092559051600682015591516007909201805460ff19169215159290921790915590519055565b600a602052815f5260405f2081815481106114b2575f80fd5b600254604080516306fdde0360e01b815290516001600160a01b039092169160609182915f91829186916306fdde0391600480830192869291908290030181865afa158015611774573d5f803e3d5ffd5b505050506040513d5f823e601f3d908101601f1916820160405261179b919081019061311c565b935060025f9054906101000a90046001600160a01b03166001600160a01b03166395d89b416040518163ffffffff1660e01b81526004015f60405180830381865afa1580156117ec573d5f803e3d5ffd5b505050506040513d5f823e601f3d908101601f19168201604052611813919081019061311c565b925060025f9054906101000a90046001600160a01b03166001600160a01b031663313ce5676040518163ffffffff1660e01b8152600401602060405180830381865afa158015611865573d5f803e3d5ffd5b505050506040513d601f19601f8201168201806040525081019061188991906131b0565b6002546040516370a0823160e01b81523060048201529193506001600160a01b0316906370a082319060240161115f565b5f805f6118d05f5460ff600160a01b9091041690565b156119105760405162461bcd60e51b815260206004820152601060248201526f14185d5cd8589b194e881c185d5cd95960821b60448201526064016108f4565b61191861280f565b335f9081526010602052604090205460ff161561196a5760405162461bcd60e51b815260206004820152601060248201526f4163636f756e74206973207370616d2160801b60448201526064016108f4565b335f908152600860205260408120548190819042825b8951811015611db857335f9081526007602052604081208b518c90849081106119ab576119ab612f67565b6020026020010151815481106119c3576119c3612f67565b905f5260205f2001541115611db057601254335f9081526009602052604081208c519192918d90859081106119fa576119fa612f67565b602002602001015181548110611a1257611a12612f67565b905f5260205f200154611a259190612f8f565b335f908152600a602052604090208c518d9085908110611a4757611a47612f67565b602002602001015181548110611a5f57611a5f612f67565b905f5260205f200154611a729190612fa6565b905080831115611bdc575f61271060045f60095f336001600160a01b03166001600160a01b031681526020019081526020015f208f8781518110611ab857611ab8612f67565b602002602001015181548110611ad057611ad0612f67565b905f5260205f20015481526020019081526020015f205460075f336001600160a01b03166001600160a01b031681526020019081526020015f208e8681518110611b1c57611b1c612f67565b602002602001015181548110611b3457611b34612f67565b905f5260205f200154611b479190612f8f565b611b519190612fb9565b600354909150611b6c90600160a81b900460ff16600a6130bb565b611b769082612fb9565b9050611b828188612fa6565b335f9081526007602052604090208d51919850908d9085908110611ba857611ba8612f67565b602002602001015181548110611bc057611bc0612f67565b905f5260205f20015488611bd49190612fa6565b975050611cdb565b6011545f9015611c6e57601154335f9081526007602052604090208d516127109291908f9087908110611c1157611c11612f67565b602002602001015181548110611c2957611c29612f67565b905f5260205f200154611c3c9190612f8f565b611c469190612fb9565b600354909150611c6190600160a81b900460ff16600a6130bb565b611c6b9082612fb9565b90505b335f9081526007602052604081208d518391908f9087908110611c9357611c93612f67565b602002602001015181548110611cab57611cab612f67565b905f5260205f200154611cbe91906130f5565b9050611cca818a612fa6565b9850611cd68288612fa6565b965050505b335f9081526007602052604090208b518c9084908110611cfd57611cfd612f67565b602002602001015181548110611d1557611d15612f67565b905f5260205f20015460055f8d8581518110611d3357611d33612f67565b602002602001015181526020019081526020015f206008015f828254611d5991906130f5565b9091555050335f9081526007602052604090208b518c9084908110611d8057611d80612f67565b602002602001015181548110611d9857611d98612f67565b905f5260205f20015484611dac91906130f5565b9350505b600101611980565b505f5b8951811015611fd4575f8a8281518110611dd757611dd7612f67565b602002602001015190505b335f90815260076020526040902054611dfd906001906130f5565b811015611f3257335f908152600760205260409020611e1d826001612fa6565b81548110611e2d57611e2d612f67565b5f91825260208083209091015433835260079091526040909120805483908110611e5957611e59612f67565b5f918252602080832090910192909255338152600990915260409020611e80826001612fa6565b81548110611e9057611e90612f67565b5f91825260208083209091015433835260099091526040909120805483908110611ebc57611ebc612f67565b5f918252602080832090910192909255338152600a90915260409020611ee3826001612fa6565b81548110611ef357611ef3612f67565b5f918252602080832090910154338352600a9091526040909120805483908110611f1f57611f1f612f67565b5f91825260209091200155600101611de2565b50335f908152600760205260409020805480611f5057611f50613108565b5f828152602080822083015f199081018390559092019092553382526009905260409020805480611f8357611f83613108565b5f828152602080822083015f19908101839055909201909255338252600a905260409020805480611fb657611fb6613108565b5f8281526020812082015f1990810191909155019055600101611dbb565b508415612082576002546003546001600160a01b039091169063a9059cbb90339061200a90600160a81b900460ff16600a6130bb565b6120149089612fb9565b6040516001600160e01b031960e085901b1681526001600160a01b03909216600483015260248201526044016020604051808303815f875af115801561205c573d5f803e3d5ffd5b505050506040513d601f19601f8201168201806040525081019061208091906131e7565b505b831561212b576003546001600160a01b0381169063a9059cbb9033906120b390600160b01b900460ff16600a6130bb565b6120bd9088612fb9565b6040516001600160e01b031960e085901b1681526001600160a01b03909216600483015260248201526044016020604051808303815f875af1158015612105573d5f803e3d5ffd5b505050506040513d601f19601f8201168201806040525081019061212991906131e7565b505b82156121db576002546006546003546001600160a01b039283169263a9059cbb92169061216390600160a81b900460ff16600a6130bb565b61216d9087612fb9565b6040516001600160e01b031960e085901b1681526001600160a01b03909216600483015260248201526044016020604051808303815f875af11580156121b5573d5f803e3d5ffd5b505050506040513d601f19601f820116820180604052508101906121d991906131e7565b505b335f908152600860209081526040808320859055600b90915281208054869290612206908490612fa6565b9091555050335f908152600c602052604090204290555050600180559196909550909350915050565b5f546001600160a01b031633146122585760405162461bcd60e51b81526004016108f490612f32565b600680546001600160a01b0319166001600160a01b0392909216919091179055565b601354606090156123b05760135467ffffffffffffffff8111156122a0576122a0612dfe565b6040519080825280602002602001820160405280156122d957816020015b6122c6612a1f565b8152602001906001900390816122be5790505b5090505f5b6013548110156123ae5760055f601383815481106122fe576122fe612f67565b905f5260205f20015481526020019081526020015f20604051806101200160405290815f8201548152602001600182015481526020016002820154815260200160038201548152602001600482015481526020016005820154815260200160068201548152602001600782015f9054906101000a900460ff1615151515815260200160088201548152505082828151811061239b5761239b612f67565b60209081029190910101526001016122de565b505b90565b5f54600160a01b900460ff16156123ff5760405162461bcd60e51b815260206004820152601060248201526f14185d5cd8589b194e881c185d5cd95960821b60448201526064016108f4565b61240761280f565b335f9081526010602052604090205460ff16156124595760405162461bcd60e51b815260206004820152601060248201526f4163636f756e74206973207370616d2160801b60448201526064016108f4565b612462816127c7565b6124a45760405162461bcd60e51b8152602060048201526013602482015272125b9d985b1a59081b1bd8dac81c195c9a5bd9606a1b60448201526064016108f4565b5f818152600560205260409020600101548210156124f55760405162461bcd60e51b815260206004820152600e60248201526d125b9d985b1a5908185b5bdd5b9d60921b60448201526064016108f4565b6002546040516323b872dd60e01b81523360048201523060248201526044810184905242916001600160a01b0316906323b872dd906064016020604051808303815f875af1158015612549573d5f803e3d5ffd5b505050506040513d601f19601f8201168201806040525081019061256d91906131e7565b50335f81815260076020908152604080832080546001818101835591855283852001889055848452600a835281842080549182018155845282842064ffffffffff87169101559282526008905290812080548592906125cd908490612fa6565b9091555050335f818152600960209081526040808320805460018101825590845282842001869055928252600c815282822042905584825260059052908120600801805485929061261f908490612fa6565b9091555050335f908152600d602052604090205460ff1661268957600f8054905f61264983613202565b9091555050600f545f908152600e6020908152604080832080546001600160a01b031916339081179091558352600d9091529020805460ff191660011790555b612691612868565b6040805184815260208101849052908101829052309033907fe44628ed4b392c5ef46ffc833d640eefd957e81a312e583e0cc57eed5f04ada39060600160405180910390a35061097760018055565b5f546001600160a01b031633146127095760405162461bcd60e51b81526004016108f490612f32565b6001600160a01b03811661276e5760405162461bcd60e51b815260206004820152602660248201527f4f776e61626c653a206e6577206f776e657220697320746865207a65726f206160448201526564647265737360d01b60648201526084016108f4565b5f80546040516001600160a01b03808516939216917f8be0079c531659141344cd1fd0a4f28419497f9722a3daafe3b4186f6b6457e091a35f80546001600160a01b0319166001600160a01b0392909216919091179055565b5f805b6013548110156128075782601382815481106127e8576127e8612f67565b905f5260205f200154036127ff5750600192915050565b6001016127ca565b505f92915050565b6002600154036128615760405162461bcd60e51b815260206004820152601f60248201527f5265656e7472616e637947756172643a207265656e7472616e742063616c6c0060448201526064016108f4565b6002600155565b6002546040516370a0823160e01b81523060048201525f916001600160a01b0316906370a0823190602401602060405180830381865afa1580156128ae573d5f803e3d5ffd5b505050506040513d601f19601f820116820180604052508101906128d291906131d0565b90505f5b601354811015610977575f601382815481106128f4576128f4612f67565b5f918252602080832090910154808352600580835260409384902084516101208101865281548152600182015494810194909452600281015494840194909452600384015460608401526004840154608084015283015460a0830152600683015460c0830152600783015460ff16151560e08301819052600890930154610100830152925090612a15575f8160c001518561298f9190612fb9565b90505f8260a00151826129a29190612f8f565b9050826080015183606001516129b891906130f5565b81116129e1578083606001516129ce91906130f5565b5f858152600460205260409020556129f5565b60808301515f858152600460205260409020555b50505f828152600460209081526040808320546005909252909120600201555b50506001016128d6565b6040518061012001604052805f81526020015f81526020015f81526020015f81526020015f81526020015f81526020015f81526020015f151581526020015f81525090565b6040518060e001604052805f6001600160a01b031681526020015f81526020015f8152602001606081526020015f81526020015f8152602001606081525090565b6001600160a01b0381168114612ab9575f80fd5b50565b5f60208284031215612acc575f80fd5b8135612ad781612aa5565b9392505050565b5f60208284031215612aee575f80fd5b5035919050565b805182526020810151602083015260408101516040830152606081015160608301526080810151608083015260a081015160a083015260c081015160c083015260e0810151151560e08301526101008101516101008301525050565b6101208101612b608284612af5565b92915050565b602080825282518282018190525f918401906040840190835b81811015612b9d578351835260209384019390920191600101612b7f565b509095945050505050565b5f8060408385031215612bb9575f80fd5b50508035926020909101359150565b5f8151808452602084019350602083015f5b82811015612bf8578151865260209586019590910190600101612bda565b5093949350505050565b60018060a01b03815116825260208101516020830152604081015160408301525f606082015160e06060850152612c3c60e0850182612bc8565b90506080830151608085015260a083015160a085015260c083015184820360c0860152612c698282612bc8565b95945050505050565b5f602082016020835280845180835260408501915060408160051b8601019250602086015f5b82811015612cc957603f19878603018452612cb4858351612c02565b94506020938401939190910190600101612c98565b50929695505050505050565b5f81518084528060208401602086015e5f602082860101526020601f19601f83011685010191505092915050565b6001600160a01b038616815260a0602082018190525f90612d2690830187612cd5565b8281036040840152612d388187612cd5565b60ff9590951660608401525050608001529392505050565b602081525f612ad76020830184612c02565b5f8060408385031215612d73575f80fd5b8235612d7e81612aa5565b946020939093013593505050565b8015158114612ab9575f80fd5b5f805f805f805f80610100898b031215612db1575f80fd5b883597506020890135965060408901359550606089013594506080890135935060a0890135925060c0890135915060e0890135612ded81612d8c565b809150509295985092959890939650565b634e487b7160e01b5f52604160045260245ffd5b604051601f8201601f1916810167ffffffffffffffff81118282101715612e3b57612e3b612dfe565b604052919050565b5f60208284031215612e53575f80fd5b813567ffffffffffffffff811115612e69575f80fd5b8201601f81018413612e79575f80fd5b803567ffffffffffffffff811115612e9357612e93612dfe565b8060051b612ea360208201612e12565b91825260208184018101929081019087841115612ebe575f80fd5b6020850194505b83851015612ee457843580835260209586019590935090910190612ec5565b979650505050505050565b602080825282518282018190525f918401906040840190835b81811015612b9d57612f1b838551612af5565b602093909301926101209290920191600101612f08565b6020808252818101527f4f776e61626c653a2063616c6c6572206973206e6f7420746865206f776e6572604082015260600190565b634e487b7160e01b5f52603260045260245ffd5b634e487b7160e01b5f52601160045260245ffd5b8082028115828204841417612b6057612b60612f7b565b80820180821115612b6057612b60612f7b565b5f82612fd357634e487b7160e01b5f52601260045260245ffd5b500490565b6001815b600184111561301357808504811115612ff757612ff7612f7b565b600184161561300557908102905b60019390931c928002612fdc565b935093915050565b5f8261302957506001612b60565b8161303557505f612b60565b816001811461304b576002811461305557613071565b6001915050612b60565b60ff84111561306657613066612f7b565b50506001821b612b60565b5060208310610133831016604e8410600b8410161715613094575081810a612b60565b6130a05f198484612fd8565b805f19048211156130b3576130b3612f7b565b029392505050565b5f612ad7838361301b565b602080825260159082015274131bd8dac81c195c9a5bd9081b9bdd08199bdd5b99605a1b604082015260600190565b81810381811115612b6057612b60612f7b565b634e487b7160e01b5f52603160045260245ffd5b5f6020828403121561312c575f80fd5b815167ffffffffffffffff811115613142575f80fd5b8201601f81018413613152575f80fd5b805167ffffffffffffffff81111561316c5761316c612dfe565b61317f601f8201601f1916602001612e12565b818152856020838501011115613193575f80fd5b8160208401602083015e5f91810160200191909152949350505050565b5f602082840312156131c0575f80fd5b815160ff81168114612ad7575f80fd5b5f602082840312156131e0575f80fd5b5051919050565b5f602082840312156131f7575f80fd5b8151612ad781612d8c565b5f6001820161321357613213612f7b565b506001019056fea2646970667358221220ef98f1fb294fe5687edbd88e55ffead82e354968c856525a6935ec4c193f058364736f6c634300081a0033",
					"opcodes": "PUSH1 0x80 PUSH1 0x40 MSTORE PUSH1 0x3 DUP1 SLOAD PUSH1 0xFF PUSH1 0xA0 SHL NOT AND PUSH1 0x1 PUSH1 0xA0 SHL OR SWAP1 SSTORE PUSH2 0x9C4 PUSH1 0x11 SSTORE PUSH2 0xE10 PUSH1 0x12 SSTORE CALLVALUE DUP1 ISZERO PUSH2 0x2E JUMPI PUSH0 DUP1 REVERT JUMPDEST POP PUSH1 0x40 MLOAD PUSH2 0x3A4E CODESIZE SUB DUP1 PUSH2 0x3A4E DUP4 CODECOPY DUP2 ADD PUSH1 0x40 DUP2 SWAP1 MSTORE PUSH2 0x4D SWAP2 PUSH2 0x651 JUMP JUMPDEST PUSH0 DUP1 SLOAD PUSH1 0x1 PUSH1 0x1 PUSH1 0xA0 SHL SUB NOT AND CALLER SWAP1 DUP2 OR DUP3 SSTORE PUSH1 0x40 MLOAD SWAP1 SWAP2 SWAP1 PUSH32 0x8BE0079C531659141344CD1FD0A4F28419497F9722A3DAAFE3B4186F6B6457E0 SWAP1 DUP3 SWAP1 LOG3 PUSH0 DUP1 SLOAD PUSH1 0xFF PUSH1 0xA0 SHL NOT AND SWAP1 SSTORE PUSH1 0x1 DUP1 SSTORE PUSH1 0x2 DUP1 SLOAD PUSH1 0x1 PUSH1 0x1 PUSH1 0xA0 SHL SUB DUP1 DUP9 AND PUSH1 0x1 PUSH1 0x1 PUSH1 0xA0 SHL SUB NOT SWAP3 DUP4 AND DUP2 OR SWAP1 SWAP4 SSTORE PUSH1 0x3 DUP1 SLOAD SWAP2 DUP9 AND SWAP2 SWAP1 SWAP3 AND OR SWAP1 SSTORE PUSH1 0x11 DUP4 SWAP1 SSTORE PUSH1 0x40 DUP1 MLOAD PUSH4 0x313CE567 PUSH1 0xE0 SHL DUP2 MSTORE SWAP1 MLOAD PUSH4 0x313CE567 SWAP2 PUSH1 0x4 DUP1 DUP3 ADD SWAP3 PUSH1 0x20 SWAP3 SWAP1 SWAP2 SWAP1 DUP3 SWAP1 SUB ADD DUP2 DUP7 GAS STATICCALL ISZERO DUP1 ISZERO PUSH2 0x107 JUMPI RETURNDATASIZE PUSH0 DUP1 RETURNDATACOPY RETURNDATASIZE PUSH0 REVERT JUMPDEST POP POP POP POP PUSH1 0x40 MLOAD RETURNDATASIZE PUSH1 0x1F NOT PUSH1 0x1F DUP3 ADD AND DUP3 ADD DUP1 PUSH1 0x40 MSTORE POP DUP2 ADD SWAP1 PUSH2 0x12B SWAP2 SWAP1 PUSH2 0x7B6 JUMP JUMPDEST PUSH1 0x3 PUSH1 0x15 PUSH2 0x100 EXP DUP2 SLOAD DUP2 PUSH1 0xFF MUL NOT AND SWAP1 DUP4 PUSH1 0xFF AND MUL OR SWAP1 SSTORE POP PUSH1 0x3 PUSH0 SWAP1 SLOAD SWAP1 PUSH2 0x100 EXP SWAP1 DIV PUSH1 0x1 PUSH1 0x1 PUSH1 0xA0 SHL SUB AND PUSH1 0x1 PUSH1 0x1 PUSH1 0xA0 SHL SUB AND PUSH4 0x313CE567 PUSH1 0x40 MLOAD DUP2 PUSH4 0xFFFFFFFF AND PUSH1 0xE0 SHL DUP2 MSTORE PUSH1 0x4 ADD PUSH1 0x20 PUSH1 0x40 MLOAD DUP1 DUP4 SUB DUP2 DUP7 GAS STATICCALL ISZERO DUP1 ISZERO PUSH2 0x195 JUMPI RETURNDATASIZE PUSH0 DUP1 RETURNDATACOPY RETURNDATASIZE PUSH0 REVERT JUMPDEST POP POP POP POP PUSH1 0x40 MLOAD RETURNDATASIZE PUSH1 0x1F NOT PUSH1 0x1F DUP3 ADD AND DUP3 ADD DUP1 PUSH1 0x40 MSTORE POP DUP2 ADD SWAP1 PUSH2 0x1B9 SWAP2 SWAP1 PUSH2 0x7B6 JUMP JUMPDEST PUSH1 0x3 DUP1 SLOAD PUSH1 0xFF PUSH1 0xB0 SHL NOT AND PUSH1 0x1 PUSH1 0xB0 SHL PUSH1 0xFF SWAP4 SWAP1 SWAP4 AND SWAP3 SWAP1 SWAP3 MUL SWAP2 SWAP1 SWAP2 OR SWAP1 SSTORE PUSH1 0x6 DUP1 SLOAD PUSH1 0x1 PUSH1 0x1 PUSH1 0xA0 SHL SUB NOT AND PUSH1 0x1 PUSH1 0x1 PUSH1 0xA0 SHL SUB DUP6 AND OR SWAP1 SSTORE PUSH0 JUMPDEST DUP2 MLOAD DUP2 LT ISZERO PUSH2 0x304 JUMPI PUSH2 0x2FC DUP3 DUP3 DUP2 MLOAD DUP2 LT PUSH2 0x214 JUMPI PUSH2 0x214 PUSH2 0x7DD JUMP JUMPDEST PUSH1 0x20 MUL PUSH1 0x20 ADD ADD MLOAD PUSH0 ADD MLOAD DUP4 DUP4 DUP2 MLOAD DUP2 LT PUSH2 0x231 JUMPI PUSH2 0x231 PUSH2 0x7DD JUMP JUMPDEST PUSH1 0x20 MUL PUSH1 0x20 ADD ADD MLOAD PUSH1 0x20 ADD MLOAD DUP5 DUP5 DUP2 MLOAD DUP2 LT PUSH2 0x24F JUMPI PUSH2 0x24F PUSH2 0x7DD JUMP JUMPDEST PUSH1 0x20 MUL PUSH1 0x20 ADD ADD MLOAD PUSH1 0x40 ADD MLOAD DUP6 DUP6 DUP2 MLOAD DUP2 LT PUSH2 0x26D JUMPI PUSH2 0x26D PUSH2 0x7DD JUMP JUMPDEST PUSH1 0x20 MUL PUSH1 0x20 ADD ADD MLOAD PUSH1 0x60 ADD MLOAD DUP7 DUP7 DUP2 MLOAD DUP2 LT PUSH2 0x28B JUMPI PUSH2 0x28B PUSH2 0x7DD JUMP JUMPDEST PUSH1 0x20 MUL PUSH1 0x20 ADD ADD MLOAD PUSH1 0x80 ADD MLOAD DUP8 DUP8 DUP2 MLOAD DUP2 LT PUSH2 0x2A9 JUMPI PUSH2 0x2A9 PUSH2 0x7DD JUMP JUMPDEST PUSH1 0x20 MUL PUSH1 0x20 ADD ADD MLOAD PUSH1 0xA0 ADD MLOAD DUP9 DUP9 DUP2 MLOAD DUP2 LT PUSH2 0x2C7 JUMPI PUSH2 0x2C7 PUSH2 0x7DD JUMP JUMPDEST PUSH1 0x20 MUL PUSH1 0x20 ADD ADD MLOAD PUSH1 0xC0 ADD MLOAD DUP10 DUP10 DUP2 MLOAD DUP2 LT PUSH2 0x2E5 JUMPI PUSH2 0x2E5 PUSH2 0x7DD JUMP JUMPDEST PUSH1 0x20 MUL PUSH1 0x20 ADD ADD MLOAD PUSH1 0xE0 ADD MLOAD PUSH2 0x30F PUSH1 0x20 SHL PUSH1 0x20 SHR JUMP JUMPDEST PUSH1 0x1 ADD PUSH2 0x1F6 JUMP JUMPDEST POP POP POP POP POP POP PUSH2 0x7F1 JUMP JUMPDEST PUSH0 SLOAD PUSH1 0x1 PUSH1 0x1 PUSH1 0xA0 SHL SUB AND CALLER EQ PUSH2 0x36D JUMPI PUSH1 0x40 MLOAD PUSH3 0x461BCD PUSH1 0xE5 SHL DUP2 MSTORE PUSH1 0x20 PUSH1 0x4 DUP3 ADD DUP2 SWAP1 MSTORE PUSH1 0x24 DUP3 ADD MSTORE PUSH32 0x4F776E61626C653A2063616C6C6572206973206E6F7420746865206F776E6572 PUSH1 0x44 DUP3 ADD MSTORE PUSH1 0x64 ADD JUMPDEST PUSH1 0x40 MLOAD DUP1 SWAP2 SUB SWAP1 REVERT JUMPDEST PUSH2 0x2710 DUP7 GT ISZERO PUSH2 0x3B4 JUMPI PUSH1 0x40 MLOAD PUSH3 0x461BCD PUSH1 0xE5 SHL DUP2 MSTORE PUSH1 0x20 PUSH1 0x4 DUP3 ADD MSTORE PUSH1 0x12 PUSH1 0x24 DUP3 ADD MSTORE PUSH18 0x496E76616C69642070657263656E74616765 PUSH1 0x70 SHL PUSH1 0x44 DUP3 ADD MSTORE PUSH1 0x64 ADD PUSH2 0x364 JUMP JUMPDEST DUP4 DUP6 LT ISZERO PUSH2 0x41F JUMPI PUSH1 0x40 MLOAD PUSH3 0x461BCD PUSH1 0xE5 SHL DUP2 MSTORE PUSH1 0x20 PUSH1 0x4 DUP3 ADD MSTORE PUSH1 0x32 PUSH1 0x24 DUP3 ADD MSTORE PUSH32 0x4D61782072617465206D7573742062652067726561746572207468616E206F72 PUSH1 0x44 DUP3 ADD MSTORE PUSH18 0x20657175616C20746F206D696E2072617465 PUSH1 0x70 SHL PUSH1 0x64 DUP3 ADD MSTORE PUSH1 0x84 ADD PUSH2 0x364 JUMP JUMPDEST PUSH0 DUP3 GT PUSH2 0x46E JUMPI PUSH1 0x40 MLOAD PUSH3 0x461BCD PUSH1 0xE5 SHL DUP2 MSTORE PUSH1 0x20 PUSH1 0x4 DUP3 ADD DUP2 SWAP1 MSTORE PUSH1 0x24 DUP3 ADD MSTORE PUSH32 0x537465702073697A65206D7573742062652067726561746572207468616E2030 PUSH1 0x44 DUP3 ADD MSTORE PUSH1 0x64 ADD PUSH2 0x364 JUMP JUMPDEST PUSH0 DUP9 DUP2 MSTORE PUSH1 0x4 PUSH1 0x20 MSTORE PUSH1 0x40 SWAP1 KECCAK256 DUP7 SWAP1 SSTORE PUSH2 0x487 DUP9 PUSH2 0x571 JUMP JUMPDEST PUSH2 0x4C0 JUMPI PUSH1 0x13 DUP1 SLOAD PUSH1 0x1 DUP2 ADD DUP3 SSTORE PUSH0 SWAP2 SWAP1 SWAP2 MSTORE PUSH32 0x66DE8FFDA797E3DE9C05E8FC57B3BF0EC28A930D40B0D285D93C06501CF6A090 ADD DUP9 SWAP1 SSTORE JUMPDEST PUSH1 0x40 DUP1 MLOAD PUSH2 0x120 DUP2 ADD DUP3 MSTORE DUP10 DUP2 MSTORE PUSH1 0x20 DUP1 DUP3 ADD SWAP10 DUP11 MSTORE DUP2 DUP4 ADD SWAP9 DUP10 MSTORE PUSH1 0x60 DUP3 ADD SWAP8 DUP9 MSTORE PUSH1 0x80 DUP3 ADD SWAP7 DUP8 MSTORE PUSH1 0xA0 DUP3 ADD SWAP6 DUP7 MSTORE PUSH1 0xC0 DUP3 ADD SWAP5 DUP6 MSTORE SWAP3 ISZERO ISZERO PUSH1 0xE0 DUP3 ADD SWAP1 DUP2 MSTORE PUSH0 DUP12 DUP2 MSTORE PUSH1 0x5 DUP1 DUP7 MSTORE SWAP4 DUP2 KECCAK256 PUSH1 0x8 DUP2 ADD DUP1 SLOAD PUSH2 0x100 DUP7 ADD SWAP1 DUP2 MSTORE SWAP14 SWAP1 SWAP3 MSTORE SWAP5 DUP5 SWAP1 MSTORE SWAP2 MLOAD DUP5 SSTORE SWAP9 MLOAD PUSH1 0x1 DUP5 ADD SSTORE SWAP7 MLOAD PUSH1 0x2 DUP4 ADD SSTORE SWAP5 MLOAD PUSH1 0x3 DUP3 ADD SSTORE SWAP3 MLOAD PUSH1 0x4 DUP5 ADD SSTORE SWAP1 MLOAD SWAP3 DUP3 ADD SWAP3 SWAP1 SWAP3 SSTORE SWAP1 MLOAD PUSH1 0x6 DUP3 ADD SSTORE SWAP2 MLOAD PUSH1 0x7 SWAP1 SWAP3 ADD DUP1 SLOAD PUSH1 0xFF NOT AND SWAP3 ISZERO ISZERO SWAP3 SWAP1 SWAP3 OR SWAP1 SWAP2 SSTORE SWAP1 MLOAD SWAP1 SSTORE JUMP JUMPDEST PUSH0 DUP1 JUMPDEST PUSH1 0x13 SLOAD DUP2 LT ISZERO PUSH2 0x5B1 JUMPI DUP3 PUSH1 0x13 DUP3 DUP2 SLOAD DUP2 LT PUSH2 0x592 JUMPI PUSH2 0x592 PUSH2 0x7DD JUMP JUMPDEST SWAP1 PUSH0 MSTORE PUSH1 0x20 PUSH0 KECCAK256 ADD SLOAD SUB PUSH2 0x5A9 JUMPI POP PUSH1 0x1 SWAP3 SWAP2 POP POP JUMP JUMPDEST PUSH1 0x1 ADD PUSH2 0x574 JUMP JUMPDEST POP PUSH0 SWAP3 SWAP2 POP POP JUMP JUMPDEST PUSH1 0x1 PUSH1 0x1 PUSH1 0xA0 SHL SUB DUP2 AND DUP2 EQ PUSH2 0x5CD JUMPI PUSH0 DUP1 REVERT JUMPDEST POP JUMP JUMPDEST PUSH4 0x4E487B71 PUSH1 0xE0 SHL PUSH0 MSTORE PUSH1 0x41 PUSH1 0x4 MSTORE PUSH1 0x24 PUSH0 REVERT JUMPDEST PUSH1 0x40 MLOAD PUSH2 0x120 DUP2 ADD PUSH1 0x1 PUSH1 0x1 PUSH1 0x40 SHL SUB DUP2 GT DUP3 DUP3 LT OR ISZERO PUSH2 0x607 JUMPI PUSH2 0x607 PUSH2 0x5D0 JUMP JUMPDEST PUSH1 0x40 MSTORE SWAP1 JUMP JUMPDEST PUSH1 0x40 MLOAD PUSH1 0x1F DUP3 ADD PUSH1 0x1F NOT AND DUP2 ADD PUSH1 0x1 PUSH1 0x1 PUSH1 0x40 SHL SUB DUP2 GT DUP3 DUP3 LT OR ISZERO PUSH2 0x635 JUMPI PUSH2 0x635 PUSH2 0x5D0 JUMP JUMPDEST PUSH1 0x40 MSTORE SWAP2 SWAP1 POP JUMP JUMPDEST DUP1 MLOAD DUP1 ISZERO ISZERO DUP2 EQ PUSH2 0x64C JUMPI PUSH0 DUP1 REVERT JUMPDEST SWAP2 SWAP1 POP JUMP JUMPDEST PUSH0 DUP1 PUSH0 DUP1 PUSH0 PUSH1 0xA0 DUP7 DUP9 SUB SLT ISZERO PUSH2 0x665 JUMPI PUSH0 DUP1 REVERT JUMPDEST DUP6 MLOAD PUSH2 0x670 DUP2 PUSH2 0x5B9 JUMP JUMPDEST PUSH1 0x20 DUP8 ADD MLOAD SWAP1 SWAP6 POP PUSH2 0x681 DUP2 PUSH2 0x5B9 JUMP JUMPDEST PUSH1 0x40 DUP8 ADD MLOAD SWAP1 SWAP5 POP PUSH2 0x692 DUP2 PUSH2 0x5B9 JUMP JUMPDEST PUSH1 0x60 DUP8 ADD MLOAD PUSH1 0x80 DUP9 ADD MLOAD SWAP2 SWAP5 POP SWAP3 POP PUSH1 0x1 PUSH1 0x1 PUSH1 0x40 SHL SUB DUP2 GT ISZERO PUSH2 0x6B4 JUMPI PUSH0 DUP1 REVERT JUMPDEST DUP7 ADD PUSH1 0x1F DUP2 ADD DUP9 SGT PUSH2 0x6C4 JUMPI PUSH0 DUP1 REVERT JUMPDEST DUP1 MLOAD PUSH1 0x1 PUSH1 0x1 PUSH1 0x40 SHL SUB DUP2 GT ISZERO PUSH2 0x6DD JUMPI PUSH2 0x6DD PUSH2 0x5D0 JUMP JUMPDEST PUSH2 0x6EC PUSH1 0x20 DUP3 PUSH1 0x5 SHL ADD PUSH2 0x60D JUMP JUMPDEST DUP1 DUP3 DUP3 MSTORE PUSH1 0x20 DUP3 ADD SWAP2 POP PUSH1 0x20 PUSH2 0x120 DUP5 MUL DUP6 ADD ADD SWAP3 POP DUP11 DUP4 GT ISZERO PUSH2 0x70E JUMPI PUSH0 DUP1 REVERT JUMPDEST PUSH1 0x20 DUP5 ADD SWAP4 POP JUMPDEST DUP3 DUP5 LT ISZERO PUSH2 0x7A5 JUMPI PUSH2 0x120 DUP5 DUP13 SUB SLT ISZERO PUSH2 0x72D JUMPI PUSH0 DUP1 REVERT JUMPDEST PUSH2 0x735 PUSH2 0x5E4 JUMP JUMPDEST DUP5 MLOAD DUP2 MSTORE PUSH1 0x20 DUP1 DUP7 ADD MLOAD SWAP1 DUP3 ADD MSTORE PUSH1 0x40 DUP1 DUP7 ADD MLOAD SWAP1 DUP3 ADD MSTORE PUSH1 0x60 DUP1 DUP7 ADD MLOAD SWAP1 DUP3 ADD MSTORE PUSH1 0x80 DUP1 DUP7 ADD MLOAD SWAP1 DUP3 ADD MSTORE PUSH1 0xA0 DUP1 DUP7 ADD MLOAD SWAP1 DUP3 ADD MSTORE PUSH1 0xC0 DUP1 DUP7 ADD MLOAD SWAP1 DUP3 ADD MSTORE PUSH2 0x781 PUSH1 0xE0 DUP7 ADD PUSH2 0x63D JUMP JUMPDEST PUSH1 0xE0 DUP3 ADD MSTORE PUSH2 0x100 DUP6 DUP2 ADD MLOAD SWAP1 DUP3 ADD MSTORE DUP3 MSTORE PUSH2 0x120 SWAP1 SWAP4 ADD SWAP3 PUSH1 0x20 SWAP1 SWAP2 ADD SWAP1 PUSH2 0x715 JUMP JUMPDEST DUP1 SWAP5 POP POP POP POP POP SWAP3 SWAP6 POP SWAP3 SWAP6 SWAP1 SWAP4 POP JUMP JUMPDEST PUSH0 PUSH1 0x20 DUP3 DUP5 SUB SLT ISZERO PUSH2 0x7C6 JUMPI PUSH0 DUP1 REVERT JUMPDEST DUP2 MLOAD PUSH1 0xFF DUP2 AND DUP2 EQ PUSH2 0x7D6 JUMPI PUSH0 DUP1 REVERT JUMPDEST SWAP4 SWAP3 POP POP POP JUMP JUMPDEST PUSH4 0x4E487B71 PUSH1 0xE0 SHL PUSH0 MSTORE PUSH1 0x32 PUSH1 0x4 MSTORE PUSH1 0x24 PUSH0 REVERT JUMPDEST PUSH2 0x3250 DUP1 PUSH2 0x7FE PUSH0 CODECOPY PUSH0 RETURN INVALID PUSH1 0x80 PUSH1 0x40 MSTORE PUSH1 0x4 CALLDATASIZE LT PUSH2 0x24C JUMPI PUSH0 CALLDATALOAD PUSH1 0xE0 SHR DUP1 PUSH4 0x850BAD94 GT PUSH2 0x134 JUMPI DUP1 PUSH4 0xC2E5FE76 GT PUSH2 0xB3 JUMPI DUP1 PUSH4 0xDE644C76 GT PUSH2 0x78 JUMPI DUP1 PUSH4 0xDE644C76 EQ PUSH2 0x80E JUMPI DUP1 PUSH4 0xE2BBB158 EQ PUSH2 0x82F JUMPI DUP1 PUSH4 0xF256DFC5 EQ PUSH2 0x84E JUMPI DUP1 PUSH4 0xF2FDE38B EQ PUSH2 0x86D JUMPI DUP1 PUSH4 0xF66E4BE3 EQ PUSH2 0x88C JUMPI DUP1 PUSH4 0xF7C618C1 EQ PUSH2 0x8AC JUMPI PUSH0 DUP1 REVERT JUMPDEST DUP1 PUSH4 0xC2E5FE76 EQ PUSH2 0x745 JUMPI DUP1 PUSH4 0xC53C5FC1 EQ PUSH2 0x773 JUMPI DUP1 PUSH4 0xC5C35196 EQ PUSH2 0x787 JUMPI DUP1 PUSH4 0xCD099205 EQ PUSH2 0x7C1 JUMPI DUP1 PUSH4 0xCD8DE42C EQ PUSH2 0x7EF JUMPI PUSH0 DUP1 REVERT JUMPDEST DUP1 PUSH4 0x9A4577A2 GT PUSH2 0xF9 JUMPI DUP1 PUSH4 0x9A4577A2 EQ PUSH2 0x696 JUMPI DUP1 PUSH4 0x9BDCECD1 EQ PUSH2 0x6B5 JUMPI DUP1 PUSH4 0xBA743F99 EQ PUSH2 0x6E7 JUMPI DUP1 PUSH4 0xC0941214 EQ PUSH2 0x706 JUMPI DUP1 PUSH4 0xC2412676 EQ PUSH2 0x726 JUMPI PUSH0 DUP1 REVERT JUMPDEST DUP1 PUSH4 0x850BAD94 EQ PUSH2 0x5F2 JUMPI DUP1 PUSH4 0x8DA5CB5B EQ PUSH2 0x61D JUMPI DUP1 PUSH4 0x917BB998 EQ PUSH2 0x639 JUMPI DUP1 PUSH4 0x91DC842E EQ PUSH2 0x658 JUMPI DUP1 PUSH4 0x95302CC0 EQ PUSH2 0x677 JUMPI PUSH0 DUP1 REVERT JUMPDEST DUP1 PUSH4 0x41EE13BE GT PUSH2 0x1CB JUMPI DUP1 PUSH4 0x5C975ABB GT PUSH2 0x190 JUMPI DUP1 PUSH4 0x5C975ABB EQ PUSH2 0x52F JUMPI DUP1 PUSH4 0x647428B9 EQ PUSH2 0x558 JUMPI DUP1 PUSH4 0x6A1D18D2 EQ PUSH2 0x57D JUMPI DUP1 PUSH4 0x6B130DC2 EQ PUSH2 0x59C JUMPI DUP1 PUSH4 0x6BA13A82 EQ PUSH2 0x5B1 JUMPI DUP1 PUSH4 0x6F77926B EQ PUSH2 0x5C6 JUMPI PUSH0 DUP1 REVERT JUMPDEST DUP1 PUSH4 0x41EE13BE EQ PUSH2 0x485 JUMPI DUP1 PUSH4 0x45982A66 EQ PUSH2 0x4A6 JUMPI DUP1 PUSH4 0x4D70378A EQ PUSH2 0x4D2 JUMPI DUP1 PUSH4 0x52B8745F EQ PUSH2 0x4F1 JUMPI DUP1 PUSH4 0x58098BF4 EQ PUSH2 0x510 JUMPI PUSH0 DUP1 REVERT JUMPDEST DUP1 PUSH4 0x2B4A16A0 GT PUSH2 0x211 JUMPI DUP1 PUSH4 0x2B4A16A0 EQ PUSH2 0x321 JUMPI DUP1 PUSH4 0x31D7A262 EQ PUSH2 0x340 JUMPI DUP1 PUSH4 0x365B98B2 EQ PUSH2 0x35F JUMPI DUP1 PUSH4 0x39129CFF EQ PUSH2 0x3AB JUMPI DUP1 PUSH4 0x3D51C72D EQ PUSH2 0x459 JUMPI PUSH0 DUP1 REVERT JUMPDEST DUP1 PUSH4 0x3962D46 EQ PUSH2 0x257 JUMPI DUP1 PUSH4 0xA6F93E6 EQ PUSH2 0x295 JUMPI DUP1 PUSH4 0x16ADA547 EQ PUSH2 0x2C0 JUMPI DUP1 PUSH4 0x230FFA0F EQ PUSH2 0x2D5 JUMPI DUP1 PUSH4 0x27BA372C EQ PUSH2 0x2F6 JUMPI PUSH0 DUP1 REVERT JUMPDEST CALLDATASIZE PUSH2 0x253 JUMPI STOP JUMPDEST PUSH0 DUP1 REVERT JUMPDEST CALLVALUE DUP1 ISZERO PUSH2 0x262 JUMPI PUSH0 DUP1 REVERT JUMPDEST POP PUSH2 0x282 PUSH2 0x271 CALLDATASIZE PUSH1 0x4 PUSH2 0x2ABC JUMP JUMPDEST PUSH1 0xB PUSH1 0x20 MSTORE PUSH0 SWAP1 DUP2 MSTORE PUSH1 0x40 SWAP1 KECCAK256 SLOAD DUP2 JUMP JUMPDEST PUSH1 0x40 MLOAD SWAP1 DUP2 MSTORE PUSH1 0x20 ADD JUMPDEST PUSH1 0x40 MLOAD DUP1 SWAP2 SUB SWAP1 RETURN JUMPDEST CALLVALUE DUP1 ISZERO PUSH2 0x2A0 JUMPI PUSH0 DUP1 REVERT JUMPDEST POP PUSH2 0x282 PUSH2 0x2AF CALLDATASIZE PUSH1 0x4 PUSH2 0x2ABC JUMP JUMPDEST PUSH1 0xC PUSH1 0x20 MSTORE PUSH0 SWAP1 DUP2 MSTORE PUSH1 0x40 SWAP1 KECCAK256 SLOAD DUP2 JUMP JUMPDEST CALLVALUE DUP1 ISZERO PUSH2 0x2CB JUMPI PUSH0 DUP1 REVERT JUMPDEST POP PUSH2 0x282 PUSH1 0x12 SLOAD DUP2 JUMP JUMPDEST CALLVALUE DUP1 ISZERO PUSH2 0x2E0 JUMPI PUSH0 DUP1 REVERT JUMPDEST POP PUSH2 0x2F4 PUSH2 0x2EF CALLDATASIZE PUSH1 0x4 PUSH2 0x2ADE JUMP JUMPDEST PUSH2 0x8CB JUMP JUMPDEST STOP JUMPDEST CALLVALUE DUP1 ISZERO PUSH2 0x301 JUMPI PUSH0 DUP1 REVERT JUMPDEST POP PUSH2 0x282 PUSH2 0x310 CALLDATASIZE PUSH1 0x4 PUSH2 0x2ABC JUMP JUMPDEST PUSH1 0x8 PUSH1 0x20 MSTORE PUSH0 SWAP1 DUP2 MSTORE PUSH1 0x40 SWAP1 KECCAK256 SLOAD DUP2 JUMP JUMPDEST CALLVALUE DUP1 ISZERO PUSH2 0x32C JUMPI PUSH0 DUP1 REVERT JUMPDEST POP PUSH2 0x282 PUSH2 0x33B CALLDATASIZE PUSH1 0x4 PUSH2 0x2ADE JUMP JUMPDEST PUSH2 0x97B JUMP JUMPDEST CALLVALUE DUP1 ISZERO PUSH2 0x34B JUMPI PUSH0 DUP1 REVERT JUMPDEST POP PUSH2 0x282 PUSH2 0x35A CALLDATASIZE PUSH1 0x4 PUSH2 0x2ABC JUMP JUMPDEST PUSH2 0x99A JUMP JUMPDEST CALLVALUE DUP1 ISZERO PUSH2 0x36A JUMPI PUSH0 DUP1 REVERT JUMPDEST POP PUSH2 0x393 PUSH2 0x379 CALLDATASIZE PUSH1 0x4 PUSH2 0x2ADE JUMP JUMPDEST PUSH1 0xE PUSH1 0x20 MSTORE PUSH0 SWAP1 DUP2 MSTORE PUSH1 0x40 SWAP1 KECCAK256 SLOAD PUSH1 0x1 PUSH1 0x1 PUSH1 0xA0 SHL SUB AND DUP2 JUMP JUMPDEST PUSH1 0x40 MLOAD PUSH1 0x1 PUSH1 0x1 PUSH1 0xA0 SHL SUB SWAP1 SWAP2 AND DUP2 MSTORE PUSH1 0x20 ADD PUSH2 0x28C JUMP JUMPDEST CALLVALUE DUP1 ISZERO PUSH2 0x3B6 JUMPI PUSH0 DUP1 REVERT JUMPDEST POP PUSH2 0x413 PUSH2 0x3C5 CALLDATASIZE PUSH1 0x4 PUSH2 0x2ADE JUMP JUMPDEST PUSH1 0x5 PUSH1 0x20 DUP2 SWAP1 MSTORE PUSH0 SWAP2 DUP3 MSTORE PUSH1 0x40 SWAP1 SWAP2 KECCAK256 DUP1 SLOAD PUSH1 0x1 DUP3 ADD SLOAD PUSH1 0x2 DUP4 ADD SLOAD PUSH1 0x3 DUP5 ADD SLOAD PUSH1 0x4 DUP6 ADD SLOAD SWAP6 DUP6 ADD SLOAD PUSH1 0x6 DUP7 ADD SLOAD PUSH1 0x7 DUP8 ADD SLOAD PUSH1 0x8 SWAP1 SWAP8 ADD SLOAD SWAP6 SWAP8 SWAP5 SWAP7 SWAP4 SWAP6 SWAP3 SWAP5 SWAP4 SWAP2 SWAP3 SWAP1 SWAP2 PUSH1 0xFF AND SWAP1 DUP10 JUMP JUMPDEST PUSH1 0x40 DUP1 MLOAD SWAP10 DUP11 MSTORE PUSH1 0x20 DUP11 ADD SWAP9 SWAP1 SWAP9 MSTORE SWAP7 DUP9 ADD SWAP6 SWAP1 SWAP6 MSTORE PUSH1 0x60 DUP8 ADD SWAP4 SWAP1 SWAP4 MSTORE PUSH1 0x80 DUP7 ADD SWAP2 SWAP1 SWAP2 MSTORE PUSH1 0xA0 DUP6 ADD MSTORE PUSH1 0xC0 DUP5 ADD MSTORE ISZERO ISZERO PUSH1 0xE0 DUP4 ADD MSTORE PUSH2 0x100 DUP3 ADD MSTORE PUSH2 0x120 ADD PUSH2 0x28C JUMP JUMPDEST CALLVALUE DUP1 ISZERO PUSH2 0x464 JUMPI PUSH0 DUP1 REVERT JUMPDEST POP PUSH2 0x478 PUSH2 0x473 CALLDATASIZE PUSH1 0x4 PUSH2 0x2ADE JUMP JUMPDEST PUSH2 0xB28 JUMP JUMPDEST PUSH1 0x40 MLOAD PUSH2 0x28C SWAP2 SWAP1 PUSH2 0x2B51 JUMP JUMPDEST CALLVALUE DUP1 ISZERO PUSH2 0x490 JUMPI PUSH0 DUP1 REVERT JUMPDEST POP PUSH2 0x499 PUSH2 0xBD1 JUMP JUMPDEST PUSH1 0x40 MLOAD PUSH2 0x28C SWAP2 SWAP1 PUSH2 0x2B66 JUMP JUMPDEST CALLVALUE DUP1 ISZERO PUSH2 0x4B1 JUMPI PUSH0 DUP1 REVERT JUMPDEST POP PUSH2 0x4C5 PUSH2 0x4C0 CALLDATASIZE PUSH1 0x4 PUSH2 0x2BA8 JUMP JUMPDEST PUSH2 0xC27 JUMP JUMPDEST PUSH1 0x40 MLOAD PUSH2 0x28C SWAP2 SWAP1 PUSH2 0x2C72 JUMP JUMPDEST CALLVALUE DUP1 ISZERO PUSH2 0x4DD JUMPI PUSH0 DUP1 REVERT JUMPDEST POP PUSH2 0x2F4 PUSH2 0x4EC CALLDATASIZE PUSH1 0x4 PUSH2 0x2ADE JUMP JUMPDEST PUSH2 0xD1E JUMP JUMPDEST CALLVALUE DUP1 ISZERO PUSH2 0x4FC JUMPI PUSH0 DUP1 REVERT JUMPDEST POP PUSH2 0x2F4 PUSH2 0x50B CALLDATASIZE PUSH1 0x4 PUSH2 0x2ABC JUMP JUMPDEST PUSH2 0xEA7 JUMP JUMPDEST CALLVALUE DUP1 ISZERO PUSH2 0x51B JUMPI PUSH0 DUP1 REVERT JUMPDEST POP PUSH2 0x2F4 PUSH2 0x52A CALLDATASIZE PUSH1 0x4 PUSH2 0x2ABC JUMP JUMPDEST PUSH2 0xF3B JUMP JUMPDEST CALLVALUE DUP1 ISZERO PUSH2 0x53A JUMPI PUSH0 DUP1 REVERT JUMPDEST POP PUSH0 SLOAD PUSH1 0x1 PUSH1 0xA0 SHL SWAP1 DIV PUSH1 0xFF AND JUMPDEST PUSH1 0x40 MLOAD SWAP1 ISZERO ISZERO DUP2 MSTORE PUSH1 0x20 ADD PUSH2 0x28C JUMP JUMPDEST CALLVALUE DUP1 ISZERO PUSH2 0x563 JUMPI PUSH0 DUP1 REVERT JUMPDEST POP PUSH2 0x56C PUSH2 0xFCC JUMP JUMPDEST PUSH1 0x40 MLOAD PUSH2 0x28C SWAP6 SWAP5 SWAP4 SWAP3 SWAP2 SWAP1 PUSH2 0x2D03 JUMP JUMPDEST CALLVALUE DUP1 ISZERO PUSH2 0x588 JUMPI PUSH0 DUP1 REVERT JUMPDEST POP PUSH2 0x2F4 PUSH2 0x597 CALLDATASIZE PUSH1 0x4 PUSH2 0x2ADE JUMP JUMPDEST PUSH2 0x11A7 JUMP JUMPDEST CALLVALUE DUP1 ISZERO PUSH2 0x5A7 JUMPI PUSH0 DUP1 REVERT JUMPDEST POP PUSH2 0x282 PUSH1 0x11 SLOAD DUP2 JUMP JUMPDEST CALLVALUE DUP1 ISZERO PUSH2 0x5BC JUMPI PUSH0 DUP1 REVERT JUMPDEST POP PUSH2 0x282 PUSH1 0xF SLOAD DUP2 JUMP JUMPDEST CALLVALUE DUP1 ISZERO PUSH2 0x5D1 JUMPI PUSH0 DUP1 REVERT JUMPDEST POP PUSH2 0x5E5 PUSH2 0x5E0 CALLDATASIZE PUSH1 0x4 PUSH2 0x2ABC JUMP JUMPDEST PUSH2 0x121C JUMP JUMPDEST PUSH1 0x40 MLOAD PUSH2 0x28C SWAP2 SWAP1 PUSH2 0x2D50 JUMP JUMPDEST CALLVALUE DUP1 ISZERO PUSH2 0x5FD JUMPI PUSH0 DUP1 REVERT JUMPDEST POP PUSH2 0x282 PUSH2 0x60C CALLDATASIZE PUSH1 0x4 PUSH2 0x2ADE JUMP JUMPDEST PUSH1 0x4 PUSH1 0x20 MSTORE PUSH0 SWAP1 DUP2 MSTORE PUSH1 0x40 SWAP1 KECCAK256 SLOAD DUP2 JUMP JUMPDEST CALLVALUE DUP1 ISZERO PUSH2 0x628 JUMPI PUSH0 DUP1 REVERT JUMPDEST POP PUSH0 SLOAD PUSH1 0x1 PUSH1 0x1 PUSH1 0xA0 SHL SUB AND PUSH2 0x393 JUMP JUMPDEST CALLVALUE DUP1 ISZERO PUSH2 0x644 JUMPI PUSH0 DUP1 REVERT JUMPDEST POP PUSH2 0x2F4 PUSH2 0x653 CALLDATASIZE PUSH1 0x4 PUSH2 0x2D62 JUMP JUMPDEST PUSH2 0x1350 JUMP JUMPDEST CALLVALUE DUP1 ISZERO PUSH2 0x663 JUMPI PUSH0 DUP1 REVERT JUMPDEST POP PUSH2 0x282 PUSH2 0x672 CALLDATASIZE PUSH1 0x4 PUSH2 0x2D62 JUMP JUMPDEST PUSH2 0x1499 JUMP JUMPDEST CALLVALUE DUP1 ISZERO PUSH2 0x682 JUMPI PUSH0 DUP1 REVERT JUMPDEST POP PUSH2 0x282 PUSH2 0x691 CALLDATASIZE PUSH1 0x4 PUSH2 0x2D62 JUMP JUMPDEST PUSH2 0x14C4 JUMP JUMPDEST CALLVALUE DUP1 ISZERO PUSH2 0x6A1 JUMPI PUSH0 DUP1 REVERT JUMPDEST POP PUSH2 0x2F4 PUSH2 0x6B0 CALLDATASIZE PUSH1 0x4 PUSH2 0x2D99 JUMP JUMPDEST PUSH2 0x14DD JUMP JUMPDEST CALLVALUE DUP1 ISZERO PUSH2 0x6C0 JUMPI PUSH0 DUP1 REVERT JUMPDEST POP PUSH1 0x3 SLOAD PUSH2 0x6D5 SWAP1 PUSH1 0x1 PUSH1 0xB0 SHL SWAP1 DIV PUSH1 0xFF AND DUP2 JUMP JUMPDEST PUSH1 0x40 MLOAD PUSH1 0xFF SWAP1 SWAP2 AND DUP2 MSTORE PUSH1 0x20 ADD PUSH2 0x28C JUMP JUMPDEST CALLVALUE DUP1 ISZERO PUSH2 0x6F2 JUMPI PUSH0 DUP1 REVERT JUMPDEST POP PUSH2 0x282 PUSH2 0x701 CALLDATASIZE PUSH1 0x4 PUSH2 0x2D62 JUMP JUMPDEST PUSH2 0x170A JUMP JUMPDEST CALLVALUE DUP1 ISZERO PUSH2 0x711 JUMPI PUSH0 DUP1 REVERT JUMPDEST POP PUSH1 0x3 SLOAD PUSH2 0x6D5 SWAP1 PUSH1 0x1 PUSH1 0xA8 SHL SWAP1 DIV PUSH1 0xFF AND DUP2 JUMP JUMPDEST CALLVALUE DUP1 ISZERO PUSH2 0x731 JUMPI PUSH0 DUP1 REVERT JUMPDEST POP PUSH1 0x2 SLOAD PUSH2 0x393 SWAP1 PUSH1 0x1 PUSH1 0x1 PUSH1 0xA0 SHL SUB AND DUP2 JUMP JUMPDEST CALLVALUE DUP1 ISZERO PUSH2 0x750 JUMPI PUSH0 DUP1 REVERT JUMPDEST POP PUSH2 0x548 PUSH2 0x75F CALLDATASIZE PUSH1 0x4 PUSH2 0x2ABC JUMP JUMPDEST PUSH1 0xD PUSH1 0x20 MSTORE PUSH0 SWAP1 DUP2 MSTORE PUSH1 0x40 SWAP1 KECCAK256 SLOAD PUSH1 0xFF AND DUP2 JUMP JUMPDEST CALLVALUE DUP1 ISZERO PUSH2 0x77E JUMPI PUSH0 DUP1 REVERT JUMPDEST POP PUSH2 0x56C PUSH2 0x1723 JUMP JUMPDEST CALLVALUE DUP1 ISZERO PUSH2 0x792 JUMPI PUSH0 DUP1 REVERT JUMPDEST POP PUSH2 0x7A6 PUSH2 0x7A1 CALLDATASIZE PUSH1 0x4 PUSH2 0x2E43 JUMP JUMPDEST PUSH2 0x18BA JUMP JUMPDEST PUSH1 0x40 DUP1 MLOAD SWAP4 DUP5 MSTORE PUSH1 0x20 DUP5 ADD SWAP3 SWAP1 SWAP3 MSTORE SWAP1 DUP3 ADD MSTORE PUSH1 0x60 ADD PUSH2 0x28C JUMP JUMPDEST CALLVALUE DUP1 ISZERO PUSH2 0x7CC JUMPI PUSH0 DUP1 REVERT JUMPDEST POP PUSH2 0x548 PUSH2 0x7DB CALLDATASIZE PUSH1 0x4 PUSH2 0x2ABC JUMP JUMPDEST PUSH1 0x10 PUSH1 0x20 MSTORE PUSH0 SWAP1 DUP2 MSTORE PUSH1 0x40 SWAP1 KECCAK256 SLOAD PUSH1 0xFF AND DUP2 JUMP JUMPDEST CALLVALUE DUP1 ISZERO PUSH2 0x7FA JUMPI PUSH0 DUP1 REVERT JUMPDEST POP PUSH2 0x2F4 PUSH2 0x809 CALLDATASIZE PUSH1 0x4 PUSH2 0x2ABC JUMP JUMPDEST PUSH2 0x222F JUMP JUMPDEST CALLVALUE DUP1 ISZERO PUSH2 0x819 JUMPI PUSH0 DUP1 REVERT JUMPDEST POP PUSH2 0x822 PUSH2 0x227A JUMP JUMPDEST PUSH1 0x40 MLOAD PUSH2 0x28C SWAP2 SWAP1 PUSH2 0x2EEF JUMP JUMPDEST CALLVALUE DUP1 ISZERO PUSH2 0x83A JUMPI PUSH0 DUP1 REVERT JUMPDEST POP PUSH2 0x2F4 PUSH2 0x849 CALLDATASIZE PUSH1 0x4 PUSH2 0x2BA8 JUMP JUMPDEST PUSH2 0x23B3 JUMP JUMPDEST CALLVALUE DUP1 ISZERO PUSH2 0x859 JUMPI PUSH0 DUP1 REVERT JUMPDEST POP PUSH1 0x6 SLOAD PUSH2 0x393 SWAP1 PUSH1 0x1 PUSH1 0x1 PUSH1 0xA0 SHL SUB AND DUP2 JUMP JUMPDEST CALLVALUE DUP1 ISZERO PUSH2 0x878 JUMPI PUSH0 DUP1 REVERT JUMPDEST POP PUSH2 0x2F4 PUSH2 0x887 CALLDATASIZE PUSH1 0x4 PUSH2 0x2ABC JUMP JUMPDEST PUSH2 0x26E0 JUMP JUMPDEST CALLVALUE DUP1 ISZERO PUSH2 0x897 JUMPI PUSH0 DUP1 REVERT JUMPDEST POP PUSH1 0x3 SLOAD PUSH2 0x548 SWAP1 PUSH1 0x1 PUSH1 0xA0 SHL SWAP1 DIV PUSH1 0xFF AND DUP2 JUMP JUMPDEST CALLVALUE DUP1 ISZERO PUSH2 0x8B7 JUMPI PUSH0 DUP1 REVERT JUMPDEST POP PUSH1 0x3 SLOAD PUSH2 0x393 SWAP1 PUSH1 0x1 PUSH1 0x1 PUSH1 0xA0 SHL SUB AND DUP2 JUMP JUMPDEST PUSH0 SLOAD PUSH1 0x1 PUSH1 0x1 PUSH1 0xA0 SHL SUB AND CALLER EQ PUSH2 0x8FD JUMPI PUSH1 0x40 MLOAD PUSH3 0x461BCD PUSH1 0xE5 SHL DUP2 MSTORE PUSH1 0x4 ADD PUSH2 0x8F4 SWAP1 PUSH2 0x2F32 JUMP JUMPDEST PUSH1 0x40 MLOAD DUP1 SWAP2 SUB SWAP1 REVERT JUMPDEST DUP1 SELFBALANCE LT ISZERO PUSH2 0x94D JUMPI PUSH1 0x40 MLOAD PUSH3 0x461BCD PUSH1 0xE5 SHL DUP2 MSTORE PUSH1 0x20 PUSH1 0x4 DUP3 ADD MSTORE PUSH1 0x1A PUSH1 0x24 DUP3 ADD MSTORE PUSH32 0x496E73756666696369656E742065746865722062616C616E6365000000000000 PUSH1 0x44 DUP3 ADD MSTORE PUSH1 0x64 ADD PUSH2 0x8F4 JUMP JUMPDEST PUSH1 0x40 MLOAD CALLER SWAP1 DUP3 ISZERO PUSH2 0x8FC MUL SWAP1 DUP4 SWAP1 PUSH0 DUP2 DUP2 DUP2 DUP6 DUP9 DUP9 CALL SWAP4 POP POP POP POP ISZERO DUP1 ISZERO PUSH2 0x977 JUMPI RETURNDATASIZE PUSH0 DUP1 RETURNDATACOPY RETURNDATASIZE PUSH0 REVERT JUMPDEST POP POP JUMP JUMPDEST PUSH1 0x13 DUP2 DUP2 SLOAD DUP2 LT PUSH2 0x98A JUMPI PUSH0 DUP1 REVERT JUMPDEST PUSH0 SWAP2 DUP3 MSTORE PUSH1 0x20 SWAP1 SWAP2 KECCAK256 ADD SLOAD SWAP1 POP DUP2 JUMP JUMPDEST PUSH0 DUP1 TIMESTAMP DUP2 JUMPDEST PUSH1 0x1 PUSH1 0x1 PUSH1 0xA0 SHL SUB DUP6 AND PUSH0 SWAP1 DUP2 MSTORE PUSH1 0x7 PUSH1 0x20 MSTORE PUSH1 0x40 SWAP1 KECCAK256 SLOAD DUP2 LT ISZERO PUSH2 0xB1F JUMPI PUSH1 0x12 SLOAD PUSH1 0x1 PUSH1 0x1 PUSH1 0xA0 SHL SUB DUP7 AND PUSH0 SWAP1 DUP2 MSTORE PUSH1 0x9 PUSH1 0x20 MSTORE PUSH1 0x40 DUP2 KECCAK256 DUP1 SLOAD SWAP2 SWAP3 SWAP2 DUP5 SWAP1 DUP2 LT PUSH2 0x9ED JUMPI PUSH2 0x9ED PUSH2 0x2F67 JUMP JUMPDEST SWAP1 PUSH0 MSTORE PUSH1 0x20 PUSH0 KECCAK256 ADD SLOAD PUSH2 0xA00 SWAP2 SWAP1 PUSH2 0x2F8F JUMP JUMPDEST PUSH1 0x1 PUSH1 0x1 PUSH1 0xA0 SHL SUB DUP8 AND PUSH0 SWAP1 DUP2 MSTORE PUSH1 0xA PUSH1 0x20 MSTORE PUSH1 0x40 SWAP1 KECCAK256 DUP1 SLOAD DUP5 SWAP1 DUP2 LT PUSH2 0xA29 JUMPI PUSH2 0xA29 PUSH2 0x2F67 JUMP JUMPDEST SWAP1 PUSH0 MSTORE PUSH1 0x20 PUSH0 KECCAK256 ADD SLOAD PUSH2 0xA3C SWAP2 SWAP1 PUSH2 0x2FA6 JUMP JUMPDEST SWAP1 POP DUP1 DUP4 GT ISZERO PUSH2 0xB16 JUMPI PUSH1 0x1 PUSH1 0x1 PUSH1 0xA0 SHL SUB DUP7 AND PUSH0 SWAP1 DUP2 MSTORE PUSH1 0x9 PUSH1 0x20 MSTORE PUSH1 0x40 DUP2 KECCAK256 DUP1 SLOAD PUSH2 0x2710 SWAP2 PUSH1 0x4 SWAP2 DUP5 SWAP2 SWAP1 DUP8 SWAP1 DUP2 LT PUSH2 0xA79 JUMPI PUSH2 0xA79 PUSH2 0x2F67 JUMP JUMPDEST SWAP1 PUSH0 MSTORE PUSH1 0x20 PUSH0 KECCAK256 ADD SLOAD DUP2 MSTORE PUSH1 0x20 ADD SWAP1 DUP2 MSTORE PUSH1 0x20 ADD PUSH0 KECCAK256 SLOAD PUSH1 0x7 PUSH0 DUP11 PUSH1 0x1 PUSH1 0x1 PUSH1 0xA0 SHL SUB AND PUSH1 0x1 PUSH1 0x1 PUSH1 0xA0 SHL SUB AND DUP2 MSTORE PUSH1 0x20 ADD SWAP1 DUP2 MSTORE PUSH1 0x20 ADD PUSH0 KECCAK256 DUP6 DUP2 SLOAD DUP2 LT PUSH2 0xAC4 JUMPI PUSH2 0xAC4 PUSH2 0x2F67 JUMP JUMPDEST SWAP1 PUSH0 MSTORE PUSH1 0x20 PUSH0 KECCAK256 ADD SLOAD PUSH2 0xAD7 SWAP2 SWAP1 PUSH2 0x2F8F JUMP JUMPDEST PUSH2 0xAE1 SWAP2 SWAP1 PUSH2 0x2FB9 JUMP JUMPDEST PUSH1 0x3 SLOAD SWAP1 SWAP2 POP PUSH2 0xAFC SWAP1 PUSH1 0x1 PUSH1 0xA8 SHL SWAP1 DIV PUSH1 0xFF AND PUSH1 0xA PUSH2 0x30BB JUMP JUMPDEST PUSH2 0xB06 SWAP1 DUP3 PUSH2 0x2FB9 JUMP JUMPDEST SWAP1 POP PUSH2 0xB12 DUP2 DUP7 PUSH2 0x2FA6 JUMP JUMPDEST SWAP5 POP POP JUMPDEST POP PUSH1 0x1 ADD PUSH2 0x99F JUMP JUMPDEST POP SWAP1 SWAP4 SWAP3 POP POP POP JUMP JUMPDEST PUSH2 0xB30 PUSH2 0x2A1F JUMP JUMPDEST PUSH2 0xB39 DUP3 PUSH2 0x27C7 JUMP JUMPDEST PUSH2 0xB55 JUMPI PUSH1 0x40 MLOAD PUSH3 0x461BCD PUSH1 0xE5 SHL DUP2 MSTORE PUSH1 0x4 ADD PUSH2 0x8F4 SWAP1 PUSH2 0x30C6 JUMP JUMPDEST POP PUSH0 SWAP1 DUP2 MSTORE PUSH1 0x5 PUSH1 0x20 DUP2 DUP2 MSTORE PUSH1 0x40 SWAP3 DUP4 SWAP1 KECCAK256 DUP4 MLOAD PUSH2 0x120 DUP2 ADD DUP6 MSTORE DUP2 SLOAD DUP2 MSTORE PUSH1 0x1 DUP3 ADD SLOAD SWAP3 DUP2 ADD SWAP3 SWAP1 SWAP3 MSTORE PUSH1 0x2 DUP2 ADD SLOAD SWAP4 DUP3 ADD SWAP4 SWAP1 SWAP4 MSTORE PUSH1 0x3 DUP4 ADD SLOAD PUSH1 0x60 DUP3 ADD MSTORE PUSH1 0x4 DUP4 ADD SLOAD PUSH1 0x80 DUP3 ADD MSTORE SWAP1 DUP3 ADD SLOAD PUSH1 0xA0 DUP3 ADD MSTORE PUSH1 0x6 DUP3 ADD SLOAD PUSH1 0xC0 DUP3 ADD MSTORE PUSH1 0x7 DUP3 ADD SLOAD PUSH1 0xFF AND ISZERO ISZERO PUSH1 0xE0 DUP3 ADD MSTORE PUSH1 0x8 SWAP1 SWAP2 ADD SLOAD PUSH2 0x100 DUP3 ADD MSTORE SWAP1 JUMP JUMPDEST PUSH1 0x60 PUSH1 0x13 DUP1 SLOAD DUP1 PUSH1 0x20 MUL PUSH1 0x20 ADD PUSH1 0x40 MLOAD SWAP1 DUP2 ADD PUSH1 0x40 MSTORE DUP1 SWAP3 SWAP2 SWAP1 DUP2 DUP2 MSTORE PUSH1 0x20 ADD DUP3 DUP1 SLOAD DUP1 ISZERO PUSH2 0xC1D JUMPI PUSH1 0x20 MUL DUP3 ADD SWAP2 SWAP1 PUSH0 MSTORE PUSH1 0x20 PUSH0 KECCAK256 SWAP1 JUMPDEST DUP2 SLOAD DUP2 MSTORE PUSH1 0x20 ADD SWAP1 PUSH1 0x1 ADD SWAP1 DUP1 DUP4 GT PUSH2 0xC09 JUMPI JUMPDEST POP POP POP POP POP SWAP1 POP SWAP1 JUMP JUMPDEST PUSH1 0x60 DUP2 PUSH0 SUB PUSH2 0xC36 JUMPI PUSH1 0xF SLOAD SWAP2 POP JUMPDEST PUSH0 PUSH2 0xC41 DUP4 DUP6 PUSH2 0x2FA6 JUMP JUMPDEST SWAP1 POP PUSH2 0xC4D DUP5 DUP3 PUSH2 0x30F5 JUMP JUMPDEST PUSH8 0xFFFFFFFFFFFFFFFF DUP2 GT ISZERO PUSH2 0xC65 JUMPI PUSH2 0xC65 PUSH2 0x2DFE JUMP JUMPDEST PUSH1 0x40 MLOAD SWAP1 DUP1 DUP3 MSTORE DUP1 PUSH1 0x20 MUL PUSH1 0x20 ADD DUP3 ADD PUSH1 0x40 MSTORE DUP1 ISZERO PUSH2 0xC9E JUMPI DUP2 PUSH1 0x20 ADD JUMPDEST PUSH2 0xC8B PUSH2 0x2A64 JUMP JUMPDEST DUP2 MSTORE PUSH1 0x20 ADD SWAP1 PUSH1 0x1 SWAP1 SUB SWAP1 DUP2 PUSH2 0xC83 JUMPI SWAP1 POP JUMPDEST POP SWAP2 POP PUSH0 JUMPDEST PUSH2 0xCAD DUP6 DUP4 PUSH2 0x30F5 JUMP JUMPDEST DUP2 LT ISZERO PUSH2 0xD16 JUMPI PUSH2 0xCF1 PUSH1 0xE PUSH0 DUP8 DUP5 PUSH1 0xF SLOAD PUSH2 0xCC9 SWAP2 SWAP1 PUSH2 0x30F5 JUMP JUMPDEST PUSH2 0xCD3 SWAP2 SWAP1 PUSH2 0x30F5 JUMP JUMPDEST DUP2 MSTORE PUSH1 0x20 DUP2 ADD SWAP2 SWAP1 SWAP2 MSTORE PUSH1 0x40 ADD PUSH0 KECCAK256 SLOAD PUSH1 0x1 PUSH1 0x1 PUSH1 0xA0 SHL SUB AND PUSH2 0x121C JUMP JUMPDEST DUP4 DUP3 DUP2 MLOAD DUP2 LT PUSH2 0xD03 JUMPI PUSH2 0xD03 PUSH2 0x2F67 JUMP JUMPDEST PUSH1 0x20 SWAP1 DUP2 MUL SWAP2 SWAP1 SWAP2 ADD ADD MSTORE PUSH1 0x1 ADD PUSH2 0xCA3 JUMP JUMPDEST POP POP SWAP3 SWAP2 POP POP JUMP JUMPDEST PUSH0 SLOAD PUSH1 0x1 PUSH1 0x1 PUSH1 0xA0 SHL SUB AND CALLER EQ PUSH2 0xD47 JUMPI PUSH1 0x40 MLOAD PUSH3 0x461BCD PUSH1 0xE5 SHL DUP2 MSTORE PUSH1 0x4 ADD PUSH2 0x8F4 SWAP1 PUSH2 0x2F32 JUMP JUMPDEST PUSH2 0xD50 DUP2 PUSH2 0x27C7 JUMP JUMPDEST PUSH2 0xD6C JUMPI PUSH1 0x40 MLOAD PUSH3 0x461BCD PUSH1 0xE5 SHL DUP2 MSTORE PUSH1 0x4 ADD PUSH2 0x8F4 SWAP1 PUSH2 0x30C6 JUMP JUMPDEST PUSH0 DUP1 DUP1 JUMPDEST PUSH1 0x13 SLOAD DUP2 LT ISZERO PUSH2 0xDB0 JUMPI DUP4 PUSH1 0x13 DUP3 DUP2 SLOAD DUP2 LT PUSH2 0xD8E JUMPI PUSH2 0xD8E PUSH2 0x2F67 JUMP JUMPDEST SWAP1 PUSH0 MSTORE PUSH1 0x20 PUSH0 KECCAK256 ADD SLOAD SUB PUSH2 0xDA8 JUMPI DUP1 SWAP3 POP PUSH1 0x1 SWAP2 POP PUSH2 0xDB0 JUMP JUMPDEST PUSH1 0x1 ADD PUSH2 0xD70 JUMP JUMPDEST POP DUP1 PUSH2 0xDCE JUMPI PUSH1 0x40 MLOAD PUSH3 0x461BCD PUSH1 0xE5 SHL DUP2 MSTORE PUSH1 0x4 ADD PUSH2 0x8F4 SWAP1 PUSH2 0x30C6 JUMP JUMPDEST PUSH0 DUP4 DUP2 MSTORE PUSH1 0x5 PUSH1 0x20 DUP2 SWAP1 MSTORE PUSH1 0x40 DUP3 KECCAK256 DUP3 DUP2 SSTORE PUSH1 0x1 DUP2 ADD DUP4 SWAP1 SSTORE PUSH1 0x2 DUP2 ADD DUP4 SWAP1 SSTORE PUSH1 0x3 DUP2 ADD DUP4 SWAP1 SSTORE PUSH1 0x4 DUP2 ADD DUP4 SWAP1 SSTORE SWAP1 DUP2 ADD DUP3 SWAP1 SSTORE PUSH1 0x6 DUP2 ADD DUP3 SWAP1 SSTORE PUSH1 0x7 DUP2 ADD DUP1 SLOAD PUSH1 0xFF NOT AND SWAP1 SSTORE PUSH1 0x8 ADD SSTORE DUP2 JUMPDEST PUSH1 0x13 SLOAD PUSH2 0xE2A SWAP1 PUSH1 0x1 SWAP1 PUSH2 0x30F5 JUMP JUMPDEST DUP2 LT ISZERO PUSH2 0xE7D JUMPI PUSH1 0x13 PUSH2 0xE3E DUP3 PUSH1 0x1 PUSH2 0x2FA6 JUMP JUMPDEST DUP2 SLOAD DUP2 LT PUSH2 0xE4E JUMPI PUSH2 0xE4E PUSH2 0x2F67 JUMP JUMPDEST SWAP1 PUSH0 MSTORE PUSH1 0x20 PUSH0 KECCAK256 ADD SLOAD PUSH1 0x13 DUP3 DUP2 SLOAD DUP2 LT PUSH2 0xE6A JUMPI PUSH2 0xE6A PUSH2 0x2F67 JUMP JUMPDEST PUSH0 SWAP2 DUP3 MSTORE PUSH1 0x20 SWAP1 SWAP2 KECCAK256 ADD SSTORE PUSH1 0x1 ADD PUSH2 0xE1B JUMP JUMPDEST POP PUSH1 0x13 DUP1 SLOAD DUP1 PUSH2 0xE8F JUMPI PUSH2 0xE8F PUSH2 0x3108 JUMP JUMPDEST PUSH1 0x1 SWAP1 SUB DUP2 DUP2 SWAP1 PUSH0 MSTORE PUSH1 0x20 PUSH0 KECCAK256 ADD PUSH0 SWAP1 SSTORE SWAP1 SSTORE POP POP POP JUMP JUMPDEST PUSH0 SLOAD PUSH1 0x1 PUSH1 0x1 PUSH1 0xA0 SHL SUB AND CALLER EQ PUSH2 0xED0 JUMPI PUSH1 0x40 MLOAD PUSH3 0x461BCD PUSH1 0xE5 SHL DUP2 MSTORE PUSH1 0x4 ADD PUSH2 0x8F4 SWAP1 PUSH2 0x2F32 JUMP JUMPDEST PUSH1 0x1 PUSH1 0x1 PUSH1 0xA0 SHL SUB DUP2 AND PUSH2 0xF18 JUMPI PUSH1 0x40 MLOAD PUSH3 0x461BCD PUSH1 0xE5 SHL DUP2 MSTORE PUSH1 0x20 PUSH1 0x4 DUP3 ADD MSTORE PUSH1 0xF PUSH1 0x24 DUP3 ADD MSTORE PUSH15 0x496E76616C69642061646472657373 PUSH1 0x88 SHL PUSH1 0x44 DUP3 ADD MSTORE PUSH1 0x64 ADD PUSH2 0x8F4 JUMP JUMPDEST PUSH1 0x1 PUSH1 0x1 PUSH1 0xA0 SHL SUB AND PUSH0 SWAP1 DUP2 MSTORE PUSH1 0x10 PUSH1 0x20 MSTORE PUSH1 0x40 SWAP1 KECCAK256 DUP1 SLOAD PUSH1 0xFF NOT AND PUSH1 0x1 OR SWAP1 SSTORE JUMP JUMPDEST PUSH0 SLOAD PUSH1 0x1 PUSH1 0x1 PUSH1 0xA0 SHL SUB AND CALLER EQ PUSH2 0xF64 JUMPI PUSH1 0x40 MLOAD PUSH3 0x461BCD PUSH1 0xE5 SHL DUP2 MSTORE PUSH1 0x4 ADD PUSH2 0x8F4 SWAP1 PUSH2 0x2F32 JUMP JUMPDEST PUSH1 0x1 PUSH1 0x1 PUSH1 0xA0 SHL SUB DUP2 AND PUSH2 0xFAC JUMPI PUSH1 0x40 MLOAD PUSH3 0x461BCD PUSH1 0xE5 SHL DUP2 MSTORE PUSH1 0x20 PUSH1 0x4 DUP3 ADD MSTORE PUSH1 0xF PUSH1 0x24 DUP3 ADD MSTORE PUSH15 0x496E76616C69642061646472657373 PUSH1 0x88 SHL PUSH1 0x44 DUP3 ADD MSTORE PUSH1 0x64 ADD PUSH2 0x8F4 JUMP JUMPDEST PUSH1 0x1 PUSH1 0x1 PUSH1 0xA0 SHL SUB AND PUSH0 SWAP1 DUP2 MSTORE PUSH1 0x10 PUSH1 0x20 MSTORE PUSH1 0x40 SWAP1 KECCAK256 DUP1 SLOAD PUSH1 0xFF NOT AND SWAP1 SSTORE JUMP JUMPDEST PUSH1 0x3 SLOAD PUSH1 0x40 DUP1 MLOAD PUSH4 0x6FDDE03 PUSH1 0xE0 SHL DUP2 MSTORE SWAP1 MLOAD PUSH1 0x1 PUSH1 0x1 PUSH1 0xA0 SHL SUB SWAP1 SWAP3 AND SWAP2 PUSH1 0x60 SWAP2 DUP3 SWAP2 PUSH0 SWAP2 DUP3 SWAP2 DUP7 SWAP2 PUSH4 0x6FDDE03 SWAP2 PUSH1 0x4 DUP1 DUP4 ADD SWAP3 DUP7 SWAP3 SWAP2 SWAP1 DUP3 SWAP1 SUB ADD DUP2 DUP7 GAS STATICCALL ISZERO DUP1 ISZERO PUSH2 0x101D JUMPI RETURNDATASIZE PUSH0 DUP1 RETURNDATACOPY RETURNDATASIZE PUSH0 REVERT JUMPDEST POP POP POP POP PUSH1 0x40 MLOAD RETURNDATASIZE PUSH0 DUP3 RETURNDATACOPY PUSH1 0x1F RETURNDATASIZE SWAP1 DUP2 ADD PUSH1 0x1F NOT AND DUP3 ADD PUSH1 0x40 MSTORE PUSH2 0x1044 SWAP2 SWAP1 DUP2 ADD SWAP1 PUSH2 0x311C JUMP JUMPDEST SWAP4 POP PUSH1 0x3 PUSH0 SWAP1 SLOAD SWAP1 PUSH2 0x100 EXP SWAP1 DIV PUSH1 0x1 PUSH1 0x1 PUSH1 0xA0 SHL SUB AND PUSH1 0x1 PUSH1 0x1 PUSH1 0xA0 SHL SUB AND PUSH4 0x95D89B41 PUSH1 0x40 MLOAD DUP2 PUSH4 0xFFFFFFFF AND PUSH1 0xE0 SHL DUP2 MSTORE PUSH1 0x4 ADD PUSH0 PUSH1 0x40 MLOAD DUP1 DUP4 SUB DUP2 DUP7 GAS STATICCALL ISZERO DUP1 ISZERO PUSH2 0x1095 JUMPI RETURNDATASIZE PUSH0 DUP1 RETURNDATACOPY RETURNDATASIZE PUSH0 REVERT JUMPDEST POP POP POP POP PUSH1 0x40 MLOAD RETURNDATASIZE PUSH0 DUP3 RETURNDATACOPY PUSH1 0x1F RETURNDATASIZE SWAP1 DUP2 ADD PUSH1 0x1F NOT AND DUP3 ADD PUSH1 0x40 MSTORE PUSH2 0x10BC SWAP2 SWAP1 DUP2 ADD SWAP1 PUSH2 0x311C JUMP JUMPDEST SWAP3 POP PUSH1 0x3 PUSH0 SWAP1 SLOAD SWAP1 PUSH2 0x100 EXP SWAP1 DIV PUSH1 0x1 PUSH1 0x1 PUSH1 0xA0 SHL SUB AND PUSH1 0x1 PUSH1 0x1 PUSH1 0xA0 SHL SUB AND PUSH4 0x313CE567 PUSH1 0x40 MLOAD DUP2 PUSH4 0xFFFFFFFF AND PUSH1 0xE0 SHL DUP2 MSTORE PUSH1 0x4 ADD PUSH1 0x20 PUSH1 0x40 MLOAD DUP1 DUP4 SUB DUP2 DUP7 GAS STATICCALL ISZERO DUP1 ISZERO PUSH2 0x110E JUMPI RETURNDATASIZE PUSH0 DUP1 RETURNDATACOPY RETURNDATASIZE PUSH0 REVERT JUMPDEST POP POP POP POP PUSH1 0x40 MLOAD RETURNDATASIZE PUSH1 0x1F NOT PUSH1 0x1F DUP3 ADD AND DUP3 ADD DUP1 PUSH1 0x40 MSTORE POP DUP2 ADD SWAP1 PUSH2 0x1132 SWAP2 SWAP1 PUSH2 0x31B0 JUMP JUMPDEST PUSH1 0x3 SLOAD PUSH1 0x40 MLOAD PUSH4 0x70A08231 PUSH1 0xE0 SHL DUP2 MSTORE ADDRESS PUSH1 0x4 DUP3 ADD MSTORE SWAP2 SWAP4 POP PUSH1 0x1 PUSH1 0x1 PUSH1 0xA0 SHL SUB AND SWAP1 PUSH4 0x70A08231 SWAP1 PUSH1 0x24 ADD JUMPDEST PUSH1 0x20 PUSH1 0x40 MLOAD DUP1 DUP4 SUB DUP2 DUP7 GAS STATICCALL ISZERO DUP1 ISZERO PUSH2 0x117A JUMPI RETURNDATASIZE PUSH0 DUP1 RETURNDATACOPY RETURNDATASIZE PUSH0 REVERT JUMPDEST POP POP POP POP PUSH1 0x40 MLOAD RETURNDATASIZE PUSH1 0x1F NOT PUSH1 0x1F DUP3 ADD AND DUP3 ADD DUP1 PUSH1 0x40 MSTORE POP DUP2 ADD SWAP1 PUSH2 0x119E SWAP2 SWAP1 PUSH2 0x31D0 JUMP JUMPDEST SWAP1 POP SWAP1 SWAP2 SWAP3 SWAP4 SWAP5 JUMP JUMPDEST PUSH0 SLOAD PUSH1 0x1 PUSH1 0x1 PUSH1 0xA0 SHL SUB AND CALLER EQ PUSH2 0x11D0 JUMPI PUSH1 0x40 MLOAD PUSH3 0x461BCD PUSH1 0xE5 SHL DUP2 MSTORE PUSH1 0x4 ADD PUSH2 0x8F4 SWAP1 PUSH2 0x2F32 JUMP JUMPDEST PUSH2 0x2710 DUP2 GT ISZERO PUSH2 0x1217 JUMPI PUSH1 0x40 MLOAD PUSH3 0x461BCD PUSH1 0xE5 SHL DUP2 MSTORE PUSH1 0x20 PUSH1 0x4 DUP3 ADD MSTORE PUSH1 0x12 PUSH1 0x24 DUP3 ADD MSTORE PUSH18 0x496E76616C69642070657263656E74616765 PUSH1 0x70 SHL PUSH1 0x44 DUP3 ADD MSTORE PUSH1 0x64 ADD PUSH2 0x8F4 JUMP JUMPDEST PUSH1 0x11 SSTORE JUMP JUMPDEST PUSH2 0x1224 PUSH2 0x2A64 JUMP JUMPDEST PUSH1 0x40 DUP1 MLOAD PUSH1 0xE0 DUP2 ADD DUP3 MSTORE PUSH1 0x1 PUSH1 0x1 PUSH1 0xA0 SHL SUB DUP5 AND DUP1 DUP3 MSTORE PUSH0 DUP2 DUP2 MSTORE PUSH1 0x8 PUSH1 0x20 SWAP1 DUP2 MSTORE DUP5 DUP3 KECCAK256 SLOAD DUP2 DUP6 ADD MSTORE DUP3 DUP3 MSTORE PUSH1 0xC DUP2 MSTORE DUP5 DUP3 KECCAK256 SLOAD DUP5 DUP7 ADD MSTORE SWAP2 DUP2 MSTORE PUSH1 0x9 DUP3 MSTORE DUP4 SWAP1 KECCAK256 DUP1 SLOAD DUP5 MLOAD DUP2 DUP5 MUL DUP2 ADD DUP5 ADD SWAP1 SWAP6 MSTORE DUP1 DUP6 MSTORE SWAP3 SWAP4 PUSH1 0x60 DUP6 ADD SWAP4 SWAP1 SWAP3 DUP4 ADD DUP3 DUP3 DUP1 ISZERO PUSH2 0x12AE JUMPI PUSH1 0x20 MUL DUP3 ADD SWAP2 SWAP1 PUSH0 MSTORE PUSH1 0x20 PUSH0 KECCAK256 SWAP1 JUMPDEST DUP2 SLOAD DUP2 MSTORE PUSH1 0x20 ADD SWAP1 PUSH1 0x1 ADD SWAP1 DUP1 DUP4 GT PUSH2 0x129A JUMPI JUMPDEST POP POP POP SWAP2 DUP4 MSTORE POP POP PUSH1 0x1 PUSH1 0x1 PUSH1 0xA0 SHL SUB DUP5 AND PUSH0 SWAP1 DUP2 MSTORE PUSH1 0xB PUSH1 0x20 SWAP1 DUP2 MSTORE PUSH1 0x40 SWAP2 DUP3 SWAP1 KECCAK256 SLOAD SWAP1 DUP4 ADD MSTORE ADD PUSH2 0x12E0 DUP5 PUSH2 0x99A JUMP JUMPDEST DUP2 MSTORE PUSH1 0x1 PUSH1 0x1 PUSH1 0xA0 SHL SUB DUP5 AND PUSH0 SWAP1 DUP2 MSTORE PUSH1 0xA PUSH1 0x20 SWAP1 DUP2 MSTORE PUSH1 0x40 SWAP2 DUP3 SWAP1 KECCAK256 DUP1 SLOAD DUP4 MLOAD DUP2 DUP5 MUL DUP2 ADD DUP5 ADD SWAP1 SWAP5 MSTORE DUP1 DUP5 MSTORE SWAP4 DUP3 ADD SWAP4 SWAP1 SWAP2 DUP4 ADD DUP3 DUP3 DUP1 ISZERO PUSH2 0x1341 JUMPI PUSH1 0x20 MUL DUP3 ADD SWAP2 SWAP1 PUSH0 MSTORE PUSH1 0x20 PUSH0 KECCAK256 SWAP1 JUMPDEST DUP2 SLOAD DUP2 MSTORE PUSH1 0x20 ADD SWAP1 PUSH1 0x1 ADD SWAP1 DUP1 DUP4 GT PUSH2 0x132D JUMPI JUMPDEST POP POP POP POP POP DUP2 MSTORE POP SWAP1 POP SWAP2 SWAP1 POP JUMP JUMPDEST PUSH0 SLOAD PUSH1 0x1 PUSH1 0x1 PUSH1 0xA0 SHL SUB AND CALLER EQ PUSH2 0x1379 JUMPI PUSH1 0x40 MLOAD PUSH3 0x461BCD PUSH1 0xE5 SHL DUP2 MSTORE PUSH1 0x4 ADD PUSH2 0x8F4 SWAP1 PUSH2 0x2F32 JUMP JUMPDEST PUSH1 0x40 MLOAD PUSH4 0x70A08231 PUSH1 0xE0 SHL DUP2 MSTORE ADDRESS PUSH1 0x4 DUP3 ADD MSTORE DUP2 SWAP1 PUSH1 0x1 PUSH1 0x1 PUSH1 0xA0 SHL SUB DUP5 AND SWAP1 PUSH4 0x70A08231 SWAP1 PUSH1 0x24 ADD PUSH1 0x20 PUSH1 0x40 MLOAD DUP1 DUP4 SUB DUP2 DUP7 GAS STATICCALL ISZERO DUP1 ISZERO PUSH2 0x13BD JUMPI RETURNDATASIZE PUSH0 DUP1 RETURNDATACOPY RETURNDATASIZE PUSH0 REVERT JUMPDEST POP POP POP POP PUSH1 0x40 MLOAD RETURNDATASIZE PUSH1 0x1F NOT PUSH1 0x1F DUP3 ADD AND DUP3 ADD DUP1 PUSH1 0x40 MSTORE POP DUP2 ADD SWAP1 PUSH2 0x13E1 SWAP2 SWAP1 PUSH2 0x31D0 JUMP JUMPDEST LT ISZERO PUSH2 0x1426 JUMPI PUSH1 0x40 MLOAD PUSH3 0x461BCD PUSH1 0xE5 SHL DUP2 MSTORE PUSH1 0x20 PUSH1 0x4 DUP3 ADD MSTORE PUSH1 0x14 PUSH1 0x24 DUP3 ADD MSTORE PUSH20 0x496E73756666696369656E742062616C616E6365 PUSH1 0x60 SHL PUSH1 0x44 DUP3 ADD MSTORE PUSH1 0x64 ADD PUSH2 0x8F4 JUMP JUMPDEST PUSH1 0x40 MLOAD PUSH4 0xA9059CBB PUSH1 0xE0 SHL DUP2 MSTORE CALLER PUSH1 0x4 DUP3 ADD MSTORE PUSH1 0x24 DUP2 ADD DUP3 SWAP1 MSTORE PUSH1 0x1 PUSH1 0x1 PUSH1 0xA0 SHL SUB DUP4 AND SWAP1 PUSH4 0xA9059CBB SWAP1 PUSH1 0x44 ADD PUSH1 0x20 PUSH1 0x40 MLOAD DUP1 DUP4 SUB DUP2 PUSH0 DUP8 GAS CALL ISZERO DUP1 ISZERO PUSH2 0x1470 JUMPI RETURNDATASIZE PUSH0 DUP1 RETURNDATACOPY RETURNDATASIZE PUSH0 REVERT JUMPDEST POP POP POP POP PUSH1 0x40 MLOAD RETURNDATASIZE PUSH1 0x1F NOT PUSH1 0x1F DUP3 ADD AND DUP3 ADD DUP1 PUSH1 0x40 MSTORE POP DUP2 ADD SWAP1 PUSH2 0x1494 SWAP2 SWAP1 PUSH2 0x31E7 JUMP JUMPDEST POP POP POP JUMP JUMPDEST PUSH1 0x7 PUSH1 0x20 MSTORE DUP2 PUSH0 MSTORE PUSH1 0x40 PUSH0 KECCAK256 DUP2 DUP2 SLOAD DUP2 LT PUSH2 0x14B2 JUMPI PUSH0 DUP1 REVERT JUMPDEST SWAP1 PUSH0 MSTORE PUSH1 0x20 PUSH0 KECCAK256 ADD PUSH0 SWAP2 POP SWAP2 POP POP SLOAD DUP2 JUMP JUMPDEST PUSH1 0x9 PUSH1 0x20 MSTORE DUP2 PUSH0 MSTORE PUSH1 0x40 PUSH0 KECCAK256 DUP2 DUP2 SLOAD DUP2 LT PUSH2 0x14B2 JUMPI PUSH0 DUP1 REVERT JUMPDEST PUSH0 SLOAD PUSH1 0x1 PUSH1 0x1 PUSH1 0xA0 SHL SUB AND CALLER EQ PUSH2 0x1506 JUMPI PUSH1 0x40 MLOAD PUSH3 0x461BCD PUSH1 0xE5 SHL DUP2 MSTORE PUSH1 0x4 ADD PUSH2 0x8F4 SWAP1 PUSH2 0x2F32 JUMP JUMPDEST PUSH2 0x2710 DUP7 GT ISZERO PUSH2 0x154D JUMPI PUSH1 0x40 MLOAD PUSH3 0x461BCD PUSH1 0xE5 SHL DUP2 MSTORE PUSH1 0x20 PUSH1 0x4 DUP3 ADD MSTORE PUSH1 0x12 PUSH1 0x24 DUP3 ADD MSTORE PUSH18 0x496E76616C69642070657263656E74616765 PUSH1 0x70 SHL PUSH1 0x44 DUP3 ADD MSTORE PUSH1 0x64 ADD PUSH2 0x8F4 JUMP JUMPDEST DUP4 DUP6 LT ISZERO PUSH2 0x15B8 JUMPI PUSH1 0x40 MLOAD PUSH3 0x461BCD PUSH1 0xE5 SHL DUP2 MSTORE PUSH1 0x20 PUSH1 0x4 DUP3 ADD MSTORE PUSH1 0x32 PUSH1 0x24 DUP3 ADD MSTORE PUSH32 0x4D61782072617465206D7573742062652067726561746572207468616E206F72 PUSH1 0x44 DUP3 ADD MSTORE PUSH18 0x20657175616C20746F206D696E2072617465 PUSH1 0x70 SHL PUSH1 0x64 DUP3 ADD MSTORE PUSH1 0x84 ADD PUSH2 0x8F4 JUMP JUMPDEST PUSH0 DUP3 GT PUSH2 0x1607 JUMPI PUSH1 0x40 MLOAD PUSH3 0x461BCD PUSH1 0xE5 SHL DUP2 MSTORE PUSH1 0x20 PUSH1 0x4 DUP3 ADD DUP2 SWAP1 MSTORE PUSH1 0x24 DUP3 ADD MSTORE PUSH32 0x537465702073697A65206D7573742062652067726561746572207468616E2030 PUSH1 0x44 DUP3 ADD MSTORE PUSH1 0x64 ADD PUSH2 0x8F4 JUMP JUMPDEST PUSH0 DUP9 DUP2 MSTORE PUSH1 0x4 PUSH1 0x20 MSTORE PUSH1 0x40 SWAP1 KECCAK256 DUP7 SWAP1 SSTORE PUSH2 0x1620 DUP9 PUSH2 0x27C7 JUMP JUMPDEST PUSH2 0x1659 JUMPI PUSH1 0x13 DUP1 SLOAD PUSH1 0x1 DUP2 ADD DUP3 SSTORE PUSH0 SWAP2 SWAP1 SWAP2 MSTORE PUSH32 0x66DE8FFDA797E3DE9C05E8FC57B3BF0EC28A930D40B0D285D93C06501CF6A090 ADD DUP9 SWAP1 SSTORE JUMPDEST PUSH1 0x40 DUP1 MLOAD PUSH2 0x120 DUP2 ADD DUP3 MSTORE DUP10 DUP2 MSTORE PUSH1 0x20 DUP1 DUP3 ADD SWAP10 DUP11 MSTORE DUP2 DUP4 ADD SWAP9 DUP10 MSTORE PUSH1 0x60 DUP3 ADD SWAP8 DUP9 MSTORE PUSH1 0x80 DUP3 ADD SWAP7 DUP8 MSTORE PUSH1 0xA0 DUP3 ADD SWAP6 DUP7 MSTORE PUSH1 0xC0 DUP3 ADD SWAP5 DUP6 MSTORE SWAP3 ISZERO ISZERO PUSH1 0xE0 DUP3 ADD SWAP1 DUP2 MSTORE PUSH0 DUP12 DUP2 MSTORE PUSH1 0x5 DUP1 DUP7 MSTORE SWAP4 DUP2 KECCAK256 PUSH1 0x8 DUP2 ADD DUP1 SLOAD PUSH2 0x100 DUP7 ADD SWAP1 DUP2 MSTORE SWAP14 SWAP1 SWAP3 MSTORE SWAP5 DUP5 SWAP1 MSTORE SWAP2 MLOAD DUP5 SSTORE SWAP9 MLOAD PUSH1 0x1 DUP5 ADD SSTORE SWAP7 MLOAD PUSH1 0x2 DUP4 ADD SSTORE SWAP5 MLOAD PUSH1 0x3 DUP3 ADD SSTORE SWAP3 MLOAD PUSH1 0x4 DUP5 ADD SSTORE SWAP1 MLOAD SWAP3 DUP3 ADD SWAP3 SWAP1 SWAP3 SSTORE SWAP1 MLOAD PUSH1 0x6 DUP3 ADD SSTORE SWAP2 MLOAD PUSH1 0x7 SWAP1 SWAP3 ADD DUP1 SLOAD PUSH1 0xFF NOT AND SWAP3 ISZERO ISZERO SWAP3 SWAP1 SWAP3 OR SWAP1 SWAP2 SSTORE SWAP1 MLOAD SWAP1 SSTORE JUMP JUMPDEST PUSH1 0xA PUSH1 0x20 MSTORE DUP2 PUSH0 MSTORE PUSH1 0x40 PUSH0 KECCAK256 DUP2 DUP2 SLOAD DUP2 LT PUSH2 0x14B2 JUMPI PUSH0 DUP1 REVERT JUMPDEST PUSH1 0x2 SLOAD PUSH1 0x40 DUP1 MLOAD PUSH4 0x6FDDE03 PUSH1 0xE0 SHL DUP2 MSTORE SWAP1 MLOAD PUSH1 0x1 PUSH1 0x1 PUSH1 0xA0 SHL SUB SWAP1 SWAP3 AND SWAP2 PUSH1 0x60 SWAP2 DUP3 SWAP2 PUSH0 SWAP2 DUP3 SWAP2 DUP7 SWAP2 PUSH4 0x6FDDE03 SWAP2 PUSH1 0x4 DUP1 DUP4 ADD SWAP3 DUP7 SWAP3 SWAP2 SWAP1 DUP3 SWAP1 SUB ADD DUP2 DUP7 GAS STATICCALL ISZERO DUP1 ISZERO PUSH2 0x1774 JUMPI RETURNDATASIZE PUSH0 DUP1 RETURNDATACOPY RETURNDATASIZE PUSH0 REVERT JUMPDEST POP POP POP POP PUSH1 0x40 MLOAD RETURNDATASIZE PUSH0 DUP3 RETURNDATACOPY PUSH1 0x1F RETURNDATASIZE SWAP1 DUP2 ADD PUSH1 0x1F NOT AND DUP3 ADD PUSH1 0x40 MSTORE PUSH2 0x179B SWAP2 SWAP1 DUP2 ADD SWAP1 PUSH2 0x311C JUMP JUMPDEST SWAP4 POP PUSH1 0x2 PUSH0 SWAP1 SLOAD SWAP1 PUSH2 0x100 EXP SWAP1 DIV PUSH1 0x1 PUSH1 0x1 PUSH1 0xA0 SHL SUB AND PUSH1 0x1 PUSH1 0x1 PUSH1 0xA0 SHL SUB AND PUSH4 0x95D89B41 PUSH1 0x40 MLOAD DUP2 PUSH4 0xFFFFFFFF AND PUSH1 0xE0 SHL DUP2 MSTORE PUSH1 0x4 ADD PUSH0 PUSH1 0x40 MLOAD DUP1 DUP4 SUB DUP2 DUP7 GAS STATICCALL ISZERO DUP1 ISZERO PUSH2 0x17EC JUMPI RETURNDATASIZE PUSH0 DUP1 RETURNDATACOPY RETURNDATASIZE PUSH0 REVERT JUMPDEST POP POP POP POP PUSH1 0x40 MLOAD RETURNDATASIZE PUSH0 DUP3 RETURNDATACOPY PUSH1 0x1F RETURNDATASIZE SWAP1 DUP2 ADD PUSH1 0x1F NOT AND DUP3 ADD PUSH1 0x40 MSTORE PUSH2 0x1813 SWAP2 SWAP1 DUP2 ADD SWAP1 PUSH2 0x311C JUMP JUMPDEST SWAP3 POP PUSH1 0x2 PUSH0 SWAP1 SLOAD SWAP1 PUSH2 0x100 EXP SWAP1 DIV PUSH1 0x1 PUSH1 0x1 PUSH1 0xA0 SHL SUB AND PUSH1 0x1 PUSH1 0x1 PUSH1 0xA0 SHL SUB AND PUSH4 0x313CE567 PUSH1 0x40 MLOAD DUP2 PUSH4 0xFFFFFFFF AND PUSH1 0xE0 SHL DUP2 MSTORE PUSH1 0x4 ADD PUSH1 0x20 PUSH1 0x40 MLOAD DUP1 DUP4 SUB DUP2 DUP7 GAS STATICCALL ISZERO DUP1 ISZERO PUSH2 0x1865 JUMPI RETURNDATASIZE PUSH0 DUP1 RETURNDATACOPY RETURNDATASIZE PUSH0 REVERT JUMPDEST POP POP POP POP PUSH1 0x40 MLOAD RETURNDATASIZE PUSH1 0x1F NOT PUSH1 0x1F DUP3 ADD AND DUP3 ADD DUP1 PUSH1 0x40 MSTORE POP DUP2 ADD SWAP1 PUSH2 0x1889 SWAP2 SWAP1 PUSH2 0x31B0 JUMP JUMPDEST PUSH1 0x2 SLOAD PUSH1 0x40 MLOAD PUSH4 0x70A08231 PUSH1 0xE0 SHL DUP2 MSTORE ADDRESS PUSH1 0x4 DUP3 ADD MSTORE SWAP2 SWAP4 POP PUSH1 0x1 PUSH1 0x1 PUSH1 0xA0 SHL SUB AND SWAP1 PUSH4 0x70A08231 SWAP1 PUSH1 0x24 ADD PUSH2 0x115F JUMP JUMPDEST PUSH0 DUP1 PUSH0 PUSH2 0x18D0 PUSH0 SLOAD PUSH1 0xFF PUSH1 0x1 PUSH1 0xA0 SHL SWAP1 SWAP2 DIV AND SWAP1 JUMP JUMPDEST ISZERO PUSH2 0x1910 JUMPI PUSH1 0x40 MLOAD PUSH3 0x461BCD PUSH1 0xE5 SHL DUP2 MSTORE PUSH1 0x20 PUSH1 0x4 DUP3 ADD MSTORE PUSH1 0x10 PUSH1 0x24 DUP3 ADD MSTORE PUSH16 0x14185D5CD8589B194E881C185D5CD959 PUSH1 0x82 SHL PUSH1 0x44 DUP3 ADD MSTORE PUSH1 0x64 ADD PUSH2 0x8F4 JUMP JUMPDEST PUSH2 0x1918 PUSH2 0x280F JUMP JUMPDEST CALLER PUSH0 SWAP1 DUP2 MSTORE PUSH1 0x10 PUSH1 0x20 MSTORE PUSH1 0x40 SWAP1 KECCAK256 SLOAD PUSH1 0xFF AND ISZERO PUSH2 0x196A JUMPI PUSH1 0x40 MLOAD PUSH3 0x461BCD PUSH1 0xE5 SHL DUP2 MSTORE PUSH1 0x20 PUSH1 0x4 DUP3 ADD MSTORE PUSH1 0x10 PUSH1 0x24 DUP3 ADD MSTORE PUSH16 0x4163636F756E74206973207370616D21 PUSH1 0x80 SHL PUSH1 0x44 DUP3 ADD MSTORE PUSH1 0x64 ADD PUSH2 0x8F4 JUMP JUMPDEST CALLER PUSH0 SWAP1 DUP2 MSTORE PUSH1 0x8 PUSH1 0x20 MSTORE PUSH1 0x40 DUP2 KECCAK256 SLOAD DUP2 SWAP1 DUP2 SWAP1 TIMESTAMP DUP3 JUMPDEST DUP10 MLOAD DUP2 LT ISZERO PUSH2 0x1DB8 JUMPI CALLER PUSH0 SWAP1 DUP2 MSTORE PUSH1 0x7 PUSH1 0x20 MSTORE PUSH1 0x40 DUP2 KECCAK256 DUP12 MLOAD DUP13 SWAP1 DUP5 SWAP1 DUP2 LT PUSH2 0x19AB JUMPI PUSH2 0x19AB PUSH2 0x2F67 JUMP JUMPDEST PUSH1 0x20 MUL PUSH1 0x20 ADD ADD MLOAD DUP2 SLOAD DUP2 LT PUSH2 0x19C3 JUMPI PUSH2 0x19C3 PUSH2 0x2F67 JUMP JUMPDEST SWAP1 PUSH0 MSTORE PUSH1 0x20 PUSH0 KECCAK256 ADD SLOAD GT ISZERO PUSH2 0x1DB0 JUMPI PUSH1 0x12 SLOAD CALLER PUSH0 SWAP1 DUP2 MSTORE PUSH1 0x9 PUSH1 0x20 MSTORE PUSH1 0x40 DUP2 KECCAK256 DUP13 MLOAD SWAP2 SWAP3 SWAP2 DUP14 SWAP1 DUP6 SWAP1 DUP2 LT PUSH2 0x19FA JUMPI PUSH2 0x19FA PUSH2 0x2F67 JUMP JUMPDEST PUSH1 0x20 MUL PUSH1 0x20 ADD ADD MLOAD DUP2 SLOAD DUP2 LT PUSH2 0x1A12 JUMPI PUSH2 0x1A12 PUSH2 0x2F67 JUMP JUMPDEST SWAP1 PUSH0 MSTORE PUSH1 0x20 PUSH0 KECCAK256 ADD SLOAD PUSH2 0x1A25 SWAP2 SWAP1 PUSH2 0x2F8F JUMP JUMPDEST CALLER PUSH0 SWAP1 DUP2 MSTORE PUSH1 0xA PUSH1 0x20 MSTORE PUSH1 0x40 SWAP1 KECCAK256 DUP13 MLOAD DUP14 SWAP1 DUP6 SWAP1 DUP2 LT PUSH2 0x1A47 JUMPI PUSH2 0x1A47 PUSH2 0x2F67 JUMP JUMPDEST PUSH1 0x20 MUL PUSH1 0x20 ADD ADD MLOAD DUP2 SLOAD DUP2 LT PUSH2 0x1A5F JUMPI PUSH2 0x1A5F PUSH2 0x2F67 JUMP JUMPDEST SWAP1 PUSH0 MSTORE PUSH1 0x20 PUSH0 KECCAK256 ADD SLOAD PUSH2 0x1A72 SWAP2 SWAP1 PUSH2 0x2FA6 JUMP JUMPDEST SWAP1 POP DUP1 DUP4 GT ISZERO PUSH2 0x1BDC JUMPI PUSH0 PUSH2 0x2710 PUSH1 0x4 PUSH0 PUSH1 0x9 PUSH0 CALLER PUSH1 0x1 PUSH1 0x1 PUSH1 0xA0 SHL SUB AND PUSH1 0x1 PUSH1 0x1 PUSH1 0xA0 SHL SUB AND DUP2 MSTORE PUSH1 0x20 ADD SWAP1 DUP2 MSTORE PUSH1 0x20 ADD PUSH0 KECCAK256 DUP16 DUP8 DUP2 MLOAD DUP2 LT PUSH2 0x1AB8 JUMPI PUSH2 0x1AB8 PUSH2 0x2F67 JUMP JUMPDEST PUSH1 0x20 MUL PUSH1 0x20 ADD ADD MLOAD DUP2 SLOAD DUP2 LT PUSH2 0x1AD0 JUMPI PUSH2 0x1AD0 PUSH2 0x2F67 JUMP JUMPDEST SWAP1 PUSH0 MSTORE PUSH1 0x20 PUSH0 KECCAK256 ADD SLOAD DUP2 MSTORE PUSH1 0x20 ADD SWAP1 DUP2 MSTORE PUSH1 0x20 ADD PUSH0 KECCAK256 SLOAD PUSH1 0x7 PUSH0 CALLER PUSH1 0x1 PUSH1 0x1 PUSH1 0xA0 SHL SUB AND PUSH1 0x1 PUSH1 0x1 PUSH1 0xA0 SHL SUB AND DUP2 MSTORE PUSH1 0x20 ADD SWAP1 DUP2 MSTORE PUSH1 0x20 ADD PUSH0 KECCAK256 DUP15 DUP7 DUP2 MLOAD DUP2 LT PUSH2 0x1B1C JUMPI PUSH2 0x1B1C PUSH2 0x2F67 JUMP JUMPDEST PUSH1 0x20 MUL PUSH1 0x20 ADD ADD MLOAD DUP2 SLOAD DUP2 LT PUSH2 0x1B34 JUMPI PUSH2 0x1B34 PUSH2 0x2F67 JUMP JUMPDEST SWAP1 PUSH0 MSTORE PUSH1 0x20 PUSH0 KECCAK256 ADD SLOAD PUSH2 0x1B47 SWAP2 SWAP1 PUSH2 0x2F8F JUMP JUMPDEST PUSH2 0x1B51 SWAP2 SWAP1 PUSH2 0x2FB9 JUMP JUMPDEST PUSH1 0x3 SLOAD SWAP1 SWAP2 POP PUSH2 0x1B6C SWAP1 PUSH1 0x1 PUSH1 0xA8 SHL SWAP1 DIV PUSH1 0xFF AND PUSH1 0xA PUSH2 0x30BB JUMP JUMPDEST PUSH2 0x1B76 SWAP1 DUP3 PUSH2 0x2FB9 JUMP JUMPDEST SWAP1 POP PUSH2 0x1B82 DUP2 DUP9 PUSH2 0x2FA6 JUMP JUMPDEST CALLER PUSH0 SWAP1 DUP2 MSTORE PUSH1 0x7 PUSH1 0x20 MSTORE PUSH1 0x40 SWAP1 KECCAK256 DUP14 MLOAD SWAP2 SWAP9 POP SWAP1 DUP14 SWAP1 DUP6 SWAP1 DUP2 LT PUSH2 0x1BA8 JUMPI PUSH2 0x1BA8 PUSH2 0x2F67 JUMP JUMPDEST PUSH1 0x20 MUL PUSH1 0x20 ADD ADD MLOAD DUP2 SLOAD DUP2 LT PUSH2 0x1BC0 JUMPI PUSH2 0x1BC0 PUSH2 0x2F67 JUMP JUMPDEST SWAP1 PUSH0 MSTORE PUSH1 0x20 PUSH0 KECCAK256 ADD SLOAD DUP9 PUSH2 0x1BD4 SWAP2 SWAP1 PUSH2 0x2FA6 JUMP JUMPDEST SWAP8 POP POP PUSH2 0x1CDB JUMP JUMPDEST PUSH1 0x11 SLOAD PUSH0 SWAP1 ISZERO PUSH2 0x1C6E JUMPI PUSH1 0x11 SLOAD CALLER PUSH0 SWAP1 DUP2 MSTORE PUSH1 0x7 PUSH1 0x20 MSTORE PUSH1 0x40 SWAP1 KECCAK256 DUP14 MLOAD PUSH2 0x2710 SWAP3 SWAP2 SWAP1 DUP16 SWAP1 DUP8 SWAP1 DUP2 LT PUSH2 0x1C11 JUMPI PUSH2 0x1C11 PUSH2 0x2F67 JUMP JUMPDEST PUSH1 0x20 MUL PUSH1 0x20 ADD ADD MLOAD DUP2 SLOAD DUP2 LT PUSH2 0x1C29 JUMPI PUSH2 0x1C29 PUSH2 0x2F67 JUMP JUMPDEST SWAP1 PUSH0 MSTORE PUSH1 0x20 PUSH0 KECCAK256 ADD SLOAD PUSH2 0x1C3C SWAP2 SWAP1 PUSH2 0x2F8F JUMP JUMPDEST PUSH2 0x1C46 SWAP2 SWAP1 PUSH2 0x2FB9 JUMP JUMPDEST PUSH1 0x3 SLOAD SWAP1 SWAP2 POP PUSH2 0x1C61 SWAP1 PUSH1 0x1 PUSH1 0xA8 SHL SWAP1 DIV PUSH1 0xFF AND PUSH1 0xA PUSH2 0x30BB JUMP JUMPDEST PUSH2 0x1C6B SWAP1 DUP3 PUSH2 0x2FB9 JUMP JUMPDEST SWAP1 POP JUMPDEST CALLER PUSH0 SWAP1 DUP2 MSTORE PUSH1 0x7 PUSH1 0x20 MSTORE PUSH1 0x40 DUP2 KECCAK256 DUP14 MLOAD DUP4 SWAP2 SWAP1 DUP16 SWAP1 DUP8 SWAP1 DUP2 LT PUSH2 0x1C93 JUMPI PUSH2 0x1C93 PUSH2 0x2F67 JUMP JUMPDEST PUSH1 0x20 MUL PUSH1 0x20 ADD ADD MLOAD DUP2 SLOAD DUP2 LT PUSH2 0x1CAB JUMPI PUSH2 0x1CAB PUSH2 0x2F67 JUMP JUMPDEST SWAP1 PUSH0 MSTORE PUSH1 0x20 PUSH0 KECCAK256 ADD SLOAD PUSH2 0x1CBE SWAP2 SWAP1 PUSH2 0x30F5 JUMP JUMPDEST SWAP1 POP PUSH2 0x1CCA DUP2 DUP11 PUSH2 0x2FA6 JUMP JUMPDEST SWAP9 POP PUSH2 0x1CD6 DUP3 DUP9 PUSH2 0x2FA6 JUMP JUMPDEST SWAP7 POP POP POP JUMPDEST CALLER PUSH0 SWAP1 DUP2 MSTORE PUSH1 0x7 PUSH1 0x20 MSTORE PUSH1 0x40 SWAP1 KECCAK256 DUP12 MLOAD DUP13 SWAP1 DUP5 SWAP1 DUP2 LT PUSH2 0x1CFD JUMPI PUSH2 0x1CFD PUSH2 0x2F67 JUMP JUMPDEST PUSH1 0x20 MUL PUSH1 0x20 ADD ADD MLOAD DUP2 SLOAD DUP2 LT PUSH2 0x1D15 JUMPI PUSH2 0x1D15 PUSH2 0x2F67 JUMP JUMPDEST SWAP1 PUSH0 MSTORE PUSH1 0x20 PUSH0 KECCAK256 ADD SLOAD PUSH1 0x5 PUSH0 DUP14 DUP6 DUP2 MLOAD DUP2 LT PUSH2 0x1D33 JUMPI PUSH2 0x1D33 PUSH2 0x2F67 JUMP JUMPDEST PUSH1 0x20 MUL PUSH1 0x20 ADD ADD MLOAD DUP2 MSTORE PUSH1 0x20 ADD SWAP1 DUP2 MSTORE PUSH1 0x20 ADD PUSH0 KECCAK256 PUSH1 0x8 ADD PUSH0 DUP3 DUP3 SLOAD PUSH2 0x1D59 SWAP2 SWAP1 PUSH2 0x30F5 JUMP JUMPDEST SWAP1 SWAP2 SSTORE POP POP CALLER PUSH0 SWAP1 DUP2 MSTORE PUSH1 0x7 PUSH1 0x20 MSTORE PUSH1 0x40 SWAP1 KECCAK256 DUP12 MLOAD DUP13 SWAP1 DUP5 SWAP1 DUP2 LT PUSH2 0x1D80 JUMPI PUSH2 0x1D80 PUSH2 0x2F67 JUMP JUMPDEST PUSH1 0x20 MUL PUSH1 0x20 ADD ADD MLOAD DUP2 SLOAD DUP2 LT PUSH2 0x1D98 JUMPI PUSH2 0x1D98 PUSH2 0x2F67 JUMP JUMPDEST SWAP1 PUSH0 MSTORE PUSH1 0x20 PUSH0 KECCAK256 ADD SLOAD DUP5 PUSH2 0x1DAC SWAP2 SWAP1 PUSH2 0x30F5 JUMP JUMPDEST SWAP4 POP POP JUMPDEST PUSH1 0x1 ADD PUSH2 0x1980 JUMP JUMPDEST POP PUSH0 JUMPDEST DUP10 MLOAD DUP2 LT ISZERO PUSH2 0x1FD4 JUMPI PUSH0 DUP11 DUP3 DUP2 MLOAD DUP2 LT PUSH2 0x1DD7 JUMPI PUSH2 0x1DD7 PUSH2 0x2F67 JUMP JUMPDEST PUSH1 0x20 MUL PUSH1 0x20 ADD ADD MLOAD SWAP1 POP JUMPDEST CALLER PUSH0 SWAP1 DUP2 MSTORE PUSH1 0x7 PUSH1 0x20 MSTORE PUSH1 0x40 SWAP1 KECCAK256 SLOAD PUSH2 0x1DFD SWAP1 PUSH1 0x1 SWAP1 PUSH2 0x30F5 JUMP JUMPDEST DUP2 LT ISZERO PUSH2 0x1F32 JUMPI CALLER PUSH0 SWAP1 DUP2 MSTORE PUSH1 0x7 PUSH1 0x20 MSTORE PUSH1 0x40 SWAP1 KECCAK256 PUSH2 0x1E1D DUP3 PUSH1 0x1 PUSH2 0x2FA6 JUMP JUMPDEST DUP2 SLOAD DUP2 LT PUSH2 0x1E2D JUMPI PUSH2 0x1E2D PUSH2 0x2F67 JUMP JUMPDEST PUSH0 SWAP2 DUP3 MSTORE PUSH1 0x20 DUP1 DUP4 KECCAK256 SWAP1 SWAP2 ADD SLOAD CALLER DUP4 MSTORE PUSH1 0x7 SWAP1 SWAP2 MSTORE PUSH1 0x40 SWAP1 SWAP2 KECCAK256 DUP1 SLOAD DUP4 SWAP1 DUP2 LT PUSH2 0x1E59 JUMPI PUSH2 0x1E59 PUSH2 0x2F67 JUMP JUMPDEST PUSH0 SWAP2 DUP3 MSTORE PUSH1 0x20 DUP1 DUP4 KECCAK256 SWAP1 SWAP2 ADD SWAP3 SWAP1 SWAP3 SSTORE CALLER DUP2 MSTORE PUSH1 0x9 SWAP1 SWAP2 MSTORE PUSH1 0x40 SWAP1 KECCAK256 PUSH2 0x1E80 DUP3 PUSH1 0x1 PUSH2 0x2FA6 JUMP JUMPDEST DUP2 SLOAD DUP2 LT PUSH2 0x1E90 JUMPI PUSH2 0x1E90 PUSH2 0x2F67 JUMP JUMPDEST PUSH0 SWAP2 DUP3 MSTORE PUSH1 0x20 DUP1 DUP4 KECCAK256 SWAP1 SWAP2 ADD SLOAD CALLER DUP4 MSTORE PUSH1 0x9 SWAP1 SWAP2 MSTORE PUSH1 0x40 SWAP1 SWAP2 KECCAK256 DUP1 SLOAD DUP4 SWAP1 DUP2 LT PUSH2 0x1EBC JUMPI PUSH2 0x1EBC PUSH2 0x2F67 JUMP JUMPDEST PUSH0 SWAP2 DUP3 MSTORE PUSH1 0x20 DUP1 DUP4 KECCAK256 SWAP1 SWAP2 ADD SWAP3 SWAP1 SWAP3 SSTORE CALLER DUP2 MSTORE PUSH1 0xA SWAP1 SWAP2 MSTORE PUSH1 0x40 SWAP1 KECCAK256 PUSH2 0x1EE3 DUP3 PUSH1 0x1 PUSH2 0x2FA6 JUMP JUMPDEST DUP2 SLOAD DUP2 LT PUSH2 0x1EF3 JUMPI PUSH2 0x1EF3 PUSH2 0x2F67 JUMP JUMPDEST PUSH0 SWAP2 DUP3 MSTORE PUSH1 0x20 DUP1 DUP4 KECCAK256 SWAP1 SWAP2 ADD SLOAD CALLER DUP4 MSTORE PUSH1 0xA SWAP1 SWAP2 MSTORE PUSH1 0x40 SWAP1 SWAP2 KECCAK256 DUP1 SLOAD DUP4 SWAP1 DUP2 LT PUSH2 0x1F1F JUMPI PUSH2 0x1F1F PUSH2 0x2F67 JUMP JUMPDEST PUSH0 SWAP2 DUP3 MSTORE PUSH1 0x20 SWAP1 SWAP2 KECCAK256 ADD SSTORE PUSH1 0x1 ADD PUSH2 0x1DE2 JUMP JUMPDEST POP CALLER PUSH0 SWAP1 DUP2 MSTORE PUSH1 0x7 PUSH1 0x20 MSTORE PUSH1 0x40 SWAP1 KECCAK256 DUP1 SLOAD DUP1 PUSH2 0x1F50 JUMPI PUSH2 0x1F50 PUSH2 0x3108 JUMP JUMPDEST PUSH0 DUP3 DUP2 MSTORE PUSH1 0x20 DUP1 DUP3 KECCAK256 DUP4 ADD PUSH0 NOT SWAP1 DUP2 ADD DUP4 SWAP1 SSTORE SWAP1 SWAP3 ADD SWAP1 SWAP3 SSTORE CALLER DUP3 MSTORE PUSH1 0x9 SWAP1 MSTORE PUSH1 0x40 SWAP1 KECCAK256 DUP1 SLOAD DUP1 PUSH2 0x1F83 JUMPI PUSH2 0x1F83 PUSH2 0x3108 JUMP JUMPDEST PUSH0 DUP3 DUP2 MSTORE PUSH1 0x20 DUP1 DUP3 KECCAK256 DUP4 ADD PUSH0 NOT SWAP1 DUP2 ADD DUP4 SWAP1 SSTORE SWAP1 SWAP3 ADD SWAP1 SWAP3 SSTORE CALLER DUP3 MSTORE PUSH1 0xA SWAP1 MSTORE PUSH1 0x40 SWAP1 KECCAK256 DUP1 SLOAD DUP1 PUSH2 0x1FB6 JUMPI PUSH2 0x1FB6 PUSH2 0x3108 JUMP JUMPDEST PUSH0 DUP3 DUP2 MSTORE PUSH1 0x20 DUP2 KECCAK256 DUP3 ADD PUSH0 NOT SWAP1 DUP2 ADD SWAP2 SWAP1 SWAP2 SSTORE ADD SWAP1 SSTORE PUSH1 0x1 ADD PUSH2 0x1DBB JUMP JUMPDEST POP DUP5 ISZERO PUSH2 0x2082 JUMPI PUSH1 0x2 SLOAD PUSH1 0x3 SLOAD PUSH1 0x1 PUSH1 0x1 PUSH1 0xA0 SHL SUB SWAP1 SWAP2 AND SWAP1 PUSH4 0xA9059CBB SWAP1 CALLER SWAP1 PUSH2 0x200A SWAP1 PUSH1 0x1 PUSH1 0xA8 SHL SWAP1 DIV PUSH1 0xFF AND PUSH1 0xA PUSH2 0x30BB JUMP JUMPDEST PUSH2 0x2014 SWAP1 DUP10 PUSH2 0x2FB9 JUMP JUMPDEST PUSH1 0x40 MLOAD PUSH1 0x1 PUSH1 0x1 PUSH1 0xE0 SHL SUB NOT PUSH1 0xE0 DUP6 SWAP1 SHL AND DUP2 MSTORE PUSH1 0x1 PUSH1 0x1 PUSH1 0xA0 SHL SUB SWAP1 SWAP3 AND PUSH1 0x4 DUP4 ADD MSTORE PUSH1 0x24 DUP3 ADD MSTORE PUSH1 0x44 ADD PUSH1 0x20 PUSH1 0x40 MLOAD DUP1 DUP4 SUB DUP2 PUSH0 DUP8 GAS CALL ISZERO DUP1 ISZERO PUSH2 0x205C JUMPI RETURNDATASIZE PUSH0 DUP1 RETURNDATACOPY RETURNDATASIZE PUSH0 REVERT JUMPDEST POP POP POP POP PUSH1 0x40 MLOAD RETURNDATASIZE PUSH1 0x1F NOT PUSH1 0x1F DUP3 ADD AND DUP3 ADD DUP1 PUSH1 0x40 MSTORE POP DUP2 ADD SWAP1 PUSH2 0x2080 SWAP2 SWAP1 PUSH2 0x31E7 JUMP JUMPDEST POP JUMPDEST DUP4 ISZERO PUSH2 0x212B JUMPI PUSH1 0x3 SLOAD PUSH1 0x1 PUSH1 0x1 PUSH1 0xA0 SHL SUB DUP2 AND SWAP1 PUSH4 0xA9059CBB SWAP1 CALLER SWAP1 PUSH2 0x20B3 SWAP1 PUSH1 0x1 PUSH1 0xB0 SHL SWAP1 DIV PUSH1 0xFF AND PUSH1 0xA PUSH2 0x30BB JUMP JUMPDEST PUSH2 0x20BD SWAP1 DUP9 PUSH2 0x2FB9 JUMP JUMPDEST PUSH1 0x40 MLOAD PUSH1 0x1 PUSH1 0x1 PUSH1 0xE0 SHL SUB NOT PUSH1 0xE0 DUP6 SWAP1 SHL AND DUP2 MSTORE PUSH1 0x1 PUSH1 0x1 PUSH1 0xA0 SHL SUB SWAP1 SWAP3 AND PUSH1 0x4 DUP4 ADD MSTORE PUSH1 0x24 DUP3 ADD MSTORE PUSH1 0x44 ADD PUSH1 0x20 PUSH1 0x40 MLOAD DUP1 DUP4 SUB DUP2 PUSH0 DUP8 GAS CALL ISZERO DUP1 ISZERO PUSH2 0x2105 JUMPI RETURNDATASIZE PUSH0 DUP1 RETURNDATACOPY RETURNDATASIZE PUSH0 REVERT JUMPDEST POP POP POP POP PUSH1 0x40 MLOAD RETURNDATASIZE PUSH1 0x1F NOT PUSH1 0x1F DUP3 ADD AND DUP3 ADD DUP1 PUSH1 0x40 MSTORE POP DUP2 ADD SWAP1 PUSH2 0x2129 SWAP2 SWAP1 PUSH2 0x31E7 JUMP JUMPDEST POP JUMPDEST DUP3 ISZERO PUSH2 0x21DB JUMPI PUSH1 0x2 SLOAD PUSH1 0x6 SLOAD PUSH1 0x3 SLOAD PUSH1 0x1 PUSH1 0x1 PUSH1 0xA0 SHL SUB SWAP3 DUP4 AND SWAP3 PUSH4 0xA9059CBB SWAP3 AND SWAP1 PUSH2 0x2163 SWAP1 PUSH1 0x1 PUSH1 0xA8 SHL SWAP1 DIV PUSH1 0xFF AND PUSH1 0xA PUSH2 0x30BB JUMP JUMPDEST PUSH2 0x216D SWAP1 DUP8 PUSH2 0x2FB9 JUMP JUMPDEST PUSH1 0x40 MLOAD PUSH1 0x1 PUSH1 0x1 PUSH1 0xE0 SHL SUB NOT PUSH1 0xE0 DUP6 SWAP1 SHL AND DUP2 MSTORE PUSH1 0x1 PUSH1 0x1 PUSH1 0xA0 SHL SUB SWAP1 SWAP3 AND PUSH1 0x4 DUP4 ADD MSTORE PUSH1 0x24 DUP3 ADD MSTORE PUSH1 0x44 ADD PUSH1 0x20 PUSH1 0x40 MLOAD DUP1 DUP4 SUB DUP2 PUSH0 DUP8 GAS CALL ISZERO DUP1 ISZERO PUSH2 0x21B5 JUMPI RETURNDATASIZE PUSH0 DUP1 RETURNDATACOPY RETURNDATASIZE PUSH0 REVERT JUMPDEST POP POP POP POP PUSH1 0x40 MLOAD RETURNDATASIZE PUSH1 0x1F NOT PUSH1 0x1F DUP3 ADD AND DUP3 ADD DUP1 PUSH1 0x40 MSTORE POP DUP2 ADD SWAP1 PUSH2 0x21D9 SWAP2 SWAP1 PUSH2 0x31E7 JUMP JUMPDEST POP JUMPDEST CALLER PUSH0 SWAP1 DUP2 MSTORE PUSH1 0x8 PUSH1 0x20 SWAP1 DUP2 MSTORE PUSH1 0x40 DUP1 DUP4 KECCAK256 DUP6 SWAP1 SSTORE PUSH1 0xB SWAP1 SWAP2 MSTORE DUP2 KECCAK256 DUP1 SLOAD DUP7 SWAP3 SWAP1 PUSH2 0x2206 SWAP1 DUP5 SWAP1 PUSH2 0x2FA6 JUMP JUMPDEST SWAP1 SWAP2 SSTORE POP POP CALLER PUSH0 SWAP1 DUP2 MSTORE PUSH1 0xC PUSH1 0x20 MSTORE PUSH1 0x40 SWAP1 KECCAK256 TIMESTAMP SWAP1 SSTORE POP POP PUSH1 0x1 DUP1 SSTORE SWAP2 SWAP7 SWAP1 SWAP6 POP SWAP1 SWAP4 POP SWAP2 POP POP JUMP JUMPDEST PUSH0 SLOAD PUSH1 0x1 PUSH1 0x1 PUSH1 0xA0 SHL SUB AND CALLER EQ PUSH2 0x2258 JUMPI PUSH1 0x40 MLOAD PUSH3 0x461BCD PUSH1 0xE5 SHL DUP2 MSTORE PUSH1 0x4 ADD PUSH2 0x8F4 SWAP1 PUSH2 0x2F32 JUMP JUMPDEST PUSH1 0x6 DUP1 SLOAD PUSH1 0x1 PUSH1 0x1 PUSH1 0xA0 SHL SUB NOT AND PUSH1 0x1 PUSH1 0x1 PUSH1 0xA0 SHL SUB SWAP3 SWAP1 SWAP3 AND SWAP2 SWAP1 SWAP2 OR SWAP1 SSTORE JUMP JUMPDEST PUSH1 0x13 SLOAD PUSH1 0x60 SWAP1 ISZERO PUSH2 0x23B0 JUMPI PUSH1 0x13 SLOAD PUSH8 0xFFFFFFFFFFFFFFFF DUP2 GT ISZERO PUSH2 0x22A0 JUMPI PUSH2 0x22A0 PUSH2 0x2DFE JUMP JUMPDEST PUSH1 0x40 MLOAD SWAP1 DUP1 DUP3 MSTORE DUP1 PUSH1 0x20 MUL PUSH1 0x20 ADD DUP3 ADD PUSH1 0x40 MSTORE DUP1 ISZERO PUSH2 0x22D9 JUMPI DUP2 PUSH1 0x20 ADD JUMPDEST PUSH2 0x22C6 PUSH2 0x2A1F JUMP JUMPDEST DUP2 MSTORE PUSH1 0x20 ADD SWAP1 PUSH1 0x1 SWAP1 SUB SWAP1 DUP2 PUSH2 0x22BE JUMPI SWAP1 POP JUMPDEST POP SWAP1 POP PUSH0 JUMPDEST PUSH1 0x13 SLOAD DUP2 LT ISZERO PUSH2 0x23AE JUMPI PUSH1 0x5 PUSH0 PUSH1 0x13 DUP4 DUP2 SLOAD DUP2 LT PUSH2 0x22FE JUMPI PUSH2 0x22FE PUSH2 0x2F67 JUMP JUMPDEST SWAP1 PUSH0 MSTORE PUSH1 0x20 PUSH0 KECCAK256 ADD SLOAD DUP2 MSTORE PUSH1 0x20 ADD SWAP1 DUP2 MSTORE PUSH1 0x20 ADD PUSH0 KECCAK256 PUSH1 0x40 MLOAD DUP1 PUSH2 0x120 ADD PUSH1 0x40 MSTORE SWAP1 DUP2 PUSH0 DUP3 ADD SLOAD DUP2 MSTORE PUSH1 0x20 ADD PUSH1 0x1 DUP3 ADD SLOAD DUP2 MSTORE PUSH1 0x20 ADD PUSH1 0x2 DUP3 ADD SLOAD DUP2 MSTORE PUSH1 0x20 ADD PUSH1 0x3 DUP3 ADD SLOAD DUP2 MSTORE PUSH1 0x20 ADD PUSH1 0x4 DUP3 ADD SLOAD DUP2 MSTORE PUSH1 0x20 ADD PUSH1 0x5 DUP3 ADD SLOAD DUP2 MSTORE PUSH1 0x20 ADD PUSH1 0x6 DUP3 ADD SLOAD DUP2 MSTORE PUSH1 0x20 ADD PUSH1 0x7 DUP3 ADD PUSH0 SWAP1 SLOAD SWAP1 PUSH2 0x100 EXP SWAP1 DIV PUSH1 0xFF AND ISZERO ISZERO ISZERO ISZERO DUP2 MSTORE PUSH1 0x20 ADD PUSH1 0x8 DUP3 ADD SLOAD DUP2 MSTORE POP POP DUP3 DUP3 DUP2 MLOAD DUP2 LT PUSH2 0x239B JUMPI PUSH2 0x239B PUSH2 0x2F67 JUMP JUMPDEST PUSH1 0x20 SWAP1 DUP2 MUL SWAP2 SWAP1 SWAP2 ADD ADD MSTORE PUSH1 0x1 ADD PUSH2 0x22DE JUMP JUMPDEST POP JUMPDEST SWAP1 JUMP JUMPDEST PUSH0 SLOAD PUSH1 0x1 PUSH1 0xA0 SHL SWAP1 DIV PUSH1 0xFF AND ISZERO PUSH2 0x23FF JUMPI PUSH1 0x40 MLOAD PUSH3 0x461BCD PUSH1 0xE5 SHL DUP2 MSTORE PUSH1 0x20 PUSH1 0x4 DUP3 ADD MSTORE PUSH1 0x10 PUSH1 0x24 DUP3 ADD MSTORE PUSH16 0x14185D5CD8589B194E881C185D5CD959 PUSH1 0x82 SHL PUSH1 0x44 DUP3 ADD MSTORE PUSH1 0x64 ADD PUSH2 0x8F4 JUMP JUMPDEST PUSH2 0x2407 PUSH2 0x280F JUMP JUMPDEST CALLER PUSH0 SWAP1 DUP2 MSTORE PUSH1 0x10 PUSH1 0x20 MSTORE PUSH1 0x40 SWAP1 KECCAK256 SLOAD PUSH1 0xFF AND ISZERO PUSH2 0x2459 JUMPI PUSH1 0x40 MLOAD PUSH3 0x461BCD PUSH1 0xE5 SHL DUP2 MSTORE PUSH1 0x20 PUSH1 0x4 DUP3 ADD MSTORE PUSH1 0x10 PUSH1 0x24 DUP3 ADD MSTORE PUSH16 0x4163636F756E74206973207370616D21 PUSH1 0x80 SHL PUSH1 0x44 DUP3 ADD MSTORE PUSH1 0x64 ADD PUSH2 0x8F4 JUMP JUMPDEST PUSH2 0x2462 DUP2 PUSH2 0x27C7 JUMP JUMPDEST PUSH2 0x24A4 JUMPI PUSH1 0x40 MLOAD PUSH3 0x461BCD PUSH1 0xE5 SHL DUP2 MSTORE PUSH1 0x20 PUSH1 0x4 DUP3 ADD MSTORE PUSH1 0x13 PUSH1 0x24 DUP3 ADD MSTORE PUSH19 0x125B9D985B1A59081B1BD8DAC81C195C9A5BD9 PUSH1 0x6A SHL PUSH1 0x44 DUP3 ADD MSTORE PUSH1 0x64 ADD PUSH2 0x8F4 JUMP JUMPDEST PUSH0 DUP2 DUP2 MSTORE PUSH1 0x5 PUSH1 0x20 MSTORE PUSH1 0x40 SWAP1 KECCAK256 PUSH1 0x1 ADD SLOAD DUP3 LT ISZERO PUSH2 0x24F5 JUMPI PUSH1 0x40 MLOAD PUSH3 0x461BCD PUSH1 0xE5 SHL DUP2 MSTORE PUSH1 0x20 PUSH1 0x4 DUP3 ADD MSTORE PUSH1 0xE PUSH1 0x24 DUP3 ADD MSTORE PUSH14 0x125B9D985B1A5908185B5BDD5B9D PUSH1 0x92 SHL PUSH1 0x44 DUP3 ADD MSTORE PUSH1 0x64 ADD PUSH2 0x8F4 JUMP JUMPDEST PUSH1 0x2 SLOAD PUSH1 0x40 MLOAD PUSH4 0x23B872DD PUSH1 0xE0 SHL DUP2 MSTORE CALLER PUSH1 0x4 DUP3 ADD MSTORE ADDRESS PUSH1 0x24 DUP3 ADD MSTORE PUSH1 0x44 DUP2 ADD DUP5 SWAP1 MSTORE TIMESTAMP SWAP2 PUSH1 0x1 PUSH1 0x1 PUSH1 0xA0 SHL SUB AND SWAP1 PUSH4 0x23B872DD SWAP1 PUSH1 0x64 ADD PUSH1 0x20 PUSH1 0x40 MLOAD DUP1 DUP4 SUB DUP2 PUSH0 DUP8 GAS CALL ISZERO DUP1 ISZERO PUSH2 0x2549 JUMPI RETURNDATASIZE PUSH0 DUP1 RETURNDATACOPY RETURNDATASIZE PUSH0 REVERT JUMPDEST POP POP POP POP PUSH1 0x40 MLOAD RETURNDATASIZE PUSH1 0x1F NOT PUSH1 0x1F DUP3 ADD AND DUP3 ADD DUP1 PUSH1 0x40 MSTORE POP DUP2 ADD SWAP1 PUSH2 0x256D SWAP2 SWAP1 PUSH2 0x31E7 JUMP JUMPDEST POP CALLER PUSH0 DUP2 DUP2 MSTORE PUSH1 0x7 PUSH1 0x20 SWAP1 DUP2 MSTORE PUSH1 0x40 DUP1 DUP4 KECCAK256 DUP1 SLOAD PUSH1 0x1 DUP2 DUP2 ADD DUP4 SSTORE SWAP2 DUP6 MSTORE DUP4 DUP6 KECCAK256 ADD DUP9 SWAP1 SSTORE DUP5 DUP5 MSTORE PUSH1 0xA DUP4 MSTORE DUP2 DUP5 KECCAK256 DUP1 SLOAD SWAP2 DUP3 ADD DUP2 SSTORE DUP5 MSTORE DUP3 DUP5 KECCAK256 PUSH5 0xFFFFFFFFFF DUP8 AND SWAP2 ADD SSTORE SWAP3 DUP3 MSTORE PUSH1 0x8 SWAP1 MSTORE SWAP1 DUP2 KECCAK256 DUP1 SLOAD DUP6 SWAP3 SWAP1 PUSH2 0x25CD SWAP1 DUP5 SWAP1 PUSH2 0x2FA6 JUMP JUMPDEST SWAP1 SWAP2 SSTORE POP POP CALLER PUSH0 DUP2 DUP2 MSTORE PUSH1 0x9 PUSH1 0x20 SWAP1 DUP2 MSTORE PUSH1 0x40 DUP1 DUP4 KECCAK256 DUP1 SLOAD PUSH1 0x1 DUP2 ADD DUP3 SSTORE SWAP1 DUP5 MSTORE DUP3 DUP5 KECCAK256 ADD DUP7 SWAP1 SSTORE SWAP3 DUP3 MSTORE PUSH1 0xC DUP2 MSTORE DUP3 DUP3 KECCAK256 TIMESTAMP SWAP1 SSTORE DUP5 DUP3 MSTORE PUSH1 0x5 SWAP1 MSTORE SWAP1 DUP2 KECCAK256 PUSH1 0x8 ADD DUP1 SLOAD DUP6 SWAP3 SWAP1 PUSH2 0x261F SWAP1 DUP5 SWAP1 PUSH2 0x2FA6 JUMP JUMPDEST SWAP1 SWAP2 SSTORE POP POP CALLER PUSH0 SWAP1 DUP2 MSTORE PUSH1 0xD PUSH1 0x20 MSTORE PUSH1 0x40 SWAP1 KECCAK256 SLOAD PUSH1 0xFF AND PUSH2 0x2689 JUMPI PUSH1 0xF DUP1 SLOAD SWAP1 PUSH0 PUSH2 0x2649 DUP4 PUSH2 0x3202 JUMP JUMPDEST SWAP1 SWAP2 SSTORE POP POP PUSH1 0xF SLOAD PUSH0 SWAP1 DUP2 MSTORE PUSH1 0xE PUSH1 0x20 SWAP1 DUP2 MSTORE PUSH1 0x40 DUP1 DUP4 KECCAK256 DUP1 SLOAD PUSH1 0x1 PUSH1 0x1 PUSH1 0xA0 SHL SUB NOT AND CALLER SWAP1 DUP2 OR SWAP1 SWAP2 SSTORE DUP4 MSTORE PUSH1 0xD SWAP1 SWAP2 MSTORE SWAP1 KECCAK256 DUP1 SLOAD PUSH1 0xFF NOT AND PUSH1 0x1 OR SWAP1 SSTORE JUMPDEST PUSH2 0x2691 PUSH2 0x2868 JUMP JUMPDEST PUSH1 0x40 DUP1 MLOAD DUP5 DUP2 MSTORE PUSH1 0x20 DUP2 ADD DUP5 SWAP1 MSTORE SWAP1 DUP2 ADD DUP3 SWAP1 MSTORE ADDRESS SWAP1 CALLER SWAP1 PUSH32 0xE44628ED4B392C5EF46FFC833D640EEFD957E81A312E583E0CC57EED5F04ADA3 SWAP1 PUSH1 0x60 ADD PUSH1 0x40 MLOAD DUP1 SWAP2 SUB SWAP1 LOG3 POP PUSH2 0x977 PUSH1 0x1 DUP1 SSTORE JUMP JUMPDEST PUSH0 SLOAD PUSH1 0x1 PUSH1 0x1 PUSH1 0xA0 SHL SUB AND CALLER EQ PUSH2 0x2709 JUMPI PUSH1 0x40 MLOAD PUSH3 0x461BCD PUSH1 0xE5 SHL DUP2 MSTORE PUSH1 0x4 ADD PUSH2 0x8F4 SWAP1 PUSH2 0x2F32 JUMP JUMPDEST PUSH1 0x1 PUSH1 0x1 PUSH1 0xA0 SHL SUB DUP2 AND PUSH2 0x276E JUMPI PUSH1 0x40 MLOAD PUSH3 0x461BCD PUSH1 0xE5 SHL DUP2 MSTORE PUSH1 0x20 PUSH1 0x4 DUP3 ADD MSTORE PUSH1 0x26 PUSH1 0x24 DUP3 ADD MSTORE PUSH32 0x4F776E61626C653A206E6577206F776E657220697320746865207A65726F2061 PUSH1 0x44 DUP3 ADD MSTORE PUSH6 0x646472657373 PUSH1 0xD0 SHL PUSH1 0x64 DUP3 ADD MSTORE PUSH1 0x84 ADD PUSH2 0x8F4 JUMP JUMPDEST PUSH0 DUP1 SLOAD PUSH1 0x40 MLOAD PUSH1 0x1 PUSH1 0x1 PUSH1 0xA0 SHL SUB DUP1 DUP6 AND SWAP4 SWAP3 AND SWAP2 PUSH32 0x8BE0079C531659141344CD1FD0A4F28419497F9722A3DAAFE3B4186F6B6457E0 SWAP2 LOG3 PUSH0 DUP1 SLOAD PUSH1 0x1 PUSH1 0x1 PUSH1 0xA0 SHL SUB NOT AND PUSH1 0x1 PUSH1 0x1 PUSH1 0xA0 SHL SUB SWAP3 SWAP1 SWAP3 AND SWAP2 SWAP1 SWAP2 OR SWAP1 SSTORE JUMP JUMPDEST PUSH0 DUP1 JUMPDEST PUSH1 0x13 SLOAD DUP2 LT ISZERO PUSH2 0x2807 JUMPI DUP3 PUSH1 0x13 DUP3 DUP2 SLOAD DUP2 LT PUSH2 0x27E8 JUMPI PUSH2 0x27E8 PUSH2 0x2F67 JUMP JUMPDEST SWAP1 PUSH0 MSTORE PUSH1 0x20 PUSH0 KECCAK256 ADD SLOAD SUB PUSH2 0x27FF JUMPI POP PUSH1 0x1 SWAP3 SWAP2 POP POP JUMP JUMPDEST PUSH1 0x1 ADD PUSH2 0x27CA JUMP JUMPDEST POP PUSH0 SWAP3 SWAP2 POP POP JUMP JUMPDEST PUSH1 0x2 PUSH1 0x1 SLOAD SUB PUSH2 0x2861 JUMPI PUSH1 0x40 MLOAD PUSH3 0x461BCD PUSH1 0xE5 SHL DUP2 MSTORE PUSH1 0x20 PUSH1 0x4 DUP3 ADD MSTORE PUSH1 0x1F PUSH1 0x24 DUP3 ADD MSTORE PUSH32 0x5265656E7472616E637947756172643A207265656E7472616E742063616C6C00 PUSH1 0x44 DUP3 ADD MSTORE PUSH1 0x64 ADD PUSH2 0x8F4 JUMP JUMPDEST PUSH1 0x2 PUSH1 0x1 SSTORE JUMP JUMPDEST PUSH1 0x2 SLOAD PUSH1 0x40 MLOAD PUSH4 0x70A08231 PUSH1 0xE0 SHL DUP2 MSTORE ADDRESS PUSH1 0x4 DUP3 ADD MSTORE PUSH0 SWAP2 PUSH1 0x1 PUSH1 0x1 PUSH1 0xA0 SHL SUB AND SWAP1 PUSH4 0x70A08231 SWAP1 PUSH1 0x24 ADD PUSH1 0x20 PUSH1 0x40 MLOAD DUP1 DUP4 SUB DUP2 DUP7 GAS STATICCALL ISZERO DUP1 ISZERO PUSH2 0x28AE JUMPI RETURNDATASIZE PUSH0 DUP1 RETURNDATACOPY RETURNDATASIZE PUSH0 REVERT JUMPDEST POP POP POP POP PUSH1 0x40 MLOAD RETURNDATASIZE PUSH1 0x1F NOT PUSH1 0x1F DUP3 ADD AND DUP3 ADD DUP1 PUSH1 0x40 MSTORE POP DUP2 ADD SWAP1 PUSH2 0x28D2 SWAP2 SWAP1 PUSH2 0x31D0 JUMP JUMPDEST SWAP1 POP PUSH0 JUMPDEST PUSH1 0x13 SLOAD DUP2 LT ISZERO PUSH2 0x977 JUMPI PUSH0 PUSH1 0x13 DUP3 DUP2 SLOAD DUP2 LT PUSH2 0x28F4 JUMPI PUSH2 0x28F4 PUSH2 0x2F67 JUMP JUMPDEST PUSH0 SWAP2 DUP3 MSTORE PUSH1 0x20 DUP1 DUP4 KECCAK256 SWAP1 SWAP2 ADD SLOAD DUP1 DUP4 MSTORE PUSH1 0x5 DUP1 DUP4 MSTORE PUSH1 0x40 SWAP4 DUP5 SWAP1 KECCAK256 DUP5 MLOAD PUSH2 0x120 DUP2 ADD DUP7 MSTORE DUP2 SLOAD DUP2 MSTORE PUSH1 0x1 DUP3 ADD SLOAD SWAP5 DUP2 ADD SWAP5 SWAP1 SWAP5 MSTORE PUSH1 0x2 DUP2 ADD SLOAD SWAP5 DUP5 ADD SWAP5 SWAP1 SWAP5 MSTORE PUSH1 0x3 DUP5 ADD SLOAD PUSH1 0x60 DUP5 ADD MSTORE PUSH1 0x4 DUP5 ADD SLOAD PUSH1 0x80 DUP5 ADD MSTORE DUP4 ADD SLOAD PUSH1 0xA0 DUP4 ADD MSTORE PUSH1 0x6 DUP4 ADD SLOAD PUSH1 0xC0 DUP4 ADD MSTORE PUSH1 0x7 DUP4 ADD SLOAD PUSH1 0xFF AND ISZERO ISZERO PUSH1 0xE0 DUP4 ADD DUP2 SWAP1 MSTORE PUSH1 0x8 SWAP1 SWAP4 ADD SLOAD PUSH2 0x100 DUP4 ADD MSTORE SWAP3 POP SWAP1 PUSH2 0x2A15 JUMPI PUSH0 DUP2 PUSH1 0xC0 ADD MLOAD DUP6 PUSH2 0x298F SWAP2 SWAP1 PUSH2 0x2FB9 JUMP JUMPDEST SWAP1 POP PUSH0 DUP3 PUSH1 0xA0 ADD MLOAD DUP3 PUSH2 0x29A2 SWAP2 SWAP1 PUSH2 0x2F8F JUMP JUMPDEST SWAP1 POP DUP3 PUSH1 0x80 ADD MLOAD DUP4 PUSH1 0x60 ADD MLOAD PUSH2 0x29B8 SWAP2 SWAP1 PUSH2 0x30F5 JUMP JUMPDEST DUP2 GT PUSH2 0x29E1 JUMPI DUP1 DUP4 PUSH1 0x60 ADD MLOAD PUSH2 0x29CE SWAP2 SWAP1 PUSH2 0x30F5 JUMP JUMPDEST PUSH0 DUP6 DUP2 MSTORE PUSH1 0x4 PUSH1 0x20 MSTORE PUSH1 0x40 SWAP1 KECCAK256 SSTORE PUSH2 0x29F5 JUMP JUMPDEST PUSH1 0x80 DUP4 ADD MLOAD PUSH0 DUP6 DUP2 MSTORE PUSH1 0x4 PUSH1 0x20 MSTORE PUSH1 0x40 SWAP1 KECCAK256 SSTORE JUMPDEST POP POP PUSH0 DUP3 DUP2 MSTORE PUSH1 0x4 PUSH1 0x20 SWAP1 DUP2 MSTORE PUSH1 0x40 DUP1 DUP4 KECCAK256 SLOAD PUSH1 0x5 SWAP1 SWAP3 MSTORE SWAP1 SWAP2 KECCAK256 PUSH1 0x2 ADD SSTORE JUMPDEST POP POP PUSH1 0x1 ADD PUSH2 0x28D6 JUMP JUMPDEST PUSH1 0x40 MLOAD DUP1 PUSH2 0x120 ADD PUSH1 0x40 MSTORE DUP1 PUSH0 DUP2 MSTORE PUSH1 0x20 ADD PUSH0 DUP2 MSTORE PUSH1 0x20 ADD PUSH0 DUP2 MSTORE PUSH1 0x20 ADD PUSH0 DUP2 MSTORE PUSH1 0x20 ADD PUSH0 DUP2 MSTORE PUSH1 0x20 ADD PUSH0 DUP2 MSTORE PUSH1 0x20 ADD PUSH0 DUP2 MSTORE PUSH1 0x20 ADD PUSH0 ISZERO ISZERO DUP2 MSTORE PUSH1 0x20 ADD PUSH0 DUP2 MSTORE POP SWAP1 JUMP JUMPDEST PUSH1 0x40 MLOAD DUP1 PUSH1 0xE0 ADD PUSH1 0x40 MSTORE DUP1 PUSH0 PUSH1 0x1 PUSH1 0x1 PUSH1 0xA0 SHL SUB AND DUP2 MSTORE PUSH1 0x20 ADD PUSH0 DUP2 MSTORE PUSH1 0x20 ADD PUSH0 DUP2 MSTORE PUSH1 0x20 ADD PUSH1 0x60 DUP2 MSTORE PUSH1 0x20 ADD PUSH0 DUP2 MSTORE PUSH1 0x20 ADD PUSH0 DUP2 MSTORE PUSH1 0x20 ADD PUSH1 0x60 DUP2 MSTORE POP SWAP1 JUMP JUMPDEST PUSH1 0x1 PUSH1 0x1 PUSH1 0xA0 SHL SUB DUP2 AND DUP2 EQ PUSH2 0x2AB9 JUMPI PUSH0 DUP1 REVERT JUMPDEST POP JUMP JUMPDEST PUSH0 PUSH1 0x20 DUP3 DUP5 SUB SLT ISZERO PUSH2 0x2ACC JUMPI PUSH0 DUP1 REVERT JUMPDEST DUP2 CALLDATALOAD PUSH2 0x2AD7 DUP2 PUSH2 0x2AA5 JUMP JUMPDEST SWAP4 SWAP3 POP POP POP JUMP JUMPDEST PUSH0 PUSH1 0x20 DUP3 DUP5 SUB SLT ISZERO PUSH2 0x2AEE JUMPI PUSH0 DUP1 REVERT JUMPDEST POP CALLDATALOAD SWAP2 SWAP1 POP JUMP JUMPDEST DUP1 MLOAD DUP3 MSTORE PUSH1 0x20 DUP2 ADD MLOAD PUSH1 0x20 DUP4 ADD MSTORE PUSH1 0x40 DUP2 ADD MLOAD PUSH1 0x40 DUP4 ADD MSTORE PUSH1 0x60 DUP2 ADD MLOAD PUSH1 0x60 DUP4 ADD MSTORE PUSH1 0x80 DUP2 ADD MLOAD PUSH1 0x80 DUP4 ADD MSTORE PUSH1 0xA0 DUP2 ADD MLOAD PUSH1 0xA0 DUP4 ADD MSTORE PUSH1 0xC0 DUP2 ADD MLOAD PUSH1 0xC0 DUP4 ADD MSTORE PUSH1 0xE0 DUP2 ADD MLOAD ISZERO ISZERO PUSH1 0xE0 DUP4 ADD MSTORE PUSH2 0x100 DUP2 ADD MLOAD PUSH2 0x100 DUP4 ADD MSTORE POP POP JUMP JUMPDEST PUSH2 0x120 DUP2 ADD PUSH2 0x2B60 DUP3 DUP5 PUSH2 0x2AF5 JUMP JUMPDEST SWAP3 SWAP2 POP POP JUMP JUMPDEST PUSH1 0x20 DUP1 DUP3 MSTORE DUP3 MLOAD DUP3 DUP3 ADD DUP2 SWAP1 MSTORE PUSH0 SWAP2 DUP5 ADD SWAP1 PUSH1 0x40 DUP5 ADD SWAP1 DUP4 JUMPDEST DUP2 DUP2 LT ISZERO PUSH2 0x2B9D JUMPI DUP4 MLOAD DUP4 MSTORE PUSH1 0x20 SWAP4 DUP5 ADD SWAP4 SWAP1 SWAP3 ADD SWAP2 PUSH1 0x1 ADD PUSH2 0x2B7F JUMP JUMPDEST POP SWAP1 SWAP6 SWAP5 POP POP POP POP POP JUMP JUMPDEST PUSH0 DUP1 PUSH1 0x40 DUP4 DUP6 SUB SLT ISZERO PUSH2 0x2BB9 JUMPI PUSH0 DUP1 REVERT JUMPDEST POP POP DUP1 CALLDATALOAD SWAP3 PUSH1 0x20 SWAP1 SWAP2 ADD CALLDATALOAD SWAP2 POP JUMP JUMPDEST PUSH0 DUP2 MLOAD DUP1 DUP5 MSTORE PUSH1 0x20 DUP5 ADD SWAP4 POP PUSH1 0x20 DUP4 ADD PUSH0 JUMPDEST DUP3 DUP2 LT ISZERO PUSH2 0x2BF8 JUMPI DUP2 MLOAD DUP7 MSTORE PUSH1 0x20 SWAP6 DUP7 ADD SWAP6 SWAP1 SWAP2 ADD SWAP1 PUSH1 0x1 ADD PUSH2 0x2BDA JUMP JUMPDEST POP SWAP4 SWAP5 SWAP4 POP POP POP POP JUMP JUMPDEST PUSH1 0x1 DUP1 PUSH1 0xA0 SHL SUB DUP2 MLOAD AND DUP3 MSTORE PUSH1 0x20 DUP2 ADD MLOAD PUSH1 0x20 DUP4 ADD MSTORE PUSH1 0x40 DUP2 ADD MLOAD PUSH1 0x40 DUP4 ADD MSTORE PUSH0 PUSH1 0x60 DUP3 ADD MLOAD PUSH1 0xE0 PUSH1 0x60 DUP6 ADD MSTORE PUSH2 0x2C3C PUSH1 0xE0 DUP6 ADD DUP3 PUSH2 0x2BC8 JUMP JUMPDEST SWAP1 POP PUSH1 0x80 DUP4 ADD MLOAD PUSH1 0x80 DUP6 ADD MSTORE PUSH1 0xA0 DUP4 ADD MLOAD PUSH1 0xA0 DUP6 ADD MSTORE PUSH1 0xC0 DUP4 ADD MLOAD DUP5 DUP3 SUB PUSH1 0xC0 DUP7 ADD MSTORE PUSH2 0x2C69 DUP3 DUP3 PUSH2 0x2BC8 JUMP JUMPDEST SWAP6 SWAP5 POP POP POP POP POP JUMP JUMPDEST PUSH0 PUSH1 0x20 DUP3 ADD PUSH1 0x20 DUP4 MSTORE DUP1 DUP5 MLOAD DUP1 DUP4 MSTORE PUSH1 0x40 DUP6 ADD SWAP2 POP PUSH1 0x40 DUP2 PUSH1 0x5 SHL DUP7 ADD ADD SWAP3 POP PUSH1 0x20 DUP7 ADD PUSH0 JUMPDEST DUP3 DUP2 LT ISZERO PUSH2 0x2CC9 JUMPI PUSH1 0x3F NOT DUP8 DUP7 SUB ADD DUP5 MSTORE PUSH2 0x2CB4 DUP6 DUP4 MLOAD PUSH2 0x2C02 JUMP JUMPDEST SWAP5 POP PUSH1 0x20 SWAP4 DUP5 ADD SWAP4 SWAP2 SWAP1 SWAP2 ADD SWAP1 PUSH1 0x1 ADD PUSH2 0x2C98 JUMP JUMPDEST POP SWAP3 SWAP7 SWAP6 POP POP POP POP POP POP JUMP JUMPDEST PUSH0 DUP2 MLOAD DUP1 DUP5 MSTORE DUP1 PUSH1 0x20 DUP5 ADD PUSH1 0x20 DUP7 ADD MCOPY PUSH0 PUSH1 0x20 DUP3 DUP7 ADD ADD MSTORE PUSH1 0x20 PUSH1 0x1F NOT PUSH1 0x1F DUP4 ADD AND DUP6 ADD ADD SWAP2 POP POP SWAP3 SWAP2 POP POP JUMP JUMPDEST PUSH1 0x1 PUSH1 0x1 PUSH1 0xA0 SHL SUB DUP7 AND DUP2 MSTORE PUSH1 0xA0 PUSH1 0x20 DUP3 ADD DUP2 SWAP1 MSTORE PUSH0 SWAP1 PUSH2 0x2D26 SWAP1 DUP4 ADD DUP8 PUSH2 0x2CD5 JUMP JUMPDEST DUP3 DUP2 SUB PUSH1 0x40 DUP5 ADD MSTORE PUSH2 0x2D38 DUP2 DUP8 PUSH2 0x2CD5 JUMP JUMPDEST PUSH1 0xFF SWAP6 SWAP1 SWAP6 AND PUSH1 0x60 DUP5 ADD MSTORE POP POP PUSH1 0x80 ADD MSTORE SWAP4 SWAP3 POP POP POP JUMP JUMPDEST PUSH1 0x20 DUP2 MSTORE PUSH0 PUSH2 0x2AD7 PUSH1 0x20 DUP4 ADD DUP5 PUSH2 0x2C02 JUMP JUMPDEST PUSH0 DUP1 PUSH1 0x40 DUP4 DUP6 SUB SLT ISZERO PUSH2 0x2D73 JUMPI PUSH0 DUP1 REVERT JUMPDEST DUP3 CALLDATALOAD PUSH2 0x2D7E DUP2 PUSH2 0x2AA5 JUMP JUMPDEST SWAP5 PUSH1 0x20 SWAP4 SWAP1 SWAP4 ADD CALLDATALOAD SWAP4 POP POP POP JUMP JUMPDEST DUP1 ISZERO ISZERO DUP2 EQ PUSH2 0x2AB9 JUMPI PUSH0 DUP1 REVERT JUMPDEST PUSH0 DUP1 PUSH0 DUP1 PUSH0 DUP1 PUSH0 DUP1 PUSH2 0x100 DUP10 DUP12 SUB SLT ISZERO PUSH2 0x2DB1 JUMPI PUSH0 DUP1 REVERT JUMPDEST DUP9 CALLDATALOAD SWAP8 POP PUSH1 0x20 DUP10 ADD CALLDATALOAD SWAP7 POP PUSH1 0x40 DUP10 ADD CALLDATALOAD SWAP6 POP PUSH1 0x60 DUP10 ADD CALLDATALOAD SWAP5 POP PUSH1 0x80 DUP10 ADD CALLDATALOAD SWAP4 POP PUSH1 0xA0 DUP10 ADD CALLDATALOAD SWAP3 POP PUSH1 0xC0 DUP10 ADD CALLDATALOAD SWAP2 POP PUSH1 0xE0 DUP10 ADD CALLDATALOAD PUSH2 0x2DED DUP2 PUSH2 0x2D8C JUMP JUMPDEST DUP1 SWAP2 POP POP SWAP3 SWAP6 SWAP9 POP SWAP3 SWAP6 SWAP9 SWAP1 SWAP4 SWAP7 POP JUMP JUMPDEST PUSH4 0x4E487B71 PUSH1 0xE0 SHL PUSH0 MSTORE PUSH1 0x41 PUSH1 0x4 MSTORE PUSH1 0x24 PUSH0 REVERT JUMPDEST PUSH1 0x40 MLOAD PUSH1 0x1F DUP3 ADD PUSH1 0x1F NOT AND DUP2 ADD PUSH8 0xFFFFFFFFFFFFFFFF DUP2 GT DUP3 DUP3 LT OR ISZERO PUSH2 0x2E3B JUMPI PUSH2 0x2E3B PUSH2 0x2DFE JUMP JUMPDEST PUSH1 0x40 MSTORE SWAP2 SWAP1 POP JUMP JUMPDEST PUSH0 PUSH1 0x20 DUP3 DUP5 SUB SLT ISZERO PUSH2 0x2E53 JUMPI PUSH0 DUP1 REVERT JUMPDEST DUP2 CALLDATALOAD PUSH8 0xFFFFFFFFFFFFFFFF DUP2 GT ISZERO PUSH2 0x2E69 JUMPI PUSH0 DUP1 REVERT JUMPDEST DUP3 ADD PUSH1 0x1F DUP2 ADD DUP5 SGT PUSH2 0x2E79 JUMPI PUSH0 DUP1 REVERT JUMPDEST DUP1 CALLDATALOAD PUSH8 0xFFFFFFFFFFFFFFFF DUP2 GT ISZERO PUSH2 0x2E93 JUMPI PUSH2 0x2E93 PUSH2 0x2DFE JUMP JUMPDEST DUP1 PUSH1 0x5 SHL PUSH2 0x2EA3 PUSH1 0x20 DUP3 ADD PUSH2 0x2E12 JUMP JUMPDEST SWAP2 DUP3 MSTORE PUSH1 0x20 DUP2 DUP5 ADD DUP2 ADD SWAP3 SWAP1 DUP2 ADD SWAP1 DUP8 DUP5 GT ISZERO PUSH2 0x2EBE JUMPI PUSH0 DUP1 REVERT JUMPDEST PUSH1 0x20 DUP6 ADD SWAP5 POP JUMPDEST DUP4 DUP6 LT ISZERO PUSH2 0x2EE4 JUMPI DUP5 CALLDATALOAD DUP1 DUP4 MSTORE PUSH1 0x20 SWAP6 DUP7 ADD SWAP6 SWAP1 SWAP4 POP SWAP1 SWAP2 ADD SWAP1 PUSH2 0x2EC5 JUMP JUMPDEST SWAP8 SWAP7 POP POP POP POP POP POP POP JUMP JUMPDEST PUSH1 0x20 DUP1 DUP3 MSTORE DUP3 MLOAD DUP3 DUP3 ADD DUP2 SWAP1 MSTORE PUSH0 SWAP2 DUP5 ADD SWAP1 PUSH1 0x40 DUP5 ADD SWAP1 DUP4 JUMPDEST DUP2 DUP2 LT ISZERO PUSH2 0x2B9D JUMPI PUSH2 0x2F1B DUP4 DUP6 MLOAD PUSH2 0x2AF5 JUMP JUMPDEST PUSH1 0x20 SWAP4 SWAP1 SWAP4 ADD SWAP3 PUSH2 0x120 SWAP3 SWAP1 SWAP3 ADD SWAP2 PUSH1 0x1 ADD PUSH2 0x2F08 JUMP JUMPDEST PUSH1 0x20 DUP1 DUP3 MSTORE DUP2 DUP2 ADD MSTORE PUSH32 0x4F776E61626C653A2063616C6C6572206973206E6F7420746865206F776E6572 PUSH1 0x40 DUP3 ADD MSTORE PUSH1 0x60 ADD SWAP1 JUMP JUMPDEST PUSH4 0x4E487B71 PUSH1 0xE0 SHL PUSH0 MSTORE PUSH1 0x32 PUSH1 0x4 MSTORE PUSH1 0x24 PUSH0 REVERT JUMPDEST PUSH4 0x4E487B71 PUSH1 0xE0 SHL PUSH0 MSTORE PUSH1 0x11 PUSH1 0x4 MSTORE PUSH1 0x24 PUSH0 REVERT JUMPDEST DUP1 DUP3 MUL DUP2 ISZERO DUP3 DUP3 DIV DUP5 EQ OR PUSH2 0x2B60 JUMPI PUSH2 0x2B60 PUSH2 0x2F7B JUMP JUMPDEST DUP1 DUP3 ADD DUP1 DUP3 GT ISZERO PUSH2 0x2B60 JUMPI PUSH2 0x2B60 PUSH2 0x2F7B JUMP JUMPDEST PUSH0 DUP3 PUSH2 0x2FD3 JUMPI PUSH4 0x4E487B71 PUSH1 0xE0 SHL PUSH0 MSTORE PUSH1 0x12 PUSH1 0x4 MSTORE PUSH1 0x24 PUSH0 REVERT JUMPDEST POP DIV SWAP1 JUMP JUMPDEST PUSH1 0x1 DUP2 JUMPDEST PUSH1 0x1 DUP5 GT ISZERO PUSH2 0x3013 JUMPI DUP1 DUP6 DIV DUP2 GT ISZERO PUSH2 0x2FF7 JUMPI PUSH2 0x2FF7 PUSH2 0x2F7B JUMP JUMPDEST PUSH1 0x1 DUP5 AND ISZERO PUSH2 0x3005 JUMPI SWAP1 DUP2 MUL SWAP1 JUMPDEST PUSH1 0x1 SWAP4 SWAP1 SWAP4 SHR SWAP3 DUP1 MUL PUSH2 0x2FDC JUMP JUMPDEST SWAP4 POP SWAP4 SWAP2 POP POP JUMP JUMPDEST PUSH0 DUP3 PUSH2 0x3029 JUMPI POP PUSH1 0x1 PUSH2 0x2B60 JUMP JUMPDEST DUP2 PUSH2 0x3035 JUMPI POP PUSH0 PUSH2 0x2B60 JUMP JUMPDEST DUP2 PUSH1 0x1 DUP2 EQ PUSH2 0x304B JUMPI PUSH1 0x2 DUP2 EQ PUSH2 0x3055 JUMPI PUSH2 0x3071 JUMP JUMPDEST PUSH1 0x1 SWAP2 POP POP PUSH2 0x2B60 JUMP JUMPDEST PUSH1 0xFF DUP5 GT ISZERO PUSH2 0x3066 JUMPI PUSH2 0x3066 PUSH2 0x2F7B JUMP JUMPDEST POP POP PUSH1 0x1 DUP3 SHL PUSH2 0x2B60 JUMP JUMPDEST POP PUSH1 0x20 DUP4 LT PUSH2 0x133 DUP4 LT AND PUSH1 0x4E DUP5 LT PUSH1 0xB DUP5 LT AND OR ISZERO PUSH2 0x3094 JUMPI POP DUP2 DUP2 EXP PUSH2 0x2B60 JUMP JUMPDEST PUSH2 0x30A0 PUSH0 NOT DUP5 DUP5 PUSH2 0x2FD8 JUMP JUMPDEST DUP1 PUSH0 NOT DIV DUP3 GT ISZERO PUSH2 0x30B3 JUMPI PUSH2 0x30B3 PUSH2 0x2F7B JUMP JUMPDEST MUL SWAP4 SWAP3 POP POP POP JUMP JUMPDEST PUSH0 PUSH2 0x2AD7 DUP4 DUP4 PUSH2 0x301B JUMP JUMPDEST PUSH1 0x20 DUP1 DUP3 MSTORE PUSH1 0x15 SWAP1 DUP3 ADD MSTORE PUSH21 0x131BD8DAC81C195C9A5BD9081B9BDD08199BDD5B99 PUSH1 0x5A SHL PUSH1 0x40 DUP3 ADD MSTORE PUSH1 0x60 ADD SWAP1 JUMP JUMPDEST DUP2 DUP2 SUB DUP2 DUP2 GT ISZERO PUSH2 0x2B60 JUMPI PUSH2 0x2B60 PUSH2 0x2F7B JUMP JUMPDEST PUSH4 0x4E487B71 PUSH1 0xE0 SHL PUSH0 MSTORE PUSH1 0x31 PUSH1 0x4 MSTORE PUSH1 0x24 PUSH0 REVERT JUMPDEST PUSH0 PUSH1 0x20 DUP3 DUP5 SUB SLT ISZERO PUSH2 0x312C JUMPI PUSH0 DUP1 REVERT JUMPDEST DUP2 MLOAD PUSH8 0xFFFFFFFFFFFFFFFF DUP2 GT ISZERO PUSH2 0x3142 JUMPI PUSH0 DUP1 REVERT JUMPDEST DUP3 ADD PUSH1 0x1F DUP2 ADD DUP5 SGT PUSH2 0x3152 JUMPI PUSH0 DUP1 REVERT JUMPDEST DUP1 MLOAD PUSH8 0xFFFFFFFFFFFFFFFF DUP2 GT ISZERO PUSH2 0x316C JUMPI PUSH2 0x316C PUSH2 0x2DFE JUMP JUMPDEST PUSH2 0x317F PUSH1 0x1F DUP3 ADD PUSH1 0x1F NOT AND PUSH1 0x20 ADD PUSH2 0x2E12 JUMP JUMPDEST DUP2 DUP2 MSTORE DUP6 PUSH1 0x20 DUP4 DUP6 ADD ADD GT ISZERO PUSH2 0x3193 JUMPI PUSH0 DUP1 REVERT JUMPDEST DUP2 PUSH1 0x20 DUP5 ADD PUSH1 0x20 DUP4 ADD MCOPY PUSH0 SWAP2 DUP2 ADD PUSH1 0x20 ADD SWAP2 SWAP1 SWAP2 MSTORE SWAP5 SWAP4 POP POP POP POP JUMP JUMPDEST PUSH0 PUSH1 0x20 DUP3 DUP5 SUB SLT ISZERO PUSH2 0x31C0 JUMPI PUSH0 DUP1 REVERT JUMPDEST DUP2 MLOAD PUSH1 0xFF DUP2 AND DUP2 EQ PUSH2 0x2AD7 JUMPI PUSH0 DUP1 REVERT JUMPDEST PUSH0 PUSH1 0x20 DUP3 DUP5 SUB SLT ISZERO PUSH2 0x31E0 JUMPI PUSH0 DUP1 REVERT JUMPDEST POP MLOAD SWAP2 SWAP1 POP JUMP JUMPDEST PUSH0 PUSH1 0x20 DUP3 DUP5 SUB SLT ISZERO PUSH2 0x31F7 JUMPI PUSH0 DUP1 REVERT JUMPDEST DUP2 MLOAD PUSH2 0x2AD7 DUP2 PUSH2 0x2D8C JUMP JUMPDEST PUSH0 PUSH1 0x1 DUP3 ADD PUSH2 0x3213 JUMPI PUSH2 0x3213 PUSH2 0x2F7B JUMP JUMPDEST POP PUSH1 0x1 ADD SWAP1 JUMP INVALID LOG2 PUSH5 0x6970667358 0x22 SLT KECCAK256 0xEF SWAP9 CALL 0xFB 0x29 0x4F 0xE5 PUSH9 0x7EDBD88E55FFEAD82E CALLDATALOAD BLOBHASH PUSH9 0xC856525A6935EC4C19 EXTCODEHASH SDIV DUP4 PUSH5 0x736F6C6343 STOP ADDMOD BYTE STOP CALLER "
				},
				"gasEstimates": {
					"creation": {
						"codeDepositCost": "2576000",
						"executionCost": "infinite",
						"totalCost": "infinite"
					},
					"external": {
						"IS_ULTIMATE_STAKE_FACTORY()": "2458",
						"Token()": "2469",
						"addSpam(address)": "26887",
						"allocation(uint256)": "2470",
						"allowedLockPeriods(uint256)": "4607",
						"deductionPercentage()": "2394",
						"deposit(uint256,uint256)": "infinite",
						"depositTokenDecimals()": "2440",
						"depositeTime(address,uint256)": "4809",
						"depositeToken(address,uint256)": "4832",
						"depositeTokensTotal(address)": "2634",
						"emergencyWithdrawTokens(address,uint256)": "infinite",
						"emergencyWithdrawWei(uint256)": "infinite",
						"getLockPeriodParams(uint256)": "infinite",
						"getLockPeriods()": "infinite",
						"getLockPeriodsInfo()": "infinite",
						"getRewardTokenInfo()": "infinite",
						"getStakeTokenInfo()": "infinite",
						"getUser(address)": "infinite",
						"getUsers(uint256,uint256)": "infinite",
						"harwest(uint256[])": "infinite",
						"isSpam(address)": "2633",
						"lastUpdated(address)": "2568",
						"lockPeriodParams(uint256)": "19647",
						"lockableDays(address,uint256)": "4854",
						"owner()": "2397",
						"paused()": "2353",
						"pendingRewards(address)": "infinite",
						"removeLockPeriod(uint256)": "infinite",
						"removeSpam(address)": "26903",
						"rewardToken()": "2490",
						"rewardTokenDecimals()": "2396",
						"setAllocation(uint256,uint256,uint256,uint256,uint256,uint256,uint256,bool)": "infinite",
						"setDeductionPercentage(uint256)": "24576",
						"setTaxReceiver(address)": "26835",
						"taxreceiver()": "2424",
						"time()": "2374",
						"transferOwnership(address)": "30499",
						"users(uint256)": "2564",
						"usersCount()": "2416",
						"usersExists(address)": "2567",
						"withdrawedReward(address)": "2546"
					},
					"internal": {
						"allocationPercentageUpdate()": "infinite",
						"isLockPeriodAllowed(uint256)": "infinite"
					}
				},
				"methodIdentifiers": {
					"IS_ULTIMATE_STAKE_FACTORY()": "f66e4be3",
					"Token()": "c2412676",
					"addSpam(address)": "52b8745f",
					"allocation(uint256)": "850bad94",
					"allowedLockPeriods(uint256)": "2b4a16a0",
					"deductionPercentage()": "6b130dc2",
					"deposit(uint256,uint256)": "e2bbb158",
					"depositTokenDecimals()": "c0941214",
					"depositeTime(address,uint256)": "ba743f99",
					"depositeToken(address,uint256)": "91dc842e",
					"depositeTokensTotal(address)": "27ba372c",
					"emergencyWithdrawTokens(address,uint256)": "917bb998",
					"emergencyWithdrawWei(uint256)": "230ffa0f",
					"getLockPeriodParams(uint256)": "3d51c72d",
					"getLockPeriods()": "41ee13be",
					"getLockPeriodsInfo()": "de644c76",
					"getRewardTokenInfo()": "647428b9",
					"getStakeTokenInfo()": "c53c5fc1",
					"getUser(address)": "6f77926b",
					"getUsers(uint256,uint256)": "45982a66",
					"harwest(uint256[])": "c5c35196",
					"isSpam(address)": "cd099205",
					"lastUpdated(address)": "0a6f93e6",
					"lockPeriodParams(uint256)": "39129cff",
					"lockableDays(address,uint256)": "95302cc0",
					"owner()": "8da5cb5b",
					"paused()": "5c975abb",
					"pendingRewards(address)": "31d7a262",
					"removeLockPeriod(uint256)": "4d70378a",
					"removeSpam(address)": "58098bf4",
					"rewardToken()": "f7c618c1",
					"rewardTokenDecimals()": "9bdcecd1",
					"setAllocation(uint256,uint256,uint256,uint256,uint256,uint256,uint256,bool)": "9a4577a2",
					"setDeductionPercentage(uint256)": "6a1d18d2",
					"setTaxReceiver(address)": "cd8de42c",
					"taxreceiver()": "f256dfc5",
					"time()": "16ada547",
					"transferOwnership(address)": "f2fde38b",
					"users(uint256)": "365b98b2",
					"usersCount()": "6ba13a82",
					"usersExists(address)": "c2e5fe76",
					"withdrawedReward(address)": "03962d46"
				}
			},
			"storageLayout": {
				"storage": [
					{
						"astId": 345,
						"contract": "StakeFactory.sol:StakeFactory",
						"label": "_owner",
						"offset": 0,
						"slot": "0",
						"type": "t_address"
					},
					{
						"astId": 269,
						"contract": "StakeFactory.sol:StakeFactory",
						"label": "_paused",
						"offset": 20,
						"slot": "0",
						"type": "t_bool"
					},
					{
						"astId": 62,
						"contract": "StakeFactory.sol:StakeFactory",
						"label": "_status",
						"offset": 0,
						"slot": "1",
						"type": "t_uint256"
					},
					{
						"astId": 429,
						"contract": "StakeFactory.sol:StakeFactory",
						"label": "Token",
						"offset": 0,
						"slot": "2",
						"type": "t_contract(IERC20)53"
					},
					{
						"astId": 432,
						"contract": "StakeFactory.sol:StakeFactory",
						"label": "rewardToken",
						"offset": 0,
						"slot": "3",
						"type": "t_contract(IERC20)53"
					},
					{
						"astId": 435,
						"contract": "StakeFactory.sol:StakeFactory",
						"label": "IS_ULTIMATE_STAKE_FACTORY",
						"offset": 20,
						"slot": "3",
						"type": "t_bool"
					},
					{
						"astId": 437,
						"contract": "StakeFactory.sol:StakeFactory",
						"label": "depositTokenDecimals",
						"offset": 21,
						"slot": "3",
						"type": "t_uint8"
					},
					{
						"astId": 439,
						"contract": "StakeFactory.sol:StakeFactory",
						"label": "rewardTokenDecimals",
						"offset": 22,
						"slot": "3",
						"type": "t_uint8"
					},
					{
						"astId": 472,
						"contract": "StakeFactory.sol:StakeFactory",
						"label": "allocation",
						"offset": 0,
						"slot": "4",
						"type": "t_mapping(t_uint256,t_uint256)"
					},
					{
						"astId": 477,
						"contract": "StakeFactory.sol:StakeFactory",
						"label": "lockPeriodParams",
						"offset": 0,
						"slot": "5",
						"type": "t_mapping(t_uint256,t_struct(LockPeriodParams)548_storage)"
					},
					{
						"astId": 479,
						"contract": "StakeFactory.sol:StakeFactory",
						"label": "taxreceiver",
						"offset": 0,
						"slot": "6",
						"type": "t_address"
					},
					{
						"astId": 484,
						"contract": "StakeFactory.sol:StakeFactory",
						"label": "depositeToken",
						"offset": 0,
						"slot": "7",
						"type": "t_mapping(t_address,t_array(t_uint256)dyn_storage)"
					},
					{
						"astId": 488,
						"contract": "StakeFactory.sol:StakeFactory",
						"label": "depositeTokensTotal",
						"offset": 0,
						"slot": "8",
						"type": "t_mapping(t_address,t_uint256)"
					},
					{
						"astId": 493,
						"contract": "StakeFactory.sol:StakeFactory",
						"label": "lockableDays",
						"offset": 0,
						"slot": "9",
						"type": "t_mapping(t_address,t_array(t_uint256)dyn_storage)"
					},
					{
						"astId": 498,
						"contract": "StakeFactory.sol:StakeFactory",
						"label": "depositeTime",
						"offset": 0,
						"slot": "10",
						"type": "t_mapping(t_address,t_array(t_uint256)dyn_storage)"
					},
					{
						"astId": 502,
						"contract": "StakeFactory.sol:StakeFactory",
						"label": "withdrawedReward",
						"offset": 0,
						"slot": "11",
						"type": "t_mapping(t_address,t_uint256)"
					},
					{
						"astId": 506,
						"contract": "StakeFactory.sol:StakeFactory",
						"label": "lastUpdated",
						"offset": 0,
						"slot": "12",
						"type": "t_mapping(t_address,t_uint256)"
					},
					{
						"astId": 510,
						"contract": "StakeFactory.sol:StakeFactory",
						"label": "usersExists",
						"offset": 0,
						"slot": "13",
						"type": "t_mapping(t_address,t_bool)"
					},
					{
						"astId": 514,
						"contract": "StakeFactory.sol:StakeFactory",
						"label": "users",
						"offset": 0,
						"slot": "14",
						"type": "t_mapping(t_uint256,t_address)"
					},
					{
						"astId": 516,
						"contract": "StakeFactory.sol:StakeFactory",
						"label": "usersCount",
						"offset": 0,
						"slot": "15",
						"type": "t_uint256"
					},
					{
						"astId": 520,
						"contract": "StakeFactory.sol:StakeFactory",
						"label": "isSpam",
						"offset": 0,
						"slot": "16",
						"type": "t_mapping(t_address,t_bool)"
					},
					{
						"astId": 523,
						"contract": "StakeFactory.sol:StakeFactory",
						"label": "deductionPercentage",
						"offset": 0,
						"slot": "17",
						"type": "t_uint256"
					},
					{
						"astId": 526,
						"contract": "StakeFactory.sol:StakeFactory",
						"label": "time",
						"offset": 0,
						"slot": "18",
						"type": "t_uint256"
					},
					{
						"astId": 529,
						"contract": "StakeFactory.sol:StakeFactory",
						"label": "allowedLockPeriods",
						"offset": 0,
						"slot": "19",
						"type": "t_array(t_uint256)dyn_storage"
					}
				],
				"types": {
					"t_address": {
						"encoding": "inplace",
						"label": "address",
						"numberOfBytes": "20"
					},
					"t_array(t_uint256)dyn_storage": {
						"base": "t_uint256",
						"encoding": "dynamic_array",
						"label": "uint256[]",
						"numberOfBytes": "32"
					},
					"t_bool": {
						"encoding": "inplace",
						"label": "bool",
						"numberOfBytes": "1"
					},
					"t_contract(IERC20)53": {
						"encoding": "inplace",
						"label": "contract IERC20",
						"numberOfBytes": "20"
					},
					"t_mapping(t_address,t_array(t_uint256)dyn_storage)": {
						"encoding": "mapping",
						"key": "t_address",
						"label": "mapping(address => uint256[])",
						"numberOfBytes": "32",
						"value": "t_array(t_uint256)dyn_storage"
					},
					"t_mapping(t_address,t_bool)": {
						"encoding": "mapping",
						"key": "t_address",
						"label": "mapping(address => bool)",
						"numberOfBytes": "32",
						"value": "t_bool"
					},
					"t_mapping(t_address,t_uint256)": {
						"encoding": "mapping",
						"key": "t_address",
						"label": "mapping(address => uint256)",
						"numberOfBytes": "32",
						"value": "t_uint256"
					},
					"t_mapping(t_uint256,t_address)": {
						"encoding": "mapping",
						"key": "t_uint256",
						"label": "mapping(uint256 => address)",
						"numberOfBytes": "32",
						"value": "t_address"
					},
					"t_mapping(t_uint256,t_struct(LockPeriodParams)548_storage)": {
						"encoding": "mapping",
						"key": "t_uint256",
						"label": "mapping(uint256 => struct StakeFactory.LockPeriodParams)",
						"numberOfBytes": "32",
						"value": "t_struct(LockPeriodParams)548_storage"
					},
					"t_mapping(t_uint256,t_uint256)": {
						"encoding": "mapping",
						"key": "t_uint256",
						"label": "mapping(uint256 => uint256)",
						"numberOfBytes": "32",
						"value": "t_uint256"
					},
					"t_struct(LockPeriodParams)548_storage": {
						"encoding": "inplace",
						"label": "struct StakeFactory.LockPeriodParams",
						"members": [
							{
								"astId": 531,
								"contract": "StakeFactory.sol:StakeFactory",
								"label": "lockTimeDays",
								"offset": 0,
								"slot": "0",
								"type": "t_uint256"
							},
							{
								"astId": 533,
								"contract": "StakeFactory.sol:StakeFactory",
								"label": "minimumDeposit",
								"offset": 0,
								"slot": "1",
								"type": "t_uint256"
							},
							{
								"astId": 535,
								"contract": "StakeFactory.sol:StakeFactory",
								"label": "percentageBasisPoints",
								"offset": 0,
								"slot": "2",
								"type": "t_uint256"
							},
							{
								"astId": 537,
								"contract": "StakeFactory.sol:StakeFactory",
								"label": "maxRate",
								"offset": 0,
								"slot": "3",
								"type": "t_uint256"
							},
							{
								"astId": 539,
								"contract": "StakeFactory.sol:StakeFactory",
								"label": "minRate",
								"offset": 0,
								"slot": "4",
								"type": "t_uint256"
							},
							{
								"astId": 541,
								"contract": "StakeFactory.sol:StakeFactory",
								"label": "decrementStep",
								"offset": 0,
								"slot": "5",
								"type": "t_uint256"
							},
							{
								"astId": 543,
								"contract": "StakeFactory.sol:StakeFactory",
								"label": "stepSize",
								"offset": 0,
								"slot": "6",
								"type": "t_uint256"
							},
							{
								"astId": 545,
								"contract": "StakeFactory.sol:StakeFactory",
								"label": "fixedBasisPoints",
								"offset": 0,
								"slot": "7",
								"type": "t_bool"
							},
							{
								"astId": 547,
								"contract": "StakeFactory.sol:StakeFactory",
								"label": "stakedAmount",
								"offset": 0,
								"slot": "8",
								"type": "t_uint256"
							}
						],
						"numberOfBytes": "288"
					},
					"t_uint256": {
						"encoding": "inplace",
						"label": "uint256",
						"numberOfBytes": "32"
					},
					"t_uint8": {
						"encoding": "inplace",
						"label": "uint8",
						"numberOfBytes": "1"
					}
				}
			},
			"userdoc": {
				"kind": "user",
				"methods": {},
				"version": 1
			}
		}
	}
}