{
	"StakeFactory.sol": {
		"StakeFactory": {
			"abi": [
				{
					"inputs": [
						{
							"internalType": "contract IERC20",
							"name": "_token",
							"type": "address"
						},
						{
							"internalType": "contract IERC20",
							"name": "_rewardToken",
							"type": "address"
						},
						{
							"internalType": "address",
							"name": "_taxreceiver",
							"type": "address"
						},
						{
							"internalType": "uint256",
							"name": "_deductionPercentage",
							"type": "uint256"
						},
						{
							"components": [
								{
									"internalType": "uint256",
									"name": "lockTimeDays",
									"type": "uint256"
								},
								{
									"internalType": "uint256",
									"name": "minimumDeposit",
									"type": "uint256"
								},
								{
									"internalType": "uint256",
									"name": "percentageBasisPoints",
									"type": "uint256"
								},
								{
									"internalType": "uint256",
									"name": "maxRate",
									"type": "uint256"
								},
								{
									"internalType": "uint256",
									"name": "minRate",
									"type": "uint256"
								},
								{
									"internalType": "uint256",
									"name": "decrementStep",
									"type": "uint256"
								},
								{
									"internalType": "uint256",
									"name": "stepSize",
									"type": "uint256"
								},
								{
									"internalType": "bool",
									"name": "fixedBasisPoints",
									"type": "bool"
								},
								{
									"internalType": "uint256",
									"name": "stakedAmount",
									"type": "uint256"
								}
							],
							"internalType": "struct StakeFactory.LockPeriodParams[]",
							"name": "_initLockPeriods",
							"type": "tuple[]"
						}
					],
					"stateMutability": "nonpayable",
					"type": "constructor"
				},
				{
					"anonymous": false,
					"inputs": [
						{
							"indexed": true,
							"internalType": "address",
							"name": "to",
							"type": "address"
						},
						{
							"indexed": true,
							"internalType": "address",
							"name": "From",
							"type": "address"
						},
						{
							"indexed": false,
							"internalType": "uint256",
							"name": "amount",
							"type": "uint256"
						},
						{
							"indexed": false,
							"internalType": "uint256",
							"name": "day",
							"type": "uint256"
						},
						{
							"indexed": false,
							"internalType": "uint256",
							"name": "time",
							"type": "uint256"
						}
					],
					"name": "Deposite_",
					"type": "event"
				},
				{
					"anonymous": false,
					"inputs": [
						{
							"indexed": true,
							"internalType": "address",
							"name": "previousOwner",
							"type": "address"
						},
						{
							"indexed": true,
							"internalType": "address",
							"name": "newOwner",
							"type": "address"
						}
					],
					"name": "OwnershipTransferred",
					"type": "event"
				},
				{
					"anonymous": false,
					"inputs": [
						{
							"indexed": false,
							"internalType": "address",
							"name": "account",
							"type": "address"
						}
					],
					"name": "Paused",
					"type": "event"
				},
				{
					"anonymous": false,
					"inputs": [
						{
							"indexed": false,
							"internalType": "address",
							"name": "account",
							"type": "address"
						}
					],
					"name": "Unpaused",
					"type": "event"
				},
				{
					"inputs": [],
					"name": "IS_ULTIMATE_STAKE_FACTORY",
					"outputs": [
						{
							"internalType": "bool",
							"name": "",
							"type": "bool"
						}
					],
					"stateMutability": "view",
					"type": "function"
				},
				{
					"inputs": [],
					"name": "Token",
					"outputs": [
						{
							"internalType": "contract IERC20",
							"name": "",
							"type": "address"
						}
					],
					"stateMutability": "view",
					"type": "function"
				},
				{
					"inputs": [
						{
							"internalType": "address",
							"name": "_addr",
							"type": "address"
						}
					],
					"name": "addSpam",
					"outputs": [],
					"stateMutability": "nonpayable",
					"type": "function"
				},
				{
					"inputs": [
						{
							"internalType": "uint256",
							"name": "",
							"type": "uint256"
						}
					],
					"name": "allocation",
					"outputs": [
						{
							"internalType": "uint256",
							"name": "",
							"type": "uint256"
						}
					],
					"stateMutability": "view",
					"type": "function"
				},
				{
					"inputs": [
						{
							"internalType": "uint256",
							"name": "",
							"type": "uint256"
						}
					],
					"name": "allowedLockPeriods",
					"outputs": [
						{
							"internalType": "uint256",
							"name": "",
							"type": "uint256"
						}
					],
					"stateMutability": "view",
					"type": "function"
				},
				{
					"inputs": [],
					"name": "deductionPercentage",
					"outputs": [
						{
							"internalType": "uint256",
							"name": "",
							"type": "uint256"
						}
					],
					"stateMutability": "view",
					"type": "function"
				},
				{
					"inputs": [
						{
							"internalType": "uint256",
							"name": "_amount",
							"type": "uint256"
						},
						{
							"internalType": "uint256",
							"name": "_lockDays",
							"type": "uint256"
						}
					],
					"name": "deposit",
					"outputs": [],
					"stateMutability": "nonpayable",
					"type": "function"
				},
				{
					"inputs": [],
					"name": "depositTokenDecimals",
					"outputs": [
						{
							"internalType": "uint8",
							"name": "",
							"type": "uint8"
						}
					],
					"stateMutability": "view",
					"type": "function"
				},
				{
					"inputs": [
						{
							"internalType": "address",
							"name": "",
							"type": "address"
						},
						{
							"internalType": "uint256",
							"name": "",
							"type": "uint256"
						}
					],
					"name": "depositeTime",
					"outputs": [
						{
							"internalType": "uint256",
							"name": "",
							"type": "uint256"
						}
					],
					"stateMutability": "view",
					"type": "function"
				},
				{
					"inputs": [
						{
							"internalType": "address",
							"name": "",
							"type": "address"
						},
						{
							"internalType": "uint256",
							"name": "",
							"type": "uint256"
						}
					],
					"name": "depositeToken",
					"outputs": [
						{
							"internalType": "uint256",
							"name": "",
							"type": "uint256"
						}
					],
					"stateMutability": "view",
					"type": "function"
				},
				{
					"inputs": [
						{
							"internalType": "address",
							"name": "",
							"type": "address"
						}
					],
					"name": "depositeTokensTotal",
					"outputs": [
						{
							"internalType": "uint256",
							"name": "",
							"type": "uint256"
						}
					],
					"stateMutability": "view",
					"type": "function"
				},
				{
					"inputs": [
						{
							"internalType": "contract IERC20",
							"name": "_token",
							"type": "address"
						},
						{
							"internalType": "uint256",
							"name": "_amount",
							"type": "uint256"
						}
					],
					"name": "emergencyWithdrawTokens",
					"outputs": [],
					"stateMutability": "nonpayable",
					"type": "function"
				},
				{
					"inputs": [
						{
							"internalType": "uint256",
							"name": "_amount",
							"type": "uint256"
						}
					],
					"name": "emergencyWithdrawWei",
					"outputs": [],
					"stateMutability": "nonpayable",
					"type": "function"
				},
				{
					"inputs": [
						{
							"internalType": "uint256",
							"name": "_days",
							"type": "uint256"
						}
					],
					"name": "getLockPeriodParams",
					"outputs": [
						{
							"components": [
								{
									"internalType": "uint256",
									"name": "lockTimeDays",
									"type": "uint256"
								},
								{
									"internalType": "uint256",
									"name": "minimumDeposit",
									"type": "uint256"
								},
								{
									"internalType": "uint256",
									"name": "percentageBasisPoints",
									"type": "uint256"
								},
								{
									"internalType": "uint256",
									"name": "maxRate",
									"type": "uint256"
								},
								{
									"internalType": "uint256",
									"name": "minRate",
									"type": "uint256"
								},
								{
									"internalType": "uint256",
									"name": "decrementStep",
									"type": "uint256"
								},
								{
									"internalType": "uint256",
									"name": "stepSize",
									"type": "uint256"
								},
								{
									"internalType": "bool",
									"name": "fixedBasisPoints",
									"type": "bool"
								},
								{
									"internalType": "uint256",
									"name": "stakedAmount",
									"type": "uint256"
								}
							],
							"internalType": "struct StakeFactory.LockPeriodParams",
							"name": "",
							"type": "tuple"
						}
					],
					"stateMutability": "view",
					"type": "function"
				},
				{
					"inputs": [],
					"name": "getLockPeriods",
					"outputs": [
						{
							"internalType": "uint256[]",
							"name": "",
							"type": "uint256[]"
						}
					],
					"stateMutability": "view",
					"type": "function"
				},
				{
					"inputs": [],
					"name": "getLockPeriodsInfo",
					"outputs": [
						{
							"components": [
								{
									"internalType": "uint256",
									"name": "lockTimeDays",
									"type": "uint256"
								},
								{
									"internalType": "uint256",
									"name": "minimumDeposit",
									"type": "uint256"
								},
								{
									"internalType": "uint256",
									"name": "percentageBasisPoints",
									"type": "uint256"
								},
								{
									"internalType": "uint256",
									"name": "maxRate",
									"type": "uint256"
								},
								{
									"internalType": "uint256",
									"name": "minRate",
									"type": "uint256"
								},
								{
									"internalType": "uint256",
									"name": "decrementStep",
									"type": "uint256"
								},
								{
									"internalType": "uint256",
									"name": "stepSize",
									"type": "uint256"
								},
								{
									"internalType": "bool",
									"name": "fixedBasisPoints",
									"type": "bool"
								},
								{
									"internalType": "uint256",
									"name": "stakedAmount",
									"type": "uint256"
								}
							],
							"internalType": "struct StakeFactory.LockPeriodParams[]",
							"name": "ret",
							"type": "tuple[]"
						}
					],
					"stateMutability": "view",
					"type": "function"
				},
				{
					"inputs": [],
					"name": "getRewardTokenInfo",
					"outputs": [
						{
							"internalType": "address",
							"name": "addr",
							"type": "address"
						},
						{
							"internalType": "string",
							"name": "name",
							"type": "string"
						},
						{
							"internalType": "string",
							"name": "symbol",
							"type": "string"
						},
						{
							"internalType": "uint8",
							"name": "decimals",
							"type": "uint8"
						},
						{
							"internalType": "uint256",
							"name": "balance",
							"type": "uint256"
						}
					],
					"stateMutability": "view",
					"type": "function"
				},
				{
					"inputs": [],
					"name": "getStakeTokenInfo",
					"outputs": [
						{
							"internalType": "address",
							"name": "addr",
							"type": "address"
						},
						{
							"internalType": "string",
							"name": "name",
							"type": "string"
						},
						{
							"internalType": "string",
							"name": "symbol",
							"type": "string"
						},
						{
							"internalType": "uint8",
							"name": "decimals",
							"type": "uint8"
						},
						{
							"internalType": "uint256",
							"name": "balance",
							"type": "uint256"
						}
					],
					"stateMutability": "view",
					"type": "function"
				},
				{
					"inputs": [
						{
							"internalType": "address",
							"name": "user",
							"type": "address"
						}
					],
					"name": "getUser",
					"outputs": [
						{
							"components": [
								{
									"internalType": "address",
									"name": "Address",
									"type": "address"
								},
								{
									"internalType": "uint256",
									"name": "DepositeTokenTotal",
									"type": "uint256"
								},
								{
									"internalType": "uint256",
									"name": "LastUpdated",
									"type": "uint256"
								},
								{
									"internalType": "uint256[]",
									"name": "LockableDays",
									"type": "uint256[]"
								},
								{
									"internalType": "uint256",
									"name": "WithdrawedReward",
									"type": "uint256"
								},
								{
									"internalType": "uint256",
									"name": "WithdrawAbleReward",
									"type": "uint256"
								},
								{
									"internalType": "uint256[]",
									"name": "DepositeTime",
									"type": "uint256[]"
								}
							],
							"internalType": "struct StakeFactory.UserInfo",
							"name": "info",
							"type": "tuple"
						}
					],
					"stateMutability": "view",
					"type": "function"
				},
				{
					"inputs": [
						{
							"internalType": "uint256",
							"name": "_offset",
							"type": "uint256"
						},
						{
							"internalType": "uint256",
							"name": "_limit",
							"type": "uint256"
						}
					],
					"name": "getUsers",
					"outputs": [
						{
							"components": [
								{
									"internalType": "address",
									"name": "Address",
									"type": "address"
								},
								{
									"internalType": "uint256",
									"name": "DepositeTokenTotal",
									"type": "uint256"
								},
								{
									"internalType": "uint256",
									"name": "LastUpdated",
									"type": "uint256"
								},
								{
									"internalType": "uint256[]",
									"name": "LockableDays",
									"type": "uint256[]"
								},
								{
									"internalType": "uint256",
									"name": "WithdrawedReward",
									"type": "uint256"
								},
								{
									"internalType": "uint256",
									"name": "WithdrawAbleReward",
									"type": "uint256"
								},
								{
									"internalType": "uint256[]",
									"name": "DepositeTime",
									"type": "uint256[]"
								}
							],
							"internalType": "struct StakeFactory.UserInfo[]",
							"name": "ret",
							"type": "tuple[]"
						}
					],
					"stateMutability": "view",
					"type": "function"
				},
				{
					"inputs": [
						{
							"internalType": "uint256[]",
							"name": "_index",
							"type": "uint256[]"
						}
					],
					"name": "harwest",
					"outputs": [
						{
							"internalType": "uint256",
							"name": "_totalWithdrawAmount",
							"type": "uint256"
						},
						{
							"internalType": "uint256",
							"name": "_totalReward",
							"type": "uint256"
						},
						{
							"internalType": "uint256",
							"name": "_deductionFee",
							"type": "uint256"
						}
					],
					"stateMutability": "nonpayable",
					"type": "function"
				},
				{
					"inputs": [
						{
							"internalType": "address",
							"name": "",
							"type": "address"
						}
					],
					"name": "isSpam",
					"outputs": [
						{
							"internalType": "bool",
							"name": "",
							"type": "bool"
						}
					],
					"stateMutability": "view",
					"type": "function"
				},
				{
					"inputs": [
						{
							"internalType": "address",
							"name": "",
							"type": "address"
						}
					],
					"name": "lastUpdated",
					"outputs": [
						{
							"internalType": "uint256",
							"name": "",
							"type": "uint256"
						}
					],
					"stateMutability": "view",
					"type": "function"
				},
				{
					"inputs": [
						{
							"internalType": "uint256",
							"name": "",
							"type": "uint256"
						}
					],
					"name": "lockPeriodParams",
					"outputs": [
						{
							"internalType": "uint256",
							"name": "lockTimeDays",
							"type": "uint256"
						},
						{
							"internalType": "uint256",
							"name": "minimumDeposit",
							"type": "uint256"
						},
						{
							"internalType": "uint256",
							"name": "percentageBasisPoints",
							"type": "uint256"
						},
						{
							"internalType": "uint256",
							"name": "maxRate",
							"type": "uint256"
						},
						{
							"internalType": "uint256",
							"name": "minRate",
							"type": "uint256"
						},
						{
							"internalType": "uint256",
							"name": "decrementStep",
							"type": "uint256"
						},
						{
							"internalType": "uint256",
							"name": "stepSize",
							"type": "uint256"
						},
						{
							"internalType": "bool",
							"name": "fixedBasisPoints",
							"type": "bool"
						},
						{
							"internalType": "uint256",
							"name": "stakedAmount",
							"type": "uint256"
						}
					],
					"stateMutability": "view",
					"type": "function"
				},
				{
					"inputs": [
						{
							"internalType": "address",
							"name": "",
							"type": "address"
						},
						{
							"internalType": "uint256",
							"name": "",
							"type": "uint256"
						}
					],
					"name": "lockableDays",
					"outputs": [
						{
							"internalType": "uint256",
							"name": "",
							"type": "uint256"
						}
					],
					"stateMutability": "view",
					"type": "function"
				},
				{
					"inputs": [],
					"name": "owner",
					"outputs": [
						{
							"internalType": "address",
							"name": "",
							"type": "address"
						}
					],
					"stateMutability": "view",
					"type": "function"
				},
				{
					"inputs": [],
					"name": "paused",
					"outputs": [
						{
							"internalType": "bool",
							"name": "",
							"type": "bool"
						}
					],
					"stateMutability": "view",
					"type": "function"
				},
				{
					"inputs": [
						{
							"internalType": "address",
							"name": "_address",
							"type": "address"
						}
					],
					"name": "pendingRewards",
					"outputs": [
						{
							"internalType": "uint256",
							"name": "reward",
							"type": "uint256"
						}
					],
					"stateMutability": "view",
					"type": "function"
				},
				{
					"inputs": [
						{
							"internalType": "uint256",
							"name": "_days",
							"type": "uint256"
						}
					],
					"name": "removeLockPeriod",
					"outputs": [],
					"stateMutability": "nonpayable",
					"type": "function"
				},
				{
					"inputs": [
						{
							"internalType": "address",
							"name": "_addr",
							"type": "address"
						}
					],
					"name": "removeSpam",
					"outputs": [],
					"stateMutability": "nonpayable",
					"type": "function"
				},
				{
					"inputs": [],
					"name": "rewardToken",
					"outputs": [
						{
							"internalType": "contract IERC20",
							"name": "",
							"type": "address"
						}
					],
					"stateMutability": "view",
					"type": "function"
				},
				{
					"inputs": [],
					"name": "rewardTokenDecimals",
					"outputs": [
						{
							"internalType": "uint8",
							"name": "",
							"type": "uint8"
						}
					],
					"stateMutability": "view",
					"type": "function"
				},
				{
					"inputs": [
						{
							"internalType": "uint256",
							"name": "_days",
							"type": "uint256"
						},
						{
							"internalType": "uint256",
							"name": "_minimumDeposit",
							"type": "uint256"
						},
						{
							"internalType": "uint256",
							"name": "percentageBasisPoints",
							"type": "uint256"
						},
						{
							"internalType": "uint256",
							"name": "_maxRate",
							"type": "uint256"
						},
						{
							"internalType": "uint256",
							"name": "_minRate",
							"type": "uint256"
						},
						{
							"internalType": "uint256",
							"name": "_decrementStep",
							"type": "uint256"
						},
						{
							"internalType": "uint256",
							"name": "_stepSize",
							"type": "uint256"
						},
						{
							"internalType": "bool",
							"name": "_fixedBasisPoints",
							"type": "bool"
						}
					],
					"name": "setAllocation",
					"outputs": [],
					"stateMutability": "nonpayable",
					"type": "function"
				},
				{
					"inputs": [
						{
							"internalType": "uint256",
							"name": "percentageBasisPoints",
							"type": "uint256"
						}
					],
					"name": "setDeductionPercentage",
					"outputs": [],
					"stateMutability": "nonpayable",
					"type": "function"
				},
				{
					"inputs": [
						{
							"internalType": "address",
							"name": "_newTaxReceiver",
							"type": "address"
						}
					],
					"name": "setTaxReceiver",
					"outputs": [],
					"stateMutability": "nonpayable",
					"type": "function"
				},
				{
					"inputs": [],
					"name": "taxreceiver",
					"outputs": [
						{
							"internalType": "address",
							"name": "",
							"type": "address"
						}
					],
					"stateMutability": "view",
					"type": "function"
				},
				{
					"inputs": [],
					"name": "time",
					"outputs": [
						{
							"internalType": "uint256",
							"name": "",
							"type": "uint256"
						}
					],
					"stateMutability": "view",
					"type": "function"
				},
				{
					"inputs": [
						{
							"internalType": "address",
							"name": "newOwner",
							"type": "address"
						}
					],
					"name": "transferOwnership",
					"outputs": [],
					"stateMutability": "nonpayable",
					"type": "function"
				},
				{
					"inputs": [
						{
							"internalType": "uint256",
							"name": "",
							"type": "uint256"
						}
					],
					"name": "users",
					"outputs": [
						{
							"internalType": "address",
							"name": "",
							"type": "address"
						}
					],
					"stateMutability": "view",
					"type": "function"
				},
				{
					"inputs": [],
					"name": "usersCount",
					"outputs": [
						{
							"internalType": "uint256",
							"name": "",
							"type": "uint256"
						}
					],
					"stateMutability": "view",
					"type": "function"
				},
				{
					"inputs": [
						{
							"internalType": "address",
							"name": "",
							"type": "address"
						}
					],
					"name": "usersExists",
					"outputs": [
						{
							"internalType": "bool",
							"name": "",
							"type": "bool"
						}
					],
					"stateMutability": "view",
					"type": "function"
				},
				{
					"inputs": [
						{
							"internalType": "address",
							"name": "",
							"type": "address"
						}
					],
					"name": "withdrawedReward",
					"outputs": [
						{
							"internalType": "uint256",
							"name": "",
							"type": "uint256"
						}
					],
					"stateMutability": "view",
					"type": "function"
				},
				{
					"stateMutability": "payable",
					"type": "receive"
				}
			],
			"devdoc": {
				"kind": "dev",
				"methods": {
					"owner()": {
						"details": "Returns the address of the current owner."
					},
					"paused()": {
						"details": "Returns true if the contract is paused, and false otherwise.\t"
					},
					"transferOwnership(address)": {
						"details": "Transfers ownership of the contract to a new account (`newOwner`). Can only be called by the current owner."
					}
				},
				"version": 1
			},
			"evm": {
				"assembly": "    /* \"StakeFactory.sol\":8438:25014  contract StakeFactory is Ownable, Pausable, ReentrancyGuard {... */\n  mstore(0x40, 0x80)\n    /* \"StakeFactory.sol\":8565:8609  bool public IS_ULTIMATE_STAKE_FACTORY = true */\n  0x03\n  dup1\n  sload\n  not(shl(0xa0, 0xff))\n  and\n  shl(0xa0, 0x01)\n  or\n  swap1\n  sstore\n    /* \"StakeFactory.sol\":9960:9964  2500 */\n  0x09c4\n    /* \"StakeFactory.sol\":9923:9964  uint256 public deductionPercentage = 2500 */\n  0x11\n  sstore\n    /* \"StakeFactory.sol\":10072:10074  60 */\n  0x3c\n    /* \"StakeFactory.sol\":10050:10074  uint256 public time = 60 */\n  0x12\n  sstore\n    /* \"StakeFactory.sol\":10890:11939  constructor(IERC20 _token, IERC20 _rewardToken, address _taxreceiver, uint256 _deductionPercentage, LockPeriodParams[] memory _initLockPeriods) {... */\n  callvalue\n  dup1\n  iszero\n  tag_1\n  jumpi\n  0x00\n  dup1\n  revert\ntag_1:\n  pop\n  mload(0x40)\n  sub(codesize, bytecodeSize)\n  dup1\n  bytecodeSize\n  dup4\n  codecopy\n  dup2\n  add\n  0x40\n  dup2\n  swap1\n  mstore\n  tag_2\n  swap2\n  tag_3\n  jump\t// in\ntag_2:\n    /* \"StakeFactory.sol\":7522:7528  _owner */\n  0x00\n    /* \"StakeFactory.sol\":7522:7541  _owner = msg.sender */\n  dup1\n  sload\n  not(sub(shl(0xa0, 0x01), 0x01))\n  and\n    /* \"StakeFactory.sol\":7531:7541  msg.sender */\n  caller\n    /* \"StakeFactory.sol\":7522:7541  _owner = msg.sender */\n  swap1\n  dup2\n  or\n  dup3\n  sstore\n    /* \"StakeFactory.sol\":7559:7599  OwnershipTransferred(address(0), _owner) */\n  mload(0x40)\n    /* \"StakeFactory.sol\":7531:7541  msg.sender */\n  swap1\n  swap2\n    /* \"StakeFactory.sol\":7522:7528  _owner */\n  swap1\n    /* \"StakeFactory.sol\":7559:7599  OwnershipTransferred(address(0), _owner) */\n  0x8be0079c531659141344cd1fd0a4f28419497f9722a3daafe3b4186f6b6457e0\n  swap1\n    /* \"StakeFactory.sol\":7522:7528  _owner */\n  dup3\n  swap1\n    /* \"StakeFactory.sol\":7559:7599  OwnershipTransferred(address(0), _owner) */\n  log3\n    /* \"StakeFactory.sol\":5876:5881  false */\n  0x00\n    /* \"StakeFactory.sol\":5866:5881  _paused = false */\n  dup1\n  sload\n  not(shl(0xa0, 0xff))\n  and\n  swap1\n  sstore\n  0x01\n    /* \"StakeFactory.sol\":2310:2332  _status = _NOT_ENTERED */\n  dup1\n  sstore\n    /* \"StakeFactory.sol\":11045:11050  Token */\n  0x02\n    /* \"StakeFactory.sol\":11045:11059  Token = _token */\n  dup1\n  sload\n  sub(shl(0xa0, 0x01), 0x01)\n  dup1\n  dup9\n  and\n  not(sub(shl(0xa0, 0x01), 0x01))\n  swap3\n  dup4\n  and\n  dup2\n  or\n  swap1\n  swap4\n  sstore\n    /* \"StakeFactory.sol\":11070:11081  rewardToken */\n  0x03\n    /* \"StakeFactory.sol\":11070:11096  rewardToken = _rewardToken */\n  dup1\n  sload\n  swap2\n  dup9\n  and\n  swap2\n  swap1\n  swap3\n  and\n  or\n  swap1\n  sstore\n    /* \"StakeFactory.sol\":11107:11126  deductionPercentage */\n  0x11\n    /* \"StakeFactory.sol\":11107:11149  deductionPercentage = _deductionPercentage */\n  dup4\n  swap1\n  sstore\n    /* \"StakeFactory.sol\":11183:11199  Token.decimals() */\n  0x40\n  dup1\n  mload\n  shl(0xe0, 0x313ce567)\n  dup2\n  mstore\n  swap1\n  mload\n    /* \"StakeFactory.sol\":11183:11197  Token.decimals */\n  0x313ce567\n  swap2\n    /* \"StakeFactory.sol\":11183:11199  Token.decimals() */\n  0x04\n  dup1\n  dup3\n  add\n  swap3\n  0x20\n  swap3\n  swap1\n  swap2\n  swap1\n  dup3\n  swap1\n  sub\n  add\n  dup2\n    /* \"StakeFactory.sol\":11045:11059  Token = _token */\n  dup7\n    /* \"StakeFactory.sol\":11183:11199  Token.decimals() */\n  gas\n  staticcall\n  iszero\n  dup1\n  iszero\n  tag_13\n  jumpi\n  returndatasize\n  0x00\n  dup1\n  returndatacopy\n  revert(0x00, returndatasize)\ntag_13:\n  pop\n  pop\n  pop\n  pop\n  mload(0x40)\n  returndatasize\n  not(0x1f)\n  0x1f\n  dup3\n  add\n  and\n  dup3\n  add\n  dup1\n  0x40\n  mstore\n  pop\n  dup2\n  add\n  swap1\n  tag_14\n  swap2\n  swap1\n  tag_15\n  jump\t// in\ntag_14:\n    /* \"StakeFactory.sol\":11160:11180  depositTokenDecimals */\n  0x03\n  0x15\n    /* \"StakeFactory.sol\":11160:11199  depositTokenDecimals = Token.decimals() */\n  0x0100\n  exp\n  dup2\n  sload\n  dup2\n  0xff\n  mul\n  not\n  and\n  swap1\n  dup4\n  0xff\n  and\n  mul\n  or\n  swap1\n  sstore\n  pop\n    /* \"StakeFactory.sol\":11232:11243  rewardToken */\n  0x03\n  0x00\n  swap1\n  sload\n  swap1\n  0x0100\n  exp\n  swap1\n  div\n  sub(shl(0xa0, 0x01), 0x01)\n  and\n  sub(shl(0xa0, 0x01), 0x01)\n    /* \"StakeFactory.sol\":11232:11252  rewardToken.decimals */\n  and\n  0x313ce567\n    /* \"StakeFactory.sol\":11232:11254  rewardToken.decimals() */\n  mload(0x40)\n  dup2\n  0xffffffff\n  and\n  0xe0\n  shl\n  dup2\n  mstore\n  0x04\n  add\n  0x20\n  mload(0x40)\n  dup1\n  dup4\n  sub\n  dup2\n  dup7\n  gas\n  staticcall\n  iszero\n  dup1\n  iszero\n  tag_17\n  jumpi\n  returndatasize\n  0x00\n  dup1\n  returndatacopy\n  revert(0x00, returndatasize)\ntag_17:\n  pop\n  pop\n  pop\n  pop\n  mload(0x40)\n  returndatasize\n  not(0x1f)\n  0x1f\n  dup3\n  add\n  and\n  dup3\n  add\n  dup1\n  0x40\n  mstore\n  pop\n  dup2\n  add\n  swap1\n  tag_18\n  swap2\n  swap1\n  tag_15\n  jump\t// in\ntag_18:\n    /* \"StakeFactory.sol\":11210:11229  rewardTokenDecimals */\n  0x03\n    /* \"StakeFactory.sol\":11210:11254  rewardTokenDecimals = rewardToken.decimals() */\n  dup1\n  sload\n  not(shl(0xb0, 0xff))\n  and\n  shl(0xb0, 0x01)\n  0xff\n  swap4\n  swap1\n  swap4\n  and\n  swap3\n  swap1\n  swap3\n  mul\n  swap2\n  swap1\n  swap2\n  or\n  swap1\n  sstore\n    /* \"StakeFactory.sol\":11267:11278  taxreceiver */\n  0x06\n    /* \"StakeFactory.sol\":11267:11293  taxreceiver = _taxreceiver */\n  dup1\n  sload\n  not(sub(shl(0xa0, 0x01), 0x01))\n  and\n  sub(shl(0xa0, 0x01), 0x01)\n  dup6\n  and\n  or\n  swap1\n  sstore\n  0x00\n    /* \"StakeFactory.sol\":11399:11932  for (uint256 i = 0; i < _initLockPeriods.length; i++) {... */\ntag_19:\n    /* \"StakeFactory.sol\":11423:11439  _initLockPeriods */\n  dup2\n    /* \"StakeFactory.sol\":11423:11446  _initLockPeriods.length */\n  mload\n    /* \"StakeFactory.sol\":11419:11420  i */\n  dup2\n    /* \"StakeFactory.sol\":11419:11446  i < _initLockPeriods.length */\n  lt\n    /* \"StakeFactory.sol\":11399:11932  for (uint256 i = 0; i < _initLockPeriods.length; i++) {... */\n  iszero\n  tag_20\n  jumpi\n    /* \"StakeFactory.sol\":11468:11906  setAllocation(... */\n  tag_22\n    /* \"StakeFactory.sol\":11500:11516  _initLockPeriods */\n  dup3\n    /* \"StakeFactory.sol\":11517:11518  i */\n  dup3\n    /* \"StakeFactory.sol\":11500:11519  _initLockPeriods[i] */\n  dup2\n  mload\n  dup2\n  lt\n  tag_24\n  jumpi\n  tag_24\n  tag_25\n  jump\t// in\ntag_24:\n  0x20\n  mul\n  0x20\n  add\n  add\n  mload\n    /* \"StakeFactory.sol\":11500:11532  _initLockPeriods[i].lockTimeDays */\n  0x00\n  add\n  mload\n    /* \"StakeFactory.sol\":11551:11567  _initLockPeriods */\n  dup4\n    /* \"StakeFactory.sol\":11568:11569  i */\n  dup4\n    /* \"StakeFactory.sol\":11551:11570  _initLockPeriods[i] */\n  dup2\n  mload\n  dup2\n  lt\n  tag_27\n  jumpi\n  tag_27\n  tag_25\n  jump\t// in\ntag_27:\n  0x20\n  mul\n  0x20\n  add\n  add\n  mload\n    /* \"StakeFactory.sol\":11551:11585  _initLockPeriods[i].minimumDeposit */\n  0x20\n  add\n  mload\n    /* \"StakeFactory.sol\":11604:11620  _initLockPeriods */\n  dup5\n    /* \"StakeFactory.sol\":11621:11622  i */\n  dup5\n    /* \"StakeFactory.sol\":11604:11623  _initLockPeriods[i] */\n  dup2\n  mload\n  dup2\n  lt\n  tag_29\n  jumpi\n  tag_29\n  tag_25\n  jump\t// in\ntag_29:\n  0x20\n  mul\n  0x20\n  add\n  add\n  mload\n    /* \"StakeFactory.sol\":11604:11645  _initLockPeriods[i].percentageBasisPoints */\n  0x40\n  add\n  mload\n    /* \"StakeFactory.sol\":11664:11680  _initLockPeriods */\n  dup6\n    /* \"StakeFactory.sol\":11681:11682  i */\n  dup6\n    /* \"StakeFactory.sol\":11664:11683  _initLockPeriods[i] */\n  dup2\n  mload\n  dup2\n  lt\n  tag_31\n  jumpi\n  tag_31\n  tag_25\n  jump\t// in\ntag_31:\n  0x20\n  mul\n  0x20\n  add\n  add\n  mload\n    /* \"StakeFactory.sol\":11664:11691  _initLockPeriods[i].maxRate */\n  0x60\n  add\n  mload\n    /* \"StakeFactory.sol\":11710:11726  _initLockPeriods */\n  dup7\n    /* \"StakeFactory.sol\":11727:11728  i */\n  dup7\n    /* \"StakeFactory.sol\":11710:11729  _initLockPeriods[i] */\n  dup2\n  mload\n  dup2\n  lt\n  tag_33\n  jumpi\n  tag_33\n  tag_25\n  jump\t// in\ntag_33:\n  0x20\n  mul\n  0x20\n  add\n  add\n  mload\n    /* \"StakeFactory.sol\":11710:11737  _initLockPeriods[i].minRate */\n  0x80\n  add\n  mload\n    /* \"StakeFactory.sol\":11756:11772  _initLockPeriods */\n  dup8\n    /* \"StakeFactory.sol\":11773:11774  i */\n  dup8\n    /* \"StakeFactory.sol\":11756:11775  _initLockPeriods[i] */\n  dup2\n  mload\n  dup2\n  lt\n  tag_35\n  jumpi\n  tag_35\n  tag_25\n  jump\t// in\ntag_35:\n  0x20\n  mul\n  0x20\n  add\n  add\n  mload\n    /* \"StakeFactory.sol\":11756:11789  _initLockPeriods[i].decrementStep */\n  0xa0\n  add\n  mload\n    /* \"StakeFactory.sol\":11808:11824  _initLockPeriods */\n  dup9\n    /* \"StakeFactory.sol\":11825:11826  i */\n  dup9\n    /* \"StakeFactory.sol\":11808:11827  _initLockPeriods[i] */\n  dup2\n  mload\n  dup2\n  lt\n  tag_37\n  jumpi\n  tag_37\n  tag_25\n  jump\t// in\ntag_37:\n  0x20\n  mul\n  0x20\n  add\n  add\n  mload\n    /* \"StakeFactory.sol\":11808:11836  _initLockPeriods[i].stepSize */\n  0xc0\n  add\n  mload\n    /* \"StakeFactory.sol\":11855:11871  _initLockPeriods */\n  dup10\n    /* \"StakeFactory.sol\":11872:11873  i */\n  dup10\n    /* \"StakeFactory.sol\":11855:11874  _initLockPeriods[i] */\n  dup2\n  mload\n  dup2\n  lt\n  tag_39\n  jumpi\n  tag_39\n  tag_25\n  jump\t// in\ntag_39:\n  0x20\n  mul\n  0x20\n  add\n  add\n  mload\n    /* \"StakeFactory.sol\":11855:11891  _initLockPeriods[i].fixedBasisPoints */\n  0xe0\n  add\n  mload\n    /* \"StakeFactory.sol\":11468:11481  setAllocation */\n  shl(0x20, tag_40)\n    /* \"StakeFactory.sol\":11468:11906  setAllocation(... */\n  0x20\n  shr\n  jump\t// in\ntag_22:\n    /* \"StakeFactory.sol\":11448:11451  i++ */\n  dup1\n  tag_41\n  dup2\n  tag_42\n  jump\t// in\ntag_41:\n  swap2\n  pop\n  pop\n    /* \"StakeFactory.sol\":11399:11932  for (uint256 i = 0; i < _initLockPeriods.length; i++) {... */\n  jump(tag_19)\ntag_20:\n  pop\n    /* \"StakeFactory.sol\":10890:11939  constructor(IERC20 _token, IERC20 _rewardToken, address _taxreceiver, uint256 _deductionPercentage, LockPeriodParams[] memory _initLockPeriods) {... */\n  pop\n  pop\n  pop\n  pop\n  pop\n    /* \"StakeFactory.sol\":8438:25014  contract StakeFactory is Ownable, Pausable, ReentrancyGuard {... */\n  jump(tag_76)\n    /* \"StakeFactory.sol\":18229:19643  function setAllocation(... */\ntag_40:\n    /* \"StakeFactory.sol\":7912:7918  _owner */\n  and(sub(shl(0xa0, 0x01), 0x01), sload(0x00))\n    /* \"StakeFactory.sol\":7922:7932  msg.sender */\n  caller\n    /* \"StakeFactory.sol\":7912:7932  _owner == msg.sender */\n  eq\n    /* \"StakeFactory.sol\":7904:7969  require(_owner == msg.sender, \"Ownable: caller is not the owner\") */\n  tag_45\n  jumpi\n  mload(0x40)\n  shl(0xe5, 0x461bcd)\n  dup2\n  mstore\n    /* \"#utility.yul\":4149:4151   */\n  0x20\n    /* \"StakeFactory.sol\":7904:7969  require(_owner == msg.sender, \"Ownable: caller is not the owner\") */\n  0x04\n  dup3\n  add\n    /* \"#utility.yul\":4131:4152   */\n  dup2\n  swap1\n  mstore\n    /* \"#utility.yul\":4168:4186   */\n  0x24\n  dup3\n  add\n    /* \"#utility.yul\":4161:4191   */\n  mstore\n    /* \"#utility.yul\":4227:4261   */\n  0x4f776e61626c653a2063616c6c6572206973206e6f7420746865206f776e6572\n    /* \"#utility.yul\":4207:4225   */\n  0x44\n  dup3\n  add\n    /* \"#utility.yul\":4200:4262   */\n  mstore\n    /* \"#utility.yul\":4279:4297   */\n  0x64\n  add\n    /* \"StakeFactory.sol\":7904:7969  require(_owner == msg.sender, \"Ownable: caller is not the owner\") */\ntag_46:\n  mload(0x40)\n  dup1\n  swap2\n  sub\n  swap1\n  revert\ntag_45:\n    /* \"StakeFactory.sol\":18569:18574  10000 */\n  0x2710\n    /* \"StakeFactory.sol\":18544:18565  percentageBasisPoints */\n  dup7\n    /* \"StakeFactory.sol\":18544:18574  percentageBasisPoints <= 10000 */\n  gt\n  iszero\n    /* \"StakeFactory.sol\":18536:18597  require(percentageBasisPoints <= 10000, \"Invalid percentage\") */\n  tag_49\n  jumpi\n  mload(0x40)\n  shl(0xe5, 0x461bcd)\n  dup2\n  mstore\n    /* \"#utility.yul\":4510:4512   */\n  0x20\n    /* \"StakeFactory.sol\":18536:18597  require(percentageBasisPoints <= 10000, \"Invalid percentage\") */\n  0x04\n  dup3\n  add\n    /* \"#utility.yul\":4492:4513   */\n  mstore\n    /* \"#utility.yul\":4549:4551   */\n  0x12\n    /* \"#utility.yul\":4529:4547   */\n  0x24\n  dup3\n  add\n    /* \"#utility.yul\":4522:4552   */\n  mstore\n  shl(0x70, 0x496e76616c69642070657263656e74616765)\n    /* \"#utility.yul\":4568:4586   */\n  0x44\n  dup3\n  add\n    /* \"#utility.yul\":4561:4609   */\n  mstore\n    /* \"#utility.yul\":4626:4644   */\n  0x64\n  add\n    /* \"StakeFactory.sol\":18536:18597  require(percentageBasisPoints <= 10000, \"Invalid percentage\") */\n  tag_46\n    /* \"#utility.yul\":4308:4650   */\n  jump\n    /* \"StakeFactory.sol\":18536:18597  require(percentageBasisPoints <= 10000, \"Invalid percentage\") */\ntag_49:\n    /* \"StakeFactory.sol\":18628:18636  _minRate */\n  dup4\n    /* \"StakeFactory.sol\":18616:18624  _maxRate */\n  dup6\n    /* \"StakeFactory.sol\":18616:18636  _maxRate >= _minRate */\n  lt\n  iszero\n    /* \"StakeFactory.sol\":18608:18691  require(_maxRate >= _minRate, \"Max rate must be greater than or equal to min rate\") */\n  tag_52\n  jumpi\n  mload(0x40)\n  shl(0xe5, 0x461bcd)\n  dup2\n  mstore\n    /* \"#utility.yul\":4857:4859   */\n  0x20\n    /* \"StakeFactory.sol\":18608:18691  require(_maxRate >= _minRate, \"Max rate must be greater than or equal to min rate\") */\n  0x04\n  dup3\n  add\n    /* \"#utility.yul\":4839:4860   */\n  mstore\n    /* \"#utility.yul\":4896:4898   */\n  0x32\n    /* \"#utility.yul\":4876:4894   */\n  0x24\n  dup3\n  add\n    /* \"#utility.yul\":4869:4899   */\n  mstore\n    /* \"#utility.yul\":4935:4969   */\n  0x4d61782072617465206d7573742062652067726561746572207468616e206f72\n    /* \"#utility.yul\":4915:4933   */\n  0x44\n  dup3\n  add\n    /* \"#utility.yul\":4908:4970   */\n  mstore\n  shl(0x70, 0x20657175616c20746f206d696e2072617465)\n    /* \"#utility.yul\":4986:5004   */\n  0x64\n  dup3\n  add\n    /* \"#utility.yul\":4979:5027   */\n  mstore\n    /* \"#utility.yul\":5044:5063   */\n  0x84\n  add\n    /* \"StakeFactory.sol\":18608:18691  require(_maxRate >= _minRate, \"Max rate must be greater than or equal to min rate\") */\n  tag_46\n    /* \"#utility.yul\":4655:5069   */\n  jump\n    /* \"StakeFactory.sol\":18608:18691  require(_maxRate >= _minRate, \"Max rate must be greater than or equal to min rate\") */\ntag_52:\n    /* \"StakeFactory.sol\":18722:18723  0 */\n  0x00\n    /* \"StakeFactory.sol\":18710:18719  _stepSize */\n  dup3\n    /* \"StakeFactory.sol\":18710:18723  _stepSize > 0 */\n  gt\n    /* \"StakeFactory.sol\":18702:18760  require(_stepSize > 0, \"Step size must be greater than 0\") */\n  tag_55\n  jumpi\n  mload(0x40)\n  shl(0xe5, 0x461bcd)\n  dup2\n  mstore\n    /* \"#utility.yul\":5276:5278   */\n  0x20\n    /* \"StakeFactory.sol\":18702:18760  require(_stepSize > 0, \"Step size must be greater than 0\") */\n  0x04\n  dup3\n  add\n    /* \"#utility.yul\":5258:5279   */\n  dup2\n  swap1\n  mstore\n    /* \"#utility.yul\":5295:5313   */\n  0x24\n  dup3\n  add\n    /* \"#utility.yul\":5288:5318   */\n  mstore\n    /* \"#utility.yul\":5354:5388   */\n  0x537465702073697a65206d7573742062652067726561746572207468616e2030\n    /* \"#utility.yul\":5334:5352   */\n  0x44\n  dup3\n  add\n    /* \"#utility.yul\":5327:5389   */\n  mstore\n    /* \"#utility.yul\":5406:5424   */\n  0x64\n  add\n    /* \"StakeFactory.sol\":18702:18760  require(_stepSize > 0, \"Step size must be greater than 0\") */\n  tag_46\n    /* \"#utility.yul\":5074:5430   */\n  jump\n    /* \"StakeFactory.sol\":18702:18760  require(_stepSize > 0, \"Step size must be greater than 0\") */\ntag_55:\n    /* \"StakeFactory.sol\":18773:18790  allocation[_days] */\n  0x00\n  dup9\n  dup2\n  mstore\n    /* \"StakeFactory.sol\":18773:18783  allocation */\n  0x04\n    /* \"StakeFactory.sol\":18773:18790  allocation[_days] */\n  0x20\n  mstore\n  0x40\n  swap1\n  keccak256\n    /* \"StakeFactory.sol\":18773:18814  allocation[_days] = percentageBasisPoints */\n  dup7\n  swap1\n  sstore\n    /* \"StakeFactory.sol\":18832:18858  isLockPeriodAllowed(_days) */\n  tag_58\n    /* \"StakeFactory.sol\":18784:18789  _days */\n  dup9\n    /* \"StakeFactory.sol\":18832:18851  isLockPeriodAllowed */\n  tag_59\n    /* \"StakeFactory.sol\":18832:18858  isLockPeriodAllowed(_days) */\n  jump\t// in\ntag_58:\n    /* \"StakeFactory.sol\":18827:18989  if (!isLockPeriodAllowed(_days)) {... */\n  tag_60\n  jumpi\n    /* \"StakeFactory.sol\":18875:18893  allowedLockPeriods */\n  0x13\n    /* \"StakeFactory.sol\":18875:18905  allowedLockPeriods.push(_days) */\n  dup1\n  sload\n  0x01\n  dup2\n  add\n  dup3\n  sstore\n  0x00\n  swap2\n  swap1\n  swap2\n  mstore\n  0x66de8ffda797e3de9c05e8fc57b3bf0ec28a930d40b0d285d93c06501cf6a090\n  add\n  dup9\n  swap1\n  sstore\n    /* \"StakeFactory.sol\":18827:18989  if (!isLockPeriodAllowed(_days)) {... */\ntag_60:\n    /* \"StakeFactory.sol\":19122:19635  LockPeriodParams({... */\n  0x40\n  dup1\n  mload\n  0x0120\n  dup2\n  add\n  dup3\n  mstore\n  dup10\n  dup2\n  mstore\n  0x20\n  dup1\n  dup3\n  add\n  swap10\n  dup11\n  mstore\n  dup2\n  dup4\n  add\n  swap9\n  dup10\n  mstore\n  0x60\n  dup3\n  add\n  swap8\n  dup9\n  mstore\n  0x80\n  dup3\n  add\n  swap7\n  dup8\n  mstore\n  0xa0\n  dup3\n  add\n  swap6\n  dup7\n  mstore\n  0xc0\n  dup3\n  add\n  swap5\n  dup6\n  mstore\n  swap3\n  iszero\n  iszero\n  0xe0\n  dup3\n  add\n  swap1\n  dup2\n  mstore\n  0x00\n    /* \"StakeFactory.sol\":19587:19610  lockPeriodParams[_days] */\n  dup12\n  dup2\n  mstore\n    /* \"StakeFactory.sol\":19587:19603  lockPeriodParams */\n  0x05\n    /* \"StakeFactory.sol\":19587:19610  lockPeriodParams[_days] */\n  dup1\n  dup7\n  mstore\n  swap4\n  dup2\n  keccak256\n    /* \"StakeFactory.sol\":19587:19623  lockPeriodParams[_days].stakedAmount */\n  0x08\n  dup2\n  add\n  dup1\n  sload\n    /* \"StakeFactory.sol\":19122:19635  LockPeriodParams({... */\n  0x0100\n  dup7\n  add\n  swap1\n  dup2\n  mstore\n    /* \"StakeFactory.sol\":19096:19119  lockPeriodParams[_days] */\n  swap14\n  swap1\n  swap3\n  mstore\n  swap5\n  dup5\n  swap1\n  mstore\n    /* \"StakeFactory.sol\":19096:19635  lockPeriodParams[_days] = LockPeriodParams({... */\n  swap2\n  mload\n  dup5\n  sstore\n  swap9\n  mload\n  0x01\n  dup5\n  add\n  sstore\n  swap7\n  mload\n  0x02\n  dup4\n  add\n  sstore\n  swap5\n  mload\n  0x03\n  dup3\n  add\n  sstore\n  swap3\n  mload\n  0x04\n  dup5\n  add\n  sstore\n  swap1\n  mload\n  swap3\n  dup3\n  add\n  swap3\n  swap1\n  swap3\n  sstore\n  swap1\n  mload\n  0x06\n  dup3\n  add\n  sstore\n  swap2\n  mload\n  0x07\n  swap1\n  swap3\n  add\n  dup1\n  sload\n  not(0xff)\n  and\n  swap3\n  iszero\n  iszero\n  swap3\n  swap1\n  swap3\n  or\n  swap1\n  swap2\n  sstore\n  swap1\n  mload\n  swap1\n  sstore\n    /* \"StakeFactory.sol\":18229:19643  function setAllocation(... */\n  jump\t// out\n    /* \"StakeFactory.sol\":19757:20035  function isLockPeriodAllowed(uint256 _days) internal view returns (bool) {... */\ntag_59:\n    /* \"StakeFactory.sol\":19824:19828  bool */\n  0x00\n  dup1\n    /* \"StakeFactory.sol\":19841:20005  for (uint256 i = 0; i < allowedLockPeriods.length; i++) {... */\ntag_63:\n    /* \"StakeFactory.sol\":19865:19883  allowedLockPeriods */\n  0x13\n    /* \"StakeFactory.sol\":19865:19890  allowedLockPeriods.length */\n  sload\n    /* \"StakeFactory.sol\":19861:19890  i < allowedLockPeriods.length */\n  dup2\n  lt\n    /* \"StakeFactory.sol\":19841:20005  for (uint256 i = 0; i < allowedLockPeriods.length; i++) {... */\n  iszero\n  tag_64\n  jumpi\n    /* \"StakeFactory.sol\":19941:19946  _days */\n  dup3\n    /* \"StakeFactory.sol\":19916:19934  allowedLockPeriods */\n  0x13\n    /* \"StakeFactory.sol\":19935:19936  i */\n  dup3\n    /* \"StakeFactory.sol\":19916:19937  allowedLockPeriods[i] */\n  dup2\n  sload\n  dup2\n  lt\n  tag_67\n  jumpi\n  tag_67\n  tag_25\n  jump\t// in\ntag_67:\n  swap1\n  0x00\n  mstore\n  keccak256(0x00, 0x20)\n  add\n  sload\n    /* \"StakeFactory.sol\":19916:19946  allowedLockPeriods[i] == _days */\n  eq\n    /* \"StakeFactory.sol\":19912:19994  if (allowedLockPeriods[i] == _days) {... */\n  iszero\n  tag_69\n  jumpi\n  pop\n    /* \"StakeFactory.sol\":19974:19978  true */\n  0x01\n  swap3\n    /* \"StakeFactory.sol\":19757:20035  function isLockPeriodAllowed(uint256 _days) internal view returns (bool) {... */\n  swap2\n  pop\n  pop\n  jump\t// out\n    /* \"StakeFactory.sol\":19912:19994  if (allowedLockPeriods[i] == _days) {... */\ntag_69:\n    /* \"StakeFactory.sol\":19892:19895  i++ */\n  dup1\n  tag_70\n  dup2\n  tag_42\n  jump\t// in\ntag_70:\n  swap2\n  pop\n  pop\n    /* \"StakeFactory.sol\":19841:20005  for (uint256 i = 0; i < allowedLockPeriods.length; i++) {... */\n  jump(tag_63)\ntag_64:\n  pop\n    /* \"StakeFactory.sol\":20022:20027  false */\n  0x00\n  swap3\n    /* \"StakeFactory.sol\":19757:20035  function isLockPeriodAllowed(uint256 _days) internal view returns (bool) {... */\n  swap2\n  pop\n  pop\n  jump\t// out\n    /* \"#utility.yul\":14:153   */\ntag_71:\n  sub(shl(0xa0, 0x01), 0x01)\n    /* \"#utility.yul\":97:128   */\n  dup2\n  and\n    /* \"#utility.yul\":87:129   */\n  dup2\n  eq\n    /* \"#utility.yul\":77:147   */\n  tag_78\n  jumpi\n    /* \"#utility.yul\":143:144   */\n  0x00\n    /* \"#utility.yul\":140:141   */\n  dup1\n    /* \"#utility.yul\":133:145   */\n  revert\n    /* \"#utility.yul\":77:147   */\ntag_78:\n    /* \"#utility.yul\":14:153   */\n  pop\n  jump\t// out\n    /* \"#utility.yul\":158:285   */\ntag_72:\n    /* \"#utility.yul\":219:229   */\n  0x4e487b71\n    /* \"#utility.yul\":214:217   */\n  0xe0\n    /* \"#utility.yul\":210:230   */\n  shl\n    /* \"#utility.yul\":207:208   */\n  0x00\n    /* \"#utility.yul\":200:231   */\n  mstore\n    /* \"#utility.yul\":250:254   */\n  0x41\n    /* \"#utility.yul\":247:248   */\n  0x04\n    /* \"#utility.yul\":240:255   */\n  mstore\n    /* \"#utility.yul\":274:278   */\n  0x24\n    /* \"#utility.yul\":271:272   */\n  0x00\n    /* \"#utility.yul\":264:279   */\n  revert\n    /* \"#utility.yul\":290:545   */\ntag_73:\n    /* \"#utility.yul\":362:364   */\n  0x40\n    /* \"#utility.yul\":356:365   */\n  mload\n    /* \"#utility.yul\":404:410   */\n  0x0120\n    /* \"#utility.yul\":392:411   */\n  dup2\n  add\n  sub(shl(0x40, 0x01), 0x01)\n    /* \"#utility.yul\":426:460   */\n  dup2\n  gt\n    /* \"#utility.yul\":462:484   */\n  dup3\n  dup3\n  lt\n    /* \"#utility.yul\":423:485   */\n  or\n    /* \"#utility.yul\":420:508   */\n  iszero\n  tag_82\n  jumpi\n    /* \"#utility.yul\":488:506   */\n  tag_82\n  tag_72\n  jump\t// in\ntag_82:\n    /* \"#utility.yul\":524:526   */\n  0x40\n    /* \"#utility.yul\":517:539   */\n  mstore\n    /* \"#utility.yul\":290:545   */\n  swap1\n  jump\t// out\n    /* \"#utility.yul\":550:825   */\ntag_74:\n    /* \"#utility.yul\":621:623   */\n  0x40\n    /* \"#utility.yul\":615:624   */\n  mload\n    /* \"#utility.yul\":686:688   */\n  0x1f\n    /* \"#utility.yul\":667:680   */\n  dup3\n  add\n  not(0x1f)\n    /* \"#utility.yul\":663:690   */\n  and\n    /* \"#utility.yul\":651:691   */\n  dup2\n  add\n  sub(shl(0x40, 0x01), 0x01)\n    /* \"#utility.yul\":706:740   */\n  dup2\n  gt\n    /* \"#utility.yul\":742:764   */\n  dup3\n  dup3\n  lt\n    /* \"#utility.yul\":703:765   */\n  or\n    /* \"#utility.yul\":700:788   */\n  iszero\n  tag_85\n  jumpi\n    /* \"#utility.yul\":768:786   */\n  tag_85\n  tag_72\n  jump\t// in\ntag_85:\n    /* \"#utility.yul\":804:806   */\n  0x40\n    /* \"#utility.yul\":797:819   */\n  mstore\n    /* \"#utility.yul\":550:825   */\n  swap2\n  swap1\n  pop\n  jump\t// out\n    /* \"#utility.yul\":830:994   */\ntag_75:\n    /* \"#utility.yul\":906:919   */\n  dup1\n  mload\n    /* \"#utility.yul\":955:968   */\n  dup1\n  iszero\n    /* \"#utility.yul\":948:969   */\n  iszero\n    /* \"#utility.yul\":938:970   */\n  dup2\n  eq\n    /* \"#utility.yul\":928:988   */\n  tag_87\n  jumpi\n    /* \"#utility.yul\":984:985   */\n  0x00\n    /* \"#utility.yul\":981:982   */\n  dup1\n    /* \"#utility.yul\":974:986   */\n  revert\n    /* \"#utility.yul\":928:988   */\ntag_87:\n    /* \"#utility.yul\":830:994   */\n  swap2\n  swap1\n  pop\n  jump\t// out\n    /* \"#utility.yul\":999:3295   */\ntag_3:\n    /* \"#utility.yul\":1189:1195   */\n  0x00\n    /* \"#utility.yul\":1197:1203   */\n  dup1\n    /* \"#utility.yul\":1205:1211   */\n  0x00\n    /* \"#utility.yul\":1213:1219   */\n  dup1\n    /* \"#utility.yul\":1221:1227   */\n  0x00\n    /* \"#utility.yul\":1274:1277   */\n  0xa0\n    /* \"#utility.yul\":1262:1271   */\n  dup7\n    /* \"#utility.yul\":1253:1260   */\n  dup9\n    /* \"#utility.yul\":1249:1272   */\n  sub\n    /* \"#utility.yul\":1245:1278   */\n  slt\n    /* \"#utility.yul\":1242:1295   */\n  iszero\n  tag_89\n  jumpi\n    /* \"#utility.yul\":1291:1292   */\n  0x00\n    /* \"#utility.yul\":1288:1289   */\n  dup1\n    /* \"#utility.yul\":1281:1293   */\n  revert\n    /* \"#utility.yul\":1242:1295   */\ntag_89:\n    /* \"#utility.yul\":1323:1332   */\n  dup6\n    /* \"#utility.yul\":1317:1333   */\n  mload\n    /* \"#utility.yul\":1342:1381   */\n  tag_90\n    /* \"#utility.yul\":1375:1380   */\n  dup2\n    /* \"#utility.yul\":1342:1381   */\n  tag_71\n  jump\t// in\ntag_90:\n    /* \"#utility.yul\":1400:1405   */\n  dup1\n    /* \"#utility.yul\":1390:1405   */\n  swap6\n  pop\n  pop\n    /* \"#utility.yul\":1424:1426   */\n  0x20\n    /* \"#utility.yul\":1471:1473   */\n  dup1\n    /* \"#utility.yul\":1460:1469   */\n  dup8\n    /* \"#utility.yul\":1456:1474   */\n  add\n    /* \"#utility.yul\":1450:1475   */\n  mload\n    /* \"#utility.yul\":1484:1525   */\n  tag_91\n    /* \"#utility.yul\":1517:1524   */\n  dup2\n    /* \"#utility.yul\":1484:1525   */\n  tag_71\n  jump\t// in\ntag_91:\n    /* \"#utility.yul\":1596:1598   */\n  0x40\n    /* \"#utility.yul\":1581:1599   */\n  dup9\n  add\n    /* \"#utility.yul\":1575:1600   */\n  mload\n    /* \"#utility.yul\":1544:1551   */\n  swap1\n  swap6\n  pop\n    /* \"#utility.yul\":1609:1650   */\n  tag_92\n    /* \"#utility.yul\":1575:1600   */\n  dup2\n    /* \"#utility.yul\":1609:1650   */\n  tag_71\n  jump\t// in\ntag_92:\n    /* \"#utility.yul\":1716:1718   */\n  0x60\n    /* \"#utility.yul\":1701:1719   */\n  dup9\n  add\n    /* \"#utility.yul\":1695:1720   */\n  mload\n    /* \"#utility.yul\":1739:1742   */\n  0x80\n    /* \"#utility.yul\":1771:1789   */\n  dup1\n  dup11\n  add\n    /* \"#utility.yul\":1765:1790   */\n  mload\n    /* \"#utility.yul\":1669:1676   */\n  swap3\n  swap7\n  pop\n    /* \"#utility.yul\":1695:1720   */\n  swap1\n  swap5\n  pop\n    /* \"#utility.yul\":1739:1742   */\n  swap1\n  sub(shl(0x40, 0x01), 0x01)\n    /* \"#utility.yul\":1839:1853   */\n  dup1\n  dup3\n  gt\n    /* \"#utility.yul\":1836:1870   */\n  iszero\n  tag_93\n  jumpi\n    /* \"#utility.yul\":1866:1867   */\n  0x00\n    /* \"#utility.yul\":1863:1864   */\n  dup1\n    /* \"#utility.yul\":1856:1868   */\n  revert\n    /* \"#utility.yul\":1836:1870   */\ntag_93:\n    /* \"#utility.yul\":1904:1910   */\n  dup2\n    /* \"#utility.yul\":1893:1902   */\n  dup11\n    /* \"#utility.yul\":1889:1911   */\n  add\n    /* \"#utility.yul\":1879:1911   */\n  swap2\n  pop\n    /* \"#utility.yul\":1949:1956   */\n  dup11\n    /* \"#utility.yul\":1942:1946   */\n  0x1f\n    /* \"#utility.yul\":1938:1940   */\n  dup4\n    /* \"#utility.yul\":1934:1947   */\n  add\n    /* \"#utility.yul\":1930:1957   */\n  slt\n    /* \"#utility.yul\":1920:1975   */\n  tag_94\n  jumpi\n    /* \"#utility.yul\":1971:1972   */\n  0x00\n    /* \"#utility.yul\":1968:1969   */\n  dup1\n    /* \"#utility.yul\":1961:1973   */\n  revert\n    /* \"#utility.yul\":1920:1975   */\ntag_94:\n    /* \"#utility.yul\":2000:2002   */\n  dup2\n    /* \"#utility.yul\":1994:2003   */\n  mload\n    /* \"#utility.yul\":2022:2024   */\n  dup2\n    /* \"#utility.yul\":2018:2020   */\n  dup2\n    /* \"#utility.yul\":2015:2025   */\n  gt\n    /* \"#utility.yul\":2012:2048   */\n  iszero\n  tag_96\n  jumpi\n    /* \"#utility.yul\":2028:2046   */\n  tag_96\n  tag_72\n  jump\t// in\ntag_96:\n    /* \"#utility.yul\":2068:2104   */\n  tag_97\n    /* \"#utility.yul\":2100:2102   */\n  dup6\n    /* \"#utility.yul\":2095:2097   */\n  dup3\n    /* \"#utility.yul\":2092:2093   */\n  0x05\n    /* \"#utility.yul\":2088:2098   */\n  shl\n    /* \"#utility.yul\":2084:2103   */\n  add\n    /* \"#utility.yul\":2068:2104   */\n  tag_74\n  jump\t// in\ntag_97:\n    /* \"#utility.yul\":2138:2153   */\n  dup2\n  dup2\n  mstore\n    /* \"#utility.yul\":2169:2181   */\n  dup6\n  dup2\n  add\n  swap3\n  pop\n    /* \"#utility.yul\":2200:2206   */\n  0x0120\n    /* \"#utility.yul\":2241:2252   */\n  swap2\n  dup3\n  mul\n    /* \"#utility.yul\":2233:2253   */\n  dup5\n  add\n    /* \"#utility.yul\":2229:2258   */\n  dup7\n  add\n  swap2\n    /* \"#utility.yul\":2270:2289   */\n  dup14\n  dup4\n  gt\n    /* \"#utility.yul\":2267:2306   */\n  iszero\n  tag_98\n  jumpi\n    /* \"#utility.yul\":2302:2303   */\n  0x00\n    /* \"#utility.yul\":2299:2300   */\n  dup1\n    /* \"#utility.yul\":2292:2304   */\n  revert\n    /* \"#utility.yul\":2267:2306   */\ntag_98:\n    /* \"#utility.yul\":2326:2337   */\n  swap4\n  dup7\n  add\n  swap4\n    /* \"#utility.yul\":2346:3265   */\ntag_99:\n    /* \"#utility.yul\":2362:2368   */\n  dup3\n    /* \"#utility.yul\":2357:2360   */\n  dup6\n    /* \"#utility.yul\":2354:2369   */\n  lt\n    /* \"#utility.yul\":2346:3265   */\n  iszero\n  tag_101\n  jumpi\n    /* \"#utility.yul\":2442:2444   */\n  dup1\n    /* \"#utility.yul\":2436:2439   */\n  dup6\n    /* \"#utility.yul\":2427:2434   */\n  dup16\n    /* \"#utility.yul\":2423:2440   */\n  sub\n    /* \"#utility.yul\":2419:2445   */\n  slt\n    /* \"#utility.yul\":2416:2532   */\n  iszero\n  tag_102\n  jumpi\n    /* \"#utility.yul\":2486:2487   */\n  0x00\n    /* \"#utility.yul\":2515:2517   */\n  dup1\n    /* \"#utility.yul\":2511:2513   */\n  dup2\n    /* \"#utility.yul\":2504:2518   */\n  revert\n    /* \"#utility.yul\":2416:2532   */\ntag_102:\n    /* \"#utility.yul\":2560:2582   */\n  tag_103\n  tag_73\n  jump\t// in\ntag_103:\n    /* \"#utility.yul\":2617:2620   */\n  dup6\n    /* \"#utility.yul\":2611:2621   */\n  mload\n    /* \"#utility.yul\":2602:2609   */\n  dup2\n    /* \"#utility.yul\":2595:2622   */\n  mstore\n    /* \"#utility.yul\":2675:2677   */\n  dup8\n    /* \"#utility.yul\":2670:2673   */\n  dup7\n    /* \"#utility.yul\":2666:2678   */\n  add\n    /* \"#utility.yul\":2660:2679   */\n  mload\n    /* \"#utility.yul\":2655:2657   */\n  dup9\n    /* \"#utility.yul\":2646:2653   */\n  dup3\n    /* \"#utility.yul\":2642:2658   */\n  add\n    /* \"#utility.yul\":2635:2680   */\n  mstore\n    /* \"#utility.yul\":2733:2735   */\n  0x40\n    /* \"#utility.yul\":2728:2731   */\n  dup7\n    /* \"#utility.yul\":2724:2736   */\n  add\n    /* \"#utility.yul\":2718:2737   */\n  mload\n    /* \"#utility.yul\":2713:2715   */\n  0x40\n    /* \"#utility.yul\":2704:2711   */\n  dup3\n    /* \"#utility.yul\":2700:2716   */\n  add\n    /* \"#utility.yul\":2693:2738   */\n  mstore\n    /* \"#utility.yul\":2791:2793   */\n  0x60\n    /* \"#utility.yul\":2786:2789   */\n  dup7\n    /* \"#utility.yul\":2782:2794   */\n  add\n    /* \"#utility.yul\":2776:2795   */\n  mload\n    /* \"#utility.yul\":2771:2773   */\n  0x60\n    /* \"#utility.yul\":2762:2769   */\n  dup3\n    /* \"#utility.yul\":2758:2774   */\n  add\n    /* \"#utility.yul\":2751:2796   */\n  mstore\n    /* \"#utility.yul\":2849:2851   */\n  dup7\n    /* \"#utility.yul\":2844:2847   */\n  dup7\n    /* \"#utility.yul\":2840:2852   */\n  add\n    /* \"#utility.yul\":2834:2853   */\n  mload\n    /* \"#utility.yul\":2829:2831   */\n  dup8\n    /* \"#utility.yul\":2820:2827   */\n  dup3\n    /* \"#utility.yul\":2816:2832   */\n  add\n    /* \"#utility.yul\":2809:2854   */\n  mstore\n    /* \"#utility.yul\":2908:2911   */\n  0xa0\n    /* \"#utility.yul\":2903:2906   */\n  dup7\n    /* \"#utility.yul\":2899:2912   */\n  add\n    /* \"#utility.yul\":2893:2913   */\n  mload\n    /* \"#utility.yul\":2887:2890   */\n  0xa0\n    /* \"#utility.yul\":2878:2885   */\n  dup3\n    /* \"#utility.yul\":2874:2891   */\n  add\n    /* \"#utility.yul\":2867:2914   */\n  mstore\n    /* \"#utility.yul\":2937:2940   */\n  0xc0\n    /* \"#utility.yul\":2993:2995   */\n  dup1\n    /* \"#utility.yul\":2988:2991   */\n  dup8\n    /* \"#utility.yul\":2984:2996   */\n  add\n    /* \"#utility.yul\":2978:2997   */\n  mload\n    /* \"#utility.yul\":2973:2975   */\n  dup2\n    /* \"#utility.yul\":2964:2971   */\n  dup4\n    /* \"#utility.yul\":2960:2976   */\n  add\n    /* \"#utility.yul\":2953:2998   */\n  mstore\n  pop\n    /* \"#utility.yul\":3021:3024   */\n  0xe0\n    /* \"#utility.yul\":3062:3102   */\n  tag_104\n    /* \"#utility.yul\":3098:3100   */\n  dup2\n    /* \"#utility.yul\":3093:3096   */\n  dup9\n    /* \"#utility.yul\":3089:3101   */\n  add\n    /* \"#utility.yul\":3062:3102   */\n  tag_75\n  jump\t// in\ntag_104:\n    /* \"#utility.yul\":3044:3060   */\n  swap1\n  dup3\n  add\n    /* \"#utility.yul\":3037:3103   */\n  mstore\n    /* \"#utility.yul\":3127:3130   */\n  0x0100\n    /* \"#utility.yul\":3175:3188   */\n  dup7\n  dup2\n  add\n    /* \"#utility.yul\":3169:3189   */\n  mload\n    /* \"#utility.yul\":3150:3167   */\n  swap1\n  dup3\n  add\n    /* \"#utility.yul\":3143:3190   */\n  mstore\n    /* \"#utility.yul\":3203:3223   */\n  dup5\n  mstore\n    /* \"#utility.yul\":2379:2391   */\n  swap4\n  dup5\n  add\n  swap4\n    /* \"#utility.yul\":3243:3255   */\n  swap3\n  dup7\n  add\n  swap3\n    /* \"#utility.yul\":2346:3265   */\n  jump(tag_99)\ntag_101:\n    /* \"#utility.yul\":2350:2353   */\n  pop\n    /* \"#utility.yul\":3284:3289   */\n  dup1\n    /* \"#utility.yul\":3274:3289   */\n  swap7\n  pop\n  pop\n  pop\n  pop\n  pop\n  pop\n  pop\n    /* \"#utility.yul\":999:3295   */\n  swap3\n  swap6\n  pop\n  swap3\n  swap6\n  swap1\n  swap4\n  pop\n  jump\t// out\n    /* \"#utility.yul\":3300:3573   */\ntag_15:\n    /* \"#utility.yul\":3368:3374   */\n  0x00\n    /* \"#utility.yul\":3421:3423   */\n  0x20\n    /* \"#utility.yul\":3409:3418   */\n  dup3\n    /* \"#utility.yul\":3400:3407   */\n  dup5\n    /* \"#utility.yul\":3396:3419   */\n  sub\n    /* \"#utility.yul\":3392:3424   */\n  slt\n    /* \"#utility.yul\":3389:3441   */\n  iszero\n  tag_106\n  jumpi\n    /* \"#utility.yul\":3437:3438   */\n  0x00\n    /* \"#utility.yul\":3434:3435   */\n  dup1\n    /* \"#utility.yul\":3427:3439   */\n  revert\n    /* \"#utility.yul\":3389:3441   */\ntag_106:\n    /* \"#utility.yul\":3469:3478   */\n  dup2\n    /* \"#utility.yul\":3463:3479   */\n  mload\n    /* \"#utility.yul\":3519:3523   */\n  0xff\n    /* \"#utility.yul\":3512:3517   */\n  dup2\n    /* \"#utility.yul\":3508:3524   */\n  and\n    /* \"#utility.yul\":3501:3506   */\n  dup2\n    /* \"#utility.yul\":3498:3525   */\n  eq\n    /* \"#utility.yul\":3488:3543   */\n  tag_107\n  jumpi\n    /* \"#utility.yul\":3539:3540   */\n  0x00\n    /* \"#utility.yul\":3536:3537   */\n  dup1\n    /* \"#utility.yul\":3529:3541   */\n  revert\n    /* \"#utility.yul\":3488:3543   */\ntag_107:\n    /* \"#utility.yul\":3562:3567   */\n  swap4\n    /* \"#utility.yul\":3300:3573   */\n  swap3\n  pop\n  pop\n  pop\n  jump\t// out\n    /* \"#utility.yul\":3578:3705   */\ntag_25:\n    /* \"#utility.yul\":3639:3649   */\n  0x4e487b71\n    /* \"#utility.yul\":3634:3637   */\n  0xe0\n    /* \"#utility.yul\":3630:3650   */\n  shl\n    /* \"#utility.yul\":3627:3628   */\n  0x00\n    /* \"#utility.yul\":3620:3651   */\n  mstore\n    /* \"#utility.yul\":3670:3674   */\n  0x32\n    /* \"#utility.yul\":3667:3668   */\n  0x04\n    /* \"#utility.yul\":3660:3675   */\n  mstore\n    /* \"#utility.yul\":3694:3698   */\n  0x24\n    /* \"#utility.yul\":3691:3692   */\n  0x00\n    /* \"#utility.yul\":3684:3699   */\n  revert\n    /* \"#utility.yul\":3710:3942   */\ntag_42:\n    /* \"#utility.yul\":3749:3752   */\n  0x00\n  not(0x00)\n    /* \"#utility.yul\":3770:3787   */\n  dup3\n  eq\n    /* \"#utility.yul\":3767:3907   */\n  iszero\n  tag_110\n  jumpi\n    /* \"#utility.yul\":3829:3839   */\n  0x4e487b71\n    /* \"#utility.yul\":3824:3827   */\n  0xe0\n    /* \"#utility.yul\":3820:3840   */\n  shl\n    /* \"#utility.yul\":3817:3818   */\n  0x00\n    /* \"#utility.yul\":3810:3841   */\n  mstore\n    /* \"#utility.yul\":3864:3868   */\n  0x11\n    /* \"#utility.yul\":3861:3862   */\n  0x04\n    /* \"#utility.yul\":3854:3869   */\n  mstore\n    /* \"#utility.yul\":3892:3896   */\n  0x24\n    /* \"#utility.yul\":3889:3890   */\n  0x00\n    /* \"#utility.yul\":3882:3897   */\n  revert\n    /* \"#utility.yul\":3767:3907   */\ntag_110:\n  pop\n    /* \"#utility.yul\":3934:3935   */\n  0x01\n    /* \"#utility.yul\":3923:3936   */\n  add\n  swap1\n    /* \"#utility.yul\":3710:3942   */\n  jump\t// out\n    /* \"#utility.yul\":5074:5430   */\ntag_76:\n    /* \"StakeFactory.sol\":8438:25014  contract StakeFactory is Ownable, Pausable, ReentrancyGuard {... */\n  dataSize(sub_0)\n  dup1\n  dataOffset(sub_0)\n  0x00\n  codecopy\n  0x00\n  return\nstop\n\nsub_0: assembly {\n        /* \"StakeFactory.sol\":8438:25014  contract StakeFactory is Ownable, Pausable, ReentrancyGuard {... */\n      mstore(0x40, 0x80)\n      jumpi(tag_1, lt(calldatasize, 0x04))\n      shr(0xe0, calldataload(0x00))\n      dup1\n      0x850bad94\n      gt\n      tag_45\n      jumpi\n      dup1\n      0xc2e5fe76\n      gt\n      tag_46\n      jumpi\n      dup1\n      0xde644c76\n      gt\n      tag_47\n      jumpi\n      dup1\n      0xde644c76\n      eq\n      tag_39\n      jumpi\n      dup1\n      0xe2bbb158\n      eq\n      tag_40\n      jumpi\n      dup1\n      0xf256dfc5\n      eq\n      tag_41\n      jumpi\n      dup1\n      0xf2fde38b\n      eq\n      tag_42\n      jumpi\n      dup1\n      0xf66e4be3\n      eq\n      tag_43\n      jumpi\n      dup1\n      0xf7c618c1\n      eq\n      tag_44\n      jumpi\n      0x00\n      dup1\n      revert\n    tag_47:\n      dup1\n      0xc2e5fe76\n      eq\n      tag_34\n      jumpi\n      dup1\n      0xc53c5fc1\n      eq\n      tag_35\n      jumpi\n      dup1\n      0xc5c35196\n      eq\n      tag_36\n      jumpi\n      dup1\n      0xcd099205\n      eq\n      tag_37\n      jumpi\n      dup1\n      0xcd8de42c\n      eq\n      tag_38\n      jumpi\n      0x00\n      dup1\n      revert\n    tag_46:\n      dup1\n      0x9a4577a2\n      gt\n      tag_48\n      jumpi\n      dup1\n      0x9a4577a2\n      eq\n      tag_29\n      jumpi\n      dup1\n      0x9bdcecd1\n      eq\n      tag_30\n      jumpi\n      dup1\n      0xba743f99\n      eq\n      tag_31\n      jumpi\n      dup1\n      0xc0941214\n      eq\n      tag_32\n      jumpi\n      dup1\n      0xc2412676\n      eq\n      tag_33\n      jumpi\n      0x00\n      dup1\n      revert\n    tag_48:\n      dup1\n      0x850bad94\n      eq\n      tag_24\n      jumpi\n      dup1\n      0x8da5cb5b\n      eq\n      tag_25\n      jumpi\n      dup1\n      0x917bb998\n      eq\n      tag_26\n      jumpi\n      dup1\n      0x91dc842e\n      eq\n      tag_27\n      jumpi\n      dup1\n      0x95302cc0\n      eq\n      tag_28\n      jumpi\n      0x00\n      dup1\n      revert\n    tag_45:\n      dup1\n      0x41ee13be\n      gt\n      tag_49\n      jumpi\n      dup1\n      0x5c975abb\n      gt\n      tag_50\n      jumpi\n      dup1\n      0x5c975abb\n      eq\n      tag_18\n      jumpi\n      dup1\n      0x647428b9\n      eq\n      tag_19\n      jumpi\n      dup1\n      0x6a1d18d2\n      eq\n      tag_20\n      jumpi\n      dup1\n      0x6b130dc2\n      eq\n      tag_21\n      jumpi\n      dup1\n      0x6ba13a82\n      eq\n      tag_22\n      jumpi\n      dup1\n      0x6f77926b\n      eq\n      tag_23\n      jumpi\n      0x00\n      dup1\n      revert\n    tag_50:\n      dup1\n      0x41ee13be\n      eq\n      tag_13\n      jumpi\n      dup1\n      0x45982a66\n      eq\n      tag_14\n      jumpi\n      dup1\n      0x4d70378a\n      eq\n      tag_15\n      jumpi\n      dup1\n      0x52b8745f\n      eq\n      tag_16\n      jumpi\n      dup1\n      0x58098bf4\n      eq\n      tag_17\n      jumpi\n      0x00\n      dup1\n      revert\n    tag_49:\n      dup1\n      0x2b4a16a0\n      gt\n      tag_51\n      jumpi\n      dup1\n      0x2b4a16a0\n      eq\n      tag_8\n      jumpi\n      dup1\n      0x31d7a262\n      eq\n      tag_9\n      jumpi\n      dup1\n      0x365b98b2\n      eq\n      tag_10\n      jumpi\n      dup1\n      0x39129cff\n      eq\n      tag_11\n      jumpi\n      dup1\n      0x3d51c72d\n      eq\n      tag_12\n      jumpi\n      0x00\n      dup1\n      revert\n    tag_51:\n      dup1\n      0x03962d46\n      eq\n      tag_3\n      jumpi\n      dup1\n      0x0a6f93e6\n      eq\n      tag_4\n      jumpi\n      dup1\n      0x16ada547\n      eq\n      tag_5\n      jumpi\n      dup1\n      0x230ffa0f\n      eq\n      tag_6\n      jumpi\n      dup1\n      0x27ba372c\n      eq\n      tag_7\n      jumpi\n      0x00\n      dup1\n      revert\n    tag_1:\n      jumpi(tag_2, calldatasize)\n      stop\n    tag_2:\n      0x00\n      dup1\n      revert\n        /* \"StakeFactory.sol\":9630:9681  mapping(address => uint256) public withdrawedReward */\n    tag_3:\n      callvalue\n      dup1\n      iszero\n      tag_54\n      jumpi\n      0x00\n      dup1\n      revert\n    tag_54:\n      pop\n      tag_55\n      tag_56\n      calldatasize\n      0x04\n      tag_57\n      jump\t// in\n    tag_56:\n      mstore(0x20, 0x0b)\n      0x00\n      swap1\n      dup2\n      mstore\n      0x40\n      swap1\n      keccak256\n      sload\n      dup2\n      jump\n    tag_55:\n      mload(0x40)\n        /* \"#utility.yul\":548:573   */\n      swap1\n      dup2\n      mstore\n        /* \"#utility.yul\":536:538   */\n      0x20\n        /* \"#utility.yul\":521:539   */\n      add\n        /* \"StakeFactory.sol\":9630:9681  mapping(address => uint256) public withdrawedReward */\n    tag_59:\n      mload(0x40)\n      dup1\n      swap2\n      sub\n      swap1\n      return\n        /* \"StakeFactory.sol\":9688:9734  mapping(address => uint256) public lastUpdated */\n    tag_4:\n      callvalue\n      dup1\n      iszero\n      tag_61\n      jumpi\n      0x00\n      dup1\n      revert\n    tag_61:\n      pop\n      tag_55\n      tag_63\n      calldatasize\n      0x04\n      tag_57\n      jump\t// in\n    tag_63:\n      mstore(0x20, 0x0c)\n      0x00\n      swap1\n      dup2\n      mstore\n      0x40\n      swap1\n      keccak256\n      sload\n      dup2\n      jump\n        /* \"StakeFactory.sol\":10050:10074  uint256 public time = 60 */\n    tag_5:\n      callvalue\n      dup1\n      iszero\n      tag_66\n      jumpi\n      0x00\n      dup1\n      revert\n    tag_66:\n      pop\n      tag_55\n      sload(0x12)\n      dup2\n      jump\n        /* \"StakeFactory.sol\":24267:24469  function emergencyWithdrawWei(uint256 _amount) public onlyOwner {... */\n    tag_6:\n      callvalue\n      dup1\n      iszero\n      tag_70\n      jumpi\n      0x00\n      dup1\n      revert\n    tag_70:\n      pop\n      tag_71\n      tag_72\n      calldatasize\n      0x04\n      tag_73\n      jump\t// in\n    tag_72:\n      tag_74\n      jump\t// in\n    tag_71:\n      stop\n        /* \"StakeFactory.sol\":9457:9511  mapping(address => uint256) public depositeTokensTotal */\n    tag_7:\n      callvalue\n      dup1\n      iszero\n      tag_75\n      jumpi\n      0x00\n      dup1\n      revert\n    tag_75:\n      pop\n      tag_55\n      tag_77\n      calldatasize\n      0x04\n      tag_57\n      jump\t// in\n    tag_77:\n      mstore(0x20, 0x08)\n      0x00\n      swap1\n      dup2\n      mstore\n      0x40\n      swap1\n      keccak256\n      sload\n      dup2\n      jump\n        /* \"StakeFactory.sol\":10100:10135  uint256[] public allowedLockPeriods */\n    tag_8:\n      callvalue\n      dup1\n      iszero\n      tag_80\n      jumpi\n      0x00\n      dup1\n      revert\n    tag_80:\n      pop\n      tag_55\n      tag_82\n      calldatasize\n      0x04\n      tag_73\n      jump\t// in\n    tag_82:\n      tag_83\n      jump\t// in\n        /* \"StakeFactory.sol\":13210:13887  function pendingRewards(address _address) public view returns (uint256 reward) {... */\n    tag_9:\n      callvalue\n      dup1\n      iszero\n      tag_85\n      jumpi\n      0x00\n      dup1\n      revert\n    tag_85:\n      pop\n      tag_55\n      tag_87\n      calldatasize\n      0x04\n      tag_57\n      jump\t// in\n    tag_87:\n      tag_88\n      jump\t// in\n        /* \"StakeFactory.sol\":9795:9835  mapping(uint256 => address) public users */\n    tag_10:\n      callvalue\n      dup1\n      iszero\n      tag_90\n      jumpi\n      0x00\n      dup1\n      revert\n    tag_90:\n      pop\n      tag_91\n      tag_92\n      calldatasize\n      0x04\n      tag_73\n      jump\t// in\n    tag_92:\n      mstore(0x20, 0x0e)\n      0x00\n      swap1\n      dup2\n      mstore\n      0x40\n      swap1\n      keccak256\n      sload\n      sub(shl(0xa0, 0x01), 0x01)\n      and\n      dup2\n      jump\n    tag_91:\n      mload(0x40)\n      sub(shl(0xa0, 0x01), 0x01)\n        /* \"#utility.yul\":933:965   */\n      swap1\n      swap2\n      and\n        /* \"#utility.yul\":915:966   */\n      dup2\n      mstore\n        /* \"#utility.yul\":903:905   */\n      0x20\n        /* \"#utility.yul\":888:906   */\n      add\n        /* \"StakeFactory.sol\":9795:9835  mapping(uint256 => address) public users */\n      tag_59\n        /* \"#utility.yul\":769:972   */\n      jump\n        /* \"StakeFactory.sol\":9218:9278  mapping(uint256 => LockPeriodParams) public lockPeriodParams */\n    tag_11:\n      callvalue\n      dup1\n      iszero\n      tag_96\n      jumpi\n      0x00\n      dup1\n      revert\n    tag_96:\n      pop\n      tag_97\n      tag_98\n      calldatasize\n      0x04\n      tag_73\n      jump\t// in\n    tag_98:\n      0x05\n      0x20\n      dup2\n      swap1\n      mstore\n      0x00\n      swap2\n      dup3\n      mstore\n      0x40\n      swap1\n      swap2\n      keccak256\n      dup1\n      sload\n      0x01\n      dup3\n      add\n      sload\n      0x02\n      dup4\n      add\n      sload\n      0x03\n      dup5\n      add\n      sload\n      0x04\n      dup6\n      add\n      sload\n      swap6\n      dup6\n      add\n      sload\n      0x06\n      dup7\n      add\n      sload\n      0x07\n      dup8\n      add\n      sload\n      0x08\n      swap1\n      swap8\n      add\n      sload\n      swap6\n      swap8\n      swap5\n      swap7\n      swap4\n      swap6\n      swap3\n      swap5\n      swap4\n      swap2\n      swap3\n      swap1\n      swap2\n      0xff\n      and\n      swap1\n      dup10\n      jump\n    tag_97:\n      0x40\n      dup1\n      mload\n        /* \"#utility.yul\":1342:1367   */\n      swap10\n      dup11\n      mstore\n        /* \"#utility.yul\":1398:1400   */\n      0x20\n        /* \"#utility.yul\":1383:1401   */\n      dup11\n      add\n        /* \"#utility.yul\":1376:1410   */\n      swap9\n      swap1\n      swap9\n      mstore\n        /* \"#utility.yul\":1426:1444   */\n      swap7\n      dup9\n      add\n        /* \"#utility.yul\":1419:1453   */\n      swap6\n      swap1\n      swap6\n      mstore\n        /* \"#utility.yul\":1484:1486   */\n      0x60\n        /* \"#utility.yul\":1469:1487   */\n      dup8\n      add\n        /* \"#utility.yul\":1462:1496   */\n      swap4\n      swap1\n      swap4\n      mstore\n        /* \"#utility.yul\":1527:1530   */\n      0x80\n        /* \"#utility.yul\":1512:1531   */\n      dup7\n      add\n        /* \"#utility.yul\":1505:1540   */\n      swap2\n      swap1\n      swap2\n      mstore\n        /* \"#utility.yul\":1571:1574   */\n      0xa0\n        /* \"#utility.yul\":1556:1575   */\n      dup6\n      add\n        /* \"#utility.yul\":1549:1584   */\n      mstore\n        /* \"#utility.yul\":1615:1618   */\n      0xc0\n        /* \"#utility.yul\":1600:1619   */\n      dup5\n      add\n        /* \"#utility.yul\":1593:1628   */\n      mstore\n        /* \"#utility.yul\":1672:1686   */\n      iszero\n        /* \"#utility.yul\":1665:1687   */\n      iszero\n        /* \"#utility.yul\":1659:1662   */\n      0xe0\n        /* \"#utility.yul\":1644:1663   */\n      dup4\n      add\n        /* \"#utility.yul\":1637:1688   */\n      mstore\n        /* \"#utility.yul\":1719:1722   */\n      0x0100\n        /* \"#utility.yul\":1704:1723   */\n      dup3\n      add\n        /* \"#utility.yul\":1697:1732   */\n      mstore\n        /* \"#utility.yul\":1329:1332   */\n      0x0120\n        /* \"#utility.yul\":1314:1333   */\n      add\n        /* \"StakeFactory.sol\":9218:9278  mapping(uint256 => LockPeriodParams) public lockPeriodParams */\n      tag_59\n        /* \"#utility.yul\":977:1738   */\n      jump\n        /* \"StakeFactory.sol\":23377:23589  function getLockPeriodParams(uint256 _days) external view returns (LockPeriodParams memory) {... */\n    tag_12:\n      callvalue\n      dup1\n      iszero\n      tag_102\n      jumpi\n      0x00\n      dup1\n      revert\n    tag_102:\n      pop\n      tag_103\n      tag_104\n      calldatasize\n      0x04\n      tag_73\n      jump\t// in\n    tag_104:\n      tag_105\n      jump\t// in\n    tag_103:\n      mload(0x40)\n      tag_59\n      swap2\n      swap1\n      tag_107\n      jump\t// in\n        /* \"StakeFactory.sol\":20980:21091  function getLockPeriods() external view returns (uint256[] memory) {... */\n    tag_13:\n      callvalue\n      dup1\n      iszero\n      tag_108\n      jumpi\n      0x00\n      dup1\n      revert\n    tag_108:\n      pop\n      tag_109\n      tag_110\n      jump\t// in\n    tag_109:\n      mload(0x40)\n      tag_59\n      swap2\n      swap1\n      tag_112\n      jump\t// in\n        /* \"StakeFactory.sol\":14359:14847  function getUsers(uint256 _offset, uint256 _limit) public view returns(UserInfo[] memory ret) {... */\n    tag_14:\n      callvalue\n      dup1\n      iszero\n      tag_113\n      jumpi\n      0x00\n      dup1\n      revert\n    tag_113:\n      pop\n      tag_114\n      tag_115\n      calldatasize\n      0x04\n      tag_116\n      jump\t// in\n    tag_115:\n      tag_117\n      jump\t// in\n    tag_114:\n      mload(0x40)\n      tag_59\n      swap2\n      swap1\n      tag_119\n      jump\t// in\n        /* \"StakeFactory.sol\":20126:20851  function removeLockPeriod(uint256 _days) external onlyOwner {... */\n    tag_15:\n      callvalue\n      dup1\n      iszero\n      tag_120\n      jumpi\n      0x00\n      dup1\n      revert\n    tag_120:\n      pop\n      tag_71\n      tag_122\n      calldatasize\n      0x04\n      tag_73\n      jump\t// in\n    tag_122:\n      tag_123\n      jump\t// in\n        /* \"StakeFactory.sol\":24477:24721  function addSpam(address _addr) public onlyOwner {... */\n    tag_16:\n      callvalue\n      dup1\n      iszero\n      tag_124\n      jumpi\n      0x00\n      dup1\n      revert\n    tag_124:\n      pop\n      tag_71\n      tag_126\n      calldatasize\n      0x04\n      tag_57\n      jump\t// in\n    tag_126:\n      tag_127\n      jump\t// in\n        /* \"StakeFactory.sol\":24729:24974  function removeSpam(address _addr) public onlyOwner {... */\n    tag_17:\n      callvalue\n      dup1\n      iszero\n      tag_128\n      jumpi\n      0x00\n      dup1\n      revert\n    tag_128:\n      pop\n      tag_71\n      tag_130\n      calldatasize\n      0x04\n      tag_57\n      jump\t// in\n    tag_130:\n      tag_131\n      jump\t// in\n        /* \"StakeFactory.sol\":5992:6080  function paused() public view virtual returns (bool) {\t... */\n    tag_18:\n      callvalue\n      dup1\n      iszero\n      tag_132\n      jumpi\n      0x00\n      dup1\n      revert\n    tag_132:\n      pop\n        /* \"StakeFactory.sol\":6039:6043  bool */\n      0x00\n        /* \"StakeFactory.sol\":6064:6071  _paused */\n      sload\n      shl(0xa0, 0x01)\n      swap1\n      div\n      0xff\n      and\n        /* \"StakeFactory.sol\":5992:6080  function paused() public view virtual returns (bool) {\t... */\n    tag_133:\n      mload(0x40)\n        /* \"#utility.yul\":5643:5657   */\n      swap1\n      iszero\n        /* \"#utility.yul\":5636:5658   */\n      iszero\n        /* \"#utility.yul\":5618:5659   */\n      dup2\n      mstore\n        /* \"#utility.yul\":5606:5608   */\n      0x20\n        /* \"#utility.yul\":5591:5609   */\n      add\n        /* \"StakeFactory.sol\":5992:6080  function paused() public view virtual returns (bool) {\t... */\n      tag_59\n        /* \"#utility.yul\":5478:5665   */\n      jump\n        /* \"StakeFactory.sol\":21865:22280  function getRewardTokenInfo() public view returns (... */\n    tag_19:\n      callvalue\n      dup1\n      iszero\n      tag_137\n      jumpi\n      0x00\n      dup1\n      revert\n    tag_137:\n      pop\n      tag_138\n      tag_139\n      jump\t// in\n    tag_138:\n      mload(0x40)\n      tag_59\n      swap6\n      swap5\n      swap4\n      swap3\n      swap2\n      swap1\n      tag_141\n      jump\t// in\n        /* \"StakeFactory.sol\":23696:23910  function setDeductionPercentage(uint256 percentageBasisPoints) public onlyOwner {... */\n    tag_20:\n      callvalue\n      dup1\n      iszero\n      tag_142\n      jumpi\n      0x00\n      dup1\n      revert\n    tag_142:\n      pop\n      tag_71\n      tag_144\n      calldatasize\n      0x04\n      tag_73\n      jump\t// in\n    tag_144:\n      tag_145\n      jump\t// in\n        /* \"StakeFactory.sol\":9923:9964  uint256 public deductionPercentage = 2500 */\n    tag_21:\n      callvalue\n      dup1\n      iszero\n      tag_146\n      jumpi\n      0x00\n      dup1\n      revert\n    tag_146:\n      pop\n      tag_55\n      sload(0x11)\n      dup2\n      jump\n        /* \"StakeFactory.sol\":9842:9867  uint256 public usersCount */\n    tag_22:\n      callvalue\n      dup1\n      iszero\n      tag_150\n      jumpi\n      0x00\n      dup1\n      revert\n    tag_150:\n      pop\n      tag_55\n      sload(0x0f)\n      dup2\n      jump\n        /* \"StakeFactory.sol\":13895:14353  function getUser(address user) public view returns (UserInfo memory info) {... */\n    tag_23:\n      callvalue\n      dup1\n      iszero\n      tag_154\n      jumpi\n      0x00\n      dup1\n      revert\n    tag_154:\n      pop\n      tag_155\n      tag_156\n      calldatasize\n      0x04\n      tag_57\n      jump\t// in\n    tag_156:\n      tag_157\n      jump\t// in\n    tag_155:\n      mload(0x40)\n      tag_59\n      swap2\n      swap1\n      tag_159\n      jump\t// in\n        /* \"StakeFactory.sol\":9071:9116  mapping(uint256 => uint256) public allocation */\n    tag_24:\n      callvalue\n      dup1\n      iszero\n      tag_160\n      jumpi\n      0x00\n      dup1\n      revert\n    tag_160:\n      pop\n      tag_55\n      tag_162\n      calldatasize\n      0x04\n      tag_73\n      jump\t// in\n    tag_162:\n      mstore(0x20, 0x04)\n      0x00\n      swap1\n      dup2\n      mstore\n      0x40\n      swap1\n      keccak256\n      sload\n      dup2\n      jump\n        /* \"StakeFactory.sol\":7694:7773  function owner() public view returns (address) {... */\n    tag_25:\n      callvalue\n      dup1\n      iszero\n      tag_165\n      jumpi\n      0x00\n      dup1\n      revert\n    tag_165:\n      pop\n        /* \"StakeFactory.sol\":7732:7739  address */\n      0x00\n        /* \"StakeFactory.sol\":7759:7765  _owner */\n      sload\n      sub(shl(0xa0, 0x01), 0x01)\n      and\n        /* \"StakeFactory.sol\":7694:7773  function owner() public view returns (address) {... */\n      jump(tag_91)\n        /* \"StakeFactory.sol\":24036:24259  function emergencyWithdrawTokens(IERC20 _token, uint256 _amount) public onlyOwner {... */\n    tag_26:\n      callvalue\n      dup1\n      iszero\n      tag_169\n      jumpi\n      0x00\n      dup1\n      revert\n    tag_169:\n      pop\n      tag_71\n      tag_171\n      calldatasize\n      0x04\n      tag_172\n      jump\t// in\n    tag_171:\n      tag_173\n      jump\t// in\n        /* \"StakeFactory.sol\":9400:9450  mapping(address => uint256[]) public depositeToken */\n    tag_27:\n      callvalue\n      dup1\n      iszero\n      tag_174\n      jumpi\n      0x00\n      dup1\n      revert\n    tag_174:\n      pop\n      tag_55\n      tag_176\n      calldatasize\n      0x04\n      tag_172\n      jump\t// in\n    tag_176:\n      tag_178\n      jump\t// in\n        /* \"StakeFactory.sol\":9518:9567  mapping(address => uint256[]) public lockableDays */\n    tag_28:\n      callvalue\n      dup1\n      iszero\n      tag_180\n      jumpi\n      0x00\n      dup1\n      revert\n    tag_180:\n      pop\n      tag_55\n      tag_182\n      calldatasize\n      0x04\n      tag_172\n      jump\t// in\n    tag_182:\n      tag_183\n      jump\t// in\n        /* \"StakeFactory.sol\":18229:19643  function setAllocation(... */\n    tag_29:\n      callvalue\n      dup1\n      iszero\n      tag_185\n      jumpi\n      0x00\n      dup1\n      revert\n    tag_185:\n      pop\n      tag_71\n      tag_187\n      calldatasize\n      0x04\n      tag_188\n      jump\t// in\n    tag_187:\n      tag_189\n      jump\t// in\n        /* \"StakeFactory.sol\":8658:8690  uint8 public rewardTokenDecimals */\n    tag_30:\n      callvalue\n      dup1\n      iszero\n      tag_190\n      jumpi\n      0x00\n      dup1\n      revert\n    tag_190:\n      pop\n      sload(0x03)\n      tag_191\n      swap1\n      shl(0xb0, 0x01)\n      swap1\n      div\n      0xff\n      and\n      dup2\n      jump\n    tag_191:\n      mload(0x40)\n        /* \"#utility.yul\":8772:8776   */\n      0xff\n        /* \"#utility.yul\":8760:8777   */\n      swap1\n      swap2\n      and\n        /* \"#utility.yul\":8742:8778   */\n      dup2\n      mstore\n        /* \"#utility.yul\":8730:8732   */\n      0x20\n        /* \"#utility.yul\":8715:8733   */\n      add\n        /* \"StakeFactory.sol\":8658:8690  uint8 public rewardTokenDecimals */\n      tag_59\n        /* \"#utility.yul\":8600:8784   */\n      jump\n        /* \"StakeFactory.sol\":9574:9623  mapping(address => uint256[]) public depositeTime */\n    tag_31:\n      callvalue\n      dup1\n      iszero\n      tag_195\n      jumpi\n      0x00\n      dup1\n      revert\n    tag_195:\n      pop\n      tag_55\n      tag_197\n      calldatasize\n      0x04\n      tag_172\n      jump\t// in\n    tag_197:\n      tag_198\n      jump\t// in\n        /* \"StakeFactory.sol\":8618:8651  uint8 public depositTokenDecimals */\n    tag_32:\n      callvalue\n      dup1\n      iszero\n      tag_200\n      jumpi\n      0x00\n      dup1\n      revert\n    tag_200:\n      pop\n      sload(0x03)\n      tag_191\n      swap1\n      shl(0xa8, 0x01)\n      swap1\n      div\n      0xff\n      and\n      dup2\n      jump\n        /* \"StakeFactory.sol\":8505:8524  IERC20 public Token */\n    tag_33:\n      callvalue\n      dup1\n      iszero\n      tag_204\n      jumpi\n      0x00\n      dup1\n      revert\n    tag_204:\n      pop\n      sload(0x02)\n      tag_91\n      swap1\n      sub(shl(0xa0, 0x01), 0x01)\n      and\n      dup2\n      jump\n        /* \"StakeFactory.sol\":9745:9788  mapping(address => bool) public usersExists */\n    tag_34:\n      callvalue\n      dup1\n      iszero\n      tag_209\n      jumpi\n      0x00\n      dup1\n      revert\n    tag_209:\n      pop\n      tag_133\n      tag_211\n      calldatasize\n      0x04\n      tag_57\n      jump\t// in\n    tag_211:\n      mstore(0x20, 0x0d)\n      0x00\n      swap1\n      dup2\n      mstore\n      0x40\n      swap1\n      keccak256\n      sload\n      0xff\n      and\n      dup2\n      jump\n        /* \"StakeFactory.sol\":21475:21859  function getStakeTokenInfo() public view returns (... */\n    tag_35:\n      callvalue\n      dup1\n      iszero\n      tag_214\n      jumpi\n      0x00\n      dup1\n      revert\n    tag_214:\n      pop\n      tag_138\n      tag_216\n      jump\t// in\n        /* \"StakeFactory.sol\":14911:18114  function harwest(uint256[] memory _index) external whenNotPaused nonReentrant returns (... */\n    tag_36:\n      callvalue\n      dup1\n      iszero\n      tag_218\n      jumpi\n      0x00\n      dup1\n      revert\n    tag_218:\n      pop\n      tag_219\n      tag_220\n      calldatasize\n      0x04\n      tag_221\n      jump\t// in\n    tag_220:\n      tag_222\n      jump\t// in\n    tag_219:\n      0x40\n      dup1\n      mload\n        /* \"#utility.yul\":10575:10600   */\n      swap4\n      dup5\n      mstore\n        /* \"#utility.yul\":10631:10633   */\n      0x20\n        /* \"#utility.yul\":10616:10634   */\n      dup5\n      add\n        /* \"#utility.yul\":10609:10643   */\n      swap3\n      swap1\n      swap3\n      mstore\n        /* \"#utility.yul\":10659:10677   */\n      swap1\n      dup3\n      add\n        /* \"#utility.yul\":10652:10686   */\n      mstore\n        /* \"#utility.yul\":10563:10565   */\n      0x60\n        /* \"#utility.yul\":10548:10566   */\n      add\n        /* \"StakeFactory.sol\":14911:18114  function harwest(uint256[] memory _index) external whenNotPaused nonReentrant returns (... */\n      tag_59\n        /* \"#utility.yul\":10373:10692   */\n      jump\n        /* \"StakeFactory.sol\":9876:9914  mapping(address => bool) public isSpam */\n    tag_37:\n      callvalue\n      dup1\n      iszero\n      tag_225\n      jumpi\n      0x00\n      dup1\n      revert\n    tag_225:\n      pop\n      tag_133\n      tag_227\n      calldatasize\n      0x04\n      tag_57\n      jump\t// in\n    tag_227:\n      mstore(0x20, 0x10)\n      0x00\n      swap1\n      dup2\n      mstore\n      0x40\n      swap1\n      keccak256\n      sload\n      0xff\n      and\n      dup2\n      jump\n        /* \"StakeFactory.sol\":23916:24030  function setTaxReceiver(address _newTaxReceiver) public onlyOwner {... */\n    tag_38:\n      callvalue\n      dup1\n      iszero\n      tag_230\n      jumpi\n      0x00\n      dup1\n      revert\n    tag_230:\n      pop\n      tag_71\n      tag_232\n      calldatasize\n      0x04\n      tag_57\n      jump\t// in\n    tag_232:\n      tag_233\n      jump\t// in\n        /* \"StakeFactory.sol\":21097:21469  function getLockPeriodsInfo() external view returns (LockPeriodParams[] memory ret) {... */\n    tag_39:\n      callvalue\n      dup1\n      iszero\n      tag_234\n      jumpi\n      0x00\n      dup1\n      revert\n    tag_234:\n      pop\n      tag_235\n      tag_236\n      jump\t// in\n    tag_235:\n      mload(0x40)\n      tag_59\n      swap2\n      swap1\n      tag_238\n      jump\t// in\n        /* \"StakeFactory.sol\":12011:13128  function deposit(uint256 _amount, uint256 _lockDays) external whenNotPaused nonReentrant {... */\n    tag_40:\n      callvalue\n      dup1\n      iszero\n      tag_239\n      jumpi\n      0x00\n      dup1\n      revert\n    tag_239:\n      pop\n      tag_71\n      tag_241\n      calldatasize\n      0x04\n      tag_116\n      jump\t// in\n    tag_241:\n      tag_242\n      jump\t// in\n        /* \"StakeFactory.sol\":9365:9391  address public taxreceiver */\n    tag_41:\n      callvalue\n      dup1\n      iszero\n      tag_243\n      jumpi\n      0x00\n      dup1\n      revert\n    tag_243:\n      pop\n      sload(0x06)\n      tag_91\n      swap1\n      sub(shl(0xa0, 0x01), 0x01)\n      and\n      dup2\n      jump\n        /* \"StakeFactory.sol\":8154:8431  function transferOwnership(address newOwner) public onlyOwner {... */\n    tag_42:\n      callvalue\n      dup1\n      iszero\n      tag_247\n      jumpi\n      0x00\n      dup1\n      revert\n    tag_247:\n      pop\n      tag_71\n      tag_249\n      calldatasize\n      0x04\n      tag_57\n      jump\t// in\n    tag_249:\n      tag_250\n      jump\t// in\n        /* \"StakeFactory.sol\":8565:8609  bool public IS_ULTIMATE_STAKE_FACTORY = true */\n    tag_43:\n      callvalue\n      dup1\n      iszero\n      tag_251\n      jumpi\n      0x00\n      dup1\n      revert\n    tag_251:\n      pop\n      sload(0x03)\n      tag_133\n      swap1\n      shl(0xa0, 0x01)\n      swap1\n      div\n      0xff\n      and\n      dup2\n      jump\n        /* \"StakeFactory.sol\":8531:8556  IERC20 public rewardToken */\n    tag_44:\n      callvalue\n      dup1\n      iszero\n      tag_255\n      jumpi\n      0x00\n      dup1\n      revert\n    tag_255:\n      pop\n      sload(0x03)\n      tag_91\n      swap1\n      sub(shl(0xa0, 0x01), 0x01)\n      and\n      dup2\n      jump\n        /* \"StakeFactory.sol\":24267:24469  function emergencyWithdrawWei(uint256 _amount) public onlyOwner {... */\n    tag_74:\n        /* \"StakeFactory.sol\":7912:7918  _owner */\n      and(sub(shl(0xa0, 0x01), 0x01), sload(0x00))\n        /* \"StakeFactory.sol\":7922:7932  msg.sender */\n      caller\n        /* \"StakeFactory.sol\":7912:7932  _owner == msg.sender */\n      eq\n        /* \"StakeFactory.sol\":7904:7969  require(_owner == msg.sender, \"Ownable: caller is not the owner\") */\n      tag_260\n      jumpi\n      mload(0x40)\n      shl(0xe5, 0x461bcd)\n      dup2\n      mstore\n      0x04\n      add\n      tag_261\n      swap1\n      tag_262\n      jump\t// in\n    tag_261:\n      mload(0x40)\n      dup1\n      swap2\n      sub\n      swap1\n      revert\n    tag_260:\n        /* \"StakeFactory.sol\":24375:24382  _amount */\n      dup1\n        /* \"StakeFactory.sol\":24350:24371  address(this).balance */\n      selfbalance\n        /* \"StakeFactory.sol\":24350:24382  address(this).balance >= _amount */\n      lt\n      iszero\n        /* \"StakeFactory.sol\":24342:24413  require(address(this).balance >= _amount, \"Insufficient ether balance\") */\n      tag_264\n      jumpi\n      mload(0x40)\n      shl(0xe5, 0x461bcd)\n      dup2\n      mstore\n        /* \"#utility.yul\":11995:11997   */\n      0x20\n        /* \"StakeFactory.sol\":24342:24413  require(address(this).balance >= _amount, \"Insufficient ether balance\") */\n      0x04\n      dup3\n      add\n        /* \"#utility.yul\":11977:11998   */\n      mstore\n        /* \"#utility.yul\":12034:12036   */\n      0x1a\n        /* \"#utility.yul\":12014:12032   */\n      0x24\n      dup3\n      add\n        /* \"#utility.yul\":12007:12037   */\n      mstore\n        /* \"#utility.yul\":12073:12101   */\n      0x496e73756666696369656e742065746865722062616c616e6365000000000000\n        /* \"#utility.yul\":12053:12071   */\n      0x44\n      dup3\n      add\n        /* \"#utility.yul\":12046:12102   */\n      mstore\n        /* \"#utility.yul\":12119:12137   */\n      0x64\n      add\n        /* \"StakeFactory.sol\":24342:24413  require(address(this).balance >= _amount, \"Insufficient ether balance\") */\n      tag_261\n        /* \"#utility.yul\":11793:12143   */\n      jump\n        /* \"StakeFactory.sol\":24342:24413  require(address(this).balance >= _amount, \"Insufficient ether balance\") */\n    tag_264:\n        /* \"StakeFactory.sol\":24424:24461  payable(msg.sender).transfer(_amount) */\n      mload(0x40)\n        /* \"StakeFactory.sol\":24432:24442  msg.sender */\n      caller\n      swap1\n        /* \"StakeFactory.sol\":24424:24461  payable(msg.sender).transfer(_amount) */\n      dup3\n      iszero\n      0x08fc\n      mul\n      swap1\n        /* \"StakeFactory.sol\":24453:24460  _amount */\n      dup4\n      swap1\n        /* \"StakeFactory.sol\":24424:24461  payable(msg.sender).transfer(_amount) */\n      0x00\n      dup2\n      dup2\n      dup2\n        /* \"StakeFactory.sol\":24453:24460  _amount */\n      dup6\n        /* \"StakeFactory.sol\":24432:24442  msg.sender */\n      dup9\n        /* \"StakeFactory.sol\":24424:24461  payable(msg.sender).transfer(_amount) */\n      dup9\n      call\n      swap4\n      pop\n      pop\n      pop\n      pop\n      iszero\n      dup1\n      iszero\n      tag_268\n      jumpi\n      returndatasize\n      0x00\n      dup1\n      returndatacopy\n      revert(0x00, returndatasize)\n    tag_268:\n      pop\n        /* \"StakeFactory.sol\":24267:24469  function emergencyWithdrawWei(uint256 _amount) public onlyOwner {... */\n      pop\n      jump\t// out\n        /* \"StakeFactory.sol\":10100:10135  uint256[] public allowedLockPeriods */\n    tag_83:\n      0x13\n      dup2\n      dup2\n      sload\n      dup2\n      lt\n      tag_269\n      jumpi\n      0x00\n      dup1\n      revert\n    tag_269:\n      0x00\n      swap2\n      dup3\n      mstore\n      0x20\n      swap1\n      swap2\n      keccak256\n      add\n      sload\n      swap1\n      pop\n      dup2\n      jump\t// out\n        /* \"StakeFactory.sol\":13210:13887  function pendingRewards(address _address) public view returns (uint256 reward) {... */\n    tag_88:\n        /* \"StakeFactory.sol\":13273:13287  uint256 reward */\n      0x00\n      dup1\n        /* \"StakeFactory.sol\":13350:13365  block.timestamp */\n      timestamp\n        /* \"StakeFactory.sol\":13273:13287  uint256 reward */\n      dup2\n        /* \"StakeFactory.sol\":13376:13849  for (uint256 z = 0; z < depositeToken[_address].length; z++) {... */\n    tag_272:\n      sub(shl(0xa0, 0x01), 0x01)\n        /* \"StakeFactory.sol\":13400:13423  depositeToken[_address] */\n      dup6\n      and\n      0x00\n      swap1\n      dup2\n      mstore\n        /* \"StakeFactory.sol\":13400:13413  depositeToken */\n      0x07\n        /* \"StakeFactory.sol\":13400:13423  depositeToken[_address] */\n      0x20\n      mstore\n      0x40\n      swap1\n      keccak256\n        /* \"StakeFactory.sol\":13400:13430  depositeToken[_address].length */\n      sload\n        /* \"StakeFactory.sol\":13396:13430  z < depositeToken[_address].length */\n      dup2\n      lt\n        /* \"StakeFactory.sol\":13376:13849  for (uint256 z = 0; z < depositeToken[_address].length; z++) {... */\n      iszero\n      tag_273\n      jumpi\n        /* \"StakeFactory.sol\":13528:13532  time */\n      sload(0x12)\n      sub(shl(0xa0, 0x01), 0x01)\n        /* \"StakeFactory.sol\":13500:13522  lockableDays[_address] */\n      dup7\n      and\n        /* \"StakeFactory.sol\":13452:13468  uint256 lockTime */\n      0x00\n        /* \"StakeFactory.sol\":13500:13522  lockableDays[_address] */\n      swap1\n      dup2\n      mstore\n        /* \"StakeFactory.sol\":13500:13512  lockableDays */\n      0x09\n        /* \"StakeFactory.sol\":13500:13522  lockableDays[_address] */\n      0x20\n      mstore\n      0x40\n      dup2\n      keccak256\n        /* \"StakeFactory.sol\":13500:13525  lockableDays[_address][z] */\n      dup1\n      sload\n        /* \"StakeFactory.sol\":13452:13468  uint256 lockTime */\n      swap2\n      swap3\n        /* \"StakeFactory.sol\":13528:13532  time */\n      swap2\n        /* \"StakeFactory.sol\":13523:13524  z */\n      dup5\n      swap1\n        /* \"StakeFactory.sol\":13500:13525  lockableDays[_address][z] */\n      dup2\n      lt\n      tag_276\n      jumpi\n      tag_276\n      tag_277\n      jump\t// in\n    tag_276:\n      swap1\n      0x00\n      mstore\n      keccak256(0x00, 0x20)\n      add\n      sload\n        /* \"StakeFactory.sol\":13500:13532  lockableDays[_address][z] * time */\n      tag_279\n      swap2\n      swap1\n      tag_280\n      jump\t// in\n    tag_279:\n      sub(shl(0xa0, 0x01), 0x01)\n        /* \"StakeFactory.sol\":13471:13493  depositeTime[_address] */\n      dup8\n      and\n      0x00\n      swap1\n      dup2\n      mstore\n        /* \"StakeFactory.sol\":13471:13483  depositeTime */\n      0x0a\n        /* \"StakeFactory.sol\":13471:13493  depositeTime[_address] */\n      0x20\n      mstore\n      0x40\n      swap1\n      keccak256\n        /* \"StakeFactory.sol\":13471:13496  depositeTime[_address][z] */\n      dup1\n      sload\n        /* \"StakeFactory.sol\":13494:13495  z */\n      dup5\n      swap1\n        /* \"StakeFactory.sol\":13471:13496  depositeTime[_address][z] */\n      dup2\n      lt\n      tag_282\n      jumpi\n      tag_282\n      tag_277\n      jump\t// in\n    tag_282:\n      swap1\n      0x00\n      mstore\n      keccak256(0x00, 0x20)\n      add\n      sload\n        /* \"StakeFactory.sol\":13471:13533  depositeTime[_address][z] + (lockableDays[_address][z] * time) */\n      tag_284\n      swap2\n      swap1\n      tag_285\n      jump\t// in\n    tag_284:\n        /* \"StakeFactory.sol\":13452:13533  uint256 lockTime = depositeTime[_address][z] + (lockableDays[_address][z] * time) */\n      swap1\n      pop\n        /* \"StakeFactory.sol\":13566:13574  lockTime */\n      dup1\n        /* \"StakeFactory.sol\":13554:13563  blockTime */\n      dup4\n        /* \"StakeFactory.sol\":13554:13574  blockTime > lockTime */\n      gt\n        /* \"StakeFactory.sol\":13550:13838  if (blockTime > lockTime) {... */\n      iszero\n      tag_286\n      jumpi\n      sub(shl(0xa0, 0x01), 0x01)\n        /* \"StakeFactory.sol\":13663:13685  lockableDays[_address] */\n      dup7\n      and\n        /* \"StakeFactory.sol\":13595:13619  uint256 calculatedReward */\n      0x00\n        /* \"StakeFactory.sol\":13663:13685  lockableDays[_address] */\n      swap1\n      dup2\n      mstore\n        /* \"StakeFactory.sol\":13663:13675  lockableDays */\n      0x09\n        /* \"StakeFactory.sol\":13663:13685  lockableDays[_address] */\n      0x20\n      mstore\n      0x40\n      dup2\n      keccak256\n        /* \"StakeFactory.sol\":13663:13688  lockableDays[_address][z] */\n      dup1\n      sload\n        /* \"StakeFactory.sol\":13693:13698  10000 */\n      0x2710\n      swap2\n        /* \"StakeFactory.sol\":13652:13662  allocation */\n      0x04\n      swap2\n        /* \"StakeFactory.sol\":13595:13619  uint256 calculatedReward */\n      dup5\n      swap2\n        /* \"StakeFactory.sol\":13663:13685  lockableDays[_address] */\n      swap1\n        /* \"StakeFactory.sol\":13686:13687  z */\n      dup8\n      swap1\n        /* \"StakeFactory.sol\":13663:13688  lockableDays[_address][z] */\n      dup2\n      lt\n      tag_288\n      jumpi\n      tag_288\n      tag_277\n      jump\t// in\n    tag_288:\n      swap1\n      0x00\n      mstore\n      keccak256(0x00, 0x20)\n      add\n      sload\n        /* \"StakeFactory.sol\":13652:13689  allocation[lockableDays[_address][z]] */\n      dup2\n      mstore\n      0x20\n      add\n      swap1\n      dup2\n      mstore\n      0x20\n      add\n      0x00\n      keccak256\n      sload\n        /* \"StakeFactory.sol\":13623:13636  depositeToken */\n      0x07\n        /* \"StakeFactory.sol\":13623:13646  depositeToken[_address] */\n      0x00\n        /* \"StakeFactory.sol\":13637:13645  _address */\n      dup11\n      sub(shl(0xa0, 0x01), 0x01)\n        /* \"StakeFactory.sol\":13623:13646  depositeToken[_address] */\n      and\n      sub(shl(0xa0, 0x01), 0x01)\n      and\n      dup2\n      mstore\n      0x20\n      add\n      swap1\n      dup2\n      mstore\n      0x20\n      add\n      0x00\n      keccak256\n        /* \"StakeFactory.sol\":13647:13648  z */\n      dup6\n        /* \"StakeFactory.sol\":13623:13649  depositeToken[_address][z] */\n      dup2\n      sload\n      dup2\n      lt\n      tag_291\n      jumpi\n      tag_291\n      tag_277\n      jump\t// in\n    tag_291:\n      swap1\n      0x00\n      mstore\n      keccak256(0x00, 0x20)\n      add\n      sload\n        /* \"StakeFactory.sol\":13623:13689  depositeToken[_address][z] * allocation[lockableDays[_address][z]] */\n      tag_293\n      swap2\n      swap1\n      tag_280\n      jump\t// in\n    tag_293:\n        /* \"StakeFactory.sol\":13622:13698  (depositeToken[_address][z] * allocation[lockableDays[_address][z]]) / 10000 */\n      tag_294\n      swap2\n      swap1\n      tag_295\n      jump\t// in\n    tag_294:\n        /* \"StakeFactory.sol\":13749:13769  depositTokenDecimals */\n      sload(0x03)\n        /* \"StakeFactory.sol\":13595:13698  uint256 calculatedReward = (depositeToken[_address][z] * allocation[lockableDays[_address][z]]) / 10000 */\n      swap1\n      swap2\n      pop\n        /* \"StakeFactory.sol\":13737:13770  10**uint256(depositTokenDecimals) */\n      tag_296\n      swap1\n      shl(0xa8, 0x01)\n        /* \"StakeFactory.sol\":13749:13769  depositTokenDecimals */\n      swap1\n      div\n      0xff\n      and\n        /* \"StakeFactory.sol\":13737:13739  10 */\n      0x0a\n        /* \"StakeFactory.sol\":13737:13770  10**uint256(depositTokenDecimals) */\n      tag_297\n      jump\t// in\n    tag_296:\n        /* \"StakeFactory.sol\":13717:13770  calculatedReward /= 10**uint256(depositTokenDecimals) */\n      tag_298\n      swap1\n      dup3\n      tag_295\n      jump\t// in\n    tag_298:\n      swap1\n      pop\n        /* \"StakeFactory.sol\":13791:13822  totalReward += calculatedReward */\n      tag_299\n        /* \"StakeFactory.sol\":13717:13770  calculatedReward /= 10**uint256(depositTokenDecimals) */\n      dup2\n        /* \"StakeFactory.sol\":13791:13822  totalReward += calculatedReward */\n      dup7\n      tag_285\n      jump\t// in\n    tag_299:\n      swap5\n      pop\n        /* \"StakeFactory.sol\":13576:13838  {... */\n      pop\n        /* \"StakeFactory.sol\":13550:13838  if (blockTime > lockTime) {... */\n    tag_286:\n      pop\n        /* \"StakeFactory.sol\":13432:13435  z++ */\n      dup1\n      tag_300\n      dup2\n      tag_301\n      jump\t// in\n    tag_300:\n      swap2\n      pop\n      pop\n        /* \"StakeFactory.sol\":13376:13849  for (uint256 z = 0; z < depositeToken[_address].length; z++) {... */\n      jump(tag_272)\n    tag_273:\n      pop\n        /* \"StakeFactory.sol\":13868:13879  totalReward */\n      swap1\n      swap4\n        /* \"StakeFactory.sol\":13210:13887  function pendingRewards(address _address) public view returns (uint256 reward) {... */\n      swap3\n      pop\n      pop\n      pop\n      jump\t// out\n        /* \"StakeFactory.sol\":23377:23589  function getLockPeriodParams(uint256 _days) external view returns (LockPeriodParams memory) {... */\n    tag_105:\n        /* \"StakeFactory.sol\":23444:23467  LockPeriodParams memory */\n      tag_302\n      tag_303\n      jump\t// in\n    tag_302:\n        /* \"StakeFactory.sol\":23488:23514  isLockPeriodAllowed(_days) */\n      tag_305\n        /* \"StakeFactory.sol\":23508:23513  _days */\n      dup3\n        /* \"StakeFactory.sol\":23488:23507  isLockPeriodAllowed */\n      tag_306\n        /* \"StakeFactory.sol\":23488:23514  isLockPeriodAllowed(_days) */\n      jump\t// in\n    tag_305:\n        /* \"StakeFactory.sol\":23480:23540  require(isLockPeriodAllowed(_days), \"Lock period not found\") */\n      tag_307\n      jumpi\n      mload(0x40)\n      shl(0xe5, 0x461bcd)\n      dup2\n      mstore\n      0x04\n      add\n      tag_261\n      swap1\n      tag_309\n      jump\t// in\n    tag_307:\n      pop\n        /* \"StakeFactory.sol\":23558:23581  lockPeriodParams[_days] */\n      0x00\n      swap1\n      dup2\n      mstore\n        /* \"StakeFactory.sol\":23558:23574  lockPeriodParams */\n      0x05\n        /* \"StakeFactory.sol\":23558:23581  lockPeriodParams[_days] */\n      0x20\n      dup2\n      dup2\n      mstore\n      0x40\n      swap3\n      dup4\n      swap1\n      keccak256\n        /* \"StakeFactory.sol\":23551:23581  return lockPeriodParams[_days] */\n      dup4\n      mload\n      0x0120\n      dup2\n      add\n      dup6\n      mstore\n      dup2\n      sload\n      dup2\n      mstore\n      0x01\n      dup3\n      add\n      sload\n      swap3\n      dup2\n      add\n      swap3\n      swap1\n      swap3\n      mstore\n      0x02\n      dup2\n      add\n      sload\n      swap4\n      dup3\n      add\n      swap4\n      swap1\n      swap4\n      mstore\n      0x03\n      dup4\n      add\n      sload\n      0x60\n      dup3\n      add\n      mstore\n      0x04\n      dup4\n      add\n      sload\n      0x80\n      dup3\n      add\n      mstore\n      swap1\n      dup3\n      add\n      sload\n      0xa0\n      dup3\n      add\n      mstore\n      0x06\n      dup3\n      add\n      sload\n      0xc0\n      dup3\n      add\n      mstore\n      0x07\n      dup3\n      add\n      sload\n      0xff\n      and\n      iszero\n      iszero\n      0xe0\n      dup3\n      add\n      mstore\n      0x08\n      swap1\n      swap2\n      add\n      sload\n      0x0100\n      dup3\n      add\n      mstore\n      swap1\n        /* \"StakeFactory.sol\":23377:23589  function getLockPeriodParams(uint256 _days) external view returns (LockPeriodParams memory) {... */\n      jump\t// out\n        /* \"StakeFactory.sol\":20980:21091  function getLockPeriods() external view returns (uint256[] memory) {... */\n    tag_110:\n        /* \"StakeFactory.sol\":21029:21045  uint256[] memory */\n      0x60\n        /* \"StakeFactory.sol\":21065:21083  allowedLockPeriods */\n      0x13\n        /* \"StakeFactory.sol\":21058:21083  return allowedLockPeriods */\n      dup1\n      sload\n      dup1\n      0x20\n      mul\n      0x20\n      add\n      mload(0x40)\n      swap1\n      dup2\n      add\n      0x40\n      mstore\n      dup1\n      swap3\n      swap2\n      swap1\n      dup2\n      dup2\n      mstore\n      0x20\n      add\n      dup3\n      dup1\n      sload\n      dup1\n      iszero\n      tag_311\n      jumpi\n      0x20\n      mul\n      dup3\n      add\n      swap2\n      swap1\n      0x00\n      mstore\n      keccak256(0x00, 0x20)\n      swap1\n    tag_312:\n      dup2\n      sload\n      dup2\n      mstore\n      0x20\n      add\n      swap1\n      0x01\n      add\n      swap1\n      dup1\n      dup4\n      gt\n      tag_312\n      jumpi\n    tag_311:\n      pop\n      pop\n      pop\n      pop\n      pop\n      swap1\n      pop\n        /* \"StakeFactory.sol\":20980:21091  function getLockPeriods() external view returns (uint256[] memory) {... */\n      swap1\n      jump\t// out\n        /* \"StakeFactory.sol\":14359:14847  function getUsers(uint256 _offset, uint256 _limit) public view returns(UserInfo[] memory ret) {... */\n    tag_117:\n        /* \"StakeFactory.sol\":14430:14451  UserInfo[] memory ret */\n      0x60\n        /* \"StakeFactory.sol\":14468:14479  _limit == 0 */\n      dup2\n        /* \"StakeFactory.sol\":14464:14500  if (_limit == 0) _limit = usersCount */\n      tag_314\n      jumpi\n        /* \"StakeFactory.sol\":14490:14500  usersCount */\n      sload(0x0f)\n        /* \"StakeFactory.sol\":14481:14500  _limit = usersCount */\n      swap2\n      pop\n        /* \"StakeFactory.sol\":14464:14500  if (_limit == 0) _limit = usersCount */\n    tag_314:\n        /* \"StakeFactory.sol\":14511:14523  uint256 iEnd */\n      0x00\n        /* \"StakeFactory.sol\":14526:14542  _offset + _limit */\n      tag_315\n        /* \"StakeFactory.sol\":14536:14542  _limit */\n      dup4\n        /* \"StakeFactory.sol\":14526:14533  _offset */\n      dup6\n        /* \"StakeFactory.sol\":14526:14542  _offset + _limit */\n      tag_285\n      jump\t// in\n    tag_315:\n        /* \"StakeFactory.sol\":14511:14542  uint256 iEnd = _offset + _limit */\n      swap1\n      pop\n        /* \"StakeFactory.sol\":14620:14634  iEnd - _offset */\n      tag_317\n        /* \"StakeFactory.sol\":14627:14634  _offset */\n      dup5\n        /* \"StakeFactory.sol\":14620:14624  iEnd */\n      dup3\n        /* \"StakeFactory.sol\":14620:14634  iEnd - _offset */\n      tag_318\n      jump\t// in\n    tag_317:\n        /* \"StakeFactory.sol\":14605:14635  new UserInfo[](iEnd - _offset) */\n      0xffffffffffffffff\n      dup2\n      gt\n      iszero\n      tag_320\n      jumpi\n      tag_320\n      tag_321\n      jump\t// in\n    tag_320:\n      mload(0x40)\n      swap1\n      dup1\n      dup3\n      mstore\n      dup1\n      0x20\n      mul\n      0x20\n      add\n      dup3\n      add\n      0x40\n      mstore\n      dup1\n      iszero\n      tag_322\n      jumpi\n      dup2\n      0x20\n      add\n    tag_323:\n      tag_324\n      tag_325\n      jump\t// in\n    tag_324:\n      dup2\n      mstore\n      0x20\n      add\n      swap1\n      0x01\n      swap1\n      sub\n      swap1\n      dup2\n      tag_323\n      jumpi\n      swap1\n      pop\n    tag_322:\n      pop\n        /* \"StakeFactory.sol\":14599:14635  ret = new UserInfo[](iEnd - _offset) */\n      swap2\n      pop\n        /* \"StakeFactory.sol\":14651:14660  uint256 i */\n      0x00\n        /* \"StakeFactory.sol\":14646:14840  for (uint256 i = 0; i < iEnd - _offset ; i++) {... */\n    tag_326:\n        /* \"StakeFactory.sol\":14670:14684  iEnd - _offset */\n      tag_329\n        /* \"StakeFactory.sol\":14677:14684  _offset */\n      dup6\n        /* \"StakeFactory.sol\":14670:14674  iEnd */\n      dup4\n        /* \"StakeFactory.sol\":14670:14684  iEnd - _offset */\n      tag_318\n      jump\t// in\n    tag_329:\n        /* \"StakeFactory.sol\":14666:14667  i */\n      dup2\n        /* \"StakeFactory.sol\":14666:14684  i < iEnd - _offset */\n      lt\n        /* \"StakeFactory.sol\":14646:14840  for (uint256 i = 0; i < iEnd - _offset ; i++) {... */\n      iszero\n      tag_327\n      jumpi\n        /* \"StakeFactory.sol\":14716:14828  getUser(... */\n      tag_330\n        /* \"StakeFactory.sol\":14742:14747  users */\n      0x0e\n        /* \"StakeFactory.sol\":14742:14813  users[... */\n      0x00\n        /* \"StakeFactory.sol\":14787:14794  _offset */\n      dup8\n        /* \"StakeFactory.sol\":14783:14784  i */\n      dup5\n        /* \"StakeFactory.sol\":14770:14780  usersCount */\n      sload(0x0f)\n        /* \"StakeFactory.sol\":14770:14784  usersCount - i */\n      tag_331\n      swap2\n      swap1\n      tag_318\n      jump\t// in\n    tag_331:\n        /* \"StakeFactory.sol\":14770:14794  usersCount - i - _offset */\n      tag_332\n      swap2\n      swap1\n      tag_318\n      jump\t// in\n    tag_332:\n        /* \"StakeFactory.sol\":14742:14813  users[... */\n      dup2\n      mstore\n      0x20\n      dup2\n      add\n      swap2\n      swap1\n      swap2\n      mstore\n      0x40\n      add\n      0x00\n      keccak256\n      sload\n      sub(shl(0xa0, 0x01), 0x01)\n      and\n        /* \"StakeFactory.sol\":14716:14723  getUser */\n      tag_157\n        /* \"StakeFactory.sol\":14716:14828  getUser(... */\n      jump\t// in\n    tag_330:\n        /* \"StakeFactory.sol\":14707:14710  ret */\n      dup4\n        /* \"StakeFactory.sol\":14711:14712  i */\n      dup3\n        /* \"StakeFactory.sol\":14707:14713  ret[i] */\n      dup2\n      mload\n      dup2\n      lt\n      tag_334\n      jumpi\n      tag_334\n      tag_277\n      jump\t// in\n    tag_334:\n      0x20\n      mul\n      0x20\n      add\n      add\n        /* \"StakeFactory.sol\":14707:14828  ret[i] = getUser(... */\n      dup2\n      swap1\n      mstore\n      pop\n        /* \"StakeFactory.sol\":14687:14690  i++ */\n      dup1\n      dup1\n      tag_335\n      swap1\n      tag_301\n      jump\t// in\n    tag_335:\n      swap2\n      pop\n      pop\n        /* \"StakeFactory.sol\":14646:14840  for (uint256 i = 0; i < iEnd - _offset ; i++) {... */\n      jump(tag_326)\n    tag_327:\n      pop\n        /* \"StakeFactory.sol\":14453:14847  {... */\n      pop\n        /* \"StakeFactory.sol\":14359:14847  function getUsers(uint256 _offset, uint256 _limit) public view returns(UserInfo[] memory ret) {... */\n      swap3\n      swap2\n      pop\n      pop\n      jump\t// out\n        /* \"StakeFactory.sol\":20126:20851  function removeLockPeriod(uint256 _days) external onlyOwner {... */\n    tag_123:\n        /* \"StakeFactory.sol\":7912:7918  _owner */\n      and(sub(shl(0xa0, 0x01), 0x01), sload(0x00))\n        /* \"StakeFactory.sol\":7922:7932  msg.sender */\n      caller\n        /* \"StakeFactory.sol\":7912:7932  _owner == msg.sender */\n      eq\n        /* \"StakeFactory.sol\":7904:7969  require(_owner == msg.sender, \"Ownable: caller is not the owner\") */\n      tag_337\n      jumpi\n      mload(0x40)\n      shl(0xe5, 0x461bcd)\n      dup2\n      mstore\n      0x04\n      add\n      tag_261\n      swap1\n      tag_262\n      jump\t// in\n    tag_337:\n        /* \"StakeFactory.sol\":20205:20231  isLockPeriodAllowed(_days) */\n      tag_340\n        /* \"StakeFactory.sol\":20225:20230  _days */\n      dup2\n        /* \"StakeFactory.sol\":20205:20224  isLockPeriodAllowed */\n      tag_306\n        /* \"StakeFactory.sol\":20205:20231  isLockPeriodAllowed(_days) */\n      jump\t// in\n    tag_340:\n        /* \"StakeFactory.sol\":20197:20257  require(isLockPeriodAllowed(_days), \"Lock period not found\") */\n      tag_341\n      jumpi\n      mload(0x40)\n      shl(0xe5, 0x461bcd)\n      dup2\n      mstore\n      0x04\n      add\n      tag_261\n      swap1\n      tag_309\n      jump\t// in\n    tag_341:\n        /* \"StakeFactory.sol\":20270:20291  uint256 indexToRemove */\n      0x00\n      dup1\n      dup1\n        /* \"StakeFactory.sol\":20333:20558  for (uint256 i = 0; i < allowedLockPeriods.length; i++) {... */\n    tag_343:\n        /* \"StakeFactory.sol\":20357:20375  allowedLockPeriods */\n      0x13\n        /* \"StakeFactory.sol\":20357:20382  allowedLockPeriods.length */\n      sload\n        /* \"StakeFactory.sol\":20353:20382  i < allowedLockPeriods.length */\n      dup2\n      lt\n        /* \"StakeFactory.sol\":20333:20558  for (uint256 i = 0; i < allowedLockPeriods.length; i++) {... */\n      iszero\n      tag_344\n      jumpi\n        /* \"StakeFactory.sol\":20433:20438  _days */\n      dup4\n        /* \"StakeFactory.sol\":20408:20426  allowedLockPeriods */\n      0x13\n        /* \"StakeFactory.sol\":20427:20428  i */\n      dup3\n        /* \"StakeFactory.sol\":20408:20429  allowedLockPeriods[i] */\n      dup2\n      sload\n      dup2\n      lt\n      tag_347\n      jumpi\n      tag_347\n      tag_277\n      jump\t// in\n    tag_347:\n      swap1\n      0x00\n      mstore\n      keccak256(0x00, 0x20)\n      add\n      sload\n        /* \"StakeFactory.sol\":20408:20438  allowedLockPeriods[i] == _days */\n      eq\n        /* \"StakeFactory.sol\":20404:20547  if (allowedLockPeriods[i] == _days) {... */\n      iszero\n      tag_349\n      jumpi\n        /* \"StakeFactory.sol\":20475:20476  i */\n      dup1\n        /* \"StakeFactory.sol\":20459:20476  indexToRemove = i */\n      swap3\n      pop\n        /* \"StakeFactory.sol\":20503:20507  true */\n      0x01\n        /* \"StakeFactory.sol\":20495:20507  found = true */\n      swap2\n      pop\n        /* \"StakeFactory.sol\":20526:20531  break */\n      jump(tag_344)\n        /* \"StakeFactory.sol\":20404:20547  if (allowedLockPeriods[i] == _days) {... */\n    tag_349:\n        /* \"StakeFactory.sol\":20384:20387  i++ */\n      dup1\n      tag_350\n      dup2\n      tag_301\n      jump\t// in\n    tag_350:\n      swap2\n      pop\n      pop\n        /* \"StakeFactory.sol\":20333:20558  for (uint256 i = 0; i < allowedLockPeriods.length; i++) {... */\n      jump(tag_343)\n    tag_344:\n      pop\n        /* \"StakeFactory.sol\":20578:20583  found */\n      dup1\n        /* \"StakeFactory.sol\":20570:20609  require(found, \"Lock period not found\") */\n      tag_351\n      jumpi\n      mload(0x40)\n      shl(0xe5, 0x461bcd)\n      dup2\n      mstore\n      0x04\n      add\n      tag_261\n      swap1\n      tag_309\n      jump\t// in\n    tag_351:\n        /* \"StakeFactory.sol\":20627:20650  lockPeriodParams[_days] */\n      0x00\n      dup4\n      dup2\n      mstore\n        /* \"StakeFactory.sol\":20627:20643  lockPeriodParams */\n      0x05\n        /* \"StakeFactory.sol\":20627:20650  lockPeriodParams[_days] */\n      0x20\n      dup2\n      swap1\n      mstore\n      0x40\n      dup3\n      keccak256\n        /* \"StakeFactory.sol\":20620:20650  delete lockPeriodParams[_days] */\n      dup3\n      dup2\n      sstore\n      0x01\n      dup2\n      add\n      dup4\n      swap1\n      sstore\n      0x02\n      dup2\n      add\n      dup4\n      swap1\n      sstore\n      0x03\n      dup2\n      add\n      dup4\n      swap1\n      sstore\n      0x04\n      dup2\n      add\n      dup4\n      swap1\n      sstore\n      swap1\n      dup2\n      add\n      dup3\n      swap1\n      sstore\n      0x06\n      dup2\n      add\n      dup3\n      swap1\n      sstore\n      0x07\n      dup2\n      add\n      dup1\n      sload\n      not(0xff)\n      and\n      swap1\n      sstore\n      0x08\n      add\n      sstore\n        /* \"StakeFactory.sol\":20678:20691  indexToRemove */\n      dup2\n        /* \"StakeFactory.sol\":20661:20809  for (uint256 i = indexToRemove; i < allowedLockPeriods.length - 1; i++) {... */\n    tag_353:\n        /* \"StakeFactory.sol\":20697:20715  allowedLockPeriods */\n      0x13\n        /* \"StakeFactory.sol\":20697:20722  allowedLockPeriods.length */\n      sload\n        /* \"StakeFactory.sol\":20697:20726  allowedLockPeriods.length - 1 */\n      tag_356\n      swap1\n        /* \"StakeFactory.sol\":20725:20726  1 */\n      0x01\n      swap1\n        /* \"StakeFactory.sol\":20697:20726  allowedLockPeriods.length - 1 */\n      tag_318\n      jump\t// in\n    tag_356:\n        /* \"StakeFactory.sol\":20693:20694  i */\n      dup2\n        /* \"StakeFactory.sol\":20693:20726  i < allowedLockPeriods.length - 1 */\n      lt\n        /* \"StakeFactory.sol\":20661:20809  for (uint256 i = indexToRemove; i < allowedLockPeriods.length - 1; i++) {... */\n      iszero\n      tag_354\n      jumpi\n        /* \"StakeFactory.sol\":20772:20790  allowedLockPeriods */\n      0x13\n        /* \"StakeFactory.sol\":20791:20796  i + 1 */\n      tag_357\n        /* \"StakeFactory.sol\":20791:20792  i */\n      dup3\n        /* \"StakeFactory.sol\":20795:20796  1 */\n      0x01\n        /* \"StakeFactory.sol\":20791:20796  i + 1 */\n      tag_285\n      jump\t// in\n    tag_357:\n        /* \"StakeFactory.sol\":20772:20797  allowedLockPeriods[i + 1] */\n      dup2\n      sload\n      dup2\n      lt\n      tag_359\n      jumpi\n      tag_359\n      tag_277\n      jump\t// in\n    tag_359:\n      swap1\n      0x00\n      mstore\n      keccak256(0x00, 0x20)\n      add\n      sload\n        /* \"StakeFactory.sol\":20748:20766  allowedLockPeriods */\n      0x13\n        /* \"StakeFactory.sol\":20767:20768  i */\n      dup3\n        /* \"StakeFactory.sol\":20748:20769  allowedLockPeriods[i] */\n      dup2\n      sload\n      dup2\n      lt\n      tag_362\n      jumpi\n      tag_362\n      tag_277\n      jump\t// in\n    tag_362:\n      0x00\n      swap2\n      dup3\n      mstore\n      0x20\n      swap1\n      swap2\n      keccak256\n      add\n        /* \"StakeFactory.sol\":20748:20797  allowedLockPeriods[i] = allowedLockPeriods[i + 1] */\n      sstore\n        /* \"StakeFactory.sol\":20728:20731  i++ */\n      dup1\n      tag_364\n      dup2\n      tag_301\n      jump\t// in\n    tag_364:\n      swap2\n      pop\n      pop\n        /* \"StakeFactory.sol\":20661:20809  for (uint256 i = indexToRemove; i < allowedLockPeriods.length - 1; i++) {... */\n      jump(tag_353)\n    tag_354:\n      pop\n        /* \"StakeFactory.sol\":20819:20837  allowedLockPeriods */\n      0x13\n        /* \"StakeFactory.sol\":20819:20843  allowedLockPeriods.pop() */\n      dup1\n      sload\n      dup1\n      tag_366\n      jumpi\n      tag_366\n      tag_367\n      jump\t// in\n    tag_366:\n      0x01\n      swap1\n      sub\n      dup2\n      dup2\n      swap1\n      0x00\n      mstore\n      keccak256(0x00, 0x20)\n      add\n      0x00\n      swap1\n      sstore\n      swap1\n      sstore\n        /* \"StakeFactory.sol\":20186:20851  {... */\n      pop\n      pop\n        /* \"StakeFactory.sol\":20126:20851  function removeLockPeriod(uint256 _days) external onlyOwner {... */\n      pop\n      jump\t// out\n        /* \"StakeFactory.sol\":24477:24721  function addSpam(address _addr) public onlyOwner {... */\n    tag_127:\n        /* \"StakeFactory.sol\":7912:7918  _owner */\n      and(sub(shl(0xa0, 0x01), 0x01), sload(0x00))\n        /* \"StakeFactory.sol\":7922:7932  msg.sender */\n      caller\n        /* \"StakeFactory.sol\":7912:7932  _owner == msg.sender */\n      eq\n        /* \"StakeFactory.sol\":7904:7969  require(_owner == msg.sender, \"Ownable: caller is not the owner\") */\n      tag_370\n      jumpi\n      mload(0x40)\n      shl(0xe5, 0x461bcd)\n      dup2\n      mstore\n      0x04\n      add\n      tag_261\n      swap1\n      tag_262\n      jump\t// in\n    tag_370:\n      sub(shl(0xa0, 0x01), 0x01)\n        /* \"StakeFactory.sol\":24545:24564  _addr != address(0) */\n      dup2\n      and\n        /* \"StakeFactory.sol\":24537:24584  require(_addr != address(0), \"Invalid address\") */\n      tag_373\n      jumpi\n      mload(0x40)\n      shl(0xe5, 0x461bcd)\n      dup2\n      mstore\n        /* \"#utility.yul\":15268:15270   */\n      0x20\n        /* \"StakeFactory.sol\":24537:24584  require(_addr != address(0), \"Invalid address\") */\n      0x04\n      dup3\n      add\n        /* \"#utility.yul\":15250:15271   */\n      mstore\n        /* \"#utility.yul\":15307:15309   */\n      0x0f\n        /* \"#utility.yul\":15287:15305   */\n      0x24\n      dup3\n      add\n        /* \"#utility.yul\":15280:15310   */\n      mstore\n      shl(0x88, 0x496e76616c69642061646472657373)\n        /* \"#utility.yul\":15326:15344   */\n      0x44\n      dup3\n      add\n        /* \"#utility.yul\":15319:15364   */\n      mstore\n        /* \"#utility.yul\":15381:15399   */\n      0x64\n      add\n        /* \"StakeFactory.sol\":24537:24584  require(_addr != address(0), \"Invalid address\") */\n      tag_261\n        /* \"#utility.yul\":15066:15405   */\n      jump\n        /* \"StakeFactory.sol\":24537:24584  require(_addr != address(0), \"Invalid address\") */\n    tag_373:\n      sub(shl(0xa0, 0x01), 0x01)\n        /* \"StakeFactory.sol\":24646:24659  isSpam[_addr] */\n      and\n      0x00\n      swap1\n      dup2\n      mstore\n        /* \"StakeFactory.sol\":24646:24652  isSpam */\n      0x10\n        /* \"StakeFactory.sol\":24646:24659  isSpam[_addr] */\n      0x20\n      mstore\n      0x40\n      swap1\n      keccak256\n        /* \"StakeFactory.sol\":24646:24666  isSpam[_addr] = true */\n      dup1\n      sload\n      not(0xff)\n      and\n        /* \"StakeFactory.sol\":24662:24666  true */\n      0x01\n        /* \"StakeFactory.sol\":24646:24666  isSpam[_addr] = true */\n      or\n      swap1\n      sstore\n        /* \"StakeFactory.sol\":24477:24721  function addSpam(address _addr) public onlyOwner {... */\n      jump\t// out\n        /* \"StakeFactory.sol\":24729:24974  function removeSpam(address _addr) public onlyOwner {... */\n    tag_131:\n        /* \"StakeFactory.sol\":7912:7918  _owner */\n      and(sub(shl(0xa0, 0x01), 0x01), sload(0x00))\n        /* \"StakeFactory.sol\":7922:7932  msg.sender */\n      caller\n        /* \"StakeFactory.sol\":7912:7932  _owner == msg.sender */\n      eq\n        /* \"StakeFactory.sol\":7904:7969  require(_owner == msg.sender, \"Ownable: caller is not the owner\") */\n      tag_377\n      jumpi\n      mload(0x40)\n      shl(0xe5, 0x461bcd)\n      dup2\n      mstore\n      0x04\n      add\n      tag_261\n      swap1\n      tag_262\n      jump\t// in\n    tag_377:\n      sub(shl(0xa0, 0x01), 0x01)\n        /* \"StakeFactory.sol\":24800:24819  _addr != address(0) */\n      dup2\n      and\n        /* \"StakeFactory.sol\":24792:24839  require(_addr != address(0), \"Invalid address\") */\n      tag_380\n      jumpi\n      mload(0x40)\n      shl(0xe5, 0x461bcd)\n      dup2\n      mstore\n        /* \"#utility.yul\":15268:15270   */\n      0x20\n        /* \"StakeFactory.sol\":24792:24839  require(_addr != address(0), \"Invalid address\") */\n      0x04\n      dup3\n      add\n        /* \"#utility.yul\":15250:15271   */\n      mstore\n        /* \"#utility.yul\":15307:15309   */\n      0x0f\n        /* \"#utility.yul\":15287:15305   */\n      0x24\n      dup3\n      add\n        /* \"#utility.yul\":15280:15310   */\n      mstore\n      shl(0x88, 0x496e76616c69642061646472657373)\n        /* \"#utility.yul\":15326:15344   */\n      0x44\n      dup3\n      add\n        /* \"#utility.yul\":15319:15364   */\n      mstore\n        /* \"#utility.yul\":15381:15399   */\n      0x64\n      add\n        /* \"StakeFactory.sol\":24792:24839  require(_addr != address(0), \"Invalid address\") */\n      tag_261\n        /* \"#utility.yul\":15066:15405   */\n      jump\n        /* \"StakeFactory.sol\":24792:24839  require(_addr != address(0), \"Invalid address\") */\n    tag_380:\n      sub(shl(0xa0, 0x01), 0x01)\n        /* \"StakeFactory.sol\":24901:24914  isSpam[_addr] */\n      and\n        /* \"StakeFactory.sol\":24917:24922  false */\n      0x00\n        /* \"StakeFactory.sol\":24901:24914  isSpam[_addr] */\n      swap1\n      dup2\n      mstore\n        /* \"StakeFactory.sol\":24901:24907  isSpam */\n      0x10\n        /* \"StakeFactory.sol\":24901:24914  isSpam[_addr] */\n      0x20\n      mstore\n      0x40\n      swap1\n      keccak256\n        /* \"StakeFactory.sol\":24901:24922  isSpam[_addr] = false */\n      dup1\n      sload\n      not(0xff)\n      and\n      swap1\n      sstore\n        /* \"StakeFactory.sol\":24729:24974  function removeSpam(address _addr) public onlyOwner {... */\n      jump\t// out\n        /* \"StakeFactory.sol\":21865:22280  function getRewardTokenInfo() public view returns (... */\n    tag_139:\n        /* \"StakeFactory.sol\":22083:22094  rewardToken */\n      sload(0x03)\n        /* \"StakeFactory.sol\":22113:22131  rewardToken.name() */\n      0x40\n      dup1\n      mload\n      shl(0xe0, 0x06fdde03)\n      dup2\n      mstore\n      swap1\n      mload\n      sub(shl(0xa0, 0x01), 0x01)\n        /* \"StakeFactory.sol\":22083:22094  rewardToken */\n      swap1\n      swap3\n      and\n      swap2\n        /* \"StakeFactory.sol\":21949:21967  string memory name */\n      0x60\n      swap2\n      dup3\n      swap2\n        /* \"StakeFactory.sol\":21926:21938  address addr */\n      0x00\n      swap2\n      dup3\n      swap2\n        /* \"StakeFactory.sol\":22083:22094  rewardToken */\n      dup7\n      swap2\n        /* \"StakeFactory.sol\":22113:22129  rewardToken.name */\n      0x06fdde03\n      swap2\n        /* \"StakeFactory.sol\":22113:22131  rewardToken.name() */\n      0x04\n      dup1\n      dup4\n      add\n      swap3\n        /* \"StakeFactory.sol\":21926:21938  address addr */\n      dup7\n      swap3\n        /* \"StakeFactory.sol\":22113:22131  rewardToken.name() */\n      swap2\n      swap1\n      dup3\n      swap1\n      sub\n      add\n      dup2\n        /* \"StakeFactory.sol\":22083:22094  rewardToken */\n      dup7\n        /* \"StakeFactory.sol\":22113:22131  rewardToken.name() */\n      gas\n      staticcall\n      iszero\n      dup1\n      iszero\n      tag_385\n      jumpi\n      returndatasize\n      0x00\n      dup1\n      returndatacopy\n      revert(0x00, returndatasize)\n    tag_385:\n      pop\n      pop\n      pop\n      pop\n      mload(0x40)\n      returndatasize\n      0x00\n      dup3\n      returndatacopy\n      0x1f\n      returndatasize\n      swap1\n      dup2\n      add\n      not(0x1f)\n      and\n      dup3\n      add\n      0x40\n      mstore\n      tag_386\n      swap2\n      swap1\n      dup2\n      add\n      swap1\n      tag_387\n      jump\t// in\n    tag_386:\n        /* \"StakeFactory.sol\":22106:22131  name = rewardToken.name() */\n      swap4\n      pop\n        /* \"StakeFactory.sol\":22151:22162  rewardToken */\n      0x03\n      0x00\n      swap1\n      sload\n      swap1\n      0x0100\n      exp\n      swap1\n      div\n      sub(shl(0xa0, 0x01), 0x01)\n      and\n      sub(shl(0xa0, 0x01), 0x01)\n        /* \"StakeFactory.sol\":22151:22169  rewardToken.symbol */\n      and\n      0x95d89b41\n        /* \"StakeFactory.sol\":22151:22171  rewardToken.symbol() */\n      mload(0x40)\n      dup2\n      0xffffffff\n      and\n      0xe0\n      shl\n      dup2\n      mstore\n      0x04\n      add\n      0x00\n      mload(0x40)\n      dup1\n      dup4\n      sub\n      dup2\n      dup7\n      gas\n      staticcall\n      iszero\n      dup1\n      iszero\n      tag_389\n      jumpi\n      returndatasize\n      0x00\n      dup1\n      returndatacopy\n      revert(0x00, returndatasize)\n    tag_389:\n      pop\n      pop\n      pop\n      pop\n      mload(0x40)\n      returndatasize\n      0x00\n      dup3\n      returndatacopy\n      0x1f\n      returndatasize\n      swap1\n      dup2\n      add\n      not(0x1f)\n      and\n      dup3\n      add\n      0x40\n      mstore\n      tag_390\n      swap2\n      swap1\n      dup2\n      add\n      swap1\n      tag_387\n      jump\t// in\n    tag_390:\n        /* \"StakeFactory.sol\":22142:22171  symbol = rewardToken.symbol() */\n      swap3\n      pop\n        /* \"StakeFactory.sol\":22193:22204  rewardToken */\n      0x03\n      0x00\n      swap1\n      sload\n      swap1\n      0x0100\n      exp\n      swap1\n      div\n      sub(shl(0xa0, 0x01), 0x01)\n      and\n      sub(shl(0xa0, 0x01), 0x01)\n        /* \"StakeFactory.sol\":22193:22213  rewardToken.decimals */\n      and\n      0x313ce567\n        /* \"StakeFactory.sol\":22193:22215  rewardToken.decimals() */\n      mload(0x40)\n      dup2\n      0xffffffff\n      and\n      0xe0\n      shl\n      dup2\n      mstore\n      0x04\n      add\n      0x20\n      mload(0x40)\n      dup1\n      dup4\n      sub\n      dup2\n      dup7\n      gas\n      staticcall\n      iszero\n      dup1\n      iszero\n      tag_392\n      jumpi\n      returndatasize\n      0x00\n      dup1\n      returndatacopy\n      revert(0x00, returndatasize)\n    tag_392:\n      pop\n      pop\n      pop\n      pop\n      mload(0x40)\n      returndatasize\n      not(0x1f)\n      0x1f\n      dup3\n      add\n      and\n      dup3\n      add\n      dup1\n      0x40\n      mstore\n      pop\n      dup2\n      add\n      swap1\n      tag_393\n      swap2\n      swap1\n      tag_394\n      jump\t// in\n    tag_393:\n        /* \"StakeFactory.sol\":22236:22247  rewardToken */\n      sload(0x03)\n        /* \"StakeFactory.sol\":22236:22272  rewardToken.balanceOf(address(this)) */\n      mload(0x40)\n      shl(0xe0, 0x70a08231)\n      dup2\n      mstore\n        /* \"StakeFactory.sol\":22266:22270  this */\n      address\n        /* \"StakeFactory.sol\":22236:22272  rewardToken.balanceOf(address(this)) */\n      0x04\n      dup3\n      add\n        /* \"#utility.yul\":915:966   */\n      mstore\n        /* \"StakeFactory.sol\":22182:22215  decimals = rewardToken.decimals() */\n      swap2\n      swap4\n      pop\n      sub(shl(0xa0, 0x01), 0x01)\n        /* \"StakeFactory.sol\":22236:22247  rewardToken */\n      and\n      swap1\n        /* \"StakeFactory.sol\":22236:22257  rewardToken.balanceOf */\n      0x70a08231\n      swap1\n        /* \"#utility.yul\":888:906   */\n      0x24\n      add\n        /* \"StakeFactory.sol\":22236:22272  rewardToken.balanceOf(address(this)) */\n    tag_395:\n      0x20\n      mload(0x40)\n      dup1\n      dup4\n      sub\n      dup2\n      dup7\n      gas\n      staticcall\n      iszero\n      dup1\n      iszero\n      tag_397\n      jumpi\n      returndatasize\n      0x00\n      dup1\n      returndatacopy\n      revert(0x00, returndatasize)\n    tag_397:\n      pop\n      pop\n      pop\n      pop\n      mload(0x40)\n      returndatasize\n      not(0x1f)\n      0x1f\n      dup3\n      add\n      and\n      dup3\n      add\n      dup1\n      0x40\n      mstore\n      pop\n      dup2\n      add\n      swap1\n      tag_398\n      swap2\n      swap1\n      tag_399\n      jump\t// in\n    tag_398:\n        /* \"StakeFactory.sol\":22226:22272  balance = rewardToken.balanceOf(address(this)) */\n      swap1\n      pop\n        /* \"StakeFactory.sol\":21865:22280  function getRewardTokenInfo() public view returns (... */\n      swap1\n      swap2\n      swap3\n      swap4\n      swap5\n      jump\t// out\n        /* \"StakeFactory.sol\":23696:23910  function setDeductionPercentage(uint256 percentageBasisPoints) public onlyOwner {... */\n    tag_145:\n        /* \"StakeFactory.sol\":7912:7918  _owner */\n      and(sub(shl(0xa0, 0x01), 0x01), sload(0x00))\n        /* \"StakeFactory.sol\":7922:7932  msg.sender */\n      caller\n        /* \"StakeFactory.sol\":7912:7932  _owner == msg.sender */\n      eq\n        /* \"StakeFactory.sol\":7904:7969  require(_owner == msg.sender, \"Ownable: caller is not the owner\") */\n      tag_401\n      jumpi\n      mload(0x40)\n      shl(0xe5, 0x461bcd)\n      dup2\n      mstore\n      0x04\n      add\n      tag_261\n      swap1\n      tag_262\n      jump\t// in\n    tag_401:\n        /* \"StakeFactory.sol\":23820:23825  10000 */\n      0x2710\n        /* \"StakeFactory.sol\":23795:23816  percentageBasisPoints */\n      dup2\n        /* \"StakeFactory.sol\":23795:23825  percentageBasisPoints <= 10000 */\n      gt\n      iszero\n        /* \"StakeFactory.sol\":23787:23848  require(percentageBasisPoints <= 10000, \"Invalid percentage\") */\n      tag_404\n      jumpi\n      mload(0x40)\n      shl(0xe5, 0x461bcd)\n      dup2\n      mstore\n        /* \"#utility.yul\":16790:16792   */\n      0x20\n        /* \"StakeFactory.sol\":23787:23848  require(percentageBasisPoints <= 10000, \"Invalid percentage\") */\n      0x04\n      dup3\n      add\n        /* \"#utility.yul\":16772:16793   */\n      mstore\n        /* \"#utility.yul\":16829:16831   */\n      0x12\n        /* \"#utility.yul\":16809:16827   */\n      0x24\n      dup3\n      add\n        /* \"#utility.yul\":16802:16832   */\n      mstore\n      shl(0x70, 0x496e76616c69642070657263656e74616765)\n        /* \"#utility.yul\":16848:16866   */\n      0x44\n      dup3\n      add\n        /* \"#utility.yul\":16841:16889   */\n      mstore\n        /* \"#utility.yul\":16906:16924   */\n      0x64\n      add\n        /* \"StakeFactory.sol\":23787:23848  require(percentageBasisPoints <= 10000, \"Invalid percentage\") */\n      tag_261\n        /* \"#utility.yul\":16588:16930   */\n      jump\n        /* \"StakeFactory.sol\":23787:23848  require(percentageBasisPoints <= 10000, \"Invalid percentage\") */\n    tag_404:\n        /* \"StakeFactory.sol\":23859:23878  deductionPercentage */\n      0x11\n        /* \"StakeFactory.sol\":23859:23902  deductionPercentage = percentageBasisPoints */\n      sstore\n        /* \"StakeFactory.sol\":23696:23910  function setDeductionPercentage(uint256 percentageBasisPoints) public onlyOwner {... */\n      jump\t// out\n        /* \"StakeFactory.sol\":13895:14353  function getUser(address user) public view returns (UserInfo memory info) {... */\n    tag_157:\n        /* \"StakeFactory.sol\":13947:13967  UserInfo memory info */\n      tag_407\n      tag_325\n      jump\t// in\n    tag_407:\n        /* \"StakeFactory.sol\":13987:14345  UserInfo({... */\n      0x40\n      dup1\n      mload\n      0xe0\n      dup2\n      add\n      dup3\n      mstore\n      sub(shl(0xa0, 0x01), 0x01)\n      dup5\n      and\n      dup1\n      dup3\n      mstore\n      0x00\n        /* \"StakeFactory.sol\":14059:14084  depositeTokensTotal[user] */\n      dup2\n      dup2\n      mstore\n        /* \"StakeFactory.sol\":14059:14078  depositeTokensTotal */\n      0x08\n        /* \"StakeFactory.sol\":13987:14345  UserInfo({... */\n      0x20\n        /* \"StakeFactory.sol\":14059:14084  depositeTokensTotal[user] */\n      swap1\n      dup2\n      mstore\n      dup5\n      dup3\n      keccak256\n      sload\n        /* \"StakeFactory.sol\":13987:14345  UserInfo({... */\n      dup2\n      dup6\n      add\n      mstore\n        /* \"StakeFactory.sol\":14112:14129  lastUpdated[user] */\n      dup3\n      dup3\n      mstore\n        /* \"StakeFactory.sol\":14112:14123  lastUpdated */\n      0x0c\n        /* \"StakeFactory.sol\":14112:14129  lastUpdated[user] */\n      dup2\n      mstore\n      dup5\n      dup3\n      keccak256\n      sload\n        /* \"StakeFactory.sol\":13987:14345  UserInfo({... */\n      dup5\n      dup7\n      add\n      mstore\n        /* \"StakeFactory.sol\":14158:14176  lockableDays[user] */\n      swap2\n      dup2\n      mstore\n        /* \"StakeFactory.sol\":14158:14170  lockableDays */\n      0x09\n        /* \"StakeFactory.sol\":14158:14176  lockableDays[user] */\n      dup3\n      mstore\n      dup4\n      swap1\n      keccak256\n        /* \"StakeFactory.sol\":13987:14345  UserInfo({... */\n      dup1\n      sload\n      dup5\n      mload\n      dup2\n      dup5\n      mul\n      dup2\n      add\n      dup5\n      add\n      swap1\n      swap6\n      mstore\n      dup1\n      dup6\n      mstore\n      swap3\n      swap4\n      0x60\n      dup6\n      add\n      swap4\n      swap1\n      swap3\n      dup4\n      add\n        /* \"StakeFactory.sol\":14158:14176  lockableDays[user] */\n      dup3\n        /* \"StakeFactory.sol\":13987:14345  UserInfo({... */\n      dup3\n      dup1\n      iszero\n      tag_409\n      jumpi\n      0x20\n      mul\n      dup3\n      add\n      swap2\n      swap1\n      0x00\n      mstore\n      keccak256(0x00, 0x20)\n      swap1\n    tag_410:\n      dup2\n      sload\n      dup2\n      mstore\n      0x20\n      add\n      swap1\n      0x01\n      add\n      swap1\n      dup1\n      dup4\n      gt\n      tag_410\n      jumpi\n    tag_409:\n      pop\n      pop\n      pop\n      swap2\n      dup4\n      mstore\n      pop\n      pop\n      sub(shl(0xa0, 0x01), 0x01)\n        /* \"StakeFactory.sol\":14209:14231  withdrawedReward[user] */\n      dup5\n      and\n      0x00\n      swap1\n      dup2\n      mstore\n        /* \"StakeFactory.sol\":14209:14225  withdrawedReward */\n      0x0b\n        /* \"StakeFactory.sol\":13987:14345  UserInfo({... */\n      0x20\n        /* \"StakeFactory.sol\":14209:14231  withdrawedReward[user] */\n      swap1\n      dup2\n      mstore\n      0x40\n      swap2\n      dup3\n      swap1\n      keccak256\n      sload\n        /* \"StakeFactory.sol\":13987:14345  UserInfo({... */\n      swap1\n      dup4\n      add\n      mstore\n      add\n        /* \"StakeFactory.sol\":14266:14286  pendingRewards(user) */\n      tag_411\n        /* \"StakeFactory.sol\":14226:14230  user */\n      dup5\n        /* \"StakeFactory.sol\":14266:14280  pendingRewards */\n      tag_88\n        /* \"StakeFactory.sol\":14266:14286  pendingRewards(user) */\n      jump\t// in\n    tag_411:\n        /* \"StakeFactory.sol\":13987:14345  UserInfo({... */\n      dup2\n      mstore\n      sub(shl(0xa0, 0x01), 0x01)\n        /* \"StakeFactory.sol\":14315:14333  depositeTime[user] */\n      dup5\n      and\n      0x00\n      swap1\n      dup2\n      mstore\n        /* \"StakeFactory.sol\":14315:14327  depositeTime */\n      0x0a\n        /* \"StakeFactory.sol\":13987:14345  UserInfo({... */\n      0x20\n        /* \"StakeFactory.sol\":14315:14333  depositeTime[user] */\n      swap1\n      dup2\n      mstore\n      0x40\n      swap2\n      dup3\n      swap1\n      keccak256\n        /* \"StakeFactory.sol\":13987:14345  UserInfo({... */\n      dup1\n      sload\n      dup4\n      mload\n      dup2\n      dup5\n      mul\n      dup2\n      add\n      dup5\n      add\n      swap1\n      swap5\n      mstore\n      dup1\n      dup5\n      mstore\n      swap4\n      dup3\n      add\n      swap4\n        /* \"StakeFactory.sol\":14315:14333  depositeTime[user] */\n      swap1\n      swap2\n        /* \"StakeFactory.sol\":13987:14345  UserInfo({... */\n      dup4\n      add\n        /* \"StakeFactory.sol\":14315:14333  depositeTime[user] */\n      dup3\n        /* \"StakeFactory.sol\":13987:14345  UserInfo({... */\n      dup3\n      dup1\n      iszero\n      tag_412\n      jumpi\n      0x20\n      mul\n      dup3\n      add\n      swap2\n      swap1\n      0x00\n      mstore\n      keccak256(0x00, 0x20)\n      swap1\n    tag_413:\n      dup2\n      sload\n      dup2\n      mstore\n      0x20\n      add\n      swap1\n      0x01\n      add\n      swap1\n      dup1\n      dup4\n      gt\n      tag_413\n      jumpi\n    tag_412:\n      pop\n      pop\n      pop\n      pop\n      pop\n      dup2\n      mstore\n      pop\n        /* \"StakeFactory.sol\":13980:14345  info = UserInfo({... */\n      swap1\n      pop\n        /* \"StakeFactory.sol\":13895:14353  function getUser(address user) public view returns (UserInfo memory info) {... */\n      swap2\n      swap1\n      pop\n      jump\t// out\n        /* \"StakeFactory.sol\":24036:24259  function emergencyWithdrawTokens(IERC20 _token, uint256 _amount) public onlyOwner {... */\n    tag_173:\n        /* \"StakeFactory.sol\":7912:7918  _owner */\n      and(sub(shl(0xa0, 0x01), 0x01), sload(0x00))\n        /* \"StakeFactory.sol\":7922:7932  msg.sender */\n      caller\n        /* \"StakeFactory.sol\":7912:7932  _owner == msg.sender */\n      eq\n        /* \"StakeFactory.sol\":7904:7969  require(_owner == msg.sender, \"Ownable: caller is not the owner\") */\n      tag_416\n      jumpi\n      mload(0x40)\n      shl(0xe5, 0x461bcd)\n      dup2\n      mstore\n      0x04\n      add\n      tag_261\n      swap1\n      tag_262\n      jump\t// in\n    tag_416:\n        /* \"StakeFactory.sol\":24137:24168  _token.balanceOf(address(this)) */\n      mload(0x40)\n      shl(0xe0, 0x70a08231)\n      dup2\n      mstore\n        /* \"StakeFactory.sol\":24162:24166  this */\n      address\n        /* \"StakeFactory.sol\":24137:24168  _token.balanceOf(address(this)) */\n      0x04\n      dup3\n      add\n        /* \"#utility.yul\":915:966   */\n      mstore\n        /* \"StakeFactory.sol\":24172:24179  _amount */\n      dup2\n      swap1\n      sub(shl(0xa0, 0x01), 0x01)\n        /* \"StakeFactory.sol\":24137:24153  _token.balanceOf */\n      dup5\n      and\n      swap1\n      0x70a08231\n      swap1\n        /* \"#utility.yul\":888:906   */\n      0x24\n      add\n        /* \"StakeFactory.sol\":24137:24168  _token.balanceOf(address(this)) */\n      0x20\n      mload(0x40)\n      dup1\n      dup4\n      sub\n      dup2\n      dup7\n      gas\n      staticcall\n      iszero\n      dup1\n      iszero\n      tag_421\n      jumpi\n      returndatasize\n      0x00\n      dup1\n      returndatacopy\n      revert(0x00, returndatasize)\n    tag_421:\n      pop\n      pop\n      pop\n      pop\n      mload(0x40)\n      returndatasize\n      not(0x1f)\n      0x1f\n      dup3\n      add\n      and\n      dup3\n      add\n      dup1\n      0x40\n      mstore\n      pop\n      dup2\n      add\n      swap1\n      tag_422\n      swap2\n      swap1\n      tag_399\n      jump\t// in\n    tag_422:\n        /* \"StakeFactory.sol\":24137:24179  _token.balanceOf(address(this)) >= _amount */\n      lt\n      iszero\n        /* \"StakeFactory.sol\":24129:24204  require(_token.balanceOf(address(this)) >= _amount, \"Insufficient balance\") */\n      tag_423\n      jumpi\n      mload(0x40)\n      shl(0xe5, 0x461bcd)\n      dup2\n      mstore\n        /* \"#utility.yul\":17137:17139   */\n      0x20\n        /* \"StakeFactory.sol\":24129:24204  require(_token.balanceOf(address(this)) >= _amount, \"Insufficient balance\") */\n      0x04\n      dup3\n      add\n        /* \"#utility.yul\":17119:17140   */\n      mstore\n        /* \"#utility.yul\":17176:17178   */\n      0x14\n        /* \"#utility.yul\":17156:17174   */\n      0x24\n      dup3\n      add\n        /* \"#utility.yul\":17149:17179   */\n      mstore\n      shl(0x60, 0x496e73756666696369656e742062616c616e6365)\n        /* \"#utility.yul\":17195:17213   */\n      0x44\n      dup3\n      add\n        /* \"#utility.yul\":17188:17238   */\n      mstore\n        /* \"#utility.yul\":17255:17273   */\n      0x64\n      add\n        /* \"StakeFactory.sol\":24129:24204  require(_token.balanceOf(address(this)) >= _amount, \"Insufficient balance\") */\n      tag_261\n        /* \"#utility.yul\":16935:17279   */\n      jump\n        /* \"StakeFactory.sol\":24129:24204  require(_token.balanceOf(address(this)) >= _amount, \"Insufficient balance\") */\n    tag_423:\n        /* \"StakeFactory.sol\":24215:24251  _token.transfer(msg.sender, _amount) */\n      mload(0x40)\n      shl(0xe0, 0xa9059cbb)\n      dup2\n      mstore\n        /* \"StakeFactory.sol\":24231:24241  msg.sender */\n      caller\n        /* \"StakeFactory.sol\":24215:24251  _token.transfer(msg.sender, _amount) */\n      0x04\n      dup3\n      add\n        /* \"#utility.yul\":17458:17509   */\n      mstore\n        /* \"#utility.yul\":17525:17543   */\n      0x24\n      dup2\n      add\n        /* \"#utility.yul\":17518:17552   */\n      dup3\n      swap1\n      mstore\n      sub(shl(0xa0, 0x01), 0x01)\n        /* \"StakeFactory.sol\":24215:24230  _token.transfer */\n      dup4\n      and\n      swap1\n      0xa9059cbb\n      swap1\n        /* \"#utility.yul\":17431:17449   */\n      0x44\n      add\n        /* \"StakeFactory.sol\":24215:24251  _token.transfer(msg.sender, _amount) */\n      0x20\n      mload(0x40)\n      dup1\n      dup4\n      sub\n      dup2\n      0x00\n      dup8\n      gas\n      call\n      iszero\n      dup1\n      iszero\n      tag_429\n      jumpi\n      returndatasize\n      0x00\n      dup1\n      returndatacopy\n      revert(0x00, returndatasize)\n    tag_429:\n      pop\n      pop\n      pop\n      pop\n      mload(0x40)\n      returndatasize\n      not(0x1f)\n      0x1f\n      dup3\n      add\n      and\n      dup3\n      add\n      dup1\n      0x40\n      mstore\n      pop\n      dup2\n      add\n      swap1\n      tag_430\n      swap2\n      swap1\n      tag_431\n      jump\t// in\n    tag_430:\n      pop\n        /* \"StakeFactory.sol\":24036:24259  function emergencyWithdrawTokens(IERC20 _token, uint256 _amount) public onlyOwner {... */\n      pop\n      pop\n      jump\t// out\n        /* \"StakeFactory.sol\":9400:9450  mapping(address => uint256[]) public depositeToken */\n    tag_178:\n      mstore(0x20, 0x07)\n      dup2\n      0x00\n      mstore\n      keccak256(0x00, 0x40)\n      dup2\n      dup2\n      sload\n      dup2\n      lt\n      tag_432\n      jumpi\n      0x00\n      dup1\n      revert\n    tag_432:\n      swap1\n      0x00\n      mstore\n      keccak256(0x00, 0x20)\n      add\n      0x00\n      swap2\n      pop\n      swap2\n      pop\n      pop\n      sload\n      dup2\n      jump\t// out\n        /* \"StakeFactory.sol\":9518:9567  mapping(address => uint256[]) public lockableDays */\n    tag_183:\n      mstore(0x20, 0x09)\n      dup2\n      0x00\n      mstore\n      keccak256(0x00, 0x40)\n      dup2\n      dup2\n      sload\n      dup2\n      lt\n      tag_432\n      jumpi\n      0x00\n      dup1\n      revert\n        /* \"StakeFactory.sol\":18229:19643  function setAllocation(... */\n    tag_189:\n        /* \"StakeFactory.sol\":7912:7918  _owner */\n      and(sub(shl(0xa0, 0x01), 0x01), sload(0x00))\n        /* \"StakeFactory.sol\":7922:7932  msg.sender */\n      caller\n        /* \"StakeFactory.sol\":7912:7932  _owner == msg.sender */\n      eq\n        /* \"StakeFactory.sol\":7904:7969  require(_owner == msg.sender, \"Ownable: caller is not the owner\") */\n      tag_437\n      jumpi\n      mload(0x40)\n      shl(0xe5, 0x461bcd)\n      dup2\n      mstore\n      0x04\n      add\n      tag_261\n      swap1\n      tag_262\n      jump\t// in\n    tag_437:\n        /* \"StakeFactory.sol\":18569:18574  10000 */\n      0x2710\n        /* \"StakeFactory.sol\":18544:18565  percentageBasisPoints */\n      dup7\n        /* \"StakeFactory.sol\":18544:18574  percentageBasisPoints <= 10000 */\n      gt\n      iszero\n        /* \"StakeFactory.sol\":18536:18597  require(percentageBasisPoints <= 10000, \"Invalid percentage\") */\n      tag_440\n      jumpi\n      mload(0x40)\n      shl(0xe5, 0x461bcd)\n      dup2\n      mstore\n        /* \"#utility.yul\":16790:16792   */\n      0x20\n        /* \"StakeFactory.sol\":18536:18597  require(percentageBasisPoints <= 10000, \"Invalid percentage\") */\n      0x04\n      dup3\n      add\n        /* \"#utility.yul\":16772:16793   */\n      mstore\n        /* \"#utility.yul\":16829:16831   */\n      0x12\n        /* \"#utility.yul\":16809:16827   */\n      0x24\n      dup3\n      add\n        /* \"#utility.yul\":16802:16832   */\n      mstore\n      shl(0x70, 0x496e76616c69642070657263656e74616765)\n        /* \"#utility.yul\":16848:16866   */\n      0x44\n      dup3\n      add\n        /* \"#utility.yul\":16841:16889   */\n      mstore\n        /* \"#utility.yul\":16906:16924   */\n      0x64\n      add\n        /* \"StakeFactory.sol\":18536:18597  require(percentageBasisPoints <= 10000, \"Invalid percentage\") */\n      tag_261\n        /* \"#utility.yul\":16588:16930   */\n      jump\n        /* \"StakeFactory.sol\":18536:18597  require(percentageBasisPoints <= 10000, \"Invalid percentage\") */\n    tag_440:\n        /* \"StakeFactory.sol\":18628:18636  _minRate */\n      dup4\n        /* \"StakeFactory.sol\":18616:18624  _maxRate */\n      dup6\n        /* \"StakeFactory.sol\":18616:18636  _maxRate >= _minRate */\n      lt\n      iszero\n        /* \"StakeFactory.sol\":18608:18691  require(_maxRate >= _minRate, \"Max rate must be greater than or equal to min rate\") */\n      tag_442\n      jumpi\n      mload(0x40)\n      shl(0xe5, 0x461bcd)\n      dup2\n      mstore\n        /* \"#utility.yul\":18015:18017   */\n      0x20\n        /* \"StakeFactory.sol\":18608:18691  require(_maxRate >= _minRate, \"Max rate must be greater than or equal to min rate\") */\n      0x04\n      dup3\n      add\n        /* \"#utility.yul\":17997:18018   */\n      mstore\n        /* \"#utility.yul\":18054:18056   */\n      0x32\n        /* \"#utility.yul\":18034:18052   */\n      0x24\n      dup3\n      add\n        /* \"#utility.yul\":18027:18057   */\n      mstore\n        /* \"#utility.yul\":18093:18127   */\n      0x4d61782072617465206d7573742062652067726561746572207468616e206f72\n        /* \"#utility.yul\":18073:18091   */\n      0x44\n      dup3\n      add\n        /* \"#utility.yul\":18066:18128   */\n      mstore\n      shl(0x70, 0x20657175616c20746f206d696e2072617465)\n        /* \"#utility.yul\":18144:18162   */\n      0x64\n      dup3\n      add\n        /* \"#utility.yul\":18137:18185   */\n      mstore\n        /* \"#utility.yul\":18202:18221   */\n      0x84\n      add\n        /* \"StakeFactory.sol\":18608:18691  require(_maxRate >= _minRate, \"Max rate must be greater than or equal to min rate\") */\n      tag_261\n        /* \"#utility.yul\":17813:18227   */\n      jump\n        /* \"StakeFactory.sol\":18608:18691  require(_maxRate >= _minRate, \"Max rate must be greater than or equal to min rate\") */\n    tag_442:\n        /* \"StakeFactory.sol\":18722:18723  0 */\n      0x00\n        /* \"StakeFactory.sol\":18710:18719  _stepSize */\n      dup3\n        /* \"StakeFactory.sol\":18710:18723  _stepSize > 0 */\n      gt\n        /* \"StakeFactory.sol\":18702:18760  require(_stepSize > 0, \"Step size must be greater than 0\") */\n      tag_445\n      jumpi\n      mload(0x40)\n      shl(0xe5, 0x461bcd)\n      dup2\n      mstore\n        /* \"#utility.yul\":18434:18436   */\n      0x20\n        /* \"StakeFactory.sol\":18702:18760  require(_stepSize > 0, \"Step size must be greater than 0\") */\n      0x04\n      dup3\n      add\n        /* \"#utility.yul\":18416:18437   */\n      dup2\n      swap1\n      mstore\n        /* \"#utility.yul\":18453:18471   */\n      0x24\n      dup3\n      add\n        /* \"#utility.yul\":18446:18476   */\n      mstore\n        /* \"#utility.yul\":18512:18546   */\n      0x537465702073697a65206d7573742062652067726561746572207468616e2030\n        /* \"#utility.yul\":18492:18510   */\n      0x44\n      dup3\n      add\n        /* \"#utility.yul\":18485:18547   */\n      mstore\n        /* \"#utility.yul\":18564:18582   */\n      0x64\n      add\n        /* \"StakeFactory.sol\":18702:18760  require(_stepSize > 0, \"Step size must be greater than 0\") */\n      tag_261\n        /* \"#utility.yul\":18232:18588   */\n      jump\n        /* \"StakeFactory.sol\":18702:18760  require(_stepSize > 0, \"Step size must be greater than 0\") */\n    tag_445:\n        /* \"StakeFactory.sol\":18773:18790  allocation[_days] */\n      0x00\n      dup9\n      dup2\n      mstore\n        /* \"StakeFactory.sol\":18773:18783  allocation */\n      0x04\n        /* \"StakeFactory.sol\":18773:18790  allocation[_days] */\n      0x20\n      mstore\n      0x40\n      swap1\n      keccak256\n        /* \"StakeFactory.sol\":18773:18814  allocation[_days] = percentageBasisPoints */\n      dup7\n      swap1\n      sstore\n        /* \"StakeFactory.sol\":18832:18858  isLockPeriodAllowed(_days) */\n      tag_448\n        /* \"StakeFactory.sol\":18784:18789  _days */\n      dup9\n        /* \"StakeFactory.sol\":18832:18851  isLockPeriodAllowed */\n      tag_306\n        /* \"StakeFactory.sol\":18832:18858  isLockPeriodAllowed(_days) */\n      jump\t// in\n    tag_448:\n        /* \"StakeFactory.sol\":18827:18989  if (!isLockPeriodAllowed(_days)) {... */\n      tag_449\n      jumpi\n        /* \"StakeFactory.sol\":18875:18893  allowedLockPeriods */\n      0x13\n        /* \"StakeFactory.sol\":18875:18905  allowedLockPeriods.push(_days) */\n      dup1\n      sload\n      0x01\n      dup2\n      add\n      dup3\n      sstore\n      0x00\n      swap2\n      swap1\n      swap2\n      mstore\n      0x66de8ffda797e3de9c05e8fc57b3bf0ec28a930d40b0d285d93c06501cf6a090\n      add\n      dup9\n      swap1\n      sstore\n        /* \"StakeFactory.sol\":18827:18989  if (!isLockPeriodAllowed(_days)) {... */\n    tag_449:\n        /* \"StakeFactory.sol\":19122:19635  LockPeriodParams({... */\n      0x40\n      dup1\n      mload\n      0x0120\n      dup2\n      add\n      dup3\n      mstore\n      dup10\n      dup2\n      mstore\n      0x20\n      dup1\n      dup3\n      add\n      swap10\n      dup11\n      mstore\n      dup2\n      dup4\n      add\n      swap9\n      dup10\n      mstore\n      0x60\n      dup3\n      add\n      swap8\n      dup9\n      mstore\n      0x80\n      dup3\n      add\n      swap7\n      dup8\n      mstore\n      0xa0\n      dup3\n      add\n      swap6\n      dup7\n      mstore\n      0xc0\n      dup3\n      add\n      swap5\n      dup6\n      mstore\n      swap3\n      iszero\n      iszero\n      0xe0\n      dup3\n      add\n      swap1\n      dup2\n      mstore\n      0x00\n        /* \"StakeFactory.sol\":19587:19610  lockPeriodParams[_days] */\n      dup12\n      dup2\n      mstore\n        /* \"StakeFactory.sol\":19587:19603  lockPeriodParams */\n      0x05\n        /* \"StakeFactory.sol\":19587:19610  lockPeriodParams[_days] */\n      dup1\n      dup7\n      mstore\n      swap4\n      dup2\n      keccak256\n        /* \"StakeFactory.sol\":19587:19623  lockPeriodParams[_days].stakedAmount */\n      0x08\n      dup2\n      add\n      dup1\n      sload\n        /* \"StakeFactory.sol\":19122:19635  LockPeriodParams({... */\n      0x0100\n      dup7\n      add\n      swap1\n      dup2\n      mstore\n        /* \"StakeFactory.sol\":19096:19119  lockPeriodParams[_days] */\n      swap14\n      swap1\n      swap3\n      mstore\n      swap5\n      dup5\n      swap1\n      mstore\n        /* \"StakeFactory.sol\":19096:19635  lockPeriodParams[_days] = LockPeriodParams({... */\n      swap2\n      mload\n      dup5\n      sstore\n      swap9\n      mload\n      0x01\n      dup5\n      add\n      sstore\n      swap7\n      mload\n      0x02\n      dup4\n      add\n      sstore\n      swap5\n      mload\n      0x03\n      dup3\n      add\n      sstore\n      swap3\n      mload\n      0x04\n      dup5\n      add\n      sstore\n      swap1\n      mload\n      swap3\n      dup3\n      add\n      swap3\n      swap1\n      swap3\n      sstore\n      swap1\n      mload\n      0x06\n      dup3\n      add\n      sstore\n      swap2\n      mload\n      0x07\n      swap1\n      swap3\n      add\n      dup1\n      sload\n      not(0xff)\n      and\n      swap3\n      iszero\n      iszero\n      swap3\n      swap1\n      swap3\n      or\n      swap1\n      swap2\n      sstore\n      swap1\n      mload\n      swap1\n      sstore\n        /* \"StakeFactory.sol\":18229:19643  function setAllocation(... */\n      jump\t// out\n        /* \"StakeFactory.sol\":9574:9623  mapping(address => uint256[]) public depositeTime */\n    tag_198:\n      mstore(0x20, 0x0a)\n      dup2\n      0x00\n      mstore\n      keccak256(0x00, 0x40)\n      dup2\n      dup2\n      sload\n      dup2\n      lt\n      tag_432\n      jumpi\n      0x00\n      dup1\n      revert\n        /* \"StakeFactory.sol\":21475:21859  function getStakeTokenInfo() public view returns (... */\n    tag_216:\n        /* \"StakeFactory.sol\":21692:21697  Token */\n      sload(0x02)\n        /* \"StakeFactory.sol\":21716:21728  Token.name() */\n      0x40\n      dup1\n      mload\n      shl(0xe0, 0x06fdde03)\n      dup2\n      mstore\n      swap1\n      mload\n      sub(shl(0xa0, 0x01), 0x01)\n        /* \"StakeFactory.sol\":21692:21697  Token */\n      swap1\n      swap3\n      and\n      swap2\n        /* \"StakeFactory.sol\":21558:21576  string memory name */\n      0x60\n      swap2\n      dup3\n      swap2\n        /* \"StakeFactory.sol\":21535:21547  address addr */\n      0x00\n      swap2\n      dup3\n      swap2\n        /* \"StakeFactory.sol\":21692:21697  Token */\n      dup7\n      swap2\n        /* \"StakeFactory.sol\":21716:21726  Token.name */\n      0x06fdde03\n      swap2\n        /* \"StakeFactory.sol\":21716:21728  Token.name() */\n      0x04\n      dup1\n      dup4\n      add\n      swap3\n        /* \"StakeFactory.sol\":21535:21547  address addr */\n      dup7\n      swap3\n        /* \"StakeFactory.sol\":21716:21728  Token.name() */\n      swap2\n      swap1\n      dup3\n      swap1\n      sub\n      add\n      dup2\n        /* \"StakeFactory.sol\":21692:21697  Token */\n      dup7\n        /* \"StakeFactory.sol\":21716:21728  Token.name() */\n      gas\n      staticcall\n      iszero\n      dup1\n      iszero\n      tag_455\n      jumpi\n      returndatasize\n      0x00\n      dup1\n      returndatacopy\n      revert(0x00, returndatasize)\n    tag_455:\n      pop\n      pop\n      pop\n      pop\n      mload(0x40)\n      returndatasize\n      0x00\n      dup3\n      returndatacopy\n      0x1f\n      returndatasize\n      swap1\n      dup2\n      add\n      not(0x1f)\n      and\n      dup3\n      add\n      0x40\n      mstore\n      tag_456\n      swap2\n      swap1\n      dup2\n      add\n      swap1\n      tag_387\n      jump\t// in\n    tag_456:\n        /* \"StakeFactory.sol\":21709:21728  name = Token.name() */\n      swap4\n      pop\n        /* \"StakeFactory.sol\":21748:21753  Token */\n      0x02\n      0x00\n      swap1\n      sload\n      swap1\n      0x0100\n      exp\n      swap1\n      div\n      sub(shl(0xa0, 0x01), 0x01)\n      and\n      sub(shl(0xa0, 0x01), 0x01)\n        /* \"StakeFactory.sol\":21748:21760  Token.symbol */\n      and\n      0x95d89b41\n        /* \"StakeFactory.sol\":21748:21762  Token.symbol() */\n      mload(0x40)\n      dup2\n      0xffffffff\n      and\n      0xe0\n      shl\n      dup2\n      mstore\n      0x04\n      add\n      0x00\n      mload(0x40)\n      dup1\n      dup4\n      sub\n      dup2\n      dup7\n      gas\n      staticcall\n      iszero\n      dup1\n      iszero\n      tag_458\n      jumpi\n      returndatasize\n      0x00\n      dup1\n      returndatacopy\n      revert(0x00, returndatasize)\n    tag_458:\n      pop\n      pop\n      pop\n      pop\n      mload(0x40)\n      returndatasize\n      0x00\n      dup3\n      returndatacopy\n      0x1f\n      returndatasize\n      swap1\n      dup2\n      add\n      not(0x1f)\n      and\n      dup3\n      add\n      0x40\n      mstore\n      tag_459\n      swap2\n      swap1\n      dup2\n      add\n      swap1\n      tag_387\n      jump\t// in\n    tag_459:\n        /* \"StakeFactory.sol\":21739:21762  symbol = Token.symbol() */\n      swap3\n      pop\n        /* \"StakeFactory.sol\":21784:21789  Token */\n      0x02\n      0x00\n      swap1\n      sload\n      swap1\n      0x0100\n      exp\n      swap1\n      div\n      sub(shl(0xa0, 0x01), 0x01)\n      and\n      sub(shl(0xa0, 0x01), 0x01)\n        /* \"StakeFactory.sol\":21784:21798  Token.decimals */\n      and\n      0x313ce567\n        /* \"StakeFactory.sol\":21784:21800  Token.decimals() */\n      mload(0x40)\n      dup2\n      0xffffffff\n      and\n      0xe0\n      shl\n      dup2\n      mstore\n      0x04\n      add\n      0x20\n      mload(0x40)\n      dup1\n      dup4\n      sub\n      dup2\n      dup7\n      gas\n      staticcall\n      iszero\n      dup1\n      iszero\n      tag_461\n      jumpi\n      returndatasize\n      0x00\n      dup1\n      returndatacopy\n      revert(0x00, returndatasize)\n    tag_461:\n      pop\n      pop\n      pop\n      pop\n      mload(0x40)\n      returndatasize\n      not(0x1f)\n      0x1f\n      dup3\n      add\n      and\n      dup3\n      add\n      dup1\n      0x40\n      mstore\n      pop\n      dup2\n      add\n      swap1\n      tag_462\n      swap2\n      swap1\n      tag_394\n      jump\t// in\n    tag_462:\n        /* \"StakeFactory.sol\":21821:21826  Token */\n      sload(0x02)\n        /* \"StakeFactory.sol\":21821:21851  Token.balanceOf(address(this)) */\n      mload(0x40)\n      shl(0xe0, 0x70a08231)\n      dup2\n      mstore\n        /* \"StakeFactory.sol\":21845:21849  this */\n      address\n        /* \"StakeFactory.sol\":21821:21851  Token.balanceOf(address(this)) */\n      0x04\n      dup3\n      add\n        /* \"#utility.yul\":915:966   */\n      mstore\n        /* \"StakeFactory.sol\":21773:21800  decimals = Token.decimals() */\n      swap2\n      swap4\n      pop\n      sub(shl(0xa0, 0x01), 0x01)\n        /* \"StakeFactory.sol\":21821:21826  Token */\n      and\n      swap1\n        /* \"StakeFactory.sol\":21821:21836  Token.balanceOf */\n      0x70a08231\n      swap1\n        /* \"#utility.yul\":888:906   */\n      0x24\n      add\n        /* \"StakeFactory.sol\":21821:21851  Token.balanceOf(address(this)) */\n      tag_395\n        /* \"#utility.yul\":769:972   */\n      jump\n        /* \"StakeFactory.sol\":14911:18114  function harwest(uint256[] memory _index) external whenNotPaused nonReentrant returns (... */\n    tag_222:\n        /* \"StakeFactory.sol\":15008:15036  uint256 _totalWithdrawAmount */\n      0x00\n        /* \"StakeFactory.sol\":15047:15067  uint256 _totalReward */\n      dup1\n        /* \"StakeFactory.sol\":15078:15099  uint256 _deductionFee */\n      0x00\n        /* \"StakeFactory.sol\":6327:6335  paused() */\n      tag_468\n        /* \"StakeFactory.sol\":6039:6043  bool */\n      0x00\n        /* \"StakeFactory.sol\":6064:6071  _paused */\n      sload\n      0xff\n      shl(0xa0, 0x01)\n      swap1\n      swap2\n      div\n      and\n      swap1\n        /* \"StakeFactory.sol\":5992:6080  function paused() public view virtual returns (bool) {\t... */\n      jump\n        /* \"StakeFactory.sol\":6327:6335  paused() */\n    tag_468:\n        /* \"StakeFactory.sol\":6326:6335  !paused() */\n      iszero\n        /* \"StakeFactory.sol\":6318:6356  require(!paused(), \"Pausable: paused\") */\n      tag_469\n      jumpi\n      mload(0x40)\n      shl(0xe5, 0x461bcd)\n      dup2\n      mstore\n        /* \"#utility.yul\":18795:18797   */\n      0x20\n        /* \"StakeFactory.sol\":6318:6356  require(!paused(), \"Pausable: paused\") */\n      0x04\n      dup3\n      add\n        /* \"#utility.yul\":18777:18798   */\n      mstore\n        /* \"#utility.yul\":18834:18836   */\n      0x10\n        /* \"#utility.yul\":18814:18832   */\n      0x24\n      dup3\n      add\n        /* \"#utility.yul\":18807:18837   */\n      mstore\n      shl(0x82, 0x14185d5cd8589b194e881c185d5cd959)\n        /* \"#utility.yul\":18853:18871   */\n      0x44\n      dup3\n      add\n        /* \"#utility.yul\":18846:18892   */\n      mstore\n        /* \"#utility.yul\":18909:18927   */\n      0x64\n      add\n        /* \"StakeFactory.sol\":6318:6356  require(!paused(), \"Pausable: paused\") */\n      tag_261\n        /* \"#utility.yul\":18593:18933   */\n      jump\n        /* \"StakeFactory.sol\":6318:6356  require(!paused(), \"Pausable: paused\") */\n    tag_469:\n        /* \"StakeFactory.sol\":2761:2782  _nonReentrantBefore() */\n      tag_473\n        /* \"StakeFactory.sol\":2761:2780  _nonReentrantBefore */\n      tag_474\n        /* \"StakeFactory.sol\":2761:2782  _nonReentrantBefore() */\n      jump\t// in\n    tag_473:\n        /* \"StakeFactory.sol\":15132:15142  msg.sender */\n      caller\n        /* \"StakeFactory.sol\":15125:15143  isSpam[msg.sender] */\n      0x00\n      swap1\n      dup2\n      mstore\n        /* \"StakeFactory.sol\":15125:15131  isSpam */\n      0x10\n        /* \"StakeFactory.sol\":15125:15143  isSpam[msg.sender] */\n      0x20\n      mstore\n      0x40\n      swap1\n      keccak256\n      sload\n      0xff\n      and\n        /* \"StakeFactory.sol\":15125:15152  isSpam[msg.sender] == false */\n      iszero\n        /* \"StakeFactory.sol\":15117:15173  require(isSpam[msg.sender] == false, \"Account is spam!\") */\n      tag_476\n      jumpi\n      mload(0x40)\n      shl(0xe5, 0x461bcd)\n      dup2\n      mstore\n        /* \"#utility.yul\":19140:19142   */\n      0x20\n        /* \"StakeFactory.sol\":15117:15173  require(isSpam[msg.sender] == false, \"Account is spam!\") */\n      0x04\n      dup3\n      add\n        /* \"#utility.yul\":19122:19143   */\n      mstore\n        /* \"#utility.yul\":19179:19181   */\n      0x10\n        /* \"#utility.yul\":19159:19177   */\n      0x24\n      dup3\n      add\n        /* \"#utility.yul\":19152:19182   */\n      mstore\n      shl(0x80, 0x4163636f756e74206973207370616d21)\n        /* \"#utility.yul\":19198:19216   */\n      0x44\n      dup3\n      add\n        /* \"#utility.yul\":19191:19237   */\n      mstore\n        /* \"#utility.yul\":19254:19272   */\n      0x64\n      add\n        /* \"StakeFactory.sol\":15117:15173  require(isSpam[msg.sender] == false, \"Account is spam!\") */\n      tag_261\n        /* \"#utility.yul\":18938:19278   */\n      jump\n        /* \"StakeFactory.sol\":15117:15173  require(isSpam[msg.sender] == false, \"Account is spam!\") */\n    tag_476:\n        /* \"StakeFactory.sol\":15331:15341  msg.sender */\n      caller\n        /* \"StakeFactory.sol\":15186:15213  uint256 totalWithdrawAmount */\n      0x00\n        /* \"StakeFactory.sol\":15311:15342  depositeTokensTotal[msg.sender] */\n      swap1\n      dup2\n      mstore\n        /* \"StakeFactory.sol\":15311:15330  depositeTokensTotal */\n      0x08\n        /* \"StakeFactory.sol\":15311:15342  depositeTokensTotal[msg.sender] */\n      0x20\n      mstore\n      0x40\n      dup2\n      keccak256\n      sload\n        /* \"StakeFactory.sol\":15186:15213  uint256 totalWithdrawAmount */\n      dup2\n      swap1\n      dup2\n      swap1\n        /* \"StakeFactory.sol\":15374:15389  block.timestamp */\n      timestamp\n        /* \"StakeFactory.sol\":15186:15213  uint256 totalWithdrawAmount */\n      dup3\n        /* \"StakeFactory.sol\":15402:16805  for (uint256 z = 0; z < _index.length; z++) {... */\n    tag_479:\n        /* \"StakeFactory.sol\":15426:15432  _index */\n      dup10\n        /* \"StakeFactory.sol\":15426:15439  _index.length */\n      mload\n        /* \"StakeFactory.sol\":15422:15423  z */\n      dup2\n        /* \"StakeFactory.sol\":15422:15439  z < _index.length */\n      lt\n        /* \"StakeFactory.sol\":15402:16805  for (uint256 z = 0; z < _index.length; z++) {... */\n      iszero\n      tag_480\n      jumpi\n        /* \"StakeFactory.sol\":15556:15566  msg.sender */\n      caller\n        /* \"StakeFactory.sol\":15581:15582  0 */\n      0x00\n        /* \"StakeFactory.sol\":15542:15567  depositeToken[msg.sender] */\n      swap1\n      dup2\n      mstore\n        /* \"StakeFactory.sol\":15542:15555  depositeToken */\n      0x07\n        /* \"StakeFactory.sol\":15542:15567  depositeToken[msg.sender] */\n      0x20\n      mstore\n      0x40\n      dup2\n      keccak256\n        /* \"StakeFactory.sol\":15568:15577  _index[z] */\n      dup12\n      mload\n        /* \"StakeFactory.sol\":15568:15574  _index */\n      dup13\n      swap1\n        /* \"StakeFactory.sol\":15575:15576  z */\n      dup5\n      swap1\n        /* \"StakeFactory.sol\":15568:15577  _index[z] */\n      dup2\n      lt\n      tag_483\n      jumpi\n      tag_483\n      tag_277\n      jump\t// in\n    tag_483:\n      0x20\n      mul\n      0x20\n      add\n      add\n      mload\n        /* \"StakeFactory.sol\":15542:15578  depositeToken[msg.sender][_index[z]] */\n      dup2\n      sload\n      dup2\n      lt\n      tag_485\n      jumpi\n      tag_485\n      tag_277\n      jump\t// in\n    tag_485:\n      swap1\n      0x00\n      mstore\n      keccak256(0x00, 0x20)\n      add\n      sload\n        /* \"StakeFactory.sol\":15542:15582  depositeToken[msg.sender][_index[z]] > 0 */\n      gt\n        /* \"StakeFactory.sol\":15538:16794  if (depositeToken[msg.sender][_index[z]] > 0) {... */\n      iszero\n      tag_487\n      jumpi\n        /* \"StakeFactory.sol\":15699:15703  time */\n      sload(0x12)\n        /* \"StakeFactory.sol\":15674:15684  msg.sender */\n      caller\n        /* \"StakeFactory.sol\":15603:15619  uint256 lockTime */\n      0x00\n        /* \"StakeFactory.sol\":15661:15685  lockableDays[msg.sender] */\n      swap1\n      dup2\n      mstore\n        /* \"StakeFactory.sol\":15661:15673  lockableDays */\n      0x09\n        /* \"StakeFactory.sol\":15661:15685  lockableDays[msg.sender] */\n      0x20\n      mstore\n      0x40\n      dup2\n      keccak256\n        /* \"StakeFactory.sol\":15686:15695  _index[z] */\n      dup13\n      mload\n        /* \"StakeFactory.sol\":15603:15619  uint256 lockTime */\n      swap2\n      swap3\n        /* \"StakeFactory.sol\":15699:15703  time */\n      swap2\n        /* \"StakeFactory.sol\":15686:15692  _index */\n      dup14\n      swap1\n        /* \"StakeFactory.sol\":15693:15694  z */\n      dup6\n      swap1\n        /* \"StakeFactory.sol\":15686:15695  _index[z] */\n      dup2\n      lt\n      tag_489\n      jumpi\n      tag_489\n      tag_277\n      jump\t// in\n    tag_489:\n      0x20\n      mul\n      0x20\n      add\n      add\n      mload\n        /* \"StakeFactory.sol\":15661:15696  lockableDays[msg.sender][_index[z]] */\n      dup2\n      sload\n      dup2\n      lt\n      tag_491\n      jumpi\n      tag_491\n      tag_277\n      jump\t// in\n    tag_491:\n      swap1\n      0x00\n      mstore\n      keccak256(0x00, 0x20)\n      add\n      sload\n        /* \"StakeFactory.sol\":15661:15703  lockableDays[msg.sender][_index[z]] * time */\n      tag_493\n      swap2\n      swap1\n      tag_280\n      jump\t// in\n    tag_493:\n        /* \"StakeFactory.sol\":15635:15645  msg.sender */\n      caller\n        /* \"StakeFactory.sol\":15622:15646  depositeTime[msg.sender] */\n      0x00\n      swap1\n      dup2\n      mstore\n        /* \"StakeFactory.sol\":15622:15634  depositeTime */\n      0x0a\n        /* \"StakeFactory.sol\":15622:15646  depositeTime[msg.sender] */\n      0x20\n      mstore\n      0x40\n      swap1\n      keccak256\n        /* \"StakeFactory.sol\":15647:15656  _index[z] */\n      dup13\n      mload\n        /* \"StakeFactory.sol\":15647:15653  _index */\n      dup14\n      swap1\n        /* \"StakeFactory.sol\":15654:15655  z */\n      dup6\n      swap1\n        /* \"StakeFactory.sol\":15647:15656  _index[z] */\n      dup2\n      lt\n      tag_495\n      jumpi\n      tag_495\n      tag_277\n      jump\t// in\n    tag_495:\n      0x20\n      mul\n      0x20\n      add\n      add\n      mload\n        /* \"StakeFactory.sol\":15622:15657  depositeTime[msg.sender][_index[z]] */\n      dup2\n      sload\n      dup2\n      lt\n      tag_497\n      jumpi\n      tag_497\n      tag_277\n      jump\t// in\n    tag_497:\n      swap1\n      0x00\n      mstore\n      keccak256(0x00, 0x20)\n      add\n      sload\n        /* \"StakeFactory.sol\":15622:15704  depositeTime[msg.sender][_index[z]] + (lockableDays[msg.sender][_index[z]] * time) */\n      tag_499\n      swap2\n      swap1\n      tag_285\n      jump\t// in\n    tag_499:\n        /* \"StakeFactory.sol\":15603:15704  uint256 lockTime = depositeTime[msg.sender][_index[z]] + (lockableDays[msg.sender][_index[z]] * time) */\n      swap1\n      pop\n        /* \"StakeFactory.sol\":15741:15749  lockTime */\n      dup1\n        /* \"StakeFactory.sol\":15729:15738  blockTime */\n      dup4\n        /* \"StakeFactory.sol\":15729:15749  blockTime > lockTime */\n      gt\n        /* \"StakeFactory.sol\":15725:16606  if (blockTime > lockTime) {... */\n      iszero\n      tag_500\n      jumpi\n        /* \"StakeFactory.sol\":15774:15788  uint256 reward */\n      0x00\n        /* \"StakeFactory.sol\":15882:15887  10000 */\n      0x2710\n        /* \"StakeFactory.sol\":15831:15841  allocation */\n      0x04\n        /* \"StakeFactory.sol\":15831:15878  allocation[lockableDays[msg.sender][_index[z]]] */\n      0x00\n        /* \"StakeFactory.sol\":15842:15854  lockableDays */\n      0x09\n        /* \"StakeFactory.sol\":15842:15866  lockableDays[msg.sender] */\n      0x00\n        /* \"StakeFactory.sol\":15855:15865  msg.sender */\n      caller\n      sub(shl(0xa0, 0x01), 0x01)\n        /* \"StakeFactory.sol\":15842:15866  lockableDays[msg.sender] */\n      and\n      sub(shl(0xa0, 0x01), 0x01)\n      and\n      dup2\n      mstore\n      0x20\n      add\n      swap1\n      dup2\n      mstore\n      0x20\n      add\n      0x00\n      keccak256\n        /* \"StakeFactory.sol\":15867:15873  _index */\n      dup16\n        /* \"StakeFactory.sol\":15874:15875  z */\n      dup8\n        /* \"StakeFactory.sol\":15867:15876  _index[z] */\n      dup2\n      mload\n      dup2\n      lt\n      tag_502\n      jumpi\n      tag_502\n      tag_277\n      jump\t// in\n    tag_502:\n      0x20\n      mul\n      0x20\n      add\n      add\n      mload\n        /* \"StakeFactory.sol\":15842:15877  lockableDays[msg.sender][_index[z]] */\n      dup2\n      sload\n      dup2\n      lt\n      tag_504\n      jumpi\n      tag_504\n      tag_277\n      jump\t// in\n    tag_504:\n      swap1\n      0x00\n      mstore\n      keccak256(0x00, 0x20)\n      add\n      sload\n        /* \"StakeFactory.sol\":15831:15878  allocation[lockableDays[msg.sender][_index[z]]] */\n      dup2\n      mstore\n      0x20\n      add\n      swap1\n      dup2\n      mstore\n      0x20\n      add\n      0x00\n      keccak256\n      sload\n        /* \"StakeFactory.sol\":15792:15805  depositeToken */\n      0x07\n        /* \"StakeFactory.sol\":15792:15817  depositeToken[msg.sender] */\n      0x00\n        /* \"StakeFactory.sol\":15806:15816  msg.sender */\n      caller\n      sub(shl(0xa0, 0x01), 0x01)\n        /* \"StakeFactory.sol\":15792:15817  depositeToken[msg.sender] */\n      and\n      sub(shl(0xa0, 0x01), 0x01)\n      and\n      dup2\n      mstore\n      0x20\n      add\n      swap1\n      dup2\n      mstore\n      0x20\n      add\n      0x00\n      keccak256\n        /* \"StakeFactory.sol\":15818:15824  _index */\n      dup15\n        /* \"StakeFactory.sol\":15825:15826  z */\n      dup7\n        /* \"StakeFactory.sol\":15818:15827  _index[z] */\n      dup2\n      mload\n      dup2\n      lt\n      tag_507\n      jumpi\n      tag_507\n      tag_277\n      jump\t// in\n    tag_507:\n      0x20\n      mul\n      0x20\n      add\n      add\n      mload\n        /* \"StakeFactory.sol\":15792:15828  depositeToken[msg.sender][_index[z]] */\n      dup2\n      sload\n      dup2\n      lt\n      tag_509\n      jumpi\n      tag_509\n      tag_277\n      jump\t// in\n    tag_509:\n      swap1\n      0x00\n      mstore\n      keccak256(0x00, 0x20)\n      add\n      sload\n        /* \"StakeFactory.sol\":15792:15878  depositeToken[msg.sender][_index[z]] * allocation[lockableDays[msg.sender][_index[z]]] */\n      tag_511\n      swap2\n      swap1\n      tag_280\n      jump\t// in\n    tag_511:\n        /* \"StakeFactory.sol\":15791:15887  (depositeToken[msg.sender][_index[z]] * allocation[lockableDays[msg.sender][_index[z]]]) / 10000 */\n      tag_512\n      swap2\n      swap1\n      tag_295\n      jump\t// in\n    tag_512:\n        /* \"StakeFactory.sol\":15932:15952  depositTokenDecimals */\n      sload(0x03)\n        /* \"StakeFactory.sol\":15774:15887  uint256 reward = (depositeToken[msg.sender][_index[z]] * allocation[lockableDays[msg.sender][_index[z]]]) / 10000 */\n      swap1\n      swap2\n      pop\n        /* \"StakeFactory.sol\":15920:15953  10**uint256(depositTokenDecimals) */\n      tag_513\n      swap1\n      shl(0xa8, 0x01)\n        /* \"StakeFactory.sol\":15932:15952  depositTokenDecimals */\n      swap1\n      div\n      0xff\n      and\n        /* \"StakeFactory.sol\":15920:15922  10 */\n      0x0a\n        /* \"StakeFactory.sol\":15920:15953  10**uint256(depositTokenDecimals) */\n      tag_297\n      jump\t// in\n    tag_513:\n        /* \"StakeFactory.sol\":15910:15953  reward /= 10**uint256(depositTokenDecimals) */\n      tag_514\n      swap1\n      dup3\n      tag_295\n      jump\t// in\n    tag_514:\n      swap1\n      pop\n        /* \"StakeFactory.sol\":16000:16021  totalReward += reward */\n      tag_515\n        /* \"StakeFactory.sol\":15910:15953  reward /= 10**uint256(depositTokenDecimals) */\n      dup2\n        /* \"StakeFactory.sol\":16000:16021  totalReward += reward */\n      dup9\n      tag_285\n      jump\t// in\n    tag_515:\n        /* \"StakeFactory.sol\":16081:16091  msg.sender */\n      caller\n        /* \"StakeFactory.sol\":16067:16092  depositeToken[msg.sender] */\n      0x00\n      swap1\n      dup2\n      mstore\n        /* \"StakeFactory.sol\":16067:16080  depositeToken */\n      0x07\n        /* \"StakeFactory.sol\":16067:16092  depositeToken[msg.sender] */\n      0x20\n      mstore\n      0x40\n      swap1\n      keccak256\n        /* \"StakeFactory.sol\":16093:16102  _index[z] */\n      dup14\n      mload\n        /* \"StakeFactory.sol\":16000:16021  totalReward += reward */\n      swap2\n      swap9\n      pop\n        /* \"StakeFactory.sol\":16067:16092  depositeToken[msg.sender] */\n      swap1\n        /* \"StakeFactory.sol\":16093:16099  _index */\n      dup14\n      swap1\n        /* \"StakeFactory.sol\":16100:16101  z */\n      dup6\n      swap1\n        /* \"StakeFactory.sol\":16093:16102  _index[z] */\n      dup2\n      lt\n      tag_517\n      jumpi\n      tag_517\n      tag_277\n      jump\t// in\n    tag_517:\n      0x20\n      mul\n      0x20\n      add\n      add\n      mload\n        /* \"StakeFactory.sol\":16067:16103  depositeToken[msg.sender][_index[z]] */\n      dup2\n      sload\n      dup2\n      lt\n      tag_519\n      jumpi\n      tag_519\n      tag_277\n      jump\t// in\n    tag_519:\n      swap1\n      0x00\n      mstore\n      keccak256(0x00, 0x20)\n      add\n      sload\n        /* \"StakeFactory.sol\":16044:16103  totalWithdrawAmount += depositeToken[msg.sender][_index[z]] */\n      dup9\n      tag_521\n      swap2\n      swap1\n      tag_285\n      jump\t// in\n    tag_521:\n      swap8\n      pop\n        /* \"StakeFactory.sol\":15751:16123  {... */\n      pop\n        /* \"StakeFactory.sol\":15725:16606  if (blockTime > lockTime) {... */\n      jump(tag_522)\n    tag_500:\n        /* \"StakeFactory.sol\":16188:16207  deductionPercentage */\n      sload(0x11)\n        /* \"StakeFactory.sol\":16152:16161  uint256 a */\n      0x00\n      swap1\n        /* \"StakeFactory.sol\":16188:16211  deductionPercentage > 0 */\n      iszero\n        /* \"StakeFactory.sol\":16184:16401  if (deductionPercentage > 0) {... */\n      tag_523\n      jumpi\n        /* \"StakeFactory.sol\":16284:16303  deductionPercentage */\n      sload(0x11)\n        /* \"StakeFactory.sol\":16259:16269  msg.sender */\n      caller\n        /* \"StakeFactory.sol\":16245:16270  depositeToken[msg.sender] */\n      0x00\n      swap1\n      dup2\n      mstore\n        /* \"StakeFactory.sol\":16245:16258  depositeToken */\n      0x07\n        /* \"StakeFactory.sol\":16245:16270  depositeToken[msg.sender] */\n      0x20\n      mstore\n      0x40\n      swap1\n      keccak256\n        /* \"StakeFactory.sol\":16271:16280  _index[z] */\n      dup14\n      mload\n        /* \"StakeFactory.sol\":16307:16312  10000 */\n      0x2710\n      swap3\n        /* \"StakeFactory.sol\":16284:16303  deductionPercentage */\n      swap2\n        /* \"StakeFactory.sol\":16245:16270  depositeToken[msg.sender] */\n      swap1\n        /* \"StakeFactory.sol\":16271:16277  _index */\n      dup16\n      swap1\n        /* \"StakeFactory.sol\":16278:16279  z */\n      dup8\n      swap1\n        /* \"StakeFactory.sol\":16271:16280  _index[z] */\n      dup2\n      lt\n      tag_525\n      jumpi\n      tag_525\n      tag_277\n      jump\t// in\n    tag_525:\n      0x20\n      mul\n      0x20\n      add\n      add\n      mload\n        /* \"StakeFactory.sol\":16245:16281  depositeToken[msg.sender][_index[z]] */\n      dup2\n      sload\n      dup2\n      lt\n      tag_527\n      jumpi\n      tag_527\n      tag_277\n      jump\t// in\n    tag_527:\n      swap1\n      0x00\n      mstore\n      keccak256(0x00, 0x20)\n      add\n      sload\n        /* \"StakeFactory.sol\":16245:16303  depositeToken[msg.sender][_index[z]] * deductionPercentage */\n      tag_529\n      swap2\n      swap1\n      tag_280\n      jump\t// in\n    tag_529:\n        /* \"StakeFactory.sol\":16244:16312  (depositeToken[msg.sender][_index[z]] * deductionPercentage) / 10000 */\n      tag_530\n      swap2\n      swap1\n      tag_295\n      jump\t// in\n    tag_530:\n        /* \"StakeFactory.sol\":16356:16376  depositTokenDecimals */\n      sload(0x03)\n        /* \"StakeFactory.sol\":16240:16312  a = (depositeToken[msg.sender][_index[z]] * deductionPercentage) / 10000 */\n      swap1\n      swap2\n      pop\n        /* \"StakeFactory.sol\":16344:16377  10**uint256(depositTokenDecimals) */\n      tag_531\n      swap1\n      shl(0xa8, 0x01)\n        /* \"StakeFactory.sol\":16356:16376  depositTokenDecimals */\n      swap1\n      div\n      0xff\n      and\n        /* \"StakeFactory.sol\":16344:16346  10 */\n      0x0a\n        /* \"StakeFactory.sol\":16344:16377  10**uint256(depositTokenDecimals) */\n      tag_297\n      jump\t// in\n    tag_531:\n        /* \"StakeFactory.sol\":16339:16377  a /= 10**uint256(depositTokenDecimals) */\n      tag_532\n      swap1\n      dup3\n      tag_295\n      jump\t// in\n    tag_532:\n      swap1\n      pop\n        /* \"StakeFactory.sol\":16184:16401  if (deductionPercentage > 0) {... */\n    tag_523:\n        /* \"StakeFactory.sol\":16449:16459  msg.sender */\n      caller\n        /* \"StakeFactory.sol\":16423:16432  uint256 b */\n      0x00\n        /* \"StakeFactory.sol\":16435:16460  depositeToken[msg.sender] */\n      swap1\n      dup2\n      mstore\n        /* \"StakeFactory.sol\":16435:16448  depositeToken */\n      0x07\n        /* \"StakeFactory.sol\":16435:16460  depositeToken[msg.sender] */\n      0x20\n      mstore\n      0x40\n      dup2\n      keccak256\n        /* \"StakeFactory.sol\":16461:16470  _index[z] */\n      dup14\n      mload\n        /* \"StakeFactory.sol\":16474:16475  a */\n      dup4\n      swap2\n        /* \"StakeFactory.sol\":16435:16460  depositeToken[msg.sender] */\n      swap1\n        /* \"StakeFactory.sol\":16461:16467  _index */\n      dup16\n      swap1\n        /* \"StakeFactory.sol\":16468:16469  z */\n      dup8\n      swap1\n        /* \"StakeFactory.sol\":16461:16470  _index[z] */\n      dup2\n      lt\n      tag_534\n      jumpi\n      tag_534\n      tag_277\n      jump\t// in\n    tag_534:\n      0x20\n      mul\n      0x20\n      add\n      add\n      mload\n        /* \"StakeFactory.sol\":16435:16471  depositeToken[msg.sender][_index[z]] */\n      dup2\n      sload\n      dup2\n      lt\n      tag_536\n      jumpi\n      tag_536\n      tag_277\n      jump\t// in\n    tag_536:\n      swap1\n      0x00\n      mstore\n      keccak256(0x00, 0x20)\n      add\n      sload\n        /* \"StakeFactory.sol\":16435:16475  depositeToken[msg.sender][_index[z]] - a */\n      tag_538\n      swap2\n      swap1\n      tag_318\n      jump\t// in\n    tag_538:\n        /* \"StakeFactory.sol\":16423:16475  uint256 b = depositeToken[msg.sender][_index[z]] - a */\n      swap1\n      pop\n        /* \"StakeFactory.sol\":16500:16524  totalWithdrawAmount += b */\n      tag_539\n        /* \"StakeFactory.sol\":16423:16475  uint256 b = depositeToken[msg.sender][_index[z]] - a */\n      dup2\n        /* \"StakeFactory.sol\":16500:16524  totalWithdrawAmount += b */\n      dup11\n      tag_285\n      jump\t// in\n    tag_539:\n      swap9\n      pop\n        /* \"StakeFactory.sol\":16569:16586  deductionFee += a */\n      tag_540\n        /* \"StakeFactory.sol\":16585:16586  a */\n      dup3\n        /* \"StakeFactory.sol\":16569:16586  deductionFee += a */\n      dup9\n      tag_285\n      jump\t// in\n    tag_540:\n      swap7\n      pop\n        /* \"StakeFactory.sol\":16129:16606  {... */\n      pop\n      pop\n        /* \"StakeFactory.sol\":15725:16606  if (blockTime > lockTime) {... */\n    tag_522:\n        /* \"StakeFactory.sol\":16682:16692  msg.sender */\n      caller\n        /* \"StakeFactory.sol\":16668:16693  depositeToken[msg.sender] */\n      0x00\n      swap1\n      dup2\n      mstore\n        /* \"StakeFactory.sol\":16668:16681  depositeToken */\n      0x07\n        /* \"StakeFactory.sol\":16668:16693  depositeToken[msg.sender] */\n      0x20\n      mstore\n      0x40\n      swap1\n      keccak256\n        /* \"StakeFactory.sol\":16694:16703  _index[z] */\n      dup12\n      mload\n        /* \"StakeFactory.sol\":16694:16700  _index */\n      dup13\n      swap1\n        /* \"StakeFactory.sol\":16701:16702  z */\n      dup5\n      swap1\n        /* \"StakeFactory.sol\":16694:16703  _index[z] */\n      dup2\n      lt\n      tag_542\n      jumpi\n      tag_542\n      tag_277\n      jump\t// in\n    tag_542:\n      0x20\n      mul\n      0x20\n      add\n      add\n      mload\n        /* \"StakeFactory.sol\":16668:16704  depositeToken[msg.sender][_index[z]] */\n      dup2\n      sload\n      dup2\n      lt\n      tag_544\n      jumpi\n      tag_544\n      tag_277\n      jump\t// in\n    tag_544:\n      swap1\n      0x00\n      mstore\n      keccak256(0x00, 0x20)\n      add\n      sload\n        /* \"StakeFactory.sol\":16624:16640  lockPeriodParams */\n      0x05\n        /* \"StakeFactory.sol\":16624:16651  lockPeriodParams[_index[z]] */\n      0x00\n        /* \"StakeFactory.sol\":16641:16647  _index */\n      dup14\n        /* \"StakeFactory.sol\":16648:16649  z */\n      dup6\n        /* \"StakeFactory.sol\":16641:16650  _index[z] */\n      dup2\n      mload\n      dup2\n      lt\n      tag_547\n      jumpi\n      tag_547\n      tag_277\n      jump\t// in\n    tag_547:\n      0x20\n      mul\n      0x20\n      add\n      add\n      mload\n        /* \"StakeFactory.sol\":16624:16651  lockPeriodParams[_index[z]] */\n      dup2\n      mstore\n      0x20\n      add\n      swap1\n      dup2\n      mstore\n      0x20\n      add\n      0x00\n      keccak256\n        /* \"StakeFactory.sol\":16624:16664  lockPeriodParams[_index[z]].stakedAmount */\n      0x08\n      add\n      0x00\n        /* \"StakeFactory.sol\":16624:16704  lockPeriodParams[_index[z]].stakedAmount -= depositeToken[msg.sender][_index[z]] */\n      dup3\n      dup3\n      sload\n      tag_548\n      swap2\n      swap1\n      tag_318\n      jump\t// in\n    tag_548:\n      swap1\n      swap2\n      sstore\n      pop\n      pop\n        /* \"StakeFactory.sol\":16756:16766  msg.sender */\n      caller\n        /* \"StakeFactory.sol\":16742:16767  depositeToken[msg.sender] */\n      0x00\n      swap1\n      dup2\n      mstore\n        /* \"StakeFactory.sol\":16742:16755  depositeToken */\n      0x07\n        /* \"StakeFactory.sol\":16742:16767  depositeToken[msg.sender] */\n      0x20\n      mstore\n      0x40\n      swap1\n      keccak256\n        /* \"StakeFactory.sol\":16768:16777  _index[z] */\n      dup12\n      mload\n        /* \"StakeFactory.sol\":16768:16774  _index */\n      dup13\n      swap1\n        /* \"StakeFactory.sol\":16775:16776  z */\n      dup5\n      swap1\n        /* \"StakeFactory.sol\":16768:16777  _index[z] */\n      dup2\n      lt\n      tag_550\n      jumpi\n      tag_550\n      tag_277\n      jump\t// in\n    tag_550:\n      0x20\n      mul\n      0x20\n      add\n      add\n      mload\n        /* \"StakeFactory.sol\":16742:16778  depositeToken[msg.sender][_index[z]] */\n      dup2\n      sload\n      dup2\n      lt\n      tag_552\n      jumpi\n      tag_552\n      tag_277\n      jump\t// in\n    tag_552:\n      swap1\n      0x00\n      mstore\n      keccak256(0x00, 0x20)\n      add\n      sload\n        /* \"StakeFactory.sol\":16723:16778  depositedTokens -= depositeToken[msg.sender][_index[z]] */\n      dup5\n      tag_554\n      swap2\n      swap1\n      tag_318\n      jump\t// in\n    tag_554:\n      swap4\n      pop\n        /* \"StakeFactory.sol\":15584:16794  {... */\n      pop\n        /* \"StakeFactory.sol\":15538:16794  if (depositeToken[msg.sender][_index[z]] > 0) {... */\n    tag_487:\n        /* \"StakeFactory.sol\":15441:15444  z++ */\n      dup1\n      tag_555\n      dup2\n      tag_301\n      jump\t// in\n    tag_555:\n      swap2\n      pop\n      pop\n        /* \"StakeFactory.sol\":15402:16805  for (uint256 z = 0; z < _index.length; z++) {... */\n      jump(tag_479)\n    tag_480:\n      pop\n        /* \"StakeFactory.sol\":16900:16909  uint256 t */\n      0x00\n        /* \"StakeFactory.sol\":16895:17434  for (uint256 t = 0; t < _index.length; t++) {... */\n    tag_556:\n        /* \"StakeFactory.sol\":16919:16925  _index */\n      dup10\n        /* \"StakeFactory.sol\":16919:16932  _index.length */\n      mload\n        /* \"StakeFactory.sol\":16915:16916  t */\n      dup2\n        /* \"StakeFactory.sol\":16915:16932  t < _index.length */\n      lt\n        /* \"StakeFactory.sol\":16895:17434  for (uint256 t = 0; t < _index.length; t++) {... */\n      iszero\n      tag_557\n      jumpi\n        /* \"StakeFactory.sol\":16959:16968  uint256 i */\n      0x00\n        /* \"StakeFactory.sol\":16971:16977  _index */\n      dup11\n        /* \"StakeFactory.sol\":16978:16979  t */\n      dup3\n        /* \"StakeFactory.sol\":16971:16980  _index[t] */\n      dup2\n      mload\n      dup2\n      lt\n      tag_563\n      jumpi\n      tag_563\n      tag_277\n      jump\t// in\n    tag_563:\n      0x20\n      mul\n      0x20\n      add\n      add\n      mload\n        /* \"StakeFactory.sol\":16959:16980  uint256 i = _index[t] */\n      swap1\n      pop\n        /* \"StakeFactory.sol\":16954:17287  for (uint256 i = _index[t]; i < depositeToken[msg.sender].length - 1; i++) {... */\n    tag_559:\n        /* \"StakeFactory.sol\":17000:17010  msg.sender */\n      caller\n        /* \"StakeFactory.sol\":16986:17011  depositeToken[msg.sender] */\n      0x00\n      swap1\n      dup2\n      mstore\n        /* \"StakeFactory.sol\":16986:16999  depositeToken */\n      0x07\n        /* \"StakeFactory.sol\":16986:17011  depositeToken[msg.sender] */\n      0x20\n      mstore\n      0x40\n      swap1\n      keccak256\n        /* \"StakeFactory.sol\":16986:17018  depositeToken[msg.sender].length */\n      sload\n        /* \"StakeFactory.sol\":16986:17022  depositeToken[msg.sender].length - 1 */\n      tag_564\n      swap1\n        /* \"StakeFactory.sol\":17021:17022  1 */\n      0x01\n      swap1\n        /* \"StakeFactory.sol\":16986:17022  depositeToken[msg.sender].length - 1 */\n      tag_318\n      jump\t// in\n    tag_564:\n        /* \"StakeFactory.sol\":16982:16983  i */\n      dup2\n        /* \"StakeFactory.sol\":16982:17022  i < depositeToken[msg.sender].length - 1 */\n      lt\n        /* \"StakeFactory.sol\":16954:17287  for (uint256 i = _index[t]; i < depositeToken[msg.sender].length - 1; i++) {... */\n      iszero\n      tag_560\n      jumpi\n        /* \"StakeFactory.sol\":17093:17103  msg.sender */\n      caller\n        /* \"StakeFactory.sol\":17079:17104  depositeToken[msg.sender] */\n      0x00\n      swap1\n      dup2\n      mstore\n        /* \"StakeFactory.sol\":17079:17092  depositeToken */\n      0x07\n        /* \"StakeFactory.sol\":17079:17104  depositeToken[msg.sender] */\n      0x20\n      mstore\n      0x40\n      swap1\n      keccak256\n        /* \"StakeFactory.sol\":17105:17110  i + 1 */\n      tag_565\n        /* \"StakeFactory.sol\":17105:17106  i */\n      dup3\n        /* \"StakeFactory.sol\":17109:17110  1 */\n      0x01\n        /* \"StakeFactory.sol\":17105:17110  i + 1 */\n      tag_285\n      jump\t// in\n    tag_565:\n        /* \"StakeFactory.sol\":17079:17111  depositeToken[msg.sender][i + 1] */\n      dup2\n      sload\n      dup2\n      lt\n      tag_567\n      jumpi\n      tag_567\n      tag_277\n      jump\t// in\n    tag_567:\n      0x00\n      swap2\n      dup3\n      mstore\n      0x20\n      dup1\n      dup4\n      keccak256\n      swap1\n      swap2\n      add\n      sload\n        /* \"StakeFactory.sol\":17062:17072  msg.sender */\n      caller\n        /* \"StakeFactory.sol\":17048:17073  depositeToken[msg.sender] */\n      dup4\n      mstore\n        /* \"StakeFactory.sol\":17048:17061  depositeToken */\n      0x07\n        /* \"StakeFactory.sol\":17048:17073  depositeToken[msg.sender] */\n      swap1\n      swap2\n      mstore\n      0x40\n      swap1\n      swap2\n      keccak256\n        /* \"StakeFactory.sol\":17048:17076  depositeToken[msg.sender][i] */\n      dup1\n      sload\n        /* \"StakeFactory.sol\":17074:17075  i */\n      dup4\n      swap1\n        /* \"StakeFactory.sol\":17048:17076  depositeToken[msg.sender][i] */\n      dup2\n      lt\n      tag_570\n      jumpi\n      tag_570\n      tag_277\n      jump\t// in\n    tag_570:\n      0x00\n      swap2\n      dup3\n      mstore\n      0x20\n      dup1\n      dup4\n      keccak256\n      swap1\n      swap2\n      add\n        /* \"StakeFactory.sol\":17048:17111  depositeToken[msg.sender][i] = depositeToken[msg.sender][i + 1] */\n      swap3\n      swap1\n      swap3\n      sstore\n        /* \"StakeFactory.sol\":17173:17183  msg.sender */\n      caller\n        /* \"StakeFactory.sol\":17160:17184  lockableDays[msg.sender] */\n      dup2\n      mstore\n        /* \"StakeFactory.sol\":17160:17172  lockableDays */\n      0x09\n        /* \"StakeFactory.sol\":17160:17184  lockableDays[msg.sender] */\n      swap1\n      swap2\n      mstore\n      0x40\n      swap1\n      keccak256\n        /* \"StakeFactory.sol\":17185:17190  i + 1 */\n      tag_572\n        /* \"StakeFactory.sol\":17185:17186  i */\n      dup3\n        /* \"StakeFactory.sol\":17189:17190  1 */\n      0x01\n        /* \"StakeFactory.sol\":17185:17190  i + 1 */\n      tag_285\n      jump\t// in\n    tag_572:\n        /* \"StakeFactory.sol\":17160:17191  lockableDays[msg.sender][i + 1] */\n      dup2\n      sload\n      dup2\n      lt\n      tag_574\n      jumpi\n      tag_574\n      tag_277\n      jump\t// in\n    tag_574:\n      0x00\n      swap2\n      dup3\n      mstore\n      0x20\n      dup1\n      dup4\n      keccak256\n      swap1\n      swap2\n      add\n      sload\n        /* \"StakeFactory.sol\":17143:17153  msg.sender */\n      caller\n        /* \"StakeFactory.sol\":17130:17154  lockableDays[msg.sender] */\n      dup4\n      mstore\n        /* \"StakeFactory.sol\":17130:17142  lockableDays */\n      0x09\n        /* \"StakeFactory.sol\":17130:17154  lockableDays[msg.sender] */\n      swap1\n      swap2\n      mstore\n      0x40\n      swap1\n      swap2\n      keccak256\n        /* \"StakeFactory.sol\":17130:17157  lockableDays[msg.sender][i] */\n      dup1\n      sload\n        /* \"StakeFactory.sol\":17155:17156  i */\n      dup4\n      swap1\n        /* \"StakeFactory.sol\":17130:17157  lockableDays[msg.sender][i] */\n      dup2\n      lt\n      tag_577\n      jumpi\n      tag_577\n      tag_277\n      jump\t// in\n    tag_577:\n      0x00\n      swap2\n      dup3\n      mstore\n      0x20\n      dup1\n      dup4\n      keccak256\n      swap1\n      swap2\n      add\n        /* \"StakeFactory.sol\":17130:17191  lockableDays[msg.sender][i] = lockableDays[msg.sender][i + 1] */\n      swap3\n      swap1\n      swap3\n      sstore\n        /* \"StakeFactory.sol\":17253:17263  msg.sender */\n      caller\n        /* \"StakeFactory.sol\":17240:17264  depositeTime[msg.sender] */\n      dup2\n      mstore\n        /* \"StakeFactory.sol\":17240:17252  depositeTime */\n      0x0a\n        /* \"StakeFactory.sol\":17240:17264  depositeTime[msg.sender] */\n      swap1\n      swap2\n      mstore\n      0x40\n      swap1\n      keccak256\n        /* \"StakeFactory.sol\":17265:17270  i + 1 */\n      tag_579\n        /* \"StakeFactory.sol\":17265:17266  i */\n      dup3\n        /* \"StakeFactory.sol\":17269:17270  1 */\n      0x01\n        /* \"StakeFactory.sol\":17265:17270  i + 1 */\n      tag_285\n      jump\t// in\n    tag_579:\n        /* \"StakeFactory.sol\":17240:17271  depositeTime[msg.sender][i + 1] */\n      dup2\n      sload\n      dup2\n      lt\n      tag_581\n      jumpi\n      tag_581\n      tag_277\n      jump\t// in\n    tag_581:\n      0x00\n      swap2\n      dup3\n      mstore\n      0x20\n      dup1\n      dup4\n      keccak256\n      swap1\n      swap2\n      add\n      sload\n        /* \"StakeFactory.sol\":17223:17233  msg.sender */\n      caller\n        /* \"StakeFactory.sol\":17210:17234  depositeTime[msg.sender] */\n      dup4\n      mstore\n        /* \"StakeFactory.sol\":17210:17222  depositeTime */\n      0x0a\n        /* \"StakeFactory.sol\":17210:17234  depositeTime[msg.sender] */\n      swap1\n      swap2\n      mstore\n      0x40\n      swap1\n      swap2\n      keccak256\n        /* \"StakeFactory.sol\":17210:17237  depositeTime[msg.sender][i] */\n      dup1\n      sload\n        /* \"StakeFactory.sol\":17235:17236  i */\n      dup4\n      swap1\n        /* \"StakeFactory.sol\":17210:17237  depositeTime[msg.sender][i] */\n      dup2\n      lt\n      tag_584\n      jumpi\n      tag_584\n      tag_277\n      jump\t// in\n    tag_584:\n      0x00\n      swap2\n      dup3\n      mstore\n      0x20\n      swap1\n      swap2\n      keccak256\n      add\n        /* \"StakeFactory.sol\":17210:17271  depositeTime[msg.sender][i] = depositeTime[msg.sender][i + 1] */\n      sstore\n        /* \"StakeFactory.sol\":17024:17027  i++ */\n      dup1\n      tag_586\n      dup2\n      tag_301\n      jump\t// in\n    tag_586:\n      swap2\n      pop\n      pop\n        /* \"StakeFactory.sol\":16954:17287  for (uint256 i = _index[t]; i < depositeToken[msg.sender].length - 1; i++) {... */\n      jump(tag_559)\n    tag_560:\n      pop\n        /* \"StakeFactory.sol\":17315:17325  msg.sender */\n      caller\n        /* \"StakeFactory.sol\":17301:17326  depositeToken[msg.sender] */\n      0x00\n      swap1\n      dup2\n      mstore\n        /* \"StakeFactory.sol\":17301:17314  depositeToken */\n      0x07\n        /* \"StakeFactory.sol\":17301:17326  depositeToken[msg.sender] */\n      0x20\n      mstore\n      0x40\n      swap1\n      keccak256\n        /* \"StakeFactory.sol\":17301:17332  depositeToken[msg.sender].pop() */\n      dup1\n      sload\n      dup1\n      tag_588\n      jumpi\n      tag_588\n      tag_367\n      jump\t// in\n    tag_588:\n      0x00\n      dup3\n      dup2\n      mstore\n      0x20\n      dup1\n      dup3\n      keccak256\n      dup4\n      add\n      not(0x00)\n      swap1\n      dup2\n      add\n      dup4\n      swap1\n      sstore\n      swap1\n      swap3\n      add\n      swap1\n      swap3\n      sstore\n        /* \"StakeFactory.sol\":17360:17370  msg.sender */\n      caller\n        /* \"StakeFactory.sol\":17347:17371  lockableDays[msg.sender] */\n      dup3\n      mstore\n        /* \"StakeFactory.sol\":17347:17359  lockableDays */\n      0x09\n        /* \"StakeFactory.sol\":17347:17371  lockableDays[msg.sender] */\n      swap1\n      mstore\n      0x40\n      swap1\n      keccak256\n        /* \"StakeFactory.sol\":17347:17377  lockableDays[msg.sender].pop() */\n      dup1\n      sload\n      dup1\n      tag_591\n      jumpi\n      tag_591\n      tag_367\n      jump\t// in\n    tag_591:\n      0x00\n      dup3\n      dup2\n      mstore\n      0x20\n      dup1\n      dup3\n      keccak256\n      dup4\n      add\n      not(0x00)\n      swap1\n      dup2\n      add\n      dup4\n      swap1\n      sstore\n      swap1\n      swap3\n      add\n      swap1\n      swap3\n      sstore\n        /* \"StakeFactory.sol\":17405:17415  msg.sender */\n      caller\n        /* \"StakeFactory.sol\":17392:17416  depositeTime[msg.sender] */\n      dup3\n      mstore\n        /* \"StakeFactory.sol\":17392:17404  depositeTime */\n      0x0a\n        /* \"StakeFactory.sol\":17392:17416  depositeTime[msg.sender] */\n      swap1\n      mstore\n      0x40\n      swap1\n      keccak256\n        /* \"StakeFactory.sol\":17392:17422  depositeTime[msg.sender].pop() */\n      dup1\n      sload\n      dup1\n      tag_594\n      jumpi\n      tag_594\n      tag_367\n      jump\t// in\n    tag_594:\n      0x01\n      swap1\n      sub\n      dup2\n      dup2\n      swap1\n      0x00\n      mstore\n      keccak256(0x00, 0x20)\n      add\n      0x00\n      swap1\n      sstore\n      swap1\n      sstore\n        /* \"StakeFactory.sol\":16934:16937  t++ */\n      dup1\n      dup1\n      tag_596\n      swap1\n      tag_301\n      jump\t// in\n    tag_596:\n      swap2\n      pop\n      pop\n        /* \"StakeFactory.sol\":16895:17434  for (uint256 t = 0; t < _index.length; t++) {... */\n      jump(tag_556)\n    tag_557:\n      pop\n        /* \"StakeFactory.sol\":17460:17483  totalWithdrawAmount > 0 */\n      dup5\n      iszero\n        /* \"StakeFactory.sol\":17456:17595  if (totalWithdrawAmount > 0) {... */\n      tag_597\n      jumpi\n        /* \"StakeFactory.sol\":17500:17505  Token */\n      sload(0x02)\n        /* \"StakeFactory.sol\":17561:17581  depositTokenDecimals */\n      sload(0x03)\n      sub(shl(0xa0, 0x01), 0x01)\n        /* \"StakeFactory.sol\":17500:17505  Token */\n      swap1\n      swap2\n      and\n      swap1\n        /* \"StakeFactory.sol\":17500:17514  Token.transfer */\n      0xa9059cbb\n      swap1\n        /* \"StakeFactory.sol\":17515:17525  msg.sender */\n      caller\n      swap1\n        /* \"StakeFactory.sol\":17549:17582  10**uint256(depositTokenDecimals) */\n      tag_598\n      swap1\n      shl(0xa8, 0x01)\n        /* \"StakeFactory.sol\":17561:17581  depositTokenDecimals */\n      swap1\n      div\n      0xff\n      and\n        /* \"StakeFactory.sol\":17549:17551  10 */\n      0x0a\n        /* \"StakeFactory.sol\":17549:17582  10**uint256(depositTokenDecimals) */\n      tag_297\n      jump\t// in\n    tag_598:\n        /* \"StakeFactory.sol\":17527:17582  totalWithdrawAmount / 10**uint256(depositTokenDecimals) */\n      tag_599\n      swap1\n        /* \"StakeFactory.sol\":17527:17546  totalWithdrawAmount */\n      dup10\n        /* \"StakeFactory.sol\":17527:17582  totalWithdrawAmount / 10**uint256(depositTokenDecimals) */\n      tag_295\n      jump\t// in\n    tag_599:\n        /* \"StakeFactory.sol\":17500:17583  Token.transfer(msg.sender, totalWithdrawAmount / 10**uint256(depositTokenDecimals)) */\n      mload(0x40)\n      not(sub(shl(0xe0, 0x01), 0x01))\n      0xe0\n      dup6\n      swap1\n      shl\n      and\n      dup2\n      mstore\n      sub(shl(0xa0, 0x01), 0x01)\n        /* \"#utility.yul\":17476:17508   */\n      swap1\n      swap3\n      and\n        /* \"StakeFactory.sol\":17500:17583  Token.transfer(msg.sender, totalWithdrawAmount / 10**uint256(depositTokenDecimals)) */\n      0x04\n      dup4\n      add\n        /* \"#utility.yul\":17458:17509   */\n      mstore\n        /* \"#utility.yul\":17525:17543   */\n      0x24\n      dup3\n      add\n        /* \"#utility.yul\":17518:17552   */\n      mstore\n        /* \"#utility.yul\":17431:17449   */\n      0x44\n      add\n        /* \"StakeFactory.sol\":17500:17583  Token.transfer(msg.sender, totalWithdrawAmount / 10**uint256(depositTokenDecimals)) */\n      0x20\n      mload(0x40)\n      dup1\n      dup4\n      sub\n      dup2\n      0x00\n      dup8\n      gas\n      call\n      iszero\n      dup1\n      iszero\n      tag_602\n      jumpi\n      returndatasize\n      0x00\n      dup1\n      returndatacopy\n      revert(0x00, returndatasize)\n    tag_602:\n      pop\n      pop\n      pop\n      pop\n      mload(0x40)\n      returndatasize\n      not(0x1f)\n      0x1f\n      dup3\n      add\n      and\n      dup3\n      add\n      dup1\n      0x40\n      mstore\n      pop\n      dup2\n      add\n      swap1\n      tag_603\n      swap2\n      swap1\n      tag_431\n      jump\t// in\n    tag_603:\n      pop\n        /* \"StakeFactory.sol\":17456:17595  if (totalWithdrawAmount > 0) {... */\n    tag_597:\n        /* \"StakeFactory.sol\":17611:17626  totalReward > 0 */\n      dup4\n      iszero\n        /* \"StakeFactory.sol\":17607:17735  if (totalReward > 0) {... */\n      tag_604\n      jumpi\n        /* \"StakeFactory.sol\":17643:17654  rewardToken */\n      sload(0x03)\n      sub(shl(0xa0, 0x01), 0x01)\n      dup2\n      and\n      swap1\n        /* \"StakeFactory.sol\":17643:17663  rewardToken.transfer */\n      0xa9059cbb\n      swap1\n        /* \"StakeFactory.sol\":17664:17674  msg.sender */\n      caller\n      swap1\n        /* \"StakeFactory.sol\":17690:17722  10**uint256(rewardTokenDecimals) */\n      tag_605\n      swap1\n      shl(0xb0, 0x01)\n        /* \"StakeFactory.sol\":17702:17721  rewardTokenDecimals */\n      swap1\n      div\n      0xff\n      and\n        /* \"StakeFactory.sol\":17690:17692  10 */\n      0x0a\n        /* \"StakeFactory.sol\":17690:17722  10**uint256(rewardTokenDecimals) */\n      tag_297\n      jump\t// in\n    tag_605:\n        /* \"StakeFactory.sol\":17676:17722  totalReward / 10**uint256(rewardTokenDecimals) */\n      tag_606\n      swap1\n        /* \"StakeFactory.sol\":17676:17687  totalReward */\n      dup9\n        /* \"StakeFactory.sol\":17676:17722  totalReward / 10**uint256(rewardTokenDecimals) */\n      tag_295\n      jump\t// in\n    tag_606:\n        /* \"StakeFactory.sol\":17643:17723  rewardToken.transfer(msg.sender, totalReward / 10**uint256(rewardTokenDecimals)) */\n      mload(0x40)\n      not(sub(shl(0xe0, 0x01), 0x01))\n      0xe0\n      dup6\n      swap1\n      shl\n      and\n      dup2\n      mstore\n      sub(shl(0xa0, 0x01), 0x01)\n        /* \"#utility.yul\":17476:17508   */\n      swap1\n      swap3\n      and\n        /* \"StakeFactory.sol\":17643:17723  rewardToken.transfer(msg.sender, totalReward / 10**uint256(rewardTokenDecimals)) */\n      0x04\n      dup4\n      add\n        /* \"#utility.yul\":17458:17509   */\n      mstore\n        /* \"#utility.yul\":17525:17543   */\n      0x24\n      dup3\n      add\n        /* \"#utility.yul\":17518:17552   */\n      mstore\n        /* \"#utility.yul\":17431:17449   */\n      0x44\n      add\n        /* \"StakeFactory.sol\":17643:17723  rewardToken.transfer(msg.sender, totalReward / 10**uint256(rewardTokenDecimals)) */\n      0x20\n      mload(0x40)\n      dup1\n      dup4\n      sub\n      dup2\n      0x00\n      dup8\n      gas\n      call\n      iszero\n      dup1\n      iszero\n      tag_609\n      jumpi\n      returndatasize\n      0x00\n      dup1\n      returndatacopy\n      revert(0x00, returndatasize)\n    tag_609:\n      pop\n      pop\n      pop\n      pop\n      mload(0x40)\n      returndatasize\n      not(0x1f)\n      0x1f\n      dup3\n      add\n      and\n      dup3\n      add\n      dup1\n      0x40\n      mstore\n      pop\n      dup2\n      add\n      swap1\n      tag_610\n      swap2\n      swap1\n      tag_431\n      jump\t// in\n    tag_610:\n      pop\n        /* \"StakeFactory.sol\":17607:17735  if (totalReward > 0) {... */\n    tag_604:\n        /* \"StakeFactory.sol\":17751:17767  deductionFee > 0 */\n      dup3\n      iszero\n        /* \"StakeFactory.sol\":17747:17873  if (deductionFee > 0) {... */\n      tag_611\n      jumpi\n        /* \"StakeFactory.sol\":17784:17789  Token */\n      sload(0x02)\n        /* \"StakeFactory.sol\":17799:17810  taxreceiver */\n      sload(0x06)\n        /* \"StakeFactory.sol\":17839:17859  depositTokenDecimals */\n      sload(0x03)\n      sub(shl(0xa0, 0x01), 0x01)\n        /* \"StakeFactory.sol\":17784:17789  Token */\n      swap3\n      dup4\n      and\n      swap3\n        /* \"StakeFactory.sol\":17784:17798  Token.transfer */\n      0xa9059cbb\n      swap3\n        /* \"StakeFactory.sol\":17799:17810  taxreceiver */\n      and\n      swap1\n        /* \"StakeFactory.sol\":17827:17860  10**uint256(depositTokenDecimals) */\n      tag_612\n      swap1\n      shl(0xa8, 0x01)\n        /* \"StakeFactory.sol\":17839:17859  depositTokenDecimals */\n      swap1\n      div\n      0xff\n      and\n        /* \"StakeFactory.sol\":17827:17829  10 */\n      0x0a\n        /* \"StakeFactory.sol\":17827:17860  10**uint256(depositTokenDecimals) */\n      tag_297\n      jump\t// in\n    tag_612:\n        /* \"StakeFactory.sol\":17812:17860  deductionFee / 10**uint256(depositTokenDecimals) */\n      tag_613\n      swap1\n        /* \"StakeFactory.sol\":17812:17824  deductionFee */\n      dup8\n        /* \"StakeFactory.sol\":17812:17860  deductionFee / 10**uint256(depositTokenDecimals) */\n      tag_295\n      jump\t// in\n    tag_613:\n        /* \"StakeFactory.sol\":17784:17861  Token.transfer(taxreceiver, deductionFee / 10**uint256(depositTokenDecimals)) */\n      mload(0x40)\n      not(sub(shl(0xe0, 0x01), 0x01))\n      0xe0\n      dup6\n      swap1\n      shl\n      and\n      dup2\n      mstore\n      sub(shl(0xa0, 0x01), 0x01)\n        /* \"#utility.yul\":17476:17508   */\n      swap1\n      swap3\n      and\n        /* \"StakeFactory.sol\":17784:17861  Token.transfer(taxreceiver, deductionFee / 10**uint256(depositTokenDecimals)) */\n      0x04\n      dup4\n      add\n        /* \"#utility.yul\":17458:17509   */\n      mstore\n        /* \"#utility.yul\":17525:17543   */\n      0x24\n      dup3\n      add\n        /* \"#utility.yul\":17518:17552   */\n      mstore\n        /* \"#utility.yul\":17431:17449   */\n      0x44\n      add\n        /* \"StakeFactory.sol\":17784:17861  Token.transfer(taxreceiver, deductionFee / 10**uint256(depositTokenDecimals)) */\n      0x20\n      mload(0x40)\n      dup1\n      dup4\n      sub\n      dup2\n      0x00\n      dup8\n      gas\n      call\n      iszero\n      dup1\n      iszero\n      tag_616\n      jumpi\n      returndatasize\n      0x00\n      dup1\n      returndatacopy\n      revert(0x00, returndatasize)\n    tag_616:\n      pop\n      pop\n      pop\n      pop\n      mload(0x40)\n      returndatasize\n      not(0x1f)\n      0x1f\n      dup3\n      add\n      and\n      dup3\n      add\n      dup1\n      0x40\n      mstore\n      pop\n      dup2\n      add\n      swap1\n      tag_617\n      swap2\n      swap1\n      tag_431\n      jump\t// in\n    tag_617:\n      pop\n        /* \"StakeFactory.sol\":17747:17873  if (deductionFee > 0) {... */\n    tag_611:\n        /* \"StakeFactory.sol\":17903:17913  msg.sender */\n      caller\n        /* \"StakeFactory.sol\":17883:17914  depositeTokensTotal[msg.sender] */\n      0x00\n      swap1\n      dup2\n      mstore\n        /* \"StakeFactory.sol\":17883:17902  depositeTokensTotal */\n      0x08\n        /* \"StakeFactory.sol\":17883:17914  depositeTokensTotal[msg.sender] */\n      0x20\n      swap1\n      dup2\n      mstore\n      0x40\n      dup1\n      dup4\n      keccak256\n        /* \"StakeFactory.sol\":17883:17932  depositeTokensTotal[msg.sender] = depositedTokens */\n      dup6\n      swap1\n      sstore\n        /* \"StakeFactory.sol\":17943:17959  withdrawedReward */\n      0x0b\n        /* \"StakeFactory.sol\":17943:17971  withdrawedReward[msg.sender] */\n      swap1\n      swap2\n      mstore\n      dup2\n      keccak256\n        /* \"StakeFactory.sol\":17943:17986  withdrawedReward[msg.sender] += totalReward */\n      dup1\n      sload\n        /* \"StakeFactory.sol\":17975:17986  totalReward */\n      dup7\n      swap3\n        /* \"StakeFactory.sol\":17883:17914  depositeTokensTotal[msg.sender] */\n      swap1\n        /* \"StakeFactory.sol\":17943:17986  withdrawedReward[msg.sender] += totalReward */\n      tag_618\n      swap1\n        /* \"StakeFactory.sol\":17975:17986  totalReward */\n      dup5\n      swap1\n        /* \"StakeFactory.sol\":17943:17986  withdrawedReward[msg.sender] += totalReward */\n      tag_285\n      jump\t// in\n    tag_618:\n      swap1\n      swap2\n      sstore\n      pop\n      pop\n        /* \"StakeFactory.sol\":18009:18019  msg.sender */\n      caller\n        /* \"StakeFactory.sol\":17997:18020  lastUpdated[msg.sender] */\n      0x00\n      swap1\n      dup2\n      mstore\n        /* \"StakeFactory.sol\":17997:18008  lastUpdated */\n      0x0c\n        /* \"StakeFactory.sol\":17997:18020  lastUpdated[msg.sender] */\n      0x20\n      mstore\n      0x40\n      swap1\n      keccak256\n        /* \"StakeFactory.sol\":18023:18038  block.timestamp */\n      timestamp\n        /* \"StakeFactory.sol\":17997:18038  lastUpdated[msg.sender] = block.timestamp */\n      swap1\n      sstore\n      pop\n      pop\n        /* \"StakeFactory.sol\":2199:2200  1 */\n      0x01\n        /* \"StakeFactory.sol\":3321:3343  _status = _NOT_ENTERED */\n      dup1\n      sstore\n        /* \"StakeFactory.sol\":18059:18078  totalWithdrawAmount */\n      swap2\n      swap7\n        /* \"StakeFactory.sol\":18080:18091  totalReward */\n      swap1\n      swap6\n      pop\n        /* \"StakeFactory.sol\":18059:18078  totalWithdrawAmount */\n      swap1\n      swap4\n      pop\n        /* \"StakeFactory.sol\":14911:18114  function harwest(uint256[] memory _index) external whenNotPaused nonReentrant returns (... */\n      swap2\n      pop\n      pop\n      jump\t// out\n        /* \"StakeFactory.sol\":23916:24030  function setTaxReceiver(address _newTaxReceiver) public onlyOwner {... */\n    tag_233:\n        /* \"StakeFactory.sol\":7912:7918  _owner */\n      and(sub(shl(0xa0, 0x01), 0x01), sload(0x00))\n        /* \"StakeFactory.sol\":7922:7932  msg.sender */\n      caller\n        /* \"StakeFactory.sol\":7912:7932  _owner == msg.sender */\n      eq\n        /* \"StakeFactory.sol\":7904:7969  require(_owner == msg.sender, \"Ownable: caller is not the owner\") */\n      tag_622\n      jumpi\n      mload(0x40)\n      shl(0xe5, 0x461bcd)\n      dup2\n      mstore\n      0x04\n      add\n      tag_261\n      swap1\n      tag_262\n      jump\t// in\n    tag_622:\n        /* \"StakeFactory.sol\":23993:24004  taxreceiver */\n      0x06\n        /* \"StakeFactory.sol\":23993:24022  taxreceiver = _newTaxReceiver */\n      dup1\n      sload\n      not(sub(shl(0xa0, 0x01), 0x01))\n      and\n      sub(shl(0xa0, 0x01), 0x01)\n      swap3\n      swap1\n      swap3\n      and\n      swap2\n      swap1\n      swap2\n      or\n      swap1\n      sstore\n        /* \"StakeFactory.sol\":23916:24030  function setTaxReceiver(address _newTaxReceiver) public onlyOwner {... */\n      jump\t// out\n        /* \"StakeFactory.sol\":21097:21469  function getLockPeriodsInfo() external view returns (LockPeriodParams[] memory ret) {... */\n    tag_236:\n        /* \"StakeFactory.sol\":21196:21214  allowedLockPeriods */\n      0x13\n        /* \"StakeFactory.sol\":21196:21221  allowedLockPeriods.length */\n      sload\n        /* \"StakeFactory.sol\":21150:21179  LockPeriodParams[] memory ret */\n      0x60\n      swap1\n        /* \"StakeFactory.sol\":21196:21225  allowedLockPeriods.length > 0 */\n      iszero\n        /* \"StakeFactory.sol\":21192:21462  if (allowedLockPeriods.length > 0) {... */\n      tag_626\n      jumpi\n        /* \"StakeFactory.sol\":21271:21289  allowedLockPeriods */\n      0x13\n        /* \"StakeFactory.sol\":21271:21296  allowedLockPeriods.length */\n      sload\n        /* \"StakeFactory.sol\":21248:21297  new LockPeriodParams[](allowedLockPeriods.length) */\n      0xffffffffffffffff\n      dup2\n      gt\n      iszero\n      tag_628\n      jumpi\n      tag_628\n      tag_321\n      jump\t// in\n    tag_628:\n      mload(0x40)\n      swap1\n      dup1\n      dup3\n      mstore\n      dup1\n      0x20\n      mul\n      0x20\n      add\n      dup3\n      add\n      0x40\n      mstore\n      dup1\n      iszero\n      tag_629\n      jumpi\n      dup2\n      0x20\n      add\n    tag_630:\n      tag_631\n      tag_303\n      jump\t// in\n    tag_631:\n      dup2\n      mstore\n      0x20\n      add\n      swap1\n      0x01\n      swap1\n      sub\n      swap1\n      dup2\n      tag_630\n      jumpi\n      swap1\n      pop\n    tag_629:\n      pop\n        /* \"StakeFactory.sol\":21242:21297  ret = new LockPeriodParams[](allowedLockPeriods.length) */\n      swap1\n      pop\n        /* \"StakeFactory.sol\":21317:21326  uint256 i */\n      0x00\n        /* \"StakeFactory.sol\":21312:21451  for (uint256 i = 0; i < allowedLockPeriods.length; i++) {... */\n    tag_632:\n        /* \"StakeFactory.sol\":21336:21354  allowedLockPeriods */\n      0x13\n        /* \"StakeFactory.sol\":21336:21361  allowedLockPeriods.length */\n      sload\n        /* \"StakeFactory.sol\":21332:21361  i < allowedLockPeriods.length */\n      dup2\n      lt\n        /* \"StakeFactory.sol\":21312:21451  for (uint256 i = 0; i < allowedLockPeriods.length; i++) {... */\n      iszero\n      tag_633\n      jumpi\n        /* \"StakeFactory.sol\":21396:21412  lockPeriodParams */\n      0x05\n        /* \"StakeFactory.sol\":21396:21435  lockPeriodParams[allowedLockPeriods[i]] */\n      0x00\n        /* \"StakeFactory.sol\":21413:21431  allowedLockPeriods */\n      0x13\n        /* \"StakeFactory.sol\":21432:21433  i */\n      dup4\n        /* \"StakeFactory.sol\":21413:21434  allowedLockPeriods[i] */\n      dup2\n      sload\n      dup2\n      lt\n      tag_636\n      jumpi\n      tag_636\n      tag_277\n      jump\t// in\n    tag_636:\n      swap1\n      0x00\n      mstore\n      keccak256(0x00, 0x20)\n      add\n      sload\n        /* \"StakeFactory.sol\":21396:21435  lockPeriodParams[allowedLockPeriods[i]] */\n      dup2\n      mstore\n      0x20\n      add\n      swap1\n      dup2\n      mstore\n      0x20\n      add\n      0x00\n      keccak256\n        /* \"StakeFactory.sol\":21387:21435  ret[i] = lockPeriodParams[allowedLockPeriods[i]] */\n      mload(0x40)\n      dup1\n      0x0120\n      add\n      0x40\n      mstore\n      swap1\n      dup2\n      0x00\n      dup3\n      add\n      sload\n      dup2\n      mstore\n      0x20\n      add\n      0x01\n      dup3\n      add\n      sload\n      dup2\n      mstore\n      0x20\n      add\n      0x02\n      dup3\n      add\n      sload\n      dup2\n      mstore\n      0x20\n      add\n      0x03\n      dup3\n      add\n      sload\n      dup2\n      mstore\n      0x20\n      add\n      0x04\n      dup3\n      add\n      sload\n      dup2\n      mstore\n      0x20\n      add\n      0x05\n      dup3\n      add\n      sload\n      dup2\n      mstore\n      0x20\n      add\n      0x06\n      dup3\n      add\n      sload\n      dup2\n      mstore\n      0x20\n      add\n      0x07\n      dup3\n      add\n      0x00\n      swap1\n      sload\n      swap1\n      0x0100\n      exp\n      swap1\n      div\n      0xff\n      and\n      iszero\n      iszero\n      iszero\n      iszero\n      dup2\n      mstore\n      0x20\n      add\n      0x08\n      dup3\n      add\n      sload\n      dup2\n      mstore\n      pop\n      pop\n        /* \"StakeFactory.sol\":21387:21390  ret */\n      dup3\n        /* \"StakeFactory.sol\":21391:21392  i */\n      dup3\n        /* \"StakeFactory.sol\":21387:21393  ret[i] */\n      dup2\n      mload\n      dup2\n      lt\n      tag_639\n      jumpi\n      tag_639\n      tag_277\n      jump\t// in\n    tag_639:\n      0x20\n      mul\n      0x20\n      add\n      add\n        /* \"StakeFactory.sol\":21387:21435  ret[i] = lockPeriodParams[allowedLockPeriods[i]] */\n      dup2\n      swap1\n      mstore\n      pop\n        /* \"StakeFactory.sol\":21363:21366  i++ */\n      dup1\n      dup1\n      tag_640\n      swap1\n      tag_301\n      jump\t// in\n    tag_640:\n      swap2\n      pop\n      pop\n        /* \"StakeFactory.sol\":21312:21451  for (uint256 i = 0; i < allowedLockPeriods.length; i++) {... */\n      jump(tag_632)\n    tag_633:\n      pop\n        /* \"StakeFactory.sol\":21192:21462  if (allowedLockPeriods.length > 0) {... */\n    tag_626:\n        /* \"StakeFactory.sol\":21097:21469  function getLockPeriodsInfo() external view returns (LockPeriodParams[] memory ret) {... */\n      swap1\n      jump\t// out\n        /* \"StakeFactory.sol\":12011:13128  function deposit(uint256 _amount, uint256 _lockDays) external whenNotPaused nonReentrant {... */\n    tag_242:\n        /* \"StakeFactory.sol\":6039:6043  bool */\n      0x00\n        /* \"StakeFactory.sol\":6064:6071  _paused */\n      sload\n      shl(0xa0, 0x01)\n      swap1\n      div\n      0xff\n      and\n        /* \"StakeFactory.sol\":6326:6335  !paused() */\n      iszero\n        /* \"StakeFactory.sol\":6318:6356  require(!paused(), \"Pausable: paused\") */\n      tag_643\n      jumpi\n      mload(0x40)\n      shl(0xe5, 0x461bcd)\n      dup2\n      mstore\n        /* \"#utility.yul\":18795:18797   */\n      0x20\n        /* \"StakeFactory.sol\":6318:6356  require(!paused(), \"Pausable: paused\") */\n      0x04\n      dup3\n      add\n        /* \"#utility.yul\":18777:18798   */\n      mstore\n        /* \"#utility.yul\":18834:18836   */\n      0x10\n        /* \"#utility.yul\":18814:18832   */\n      0x24\n      dup3\n      add\n        /* \"#utility.yul\":18807:18837   */\n      mstore\n      shl(0x82, 0x14185d5cd8589b194e881c185d5cd959)\n        /* \"#utility.yul\":18853:18871   */\n      0x44\n      dup3\n      add\n        /* \"#utility.yul\":18846:18892   */\n      mstore\n        /* \"#utility.yul\":18909:18927   */\n      0x64\n      add\n        /* \"StakeFactory.sol\":6318:6356  require(!paused(), \"Pausable: paused\") */\n      tag_261\n        /* \"#utility.yul\":18593:18933   */\n      jump\n        /* \"StakeFactory.sol\":6318:6356  require(!paused(), \"Pausable: paused\") */\n    tag_643:\n        /* \"StakeFactory.sol\":2761:2782  _nonReentrantBefore() */\n      tag_646\n        /* \"StakeFactory.sol\":2761:2780  _nonReentrantBefore */\n      tag_474\n        /* \"StakeFactory.sol\":2761:2782  _nonReentrantBefore() */\n      jump\t// in\n    tag_646:\n        /* \"StakeFactory.sol\":12126:12136  msg.sender */\n      caller\n        /* \"StakeFactory.sol\":12119:12137  isSpam[msg.sender] */\n      0x00\n      swap1\n      dup2\n      mstore\n        /* \"StakeFactory.sol\":12119:12125  isSpam */\n      0x10\n        /* \"StakeFactory.sol\":12119:12137  isSpam[msg.sender] */\n      0x20\n      mstore\n      0x40\n      swap1\n      keccak256\n      sload\n      0xff\n      and\n        /* \"StakeFactory.sol\":12119:12146  isSpam[msg.sender] == false */\n      iszero\n        /* \"StakeFactory.sol\":12111:12167  require(isSpam[msg.sender] == false, \"Account is spam!\") */\n      tag_648\n      jumpi\n      mload(0x40)\n      shl(0xe5, 0x461bcd)\n      dup2\n      mstore\n        /* \"#utility.yul\":19140:19142   */\n      0x20\n        /* \"StakeFactory.sol\":12111:12167  require(isSpam[msg.sender] == false, \"Account is spam!\") */\n      0x04\n      dup3\n      add\n        /* \"#utility.yul\":19122:19143   */\n      mstore\n        /* \"#utility.yul\":19179:19181   */\n      0x10\n        /* \"#utility.yul\":19159:19177   */\n      0x24\n      dup3\n      add\n        /* \"#utility.yul\":19152:19182   */\n      mstore\n      shl(0x80, 0x4163636f756e74206973207370616d21)\n        /* \"#utility.yul\":19198:19216   */\n      0x44\n      dup3\n      add\n        /* \"#utility.yul\":19191:19237   */\n      mstore\n        /* \"#utility.yul\":19254:19272   */\n      0x64\n      add\n        /* \"StakeFactory.sol\":12111:12167  require(isSpam[msg.sender] == false, \"Account is spam!\") */\n      tag_261\n        /* \"#utility.yul\":18938:19278   */\n      jump\n        /* \"StakeFactory.sol\":12111:12167  require(isSpam[msg.sender] == false, \"Account is spam!\") */\n    tag_648:\n        /* \"StakeFactory.sol\":12186:12216  isLockPeriodAllowed(_lockDays) */\n      tag_650\n        /* \"StakeFactory.sol\":12206:12215  _lockDays */\n      dup2\n        /* \"StakeFactory.sol\":12186:12205  isLockPeriodAllowed */\n      tag_306\n        /* \"StakeFactory.sol\":12186:12216  isLockPeriodAllowed(_lockDays) */\n      jump\t// in\n    tag_650:\n        /* \"StakeFactory.sol\":12178:12240  require(isLockPeriodAllowed(_lockDays), \"Invalid lock period\") */\n      tag_651\n      jumpi\n      mload(0x40)\n      shl(0xe5, 0x461bcd)\n      dup2\n      mstore\n        /* \"#utility.yul\":19485:19487   */\n      0x20\n        /* \"StakeFactory.sol\":12178:12240  require(isLockPeriodAllowed(_lockDays), \"Invalid lock period\") */\n      0x04\n      dup3\n      add\n        /* \"#utility.yul\":19467:19488   */\n      mstore\n        /* \"#utility.yul\":19524:19526   */\n      0x13\n        /* \"#utility.yul\":19504:19522   */\n      0x24\n      dup3\n      add\n        /* \"#utility.yul\":19497:19527   */\n      mstore\n      shl(0x6a, 0x125b9d985b1a59081b1bd8dac81c195c9a5bd9)\n        /* \"#utility.yul\":19543:19561   */\n      0x44\n      dup3\n      add\n        /* \"#utility.yul\":19536:19585   */\n      mstore\n        /* \"#utility.yul\":19602:19620   */\n      0x64\n      add\n        /* \"StakeFactory.sol\":12178:12240  require(isLockPeriodAllowed(_lockDays), \"Invalid lock period\") */\n      tag_261\n        /* \"#utility.yul\":19283:19626   */\n      jump\n        /* \"StakeFactory.sol\":12178:12240  require(isLockPeriodAllowed(_lockDays), \"Invalid lock period\") */\n    tag_651:\n        /* \"StakeFactory.sol\":12270:12297  lockPeriodParams[_lockDays] */\n      0x00\n      dup2\n      dup2\n      mstore\n        /* \"StakeFactory.sol\":12270:12286  lockPeriodParams */\n      0x05\n        /* \"StakeFactory.sol\":12270:12297  lockPeriodParams[_lockDays] */\n      0x20\n      mstore\n      0x40\n      swap1\n      keccak256\n        /* \"StakeFactory.sol\":12270:12312  lockPeriodParams[_lockDays].minimumDeposit */\n      0x01\n      add\n      sload\n        /* \"StakeFactory.sol\":12259:12312  _amount >= lockPeriodParams[_lockDays].minimumDeposit */\n      dup3\n      lt\n      iszero\n        /* \"StakeFactory.sol\":12251:12331  require(_amount >= lockPeriodParams[_lockDays].minimumDeposit, \"Invalid amount\") */\n      tag_654\n      jumpi\n      mload(0x40)\n      shl(0xe5, 0x461bcd)\n      dup2\n      mstore\n        /* \"#utility.yul\":19833:19835   */\n      0x20\n        /* \"StakeFactory.sol\":12251:12331  require(_amount >= lockPeriodParams[_lockDays].minimumDeposit, \"Invalid amount\") */\n      0x04\n      dup3\n      add\n        /* \"#utility.yul\":19815:19836   */\n      mstore\n        /* \"#utility.yul\":19872:19874   */\n      0x0e\n        /* \"#utility.yul\":19852:19870   */\n      0x24\n      dup3\n      add\n        /* \"#utility.yul\":19845:19875   */\n      mstore\n      shl(0x92, 0x125b9d985b1a5908185b5bdd5b9d)\n        /* \"#utility.yul\":19891:19909   */\n      0x44\n      dup3\n      add\n        /* \"#utility.yul\":19884:19928   */\n      mstore\n        /* \"#utility.yul\":19945:19963   */\n      0x64\n      add\n        /* \"StakeFactory.sol\":12251:12331  require(_amount >= lockPeriodParams[_lockDays].minimumDeposit, \"Invalid amount\") */\n      tag_261\n        /* \"#utility.yul\":19631:19969   */\n      jump\n        /* \"StakeFactory.sol\":12251:12331  require(_amount >= lockPeriodParams[_lockDays].minimumDeposit, \"Invalid amount\") */\n    tag_654:\n        /* \"StakeFactory.sol\":12392:12397  Token */\n      sload(0x02)\n        /* \"StakeFactory.sol\":12392:12446  Token.transferFrom(msg.sender, address(this), _amount) */\n      mload(0x40)\n      shl(0xe0, 0x23b872dd)\n      dup2\n      mstore\n        /* \"StakeFactory.sol\":12411:12421  msg.sender */\n      caller\n        /* \"StakeFactory.sol\":12392:12446  Token.transferFrom(msg.sender, address(this), _amount) */\n      0x04\n      dup3\n      add\n        /* \"#utility.yul\":20214:20248   */\n      mstore\n        /* \"StakeFactory.sol\":12431:12435  this */\n      address\n        /* \"#utility.yul\":20264:20282   */\n      0x24\n      dup3\n      add\n        /* \"#utility.yul\":20257:20300   */\n      mstore\n        /* \"#utility.yul\":20316:20334   */\n      0x44\n      dup2\n      add\n        /* \"#utility.yul\":20309:20343   */\n      dup5\n      swap1\n      mstore\n        /* \"StakeFactory.sol\":12364:12379  block.timestamp */\n      timestamp\n      swap2\n      sub(shl(0xa0, 0x01), 0x01)\n        /* \"StakeFactory.sol\":12392:12397  Token */\n      and\n      swap1\n        /* \"StakeFactory.sol\":12392:12410  Token.transferFrom */\n      0x23b872dd\n      swap1\n        /* \"#utility.yul\":20149:20167   */\n      0x64\n      add\n        /* \"StakeFactory.sol\":12392:12446  Token.transferFrom(msg.sender, address(this), _amount) */\n      0x20\n      mload(0x40)\n      dup1\n      dup4\n      sub\n      dup2\n      0x00\n      dup8\n      gas\n      call\n      iszero\n      dup1\n      iszero\n      tag_660\n      jumpi\n      returndatasize\n      0x00\n      dup1\n      returndatacopy\n      revert(0x00, returndatasize)\n    tag_660:\n      pop\n      pop\n      pop\n      pop\n      mload(0x40)\n      returndatasize\n      not(0x1f)\n      0x1f\n      dup3\n      add\n      and\n      dup3\n      add\n      dup1\n      0x40\n      mstore\n      pop\n      dup2\n      add\n      swap1\n      tag_661\n      swap2\n      swap1\n      tag_431\n      jump\t// in\n    tag_661:\n      pop\n        /* \"StakeFactory.sol\":12471:12481  msg.sender */\n      caller\n        /* \"StakeFactory.sol\":12457:12482  depositeToken[msg.sender] */\n      0x00\n      dup2\n      dup2\n      mstore\n        /* \"StakeFactory.sol\":12457:12470  depositeToken */\n      0x07\n        /* \"StakeFactory.sol\":12457:12482  depositeToken[msg.sender] */\n      0x20\n      swap1\n      dup2\n      mstore\n      0x40\n      dup1\n      dup4\n      keccak256\n        /* \"StakeFactory.sol\":12457:12496  depositeToken[msg.sender].push(_amount) */\n      dup1\n      sload\n      0x01\n      dup2\n      dup2\n      add\n      dup4\n      sstore\n      swap2\n      dup6\n      mstore\n      dup4\n      dup6\n      keccak256\n      add\n      dup9\n      swap1\n      sstore\n        /* \"StakeFactory.sol\":12507:12531  depositeTime[msg.sender] */\n      dup5\n      dup5\n      mstore\n        /* \"StakeFactory.sol\":12507:12519  depositeTime */\n      0x0a\n        /* \"StakeFactory.sol\":12507:12531  depositeTime[msg.sender] */\n      dup4\n      mstore\n      dup2\n      dup5\n      keccak256\n        /* \"StakeFactory.sol\":12507:12555  depositeTime[msg.sender].push(uint40(blockTime)) */\n      dup1\n      sload\n      swap2\n      dup3\n      add\n      dup2\n      sstore\n      dup5\n      mstore\n      dup3\n      dup5\n      keccak256\n      0xffffffffff\n      dup8\n      and\n      swap2\n      add\n      sstore\n        /* \"StakeFactory.sol\":12566:12597  depositeTokensTotal[msg.sender] */\n      swap3\n      dup3\n      mstore\n        /* \"StakeFactory.sol\":12566:12585  depositeTokensTotal */\n      0x08\n        /* \"StakeFactory.sol\":12566:12597  depositeTokensTotal[msg.sender] */\n      swap1\n      mstore\n      swap1\n      dup2\n      keccak256\n        /* \"StakeFactory.sol\":12566:12608  depositeTokensTotal[msg.sender] += _amount */\n      dup1\n      sload\n        /* \"StakeFactory.sol\":12488:12495  _amount */\n      dup6\n      swap3\n        /* \"StakeFactory.sol\":12457:12482  depositeToken[msg.sender] */\n      swap1\n        /* \"StakeFactory.sol\":12566:12608  depositeTokensTotal[msg.sender] += _amount */\n      tag_664\n      swap1\n        /* \"StakeFactory.sol\":12488:12495  _amount */\n      dup5\n      swap1\n        /* \"StakeFactory.sol\":12566:12608  depositeTokensTotal[msg.sender] += _amount */\n      tag_285\n      jump\t// in\n    tag_664:\n      swap1\n      swap2\n      sstore\n      pop\n      pop\n        /* \"StakeFactory.sol\":12632:12642  msg.sender */\n      caller\n        /* \"StakeFactory.sol\":12619:12643  lockableDays[msg.sender] */\n      0x00\n      dup2\n      dup2\n      mstore\n        /* \"StakeFactory.sol\":12619:12631  lockableDays */\n      0x09\n        /* \"StakeFactory.sol\":12619:12643  lockableDays[msg.sender] */\n      0x20\n      swap1\n      dup2\n      mstore\n      0x40\n      dup1\n      dup4\n      keccak256\n        /* \"StakeFactory.sol\":12619:12659  lockableDays[msg.sender].push(_lockDays) */\n      dup1\n      sload\n      0x01\n      dup2\n      add\n      dup3\n      sstore\n      swap1\n      dup5\n      mstore\n      dup3\n      dup5\n      keccak256\n      add\n      dup7\n      swap1\n      sstore\n        /* \"StakeFactory.sol\":12670:12693  lastUpdated[msg.sender] */\n      swap3\n      dup3\n      mstore\n        /* \"StakeFactory.sol\":12670:12681  lastUpdated */\n      0x0c\n        /* \"StakeFactory.sol\":12670:12693  lastUpdated[msg.sender] */\n      dup2\n      mstore\n      dup3\n      dup3\n      keccak256\n        /* \"StakeFactory.sol\":12696:12711  block.timestamp */\n      timestamp\n        /* \"StakeFactory.sol\":12670:12711  lastUpdated[msg.sender] = block.timestamp */\n      swap1\n      sstore\n        /* \"StakeFactory.sol\":12722:12749  lockPeriodParams[_lockDays] */\n      dup5\n      dup3\n      mstore\n        /* \"StakeFactory.sol\":12722:12738  lockPeriodParams */\n      0x05\n        /* \"StakeFactory.sol\":12722:12749  lockPeriodParams[_lockDays] */\n      swap1\n      mstore\n      swap1\n      dup2\n      keccak256\n        /* \"StakeFactory.sol\":12722:12762  lockPeriodParams[_lockDays].stakedAmount */\n      0x08\n      add\n        /* \"StakeFactory.sol\":12722:12773  lockPeriodParams[_lockDays].stakedAmount += _amount */\n      dup1\n      sload\n        /* \"StakeFactory.sol\":12766:12773  _amount */\n      dup6\n      swap3\n        /* \"StakeFactory.sol\":12619:12643  lockableDays[msg.sender] */\n      swap1\n        /* \"StakeFactory.sol\":12722:12773  lockPeriodParams[_lockDays].stakedAmount += _amount */\n      tag_666\n      swap1\n        /* \"StakeFactory.sol\":12766:12773  _amount */\n      dup5\n      swap1\n        /* \"StakeFactory.sol\":12722:12773  lockPeriodParams[_lockDays].stakedAmount += _amount */\n      tag_285\n      jump\t// in\n    tag_666:\n      swap1\n      swap2\n      sstore\n      pop\n      pop\n        /* \"StakeFactory.sol\":12801:12811  msg.sender */\n      caller\n        /* \"StakeFactory.sol\":12789:12812  usersExists[msg.sender] */\n      0x00\n      swap1\n      dup2\n      mstore\n        /* \"StakeFactory.sol\":12789:12800  usersExists */\n      0x0d\n        /* \"StakeFactory.sol\":12789:12812  usersExists[msg.sender] */\n      0x20\n      mstore\n      0x40\n      swap1\n      keccak256\n      sload\n      0xff\n      and\n        /* \"StakeFactory.sol\":12784:12943  if (!usersExists[msg.sender]) {... */\n      tag_667\n      jumpi\n        /* \"StakeFactory.sol\":12829:12839  usersCount */\n      0x0f\n        /* \"StakeFactory.sol\":12829:12841  usersCount++ */\n      dup1\n      sload\n      swap1\n        /* \"StakeFactory.sol\":12829:12839  usersCount */\n      0x00\n        /* \"StakeFactory.sol\":12829:12841  usersCount++ */\n      tag_668\n      dup4\n      tag_301\n      jump\t// in\n    tag_668:\n      swap1\n      swap2\n      sstore\n      pop\n      pop\n        /* \"StakeFactory.sol\":12862:12872  usersCount */\n      sload(0x0f)\n        /* \"StakeFactory.sol\":12856:12873  users[usersCount] */\n      0x00\n      swap1\n      dup2\n      mstore\n        /* \"StakeFactory.sol\":12856:12861  users */\n      0x0e\n        /* \"StakeFactory.sol\":12856:12873  users[usersCount] */\n      0x20\n      swap1\n      dup2\n      mstore\n      0x40\n      dup1\n      dup4\n      keccak256\n        /* \"StakeFactory.sol\":12856:12886  users[usersCount] = msg.sender */\n      dup1\n      sload\n      not(sub(shl(0xa0, 0x01), 0x01))\n      and\n        /* \"StakeFactory.sol\":12876:12886  msg.sender */\n      caller\n        /* \"StakeFactory.sol\":12856:12886  users[usersCount] = msg.sender */\n      swap1\n      dup2\n      or\n      swap1\n      swap2\n      sstore\n        /* \"StakeFactory.sol\":12901:12924  usersExists[msg.sender] */\n      dup4\n      mstore\n        /* \"StakeFactory.sol\":12901:12912  usersExists */\n      0x0d\n        /* \"StakeFactory.sol\":12901:12924  usersExists[msg.sender] */\n      swap1\n      swap2\n      mstore\n      swap1\n      keccak256\n        /* \"StakeFactory.sol\":12901:12931  usersExists[msg.sender] = true */\n      dup1\n      sload\n      not(0xff)\n      and\n        /* \"StakeFactory.sol\":12856:12886  users[usersCount] = msg.sender */\n      0x01\n        /* \"StakeFactory.sol\":12901:12931  usersExists[msg.sender] = true */\n      or\n      swap1\n      sstore\n        /* \"StakeFactory.sol\":12784:12943  if (!usersExists[msg.sender]) {... */\n    tag_667:\n        /* \"StakeFactory.sol\":12953:12981  allocationPercentageUpdate() */\n      tag_669\n        /* \"StakeFactory.sol\":12953:12979  allocationPercentageUpdate */\n      tag_670\n        /* \"StakeFactory.sol\":12953:12981  allocationPercentageUpdate() */\n      jump\t// in\n    tag_669:\n        /* \"StakeFactory.sol\":13053:13120  Deposite_(msg.sender, address(this), _amount, _lockDays, blockTime) */\n      0x40\n      dup1\n      mload\n        /* \"#utility.yul\":10575:10600   */\n      dup5\n      dup2\n      mstore\n        /* \"#utility.yul\":10631:10633   */\n      0x20\n        /* \"#utility.yul\":10616:10634   */\n      dup2\n      add\n        /* \"#utility.yul\":10609:10643   */\n      dup5\n      swap1\n      mstore\n        /* \"#utility.yul\":10659:10677   */\n      swap1\n      dup2\n      add\n        /* \"#utility.yul\":10652:10686   */\n      dup3\n      swap1\n      mstore\n        /* \"StakeFactory.sol\":13083:13087  this */\n      address\n      swap1\n        /* \"StakeFactory.sol\":13063:13073  msg.sender */\n      caller\n      swap1\n        /* \"StakeFactory.sol\":13053:13120  Deposite_(msg.sender, address(this), _amount, _lockDays, blockTime) */\n      0xe44628ed4b392c5ef46ffc833d640eefd957e81a312e583e0cc57eed5f04ada3\n      swap1\n        /* \"#utility.yul\":10563:10565   */\n      0x60\n        /* \"#utility.yul\":10548:10566   */\n      add\n        /* \"StakeFactory.sol\":13053:13120  Deposite_(msg.sender, address(this), _amount, _lockDays, blockTime) */\n      mload(0x40)\n      dup1\n      swap2\n      sub\n      swap1\n      log3\n        /* \"StakeFactory.sol\":12100:13128  {... */\n      pop\n        /* \"StakeFactory.sol\":2805:2825  _nonReentrantAfter() */\n      tag_268\n        /* \"StakeFactory.sol\":2199:2200  1 */\n      0x01\n        /* \"StakeFactory.sol\":3321:3343  _status = _NOT_ENTERED */\n      dup1\n      sstore\n        /* \"StakeFactory.sol\":3138:3351  function _nonReentrantAfter() private {... */\n      jump\n        /* \"StakeFactory.sol\":8154:8431  function transferOwnership(address newOwner) public onlyOwner {... */\n    tag_250:\n        /* \"StakeFactory.sol\":7912:7918  _owner */\n      and(sub(shl(0xa0, 0x01), 0x01), sload(0x00))\n        /* \"StakeFactory.sol\":7922:7932  msg.sender */\n      caller\n        /* \"StakeFactory.sol\":7912:7932  _owner == msg.sender */\n      eq\n        /* \"StakeFactory.sol\":7904:7969  require(_owner == msg.sender, \"Ownable: caller is not the owner\") */\n      tag_674\n      jumpi\n      mload(0x40)\n      shl(0xe5, 0x461bcd)\n      dup2\n      mstore\n      0x04\n      add\n      tag_261\n      swap1\n      tag_262\n      jump\t// in\n    tag_674:\n      sub(shl(0xa0, 0x01), 0x01)\n        /* \"StakeFactory.sol\":8249:8271  newOwner != address(0) */\n      dup2\n      and\n        /* \"StakeFactory.sol\":8227:8337  require(... */\n      tag_677\n      jumpi\n      mload(0x40)\n      shl(0xe5, 0x461bcd)\n      dup2\n      mstore\n        /* \"#utility.yul\":20556:20558   */\n      0x20\n        /* \"StakeFactory.sol\":8227:8337  require(... */\n      0x04\n      dup3\n      add\n        /* \"#utility.yul\":20538:20559   */\n      mstore\n        /* \"#utility.yul\":20595:20597   */\n      0x26\n        /* \"#utility.yul\":20575:20593   */\n      0x24\n      dup3\n      add\n        /* \"#utility.yul\":20568:20598   */\n      mstore\n        /* \"#utility.yul\":20634:20668   */\n      0x4f776e61626c653a206e6577206f776e657220697320746865207a65726f2061\n        /* \"#utility.yul\":20614:20632   */\n      0x44\n      dup3\n      add\n        /* \"#utility.yul\":20607:20669   */\n      mstore\n      shl(0xd0, 0x646472657373)\n        /* \"#utility.yul\":20685:20703   */\n      0x64\n      dup3\n      add\n        /* \"#utility.yul\":20678:20714   */\n      mstore\n        /* \"#utility.yul\":20731:20750   */\n      0x84\n      add\n        /* \"StakeFactory.sol\":8227:8337  require(... */\n      tag_261\n        /* \"#utility.yul\":20354:20756   */\n      jump\n        /* \"StakeFactory.sol\":8227:8337  require(... */\n    tag_677:\n        /* \"StakeFactory.sol\":8376:8382  _owner */\n      0x00\n      dup1\n      sload\n        /* \"StakeFactory.sol\":8355:8393  OwnershipTransferred(_owner, newOwner) */\n      mload(0x40)\n      sub(shl(0xa0, 0x01), 0x01)\n      dup1\n      dup6\n      and\n      swap4\n        /* \"StakeFactory.sol\":8376:8382  _owner */\n      swap3\n      and\n      swap2\n        /* \"StakeFactory.sol\":8355:8393  OwnershipTransferred(_owner, newOwner) */\n      0x8be0079c531659141344cd1fd0a4f28419497f9722a3daafe3b4186f6b6457e0\n      swap2\n      log3\n        /* \"StakeFactory.sol\":8406:8412  _owner */\n      0x00\n        /* \"StakeFactory.sol\":8406:8423  _owner = newOwner */\n      dup1\n      sload\n      not(sub(shl(0xa0, 0x01), 0x01))\n      and\n      sub(shl(0xa0, 0x01), 0x01)\n      swap3\n      swap1\n      swap3\n      and\n      swap2\n      swap1\n      swap2\n      or\n      swap1\n      sstore\n        /* \"StakeFactory.sol\":8154:8431  function transferOwnership(address newOwner) public onlyOwner {... */\n      jump\t// out\n        /* \"StakeFactory.sol\":19757:20035  function isLockPeriodAllowed(uint256 _days) internal view returns (bool) {... */\n    tag_306:\n        /* \"StakeFactory.sol\":19824:19828  bool */\n      0x00\n      dup1\n        /* \"StakeFactory.sol\":19841:20005  for (uint256 i = 0; i < allowedLockPeriods.length; i++) {... */\n    tag_681:\n        /* \"StakeFactory.sol\":19865:19883  allowedLockPeriods */\n      0x13\n        /* \"StakeFactory.sol\":19865:19890  allowedLockPeriods.length */\n      sload\n        /* \"StakeFactory.sol\":19861:19890  i < allowedLockPeriods.length */\n      dup2\n      lt\n        /* \"StakeFactory.sol\":19841:20005  for (uint256 i = 0; i < allowedLockPeriods.length; i++) {... */\n      iszero\n      tag_682\n      jumpi\n        /* \"StakeFactory.sol\":19941:19946  _days */\n      dup3\n        /* \"StakeFactory.sol\":19916:19934  allowedLockPeriods */\n      0x13\n        /* \"StakeFactory.sol\":19935:19936  i */\n      dup3\n        /* \"StakeFactory.sol\":19916:19937  allowedLockPeriods[i] */\n      dup2\n      sload\n      dup2\n      lt\n      tag_685\n      jumpi\n      tag_685\n      tag_277\n      jump\t// in\n    tag_685:\n      swap1\n      0x00\n      mstore\n      keccak256(0x00, 0x20)\n      add\n      sload\n        /* \"StakeFactory.sol\":19916:19946  allowedLockPeriods[i] == _days */\n      eq\n        /* \"StakeFactory.sol\":19912:19994  if (allowedLockPeriods[i] == _days) {... */\n      iszero\n      tag_687\n      jumpi\n      pop\n        /* \"StakeFactory.sol\":19974:19978  true */\n      0x01\n      swap3\n        /* \"StakeFactory.sol\":19757:20035  function isLockPeriodAllowed(uint256 _days) internal view returns (bool) {... */\n      swap2\n      pop\n      pop\n      jump\t// out\n        /* \"StakeFactory.sol\":19912:19994  if (allowedLockPeriods[i] == _days) {... */\n    tag_687:\n        /* \"StakeFactory.sol\":19892:19895  i++ */\n      dup1\n      tag_688\n      dup2\n      tag_301\n      jump\t// in\n    tag_688:\n      swap2\n      pop\n      pop\n        /* \"StakeFactory.sol\":19841:20005  for (uint256 i = 0; i < allowedLockPeriods.length; i++) {... */\n      jump(tag_681)\n    tag_682:\n      pop\n        /* \"StakeFactory.sol\":20022:20027  false */\n      0x00\n      swap3\n        /* \"StakeFactory.sol\":19757:20035  function isLockPeriodAllowed(uint256 _days) internal view returns (bool) {... */\n      swap2\n      pop\n      pop\n      jump\t// out\n        /* \"StakeFactory.sol\":2841:3130  function _nonReentrantBefore() private {... */\n    tag_474:\n        /* \"StakeFactory.sol\":2243:2244  2 */\n      0x02\n        /* \"StakeFactory.sol\":2971:2978  _status */\n      sload(0x01)\n        /* \"StakeFactory.sol\":2971:2990  _status != _ENTERED */\n      eq\n      iszero\n        /* \"StakeFactory.sol\":2963:3026  require(_status != _ENTERED, \"ReentrancyGuard: reentrant call\") */\n      tag_690\n      jumpi\n      mload(0x40)\n      shl(0xe5, 0x461bcd)\n      dup2\n      mstore\n        /* \"#utility.yul\":20963:20965   */\n      0x20\n        /* \"StakeFactory.sol\":2963:3026  require(_status != _ENTERED, \"ReentrancyGuard: reentrant call\") */\n      0x04\n      dup3\n      add\n        /* \"#utility.yul\":20945:20966   */\n      mstore\n        /* \"#utility.yul\":21002:21004   */\n      0x1f\n        /* \"#utility.yul\":20982:21000   */\n      0x24\n      dup3\n      add\n        /* \"#utility.yul\":20975:21005   */\n      mstore\n        /* \"#utility.yul\":21041:21074   */\n      0x5265656e7472616e637947756172643a207265656e7472616e742063616c6c00\n        /* \"#utility.yul\":21021:21039   */\n      0x44\n      dup3\n      add\n        /* \"#utility.yul\":21014:21075   */\n      mstore\n        /* \"#utility.yul\":21092:21110   */\n      0x64\n      add\n        /* \"StakeFactory.sol\":2963:3026  require(_status != _ENTERED, \"ReentrancyGuard: reentrant call\") */\n      tag_261\n        /* \"#utility.yul\":20761:21116   */\n      jump\n        /* \"StakeFactory.sol\":2963:3026  require(_status != _ENTERED, \"ReentrancyGuard: reentrant call\") */\n    tag_690:\n        /* \"StakeFactory.sol\":2243:2244  2 */\n      0x02\n        /* \"StakeFactory.sol\":3104:3111  _status */\n      0x01\n        /* \"StakeFactory.sol\":3104:3122  _status = _ENTERED */\n      sstore\n        /* \"StakeFactory.sol\":2841:3130  function _nonReentrantBefore() private {... */\n      jump\t// out\n        /* \"StakeFactory.sol\":22371:23263  function allocationPercentageUpdate() internal {... */\n    tag_670:\n        /* \"StakeFactory.sol\":22452:22457  Token */\n      sload(0x02)\n        /* \"StakeFactory.sol\":22452:22482  Token.balanceOf(address(this)) */\n      mload(0x40)\n      shl(0xe0, 0x70a08231)\n      dup2\n      mstore\n        /* \"StakeFactory.sol\":22476:22480  this */\n      address\n        /* \"StakeFactory.sol\":22452:22482  Token.balanceOf(address(this)) */\n      0x04\n      dup3\n      add\n        /* \"#utility.yul\":915:966   */\n      mstore\n        /* \"StakeFactory.sol\":22429:22449  uint256 tokenbalance */\n      0x00\n      swap2\n      sub(shl(0xa0, 0x01), 0x01)\n        /* \"StakeFactory.sol\":22452:22457  Token */\n      and\n      swap1\n        /* \"StakeFactory.sol\":22452:22467  Token.balanceOf */\n      0x70a08231\n      swap1\n        /* \"#utility.yul\":888:906   */\n      0x24\n      add\n        /* \"StakeFactory.sol\":22452:22482  Token.balanceOf(address(this)) */\n      0x20\n      mload(0x40)\n      dup1\n      dup4\n      sub\n      dup2\n      dup7\n      gas\n      staticcall\n      iszero\n      dup1\n      iszero\n      tag_697\n      jumpi\n      returndatasize\n      0x00\n      dup1\n      returndatacopy\n      revert(0x00, returndatasize)\n    tag_697:\n      pop\n      pop\n      pop\n      pop\n      mload(0x40)\n      returndatasize\n      not(0x1f)\n      0x1f\n      dup3\n      add\n      and\n      dup3\n      add\n      dup1\n      0x40\n      mstore\n      pop\n      dup2\n      add\n      swap1\n      tag_698\n      swap2\n      swap1\n      tag_399\n      jump\t// in\n    tag_698:\n        /* \"StakeFactory.sol\":22429:22482  uint256 tokenbalance = Token.balanceOf(address(this)) */\n      swap1\n      pop\n        /* \"StakeFactory.sol\":22539:22548  uint256 i */\n      0x00\n        /* \"StakeFactory.sol\":22534:23256  for (uint256 i = 0; i < allowedLockPeriods.length; i++) {... */\n    tag_699:\n        /* \"StakeFactory.sol\":22558:22576  allowedLockPeriods */\n      0x13\n        /* \"StakeFactory.sol\":22558:22583  allowedLockPeriods.length */\n      sload\n        /* \"StakeFactory.sol\":22554:22583  i < allowedLockPeriods.length */\n      dup2\n      lt\n        /* \"StakeFactory.sol\":22534:23256  for (uint256 i = 0; i < allowedLockPeriods.length; i++) {... */\n      iszero\n      tag_268\n      jumpi\n        /* \"StakeFactory.sol\":22605:22618  uint256 _days */\n      0x00\n        /* \"StakeFactory.sol\":22621:22639  allowedLockPeriods */\n      0x13\n        /* \"StakeFactory.sol\":22640:22641  i */\n      dup3\n        /* \"StakeFactory.sol\":22621:22642  allowedLockPeriods[i] */\n      dup2\n      sload\n      dup2\n      lt\n      tag_703\n      jumpi\n      tag_703\n      tag_277\n      jump\t// in\n    tag_703:\n      0x00\n      swap2\n      dup3\n      mstore\n      0x20\n      dup1\n      dup4\n      keccak256\n      swap1\n      swap2\n      add\n      sload\n        /* \"StakeFactory.sol\":22690:22713  lockPeriodParams[_days] */\n      dup1\n      dup4\n      mstore\n        /* \"StakeFactory.sol\":22690:22706  lockPeriodParams */\n      0x05\n        /* \"StakeFactory.sol\":22690:22713  lockPeriodParams[_days] */\n      dup1\n      dup4\n      mstore\n      0x40\n      swap4\n      dup5\n      swap1\n      keccak256\n        /* \"StakeFactory.sol\":22657:22713  LockPeriodParams memory params = lockPeriodParams[_days] */\n      dup5\n      mload\n      0x0120\n      dup2\n      add\n      dup7\n      mstore\n      dup2\n      sload\n      dup2\n      mstore\n      0x01\n      dup3\n      add\n      sload\n      swap5\n      dup2\n      add\n      swap5\n      swap1\n      swap5\n      mstore\n      0x02\n      dup2\n      add\n      sload\n      swap5\n      dup5\n      add\n      swap5\n      swap1\n      swap5\n      mstore\n      0x03\n      dup5\n      add\n      sload\n      0x60\n      dup5\n      add\n      mstore\n      0x04\n      dup5\n      add\n      sload\n      0x80\n      dup5\n      add\n      mstore\n      dup4\n      add\n      sload\n      0xa0\n      dup4\n      add\n      mstore\n      0x06\n      dup4\n      add\n      sload\n      0xc0\n      dup4\n      add\n      mstore\n      0x07\n      dup4\n      add\n      sload\n      0xff\n      and\n      iszero\n      iszero\n      0xe0\n      dup4\n      add\n      dup2\n      swap1\n      mstore\n      0x08\n      swap1\n      swap4\n      add\n      sload\n      0x0100\n      dup4\n      add\n      mstore\n        /* \"StakeFactory.sol\":22621:22642  allowedLockPeriods[i] */\n      swap3\n      pop\n        /* \"StakeFactory.sol\":22657:22713  LockPeriodParams memory params = lockPeriodParams[_days] */\n      swap1\n        /* \"StakeFactory.sol\":22728:23245  if (!params.fixedBasisPoints) {... */\n      tag_705\n      jumpi\n        /* \"StakeFactory.sol\":22777:22795  uint256 multiplier */\n      0x00\n        /* \"StakeFactory.sol\":22813:22819  params */\n      dup2\n        /* \"StakeFactory.sol\":22813:22828  params.stepSize */\n      0xc0\n      add\n      mload\n        /* \"StakeFactory.sol\":22798:22810  tokenbalance */\n      dup6\n        /* \"StakeFactory.sol\":22798:22828  tokenbalance / params.stepSize */\n      tag_706\n      swap2\n      swap1\n      tag_295\n      jump\t// in\n    tag_706:\n        /* \"StakeFactory.sol\":22777:22828  uint256 multiplier = tokenbalance / params.stepSize */\n      swap1\n      pop\n        /* \"StakeFactory.sol\":22847:22865  uint256 minusValue */\n      0x00\n        /* \"StakeFactory.sol\":22881:22887  params */\n      dup3\n        /* \"StakeFactory.sol\":22881:22901  params.decrementStep */\n      0xa0\n      add\n      mload\n        /* \"StakeFactory.sol\":22868:22878  multiplier */\n      dup3\n        /* \"StakeFactory.sol\":22868:22901  multiplier * params.decrementStep */\n      tag_707\n      swap2\n      swap1\n      tag_280\n      jump\t// in\n    tag_707:\n        /* \"StakeFactory.sol\":22847:22901  uint256 minusValue = multiplier * params.decrementStep */\n      swap1\n      pop\n        /* \"StakeFactory.sol\":22957:22963  params */\n      dup3\n        /* \"StakeFactory.sol\":22957:22971  params.minRate */\n      0x80\n      add\n      mload\n        /* \"StakeFactory.sol\":22940:22946  params */\n      dup4\n        /* \"StakeFactory.sol\":22940:22954  params.maxRate */\n      0x60\n      add\n      mload\n        /* \"StakeFactory.sol\":22940:22971  params.maxRate - params.minRate */\n      tag_708\n      swap2\n      swap1\n      tag_318\n      jump\t// in\n    tag_708:\n        /* \"StakeFactory.sol\":22926:22936  minusValue */\n      dup2\n        /* \"StakeFactory.sol\":22926:22971  minusValue <= params.maxRate - params.minRate */\n      gt\n        /* \"StakeFactory.sol\":22922:23146  if (minusValue <= params.maxRate - params.minRate) {... */\n      tag_709\n      jumpi\n        /* \"StakeFactory.sol\":23033:23043  minusValue */\n      dup1\n        /* \"StakeFactory.sol\":23016:23022  params */\n      dup4\n        /* \"StakeFactory.sol\":23016:23030  params.maxRate */\n      0x60\n      add\n      mload\n        /* \"StakeFactory.sol\":23016:23043  params.maxRate - minusValue */\n      tag_710\n      swap2\n      swap1\n      tag_318\n      jump\t// in\n    tag_710:\n        /* \"StakeFactory.sol\":22996:23013  allocation[_days] */\n      0x00\n      dup6\n      dup2\n      mstore\n        /* \"StakeFactory.sol\":22996:23006  allocation */\n      0x04\n        /* \"StakeFactory.sol\":22996:23013  allocation[_days] */\n      0x20\n      mstore\n      0x40\n      swap1\n      keccak256\n        /* \"StakeFactory.sol\":22996:23043  allocation[_days] = params.maxRate - minusValue */\n      sstore\n        /* \"StakeFactory.sol\":22922:23146  if (minusValue <= params.maxRate - params.minRate) {... */\n      jump(tag_711)\n    tag_709:\n        /* \"StakeFactory.sol\":23112:23126  params.minRate */\n      0x80\n      dup4\n      add\n      mload\n        /* \"StakeFactory.sol\":23092:23109  allocation[_days] */\n      0x00\n      dup6\n      dup2\n      mstore\n        /* \"StakeFactory.sol\":23092:23102  allocation */\n      0x04\n        /* \"StakeFactory.sol\":23092:23109  allocation[_days] */\n      0x20\n      mstore\n      0x40\n      swap1\n      keccak256\n        /* \"StakeFactory.sol\":23092:23126  allocation[_days] = params.minRate */\n      sstore\n        /* \"StakeFactory.sol\":22922:23146  if (minusValue <= params.maxRate - params.minRate) {... */\n    tag_711:\n      pop\n      pop\n        /* \"StakeFactory.sol\":23212:23229  allocation[_days] */\n      0x00\n      dup3\n      dup2\n      mstore\n        /* \"StakeFactory.sol\":23212:23222  allocation */\n      0x04\n        /* \"StakeFactory.sol\":23212:23229  allocation[_days] */\n      0x20\n      swap1\n      dup2\n      mstore\n      0x40\n      dup1\n      dup4\n      keccak256\n      sload\n        /* \"StakeFactory.sol\":23164:23180  lockPeriodParams */\n      0x05\n        /* \"StakeFactory.sol\":23164:23187  lockPeriodParams[_days] */\n      swap1\n      swap3\n      mstore\n      swap1\n      swap2\n      keccak256\n        /* \"StakeFactory.sol\":23164:23209  lockPeriodParams[_days].percentageBasisPoints */\n      0x02\n      add\n        /* \"StakeFactory.sol\":23164:23229  lockPeriodParams[_days].percentageBasisPoints = allocation[_days] */\n      sstore\n        /* \"StakeFactory.sol\":22728:23245  if (!params.fixedBasisPoints) {... */\n    tag_705:\n        /* \"StakeFactory.sol\":22590:23256  {... */\n      pop\n      pop\n        /* \"StakeFactory.sol\":22585:22588  i++ */\n      dup1\n      dup1\n      tag_712\n      swap1\n      tag_301\n      jump\t// in\n    tag_712:\n      swap2\n      pop\n      pop\n        /* \"StakeFactory.sol\":22534:23256  for (uint256 i = 0; i < allowedLockPeriods.length; i++) {... */\n      jump(tag_699)\n    tag_303:\n      mload(0x40)\n      dup1\n      0x0120\n      add\n      0x40\n      mstore\n      dup1\n      0x00\n      dup2\n      mstore\n      0x20\n      add\n      0x00\n      dup2\n      mstore\n      0x20\n      add\n      0x00\n      dup2\n      mstore\n      0x20\n      add\n      0x00\n      dup2\n      mstore\n      0x20\n      add\n      0x00\n      dup2\n      mstore\n      0x20\n      add\n      0x00\n      dup2\n      mstore\n      0x20\n      add\n      0x00\n      dup2\n      mstore\n      0x20\n      add\n      iszero(iszero(0x00))\n      dup2\n      mstore\n      0x20\n      add\n      0x00\n      dup2\n      mstore\n      pop\n      swap1\n      jump\t// out\n    tag_325:\n      mload(0x40)\n      dup1\n      0xe0\n      add\n      0x40\n      mstore\n      dup1\n      and(sub(shl(0xa0, 0x01), 0x01), 0x00)\n      dup2\n      mstore\n      0x20\n      add\n      0x00\n      dup2\n      mstore\n      0x20\n      add\n      0x00\n      dup2\n      mstore\n      0x20\n      add\n      0x60\n      dup2\n      mstore\n      0x20\n      add\n      0x00\n      dup2\n      mstore\n      0x20\n      add\n      0x00\n      dup2\n      mstore\n      0x20\n      add\n      0x60\n      dup2\n      mstore\n      pop\n      swap1\n      jump\t// out\n        /* \"#utility.yul\":14:145   */\n    tag_713:\n      sub(shl(0xa0, 0x01), 0x01)\n        /* \"#utility.yul\":89:120   */\n      dup2\n      and\n        /* \"#utility.yul\":79:121   */\n      dup2\n      eq\n        /* \"#utility.yul\":69:139   */\n      tag_726\n      jumpi\n        /* \"#utility.yul\":135:136   */\n      0x00\n        /* \"#utility.yul\":132:133   */\n      dup1\n        /* \"#utility.yul\":125:137   */\n      revert\n        /* \"#utility.yul\":69:139   */\n    tag_726:\n        /* \"#utility.yul\":14:145   */\n      pop\n      jump\t// out\n        /* \"#utility.yul\":150:397   */\n    tag_57:\n        /* \"#utility.yul\":209:215   */\n      0x00\n        /* \"#utility.yul\":262:264   */\n      0x20\n        /* \"#utility.yul\":250:259   */\n      dup3\n        /* \"#utility.yul\":241:248   */\n      dup5\n        /* \"#utility.yul\":237:260   */\n      sub\n        /* \"#utility.yul\":233:265   */\n      slt\n        /* \"#utility.yul\":230:282   */\n      iszero\n      tag_728\n      jumpi\n        /* \"#utility.yul\":278:279   */\n      0x00\n        /* \"#utility.yul\":275:276   */\n      dup1\n        /* \"#utility.yul\":268:280   */\n      revert\n        /* \"#utility.yul\":230:282   */\n    tag_728:\n        /* \"#utility.yul\":317:326   */\n      dup2\n        /* \"#utility.yul\":304:327   */\n      calldataload\n        /* \"#utility.yul\":336:367   */\n      tag_729\n        /* \"#utility.yul\":361:366   */\n      dup2\n        /* \"#utility.yul\":336:367   */\n      tag_713\n      jump\t// in\n    tag_729:\n        /* \"#utility.yul\":386:391   */\n      swap4\n        /* \"#utility.yul\":150:397   */\n      swap3\n      pop\n      pop\n      pop\n      jump\t// out\n        /* \"#utility.yul\":584:764   */\n    tag_73:\n        /* \"#utility.yul\":643:649   */\n      0x00\n        /* \"#utility.yul\":696:698   */\n      0x20\n        /* \"#utility.yul\":684:693   */\n      dup3\n        /* \"#utility.yul\":675:682   */\n      dup5\n        /* \"#utility.yul\":671:694   */\n      sub\n        /* \"#utility.yul\":667:699   */\n      slt\n        /* \"#utility.yul\":664:716   */\n      iszero\n      tag_732\n      jumpi\n        /* \"#utility.yul\":712:713   */\n      0x00\n        /* \"#utility.yul\":709:710   */\n      dup1\n        /* \"#utility.yul\":702:714   */\n      revert\n        /* \"#utility.yul\":664:716   */\n    tag_732:\n      pop\n        /* \"#utility.yul\":735:758   */\n      calldataload\n      swap2\n        /* \"#utility.yul\":584:764   */\n      swap1\n      pop\n      jump\t// out\n        /* \"#utility.yul\":1743:2329   */\n    tag_714:\n        /* \"#utility.yul\":1831:1836   */\n      dup1\n        /* \"#utility.yul\":1825:1837   */\n      mload\n        /* \"#utility.yul\":1820:1823   */\n      dup3\n        /* \"#utility.yul\":1813:1838   */\n      mstore\n        /* \"#utility.yul\":1887:1891   */\n      0x20\n        /* \"#utility.yul\":1880:1885   */\n      dup2\n        /* \"#utility.yul\":1876:1892   */\n      add\n        /* \"#utility.yul\":1870:1893   */\n      mload\n        /* \"#utility.yul\":1863:1867   */\n      0x20\n        /* \"#utility.yul\":1858:1861   */\n      dup4\n        /* \"#utility.yul\":1854:1868   */\n      add\n        /* \"#utility.yul\":1847:1894   */\n      mstore\n        /* \"#utility.yul\":1943:1947   */\n      0x40\n        /* \"#utility.yul\":1936:1941   */\n      dup2\n        /* \"#utility.yul\":1932:1948   */\n      add\n        /* \"#utility.yul\":1926:1949   */\n      mload\n        /* \"#utility.yul\":1919:1923   */\n      0x40\n        /* \"#utility.yul\":1914:1917   */\n      dup4\n        /* \"#utility.yul\":1910:1924   */\n      add\n        /* \"#utility.yul\":1903:1950   */\n      mstore\n        /* \"#utility.yul\":1999:2003   */\n      0x60\n        /* \"#utility.yul\":1992:1997   */\n      dup2\n        /* \"#utility.yul\":1988:2004   */\n      add\n        /* \"#utility.yul\":1982:2005   */\n      mload\n        /* \"#utility.yul\":1975:1979   */\n      0x60\n        /* \"#utility.yul\":1970:1973   */\n      dup4\n        /* \"#utility.yul\":1966:1980   */\n      add\n        /* \"#utility.yul\":1959:2006   */\n      mstore\n        /* \"#utility.yul\":2055:2059   */\n      0x80\n        /* \"#utility.yul\":2048:2053   */\n      dup2\n        /* \"#utility.yul\":2044:2060   */\n      add\n        /* \"#utility.yul\":2038:2061   */\n      mload\n        /* \"#utility.yul\":2031:2035   */\n      0x80\n        /* \"#utility.yul\":2026:2029   */\n      dup4\n        /* \"#utility.yul\":2022:2036   */\n      add\n        /* \"#utility.yul\":2015:2062   */\n      mstore\n        /* \"#utility.yul\":2111:2115   */\n      0xa0\n        /* \"#utility.yul\":2104:2109   */\n      dup2\n        /* \"#utility.yul\":2100:2116   */\n      add\n        /* \"#utility.yul\":2094:2117   */\n      mload\n        /* \"#utility.yul\":2087:2091   */\n      0xa0\n        /* \"#utility.yul\":2082:2085   */\n      dup4\n        /* \"#utility.yul\":2078:2092   */\n      add\n        /* \"#utility.yul\":2071:2118   */\n      mstore\n        /* \"#utility.yul\":2167:2171   */\n      0xc0\n        /* \"#utility.yul\":2160:2165   */\n      dup2\n        /* \"#utility.yul\":2156:2172   */\n      add\n        /* \"#utility.yul\":2150:2173   */\n      mload\n        /* \"#utility.yul\":2143:2147   */\n      0xc0\n        /* \"#utility.yul\":2138:2141   */\n      dup4\n        /* \"#utility.yul\":2134:2148   */\n      add\n        /* \"#utility.yul\":2127:2174   */\n      mstore\n        /* \"#utility.yul\":2237:2241   */\n      0xe0\n        /* \"#utility.yul\":2230:2235   */\n      dup2\n        /* \"#utility.yul\":2226:2242   */\n      add\n        /* \"#utility.yul\":2220:2243   */\n      mload\n        /* \"#utility.yul\":2213:2244   */\n      iszero\n        /* \"#utility.yul\":2206:2245   */\n      iszero\n        /* \"#utility.yul\":2199:2203   */\n      0xe0\n        /* \"#utility.yul\":2194:2197   */\n      dup4\n        /* \"#utility.yul\":2190:2204   */\n      add\n        /* \"#utility.yul\":2183:2246   */\n      mstore\n        /* \"#utility.yul\":2265:2271   */\n      0x0100\n        /* \"#utility.yul\":2318:2320   */\n      dup1\n        /* \"#utility.yul\":2311:2316   */\n      dup3\n        /* \"#utility.yul\":2307:2321   */\n      add\n        /* \"#utility.yul\":2301:2322   */\n      mload\n        /* \"#utility.yul\":2296:2298   */\n      dup2\n        /* \"#utility.yul\":2291:2294   */\n      dup5\n        /* \"#utility.yul\":2287:2299   */\n      add\n        /* \"#utility.yul\":2280:2323   */\n      mstore\n      pop\n        /* \"#utility.yul\":1743:2329   */\n      pop\n      pop\n      jump\t// out\n        /* \"#utility.yul\":2334:2606   */\n    tag_107:\n        /* \"#utility.yul\":2534:2537   */\n      0x0120\n        /* \"#utility.yul\":2519:2538   */\n      dup2\n      add\n        /* \"#utility.yul\":2547:2600   */\n      tag_737\n        /* \"#utility.yul\":2523:2532   */\n      dup3\n        /* \"#utility.yul\":2582:2588   */\n      dup5\n        /* \"#utility.yul\":2547:2600   */\n      tag_714\n      jump\t// in\n    tag_737:\n        /* \"#utility.yul\":2334:2606   */\n      swap3\n      swap2\n      pop\n      pop\n      jump\t// out\n        /* \"#utility.yul\":2611:3243   */\n    tag_112:\n        /* \"#utility.yul\":2782:2784   */\n      0x20\n        /* \"#utility.yul\":2834:2855   */\n      dup1\n      dup3\n      mstore\n        /* \"#utility.yul\":2904:2917   */\n      dup3\n      mload\n        /* \"#utility.yul\":2807:2825   */\n      dup3\n      dup3\n      add\n        /* \"#utility.yul\":2926:2948   */\n      dup2\n      swap1\n      mstore\n        /* \"#utility.yul\":2753:2757   */\n      0x00\n      swap2\n        /* \"#utility.yul\":2782:2784   */\n      swap1\n        /* \"#utility.yul\":3005:3020   */\n      dup5\n      dup3\n      add\n      swap1\n        /* \"#utility.yul\":2979:2981   */\n      0x40\n        /* \"#utility.yul\":2964:2982   */\n      dup6\n      add\n      swap1\n        /* \"#utility.yul\":2753:2757   */\n      dup5\n        /* \"#utility.yul\":3048:3217   */\n    tag_739:\n        /* \"#utility.yul\":3062:3068   */\n      dup2\n        /* \"#utility.yul\":3059:3060   */\n      dup2\n        /* \"#utility.yul\":3056:3069   */\n      lt\n        /* \"#utility.yul\":3048:3217   */\n      iszero\n      tag_741\n      jumpi\n        /* \"#utility.yul\":3123:3136   */\n      dup4\n      mload\n        /* \"#utility.yul\":3111:3137   */\n      dup4\n      mstore\n        /* \"#utility.yul\":3192:3207   */\n      swap3\n      dup5\n      add\n      swap3\n        /* \"#utility.yul\":3157:3169   */\n      swap2\n      dup5\n      add\n      swap2\n        /* \"#utility.yul\":3084:3085   */\n      0x01\n        /* \"#utility.yul\":3077:3086   */\n      add\n        /* \"#utility.yul\":3048:3217   */\n      jump(tag_739)\n    tag_741:\n      pop\n        /* \"#utility.yul\":3234:3237   */\n      swap1\n      swap7\n        /* \"#utility.yul\":2611:3243   */\n      swap6\n      pop\n      pop\n      pop\n      pop\n      pop\n      pop\n      jump\t// out\n        /* \"#utility.yul\":3248:3496   */\n    tag_116:\n        /* \"#utility.yul\":3316:3322   */\n      0x00\n        /* \"#utility.yul\":3324:3330   */\n      dup1\n        /* \"#utility.yul\":3377:3379   */\n      0x40\n        /* \"#utility.yul\":3365:3374   */\n      dup4\n        /* \"#utility.yul\":3356:3363   */\n      dup6\n        /* \"#utility.yul\":3352:3375   */\n      sub\n        /* \"#utility.yul\":3348:3380   */\n      slt\n        /* \"#utility.yul\":3345:3397   */\n      iszero\n      tag_743\n      jumpi\n        /* \"#utility.yul\":3393:3394   */\n      0x00\n        /* \"#utility.yul\":3390:3391   */\n      dup1\n        /* \"#utility.yul\":3383:3395   */\n      revert\n        /* \"#utility.yul\":3345:3397   */\n    tag_743:\n      pop\n      pop\n        /* \"#utility.yul\":3416:3439   */\n      dup1\n      calldataload\n      swap3\n        /* \"#utility.yul\":3486:3488   */\n      0x20\n        /* \"#utility.yul\":3471:3489   */\n      swap1\n      swap2\n      add\n        /* \"#utility.yul\":3458:3490   */\n      calldataload\n      swap2\n      pop\n        /* \"#utility.yul\":3248:3496   */\n      jump\t// out\n        /* \"#utility.yul\":3501:3936   */\n    tag_715:\n        /* \"#utility.yul\":3554:3557   */\n      0x00\n        /* \"#utility.yul\":3592:3597   */\n      dup2\n        /* \"#utility.yul\":3586:3598   */\n      mload\n        /* \"#utility.yul\":3619:3625   */\n      dup1\n        /* \"#utility.yul\":3614:3617   */\n      dup5\n        /* \"#utility.yul\":3607:3626   */\n      mstore\n        /* \"#utility.yul\":3645:3649   */\n      0x20\n        /* \"#utility.yul\":3674:3676   */\n      dup1\n        /* \"#utility.yul\":3669:3672   */\n      dup6\n        /* \"#utility.yul\":3665:3677   */\n      add\n        /* \"#utility.yul\":3658:3677   */\n      swap5\n      pop\n        /* \"#utility.yul\":3711:3713   */\n      dup1\n        /* \"#utility.yul\":3704:3709   */\n      dup5\n        /* \"#utility.yul\":3700:3714   */\n      add\n        /* \"#utility.yul\":3732:3733   */\n      0x00\n        /* \"#utility.yul\":3742:3911   */\n    tag_745:\n        /* \"#utility.yul\":3756:3762   */\n      dup4\n        /* \"#utility.yul\":3753:3754   */\n      dup2\n        /* \"#utility.yul\":3750:3763   */\n      lt\n        /* \"#utility.yul\":3742:3911   */\n      iszero\n      tag_747\n      jumpi\n        /* \"#utility.yul\":3817:3830   */\n      dup2\n      mload\n        /* \"#utility.yul\":3805:3831   */\n      dup8\n      mstore\n        /* \"#utility.yul\":3851:3863   */\n      swap6\n      dup3\n      add\n      swap6\n        /* \"#utility.yul\":3886:3901   */\n      swap1\n      dup3\n      add\n      swap1\n        /* \"#utility.yul\":3778:3779   */\n      0x01\n        /* \"#utility.yul\":3771:3780   */\n      add\n        /* \"#utility.yul\":3742:3911   */\n      jump(tag_745)\n    tag_747:\n      pop\n        /* \"#utility.yul\":3927:3930   */\n      swap5\n      swap6\n        /* \"#utility.yul\":3501:3936   */\n      swap5\n      pop\n      pop\n      pop\n      pop\n      pop\n      jump\t// out\n        /* \"#utility.yul\":3941:4626   */\n    tag_716:\n        /* \"#utility.yul\":4057:4058   */\n      0x01\n        /* \"#utility.yul\":4053:4054   */\n      dup1\n        /* \"#utility.yul\":4048:4051   */\n      0xa0\n        /* \"#utility.yul\":4044:4055   */\n      shl\n        /* \"#utility.yul\":4040:4059   */\n      sub\n        /* \"#utility.yul\":4032:4037   */\n      dup2\n        /* \"#utility.yul\":4026:4038   */\n      mload\n        /* \"#utility.yul\":4022:4060   */\n      and\n        /* \"#utility.yul\":4017:4020   */\n      dup3\n        /* \"#utility.yul\":4010:4061   */\n      mstore\n        /* \"#utility.yul\":4110:4114   */\n      0x20\n        /* \"#utility.yul\":4103:4108   */\n      dup2\n        /* \"#utility.yul\":4099:4115   */\n      add\n        /* \"#utility.yul\":4093:4116   */\n      mload\n        /* \"#utility.yul\":4086:4090   */\n      0x20\n        /* \"#utility.yul\":4081:4084   */\n      dup4\n        /* \"#utility.yul\":4077:4091   */\n      add\n        /* \"#utility.yul\":4070:4117   */\n      mstore\n        /* \"#utility.yul\":4166:4170   */\n      0x40\n        /* \"#utility.yul\":4159:4164   */\n      dup2\n        /* \"#utility.yul\":4155:4171   */\n      add\n        /* \"#utility.yul\":4149:4172   */\n      mload\n        /* \"#utility.yul\":4142:4146   */\n      0x40\n        /* \"#utility.yul\":4137:4140   */\n      dup4\n        /* \"#utility.yul\":4133:4147   */\n      add\n        /* \"#utility.yul\":4126:4173   */\n      mstore\n        /* \"#utility.yul\":3992:3995   */\n      0x00\n        /* \"#utility.yul\":4219:4223   */\n      0x60\n        /* \"#utility.yul\":4212:4217   */\n      dup3\n        /* \"#utility.yul\":4208:4224   */\n      add\n        /* \"#utility.yul\":4202:4225   */\n      mload\n        /* \"#utility.yul\":4257:4261   */\n      0xe0\n        /* \"#utility.yul\":4250:4254   */\n      0x60\n        /* \"#utility.yul\":4245:4248   */\n      dup6\n        /* \"#utility.yul\":4241:4255   */\n      add\n        /* \"#utility.yul\":4234:4262   */\n      mstore\n        /* \"#utility.yul\":4283:4341   */\n      tag_749\n        /* \"#utility.yul\":4335:4339   */\n      0xe0\n        /* \"#utility.yul\":4330:4333   */\n      dup6\n        /* \"#utility.yul\":4326:4340   */\n      add\n        /* \"#utility.yul\":4312:4324   */\n      dup3\n        /* \"#utility.yul\":4283:4341   */\n      tag_715\n      jump\t// in\n    tag_749:\n        /* \"#utility.yul\":4271:4341   */\n      swap1\n      pop\n        /* \"#utility.yul\":4390:4394   */\n      0x80\n        /* \"#utility.yul\":4383:4388   */\n      dup4\n        /* \"#utility.yul\":4379:4395   */\n      add\n        /* \"#utility.yul\":4373:4396   */\n      mload\n        /* \"#utility.yul\":4366:4370   */\n      0x80\n        /* \"#utility.yul\":4361:4364   */\n      dup6\n        /* \"#utility.yul\":4357:4371   */\n      add\n        /* \"#utility.yul\":4350:4397   */\n      mstore\n        /* \"#utility.yul\":4446:4450   */\n      0xa0\n        /* \"#utility.yul\":4439:4444   */\n      dup4\n        /* \"#utility.yul\":4435:4451   */\n      add\n        /* \"#utility.yul\":4429:4452   */\n      mload\n        /* \"#utility.yul\":4422:4426   */\n      0xa0\n        /* \"#utility.yul\":4417:4420   */\n      dup6\n        /* \"#utility.yul\":4413:4427   */\n      add\n        /* \"#utility.yul\":4406:4453   */\n      mstore\n        /* \"#utility.yul\":4501:4505   */\n      0xc0\n        /* \"#utility.yul\":4494:4499   */\n      dup4\n        /* \"#utility.yul\":4490:4506   */\n      add\n        /* \"#utility.yul\":4484:4507   */\n      mload\n        /* \"#utility.yul\":4549:4552   */\n      dup5\n        /* \"#utility.yul\":4543:4547   */\n      dup3\n        /* \"#utility.yul\":4539:4553   */\n      sub\n        /* \"#utility.yul\":4532:4536   */\n      0xc0\n        /* \"#utility.yul\":4527:4530   */\n      dup7\n        /* \"#utility.yul\":4523:4537   */\n      add\n        /* \"#utility.yul\":4516:4554   */\n      mstore\n        /* \"#utility.yul\":4570:4620   */\n      tag_750\n        /* \"#utility.yul\":4615:4619   */\n      dup3\n        /* \"#utility.yul\":4599:4613   */\n      dup3\n        /* \"#utility.yul\":4570:4620   */\n      tag_715\n      jump\t// in\n    tag_750:\n        /* \"#utility.yul\":4563:4620   */\n      swap6\n        /* \"#utility.yul\":3941:4626   */\n      swap5\n      pop\n      pop\n      pop\n      pop\n      pop\n      jump\t// out\n        /* \"#utility.yul\":4631:5473   */\n    tag_119:\n        /* \"#utility.yul\":4823:4827   */\n      0x00\n        /* \"#utility.yul\":4852:4854   */\n      0x20\n        /* \"#utility.yul\":4892:4894   */\n      dup1\n        /* \"#utility.yul\":4881:4890   */\n      dup4\n        /* \"#utility.yul\":4877:4895   */\n      add\n        /* \"#utility.yul\":4922:4924   */\n      dup2\n        /* \"#utility.yul\":4911:4920   */\n      dup5\n        /* \"#utility.yul\":4904:4925   */\n      mstore\n        /* \"#utility.yul\":4945:4951   */\n      dup1\n        /* \"#utility.yul\":4980:4986   */\n      dup6\n        /* \"#utility.yul\":4974:4987   */\n      mload\n        /* \"#utility.yul\":5011:5017   */\n      dup1\n        /* \"#utility.yul\":5003:5009   */\n      dup4\n        /* \"#utility.yul\":4996:5018   */\n      mstore\n        /* \"#utility.yul\":5049:5051   */\n      0x40\n        /* \"#utility.yul\":5038:5047   */\n      dup7\n        /* \"#utility.yul\":5034:5052   */\n      add\n        /* \"#utility.yul\":5027:5052   */\n      swap2\n      pop\n        /* \"#utility.yul\":5111:5113   */\n      0x40\n        /* \"#utility.yul\":5101:5107   */\n      dup2\n        /* \"#utility.yul\":5098:5099   */\n      0x05\n        /* \"#utility.yul\":5094:5108   */\n      shl\n        /* \"#utility.yul\":5083:5092   */\n      dup8\n        /* \"#utility.yul\":5079:5109   */\n      add\n        /* \"#utility.yul\":5075:5114   */\n      add\n        /* \"#utility.yul\":5061:5114   */\n      swap3\n      pop\n        /* \"#utility.yul\":5149:5151   */\n      dup4\n        /* \"#utility.yul\":5141:5147   */\n      dup8\n        /* \"#utility.yul\":5137:5152   */\n      add\n        /* \"#utility.yul\":5170:5171   */\n      0x00\n        /* \"#utility.yul\":5180:5444   */\n    tag_752:\n        /* \"#utility.yul\":5194:5200   */\n      dup3\n        /* \"#utility.yul\":5191:5192   */\n      dup2\n        /* \"#utility.yul\":5188:5201   */\n      lt\n        /* \"#utility.yul\":5180:5444   */\n      iszero\n      tag_754\n      jumpi\n        /* \"#utility.yul\":5287:5289   */\n      0x3f\n        /* \"#utility.yul\":5283:5290   */\n      not\n        /* \"#utility.yul\":5271:5280   */\n      dup9\n        /* \"#utility.yul\":5263:5269   */\n      dup7\n        /* \"#utility.yul\":5259:5281   */\n      sub\n        /* \"#utility.yul\":5255:5291   */\n      add\n        /* \"#utility.yul\":5250:5253   */\n      dup5\n        /* \"#utility.yul\":5243:5292   */\n      mstore\n        /* \"#utility.yul\":5315:5364   */\n      tag_755\n        /* \"#utility.yul\":5357:5363   */\n      dup6\n        /* \"#utility.yul\":5348:5354   */\n      dup4\n        /* \"#utility.yul\":5342:5355   */\n      mload\n        /* \"#utility.yul\":5315:5364   */\n      tag_716\n      jump\t// in\n    tag_755:\n        /* \"#utility.yul\":5305:5364   */\n      swap5\n      pop\n        /* \"#utility.yul\":5422:5434   */\n      swap3\n      dup6\n      add\n      swap3\n        /* \"#utility.yul\":5387:5402   */\n      swap1\n      dup6\n      add\n      swap1\n        /* \"#utility.yul\":5216:5217   */\n      0x01\n        /* \"#utility.yul\":5209:5218   */\n      add\n        /* \"#utility.yul\":5180:5444   */\n      jump(tag_752)\n    tag_754:\n      pop\n        /* \"#utility.yul\":5461:5467   */\n      swap3\n      swap8\n        /* \"#utility.yul\":4631:5473   */\n      swap7\n      pop\n      pop\n      pop\n      pop\n      pop\n      pop\n      pop\n      jump\t// out\n        /* \"#utility.yul\":5670:5928   */\n    tag_717:\n        /* \"#utility.yul\":5742:5743   */\n      0x00\n        /* \"#utility.yul\":5752:5865   */\n    tag_758:\n        /* \"#utility.yul\":5766:5772   */\n      dup4\n        /* \"#utility.yul\":5763:5764   */\n      dup2\n        /* \"#utility.yul\":5760:5773   */\n      lt\n        /* \"#utility.yul\":5752:5865   */\n      iszero\n      tag_760\n      jumpi\n        /* \"#utility.yul\":5842:5853   */\n      dup2\n      dup2\n      add\n        /* \"#utility.yul\":5836:5854   */\n      mload\n        /* \"#utility.yul\":5823:5834   */\n      dup4\n      dup3\n      add\n        /* \"#utility.yul\":5816:5855   */\n      mstore\n        /* \"#utility.yul\":5788:5790   */\n      0x20\n        /* \"#utility.yul\":5781:5791   */\n      add\n        /* \"#utility.yul\":5752:5865   */\n      jump(tag_758)\n    tag_760:\n        /* \"#utility.yul\":5883:5889   */\n      dup4\n        /* \"#utility.yul\":5880:5881   */\n      dup2\n        /* \"#utility.yul\":5877:5890   */\n      gt\n        /* \"#utility.yul\":5874:5922   */\n      iszero\n      tag_761\n      jumpi\n        /* \"#utility.yul\":5918:5919   */\n      0x00\n        /* \"#utility.yul\":5909:5915   */\n      dup5\n        /* \"#utility.yul\":5904:5907   */\n      dup5\n        /* \"#utility.yul\":5900:5916   */\n      add\n        /* \"#utility.yul\":5893:5920   */\n      mstore\n        /* \"#utility.yul\":5874:5922   */\n    tag_761:\n      pop\n        /* \"#utility.yul\":5670:5928   */\n      pop\n      pop\n      pop\n      jump\t// out\n        /* \"#utility.yul\":5933:6191   */\n    tag_718:\n        /* \"#utility.yul\":5975:5978   */\n      0x00\n        /* \"#utility.yul\":6013:6018   */\n      dup2\n        /* \"#utility.yul\":6007:6019   */\n      mload\n        /* \"#utility.yul\":6040:6046   */\n      dup1\n        /* \"#utility.yul\":6035:6038   */\n      dup5\n        /* \"#utility.yul\":6028:6047   */\n      mstore\n        /* \"#utility.yul\":6056:6119   */\n      tag_763\n        /* \"#utility.yul\":6112:6118   */\n      dup2\n        /* \"#utility.yul\":6105:6109   */\n      0x20\n        /* \"#utility.yul\":6100:6103   */\n      dup7\n        /* \"#utility.yul\":6096:6110   */\n      add\n        /* \"#utility.yul\":6089:6093   */\n      0x20\n        /* \"#utility.yul\":6082:6087   */\n      dup7\n        /* \"#utility.yul\":6078:6094   */\n      add\n        /* \"#utility.yul\":6056:6119   */\n      tag_717\n      jump\t// in\n    tag_763:\n        /* \"#utility.yul\":6173:6175   */\n      0x1f\n        /* \"#utility.yul\":6152:6167   */\n      add\n      not(0x1f)\n        /* \"#utility.yul\":6148:6177   */\n      and\n        /* \"#utility.yul\":6139:6178   */\n      swap3\n      swap1\n      swap3\n      add\n        /* \"#utility.yul\":6180:6184   */\n      0x20\n        /* \"#utility.yul\":6135:6185   */\n      add\n      swap3\n        /* \"#utility.yul\":5933:6191   */\n      swap2\n      pop\n      pop\n      jump\t// out\n        /* \"#utility.yul\":6196:6828   */\n    tag_141:\n      sub(shl(0xa0, 0x01), 0x01)\n        /* \"#utility.yul\":6473:6505   */\n      dup7\n      and\n        /* \"#utility.yul\":6455:6506   */\n      dup2\n      mstore\n        /* \"#utility.yul\":6493:6496   */\n      0xa0\n        /* \"#utility.yul\":6537:6539   */\n      0x20\n        /* \"#utility.yul\":6522:6540   */\n      dup3\n      add\n        /* \"#utility.yul\":6515:6546   */\n      dup2\n      swap1\n      mstore\n      0x00\n      swap1\n        /* \"#utility.yul\":6569:6615   */\n      tag_765\n      swap1\n        /* \"#utility.yul\":6595:6614   */\n      dup4\n      add\n        /* \"#utility.yul\":6587:6593   */\n      dup8\n        /* \"#utility.yul\":6569:6615   */\n      tag_718\n      jump\t// in\n    tag_765:\n        /* \"#utility.yul\":6663:6672   */\n      dup3\n        /* \"#utility.yul\":6655:6661   */\n      dup2\n        /* \"#utility.yul\":6651:6673   */\n      sub\n        /* \"#utility.yul\":6646:6648   */\n      0x40\n        /* \"#utility.yul\":6635:6644   */\n      dup5\n        /* \"#utility.yul\":6631:6649   */\n      add\n        /* \"#utility.yul\":6624:6674   */\n      mstore\n        /* \"#utility.yul\":6691:6724   */\n      tag_766\n        /* \"#utility.yul\":6717:6723   */\n      dup2\n        /* \"#utility.yul\":6709:6715   */\n      dup8\n        /* \"#utility.yul\":6691:6724   */\n      tag_718\n      jump\t// in\n    tag_766:\n        /* \"#utility.yul\":6772:6776   */\n      0xff\n        /* \"#utility.yul\":6760:6777   */\n      swap6\n      swap1\n      swap6\n      and\n        /* \"#utility.yul\":6755:6757   */\n      0x60\n        /* \"#utility.yul\":6740:6758   */\n      dup5\n      add\n        /* \"#utility.yul\":6733:6778   */\n      mstore\n      pop\n      pop\n        /* \"#utility.yul\":6809:6812   */\n      0x80\n        /* \"#utility.yul\":6794:6813   */\n      add\n        /* \"#utility.yul\":6787:6822   */\n      mstore\n        /* \"#utility.yul\":6683:6724   */\n      swap4\n        /* \"#utility.yul\":6196:6828   */\n      swap3\n      pop\n      pop\n      pop\n      jump\t// out\n        /* \"#utility.yul\":6833:7092   */\n    tag_159:\n        /* \"#utility.yul\":7012:7014   */\n      0x20\n        /* \"#utility.yul\":7001:7010   */\n      dup2\n        /* \"#utility.yul\":6994:7015   */\n      mstore\n        /* \"#utility.yul\":6975:6979   */\n      0x00\n        /* \"#utility.yul\":7032:7086   */\n      tag_729\n        /* \"#utility.yul\":7082:7084   */\n      0x20\n        /* \"#utility.yul\":7071:7080   */\n      dup4\n        /* \"#utility.yul\":7067:7085   */\n      add\n        /* \"#utility.yul\":7059:7065   */\n      dup5\n        /* \"#utility.yul\":7032:7086   */\n      tag_716\n      jump\t// in\n        /* \"#utility.yul\":7097:7425   */\n    tag_172:\n        /* \"#utility.yul\":7178:7184   */\n      0x00\n        /* \"#utility.yul\":7186:7192   */\n      dup1\n        /* \"#utility.yul\":7239:7241   */\n      0x40\n        /* \"#utility.yul\":7227:7236   */\n      dup4\n        /* \"#utility.yul\":7218:7225   */\n      dup6\n        /* \"#utility.yul\":7214:7237   */\n      sub\n        /* \"#utility.yul\":7210:7242   */\n      slt\n        /* \"#utility.yul\":7207:7259   */\n      iszero\n      tag_770\n      jumpi\n        /* \"#utility.yul\":7255:7256   */\n      0x00\n        /* \"#utility.yul\":7252:7253   */\n      dup1\n        /* \"#utility.yul\":7245:7257   */\n      revert\n        /* \"#utility.yul\":7207:7259   */\n    tag_770:\n        /* \"#utility.yul\":7294:7303   */\n      dup3\n        /* \"#utility.yul\":7281:7304   */\n      calldataload\n        /* \"#utility.yul\":7313:7344   */\n      tag_771\n        /* \"#utility.yul\":7338:7343   */\n      dup2\n        /* \"#utility.yul\":7313:7344   */\n      tag_713\n      jump\t// in\n    tag_771:\n        /* \"#utility.yul\":7363:7368   */\n      swap5\n        /* \"#utility.yul\":7415:7417   */\n      0x20\n        /* \"#utility.yul\":7400:7418   */\n      swap4\n      swap1\n      swap4\n      add\n        /* \"#utility.yul\":7387:7419   */\n      calldataload\n      swap4\n      pop\n      pop\n      pop\n        /* \"#utility.yul\":7097:7425   */\n      jump\t// out\n        /* \"#utility.yul\":7750:7868   */\n    tag_719:\n        /* \"#utility.yul\":7836:7841   */\n      dup1\n        /* \"#utility.yul\":7829:7842   */\n      iszero\n        /* \"#utility.yul\":7822:7843   */\n      iszero\n        /* \"#utility.yul\":7815:7820   */\n      dup2\n        /* \"#utility.yul\":7812:7844   */\n      eq\n        /* \"#utility.yul\":7802:7862   */\n      tag_726\n      jumpi\n        /* \"#utility.yul\":7858:7859   */\n      0x00\n        /* \"#utility.yul\":7855:7856   */\n      dup1\n        /* \"#utility.yul\":7848:7860   */\n      revert\n        /* \"#utility.yul\":7873:8595   */\n    tag_188:\n        /* \"#utility.yul\":7992:7998   */\n      0x00\n        /* \"#utility.yul\":8000:8006   */\n      dup1\n        /* \"#utility.yul\":8008:8014   */\n      0x00\n        /* \"#utility.yul\":8016:8022   */\n      dup1\n        /* \"#utility.yul\":8024:8030   */\n      0x00\n        /* \"#utility.yul\":8032:8038   */\n      dup1\n        /* \"#utility.yul\":8040:8046   */\n      0x00\n        /* \"#utility.yul\":8048:8054   */\n      dup1\n        /* \"#utility.yul\":8101:8104   */\n      0x0100\n        /* \"#utility.yul\":8089:8098   */\n      dup10\n        /* \"#utility.yul\":8080:8087   */\n      dup12\n        /* \"#utility.yul\":8076:8099   */\n      sub\n        /* \"#utility.yul\":8072:8105   */\n      slt\n        /* \"#utility.yul\":8069:8122   */\n      iszero\n      tag_778\n      jumpi\n        /* \"#utility.yul\":8118:8119   */\n      0x00\n        /* \"#utility.yul\":8115:8116   */\n      dup1\n        /* \"#utility.yul\":8108:8120   */\n      revert\n        /* \"#utility.yul\":8069:8122   */\n    tag_778:\n        /* \"#utility.yul\":8154:8163   */\n      dup9\n        /* \"#utility.yul\":8141:8164   */\n      calldataload\n        /* \"#utility.yul\":8131:8164   */\n      swap8\n      pop\n        /* \"#utility.yul\":8211:8213   */\n      0x20\n        /* \"#utility.yul\":8200:8209   */\n      dup10\n        /* \"#utility.yul\":8196:8214   */\n      add\n        /* \"#utility.yul\":8183:8215   */\n      calldataload\n        /* \"#utility.yul\":8173:8215   */\n      swap7\n      pop\n        /* \"#utility.yul\":8262:8264   */\n      0x40\n        /* \"#utility.yul\":8251:8260   */\n      dup10\n        /* \"#utility.yul\":8247:8265   */\n      add\n        /* \"#utility.yul\":8234:8266   */\n      calldataload\n        /* \"#utility.yul\":8224:8266   */\n      swap6\n      pop\n        /* \"#utility.yul\":8313:8315   */\n      0x60\n        /* \"#utility.yul\":8302:8311   */\n      dup10\n        /* \"#utility.yul\":8298:8316   */\n      add\n        /* \"#utility.yul\":8285:8317   */\n      calldataload\n        /* \"#utility.yul\":8275:8317   */\n      swap5\n      pop\n        /* \"#utility.yul\":8364:8367   */\n      0x80\n        /* \"#utility.yul\":8353:8362   */\n      dup10\n        /* \"#utility.yul\":8349:8368   */\n      add\n        /* \"#utility.yul\":8336:8369   */\n      calldataload\n        /* \"#utility.yul\":8326:8369   */\n      swap4\n      pop\n        /* \"#utility.yul\":8416:8419   */\n      0xa0\n        /* \"#utility.yul\":8405:8414   */\n      dup10\n        /* \"#utility.yul\":8401:8420   */\n      add\n        /* \"#utility.yul\":8388:8421   */\n      calldataload\n        /* \"#utility.yul\":8378:8421   */\n      swap3\n      pop\n        /* \"#utility.yul\":8468:8471   */\n      0xc0\n        /* \"#utility.yul\":8457:8466   */\n      dup10\n        /* \"#utility.yul\":8453:8472   */\n      add\n        /* \"#utility.yul\":8440:8473   */\n      calldataload\n        /* \"#utility.yul\":8430:8473   */\n      swap2\n      pop\n        /* \"#utility.yul\":8523:8526   */\n      0xe0\n        /* \"#utility.yul\":8512:8521   */\n      dup10\n        /* \"#utility.yul\":8508:8527   */\n      add\n        /* \"#utility.yul\":8495:8528   */\n      calldataload\n        /* \"#utility.yul\":8537:8565   */\n      tag_779\n        /* \"#utility.yul\":8559:8564   */\n      dup2\n        /* \"#utility.yul\":8537:8565   */\n      tag_719\n      jump\t// in\n    tag_779:\n        /* \"#utility.yul\":8584:8589   */\n      dup1\n        /* \"#utility.yul\":8574:8589   */\n      swap2\n      pop\n      pop\n        /* \"#utility.yul\":7873:8595   */\n      swap3\n      swap6\n      swap9\n      pop\n      swap3\n      swap6\n      swap9\n      swap1\n      swap4\n      swap7\n      pop\n      jump\t// out\n        /* \"#utility.yul\":9010:9137   */\n    tag_321:\n        /* \"#utility.yul\":9071:9081   */\n      0x4e487b71\n        /* \"#utility.yul\":9066:9069   */\n      0xe0\n        /* \"#utility.yul\":9062:9082   */\n      shl\n        /* \"#utility.yul\":9059:9060   */\n      0x00\n        /* \"#utility.yul\":9052:9083   */\n      mstore\n        /* \"#utility.yul\":9102:9106   */\n      0x41\n        /* \"#utility.yul\":9099:9100   */\n      0x04\n        /* \"#utility.yul\":9092:9107   */\n      mstore\n        /* \"#utility.yul\":9126:9130   */\n      0x24\n        /* \"#utility.yul\":9123:9124   */\n      0x00\n        /* \"#utility.yul\":9116:9131   */\n      revert\n        /* \"#utility.yul\":9142:9417   */\n    tag_720:\n        /* \"#utility.yul\":9213:9215   */\n      0x40\n        /* \"#utility.yul\":9207:9216   */\n      mload\n        /* \"#utility.yul\":9278:9280   */\n      0x1f\n        /* \"#utility.yul\":9259:9272   */\n      dup3\n      add\n      not(0x1f)\n        /* \"#utility.yul\":9255:9282   */\n      and\n        /* \"#utility.yul\":9243:9283   */\n      dup2\n      add\n        /* \"#utility.yul\":9313:9331   */\n      0xffffffffffffffff\n        /* \"#utility.yul\":9298:9332   */\n      dup2\n      gt\n        /* \"#utility.yul\":9334:9356   */\n      dup3\n      dup3\n      lt\n        /* \"#utility.yul\":9295:9357   */\n      or\n        /* \"#utility.yul\":9292:9380   */\n      iszero\n      tag_785\n      jumpi\n        /* \"#utility.yul\":9360:9378   */\n      tag_785\n      tag_321\n      jump\t// in\n    tag_785:\n        /* \"#utility.yul\":9396:9398   */\n      0x40\n        /* \"#utility.yul\":9389:9411   */\n      mstore\n        /* \"#utility.yul\":9142:9417   */\n      swap2\n      swap1\n      pop\n      jump\t// out\n        /* \"#utility.yul\":9422:10368   */\n    tag_221:\n        /* \"#utility.yul\":9506:9512   */\n      0x00\n        /* \"#utility.yul\":9537:9539   */\n      0x20\n        /* \"#utility.yul\":9580:9582   */\n      dup1\n        /* \"#utility.yul\":9568:9577   */\n      dup4\n        /* \"#utility.yul\":9559:9566   */\n      dup6\n        /* \"#utility.yul\":9555:9578   */\n      sub\n        /* \"#utility.yul\":9551:9583   */\n      slt\n        /* \"#utility.yul\":9548:9600   */\n      iszero\n      tag_787\n      jumpi\n        /* \"#utility.yul\":9596:9597   */\n      0x00\n        /* \"#utility.yul\":9593:9594   */\n      dup1\n        /* \"#utility.yul\":9586:9598   */\n      revert\n        /* \"#utility.yul\":9548:9600   */\n    tag_787:\n        /* \"#utility.yul\":9636:9645   */\n      dup3\n        /* \"#utility.yul\":9623:9646   */\n      calldataload\n        /* \"#utility.yul\":9665:9683   */\n      0xffffffffffffffff\n        /* \"#utility.yul\":9706:9708   */\n      dup1\n        /* \"#utility.yul\":9698:9704   */\n      dup3\n        /* \"#utility.yul\":9695:9709   */\n      gt\n        /* \"#utility.yul\":9692:9726   */\n      iszero\n      tag_788\n      jumpi\n        /* \"#utility.yul\":9722:9723   */\n      0x00\n        /* \"#utility.yul\":9719:9720   */\n      dup1\n        /* \"#utility.yul\":9712:9724   */\n      revert\n        /* \"#utility.yul\":9692:9726   */\n    tag_788:\n        /* \"#utility.yul\":9760:9766   */\n      dup2\n        /* \"#utility.yul\":9749:9758   */\n      dup6\n        /* \"#utility.yul\":9745:9767   */\n      add\n        /* \"#utility.yul\":9735:9767   */\n      swap2\n      pop\n        /* \"#utility.yul\":9805:9812   */\n      dup6\n        /* \"#utility.yul\":9798:9802   */\n      0x1f\n        /* \"#utility.yul\":9794:9796   */\n      dup4\n        /* \"#utility.yul\":9790:9803   */\n      add\n        /* \"#utility.yul\":9786:9813   */\n      slt\n        /* \"#utility.yul\":9776:9831   */\n      tag_789\n      jumpi\n        /* \"#utility.yul\":9827:9828   */\n      0x00\n        /* \"#utility.yul\":9824:9825   */\n      dup1\n        /* \"#utility.yul\":9817:9829   */\n      revert\n        /* \"#utility.yul\":9776:9831   */\n    tag_789:\n        /* \"#utility.yul\":9863:9865   */\n      dup2\n        /* \"#utility.yul\":9850:9866   */\n      calldataload\n        /* \"#utility.yul\":9885:9887   */\n      dup2\n        /* \"#utility.yul\":9881:9883   */\n      dup2\n        /* \"#utility.yul\":9878:9888   */\n      gt\n        /* \"#utility.yul\":9875:9911   */\n      iszero\n      tag_791\n      jumpi\n        /* \"#utility.yul\":9891:9909   */\n      tag_791\n      tag_321\n      jump\t// in\n    tag_791:\n        /* \"#utility.yul\":9937:9939   */\n      dup1\n        /* \"#utility.yul\":9934:9935   */\n      0x05\n        /* \"#utility.yul\":9930:9940   */\n      shl\n        /* \"#utility.yul\":9920:9940   */\n      swap2\n      pop\n        /* \"#utility.yul\":9960:9988   */\n      tag_792\n        /* \"#utility.yul\":9984:9986   */\n      dup5\n        /* \"#utility.yul\":9980:9982   */\n      dup4\n        /* \"#utility.yul\":9976:9987   */\n      add\n        /* \"#utility.yul\":9960:9988   */\n      tag_720\n      jump\t// in\n    tag_792:\n        /* \"#utility.yul\":10022:10037   */\n      dup2\n      dup2\n      mstore\n        /* \"#utility.yul\":10092:10103   */\n      swap2\n      dup4\n      add\n        /* \"#utility.yul\":10088:10108   */\n      dup5\n      add\n      swap2\n        /* \"#utility.yul\":10053:10065   */\n      dup5\n      dup2\n      add\n      swap1\n        /* \"#utility.yul\":10120:10139   */\n      dup9\n      dup5\n      gt\n        /* \"#utility.yul\":10117:10156   */\n      iszero\n      tag_793\n      jumpi\n        /* \"#utility.yul\":10152:10153   */\n      0x00\n        /* \"#utility.yul\":10149:10150   */\n      dup1\n        /* \"#utility.yul\":10142:10154   */\n      revert\n        /* \"#utility.yul\":10117:10156   */\n    tag_793:\n        /* \"#utility.yul\":10176:10187   */\n      swap4\n      dup6\n      add\n      swap4\n        /* \"#utility.yul\":10196:10338   */\n    tag_794:\n        /* \"#utility.yul\":10212:10218   */\n      dup4\n        /* \"#utility.yul\":10207:10210   */\n      dup6\n        /* \"#utility.yul\":10204:10219   */\n      lt\n        /* \"#utility.yul\":10196:10338   */\n      iszero\n      tag_796\n      jumpi\n        /* \"#utility.yul\":10278:10295   */\n      dup5\n      calldataload\n        /* \"#utility.yul\":10266:10296   */\n      dup3\n      mstore\n        /* \"#utility.yul\":10229:10241   */\n      swap4\n      dup6\n      add\n      swap4\n        /* \"#utility.yul\":10316:10328   */\n      swap1\n      dup6\n      add\n      swap1\n        /* \"#utility.yul\":10196:10338   */\n      jump(tag_794)\n    tag_796:\n        /* \"#utility.yul\":10357:10362   */\n      swap9\n        /* \"#utility.yul\":9422:10368   */\n      swap8\n      pop\n      pop\n      pop\n      pop\n      pop\n      pop\n      pop\n      pop\n      jump\t// out\n        /* \"#utility.yul\":10697:11427   */\n    tag_238:\n        /* \"#utility.yul\":10934:10936   */\n      0x20\n        /* \"#utility.yul\":10986:11007   */\n      dup1\n      dup3\n      mstore\n        /* \"#utility.yul\":11056:11069   */\n      dup3\n      mload\n        /* \"#utility.yul\":10959:10977   */\n      dup3\n      dup3\n      add\n        /* \"#utility.yul\":11078:11100   */\n      dup2\n      swap1\n      mstore\n        /* \"#utility.yul\":10905:10909   */\n      0x00\n      swap2\n        /* \"#utility.yul\":10934:10936   */\n      swap1\n        /* \"#utility.yul\":11157:11172   */\n      dup5\n      dup3\n      add\n      swap1\n        /* \"#utility.yul\":11131:11133   */\n      0x40\n        /* \"#utility.yul\":11116:11134   */\n      dup6\n      add\n      swap1\n        /* \"#utility.yul\":10905:10909   */\n      dup5\n        /* \"#utility.yul\":11200:11401   */\n    tag_799:\n        /* \"#utility.yul\":11214:11220   */\n      dup2\n        /* \"#utility.yul\":11211:11212   */\n      dup2\n        /* \"#utility.yul\":11208:11221   */\n      lt\n        /* \"#utility.yul\":11200:11401   */\n      iszero\n      tag_741\n      jumpi\n        /* \"#utility.yul\":11263:11317   */\n      tag_802\n        /* \"#utility.yul\":11313:11316   */\n      dup4\n        /* \"#utility.yul\":11304:11310   */\n      dup6\n        /* \"#utility.yul\":11298:11311   */\n      mload\n        /* \"#utility.yul\":11263:11317   */\n      tag_714\n      jump\t// in\n    tag_802:\n        /* \"#utility.yul\":11376:11391   */\n      swap3\n      dup5\n      add\n      swap3\n        /* \"#utility.yul\":11346:11352   */\n      0x0120\n        /* \"#utility.yul\":11337:11353   */\n      swap3\n      swap1\n      swap3\n      add\n      swap2\n        /* \"#utility.yul\":11236:11237   */\n      0x01\n        /* \"#utility.yul\":11229:11238   */\n      add\n        /* \"#utility.yul\":11200:11401   */\n      jump(tag_799)\n        /* \"#utility.yul\":11432:11788   */\n    tag_262:\n        /* \"#utility.yul\":11634:11636   */\n      0x20\n        /* \"#utility.yul\":11616:11637   */\n      dup1\n      dup3\n      mstore\n        /* \"#utility.yul\":11653:11671   */\n      dup2\n      dup2\n      add\n        /* \"#utility.yul\":11646:11676   */\n      mstore\n        /* \"#utility.yul\":11712:11746   */\n      0x4f776e61626c653a2063616c6c6572206973206e6f7420746865206f776e6572\n        /* \"#utility.yul\":11707:11709   */\n      0x40\n        /* \"#utility.yul\":11692:11710   */\n      dup3\n      add\n        /* \"#utility.yul\":11685:11747   */\n      mstore\n        /* \"#utility.yul\":11779:11781   */\n      0x60\n        /* \"#utility.yul\":11764:11782   */\n      add\n      swap1\n        /* \"#utility.yul\":11432:11788   */\n      jump\t// out\n        /* \"#utility.yul\":12148:12275   */\n    tag_277:\n        /* \"#utility.yul\":12209:12219   */\n      0x4e487b71\n        /* \"#utility.yul\":12204:12207   */\n      0xe0\n        /* \"#utility.yul\":12200:12220   */\n      shl\n        /* \"#utility.yul\":12197:12198   */\n      0x00\n        /* \"#utility.yul\":12190:12221   */\n      mstore\n        /* \"#utility.yul\":12240:12244   */\n      0x32\n        /* \"#utility.yul\":12237:12238   */\n      0x04\n        /* \"#utility.yul\":12230:12245   */\n      mstore\n        /* \"#utility.yul\":12264:12268   */\n      0x24\n        /* \"#utility.yul\":12261:12262   */\n      0x00\n        /* \"#utility.yul\":12254:12269   */\n      revert\n        /* \"#utility.yul\":12280:12407   */\n    tag_721:\n        /* \"#utility.yul\":12341:12351   */\n      0x4e487b71\n        /* \"#utility.yul\":12336:12339   */\n      0xe0\n        /* \"#utility.yul\":12332:12352   */\n      shl\n        /* \"#utility.yul\":12329:12330   */\n      0x00\n        /* \"#utility.yul\":12322:12353   */\n      mstore\n        /* \"#utility.yul\":12372:12376   */\n      0x11\n        /* \"#utility.yul\":12369:12370   */\n      0x04\n        /* \"#utility.yul\":12362:12377   */\n      mstore\n        /* \"#utility.yul\":12396:12400   */\n      0x24\n        /* \"#utility.yul\":12393:12394   */\n      0x00\n        /* \"#utility.yul\":12386:12401   */\n      revert\n        /* \"#utility.yul\":12412:12580   */\n    tag_280:\n        /* \"#utility.yul\":12452:12459   */\n      0x00\n        /* \"#utility.yul\":12518:12519   */\n      dup2\n        /* \"#utility.yul\":12514:12515   */\n      0x00\n        /* \"#utility.yul\":12510:12516   */\n      not\n        /* \"#utility.yul\":12506:12520   */\n      div\n        /* \"#utility.yul\":12503:12504   */\n      dup4\n        /* \"#utility.yul\":12500:12521   */\n      gt\n        /* \"#utility.yul\":12495:12496   */\n      dup3\n        /* \"#utility.yul\":12488:12497   */\n      iszero\n        /* \"#utility.yul\":12481:12498   */\n      iszero\n        /* \"#utility.yul\":12477:12522   */\n      and\n        /* \"#utility.yul\":12474:12545   */\n      iszero\n      tag_809\n      jumpi\n        /* \"#utility.yul\":12525:12543   */\n      tag_809\n      tag_721\n      jump\t// in\n    tag_809:\n      pop\n        /* \"#utility.yul\":12565:12574   */\n      mul\n      swap1\n        /* \"#utility.yul\":12412:12580   */\n      jump\t// out\n        /* \"#utility.yul\":12585:12713   */\n    tag_285:\n        /* \"#utility.yul\":12625:12628   */\n      0x00\n        /* \"#utility.yul\":12656:12657   */\n      dup3\n        /* \"#utility.yul\":12652:12658   */\n      not\n        /* \"#utility.yul\":12649:12650   */\n      dup3\n        /* \"#utility.yul\":12646:12659   */\n      gt\n        /* \"#utility.yul\":12643:12682   */\n      iszero\n      tag_812\n      jumpi\n        /* \"#utility.yul\":12662:12680   */\n      tag_812\n      tag_721\n      jump\t// in\n    tag_812:\n      pop\n        /* \"#utility.yul\":12698:12707   */\n      add\n      swap1\n        /* \"#utility.yul\":12585:12713   */\n      jump\t// out\n        /* \"#utility.yul\":12718:12935   */\n    tag_295:\n        /* \"#utility.yul\":12758:12759   */\n      0x00\n        /* \"#utility.yul\":12784:12785   */\n      dup3\n        /* \"#utility.yul\":12774:12906   */\n      tag_814\n      jumpi\n        /* \"#utility.yul\":12828:12838   */\n      0x4e487b71\n        /* \"#utility.yul\":12823:12826   */\n      0xe0\n        /* \"#utility.yul\":12819:12839   */\n      shl\n        /* \"#utility.yul\":12816:12817   */\n      0x00\n        /* \"#utility.yul\":12809:12840   */\n      mstore\n        /* \"#utility.yul\":12863:12867   */\n      0x12\n        /* \"#utility.yul\":12860:12861   */\n      0x04\n        /* \"#utility.yul\":12853:12868   */\n      mstore\n        /* \"#utility.yul\":12891:12895   */\n      0x24\n        /* \"#utility.yul\":12888:12889   */\n      0x00\n        /* \"#utility.yul\":12881:12896   */\n      revert\n        /* \"#utility.yul\":12774:12906   */\n    tag_814:\n      pop\n        /* \"#utility.yul\":12920:12929   */\n      div\n      swap1\n        /* \"#utility.yul\":12718:12935   */\n      jump\t// out\n        /* \"#utility.yul\":12940:13362   */\n    tag_722:\n        /* \"#utility.yul\":13029:13030   */\n      0x01\n        /* \"#utility.yul\":13072:13077   */\n      dup2\n        /* \"#utility.yul\":13029:13030   */\n      dup2\n        /* \"#utility.yul\":13086:13356   */\n    tag_816:\n        /* \"#utility.yul\":13107:13114   */\n      dup1\n        /* \"#utility.yul\":13097:13105   */\n      dup6\n        /* \"#utility.yul\":13094:13115   */\n      gt\n        /* \"#utility.yul\":13086:13356   */\n      iszero\n      tag_818\n      jumpi\n        /* \"#utility.yul\":13166:13170   */\n      dup2\n        /* \"#utility.yul\":13162:13163   */\n      0x00\n        /* \"#utility.yul\":13158:13164   */\n      not\n        /* \"#utility.yul\":13154:13171   */\n      div\n        /* \"#utility.yul\":13148:13152   */\n      dup3\n        /* \"#utility.yul\":13145:13172   */\n      gt\n        /* \"#utility.yul\":13142:13195   */\n      iszero\n      tag_820\n      jumpi\n        /* \"#utility.yul\":13175:13193   */\n      tag_820\n      tag_721\n      jump\t// in\n    tag_820:\n        /* \"#utility.yul\":13225:13232   */\n      dup1\n        /* \"#utility.yul\":13215:13223   */\n      dup6\n        /* \"#utility.yul\":13211:13233   */\n      and\n        /* \"#utility.yul\":13208:13263   */\n      iszero\n      tag_821\n      jumpi\n        /* \"#utility.yul\":13245:13261   */\n      swap2\n      dup2\n      mul\n      swap2\n        /* \"#utility.yul\":13208:13263   */\n    tag_821:\n        /* \"#utility.yul\":13324:13346   */\n      swap4\n      dup5\n      shr\n      swap4\n        /* \"#utility.yul\":13284:13299   */\n      swap1\n      dup1\n      mul\n      swap1\n        /* \"#utility.yul\":13086:13356   */\n      jump(tag_816)\n    tag_818:\n        /* \"#utility.yul\":13090:13093   */\n      pop\n        /* \"#utility.yul\":12940:13362   */\n      swap3\n      pop\n      swap3\n      swap1\n      pop\n      jump\t// out\n        /* \"#utility.yul\":13367:14173   */\n    tag_723:\n        /* \"#utility.yul\":13416:13421   */\n      0x00\n        /* \"#utility.yul\":13446:13454   */\n      dup3\n        /* \"#utility.yul\":13436:13516   */\n      tag_823\n      jumpi\n      pop\n        /* \"#utility.yul\":13487:13488   */\n      0x01\n        /* \"#utility.yul\":13501:13506   */\n      jump(tag_737)\n        /* \"#utility.yul\":13436:13516   */\n    tag_823:\n        /* \"#utility.yul\":13535:13539   */\n      dup2\n        /* \"#utility.yul\":13525:13601   */\n      tag_824\n      jumpi\n      pop\n        /* \"#utility.yul\":13572:13573   */\n      0x00\n        /* \"#utility.yul\":13586:13591   */\n      jump(tag_737)\n        /* \"#utility.yul\":13525:13601   */\n    tag_824:\n        /* \"#utility.yul\":13617:13621   */\n      dup2\n        /* \"#utility.yul\":13635:13636   */\n      0x01\n        /* \"#utility.yul\":13630:13689   */\n      dup2\n      eq\n      tag_826\n      jumpi\n        /* \"#utility.yul\":13703:13704   */\n      0x02\n        /* \"#utility.yul\":13698:13828   */\n      dup2\n      eq\n      tag_827\n      jumpi\n        /* \"#utility.yul\":13610:13828   */\n      jump(tag_825)\n        /* \"#utility.yul\":13630:13689   */\n    tag_826:\n        /* \"#utility.yul\":13660:13661   */\n      0x01\n        /* \"#utility.yul\":13651:13661   */\n      swap2\n      pop\n        /* \"#utility.yul\":13674:13679   */\n      pop\n      jump(tag_737)\n        /* \"#utility.yul\":13698:13828   */\n    tag_827:\n        /* \"#utility.yul\":13735:13738   */\n      0xff\n        /* \"#utility.yul\":13725:13733   */\n      dup5\n        /* \"#utility.yul\":13722:13739   */\n      gt\n        /* \"#utility.yul\":13719:13762   */\n      iszero\n      tag_829\n      jumpi\n        /* \"#utility.yul\":13742:13760   */\n      tag_829\n      tag_721\n      jump\t// in\n    tag_829:\n      pop\n      pop\n        /* \"#utility.yul\":13798:13799   */\n      0x01\n        /* \"#utility.yul\":13784:13800   */\n      dup3\n      shl\n        /* \"#utility.yul\":13813:13818   */\n      jump(tag_737)\n        /* \"#utility.yul\":13610:13828   */\n    tag_825:\n      pop\n        /* \"#utility.yul\":13912:13914   */\n      0x20\n        /* \"#utility.yul\":13902:13910   */\n      dup4\n        /* \"#utility.yul\":13899:13915   */\n      lt\n        /* \"#utility.yul\":13893:13896   */\n      0x0133\n        /* \"#utility.yul\":13887:13891   */\n      dup4\n        /* \"#utility.yul\":13884:13897   */\n      lt\n        /* \"#utility.yul\":13880:13916   */\n      and\n        /* \"#utility.yul\":13874:13876   */\n      0x4e\n        /* \"#utility.yul\":13864:13872   */\n      dup5\n        /* \"#utility.yul\":13861:13877   */\n      lt\n        /* \"#utility.yul\":13856:13858   */\n      0x0b\n        /* \"#utility.yul\":13850:13854   */\n      dup5\n        /* \"#utility.yul\":13847:13859   */\n      lt\n        /* \"#utility.yul\":13843:13878   */\n      and\n        /* \"#utility.yul\":13840:13917   */\n      or\n        /* \"#utility.yul\":13837:13996   */\n      iszero\n      tag_830\n      jumpi\n      pop\n        /* \"#utility.yul\":13949:13968   */\n      dup2\n      dup2\n      exp\n        /* \"#utility.yul\":13981:13986   */\n      jump(tag_737)\n        /* \"#utility.yul\":13837:13996   */\n    tag_830:\n        /* \"#utility.yul\":14028:14062   */\n      tag_831\n        /* \"#utility.yul\":14053:14061   */\n      dup4\n        /* \"#utility.yul\":14047:14051   */\n      dup4\n        /* \"#utility.yul\":14028:14062   */\n      tag_722\n      jump\t// in\n    tag_831:\n        /* \"#utility.yul\":14098:14104   */\n      dup1\n        /* \"#utility.yul\":14094:14095   */\n      0x00\n        /* \"#utility.yul\":14090:14096   */\n      not\n        /* \"#utility.yul\":14086:14105   */\n      div\n        /* \"#utility.yul\":14077:14084   */\n      dup3\n        /* \"#utility.yul\":14074:14106   */\n      gt\n        /* \"#utility.yul\":14071:14129   */\n      iszero\n      tag_833\n      jumpi\n        /* \"#utility.yul\":14109:14127   */\n      tag_833\n      tag_721\n      jump\t// in\n    tag_833:\n        /* \"#utility.yul\":14147:14167   */\n      mul\n      swap4\n        /* \"#utility.yul\":13367:14173   */\n      swap3\n      pop\n      pop\n      pop\n      jump\t// out\n        /* \"#utility.yul\":14178:14309   */\n    tag_297:\n        /* \"#utility.yul\":14238:14243   */\n      0x00\n        /* \"#utility.yul\":14267:14303   */\n      tag_729\n        /* \"#utility.yul\":14294:14302   */\n      dup4\n        /* \"#utility.yul\":14288:14292   */\n      dup4\n        /* \"#utility.yul\":14267:14303   */\n      tag_723\n      jump\t// in\n        /* \"#utility.yul\":14314:14449   */\n    tag_301:\n        /* \"#utility.yul\":14353:14356   */\n      0x00\n      not(0x00)\n        /* \"#utility.yul\":14374:14391   */\n      dup3\n      eq\n        /* \"#utility.yul\":14371:14414   */\n      iszero\n      tag_838\n      jumpi\n        /* \"#utility.yul\":14394:14412   */\n      tag_838\n      tag_721\n      jump\t// in\n    tag_838:\n      pop\n        /* \"#utility.yul\":14441:14442   */\n      0x01\n        /* \"#utility.yul\":14430:14443   */\n      add\n      swap1\n        /* \"#utility.yul\":14314:14449   */\n      jump\t// out\n        /* \"#utility.yul\":14454:14799   */\n    tag_309:\n        /* \"#utility.yul\":14656:14658   */\n      0x20\n        /* \"#utility.yul\":14638:14659   */\n      dup1\n      dup3\n      mstore\n        /* \"#utility.yul\":14695:14697   */\n      0x15\n        /* \"#utility.yul\":14675:14693   */\n      swap1\n      dup3\n      add\n        /* \"#utility.yul\":14668:14698   */\n      mstore\n      shl(0x5a, 0x131bd8dac81c195c9a5bd9081b9bdd08199bdd5b99)\n        /* \"#utility.yul\":14729:14731   */\n      0x40\n        /* \"#utility.yul\":14714:14732   */\n      dup3\n      add\n        /* \"#utility.yul\":14707:14758   */\n      mstore\n        /* \"#utility.yul\":14790:14792   */\n      0x60\n        /* \"#utility.yul\":14775:14793   */\n      add\n      swap1\n        /* \"#utility.yul\":14454:14799   */\n      jump\t// out\n        /* \"#utility.yul\":14804:14929   */\n    tag_318:\n        /* \"#utility.yul\":14844:14848   */\n      0x00\n        /* \"#utility.yul\":14872:14873   */\n      dup3\n        /* \"#utility.yul\":14869:14870   */\n      dup3\n        /* \"#utility.yul\":14866:14874   */\n      lt\n        /* \"#utility.yul\":14863:14897   */\n      iszero\n      tag_842\n      jumpi\n        /* \"#utility.yul\":14877:14895   */\n      tag_842\n      tag_721\n      jump\t// in\n    tag_842:\n      pop\n        /* \"#utility.yul\":14914:14923   */\n      sub\n      swap1\n        /* \"#utility.yul\":14804:14929   */\n      jump\t// out\n        /* \"#utility.yul\":14934:15061   */\n    tag_367:\n        /* \"#utility.yul\":14995:15005   */\n      0x4e487b71\n        /* \"#utility.yul\":14990:14993   */\n      0xe0\n        /* \"#utility.yul\":14986:15006   */\n      shl\n        /* \"#utility.yul\":14983:14984   */\n      0x00\n        /* \"#utility.yul\":14976:15007   */\n      mstore\n        /* \"#utility.yul\":15026:15030   */\n      0x31\n        /* \"#utility.yul\":15023:15024   */\n      0x04\n        /* \"#utility.yul\":15016:15031   */\n      mstore\n        /* \"#utility.yul\":15050:15054   */\n      0x24\n        /* \"#utility.yul\":15047:15048   */\n      0x00\n        /* \"#utility.yul\":15040:15055   */\n      revert\n        /* \"#utility.yul\":15410:16116   */\n    tag_387:\n        /* \"#utility.yul\":15490:15496   */\n      0x00\n        /* \"#utility.yul\":15543:15545   */\n      0x20\n        /* \"#utility.yul\":15531:15540   */\n      dup3\n        /* \"#utility.yul\":15522:15529   */\n      dup5\n        /* \"#utility.yul\":15518:15541   */\n      sub\n        /* \"#utility.yul\":15514:15546   */\n      slt\n        /* \"#utility.yul\":15511:15563   */\n      iszero\n      tag_846\n      jumpi\n        /* \"#utility.yul\":15559:15560   */\n      0x00\n        /* \"#utility.yul\":15556:15557   */\n      dup1\n        /* \"#utility.yul\":15549:15561   */\n      revert\n        /* \"#utility.yul\":15511:15563   */\n    tag_846:\n        /* \"#utility.yul\":15592:15601   */\n      dup2\n        /* \"#utility.yul\":15586:15602   */\n      mload\n        /* \"#utility.yul\":15621:15639   */\n      0xffffffffffffffff\n        /* \"#utility.yul\":15662:15664   */\n      dup1\n        /* \"#utility.yul\":15654:15660   */\n      dup3\n        /* \"#utility.yul\":15651:15665   */\n      gt\n        /* \"#utility.yul\":15648:15682   */\n      iszero\n      tag_847\n      jumpi\n        /* \"#utility.yul\":15678:15679   */\n      0x00\n        /* \"#utility.yul\":15675:15676   */\n      dup1\n        /* \"#utility.yul\":15668:15680   */\n      revert\n        /* \"#utility.yul\":15648:15682   */\n    tag_847:\n        /* \"#utility.yul\":15716:15722   */\n      dup2\n        /* \"#utility.yul\":15705:15714   */\n      dup5\n        /* \"#utility.yul\":15701:15723   */\n      add\n        /* \"#utility.yul\":15691:15723   */\n      swap2\n      pop\n        /* \"#utility.yul\":15761:15768   */\n      dup5\n        /* \"#utility.yul\":15754:15758   */\n      0x1f\n        /* \"#utility.yul\":15750:15752   */\n      dup4\n        /* \"#utility.yul\":15746:15759   */\n      add\n        /* \"#utility.yul\":15742:15769   */\n      slt\n        /* \"#utility.yul\":15732:15787   */\n      tag_848\n      jumpi\n        /* \"#utility.yul\":15783:15784   */\n      0x00\n        /* \"#utility.yul\":15780:15781   */\n      dup1\n        /* \"#utility.yul\":15773:15785   */\n      revert\n        /* \"#utility.yul\":15732:15787   */\n    tag_848:\n        /* \"#utility.yul\":15812:15814   */\n      dup2\n        /* \"#utility.yul\":15806:15815   */\n      mload\n        /* \"#utility.yul\":15834:15836   */\n      dup2\n        /* \"#utility.yul\":15830:15832   */\n      dup2\n        /* \"#utility.yul\":15827:15837   */\n      gt\n        /* \"#utility.yul\":15824:15860   */\n      iszero\n      tag_850\n      jumpi\n        /* \"#utility.yul\":15840:15858   */\n      tag_850\n      tag_321\n      jump\t// in\n    tag_850:\n        /* \"#utility.yul\":15882:15935   */\n      tag_851\n        /* \"#utility.yul\":15925:15927   */\n      0x1f\n        /* \"#utility.yul\":15906:15919   */\n      dup3\n      add\n      not(0x1f)\n        /* \"#utility.yul\":15902:15929   */\n      and\n        /* \"#utility.yul\":15931:15933   */\n      0x20\n        /* \"#utility.yul\":15898:15934   */\n      add\n        /* \"#utility.yul\":15882:15935   */\n      tag_720\n      jump\t// in\n    tag_851:\n        /* \"#utility.yul\":15869:15935   */\n      swap2\n      pop\n        /* \"#utility.yul\":15958:15960   */\n      dup1\n        /* \"#utility.yul\":15951:15956   */\n      dup3\n        /* \"#utility.yul\":15944:15961   */\n      mstore\n        /* \"#utility.yul\":15998:16005   */\n      dup6\n        /* \"#utility.yul\":15993:15995   */\n      0x20\n        /* \"#utility.yul\":15988:15990   */\n      dup3\n        /* \"#utility.yul\":15984:15986   */\n      dup6\n        /* \"#utility.yul\":15980:15991   */\n      add\n        /* \"#utility.yul\":15976:15996   */\n      add\n        /* \"#utility.yul\":15973:16006   */\n      gt\n        /* \"#utility.yul\":15970:16023   */\n      iszero\n      tag_852\n      jumpi\n        /* \"#utility.yul\":16019:16020   */\n      0x00\n        /* \"#utility.yul\":16016:16017   */\n      dup1\n        /* \"#utility.yul\":16009:16021   */\n      revert\n        /* \"#utility.yul\":15970:16023   */\n    tag_852:\n        /* \"#utility.yul\":16032:16086   */\n      tag_853\n        /* \"#utility.yul\":16083:16085   */\n      dup2\n        /* \"#utility.yul\":16078:16080   */\n      0x20\n        /* \"#utility.yul\":16071:16076   */\n      dup5\n        /* \"#utility.yul\":16067:16081   */\n      add\n        /* \"#utility.yul\":16062:16064   */\n      0x20\n        /* \"#utility.yul\":16058:16060   */\n      dup7\n        /* \"#utility.yul\":16054:16065   */\n      add\n        /* \"#utility.yul\":16032:16086   */\n      tag_717\n      jump\t// in\n    tag_853:\n      pop\n        /* \"#utility.yul\":16105:16110   */\n      swap5\n        /* \"#utility.yul\":15410:16116   */\n      swap4\n      pop\n      pop\n      pop\n      pop\n      jump\t// out\n        /* \"#utility.yul\":16121:16394   */\n    tag_394:\n        /* \"#utility.yul\":16189:16195   */\n      0x00\n        /* \"#utility.yul\":16242:16244   */\n      0x20\n        /* \"#utility.yul\":16230:16239   */\n      dup3\n        /* \"#utility.yul\":16221:16228   */\n      dup5\n        /* \"#utility.yul\":16217:16240   */\n      sub\n        /* \"#utility.yul\":16213:16245   */\n      slt\n        /* \"#utility.yul\":16210:16262   */\n      iszero\n      tag_855\n      jumpi\n        /* \"#utility.yul\":16258:16259   */\n      0x00\n        /* \"#utility.yul\":16255:16256   */\n      dup1\n        /* \"#utility.yul\":16248:16260   */\n      revert\n        /* \"#utility.yul\":16210:16262   */\n    tag_855:\n        /* \"#utility.yul\":16290:16299   */\n      dup2\n        /* \"#utility.yul\":16284:16300   */\n      mload\n        /* \"#utility.yul\":16340:16344   */\n      0xff\n        /* \"#utility.yul\":16333:16338   */\n      dup2\n        /* \"#utility.yul\":16329:16345   */\n      and\n        /* \"#utility.yul\":16322:16327   */\n      dup2\n        /* \"#utility.yul\":16319:16346   */\n      eq\n        /* \"#utility.yul\":16309:16364   */\n      tag_729\n      jumpi\n        /* \"#utility.yul\":16360:16361   */\n      0x00\n        /* \"#utility.yul\":16357:16358   */\n      dup1\n        /* \"#utility.yul\":16350:16362   */\n      revert\n        /* \"#utility.yul\":16399:16583   */\n    tag_399:\n        /* \"#utility.yul\":16469:16475   */\n      0x00\n        /* \"#utility.yul\":16522:16524   */\n      0x20\n        /* \"#utility.yul\":16510:16519   */\n      dup3\n        /* \"#utility.yul\":16501:16508   */\n      dup5\n        /* \"#utility.yul\":16497:16520   */\n      sub\n        /* \"#utility.yul\":16493:16525   */\n      slt\n        /* \"#utility.yul\":16490:16542   */\n      iszero\n      tag_858\n      jumpi\n        /* \"#utility.yul\":16538:16539   */\n      0x00\n        /* \"#utility.yul\":16535:16536   */\n      dup1\n        /* \"#utility.yul\":16528:16540   */\n      revert\n        /* \"#utility.yul\":16490:16542   */\n    tag_858:\n      pop\n        /* \"#utility.yul\":16561:16577   */\n      mload\n      swap2\n        /* \"#utility.yul\":16399:16583   */\n      swap1\n      pop\n      jump\t// out\n        /* \"#utility.yul\":17563:17808   */\n    tag_431:\n        /* \"#utility.yul\":17630:17636   */\n      0x00\n        /* \"#utility.yul\":17683:17685   */\n      0x20\n        /* \"#utility.yul\":17671:17680   */\n      dup3\n        /* \"#utility.yul\":17662:17669   */\n      dup5\n        /* \"#utility.yul\":17658:17681   */\n      sub\n        /* \"#utility.yul\":17654:17686   */\n      slt\n        /* \"#utility.yul\":17651:17703   */\n      iszero\n      tag_863\n      jumpi\n        /* \"#utility.yul\":17699:17700   */\n      0x00\n        /* \"#utility.yul\":17696:17697   */\n      dup1\n        /* \"#utility.yul\":17689:17701   */\n      revert\n        /* \"#utility.yul\":17651:17703   */\n    tag_863:\n        /* \"#utility.yul\":17731:17740   */\n      dup2\n        /* \"#utility.yul\":17725:17741   */\n      mload\n        /* \"#utility.yul\":17750:17778   */\n      tag_729\n        /* \"#utility.yul\":17772:17777   */\n      dup2\n        /* \"#utility.yul\":17750:17778   */\n      tag_719\n      jump\t// in\n\n    auxdata: 0xa2646970667358221220c0a10343c3404b8c1800a0ad0ff9b968439653f772393a267c8a843e87bc19c464736f6c634300080c0033\n}\n",
				"bytecode": {
					"linkReferences": {},
					"object": "60806040526003805460ff60a01b1916600160a01b1790556109c4601155603c6012553480156200002f57600080fd5b5060405162003cee38038062003cee8339810160408190526200005291620006c0565b600080546001600160a01b0319163390811782556040519091907f8be0079c531659141344cd1fd0a4f28419497f9722a3daafe3b4186f6b6457e0908290a36000805460ff60a01b1916905560018055600280546001600160a01b038088166001600160a01b03199283168117909355600380549188169190921617905560118390556040805163313ce56760e01b8152905163313ce567916004808201926020929091908290030181865afa15801562000111573d6000803e3d6000fd5b505050506040513d601f19601f8201168201806040525081019062000137919062000839565b600360156101000a81548160ff021916908360ff160217905550600360009054906101000a90046001600160a01b03166001600160a01b031663313ce5676040518163ffffffff1660e01b8152600401602060405180830381865afa158015620001a5573d6000803e3d6000fd5b505050506040513d601f19601f82011682018060405250810190620001cb919062000839565b6003805460ff60b01b1916600160b01b60ff9390931692909202919091179055600680546001600160a01b0319166001600160a01b03851617905560005b815181101562000340576200032b8282815181106200022c576200022c62000865565b6020026020010151600001518383815181106200024d576200024d62000865565b6020026020010151602001518484815181106200026e576200026e62000865565b6020026020010151604001518585815181106200028f576200028f62000865565b602002602001015160600151868681518110620002b057620002b062000865565b602002602001015160800151878781518110620002d157620002d162000865565b602002602001015160a00151888881518110620002f257620002f262000865565b602002602001015160c0015189898151811062000313576200031362000865565b602002602001015160e001516200034c60201b60201c565b8062000337816200087b565b91505062000209565b505050505050620008a5565b6000546001600160a01b03163314620003ac5760405162461bcd60e51b815260206004820181905260248201527f4f776e61626c653a2063616c6c6572206973206e6f7420746865206f776e657260448201526064015b60405180910390fd5b612710861115620003f55760405162461bcd60e51b8152602060048201526012602482015271496e76616c69642070657263656e7461676560701b6044820152606401620003a3565b83851015620004625760405162461bcd60e51b815260206004820152603260248201527f4d61782072617465206d7573742062652067726561746572207468616e206f7260448201527120657175616c20746f206d696e207261746560701b6064820152608401620003a3565b60008211620004b45760405162461bcd60e51b815260206004820181905260248201527f537465702073697a65206d7573742062652067726561746572207468616e20306044820152606401620003a3565b6000888152600460205260409020869055620004d088620005bd565b6200050b57601380546001810182556000919091527f66de8ffda797e3de9c05e8fc57b3bf0ec28a930d40b0d285d93c06501cf6a090018890555b60408051610120810182528981526020808201998a52818301988952606082019788526080820196875260a0820195865260c0820194855292151560e0820190815260008b8152600580865293812060088101805461010086019081529d9092529484905291518455985160018401559651600283015594516003820155925160048401559051928201929092559051600682015591516007909201805460ff19169215159290921790915590519055565b6000805b60135481101562000613578260138281548110620005e357620005e362000865565b90600052602060002001541415620005fe5750600192915050565b806200060a816200087b565b915050620005c1565b50600092915050565b6001600160a01b03811681146200063257600080fd5b50565b634e487b7160e01b600052604160045260246000fd5b60405161012081016001600160401b038111828210171562000671576200067162000635565b60405290565b604051601f8201601f191681016001600160401b0381118282101715620006a257620006a262000635565b604052919050565b80518015158114620006bb57600080fd5b919050565b600080600080600060a08688031215620006d957600080fd5b8551620006e6816200061c565b80955050602080870151620006fb816200061c565b60408801519095506200070e816200061c565b60608801516080808a0151929650909450906001600160401b03808211156200073657600080fd5b818a0191508a601f8301126200074b57600080fd5b81518181111562000760576200076062000635565b62000770858260051b0162000677565b818152858101925061012091820284018601918d8311156200079157600080fd5b938601935b82851015620008255780858f031215620007b05760008081fd5b620007ba6200064b565b8551815287860151888201526040860151604082015260608601516060820152868601518782015260a086015160a082015260c080870151818301525060e062000806818801620006aa565b9082015261010086810151908201528452938401939286019262000796565b508096505050505050509295509295909350565b6000602082840312156200084c57600080fd5b815160ff811681146200085e57600080fd5b9392505050565b634e487b7160e01b600052603260045260246000fd5b60006000198214156200089e57634e487b7160e01b600052601160045260246000fd5b5060010190565b61343980620008b56000396000f3fe6080604052600436106102555760003560e01c8063850bad9411610139578063c2e5fe76116100b6578063de644c761161007a578063de644c7614610846578063e2bbb15814610868578063f256dfc514610888578063f2fde38b146108a8578063f66e4be3146108c8578063f7c618c1146108e957600080fd5b8063c2e5fe7614610776578063c53c5fc1146107a6578063c5c35196146107bb578063cd099205146107f6578063cd8de42c1461082657600080fd5b80639a4577a2116100fd5780639a4577a2146106c25780639bdcecd1146106e2578063ba743f9914610715578063c094121414610735578063c24126761461075657600080fd5b8063850bad94146106175780638da5cb5b14610644578063917bb9981461066257806391dc842e1461068257806395302cc0146106a257600080fd5b806341ee13be116101d25780635c975abb116101965780635c975abb1461054d578063647428b9146105785780636a1d18d21461059e5780636b130dc2146105be5780636ba13a82146105d45780636f77926b146105ea57600080fd5b806341ee13be1461049e57806345982a66146104c05780634d70378a146104ed57806352b8745f1461050d57806358098bf41461052d57600080fd5b80632b4a16a0116102195780632b4a16a01461033357806331d7a26214610353578063365b98b21461037357806339129cff146103c15780633d51c72d1461047157600080fd5b806303962d46146102615780630a6f93e6146102a157806316ada547146102ce578063230ffa0f146102e457806327ba372c1461030657600080fd5b3661025c57005b600080fd5b34801561026d57600080fd5b5061028e61027c366004612c42565b600b6020526000908152604090205481565b6040519081526020015b60405180910390f35b3480156102ad57600080fd5b5061028e6102bc366004612c42565b600c6020526000908152604090205481565b3480156102da57600080fd5b5061028e60125481565b3480156102f057600080fd5b506103046102ff366004612c66565b610909565b005b34801561031257600080fd5b5061028e610321366004612c42565b60086020526000908152604090205481565b34801561033f57600080fd5b5061028e61034e366004612c66565b6109bd565b34801561035f57600080fd5b5061028e61036e366004612c42565b6109de565b34801561037f57600080fd5b506103a961038e366004612c66565b600e602052600090815260409020546001600160a01b031681565b6040516001600160a01b039091168152602001610298565b3480156103cd57600080fd5b5061042b6103dc366004612c66565b60056020819052600091825260409091208054600182015460028301546003840154600485015495850154600686015460078701546008909701549597949693959294939192909160ff169089565b60408051998a5260208a0198909852968801959095526060870193909352608086019190915260a085015260c0840152151560e083015261010082015261012001610298565b34801561047d57600080fd5b5061049161048c366004612c66565b610b86565b6040516102989190612cdb565b3480156104aa57600080fd5b506104b3610c30565b6040516102989190612cf0565b3480156104cc57600080fd5b506104e06104db366004612d34565b610c88565b6040516102989190612e02565b3480156104f957600080fd5b50610304610508366004612c66565b610d8c565b34801561051957600080fd5b50610304610528366004612c42565b610f35565b34801561053957600080fd5b50610304610548366004612c42565b610fcb565b34801561055957600080fd5b50600054600160a01b900460ff165b6040519015158152602001610298565b34801561058457600080fd5b5061058d61105e565b604051610298959493929190612ec0565b3480156105aa57600080fd5b506103046105b9366004612c66565b611247565b3480156105ca57600080fd5b5061028e60115481565b3480156105e057600080fd5b5061028e600f5481565b3480156105f657600080fd5b5061060a610605366004612c42565b6112bd565b6040516102989190612f0e565b34801561062357600080fd5b5061028e610632366004612c66565b60046020526000908152604090205481565b34801561065057600080fd5b506000546001600160a01b03166103a9565b34801561066e57600080fd5b5061030461067d366004612f21565b6113f8565b34801561068e57600080fd5b5061028e61069d366004612f21565b611547565b3480156106ae57600080fd5b5061028e6106bd366004612f21565b611578565b3480156106ce57600080fd5b506103046106dd366004612f5b565b611594565b3480156106ee57600080fd5b5060035461070390600160b01b900460ff1681565b60405160ff9091168152602001610298565b34801561072157600080fd5b5061028e610730366004612f21565b6117c6565b34801561074157600080fd5b5060035461070390600160a81b900460ff1681565b34801561076257600080fd5b506002546103a9906001600160a01b031681565b34801561078257600080fd5b50610568610791366004612c42565b600d6020526000908152604090205460ff1681565b3480156107b257600080fd5b5061058d6117e2565b3480156107c757600080fd5b506107db6107d636600461300c565b611985565b60408051938452602084019290925290820152606001610298565b34801561080257600080fd5b50610568610811366004612c42565b60106020526000908152604090205460ff1681565b34801561083257600080fd5b50610304610841366004612c42565b61235f565b34801561085257600080fd5b5061085b6123ab565b60405161029891906130b2565b34801561087457600080fd5b50610304610883366004612d34565b6124f6565b34801561089457600080fd5b506006546103a9906001600160a01b031681565b3480156108b457600080fd5b506103046108c3366004612c42565b61282e565b3480156108d457600080fd5b5060035461056890600160a01b900460ff1681565b3480156108f557600080fd5b506003546103a9906001600160a01b031681565b6000546001600160a01b0316331461093c5760405162461bcd60e51b8152600401610933906130f5565b60405180910390fd5b8047101561098c5760405162461bcd60e51b815260206004820152601a60248201527f496e73756666696369656e742065746865722062616c616e63650000000000006044820152606401610933565b604051339082156108fc029083906000818181858888f193505050501580156109b9573d6000803e3d6000fd5b5050565b601381815481106109cd57600080fd5b600091825260209091200154905081565b60008042815b6001600160a01b038516600090815260076020526040902054811015610b7d576012546001600160a01b0386166000908152600960205260408120805491929184908110610a3457610a3461312a565b9060005260206000200154610a499190613156565b6001600160a01b0387166000908152600a60205260409020805484908110610a7357610a7361312a565b9060005260206000200154610a889190613175565b905080831115610b6a576001600160a01b038616600090815260096020526040812080546127109160049184919087908110610ac657610ac661312a565b9060005260206000200154815260200190815260200160002054600760008a6001600160a01b03166001600160a01b031681526020019081526020016000208581548110610b1657610b1661312a565b9060005260206000200154610b2b9190613156565b610b35919061318d565b600354909150610b5090600160a81b900460ff16600a613293565b610b5a908261318d565b9050610b668186613175565b9450505b5080610b758161329f565b9150506109e4565b50909392505050565b610b8e612b96565b610b9782612918565b610bb35760405162461bcd60e51b8152600401610933906132ba565b506000908152600560208181526040928390208351610120810185528154815260018201549281019290925260028101549382019390935260038301546060820152600483015460808201529082015460a0820152600682015460c0820152600782015460ff16151560e082015260089091015461010082015290565b60606013805480602002602001604051908101604052809291908181526020018280548015610c7e57602002820191906000526020600020905b815481526020019060010190808311610c6a575b5050505050905090565b606081610c9557600f5491505b6000610ca18385613175565b9050610cad84826132e9565b67ffffffffffffffff811115610cc557610cc5612fc5565b604051908082528060200260200182016040528015610cfe57816020015b610ceb612be4565b815260200190600190039081610ce35790505b50915060005b610d0e85836132e9565b811015610d8457610d54600e60008784600f54610d2b91906132e9565b610d3591906132e9565b81526020810191909152604001600020546001600160a01b03166112bd565b838281518110610d6657610d6661312a565b60200260200101819052508080610d7c9061329f565b915050610d04565b505092915050565b6000546001600160a01b03163314610db65760405162461bcd60e51b8152600401610933906130f5565b610dbf81612918565b610ddb5760405162461bcd60e51b8152600401610933906132ba565b600080805b601354811015610e2d578360138281548110610dfe57610dfe61312a565b90600052602060002001541415610e1b5780925060019150610e2d565b80610e258161329f565b915050610de0565b5080610e4b5760405162461bcd60e51b8152600401610933906132ba565b60008381526005602081905260408220828155600181018390556002810183905560038101839055600481018390559081018290556006810182905560078101805460ff1916905560080155815b601354610ea8906001906132e9565b811015610f08576013610ebc826001613175565b81548110610ecc57610ecc61312a565b906000526020600020015460138281548110610eea57610eea61312a565b60009182526020909120015580610f008161329f565b915050610e99565b506013805480610f1a57610f1a613300565b60019003818190600052602060002001600090559055505050565b6000546001600160a01b03163314610f5f5760405162461bcd60e51b8152600401610933906130f5565b6001600160a01b038116610fa75760405162461bcd60e51b815260206004820152600f60248201526e496e76616c6964206164647265737360881b6044820152606401610933565b6001600160a01b03166000908152601060205260409020805460ff19166001179055565b6000546001600160a01b03163314610ff55760405162461bcd60e51b8152600401610933906130f5565b6001600160a01b03811661103d5760405162461bcd60e51b815260206004820152600f60248201526e496e76616c6964206164647265737360881b6044820152606401610933565b6001600160a01b03166000908152601060205260409020805460ff19169055565b600354604080516306fdde0360e01b815290516001600160a01b03909216916060918291600091829186916306fdde0391600480830192869291908290030181865afa1580156110b2573d6000803e3d6000fd5b505050506040513d6000823e601f3d908101601f191682016040526110da9190810190613316565b9350600360009054906101000a90046001600160a01b03166001600160a01b03166395d89b416040518163ffffffff1660e01b8152600401600060405180830381865afa15801561112f573d6000803e3d6000fd5b505050506040513d6000823e601f3d908101601f191682016040526111579190810190613316565b9250600360009054906101000a90046001600160a01b03166001600160a01b031663313ce5676040518163ffffffff1660e01b8152600401602060405180830381865afa1580156111ac573d6000803e3d6000fd5b505050506040513d601f19601f820116820180604052508101906111d091906133aa565b6003546040516370a0823160e01b81523060048201529193506001600160a01b0316906370a08231906024015b602060405180830381865afa15801561121a573d6000803e3d6000fd5b505050506040513d601f19601f8201168201806040525081019061123e91906133cd565b90509091929394565b6000546001600160a01b031633146112715760405162461bcd60e51b8152600401610933906130f5565b6127108111156112b85760405162461bcd60e51b8152602060048201526012602482015271496e76616c69642070657263656e7461676560701b6044820152606401610933565b601155565b6112c5612be4565b6040805160e0810182526001600160a01b0384168082526000818152600860209081528482205481850152828252600c8152848220548486015291815260098252839020805484518184028101840190955280855292936060850193909283018282801561135257602002820191906000526020600020905b81548152602001906001019080831161133e575b50505091835250506001600160a01b0384166000908152600b6020908152604091829020549083015201611385846109de565b81526001600160a01b0384166000908152600a602090815260409182902080548351818402810184019094528084529382019390918301828280156113e957602002820191906000526020600020905b8154815260200190600101908083116113d5575b50505050508152509050919050565b6000546001600160a01b031633146114225760405162461bcd60e51b8152600401610933906130f5565b6040516370a0823160e01b815230600482015281906001600160a01b038416906370a0823190602401602060405180830381865afa158015611468573d6000803e3d6000fd5b505050506040513d601f19601f8201168201806040525081019061148c91906133cd565b10156114d15760405162461bcd60e51b8152602060048201526014602482015273496e73756666696369656e742062616c616e636560601b6044820152606401610933565b60405163a9059cbb60e01b8152336004820152602481018290526001600160a01b0383169063a9059cbb906044016020604051808303816000875af115801561151e573d6000803e3d6000fd5b505050506040513d601f19601f8201168201806040525081019061154291906133e6565b505050565b6007602052816000526040600020818154811061156357600080fd5b90600052602060002001600091509150505481565b6009602052816000526040600020818154811061156357600080fd5b6000546001600160a01b031633146115be5760405162461bcd60e51b8152600401610933906130f5565b6127108611156116055760405162461bcd60e51b8152602060048201526012602482015271496e76616c69642070657263656e7461676560701b6044820152606401610933565b838510156116705760405162461bcd60e51b815260206004820152603260248201527f4d61782072617465206d7573742062652067726561746572207468616e206f7260448201527120657175616c20746f206d696e207261746560701b6064820152608401610933565b600082116116c05760405162461bcd60e51b815260206004820181905260248201527f537465702073697a65206d7573742062652067726561746572207468616e20306044820152606401610933565b60008881526004602052604090208690556116da88612918565b61171457601380546001810182556000919091527f66de8ffda797e3de9c05e8fc57b3bf0ec28a930d40b0d285d93c06501cf6a090018890555b60408051610120810182528981526020808201998a52818301988952606082019788526080820196875260a0820195865260c0820194855292151560e0820190815260008b8152600580865293812060088101805461010086019081529d9092529484905291518455985160018401559651600283015594516003820155925160048401559051928201929092559051600682015591516007909201805460ff19169215159290921790915590519055565b600a602052816000526040600020818154811061156357600080fd5b600254604080516306fdde0360e01b815290516001600160a01b03909216916060918291600091829186916306fdde0391600480830192869291908290030181865afa158015611836573d6000803e3d6000fd5b505050506040513d6000823e601f3d908101601f1916820160405261185e9190810190613316565b9350600260009054906101000a90046001600160a01b03166001600160a01b03166395d89b416040518163ffffffff1660e01b8152600401600060405180830381865afa1580156118b3573d6000803e3d6000fd5b505050506040513d6000823e601f3d908101601f191682016040526118db9190810190613316565b9250600260009054906101000a90046001600160a01b03166001600160a01b031663313ce5676040518163ffffffff1660e01b8152600401602060405180830381865afa158015611930573d6000803e3d6000fd5b505050506040513d601f19601f8201168201806040525081019061195491906133aa565b6002546040516370a0823160e01b81523060048201529193506001600160a01b0316906370a08231906024016111fd565b600080600061199e60005460ff600160a01b9091041690565b156119de5760405162461bcd60e51b815260206004820152601060248201526f14185d5cd8589b194e881c185d5cd95960821b6044820152606401610933565b6119e661296f565b3360009081526010602052604090205460ff1615611a395760405162461bcd60e51b815260206004820152601060248201526f4163636f756e74206973207370616d2160801b6044820152606401610933565b336000908152600860205260408120548190819042825b8951811015611eb9573360009081526007602052604081208b518c9084908110611a7c57611a7c61312a565b602002602001015181548110611a9457611a9461312a565b90600052602060002001541115611ea7576012543360009081526009602052604081208c519192918d9085908110611ace57611ace61312a565b602002602001015181548110611ae657611ae661312a565b9060005260206000200154611afb9190613156565b336000908152600a602052604090208c518d9085908110611b1e57611b1e61312a565b602002602001015181548110611b3657611b3661312a565b9060005260206000200154611b4b9190613175565b905080831115611cc35760006127106004600060096000336001600160a01b03166001600160a01b031681526020019081526020016000208f8781518110611b9557611b9561312a565b602002602001015181548110611bad57611bad61312a565b906000526020600020015481526020019081526020016000205460076000336001600160a01b03166001600160a01b031681526020019081526020016000208e8681518110611bfe57611bfe61312a565b602002602001015181548110611c1657611c1661312a565b9060005260206000200154611c2b9190613156565b611c35919061318d565b600354909150611c5090600160a81b900460ff16600a613293565b611c5a908261318d565b9050611c668188613175565b3360009081526007602052604090208d51919850908d9085908110611c8d57611c8d61312a565b602002602001015181548110611ca557611ca561312a565b906000526020600020015488611cbb9190613175565b975050611dc9565b60115460009015611d59576011543360009081526007602052604090208d516127109291908f9087908110611cfa57611cfa61312a565b602002602001015181548110611d1257611d1261312a565b9060005260206000200154611d279190613156565b611d31919061318d565b600354909150611d4c90600160a81b900460ff16600a613293565b611d56908261318d565b90505b3360009081526007602052604081208d518391908f9087908110611d7f57611d7f61312a565b602002602001015181548110611d9757611d9761312a565b9060005260206000200154611dac91906132e9565b9050611db8818a613175565b9850611dc48288613175565b965050505b3360009081526007602052604090208b518c9084908110611dec57611dec61312a565b602002602001015181548110611e0457611e0461312a565b9060005260206000200154600560008d8581518110611e2557611e2561312a565b602002602001015181526020019081526020016000206008016000828254611e4d91906132e9565b90915550503360009081526007602052604090208b518c9084908110611e7557611e7561312a565b602002602001015181548110611e8d57611e8d61312a565b906000526020600020015484611ea391906132e9565b9350505b80611eb18161329f565b915050611a50565b5060005b89518110156120f95760008a8281518110611eda57611eda61312a565b602002602001015190505b33600090815260076020526040902054611f01906001906132e9565b81101561204757336000908152600760205260409020611f22826001613175565b81548110611f3257611f3261312a565b600091825260208083209091015433835260079091526040909120805483908110611f5f57611f5f61312a565b6000918252602080832090910192909255338152600990915260409020611f87826001613175565b81548110611f9757611f9761312a565b600091825260208083209091015433835260099091526040909120805483908110611fc457611fc461312a565b6000918252602080832090910192909255338152600a90915260409020611fec826001613175565b81548110611ffc57611ffc61312a565b6000918252602080832090910154338352600a90915260409091208054839081106120295761202961312a565b6000918252602090912001558061203f8161329f565b915050611ee5565b5033600090815260076020526040902080548061206657612066613300565b600082815260208082208301600019908101839055909201909255338252600990526040902080548061209b5761209b613300565b600082815260208082208301600019908101839055909201909255338252600a9052604090208054806120d0576120d0613300565b6001900381819060005260206000200160009055905580806120f19061329f565b915050611ebd565b5084156121aa576002546003546001600160a01b039091169063a9059cbb90339061212f90600160a81b900460ff16600a613293565b612139908961318d565b6040516001600160e01b031960e085901b1681526001600160a01b03909216600483015260248201526044016020604051808303816000875af1158015612184573d6000803e3d6000fd5b505050506040513d601f19601f820116820180604052508101906121a891906133e6565b505b8315612256576003546001600160a01b0381169063a9059cbb9033906121db90600160b01b900460ff16600a613293565b6121e5908861318d565b6040516001600160e01b031960e085901b1681526001600160a01b03909216600483015260248201526044016020604051808303816000875af1158015612230573d6000803e3d6000fd5b505050506040513d601f19601f8201168201806040525081019061225491906133e6565b505b8215612309576002546006546003546001600160a01b039283169263a9059cbb92169061228e90600160a81b900460ff16600a613293565b612298908761318d565b6040516001600160e01b031960e085901b1681526001600160a01b03909216600483015260248201526044016020604051808303816000875af11580156122e3573d6000803e3d6000fd5b505050506040513d601f19601f8201168201806040525081019061230791906133e6565b505b336000908152600860209081526040808320859055600b90915281208054869290612335908490613175565b9091555050336000908152600c602052604090204290555050600180559196909550909350915050565b6000546001600160a01b031633146123895760405162461bcd60e51b8152600401610933906130f5565b600680546001600160a01b0319166001600160a01b0392909216919091179055565b601354606090156124f35760135467ffffffffffffffff8111156123d1576123d1612fc5565b60405190808252806020026020018201604052801561240a57816020015b6123f7612b96565b8152602001906001900390816123ef5790505b50905060005b6013548110156124f15760056000601383815481106124315761243161312a565b9060005260206000200154815260200190815260200160002060405180610120016040529081600082015481526020016001820154815260200160028201548152602001600382015481526020016004820154815260200160058201548152602001600682015481526020016007820160009054906101000a900460ff161515151581526020016008820154815250508282815181106124d3576124d361312a565b602002602001018190525080806124e99061329f565b915050612410565b505b90565b600054600160a01b900460ff16156125435760405162461bcd60e51b815260206004820152601060248201526f14185d5cd8589b194e881c185d5cd95960821b6044820152606401610933565b61254b61296f565b3360009081526010602052604090205460ff161561259e5760405162461bcd60e51b815260206004820152601060248201526f4163636f756e74206973207370616d2160801b6044820152606401610933565b6125a781612918565b6125e95760405162461bcd60e51b8152602060048201526013602482015272125b9d985b1a59081b1bd8dac81c195c9a5bd9606a1b6044820152606401610933565b60008181526005602052604090206001015482101561263b5760405162461bcd60e51b815260206004820152600e60248201526d125b9d985b1a5908185b5bdd5b9d60921b6044820152606401610933565b6002546040516323b872dd60e01b81523360048201523060248201526044810184905242916001600160a01b0316906323b872dd906064016020604051808303816000875af1158015612692573d6000803e3d6000fd5b505050506040513d601f19601f820116820180604052508101906126b691906133e6565b5033600081815260076020908152604080832080546001818101835591855283852001889055848452600a835281842080549182018155845282842064ffffffffff8716910155928252600890529081208054859290612717908490613175565b9091555050336000818152600960209081526040808320805460018101825590845282842001869055928252600c815282822042905584825260059052908120600801805485929061276a908490613175565b9091555050336000908152600d602052604090205460ff166127d757600f80549060006127968361329f565b9091555050600f546000908152600e6020908152604080832080546001600160a01b031916339081179091558352600d9091529020805460ff191660011790555b6127df6129c9565b6040805184815260208101849052908101829052309033907fe44628ed4b392c5ef46ffc833d640eefd957e81a312e583e0cc57eed5f04ada39060600160405180910390a3506109b960018055565b6000546001600160a01b031633146128585760405162461bcd60e51b8152600401610933906130f5565b6001600160a01b0381166128bd5760405162461bcd60e51b815260206004820152602660248201527f4f776e61626c653a206e6577206f776e657220697320746865207a65726f206160448201526564647265737360d01b6064820152608401610933565b600080546040516001600160a01b03808516939216917f8be0079c531659141344cd1fd0a4f28419497f9722a3daafe3b4186f6b6457e091a3600080546001600160a01b0319166001600160a01b0392909216919091179055565b6000805b60135481101561296657826013828154811061293a5761293a61312a565b906000526020600020015414156129545750600192915050565b8061295e8161329f565b91505061291c565b50600092915050565b600260015414156129c25760405162461bcd60e51b815260206004820152601f60248201527f5265656e7472616e637947756172643a207265656e7472616e742063616c6c006044820152606401610933565b6002600155565b6002546040516370a0823160e01b81523060048201526000916001600160a01b0316906370a0823190602401602060405180830381865afa158015612a12573d6000803e3d6000fd5b505050506040513d601f19601f82011682018060405250810190612a3691906133cd565b905060005b6013548110156109b957600060138281548110612a5a57612a5a61312a565b6000918252602080832090910154808352600580835260409384902084516101208101865281548152600182015494810194909452600281015494840194909452600384015460608401526004840154608084015283015460a0830152600683015460c0830152600783015460ff16151560e08301819052600890930154610100830152925090612b815760008160c0015185612af7919061318d565b905060008260a0015182612b0b9190613156565b905082608001518360600151612b2191906132e9565b8111612b4b57808360600151612b3791906132e9565b600085815260046020526040902055612b60565b60808301516000858152600460205260409020555b50506000828152600460209081526040808320546005909252909120600201555b50508080612b8e9061329f565b915050612a3b565b60405180610120016040528060008152602001600081526020016000815260200160008152602001600081526020016000815260200160008152602001600015158152602001600081525090565b6040518060e0016040528060006001600160a01b031681526020016000815260200160008152602001606081526020016000815260200160008152602001606081525090565b6001600160a01b0381168114612c3f57600080fd5b50565b600060208284031215612c5457600080fd5b8135612c5f81612c2a565b9392505050565b600060208284031215612c7857600080fd5b5035919050565b805182526020810151602083015260408101516040830152606081015160608301526080810151608083015260a081015160a083015260c081015160c083015260e0810151151560e08301526101008082015181840152505050565b6101208101612cea8284612c7f565b92915050565b6020808252825182820181905260009190848201906040850190845b81811015612d2857835183529284019291840191600101612d0c565b50909695505050505050565b60008060408385031215612d4757600080fd5b50508035926020909101359150565b600081518084526020808501945080840160005b83811015612d8657815187529582019590820190600101612d6a565b509495945050505050565b60018060a01b03815116825260208101516020830152604081015160408301526000606082015160e06060850152612dcc60e0850182612d56565b90506080830151608085015260a083015160a085015260c083015184820360c0860152612df98282612d56565b95945050505050565b6000602080830181845280855180835260408601915060408160051b870101925083870160005b82811015612e5757603f19888603018452612e45858351612d91565b94509285019290850190600101612e29565b5092979650505050505050565b60005b83811015612e7f578181015183820152602001612e67565b83811115612e8e576000848401525b50505050565b60008151808452612eac816020860160208601612e64565b601f01601f19169290920160200192915050565b6001600160a01b038616815260a060208201819052600090612ee490830187612e94565b8281036040840152612ef68187612e94565b60ff9590951660608401525050608001529392505050565b602081526000612c5f6020830184612d91565b60008060408385031215612f3457600080fd5b8235612f3f81612c2a565b946020939093013593505050565b8015158114612c3f57600080fd5b600080600080600080600080610100898b031215612f7857600080fd5b883597506020890135965060408901359550606089013594506080890135935060a0890135925060c0890135915060e0890135612fb481612f4d565b809150509295985092959890939650565b634e487b7160e01b600052604160045260246000fd5b604051601f8201601f1916810167ffffffffffffffff8111828210171561300457613004612fc5565b604052919050565b6000602080838503121561301f57600080fd5b823567ffffffffffffffff8082111561303757600080fd5b818501915085601f83011261304b57600080fd5b81358181111561305d5761305d612fc5565b8060051b915061306e848301612fdb565b818152918301840191848101908884111561308857600080fd5b938501935b838510156130a65784358252938501939085019061308d565b98975050505050505050565b6020808252825182820181905260009190848201906040850190845b81811015612d28576130e1838551612c7f565b9284019261012092909201916001016130ce565b6020808252818101527f4f776e61626c653a2063616c6c6572206973206e6f7420746865206f776e6572604082015260600190565b634e487b7160e01b600052603260045260246000fd5b634e487b7160e01b600052601160045260246000fd5b600081600019048311821515161561317057613170613140565b500290565b6000821982111561318857613188613140565b500190565b6000826131aa57634e487b7160e01b600052601260045260246000fd5b500490565b600181815b808511156131ea5781600019048211156131d0576131d0613140565b808516156131dd57918102915b93841c93908002906131b4565b509250929050565b60008261320157506001612cea565b8161320e57506000612cea565b8160018114613224576002811461322e5761324a565b6001915050612cea565b60ff84111561323f5761323f613140565b50506001821b612cea565b5060208310610133831016604e8410600b841016171561326d575081810a612cea565b61327783836131af565b806000190482111561328b5761328b613140565b029392505050565b6000612c5f83836131f2565b60006000198214156132b3576132b3613140565b5060010190565b602080825260159082015274131bd8dac81c195c9a5bd9081b9bdd08199bdd5b99605a1b604082015260600190565b6000828210156132fb576132fb613140565b500390565b634e487b7160e01b600052603160045260246000fd5b60006020828403121561332857600080fd5b815167ffffffffffffffff8082111561334057600080fd5b818401915084601f83011261335457600080fd5b81518181111561336657613366612fc5565b613379601f8201601f1916602001612fdb565b915080825285602082850101111561339057600080fd5b6133a1816020840160208601612e64565b50949350505050565b6000602082840312156133bc57600080fd5b815160ff81168114612c5f57600080fd5b6000602082840312156133df57600080fd5b5051919050565b6000602082840312156133f857600080fd5b8151612c5f81612f4d56fea2646970667358221220c0a10343c3404b8c1800a0ad0ff9b968439653f772393a267c8a843e87bc19c464736f6c634300080c0033",
					"opcodes": "PUSH1 0x80 PUSH1 0x40 MSTORE PUSH1 0x3 DUP1 SLOAD PUSH1 0xFF PUSH1 0xA0 SHL NOT AND PUSH1 0x1 PUSH1 0xA0 SHL OR SWAP1 SSTORE PUSH2 0x9C4 PUSH1 0x11 SSTORE PUSH1 0x3C PUSH1 0x12 SSTORE CALLVALUE DUP1 ISZERO PUSH3 0x2F JUMPI PUSH1 0x0 DUP1 REVERT JUMPDEST POP PUSH1 0x40 MLOAD PUSH3 0x3CEE CODESIZE SUB DUP1 PUSH3 0x3CEE DUP4 CODECOPY DUP2 ADD PUSH1 0x40 DUP2 SWAP1 MSTORE PUSH3 0x52 SWAP2 PUSH3 0x6C0 JUMP JUMPDEST PUSH1 0x0 DUP1 SLOAD PUSH1 0x1 PUSH1 0x1 PUSH1 0xA0 SHL SUB NOT AND CALLER SWAP1 DUP2 OR DUP3 SSTORE PUSH1 0x40 MLOAD SWAP1 SWAP2 SWAP1 PUSH32 0x8BE0079C531659141344CD1FD0A4F28419497F9722A3DAAFE3B4186F6B6457E0 SWAP1 DUP3 SWAP1 LOG3 PUSH1 0x0 DUP1 SLOAD PUSH1 0xFF PUSH1 0xA0 SHL NOT AND SWAP1 SSTORE PUSH1 0x1 DUP1 SSTORE PUSH1 0x2 DUP1 SLOAD PUSH1 0x1 PUSH1 0x1 PUSH1 0xA0 SHL SUB DUP1 DUP9 AND PUSH1 0x1 PUSH1 0x1 PUSH1 0xA0 SHL SUB NOT SWAP3 DUP4 AND DUP2 OR SWAP1 SWAP4 SSTORE PUSH1 0x3 DUP1 SLOAD SWAP2 DUP9 AND SWAP2 SWAP1 SWAP3 AND OR SWAP1 SSTORE PUSH1 0x11 DUP4 SWAP1 SSTORE PUSH1 0x40 DUP1 MLOAD PUSH4 0x313CE567 PUSH1 0xE0 SHL DUP2 MSTORE SWAP1 MLOAD PUSH4 0x313CE567 SWAP2 PUSH1 0x4 DUP1 DUP3 ADD SWAP3 PUSH1 0x20 SWAP3 SWAP1 SWAP2 SWAP1 DUP3 SWAP1 SUB ADD DUP2 DUP7 GAS STATICCALL ISZERO DUP1 ISZERO PUSH3 0x111 JUMPI RETURNDATASIZE PUSH1 0x0 DUP1 RETURNDATACOPY RETURNDATASIZE PUSH1 0x0 REVERT JUMPDEST POP POP POP POP PUSH1 0x40 MLOAD RETURNDATASIZE PUSH1 0x1F NOT PUSH1 0x1F DUP3 ADD AND DUP3 ADD DUP1 PUSH1 0x40 MSTORE POP DUP2 ADD SWAP1 PUSH3 0x137 SWAP2 SWAP1 PUSH3 0x839 JUMP JUMPDEST PUSH1 0x3 PUSH1 0x15 PUSH2 0x100 EXP DUP2 SLOAD DUP2 PUSH1 0xFF MUL NOT AND SWAP1 DUP4 PUSH1 0xFF AND MUL OR SWAP1 SSTORE POP PUSH1 0x3 PUSH1 0x0 SWAP1 SLOAD SWAP1 PUSH2 0x100 EXP SWAP1 DIV PUSH1 0x1 PUSH1 0x1 PUSH1 0xA0 SHL SUB AND PUSH1 0x1 PUSH1 0x1 PUSH1 0xA0 SHL SUB AND PUSH4 0x313CE567 PUSH1 0x40 MLOAD DUP2 PUSH4 0xFFFFFFFF AND PUSH1 0xE0 SHL DUP2 MSTORE PUSH1 0x4 ADD PUSH1 0x20 PUSH1 0x40 MLOAD DUP1 DUP4 SUB DUP2 DUP7 GAS STATICCALL ISZERO DUP1 ISZERO PUSH3 0x1A5 JUMPI RETURNDATASIZE PUSH1 0x0 DUP1 RETURNDATACOPY RETURNDATASIZE PUSH1 0x0 REVERT JUMPDEST POP POP POP POP PUSH1 0x40 MLOAD RETURNDATASIZE PUSH1 0x1F NOT PUSH1 0x1F DUP3 ADD AND DUP3 ADD DUP1 PUSH1 0x40 MSTORE POP DUP2 ADD SWAP1 PUSH3 0x1CB SWAP2 SWAP1 PUSH3 0x839 JUMP JUMPDEST PUSH1 0x3 DUP1 SLOAD PUSH1 0xFF PUSH1 0xB0 SHL NOT AND PUSH1 0x1 PUSH1 0xB0 SHL PUSH1 0xFF SWAP4 SWAP1 SWAP4 AND SWAP3 SWAP1 SWAP3 MUL SWAP2 SWAP1 SWAP2 OR SWAP1 SSTORE PUSH1 0x6 DUP1 SLOAD PUSH1 0x1 PUSH1 0x1 PUSH1 0xA0 SHL SUB NOT AND PUSH1 0x1 PUSH1 0x1 PUSH1 0xA0 SHL SUB DUP6 AND OR SWAP1 SSTORE PUSH1 0x0 JUMPDEST DUP2 MLOAD DUP2 LT ISZERO PUSH3 0x340 JUMPI PUSH3 0x32B DUP3 DUP3 DUP2 MLOAD DUP2 LT PUSH3 0x22C JUMPI PUSH3 0x22C PUSH3 0x865 JUMP JUMPDEST PUSH1 0x20 MUL PUSH1 0x20 ADD ADD MLOAD PUSH1 0x0 ADD MLOAD DUP4 DUP4 DUP2 MLOAD DUP2 LT PUSH3 0x24D JUMPI PUSH3 0x24D PUSH3 0x865 JUMP JUMPDEST PUSH1 0x20 MUL PUSH1 0x20 ADD ADD MLOAD PUSH1 0x20 ADD MLOAD DUP5 DUP5 DUP2 MLOAD DUP2 LT PUSH3 0x26E JUMPI PUSH3 0x26E PUSH3 0x865 JUMP JUMPDEST PUSH1 0x20 MUL PUSH1 0x20 ADD ADD MLOAD PUSH1 0x40 ADD MLOAD DUP6 DUP6 DUP2 MLOAD DUP2 LT PUSH3 0x28F JUMPI PUSH3 0x28F PUSH3 0x865 JUMP JUMPDEST PUSH1 0x20 MUL PUSH1 0x20 ADD ADD MLOAD PUSH1 0x60 ADD MLOAD DUP7 DUP7 DUP2 MLOAD DUP2 LT PUSH3 0x2B0 JUMPI PUSH3 0x2B0 PUSH3 0x865 JUMP JUMPDEST PUSH1 0x20 MUL PUSH1 0x20 ADD ADD MLOAD PUSH1 0x80 ADD MLOAD DUP8 DUP8 DUP2 MLOAD DUP2 LT PUSH3 0x2D1 JUMPI PUSH3 0x2D1 PUSH3 0x865 JUMP JUMPDEST PUSH1 0x20 MUL PUSH1 0x20 ADD ADD MLOAD PUSH1 0xA0 ADD MLOAD DUP9 DUP9 DUP2 MLOAD DUP2 LT PUSH3 0x2F2 JUMPI PUSH3 0x2F2 PUSH3 0x865 JUMP JUMPDEST PUSH1 0x20 MUL PUSH1 0x20 ADD ADD MLOAD PUSH1 0xC0 ADD MLOAD DUP10 DUP10 DUP2 MLOAD DUP2 LT PUSH3 0x313 JUMPI PUSH3 0x313 PUSH3 0x865 JUMP JUMPDEST PUSH1 0x20 MUL PUSH1 0x20 ADD ADD MLOAD PUSH1 0xE0 ADD MLOAD PUSH3 0x34C PUSH1 0x20 SHL PUSH1 0x20 SHR JUMP JUMPDEST DUP1 PUSH3 0x337 DUP2 PUSH3 0x87B JUMP JUMPDEST SWAP2 POP POP PUSH3 0x209 JUMP JUMPDEST POP POP POP POP POP POP PUSH3 0x8A5 JUMP JUMPDEST PUSH1 0x0 SLOAD PUSH1 0x1 PUSH1 0x1 PUSH1 0xA0 SHL SUB AND CALLER EQ PUSH3 0x3AC JUMPI PUSH1 0x40 MLOAD PUSH3 0x461BCD PUSH1 0xE5 SHL DUP2 MSTORE PUSH1 0x20 PUSH1 0x4 DUP3 ADD DUP2 SWAP1 MSTORE PUSH1 0x24 DUP3 ADD MSTORE PUSH32 0x4F776E61626C653A2063616C6C6572206973206E6F7420746865206F776E6572 PUSH1 0x44 DUP3 ADD MSTORE PUSH1 0x64 ADD JUMPDEST PUSH1 0x40 MLOAD DUP1 SWAP2 SUB SWAP1 REVERT JUMPDEST PUSH2 0x2710 DUP7 GT ISZERO PUSH3 0x3F5 JUMPI PUSH1 0x40 MLOAD PUSH3 0x461BCD PUSH1 0xE5 SHL DUP2 MSTORE PUSH1 0x20 PUSH1 0x4 DUP3 ADD MSTORE PUSH1 0x12 PUSH1 0x24 DUP3 ADD MSTORE PUSH18 0x496E76616C69642070657263656E74616765 PUSH1 0x70 SHL PUSH1 0x44 DUP3 ADD MSTORE PUSH1 0x64 ADD PUSH3 0x3A3 JUMP JUMPDEST DUP4 DUP6 LT ISZERO PUSH3 0x462 JUMPI PUSH1 0x40 MLOAD PUSH3 0x461BCD PUSH1 0xE5 SHL DUP2 MSTORE PUSH1 0x20 PUSH1 0x4 DUP3 ADD MSTORE PUSH1 0x32 PUSH1 0x24 DUP3 ADD MSTORE PUSH32 0x4D61782072617465206D7573742062652067726561746572207468616E206F72 PUSH1 0x44 DUP3 ADD MSTORE PUSH18 0x20657175616C20746F206D696E2072617465 PUSH1 0x70 SHL PUSH1 0x64 DUP3 ADD MSTORE PUSH1 0x84 ADD PUSH3 0x3A3 JUMP JUMPDEST PUSH1 0x0 DUP3 GT PUSH3 0x4B4 JUMPI PUSH1 0x40 MLOAD PUSH3 0x461BCD PUSH1 0xE5 SHL DUP2 MSTORE PUSH1 0x20 PUSH1 0x4 DUP3 ADD DUP2 SWAP1 MSTORE PUSH1 0x24 DUP3 ADD MSTORE PUSH32 0x537465702073697A65206D7573742062652067726561746572207468616E2030 PUSH1 0x44 DUP3 ADD MSTORE PUSH1 0x64 ADD PUSH3 0x3A3 JUMP JUMPDEST PUSH1 0x0 DUP9 DUP2 MSTORE PUSH1 0x4 PUSH1 0x20 MSTORE PUSH1 0x40 SWAP1 KECCAK256 DUP7 SWAP1 SSTORE PUSH3 0x4D0 DUP9 PUSH3 0x5BD JUMP JUMPDEST PUSH3 0x50B JUMPI PUSH1 0x13 DUP1 SLOAD PUSH1 0x1 DUP2 ADD DUP3 SSTORE PUSH1 0x0 SWAP2 SWAP1 SWAP2 MSTORE PUSH32 0x66DE8FFDA797E3DE9C05E8FC57B3BF0EC28A930D40B0D285D93C06501CF6A090 ADD DUP9 SWAP1 SSTORE JUMPDEST PUSH1 0x40 DUP1 MLOAD PUSH2 0x120 DUP2 ADD DUP3 MSTORE DUP10 DUP2 MSTORE PUSH1 0x20 DUP1 DUP3 ADD SWAP10 DUP11 MSTORE DUP2 DUP4 ADD SWAP9 DUP10 MSTORE PUSH1 0x60 DUP3 ADD SWAP8 DUP9 MSTORE PUSH1 0x80 DUP3 ADD SWAP7 DUP8 MSTORE PUSH1 0xA0 DUP3 ADD SWAP6 DUP7 MSTORE PUSH1 0xC0 DUP3 ADD SWAP5 DUP6 MSTORE SWAP3 ISZERO ISZERO PUSH1 0xE0 DUP3 ADD SWAP1 DUP2 MSTORE PUSH1 0x0 DUP12 DUP2 MSTORE PUSH1 0x5 DUP1 DUP7 MSTORE SWAP4 DUP2 KECCAK256 PUSH1 0x8 DUP2 ADD DUP1 SLOAD PUSH2 0x100 DUP7 ADD SWAP1 DUP2 MSTORE SWAP14 SWAP1 SWAP3 MSTORE SWAP5 DUP5 SWAP1 MSTORE SWAP2 MLOAD DUP5 SSTORE SWAP9 MLOAD PUSH1 0x1 DUP5 ADD SSTORE SWAP7 MLOAD PUSH1 0x2 DUP4 ADD SSTORE SWAP5 MLOAD PUSH1 0x3 DUP3 ADD SSTORE SWAP3 MLOAD PUSH1 0x4 DUP5 ADD SSTORE SWAP1 MLOAD SWAP3 DUP3 ADD SWAP3 SWAP1 SWAP3 SSTORE SWAP1 MLOAD PUSH1 0x6 DUP3 ADD SSTORE SWAP2 MLOAD PUSH1 0x7 SWAP1 SWAP3 ADD DUP1 SLOAD PUSH1 0xFF NOT AND SWAP3 ISZERO ISZERO SWAP3 SWAP1 SWAP3 OR SWAP1 SWAP2 SSTORE SWAP1 MLOAD SWAP1 SSTORE JUMP JUMPDEST PUSH1 0x0 DUP1 JUMPDEST PUSH1 0x13 SLOAD DUP2 LT ISZERO PUSH3 0x613 JUMPI DUP3 PUSH1 0x13 DUP3 DUP2 SLOAD DUP2 LT PUSH3 0x5E3 JUMPI PUSH3 0x5E3 PUSH3 0x865 JUMP JUMPDEST SWAP1 PUSH1 0x0 MSTORE PUSH1 0x20 PUSH1 0x0 KECCAK256 ADD SLOAD EQ ISZERO PUSH3 0x5FE JUMPI POP PUSH1 0x1 SWAP3 SWAP2 POP POP JUMP JUMPDEST DUP1 PUSH3 0x60A DUP2 PUSH3 0x87B JUMP JUMPDEST SWAP2 POP POP PUSH3 0x5C1 JUMP JUMPDEST POP PUSH1 0x0 SWAP3 SWAP2 POP POP JUMP JUMPDEST PUSH1 0x1 PUSH1 0x1 PUSH1 0xA0 SHL SUB DUP2 AND DUP2 EQ PUSH3 0x632 JUMPI PUSH1 0x0 DUP1 REVERT JUMPDEST POP JUMP JUMPDEST PUSH4 0x4E487B71 PUSH1 0xE0 SHL PUSH1 0x0 MSTORE PUSH1 0x41 PUSH1 0x4 MSTORE PUSH1 0x24 PUSH1 0x0 REVERT JUMPDEST PUSH1 0x40 MLOAD PUSH2 0x120 DUP2 ADD PUSH1 0x1 PUSH1 0x1 PUSH1 0x40 SHL SUB DUP2 GT DUP3 DUP3 LT OR ISZERO PUSH3 0x671 JUMPI PUSH3 0x671 PUSH3 0x635 JUMP JUMPDEST PUSH1 0x40 MSTORE SWAP1 JUMP JUMPDEST PUSH1 0x40 MLOAD PUSH1 0x1F DUP3 ADD PUSH1 0x1F NOT AND DUP2 ADD PUSH1 0x1 PUSH1 0x1 PUSH1 0x40 SHL SUB DUP2 GT DUP3 DUP3 LT OR ISZERO PUSH3 0x6A2 JUMPI PUSH3 0x6A2 PUSH3 0x635 JUMP JUMPDEST PUSH1 0x40 MSTORE SWAP2 SWAP1 POP JUMP JUMPDEST DUP1 MLOAD DUP1 ISZERO ISZERO DUP2 EQ PUSH3 0x6BB JUMPI PUSH1 0x0 DUP1 REVERT JUMPDEST SWAP2 SWAP1 POP JUMP JUMPDEST PUSH1 0x0 DUP1 PUSH1 0x0 DUP1 PUSH1 0x0 PUSH1 0xA0 DUP7 DUP9 SUB SLT ISZERO PUSH3 0x6D9 JUMPI PUSH1 0x0 DUP1 REVERT JUMPDEST DUP6 MLOAD PUSH3 0x6E6 DUP2 PUSH3 0x61C JUMP JUMPDEST DUP1 SWAP6 POP POP PUSH1 0x20 DUP1 DUP8 ADD MLOAD PUSH3 0x6FB DUP2 PUSH3 0x61C JUMP JUMPDEST PUSH1 0x40 DUP9 ADD MLOAD SWAP1 SWAP6 POP PUSH3 0x70E DUP2 PUSH3 0x61C JUMP JUMPDEST PUSH1 0x60 DUP9 ADD MLOAD PUSH1 0x80 DUP1 DUP11 ADD MLOAD SWAP3 SWAP7 POP SWAP1 SWAP5 POP SWAP1 PUSH1 0x1 PUSH1 0x1 PUSH1 0x40 SHL SUB DUP1 DUP3 GT ISZERO PUSH3 0x736 JUMPI PUSH1 0x0 DUP1 REVERT JUMPDEST DUP2 DUP11 ADD SWAP2 POP DUP11 PUSH1 0x1F DUP4 ADD SLT PUSH3 0x74B JUMPI PUSH1 0x0 DUP1 REVERT JUMPDEST DUP2 MLOAD DUP2 DUP2 GT ISZERO PUSH3 0x760 JUMPI PUSH3 0x760 PUSH3 0x635 JUMP JUMPDEST PUSH3 0x770 DUP6 DUP3 PUSH1 0x5 SHL ADD PUSH3 0x677 JUMP JUMPDEST DUP2 DUP2 MSTORE DUP6 DUP2 ADD SWAP3 POP PUSH2 0x120 SWAP2 DUP3 MUL DUP5 ADD DUP7 ADD SWAP2 DUP14 DUP4 GT ISZERO PUSH3 0x791 JUMPI PUSH1 0x0 DUP1 REVERT JUMPDEST SWAP4 DUP7 ADD SWAP4 JUMPDEST DUP3 DUP6 LT ISZERO PUSH3 0x825 JUMPI DUP1 DUP6 DUP16 SUB SLT ISZERO PUSH3 0x7B0 JUMPI PUSH1 0x0 DUP1 DUP2 REVERT JUMPDEST PUSH3 0x7BA PUSH3 0x64B JUMP JUMPDEST DUP6 MLOAD DUP2 MSTORE DUP8 DUP7 ADD MLOAD DUP9 DUP3 ADD MSTORE PUSH1 0x40 DUP7 ADD MLOAD PUSH1 0x40 DUP3 ADD MSTORE PUSH1 0x60 DUP7 ADD MLOAD PUSH1 0x60 DUP3 ADD MSTORE DUP7 DUP7 ADD MLOAD DUP8 DUP3 ADD MSTORE PUSH1 0xA0 DUP7 ADD MLOAD PUSH1 0xA0 DUP3 ADD MSTORE PUSH1 0xC0 DUP1 DUP8 ADD MLOAD DUP2 DUP4 ADD MSTORE POP PUSH1 0xE0 PUSH3 0x806 DUP2 DUP9 ADD PUSH3 0x6AA JUMP JUMPDEST SWAP1 DUP3 ADD MSTORE PUSH2 0x100 DUP7 DUP2 ADD MLOAD SWAP1 DUP3 ADD MSTORE DUP5 MSTORE SWAP4 DUP5 ADD SWAP4 SWAP3 DUP7 ADD SWAP3 PUSH3 0x796 JUMP JUMPDEST POP DUP1 SWAP7 POP POP POP POP POP POP POP SWAP3 SWAP6 POP SWAP3 SWAP6 SWAP1 SWAP4 POP JUMP JUMPDEST PUSH1 0x0 PUSH1 0x20 DUP3 DUP5 SUB SLT ISZERO PUSH3 0x84C JUMPI PUSH1 0x0 DUP1 REVERT JUMPDEST DUP2 MLOAD PUSH1 0xFF DUP2 AND DUP2 EQ PUSH3 0x85E JUMPI PUSH1 0x0 DUP1 REVERT JUMPDEST SWAP4 SWAP3 POP POP POP JUMP JUMPDEST PUSH4 0x4E487B71 PUSH1 0xE0 SHL PUSH1 0x0 MSTORE PUSH1 0x32 PUSH1 0x4 MSTORE PUSH1 0x24 PUSH1 0x0 REVERT JUMPDEST PUSH1 0x0 PUSH1 0x0 NOT DUP3 EQ ISZERO PUSH3 0x89E JUMPI PUSH4 0x4E487B71 PUSH1 0xE0 SHL PUSH1 0x0 MSTORE PUSH1 0x11 PUSH1 0x4 MSTORE PUSH1 0x24 PUSH1 0x0 REVERT JUMPDEST POP PUSH1 0x1 ADD SWAP1 JUMP JUMPDEST PUSH2 0x3439 DUP1 PUSH3 0x8B5 PUSH1 0x0 CODECOPY PUSH1 0x0 RETURN INVALID PUSH1 0x80 PUSH1 0x40 MSTORE PUSH1 0x4 CALLDATASIZE LT PUSH2 0x255 JUMPI PUSH1 0x0 CALLDATALOAD PUSH1 0xE0 SHR DUP1 PUSH4 0x850BAD94 GT PUSH2 0x139 JUMPI DUP1 PUSH4 0xC2E5FE76 GT PUSH2 0xB6 JUMPI DUP1 PUSH4 0xDE644C76 GT PUSH2 0x7A JUMPI DUP1 PUSH4 0xDE644C76 EQ PUSH2 0x846 JUMPI DUP1 PUSH4 0xE2BBB158 EQ PUSH2 0x868 JUMPI DUP1 PUSH4 0xF256DFC5 EQ PUSH2 0x888 JUMPI DUP1 PUSH4 0xF2FDE38B EQ PUSH2 0x8A8 JUMPI DUP1 PUSH4 0xF66E4BE3 EQ PUSH2 0x8C8 JUMPI DUP1 PUSH4 0xF7C618C1 EQ PUSH2 0x8E9 JUMPI PUSH1 0x0 DUP1 REVERT JUMPDEST DUP1 PUSH4 0xC2E5FE76 EQ PUSH2 0x776 JUMPI DUP1 PUSH4 0xC53C5FC1 EQ PUSH2 0x7A6 JUMPI DUP1 PUSH4 0xC5C35196 EQ PUSH2 0x7BB JUMPI DUP1 PUSH4 0xCD099205 EQ PUSH2 0x7F6 JUMPI DUP1 PUSH4 0xCD8DE42C EQ PUSH2 0x826 JUMPI PUSH1 0x0 DUP1 REVERT JUMPDEST DUP1 PUSH4 0x9A4577A2 GT PUSH2 0xFD JUMPI DUP1 PUSH4 0x9A4577A2 EQ PUSH2 0x6C2 JUMPI DUP1 PUSH4 0x9BDCECD1 EQ PUSH2 0x6E2 JUMPI DUP1 PUSH4 0xBA743F99 EQ PUSH2 0x715 JUMPI DUP1 PUSH4 0xC0941214 EQ PUSH2 0x735 JUMPI DUP1 PUSH4 0xC2412676 EQ PUSH2 0x756 JUMPI PUSH1 0x0 DUP1 REVERT JUMPDEST DUP1 PUSH4 0x850BAD94 EQ PUSH2 0x617 JUMPI DUP1 PUSH4 0x8DA5CB5B EQ PUSH2 0x644 JUMPI DUP1 PUSH4 0x917BB998 EQ PUSH2 0x662 JUMPI DUP1 PUSH4 0x91DC842E EQ PUSH2 0x682 JUMPI DUP1 PUSH4 0x95302CC0 EQ PUSH2 0x6A2 JUMPI PUSH1 0x0 DUP1 REVERT JUMPDEST DUP1 PUSH4 0x41EE13BE GT PUSH2 0x1D2 JUMPI DUP1 PUSH4 0x5C975ABB GT PUSH2 0x196 JUMPI DUP1 PUSH4 0x5C975ABB EQ PUSH2 0x54D JUMPI DUP1 PUSH4 0x647428B9 EQ PUSH2 0x578 JUMPI DUP1 PUSH4 0x6A1D18D2 EQ PUSH2 0x59E JUMPI DUP1 PUSH4 0x6B130DC2 EQ PUSH2 0x5BE JUMPI DUP1 PUSH4 0x6BA13A82 EQ PUSH2 0x5D4 JUMPI DUP1 PUSH4 0x6F77926B EQ PUSH2 0x5EA JUMPI PUSH1 0x0 DUP1 REVERT JUMPDEST DUP1 PUSH4 0x41EE13BE EQ PUSH2 0x49E JUMPI DUP1 PUSH4 0x45982A66 EQ PUSH2 0x4C0 JUMPI DUP1 PUSH4 0x4D70378A EQ PUSH2 0x4ED JUMPI DUP1 PUSH4 0x52B8745F EQ PUSH2 0x50D JUMPI DUP1 PUSH4 0x58098BF4 EQ PUSH2 0x52D JUMPI PUSH1 0x0 DUP1 REVERT JUMPDEST DUP1 PUSH4 0x2B4A16A0 GT PUSH2 0x219 JUMPI DUP1 PUSH4 0x2B4A16A0 EQ PUSH2 0x333 JUMPI DUP1 PUSH4 0x31D7A262 EQ PUSH2 0x353 JUMPI DUP1 PUSH4 0x365B98B2 EQ PUSH2 0x373 JUMPI DUP1 PUSH4 0x39129CFF EQ PUSH2 0x3C1 JUMPI DUP1 PUSH4 0x3D51C72D EQ PUSH2 0x471 JUMPI PUSH1 0x0 DUP1 REVERT JUMPDEST DUP1 PUSH4 0x3962D46 EQ PUSH2 0x261 JUMPI DUP1 PUSH4 0xA6F93E6 EQ PUSH2 0x2A1 JUMPI DUP1 PUSH4 0x16ADA547 EQ PUSH2 0x2CE JUMPI DUP1 PUSH4 0x230FFA0F EQ PUSH2 0x2E4 JUMPI DUP1 PUSH4 0x27BA372C EQ PUSH2 0x306 JUMPI PUSH1 0x0 DUP1 REVERT JUMPDEST CALLDATASIZE PUSH2 0x25C JUMPI STOP JUMPDEST PUSH1 0x0 DUP1 REVERT JUMPDEST CALLVALUE DUP1 ISZERO PUSH2 0x26D JUMPI PUSH1 0x0 DUP1 REVERT JUMPDEST POP PUSH2 0x28E PUSH2 0x27C CALLDATASIZE PUSH1 0x4 PUSH2 0x2C42 JUMP JUMPDEST PUSH1 0xB PUSH1 0x20 MSTORE PUSH1 0x0 SWAP1 DUP2 MSTORE PUSH1 0x40 SWAP1 KECCAK256 SLOAD DUP2 JUMP JUMPDEST PUSH1 0x40 MLOAD SWAP1 DUP2 MSTORE PUSH1 0x20 ADD JUMPDEST PUSH1 0x40 MLOAD DUP1 SWAP2 SUB SWAP1 RETURN JUMPDEST CALLVALUE DUP1 ISZERO PUSH2 0x2AD JUMPI PUSH1 0x0 DUP1 REVERT JUMPDEST POP PUSH2 0x28E PUSH2 0x2BC CALLDATASIZE PUSH1 0x4 PUSH2 0x2C42 JUMP JUMPDEST PUSH1 0xC PUSH1 0x20 MSTORE PUSH1 0x0 SWAP1 DUP2 MSTORE PUSH1 0x40 SWAP1 KECCAK256 SLOAD DUP2 JUMP JUMPDEST CALLVALUE DUP1 ISZERO PUSH2 0x2DA JUMPI PUSH1 0x0 DUP1 REVERT JUMPDEST POP PUSH2 0x28E PUSH1 0x12 SLOAD DUP2 JUMP JUMPDEST CALLVALUE DUP1 ISZERO PUSH2 0x2F0 JUMPI PUSH1 0x0 DUP1 REVERT JUMPDEST POP PUSH2 0x304 PUSH2 0x2FF CALLDATASIZE PUSH1 0x4 PUSH2 0x2C66 JUMP JUMPDEST PUSH2 0x909 JUMP JUMPDEST STOP JUMPDEST CALLVALUE DUP1 ISZERO PUSH2 0x312 JUMPI PUSH1 0x0 DUP1 REVERT JUMPDEST POP PUSH2 0x28E PUSH2 0x321 CALLDATASIZE PUSH1 0x4 PUSH2 0x2C42 JUMP JUMPDEST PUSH1 0x8 PUSH1 0x20 MSTORE PUSH1 0x0 SWAP1 DUP2 MSTORE PUSH1 0x40 SWAP1 KECCAK256 SLOAD DUP2 JUMP JUMPDEST CALLVALUE DUP1 ISZERO PUSH2 0x33F JUMPI PUSH1 0x0 DUP1 REVERT JUMPDEST POP PUSH2 0x28E PUSH2 0x34E CALLDATASIZE PUSH1 0x4 PUSH2 0x2C66 JUMP JUMPDEST PUSH2 0x9BD JUMP JUMPDEST CALLVALUE DUP1 ISZERO PUSH2 0x35F JUMPI PUSH1 0x0 DUP1 REVERT JUMPDEST POP PUSH2 0x28E PUSH2 0x36E CALLDATASIZE PUSH1 0x4 PUSH2 0x2C42 JUMP JUMPDEST PUSH2 0x9DE JUMP JUMPDEST CALLVALUE DUP1 ISZERO PUSH2 0x37F JUMPI PUSH1 0x0 DUP1 REVERT JUMPDEST POP PUSH2 0x3A9 PUSH2 0x38E CALLDATASIZE PUSH1 0x4 PUSH2 0x2C66 JUMP JUMPDEST PUSH1 0xE PUSH1 0x20 MSTORE PUSH1 0x0 SWAP1 DUP2 MSTORE PUSH1 0x40 SWAP1 KECCAK256 SLOAD PUSH1 0x1 PUSH1 0x1 PUSH1 0xA0 SHL SUB AND DUP2 JUMP JUMPDEST PUSH1 0x40 MLOAD PUSH1 0x1 PUSH1 0x1 PUSH1 0xA0 SHL SUB SWAP1 SWAP2 AND DUP2 MSTORE PUSH1 0x20 ADD PUSH2 0x298 JUMP JUMPDEST CALLVALUE DUP1 ISZERO PUSH2 0x3CD JUMPI PUSH1 0x0 DUP1 REVERT JUMPDEST POP PUSH2 0x42B PUSH2 0x3DC CALLDATASIZE PUSH1 0x4 PUSH2 0x2C66 JUMP JUMPDEST PUSH1 0x5 PUSH1 0x20 DUP2 SWAP1 MSTORE PUSH1 0x0 SWAP2 DUP3 MSTORE PUSH1 0x40 SWAP1 SWAP2 KECCAK256 DUP1 SLOAD PUSH1 0x1 DUP3 ADD SLOAD PUSH1 0x2 DUP4 ADD SLOAD PUSH1 0x3 DUP5 ADD SLOAD PUSH1 0x4 DUP6 ADD SLOAD SWAP6 DUP6 ADD SLOAD PUSH1 0x6 DUP7 ADD SLOAD PUSH1 0x7 DUP8 ADD SLOAD PUSH1 0x8 SWAP1 SWAP8 ADD SLOAD SWAP6 SWAP8 SWAP5 SWAP7 SWAP4 SWAP6 SWAP3 SWAP5 SWAP4 SWAP2 SWAP3 SWAP1 SWAP2 PUSH1 0xFF AND SWAP1 DUP10 JUMP JUMPDEST PUSH1 0x40 DUP1 MLOAD SWAP10 DUP11 MSTORE PUSH1 0x20 DUP11 ADD SWAP9 SWAP1 SWAP9 MSTORE SWAP7 DUP9 ADD SWAP6 SWAP1 SWAP6 MSTORE PUSH1 0x60 DUP8 ADD SWAP4 SWAP1 SWAP4 MSTORE PUSH1 0x80 DUP7 ADD SWAP2 SWAP1 SWAP2 MSTORE PUSH1 0xA0 DUP6 ADD MSTORE PUSH1 0xC0 DUP5 ADD MSTORE ISZERO ISZERO PUSH1 0xE0 DUP4 ADD MSTORE PUSH2 0x100 DUP3 ADD MSTORE PUSH2 0x120 ADD PUSH2 0x298 JUMP JUMPDEST CALLVALUE DUP1 ISZERO PUSH2 0x47D JUMPI PUSH1 0x0 DUP1 REVERT JUMPDEST POP PUSH2 0x491 PUSH2 0x48C CALLDATASIZE PUSH1 0x4 PUSH2 0x2C66 JUMP JUMPDEST PUSH2 0xB86 JUMP JUMPDEST PUSH1 0x40 MLOAD PUSH2 0x298 SWAP2 SWAP1 PUSH2 0x2CDB JUMP JUMPDEST CALLVALUE DUP1 ISZERO PUSH2 0x4AA JUMPI PUSH1 0x0 DUP1 REVERT JUMPDEST POP PUSH2 0x4B3 PUSH2 0xC30 JUMP JUMPDEST PUSH1 0x40 MLOAD PUSH2 0x298 SWAP2 SWAP1 PUSH2 0x2CF0 JUMP JUMPDEST CALLVALUE DUP1 ISZERO PUSH2 0x4CC JUMPI PUSH1 0x0 DUP1 REVERT JUMPDEST POP PUSH2 0x4E0 PUSH2 0x4DB CALLDATASIZE PUSH1 0x4 PUSH2 0x2D34 JUMP JUMPDEST PUSH2 0xC88 JUMP JUMPDEST PUSH1 0x40 MLOAD PUSH2 0x298 SWAP2 SWAP1 PUSH2 0x2E02 JUMP JUMPDEST CALLVALUE DUP1 ISZERO PUSH2 0x4F9 JUMPI PUSH1 0x0 DUP1 REVERT JUMPDEST POP PUSH2 0x304 PUSH2 0x508 CALLDATASIZE PUSH1 0x4 PUSH2 0x2C66 JUMP JUMPDEST PUSH2 0xD8C JUMP JUMPDEST CALLVALUE DUP1 ISZERO PUSH2 0x519 JUMPI PUSH1 0x0 DUP1 REVERT JUMPDEST POP PUSH2 0x304 PUSH2 0x528 CALLDATASIZE PUSH1 0x4 PUSH2 0x2C42 JUMP JUMPDEST PUSH2 0xF35 JUMP JUMPDEST CALLVALUE DUP1 ISZERO PUSH2 0x539 JUMPI PUSH1 0x0 DUP1 REVERT JUMPDEST POP PUSH2 0x304 PUSH2 0x548 CALLDATASIZE PUSH1 0x4 PUSH2 0x2C42 JUMP JUMPDEST PUSH2 0xFCB JUMP JUMPDEST CALLVALUE DUP1 ISZERO PUSH2 0x559 JUMPI PUSH1 0x0 DUP1 REVERT JUMPDEST POP PUSH1 0x0 SLOAD PUSH1 0x1 PUSH1 0xA0 SHL SWAP1 DIV PUSH1 0xFF AND JUMPDEST PUSH1 0x40 MLOAD SWAP1 ISZERO ISZERO DUP2 MSTORE PUSH1 0x20 ADD PUSH2 0x298 JUMP JUMPDEST CALLVALUE DUP1 ISZERO PUSH2 0x584 JUMPI PUSH1 0x0 DUP1 REVERT JUMPDEST POP PUSH2 0x58D PUSH2 0x105E JUMP JUMPDEST PUSH1 0x40 MLOAD PUSH2 0x298 SWAP6 SWAP5 SWAP4 SWAP3 SWAP2 SWAP1 PUSH2 0x2EC0 JUMP JUMPDEST CALLVALUE DUP1 ISZERO PUSH2 0x5AA JUMPI PUSH1 0x0 DUP1 REVERT JUMPDEST POP PUSH2 0x304 PUSH2 0x5B9 CALLDATASIZE PUSH1 0x4 PUSH2 0x2C66 JUMP JUMPDEST PUSH2 0x1247 JUMP JUMPDEST CALLVALUE DUP1 ISZERO PUSH2 0x5CA JUMPI PUSH1 0x0 DUP1 REVERT JUMPDEST POP PUSH2 0x28E PUSH1 0x11 SLOAD DUP2 JUMP JUMPDEST CALLVALUE DUP1 ISZERO PUSH2 0x5E0 JUMPI PUSH1 0x0 DUP1 REVERT JUMPDEST POP PUSH2 0x28E PUSH1 0xF SLOAD DUP2 JUMP JUMPDEST CALLVALUE DUP1 ISZERO PUSH2 0x5F6 JUMPI PUSH1 0x0 DUP1 REVERT JUMPDEST POP PUSH2 0x60A PUSH2 0x605 CALLDATASIZE PUSH1 0x4 PUSH2 0x2C42 JUMP JUMPDEST PUSH2 0x12BD JUMP JUMPDEST PUSH1 0x40 MLOAD PUSH2 0x298 SWAP2 SWAP1 PUSH2 0x2F0E JUMP JUMPDEST CALLVALUE DUP1 ISZERO PUSH2 0x623 JUMPI PUSH1 0x0 DUP1 REVERT JUMPDEST POP PUSH2 0x28E PUSH2 0x632 CALLDATASIZE PUSH1 0x4 PUSH2 0x2C66 JUMP JUMPDEST PUSH1 0x4 PUSH1 0x20 MSTORE PUSH1 0x0 SWAP1 DUP2 MSTORE PUSH1 0x40 SWAP1 KECCAK256 SLOAD DUP2 JUMP JUMPDEST CALLVALUE DUP1 ISZERO PUSH2 0x650 JUMPI PUSH1 0x0 DUP1 REVERT JUMPDEST POP PUSH1 0x0 SLOAD PUSH1 0x1 PUSH1 0x1 PUSH1 0xA0 SHL SUB AND PUSH2 0x3A9 JUMP JUMPDEST CALLVALUE DUP1 ISZERO PUSH2 0x66E JUMPI PUSH1 0x0 DUP1 REVERT JUMPDEST POP PUSH2 0x304 PUSH2 0x67D CALLDATASIZE PUSH1 0x4 PUSH2 0x2F21 JUMP JUMPDEST PUSH2 0x13F8 JUMP JUMPDEST CALLVALUE DUP1 ISZERO PUSH2 0x68E JUMPI PUSH1 0x0 DUP1 REVERT JUMPDEST POP PUSH2 0x28E PUSH2 0x69D CALLDATASIZE PUSH1 0x4 PUSH2 0x2F21 JUMP JUMPDEST PUSH2 0x1547 JUMP JUMPDEST CALLVALUE DUP1 ISZERO PUSH2 0x6AE JUMPI PUSH1 0x0 DUP1 REVERT JUMPDEST POP PUSH2 0x28E PUSH2 0x6BD CALLDATASIZE PUSH1 0x4 PUSH2 0x2F21 JUMP JUMPDEST PUSH2 0x1578 JUMP JUMPDEST CALLVALUE DUP1 ISZERO PUSH2 0x6CE JUMPI PUSH1 0x0 DUP1 REVERT JUMPDEST POP PUSH2 0x304 PUSH2 0x6DD CALLDATASIZE PUSH1 0x4 PUSH2 0x2F5B JUMP JUMPDEST PUSH2 0x1594 JUMP JUMPDEST CALLVALUE DUP1 ISZERO PUSH2 0x6EE JUMPI PUSH1 0x0 DUP1 REVERT JUMPDEST POP PUSH1 0x3 SLOAD PUSH2 0x703 SWAP1 PUSH1 0x1 PUSH1 0xB0 SHL SWAP1 DIV PUSH1 0xFF AND DUP2 JUMP JUMPDEST PUSH1 0x40 MLOAD PUSH1 0xFF SWAP1 SWAP2 AND DUP2 MSTORE PUSH1 0x20 ADD PUSH2 0x298 JUMP JUMPDEST CALLVALUE DUP1 ISZERO PUSH2 0x721 JUMPI PUSH1 0x0 DUP1 REVERT JUMPDEST POP PUSH2 0x28E PUSH2 0x730 CALLDATASIZE PUSH1 0x4 PUSH2 0x2F21 JUMP JUMPDEST PUSH2 0x17C6 JUMP JUMPDEST CALLVALUE DUP1 ISZERO PUSH2 0x741 JUMPI PUSH1 0x0 DUP1 REVERT JUMPDEST POP PUSH1 0x3 SLOAD PUSH2 0x703 SWAP1 PUSH1 0x1 PUSH1 0xA8 SHL SWAP1 DIV PUSH1 0xFF AND DUP2 JUMP JUMPDEST CALLVALUE DUP1 ISZERO PUSH2 0x762 JUMPI PUSH1 0x0 DUP1 REVERT JUMPDEST POP PUSH1 0x2 SLOAD PUSH2 0x3A9 SWAP1 PUSH1 0x1 PUSH1 0x1 PUSH1 0xA0 SHL SUB AND DUP2 JUMP JUMPDEST CALLVALUE DUP1 ISZERO PUSH2 0x782 JUMPI PUSH1 0x0 DUP1 REVERT JUMPDEST POP PUSH2 0x568 PUSH2 0x791 CALLDATASIZE PUSH1 0x4 PUSH2 0x2C42 JUMP JUMPDEST PUSH1 0xD PUSH1 0x20 MSTORE PUSH1 0x0 SWAP1 DUP2 MSTORE PUSH1 0x40 SWAP1 KECCAK256 SLOAD PUSH1 0xFF AND DUP2 JUMP JUMPDEST CALLVALUE DUP1 ISZERO PUSH2 0x7B2 JUMPI PUSH1 0x0 DUP1 REVERT JUMPDEST POP PUSH2 0x58D PUSH2 0x17E2 JUMP JUMPDEST CALLVALUE DUP1 ISZERO PUSH2 0x7C7 JUMPI PUSH1 0x0 DUP1 REVERT JUMPDEST POP PUSH2 0x7DB PUSH2 0x7D6 CALLDATASIZE PUSH1 0x4 PUSH2 0x300C JUMP JUMPDEST PUSH2 0x1985 JUMP JUMPDEST PUSH1 0x40 DUP1 MLOAD SWAP4 DUP5 MSTORE PUSH1 0x20 DUP5 ADD SWAP3 SWAP1 SWAP3 MSTORE SWAP1 DUP3 ADD MSTORE PUSH1 0x60 ADD PUSH2 0x298 JUMP JUMPDEST CALLVALUE DUP1 ISZERO PUSH2 0x802 JUMPI PUSH1 0x0 DUP1 REVERT JUMPDEST POP PUSH2 0x568 PUSH2 0x811 CALLDATASIZE PUSH1 0x4 PUSH2 0x2C42 JUMP JUMPDEST PUSH1 0x10 PUSH1 0x20 MSTORE PUSH1 0x0 SWAP1 DUP2 MSTORE PUSH1 0x40 SWAP1 KECCAK256 SLOAD PUSH1 0xFF AND DUP2 JUMP JUMPDEST CALLVALUE DUP1 ISZERO PUSH2 0x832 JUMPI PUSH1 0x0 DUP1 REVERT JUMPDEST POP PUSH2 0x304 PUSH2 0x841 CALLDATASIZE PUSH1 0x4 PUSH2 0x2C42 JUMP JUMPDEST PUSH2 0x235F JUMP JUMPDEST CALLVALUE DUP1 ISZERO PUSH2 0x852 JUMPI PUSH1 0x0 DUP1 REVERT JUMPDEST POP PUSH2 0x85B PUSH2 0x23AB JUMP JUMPDEST PUSH1 0x40 MLOAD PUSH2 0x298 SWAP2 SWAP1 PUSH2 0x30B2 JUMP JUMPDEST CALLVALUE DUP1 ISZERO PUSH2 0x874 JUMPI PUSH1 0x0 DUP1 REVERT JUMPDEST POP PUSH2 0x304 PUSH2 0x883 CALLDATASIZE PUSH1 0x4 PUSH2 0x2D34 JUMP JUMPDEST PUSH2 0x24F6 JUMP JUMPDEST CALLVALUE DUP1 ISZERO PUSH2 0x894 JUMPI PUSH1 0x0 DUP1 REVERT JUMPDEST POP PUSH1 0x6 SLOAD PUSH2 0x3A9 SWAP1 PUSH1 0x1 PUSH1 0x1 PUSH1 0xA0 SHL SUB AND DUP2 JUMP JUMPDEST CALLVALUE DUP1 ISZERO PUSH2 0x8B4 JUMPI PUSH1 0x0 DUP1 REVERT JUMPDEST POP PUSH2 0x304 PUSH2 0x8C3 CALLDATASIZE PUSH1 0x4 PUSH2 0x2C42 JUMP JUMPDEST PUSH2 0x282E JUMP JUMPDEST CALLVALUE DUP1 ISZERO PUSH2 0x8D4 JUMPI PUSH1 0x0 DUP1 REVERT JUMPDEST POP PUSH1 0x3 SLOAD PUSH2 0x568 SWAP1 PUSH1 0x1 PUSH1 0xA0 SHL SWAP1 DIV PUSH1 0xFF AND DUP2 JUMP JUMPDEST CALLVALUE DUP1 ISZERO PUSH2 0x8F5 JUMPI PUSH1 0x0 DUP1 REVERT JUMPDEST POP PUSH1 0x3 SLOAD PUSH2 0x3A9 SWAP1 PUSH1 0x1 PUSH1 0x1 PUSH1 0xA0 SHL SUB AND DUP2 JUMP JUMPDEST PUSH1 0x0 SLOAD PUSH1 0x1 PUSH1 0x1 PUSH1 0xA0 SHL SUB AND CALLER EQ PUSH2 0x93C JUMPI PUSH1 0x40 MLOAD PUSH3 0x461BCD PUSH1 0xE5 SHL DUP2 MSTORE PUSH1 0x4 ADD PUSH2 0x933 SWAP1 PUSH2 0x30F5 JUMP JUMPDEST PUSH1 0x40 MLOAD DUP1 SWAP2 SUB SWAP1 REVERT JUMPDEST DUP1 SELFBALANCE LT ISZERO PUSH2 0x98C JUMPI PUSH1 0x40 MLOAD PUSH3 0x461BCD PUSH1 0xE5 SHL DUP2 MSTORE PUSH1 0x20 PUSH1 0x4 DUP3 ADD MSTORE PUSH1 0x1A PUSH1 0x24 DUP3 ADD MSTORE PUSH32 0x496E73756666696369656E742065746865722062616C616E6365000000000000 PUSH1 0x44 DUP3 ADD MSTORE PUSH1 0x64 ADD PUSH2 0x933 JUMP JUMPDEST PUSH1 0x40 MLOAD CALLER SWAP1 DUP3 ISZERO PUSH2 0x8FC MUL SWAP1 DUP4 SWAP1 PUSH1 0x0 DUP2 DUP2 DUP2 DUP6 DUP9 DUP9 CALL SWAP4 POP POP POP POP ISZERO DUP1 ISZERO PUSH2 0x9B9 JUMPI RETURNDATASIZE PUSH1 0x0 DUP1 RETURNDATACOPY RETURNDATASIZE PUSH1 0x0 REVERT JUMPDEST POP POP JUMP JUMPDEST PUSH1 0x13 DUP2 DUP2 SLOAD DUP2 LT PUSH2 0x9CD JUMPI PUSH1 0x0 DUP1 REVERT JUMPDEST PUSH1 0x0 SWAP2 DUP3 MSTORE PUSH1 0x20 SWAP1 SWAP2 KECCAK256 ADD SLOAD SWAP1 POP DUP2 JUMP JUMPDEST PUSH1 0x0 DUP1 TIMESTAMP DUP2 JUMPDEST PUSH1 0x1 PUSH1 0x1 PUSH1 0xA0 SHL SUB DUP6 AND PUSH1 0x0 SWAP1 DUP2 MSTORE PUSH1 0x7 PUSH1 0x20 MSTORE PUSH1 0x40 SWAP1 KECCAK256 SLOAD DUP2 LT ISZERO PUSH2 0xB7D JUMPI PUSH1 0x12 SLOAD PUSH1 0x1 PUSH1 0x1 PUSH1 0xA0 SHL SUB DUP7 AND PUSH1 0x0 SWAP1 DUP2 MSTORE PUSH1 0x9 PUSH1 0x20 MSTORE PUSH1 0x40 DUP2 KECCAK256 DUP1 SLOAD SWAP2 SWAP3 SWAP2 DUP5 SWAP1 DUP2 LT PUSH2 0xA34 JUMPI PUSH2 0xA34 PUSH2 0x312A JUMP JUMPDEST SWAP1 PUSH1 0x0 MSTORE PUSH1 0x20 PUSH1 0x0 KECCAK256 ADD SLOAD PUSH2 0xA49 SWAP2 SWAP1 PUSH2 0x3156 JUMP JUMPDEST PUSH1 0x1 PUSH1 0x1 PUSH1 0xA0 SHL SUB DUP8 AND PUSH1 0x0 SWAP1 DUP2 MSTORE PUSH1 0xA PUSH1 0x20 MSTORE PUSH1 0x40 SWAP1 KECCAK256 DUP1 SLOAD DUP5 SWAP1 DUP2 LT PUSH2 0xA73 JUMPI PUSH2 0xA73 PUSH2 0x312A JUMP JUMPDEST SWAP1 PUSH1 0x0 MSTORE PUSH1 0x20 PUSH1 0x0 KECCAK256 ADD SLOAD PUSH2 0xA88 SWAP2 SWAP1 PUSH2 0x3175 JUMP JUMPDEST SWAP1 POP DUP1 DUP4 GT ISZERO PUSH2 0xB6A JUMPI PUSH1 0x1 PUSH1 0x1 PUSH1 0xA0 SHL SUB DUP7 AND PUSH1 0x0 SWAP1 DUP2 MSTORE PUSH1 0x9 PUSH1 0x20 MSTORE PUSH1 0x40 DUP2 KECCAK256 DUP1 SLOAD PUSH2 0x2710 SWAP2 PUSH1 0x4 SWAP2 DUP5 SWAP2 SWAP1 DUP8 SWAP1 DUP2 LT PUSH2 0xAC6 JUMPI PUSH2 0xAC6 PUSH2 0x312A JUMP JUMPDEST SWAP1 PUSH1 0x0 MSTORE PUSH1 0x20 PUSH1 0x0 KECCAK256 ADD SLOAD DUP2 MSTORE PUSH1 0x20 ADD SWAP1 DUP2 MSTORE PUSH1 0x20 ADD PUSH1 0x0 KECCAK256 SLOAD PUSH1 0x7 PUSH1 0x0 DUP11 PUSH1 0x1 PUSH1 0x1 PUSH1 0xA0 SHL SUB AND PUSH1 0x1 PUSH1 0x1 PUSH1 0xA0 SHL SUB AND DUP2 MSTORE PUSH1 0x20 ADD SWAP1 DUP2 MSTORE PUSH1 0x20 ADD PUSH1 0x0 KECCAK256 DUP6 DUP2 SLOAD DUP2 LT PUSH2 0xB16 JUMPI PUSH2 0xB16 PUSH2 0x312A JUMP JUMPDEST SWAP1 PUSH1 0x0 MSTORE PUSH1 0x20 PUSH1 0x0 KECCAK256 ADD SLOAD PUSH2 0xB2B SWAP2 SWAP1 PUSH2 0x3156 JUMP JUMPDEST PUSH2 0xB35 SWAP2 SWAP1 PUSH2 0x318D JUMP JUMPDEST PUSH1 0x3 SLOAD SWAP1 SWAP2 POP PUSH2 0xB50 SWAP1 PUSH1 0x1 PUSH1 0xA8 SHL SWAP1 DIV PUSH1 0xFF AND PUSH1 0xA PUSH2 0x3293 JUMP JUMPDEST PUSH2 0xB5A SWAP1 DUP3 PUSH2 0x318D JUMP JUMPDEST SWAP1 POP PUSH2 0xB66 DUP2 DUP7 PUSH2 0x3175 JUMP JUMPDEST SWAP5 POP POP JUMPDEST POP DUP1 PUSH2 0xB75 DUP2 PUSH2 0x329F JUMP JUMPDEST SWAP2 POP POP PUSH2 0x9E4 JUMP JUMPDEST POP SWAP1 SWAP4 SWAP3 POP POP POP JUMP JUMPDEST PUSH2 0xB8E PUSH2 0x2B96 JUMP JUMPDEST PUSH2 0xB97 DUP3 PUSH2 0x2918 JUMP JUMPDEST PUSH2 0xBB3 JUMPI PUSH1 0x40 MLOAD PUSH3 0x461BCD PUSH1 0xE5 SHL DUP2 MSTORE PUSH1 0x4 ADD PUSH2 0x933 SWAP1 PUSH2 0x32BA JUMP JUMPDEST POP PUSH1 0x0 SWAP1 DUP2 MSTORE PUSH1 0x5 PUSH1 0x20 DUP2 DUP2 MSTORE PUSH1 0x40 SWAP3 DUP4 SWAP1 KECCAK256 DUP4 MLOAD PUSH2 0x120 DUP2 ADD DUP6 MSTORE DUP2 SLOAD DUP2 MSTORE PUSH1 0x1 DUP3 ADD SLOAD SWAP3 DUP2 ADD SWAP3 SWAP1 SWAP3 MSTORE PUSH1 0x2 DUP2 ADD SLOAD SWAP4 DUP3 ADD SWAP4 SWAP1 SWAP4 MSTORE PUSH1 0x3 DUP4 ADD SLOAD PUSH1 0x60 DUP3 ADD MSTORE PUSH1 0x4 DUP4 ADD SLOAD PUSH1 0x80 DUP3 ADD MSTORE SWAP1 DUP3 ADD SLOAD PUSH1 0xA0 DUP3 ADD MSTORE PUSH1 0x6 DUP3 ADD SLOAD PUSH1 0xC0 DUP3 ADD MSTORE PUSH1 0x7 DUP3 ADD SLOAD PUSH1 0xFF AND ISZERO ISZERO PUSH1 0xE0 DUP3 ADD MSTORE PUSH1 0x8 SWAP1 SWAP2 ADD SLOAD PUSH2 0x100 DUP3 ADD MSTORE SWAP1 JUMP JUMPDEST PUSH1 0x60 PUSH1 0x13 DUP1 SLOAD DUP1 PUSH1 0x20 MUL PUSH1 0x20 ADD PUSH1 0x40 MLOAD SWAP1 DUP2 ADD PUSH1 0x40 MSTORE DUP1 SWAP3 SWAP2 SWAP1 DUP2 DUP2 MSTORE PUSH1 0x20 ADD DUP3 DUP1 SLOAD DUP1 ISZERO PUSH2 0xC7E JUMPI PUSH1 0x20 MUL DUP3 ADD SWAP2 SWAP1 PUSH1 0x0 MSTORE PUSH1 0x20 PUSH1 0x0 KECCAK256 SWAP1 JUMPDEST DUP2 SLOAD DUP2 MSTORE PUSH1 0x20 ADD SWAP1 PUSH1 0x1 ADD SWAP1 DUP1 DUP4 GT PUSH2 0xC6A JUMPI JUMPDEST POP POP POP POP POP SWAP1 POP SWAP1 JUMP JUMPDEST PUSH1 0x60 DUP2 PUSH2 0xC95 JUMPI PUSH1 0xF SLOAD SWAP2 POP JUMPDEST PUSH1 0x0 PUSH2 0xCA1 DUP4 DUP6 PUSH2 0x3175 JUMP JUMPDEST SWAP1 POP PUSH2 0xCAD DUP5 DUP3 PUSH2 0x32E9 JUMP JUMPDEST PUSH8 0xFFFFFFFFFFFFFFFF DUP2 GT ISZERO PUSH2 0xCC5 JUMPI PUSH2 0xCC5 PUSH2 0x2FC5 JUMP JUMPDEST PUSH1 0x40 MLOAD SWAP1 DUP1 DUP3 MSTORE DUP1 PUSH1 0x20 MUL PUSH1 0x20 ADD DUP3 ADD PUSH1 0x40 MSTORE DUP1 ISZERO PUSH2 0xCFE JUMPI DUP2 PUSH1 0x20 ADD JUMPDEST PUSH2 0xCEB PUSH2 0x2BE4 JUMP JUMPDEST DUP2 MSTORE PUSH1 0x20 ADD SWAP1 PUSH1 0x1 SWAP1 SUB SWAP1 DUP2 PUSH2 0xCE3 JUMPI SWAP1 POP JUMPDEST POP SWAP2 POP PUSH1 0x0 JUMPDEST PUSH2 0xD0E DUP6 DUP4 PUSH2 0x32E9 JUMP JUMPDEST DUP2 LT ISZERO PUSH2 0xD84 JUMPI PUSH2 0xD54 PUSH1 0xE PUSH1 0x0 DUP8 DUP5 PUSH1 0xF SLOAD PUSH2 0xD2B SWAP2 SWAP1 PUSH2 0x32E9 JUMP JUMPDEST PUSH2 0xD35 SWAP2 SWAP1 PUSH2 0x32E9 JUMP JUMPDEST DUP2 MSTORE PUSH1 0x20 DUP2 ADD SWAP2 SWAP1 SWAP2 MSTORE PUSH1 0x40 ADD PUSH1 0x0 KECCAK256 SLOAD PUSH1 0x1 PUSH1 0x1 PUSH1 0xA0 SHL SUB AND PUSH2 0x12BD JUMP JUMPDEST DUP4 DUP3 DUP2 MLOAD DUP2 LT PUSH2 0xD66 JUMPI PUSH2 0xD66 PUSH2 0x312A JUMP JUMPDEST PUSH1 0x20 MUL PUSH1 0x20 ADD ADD DUP2 SWAP1 MSTORE POP DUP1 DUP1 PUSH2 0xD7C SWAP1 PUSH2 0x329F JUMP JUMPDEST SWAP2 POP POP PUSH2 0xD04 JUMP JUMPDEST POP POP SWAP3 SWAP2 POP POP JUMP JUMPDEST PUSH1 0x0 SLOAD PUSH1 0x1 PUSH1 0x1 PUSH1 0xA0 SHL SUB AND CALLER EQ PUSH2 0xDB6 JUMPI PUSH1 0x40 MLOAD PUSH3 0x461BCD PUSH1 0xE5 SHL DUP2 MSTORE PUSH1 0x4 ADD PUSH2 0x933 SWAP1 PUSH2 0x30F5 JUMP JUMPDEST PUSH2 0xDBF DUP2 PUSH2 0x2918 JUMP JUMPDEST PUSH2 0xDDB JUMPI PUSH1 0x40 MLOAD PUSH3 0x461BCD PUSH1 0xE5 SHL DUP2 MSTORE PUSH1 0x4 ADD PUSH2 0x933 SWAP1 PUSH2 0x32BA JUMP JUMPDEST PUSH1 0x0 DUP1 DUP1 JUMPDEST PUSH1 0x13 SLOAD DUP2 LT ISZERO PUSH2 0xE2D JUMPI DUP4 PUSH1 0x13 DUP3 DUP2 SLOAD DUP2 LT PUSH2 0xDFE JUMPI PUSH2 0xDFE PUSH2 0x312A JUMP JUMPDEST SWAP1 PUSH1 0x0 MSTORE PUSH1 0x20 PUSH1 0x0 KECCAK256 ADD SLOAD EQ ISZERO PUSH2 0xE1B JUMPI DUP1 SWAP3 POP PUSH1 0x1 SWAP2 POP PUSH2 0xE2D JUMP JUMPDEST DUP1 PUSH2 0xE25 DUP2 PUSH2 0x329F JUMP JUMPDEST SWAP2 POP POP PUSH2 0xDE0 JUMP JUMPDEST POP DUP1 PUSH2 0xE4B JUMPI PUSH1 0x40 MLOAD PUSH3 0x461BCD PUSH1 0xE5 SHL DUP2 MSTORE PUSH1 0x4 ADD PUSH2 0x933 SWAP1 PUSH2 0x32BA JUMP JUMPDEST PUSH1 0x0 DUP4 DUP2 MSTORE PUSH1 0x5 PUSH1 0x20 DUP2 SWAP1 MSTORE PUSH1 0x40 DUP3 KECCAK256 DUP3 DUP2 SSTORE PUSH1 0x1 DUP2 ADD DUP4 SWAP1 SSTORE PUSH1 0x2 DUP2 ADD DUP4 SWAP1 SSTORE PUSH1 0x3 DUP2 ADD DUP4 SWAP1 SSTORE PUSH1 0x4 DUP2 ADD DUP4 SWAP1 SSTORE SWAP1 DUP2 ADD DUP3 SWAP1 SSTORE PUSH1 0x6 DUP2 ADD DUP3 SWAP1 SSTORE PUSH1 0x7 DUP2 ADD DUP1 SLOAD PUSH1 0xFF NOT AND SWAP1 SSTORE PUSH1 0x8 ADD SSTORE DUP2 JUMPDEST PUSH1 0x13 SLOAD PUSH2 0xEA8 SWAP1 PUSH1 0x1 SWAP1 PUSH2 0x32E9 JUMP JUMPDEST DUP2 LT ISZERO PUSH2 0xF08 JUMPI PUSH1 0x13 PUSH2 0xEBC DUP3 PUSH1 0x1 PUSH2 0x3175 JUMP JUMPDEST DUP2 SLOAD DUP2 LT PUSH2 0xECC JUMPI PUSH2 0xECC PUSH2 0x312A JUMP JUMPDEST SWAP1 PUSH1 0x0 MSTORE PUSH1 0x20 PUSH1 0x0 KECCAK256 ADD SLOAD PUSH1 0x13 DUP3 DUP2 SLOAD DUP2 LT PUSH2 0xEEA JUMPI PUSH2 0xEEA PUSH2 0x312A JUMP JUMPDEST PUSH1 0x0 SWAP2 DUP3 MSTORE PUSH1 0x20 SWAP1 SWAP2 KECCAK256 ADD SSTORE DUP1 PUSH2 0xF00 DUP2 PUSH2 0x329F JUMP JUMPDEST SWAP2 POP POP PUSH2 0xE99 JUMP JUMPDEST POP PUSH1 0x13 DUP1 SLOAD DUP1 PUSH2 0xF1A JUMPI PUSH2 0xF1A PUSH2 0x3300 JUMP JUMPDEST PUSH1 0x1 SWAP1 SUB DUP2 DUP2 SWAP1 PUSH1 0x0 MSTORE PUSH1 0x20 PUSH1 0x0 KECCAK256 ADD PUSH1 0x0 SWAP1 SSTORE SWAP1 SSTORE POP POP POP JUMP JUMPDEST PUSH1 0x0 SLOAD PUSH1 0x1 PUSH1 0x1 PUSH1 0xA0 SHL SUB AND CALLER EQ PUSH2 0xF5F JUMPI PUSH1 0x40 MLOAD PUSH3 0x461BCD PUSH1 0xE5 SHL DUP2 MSTORE PUSH1 0x4 ADD PUSH2 0x933 SWAP1 PUSH2 0x30F5 JUMP JUMPDEST PUSH1 0x1 PUSH1 0x1 PUSH1 0xA0 SHL SUB DUP2 AND PUSH2 0xFA7 JUMPI PUSH1 0x40 MLOAD PUSH3 0x461BCD PUSH1 0xE5 SHL DUP2 MSTORE PUSH1 0x20 PUSH1 0x4 DUP3 ADD MSTORE PUSH1 0xF PUSH1 0x24 DUP3 ADD MSTORE PUSH15 0x496E76616C69642061646472657373 PUSH1 0x88 SHL PUSH1 0x44 DUP3 ADD MSTORE PUSH1 0x64 ADD PUSH2 0x933 JUMP JUMPDEST PUSH1 0x1 PUSH1 0x1 PUSH1 0xA0 SHL SUB AND PUSH1 0x0 SWAP1 DUP2 MSTORE PUSH1 0x10 PUSH1 0x20 MSTORE PUSH1 0x40 SWAP1 KECCAK256 DUP1 SLOAD PUSH1 0xFF NOT AND PUSH1 0x1 OR SWAP1 SSTORE JUMP JUMPDEST PUSH1 0x0 SLOAD PUSH1 0x1 PUSH1 0x1 PUSH1 0xA0 SHL SUB AND CALLER EQ PUSH2 0xFF5 JUMPI PUSH1 0x40 MLOAD PUSH3 0x461BCD PUSH1 0xE5 SHL DUP2 MSTORE PUSH1 0x4 ADD PUSH2 0x933 SWAP1 PUSH2 0x30F5 JUMP JUMPDEST PUSH1 0x1 PUSH1 0x1 PUSH1 0xA0 SHL SUB DUP2 AND PUSH2 0x103D JUMPI PUSH1 0x40 MLOAD PUSH3 0x461BCD PUSH1 0xE5 SHL DUP2 MSTORE PUSH1 0x20 PUSH1 0x4 DUP3 ADD MSTORE PUSH1 0xF PUSH1 0x24 DUP3 ADD MSTORE PUSH15 0x496E76616C69642061646472657373 PUSH1 0x88 SHL PUSH1 0x44 DUP3 ADD MSTORE PUSH1 0x64 ADD PUSH2 0x933 JUMP JUMPDEST PUSH1 0x1 PUSH1 0x1 PUSH1 0xA0 SHL SUB AND PUSH1 0x0 SWAP1 DUP2 MSTORE PUSH1 0x10 PUSH1 0x20 MSTORE PUSH1 0x40 SWAP1 KECCAK256 DUP1 SLOAD PUSH1 0xFF NOT AND SWAP1 SSTORE JUMP JUMPDEST PUSH1 0x3 SLOAD PUSH1 0x40 DUP1 MLOAD PUSH4 0x6FDDE03 PUSH1 0xE0 SHL DUP2 MSTORE SWAP1 MLOAD PUSH1 0x1 PUSH1 0x1 PUSH1 0xA0 SHL SUB SWAP1 SWAP3 AND SWAP2 PUSH1 0x60 SWAP2 DUP3 SWAP2 PUSH1 0x0 SWAP2 DUP3 SWAP2 DUP7 SWAP2 PUSH4 0x6FDDE03 SWAP2 PUSH1 0x4 DUP1 DUP4 ADD SWAP3 DUP7 SWAP3 SWAP2 SWAP1 DUP3 SWAP1 SUB ADD DUP2 DUP7 GAS STATICCALL ISZERO DUP1 ISZERO PUSH2 0x10B2 JUMPI RETURNDATASIZE PUSH1 0x0 DUP1 RETURNDATACOPY RETURNDATASIZE PUSH1 0x0 REVERT JUMPDEST POP POP POP POP PUSH1 0x40 MLOAD RETURNDATASIZE PUSH1 0x0 DUP3 RETURNDATACOPY PUSH1 0x1F RETURNDATASIZE SWAP1 DUP2 ADD PUSH1 0x1F NOT AND DUP3 ADD PUSH1 0x40 MSTORE PUSH2 0x10DA SWAP2 SWAP1 DUP2 ADD SWAP1 PUSH2 0x3316 JUMP JUMPDEST SWAP4 POP PUSH1 0x3 PUSH1 0x0 SWAP1 SLOAD SWAP1 PUSH2 0x100 EXP SWAP1 DIV PUSH1 0x1 PUSH1 0x1 PUSH1 0xA0 SHL SUB AND PUSH1 0x1 PUSH1 0x1 PUSH1 0xA0 SHL SUB AND PUSH4 0x95D89B41 PUSH1 0x40 MLOAD DUP2 PUSH4 0xFFFFFFFF AND PUSH1 0xE0 SHL DUP2 MSTORE PUSH1 0x4 ADD PUSH1 0x0 PUSH1 0x40 MLOAD DUP1 DUP4 SUB DUP2 DUP7 GAS STATICCALL ISZERO DUP1 ISZERO PUSH2 0x112F JUMPI RETURNDATASIZE PUSH1 0x0 DUP1 RETURNDATACOPY RETURNDATASIZE PUSH1 0x0 REVERT JUMPDEST POP POP POP POP PUSH1 0x40 MLOAD RETURNDATASIZE PUSH1 0x0 DUP3 RETURNDATACOPY PUSH1 0x1F RETURNDATASIZE SWAP1 DUP2 ADD PUSH1 0x1F NOT AND DUP3 ADD PUSH1 0x40 MSTORE PUSH2 0x1157 SWAP2 SWAP1 DUP2 ADD SWAP1 PUSH2 0x3316 JUMP JUMPDEST SWAP3 POP PUSH1 0x3 PUSH1 0x0 SWAP1 SLOAD SWAP1 PUSH2 0x100 EXP SWAP1 DIV PUSH1 0x1 PUSH1 0x1 PUSH1 0xA0 SHL SUB AND PUSH1 0x1 PUSH1 0x1 PUSH1 0xA0 SHL SUB AND PUSH4 0x313CE567 PUSH1 0x40 MLOAD DUP2 PUSH4 0xFFFFFFFF AND PUSH1 0xE0 SHL DUP2 MSTORE PUSH1 0x4 ADD PUSH1 0x20 PUSH1 0x40 MLOAD DUP1 DUP4 SUB DUP2 DUP7 GAS STATICCALL ISZERO DUP1 ISZERO PUSH2 0x11AC JUMPI RETURNDATASIZE PUSH1 0x0 DUP1 RETURNDATACOPY RETURNDATASIZE PUSH1 0x0 REVERT JUMPDEST POP POP POP POP PUSH1 0x40 MLOAD RETURNDATASIZE PUSH1 0x1F NOT PUSH1 0x1F DUP3 ADD AND DUP3 ADD DUP1 PUSH1 0x40 MSTORE POP DUP2 ADD SWAP1 PUSH2 0x11D0 SWAP2 SWAP1 PUSH2 0x33AA JUMP JUMPDEST PUSH1 0x3 SLOAD PUSH1 0x40 MLOAD PUSH4 0x70A08231 PUSH1 0xE0 SHL DUP2 MSTORE ADDRESS PUSH1 0x4 DUP3 ADD MSTORE SWAP2 SWAP4 POP PUSH1 0x1 PUSH1 0x1 PUSH1 0xA0 SHL SUB AND SWAP1 PUSH4 0x70A08231 SWAP1 PUSH1 0x24 ADD JUMPDEST PUSH1 0x20 PUSH1 0x40 MLOAD DUP1 DUP4 SUB DUP2 DUP7 GAS STATICCALL ISZERO DUP1 ISZERO PUSH2 0x121A JUMPI RETURNDATASIZE PUSH1 0x0 DUP1 RETURNDATACOPY RETURNDATASIZE PUSH1 0x0 REVERT JUMPDEST POP POP POP POP PUSH1 0x40 MLOAD RETURNDATASIZE PUSH1 0x1F NOT PUSH1 0x1F DUP3 ADD AND DUP3 ADD DUP1 PUSH1 0x40 MSTORE POP DUP2 ADD SWAP1 PUSH2 0x123E SWAP2 SWAP1 PUSH2 0x33CD JUMP JUMPDEST SWAP1 POP SWAP1 SWAP2 SWAP3 SWAP4 SWAP5 JUMP JUMPDEST PUSH1 0x0 SLOAD PUSH1 0x1 PUSH1 0x1 PUSH1 0xA0 SHL SUB AND CALLER EQ PUSH2 0x1271 JUMPI PUSH1 0x40 MLOAD PUSH3 0x461BCD PUSH1 0xE5 SHL DUP2 MSTORE PUSH1 0x4 ADD PUSH2 0x933 SWAP1 PUSH2 0x30F5 JUMP JUMPDEST PUSH2 0x2710 DUP2 GT ISZERO PUSH2 0x12B8 JUMPI PUSH1 0x40 MLOAD PUSH3 0x461BCD PUSH1 0xE5 SHL DUP2 MSTORE PUSH1 0x20 PUSH1 0x4 DUP3 ADD MSTORE PUSH1 0x12 PUSH1 0x24 DUP3 ADD MSTORE PUSH18 0x496E76616C69642070657263656E74616765 PUSH1 0x70 SHL PUSH1 0x44 DUP3 ADD MSTORE PUSH1 0x64 ADD PUSH2 0x933 JUMP JUMPDEST PUSH1 0x11 SSTORE JUMP JUMPDEST PUSH2 0x12C5 PUSH2 0x2BE4 JUMP JUMPDEST PUSH1 0x40 DUP1 MLOAD PUSH1 0xE0 DUP2 ADD DUP3 MSTORE PUSH1 0x1 PUSH1 0x1 PUSH1 0xA0 SHL SUB DUP5 AND DUP1 DUP3 MSTORE PUSH1 0x0 DUP2 DUP2 MSTORE PUSH1 0x8 PUSH1 0x20 SWAP1 DUP2 MSTORE DUP5 DUP3 KECCAK256 SLOAD DUP2 DUP6 ADD MSTORE DUP3 DUP3 MSTORE PUSH1 0xC DUP2 MSTORE DUP5 DUP3 KECCAK256 SLOAD DUP5 DUP7 ADD MSTORE SWAP2 DUP2 MSTORE PUSH1 0x9 DUP3 MSTORE DUP4 SWAP1 KECCAK256 DUP1 SLOAD DUP5 MLOAD DUP2 DUP5 MUL DUP2 ADD DUP5 ADD SWAP1 SWAP6 MSTORE DUP1 DUP6 MSTORE SWAP3 SWAP4 PUSH1 0x60 DUP6 ADD SWAP4 SWAP1 SWAP3 DUP4 ADD DUP3 DUP3 DUP1 ISZERO PUSH2 0x1352 JUMPI PUSH1 0x20 MUL DUP3 ADD SWAP2 SWAP1 PUSH1 0x0 MSTORE PUSH1 0x20 PUSH1 0x0 KECCAK256 SWAP1 JUMPDEST DUP2 SLOAD DUP2 MSTORE PUSH1 0x20 ADD SWAP1 PUSH1 0x1 ADD SWAP1 DUP1 DUP4 GT PUSH2 0x133E JUMPI JUMPDEST POP POP POP SWAP2 DUP4 MSTORE POP POP PUSH1 0x1 PUSH1 0x1 PUSH1 0xA0 SHL SUB DUP5 AND PUSH1 0x0 SWAP1 DUP2 MSTORE PUSH1 0xB PUSH1 0x20 SWAP1 DUP2 MSTORE PUSH1 0x40 SWAP2 DUP3 SWAP1 KECCAK256 SLOAD SWAP1 DUP4 ADD MSTORE ADD PUSH2 0x1385 DUP5 PUSH2 0x9DE JUMP JUMPDEST DUP2 MSTORE PUSH1 0x1 PUSH1 0x1 PUSH1 0xA0 SHL SUB DUP5 AND PUSH1 0x0 SWAP1 DUP2 MSTORE PUSH1 0xA PUSH1 0x20 SWAP1 DUP2 MSTORE PUSH1 0x40 SWAP2 DUP3 SWAP1 KECCAK256 DUP1 SLOAD DUP4 MLOAD DUP2 DUP5 MUL DUP2 ADD DUP5 ADD SWAP1 SWAP5 MSTORE DUP1 DUP5 MSTORE SWAP4 DUP3 ADD SWAP4 SWAP1 SWAP2 DUP4 ADD DUP3 DUP3 DUP1 ISZERO PUSH2 0x13E9 JUMPI PUSH1 0x20 MUL DUP3 ADD SWAP2 SWAP1 PUSH1 0x0 MSTORE PUSH1 0x20 PUSH1 0x0 KECCAK256 SWAP1 JUMPDEST DUP2 SLOAD DUP2 MSTORE PUSH1 0x20 ADD SWAP1 PUSH1 0x1 ADD SWAP1 DUP1 DUP4 GT PUSH2 0x13D5 JUMPI JUMPDEST POP POP POP POP POP DUP2 MSTORE POP SWAP1 POP SWAP2 SWAP1 POP JUMP JUMPDEST PUSH1 0x0 SLOAD PUSH1 0x1 PUSH1 0x1 PUSH1 0xA0 SHL SUB AND CALLER EQ PUSH2 0x1422 JUMPI PUSH1 0x40 MLOAD PUSH3 0x461BCD PUSH1 0xE5 SHL DUP2 MSTORE PUSH1 0x4 ADD PUSH2 0x933 SWAP1 PUSH2 0x30F5 JUMP JUMPDEST PUSH1 0x40 MLOAD PUSH4 0x70A08231 PUSH1 0xE0 SHL DUP2 MSTORE ADDRESS PUSH1 0x4 DUP3 ADD MSTORE DUP2 SWAP1 PUSH1 0x1 PUSH1 0x1 PUSH1 0xA0 SHL SUB DUP5 AND SWAP1 PUSH4 0x70A08231 SWAP1 PUSH1 0x24 ADD PUSH1 0x20 PUSH1 0x40 MLOAD DUP1 DUP4 SUB DUP2 DUP7 GAS STATICCALL ISZERO DUP1 ISZERO PUSH2 0x1468 JUMPI RETURNDATASIZE PUSH1 0x0 DUP1 RETURNDATACOPY RETURNDATASIZE PUSH1 0x0 REVERT JUMPDEST POP POP POP POP PUSH1 0x40 MLOAD RETURNDATASIZE PUSH1 0x1F NOT PUSH1 0x1F DUP3 ADD AND DUP3 ADD DUP1 PUSH1 0x40 MSTORE POP DUP2 ADD SWAP1 PUSH2 0x148C SWAP2 SWAP1 PUSH2 0x33CD JUMP JUMPDEST LT ISZERO PUSH2 0x14D1 JUMPI PUSH1 0x40 MLOAD PUSH3 0x461BCD PUSH1 0xE5 SHL DUP2 MSTORE PUSH1 0x20 PUSH1 0x4 DUP3 ADD MSTORE PUSH1 0x14 PUSH1 0x24 DUP3 ADD MSTORE PUSH20 0x496E73756666696369656E742062616C616E6365 PUSH1 0x60 SHL PUSH1 0x44 DUP3 ADD MSTORE PUSH1 0x64 ADD PUSH2 0x933 JUMP JUMPDEST PUSH1 0x40 MLOAD PUSH4 0xA9059CBB PUSH1 0xE0 SHL DUP2 MSTORE CALLER PUSH1 0x4 DUP3 ADD MSTORE PUSH1 0x24 DUP2 ADD DUP3 SWAP1 MSTORE PUSH1 0x1 PUSH1 0x1 PUSH1 0xA0 SHL SUB DUP4 AND SWAP1 PUSH4 0xA9059CBB SWAP1 PUSH1 0x44 ADD PUSH1 0x20 PUSH1 0x40 MLOAD DUP1 DUP4 SUB DUP2 PUSH1 0x0 DUP8 GAS CALL ISZERO DUP1 ISZERO PUSH2 0x151E JUMPI RETURNDATASIZE PUSH1 0x0 DUP1 RETURNDATACOPY RETURNDATASIZE PUSH1 0x0 REVERT JUMPDEST POP POP POP POP PUSH1 0x40 MLOAD RETURNDATASIZE PUSH1 0x1F NOT PUSH1 0x1F DUP3 ADD AND DUP3 ADD DUP1 PUSH1 0x40 MSTORE POP DUP2 ADD SWAP1 PUSH2 0x1542 SWAP2 SWAP1 PUSH2 0x33E6 JUMP JUMPDEST POP POP POP JUMP JUMPDEST PUSH1 0x7 PUSH1 0x20 MSTORE DUP2 PUSH1 0x0 MSTORE PUSH1 0x40 PUSH1 0x0 KECCAK256 DUP2 DUP2 SLOAD DUP2 LT PUSH2 0x1563 JUMPI PUSH1 0x0 DUP1 REVERT JUMPDEST SWAP1 PUSH1 0x0 MSTORE PUSH1 0x20 PUSH1 0x0 KECCAK256 ADD PUSH1 0x0 SWAP2 POP SWAP2 POP POP SLOAD DUP2 JUMP JUMPDEST PUSH1 0x9 PUSH1 0x20 MSTORE DUP2 PUSH1 0x0 MSTORE PUSH1 0x40 PUSH1 0x0 KECCAK256 DUP2 DUP2 SLOAD DUP2 LT PUSH2 0x1563 JUMPI PUSH1 0x0 DUP1 REVERT JUMPDEST PUSH1 0x0 SLOAD PUSH1 0x1 PUSH1 0x1 PUSH1 0xA0 SHL SUB AND CALLER EQ PUSH2 0x15BE JUMPI PUSH1 0x40 MLOAD PUSH3 0x461BCD PUSH1 0xE5 SHL DUP2 MSTORE PUSH1 0x4 ADD PUSH2 0x933 SWAP1 PUSH2 0x30F5 JUMP JUMPDEST PUSH2 0x2710 DUP7 GT ISZERO PUSH2 0x1605 JUMPI PUSH1 0x40 MLOAD PUSH3 0x461BCD PUSH1 0xE5 SHL DUP2 MSTORE PUSH1 0x20 PUSH1 0x4 DUP3 ADD MSTORE PUSH1 0x12 PUSH1 0x24 DUP3 ADD MSTORE PUSH18 0x496E76616C69642070657263656E74616765 PUSH1 0x70 SHL PUSH1 0x44 DUP3 ADD MSTORE PUSH1 0x64 ADD PUSH2 0x933 JUMP JUMPDEST DUP4 DUP6 LT ISZERO PUSH2 0x1670 JUMPI PUSH1 0x40 MLOAD PUSH3 0x461BCD PUSH1 0xE5 SHL DUP2 MSTORE PUSH1 0x20 PUSH1 0x4 DUP3 ADD MSTORE PUSH1 0x32 PUSH1 0x24 DUP3 ADD MSTORE PUSH32 0x4D61782072617465206D7573742062652067726561746572207468616E206F72 PUSH1 0x44 DUP3 ADD MSTORE PUSH18 0x20657175616C20746F206D696E2072617465 PUSH1 0x70 SHL PUSH1 0x64 DUP3 ADD MSTORE PUSH1 0x84 ADD PUSH2 0x933 JUMP JUMPDEST PUSH1 0x0 DUP3 GT PUSH2 0x16C0 JUMPI PUSH1 0x40 MLOAD PUSH3 0x461BCD PUSH1 0xE5 SHL DUP2 MSTORE PUSH1 0x20 PUSH1 0x4 DUP3 ADD DUP2 SWAP1 MSTORE PUSH1 0x24 DUP3 ADD MSTORE PUSH32 0x537465702073697A65206D7573742062652067726561746572207468616E2030 PUSH1 0x44 DUP3 ADD MSTORE PUSH1 0x64 ADD PUSH2 0x933 JUMP JUMPDEST PUSH1 0x0 DUP9 DUP2 MSTORE PUSH1 0x4 PUSH1 0x20 MSTORE PUSH1 0x40 SWAP1 KECCAK256 DUP7 SWAP1 SSTORE PUSH2 0x16DA DUP9 PUSH2 0x2918 JUMP JUMPDEST PUSH2 0x1714 JUMPI PUSH1 0x13 DUP1 SLOAD PUSH1 0x1 DUP2 ADD DUP3 SSTORE PUSH1 0x0 SWAP2 SWAP1 SWAP2 MSTORE PUSH32 0x66DE8FFDA797E3DE9C05E8FC57B3BF0EC28A930D40B0D285D93C06501CF6A090 ADD DUP9 SWAP1 SSTORE JUMPDEST PUSH1 0x40 DUP1 MLOAD PUSH2 0x120 DUP2 ADD DUP3 MSTORE DUP10 DUP2 MSTORE PUSH1 0x20 DUP1 DUP3 ADD SWAP10 DUP11 MSTORE DUP2 DUP4 ADD SWAP9 DUP10 MSTORE PUSH1 0x60 DUP3 ADD SWAP8 DUP9 MSTORE PUSH1 0x80 DUP3 ADD SWAP7 DUP8 MSTORE PUSH1 0xA0 DUP3 ADD SWAP6 DUP7 MSTORE PUSH1 0xC0 DUP3 ADD SWAP5 DUP6 MSTORE SWAP3 ISZERO ISZERO PUSH1 0xE0 DUP3 ADD SWAP1 DUP2 MSTORE PUSH1 0x0 DUP12 DUP2 MSTORE PUSH1 0x5 DUP1 DUP7 MSTORE SWAP4 DUP2 KECCAK256 PUSH1 0x8 DUP2 ADD DUP1 SLOAD PUSH2 0x100 DUP7 ADD SWAP1 DUP2 MSTORE SWAP14 SWAP1 SWAP3 MSTORE SWAP5 DUP5 SWAP1 MSTORE SWAP2 MLOAD DUP5 SSTORE SWAP9 MLOAD PUSH1 0x1 DUP5 ADD SSTORE SWAP7 MLOAD PUSH1 0x2 DUP4 ADD SSTORE SWAP5 MLOAD PUSH1 0x3 DUP3 ADD SSTORE SWAP3 MLOAD PUSH1 0x4 DUP5 ADD SSTORE SWAP1 MLOAD SWAP3 DUP3 ADD SWAP3 SWAP1 SWAP3 SSTORE SWAP1 MLOAD PUSH1 0x6 DUP3 ADD SSTORE SWAP2 MLOAD PUSH1 0x7 SWAP1 SWAP3 ADD DUP1 SLOAD PUSH1 0xFF NOT AND SWAP3 ISZERO ISZERO SWAP3 SWAP1 SWAP3 OR SWAP1 SWAP2 SSTORE SWAP1 MLOAD SWAP1 SSTORE JUMP JUMPDEST PUSH1 0xA PUSH1 0x20 MSTORE DUP2 PUSH1 0x0 MSTORE PUSH1 0x40 PUSH1 0x0 KECCAK256 DUP2 DUP2 SLOAD DUP2 LT PUSH2 0x1563 JUMPI PUSH1 0x0 DUP1 REVERT JUMPDEST PUSH1 0x2 SLOAD PUSH1 0x40 DUP1 MLOAD PUSH4 0x6FDDE03 PUSH1 0xE0 SHL DUP2 MSTORE SWAP1 MLOAD PUSH1 0x1 PUSH1 0x1 PUSH1 0xA0 SHL SUB SWAP1 SWAP3 AND SWAP2 PUSH1 0x60 SWAP2 DUP3 SWAP2 PUSH1 0x0 SWAP2 DUP3 SWAP2 DUP7 SWAP2 PUSH4 0x6FDDE03 SWAP2 PUSH1 0x4 DUP1 DUP4 ADD SWAP3 DUP7 SWAP3 SWAP2 SWAP1 DUP3 SWAP1 SUB ADD DUP2 DUP7 GAS STATICCALL ISZERO DUP1 ISZERO PUSH2 0x1836 JUMPI RETURNDATASIZE PUSH1 0x0 DUP1 RETURNDATACOPY RETURNDATASIZE PUSH1 0x0 REVERT JUMPDEST POP POP POP POP PUSH1 0x40 MLOAD RETURNDATASIZE PUSH1 0x0 DUP3 RETURNDATACOPY PUSH1 0x1F RETURNDATASIZE SWAP1 DUP2 ADD PUSH1 0x1F NOT AND DUP3 ADD PUSH1 0x40 MSTORE PUSH2 0x185E SWAP2 SWAP1 DUP2 ADD SWAP1 PUSH2 0x3316 JUMP JUMPDEST SWAP4 POP PUSH1 0x2 PUSH1 0x0 SWAP1 SLOAD SWAP1 PUSH2 0x100 EXP SWAP1 DIV PUSH1 0x1 PUSH1 0x1 PUSH1 0xA0 SHL SUB AND PUSH1 0x1 PUSH1 0x1 PUSH1 0xA0 SHL SUB AND PUSH4 0x95D89B41 PUSH1 0x40 MLOAD DUP2 PUSH4 0xFFFFFFFF AND PUSH1 0xE0 SHL DUP2 MSTORE PUSH1 0x4 ADD PUSH1 0x0 PUSH1 0x40 MLOAD DUP1 DUP4 SUB DUP2 DUP7 GAS STATICCALL ISZERO DUP1 ISZERO PUSH2 0x18B3 JUMPI RETURNDATASIZE PUSH1 0x0 DUP1 RETURNDATACOPY RETURNDATASIZE PUSH1 0x0 REVERT JUMPDEST POP POP POP POP PUSH1 0x40 MLOAD RETURNDATASIZE PUSH1 0x0 DUP3 RETURNDATACOPY PUSH1 0x1F RETURNDATASIZE SWAP1 DUP2 ADD PUSH1 0x1F NOT AND DUP3 ADD PUSH1 0x40 MSTORE PUSH2 0x18DB SWAP2 SWAP1 DUP2 ADD SWAP1 PUSH2 0x3316 JUMP JUMPDEST SWAP3 POP PUSH1 0x2 PUSH1 0x0 SWAP1 SLOAD SWAP1 PUSH2 0x100 EXP SWAP1 DIV PUSH1 0x1 PUSH1 0x1 PUSH1 0xA0 SHL SUB AND PUSH1 0x1 PUSH1 0x1 PUSH1 0xA0 SHL SUB AND PUSH4 0x313CE567 PUSH1 0x40 MLOAD DUP2 PUSH4 0xFFFFFFFF AND PUSH1 0xE0 SHL DUP2 MSTORE PUSH1 0x4 ADD PUSH1 0x20 PUSH1 0x40 MLOAD DUP1 DUP4 SUB DUP2 DUP7 GAS STATICCALL ISZERO DUP1 ISZERO PUSH2 0x1930 JUMPI RETURNDATASIZE PUSH1 0x0 DUP1 RETURNDATACOPY RETURNDATASIZE PUSH1 0x0 REVERT JUMPDEST POP POP POP POP PUSH1 0x40 MLOAD RETURNDATASIZE PUSH1 0x1F NOT PUSH1 0x1F DUP3 ADD AND DUP3 ADD DUP1 PUSH1 0x40 MSTORE POP DUP2 ADD SWAP1 PUSH2 0x1954 SWAP2 SWAP1 PUSH2 0x33AA JUMP JUMPDEST PUSH1 0x2 SLOAD PUSH1 0x40 MLOAD PUSH4 0x70A08231 PUSH1 0xE0 SHL DUP2 MSTORE ADDRESS PUSH1 0x4 DUP3 ADD MSTORE SWAP2 SWAP4 POP PUSH1 0x1 PUSH1 0x1 PUSH1 0xA0 SHL SUB AND SWAP1 PUSH4 0x70A08231 SWAP1 PUSH1 0x24 ADD PUSH2 0x11FD JUMP JUMPDEST PUSH1 0x0 DUP1 PUSH1 0x0 PUSH2 0x199E PUSH1 0x0 SLOAD PUSH1 0xFF PUSH1 0x1 PUSH1 0xA0 SHL SWAP1 SWAP2 DIV AND SWAP1 JUMP JUMPDEST ISZERO PUSH2 0x19DE JUMPI PUSH1 0x40 MLOAD PUSH3 0x461BCD PUSH1 0xE5 SHL DUP2 MSTORE PUSH1 0x20 PUSH1 0x4 DUP3 ADD MSTORE PUSH1 0x10 PUSH1 0x24 DUP3 ADD MSTORE PUSH16 0x14185D5CD8589B194E881C185D5CD959 PUSH1 0x82 SHL PUSH1 0x44 DUP3 ADD MSTORE PUSH1 0x64 ADD PUSH2 0x933 JUMP JUMPDEST PUSH2 0x19E6 PUSH2 0x296F JUMP JUMPDEST CALLER PUSH1 0x0 SWAP1 DUP2 MSTORE PUSH1 0x10 PUSH1 0x20 MSTORE PUSH1 0x40 SWAP1 KECCAK256 SLOAD PUSH1 0xFF AND ISZERO PUSH2 0x1A39 JUMPI PUSH1 0x40 MLOAD PUSH3 0x461BCD PUSH1 0xE5 SHL DUP2 MSTORE PUSH1 0x20 PUSH1 0x4 DUP3 ADD MSTORE PUSH1 0x10 PUSH1 0x24 DUP3 ADD MSTORE PUSH16 0x4163636F756E74206973207370616D21 PUSH1 0x80 SHL PUSH1 0x44 DUP3 ADD MSTORE PUSH1 0x64 ADD PUSH2 0x933 JUMP JUMPDEST CALLER PUSH1 0x0 SWAP1 DUP2 MSTORE PUSH1 0x8 PUSH1 0x20 MSTORE PUSH1 0x40 DUP2 KECCAK256 SLOAD DUP2 SWAP1 DUP2 SWAP1 TIMESTAMP DUP3 JUMPDEST DUP10 MLOAD DUP2 LT ISZERO PUSH2 0x1EB9 JUMPI CALLER PUSH1 0x0 SWAP1 DUP2 MSTORE PUSH1 0x7 PUSH1 0x20 MSTORE PUSH1 0x40 DUP2 KECCAK256 DUP12 MLOAD DUP13 SWAP1 DUP5 SWAP1 DUP2 LT PUSH2 0x1A7C JUMPI PUSH2 0x1A7C PUSH2 0x312A JUMP JUMPDEST PUSH1 0x20 MUL PUSH1 0x20 ADD ADD MLOAD DUP2 SLOAD DUP2 LT PUSH2 0x1A94 JUMPI PUSH2 0x1A94 PUSH2 0x312A JUMP JUMPDEST SWAP1 PUSH1 0x0 MSTORE PUSH1 0x20 PUSH1 0x0 KECCAK256 ADD SLOAD GT ISZERO PUSH2 0x1EA7 JUMPI PUSH1 0x12 SLOAD CALLER PUSH1 0x0 SWAP1 DUP2 MSTORE PUSH1 0x9 PUSH1 0x20 MSTORE PUSH1 0x40 DUP2 KECCAK256 DUP13 MLOAD SWAP2 SWAP3 SWAP2 DUP14 SWAP1 DUP6 SWAP1 DUP2 LT PUSH2 0x1ACE JUMPI PUSH2 0x1ACE PUSH2 0x312A JUMP JUMPDEST PUSH1 0x20 MUL PUSH1 0x20 ADD ADD MLOAD DUP2 SLOAD DUP2 LT PUSH2 0x1AE6 JUMPI PUSH2 0x1AE6 PUSH2 0x312A JUMP JUMPDEST SWAP1 PUSH1 0x0 MSTORE PUSH1 0x20 PUSH1 0x0 KECCAK256 ADD SLOAD PUSH2 0x1AFB SWAP2 SWAP1 PUSH2 0x3156 JUMP JUMPDEST CALLER PUSH1 0x0 SWAP1 DUP2 MSTORE PUSH1 0xA PUSH1 0x20 MSTORE PUSH1 0x40 SWAP1 KECCAK256 DUP13 MLOAD DUP14 SWAP1 DUP6 SWAP1 DUP2 LT PUSH2 0x1B1E JUMPI PUSH2 0x1B1E PUSH2 0x312A JUMP JUMPDEST PUSH1 0x20 MUL PUSH1 0x20 ADD ADD MLOAD DUP2 SLOAD DUP2 LT PUSH2 0x1B36 JUMPI PUSH2 0x1B36 PUSH2 0x312A JUMP JUMPDEST SWAP1 PUSH1 0x0 MSTORE PUSH1 0x20 PUSH1 0x0 KECCAK256 ADD SLOAD PUSH2 0x1B4B SWAP2 SWAP1 PUSH2 0x3175 JUMP JUMPDEST SWAP1 POP DUP1 DUP4 GT ISZERO PUSH2 0x1CC3 JUMPI PUSH1 0x0 PUSH2 0x2710 PUSH1 0x4 PUSH1 0x0 PUSH1 0x9 PUSH1 0x0 CALLER PUSH1 0x1 PUSH1 0x1 PUSH1 0xA0 SHL SUB AND PUSH1 0x1 PUSH1 0x1 PUSH1 0xA0 SHL SUB AND DUP2 MSTORE PUSH1 0x20 ADD SWAP1 DUP2 MSTORE PUSH1 0x20 ADD PUSH1 0x0 KECCAK256 DUP16 DUP8 DUP2 MLOAD DUP2 LT PUSH2 0x1B95 JUMPI PUSH2 0x1B95 PUSH2 0x312A JUMP JUMPDEST PUSH1 0x20 MUL PUSH1 0x20 ADD ADD MLOAD DUP2 SLOAD DUP2 LT PUSH2 0x1BAD JUMPI PUSH2 0x1BAD PUSH2 0x312A JUMP JUMPDEST SWAP1 PUSH1 0x0 MSTORE PUSH1 0x20 PUSH1 0x0 KECCAK256 ADD SLOAD DUP2 MSTORE PUSH1 0x20 ADD SWAP1 DUP2 MSTORE PUSH1 0x20 ADD PUSH1 0x0 KECCAK256 SLOAD PUSH1 0x7 PUSH1 0x0 CALLER PUSH1 0x1 PUSH1 0x1 PUSH1 0xA0 SHL SUB AND PUSH1 0x1 PUSH1 0x1 PUSH1 0xA0 SHL SUB AND DUP2 MSTORE PUSH1 0x20 ADD SWAP1 DUP2 MSTORE PUSH1 0x20 ADD PUSH1 0x0 KECCAK256 DUP15 DUP7 DUP2 MLOAD DUP2 LT PUSH2 0x1BFE JUMPI PUSH2 0x1BFE PUSH2 0x312A JUMP JUMPDEST PUSH1 0x20 MUL PUSH1 0x20 ADD ADD MLOAD DUP2 SLOAD DUP2 LT PUSH2 0x1C16 JUMPI PUSH2 0x1C16 PUSH2 0x312A JUMP JUMPDEST SWAP1 PUSH1 0x0 MSTORE PUSH1 0x20 PUSH1 0x0 KECCAK256 ADD SLOAD PUSH2 0x1C2B SWAP2 SWAP1 PUSH2 0x3156 JUMP JUMPDEST PUSH2 0x1C35 SWAP2 SWAP1 PUSH2 0x318D JUMP JUMPDEST PUSH1 0x3 SLOAD SWAP1 SWAP2 POP PUSH2 0x1C50 SWAP1 PUSH1 0x1 PUSH1 0xA8 SHL SWAP1 DIV PUSH1 0xFF AND PUSH1 0xA PUSH2 0x3293 JUMP JUMPDEST PUSH2 0x1C5A SWAP1 DUP3 PUSH2 0x318D JUMP JUMPDEST SWAP1 POP PUSH2 0x1C66 DUP2 DUP9 PUSH2 0x3175 JUMP JUMPDEST CALLER PUSH1 0x0 SWAP1 DUP2 MSTORE PUSH1 0x7 PUSH1 0x20 MSTORE PUSH1 0x40 SWAP1 KECCAK256 DUP14 MLOAD SWAP2 SWAP9 POP SWAP1 DUP14 SWAP1 DUP6 SWAP1 DUP2 LT PUSH2 0x1C8D JUMPI PUSH2 0x1C8D PUSH2 0x312A JUMP JUMPDEST PUSH1 0x20 MUL PUSH1 0x20 ADD ADD MLOAD DUP2 SLOAD DUP2 LT PUSH2 0x1CA5 JUMPI PUSH2 0x1CA5 PUSH2 0x312A JUMP JUMPDEST SWAP1 PUSH1 0x0 MSTORE PUSH1 0x20 PUSH1 0x0 KECCAK256 ADD SLOAD DUP9 PUSH2 0x1CBB SWAP2 SWAP1 PUSH2 0x3175 JUMP JUMPDEST SWAP8 POP POP PUSH2 0x1DC9 JUMP JUMPDEST PUSH1 0x11 SLOAD PUSH1 0x0 SWAP1 ISZERO PUSH2 0x1D59 JUMPI PUSH1 0x11 SLOAD CALLER PUSH1 0x0 SWAP1 DUP2 MSTORE PUSH1 0x7 PUSH1 0x20 MSTORE PUSH1 0x40 SWAP1 KECCAK256 DUP14 MLOAD PUSH2 0x2710 SWAP3 SWAP2 SWAP1 DUP16 SWAP1 DUP8 SWAP1 DUP2 LT PUSH2 0x1CFA JUMPI PUSH2 0x1CFA PUSH2 0x312A JUMP JUMPDEST PUSH1 0x20 MUL PUSH1 0x20 ADD ADD MLOAD DUP2 SLOAD DUP2 LT PUSH2 0x1D12 JUMPI PUSH2 0x1D12 PUSH2 0x312A JUMP JUMPDEST SWAP1 PUSH1 0x0 MSTORE PUSH1 0x20 PUSH1 0x0 KECCAK256 ADD SLOAD PUSH2 0x1D27 SWAP2 SWAP1 PUSH2 0x3156 JUMP JUMPDEST PUSH2 0x1D31 SWAP2 SWAP1 PUSH2 0x318D JUMP JUMPDEST PUSH1 0x3 SLOAD SWAP1 SWAP2 POP PUSH2 0x1D4C SWAP1 PUSH1 0x1 PUSH1 0xA8 SHL SWAP1 DIV PUSH1 0xFF AND PUSH1 0xA PUSH2 0x3293 JUMP JUMPDEST PUSH2 0x1D56 SWAP1 DUP3 PUSH2 0x318D JUMP JUMPDEST SWAP1 POP JUMPDEST CALLER PUSH1 0x0 SWAP1 DUP2 MSTORE PUSH1 0x7 PUSH1 0x20 MSTORE PUSH1 0x40 DUP2 KECCAK256 DUP14 MLOAD DUP4 SWAP2 SWAP1 DUP16 SWAP1 DUP8 SWAP1 DUP2 LT PUSH2 0x1D7F JUMPI PUSH2 0x1D7F PUSH2 0x312A JUMP JUMPDEST PUSH1 0x20 MUL PUSH1 0x20 ADD ADD MLOAD DUP2 SLOAD DUP2 LT PUSH2 0x1D97 JUMPI PUSH2 0x1D97 PUSH2 0x312A JUMP JUMPDEST SWAP1 PUSH1 0x0 MSTORE PUSH1 0x20 PUSH1 0x0 KECCAK256 ADD SLOAD PUSH2 0x1DAC SWAP2 SWAP1 PUSH2 0x32E9 JUMP JUMPDEST SWAP1 POP PUSH2 0x1DB8 DUP2 DUP11 PUSH2 0x3175 JUMP JUMPDEST SWAP9 POP PUSH2 0x1DC4 DUP3 DUP9 PUSH2 0x3175 JUMP JUMPDEST SWAP7 POP POP POP JUMPDEST CALLER PUSH1 0x0 SWAP1 DUP2 MSTORE PUSH1 0x7 PUSH1 0x20 MSTORE PUSH1 0x40 SWAP1 KECCAK256 DUP12 MLOAD DUP13 SWAP1 DUP5 SWAP1 DUP2 LT PUSH2 0x1DEC JUMPI PUSH2 0x1DEC PUSH2 0x312A JUMP JUMPDEST PUSH1 0x20 MUL PUSH1 0x20 ADD ADD MLOAD DUP2 SLOAD DUP2 LT PUSH2 0x1E04 JUMPI PUSH2 0x1E04 PUSH2 0x312A JUMP JUMPDEST SWAP1 PUSH1 0x0 MSTORE PUSH1 0x20 PUSH1 0x0 KECCAK256 ADD SLOAD PUSH1 0x5 PUSH1 0x0 DUP14 DUP6 DUP2 MLOAD DUP2 LT PUSH2 0x1E25 JUMPI PUSH2 0x1E25 PUSH2 0x312A JUMP JUMPDEST PUSH1 0x20 MUL PUSH1 0x20 ADD ADD MLOAD DUP2 MSTORE PUSH1 0x20 ADD SWAP1 DUP2 MSTORE PUSH1 0x20 ADD PUSH1 0x0 KECCAK256 PUSH1 0x8 ADD PUSH1 0x0 DUP3 DUP3 SLOAD PUSH2 0x1E4D SWAP2 SWAP1 PUSH2 0x32E9 JUMP JUMPDEST SWAP1 SWAP2 SSTORE POP POP CALLER PUSH1 0x0 SWAP1 DUP2 MSTORE PUSH1 0x7 PUSH1 0x20 MSTORE PUSH1 0x40 SWAP1 KECCAK256 DUP12 MLOAD DUP13 SWAP1 DUP5 SWAP1 DUP2 LT PUSH2 0x1E75 JUMPI PUSH2 0x1E75 PUSH2 0x312A JUMP JUMPDEST PUSH1 0x20 MUL PUSH1 0x20 ADD ADD MLOAD DUP2 SLOAD DUP2 LT PUSH2 0x1E8D JUMPI PUSH2 0x1E8D PUSH2 0x312A JUMP JUMPDEST SWAP1 PUSH1 0x0 MSTORE PUSH1 0x20 PUSH1 0x0 KECCAK256 ADD SLOAD DUP5 PUSH2 0x1EA3 SWAP2 SWAP1 PUSH2 0x32E9 JUMP JUMPDEST SWAP4 POP POP JUMPDEST DUP1 PUSH2 0x1EB1 DUP2 PUSH2 0x329F JUMP JUMPDEST SWAP2 POP POP PUSH2 0x1A50 JUMP JUMPDEST POP PUSH1 0x0 JUMPDEST DUP10 MLOAD DUP2 LT ISZERO PUSH2 0x20F9 JUMPI PUSH1 0x0 DUP11 DUP3 DUP2 MLOAD DUP2 LT PUSH2 0x1EDA JUMPI PUSH2 0x1EDA PUSH2 0x312A JUMP JUMPDEST PUSH1 0x20 MUL PUSH1 0x20 ADD ADD MLOAD SWAP1 POP JUMPDEST CALLER PUSH1 0x0 SWAP1 DUP2 MSTORE PUSH1 0x7 PUSH1 0x20 MSTORE PUSH1 0x40 SWAP1 KECCAK256 SLOAD PUSH2 0x1F01 SWAP1 PUSH1 0x1 SWAP1 PUSH2 0x32E9 JUMP JUMPDEST DUP2 LT ISZERO PUSH2 0x2047 JUMPI CALLER PUSH1 0x0 SWAP1 DUP2 MSTORE PUSH1 0x7 PUSH1 0x20 MSTORE PUSH1 0x40 SWAP1 KECCAK256 PUSH2 0x1F22 DUP3 PUSH1 0x1 PUSH2 0x3175 JUMP JUMPDEST DUP2 SLOAD DUP2 LT PUSH2 0x1F32 JUMPI PUSH2 0x1F32 PUSH2 0x312A JUMP JUMPDEST PUSH1 0x0 SWAP2 DUP3 MSTORE PUSH1 0x20 DUP1 DUP4 KECCAK256 SWAP1 SWAP2 ADD SLOAD CALLER DUP4 MSTORE PUSH1 0x7 SWAP1 SWAP2 MSTORE PUSH1 0x40 SWAP1 SWAP2 KECCAK256 DUP1 SLOAD DUP4 SWAP1 DUP2 LT PUSH2 0x1F5F JUMPI PUSH2 0x1F5F PUSH2 0x312A JUMP JUMPDEST PUSH1 0x0 SWAP2 DUP3 MSTORE PUSH1 0x20 DUP1 DUP4 KECCAK256 SWAP1 SWAP2 ADD SWAP3 SWAP1 SWAP3 SSTORE CALLER DUP2 MSTORE PUSH1 0x9 SWAP1 SWAP2 MSTORE PUSH1 0x40 SWAP1 KECCAK256 PUSH2 0x1F87 DUP3 PUSH1 0x1 PUSH2 0x3175 JUMP JUMPDEST DUP2 SLOAD DUP2 LT PUSH2 0x1F97 JUMPI PUSH2 0x1F97 PUSH2 0x312A JUMP JUMPDEST PUSH1 0x0 SWAP2 DUP3 MSTORE PUSH1 0x20 DUP1 DUP4 KECCAK256 SWAP1 SWAP2 ADD SLOAD CALLER DUP4 MSTORE PUSH1 0x9 SWAP1 SWAP2 MSTORE PUSH1 0x40 SWAP1 SWAP2 KECCAK256 DUP1 SLOAD DUP4 SWAP1 DUP2 LT PUSH2 0x1FC4 JUMPI PUSH2 0x1FC4 PUSH2 0x312A JUMP JUMPDEST PUSH1 0x0 SWAP2 DUP3 MSTORE PUSH1 0x20 DUP1 DUP4 KECCAK256 SWAP1 SWAP2 ADD SWAP3 SWAP1 SWAP3 SSTORE CALLER DUP2 MSTORE PUSH1 0xA SWAP1 SWAP2 MSTORE PUSH1 0x40 SWAP1 KECCAK256 PUSH2 0x1FEC DUP3 PUSH1 0x1 PUSH2 0x3175 JUMP JUMPDEST DUP2 SLOAD DUP2 LT PUSH2 0x1FFC JUMPI PUSH2 0x1FFC PUSH2 0x312A JUMP JUMPDEST PUSH1 0x0 SWAP2 DUP3 MSTORE PUSH1 0x20 DUP1 DUP4 KECCAK256 SWAP1 SWAP2 ADD SLOAD CALLER DUP4 MSTORE PUSH1 0xA SWAP1 SWAP2 MSTORE PUSH1 0x40 SWAP1 SWAP2 KECCAK256 DUP1 SLOAD DUP4 SWAP1 DUP2 LT PUSH2 0x2029 JUMPI PUSH2 0x2029 PUSH2 0x312A JUMP JUMPDEST PUSH1 0x0 SWAP2 DUP3 MSTORE PUSH1 0x20 SWAP1 SWAP2 KECCAK256 ADD SSTORE DUP1 PUSH2 0x203F DUP2 PUSH2 0x329F JUMP JUMPDEST SWAP2 POP POP PUSH2 0x1EE5 JUMP JUMPDEST POP CALLER PUSH1 0x0 SWAP1 DUP2 MSTORE PUSH1 0x7 PUSH1 0x20 MSTORE PUSH1 0x40 SWAP1 KECCAK256 DUP1 SLOAD DUP1 PUSH2 0x2066 JUMPI PUSH2 0x2066 PUSH2 0x3300 JUMP JUMPDEST PUSH1 0x0 DUP3 DUP2 MSTORE PUSH1 0x20 DUP1 DUP3 KECCAK256 DUP4 ADD PUSH1 0x0 NOT SWAP1 DUP2 ADD DUP4 SWAP1 SSTORE SWAP1 SWAP3 ADD SWAP1 SWAP3 SSTORE CALLER DUP3 MSTORE PUSH1 0x9 SWAP1 MSTORE PUSH1 0x40 SWAP1 KECCAK256 DUP1 SLOAD DUP1 PUSH2 0x209B JUMPI PUSH2 0x209B PUSH2 0x3300 JUMP JUMPDEST PUSH1 0x0 DUP3 DUP2 MSTORE PUSH1 0x20 DUP1 DUP3 KECCAK256 DUP4 ADD PUSH1 0x0 NOT SWAP1 DUP2 ADD DUP4 SWAP1 SSTORE SWAP1 SWAP3 ADD SWAP1 SWAP3 SSTORE CALLER DUP3 MSTORE PUSH1 0xA SWAP1 MSTORE PUSH1 0x40 SWAP1 KECCAK256 DUP1 SLOAD DUP1 PUSH2 0x20D0 JUMPI PUSH2 0x20D0 PUSH2 0x3300 JUMP JUMPDEST PUSH1 0x1 SWAP1 SUB DUP2 DUP2 SWAP1 PUSH1 0x0 MSTORE PUSH1 0x20 PUSH1 0x0 KECCAK256 ADD PUSH1 0x0 SWAP1 SSTORE SWAP1 SSTORE DUP1 DUP1 PUSH2 0x20F1 SWAP1 PUSH2 0x329F JUMP JUMPDEST SWAP2 POP POP PUSH2 0x1EBD JUMP JUMPDEST POP DUP5 ISZERO PUSH2 0x21AA JUMPI PUSH1 0x2 SLOAD PUSH1 0x3 SLOAD PUSH1 0x1 PUSH1 0x1 PUSH1 0xA0 SHL SUB SWAP1 SWAP2 AND SWAP1 PUSH4 0xA9059CBB SWAP1 CALLER SWAP1 PUSH2 0x212F SWAP1 PUSH1 0x1 PUSH1 0xA8 SHL SWAP1 DIV PUSH1 0xFF AND PUSH1 0xA PUSH2 0x3293 JUMP JUMPDEST PUSH2 0x2139 SWAP1 DUP10 PUSH2 0x318D JUMP JUMPDEST PUSH1 0x40 MLOAD PUSH1 0x1 PUSH1 0x1 PUSH1 0xE0 SHL SUB NOT PUSH1 0xE0 DUP6 SWAP1 SHL AND DUP2 MSTORE PUSH1 0x1 PUSH1 0x1 PUSH1 0xA0 SHL SUB SWAP1 SWAP3 AND PUSH1 0x4 DUP4 ADD MSTORE PUSH1 0x24 DUP3 ADD MSTORE PUSH1 0x44 ADD PUSH1 0x20 PUSH1 0x40 MLOAD DUP1 DUP4 SUB DUP2 PUSH1 0x0 DUP8 GAS CALL ISZERO DUP1 ISZERO PUSH2 0x2184 JUMPI RETURNDATASIZE PUSH1 0x0 DUP1 RETURNDATACOPY RETURNDATASIZE PUSH1 0x0 REVERT JUMPDEST POP POP POP POP PUSH1 0x40 MLOAD RETURNDATASIZE PUSH1 0x1F NOT PUSH1 0x1F DUP3 ADD AND DUP3 ADD DUP1 PUSH1 0x40 MSTORE POP DUP2 ADD SWAP1 PUSH2 0x21A8 SWAP2 SWAP1 PUSH2 0x33E6 JUMP JUMPDEST POP JUMPDEST DUP4 ISZERO PUSH2 0x2256 JUMPI PUSH1 0x3 SLOAD PUSH1 0x1 PUSH1 0x1 PUSH1 0xA0 SHL SUB DUP2 AND SWAP1 PUSH4 0xA9059CBB SWAP1 CALLER SWAP1 PUSH2 0x21DB SWAP1 PUSH1 0x1 PUSH1 0xB0 SHL SWAP1 DIV PUSH1 0xFF AND PUSH1 0xA PUSH2 0x3293 JUMP JUMPDEST PUSH2 0x21E5 SWAP1 DUP9 PUSH2 0x318D JUMP JUMPDEST PUSH1 0x40 MLOAD PUSH1 0x1 PUSH1 0x1 PUSH1 0xE0 SHL SUB NOT PUSH1 0xE0 DUP6 SWAP1 SHL AND DUP2 MSTORE PUSH1 0x1 PUSH1 0x1 PUSH1 0xA0 SHL SUB SWAP1 SWAP3 AND PUSH1 0x4 DUP4 ADD MSTORE PUSH1 0x24 DUP3 ADD MSTORE PUSH1 0x44 ADD PUSH1 0x20 PUSH1 0x40 MLOAD DUP1 DUP4 SUB DUP2 PUSH1 0x0 DUP8 GAS CALL ISZERO DUP1 ISZERO PUSH2 0x2230 JUMPI RETURNDATASIZE PUSH1 0x0 DUP1 RETURNDATACOPY RETURNDATASIZE PUSH1 0x0 REVERT JUMPDEST POP POP POP POP PUSH1 0x40 MLOAD RETURNDATASIZE PUSH1 0x1F NOT PUSH1 0x1F DUP3 ADD AND DUP3 ADD DUP1 PUSH1 0x40 MSTORE POP DUP2 ADD SWAP1 PUSH2 0x2254 SWAP2 SWAP1 PUSH2 0x33E6 JUMP JUMPDEST POP JUMPDEST DUP3 ISZERO PUSH2 0x2309 JUMPI PUSH1 0x2 SLOAD PUSH1 0x6 SLOAD PUSH1 0x3 SLOAD PUSH1 0x1 PUSH1 0x1 PUSH1 0xA0 SHL SUB SWAP3 DUP4 AND SWAP3 PUSH4 0xA9059CBB SWAP3 AND SWAP1 PUSH2 0x228E SWAP1 PUSH1 0x1 PUSH1 0xA8 SHL SWAP1 DIV PUSH1 0xFF AND PUSH1 0xA PUSH2 0x3293 JUMP JUMPDEST PUSH2 0x2298 SWAP1 DUP8 PUSH2 0x318D JUMP JUMPDEST PUSH1 0x40 MLOAD PUSH1 0x1 PUSH1 0x1 PUSH1 0xE0 SHL SUB NOT PUSH1 0xE0 DUP6 SWAP1 SHL AND DUP2 MSTORE PUSH1 0x1 PUSH1 0x1 PUSH1 0xA0 SHL SUB SWAP1 SWAP3 AND PUSH1 0x4 DUP4 ADD MSTORE PUSH1 0x24 DUP3 ADD MSTORE PUSH1 0x44 ADD PUSH1 0x20 PUSH1 0x40 MLOAD DUP1 DUP4 SUB DUP2 PUSH1 0x0 DUP8 GAS CALL ISZERO DUP1 ISZERO PUSH2 0x22E3 JUMPI RETURNDATASIZE PUSH1 0x0 DUP1 RETURNDATACOPY RETURNDATASIZE PUSH1 0x0 REVERT JUMPDEST POP POP POP POP PUSH1 0x40 MLOAD RETURNDATASIZE PUSH1 0x1F NOT PUSH1 0x1F DUP3 ADD AND DUP3 ADD DUP1 PUSH1 0x40 MSTORE POP DUP2 ADD SWAP1 PUSH2 0x2307 SWAP2 SWAP1 PUSH2 0x33E6 JUMP JUMPDEST POP JUMPDEST CALLER PUSH1 0x0 SWAP1 DUP2 MSTORE PUSH1 0x8 PUSH1 0x20 SWAP1 DUP2 MSTORE PUSH1 0x40 DUP1 DUP4 KECCAK256 DUP6 SWAP1 SSTORE PUSH1 0xB SWAP1 SWAP2 MSTORE DUP2 KECCAK256 DUP1 SLOAD DUP7 SWAP3 SWAP1 PUSH2 0x2335 SWAP1 DUP5 SWAP1 PUSH2 0x3175 JUMP JUMPDEST SWAP1 SWAP2 SSTORE POP POP CALLER PUSH1 0x0 SWAP1 DUP2 MSTORE PUSH1 0xC PUSH1 0x20 MSTORE PUSH1 0x40 SWAP1 KECCAK256 TIMESTAMP SWAP1 SSTORE POP POP PUSH1 0x1 DUP1 SSTORE SWAP2 SWAP7 SWAP1 SWAP6 POP SWAP1 SWAP4 POP SWAP2 POP POP JUMP JUMPDEST PUSH1 0x0 SLOAD PUSH1 0x1 PUSH1 0x1 PUSH1 0xA0 SHL SUB AND CALLER EQ PUSH2 0x2389 JUMPI PUSH1 0x40 MLOAD PUSH3 0x461BCD PUSH1 0xE5 SHL DUP2 MSTORE PUSH1 0x4 ADD PUSH2 0x933 SWAP1 PUSH2 0x30F5 JUMP JUMPDEST PUSH1 0x6 DUP1 SLOAD PUSH1 0x1 PUSH1 0x1 PUSH1 0xA0 SHL SUB NOT AND PUSH1 0x1 PUSH1 0x1 PUSH1 0xA0 SHL SUB SWAP3 SWAP1 SWAP3 AND SWAP2 SWAP1 SWAP2 OR SWAP1 SSTORE JUMP JUMPDEST PUSH1 0x13 SLOAD PUSH1 0x60 SWAP1 ISZERO PUSH2 0x24F3 JUMPI PUSH1 0x13 SLOAD PUSH8 0xFFFFFFFFFFFFFFFF DUP2 GT ISZERO PUSH2 0x23D1 JUMPI PUSH2 0x23D1 PUSH2 0x2FC5 JUMP JUMPDEST PUSH1 0x40 MLOAD SWAP1 DUP1 DUP3 MSTORE DUP1 PUSH1 0x20 MUL PUSH1 0x20 ADD DUP3 ADD PUSH1 0x40 MSTORE DUP1 ISZERO PUSH2 0x240A JUMPI DUP2 PUSH1 0x20 ADD JUMPDEST PUSH2 0x23F7 PUSH2 0x2B96 JUMP JUMPDEST DUP2 MSTORE PUSH1 0x20 ADD SWAP1 PUSH1 0x1 SWAP1 SUB SWAP1 DUP2 PUSH2 0x23EF JUMPI SWAP1 POP JUMPDEST POP SWAP1 POP PUSH1 0x0 JUMPDEST PUSH1 0x13 SLOAD DUP2 LT ISZERO PUSH2 0x24F1 JUMPI PUSH1 0x5 PUSH1 0x0 PUSH1 0x13 DUP4 DUP2 SLOAD DUP2 LT PUSH2 0x2431 JUMPI PUSH2 0x2431 PUSH2 0x312A JUMP JUMPDEST SWAP1 PUSH1 0x0 MSTORE PUSH1 0x20 PUSH1 0x0 KECCAK256 ADD SLOAD DUP2 MSTORE PUSH1 0x20 ADD SWAP1 DUP2 MSTORE PUSH1 0x20 ADD PUSH1 0x0 KECCAK256 PUSH1 0x40 MLOAD DUP1 PUSH2 0x120 ADD PUSH1 0x40 MSTORE SWAP1 DUP2 PUSH1 0x0 DUP3 ADD SLOAD DUP2 MSTORE PUSH1 0x20 ADD PUSH1 0x1 DUP3 ADD SLOAD DUP2 MSTORE PUSH1 0x20 ADD PUSH1 0x2 DUP3 ADD SLOAD DUP2 MSTORE PUSH1 0x20 ADD PUSH1 0x3 DUP3 ADD SLOAD DUP2 MSTORE PUSH1 0x20 ADD PUSH1 0x4 DUP3 ADD SLOAD DUP2 MSTORE PUSH1 0x20 ADD PUSH1 0x5 DUP3 ADD SLOAD DUP2 MSTORE PUSH1 0x20 ADD PUSH1 0x6 DUP3 ADD SLOAD DUP2 MSTORE PUSH1 0x20 ADD PUSH1 0x7 DUP3 ADD PUSH1 0x0 SWAP1 SLOAD SWAP1 PUSH2 0x100 EXP SWAP1 DIV PUSH1 0xFF AND ISZERO ISZERO ISZERO ISZERO DUP2 MSTORE PUSH1 0x20 ADD PUSH1 0x8 DUP3 ADD SLOAD DUP2 MSTORE POP POP DUP3 DUP3 DUP2 MLOAD DUP2 LT PUSH2 0x24D3 JUMPI PUSH2 0x24D3 PUSH2 0x312A JUMP JUMPDEST PUSH1 0x20 MUL PUSH1 0x20 ADD ADD DUP2 SWAP1 MSTORE POP DUP1 DUP1 PUSH2 0x24E9 SWAP1 PUSH2 0x329F JUMP JUMPDEST SWAP2 POP POP PUSH2 0x2410 JUMP JUMPDEST POP JUMPDEST SWAP1 JUMP JUMPDEST PUSH1 0x0 SLOAD PUSH1 0x1 PUSH1 0xA0 SHL SWAP1 DIV PUSH1 0xFF AND ISZERO PUSH2 0x2543 JUMPI PUSH1 0x40 MLOAD PUSH3 0x461BCD PUSH1 0xE5 SHL DUP2 MSTORE PUSH1 0x20 PUSH1 0x4 DUP3 ADD MSTORE PUSH1 0x10 PUSH1 0x24 DUP3 ADD MSTORE PUSH16 0x14185D5CD8589B194E881C185D5CD959 PUSH1 0x82 SHL PUSH1 0x44 DUP3 ADD MSTORE PUSH1 0x64 ADD PUSH2 0x933 JUMP JUMPDEST PUSH2 0x254B PUSH2 0x296F JUMP JUMPDEST CALLER PUSH1 0x0 SWAP1 DUP2 MSTORE PUSH1 0x10 PUSH1 0x20 MSTORE PUSH1 0x40 SWAP1 KECCAK256 SLOAD PUSH1 0xFF AND ISZERO PUSH2 0x259E JUMPI PUSH1 0x40 MLOAD PUSH3 0x461BCD PUSH1 0xE5 SHL DUP2 MSTORE PUSH1 0x20 PUSH1 0x4 DUP3 ADD MSTORE PUSH1 0x10 PUSH1 0x24 DUP3 ADD MSTORE PUSH16 0x4163636F756E74206973207370616D21 PUSH1 0x80 SHL PUSH1 0x44 DUP3 ADD MSTORE PUSH1 0x64 ADD PUSH2 0x933 JUMP JUMPDEST PUSH2 0x25A7 DUP2 PUSH2 0x2918 JUMP JUMPDEST PUSH2 0x25E9 JUMPI PUSH1 0x40 MLOAD PUSH3 0x461BCD PUSH1 0xE5 SHL DUP2 MSTORE PUSH1 0x20 PUSH1 0x4 DUP3 ADD MSTORE PUSH1 0x13 PUSH1 0x24 DUP3 ADD MSTORE PUSH19 0x125B9D985B1A59081B1BD8DAC81C195C9A5BD9 PUSH1 0x6A SHL PUSH1 0x44 DUP3 ADD MSTORE PUSH1 0x64 ADD PUSH2 0x933 JUMP JUMPDEST PUSH1 0x0 DUP2 DUP2 MSTORE PUSH1 0x5 PUSH1 0x20 MSTORE PUSH1 0x40 SWAP1 KECCAK256 PUSH1 0x1 ADD SLOAD DUP3 LT ISZERO PUSH2 0x263B JUMPI PUSH1 0x40 MLOAD PUSH3 0x461BCD PUSH1 0xE5 SHL DUP2 MSTORE PUSH1 0x20 PUSH1 0x4 DUP3 ADD MSTORE PUSH1 0xE PUSH1 0x24 DUP3 ADD MSTORE PUSH14 0x125B9D985B1A5908185B5BDD5B9D PUSH1 0x92 SHL PUSH1 0x44 DUP3 ADD MSTORE PUSH1 0x64 ADD PUSH2 0x933 JUMP JUMPDEST PUSH1 0x2 SLOAD PUSH1 0x40 MLOAD PUSH4 0x23B872DD PUSH1 0xE0 SHL DUP2 MSTORE CALLER PUSH1 0x4 DUP3 ADD MSTORE ADDRESS PUSH1 0x24 DUP3 ADD MSTORE PUSH1 0x44 DUP2 ADD DUP5 SWAP1 MSTORE TIMESTAMP SWAP2 PUSH1 0x1 PUSH1 0x1 PUSH1 0xA0 SHL SUB AND SWAP1 PUSH4 0x23B872DD SWAP1 PUSH1 0x64 ADD PUSH1 0x20 PUSH1 0x40 MLOAD DUP1 DUP4 SUB DUP2 PUSH1 0x0 DUP8 GAS CALL ISZERO DUP1 ISZERO PUSH2 0x2692 JUMPI RETURNDATASIZE PUSH1 0x0 DUP1 RETURNDATACOPY RETURNDATASIZE PUSH1 0x0 REVERT JUMPDEST POP POP POP POP PUSH1 0x40 MLOAD RETURNDATASIZE PUSH1 0x1F NOT PUSH1 0x1F DUP3 ADD AND DUP3 ADD DUP1 PUSH1 0x40 MSTORE POP DUP2 ADD SWAP1 PUSH2 0x26B6 SWAP2 SWAP1 PUSH2 0x33E6 JUMP JUMPDEST POP CALLER PUSH1 0x0 DUP2 DUP2 MSTORE PUSH1 0x7 PUSH1 0x20 SWAP1 DUP2 MSTORE PUSH1 0x40 DUP1 DUP4 KECCAK256 DUP1 SLOAD PUSH1 0x1 DUP2 DUP2 ADD DUP4 SSTORE SWAP2 DUP6 MSTORE DUP4 DUP6 KECCAK256 ADD DUP9 SWAP1 SSTORE DUP5 DUP5 MSTORE PUSH1 0xA DUP4 MSTORE DUP2 DUP5 KECCAK256 DUP1 SLOAD SWAP2 DUP3 ADD DUP2 SSTORE DUP5 MSTORE DUP3 DUP5 KECCAK256 PUSH5 0xFFFFFFFFFF DUP8 AND SWAP2 ADD SSTORE SWAP3 DUP3 MSTORE PUSH1 0x8 SWAP1 MSTORE SWAP1 DUP2 KECCAK256 DUP1 SLOAD DUP6 SWAP3 SWAP1 PUSH2 0x2717 SWAP1 DUP5 SWAP1 PUSH2 0x3175 JUMP JUMPDEST SWAP1 SWAP2 SSTORE POP POP CALLER PUSH1 0x0 DUP2 DUP2 MSTORE PUSH1 0x9 PUSH1 0x20 SWAP1 DUP2 MSTORE PUSH1 0x40 DUP1 DUP4 KECCAK256 DUP1 SLOAD PUSH1 0x1 DUP2 ADD DUP3 SSTORE SWAP1 DUP5 MSTORE DUP3 DUP5 KECCAK256 ADD DUP7 SWAP1 SSTORE SWAP3 DUP3 MSTORE PUSH1 0xC DUP2 MSTORE DUP3 DUP3 KECCAK256 TIMESTAMP SWAP1 SSTORE DUP5 DUP3 MSTORE PUSH1 0x5 SWAP1 MSTORE SWAP1 DUP2 KECCAK256 PUSH1 0x8 ADD DUP1 SLOAD DUP6 SWAP3 SWAP1 PUSH2 0x276A SWAP1 DUP5 SWAP1 PUSH2 0x3175 JUMP JUMPDEST SWAP1 SWAP2 SSTORE POP POP CALLER PUSH1 0x0 SWAP1 DUP2 MSTORE PUSH1 0xD PUSH1 0x20 MSTORE PUSH1 0x40 SWAP1 KECCAK256 SLOAD PUSH1 0xFF AND PUSH2 0x27D7 JUMPI PUSH1 0xF DUP1 SLOAD SWAP1 PUSH1 0x0 PUSH2 0x2796 DUP4 PUSH2 0x329F JUMP JUMPDEST SWAP1 SWAP2 SSTORE POP POP PUSH1 0xF SLOAD PUSH1 0x0 SWAP1 DUP2 MSTORE PUSH1 0xE PUSH1 0x20 SWAP1 DUP2 MSTORE PUSH1 0x40 DUP1 DUP4 KECCAK256 DUP1 SLOAD PUSH1 0x1 PUSH1 0x1 PUSH1 0xA0 SHL SUB NOT AND CALLER SWAP1 DUP2 OR SWAP1 SWAP2 SSTORE DUP4 MSTORE PUSH1 0xD SWAP1 SWAP2 MSTORE SWAP1 KECCAK256 DUP1 SLOAD PUSH1 0xFF NOT AND PUSH1 0x1 OR SWAP1 SSTORE JUMPDEST PUSH2 0x27DF PUSH2 0x29C9 JUMP JUMPDEST PUSH1 0x40 DUP1 MLOAD DUP5 DUP2 MSTORE PUSH1 0x20 DUP2 ADD DUP5 SWAP1 MSTORE SWAP1 DUP2 ADD DUP3 SWAP1 MSTORE ADDRESS SWAP1 CALLER SWAP1 PUSH32 0xE44628ED4B392C5EF46FFC833D640EEFD957E81A312E583E0CC57EED5F04ADA3 SWAP1 PUSH1 0x60 ADD PUSH1 0x40 MLOAD DUP1 SWAP2 SUB SWAP1 LOG3 POP PUSH2 0x9B9 PUSH1 0x1 DUP1 SSTORE JUMP JUMPDEST PUSH1 0x0 SLOAD PUSH1 0x1 PUSH1 0x1 PUSH1 0xA0 SHL SUB AND CALLER EQ PUSH2 0x2858 JUMPI PUSH1 0x40 MLOAD PUSH3 0x461BCD PUSH1 0xE5 SHL DUP2 MSTORE PUSH1 0x4 ADD PUSH2 0x933 SWAP1 PUSH2 0x30F5 JUMP JUMPDEST PUSH1 0x1 PUSH1 0x1 PUSH1 0xA0 SHL SUB DUP2 AND PUSH2 0x28BD JUMPI PUSH1 0x40 MLOAD PUSH3 0x461BCD PUSH1 0xE5 SHL DUP2 MSTORE PUSH1 0x20 PUSH1 0x4 DUP3 ADD MSTORE PUSH1 0x26 PUSH1 0x24 DUP3 ADD MSTORE PUSH32 0x4F776E61626C653A206E6577206F776E657220697320746865207A65726F2061 PUSH1 0x44 DUP3 ADD MSTORE PUSH6 0x646472657373 PUSH1 0xD0 SHL PUSH1 0x64 DUP3 ADD MSTORE PUSH1 0x84 ADD PUSH2 0x933 JUMP JUMPDEST PUSH1 0x0 DUP1 SLOAD PUSH1 0x40 MLOAD PUSH1 0x1 PUSH1 0x1 PUSH1 0xA0 SHL SUB DUP1 DUP6 AND SWAP4 SWAP3 AND SWAP2 PUSH32 0x8BE0079C531659141344CD1FD0A4F28419497F9722A3DAAFE3B4186F6B6457E0 SWAP2 LOG3 PUSH1 0x0 DUP1 SLOAD PUSH1 0x1 PUSH1 0x1 PUSH1 0xA0 SHL SUB NOT AND PUSH1 0x1 PUSH1 0x1 PUSH1 0xA0 SHL SUB SWAP3 SWAP1 SWAP3 AND SWAP2 SWAP1 SWAP2 OR SWAP1 SSTORE JUMP JUMPDEST PUSH1 0x0 DUP1 JUMPDEST PUSH1 0x13 SLOAD DUP2 LT ISZERO PUSH2 0x2966 JUMPI DUP3 PUSH1 0x13 DUP3 DUP2 SLOAD DUP2 LT PUSH2 0x293A JUMPI PUSH2 0x293A PUSH2 0x312A JUMP JUMPDEST SWAP1 PUSH1 0x0 MSTORE PUSH1 0x20 PUSH1 0x0 KECCAK256 ADD SLOAD EQ ISZERO PUSH2 0x2954 JUMPI POP PUSH1 0x1 SWAP3 SWAP2 POP POP JUMP JUMPDEST DUP1 PUSH2 0x295E DUP2 PUSH2 0x329F JUMP JUMPDEST SWAP2 POP POP PUSH2 0x291C JUMP JUMPDEST POP PUSH1 0x0 SWAP3 SWAP2 POP POP JUMP JUMPDEST PUSH1 0x2 PUSH1 0x1 SLOAD EQ ISZERO PUSH2 0x29C2 JUMPI PUSH1 0x40 MLOAD PUSH3 0x461BCD PUSH1 0xE5 SHL DUP2 MSTORE PUSH1 0x20 PUSH1 0x4 DUP3 ADD MSTORE PUSH1 0x1F PUSH1 0x24 DUP3 ADD MSTORE PUSH32 0x5265656E7472616E637947756172643A207265656E7472616E742063616C6C00 PUSH1 0x44 DUP3 ADD MSTORE PUSH1 0x64 ADD PUSH2 0x933 JUMP JUMPDEST PUSH1 0x2 PUSH1 0x1 SSTORE JUMP JUMPDEST PUSH1 0x2 SLOAD PUSH1 0x40 MLOAD PUSH4 0x70A08231 PUSH1 0xE0 SHL DUP2 MSTORE ADDRESS PUSH1 0x4 DUP3 ADD MSTORE PUSH1 0x0 SWAP2 PUSH1 0x1 PUSH1 0x1 PUSH1 0xA0 SHL SUB AND SWAP1 PUSH4 0x70A08231 SWAP1 PUSH1 0x24 ADD PUSH1 0x20 PUSH1 0x40 MLOAD DUP1 DUP4 SUB DUP2 DUP7 GAS STATICCALL ISZERO DUP1 ISZERO PUSH2 0x2A12 JUMPI RETURNDATASIZE PUSH1 0x0 DUP1 RETURNDATACOPY RETURNDATASIZE PUSH1 0x0 REVERT JUMPDEST POP POP POP POP PUSH1 0x40 MLOAD RETURNDATASIZE PUSH1 0x1F NOT PUSH1 0x1F DUP3 ADD AND DUP3 ADD DUP1 PUSH1 0x40 MSTORE POP DUP2 ADD SWAP1 PUSH2 0x2A36 SWAP2 SWAP1 PUSH2 0x33CD JUMP JUMPDEST SWAP1 POP PUSH1 0x0 JUMPDEST PUSH1 0x13 SLOAD DUP2 LT ISZERO PUSH2 0x9B9 JUMPI PUSH1 0x0 PUSH1 0x13 DUP3 DUP2 SLOAD DUP2 LT PUSH2 0x2A5A JUMPI PUSH2 0x2A5A PUSH2 0x312A JUMP JUMPDEST PUSH1 0x0 SWAP2 DUP3 MSTORE PUSH1 0x20 DUP1 DUP4 KECCAK256 SWAP1 SWAP2 ADD SLOAD DUP1 DUP4 MSTORE PUSH1 0x5 DUP1 DUP4 MSTORE PUSH1 0x40 SWAP4 DUP5 SWAP1 KECCAK256 DUP5 MLOAD PUSH2 0x120 DUP2 ADD DUP7 MSTORE DUP2 SLOAD DUP2 MSTORE PUSH1 0x1 DUP3 ADD SLOAD SWAP5 DUP2 ADD SWAP5 SWAP1 SWAP5 MSTORE PUSH1 0x2 DUP2 ADD SLOAD SWAP5 DUP5 ADD SWAP5 SWAP1 SWAP5 MSTORE PUSH1 0x3 DUP5 ADD SLOAD PUSH1 0x60 DUP5 ADD MSTORE PUSH1 0x4 DUP5 ADD SLOAD PUSH1 0x80 DUP5 ADD MSTORE DUP4 ADD SLOAD PUSH1 0xA0 DUP4 ADD MSTORE PUSH1 0x6 DUP4 ADD SLOAD PUSH1 0xC0 DUP4 ADD MSTORE PUSH1 0x7 DUP4 ADD SLOAD PUSH1 0xFF AND ISZERO ISZERO PUSH1 0xE0 DUP4 ADD DUP2 SWAP1 MSTORE PUSH1 0x8 SWAP1 SWAP4 ADD SLOAD PUSH2 0x100 DUP4 ADD MSTORE SWAP3 POP SWAP1 PUSH2 0x2B81 JUMPI PUSH1 0x0 DUP2 PUSH1 0xC0 ADD MLOAD DUP6 PUSH2 0x2AF7 SWAP2 SWAP1 PUSH2 0x318D JUMP JUMPDEST SWAP1 POP PUSH1 0x0 DUP3 PUSH1 0xA0 ADD MLOAD DUP3 PUSH2 0x2B0B SWAP2 SWAP1 PUSH2 0x3156 JUMP JUMPDEST SWAP1 POP DUP3 PUSH1 0x80 ADD MLOAD DUP4 PUSH1 0x60 ADD MLOAD PUSH2 0x2B21 SWAP2 SWAP1 PUSH2 0x32E9 JUMP JUMPDEST DUP2 GT PUSH2 0x2B4B JUMPI DUP1 DUP4 PUSH1 0x60 ADD MLOAD PUSH2 0x2B37 SWAP2 SWAP1 PUSH2 0x32E9 JUMP JUMPDEST PUSH1 0x0 DUP6 DUP2 MSTORE PUSH1 0x4 PUSH1 0x20 MSTORE PUSH1 0x40 SWAP1 KECCAK256 SSTORE PUSH2 0x2B60 JUMP JUMPDEST PUSH1 0x80 DUP4 ADD MLOAD PUSH1 0x0 DUP6 DUP2 MSTORE PUSH1 0x4 PUSH1 0x20 MSTORE PUSH1 0x40 SWAP1 KECCAK256 SSTORE JUMPDEST POP POP PUSH1 0x0 DUP3 DUP2 MSTORE PUSH1 0x4 PUSH1 0x20 SWAP1 DUP2 MSTORE PUSH1 0x40 DUP1 DUP4 KECCAK256 SLOAD PUSH1 0x5 SWAP1 SWAP3 MSTORE SWAP1 SWAP2 KECCAK256 PUSH1 0x2 ADD SSTORE JUMPDEST POP POP DUP1 DUP1 PUSH2 0x2B8E SWAP1 PUSH2 0x329F JUMP JUMPDEST SWAP2 POP POP PUSH2 0x2A3B JUMP JUMPDEST PUSH1 0x40 MLOAD DUP1 PUSH2 0x120 ADD PUSH1 0x40 MSTORE DUP1 PUSH1 0x0 DUP2 MSTORE PUSH1 0x20 ADD PUSH1 0x0 DUP2 MSTORE PUSH1 0x20 ADD PUSH1 0x0 DUP2 MSTORE PUSH1 0x20 ADD PUSH1 0x0 DUP2 MSTORE PUSH1 0x20 ADD PUSH1 0x0 DUP2 MSTORE PUSH1 0x20 ADD PUSH1 0x0 DUP2 MSTORE PUSH1 0x20 ADD PUSH1 0x0 DUP2 MSTORE PUSH1 0x20 ADD PUSH1 0x0 ISZERO ISZERO DUP2 MSTORE PUSH1 0x20 ADD PUSH1 0x0 DUP2 MSTORE POP SWAP1 JUMP JUMPDEST PUSH1 0x40 MLOAD DUP1 PUSH1 0xE0 ADD PUSH1 0x40 MSTORE DUP1 PUSH1 0x0 PUSH1 0x1 PUSH1 0x1 PUSH1 0xA0 SHL SUB AND DUP2 MSTORE PUSH1 0x20 ADD PUSH1 0x0 DUP2 MSTORE PUSH1 0x20 ADD PUSH1 0x0 DUP2 MSTORE PUSH1 0x20 ADD PUSH1 0x60 DUP2 MSTORE PUSH1 0x20 ADD PUSH1 0x0 DUP2 MSTORE PUSH1 0x20 ADD PUSH1 0x0 DUP2 MSTORE PUSH1 0x20 ADD PUSH1 0x60 DUP2 MSTORE POP SWAP1 JUMP JUMPDEST PUSH1 0x1 PUSH1 0x1 PUSH1 0xA0 SHL SUB DUP2 AND DUP2 EQ PUSH2 0x2C3F JUMPI PUSH1 0x0 DUP1 REVERT JUMPDEST POP JUMP JUMPDEST PUSH1 0x0 PUSH1 0x20 DUP3 DUP5 SUB SLT ISZERO PUSH2 0x2C54 JUMPI PUSH1 0x0 DUP1 REVERT JUMPDEST DUP2 CALLDATALOAD PUSH2 0x2C5F DUP2 PUSH2 0x2C2A JUMP JUMPDEST SWAP4 SWAP3 POP POP POP JUMP JUMPDEST PUSH1 0x0 PUSH1 0x20 DUP3 DUP5 SUB SLT ISZERO PUSH2 0x2C78 JUMPI PUSH1 0x0 DUP1 REVERT JUMPDEST POP CALLDATALOAD SWAP2 SWAP1 POP JUMP JUMPDEST DUP1 MLOAD DUP3 MSTORE PUSH1 0x20 DUP2 ADD MLOAD PUSH1 0x20 DUP4 ADD MSTORE PUSH1 0x40 DUP2 ADD MLOAD PUSH1 0x40 DUP4 ADD MSTORE PUSH1 0x60 DUP2 ADD MLOAD PUSH1 0x60 DUP4 ADD MSTORE PUSH1 0x80 DUP2 ADD MLOAD PUSH1 0x80 DUP4 ADD MSTORE PUSH1 0xA0 DUP2 ADD MLOAD PUSH1 0xA0 DUP4 ADD MSTORE PUSH1 0xC0 DUP2 ADD MLOAD PUSH1 0xC0 DUP4 ADD MSTORE PUSH1 0xE0 DUP2 ADD MLOAD ISZERO ISZERO PUSH1 0xE0 DUP4 ADD MSTORE PUSH2 0x100 DUP1 DUP3 ADD MLOAD DUP2 DUP5 ADD MSTORE POP POP POP JUMP JUMPDEST PUSH2 0x120 DUP2 ADD PUSH2 0x2CEA DUP3 DUP5 PUSH2 0x2C7F JUMP JUMPDEST SWAP3 SWAP2 POP POP JUMP JUMPDEST PUSH1 0x20 DUP1 DUP3 MSTORE DUP3 MLOAD DUP3 DUP3 ADD DUP2 SWAP1 MSTORE PUSH1 0x0 SWAP2 SWAP1 DUP5 DUP3 ADD SWAP1 PUSH1 0x40 DUP6 ADD SWAP1 DUP5 JUMPDEST DUP2 DUP2 LT ISZERO PUSH2 0x2D28 JUMPI DUP4 MLOAD DUP4 MSTORE SWAP3 DUP5 ADD SWAP3 SWAP2 DUP5 ADD SWAP2 PUSH1 0x1 ADD PUSH2 0x2D0C JUMP JUMPDEST POP SWAP1 SWAP7 SWAP6 POP POP POP POP POP POP JUMP JUMPDEST PUSH1 0x0 DUP1 PUSH1 0x40 DUP4 DUP6 SUB SLT ISZERO PUSH2 0x2D47 JUMPI PUSH1 0x0 DUP1 REVERT JUMPDEST POP POP DUP1 CALLDATALOAD SWAP3 PUSH1 0x20 SWAP1 SWAP2 ADD CALLDATALOAD SWAP2 POP JUMP JUMPDEST PUSH1 0x0 DUP2 MLOAD DUP1 DUP5 MSTORE PUSH1 0x20 DUP1 DUP6 ADD SWAP5 POP DUP1 DUP5 ADD PUSH1 0x0 JUMPDEST DUP4 DUP2 LT ISZERO PUSH2 0x2D86 JUMPI DUP2 MLOAD DUP8 MSTORE SWAP6 DUP3 ADD SWAP6 SWAP1 DUP3 ADD SWAP1 PUSH1 0x1 ADD PUSH2 0x2D6A JUMP JUMPDEST POP SWAP5 SWAP6 SWAP5 POP POP POP POP POP JUMP JUMPDEST PUSH1 0x1 DUP1 PUSH1 0xA0 SHL SUB DUP2 MLOAD AND DUP3 MSTORE PUSH1 0x20 DUP2 ADD MLOAD PUSH1 0x20 DUP4 ADD MSTORE PUSH1 0x40 DUP2 ADD MLOAD PUSH1 0x40 DUP4 ADD MSTORE PUSH1 0x0 PUSH1 0x60 DUP3 ADD MLOAD PUSH1 0xE0 PUSH1 0x60 DUP6 ADD MSTORE PUSH2 0x2DCC PUSH1 0xE0 DUP6 ADD DUP3 PUSH2 0x2D56 JUMP JUMPDEST SWAP1 POP PUSH1 0x80 DUP4 ADD MLOAD PUSH1 0x80 DUP6 ADD MSTORE PUSH1 0xA0 DUP4 ADD MLOAD PUSH1 0xA0 DUP6 ADD MSTORE PUSH1 0xC0 DUP4 ADD MLOAD DUP5 DUP3 SUB PUSH1 0xC0 DUP7 ADD MSTORE PUSH2 0x2DF9 DUP3 DUP3 PUSH2 0x2D56 JUMP JUMPDEST SWAP6 SWAP5 POP POP POP POP POP JUMP JUMPDEST PUSH1 0x0 PUSH1 0x20 DUP1 DUP4 ADD DUP2 DUP5 MSTORE DUP1 DUP6 MLOAD DUP1 DUP4 MSTORE PUSH1 0x40 DUP7 ADD SWAP2 POP PUSH1 0x40 DUP2 PUSH1 0x5 SHL DUP8 ADD ADD SWAP3 POP DUP4 DUP8 ADD PUSH1 0x0 JUMPDEST DUP3 DUP2 LT ISZERO PUSH2 0x2E57 JUMPI PUSH1 0x3F NOT DUP9 DUP7 SUB ADD DUP5 MSTORE PUSH2 0x2E45 DUP6 DUP4 MLOAD PUSH2 0x2D91 JUMP JUMPDEST SWAP5 POP SWAP3 DUP6 ADD SWAP3 SWAP1 DUP6 ADD SWAP1 PUSH1 0x1 ADD PUSH2 0x2E29 JUMP JUMPDEST POP SWAP3 SWAP8 SWAP7 POP POP POP POP POP POP POP JUMP JUMPDEST PUSH1 0x0 JUMPDEST DUP4 DUP2 LT ISZERO PUSH2 0x2E7F JUMPI DUP2 DUP2 ADD MLOAD DUP4 DUP3 ADD MSTORE PUSH1 0x20 ADD PUSH2 0x2E67 JUMP JUMPDEST DUP4 DUP2 GT ISZERO PUSH2 0x2E8E JUMPI PUSH1 0x0 DUP5 DUP5 ADD MSTORE JUMPDEST POP POP POP POP JUMP JUMPDEST PUSH1 0x0 DUP2 MLOAD DUP1 DUP5 MSTORE PUSH2 0x2EAC DUP2 PUSH1 0x20 DUP7 ADD PUSH1 0x20 DUP7 ADD PUSH2 0x2E64 JUMP JUMPDEST PUSH1 0x1F ADD PUSH1 0x1F NOT AND SWAP3 SWAP1 SWAP3 ADD PUSH1 0x20 ADD SWAP3 SWAP2 POP POP JUMP JUMPDEST PUSH1 0x1 PUSH1 0x1 PUSH1 0xA0 SHL SUB DUP7 AND DUP2 MSTORE PUSH1 0xA0 PUSH1 0x20 DUP3 ADD DUP2 SWAP1 MSTORE PUSH1 0x0 SWAP1 PUSH2 0x2EE4 SWAP1 DUP4 ADD DUP8 PUSH2 0x2E94 JUMP JUMPDEST DUP3 DUP2 SUB PUSH1 0x40 DUP5 ADD MSTORE PUSH2 0x2EF6 DUP2 DUP8 PUSH2 0x2E94 JUMP JUMPDEST PUSH1 0xFF SWAP6 SWAP1 SWAP6 AND PUSH1 0x60 DUP5 ADD MSTORE POP POP PUSH1 0x80 ADD MSTORE SWAP4 SWAP3 POP POP POP JUMP JUMPDEST PUSH1 0x20 DUP2 MSTORE PUSH1 0x0 PUSH2 0x2C5F PUSH1 0x20 DUP4 ADD DUP5 PUSH2 0x2D91 JUMP JUMPDEST PUSH1 0x0 DUP1 PUSH1 0x40 DUP4 DUP6 SUB SLT ISZERO PUSH2 0x2F34 JUMPI PUSH1 0x0 DUP1 REVERT JUMPDEST DUP3 CALLDATALOAD PUSH2 0x2F3F DUP2 PUSH2 0x2C2A JUMP JUMPDEST SWAP5 PUSH1 0x20 SWAP4 SWAP1 SWAP4 ADD CALLDATALOAD SWAP4 POP POP POP JUMP JUMPDEST DUP1 ISZERO ISZERO DUP2 EQ PUSH2 0x2C3F JUMPI PUSH1 0x0 DUP1 REVERT JUMPDEST PUSH1 0x0 DUP1 PUSH1 0x0 DUP1 PUSH1 0x0 DUP1 PUSH1 0x0 DUP1 PUSH2 0x100 DUP10 DUP12 SUB SLT ISZERO PUSH2 0x2F78 JUMPI PUSH1 0x0 DUP1 REVERT JUMPDEST DUP9 CALLDATALOAD SWAP8 POP PUSH1 0x20 DUP10 ADD CALLDATALOAD SWAP7 POP PUSH1 0x40 DUP10 ADD CALLDATALOAD SWAP6 POP PUSH1 0x60 DUP10 ADD CALLDATALOAD SWAP5 POP PUSH1 0x80 DUP10 ADD CALLDATALOAD SWAP4 POP PUSH1 0xA0 DUP10 ADD CALLDATALOAD SWAP3 POP PUSH1 0xC0 DUP10 ADD CALLDATALOAD SWAP2 POP PUSH1 0xE0 DUP10 ADD CALLDATALOAD PUSH2 0x2FB4 DUP2 PUSH2 0x2F4D JUMP JUMPDEST DUP1 SWAP2 POP POP SWAP3 SWAP6 SWAP9 POP SWAP3 SWAP6 SWAP9 SWAP1 SWAP4 SWAP7 POP JUMP JUMPDEST PUSH4 0x4E487B71 PUSH1 0xE0 SHL PUSH1 0x0 MSTORE PUSH1 0x41 PUSH1 0x4 MSTORE PUSH1 0x24 PUSH1 0x0 REVERT JUMPDEST PUSH1 0x40 MLOAD PUSH1 0x1F DUP3 ADD PUSH1 0x1F NOT AND DUP2 ADD PUSH8 0xFFFFFFFFFFFFFFFF DUP2 GT DUP3 DUP3 LT OR ISZERO PUSH2 0x3004 JUMPI PUSH2 0x3004 PUSH2 0x2FC5 JUMP JUMPDEST PUSH1 0x40 MSTORE SWAP2 SWAP1 POP JUMP JUMPDEST PUSH1 0x0 PUSH1 0x20 DUP1 DUP4 DUP6 SUB SLT ISZERO PUSH2 0x301F JUMPI PUSH1 0x0 DUP1 REVERT JUMPDEST DUP3 CALLDATALOAD PUSH8 0xFFFFFFFFFFFFFFFF DUP1 DUP3 GT ISZERO PUSH2 0x3037 JUMPI PUSH1 0x0 DUP1 REVERT JUMPDEST DUP2 DUP6 ADD SWAP2 POP DUP6 PUSH1 0x1F DUP4 ADD SLT PUSH2 0x304B JUMPI PUSH1 0x0 DUP1 REVERT JUMPDEST DUP2 CALLDATALOAD DUP2 DUP2 GT ISZERO PUSH2 0x305D JUMPI PUSH2 0x305D PUSH2 0x2FC5 JUMP JUMPDEST DUP1 PUSH1 0x5 SHL SWAP2 POP PUSH2 0x306E DUP5 DUP4 ADD PUSH2 0x2FDB JUMP JUMPDEST DUP2 DUP2 MSTORE SWAP2 DUP4 ADD DUP5 ADD SWAP2 DUP5 DUP2 ADD SWAP1 DUP9 DUP5 GT ISZERO PUSH2 0x3088 JUMPI PUSH1 0x0 DUP1 REVERT JUMPDEST SWAP4 DUP6 ADD SWAP4 JUMPDEST DUP4 DUP6 LT ISZERO PUSH2 0x30A6 JUMPI DUP5 CALLDATALOAD DUP3 MSTORE SWAP4 DUP6 ADD SWAP4 SWAP1 DUP6 ADD SWAP1 PUSH2 0x308D JUMP JUMPDEST SWAP9 SWAP8 POP POP POP POP POP POP POP POP JUMP JUMPDEST PUSH1 0x20 DUP1 DUP3 MSTORE DUP3 MLOAD DUP3 DUP3 ADD DUP2 SWAP1 MSTORE PUSH1 0x0 SWAP2 SWAP1 DUP5 DUP3 ADD SWAP1 PUSH1 0x40 DUP6 ADD SWAP1 DUP5 JUMPDEST DUP2 DUP2 LT ISZERO PUSH2 0x2D28 JUMPI PUSH2 0x30E1 DUP4 DUP6 MLOAD PUSH2 0x2C7F JUMP JUMPDEST SWAP3 DUP5 ADD SWAP3 PUSH2 0x120 SWAP3 SWAP1 SWAP3 ADD SWAP2 PUSH1 0x1 ADD PUSH2 0x30CE JUMP JUMPDEST PUSH1 0x20 DUP1 DUP3 MSTORE DUP2 DUP2 ADD MSTORE PUSH32 0x4F776E61626C653A2063616C6C6572206973206E6F7420746865206F776E6572 PUSH1 0x40 DUP3 ADD MSTORE PUSH1 0x60 ADD SWAP1 JUMP JUMPDEST PUSH4 0x4E487B71 PUSH1 0xE0 SHL PUSH1 0x0 MSTORE PUSH1 0x32 PUSH1 0x4 MSTORE PUSH1 0x24 PUSH1 0x0 REVERT JUMPDEST PUSH4 0x4E487B71 PUSH1 0xE0 SHL PUSH1 0x0 MSTORE PUSH1 0x11 PUSH1 0x4 MSTORE PUSH1 0x24 PUSH1 0x0 REVERT JUMPDEST PUSH1 0x0 DUP2 PUSH1 0x0 NOT DIV DUP4 GT DUP3 ISZERO ISZERO AND ISZERO PUSH2 0x3170 JUMPI PUSH2 0x3170 PUSH2 0x3140 JUMP JUMPDEST POP MUL SWAP1 JUMP JUMPDEST PUSH1 0x0 DUP3 NOT DUP3 GT ISZERO PUSH2 0x3188 JUMPI PUSH2 0x3188 PUSH2 0x3140 JUMP JUMPDEST POP ADD SWAP1 JUMP JUMPDEST PUSH1 0x0 DUP3 PUSH2 0x31AA JUMPI PUSH4 0x4E487B71 PUSH1 0xE0 SHL PUSH1 0x0 MSTORE PUSH1 0x12 PUSH1 0x4 MSTORE PUSH1 0x24 PUSH1 0x0 REVERT JUMPDEST POP DIV SWAP1 JUMP JUMPDEST PUSH1 0x1 DUP2 DUP2 JUMPDEST DUP1 DUP6 GT ISZERO PUSH2 0x31EA JUMPI DUP2 PUSH1 0x0 NOT DIV DUP3 GT ISZERO PUSH2 0x31D0 JUMPI PUSH2 0x31D0 PUSH2 0x3140 JUMP JUMPDEST DUP1 DUP6 AND ISZERO PUSH2 0x31DD JUMPI SWAP2 DUP2 MUL SWAP2 JUMPDEST SWAP4 DUP5 SHR SWAP4 SWAP1 DUP1 MUL SWAP1 PUSH2 0x31B4 JUMP JUMPDEST POP SWAP3 POP SWAP3 SWAP1 POP JUMP JUMPDEST PUSH1 0x0 DUP3 PUSH2 0x3201 JUMPI POP PUSH1 0x1 PUSH2 0x2CEA JUMP JUMPDEST DUP2 PUSH2 0x320E JUMPI POP PUSH1 0x0 PUSH2 0x2CEA JUMP JUMPDEST DUP2 PUSH1 0x1 DUP2 EQ PUSH2 0x3224 JUMPI PUSH1 0x2 DUP2 EQ PUSH2 0x322E JUMPI PUSH2 0x324A JUMP JUMPDEST PUSH1 0x1 SWAP2 POP POP PUSH2 0x2CEA JUMP JUMPDEST PUSH1 0xFF DUP5 GT ISZERO PUSH2 0x323F JUMPI PUSH2 0x323F PUSH2 0x3140 JUMP JUMPDEST POP POP PUSH1 0x1 DUP3 SHL PUSH2 0x2CEA JUMP JUMPDEST POP PUSH1 0x20 DUP4 LT PUSH2 0x133 DUP4 LT AND PUSH1 0x4E DUP5 LT PUSH1 0xB DUP5 LT AND OR ISZERO PUSH2 0x326D JUMPI POP DUP2 DUP2 EXP PUSH2 0x2CEA JUMP JUMPDEST PUSH2 0x3277 DUP4 DUP4 PUSH2 0x31AF JUMP JUMPDEST DUP1 PUSH1 0x0 NOT DIV DUP3 GT ISZERO PUSH2 0x328B JUMPI PUSH2 0x328B PUSH2 0x3140 JUMP JUMPDEST MUL SWAP4 SWAP3 POP POP POP JUMP JUMPDEST PUSH1 0x0 PUSH2 0x2C5F DUP4 DUP4 PUSH2 0x31F2 JUMP JUMPDEST PUSH1 0x0 PUSH1 0x0 NOT DUP3 EQ ISZERO PUSH2 0x32B3 JUMPI PUSH2 0x32B3 PUSH2 0x3140 JUMP JUMPDEST POP PUSH1 0x1 ADD SWAP1 JUMP JUMPDEST PUSH1 0x20 DUP1 DUP3 MSTORE PUSH1 0x15 SWAP1 DUP3 ADD MSTORE PUSH21 0x131BD8DAC81C195C9A5BD9081B9BDD08199BDD5B99 PUSH1 0x5A SHL PUSH1 0x40 DUP3 ADD MSTORE PUSH1 0x60 ADD SWAP1 JUMP JUMPDEST PUSH1 0x0 DUP3 DUP3 LT ISZERO PUSH2 0x32FB JUMPI PUSH2 0x32FB PUSH2 0x3140 JUMP JUMPDEST POP SUB SWAP1 JUMP JUMPDEST PUSH4 0x4E487B71 PUSH1 0xE0 SHL PUSH1 0x0 MSTORE PUSH1 0x31 PUSH1 0x4 MSTORE PUSH1 0x24 PUSH1 0x0 REVERT JUMPDEST PUSH1 0x0 PUSH1 0x20 DUP3 DUP5 SUB SLT ISZERO PUSH2 0x3328 JUMPI PUSH1 0x0 DUP1 REVERT JUMPDEST DUP2 MLOAD PUSH8 0xFFFFFFFFFFFFFFFF DUP1 DUP3 GT ISZERO PUSH2 0x3340 JUMPI PUSH1 0x0 DUP1 REVERT JUMPDEST DUP2 DUP5 ADD SWAP2 POP DUP5 PUSH1 0x1F DUP4 ADD SLT PUSH2 0x3354 JUMPI PUSH1 0x0 DUP1 REVERT JUMPDEST DUP2 MLOAD DUP2 DUP2 GT ISZERO PUSH2 0x3366 JUMPI PUSH2 0x3366 PUSH2 0x2FC5 JUMP JUMPDEST PUSH2 0x3379 PUSH1 0x1F DUP3 ADD PUSH1 0x1F NOT AND PUSH1 0x20 ADD PUSH2 0x2FDB JUMP JUMPDEST SWAP2 POP DUP1 DUP3 MSTORE DUP6 PUSH1 0x20 DUP3 DUP6 ADD ADD GT ISZERO PUSH2 0x3390 JUMPI PUSH1 0x0 DUP1 REVERT JUMPDEST PUSH2 0x33A1 DUP2 PUSH1 0x20 DUP5 ADD PUSH1 0x20 DUP7 ADD PUSH2 0x2E64 JUMP JUMPDEST POP SWAP5 SWAP4 POP POP POP POP JUMP JUMPDEST PUSH1 0x0 PUSH1 0x20 DUP3 DUP5 SUB SLT ISZERO PUSH2 0x33BC JUMPI PUSH1 0x0 DUP1 REVERT JUMPDEST DUP2 MLOAD PUSH1 0xFF DUP2 AND DUP2 EQ PUSH2 0x2C5F JUMPI PUSH1 0x0 DUP1 REVERT JUMPDEST PUSH1 0x0 PUSH1 0x20 DUP3 DUP5 SUB SLT ISZERO PUSH2 0x33DF JUMPI PUSH1 0x0 DUP1 REVERT JUMPDEST POP MLOAD SWAP2 SWAP1 POP JUMP JUMPDEST PUSH1 0x0 PUSH1 0x20 DUP3 DUP5 SUB SLT ISZERO PUSH2 0x33F8 JUMPI PUSH1 0x0 DUP1 REVERT JUMPDEST DUP2 MLOAD PUSH2 0x2C5F DUP2 PUSH2 0x2F4D JUMP INVALID LOG2 PUSH5 0x6970667358 0x22 SLT KECCAK256 0xC0 LOG1 SUB NUMBER 0xC3 BLOCKHASH 0x4B DUP13 XOR STOP LOG0 0xAD 0xF 0xF9 0xB9 PUSH9 0x439653F772393A267C DUP11 DUP5 RETURNDATACOPY DUP8 0xBC NOT 0xC4 PUSH5 0x736F6C6343 STOP ADDMOD 0xC STOP CALLER "
				},
				"gasEstimates": {
					"creation": {
						"codeDepositCost": "2673800",
						"executionCost": "infinite",
						"totalCost": "infinite"
					},
					"external": {
						"IS_ULTIMATE_STAKE_FACTORY()": "2459",
						"Token()": "2470",
						"addSpam(address)": "26891",
						"allocation(uint256)": "2473",
						"allowedLockPeriods(uint256)": "4610",
						"deductionPercentage()": "2395",
						"deposit(uint256,uint256)": "infinite",
						"depositTokenDecimals()": "2441",
						"depositeTime(address,uint256)": "4816",
						"depositeToken(address,uint256)": "4839",
						"depositeTokensTotal(address)": "2637",
						"emergencyWithdrawTokens(address,uint256)": "infinite",
						"emergencyWithdrawWei(uint256)": "infinite",
						"getLockPeriodParams(uint256)": "infinite",
						"getLockPeriods()": "infinite",
						"getLockPeriodsInfo()": "infinite",
						"getRewardTokenInfo()": "infinite",
						"getStakeTokenInfo()": "infinite",
						"getUser(address)": "infinite",
						"getUsers(uint256,uint256)": "infinite",
						"harwest(uint256[])": "infinite",
						"isSpam(address)": "2636",
						"lastUpdated(address)": "2571",
						"lockPeriodParams(uint256)": "19650",
						"lockableDays(address,uint256)": "4861",
						"owner()": "2399",
						"paused()": "2355",
						"pendingRewards(address)": "infinite",
						"removeLockPeriod(uint256)": "infinite",
						"removeSpam(address)": "26907",
						"rewardToken()": "2491",
						"rewardTokenDecimals()": "2397",
						"setAllocation(uint256,uint256,uint256,uint256,uint256,uint256,uint256,bool)": "infinite",
						"setDeductionPercentage(uint256)": "24579",
						"setTaxReceiver(address)": "26838",
						"taxreceiver()": "2425",
						"time()": "2375",
						"transferOwnership(address)": "30504",
						"users(uint256)": "2567",
						"usersCount()": "2417",
						"usersExists(address)": "2570",
						"withdrawedReward(address)": "2549"
					},
					"internal": {
						"allocationPercentageUpdate()": "infinite",
						"isLockPeriodAllowed(uint256)": "infinite"
					}
				},
				"methodIdentifiers": {
					"IS_ULTIMATE_STAKE_FACTORY()": "f66e4be3",
					"Token()": "c2412676",
					"addSpam(address)": "52b8745f",
					"allocation(uint256)": "850bad94",
					"allowedLockPeriods(uint256)": "2b4a16a0",
					"deductionPercentage()": "6b130dc2",
					"deposit(uint256,uint256)": "e2bbb158",
					"depositTokenDecimals()": "c0941214",
					"depositeTime(address,uint256)": "ba743f99",
					"depositeToken(address,uint256)": "91dc842e",
					"depositeTokensTotal(address)": "27ba372c",
					"emergencyWithdrawTokens(address,uint256)": "917bb998",
					"emergencyWithdrawWei(uint256)": "230ffa0f",
					"getLockPeriodParams(uint256)": "3d51c72d",
					"getLockPeriods()": "41ee13be",
					"getLockPeriodsInfo()": "de644c76",
					"getRewardTokenInfo()": "647428b9",
					"getStakeTokenInfo()": "c53c5fc1",
					"getUser(address)": "6f77926b",
					"getUsers(uint256,uint256)": "45982a66",
					"harwest(uint256[])": "c5c35196",
					"isSpam(address)": "cd099205",
					"lastUpdated(address)": "0a6f93e6",
					"lockPeriodParams(uint256)": "39129cff",
					"lockableDays(address,uint256)": "95302cc0",
					"owner()": "8da5cb5b",
					"paused()": "5c975abb",
					"pendingRewards(address)": "31d7a262",
					"removeLockPeriod(uint256)": "4d70378a",
					"removeSpam(address)": "58098bf4",
					"rewardToken()": "f7c618c1",
					"rewardTokenDecimals()": "9bdcecd1",
					"setAllocation(uint256,uint256,uint256,uint256,uint256,uint256,uint256,bool)": "9a4577a2",
					"setDeductionPercentage(uint256)": "6a1d18d2",
					"setTaxReceiver(address)": "cd8de42c",
					"taxreceiver()": "f256dfc5",
					"time()": "16ada547",
					"transferOwnership(address)": "f2fde38b",
					"users(uint256)": "365b98b2",
					"usersCount()": "6ba13a82",
					"usersExists(address)": "c2e5fe76",
					"withdrawedReward(address)": "03962d46"
				}
			},
			"storageLayout": {
				"storage": [
					{
						"astId": 345,
						"contract": "StakeFactory.sol:StakeFactory",
						"label": "_owner",
						"offset": 0,
						"slot": "0",
						"type": "t_address"
					},
					{
						"astId": 269,
						"contract": "StakeFactory.sol:StakeFactory",
						"label": "_paused",
						"offset": 20,
						"slot": "0",
						"type": "t_bool"
					},
					{
						"astId": 62,
						"contract": "StakeFactory.sol:StakeFactory",
						"label": "_status",
						"offset": 0,
						"slot": "1",
						"type": "t_uint256"
					},
					{
						"astId": 429,
						"contract": "StakeFactory.sol:StakeFactory",
						"label": "Token",
						"offset": 0,
						"slot": "2",
						"type": "t_contract(IERC20)53"
					},
					{
						"astId": 432,
						"contract": "StakeFactory.sol:StakeFactory",
						"label": "rewardToken",
						"offset": 0,
						"slot": "3",
						"type": "t_contract(IERC20)53"
					},
					{
						"astId": 435,
						"contract": "StakeFactory.sol:StakeFactory",
						"label": "IS_ULTIMATE_STAKE_FACTORY",
						"offset": 20,
						"slot": "3",
						"type": "t_bool"
					},
					{
						"astId": 437,
						"contract": "StakeFactory.sol:StakeFactory",
						"label": "depositTokenDecimals",
						"offset": 21,
						"slot": "3",
						"type": "t_uint8"
					},
					{
						"astId": 439,
						"contract": "StakeFactory.sol:StakeFactory",
						"label": "rewardTokenDecimals",
						"offset": 22,
						"slot": "3",
						"type": "t_uint8"
					},
					{
						"astId": 472,
						"contract": "StakeFactory.sol:StakeFactory",
						"label": "allocation",
						"offset": 0,
						"slot": "4",
						"type": "t_mapping(t_uint256,t_uint256)"
					},
					{
						"astId": 477,
						"contract": "StakeFactory.sol:StakeFactory",
						"label": "lockPeriodParams",
						"offset": 0,
						"slot": "5",
						"type": "t_mapping(t_uint256,t_struct(LockPeriodParams)548_storage)"
					},
					{
						"astId": 479,
						"contract": "StakeFactory.sol:StakeFactory",
						"label": "taxreceiver",
						"offset": 0,
						"slot": "6",
						"type": "t_address"
					},
					{
						"astId": 484,
						"contract": "StakeFactory.sol:StakeFactory",
						"label": "depositeToken",
						"offset": 0,
						"slot": "7",
						"type": "t_mapping(t_address,t_array(t_uint256)dyn_storage)"
					},
					{
						"astId": 488,
						"contract": "StakeFactory.sol:StakeFactory",
						"label": "depositeTokensTotal",
						"offset": 0,
						"slot": "8",
						"type": "t_mapping(t_address,t_uint256)"
					},
					{
						"astId": 493,
						"contract": "StakeFactory.sol:StakeFactory",
						"label": "lockableDays",
						"offset": 0,
						"slot": "9",
						"type": "t_mapping(t_address,t_array(t_uint256)dyn_storage)"
					},
					{
						"astId": 498,
						"contract": "StakeFactory.sol:StakeFactory",
						"label": "depositeTime",
						"offset": 0,
						"slot": "10",
						"type": "t_mapping(t_address,t_array(t_uint256)dyn_storage)"
					},
					{
						"astId": 502,
						"contract": "StakeFactory.sol:StakeFactory",
						"label": "withdrawedReward",
						"offset": 0,
						"slot": "11",
						"type": "t_mapping(t_address,t_uint256)"
					},
					{
						"astId": 506,
						"contract": "StakeFactory.sol:StakeFactory",
						"label": "lastUpdated",
						"offset": 0,
						"slot": "12",
						"type": "t_mapping(t_address,t_uint256)"
					},
					{
						"astId": 510,
						"contract": "StakeFactory.sol:StakeFactory",
						"label": "usersExists",
						"offset": 0,
						"slot": "13",
						"type": "t_mapping(t_address,t_bool)"
					},
					{
						"astId": 514,
						"contract": "StakeFactory.sol:StakeFactory",
						"label": "users",
						"offset": 0,
						"slot": "14",
						"type": "t_mapping(t_uint256,t_address)"
					},
					{
						"astId": 516,
						"contract": "StakeFactory.sol:StakeFactory",
						"label": "usersCount",
						"offset": 0,
						"slot": "15",
						"type": "t_uint256"
					},
					{
						"astId": 520,
						"contract": "StakeFactory.sol:StakeFactory",
						"label": "isSpam",
						"offset": 0,
						"slot": "16",
						"type": "t_mapping(t_address,t_bool)"
					},
					{
						"astId": 523,
						"contract": "StakeFactory.sol:StakeFactory",
						"label": "deductionPercentage",
						"offset": 0,
						"slot": "17",
						"type": "t_uint256"
					},
					{
						"astId": 526,
						"contract": "StakeFactory.sol:StakeFactory",
						"label": "time",
						"offset": 0,
						"slot": "18",
						"type": "t_uint256"
					},
					{
						"astId": 529,
						"contract": "StakeFactory.sol:StakeFactory",
						"label": "allowedLockPeriods",
						"offset": 0,
						"slot": "19",
						"type": "t_array(t_uint256)dyn_storage"
					}
				],
				"types": {
					"t_address": {
						"encoding": "inplace",
						"label": "address",
						"numberOfBytes": "20"
					},
					"t_array(t_uint256)dyn_storage": {
						"base": "t_uint256",
						"encoding": "dynamic_array",
						"label": "uint256[]",
						"numberOfBytes": "32"
					},
					"t_bool": {
						"encoding": "inplace",
						"label": "bool",
						"numberOfBytes": "1"
					},
					"t_contract(IERC20)53": {
						"encoding": "inplace",
						"label": "contract IERC20",
						"numberOfBytes": "20"
					},
					"t_mapping(t_address,t_array(t_uint256)dyn_storage)": {
						"encoding": "mapping",
						"key": "t_address",
						"label": "mapping(address => uint256[])",
						"numberOfBytes": "32",
						"value": "t_array(t_uint256)dyn_storage"
					},
					"t_mapping(t_address,t_bool)": {
						"encoding": "mapping",
						"key": "t_address",
						"label": "mapping(address => bool)",
						"numberOfBytes": "32",
						"value": "t_bool"
					},
					"t_mapping(t_address,t_uint256)": {
						"encoding": "mapping",
						"key": "t_address",
						"label": "mapping(address => uint256)",
						"numberOfBytes": "32",
						"value": "t_uint256"
					},
					"t_mapping(t_uint256,t_address)": {
						"encoding": "mapping",
						"key": "t_uint256",
						"label": "mapping(uint256 => address)",
						"numberOfBytes": "32",
						"value": "t_address"
					},
					"t_mapping(t_uint256,t_struct(LockPeriodParams)548_storage)": {
						"encoding": "mapping",
						"key": "t_uint256",
						"label": "mapping(uint256 => struct StakeFactory.LockPeriodParams)",
						"numberOfBytes": "32",
						"value": "t_struct(LockPeriodParams)548_storage"
					},
					"t_mapping(t_uint256,t_uint256)": {
						"encoding": "mapping",
						"key": "t_uint256",
						"label": "mapping(uint256 => uint256)",
						"numberOfBytes": "32",
						"value": "t_uint256"
					},
					"t_struct(LockPeriodParams)548_storage": {
						"encoding": "inplace",
						"label": "struct StakeFactory.LockPeriodParams",
						"members": [
							{
								"astId": 531,
								"contract": "StakeFactory.sol:StakeFactory",
								"label": "lockTimeDays",
								"offset": 0,
								"slot": "0",
								"type": "t_uint256"
							},
							{
								"astId": 533,
								"contract": "StakeFactory.sol:StakeFactory",
								"label": "minimumDeposit",
								"offset": 0,
								"slot": "1",
								"type": "t_uint256"
							},
							{
								"astId": 535,
								"contract": "StakeFactory.sol:StakeFactory",
								"label": "percentageBasisPoints",
								"offset": 0,
								"slot": "2",
								"type": "t_uint256"
							},
							{
								"astId": 537,
								"contract": "StakeFactory.sol:StakeFactory",
								"label": "maxRate",
								"offset": 0,
								"slot": "3",
								"type": "t_uint256"
							},
							{
								"astId": 539,
								"contract": "StakeFactory.sol:StakeFactory",
								"label": "minRate",
								"offset": 0,
								"slot": "4",
								"type": "t_uint256"
							},
							{
								"astId": 541,
								"contract": "StakeFactory.sol:StakeFactory",
								"label": "decrementStep",
								"offset": 0,
								"slot": "5",
								"type": "t_uint256"
							},
							{
								"astId": 543,
								"contract": "StakeFactory.sol:StakeFactory",
								"label": "stepSize",
								"offset": 0,
								"slot": "6",
								"type": "t_uint256"
							},
							{
								"astId": 545,
								"contract": "StakeFactory.sol:StakeFactory",
								"label": "fixedBasisPoints",
								"offset": 0,
								"slot": "7",
								"type": "t_bool"
							},
							{
								"astId": 547,
								"contract": "StakeFactory.sol:StakeFactory",
								"label": "stakedAmount",
								"offset": 0,
								"slot": "8",
								"type": "t_uint256"
							}
						],
						"numberOfBytes": "288"
					},
					"t_uint256": {
						"encoding": "inplace",
						"label": "uint256",
						"numberOfBytes": "32"
					},
					"t_uint8": {
						"encoding": "inplace",
						"label": "uint8",
						"numberOfBytes": "1"
					}
				}
			},
			"userdoc": {
				"kind": "user",
				"methods": {},
				"version": 1
			}
		}
	}
}