{
	"data": {
		"bytecode": {
			"linkReferences": {},
			"object": "60806040526003805460ff60a01b1916600160a01b1790556109c4601155603c6012553480156200002f57600080fd5b5060405162003cee38038062003cee8339810160408190526200005291620006c0565b600080546001600160a01b0319163390811782556040519091907f8be0079c531659141344cd1fd0a4f28419497f9722a3daafe3b4186f6b6457e0908290a36000805460ff60a01b1916905560018055600280546001600160a01b038088166001600160a01b03199283168117909355600380549188169190921617905560118390556040805163313ce56760e01b8152905163313ce567916004808201926020929091908290030181865afa15801562000111573d6000803e3d6000fd5b505050506040513d601f19601f8201168201806040525081019062000137919062000839565b600360156101000a81548160ff021916908360ff160217905550600360009054906101000a90046001600160a01b03166001600160a01b031663313ce5676040518163ffffffff1660e01b8152600401602060405180830381865afa158015620001a5573d6000803e3d6000fd5b505050506040513d601f19601f82011682018060405250810190620001cb919062000839565b6003805460ff60b01b1916600160b01b60ff9390931692909202919091179055600680546001600160a01b0319166001600160a01b03851617905560005b815181101562000340576200032b8282815181106200022c576200022c62000865565b6020026020010151600001518383815181106200024d576200024d62000865565b6020026020010151602001518484815181106200026e576200026e62000865565b6020026020010151604001518585815181106200028f576200028f62000865565b602002602001015160600151868681518110620002b057620002b062000865565b602002602001015160800151878781518110620002d157620002d162000865565b602002602001015160a00151888881518110620002f257620002f262000865565b602002602001015160c0015189898151811062000313576200031362000865565b602002602001015160e001516200034c60201b60201c565b8062000337816200087b565b91505062000209565b505050505050620008a5565b6000546001600160a01b03163314620003ac5760405162461bcd60e51b815260206004820181905260248201527f4f776e61626c653a2063616c6c6572206973206e6f7420746865206f776e657260448201526064015b60405180910390fd5b612710861115620003f55760405162461bcd60e51b8152602060048201526012602482015271496e76616c69642070657263656e7461676560701b6044820152606401620003a3565b83851015620004625760405162461bcd60e51b815260206004820152603260248201527f4d61782072617465206d7573742062652067726561746572207468616e206f7260448201527120657175616c20746f206d696e207261746560701b6064820152608401620003a3565b60008211620004b45760405162461bcd60e51b815260206004820181905260248201527f537465702073697a65206d7573742062652067726561746572207468616e20306044820152606401620003a3565b6000888152600460205260409020869055620004d088620005bd565b6200050b57601380546001810182556000919091527f66de8ffda797e3de9c05e8fc57b3bf0ec28a930d40b0d285d93c06501cf6a090018890555b60408051610120810182528981526020808201998a52818301988952606082019788526080820196875260a0820195865260c0820194855292151560e0820190815260008b8152600580865293812060088101805461010086019081529d9092529484905291518455985160018401559651600283015594516003820155925160048401559051928201929092559051600682015591516007909201805460ff19169215159290921790915590519055565b6000805b60135481101562000613578260138281548110620005e357620005e362000865565b90600052602060002001541415620005fe5750600192915050565b806200060a816200087b565b915050620005c1565b50600092915050565b6001600160a01b03811681146200063257600080fd5b50565b634e487b7160e01b600052604160045260246000fd5b60405161012081016001600160401b038111828210171562000671576200067162000635565b60405290565b604051601f8201601f191681016001600160401b0381118282101715620006a257620006a262000635565b604052919050565b80518015158114620006bb57600080fd5b919050565b600080600080600060a08688031215620006d957600080fd5b8551620006e6816200061c565b80955050602080870151620006fb816200061c565b60408801519095506200070e816200061c565b60608801516080808a0151929650909450906001600160401b03808211156200073657600080fd5b818a0191508a601f8301126200074b57600080fd5b81518181111562000760576200076062000635565b62000770858260051b0162000677565b818152858101925061012091820284018601918d8311156200079157600080fd5b938601935b82851015620008255780858f031215620007b05760008081fd5b620007ba6200064b565b8551815287860151888201526040860151604082015260608601516060820152868601518782015260a086015160a082015260c080870151818301525060e062000806818801620006aa565b9082015261010086810151908201528452938401939286019262000796565b508096505050505050509295509295909350565b6000602082840312156200084c57600080fd5b815160ff811681146200085e57600080fd5b9392505050565b634e487b7160e01b600052603260045260246000fd5b60006000198214156200089e57634e487b7160e01b600052601160045260246000fd5b5060010190565b61343980620008b56000396000f3fe6080604052600436106102555760003560e01c8063850bad9411610139578063c2e5fe76116100b6578063de644c761161007a578063de644c7614610846578063e2bbb15814610868578063f256dfc514610888578063f2fde38b146108a8578063f66e4be3146108c8578063f7c618c1146108e957600080fd5b8063c2e5fe7614610776578063c53c5fc1146107a6578063c5c35196146107bb578063cd099205146107f6578063cd8de42c1461082657600080fd5b80639a4577a2116100fd5780639a4577a2146106c25780639bdcecd1146106e2578063ba743f9914610715578063c094121414610735578063c24126761461075657600080fd5b8063850bad94146106175780638da5cb5b14610644578063917bb9981461066257806391dc842e1461068257806395302cc0146106a257600080fd5b806341ee13be116101d25780635c975abb116101965780635c975abb1461054d578063647428b9146105785780636a1d18d21461059e5780636b130dc2146105be5780636ba13a82146105d45780636f77926b146105ea57600080fd5b806341ee13be1461049e57806345982a66146104c05780634d70378a146104ed57806352b8745f1461050d57806358098bf41461052d57600080fd5b80632b4a16a0116102195780632b4a16a01461033357806331d7a26214610353578063365b98b21461037357806339129cff146103c15780633d51c72d1461047157600080fd5b806303962d46146102615780630a6f93e6146102a157806316ada547146102ce578063230ffa0f146102e457806327ba372c1461030657600080fd5b3661025c57005b600080fd5b34801561026d57600080fd5b5061028e61027c366004612c42565b600b6020526000908152604090205481565b6040519081526020015b60405180910390f35b3480156102ad57600080fd5b5061028e6102bc366004612c42565b600c6020526000908152604090205481565b3480156102da57600080fd5b5061028e60125481565b3480156102f057600080fd5b506103046102ff366004612c66565b610909565b005b34801561031257600080fd5b5061028e610321366004612c42565b60086020526000908152604090205481565b34801561033f57600080fd5b5061028e61034e366004612c66565b6109bd565b34801561035f57600080fd5b5061028e61036e366004612c42565b6109de565b34801561037f57600080fd5b506103a961038e366004612c66565b600e602052600090815260409020546001600160a01b031681565b6040516001600160a01b039091168152602001610298565b3480156103cd57600080fd5b5061042b6103dc366004612c66565b60056020819052600091825260409091208054600182015460028301546003840154600485015495850154600686015460078701546008909701549597949693959294939192909160ff169089565b60408051998a5260208a0198909852968801959095526060870193909352608086019190915260a085015260c0840152151560e083015261010082015261012001610298565b34801561047d57600080fd5b5061049161048c366004612c66565b610b86565b6040516102989190612cdb565b3480156104aa57600080fd5b506104b3610c30565b6040516102989190612cf0565b3480156104cc57600080fd5b506104e06104db366004612d34565b610c88565b6040516102989190612e02565b3480156104f957600080fd5b50610304610508366004612c66565b610d8c565b34801561051957600080fd5b50610304610528366004612c42565b610f35565b34801561053957600080fd5b50610304610548366004612c42565b610fcb565b34801561055957600080fd5b50600054600160a01b900460ff165b6040519015158152602001610298565b34801561058457600080fd5b5061058d61105e565b604051610298959493929190612ec0565b3480156105aa57600080fd5b506103046105b9366004612c66565b611247565b3480156105ca57600080fd5b5061028e60115481565b3480156105e057600080fd5b5061028e600f5481565b3480156105f657600080fd5b5061060a610605366004612c42565b6112bd565b6040516102989190612f0e565b34801561062357600080fd5b5061028e610632366004612c66565b60046020526000908152604090205481565b34801561065057600080fd5b506000546001600160a01b03166103a9565b34801561066e57600080fd5b5061030461067d366004612f21565b6113f8565b34801561068e57600080fd5b5061028e61069d366004612f21565b611547565b3480156106ae57600080fd5b5061028e6106bd366004612f21565b611578565b3480156106ce57600080fd5b506103046106dd366004612f5b565b611594565b3480156106ee57600080fd5b5060035461070390600160b01b900460ff1681565b60405160ff9091168152602001610298565b34801561072157600080fd5b5061028e610730366004612f21565b6117c6565b34801561074157600080fd5b5060035461070390600160a81b900460ff1681565b34801561076257600080fd5b506002546103a9906001600160a01b031681565b34801561078257600080fd5b50610568610791366004612c42565b600d6020526000908152604090205460ff1681565b3480156107b257600080fd5b5061058d6117e2565b3480156107c757600080fd5b506107db6107d636600461300c565b611985565b60408051938452602084019290925290820152606001610298565b34801561080257600080fd5b50610568610811366004612c42565b60106020526000908152604090205460ff1681565b34801561083257600080fd5b50610304610841366004612c42565b61235f565b34801561085257600080fd5b5061085b6123ab565b60405161029891906130b2565b34801561087457600080fd5b50610304610883366004612d34565b6124f6565b34801561089457600080fd5b506006546103a9906001600160a01b031681565b3480156108b457600080fd5b506103046108c3366004612c42565b61282e565b3480156108d457600080fd5b5060035461056890600160a01b900460ff1681565b3480156108f557600080fd5b506003546103a9906001600160a01b031681565b6000546001600160a01b0316331461093c5760405162461bcd60e51b8152600401610933906130f5565b60405180910390fd5b8047101561098c5760405162461bcd60e51b815260206004820152601a60248201527f496e73756666696369656e742065746865722062616c616e63650000000000006044820152606401610933565b604051339082156108fc029083906000818181858888f193505050501580156109b9573d6000803e3d6000fd5b5050565b601381815481106109cd57600080fd5b600091825260209091200154905081565b60008042815b6001600160a01b038516600090815260076020526040902054811015610b7d576012546001600160a01b0386166000908152600960205260408120805491929184908110610a3457610a3461312a565b9060005260206000200154610a499190613156565b6001600160a01b0387166000908152600a60205260409020805484908110610a7357610a7361312a565b9060005260206000200154610a889190613175565b905080831115610b6a576001600160a01b038616600090815260096020526040812080546127109160049184919087908110610ac657610ac661312a565b9060005260206000200154815260200190815260200160002054600760008a6001600160a01b03166001600160a01b031681526020019081526020016000208581548110610b1657610b1661312a565b9060005260206000200154610b2b9190613156565b610b35919061318d565b600354909150610b5090600160a81b900460ff16600a613293565b610b5a908261318d565b9050610b668186613175565b9450505b5080610b758161329f565b9150506109e4565b50909392505050565b610b8e612b96565b610b9782612918565b610bb35760405162461bcd60e51b8152600401610933906132ba565b506000908152600560208181526040928390208351610120810185528154815260018201549281019290925260028101549382019390935260038301546060820152600483015460808201529082015460a0820152600682015460c0820152600782015460ff16151560e082015260089091015461010082015290565b60606013805480602002602001604051908101604052809291908181526020018280548015610c7e57602002820191906000526020600020905b815481526020019060010190808311610c6a575b5050505050905090565b606081610c9557600f5491505b6000610ca18385613175565b9050610cad84826132e9565b67ffffffffffffffff811115610cc557610cc5612fc5565b604051908082528060200260200182016040528015610cfe57816020015b610ceb612be4565b815260200190600190039081610ce35790505b50915060005b610d0e85836132e9565b811015610d8457610d54600e60008784600f54610d2b91906132e9565b610d3591906132e9565b81526020810191909152604001600020546001600160a01b03166112bd565b838281518110610d6657610d6661312a565b60200260200101819052508080610d7c9061329f565b915050610d04565b505092915050565b6000546001600160a01b03163314610db65760405162461bcd60e51b8152600401610933906130f5565b610dbf81612918565b610ddb5760405162461bcd60e51b8152600401610933906132ba565b600080805b601354811015610e2d578360138281548110610dfe57610dfe61312a565b90600052602060002001541415610e1b5780925060019150610e2d565b80610e258161329f565b915050610de0565b5080610e4b5760405162461bcd60e51b8152600401610933906132ba565b60008381526005602081905260408220828155600181018390556002810183905560038101839055600481018390559081018290556006810182905560078101805460ff1916905560080155815b601354610ea8906001906132e9565b811015610f08576013610ebc826001613175565b81548110610ecc57610ecc61312a565b906000526020600020015460138281548110610eea57610eea61312a565b60009182526020909120015580610f008161329f565b915050610e99565b506013805480610f1a57610f1a613300565b60019003818190600052602060002001600090559055505050565b6000546001600160a01b03163314610f5f5760405162461bcd60e51b8152600401610933906130f5565b6001600160a01b038116610fa75760405162461bcd60e51b815260206004820152600f60248201526e496e76616c6964206164647265737360881b6044820152606401610933565b6001600160a01b03166000908152601060205260409020805460ff19166001179055565b6000546001600160a01b03163314610ff55760405162461bcd60e51b8152600401610933906130f5565b6001600160a01b03811661103d5760405162461bcd60e51b815260206004820152600f60248201526e496e76616c6964206164647265737360881b6044820152606401610933565b6001600160a01b03166000908152601060205260409020805460ff19169055565b600354604080516306fdde0360e01b815290516001600160a01b03909216916060918291600091829186916306fdde0391600480830192869291908290030181865afa1580156110b2573d6000803e3d6000fd5b505050506040513d6000823e601f3d908101601f191682016040526110da9190810190613316565b9350600360009054906101000a90046001600160a01b03166001600160a01b03166395d89b416040518163ffffffff1660e01b8152600401600060405180830381865afa15801561112f573d6000803e3d6000fd5b505050506040513d6000823e601f3d908101601f191682016040526111579190810190613316565b9250600360009054906101000a90046001600160a01b03166001600160a01b031663313ce5676040518163ffffffff1660e01b8152600401602060405180830381865afa1580156111ac573d6000803e3d6000fd5b505050506040513d601f19601f820116820180604052508101906111d091906133aa565b6003546040516370a0823160e01b81523060048201529193506001600160a01b0316906370a08231906024015b602060405180830381865afa15801561121a573d6000803e3d6000fd5b505050506040513d601f19601f8201168201806040525081019061123e91906133cd565b90509091929394565b6000546001600160a01b031633146112715760405162461bcd60e51b8152600401610933906130f5565b6127108111156112b85760405162461bcd60e51b8152602060048201526012602482015271496e76616c69642070657263656e7461676560701b6044820152606401610933565b601155565b6112c5612be4565b6040805160e0810182526001600160a01b0384168082526000818152600860209081528482205481850152828252600c8152848220548486015291815260098252839020805484518184028101840190955280855292936060850193909283018282801561135257602002820191906000526020600020905b81548152602001906001019080831161133e575b50505091835250506001600160a01b0384166000908152600b6020908152604091829020549083015201611385846109de565b81526001600160a01b0384166000908152600a602090815260409182902080548351818402810184019094528084529382019390918301828280156113e957602002820191906000526020600020905b8154815260200190600101908083116113d5575b50505050508152509050919050565b6000546001600160a01b031633146114225760405162461bcd60e51b8152600401610933906130f5565b6040516370a0823160e01b815230600482015281906001600160a01b038416906370a0823190602401602060405180830381865afa158015611468573d6000803e3d6000fd5b505050506040513d601f19601f8201168201806040525081019061148c91906133cd565b10156114d15760405162461bcd60e51b8152602060048201526014602482015273496e73756666696369656e742062616c616e636560601b6044820152606401610933565b60405163a9059cbb60e01b8152336004820152602481018290526001600160a01b0383169063a9059cbb906044016020604051808303816000875af115801561151e573d6000803e3d6000fd5b505050506040513d601f19601f8201168201806040525081019061154291906133e6565b505050565b6007602052816000526040600020818154811061156357600080fd5b90600052602060002001600091509150505481565b6009602052816000526040600020818154811061156357600080fd5b6000546001600160a01b031633146115be5760405162461bcd60e51b8152600401610933906130f5565b6127108611156116055760405162461bcd60e51b8152602060048201526012602482015271496e76616c69642070657263656e7461676560701b6044820152606401610933565b838510156116705760405162461bcd60e51b815260206004820152603260248201527f4d61782072617465206d7573742062652067726561746572207468616e206f7260448201527120657175616c20746f206d696e207261746560701b6064820152608401610933565b600082116116c05760405162461bcd60e51b815260206004820181905260248201527f537465702073697a65206d7573742062652067726561746572207468616e20306044820152606401610933565b60008881526004602052604090208690556116da88612918565b61171457601380546001810182556000919091527f66de8ffda797e3de9c05e8fc57b3bf0ec28a930d40b0d285d93c06501cf6a090018890555b60408051610120810182528981526020808201998a52818301988952606082019788526080820196875260a0820195865260c0820194855292151560e0820190815260008b8152600580865293812060088101805461010086019081529d9092529484905291518455985160018401559651600283015594516003820155925160048401559051928201929092559051600682015591516007909201805460ff19169215159290921790915590519055565b600a602052816000526040600020818154811061156357600080fd5b600254604080516306fdde0360e01b815290516001600160a01b03909216916060918291600091829186916306fdde0391600480830192869291908290030181865afa158015611836573d6000803e3d6000fd5b505050506040513d6000823e601f3d908101601f1916820160405261185e9190810190613316565b9350600260009054906101000a90046001600160a01b03166001600160a01b03166395d89b416040518163ffffffff1660e01b8152600401600060405180830381865afa1580156118b3573d6000803e3d6000fd5b505050506040513d6000823e601f3d908101601f191682016040526118db9190810190613316565b9250600260009054906101000a90046001600160a01b03166001600160a01b031663313ce5676040518163ffffffff1660e01b8152600401602060405180830381865afa158015611930573d6000803e3d6000fd5b505050506040513d601f19601f8201168201806040525081019061195491906133aa565b6002546040516370a0823160e01b81523060048201529193506001600160a01b0316906370a08231906024016111fd565b600080600061199e60005460ff600160a01b9091041690565b156119de5760405162461bcd60e51b815260206004820152601060248201526f14185d5cd8589b194e881c185d5cd95960821b6044820152606401610933565b6119e661296f565b3360009081526010602052604090205460ff1615611a395760405162461bcd60e51b815260206004820152601060248201526f4163636f756e74206973207370616d2160801b6044820152606401610933565b336000908152600860205260408120548190819042825b8951811015611eb9573360009081526007602052604081208b518c9084908110611a7c57611a7c61312a565b602002602001015181548110611a9457611a9461312a565b90600052602060002001541115611ea7576012543360009081526009602052604081208c519192918d9085908110611ace57611ace61312a565b602002602001015181548110611ae657611ae661312a565b9060005260206000200154611afb9190613156565b336000908152600a602052604090208c518d9085908110611b1e57611b1e61312a565b602002602001015181548110611b3657611b3661312a565b9060005260206000200154611b4b9190613175565b905080831115611cc35760006127106004600060096000336001600160a01b03166001600160a01b031681526020019081526020016000208f8781518110611b9557611b9561312a565b602002602001015181548110611bad57611bad61312a565b906000526020600020015481526020019081526020016000205460076000336001600160a01b03166001600160a01b031681526020019081526020016000208e8681518110611bfe57611bfe61312a565b602002602001015181548110611c1657611c1661312a565b9060005260206000200154611c2b9190613156565b611c35919061318d565b600354909150611c5090600160a81b900460ff16600a613293565b611c5a908261318d565b9050611c668188613175565b3360009081526007602052604090208d51919850908d9085908110611c8d57611c8d61312a565b602002602001015181548110611ca557611ca561312a565b906000526020600020015488611cbb9190613175565b975050611dc9565b60115460009015611d59576011543360009081526007602052604090208d516127109291908f9087908110611cfa57611cfa61312a565b602002602001015181548110611d1257611d1261312a565b9060005260206000200154611d279190613156565b611d31919061318d565b600354909150611d4c90600160a81b900460ff16600a613293565b611d56908261318d565b90505b3360009081526007602052604081208d518391908f9087908110611d7f57611d7f61312a565b602002602001015181548110611d9757611d9761312a565b9060005260206000200154611dac91906132e9565b9050611db8818a613175565b9850611dc48288613175565b965050505b3360009081526007602052604090208b518c9084908110611dec57611dec61312a565b602002602001015181548110611e0457611e0461312a565b9060005260206000200154600560008d8581518110611e2557611e2561312a565b602002602001015181526020019081526020016000206008016000828254611e4d91906132e9565b90915550503360009081526007602052604090208b518c9084908110611e7557611e7561312a565b602002602001015181548110611e8d57611e8d61312a565b906000526020600020015484611ea391906132e9565b9350505b80611eb18161329f565b915050611a50565b5060005b89518110156120f95760008a8281518110611eda57611eda61312a565b602002602001015190505b33600090815260076020526040902054611f01906001906132e9565b81101561204757336000908152600760205260409020611f22826001613175565b81548110611f3257611f3261312a565b600091825260208083209091015433835260079091526040909120805483908110611f5f57611f5f61312a565b6000918252602080832090910192909255338152600990915260409020611f87826001613175565b81548110611f9757611f9761312a565b600091825260208083209091015433835260099091526040909120805483908110611fc457611fc461312a565b6000918252602080832090910192909255338152600a90915260409020611fec826001613175565b81548110611ffc57611ffc61312a565b6000918252602080832090910154338352600a90915260409091208054839081106120295761202961312a565b6000918252602090912001558061203f8161329f565b915050611ee5565b5033600090815260076020526040902080548061206657612066613300565b600082815260208082208301600019908101839055909201909255338252600990526040902080548061209b5761209b613300565b600082815260208082208301600019908101839055909201909255338252600a9052604090208054806120d0576120d0613300565b6001900381819060005260206000200160009055905580806120f19061329f565b915050611ebd565b5084156121aa576002546003546001600160a01b039091169063a9059cbb90339061212f90600160a81b900460ff16600a613293565b612139908961318d565b6040516001600160e01b031960e085901b1681526001600160a01b03909216600483015260248201526044016020604051808303816000875af1158015612184573d6000803e3d6000fd5b505050506040513d601f19601f820116820180604052508101906121a891906133e6565b505b8315612256576003546001600160a01b0381169063a9059cbb9033906121db90600160b01b900460ff16600a613293565b6121e5908861318d565b6040516001600160e01b031960e085901b1681526001600160a01b03909216600483015260248201526044016020604051808303816000875af1158015612230573d6000803e3d6000fd5b505050506040513d601f19601f8201168201806040525081019061225491906133e6565b505b8215612309576002546006546003546001600160a01b039283169263a9059cbb92169061228e90600160a81b900460ff16600a613293565b612298908761318d565b6040516001600160e01b031960e085901b1681526001600160a01b03909216600483015260248201526044016020604051808303816000875af11580156122e3573d6000803e3d6000fd5b505050506040513d601f19601f8201168201806040525081019061230791906133e6565b505b336000908152600860209081526040808320859055600b90915281208054869290612335908490613175565b9091555050336000908152600c602052604090204290555050600180559196909550909350915050565b6000546001600160a01b031633146123895760405162461bcd60e51b8152600401610933906130f5565b600680546001600160a01b0319166001600160a01b0392909216919091179055565b601354606090156124f35760135467ffffffffffffffff8111156123d1576123d1612fc5565b60405190808252806020026020018201604052801561240a57816020015b6123f7612b96565b8152602001906001900390816123ef5790505b50905060005b6013548110156124f15760056000601383815481106124315761243161312a565b9060005260206000200154815260200190815260200160002060405180610120016040529081600082015481526020016001820154815260200160028201548152602001600382015481526020016004820154815260200160058201548152602001600682015481526020016007820160009054906101000a900460ff161515151581526020016008820154815250508282815181106124d3576124d361312a565b602002602001018190525080806124e99061329f565b915050612410565b505b90565b600054600160a01b900460ff16156125435760405162461bcd60e51b815260206004820152601060248201526f14185d5cd8589b194e881c185d5cd95960821b6044820152606401610933565b61254b61296f565b3360009081526010602052604090205460ff161561259e5760405162461bcd60e51b815260206004820152601060248201526f4163636f756e74206973207370616d2160801b6044820152606401610933565b6125a781612918565b6125e95760405162461bcd60e51b8152602060048201526013602482015272125b9d985b1a59081b1bd8dac81c195c9a5bd9606a1b6044820152606401610933565b60008181526005602052604090206001015482101561263b5760405162461bcd60e51b815260206004820152600e60248201526d125b9d985b1a5908185b5bdd5b9d60921b6044820152606401610933565b6002546040516323b872dd60e01b81523360048201523060248201526044810184905242916001600160a01b0316906323b872dd906064016020604051808303816000875af1158015612692573d6000803e3d6000fd5b505050506040513d601f19601f820116820180604052508101906126b691906133e6565b5033600081815260076020908152604080832080546001818101835591855283852001889055848452600a835281842080549182018155845282842064ffffffffff8716910155928252600890529081208054859290612717908490613175565b9091555050336000818152600960209081526040808320805460018101825590845282842001869055928252600c815282822042905584825260059052908120600801805485929061276a908490613175565b9091555050336000908152600d602052604090205460ff166127d757600f80549060006127968361329f565b9091555050600f546000908152600e6020908152604080832080546001600160a01b031916339081179091558352600d9091529020805460ff191660011790555b6127df6129c9565b6040805184815260208101849052908101829052309033907fe44628ed4b392c5ef46ffc833d640eefd957e81a312e583e0cc57eed5f04ada39060600160405180910390a3506109b960018055565b6000546001600160a01b031633146128585760405162461bcd60e51b8152600401610933906130f5565b6001600160a01b0381166128bd5760405162461bcd60e51b815260206004820152602660248201527f4f776e61626c653a206e6577206f776e657220697320746865207a65726f206160448201526564647265737360d01b6064820152608401610933565b600080546040516001600160a01b03808516939216917f8be0079c531659141344cd1fd0a4f28419497f9722a3daafe3b4186f6b6457e091a3600080546001600160a01b0319166001600160a01b0392909216919091179055565b6000805b60135481101561296657826013828154811061293a5761293a61312a565b906000526020600020015414156129545750600192915050565b8061295e8161329f565b91505061291c565b50600092915050565b600260015414156129c25760405162461bcd60e51b815260206004820152601f60248201527f5265656e7472616e637947756172643a207265656e7472616e742063616c6c006044820152606401610933565b6002600155565b6002546040516370a0823160e01b81523060048201526000916001600160a01b0316906370a0823190602401602060405180830381865afa158015612a12573d6000803e3d6000fd5b505050506040513d601f19601f82011682018060405250810190612a3691906133cd565b905060005b6013548110156109b957600060138281548110612a5a57612a5a61312a565b6000918252602080832090910154808352600580835260409384902084516101208101865281548152600182015494810194909452600281015494840194909452600384015460608401526004840154608084015283015460a0830152600683015460c0830152600783015460ff16151560e08301819052600890930154610100830152925090612b815760008160c0015185612af7919061318d565b905060008260a0015182612b0b9190613156565b905082608001518360600151612b2191906132e9565b8111612b4b57808360600151612b3791906132e9565b600085815260046020526040902055612b60565b60808301516000858152600460205260409020555b50506000828152600460209081526040808320546005909252909120600201555b50508080612b8e9061329f565b915050612a3b565b60405180610120016040528060008152602001600081526020016000815260200160008152602001600081526020016000815260200160008152602001600015158152602001600081525090565b6040518060e0016040528060006001600160a01b031681526020016000815260200160008152602001606081526020016000815260200160008152602001606081525090565b6001600160a01b0381168114612c3f57600080fd5b50565b600060208284031215612c5457600080fd5b8135612c5f81612c2a565b9392505050565b600060208284031215612c7857600080fd5b5035919050565b805182526020810151602083015260408101516040830152606081015160608301526080810151608083015260a081015160a083015260c081015160c083015260e0810151151560e08301526101008082015181840152505050565b6101208101612cea8284612c7f565b92915050565b6020808252825182820181905260009190848201906040850190845b81811015612d2857835183529284019291840191600101612d0c565b50909695505050505050565b60008060408385031215612d4757600080fd5b50508035926020909101359150565b600081518084526020808501945080840160005b83811015612d8657815187529582019590820190600101612d6a565b509495945050505050565b60018060a01b03815116825260208101516020830152604081015160408301526000606082015160e06060850152612dcc60e0850182612d56565b90506080830151608085015260a083015160a085015260c083015184820360c0860152612df98282612d56565b95945050505050565b6000602080830181845280855180835260408601915060408160051b870101925083870160005b82811015612e5757603f19888603018452612e45858351612d91565b94509285019290850190600101612e29565b5092979650505050505050565b60005b83811015612e7f578181015183820152602001612e67565b83811115612e8e576000848401525b50505050565b60008151808452612eac816020860160208601612e64565b601f01601f19169290920160200192915050565b6001600160a01b038616815260a060208201819052600090612ee490830187612e94565b8281036040840152612ef68187612e94565b60ff9590951660608401525050608001529392505050565b602081526000612c5f6020830184612d91565b60008060408385031215612f3457600080fd5b8235612f3f81612c2a565b946020939093013593505050565b8015158114612c3f57600080fd5b600080600080600080600080610100898b031215612f7857600080fd5b883597506020890135965060408901359550606089013594506080890135935060a0890135925060c0890135915060e0890135612fb481612f4d565b809150509295985092959890939650565b634e487b7160e01b600052604160045260246000fd5b604051601f8201601f1916810167ffffffffffffffff8111828210171561300457613004612fc5565b604052919050565b6000602080838503121561301f57600080fd5b823567ffffffffffffffff8082111561303757600080fd5b818501915085601f83011261304b57600080fd5b81358181111561305d5761305d612fc5565b8060051b915061306e848301612fdb565b818152918301840191848101908884111561308857600080fd5b938501935b838510156130a65784358252938501939085019061308d565b98975050505050505050565b6020808252825182820181905260009190848201906040850190845b81811015612d28576130e1838551612c7f565b9284019261012092909201916001016130ce565b6020808252818101527f4f776e61626c653a2063616c6c6572206973206e6f7420746865206f776e6572604082015260600190565b634e487b7160e01b600052603260045260246000fd5b634e487b7160e01b600052601160045260246000fd5b600081600019048311821515161561317057613170613140565b500290565b6000821982111561318857613188613140565b500190565b6000826131aa57634e487b7160e01b600052601260045260246000fd5b500490565b600181815b808511156131ea5781600019048211156131d0576131d0613140565b808516156131dd57918102915b93841c93908002906131b4565b509250929050565b60008261320157506001612cea565b8161320e57506000612cea565b8160018114613224576002811461322e5761324a565b6001915050612cea565b60ff84111561323f5761323f613140565b50506001821b612cea565b5060208310610133831016604e8410600b841016171561326d575081810a612cea565b61327783836131af565b806000190482111561328b5761328b613140565b029392505050565b6000612c5f83836131f2565b60006000198214156132b3576132b3613140565b5060010190565b602080825260159082015274131bd8dac81c195c9a5bd9081b9bdd08199bdd5b99605a1b604082015260600190565b6000828210156132fb576132fb613140565b500390565b634e487b7160e01b600052603160045260246000fd5b60006020828403121561332857600080fd5b815167ffffffffffffffff8082111561334057600080fd5b818401915084601f83011261335457600080fd5b81518181111561336657613366612fc5565b613379601f8201601f1916602001612fdb565b915080825285602082850101111561339057600080fd5b6133a1816020840160208601612e64565b50949350505050565b6000602082840312156133bc57600080fd5b815160ff81168114612c5f57600080fd5b6000602082840312156133df57600080fd5b5051919050565b6000602082840312156133f857600080fd5b8151612c5f81612f4d56fea2646970667358221220c0a10343c3404b8c1800a0ad0ff9b968439653f772393a267c8a843e87bc19c464736f6c634300080c0033",
			"opcodes": "PUSH1 0x80 PUSH1 0x40 MSTORE PUSH1 0x3 DUP1 SLOAD PUSH1 0xFF PUSH1 0xA0 SHL NOT AND PUSH1 0x1 PUSH1 0xA0 SHL OR SWAP1 SSTORE PUSH2 0x9C4 PUSH1 0x11 SSTORE PUSH1 0x3C PUSH1 0x12 SSTORE CALLVALUE DUP1 ISZERO PUSH3 0x2F JUMPI PUSH1 0x0 DUP1 REVERT JUMPDEST POP PUSH1 0x40 MLOAD PUSH3 0x3CEE CODESIZE SUB DUP1 PUSH3 0x3CEE DUP4 CODECOPY DUP2 ADD PUSH1 0x40 DUP2 SWAP1 MSTORE PUSH3 0x52 SWAP2 PUSH3 0x6C0 JUMP JUMPDEST PUSH1 0x0 DUP1 SLOAD PUSH1 0x1 PUSH1 0x1 PUSH1 0xA0 SHL SUB NOT AND CALLER SWAP1 DUP2 OR DUP3 SSTORE PUSH1 0x40 MLOAD SWAP1 SWAP2 SWAP1 PUSH32 0x8BE0079C531659141344CD1FD0A4F28419497F9722A3DAAFE3B4186F6B6457E0 SWAP1 DUP3 SWAP1 LOG3 PUSH1 0x0 DUP1 SLOAD PUSH1 0xFF PUSH1 0xA0 SHL NOT AND SWAP1 SSTORE PUSH1 0x1 DUP1 SSTORE PUSH1 0x2 DUP1 SLOAD PUSH1 0x1 PUSH1 0x1 PUSH1 0xA0 SHL SUB DUP1 DUP9 AND PUSH1 0x1 PUSH1 0x1 PUSH1 0xA0 SHL SUB NOT SWAP3 DUP4 AND DUP2 OR SWAP1 SWAP4 SSTORE PUSH1 0x3 DUP1 SLOAD SWAP2 DUP9 AND SWAP2 SWAP1 SWAP3 AND OR SWAP1 SSTORE PUSH1 0x11 DUP4 SWAP1 SSTORE PUSH1 0x40 DUP1 MLOAD PUSH4 0x313CE567 PUSH1 0xE0 SHL DUP2 MSTORE SWAP1 MLOAD PUSH4 0x313CE567 SWAP2 PUSH1 0x4 DUP1 DUP3 ADD SWAP3 PUSH1 0x20 SWAP3 SWAP1 SWAP2 SWAP1 DUP3 SWAP1 SUB ADD DUP2 DUP7 GAS STATICCALL ISZERO DUP1 ISZERO PUSH3 0x111 JUMPI RETURNDATASIZE PUSH1 0x0 DUP1 RETURNDATACOPY RETURNDATASIZE PUSH1 0x0 REVERT JUMPDEST POP POP POP POP PUSH1 0x40 MLOAD RETURNDATASIZE PUSH1 0x1F NOT PUSH1 0x1F DUP3 ADD AND DUP3 ADD DUP1 PUSH1 0x40 MSTORE POP DUP2 ADD SWAP1 PUSH3 0x137 SWAP2 SWAP1 PUSH3 0x839 JUMP JUMPDEST PUSH1 0x3 PUSH1 0x15 PUSH2 0x100 EXP DUP2 SLOAD DUP2 PUSH1 0xFF MUL NOT AND SWAP1 DUP4 PUSH1 0xFF AND MUL OR SWAP1 SSTORE POP PUSH1 0x3 PUSH1 0x0 SWAP1 SLOAD SWAP1 PUSH2 0x100 EXP SWAP1 DIV PUSH1 0x1 PUSH1 0x1 PUSH1 0xA0 SHL SUB AND PUSH1 0x1 PUSH1 0x1 PUSH1 0xA0 SHL SUB AND PUSH4 0x313CE567 PUSH1 0x40 MLOAD DUP2 PUSH4 0xFFFFFFFF AND PUSH1 0xE0 SHL DUP2 MSTORE PUSH1 0x4 ADD PUSH1 0x20 PUSH1 0x40 MLOAD DUP1 DUP4 SUB DUP2 DUP7 GAS STATICCALL ISZERO DUP1 ISZERO PUSH3 0x1A5 JUMPI RETURNDATASIZE PUSH1 0x0 DUP1 RETURNDATACOPY RETURNDATASIZE PUSH1 0x0 REVERT JUMPDEST POP POP POP POP PUSH1 0x40 MLOAD RETURNDATASIZE PUSH1 0x1F NOT PUSH1 0x1F DUP3 ADD AND DUP3 ADD DUP1 PUSH1 0x40 MSTORE POP DUP2 ADD SWAP1 PUSH3 0x1CB SWAP2 SWAP1 PUSH3 0x839 JUMP JUMPDEST PUSH1 0x3 DUP1 SLOAD PUSH1 0xFF PUSH1 0xB0 SHL NOT AND PUSH1 0x1 PUSH1 0xB0 SHL PUSH1 0xFF SWAP4 SWAP1 SWAP4 AND SWAP3 SWAP1 SWAP3 MUL SWAP2 SWAP1 SWAP2 OR SWAP1 SSTORE PUSH1 0x6 DUP1 SLOAD PUSH1 0x1 PUSH1 0x1 PUSH1 0xA0 SHL SUB NOT AND PUSH1 0x1 PUSH1 0x1 PUSH1 0xA0 SHL SUB DUP6 AND OR SWAP1 SSTORE PUSH1 0x0 JUMPDEST DUP2 MLOAD DUP2 LT ISZERO PUSH3 0x340 JUMPI PUSH3 0x32B DUP3 DUP3 DUP2 MLOAD DUP2 LT PUSH3 0x22C JUMPI PUSH3 0x22C PUSH3 0x865 JUMP JUMPDEST PUSH1 0x20 MUL PUSH1 0x20 ADD ADD MLOAD PUSH1 0x0 ADD MLOAD DUP4 DUP4 DUP2 MLOAD DUP2 LT PUSH3 0x24D JUMPI PUSH3 0x24D PUSH3 0x865 JUMP JUMPDEST PUSH1 0x20 MUL PUSH1 0x20 ADD ADD MLOAD PUSH1 0x20 ADD MLOAD DUP5 DUP5 DUP2 MLOAD DUP2 LT PUSH3 0x26E JUMPI PUSH3 0x26E PUSH3 0x865 JUMP JUMPDEST PUSH1 0x20 MUL PUSH1 0x20 ADD ADD MLOAD PUSH1 0x40 ADD MLOAD DUP6 DUP6 DUP2 MLOAD DUP2 LT PUSH3 0x28F JUMPI PUSH3 0x28F PUSH3 0x865 JUMP JUMPDEST PUSH1 0x20 MUL PUSH1 0x20 ADD ADD MLOAD PUSH1 0x60 ADD MLOAD DUP7 DUP7 DUP2 MLOAD DUP2 LT PUSH3 0x2B0 JUMPI PUSH3 0x2B0 PUSH3 0x865 JUMP JUMPDEST PUSH1 0x20 MUL PUSH1 0x20 ADD ADD MLOAD PUSH1 0x80 ADD MLOAD DUP8 DUP8 DUP2 MLOAD DUP2 LT PUSH3 0x2D1 JUMPI PUSH3 0x2D1 PUSH3 0x865 JUMP JUMPDEST PUSH1 0x20 MUL PUSH1 0x20 ADD ADD MLOAD PUSH1 0xA0 ADD MLOAD DUP9 DUP9 DUP2 MLOAD DUP2 LT PUSH3 0x2F2 JUMPI PUSH3 0x2F2 PUSH3 0x865 JUMP JUMPDEST PUSH1 0x20 MUL PUSH1 0x20 ADD ADD MLOAD PUSH1 0xC0 ADD MLOAD DUP10 DUP10 DUP2 MLOAD DUP2 LT PUSH3 0x313 JUMPI PUSH3 0x313 PUSH3 0x865 JUMP JUMPDEST PUSH1 0x20 MUL PUSH1 0x20 ADD ADD MLOAD PUSH1 0xE0 ADD MLOAD PUSH3 0x34C PUSH1 0x20 SHL PUSH1 0x20 SHR JUMP JUMPDEST DUP1 PUSH3 0x337 DUP2 PUSH3 0x87B JUMP JUMPDEST SWAP2 POP POP PUSH3 0x209 JUMP JUMPDEST POP POP POP POP POP POP PUSH3 0x8A5 JUMP JUMPDEST PUSH1 0x0 SLOAD PUSH1 0x1 PUSH1 0x1 PUSH1 0xA0 SHL SUB AND CALLER EQ PUSH3 0x3AC JUMPI PUSH1 0x40 MLOAD PUSH3 0x461BCD PUSH1 0xE5 SHL DUP2 MSTORE PUSH1 0x20 PUSH1 0x4 DUP3 ADD DUP2 SWAP1 MSTORE PUSH1 0x24 DUP3 ADD MSTORE PUSH32 0x4F776E61626C653A2063616C6C6572206973206E6F7420746865206F776E6572 PUSH1 0x44 DUP3 ADD MSTORE PUSH1 0x64 ADD JUMPDEST PUSH1 0x40 MLOAD DUP1 SWAP2 SUB SWAP1 REVERT JUMPDEST PUSH2 0x2710 DUP7 GT ISZERO PUSH3 0x3F5 JUMPI PUSH1 0x40 MLOAD PUSH3 0x461BCD PUSH1 0xE5 SHL DUP2 MSTORE PUSH1 0x20 PUSH1 0x4 DUP3 ADD MSTORE PUSH1 0x12 PUSH1 0x24 DUP3 ADD MSTORE PUSH18 0x496E76616C69642070657263656E74616765 PUSH1 0x70 SHL PUSH1 0x44 DUP3 ADD MSTORE PUSH1 0x64 ADD PUSH3 0x3A3 JUMP JUMPDEST DUP4 DUP6 LT ISZERO PUSH3 0x462 JUMPI PUSH1 0x40 MLOAD PUSH3 0x461BCD PUSH1 0xE5 SHL DUP2 MSTORE PUSH1 0x20 PUSH1 0x4 DUP3 ADD MSTORE PUSH1 0x32 PUSH1 0x24 DUP3 ADD MSTORE PUSH32 0x4D61782072617465206D7573742062652067726561746572207468616E206F72 PUSH1 0x44 DUP3 ADD MSTORE PUSH18 0x20657175616C20746F206D696E2072617465 PUSH1 0x70 SHL PUSH1 0x64 DUP3 ADD MSTORE PUSH1 0x84 ADD PUSH3 0x3A3 JUMP JUMPDEST PUSH1 0x0 DUP3 GT PUSH3 0x4B4 JUMPI PUSH1 0x40 MLOAD PUSH3 0x461BCD PUSH1 0xE5 SHL DUP2 MSTORE PUSH1 0x20 PUSH1 0x4 DUP3 ADD DUP2 SWAP1 MSTORE PUSH1 0x24 DUP3 ADD MSTORE PUSH32 0x537465702073697A65206D7573742062652067726561746572207468616E2030 PUSH1 0x44 DUP3 ADD MSTORE PUSH1 0x64 ADD PUSH3 0x3A3 JUMP JUMPDEST PUSH1 0x0 DUP9 DUP2 MSTORE PUSH1 0x4 PUSH1 0x20 MSTORE PUSH1 0x40 SWAP1 KECCAK256 DUP7 SWAP1 SSTORE PUSH3 0x4D0 DUP9 PUSH3 0x5BD JUMP JUMPDEST PUSH3 0x50B JUMPI PUSH1 0x13 DUP1 SLOAD PUSH1 0x1 DUP2 ADD DUP3 SSTORE PUSH1 0x0 SWAP2 SWAP1 SWAP2 MSTORE PUSH32 0x66DE8FFDA797E3DE9C05E8FC57B3BF0EC28A930D40B0D285D93C06501CF6A090 ADD DUP9 SWAP1 SSTORE JUMPDEST PUSH1 0x40 DUP1 MLOAD PUSH2 0x120 DUP2 ADD DUP3 MSTORE DUP10 DUP2 MSTORE PUSH1 0x20 DUP1 DUP3 ADD SWAP10 DUP11 MSTORE DUP2 DUP4 ADD SWAP9 DUP10 MSTORE PUSH1 0x60 DUP3 ADD SWAP8 DUP9 MSTORE PUSH1 0x80 DUP3 ADD SWAP7 DUP8 MSTORE PUSH1 0xA0 DUP3 ADD SWAP6 DUP7 MSTORE PUSH1 0xC0 DUP3 ADD SWAP5 DUP6 MSTORE SWAP3 ISZERO ISZERO PUSH1 0xE0 DUP3 ADD SWAP1 DUP2 MSTORE PUSH1 0x0 DUP12 DUP2 MSTORE PUSH1 0x5 DUP1 DUP7 MSTORE SWAP4 DUP2 KECCAK256 PUSH1 0x8 DUP2 ADD DUP1 SLOAD PUSH2 0x100 DUP7 ADD SWAP1 DUP2 MSTORE SWAP14 SWAP1 SWAP3 MSTORE SWAP5 DUP5 SWAP1 MSTORE SWAP2 MLOAD DUP5 SSTORE SWAP9 MLOAD PUSH1 0x1 DUP5 ADD SSTORE SWAP7 MLOAD PUSH1 0x2 DUP4 ADD SSTORE SWAP5 MLOAD PUSH1 0x3 DUP3 ADD SSTORE SWAP3 MLOAD PUSH1 0x4 DUP5 ADD SSTORE SWAP1 MLOAD SWAP3 DUP3 ADD SWAP3 SWAP1 SWAP3 SSTORE SWAP1 MLOAD PUSH1 0x6 DUP3 ADD SSTORE SWAP2 MLOAD PUSH1 0x7 SWAP1 SWAP3 ADD DUP1 SLOAD PUSH1 0xFF NOT AND SWAP3 ISZERO ISZERO SWAP3 SWAP1 SWAP3 OR SWAP1 SWAP2 SSTORE SWAP1 MLOAD SWAP1 SSTORE JUMP JUMPDEST PUSH1 0x0 DUP1 JUMPDEST PUSH1 0x13 SLOAD DUP2 LT ISZERO PUSH3 0x613 JUMPI DUP3 PUSH1 0x13 DUP3 DUP2 SLOAD DUP2 LT PUSH3 0x5E3 JUMPI PUSH3 0x5E3 PUSH3 0x865 JUMP JUMPDEST SWAP1 PUSH1 0x0 MSTORE PUSH1 0x20 PUSH1 0x0 KECCAK256 ADD SLOAD EQ ISZERO PUSH3 0x5FE JUMPI POP PUSH1 0x1 SWAP3 SWAP2 POP POP JUMP JUMPDEST DUP1 PUSH3 0x60A DUP2 PUSH3 0x87B JUMP JUMPDEST SWAP2 POP POP PUSH3 0x5C1 JUMP JUMPDEST POP PUSH1 0x0 SWAP3 SWAP2 POP POP JUMP JUMPDEST PUSH1 0x1 PUSH1 0x1 PUSH1 0xA0 SHL SUB DUP2 AND DUP2 EQ PUSH3 0x632 JUMPI PUSH1 0x0 DUP1 REVERT JUMPDEST POP JUMP JUMPDEST PUSH4 0x4E487B71 PUSH1 0xE0 SHL PUSH1 0x0 MSTORE PUSH1 0x41 PUSH1 0x4 MSTORE PUSH1 0x24 PUSH1 0x0 REVERT JUMPDEST PUSH1 0x40 MLOAD PUSH2 0x120 DUP2 ADD PUSH1 0x1 PUSH1 0x1 PUSH1 0x40 SHL SUB DUP2 GT DUP3 DUP3 LT OR ISZERO PUSH3 0x671 JUMPI PUSH3 0x671 PUSH3 0x635 JUMP JUMPDEST PUSH1 0x40 MSTORE SWAP1 JUMP JUMPDEST PUSH1 0x40 MLOAD PUSH1 0x1F DUP3 ADD PUSH1 0x1F NOT AND DUP2 ADD PUSH1 0x1 PUSH1 0x1 PUSH1 0x40 SHL SUB DUP2 GT DUP3 DUP3 LT OR ISZERO PUSH3 0x6A2 JUMPI PUSH3 0x6A2 PUSH3 0x635 JUMP JUMPDEST PUSH1 0x40 MSTORE SWAP2 SWAP1 POP JUMP JUMPDEST DUP1 MLOAD DUP1 ISZERO ISZERO DUP2 EQ PUSH3 0x6BB JUMPI PUSH1 0x0 DUP1 REVERT JUMPDEST SWAP2 SWAP1 POP JUMP JUMPDEST PUSH1 0x0 DUP1 PUSH1 0x0 DUP1 PUSH1 0x0 PUSH1 0xA0 DUP7 DUP9 SUB SLT ISZERO PUSH3 0x6D9 JUMPI PUSH1 0x0 DUP1 REVERT JUMPDEST DUP6 MLOAD PUSH3 0x6E6 DUP2 PUSH3 0x61C JUMP JUMPDEST DUP1 SWAP6 POP POP PUSH1 0x20 DUP1 DUP8 ADD MLOAD PUSH3 0x6FB DUP2 PUSH3 0x61C JUMP JUMPDEST PUSH1 0x40 DUP9 ADD MLOAD SWAP1 SWAP6 POP PUSH3 0x70E DUP2 PUSH3 0x61C JUMP JUMPDEST PUSH1 0x60 DUP9 ADD MLOAD PUSH1 0x80 DUP1 DUP11 ADD MLOAD SWAP3 SWAP7 POP SWAP1 SWAP5 POP SWAP1 PUSH1 0x1 PUSH1 0x1 PUSH1 0x40 SHL SUB DUP1 DUP3 GT ISZERO PUSH3 0x736 JUMPI PUSH1 0x0 DUP1 REVERT JUMPDEST DUP2 DUP11 ADD SWAP2 POP DUP11 PUSH1 0x1F DUP4 ADD SLT PUSH3 0x74B JUMPI PUSH1 0x0 DUP1 REVERT JUMPDEST DUP2 MLOAD DUP2 DUP2 GT ISZERO PUSH3 0x760 JUMPI PUSH3 0x760 PUSH3 0x635 JUMP JUMPDEST PUSH3 0x770 DUP6 DUP3 PUSH1 0x5 SHL ADD PUSH3 0x677 JUMP JUMPDEST DUP2 DUP2 MSTORE DUP6 DUP2 ADD SWAP3 POP PUSH2 0x120 SWAP2 DUP3 MUL DUP5 ADD DUP7 ADD SWAP2 DUP14 DUP4 GT ISZERO PUSH3 0x791 JUMPI PUSH1 0x0 DUP1 REVERT JUMPDEST SWAP4 DUP7 ADD SWAP4 JUMPDEST DUP3 DUP6 LT ISZERO PUSH3 0x825 JUMPI DUP1 DUP6 DUP16 SUB SLT ISZERO PUSH3 0x7B0 JUMPI PUSH1 0x0 DUP1 DUP2 REVERT JUMPDEST PUSH3 0x7BA PUSH3 0x64B JUMP JUMPDEST DUP6 MLOAD DUP2 MSTORE DUP8 DUP7 ADD MLOAD DUP9 DUP3 ADD MSTORE PUSH1 0x40 DUP7 ADD MLOAD PUSH1 0x40 DUP3 ADD MSTORE PUSH1 0x60 DUP7 ADD MLOAD PUSH1 0x60 DUP3 ADD MSTORE DUP7 DUP7 ADD MLOAD DUP8 DUP3 ADD MSTORE PUSH1 0xA0 DUP7 ADD MLOAD PUSH1 0xA0 DUP3 ADD MSTORE PUSH1 0xC0 DUP1 DUP8 ADD MLOAD DUP2 DUP4 ADD MSTORE POP PUSH1 0xE0 PUSH3 0x806 DUP2 DUP9 ADD PUSH3 0x6AA JUMP JUMPDEST SWAP1 DUP3 ADD MSTORE PUSH2 0x100 DUP7 DUP2 ADD MLOAD SWAP1 DUP3 ADD MSTORE DUP5 MSTORE SWAP4 DUP5 ADD SWAP4 SWAP3 DUP7 ADD SWAP3 PUSH3 0x796 JUMP JUMPDEST POP DUP1 SWAP7 POP POP POP POP POP POP POP SWAP3 SWAP6 POP SWAP3 SWAP6 SWAP1 SWAP4 POP JUMP JUMPDEST PUSH1 0x0 PUSH1 0x20 DUP3 DUP5 SUB SLT ISZERO PUSH3 0x84C JUMPI PUSH1 0x0 DUP1 REVERT JUMPDEST DUP2 MLOAD PUSH1 0xFF DUP2 AND DUP2 EQ PUSH3 0x85E JUMPI PUSH1 0x0 DUP1 REVERT JUMPDEST SWAP4 SWAP3 POP POP POP JUMP JUMPDEST PUSH4 0x4E487B71 PUSH1 0xE0 SHL PUSH1 0x0 MSTORE PUSH1 0x32 PUSH1 0x4 MSTORE PUSH1 0x24 PUSH1 0x0 REVERT JUMPDEST PUSH1 0x0 PUSH1 0x0 NOT DUP3 EQ ISZERO PUSH3 0x89E JUMPI PUSH4 0x4E487B71 PUSH1 0xE0 SHL PUSH1 0x0 MSTORE PUSH1 0x11 PUSH1 0x4 MSTORE PUSH1 0x24 PUSH1 0x0 REVERT JUMPDEST POP PUSH1 0x1 ADD SWAP1 JUMP JUMPDEST PUSH2 0x3439 DUP1 PUSH3 0x8B5 PUSH1 0x0 CODECOPY PUSH1 0x0 RETURN INVALID PUSH1 0x80 PUSH1 0x40 MSTORE PUSH1 0x4 CALLDATASIZE LT PUSH2 0x255 JUMPI PUSH1 0x0 CALLDATALOAD PUSH1 0xE0 SHR DUP1 PUSH4 0x850BAD94 GT PUSH2 0x139 JUMPI DUP1 PUSH4 0xC2E5FE76 GT PUSH2 0xB6 JUMPI DUP1 PUSH4 0xDE644C76 GT PUSH2 0x7A JUMPI DUP1 PUSH4 0xDE644C76 EQ PUSH2 0x846 JUMPI DUP1 PUSH4 0xE2BBB158 EQ PUSH2 0x868 JUMPI DUP1 PUSH4 0xF256DFC5 EQ PUSH2 0x888 JUMPI DUP1 PUSH4 0xF2FDE38B EQ PUSH2 0x8A8 JUMPI DUP1 PUSH4 0xF66E4BE3 EQ PUSH2 0x8C8 JUMPI DUP1 PUSH4 0xF7C618C1 EQ PUSH2 0x8E9 JUMPI PUSH1 0x0 DUP1 REVERT JUMPDEST DUP1 PUSH4 0xC2E5FE76 EQ PUSH2 0x776 JUMPI DUP1 PUSH4 0xC53C5FC1 EQ PUSH2 0x7A6 JUMPI DUP1 PUSH4 0xC5C35196 EQ PUSH2 0x7BB JUMPI DUP1 PUSH4 0xCD099205 EQ PUSH2 0x7F6 JUMPI DUP1 PUSH4 0xCD8DE42C EQ PUSH2 0x826 JUMPI PUSH1 0x0 DUP1 REVERT JUMPDEST DUP1 PUSH4 0x9A4577A2 GT PUSH2 0xFD JUMPI DUP1 PUSH4 0x9A4577A2 EQ PUSH2 0x6C2 JUMPI DUP1 PUSH4 0x9BDCECD1 EQ PUSH2 0x6E2 JUMPI DUP1 PUSH4 0xBA743F99 EQ PUSH2 0x715 JUMPI DUP1 PUSH4 0xC0941214 EQ PUSH2 0x735 JUMPI DUP1 PUSH4 0xC2412676 EQ PUSH2 0x756 JUMPI PUSH1 0x0 DUP1 REVERT JUMPDEST DUP1 PUSH4 0x850BAD94 EQ PUSH2 0x617 JUMPI DUP1 PUSH4 0x8DA5CB5B EQ PUSH2 0x644 JUMPI DUP1 PUSH4 0x917BB998 EQ PUSH2 0x662 JUMPI DUP1 PUSH4 0x91DC842E EQ PUSH2 0x682 JUMPI DUP1 PUSH4 0x95302CC0 EQ PUSH2 0x6A2 JUMPI PUSH1 0x0 DUP1 REVERT JUMPDEST DUP1 PUSH4 0x41EE13BE GT PUSH2 0x1D2 JUMPI DUP1 PUSH4 0x5C975ABB GT PUSH2 0x196 JUMPI DUP1 PUSH4 0x5C975ABB EQ PUSH2 0x54D JUMPI DUP1 PUSH4 0x647428B9 EQ PUSH2 0x578 JUMPI DUP1 PUSH4 0x6A1D18D2 EQ PUSH2 0x59E JUMPI DUP1 PUSH4 0x6B130DC2 EQ PUSH2 0x5BE JUMPI DUP1 PUSH4 0x6BA13A82 EQ PUSH2 0x5D4 JUMPI DUP1 PUSH4 0x6F77926B EQ PUSH2 0x5EA JUMPI PUSH1 0x0 DUP1 REVERT JUMPDEST DUP1 PUSH4 0x41EE13BE EQ PUSH2 0x49E JUMPI DUP1 PUSH4 0x45982A66 EQ PUSH2 0x4C0 JUMPI DUP1 PUSH4 0x4D70378A EQ PUSH2 0x4ED JUMPI DUP1 PUSH4 0x52B8745F EQ PUSH2 0x50D JUMPI DUP1 PUSH4 0x58098BF4 EQ PUSH2 0x52D JUMPI PUSH1 0x0 DUP1 REVERT JUMPDEST DUP1 PUSH4 0x2B4A16A0 GT PUSH2 0x219 JUMPI DUP1 PUSH4 0x2B4A16A0 EQ PUSH2 0x333 JUMPI DUP1 PUSH4 0x31D7A262 EQ PUSH2 0x353 JUMPI DUP1 PUSH4 0x365B98B2 EQ PUSH2 0x373 JUMPI DUP1 PUSH4 0x39129CFF EQ PUSH2 0x3C1 JUMPI DUP1 PUSH4 0x3D51C72D EQ PUSH2 0x471 JUMPI PUSH1 0x0 DUP1 REVERT JUMPDEST DUP1 PUSH4 0x3962D46 EQ PUSH2 0x261 JUMPI DUP1 PUSH4 0xA6F93E6 EQ PUSH2 0x2A1 JUMPI DUP1 PUSH4 0x16ADA547 EQ PUSH2 0x2CE JUMPI DUP1 PUSH4 0x230FFA0F EQ PUSH2 0x2E4 JUMPI DUP1 PUSH4 0x27BA372C EQ PUSH2 0x306 JUMPI PUSH1 0x0 DUP1 REVERT JUMPDEST CALLDATASIZE PUSH2 0x25C JUMPI STOP JUMPDEST PUSH1 0x0 DUP1 REVERT JUMPDEST CALLVALUE DUP1 ISZERO PUSH2 0x26D JUMPI PUSH1 0x0 DUP1 REVERT JUMPDEST POP PUSH2 0x28E PUSH2 0x27C CALLDATASIZE PUSH1 0x4 PUSH2 0x2C42 JUMP JUMPDEST PUSH1 0xB PUSH1 0x20 MSTORE PUSH1 0x0 SWAP1 DUP2 MSTORE PUSH1 0x40 SWAP1 KECCAK256 SLOAD DUP2 JUMP JUMPDEST PUSH1 0x40 MLOAD SWAP1 DUP2 MSTORE PUSH1 0x20 ADD JUMPDEST PUSH1 0x40 MLOAD DUP1 SWAP2 SUB SWAP1 RETURN JUMPDEST CALLVALUE DUP1 ISZERO PUSH2 0x2AD JUMPI PUSH1 0x0 DUP1 REVERT JUMPDEST POP PUSH2 0x28E PUSH2 0x2BC CALLDATASIZE PUSH1 0x4 PUSH2 0x2C42 JUMP JUMPDEST PUSH1 0xC PUSH1 0x20 MSTORE PUSH1 0x0 SWAP1 DUP2 MSTORE PUSH1 0x40 SWAP1 KECCAK256 SLOAD DUP2 JUMP JUMPDEST CALLVALUE DUP1 ISZERO PUSH2 0x2DA JUMPI PUSH1 0x0 DUP1 REVERT JUMPDEST POP PUSH2 0x28E PUSH1 0x12 SLOAD DUP2 JUMP JUMPDEST CALLVALUE DUP1 ISZERO PUSH2 0x2F0 JUMPI PUSH1 0x0 DUP1 REVERT JUMPDEST POP PUSH2 0x304 PUSH2 0x2FF CALLDATASIZE PUSH1 0x4 PUSH2 0x2C66 JUMP JUMPDEST PUSH2 0x909 JUMP JUMPDEST STOP JUMPDEST CALLVALUE DUP1 ISZERO PUSH2 0x312 JUMPI PUSH1 0x0 DUP1 REVERT JUMPDEST POP PUSH2 0x28E PUSH2 0x321 CALLDATASIZE PUSH1 0x4 PUSH2 0x2C42 JUMP JUMPDEST PUSH1 0x8 PUSH1 0x20 MSTORE PUSH1 0x0 SWAP1 DUP2 MSTORE PUSH1 0x40 SWAP1 KECCAK256 SLOAD DUP2 JUMP JUMPDEST CALLVALUE DUP1 ISZERO PUSH2 0x33F JUMPI PUSH1 0x0 DUP1 REVERT JUMPDEST POP PUSH2 0x28E PUSH2 0x34E CALLDATASIZE PUSH1 0x4 PUSH2 0x2C66 JUMP JUMPDEST PUSH2 0x9BD JUMP JUMPDEST CALLVALUE DUP1 ISZERO PUSH2 0x35F JUMPI PUSH1 0x0 DUP1 REVERT JUMPDEST POP PUSH2 0x28E PUSH2 0x36E CALLDATASIZE PUSH1 0x4 PUSH2 0x2C42 JUMP JUMPDEST PUSH2 0x9DE JUMP JUMPDEST CALLVALUE DUP1 ISZERO PUSH2 0x37F JUMPI PUSH1 0x0 DUP1 REVERT JUMPDEST POP PUSH2 0x3A9 PUSH2 0x38E CALLDATASIZE PUSH1 0x4 PUSH2 0x2C66 JUMP JUMPDEST PUSH1 0xE PUSH1 0x20 MSTORE PUSH1 0x0 SWAP1 DUP2 MSTORE PUSH1 0x40 SWAP1 KECCAK256 SLOAD PUSH1 0x1 PUSH1 0x1 PUSH1 0xA0 SHL SUB AND DUP2 JUMP JUMPDEST PUSH1 0x40 MLOAD PUSH1 0x1 PUSH1 0x1 PUSH1 0xA0 SHL SUB SWAP1 SWAP2 AND DUP2 MSTORE PUSH1 0x20 ADD PUSH2 0x298 JUMP JUMPDEST CALLVALUE DUP1 ISZERO PUSH2 0x3CD JUMPI PUSH1 0x0 DUP1 REVERT JUMPDEST POP PUSH2 0x42B PUSH2 0x3DC CALLDATASIZE PUSH1 0x4 PUSH2 0x2C66 JUMP JUMPDEST PUSH1 0x5 PUSH1 0x20 DUP2 SWAP1 MSTORE PUSH1 0x0 SWAP2 DUP3 MSTORE PUSH1 0x40 SWAP1 SWAP2 KECCAK256 DUP1 SLOAD PUSH1 0x1 DUP3 ADD SLOAD PUSH1 0x2 DUP4 ADD SLOAD PUSH1 0x3 DUP5 ADD SLOAD PUSH1 0x4 DUP6 ADD SLOAD SWAP6 DUP6 ADD SLOAD PUSH1 0x6 DUP7 ADD SLOAD PUSH1 0x7 DUP8 ADD SLOAD PUSH1 0x8 SWAP1 SWAP8 ADD SLOAD SWAP6 SWAP8 SWAP5 SWAP7 SWAP4 SWAP6 SWAP3 SWAP5 SWAP4 SWAP2 SWAP3 SWAP1 SWAP2 PUSH1 0xFF AND SWAP1 DUP10 JUMP JUMPDEST PUSH1 0x40 DUP1 MLOAD SWAP10 DUP11 MSTORE PUSH1 0x20 DUP11 ADD SWAP9 SWAP1 SWAP9 MSTORE SWAP7 DUP9 ADD SWAP6 SWAP1 SWAP6 MSTORE PUSH1 0x60 DUP8 ADD SWAP4 SWAP1 SWAP4 MSTORE PUSH1 0x80 DUP7 ADD SWAP2 SWAP1 SWAP2 MSTORE PUSH1 0xA0 DUP6 ADD MSTORE PUSH1 0xC0 DUP5 ADD MSTORE ISZERO ISZERO PUSH1 0xE0 DUP4 ADD MSTORE PUSH2 0x100 DUP3 ADD MSTORE PUSH2 0x120 ADD PUSH2 0x298 JUMP JUMPDEST CALLVALUE DUP1 ISZERO PUSH2 0x47D JUMPI PUSH1 0x0 DUP1 REVERT JUMPDEST POP PUSH2 0x491 PUSH2 0x48C CALLDATASIZE PUSH1 0x4 PUSH2 0x2C66 JUMP JUMPDEST PUSH2 0xB86 JUMP JUMPDEST PUSH1 0x40 MLOAD PUSH2 0x298 SWAP2 SWAP1 PUSH2 0x2CDB JUMP JUMPDEST CALLVALUE DUP1 ISZERO PUSH2 0x4AA JUMPI PUSH1 0x0 DUP1 REVERT JUMPDEST POP PUSH2 0x4B3 PUSH2 0xC30 JUMP JUMPDEST PUSH1 0x40 MLOAD PUSH2 0x298 SWAP2 SWAP1 PUSH2 0x2CF0 JUMP JUMPDEST CALLVALUE DUP1 ISZERO PUSH2 0x4CC JUMPI PUSH1 0x0 DUP1 REVERT JUMPDEST POP PUSH2 0x4E0 PUSH2 0x4DB CALLDATASIZE PUSH1 0x4 PUSH2 0x2D34 JUMP JUMPDEST PUSH2 0xC88 JUMP JUMPDEST PUSH1 0x40 MLOAD PUSH2 0x298 SWAP2 SWAP1 PUSH2 0x2E02 JUMP JUMPDEST CALLVALUE DUP1 ISZERO PUSH2 0x4F9 JUMPI PUSH1 0x0 DUP1 REVERT JUMPDEST POP PUSH2 0x304 PUSH2 0x508 CALLDATASIZE PUSH1 0x4 PUSH2 0x2C66 JUMP JUMPDEST PUSH2 0xD8C JUMP JUMPDEST CALLVALUE DUP1 ISZERO PUSH2 0x519 JUMPI PUSH1 0x0 DUP1 REVERT JUMPDEST POP PUSH2 0x304 PUSH2 0x528 CALLDATASIZE PUSH1 0x4 PUSH2 0x2C42 JUMP JUMPDEST PUSH2 0xF35 JUMP JUMPDEST CALLVALUE DUP1 ISZERO PUSH2 0x539 JUMPI PUSH1 0x0 DUP1 REVERT JUMPDEST POP PUSH2 0x304 PUSH2 0x548 CALLDATASIZE PUSH1 0x4 PUSH2 0x2C42 JUMP JUMPDEST PUSH2 0xFCB JUMP JUMPDEST CALLVALUE DUP1 ISZERO PUSH2 0x559 JUMPI PUSH1 0x0 DUP1 REVERT JUMPDEST POP PUSH1 0x0 SLOAD PUSH1 0x1 PUSH1 0xA0 SHL SWAP1 DIV PUSH1 0xFF AND JUMPDEST PUSH1 0x40 MLOAD SWAP1 ISZERO ISZERO DUP2 MSTORE PUSH1 0x20 ADD PUSH2 0x298 JUMP JUMPDEST CALLVALUE DUP1 ISZERO PUSH2 0x584 JUMPI PUSH1 0x0 DUP1 REVERT JUMPDEST POP PUSH2 0x58D PUSH2 0x105E JUMP JUMPDEST PUSH1 0x40 MLOAD PUSH2 0x298 SWAP6 SWAP5 SWAP4 SWAP3 SWAP2 SWAP1 PUSH2 0x2EC0 JUMP JUMPDEST CALLVALUE DUP1 ISZERO PUSH2 0x5AA JUMPI PUSH1 0x0 DUP1 REVERT JUMPDEST POP PUSH2 0x304 PUSH2 0x5B9 CALLDATASIZE PUSH1 0x4 PUSH2 0x2C66 JUMP JUMPDEST PUSH2 0x1247 JUMP JUMPDEST CALLVALUE DUP1 ISZERO PUSH2 0x5CA JUMPI PUSH1 0x0 DUP1 REVERT JUMPDEST POP PUSH2 0x28E PUSH1 0x11 SLOAD DUP2 JUMP JUMPDEST CALLVALUE DUP1 ISZERO PUSH2 0x5E0 JUMPI PUSH1 0x0 DUP1 REVERT JUMPDEST POP PUSH2 0x28E PUSH1 0xF SLOAD DUP2 JUMP JUMPDEST CALLVALUE DUP1 ISZERO PUSH2 0x5F6 JUMPI PUSH1 0x0 DUP1 REVERT JUMPDEST POP PUSH2 0x60A PUSH2 0x605 CALLDATASIZE PUSH1 0x4 PUSH2 0x2C42 JUMP JUMPDEST PUSH2 0x12BD JUMP JUMPDEST PUSH1 0x40 MLOAD PUSH2 0x298 SWAP2 SWAP1 PUSH2 0x2F0E JUMP JUMPDEST CALLVALUE DUP1 ISZERO PUSH2 0x623 JUMPI PUSH1 0x0 DUP1 REVERT JUMPDEST POP PUSH2 0x28E PUSH2 0x632 CALLDATASIZE PUSH1 0x4 PUSH2 0x2C66 JUMP JUMPDEST PUSH1 0x4 PUSH1 0x20 MSTORE PUSH1 0x0 SWAP1 DUP2 MSTORE PUSH1 0x40 SWAP1 KECCAK256 SLOAD DUP2 JUMP JUMPDEST CALLVALUE DUP1 ISZERO PUSH2 0x650 JUMPI PUSH1 0x0 DUP1 REVERT JUMPDEST POP PUSH1 0x0 SLOAD PUSH1 0x1 PUSH1 0x1 PUSH1 0xA0 SHL SUB AND PUSH2 0x3A9 JUMP JUMPDEST CALLVALUE DUP1 ISZERO PUSH2 0x66E JUMPI PUSH1 0x0 DUP1 REVERT JUMPDEST POP PUSH2 0x304 PUSH2 0x67D CALLDATASIZE PUSH1 0x4 PUSH2 0x2F21 JUMP JUMPDEST PUSH2 0x13F8 JUMP JUMPDEST CALLVALUE DUP1 ISZERO PUSH2 0x68E JUMPI PUSH1 0x0 DUP1 REVERT JUMPDEST POP PUSH2 0x28E PUSH2 0x69D CALLDATASIZE PUSH1 0x4 PUSH2 0x2F21 JUMP JUMPDEST PUSH2 0x1547 JUMP JUMPDEST CALLVALUE DUP1 ISZERO PUSH2 0x6AE JUMPI PUSH1 0x0 DUP1 REVERT JUMPDEST POP PUSH2 0x28E PUSH2 0x6BD CALLDATASIZE PUSH1 0x4 PUSH2 0x2F21 JUMP JUMPDEST PUSH2 0x1578 JUMP JUMPDEST CALLVALUE DUP1 ISZERO PUSH2 0x6CE JUMPI PUSH1 0x0 DUP1 REVERT JUMPDEST POP PUSH2 0x304 PUSH2 0x6DD CALLDATASIZE PUSH1 0x4 PUSH2 0x2F5B JUMP JUMPDEST PUSH2 0x1594 JUMP JUMPDEST CALLVALUE DUP1 ISZERO PUSH2 0x6EE JUMPI PUSH1 0x0 DUP1 REVERT JUMPDEST POP PUSH1 0x3 SLOAD PUSH2 0x703 SWAP1 PUSH1 0x1 PUSH1 0xB0 SHL SWAP1 DIV PUSH1 0xFF AND DUP2 JUMP JUMPDEST PUSH1 0x40 MLOAD PUSH1 0xFF SWAP1 SWAP2 AND DUP2 MSTORE PUSH1 0x20 ADD PUSH2 0x298 JUMP JUMPDEST CALLVALUE DUP1 ISZERO PUSH2 0x721 JUMPI PUSH1 0x0 DUP1 REVERT JUMPDEST POP PUSH2 0x28E PUSH2 0x730 CALLDATASIZE PUSH1 0x4 PUSH2 0x2F21 JUMP JUMPDEST PUSH2 0x17C6 JUMP JUMPDEST CALLVALUE DUP1 ISZERO PUSH2 0x741 JUMPI PUSH1 0x0 DUP1 REVERT JUMPDEST POP PUSH1 0x3 SLOAD PUSH2 0x703 SWAP1 PUSH1 0x1 PUSH1 0xA8 SHL SWAP1 DIV PUSH1 0xFF AND DUP2 JUMP JUMPDEST CALLVALUE DUP1 ISZERO PUSH2 0x762 JUMPI PUSH1 0x0 DUP1 REVERT JUMPDEST POP PUSH1 0x2 SLOAD PUSH2 0x3A9 SWAP1 PUSH1 0x1 PUSH1 0x1 PUSH1 0xA0 SHL SUB AND DUP2 JUMP JUMPDEST CALLVALUE DUP1 ISZERO PUSH2 0x782 JUMPI PUSH1 0x0 DUP1 REVERT JUMPDEST POP PUSH2 0x568 PUSH2 0x791 CALLDATASIZE PUSH1 0x4 PUSH2 0x2C42 JUMP JUMPDEST PUSH1 0xD PUSH1 0x20 MSTORE PUSH1 0x0 SWAP1 DUP2 MSTORE PUSH1 0x40 SWAP1 KECCAK256 SLOAD PUSH1 0xFF AND DUP2 JUMP JUMPDEST CALLVALUE DUP1 ISZERO PUSH2 0x7B2 JUMPI PUSH1 0x0 DUP1 REVERT JUMPDEST POP PUSH2 0x58D PUSH2 0x17E2 JUMP JUMPDEST CALLVALUE DUP1 ISZERO PUSH2 0x7C7 JUMPI PUSH1 0x0 DUP1 REVERT JUMPDEST POP PUSH2 0x7DB PUSH2 0x7D6 CALLDATASIZE PUSH1 0x4 PUSH2 0x300C JUMP JUMPDEST PUSH2 0x1985 JUMP JUMPDEST PUSH1 0x40 DUP1 MLOAD SWAP4 DUP5 MSTORE PUSH1 0x20 DUP5 ADD SWAP3 SWAP1 SWAP3 MSTORE SWAP1 DUP3 ADD MSTORE PUSH1 0x60 ADD PUSH2 0x298 JUMP JUMPDEST CALLVALUE DUP1 ISZERO PUSH2 0x802 JUMPI PUSH1 0x0 DUP1 REVERT JUMPDEST POP PUSH2 0x568 PUSH2 0x811 CALLDATASIZE PUSH1 0x4 PUSH2 0x2C42 JUMP JUMPDEST PUSH1 0x10 PUSH1 0x20 MSTORE PUSH1 0x0 SWAP1 DUP2 MSTORE PUSH1 0x40 SWAP1 KECCAK256 SLOAD PUSH1 0xFF AND DUP2 JUMP JUMPDEST CALLVALUE DUP1 ISZERO PUSH2 0x832 JUMPI PUSH1 0x0 DUP1 REVERT JUMPDEST POP PUSH2 0x304 PUSH2 0x841 CALLDATASIZE PUSH1 0x4 PUSH2 0x2C42 JUMP JUMPDEST PUSH2 0x235F JUMP JUMPDEST CALLVALUE DUP1 ISZERO PUSH2 0x852 JUMPI PUSH1 0x0 DUP1 REVERT JUMPDEST POP PUSH2 0x85B PUSH2 0x23AB JUMP JUMPDEST PUSH1 0x40 MLOAD PUSH2 0x298 SWAP2 SWAP1 PUSH2 0x30B2 JUMP JUMPDEST CALLVALUE DUP1 ISZERO PUSH2 0x874 JUMPI PUSH1 0x0 DUP1 REVERT JUMPDEST POP PUSH2 0x304 PUSH2 0x883 CALLDATASIZE PUSH1 0x4 PUSH2 0x2D34 JUMP JUMPDEST PUSH2 0x24F6 JUMP JUMPDEST CALLVALUE DUP1 ISZERO PUSH2 0x894 JUMPI PUSH1 0x0 DUP1 REVERT JUMPDEST POP PUSH1 0x6 SLOAD PUSH2 0x3A9 SWAP1 PUSH1 0x1 PUSH1 0x1 PUSH1 0xA0 SHL SUB AND DUP2 JUMP JUMPDEST CALLVALUE DUP1 ISZERO PUSH2 0x8B4 JUMPI PUSH1 0x0 DUP1 REVERT JUMPDEST POP PUSH2 0x304 PUSH2 0x8C3 CALLDATASIZE PUSH1 0x4 PUSH2 0x2C42 JUMP JUMPDEST PUSH2 0x282E JUMP JUMPDEST CALLVALUE DUP1 ISZERO PUSH2 0x8D4 JUMPI PUSH1 0x0 DUP1 REVERT JUMPDEST POP PUSH1 0x3 SLOAD PUSH2 0x568 SWAP1 PUSH1 0x1 PUSH1 0xA0 SHL SWAP1 DIV PUSH1 0xFF AND DUP2 JUMP JUMPDEST CALLVALUE DUP1 ISZERO PUSH2 0x8F5 JUMPI PUSH1 0x0 DUP1 REVERT JUMPDEST POP PUSH1 0x3 SLOAD PUSH2 0x3A9 SWAP1 PUSH1 0x1 PUSH1 0x1 PUSH1 0xA0 SHL SUB AND DUP2 JUMP JUMPDEST PUSH1 0x0 SLOAD PUSH1 0x1 PUSH1 0x1 PUSH1 0xA0 SHL SUB AND CALLER EQ PUSH2 0x93C JUMPI PUSH1 0x40 MLOAD PUSH3 0x461BCD PUSH1 0xE5 SHL DUP2 MSTORE PUSH1 0x4 ADD PUSH2 0x933 SWAP1 PUSH2 0x30F5 JUMP JUMPDEST PUSH1 0x40 MLOAD DUP1 SWAP2 SUB SWAP1 REVERT JUMPDEST DUP1 SELFBALANCE LT ISZERO PUSH2 0x98C JUMPI PUSH1 0x40 MLOAD PUSH3 0x461BCD PUSH1 0xE5 SHL DUP2 MSTORE PUSH1 0x20 PUSH1 0x4 DUP3 ADD MSTORE PUSH1 0x1A PUSH1 0x24 DUP3 ADD MSTORE PUSH32 0x496E73756666696369656E742065746865722062616C616E6365000000000000 PUSH1 0x44 DUP3 ADD MSTORE PUSH1 0x64 ADD PUSH2 0x933 JUMP JUMPDEST PUSH1 0x40 MLOAD CALLER SWAP1 DUP3 ISZERO PUSH2 0x8FC MUL SWAP1 DUP4 SWAP1 PUSH1 0x0 DUP2 DUP2 DUP2 DUP6 DUP9 DUP9 CALL SWAP4 POP POP POP POP ISZERO DUP1 ISZERO PUSH2 0x9B9 JUMPI RETURNDATASIZE PUSH1 0x0 DUP1 RETURNDATACOPY RETURNDATASIZE PUSH1 0x0 REVERT JUMPDEST POP POP JUMP JUMPDEST PUSH1 0x13 DUP2 DUP2 SLOAD DUP2 LT PUSH2 0x9CD JUMPI PUSH1 0x0 DUP1 REVERT JUMPDEST PUSH1 0x0 SWAP2 DUP3 MSTORE PUSH1 0x20 SWAP1 SWAP2 KECCAK256 ADD SLOAD SWAP1 POP DUP2 JUMP JUMPDEST PUSH1 0x0 DUP1 TIMESTAMP DUP2 JUMPDEST PUSH1 0x1 PUSH1 0x1 PUSH1 0xA0 SHL SUB DUP6 AND PUSH1 0x0 SWAP1 DUP2 MSTORE PUSH1 0x7 PUSH1 0x20 MSTORE PUSH1 0x40 SWAP1 KECCAK256 SLOAD DUP2 LT ISZERO PUSH2 0xB7D JUMPI PUSH1 0x12 SLOAD PUSH1 0x1 PUSH1 0x1 PUSH1 0xA0 SHL SUB DUP7 AND PUSH1 0x0 SWAP1 DUP2 MSTORE PUSH1 0x9 PUSH1 0x20 MSTORE PUSH1 0x40 DUP2 KECCAK256 DUP1 SLOAD SWAP2 SWAP3 SWAP2 DUP5 SWAP1 DUP2 LT PUSH2 0xA34 JUMPI PUSH2 0xA34 PUSH2 0x312A JUMP JUMPDEST SWAP1 PUSH1 0x0 MSTORE PUSH1 0x20 PUSH1 0x0 KECCAK256 ADD SLOAD PUSH2 0xA49 SWAP2 SWAP1 PUSH2 0x3156 JUMP JUMPDEST PUSH1 0x1 PUSH1 0x1 PUSH1 0xA0 SHL SUB DUP8 AND PUSH1 0x0 SWAP1 DUP2 MSTORE PUSH1 0xA PUSH1 0x20 MSTORE PUSH1 0x40 SWAP1 KECCAK256 DUP1 SLOAD DUP5 SWAP1 DUP2 LT PUSH2 0xA73 JUMPI PUSH2 0xA73 PUSH2 0x312A JUMP JUMPDEST SWAP1 PUSH1 0x0 MSTORE PUSH1 0x20 PUSH1 0x0 KECCAK256 ADD SLOAD PUSH2 0xA88 SWAP2 SWAP1 PUSH2 0x3175 JUMP JUMPDEST SWAP1 POP DUP1 DUP4 GT ISZERO PUSH2 0xB6A JUMPI PUSH1 0x1 PUSH1 0x1 PUSH1 0xA0 SHL SUB DUP7 AND PUSH1 0x0 SWAP1 DUP2 MSTORE PUSH1 0x9 PUSH1 0x20 MSTORE PUSH1 0x40 DUP2 KECCAK256 DUP1 SLOAD PUSH2 0x2710 SWAP2 PUSH1 0x4 SWAP2 DUP5 SWAP2 SWAP1 DUP8 SWAP1 DUP2 LT PUSH2 0xAC6 JUMPI PUSH2 0xAC6 PUSH2 0x312A JUMP JUMPDEST SWAP1 PUSH1 0x0 MSTORE PUSH1 0x20 PUSH1 0x0 KECCAK256 ADD SLOAD DUP2 MSTORE PUSH1 0x20 ADD SWAP1 DUP2 MSTORE PUSH1 0x20 ADD PUSH1 0x0 KECCAK256 SLOAD PUSH1 0x7 PUSH1 0x0 DUP11 PUSH1 0x1 PUSH1 0x1 PUSH1 0xA0 SHL SUB AND PUSH1 0x1 PUSH1 0x1 PUSH1 0xA0 SHL SUB AND DUP2 MSTORE PUSH1 0x20 ADD SWAP1 DUP2 MSTORE PUSH1 0x20 ADD PUSH1 0x0 KECCAK256 DUP6 DUP2 SLOAD DUP2 LT PUSH2 0xB16 JUMPI PUSH2 0xB16 PUSH2 0x312A JUMP JUMPDEST SWAP1 PUSH1 0x0 MSTORE PUSH1 0x20 PUSH1 0x0 KECCAK256 ADD SLOAD PUSH2 0xB2B SWAP2 SWAP1 PUSH2 0x3156 JUMP JUMPDEST PUSH2 0xB35 SWAP2 SWAP1 PUSH2 0x318D JUMP JUMPDEST PUSH1 0x3 SLOAD SWAP1 SWAP2 POP PUSH2 0xB50 SWAP1 PUSH1 0x1 PUSH1 0xA8 SHL SWAP1 DIV PUSH1 0xFF AND PUSH1 0xA PUSH2 0x3293 JUMP JUMPDEST PUSH2 0xB5A SWAP1 DUP3 PUSH2 0x318D JUMP JUMPDEST SWAP1 POP PUSH2 0xB66 DUP2 DUP7 PUSH2 0x3175 JUMP JUMPDEST SWAP5 POP POP JUMPDEST POP DUP1 PUSH2 0xB75 DUP2 PUSH2 0x329F JUMP JUMPDEST SWAP2 POP POP PUSH2 0x9E4 JUMP JUMPDEST POP SWAP1 SWAP4 SWAP3 POP POP POP JUMP JUMPDEST PUSH2 0xB8E PUSH2 0x2B96 JUMP JUMPDEST PUSH2 0xB97 DUP3 PUSH2 0x2918 JUMP JUMPDEST PUSH2 0xBB3 JUMPI PUSH1 0x40 MLOAD PUSH3 0x461BCD PUSH1 0xE5 SHL DUP2 MSTORE PUSH1 0x4 ADD PUSH2 0x933 SWAP1 PUSH2 0x32BA JUMP JUMPDEST POP PUSH1 0x0 SWAP1 DUP2 MSTORE PUSH1 0x5 PUSH1 0x20 DUP2 DUP2 MSTORE PUSH1 0x40 SWAP3 DUP4 SWAP1 KECCAK256 DUP4 MLOAD PUSH2 0x120 DUP2 ADD DUP6 MSTORE DUP2 SLOAD DUP2 MSTORE PUSH1 0x1 DUP3 ADD SLOAD SWAP3 DUP2 ADD SWAP3 SWAP1 SWAP3 MSTORE PUSH1 0x2 DUP2 ADD SLOAD SWAP4 DUP3 ADD SWAP4 SWAP1 SWAP4 MSTORE PUSH1 0x3 DUP4 ADD SLOAD PUSH1 0x60 DUP3 ADD MSTORE PUSH1 0x4 DUP4 ADD SLOAD PUSH1 0x80 DUP3 ADD MSTORE SWAP1 DUP3 ADD SLOAD PUSH1 0xA0 DUP3 ADD MSTORE PUSH1 0x6 DUP3 ADD SLOAD PUSH1 0xC0 DUP3 ADD MSTORE PUSH1 0x7 DUP3 ADD SLOAD PUSH1 0xFF AND ISZERO ISZERO PUSH1 0xE0 DUP3 ADD MSTORE PUSH1 0x8 SWAP1 SWAP2 ADD SLOAD PUSH2 0x100 DUP3 ADD MSTORE SWAP1 JUMP JUMPDEST PUSH1 0x60 PUSH1 0x13 DUP1 SLOAD DUP1 PUSH1 0x20 MUL PUSH1 0x20 ADD PUSH1 0x40 MLOAD SWAP1 DUP2 ADD PUSH1 0x40 MSTORE DUP1 SWAP3 SWAP2 SWAP1 DUP2 DUP2 MSTORE PUSH1 0x20 ADD DUP3 DUP1 SLOAD DUP1 ISZERO PUSH2 0xC7E JUMPI PUSH1 0x20 MUL DUP3 ADD SWAP2 SWAP1 PUSH1 0x0 MSTORE PUSH1 0x20 PUSH1 0x0 KECCAK256 SWAP1 JUMPDEST DUP2 SLOAD DUP2 MSTORE PUSH1 0x20 ADD SWAP1 PUSH1 0x1 ADD SWAP1 DUP1 DUP4 GT PUSH2 0xC6A JUMPI JUMPDEST POP POP POP POP POP SWAP1 POP SWAP1 JUMP JUMPDEST PUSH1 0x60 DUP2 PUSH2 0xC95 JUMPI PUSH1 0xF SLOAD SWAP2 POP JUMPDEST PUSH1 0x0 PUSH2 0xCA1 DUP4 DUP6 PUSH2 0x3175 JUMP JUMPDEST SWAP1 POP PUSH2 0xCAD DUP5 DUP3 PUSH2 0x32E9 JUMP JUMPDEST PUSH8 0xFFFFFFFFFFFFFFFF DUP2 GT ISZERO PUSH2 0xCC5 JUMPI PUSH2 0xCC5 PUSH2 0x2FC5 JUMP JUMPDEST PUSH1 0x40 MLOAD SWAP1 DUP1 DUP3 MSTORE DUP1 PUSH1 0x20 MUL PUSH1 0x20 ADD DUP3 ADD PUSH1 0x40 MSTORE DUP1 ISZERO PUSH2 0xCFE JUMPI DUP2 PUSH1 0x20 ADD JUMPDEST PUSH2 0xCEB PUSH2 0x2BE4 JUMP JUMPDEST DUP2 MSTORE PUSH1 0x20 ADD SWAP1 PUSH1 0x1 SWAP1 SUB SWAP1 DUP2 PUSH2 0xCE3 JUMPI SWAP1 POP JUMPDEST POP SWAP2 POP PUSH1 0x0 JUMPDEST PUSH2 0xD0E DUP6 DUP4 PUSH2 0x32E9 JUMP JUMPDEST DUP2 LT ISZERO PUSH2 0xD84 JUMPI PUSH2 0xD54 PUSH1 0xE PUSH1 0x0 DUP8 DUP5 PUSH1 0xF SLOAD PUSH2 0xD2B SWAP2 SWAP1 PUSH2 0x32E9 JUMP JUMPDEST PUSH2 0xD35 SWAP2 SWAP1 PUSH2 0x32E9 JUMP JUMPDEST DUP2 MSTORE PUSH1 0x20 DUP2 ADD SWAP2 SWAP1 SWAP2 MSTORE PUSH1 0x40 ADD PUSH1 0x0 KECCAK256 SLOAD PUSH1 0x1 PUSH1 0x1 PUSH1 0xA0 SHL SUB AND PUSH2 0x12BD JUMP JUMPDEST DUP4 DUP3 DUP2 MLOAD DUP2 LT PUSH2 0xD66 JUMPI PUSH2 0xD66 PUSH2 0x312A JUMP JUMPDEST PUSH1 0x20 MUL PUSH1 0x20 ADD ADD DUP2 SWAP1 MSTORE POP DUP1 DUP1 PUSH2 0xD7C SWAP1 PUSH2 0x329F JUMP JUMPDEST SWAP2 POP POP PUSH2 0xD04 JUMP JUMPDEST POP POP SWAP3 SWAP2 POP POP JUMP JUMPDEST PUSH1 0x0 SLOAD PUSH1 0x1 PUSH1 0x1 PUSH1 0xA0 SHL SUB AND CALLER EQ PUSH2 0xDB6 JUMPI PUSH1 0x40 MLOAD PUSH3 0x461BCD PUSH1 0xE5 SHL DUP2 MSTORE PUSH1 0x4 ADD PUSH2 0x933 SWAP1 PUSH2 0x30F5 JUMP JUMPDEST PUSH2 0xDBF DUP2 PUSH2 0x2918 JUMP JUMPDEST PUSH2 0xDDB JUMPI PUSH1 0x40 MLOAD PUSH3 0x461BCD PUSH1 0xE5 SHL DUP2 MSTORE PUSH1 0x4 ADD PUSH2 0x933 SWAP1 PUSH2 0x32BA JUMP JUMPDEST PUSH1 0x0 DUP1 DUP1 JUMPDEST PUSH1 0x13 SLOAD DUP2 LT ISZERO PUSH2 0xE2D JUMPI DUP4 PUSH1 0x13 DUP3 DUP2 SLOAD DUP2 LT PUSH2 0xDFE JUMPI PUSH2 0xDFE PUSH2 0x312A JUMP JUMPDEST SWAP1 PUSH1 0x0 MSTORE PUSH1 0x20 PUSH1 0x0 KECCAK256 ADD SLOAD EQ ISZERO PUSH2 0xE1B JUMPI DUP1 SWAP3 POP PUSH1 0x1 SWAP2 POP PUSH2 0xE2D JUMP JUMPDEST DUP1 PUSH2 0xE25 DUP2 PUSH2 0x329F JUMP JUMPDEST SWAP2 POP POP PUSH2 0xDE0 JUMP JUMPDEST POP DUP1 PUSH2 0xE4B JUMPI PUSH1 0x40 MLOAD PUSH3 0x461BCD PUSH1 0xE5 SHL DUP2 MSTORE PUSH1 0x4 ADD PUSH2 0x933 SWAP1 PUSH2 0x32BA JUMP JUMPDEST PUSH1 0x0 DUP4 DUP2 MSTORE PUSH1 0x5 PUSH1 0x20 DUP2 SWAP1 MSTORE PUSH1 0x40 DUP3 KECCAK256 DUP3 DUP2 SSTORE PUSH1 0x1 DUP2 ADD DUP4 SWAP1 SSTORE PUSH1 0x2 DUP2 ADD DUP4 SWAP1 SSTORE PUSH1 0x3 DUP2 ADD DUP4 SWAP1 SSTORE PUSH1 0x4 DUP2 ADD DUP4 SWAP1 SSTORE SWAP1 DUP2 ADD DUP3 SWAP1 SSTORE PUSH1 0x6 DUP2 ADD DUP3 SWAP1 SSTORE PUSH1 0x7 DUP2 ADD DUP1 SLOAD PUSH1 0xFF NOT AND SWAP1 SSTORE PUSH1 0x8 ADD SSTORE DUP2 JUMPDEST PUSH1 0x13 SLOAD PUSH2 0xEA8 SWAP1 PUSH1 0x1 SWAP1 PUSH2 0x32E9 JUMP JUMPDEST DUP2 LT ISZERO PUSH2 0xF08 JUMPI PUSH1 0x13 PUSH2 0xEBC DUP3 PUSH1 0x1 PUSH2 0x3175 JUMP JUMPDEST DUP2 SLOAD DUP2 LT PUSH2 0xECC JUMPI PUSH2 0xECC PUSH2 0x312A JUMP JUMPDEST SWAP1 PUSH1 0x0 MSTORE PUSH1 0x20 PUSH1 0x0 KECCAK256 ADD SLOAD PUSH1 0x13 DUP3 DUP2 SLOAD DUP2 LT PUSH2 0xEEA JUMPI PUSH2 0xEEA PUSH2 0x312A JUMP JUMPDEST PUSH1 0x0 SWAP2 DUP3 MSTORE PUSH1 0x20 SWAP1 SWAP2 KECCAK256 ADD SSTORE DUP1 PUSH2 0xF00 DUP2 PUSH2 0x329F JUMP JUMPDEST SWAP2 POP POP PUSH2 0xE99 JUMP JUMPDEST POP PUSH1 0x13 DUP1 SLOAD DUP1 PUSH2 0xF1A JUMPI PUSH2 0xF1A PUSH2 0x3300 JUMP JUMPDEST PUSH1 0x1 SWAP1 SUB DUP2 DUP2 SWAP1 PUSH1 0x0 MSTORE PUSH1 0x20 PUSH1 0x0 KECCAK256 ADD PUSH1 0x0 SWAP1 SSTORE SWAP1 SSTORE POP POP POP JUMP JUMPDEST PUSH1 0x0 SLOAD PUSH1 0x1 PUSH1 0x1 PUSH1 0xA0 SHL SUB AND CALLER EQ PUSH2 0xF5F JUMPI PUSH1 0x40 MLOAD PUSH3 0x461BCD PUSH1 0xE5 SHL DUP2 MSTORE PUSH1 0x4 ADD PUSH2 0x933 SWAP1 PUSH2 0x30F5 JUMP JUMPDEST PUSH1 0x1 PUSH1 0x1 PUSH1 0xA0 SHL SUB DUP2 AND PUSH2 0xFA7 JUMPI PUSH1 0x40 MLOAD PUSH3 0x461BCD PUSH1 0xE5 SHL DUP2 MSTORE PUSH1 0x20 PUSH1 0x4 DUP3 ADD MSTORE PUSH1 0xF PUSH1 0x24 DUP3 ADD MSTORE PUSH15 0x496E76616C69642061646472657373 PUSH1 0x88 SHL PUSH1 0x44 DUP3 ADD MSTORE PUSH1 0x64 ADD PUSH2 0x933 JUMP JUMPDEST PUSH1 0x1 PUSH1 0x1 PUSH1 0xA0 SHL SUB AND PUSH1 0x0 SWAP1 DUP2 MSTORE PUSH1 0x10 PUSH1 0x20 MSTORE PUSH1 0x40 SWAP1 KECCAK256 DUP1 SLOAD PUSH1 0xFF NOT AND PUSH1 0x1 OR SWAP1 SSTORE JUMP JUMPDEST PUSH1 0x0 SLOAD PUSH1 0x1 PUSH1 0x1 PUSH1 0xA0 SHL SUB AND CALLER EQ PUSH2 0xFF5 JUMPI PUSH1 0x40 MLOAD PUSH3 0x461BCD PUSH1 0xE5 SHL DUP2 MSTORE PUSH1 0x4 ADD PUSH2 0x933 SWAP1 PUSH2 0x30F5 JUMP JUMPDEST PUSH1 0x1 PUSH1 0x1 PUSH1 0xA0 SHL SUB DUP2 AND PUSH2 0x103D JUMPI PUSH1 0x40 MLOAD PUSH3 0x461BCD PUSH1 0xE5 SHL DUP2 MSTORE PUSH1 0x20 PUSH1 0x4 DUP3 ADD MSTORE PUSH1 0xF PUSH1 0x24 DUP3 ADD MSTORE PUSH15 0x496E76616C69642061646472657373 PUSH1 0x88 SHL PUSH1 0x44 DUP3 ADD MSTORE PUSH1 0x64 ADD PUSH2 0x933 JUMP JUMPDEST PUSH1 0x1 PUSH1 0x1 PUSH1 0xA0 SHL SUB AND PUSH1 0x0 SWAP1 DUP2 MSTORE PUSH1 0x10 PUSH1 0x20 MSTORE PUSH1 0x40 SWAP1 KECCAK256 DUP1 SLOAD PUSH1 0xFF NOT AND SWAP1 SSTORE JUMP JUMPDEST PUSH1 0x3 SLOAD PUSH1 0x40 DUP1 MLOAD PUSH4 0x6FDDE03 PUSH1 0xE0 SHL DUP2 MSTORE SWAP1 MLOAD PUSH1 0x1 PUSH1 0x1 PUSH1 0xA0 SHL SUB SWAP1 SWAP3 AND SWAP2 PUSH1 0x60 SWAP2 DUP3 SWAP2 PUSH1 0x0 SWAP2 DUP3 SWAP2 DUP7 SWAP2 PUSH4 0x6FDDE03 SWAP2 PUSH1 0x4 DUP1 DUP4 ADD SWAP3 DUP7 SWAP3 SWAP2 SWAP1 DUP3 SWAP1 SUB ADD DUP2 DUP7 GAS STATICCALL ISZERO DUP1 ISZERO PUSH2 0x10B2 JUMPI RETURNDATASIZE PUSH1 0x0 DUP1 RETURNDATACOPY RETURNDATASIZE PUSH1 0x0 REVERT JUMPDEST POP POP POP POP PUSH1 0x40 MLOAD RETURNDATASIZE PUSH1 0x0 DUP3 RETURNDATACOPY PUSH1 0x1F RETURNDATASIZE SWAP1 DUP2 ADD PUSH1 0x1F NOT AND DUP3 ADD PUSH1 0x40 MSTORE PUSH2 0x10DA SWAP2 SWAP1 DUP2 ADD SWAP1 PUSH2 0x3316 JUMP JUMPDEST SWAP4 POP PUSH1 0x3 PUSH1 0x0 SWAP1 SLOAD SWAP1 PUSH2 0x100 EXP SWAP1 DIV PUSH1 0x1 PUSH1 0x1 PUSH1 0xA0 SHL SUB AND PUSH1 0x1 PUSH1 0x1 PUSH1 0xA0 SHL SUB AND PUSH4 0x95D89B41 PUSH1 0x40 MLOAD DUP2 PUSH4 0xFFFFFFFF AND PUSH1 0xE0 SHL DUP2 MSTORE PUSH1 0x4 ADD PUSH1 0x0 PUSH1 0x40 MLOAD DUP1 DUP4 SUB DUP2 DUP7 GAS STATICCALL ISZERO DUP1 ISZERO PUSH2 0x112F JUMPI RETURNDATASIZE PUSH1 0x0 DUP1 RETURNDATACOPY RETURNDATASIZE PUSH1 0x0 REVERT JUMPDEST POP POP POP POP PUSH1 0x40 MLOAD RETURNDATASIZE PUSH1 0x0 DUP3 RETURNDATACOPY PUSH1 0x1F RETURNDATASIZE SWAP1 DUP2 ADD PUSH1 0x1F NOT AND DUP3 ADD PUSH1 0x40 MSTORE PUSH2 0x1157 SWAP2 SWAP1 DUP2 ADD SWAP1 PUSH2 0x3316 JUMP JUMPDEST SWAP3 POP PUSH1 0x3 PUSH1 0x0 SWAP1 SLOAD SWAP1 PUSH2 0x100 EXP SWAP1 DIV PUSH1 0x1 PUSH1 0x1 PUSH1 0xA0 SHL SUB AND PUSH1 0x1 PUSH1 0x1 PUSH1 0xA0 SHL SUB AND PUSH4 0x313CE567 PUSH1 0x40 MLOAD DUP2 PUSH4 0xFFFFFFFF AND PUSH1 0xE0 SHL DUP2 MSTORE PUSH1 0x4 ADD PUSH1 0x20 PUSH1 0x40 MLOAD DUP1 DUP4 SUB DUP2 DUP7 GAS STATICCALL ISZERO DUP1 ISZERO PUSH2 0x11AC JUMPI RETURNDATASIZE PUSH1 0x0 DUP1 RETURNDATACOPY RETURNDATASIZE PUSH1 0x0 REVERT JUMPDEST POP POP POP POP PUSH1 0x40 MLOAD RETURNDATASIZE PUSH1 0x1F NOT PUSH1 0x1F DUP3 ADD AND DUP3 ADD DUP1 PUSH1 0x40 MSTORE POP DUP2 ADD SWAP1 PUSH2 0x11D0 SWAP2 SWAP1 PUSH2 0x33AA JUMP JUMPDEST PUSH1 0x3 SLOAD PUSH1 0x40 MLOAD PUSH4 0x70A08231 PUSH1 0xE0 SHL DUP2 MSTORE ADDRESS PUSH1 0x4 DUP3 ADD MSTORE SWAP2 SWAP4 POP PUSH1 0x1 PUSH1 0x1 PUSH1 0xA0 SHL SUB AND SWAP1 PUSH4 0x70A08231 SWAP1 PUSH1 0x24 ADD JUMPDEST PUSH1 0x20 PUSH1 0x40 MLOAD DUP1 DUP4 SUB DUP2 DUP7 GAS STATICCALL ISZERO DUP1 ISZERO PUSH2 0x121A JUMPI RETURNDATASIZE PUSH1 0x0 DUP1 RETURNDATACOPY RETURNDATASIZE PUSH1 0x0 REVERT JUMPDEST POP POP POP POP PUSH1 0x40 MLOAD RETURNDATASIZE PUSH1 0x1F NOT PUSH1 0x1F DUP3 ADD AND DUP3 ADD DUP1 PUSH1 0x40 MSTORE POP DUP2 ADD SWAP1 PUSH2 0x123E SWAP2 SWAP1 PUSH2 0x33CD JUMP JUMPDEST SWAP1 POP SWAP1 SWAP2 SWAP3 SWAP4 SWAP5 JUMP JUMPDEST PUSH1 0x0 SLOAD PUSH1 0x1 PUSH1 0x1 PUSH1 0xA0 SHL SUB AND CALLER EQ PUSH2 0x1271 JUMPI PUSH1 0x40 MLOAD PUSH3 0x461BCD PUSH1 0xE5 SHL DUP2 MSTORE PUSH1 0x4 ADD PUSH2 0x933 SWAP1 PUSH2 0x30F5 JUMP JUMPDEST PUSH2 0x2710 DUP2 GT ISZERO PUSH2 0x12B8 JUMPI PUSH1 0x40 MLOAD PUSH3 0x461BCD PUSH1 0xE5 SHL DUP2 MSTORE PUSH1 0x20 PUSH1 0x4 DUP3 ADD MSTORE PUSH1 0x12 PUSH1 0x24 DUP3 ADD MSTORE PUSH18 0x496E76616C69642070657263656E74616765 PUSH1 0x70 SHL PUSH1 0x44 DUP3 ADD MSTORE PUSH1 0x64 ADD PUSH2 0x933 JUMP JUMPDEST PUSH1 0x11 SSTORE JUMP JUMPDEST PUSH2 0x12C5 PUSH2 0x2BE4 JUMP JUMPDEST PUSH1 0x40 DUP1 MLOAD PUSH1 0xE0 DUP2 ADD DUP3 MSTORE PUSH1 0x1 PUSH1 0x1 PUSH1 0xA0 SHL SUB DUP5 AND DUP1 DUP3 MSTORE PUSH1 0x0 DUP2 DUP2 MSTORE PUSH1 0x8 PUSH1 0x20 SWAP1 DUP2 MSTORE DUP5 DUP3 KECCAK256 SLOAD DUP2 DUP6 ADD MSTORE DUP3 DUP3 MSTORE PUSH1 0xC DUP2 MSTORE DUP5 DUP3 KECCAK256 SLOAD DUP5 DUP7 ADD MSTORE SWAP2 DUP2 MSTORE PUSH1 0x9 DUP3 MSTORE DUP4 SWAP1 KECCAK256 DUP1 SLOAD DUP5 MLOAD DUP2 DUP5 MUL DUP2 ADD DUP5 ADD SWAP1 SWAP6 MSTORE DUP1 DUP6 MSTORE SWAP3 SWAP4 PUSH1 0x60 DUP6 ADD SWAP4 SWAP1 SWAP3 DUP4 ADD DUP3 DUP3 DUP1 ISZERO PUSH2 0x1352 JUMPI PUSH1 0x20 MUL DUP3 ADD SWAP2 SWAP1 PUSH1 0x0 MSTORE PUSH1 0x20 PUSH1 0x0 KECCAK256 SWAP1 JUMPDEST DUP2 SLOAD DUP2 MSTORE PUSH1 0x20 ADD SWAP1 PUSH1 0x1 ADD SWAP1 DUP1 DUP4 GT PUSH2 0x133E JUMPI JUMPDEST POP POP POP SWAP2 DUP4 MSTORE POP POP PUSH1 0x1 PUSH1 0x1 PUSH1 0xA0 SHL SUB DUP5 AND PUSH1 0x0 SWAP1 DUP2 MSTORE PUSH1 0xB PUSH1 0x20 SWAP1 DUP2 MSTORE PUSH1 0x40 SWAP2 DUP3 SWAP1 KECCAK256 SLOAD SWAP1 DUP4 ADD MSTORE ADD PUSH2 0x1385 DUP5 PUSH2 0x9DE JUMP JUMPDEST DUP2 MSTORE PUSH1 0x1 PUSH1 0x1 PUSH1 0xA0 SHL SUB DUP5 AND PUSH1 0x0 SWAP1 DUP2 MSTORE PUSH1 0xA PUSH1 0x20 SWAP1 DUP2 MSTORE PUSH1 0x40 SWAP2 DUP3 SWAP1 KECCAK256 DUP1 SLOAD DUP4 MLOAD DUP2 DUP5 MUL DUP2 ADD DUP5 ADD SWAP1 SWAP5 MSTORE DUP1 DUP5 MSTORE SWAP4 DUP3 ADD SWAP4 SWAP1 SWAP2 DUP4 ADD DUP3 DUP3 DUP1 ISZERO PUSH2 0x13E9 JUMPI PUSH1 0x20 MUL DUP3 ADD SWAP2 SWAP1 PUSH1 0x0 MSTORE PUSH1 0x20 PUSH1 0x0 KECCAK256 SWAP1 JUMPDEST DUP2 SLOAD DUP2 MSTORE PUSH1 0x20 ADD SWAP1 PUSH1 0x1 ADD SWAP1 DUP1 DUP4 GT PUSH2 0x13D5 JUMPI JUMPDEST POP POP POP POP POP DUP2 MSTORE POP SWAP1 POP SWAP2 SWAP1 POP JUMP JUMPDEST PUSH1 0x0 SLOAD PUSH1 0x1 PUSH1 0x1 PUSH1 0xA0 SHL SUB AND CALLER EQ PUSH2 0x1422 JUMPI PUSH1 0x40 MLOAD PUSH3 0x461BCD PUSH1 0xE5 SHL DUP2 MSTORE PUSH1 0x4 ADD PUSH2 0x933 SWAP1 PUSH2 0x30F5 JUMP JUMPDEST PUSH1 0x40 MLOAD PUSH4 0x70A08231 PUSH1 0xE0 SHL DUP2 MSTORE ADDRESS PUSH1 0x4 DUP3 ADD MSTORE DUP2 SWAP1 PUSH1 0x1 PUSH1 0x1 PUSH1 0xA0 SHL SUB DUP5 AND SWAP1 PUSH4 0x70A08231 SWAP1 PUSH1 0x24 ADD PUSH1 0x20 PUSH1 0x40 MLOAD DUP1 DUP4 SUB DUP2 DUP7 GAS STATICCALL ISZERO DUP1 ISZERO PUSH2 0x1468 JUMPI RETURNDATASIZE PUSH1 0x0 DUP1 RETURNDATACOPY RETURNDATASIZE PUSH1 0x0 REVERT JUMPDEST POP POP POP POP PUSH1 0x40 MLOAD RETURNDATASIZE PUSH1 0x1F NOT PUSH1 0x1F DUP3 ADD AND DUP3 ADD DUP1 PUSH1 0x40 MSTORE POP DUP2 ADD SWAP1 PUSH2 0x148C SWAP2 SWAP1 PUSH2 0x33CD JUMP JUMPDEST LT ISZERO PUSH2 0x14D1 JUMPI PUSH1 0x40 MLOAD PUSH3 0x461BCD PUSH1 0xE5 SHL DUP2 MSTORE PUSH1 0x20 PUSH1 0x4 DUP3 ADD MSTORE PUSH1 0x14 PUSH1 0x24 DUP3 ADD MSTORE PUSH20 0x496E73756666696369656E742062616C616E6365 PUSH1 0x60 SHL PUSH1 0x44 DUP3 ADD MSTORE PUSH1 0x64 ADD PUSH2 0x933 JUMP JUMPDEST PUSH1 0x40 MLOAD PUSH4 0xA9059CBB PUSH1 0xE0 SHL DUP2 MSTORE CALLER PUSH1 0x4 DUP3 ADD MSTORE PUSH1 0x24 DUP2 ADD DUP3 SWAP1 MSTORE PUSH1 0x1 PUSH1 0x1 PUSH1 0xA0 SHL SUB DUP4 AND SWAP1 PUSH4 0xA9059CBB SWAP1 PUSH1 0x44 ADD PUSH1 0x20 PUSH1 0x40 MLOAD DUP1 DUP4 SUB DUP2 PUSH1 0x0 DUP8 GAS CALL ISZERO DUP1 ISZERO PUSH2 0x151E JUMPI RETURNDATASIZE PUSH1 0x0 DUP1 RETURNDATACOPY RETURNDATASIZE PUSH1 0x0 REVERT JUMPDEST POP POP POP POP PUSH1 0x40 MLOAD RETURNDATASIZE PUSH1 0x1F NOT PUSH1 0x1F DUP3 ADD AND DUP3 ADD DUP1 PUSH1 0x40 MSTORE POP DUP2 ADD SWAP1 PUSH2 0x1542 SWAP2 SWAP1 PUSH2 0x33E6 JUMP JUMPDEST POP POP POP JUMP JUMPDEST PUSH1 0x7 PUSH1 0x20 MSTORE DUP2 PUSH1 0x0 MSTORE PUSH1 0x40 PUSH1 0x0 KECCAK256 DUP2 DUP2 SLOAD DUP2 LT PUSH2 0x1563 JUMPI PUSH1 0x0 DUP1 REVERT JUMPDEST SWAP1 PUSH1 0x0 MSTORE PUSH1 0x20 PUSH1 0x0 KECCAK256 ADD PUSH1 0x0 SWAP2 POP SWAP2 POP POP SLOAD DUP2 JUMP JUMPDEST PUSH1 0x9 PUSH1 0x20 MSTORE DUP2 PUSH1 0x0 MSTORE PUSH1 0x40 PUSH1 0x0 KECCAK256 DUP2 DUP2 SLOAD DUP2 LT PUSH2 0x1563 JUMPI PUSH1 0x0 DUP1 REVERT JUMPDEST PUSH1 0x0 SLOAD PUSH1 0x1 PUSH1 0x1 PUSH1 0xA0 SHL SUB AND CALLER EQ PUSH2 0x15BE JUMPI PUSH1 0x40 MLOAD PUSH3 0x461BCD PUSH1 0xE5 SHL DUP2 MSTORE PUSH1 0x4 ADD PUSH2 0x933 SWAP1 PUSH2 0x30F5 JUMP JUMPDEST PUSH2 0x2710 DUP7 GT ISZERO PUSH2 0x1605 JUMPI PUSH1 0x40 MLOAD PUSH3 0x461BCD PUSH1 0xE5 SHL DUP2 MSTORE PUSH1 0x20 PUSH1 0x4 DUP3 ADD MSTORE PUSH1 0x12 PUSH1 0x24 DUP3 ADD MSTORE PUSH18 0x496E76616C69642070657263656E74616765 PUSH1 0x70 SHL PUSH1 0x44 DUP3 ADD MSTORE PUSH1 0x64 ADD PUSH2 0x933 JUMP JUMPDEST DUP4 DUP6 LT ISZERO PUSH2 0x1670 JUMPI PUSH1 0x40 MLOAD PUSH3 0x461BCD PUSH1 0xE5 SHL DUP2 MSTORE PUSH1 0x20 PUSH1 0x4 DUP3 ADD MSTORE PUSH1 0x32 PUSH1 0x24 DUP3 ADD MSTORE PUSH32 0x4D61782072617465206D7573742062652067726561746572207468616E206F72 PUSH1 0x44 DUP3 ADD MSTORE PUSH18 0x20657175616C20746F206D696E2072617465 PUSH1 0x70 SHL PUSH1 0x64 DUP3 ADD MSTORE PUSH1 0x84 ADD PUSH2 0x933 JUMP JUMPDEST PUSH1 0x0 DUP3 GT PUSH2 0x16C0 JUMPI PUSH1 0x40 MLOAD PUSH3 0x461BCD PUSH1 0xE5 SHL DUP2 MSTORE PUSH1 0x20 PUSH1 0x4 DUP3 ADD DUP2 SWAP1 MSTORE PUSH1 0x24 DUP3 ADD MSTORE PUSH32 0x537465702073697A65206D7573742062652067726561746572207468616E2030 PUSH1 0x44 DUP3 ADD MSTORE PUSH1 0x64 ADD PUSH2 0x933 JUMP JUMPDEST PUSH1 0x0 DUP9 DUP2 MSTORE PUSH1 0x4 PUSH1 0x20 MSTORE PUSH1 0x40 SWAP1 KECCAK256 DUP7 SWAP1 SSTORE PUSH2 0x16DA DUP9 PUSH2 0x2918 JUMP JUMPDEST PUSH2 0x1714 JUMPI PUSH1 0x13 DUP1 SLOAD PUSH1 0x1 DUP2 ADD DUP3 SSTORE PUSH1 0x0 SWAP2 SWAP1 SWAP2 MSTORE PUSH32 0x66DE8FFDA797E3DE9C05E8FC57B3BF0EC28A930D40B0D285D93C06501CF6A090 ADD DUP9 SWAP1 SSTORE JUMPDEST PUSH1 0x40 DUP1 MLOAD PUSH2 0x120 DUP2 ADD DUP3 MSTORE DUP10 DUP2 MSTORE PUSH1 0x20 DUP1 DUP3 ADD SWAP10 DUP11 MSTORE DUP2 DUP4 ADD SWAP9 DUP10 MSTORE PUSH1 0x60 DUP3 ADD SWAP8 DUP9 MSTORE PUSH1 0x80 DUP3 ADD SWAP7 DUP8 MSTORE PUSH1 0xA0 DUP3 ADD SWAP6 DUP7 MSTORE PUSH1 0xC0 DUP3 ADD SWAP5 DUP6 MSTORE SWAP3 ISZERO ISZERO PUSH1 0xE0 DUP3 ADD SWAP1 DUP2 MSTORE PUSH1 0x0 DUP12 DUP2 MSTORE PUSH1 0x5 DUP1 DUP7 MSTORE SWAP4 DUP2 KECCAK256 PUSH1 0x8 DUP2 ADD DUP1 SLOAD PUSH2 0x100 DUP7 ADD SWAP1 DUP2 MSTORE SWAP14 SWAP1 SWAP3 MSTORE SWAP5 DUP5 SWAP1 MSTORE SWAP2 MLOAD DUP5 SSTORE SWAP9 MLOAD PUSH1 0x1 DUP5 ADD SSTORE SWAP7 MLOAD PUSH1 0x2 DUP4 ADD SSTORE SWAP5 MLOAD PUSH1 0x3 DUP3 ADD SSTORE SWAP3 MLOAD PUSH1 0x4 DUP5 ADD SSTORE SWAP1 MLOAD SWAP3 DUP3 ADD SWAP3 SWAP1 SWAP3 SSTORE SWAP1 MLOAD PUSH1 0x6 DUP3 ADD SSTORE SWAP2 MLOAD PUSH1 0x7 SWAP1 SWAP3 ADD DUP1 SLOAD PUSH1 0xFF NOT AND SWAP3 ISZERO ISZERO SWAP3 SWAP1 SWAP3 OR SWAP1 SWAP2 SSTORE SWAP1 MLOAD SWAP1 SSTORE JUMP JUMPDEST PUSH1 0xA PUSH1 0x20 MSTORE DUP2 PUSH1 0x0 MSTORE PUSH1 0x40 PUSH1 0x0 KECCAK256 DUP2 DUP2 SLOAD DUP2 LT PUSH2 0x1563 JUMPI PUSH1 0x0 DUP1 REVERT JUMPDEST PUSH1 0x2 SLOAD PUSH1 0x40 DUP1 MLOAD PUSH4 0x6FDDE03 PUSH1 0xE0 SHL DUP2 MSTORE SWAP1 MLOAD PUSH1 0x1 PUSH1 0x1 PUSH1 0xA0 SHL SUB SWAP1 SWAP3 AND SWAP2 PUSH1 0x60 SWAP2 DUP3 SWAP2 PUSH1 0x0 SWAP2 DUP3 SWAP2 DUP7 SWAP2 PUSH4 0x6FDDE03 SWAP2 PUSH1 0x4 DUP1 DUP4 ADD SWAP3 DUP7 SWAP3 SWAP2 SWAP1 DUP3 SWAP1 SUB ADD DUP2 DUP7 GAS STATICCALL ISZERO DUP1 ISZERO PUSH2 0x1836 JUMPI RETURNDATASIZE PUSH1 0x0 DUP1 RETURNDATACOPY RETURNDATASIZE PUSH1 0x0 REVERT JUMPDEST POP POP POP POP PUSH1 0x40 MLOAD RETURNDATASIZE PUSH1 0x0 DUP3 RETURNDATACOPY PUSH1 0x1F RETURNDATASIZE SWAP1 DUP2 ADD PUSH1 0x1F NOT AND DUP3 ADD PUSH1 0x40 MSTORE PUSH2 0x185E SWAP2 SWAP1 DUP2 ADD SWAP1 PUSH2 0x3316 JUMP JUMPDEST SWAP4 POP PUSH1 0x2 PUSH1 0x0 SWAP1 SLOAD SWAP1 PUSH2 0x100 EXP SWAP1 DIV PUSH1 0x1 PUSH1 0x1 PUSH1 0xA0 SHL SUB AND PUSH1 0x1 PUSH1 0x1 PUSH1 0xA0 SHL SUB AND PUSH4 0x95D89B41 PUSH1 0x40 MLOAD DUP2 PUSH4 0xFFFFFFFF AND PUSH1 0xE0 SHL DUP2 MSTORE PUSH1 0x4 ADD PUSH1 0x0 PUSH1 0x40 MLOAD DUP1 DUP4 SUB DUP2 DUP7 GAS STATICCALL ISZERO DUP1 ISZERO PUSH2 0x18B3 JUMPI RETURNDATASIZE PUSH1 0x0 DUP1 RETURNDATACOPY RETURNDATASIZE PUSH1 0x0 REVERT JUMPDEST POP POP POP POP PUSH1 0x40 MLOAD RETURNDATASIZE PUSH1 0x0 DUP3 RETURNDATACOPY PUSH1 0x1F RETURNDATASIZE SWAP1 DUP2 ADD PUSH1 0x1F NOT AND DUP3 ADD PUSH1 0x40 MSTORE PUSH2 0x18DB SWAP2 SWAP1 DUP2 ADD SWAP1 PUSH2 0x3316 JUMP JUMPDEST SWAP3 POP PUSH1 0x2 PUSH1 0x0 SWAP1 SLOAD SWAP1 PUSH2 0x100 EXP SWAP1 DIV PUSH1 0x1 PUSH1 0x1 PUSH1 0xA0 SHL SUB AND PUSH1 0x1 PUSH1 0x1 PUSH1 0xA0 SHL SUB AND PUSH4 0x313CE567 PUSH1 0x40 MLOAD DUP2 PUSH4 0xFFFFFFFF AND PUSH1 0xE0 SHL DUP2 MSTORE PUSH1 0x4 ADD PUSH1 0x20 PUSH1 0x40 MLOAD DUP1 DUP4 SUB DUP2 DUP7 GAS STATICCALL ISZERO DUP1 ISZERO PUSH2 0x1930 JUMPI RETURNDATASIZE PUSH1 0x0 DUP1 RETURNDATACOPY RETURNDATASIZE PUSH1 0x0 REVERT JUMPDEST POP POP POP POP PUSH1 0x40 MLOAD RETURNDATASIZE PUSH1 0x1F NOT PUSH1 0x1F DUP3 ADD AND DUP3 ADD DUP1 PUSH1 0x40 MSTORE POP DUP2 ADD SWAP1 PUSH2 0x1954 SWAP2 SWAP1 PUSH2 0x33AA JUMP JUMPDEST PUSH1 0x2 SLOAD PUSH1 0x40 MLOAD PUSH4 0x70A08231 PUSH1 0xE0 SHL DUP2 MSTORE ADDRESS PUSH1 0x4 DUP3 ADD MSTORE SWAP2 SWAP4 POP PUSH1 0x1 PUSH1 0x1 PUSH1 0xA0 SHL SUB AND SWAP1 PUSH4 0x70A08231 SWAP1 PUSH1 0x24 ADD PUSH2 0x11FD JUMP JUMPDEST PUSH1 0x0 DUP1 PUSH1 0x0 PUSH2 0x199E PUSH1 0x0 SLOAD PUSH1 0xFF PUSH1 0x1 PUSH1 0xA0 SHL SWAP1 SWAP2 DIV AND SWAP1 JUMP JUMPDEST ISZERO PUSH2 0x19DE JUMPI PUSH1 0x40 MLOAD PUSH3 0x461BCD PUSH1 0xE5 SHL DUP2 MSTORE PUSH1 0x20 PUSH1 0x4 DUP3 ADD MSTORE PUSH1 0x10 PUSH1 0x24 DUP3 ADD MSTORE PUSH16 0x14185D5CD8589B194E881C185D5CD959 PUSH1 0x82 SHL PUSH1 0x44 DUP3 ADD MSTORE PUSH1 0x64 ADD PUSH2 0x933 JUMP JUMPDEST PUSH2 0x19E6 PUSH2 0x296F JUMP JUMPDEST CALLER PUSH1 0x0 SWAP1 DUP2 MSTORE PUSH1 0x10 PUSH1 0x20 MSTORE PUSH1 0x40 SWAP1 KECCAK256 SLOAD PUSH1 0xFF AND ISZERO PUSH2 0x1A39 JUMPI PUSH1 0x40 MLOAD PUSH3 0x461BCD PUSH1 0xE5 SHL DUP2 MSTORE PUSH1 0x20 PUSH1 0x4 DUP3 ADD MSTORE PUSH1 0x10 PUSH1 0x24 DUP3 ADD MSTORE PUSH16 0x4163636F756E74206973207370616D21 PUSH1 0x80 SHL PUSH1 0x44 DUP3 ADD MSTORE PUSH1 0x64 ADD PUSH2 0x933 JUMP JUMPDEST CALLER PUSH1 0x0 SWAP1 DUP2 MSTORE PUSH1 0x8 PUSH1 0x20 MSTORE PUSH1 0x40 DUP2 KECCAK256 SLOAD DUP2 SWAP1 DUP2 SWAP1 TIMESTAMP DUP3 JUMPDEST DUP10 MLOAD DUP2 LT ISZERO PUSH2 0x1EB9 JUMPI CALLER PUSH1 0x0 SWAP1 DUP2 MSTORE PUSH1 0x7 PUSH1 0x20 MSTORE PUSH1 0x40 DUP2 KECCAK256 DUP12 MLOAD DUP13 SWAP1 DUP5 SWAP1 DUP2 LT PUSH2 0x1A7C JUMPI PUSH2 0x1A7C PUSH2 0x312A JUMP JUMPDEST PUSH1 0x20 MUL PUSH1 0x20 ADD ADD MLOAD DUP2 SLOAD DUP2 LT PUSH2 0x1A94 JUMPI PUSH2 0x1A94 PUSH2 0x312A JUMP JUMPDEST SWAP1 PUSH1 0x0 MSTORE PUSH1 0x20 PUSH1 0x0 KECCAK256 ADD SLOAD GT ISZERO PUSH2 0x1EA7 JUMPI PUSH1 0x12 SLOAD CALLER PUSH1 0x0 SWAP1 DUP2 MSTORE PUSH1 0x9 PUSH1 0x20 MSTORE PUSH1 0x40 DUP2 KECCAK256 DUP13 MLOAD SWAP2 SWAP3 SWAP2 DUP14 SWAP1 DUP6 SWAP1 DUP2 LT PUSH2 0x1ACE JUMPI PUSH2 0x1ACE PUSH2 0x312A JUMP JUMPDEST PUSH1 0x20 MUL PUSH1 0x20 ADD ADD MLOAD DUP2 SLOAD DUP2 LT PUSH2 0x1AE6 JUMPI PUSH2 0x1AE6 PUSH2 0x312A JUMP JUMPDEST SWAP1 PUSH1 0x0 MSTORE PUSH1 0x20 PUSH1 0x0 KECCAK256 ADD SLOAD PUSH2 0x1AFB SWAP2 SWAP1 PUSH2 0x3156 JUMP JUMPDEST CALLER PUSH1 0x0 SWAP1 DUP2 MSTORE PUSH1 0xA PUSH1 0x20 MSTORE PUSH1 0x40 SWAP1 KECCAK256 DUP13 MLOAD DUP14 SWAP1 DUP6 SWAP1 DUP2 LT PUSH2 0x1B1E JUMPI PUSH2 0x1B1E PUSH2 0x312A JUMP JUMPDEST PUSH1 0x20 MUL PUSH1 0x20 ADD ADD MLOAD DUP2 SLOAD DUP2 LT PUSH2 0x1B36 JUMPI PUSH2 0x1B36 PUSH2 0x312A JUMP JUMPDEST SWAP1 PUSH1 0x0 MSTORE PUSH1 0x20 PUSH1 0x0 KECCAK256 ADD SLOAD PUSH2 0x1B4B SWAP2 SWAP1 PUSH2 0x3175 JUMP JUMPDEST SWAP1 POP DUP1 DUP4 GT ISZERO PUSH2 0x1CC3 JUMPI PUSH1 0x0 PUSH2 0x2710 PUSH1 0x4 PUSH1 0x0 PUSH1 0x9 PUSH1 0x0 CALLER PUSH1 0x1 PUSH1 0x1 PUSH1 0xA0 SHL SUB AND PUSH1 0x1 PUSH1 0x1 PUSH1 0xA0 SHL SUB AND DUP2 MSTORE PUSH1 0x20 ADD SWAP1 DUP2 MSTORE PUSH1 0x20 ADD PUSH1 0x0 KECCAK256 DUP16 DUP8 DUP2 MLOAD DUP2 LT PUSH2 0x1B95 JUMPI PUSH2 0x1B95 PUSH2 0x312A JUMP JUMPDEST PUSH1 0x20 MUL PUSH1 0x20 ADD ADD MLOAD DUP2 SLOAD DUP2 LT PUSH2 0x1BAD JUMPI PUSH2 0x1BAD PUSH2 0x312A JUMP JUMPDEST SWAP1 PUSH1 0x0 MSTORE PUSH1 0x20 PUSH1 0x0 KECCAK256 ADD SLOAD DUP2 MSTORE PUSH1 0x20 ADD SWAP1 DUP2 MSTORE PUSH1 0x20 ADD PUSH1 0x0 KECCAK256 SLOAD PUSH1 0x7 PUSH1 0x0 CALLER PUSH1 0x1 PUSH1 0x1 PUSH1 0xA0 SHL SUB AND PUSH1 0x1 PUSH1 0x1 PUSH1 0xA0 SHL SUB AND DUP2 MSTORE PUSH1 0x20 ADD SWAP1 DUP2 MSTORE PUSH1 0x20 ADD PUSH1 0x0 KECCAK256 DUP15 DUP7 DUP2 MLOAD DUP2 LT PUSH2 0x1BFE JUMPI PUSH2 0x1BFE PUSH2 0x312A JUMP JUMPDEST PUSH1 0x20 MUL PUSH1 0x20 ADD ADD MLOAD DUP2 SLOAD DUP2 LT PUSH2 0x1C16 JUMPI PUSH2 0x1C16 PUSH2 0x312A JUMP JUMPDEST SWAP1 PUSH1 0x0 MSTORE PUSH1 0x20 PUSH1 0x0 KECCAK256 ADD SLOAD PUSH2 0x1C2B SWAP2 SWAP1 PUSH2 0x3156 JUMP JUMPDEST PUSH2 0x1C35 SWAP2 SWAP1 PUSH2 0x318D JUMP JUMPDEST PUSH1 0x3 SLOAD SWAP1 SWAP2 POP PUSH2 0x1C50 SWAP1 PUSH1 0x1 PUSH1 0xA8 SHL SWAP1 DIV PUSH1 0xFF AND PUSH1 0xA PUSH2 0x3293 JUMP JUMPDEST PUSH2 0x1C5A SWAP1 DUP3 PUSH2 0x318D JUMP JUMPDEST SWAP1 POP PUSH2 0x1C66 DUP2 DUP9 PUSH2 0x3175 JUMP JUMPDEST CALLER PUSH1 0x0 SWAP1 DUP2 MSTORE PUSH1 0x7 PUSH1 0x20 MSTORE PUSH1 0x40 SWAP1 KECCAK256 DUP14 MLOAD SWAP2 SWAP9 POP SWAP1 DUP14 SWAP1 DUP6 SWAP1 DUP2 LT PUSH2 0x1C8D JUMPI PUSH2 0x1C8D PUSH2 0x312A JUMP JUMPDEST PUSH1 0x20 MUL PUSH1 0x20 ADD ADD MLOAD DUP2 SLOAD DUP2 LT PUSH2 0x1CA5 JUMPI PUSH2 0x1CA5 PUSH2 0x312A JUMP JUMPDEST SWAP1 PUSH1 0x0 MSTORE PUSH1 0x20 PUSH1 0x0 KECCAK256 ADD SLOAD DUP9 PUSH2 0x1CBB SWAP2 SWAP1 PUSH2 0x3175 JUMP JUMPDEST SWAP8 POP POP PUSH2 0x1DC9 JUMP JUMPDEST PUSH1 0x11 SLOAD PUSH1 0x0 SWAP1 ISZERO PUSH2 0x1D59 JUMPI PUSH1 0x11 SLOAD CALLER PUSH1 0x0 SWAP1 DUP2 MSTORE PUSH1 0x7 PUSH1 0x20 MSTORE PUSH1 0x40 SWAP1 KECCAK256 DUP14 MLOAD PUSH2 0x2710 SWAP3 SWAP2 SWAP1 DUP16 SWAP1 DUP8 SWAP1 DUP2 LT PUSH2 0x1CFA JUMPI PUSH2 0x1CFA PUSH2 0x312A JUMP JUMPDEST PUSH1 0x20 MUL PUSH1 0x20 ADD ADD MLOAD DUP2 SLOAD DUP2 LT PUSH2 0x1D12 JUMPI PUSH2 0x1D12 PUSH2 0x312A JUMP JUMPDEST SWAP1 PUSH1 0x0 MSTORE PUSH1 0x20 PUSH1 0x0 KECCAK256 ADD SLOAD PUSH2 0x1D27 SWAP2 SWAP1 PUSH2 0x3156 JUMP JUMPDEST PUSH2 0x1D31 SWAP2 SWAP1 PUSH2 0x318D JUMP JUMPDEST PUSH1 0x3 SLOAD SWAP1 SWAP2 POP PUSH2 0x1D4C SWAP1 PUSH1 0x1 PUSH1 0xA8 SHL SWAP1 DIV PUSH1 0xFF AND PUSH1 0xA PUSH2 0x3293 JUMP JUMPDEST PUSH2 0x1D56 SWAP1 DUP3 PUSH2 0x318D JUMP JUMPDEST SWAP1 POP JUMPDEST CALLER PUSH1 0x0 SWAP1 DUP2 MSTORE PUSH1 0x7 PUSH1 0x20 MSTORE PUSH1 0x40 DUP2 KECCAK256 DUP14 MLOAD DUP4 SWAP2 SWAP1 DUP16 SWAP1 DUP8 SWAP1 DUP2 LT PUSH2 0x1D7F JUMPI PUSH2 0x1D7F PUSH2 0x312A JUMP JUMPDEST PUSH1 0x20 MUL PUSH1 0x20 ADD ADD MLOAD DUP2 SLOAD DUP2 LT PUSH2 0x1D97 JUMPI PUSH2 0x1D97 PUSH2 0x312A JUMP JUMPDEST SWAP1 PUSH1 0x0 MSTORE PUSH1 0x20 PUSH1 0x0 KECCAK256 ADD SLOAD PUSH2 0x1DAC SWAP2 SWAP1 PUSH2 0x32E9 JUMP JUMPDEST SWAP1 POP PUSH2 0x1DB8 DUP2 DUP11 PUSH2 0x3175 JUMP JUMPDEST SWAP9 POP PUSH2 0x1DC4 DUP3 DUP9 PUSH2 0x3175 JUMP JUMPDEST SWAP7 POP POP POP JUMPDEST CALLER PUSH1 0x0 SWAP1 DUP2 MSTORE PUSH1 0x7 PUSH1 0x20 MSTORE PUSH1 0x40 SWAP1 KECCAK256 DUP12 MLOAD DUP13 SWAP1 DUP5 SWAP1 DUP2 LT PUSH2 0x1DEC JUMPI PUSH2 0x1DEC PUSH2 0x312A JUMP JUMPDEST PUSH1 0x20 MUL PUSH1 0x20 ADD ADD MLOAD DUP2 SLOAD DUP2 LT PUSH2 0x1E04 JUMPI PUSH2 0x1E04 PUSH2 0x312A JUMP JUMPDEST SWAP1 PUSH1 0x0 MSTORE PUSH1 0x20 PUSH1 0x0 KECCAK256 ADD SLOAD PUSH1 0x5 PUSH1 0x0 DUP14 DUP6 DUP2 MLOAD DUP2 LT PUSH2 0x1E25 JUMPI PUSH2 0x1E25 PUSH2 0x312A JUMP JUMPDEST PUSH1 0x20 MUL PUSH1 0x20 ADD ADD MLOAD DUP2 MSTORE PUSH1 0x20 ADD SWAP1 DUP2 MSTORE PUSH1 0x20 ADD PUSH1 0x0 KECCAK256 PUSH1 0x8 ADD PUSH1 0x0 DUP3 DUP3 SLOAD PUSH2 0x1E4D SWAP2 SWAP1 PUSH2 0x32E9 JUMP JUMPDEST SWAP1 SWAP2 SSTORE POP POP CALLER PUSH1 0x0 SWAP1 DUP2 MSTORE PUSH1 0x7 PUSH1 0x20 MSTORE PUSH1 0x40 SWAP1 KECCAK256 DUP12 MLOAD DUP13 SWAP1 DUP5 SWAP1 DUP2 LT PUSH2 0x1E75 JUMPI PUSH2 0x1E75 PUSH2 0x312A JUMP JUMPDEST PUSH1 0x20 MUL PUSH1 0x20 ADD ADD MLOAD DUP2 SLOAD DUP2 LT PUSH2 0x1E8D JUMPI PUSH2 0x1E8D PUSH2 0x312A JUMP JUMPDEST SWAP1 PUSH1 0x0 MSTORE PUSH1 0x20 PUSH1 0x0 KECCAK256 ADD SLOAD DUP5 PUSH2 0x1EA3 SWAP2 SWAP1 PUSH2 0x32E9 JUMP JUMPDEST SWAP4 POP POP JUMPDEST DUP1 PUSH2 0x1EB1 DUP2 PUSH2 0x329F JUMP JUMPDEST SWAP2 POP POP PUSH2 0x1A50 JUMP JUMPDEST POP PUSH1 0x0 JUMPDEST DUP10 MLOAD DUP2 LT ISZERO PUSH2 0x20F9 JUMPI PUSH1 0x0 DUP11 DUP3 DUP2 MLOAD DUP2 LT PUSH2 0x1EDA JUMPI PUSH2 0x1EDA PUSH2 0x312A JUMP JUMPDEST PUSH1 0x20 MUL PUSH1 0x20 ADD ADD MLOAD SWAP1 POP JUMPDEST CALLER PUSH1 0x0 SWAP1 DUP2 MSTORE PUSH1 0x7 PUSH1 0x20 MSTORE PUSH1 0x40 SWAP1 KECCAK256 SLOAD PUSH2 0x1F01 SWAP1 PUSH1 0x1 SWAP1 PUSH2 0x32E9 JUMP JUMPDEST DUP2 LT ISZERO PUSH2 0x2047 JUMPI CALLER PUSH1 0x0 SWAP1 DUP2 MSTORE PUSH1 0x7 PUSH1 0x20 MSTORE PUSH1 0x40 SWAP1 KECCAK256 PUSH2 0x1F22 DUP3 PUSH1 0x1 PUSH2 0x3175 JUMP JUMPDEST DUP2 SLOAD DUP2 LT PUSH2 0x1F32 JUMPI PUSH2 0x1F32 PUSH2 0x312A JUMP JUMPDEST PUSH1 0x0 SWAP2 DUP3 MSTORE PUSH1 0x20 DUP1 DUP4 KECCAK256 SWAP1 SWAP2 ADD SLOAD CALLER DUP4 MSTORE PUSH1 0x7 SWAP1 SWAP2 MSTORE PUSH1 0x40 SWAP1 SWAP2 KECCAK256 DUP1 SLOAD DUP4 SWAP1 DUP2 LT PUSH2 0x1F5F JUMPI PUSH2 0x1F5F PUSH2 0x312A JUMP JUMPDEST PUSH1 0x0 SWAP2 DUP3 MSTORE PUSH1 0x20 DUP1 DUP4 KECCAK256 SWAP1 SWAP2 ADD SWAP3 SWAP1 SWAP3 SSTORE CALLER DUP2 MSTORE PUSH1 0x9 SWAP1 SWAP2 MSTORE PUSH1 0x40 SWAP1 KECCAK256 PUSH2 0x1F87 DUP3 PUSH1 0x1 PUSH2 0x3175 JUMP JUMPDEST DUP2 SLOAD DUP2 LT PUSH2 0x1F97 JUMPI PUSH2 0x1F97 PUSH2 0x312A JUMP JUMPDEST PUSH1 0x0 SWAP2 DUP3 MSTORE PUSH1 0x20 DUP1 DUP4 KECCAK256 SWAP1 SWAP2 ADD SLOAD CALLER DUP4 MSTORE PUSH1 0x9 SWAP1 SWAP2 MSTORE PUSH1 0x40 SWAP1 SWAP2 KECCAK256 DUP1 SLOAD DUP4 SWAP1 DUP2 LT PUSH2 0x1FC4 JUMPI PUSH2 0x1FC4 PUSH2 0x312A JUMP JUMPDEST PUSH1 0x0 SWAP2 DUP3 MSTORE PUSH1 0x20 DUP1 DUP4 KECCAK256 SWAP1 SWAP2 ADD SWAP3 SWAP1 SWAP3 SSTORE CALLER DUP2 MSTORE PUSH1 0xA SWAP1 SWAP2 MSTORE PUSH1 0x40 SWAP1 KECCAK256 PUSH2 0x1FEC DUP3 PUSH1 0x1 PUSH2 0x3175 JUMP JUMPDEST DUP2 SLOAD DUP2 LT PUSH2 0x1FFC JUMPI PUSH2 0x1FFC PUSH2 0x312A JUMP JUMPDEST PUSH1 0x0 SWAP2 DUP3 MSTORE PUSH1 0x20 DUP1 DUP4 KECCAK256 SWAP1 SWAP2 ADD SLOAD CALLER DUP4 MSTORE PUSH1 0xA SWAP1 SWAP2 MSTORE PUSH1 0x40 SWAP1 SWAP2 KECCAK256 DUP1 SLOAD DUP4 SWAP1 DUP2 LT PUSH2 0x2029 JUMPI PUSH2 0x2029 PUSH2 0x312A JUMP JUMPDEST PUSH1 0x0 SWAP2 DUP3 MSTORE PUSH1 0x20 SWAP1 SWAP2 KECCAK256 ADD SSTORE DUP1 PUSH2 0x203F DUP2 PUSH2 0x329F JUMP JUMPDEST SWAP2 POP POP PUSH2 0x1EE5 JUMP JUMPDEST POP CALLER PUSH1 0x0 SWAP1 DUP2 MSTORE PUSH1 0x7 PUSH1 0x20 MSTORE PUSH1 0x40 SWAP1 KECCAK256 DUP1 SLOAD DUP1 PUSH2 0x2066 JUMPI PUSH2 0x2066 PUSH2 0x3300 JUMP JUMPDEST PUSH1 0x0 DUP3 DUP2 MSTORE PUSH1 0x20 DUP1 DUP3 KECCAK256 DUP4 ADD PUSH1 0x0 NOT SWAP1 DUP2 ADD DUP4 SWAP1 SSTORE SWAP1 SWAP3 ADD SWAP1 SWAP3 SSTORE CALLER DUP3 MSTORE PUSH1 0x9 SWAP1 MSTORE PUSH1 0x40 SWAP1 KECCAK256 DUP1 SLOAD DUP1 PUSH2 0x209B JUMPI PUSH2 0x209B PUSH2 0x3300 JUMP JUMPDEST PUSH1 0x0 DUP3 DUP2 MSTORE PUSH1 0x20 DUP1 DUP3 KECCAK256 DUP4 ADD PUSH1 0x0 NOT SWAP1 DUP2 ADD DUP4 SWAP1 SSTORE SWAP1 SWAP3 ADD SWAP1 SWAP3 SSTORE CALLER DUP3 MSTORE PUSH1 0xA SWAP1 MSTORE PUSH1 0x40 SWAP1 KECCAK256 DUP1 SLOAD DUP1 PUSH2 0x20D0 JUMPI PUSH2 0x20D0 PUSH2 0x3300 JUMP JUMPDEST PUSH1 0x1 SWAP1 SUB DUP2 DUP2 SWAP1 PUSH1 0x0 MSTORE PUSH1 0x20 PUSH1 0x0 KECCAK256 ADD PUSH1 0x0 SWAP1 SSTORE SWAP1 SSTORE DUP1 DUP1 PUSH2 0x20F1 SWAP1 PUSH2 0x329F JUMP JUMPDEST SWAP2 POP POP PUSH2 0x1EBD JUMP JUMPDEST POP DUP5 ISZERO PUSH2 0x21AA JUMPI PUSH1 0x2 SLOAD PUSH1 0x3 SLOAD PUSH1 0x1 PUSH1 0x1 PUSH1 0xA0 SHL SUB SWAP1 SWAP2 AND SWAP1 PUSH4 0xA9059CBB SWAP1 CALLER SWAP1 PUSH2 0x212F SWAP1 PUSH1 0x1 PUSH1 0xA8 SHL SWAP1 DIV PUSH1 0xFF AND PUSH1 0xA PUSH2 0x3293 JUMP JUMPDEST PUSH2 0x2139 SWAP1 DUP10 PUSH2 0x318D JUMP JUMPDEST PUSH1 0x40 MLOAD PUSH1 0x1 PUSH1 0x1 PUSH1 0xE0 SHL SUB NOT PUSH1 0xE0 DUP6 SWAP1 SHL AND DUP2 MSTORE PUSH1 0x1 PUSH1 0x1 PUSH1 0xA0 SHL SUB SWAP1 SWAP3 AND PUSH1 0x4 DUP4 ADD MSTORE PUSH1 0x24 DUP3 ADD MSTORE PUSH1 0x44 ADD PUSH1 0x20 PUSH1 0x40 MLOAD DUP1 DUP4 SUB DUP2 PUSH1 0x0 DUP8 GAS CALL ISZERO DUP1 ISZERO PUSH2 0x2184 JUMPI RETURNDATASIZE PUSH1 0x0 DUP1 RETURNDATACOPY RETURNDATASIZE PUSH1 0x0 REVERT JUMPDEST POP POP POP POP PUSH1 0x40 MLOAD RETURNDATASIZE PUSH1 0x1F NOT PUSH1 0x1F DUP3 ADD AND DUP3 ADD DUP1 PUSH1 0x40 MSTORE POP DUP2 ADD SWAP1 PUSH2 0x21A8 SWAP2 SWAP1 PUSH2 0x33E6 JUMP JUMPDEST POP JUMPDEST DUP4 ISZERO PUSH2 0x2256 JUMPI PUSH1 0x3 SLOAD PUSH1 0x1 PUSH1 0x1 PUSH1 0xA0 SHL SUB DUP2 AND SWAP1 PUSH4 0xA9059CBB SWAP1 CALLER SWAP1 PUSH2 0x21DB SWAP1 PUSH1 0x1 PUSH1 0xB0 SHL SWAP1 DIV PUSH1 0xFF AND PUSH1 0xA PUSH2 0x3293 JUMP JUMPDEST PUSH2 0x21E5 SWAP1 DUP9 PUSH2 0x318D JUMP JUMPDEST PUSH1 0x40 MLOAD PUSH1 0x1 PUSH1 0x1 PUSH1 0xE0 SHL SUB NOT PUSH1 0xE0 DUP6 SWAP1 SHL AND DUP2 MSTORE PUSH1 0x1 PUSH1 0x1 PUSH1 0xA0 SHL SUB SWAP1 SWAP3 AND PUSH1 0x4 DUP4 ADD MSTORE PUSH1 0x24 DUP3 ADD MSTORE PUSH1 0x44 ADD PUSH1 0x20 PUSH1 0x40 MLOAD DUP1 DUP4 SUB DUP2 PUSH1 0x0 DUP8 GAS CALL ISZERO DUP1 ISZERO PUSH2 0x2230 JUMPI RETURNDATASIZE PUSH1 0x0 DUP1 RETURNDATACOPY RETURNDATASIZE PUSH1 0x0 REVERT JUMPDEST POP POP POP POP PUSH1 0x40 MLOAD RETURNDATASIZE PUSH1 0x1F NOT PUSH1 0x1F DUP3 ADD AND DUP3 ADD DUP1 PUSH1 0x40 MSTORE POP DUP2 ADD SWAP1 PUSH2 0x2254 SWAP2 SWAP1 PUSH2 0x33E6 JUMP JUMPDEST POP JUMPDEST DUP3 ISZERO PUSH2 0x2309 JUMPI PUSH1 0x2 SLOAD PUSH1 0x6 SLOAD PUSH1 0x3 SLOAD PUSH1 0x1 PUSH1 0x1 PUSH1 0xA0 SHL SUB SWAP3 DUP4 AND SWAP3 PUSH4 0xA9059CBB SWAP3 AND SWAP1 PUSH2 0x228E SWAP1 PUSH1 0x1 PUSH1 0xA8 SHL SWAP1 DIV PUSH1 0xFF AND PUSH1 0xA PUSH2 0x3293 JUMP JUMPDEST PUSH2 0x2298 SWAP1 DUP8 PUSH2 0x318D JUMP JUMPDEST PUSH1 0x40 MLOAD PUSH1 0x1 PUSH1 0x1 PUSH1 0xE0 SHL SUB NOT PUSH1 0xE0 DUP6 SWAP1 SHL AND DUP2 MSTORE PUSH1 0x1 PUSH1 0x1 PUSH1 0xA0 SHL SUB SWAP1 SWAP3 AND PUSH1 0x4 DUP4 ADD MSTORE PUSH1 0x24 DUP3 ADD MSTORE PUSH1 0x44 ADD PUSH1 0x20 PUSH1 0x40 MLOAD DUP1 DUP4 SUB DUP2 PUSH1 0x0 DUP8 GAS CALL ISZERO DUP1 ISZERO PUSH2 0x22E3 JUMPI RETURNDATASIZE PUSH1 0x0 DUP1 RETURNDATACOPY RETURNDATASIZE PUSH1 0x0 REVERT JUMPDEST POP POP POP POP PUSH1 0x40 MLOAD RETURNDATASIZE PUSH1 0x1F NOT PUSH1 0x1F DUP3 ADD AND DUP3 ADD DUP1 PUSH1 0x40 MSTORE POP DUP2 ADD SWAP1 PUSH2 0x2307 SWAP2 SWAP1 PUSH2 0x33E6 JUMP JUMPDEST POP JUMPDEST CALLER PUSH1 0x0 SWAP1 DUP2 MSTORE PUSH1 0x8 PUSH1 0x20 SWAP1 DUP2 MSTORE PUSH1 0x40 DUP1 DUP4 KECCAK256 DUP6 SWAP1 SSTORE PUSH1 0xB SWAP1 SWAP2 MSTORE DUP2 KECCAK256 DUP1 SLOAD DUP7 SWAP3 SWAP1 PUSH2 0x2335 SWAP1 DUP5 SWAP1 PUSH2 0x3175 JUMP JUMPDEST SWAP1 SWAP2 SSTORE POP POP CALLER PUSH1 0x0 SWAP1 DUP2 MSTORE PUSH1 0xC PUSH1 0x20 MSTORE PUSH1 0x40 SWAP1 KECCAK256 TIMESTAMP SWAP1 SSTORE POP POP PUSH1 0x1 DUP1 SSTORE SWAP2 SWAP7 SWAP1 SWAP6 POP SWAP1 SWAP4 POP SWAP2 POP POP JUMP JUMPDEST PUSH1 0x0 SLOAD PUSH1 0x1 PUSH1 0x1 PUSH1 0xA0 SHL SUB AND CALLER EQ PUSH2 0x2389 JUMPI PUSH1 0x40 MLOAD PUSH3 0x461BCD PUSH1 0xE5 SHL DUP2 MSTORE PUSH1 0x4 ADD PUSH2 0x933 SWAP1 PUSH2 0x30F5 JUMP JUMPDEST PUSH1 0x6 DUP1 SLOAD PUSH1 0x1 PUSH1 0x1 PUSH1 0xA0 SHL SUB NOT AND PUSH1 0x1 PUSH1 0x1 PUSH1 0xA0 SHL SUB SWAP3 SWAP1 SWAP3 AND SWAP2 SWAP1 SWAP2 OR SWAP1 SSTORE JUMP JUMPDEST PUSH1 0x13 SLOAD PUSH1 0x60 SWAP1 ISZERO PUSH2 0x24F3 JUMPI PUSH1 0x13 SLOAD PUSH8 0xFFFFFFFFFFFFFFFF DUP2 GT ISZERO PUSH2 0x23D1 JUMPI PUSH2 0x23D1 PUSH2 0x2FC5 JUMP JUMPDEST PUSH1 0x40 MLOAD SWAP1 DUP1 DUP3 MSTORE DUP1 PUSH1 0x20 MUL PUSH1 0x20 ADD DUP3 ADD PUSH1 0x40 MSTORE DUP1 ISZERO PUSH2 0x240A JUMPI DUP2 PUSH1 0x20 ADD JUMPDEST PUSH2 0x23F7 PUSH2 0x2B96 JUMP JUMPDEST DUP2 MSTORE PUSH1 0x20 ADD SWAP1 PUSH1 0x1 SWAP1 SUB SWAP1 DUP2 PUSH2 0x23EF JUMPI SWAP1 POP JUMPDEST POP SWAP1 POP PUSH1 0x0 JUMPDEST PUSH1 0x13 SLOAD DUP2 LT ISZERO PUSH2 0x24F1 JUMPI PUSH1 0x5 PUSH1 0x0 PUSH1 0x13 DUP4 DUP2 SLOAD DUP2 LT PUSH2 0x2431 JUMPI PUSH2 0x2431 PUSH2 0x312A JUMP JUMPDEST SWAP1 PUSH1 0x0 MSTORE PUSH1 0x20 PUSH1 0x0 KECCAK256 ADD SLOAD DUP2 MSTORE PUSH1 0x20 ADD SWAP1 DUP2 MSTORE PUSH1 0x20 ADD PUSH1 0x0 KECCAK256 PUSH1 0x40 MLOAD DUP1 PUSH2 0x120 ADD PUSH1 0x40 MSTORE SWAP1 DUP2 PUSH1 0x0 DUP3 ADD SLOAD DUP2 MSTORE PUSH1 0x20 ADD PUSH1 0x1 DUP3 ADD SLOAD DUP2 MSTORE PUSH1 0x20 ADD PUSH1 0x2 DUP3 ADD SLOAD DUP2 MSTORE PUSH1 0x20 ADD PUSH1 0x3 DUP3 ADD SLOAD DUP2 MSTORE PUSH1 0x20 ADD PUSH1 0x4 DUP3 ADD SLOAD DUP2 MSTORE PUSH1 0x20 ADD PUSH1 0x5 DUP3 ADD SLOAD DUP2 MSTORE PUSH1 0x20 ADD PUSH1 0x6 DUP3 ADD SLOAD DUP2 MSTORE PUSH1 0x20 ADD PUSH1 0x7 DUP3 ADD PUSH1 0x0 SWAP1 SLOAD SWAP1 PUSH2 0x100 EXP SWAP1 DIV PUSH1 0xFF AND ISZERO ISZERO ISZERO ISZERO DUP2 MSTORE PUSH1 0x20 ADD PUSH1 0x8 DUP3 ADD SLOAD DUP2 MSTORE POP POP DUP3 DUP3 DUP2 MLOAD DUP2 LT PUSH2 0x24D3 JUMPI PUSH2 0x24D3 PUSH2 0x312A JUMP JUMPDEST PUSH1 0x20 MUL PUSH1 0x20 ADD ADD DUP2 SWAP1 MSTORE POP DUP1 DUP1 PUSH2 0x24E9 SWAP1 PUSH2 0x329F JUMP JUMPDEST SWAP2 POP POP PUSH2 0x2410 JUMP JUMPDEST POP JUMPDEST SWAP1 JUMP JUMPDEST PUSH1 0x0 SLOAD PUSH1 0x1 PUSH1 0xA0 SHL SWAP1 DIV PUSH1 0xFF AND ISZERO PUSH2 0x2543 JUMPI PUSH1 0x40 MLOAD PUSH3 0x461BCD PUSH1 0xE5 SHL DUP2 MSTORE PUSH1 0x20 PUSH1 0x4 DUP3 ADD MSTORE PUSH1 0x10 PUSH1 0x24 DUP3 ADD MSTORE PUSH16 0x14185D5CD8589B194E881C185D5CD959 PUSH1 0x82 SHL PUSH1 0x44 DUP3 ADD MSTORE PUSH1 0x64 ADD PUSH2 0x933 JUMP JUMPDEST PUSH2 0x254B PUSH2 0x296F JUMP JUMPDEST CALLER PUSH1 0x0 SWAP1 DUP2 MSTORE PUSH1 0x10 PUSH1 0x20 MSTORE PUSH1 0x40 SWAP1 KECCAK256 SLOAD PUSH1 0xFF AND ISZERO PUSH2 0x259E JUMPI PUSH1 0x40 MLOAD PUSH3 0x461BCD PUSH1 0xE5 SHL DUP2 MSTORE PUSH1 0x20 PUSH1 0x4 DUP3 ADD MSTORE PUSH1 0x10 PUSH1 0x24 DUP3 ADD MSTORE PUSH16 0x4163636F756E74206973207370616D21 PUSH1 0x80 SHL PUSH1 0x44 DUP3 ADD MSTORE PUSH1 0x64 ADD PUSH2 0x933 JUMP JUMPDEST PUSH2 0x25A7 DUP2 PUSH2 0x2918 JUMP JUMPDEST PUSH2 0x25E9 JUMPI PUSH1 0x40 MLOAD PUSH3 0x461BCD PUSH1 0xE5 SHL DUP2 MSTORE PUSH1 0x20 PUSH1 0x4 DUP3 ADD MSTORE PUSH1 0x13 PUSH1 0x24 DUP3 ADD MSTORE PUSH19 0x125B9D985B1A59081B1BD8DAC81C195C9A5BD9 PUSH1 0x6A SHL PUSH1 0x44 DUP3 ADD MSTORE PUSH1 0x64 ADD PUSH2 0x933 JUMP JUMPDEST PUSH1 0x0 DUP2 DUP2 MSTORE PUSH1 0x5 PUSH1 0x20 MSTORE PUSH1 0x40 SWAP1 KECCAK256 PUSH1 0x1 ADD SLOAD DUP3 LT ISZERO PUSH2 0x263B JUMPI PUSH1 0x40 MLOAD PUSH3 0x461BCD PUSH1 0xE5 SHL DUP2 MSTORE PUSH1 0x20 PUSH1 0x4 DUP3 ADD MSTORE PUSH1 0xE PUSH1 0x24 DUP3 ADD MSTORE PUSH14 0x125B9D985B1A5908185B5BDD5B9D PUSH1 0x92 SHL PUSH1 0x44 DUP3 ADD MSTORE PUSH1 0x64 ADD PUSH2 0x933 JUMP JUMPDEST PUSH1 0x2 SLOAD PUSH1 0x40 MLOAD PUSH4 0x23B872DD PUSH1 0xE0 SHL DUP2 MSTORE CALLER PUSH1 0x4 DUP3 ADD MSTORE ADDRESS PUSH1 0x24 DUP3 ADD MSTORE PUSH1 0x44 DUP2 ADD DUP5 SWAP1 MSTORE TIMESTAMP SWAP2 PUSH1 0x1 PUSH1 0x1 PUSH1 0xA0 SHL SUB AND SWAP1 PUSH4 0x23B872DD SWAP1 PUSH1 0x64 ADD PUSH1 0x20 PUSH1 0x40 MLOAD DUP1 DUP4 SUB DUP2 PUSH1 0x0 DUP8 GAS CALL ISZERO DUP1 ISZERO PUSH2 0x2692 JUMPI RETURNDATASIZE PUSH1 0x0 DUP1 RETURNDATACOPY RETURNDATASIZE PUSH1 0x0 REVERT JUMPDEST POP POP POP POP PUSH1 0x40 MLOAD RETURNDATASIZE PUSH1 0x1F NOT PUSH1 0x1F DUP3 ADD AND DUP3 ADD DUP1 PUSH1 0x40 MSTORE POP DUP2 ADD SWAP1 PUSH2 0x26B6 SWAP2 SWAP1 PUSH2 0x33E6 JUMP JUMPDEST POP CALLER PUSH1 0x0 DUP2 DUP2 MSTORE PUSH1 0x7 PUSH1 0x20 SWAP1 DUP2 MSTORE PUSH1 0x40 DUP1 DUP4 KECCAK256 DUP1 SLOAD PUSH1 0x1 DUP2 DUP2 ADD DUP4 SSTORE SWAP2 DUP6 MSTORE DUP4 DUP6 KECCAK256 ADD DUP9 SWAP1 SSTORE DUP5 DUP5 MSTORE PUSH1 0xA DUP4 MSTORE DUP2 DUP5 KECCAK256 DUP1 SLOAD SWAP2 DUP3 ADD DUP2 SSTORE DUP5 MSTORE DUP3 DUP5 KECCAK256 PUSH5 0xFFFFFFFFFF DUP8 AND SWAP2 ADD SSTORE SWAP3 DUP3 MSTORE PUSH1 0x8 SWAP1 MSTORE SWAP1 DUP2 KECCAK256 DUP1 SLOAD DUP6 SWAP3 SWAP1 PUSH2 0x2717 SWAP1 DUP5 SWAP1 PUSH2 0x3175 JUMP JUMPDEST SWAP1 SWAP2 SSTORE POP POP CALLER PUSH1 0x0 DUP2 DUP2 MSTORE PUSH1 0x9 PUSH1 0x20 SWAP1 DUP2 MSTORE PUSH1 0x40 DUP1 DUP4 KECCAK256 DUP1 SLOAD PUSH1 0x1 DUP2 ADD DUP3 SSTORE SWAP1 DUP5 MSTORE DUP3 DUP5 KECCAK256 ADD DUP7 SWAP1 SSTORE SWAP3 DUP3 MSTORE PUSH1 0xC DUP2 MSTORE DUP3 DUP3 KECCAK256 TIMESTAMP SWAP1 SSTORE DUP5 DUP3 MSTORE PUSH1 0x5 SWAP1 MSTORE SWAP1 DUP2 KECCAK256 PUSH1 0x8 ADD DUP1 SLOAD DUP6 SWAP3 SWAP1 PUSH2 0x276A SWAP1 DUP5 SWAP1 PUSH2 0x3175 JUMP JUMPDEST SWAP1 SWAP2 SSTORE POP POP CALLER PUSH1 0x0 SWAP1 DUP2 MSTORE PUSH1 0xD PUSH1 0x20 MSTORE PUSH1 0x40 SWAP1 KECCAK256 SLOAD PUSH1 0xFF AND PUSH2 0x27D7 JUMPI PUSH1 0xF DUP1 SLOAD SWAP1 PUSH1 0x0 PUSH2 0x2796 DUP4 PUSH2 0x329F JUMP JUMPDEST SWAP1 SWAP2 SSTORE POP POP PUSH1 0xF SLOAD PUSH1 0x0 SWAP1 DUP2 MSTORE PUSH1 0xE PUSH1 0x20 SWAP1 DUP2 MSTORE PUSH1 0x40 DUP1 DUP4 KECCAK256 DUP1 SLOAD PUSH1 0x1 PUSH1 0x1 PUSH1 0xA0 SHL SUB NOT AND CALLER SWAP1 DUP2 OR SWAP1 SWAP2 SSTORE DUP4 MSTORE PUSH1 0xD SWAP1 SWAP2 MSTORE SWAP1 KECCAK256 DUP1 SLOAD PUSH1 0xFF NOT AND PUSH1 0x1 OR SWAP1 SSTORE JUMPDEST PUSH2 0x27DF PUSH2 0x29C9 JUMP JUMPDEST PUSH1 0x40 DUP1 MLOAD DUP5 DUP2 MSTORE PUSH1 0x20 DUP2 ADD DUP5 SWAP1 MSTORE SWAP1 DUP2 ADD DUP3 SWAP1 MSTORE ADDRESS SWAP1 CALLER SWAP1 PUSH32 0xE44628ED4B392C5EF46FFC833D640EEFD957E81A312E583E0CC57EED5F04ADA3 SWAP1 PUSH1 0x60 ADD PUSH1 0x40 MLOAD DUP1 SWAP2 SUB SWAP1 LOG3 POP PUSH2 0x9B9 PUSH1 0x1 DUP1 SSTORE JUMP JUMPDEST PUSH1 0x0 SLOAD PUSH1 0x1 PUSH1 0x1 PUSH1 0xA0 SHL SUB AND CALLER EQ PUSH2 0x2858 JUMPI PUSH1 0x40 MLOAD PUSH3 0x461BCD PUSH1 0xE5 SHL DUP2 MSTORE PUSH1 0x4 ADD PUSH2 0x933 SWAP1 PUSH2 0x30F5 JUMP JUMPDEST PUSH1 0x1 PUSH1 0x1 PUSH1 0xA0 SHL SUB DUP2 AND PUSH2 0x28BD JUMPI PUSH1 0x40 MLOAD PUSH3 0x461BCD PUSH1 0xE5 SHL DUP2 MSTORE PUSH1 0x20 PUSH1 0x4 DUP3 ADD MSTORE PUSH1 0x26 PUSH1 0x24 DUP3 ADD MSTORE PUSH32 0x4F776E61626C653A206E6577206F776E657220697320746865207A65726F2061 PUSH1 0x44 DUP3 ADD MSTORE PUSH6 0x646472657373 PUSH1 0xD0 SHL PUSH1 0x64 DUP3 ADD MSTORE PUSH1 0x84 ADD PUSH2 0x933 JUMP JUMPDEST PUSH1 0x0 DUP1 SLOAD PUSH1 0x40 MLOAD PUSH1 0x1 PUSH1 0x1 PUSH1 0xA0 SHL SUB DUP1 DUP6 AND SWAP4 SWAP3 AND SWAP2 PUSH32 0x8BE0079C531659141344CD1FD0A4F28419497F9722A3DAAFE3B4186F6B6457E0 SWAP2 LOG3 PUSH1 0x0 DUP1 SLOAD PUSH1 0x1 PUSH1 0x1 PUSH1 0xA0 SHL SUB NOT AND PUSH1 0x1 PUSH1 0x1 PUSH1 0xA0 SHL SUB SWAP3 SWAP1 SWAP3 AND SWAP2 SWAP1 SWAP2 OR SWAP1 SSTORE JUMP JUMPDEST PUSH1 0x0 DUP1 JUMPDEST PUSH1 0x13 SLOAD DUP2 LT ISZERO PUSH2 0x2966 JUMPI DUP3 PUSH1 0x13 DUP3 DUP2 SLOAD DUP2 LT PUSH2 0x293A JUMPI PUSH2 0x293A PUSH2 0x312A JUMP JUMPDEST SWAP1 PUSH1 0x0 MSTORE PUSH1 0x20 PUSH1 0x0 KECCAK256 ADD SLOAD EQ ISZERO PUSH2 0x2954 JUMPI POP PUSH1 0x1 SWAP3 SWAP2 POP POP JUMP JUMPDEST DUP1 PUSH2 0x295E DUP2 PUSH2 0x329F JUMP JUMPDEST SWAP2 POP POP PUSH2 0x291C JUMP JUMPDEST POP PUSH1 0x0 SWAP3 SWAP2 POP POP JUMP JUMPDEST PUSH1 0x2 PUSH1 0x1 SLOAD EQ ISZERO PUSH2 0x29C2 JUMPI PUSH1 0x40 MLOAD PUSH3 0x461BCD PUSH1 0xE5 SHL DUP2 MSTORE PUSH1 0x20 PUSH1 0x4 DUP3 ADD MSTORE PUSH1 0x1F PUSH1 0x24 DUP3 ADD MSTORE PUSH32 0x5265656E7472616E637947756172643A207265656E7472616E742063616C6C00 PUSH1 0x44 DUP3 ADD MSTORE PUSH1 0x64 ADD PUSH2 0x933 JUMP JUMPDEST PUSH1 0x2 PUSH1 0x1 SSTORE JUMP JUMPDEST PUSH1 0x2 SLOAD PUSH1 0x40 MLOAD PUSH4 0x70A08231 PUSH1 0xE0 SHL DUP2 MSTORE ADDRESS PUSH1 0x4 DUP3 ADD MSTORE PUSH1 0x0 SWAP2 PUSH1 0x1 PUSH1 0x1 PUSH1 0xA0 SHL SUB AND SWAP1 PUSH4 0x70A08231 SWAP1 PUSH1 0x24 ADD PUSH1 0x20 PUSH1 0x40 MLOAD DUP1 DUP4 SUB DUP2 DUP7 GAS STATICCALL ISZERO DUP1 ISZERO PUSH2 0x2A12 JUMPI RETURNDATASIZE PUSH1 0x0 DUP1 RETURNDATACOPY RETURNDATASIZE PUSH1 0x0 REVERT JUMPDEST POP POP POP POP PUSH1 0x40 MLOAD RETURNDATASIZE PUSH1 0x1F NOT PUSH1 0x1F DUP3 ADD AND DUP3 ADD DUP1 PUSH1 0x40 MSTORE POP DUP2 ADD SWAP1 PUSH2 0x2A36 SWAP2 SWAP1 PUSH2 0x33CD JUMP JUMPDEST SWAP1 POP PUSH1 0x0 JUMPDEST PUSH1 0x13 SLOAD DUP2 LT ISZERO PUSH2 0x9B9 JUMPI PUSH1 0x0 PUSH1 0x13 DUP3 DUP2 SLOAD DUP2 LT PUSH2 0x2A5A JUMPI PUSH2 0x2A5A PUSH2 0x312A JUMP JUMPDEST PUSH1 0x0 SWAP2 DUP3 MSTORE PUSH1 0x20 DUP1 DUP4 KECCAK256 SWAP1 SWAP2 ADD SLOAD DUP1 DUP4 MSTORE PUSH1 0x5 DUP1 DUP4 MSTORE PUSH1 0x40 SWAP4 DUP5 SWAP1 KECCAK256 DUP5 MLOAD PUSH2 0x120 DUP2 ADD DUP7 MSTORE DUP2 SLOAD DUP2 MSTORE PUSH1 0x1 DUP3 ADD SLOAD SWAP5 DUP2 ADD SWAP5 SWAP1 SWAP5 MSTORE PUSH1 0x2 DUP2 ADD SLOAD SWAP5 DUP5 ADD SWAP5 SWAP1 SWAP5 MSTORE PUSH1 0x3 DUP5 ADD SLOAD PUSH1 0x60 DUP5 ADD MSTORE PUSH1 0x4 DUP5 ADD SLOAD PUSH1 0x80 DUP5 ADD MSTORE DUP4 ADD SLOAD PUSH1 0xA0 DUP4 ADD MSTORE PUSH1 0x6 DUP4 ADD SLOAD PUSH1 0xC0 DUP4 ADD MSTORE PUSH1 0x7 DUP4 ADD SLOAD PUSH1 0xFF AND ISZERO ISZERO PUSH1 0xE0 DUP4 ADD DUP2 SWAP1 MSTORE PUSH1 0x8 SWAP1 SWAP4 ADD SLOAD PUSH2 0x100 DUP4 ADD MSTORE SWAP3 POP SWAP1 PUSH2 0x2B81 JUMPI PUSH1 0x0 DUP2 PUSH1 0xC0 ADD MLOAD DUP6 PUSH2 0x2AF7 SWAP2 SWAP1 PUSH2 0x318D JUMP JUMPDEST SWAP1 POP PUSH1 0x0 DUP3 PUSH1 0xA0 ADD MLOAD DUP3 PUSH2 0x2B0B SWAP2 SWAP1 PUSH2 0x3156 JUMP JUMPDEST SWAP1 POP DUP3 PUSH1 0x80 ADD MLOAD DUP4 PUSH1 0x60 ADD MLOAD PUSH2 0x2B21 SWAP2 SWAP1 PUSH2 0x32E9 JUMP JUMPDEST DUP2 GT PUSH2 0x2B4B JUMPI DUP1 DUP4 PUSH1 0x60 ADD MLOAD PUSH2 0x2B37 SWAP2 SWAP1 PUSH2 0x32E9 JUMP JUMPDEST PUSH1 0x0 DUP6 DUP2 MSTORE PUSH1 0x4 PUSH1 0x20 MSTORE PUSH1 0x40 SWAP1 KECCAK256 SSTORE PUSH2 0x2B60 JUMP JUMPDEST PUSH1 0x80 DUP4 ADD MLOAD PUSH1 0x0 DUP6 DUP2 MSTORE PUSH1 0x4 PUSH1 0x20 MSTORE PUSH1 0x40 SWAP1 KECCAK256 SSTORE JUMPDEST POP POP PUSH1 0x0 DUP3 DUP2 MSTORE PUSH1 0x4 PUSH1 0x20 SWAP1 DUP2 MSTORE PUSH1 0x40 DUP1 DUP4 KECCAK256 SLOAD PUSH1 0x5 SWAP1 SWAP3 MSTORE SWAP1 SWAP2 KECCAK256 PUSH1 0x2 ADD SSTORE JUMPDEST POP POP DUP1 DUP1 PUSH2 0x2B8E SWAP1 PUSH2 0x329F JUMP JUMPDEST SWAP2 POP POP PUSH2 0x2A3B JUMP JUMPDEST PUSH1 0x40 MLOAD DUP1 PUSH2 0x120 ADD PUSH1 0x40 MSTORE DUP1 PUSH1 0x0 DUP2 MSTORE PUSH1 0x20 ADD PUSH1 0x0 DUP2 MSTORE PUSH1 0x20 ADD PUSH1 0x0 DUP2 MSTORE PUSH1 0x20 ADD PUSH1 0x0 DUP2 MSTORE PUSH1 0x20 ADD PUSH1 0x0 DUP2 MSTORE PUSH1 0x20 ADD PUSH1 0x0 DUP2 MSTORE PUSH1 0x20 ADD PUSH1 0x0 DUP2 MSTORE PUSH1 0x20 ADD PUSH1 0x0 ISZERO ISZERO DUP2 MSTORE PUSH1 0x20 ADD PUSH1 0x0 DUP2 MSTORE POP SWAP1 JUMP JUMPDEST PUSH1 0x40 MLOAD DUP1 PUSH1 0xE0 ADD PUSH1 0x40 MSTORE DUP1 PUSH1 0x0 PUSH1 0x1 PUSH1 0x1 PUSH1 0xA0 SHL SUB AND DUP2 MSTORE PUSH1 0x20 ADD PUSH1 0x0 DUP2 MSTORE PUSH1 0x20 ADD PUSH1 0x0 DUP2 MSTORE PUSH1 0x20 ADD PUSH1 0x60 DUP2 MSTORE PUSH1 0x20 ADD PUSH1 0x0 DUP2 MSTORE PUSH1 0x20 ADD PUSH1 0x0 DUP2 MSTORE PUSH1 0x20 ADD PUSH1 0x60 DUP2 MSTORE POP SWAP1 JUMP JUMPDEST PUSH1 0x1 PUSH1 0x1 PUSH1 0xA0 SHL SUB DUP2 AND DUP2 EQ PUSH2 0x2C3F JUMPI PUSH1 0x0 DUP1 REVERT JUMPDEST POP JUMP JUMPDEST PUSH1 0x0 PUSH1 0x20 DUP3 DUP5 SUB SLT ISZERO PUSH2 0x2C54 JUMPI PUSH1 0x0 DUP1 REVERT JUMPDEST DUP2 CALLDATALOAD PUSH2 0x2C5F DUP2 PUSH2 0x2C2A JUMP JUMPDEST SWAP4 SWAP3 POP POP POP JUMP JUMPDEST PUSH1 0x0 PUSH1 0x20 DUP3 DUP5 SUB SLT ISZERO PUSH2 0x2C78 JUMPI PUSH1 0x0 DUP1 REVERT JUMPDEST POP CALLDATALOAD SWAP2 SWAP1 POP JUMP JUMPDEST DUP1 MLOAD DUP3 MSTORE PUSH1 0x20 DUP2 ADD MLOAD PUSH1 0x20 DUP4 ADD MSTORE PUSH1 0x40 DUP2 ADD MLOAD PUSH1 0x40 DUP4 ADD MSTORE PUSH1 0x60 DUP2 ADD MLOAD PUSH1 0x60 DUP4 ADD MSTORE PUSH1 0x80 DUP2 ADD MLOAD PUSH1 0x80 DUP4 ADD MSTORE PUSH1 0xA0 DUP2 ADD MLOAD PUSH1 0xA0 DUP4 ADD MSTORE PUSH1 0xC0 DUP2 ADD MLOAD PUSH1 0xC0 DUP4 ADD MSTORE PUSH1 0xE0 DUP2 ADD MLOAD ISZERO ISZERO PUSH1 0xE0 DUP4 ADD MSTORE PUSH2 0x100 DUP1 DUP3 ADD MLOAD DUP2 DUP5 ADD MSTORE POP POP POP JUMP JUMPDEST PUSH2 0x120 DUP2 ADD PUSH2 0x2CEA DUP3 DUP5 PUSH2 0x2C7F JUMP JUMPDEST SWAP3 SWAP2 POP POP JUMP JUMPDEST PUSH1 0x20 DUP1 DUP3 MSTORE DUP3 MLOAD DUP3 DUP3 ADD DUP2 SWAP1 MSTORE PUSH1 0x0 SWAP2 SWAP1 DUP5 DUP3 ADD SWAP1 PUSH1 0x40 DUP6 ADD SWAP1 DUP5 JUMPDEST DUP2 DUP2 LT ISZERO PUSH2 0x2D28 JUMPI DUP4 MLOAD DUP4 MSTORE SWAP3 DUP5 ADD SWAP3 SWAP2 DUP5 ADD SWAP2 PUSH1 0x1 ADD PUSH2 0x2D0C JUMP JUMPDEST POP SWAP1 SWAP7 SWAP6 POP POP POP POP POP POP JUMP JUMPDEST PUSH1 0x0 DUP1 PUSH1 0x40 DUP4 DUP6 SUB SLT ISZERO PUSH2 0x2D47 JUMPI PUSH1 0x0 DUP1 REVERT JUMPDEST POP POP DUP1 CALLDATALOAD SWAP3 PUSH1 0x20 SWAP1 SWAP2 ADD CALLDATALOAD SWAP2 POP JUMP JUMPDEST PUSH1 0x0 DUP2 MLOAD DUP1 DUP5 MSTORE PUSH1 0x20 DUP1 DUP6 ADD SWAP5 POP DUP1 DUP5 ADD PUSH1 0x0 JUMPDEST DUP4 DUP2 LT ISZERO PUSH2 0x2D86 JUMPI DUP2 MLOAD DUP8 MSTORE SWAP6 DUP3 ADD SWAP6 SWAP1 DUP3 ADD SWAP1 PUSH1 0x1 ADD PUSH2 0x2D6A JUMP JUMPDEST POP SWAP5 SWAP6 SWAP5 POP POP POP POP POP JUMP JUMPDEST PUSH1 0x1 DUP1 PUSH1 0xA0 SHL SUB DUP2 MLOAD AND DUP3 MSTORE PUSH1 0x20 DUP2 ADD MLOAD PUSH1 0x20 DUP4 ADD MSTORE PUSH1 0x40 DUP2 ADD MLOAD PUSH1 0x40 DUP4 ADD MSTORE PUSH1 0x0 PUSH1 0x60 DUP3 ADD MLOAD PUSH1 0xE0 PUSH1 0x60 DUP6 ADD MSTORE PUSH2 0x2DCC PUSH1 0xE0 DUP6 ADD DUP3 PUSH2 0x2D56 JUMP JUMPDEST SWAP1 POP PUSH1 0x80 DUP4 ADD MLOAD PUSH1 0x80 DUP6 ADD MSTORE PUSH1 0xA0 DUP4 ADD MLOAD PUSH1 0xA0 DUP6 ADD MSTORE PUSH1 0xC0 DUP4 ADD MLOAD DUP5 DUP3 SUB PUSH1 0xC0 DUP7 ADD MSTORE PUSH2 0x2DF9 DUP3 DUP3 PUSH2 0x2D56 JUMP JUMPDEST SWAP6 SWAP5 POP POP POP POP POP JUMP JUMPDEST PUSH1 0x0 PUSH1 0x20 DUP1 DUP4 ADD DUP2 DUP5 MSTORE DUP1 DUP6 MLOAD DUP1 DUP4 MSTORE PUSH1 0x40 DUP7 ADD SWAP2 POP PUSH1 0x40 DUP2 PUSH1 0x5 SHL DUP8 ADD ADD SWAP3 POP DUP4 DUP8 ADD PUSH1 0x0 JUMPDEST DUP3 DUP2 LT ISZERO PUSH2 0x2E57 JUMPI PUSH1 0x3F NOT DUP9 DUP7 SUB ADD DUP5 MSTORE PUSH2 0x2E45 DUP6 DUP4 MLOAD PUSH2 0x2D91 JUMP JUMPDEST SWAP5 POP SWAP3 DUP6 ADD SWAP3 SWAP1 DUP6 ADD SWAP1 PUSH1 0x1 ADD PUSH2 0x2E29 JUMP JUMPDEST POP SWAP3 SWAP8 SWAP7 POP POP POP POP POP POP POP JUMP JUMPDEST PUSH1 0x0 JUMPDEST DUP4 DUP2 LT ISZERO PUSH2 0x2E7F JUMPI DUP2 DUP2 ADD MLOAD DUP4 DUP3 ADD MSTORE PUSH1 0x20 ADD PUSH2 0x2E67 JUMP JUMPDEST DUP4 DUP2 GT ISZERO PUSH2 0x2E8E JUMPI PUSH1 0x0 DUP5 DUP5 ADD MSTORE JUMPDEST POP POP POP POP JUMP JUMPDEST PUSH1 0x0 DUP2 MLOAD DUP1 DUP5 MSTORE PUSH2 0x2EAC DUP2 PUSH1 0x20 DUP7 ADD PUSH1 0x20 DUP7 ADD PUSH2 0x2E64 JUMP JUMPDEST PUSH1 0x1F ADD PUSH1 0x1F NOT AND SWAP3 SWAP1 SWAP3 ADD PUSH1 0x20 ADD SWAP3 SWAP2 POP POP JUMP JUMPDEST PUSH1 0x1 PUSH1 0x1 PUSH1 0xA0 SHL SUB DUP7 AND DUP2 MSTORE PUSH1 0xA0 PUSH1 0x20 DUP3 ADD DUP2 SWAP1 MSTORE PUSH1 0x0 SWAP1 PUSH2 0x2EE4 SWAP1 DUP4 ADD DUP8 PUSH2 0x2E94 JUMP JUMPDEST DUP3 DUP2 SUB PUSH1 0x40 DUP5 ADD MSTORE PUSH2 0x2EF6 DUP2 DUP8 PUSH2 0x2E94 JUMP JUMPDEST PUSH1 0xFF SWAP6 SWAP1 SWAP6 AND PUSH1 0x60 DUP5 ADD MSTORE POP POP PUSH1 0x80 ADD MSTORE SWAP4 SWAP3 POP POP POP JUMP JUMPDEST PUSH1 0x20 DUP2 MSTORE PUSH1 0x0 PUSH2 0x2C5F PUSH1 0x20 DUP4 ADD DUP5 PUSH2 0x2D91 JUMP JUMPDEST PUSH1 0x0 DUP1 PUSH1 0x40 DUP4 DUP6 SUB SLT ISZERO PUSH2 0x2F34 JUMPI PUSH1 0x0 DUP1 REVERT JUMPDEST DUP3 CALLDATALOAD PUSH2 0x2F3F DUP2 PUSH2 0x2C2A JUMP JUMPDEST SWAP5 PUSH1 0x20 SWAP4 SWAP1 SWAP4 ADD CALLDATALOAD SWAP4 POP POP POP JUMP JUMPDEST DUP1 ISZERO ISZERO DUP2 EQ PUSH2 0x2C3F JUMPI PUSH1 0x0 DUP1 REVERT JUMPDEST PUSH1 0x0 DUP1 PUSH1 0x0 DUP1 PUSH1 0x0 DUP1 PUSH1 0x0 DUP1 PUSH2 0x100 DUP10 DUP12 SUB SLT ISZERO PUSH2 0x2F78 JUMPI PUSH1 0x0 DUP1 REVERT JUMPDEST DUP9 CALLDATALOAD SWAP8 POP PUSH1 0x20 DUP10 ADD CALLDATALOAD SWAP7 POP PUSH1 0x40 DUP10 ADD CALLDATALOAD SWAP6 POP PUSH1 0x60 DUP10 ADD CALLDATALOAD SWAP5 POP PUSH1 0x80 DUP10 ADD CALLDATALOAD SWAP4 POP PUSH1 0xA0 DUP10 ADD CALLDATALOAD SWAP3 POP PUSH1 0xC0 DUP10 ADD CALLDATALOAD SWAP2 POP PUSH1 0xE0 DUP10 ADD CALLDATALOAD PUSH2 0x2FB4 DUP2 PUSH2 0x2F4D JUMP JUMPDEST DUP1 SWAP2 POP POP SWAP3 SWAP6 SWAP9 POP SWAP3 SWAP6 SWAP9 SWAP1 SWAP4 SWAP7 POP JUMP JUMPDEST PUSH4 0x4E487B71 PUSH1 0xE0 SHL PUSH1 0x0 MSTORE PUSH1 0x41 PUSH1 0x4 MSTORE PUSH1 0x24 PUSH1 0x0 REVERT JUMPDEST PUSH1 0x40 MLOAD PUSH1 0x1F DUP3 ADD PUSH1 0x1F NOT AND DUP2 ADD PUSH8 0xFFFFFFFFFFFFFFFF DUP2 GT DUP3 DUP3 LT OR ISZERO PUSH2 0x3004 JUMPI PUSH2 0x3004 PUSH2 0x2FC5 JUMP JUMPDEST PUSH1 0x40 MSTORE SWAP2 SWAP1 POP JUMP JUMPDEST PUSH1 0x0 PUSH1 0x20 DUP1 DUP4 DUP6 SUB SLT ISZERO PUSH2 0x301F JUMPI PUSH1 0x0 DUP1 REVERT JUMPDEST DUP3 CALLDATALOAD PUSH8 0xFFFFFFFFFFFFFFFF DUP1 DUP3 GT ISZERO PUSH2 0x3037 JUMPI PUSH1 0x0 DUP1 REVERT JUMPDEST DUP2 DUP6 ADD SWAP2 POP DUP6 PUSH1 0x1F DUP4 ADD SLT PUSH2 0x304B JUMPI PUSH1 0x0 DUP1 REVERT JUMPDEST DUP2 CALLDATALOAD DUP2 DUP2 GT ISZERO PUSH2 0x305D JUMPI PUSH2 0x305D PUSH2 0x2FC5 JUMP JUMPDEST DUP1 PUSH1 0x5 SHL SWAP2 POP PUSH2 0x306E DUP5 DUP4 ADD PUSH2 0x2FDB JUMP JUMPDEST DUP2 DUP2 MSTORE SWAP2 DUP4 ADD DUP5 ADD SWAP2 DUP5 DUP2 ADD SWAP1 DUP9 DUP5 GT ISZERO PUSH2 0x3088 JUMPI PUSH1 0x0 DUP1 REVERT JUMPDEST SWAP4 DUP6 ADD SWAP4 JUMPDEST DUP4 DUP6 LT ISZERO PUSH2 0x30A6 JUMPI DUP5 CALLDATALOAD DUP3 MSTORE SWAP4 DUP6 ADD SWAP4 SWAP1 DUP6 ADD SWAP1 PUSH2 0x308D JUMP JUMPDEST SWAP9 SWAP8 POP POP POP POP POP POP POP POP JUMP JUMPDEST PUSH1 0x20 DUP1 DUP3 MSTORE DUP3 MLOAD DUP3 DUP3 ADD DUP2 SWAP1 MSTORE PUSH1 0x0 SWAP2 SWAP1 DUP5 DUP3 ADD SWAP1 PUSH1 0x40 DUP6 ADD SWAP1 DUP5 JUMPDEST DUP2 DUP2 LT ISZERO PUSH2 0x2D28 JUMPI PUSH2 0x30E1 DUP4 DUP6 MLOAD PUSH2 0x2C7F JUMP JUMPDEST SWAP3 DUP5 ADD SWAP3 PUSH2 0x120 SWAP3 SWAP1 SWAP3 ADD SWAP2 PUSH1 0x1 ADD PUSH2 0x30CE JUMP JUMPDEST PUSH1 0x20 DUP1 DUP3 MSTORE DUP2 DUP2 ADD MSTORE PUSH32 0x4F776E61626C653A2063616C6C6572206973206E6F7420746865206F776E6572 PUSH1 0x40 DUP3 ADD MSTORE PUSH1 0x60 ADD SWAP1 JUMP JUMPDEST PUSH4 0x4E487B71 PUSH1 0xE0 SHL PUSH1 0x0 MSTORE PUSH1 0x32 PUSH1 0x4 MSTORE PUSH1 0x24 PUSH1 0x0 REVERT JUMPDEST PUSH4 0x4E487B71 PUSH1 0xE0 SHL PUSH1 0x0 MSTORE PUSH1 0x11 PUSH1 0x4 MSTORE PUSH1 0x24 PUSH1 0x0 REVERT JUMPDEST PUSH1 0x0 DUP2 PUSH1 0x0 NOT DIV DUP4 GT DUP3 ISZERO ISZERO AND ISZERO PUSH2 0x3170 JUMPI PUSH2 0x3170 PUSH2 0x3140 JUMP JUMPDEST POP MUL SWAP1 JUMP JUMPDEST PUSH1 0x0 DUP3 NOT DUP3 GT ISZERO PUSH2 0x3188 JUMPI PUSH2 0x3188 PUSH2 0x3140 JUMP JUMPDEST POP ADD SWAP1 JUMP JUMPDEST PUSH1 0x0 DUP3 PUSH2 0x31AA JUMPI PUSH4 0x4E487B71 PUSH1 0xE0 SHL PUSH1 0x0 MSTORE PUSH1 0x12 PUSH1 0x4 MSTORE PUSH1 0x24 PUSH1 0x0 REVERT JUMPDEST POP DIV SWAP1 JUMP JUMPDEST PUSH1 0x1 DUP2 DUP2 JUMPDEST DUP1 DUP6 GT ISZERO PUSH2 0x31EA JUMPI DUP2 PUSH1 0x0 NOT DIV DUP3 GT ISZERO PUSH2 0x31D0 JUMPI PUSH2 0x31D0 PUSH2 0x3140 JUMP JUMPDEST DUP1 DUP6 AND ISZERO PUSH2 0x31DD JUMPI SWAP2 DUP2 MUL SWAP2 JUMPDEST SWAP4 DUP5 SHR SWAP4 SWAP1 DUP1 MUL SWAP1 PUSH2 0x31B4 JUMP JUMPDEST POP SWAP3 POP SWAP3 SWAP1 POP JUMP JUMPDEST PUSH1 0x0 DUP3 PUSH2 0x3201 JUMPI POP PUSH1 0x1 PUSH2 0x2CEA JUMP JUMPDEST DUP2 PUSH2 0x320E JUMPI POP PUSH1 0x0 PUSH2 0x2CEA JUMP JUMPDEST DUP2 PUSH1 0x1 DUP2 EQ PUSH2 0x3224 JUMPI PUSH1 0x2 DUP2 EQ PUSH2 0x322E JUMPI PUSH2 0x324A JUMP JUMPDEST PUSH1 0x1 SWAP2 POP POP PUSH2 0x2CEA JUMP JUMPDEST PUSH1 0xFF DUP5 GT ISZERO PUSH2 0x323F JUMPI PUSH2 0x323F PUSH2 0x3140 JUMP JUMPDEST POP POP PUSH1 0x1 DUP3 SHL PUSH2 0x2CEA JUMP JUMPDEST POP PUSH1 0x20 DUP4 LT PUSH2 0x133 DUP4 LT AND PUSH1 0x4E DUP5 LT PUSH1 0xB DUP5 LT AND OR ISZERO PUSH2 0x326D JUMPI POP DUP2 DUP2 EXP PUSH2 0x2CEA JUMP JUMPDEST PUSH2 0x3277 DUP4 DUP4 PUSH2 0x31AF JUMP JUMPDEST DUP1 PUSH1 0x0 NOT DIV DUP3 GT ISZERO PUSH2 0x328B JUMPI PUSH2 0x328B PUSH2 0x3140 JUMP JUMPDEST MUL SWAP4 SWAP3 POP POP POP JUMP JUMPDEST PUSH1 0x0 PUSH2 0x2C5F DUP4 DUP4 PUSH2 0x31F2 JUMP JUMPDEST PUSH1 0x0 PUSH1 0x0 NOT DUP3 EQ ISZERO PUSH2 0x32B3 JUMPI PUSH2 0x32B3 PUSH2 0x3140 JUMP JUMPDEST POP PUSH1 0x1 ADD SWAP1 JUMP JUMPDEST PUSH1 0x20 DUP1 DUP3 MSTORE PUSH1 0x15 SWAP1 DUP3 ADD MSTORE PUSH21 0x131BD8DAC81C195C9A5BD9081B9BDD08199BDD5B99 PUSH1 0x5A SHL PUSH1 0x40 DUP3 ADD MSTORE PUSH1 0x60 ADD SWAP1 JUMP JUMPDEST PUSH1 0x0 DUP3 DUP3 LT ISZERO PUSH2 0x32FB JUMPI PUSH2 0x32FB PUSH2 0x3140 JUMP JUMPDEST POP SUB SWAP1 JUMP JUMPDEST PUSH4 0x4E487B71 PUSH1 0xE0 SHL PUSH1 0x0 MSTORE PUSH1 0x31 PUSH1 0x4 MSTORE PUSH1 0x24 PUSH1 0x0 REVERT JUMPDEST PUSH1 0x0 PUSH1 0x20 DUP3 DUP5 SUB SLT ISZERO PUSH2 0x3328 JUMPI PUSH1 0x0 DUP1 REVERT JUMPDEST DUP2 MLOAD PUSH8 0xFFFFFFFFFFFFFFFF DUP1 DUP3 GT ISZERO PUSH2 0x3340 JUMPI PUSH1 0x0 DUP1 REVERT JUMPDEST DUP2 DUP5 ADD SWAP2 POP DUP5 PUSH1 0x1F DUP4 ADD SLT PUSH2 0x3354 JUMPI PUSH1 0x0 DUP1 REVERT JUMPDEST DUP2 MLOAD DUP2 DUP2 GT ISZERO PUSH2 0x3366 JUMPI PUSH2 0x3366 PUSH2 0x2FC5 JUMP JUMPDEST PUSH2 0x3379 PUSH1 0x1F DUP3 ADD PUSH1 0x1F NOT AND PUSH1 0x20 ADD PUSH2 0x2FDB JUMP JUMPDEST SWAP2 POP DUP1 DUP3 MSTORE DUP6 PUSH1 0x20 DUP3 DUP6 ADD ADD GT ISZERO PUSH2 0x3390 JUMPI PUSH1 0x0 DUP1 REVERT JUMPDEST PUSH2 0x33A1 DUP2 PUSH1 0x20 DUP5 ADD PUSH1 0x20 DUP7 ADD PUSH2 0x2E64 JUMP JUMPDEST POP SWAP5 SWAP4 POP POP POP POP JUMP JUMPDEST PUSH1 0x0 PUSH1 0x20 DUP3 DUP5 SUB SLT ISZERO PUSH2 0x33BC JUMPI PUSH1 0x0 DUP1 REVERT JUMPDEST DUP2 MLOAD PUSH1 0xFF DUP2 AND DUP2 EQ PUSH2 0x2C5F JUMPI PUSH1 0x0 DUP1 REVERT JUMPDEST PUSH1 0x0 PUSH1 0x20 DUP3 DUP5 SUB SLT ISZERO PUSH2 0x33DF JUMPI PUSH1 0x0 DUP1 REVERT JUMPDEST POP MLOAD SWAP2 SWAP1 POP JUMP JUMPDEST PUSH1 0x0 PUSH1 0x20 DUP3 DUP5 SUB SLT ISZERO PUSH2 0x33F8 JUMPI PUSH1 0x0 DUP1 REVERT JUMPDEST DUP2 MLOAD PUSH2 0x2C5F DUP2 PUSH2 0x2F4D JUMP INVALID LOG2 PUSH5 0x6970667358 0x22 SLT KECCAK256 0xC0 LOG1 SUB NUMBER 0xC3 BLOCKHASH 0x4B DUP13 XOR STOP LOG0 0xAD 0xF 0xF9 0xB9 PUSH9 0x439653F772393A267C DUP11 DUP5 RETURNDATACOPY DUP8 0xBC NOT 0xC4 PUSH5 0x736F6C6343 STOP ADDMOD 0xC STOP CALLER "
		},
		"gasEstimates": {
			"creation": {
				"codeDepositCost": "2673800",
				"executionCost": "infinite",
				"totalCost": "infinite"
			},
			"external": {
				"IS_ULTIMATE_STAKE_FACTORY()": "2459",
				"Token()": "2470",
				"addSpam(address)": "26891",
				"allocation(uint256)": "2473",
				"allowedLockPeriods(uint256)": "4610",
				"deductionPercentage()": "2395",
				"deposit(uint256,uint256)": "infinite",
				"depositTokenDecimals()": "2441",
				"depositeTime(address,uint256)": "4816",
				"depositeToken(address,uint256)": "4839",
				"depositeTokensTotal(address)": "2637",
				"emergencyWithdrawTokens(address,uint256)": "infinite",
				"emergencyWithdrawWei(uint256)": "infinite",
				"getLockPeriodParams(uint256)": "infinite",
				"getLockPeriods()": "infinite",
				"getLockPeriodsInfo()": "infinite",
				"getRewardTokenInfo()": "infinite",
				"getStakeTokenInfo()": "infinite",
				"getUser(address)": "infinite",
				"getUsers(uint256,uint256)": "infinite",
				"harwest(uint256[])": "infinite",
				"isSpam(address)": "2636",
				"lastUpdated(address)": "2571",
				"lockPeriodParams(uint256)": "19650",
				"lockableDays(address,uint256)": "4861",
				"owner()": "2399",
				"paused()": "2355",
				"pendingRewards(address)": "infinite",
				"removeLockPeriod(uint256)": "infinite",
				"removeSpam(address)": "26907",
				"rewardToken()": "2491",
				"rewardTokenDecimals()": "2397",
				"setAllocation(uint256,uint256,uint256,uint256,uint256,uint256,uint256,bool)": "infinite",
				"setDeductionPercentage(uint256)": "24579",
				"setTaxReceiver(address)": "26838",
				"taxreceiver()": "2425",
				"time()": "2375",
				"transferOwnership(address)": "30504",
				"users(uint256)": "2567",
				"usersCount()": "2417",
				"usersExists(address)": "2570",
				"withdrawedReward(address)": "2549"
			},
			"internal": {
				"allocationPercentageUpdate()": "infinite",
				"isLockPeriodAllowed(uint256)": "infinite"
			}
		},
		"methodIdentifiers": {
			"IS_ULTIMATE_STAKE_FACTORY()": "f66e4be3",
			"Token()": "c2412676",
			"addSpam(address)": "52b8745f",
			"allocation(uint256)": "850bad94",
			"allowedLockPeriods(uint256)": "2b4a16a0",
			"deductionPercentage()": "6b130dc2",
			"deposit(uint256,uint256)": "e2bbb158",
			"depositTokenDecimals()": "c0941214",
			"depositeTime(address,uint256)": "ba743f99",
			"depositeToken(address,uint256)": "91dc842e",
			"depositeTokensTotal(address)": "27ba372c",
			"emergencyWithdrawTokens(address,uint256)": "917bb998",
			"emergencyWithdrawWei(uint256)": "230ffa0f",
			"getLockPeriodParams(uint256)": "3d51c72d",
			"getLockPeriods()": "41ee13be",
			"getLockPeriodsInfo()": "de644c76",
			"getRewardTokenInfo()": "647428b9",
			"getStakeTokenInfo()": "c53c5fc1",
			"getUser(address)": "6f77926b",
			"getUsers(uint256,uint256)": "45982a66",
			"harwest(uint256[])": "c5c35196",
			"isSpam(address)": "cd099205",
			"lastUpdated(address)": "0a6f93e6",
			"lockPeriodParams(uint256)": "39129cff",
			"lockableDays(address,uint256)": "95302cc0",
			"owner()": "8da5cb5b",
			"paused()": "5c975abb",
			"pendingRewards(address)": "31d7a262",
			"removeLockPeriod(uint256)": "4d70378a",
			"removeSpam(address)": "58098bf4",
			"rewardToken()": "f7c618c1",
			"rewardTokenDecimals()": "9bdcecd1",
			"setAllocation(uint256,uint256,uint256,uint256,uint256,uint256,uint256,bool)": "9a4577a2",
			"setDeductionPercentage(uint256)": "6a1d18d2",
			"setTaxReceiver(address)": "cd8de42c",
			"taxreceiver()": "f256dfc5",
			"time()": "16ada547",
			"transferOwnership(address)": "f2fde38b",
			"users(uint256)": "365b98b2",
			"usersCount()": "6ba13a82",
			"usersExists(address)": "c2e5fe76",
			"withdrawedReward(address)": "03962d46"
		}
	},
	"abi": [
		{
			"inputs": [
				{
					"internalType": "contract IERC20",
					"name": "_token",
					"type": "address"
				},
				{
					"internalType": "contract IERC20",
					"name": "_rewardToken",
					"type": "address"
				},
				{
					"internalType": "address",
					"name": "_taxreceiver",
					"type": "address"
				},
				{
					"internalType": "uint256",
					"name": "_deductionPercentage",
					"type": "uint256"
				},
				{
					"components": [
						{
							"internalType": "uint256",
							"name": "lockTimeDays",
							"type": "uint256"
						},
						{
							"internalType": "uint256",
							"name": "minimumDeposit",
							"type": "uint256"
						},
						{
							"internalType": "uint256",
							"name": "percentageBasisPoints",
							"type": "uint256"
						},
						{
							"internalType": "uint256",
							"name": "maxRate",
							"type": "uint256"
						},
						{
							"internalType": "uint256",
							"name": "minRate",
							"type": "uint256"
						},
						{
							"internalType": "uint256",
							"name": "decrementStep",
							"type": "uint256"
						},
						{
							"internalType": "uint256",
							"name": "stepSize",
							"type": "uint256"
						},
						{
							"internalType": "bool",
							"name": "fixedBasisPoints",
							"type": "bool"
						},
						{
							"internalType": "uint256",
							"name": "stakedAmount",
							"type": "uint256"
						}
					],
					"internalType": "struct StakeFactory.LockPeriodParams[]",
					"name": "_initLockPeriods",
					"type": "tuple[]"
				}
			],
			"stateMutability": "nonpayable",
			"type": "constructor"
		},
		{
			"anonymous": false,
			"inputs": [
				{
					"indexed": true,
					"internalType": "address",
					"name": "to",
					"type": "address"
				},
				{
					"indexed": true,
					"internalType": "address",
					"name": "From",
					"type": "address"
				},
				{
					"indexed": false,
					"internalType": "uint256",
					"name": "amount",
					"type": "uint256"
				},
				{
					"indexed": false,
					"internalType": "uint256",
					"name": "day",
					"type": "uint256"
				},
				{
					"indexed": false,
					"internalType": "uint256",
					"name": "time",
					"type": "uint256"
				}
			],
			"name": "Deposite_",
			"type": "event"
		},
		{
			"anonymous": false,
			"inputs": [
				{
					"indexed": true,
					"internalType": "address",
					"name": "previousOwner",
					"type": "address"
				},
				{
					"indexed": true,
					"internalType": "address",
					"name": "newOwner",
					"type": "address"
				}
			],
			"name": "OwnershipTransferred",
			"type": "event"
		},
		{
			"anonymous": false,
			"inputs": [
				{
					"indexed": false,
					"internalType": "address",
					"name": "account",
					"type": "address"
				}
			],
			"name": "Paused",
			"type": "event"
		},
		{
			"anonymous": false,
			"inputs": [
				{
					"indexed": false,
					"internalType": "address",
					"name": "account",
					"type": "address"
				}
			],
			"name": "Unpaused",
			"type": "event"
		},
		{
			"inputs": [],
			"name": "IS_ULTIMATE_STAKE_FACTORY",
			"outputs": [
				{
					"internalType": "bool",
					"name": "",
					"type": "bool"
				}
			],
			"stateMutability": "view",
			"type": "function"
		},
		{
			"inputs": [],
			"name": "Token",
			"outputs": [
				{
					"internalType": "contract IERC20",
					"name": "",
					"type": "address"
				}
			],
			"stateMutability": "view",
			"type": "function"
		},
		{
			"inputs": [
				{
					"internalType": "address",
					"name": "_addr",
					"type": "address"
				}
			],
			"name": "addSpam",
			"outputs": [],
			"stateMutability": "nonpayable",
			"type": "function"
		},
		{
			"inputs": [
				{
					"internalType": "uint256",
					"name": "",
					"type": "uint256"
				}
			],
			"name": "allocation",
			"outputs": [
				{
					"internalType": "uint256",
					"name": "",
					"type": "uint256"
				}
			],
			"stateMutability": "view",
			"type": "function"
		},
		{
			"inputs": [
				{
					"internalType": "uint256",
					"name": "",
					"type": "uint256"
				}
			],
			"name": "allowedLockPeriods",
			"outputs": [
				{
					"internalType": "uint256",
					"name": "",
					"type": "uint256"
				}
			],
			"stateMutability": "view",
			"type": "function"
		},
		{
			"inputs": [],
			"name": "deductionPercentage",
			"outputs": [
				{
					"internalType": "uint256",
					"name": "",
					"type": "uint256"
				}
			],
			"stateMutability": "view",
			"type": "function"
		},
		{
			"inputs": [
				{
					"internalType": "uint256",
					"name": "_amount",
					"type": "uint256"
				},
				{
					"internalType": "uint256",
					"name": "_lockDays",
					"type": "uint256"
				}
			],
			"name": "deposit",
			"outputs": [],
			"stateMutability": "nonpayable",
			"type": "function"
		},
		{
			"inputs": [],
			"name": "depositTokenDecimals",
			"outputs": [
				{
					"internalType": "uint8",
					"name": "",
					"type": "uint8"
				}
			],
			"stateMutability": "view",
			"type": "function"
		},
		{
			"inputs": [
				{
					"internalType": "address",
					"name": "",
					"type": "address"
				},
				{
					"internalType": "uint256",
					"name": "",
					"type": "uint256"
				}
			],
			"name": "depositeTime",
			"outputs": [
				{
					"internalType": "uint256",
					"name": "",
					"type": "uint256"
				}
			],
			"stateMutability": "view",
			"type": "function"
		},
		{
			"inputs": [
				{
					"internalType": "address",
					"name": "",
					"type": "address"
				},
				{
					"internalType": "uint256",
					"name": "",
					"type": "uint256"
				}
			],
			"name": "depositeToken",
			"outputs": [
				{
					"internalType": "uint256",
					"name": "",
					"type": "uint256"
				}
			],
			"stateMutability": "view",
			"type": "function"
		},
		{
			"inputs": [
				{
					"internalType": "address",
					"name": "",
					"type": "address"
				}
			],
			"name": "depositeTokensTotal",
			"outputs": [
				{
					"internalType": "uint256",
					"name": "",
					"type": "uint256"
				}
			],
			"stateMutability": "view",
			"type": "function"
		},
		{
			"inputs": [
				{
					"internalType": "contract IERC20",
					"name": "_token",
					"type": "address"
				},
				{
					"internalType": "uint256",
					"name": "_amount",
					"type": "uint256"
				}
			],
			"name": "emergencyWithdrawTokens",
			"outputs": [],
			"stateMutability": "nonpayable",
			"type": "function"
		},
		{
			"inputs": [
				{
					"internalType": "uint256",
					"name": "_amount",
					"type": "uint256"
				}
			],
			"name": "emergencyWithdrawWei",
			"outputs": [],
			"stateMutability": "nonpayable",
			"type": "function"
		},
		{
			"inputs": [
				{
					"internalType": "uint256",
					"name": "_days",
					"type": "uint256"
				}
			],
			"name": "getLockPeriodParams",
			"outputs": [
				{
					"components": [
						{
							"internalType": "uint256",
							"name": "lockTimeDays",
							"type": "uint256"
						},
						{
							"internalType": "uint256",
							"name": "minimumDeposit",
							"type": "uint256"
						},
						{
							"internalType": "uint256",
							"name": "percentageBasisPoints",
							"type": "uint256"
						},
						{
							"internalType": "uint256",
							"name": "maxRate",
							"type": "uint256"
						},
						{
							"internalType": "uint256",
							"name": "minRate",
							"type": "uint256"
						},
						{
							"internalType": "uint256",
							"name": "decrementStep",
							"type": "uint256"
						},
						{
							"internalType": "uint256",
							"name": "stepSize",
							"type": "uint256"
						},
						{
							"internalType": "bool",
							"name": "fixedBasisPoints",
							"type": "bool"
						},
						{
							"internalType": "uint256",
							"name": "stakedAmount",
							"type": "uint256"
						}
					],
					"internalType": "struct StakeFactory.LockPeriodParams",
					"name": "",
					"type": "tuple"
				}
			],
			"stateMutability": "view",
			"type": "function"
		},
		{
			"inputs": [],
			"name": "getLockPeriods",
			"outputs": [
				{
					"internalType": "uint256[]",
					"name": "",
					"type": "uint256[]"
				}
			],
			"stateMutability": "view",
			"type": "function"
		},
		{
			"inputs": [],
			"name": "getLockPeriodsInfo",
			"outputs": [
				{
					"components": [
						{
							"internalType": "uint256",
							"name": "lockTimeDays",
							"type": "uint256"
						},
						{
							"internalType": "uint256",
							"name": "minimumDeposit",
							"type": "uint256"
						},
						{
							"internalType": "uint256",
							"name": "percentageBasisPoints",
							"type": "uint256"
						},
						{
							"internalType": "uint256",
							"name": "maxRate",
							"type": "uint256"
						},
						{
							"internalType": "uint256",
							"name": "minRate",
							"type": "uint256"
						},
						{
							"internalType": "uint256",
							"name": "decrementStep",
							"type": "uint256"
						},
						{
							"internalType": "uint256",
							"name": "stepSize",
							"type": "uint256"
						},
						{
							"internalType": "bool",
							"name": "fixedBasisPoints",
							"type": "bool"
						},
						{
							"internalType": "uint256",
							"name": "stakedAmount",
							"type": "uint256"
						}
					],
					"internalType": "struct StakeFactory.LockPeriodParams[]",
					"name": "ret",
					"type": "tuple[]"
				}
			],
			"stateMutability": "view",
			"type": "function"
		},
		{
			"inputs": [],
			"name": "getRewardTokenInfo",
			"outputs": [
				{
					"internalType": "address",
					"name": "addr",
					"type": "address"
				},
				{
					"internalType": "string",
					"name": "name",
					"type": "string"
				},
				{
					"internalType": "string",
					"name": "symbol",
					"type": "string"
				},
				{
					"internalType": "uint8",
					"name": "decimals",
					"type": "uint8"
				},
				{
					"internalType": "uint256",
					"name": "balance",
					"type": "uint256"
				}
			],
			"stateMutability": "view",
			"type": "function"
		},
		{
			"inputs": [],
			"name": "getStakeTokenInfo",
			"outputs": [
				{
					"internalType": "address",
					"name": "addr",
					"type": "address"
				},
				{
					"internalType": "string",
					"name": "name",
					"type": "string"
				},
				{
					"internalType": "string",
					"name": "symbol",
					"type": "string"
				},
				{
					"internalType": "uint8",
					"name": "decimals",
					"type": "uint8"
				},
				{
					"internalType": "uint256",
					"name": "balance",
					"type": "uint256"
				}
			],
			"stateMutability": "view",
			"type": "function"
		},
		{
			"inputs": [
				{
					"internalType": "address",
					"name": "user",
					"type": "address"
				}
			],
			"name": "getUser",
			"outputs": [
				{
					"components": [
						{
							"internalType": "address",
							"name": "Address",
							"type": "address"
						},
						{
							"internalType": "uint256",
							"name": "DepositeTokenTotal",
							"type": "uint256"
						},
						{
							"internalType": "uint256",
							"name": "LastUpdated",
							"type": "uint256"
						},
						{
							"internalType": "uint256[]",
							"name": "LockableDays",
							"type": "uint256[]"
						},
						{
							"internalType": "uint256",
							"name": "WithdrawedReward",
							"type": "uint256"
						},
						{
							"internalType": "uint256",
							"name": "WithdrawAbleReward",
							"type": "uint256"
						},
						{
							"internalType": "uint256[]",
							"name": "DepositeTime",
							"type": "uint256[]"
						}
					],
					"internalType": "struct StakeFactory.UserInfo",
					"name": "info",
					"type": "tuple"
				}
			],
			"stateMutability": "view",
			"type": "function"
		},
		{
			"inputs": [
				{
					"internalType": "uint256",
					"name": "_offset",
					"type": "uint256"
				},
				{
					"internalType": "uint256",
					"name": "_limit",
					"type": "uint256"
				}
			],
			"name": "getUsers",
			"outputs": [
				{
					"components": [
						{
							"internalType": "address",
							"name": "Address",
							"type": "address"
						},
						{
							"internalType": "uint256",
							"name": "DepositeTokenTotal",
							"type": "uint256"
						},
						{
							"internalType": "uint256",
							"name": "LastUpdated",
							"type": "uint256"
						},
						{
							"internalType": "uint256[]",
							"name": "LockableDays",
							"type": "uint256[]"
						},
						{
							"internalType": "uint256",
							"name": "WithdrawedReward",
							"type": "uint256"
						},
						{
							"internalType": "uint256",
							"name": "WithdrawAbleReward",
							"type": "uint256"
						},
						{
							"internalType": "uint256[]",
							"name": "DepositeTime",
							"type": "uint256[]"
						}
					],
					"internalType": "struct StakeFactory.UserInfo[]",
					"name": "ret",
					"type": "tuple[]"
				}
			],
			"stateMutability": "view",
			"type": "function"
		},
		{
			"inputs": [
				{
					"internalType": "uint256[]",
					"name": "_index",
					"type": "uint256[]"
				}
			],
			"name": "harwest",
			"outputs": [
				{
					"internalType": "uint256",
					"name": "_totalWithdrawAmount",
					"type": "uint256"
				},
				{
					"internalType": "uint256",
					"name": "_totalReward",
					"type": "uint256"
				},
				{
					"internalType": "uint256",
					"name": "_deductionFee",
					"type": "uint256"
				}
			],
			"stateMutability": "nonpayable",
			"type": "function"
		},
		{
			"inputs": [
				{
					"internalType": "address",
					"name": "",
					"type": "address"
				}
			],
			"name": "isSpam",
			"outputs": [
				{
					"internalType": "bool",
					"name": "",
					"type": "bool"
				}
			],
			"stateMutability": "view",
			"type": "function"
		},
		{
			"inputs": [
				{
					"internalType": "address",
					"name": "",
					"type": "address"
				}
			],
			"name": "lastUpdated",
			"outputs": [
				{
					"internalType": "uint256",
					"name": "",
					"type": "uint256"
				}
			],
			"stateMutability": "view",
			"type": "function"
		},
		{
			"inputs": [
				{
					"internalType": "uint256",
					"name": "",
					"type": "uint256"
				}
			],
			"name": "lockPeriodParams",
			"outputs": [
				{
					"internalType": "uint256",
					"name": "lockTimeDays",
					"type": "uint256"
				},
				{
					"internalType": "uint256",
					"name": "minimumDeposit",
					"type": "uint256"
				},
				{
					"internalType": "uint256",
					"name": "percentageBasisPoints",
					"type": "uint256"
				},
				{
					"internalType": "uint256",
					"name": "maxRate",
					"type": "uint256"
				},
				{
					"internalType": "uint256",
					"name": "minRate",
					"type": "uint256"
				},
				{
					"internalType": "uint256",
					"name": "decrementStep",
					"type": "uint256"
				},
				{
					"internalType": "uint256",
					"name": "stepSize",
					"type": "uint256"
				},
				{
					"internalType": "bool",
					"name": "fixedBasisPoints",
					"type": "bool"
				},
				{
					"internalType": "uint256",
					"name": "stakedAmount",
					"type": "uint256"
				}
			],
			"stateMutability": "view",
			"type": "function"
		},
		{
			"inputs": [
				{
					"internalType": "address",
					"name": "",
					"type": "address"
				},
				{
					"internalType": "uint256",
					"name": "",
					"type": "uint256"
				}
			],
			"name": "lockableDays",
			"outputs": [
				{
					"internalType": "uint256",
					"name": "",
					"type": "uint256"
				}
			],
			"stateMutability": "view",
			"type": "function"
		},
		{
			"inputs": [],
			"name": "owner",
			"outputs": [
				{
					"internalType": "address",
					"name": "",
					"type": "address"
				}
			],
			"stateMutability": "view",
			"type": "function"
		},
		{
			"inputs": [],
			"name": "paused",
			"outputs": [
				{
					"internalType": "bool",
					"name": "",
					"type": "bool"
				}
			],
			"stateMutability": "view",
			"type": "function"
		},
		{
			"inputs": [
				{
					"internalType": "address",
					"name": "_address",
					"type": "address"
				}
			],
			"name": "pendingRewards",
			"outputs": [
				{
					"internalType": "uint256",
					"name": "reward",
					"type": "uint256"
				}
			],
			"stateMutability": "view",
			"type": "function"
		},
		{
			"inputs": [
				{
					"internalType": "uint256",
					"name": "_days",
					"type": "uint256"
				}
			],
			"name": "removeLockPeriod",
			"outputs": [],
			"stateMutability": "nonpayable",
			"type": "function"
		},
		{
			"inputs": [
				{
					"internalType": "address",
					"name": "_addr",
					"type": "address"
				}
			],
			"name": "removeSpam",
			"outputs": [],
			"stateMutability": "nonpayable",
			"type": "function"
		},
		{
			"inputs": [],
			"name": "rewardToken",
			"outputs": [
				{
					"internalType": "contract IERC20",
					"name": "",
					"type": "address"
				}
			],
			"stateMutability": "view",
			"type": "function"
		},
		{
			"inputs": [],
			"name": "rewardTokenDecimals",
			"outputs": [
				{
					"internalType": "uint8",
					"name": "",
					"type": "uint8"
				}
			],
			"stateMutability": "view",
			"type": "function"
		},
		{
			"inputs": [
				{
					"internalType": "uint256",
					"name": "_days",
					"type": "uint256"
				},
				{
					"internalType": "uint256",
					"name": "_minimumDeposit",
					"type": "uint256"
				},
				{
					"internalType": "uint256",
					"name": "percentageBasisPoints",
					"type": "uint256"
				},
				{
					"internalType": "uint256",
					"name": "_maxRate",
					"type": "uint256"
				},
				{
					"internalType": "uint256",
					"name": "_minRate",
					"type": "uint256"
				},
				{
					"internalType": "uint256",
					"name": "_decrementStep",
					"type": "uint256"
				},
				{
					"internalType": "uint256",
					"name": "_stepSize",
					"type": "uint256"
				},
				{
					"internalType": "bool",
					"name": "_fixedBasisPoints",
					"type": "bool"
				}
			],
			"name": "setAllocation",
			"outputs": [],
			"stateMutability": "nonpayable",
			"type": "function"
		},
		{
			"inputs": [
				{
					"internalType": "uint256",
					"name": "percentageBasisPoints",
					"type": "uint256"
				}
			],
			"name": "setDeductionPercentage",
			"outputs": [],
			"stateMutability": "nonpayable",
			"type": "function"
		},
		{
			"inputs": [
				{
					"internalType": "address",
					"name": "_newTaxReceiver",
					"type": "address"
				}
			],
			"name": "setTaxReceiver",
			"outputs": [],
			"stateMutability": "nonpayable",
			"type": "function"
		},
		{
			"inputs": [],
			"name": "taxreceiver",
			"outputs": [
				{
					"internalType": "address",
					"name": "",
					"type": "address"
				}
			],
			"stateMutability": "view",
			"type": "function"
		},
		{
			"inputs": [],
			"name": "time",
			"outputs": [
				{
					"internalType": "uint256",
					"name": "",
					"type": "uint256"
				}
			],
			"stateMutability": "view",
			"type": "function"
		},
		{
			"inputs": [
				{
					"internalType": "address",
					"name": "newOwner",
					"type": "address"
				}
			],
			"name": "transferOwnership",
			"outputs": [],
			"stateMutability": "nonpayable",
			"type": "function"
		},
		{
			"inputs": [
				{
					"internalType": "uint256",
					"name": "",
					"type": "uint256"
				}
			],
			"name": "users",
			"outputs": [
				{
					"internalType": "address",
					"name": "",
					"type": "address"
				}
			],
			"stateMutability": "view",
			"type": "function"
		},
		{
			"inputs": [],
			"name": "usersCount",
			"outputs": [
				{
					"internalType": "uint256",
					"name": "",
					"type": "uint256"
				}
			],
			"stateMutability": "view",
			"type": "function"
		},
		{
			"inputs": [
				{
					"internalType": "address",
					"name": "",
					"type": "address"
				}
			],
			"name": "usersExists",
			"outputs": [
				{
					"internalType": "bool",
					"name": "",
					"type": "bool"
				}
			],
			"stateMutability": "view",
			"type": "function"
		},
		{
			"inputs": [
				{
					"internalType": "address",
					"name": "",
					"type": "address"
				}
			],
			"name": "withdrawedReward",
			"outputs": [
				{
					"internalType": "uint256",
					"name": "",
					"type": "uint256"
				}
			],
			"stateMutability": "view",
			"type": "function"
		},
		{
			"stateMutability": "payable",
			"type": "receive"
		}
	]
}