{
	"data": {
		"bytecode": {
			"linkReferences": {},
			"object": "60806040526003805460ff60a01b1916600160a01b1790556109c4601155610e1060125534801561002e575f80fd5b50604051613a4e380380613a4e83398101604081905261004d91610651565b5f80546001600160a01b0319163390811782556040519091907f8be0079c531659141344cd1fd0a4f28419497f9722a3daafe3b4186f6b6457e0908290a35f805460ff60a01b1916905560018055600280546001600160a01b038088166001600160a01b03199283168117909355600380549188169190921617905560118390556040805163313ce56760e01b8152905163313ce567916004808201926020929091908290030181865afa158015610107573d5f803e3d5ffd5b505050506040513d601f19601f8201168201806040525081019061012b91906107b6565b600360156101000a81548160ff021916908360ff16021790555060035f9054906101000a90046001600160a01b03166001600160a01b031663313ce5676040518163ffffffff1660e01b8152600401602060405180830381865afa158015610195573d5f803e3d5ffd5b505050506040513d601f19601f820116820180604052508101906101b991906107b6565b6003805460ff60b01b1916600160b01b60ff9390931692909202919091179055600680546001600160a01b0319166001600160a01b0385161790555f5b8151811015610304576102fc828281518110610214576102146107dd565b60200260200101515f0151838381518110610231576102316107dd565b60200260200101516020015184848151811061024f5761024f6107dd565b60200260200101516040015185858151811061026d5761026d6107dd565b60200260200101516060015186868151811061028b5761028b6107dd565b6020026020010151608001518787815181106102a9576102a96107dd565b602002602001015160a001518888815181106102c7576102c76107dd565b602002602001015160c001518989815181106102e5576102e56107dd565b602002602001015160e0015161030f60201b60201c565b6001016101f6565b5050505050506107f1565b5f546001600160a01b0316331461036d5760405162461bcd60e51b815260206004820181905260248201527f4f776e61626c653a2063616c6c6572206973206e6f7420746865206f776e657260448201526064015b60405180910390fd5b6127108611156103b45760405162461bcd60e51b8152602060048201526012602482015271496e76616c69642070657263656e7461676560701b6044820152606401610364565b8385101561041f5760405162461bcd60e51b815260206004820152603260248201527f4d61782072617465206d7573742062652067726561746572207468616e206f7260448201527120657175616c20746f206d696e207261746560701b6064820152608401610364565b5f821161046e5760405162461bcd60e51b815260206004820181905260248201527f537465702073697a65206d7573742062652067726561746572207468616e20306044820152606401610364565b5f88815260046020526040902086905561048788610571565b6104c057601380546001810182555f919091527f66de8ffda797e3de9c05e8fc57b3bf0ec28a930d40b0d285d93c06501cf6a090018890555b60408051610120810182528981526020808201998a52818301988952606082019788526080820196875260a0820195865260c0820194855292151560e082019081525f8b8152600580865293812060088101805461010086019081529d9092529484905291518455985160018401559651600283015594516003820155925160048401559051928201929092559051600682015591516007909201805460ff19169215159290921790915590519055565b5f805b6013548110156105b1578260138281548110610592576105926107dd565b905f5260205f200154036105a95750600192915050565b600101610574565b505f92915050565b6001600160a01b03811681146105cd575f80fd5b50565b634e487b7160e01b5f52604160045260245ffd5b60405161012081016001600160401b0381118282101715610607576106076105d0565b60405290565b604051601f8201601f191681016001600160401b0381118282101715610635576106356105d0565b604052919050565b8051801515811461064c575f80fd5b919050565b5f805f805f60a08688031215610665575f80fd5b8551610670816105b9565b6020870151909550610681816105b9565b6040870151909450610692816105b9565b6060870151608088015191945092506001600160401b038111156106b4575f80fd5b8601601f810188136106c4575f80fd5b80516001600160401b038111156106dd576106dd6105d0565b6106ec60208260051b0161060d565b808282526020820191506020610120840285010192508a83111561070e575f80fd5b6020840193505b828410156107a557610120848c03121561072d575f80fd5b6107356105e4565b845181526020808601519082015260408086015190820152606080860151908201526080808601519082015260a0808601519082015260c0808601519082015261078160e0860161063d565b60e08201526101008581015190820152825261012090930192602090910190610715565b809450505050509295509295909350565b5f602082840312156107c6575f80fd5b815160ff811681146107d6575f80fd5b9392505050565b634e487b7160e01b5f52603260045260245ffd5b613250806107fe5f395ff3fe60806040526004361061024c575f3560e01c8063850bad9411610134578063c2e5fe76116100b3578063de644c7611610078578063de644c761461080e578063e2bbb1581461082f578063f256dfc51461084e578063f2fde38b1461086d578063f66e4be31461088c578063f7c618c1146108ac575f80fd5b8063c2e5fe7614610745578063c53c5fc114610773578063c5c3519614610787578063cd099205146107c1578063cd8de42c146107ef575f80fd5b80639a4577a2116100f95780639a4577a2146106965780639bdcecd1146106b5578063ba743f99146106e7578063c094121414610706578063c241267614610726575f80fd5b8063850bad94146105f25780638da5cb5b1461061d578063917bb9981461063957806391dc842e1461065857806395302cc014610677575f80fd5b806341ee13be116101cb5780635c975abb116101905780635c975abb1461052f578063647428b9146105585780636a1d18d21461057d5780636b130dc21461059c5780636ba13a82146105b15780636f77926b146105c6575f80fd5b806341ee13be1461048557806345982a66146104a65780634d70378a146104d257806352b8745f146104f157806358098bf414610510575f80fd5b80632b4a16a0116102115780632b4a16a01461032157806331d7a26214610340578063365b98b21461035f57806339129cff146103ab5780633d51c72d14610459575f80fd5b806303962d46146102575780630a6f93e61461029557806316ada547146102c0578063230ffa0f146102d557806327ba372c146102f6575f80fd5b3661025357005b5f80fd5b348015610262575f80fd5b50610282610271366004612abc565b600b6020525f908152604090205481565b6040519081526020015b60405180910390f35b3480156102a0575f80fd5b506102826102af366004612abc565b600c6020525f908152604090205481565b3480156102cb575f80fd5b5061028260125481565b3480156102e0575f80fd5b506102f46102ef366004612ade565b6108cb565b005b348015610301575f80fd5b50610282610310366004612abc565b60086020525f908152604090205481565b34801561032c575f80fd5b5061028261033b366004612ade565b61097b565b34801561034b575f80fd5b5061028261035a366004612abc565b61099a565b34801561036a575f80fd5b50610393610379366004612ade565b600e6020525f90815260409020546001600160a01b031681565b6040516001600160a01b03909116815260200161028c565b3480156103b6575f80fd5b506104136103c5366004612ade565b600560208190525f91825260409091208054600182015460028301546003840154600485015495850154600686015460078701546008909701549597949693959294939192909160ff169089565b60408051998a5260208a0198909852968801959095526060870193909352608086019190915260a085015260c0840152151560e08301526101008201526101200161028c565b348015610464575f80fd5b50610478610473366004612ade565b610b28565b60405161028c9190612b51565b348015610490575f80fd5b50610499610bd1565b60405161028c9190612b66565b3480156104b1575f80fd5b506104c56104c0366004612ba8565b610c27565b60405161028c9190612c72565b3480156104dd575f80fd5b506102f46104ec366004612ade565b610d1e565b3480156104fc575f80fd5b506102f461050b366004612abc565b610ea7565b34801561051b575f80fd5b506102f461052a366004612abc565b610f3b565b34801561053a575f80fd5b505f54600160a01b900460ff165b604051901515815260200161028c565b348015610563575f80fd5b5061056c610fcc565b60405161028c959493929190612d03565b348015610588575f80fd5b506102f4610597366004612ade565b6111a7565b3480156105a7575f80fd5b5061028260115481565b3480156105bc575f80fd5b50610282600f5481565b3480156105d1575f80fd5b506105e56105e0366004612abc565b61121c565b60405161028c9190612d50565b3480156105fd575f80fd5b5061028261060c366004612ade565b60046020525f908152604090205481565b348015610628575f80fd5b505f546001600160a01b0316610393565b348015610644575f80fd5b506102f4610653366004612d62565b611350565b348015610663575f80fd5b50610282610672366004612d62565b611499565b348015610682575f80fd5b50610282610691366004612d62565b6114c4565b3480156106a1575f80fd5b506102f46106b0366004612d99565b6114dd565b3480156106c0575f80fd5b506003546106d590600160b01b900460ff1681565b60405160ff909116815260200161028c565b3480156106f2575f80fd5b50610282610701366004612d62565b61170a565b348015610711575f80fd5b506003546106d590600160a81b900460ff1681565b348015610731575f80fd5b50600254610393906001600160a01b031681565b348015610750575f80fd5b5061054861075f366004612abc565b600d6020525f908152604090205460ff1681565b34801561077e575f80fd5b5061056c611723565b348015610792575f80fd5b506107a66107a1366004612e43565b6118ba565b6040805193845260208401929092529082015260600161028c565b3480156107cc575f80fd5b506105486107db366004612abc565b60106020525f908152604090205460ff1681565b3480156107fa575f80fd5b506102f4610809366004612abc565b61222f565b348015610819575f80fd5b5061082261227a565b60405161028c9190612eef565b34801561083a575f80fd5b506102f4610849366004612ba8565b6123b3565b348015610859575f80fd5b50600654610393906001600160a01b031681565b348015610878575f80fd5b506102f4610887366004612abc565b6126e0565b348015610897575f80fd5b5060035461054890600160a01b900460ff1681565b3480156108b7575f80fd5b50600354610393906001600160a01b031681565b5f546001600160a01b031633146108fd5760405162461bcd60e51b81526004016108f490612f32565b60405180910390fd5b8047101561094d5760405162461bcd60e51b815260206004820152601a60248201527f496e73756666696369656e742065746865722062616c616e636500000000000060448201526064016108f4565b604051339082156108fc029083905f818181858888f19350505050158015610977573d5f803e3d5ffd5b5050565b6013818154811061098a575f80fd5b5f91825260209091200154905081565b5f8042815b6001600160a01b0385165f90815260076020526040902054811015610b1f576012546001600160a01b0386165f9081526009602052604081208054919291849081106109ed576109ed612f67565b905f5260205f200154610a009190612f8f565b6001600160a01b0387165f908152600a60205260409020805484908110610a2957610a29612f67565b905f5260205f200154610a3c9190612fa6565b905080831115610b16576001600160a01b0386165f90815260096020526040812080546127109160049184919087908110610a7957610a79612f67565b905f5260205f20015481526020019081526020015f205460075f8a6001600160a01b03166001600160a01b031681526020019081526020015f208581548110610ac457610ac4612f67565b905f5260205f200154610ad79190612f8f565b610ae19190612fb9565b600354909150610afc90600160a81b900460ff16600a6130bb565b610b069082612fb9565b9050610b128186612fa6565b9450505b5060010161099f565b50909392505050565b610b30612a1f565b610b39826127c7565b610b555760405162461bcd60e51b81526004016108f4906130c6565b505f908152600560208181526040928390208351610120810185528154815260018201549281019290925260028101549382019390935260038301546060820152600483015460808201529082015460a0820152600682015460c0820152600782015460ff16151560e082015260089091015461010082015290565b60606013805480602002602001604051908101604052809291908181526020018280548015610c1d57602002820191905f5260205f20905b815481526020019060010190808311610c09575b5050505050905090565b6060815f03610c3657600f5491505b5f610c418385612fa6565b9050610c4d84826130f5565b67ffffffffffffffff811115610c6557610c65612dfe565b604051908082528060200260200182016040528015610c9e57816020015b610c8b612a64565b815260200190600190039081610c835790505b5091505f5b610cad85836130f5565b811015610d1657610cf1600e5f8784600f54610cc991906130f5565b610cd391906130f5565b815260208101919091526040015f20546001600160a01b031661121c565b838281518110610d0357610d03612f67565b6020908102919091010152600101610ca3565b505092915050565b5f546001600160a01b03163314610d475760405162461bcd60e51b81526004016108f490612f32565b610d50816127c7565b610d6c5760405162461bcd60e51b81526004016108f4906130c6565b5f80805b601354811015610db0578360138281548110610d8e57610d8e612f67565b905f5260205f20015403610da85780925060019150610db0565b600101610d70565b5080610dce5760405162461bcd60e51b81526004016108f4906130c6565b5f8381526005602081905260408220828155600181018390556002810183905560038101839055600481018390559081018290556006810182905560078101805460ff1916905560080155815b601354610e2a906001906130f5565b811015610e7d576013610e3e826001612fa6565b81548110610e4e57610e4e612f67565b905f5260205f20015460138281548110610e6a57610e6a612f67565b5f91825260209091200155600101610e1b565b506013805480610e8f57610e8f613108565b600190038181905f5260205f20015f90559055505050565b5f546001600160a01b03163314610ed05760405162461bcd60e51b81526004016108f490612f32565b6001600160a01b038116610f185760405162461bcd60e51b815260206004820152600f60248201526e496e76616c6964206164647265737360881b60448201526064016108f4565b6001600160a01b03165f908152601060205260409020805460ff19166001179055565b5f546001600160a01b03163314610f645760405162461bcd60e51b81526004016108f490612f32565b6001600160a01b038116610fac5760405162461bcd60e51b815260206004820152600f60248201526e496e76616c6964206164647265737360881b60448201526064016108f4565b6001600160a01b03165f908152601060205260409020805460ff19169055565b600354604080516306fdde0360e01b815290516001600160a01b039092169160609182915f91829186916306fdde0391600480830192869291908290030181865afa15801561101d573d5f803e3d5ffd5b505050506040513d5f823e601f3d908101601f19168201604052611044919081019061311c565b935060035f9054906101000a90046001600160a01b03166001600160a01b03166395d89b416040518163ffffffff1660e01b81526004015f60405180830381865afa158015611095573d5f803e3d5ffd5b505050506040513d5f823e601f3d908101601f191682016040526110bc919081019061311c565b925060035f9054906101000a90046001600160a01b03166001600160a01b031663313ce5676040518163ffffffff1660e01b8152600401602060405180830381865afa15801561110e573d5f803e3d5ffd5b505050506040513d601f19601f8201168201806040525081019061113291906131b0565b6003546040516370a0823160e01b81523060048201529193506001600160a01b0316906370a08231906024015b602060405180830381865afa15801561117a573d5f803e3d5ffd5b505050506040513d601f19601f8201168201806040525081019061119e91906131d0565b90509091929394565b5f546001600160a01b031633146111d05760405162461bcd60e51b81526004016108f490612f32565b6127108111156112175760405162461bcd60e51b8152602060048201526012602482015271496e76616c69642070657263656e7461676560701b60448201526064016108f4565b601155565b611224612a64565b6040805160e0810182526001600160a01b0384168082525f818152600860209081528482205481850152828252600c815284822054848601529181526009825283902080548451818402810184019095528085529293606085019390928301828280156112ae57602002820191905f5260205f20905b81548152602001906001019080831161129a575b50505091835250506001600160a01b0384165f908152600b60209081526040918290205490830152016112e08461099a565b81526001600160a01b0384165f908152600a6020908152604091829020805483518184028101840190945280845293820193909183018282801561134157602002820191905f5260205f20905b81548152602001906001019080831161132d575b50505050508152509050919050565b5f546001600160a01b031633146113795760405162461bcd60e51b81526004016108f490612f32565b6040516370a0823160e01b815230600482015281906001600160a01b038416906370a0823190602401602060405180830381865afa1580156113bd573d5f803e3d5ffd5b505050506040513d601f19601f820116820180604052508101906113e191906131d0565b10156114265760405162461bcd60e51b8152602060048201526014602482015273496e73756666696369656e742062616c616e636560601b60448201526064016108f4565b60405163a9059cbb60e01b8152336004820152602481018290526001600160a01b0383169063a9059cbb906044016020604051808303815f875af1158015611470573d5f803e3d5ffd5b505050506040513d601f19601f8201168201806040525081019061149491906131e7565b505050565b6007602052815f5260405f2081815481106114b2575f80fd5b905f5260205f20015f91509150505481565b6009602052815f5260405f2081815481106114b2575f80fd5b5f546001600160a01b031633146115065760405162461bcd60e51b81526004016108f490612f32565b61271086111561154d5760405162461bcd60e51b8152602060048201526012602482015271496e76616c69642070657263656e7461676560701b60448201526064016108f4565b838510156115b85760405162461bcd60e51b815260206004820152603260248201527f4d61782072617465206d7573742062652067726561746572207468616e206f7260448201527120657175616c20746f206d696e207261746560701b60648201526084016108f4565b5f82116116075760405162461bcd60e51b815260206004820181905260248201527f537465702073697a65206d7573742062652067726561746572207468616e203060448201526064016108f4565b5f888152600460205260409020869055611620886127c7565b61165957601380546001810182555f919091527f66de8ffda797e3de9c05e8fc57b3bf0ec28a930d40b0d285d93c06501cf6a090018890555b60408051610120810182528981526020808201998a52818301988952606082019788526080820196875260a0820195865260c0820194855292151560e082019081525f8b8152600580865293812060088101805461010086019081529d9092529484905291518455985160018401559651600283015594516003820155925160048401559051928201929092559051600682015591516007909201805460ff19169215159290921790915590519055565b600a602052815f5260405f2081815481106114b2575f80fd5b600254604080516306fdde0360e01b815290516001600160a01b039092169160609182915f91829186916306fdde0391600480830192869291908290030181865afa158015611774573d5f803e3d5ffd5b505050506040513d5f823e601f3d908101601f1916820160405261179b919081019061311c565b935060025f9054906101000a90046001600160a01b03166001600160a01b03166395d89b416040518163ffffffff1660e01b81526004015f60405180830381865afa1580156117ec573d5f803e3d5ffd5b505050506040513d5f823e601f3d908101601f19168201604052611813919081019061311c565b925060025f9054906101000a90046001600160a01b03166001600160a01b031663313ce5676040518163ffffffff1660e01b8152600401602060405180830381865afa158015611865573d5f803e3d5ffd5b505050506040513d601f19601f8201168201806040525081019061188991906131b0565b6002546040516370a0823160e01b81523060048201529193506001600160a01b0316906370a082319060240161115f565b5f805f6118d05f5460ff600160a01b9091041690565b156119105760405162461bcd60e51b815260206004820152601060248201526f14185d5cd8589b194e881c185d5cd95960821b60448201526064016108f4565b61191861280f565b335f9081526010602052604090205460ff161561196a5760405162461bcd60e51b815260206004820152601060248201526f4163636f756e74206973207370616d2160801b60448201526064016108f4565b335f908152600860205260408120548190819042825b8951811015611db857335f9081526007602052604081208b518c90849081106119ab576119ab612f67565b6020026020010151815481106119c3576119c3612f67565b905f5260205f2001541115611db057601254335f9081526009602052604081208c519192918d90859081106119fa576119fa612f67565b602002602001015181548110611a1257611a12612f67565b905f5260205f200154611a259190612f8f565b335f908152600a602052604090208c518d9085908110611a4757611a47612f67565b602002602001015181548110611a5f57611a5f612f67565b905f5260205f200154611a729190612fa6565b905080831115611bdc575f61271060045f60095f336001600160a01b03166001600160a01b031681526020019081526020015f208f8781518110611ab857611ab8612f67565b602002602001015181548110611ad057611ad0612f67565b905f5260205f20015481526020019081526020015f205460075f336001600160a01b03166001600160a01b031681526020019081526020015f208e8681518110611b1c57611b1c612f67565b602002602001015181548110611b3457611b34612f67565b905f5260205f200154611b479190612f8f565b611b519190612fb9565b600354909150611b6c90600160a81b900460ff16600a6130bb565b611b769082612fb9565b9050611b828188612fa6565b335f9081526007602052604090208d51919850908d9085908110611ba857611ba8612f67565b602002602001015181548110611bc057611bc0612f67565b905f5260205f20015488611bd49190612fa6565b975050611cdb565b6011545f9015611c6e57601154335f9081526007602052604090208d516127109291908f9087908110611c1157611c11612f67565b602002602001015181548110611c2957611c29612f67565b905f5260205f200154611c3c9190612f8f565b611c469190612fb9565b600354909150611c6190600160a81b900460ff16600a6130bb565b611c6b9082612fb9565b90505b335f9081526007602052604081208d518391908f9087908110611c9357611c93612f67565b602002602001015181548110611cab57611cab612f67565b905f5260205f200154611cbe91906130f5565b9050611cca818a612fa6565b9850611cd68288612fa6565b965050505b335f9081526007602052604090208b518c9084908110611cfd57611cfd612f67565b602002602001015181548110611d1557611d15612f67565b905f5260205f20015460055f8d8581518110611d3357611d33612f67565b602002602001015181526020019081526020015f206008015f828254611d5991906130f5565b9091555050335f9081526007602052604090208b518c9084908110611d8057611d80612f67565b602002602001015181548110611d9857611d98612f67565b905f5260205f20015484611dac91906130f5565b9350505b600101611980565b505f5b8951811015611fd4575f8a8281518110611dd757611dd7612f67565b602002602001015190505b335f90815260076020526040902054611dfd906001906130f5565b811015611f3257335f908152600760205260409020611e1d826001612fa6565b81548110611e2d57611e2d612f67565b5f91825260208083209091015433835260079091526040909120805483908110611e5957611e59612f67565b5f918252602080832090910192909255338152600990915260409020611e80826001612fa6565b81548110611e9057611e90612f67565b5f91825260208083209091015433835260099091526040909120805483908110611ebc57611ebc612f67565b5f918252602080832090910192909255338152600a90915260409020611ee3826001612fa6565b81548110611ef357611ef3612f67565b5f918252602080832090910154338352600a9091526040909120805483908110611f1f57611f1f612f67565b5f91825260209091200155600101611de2565b50335f908152600760205260409020805480611f5057611f50613108565b5f828152602080822083015f199081018390559092019092553382526009905260409020805480611f8357611f83613108565b5f828152602080822083015f19908101839055909201909255338252600a905260409020805480611fb657611fb6613108565b5f8281526020812082015f1990810191909155019055600101611dbb565b508415612082576002546003546001600160a01b039091169063a9059cbb90339061200a90600160a81b900460ff16600a6130bb565b6120149089612fb9565b6040516001600160e01b031960e085901b1681526001600160a01b03909216600483015260248201526044016020604051808303815f875af115801561205c573d5f803e3d5ffd5b505050506040513d601f19601f8201168201806040525081019061208091906131e7565b505b831561212b576003546001600160a01b0381169063a9059cbb9033906120b390600160b01b900460ff16600a6130bb565b6120bd9088612fb9565b6040516001600160e01b031960e085901b1681526001600160a01b03909216600483015260248201526044016020604051808303815f875af1158015612105573d5f803e3d5ffd5b505050506040513d601f19601f8201168201806040525081019061212991906131e7565b505b82156121db576002546006546003546001600160a01b039283169263a9059cbb92169061216390600160a81b900460ff16600a6130bb565b61216d9087612fb9565b6040516001600160e01b031960e085901b1681526001600160a01b03909216600483015260248201526044016020604051808303815f875af11580156121b5573d5f803e3d5ffd5b505050506040513d601f19601f820116820180604052508101906121d991906131e7565b505b335f908152600860209081526040808320859055600b90915281208054869290612206908490612fa6565b9091555050335f908152600c602052604090204290555050600180559196909550909350915050565b5f546001600160a01b031633146122585760405162461bcd60e51b81526004016108f490612f32565b600680546001600160a01b0319166001600160a01b0392909216919091179055565b601354606090156123b05760135467ffffffffffffffff8111156122a0576122a0612dfe565b6040519080825280602002602001820160405280156122d957816020015b6122c6612a1f565b8152602001906001900390816122be5790505b5090505f5b6013548110156123ae5760055f601383815481106122fe576122fe612f67565b905f5260205f20015481526020019081526020015f20604051806101200160405290815f8201548152602001600182015481526020016002820154815260200160038201548152602001600482015481526020016005820154815260200160068201548152602001600782015f9054906101000a900460ff1615151515815260200160088201548152505082828151811061239b5761239b612f67565b60209081029190910101526001016122de565b505b90565b5f54600160a01b900460ff16156123ff5760405162461bcd60e51b815260206004820152601060248201526f14185d5cd8589b194e881c185d5cd95960821b60448201526064016108f4565b61240761280f565b335f9081526010602052604090205460ff16156124595760405162461bcd60e51b815260206004820152601060248201526f4163636f756e74206973207370616d2160801b60448201526064016108f4565b612462816127c7565b6124a45760405162461bcd60e51b8152602060048201526013602482015272125b9d985b1a59081b1bd8dac81c195c9a5bd9606a1b60448201526064016108f4565b5f818152600560205260409020600101548210156124f55760405162461bcd60e51b815260206004820152600e60248201526d125b9d985b1a5908185b5bdd5b9d60921b60448201526064016108f4565b6002546040516323b872dd60e01b81523360048201523060248201526044810184905242916001600160a01b0316906323b872dd906064016020604051808303815f875af1158015612549573d5f803e3d5ffd5b505050506040513d601f19601f8201168201806040525081019061256d91906131e7565b50335f81815260076020908152604080832080546001818101835591855283852001889055848452600a835281842080549182018155845282842064ffffffffff87169101559282526008905290812080548592906125cd908490612fa6565b9091555050335f818152600960209081526040808320805460018101825590845282842001869055928252600c815282822042905584825260059052908120600801805485929061261f908490612fa6565b9091555050335f908152600d602052604090205460ff1661268957600f8054905f61264983613202565b9091555050600f545f908152600e6020908152604080832080546001600160a01b031916339081179091558352600d9091529020805460ff191660011790555b612691612868565b6040805184815260208101849052908101829052309033907fe44628ed4b392c5ef46ffc833d640eefd957e81a312e583e0cc57eed5f04ada39060600160405180910390a35061097760018055565b5f546001600160a01b031633146127095760405162461bcd60e51b81526004016108f490612f32565b6001600160a01b03811661276e5760405162461bcd60e51b815260206004820152602660248201527f4f776e61626c653a206e6577206f776e657220697320746865207a65726f206160448201526564647265737360d01b60648201526084016108f4565b5f80546040516001600160a01b03808516939216917f8be0079c531659141344cd1fd0a4f28419497f9722a3daafe3b4186f6b6457e091a35f80546001600160a01b0319166001600160a01b0392909216919091179055565b5f805b6013548110156128075782601382815481106127e8576127e8612f67565b905f5260205f200154036127ff5750600192915050565b6001016127ca565b505f92915050565b6002600154036128615760405162461bcd60e51b815260206004820152601f60248201527f5265656e7472616e637947756172643a207265656e7472616e742063616c6c0060448201526064016108f4565b6002600155565b6002546040516370a0823160e01b81523060048201525f916001600160a01b0316906370a0823190602401602060405180830381865afa1580156128ae573d5f803e3d5ffd5b505050506040513d601f19601f820116820180604052508101906128d291906131d0565b90505f5b601354811015610977575f601382815481106128f4576128f4612f67565b5f918252602080832090910154808352600580835260409384902084516101208101865281548152600182015494810194909452600281015494840194909452600384015460608401526004840154608084015283015460a0830152600683015460c0830152600783015460ff16151560e08301819052600890930154610100830152925090612a15575f8160c001518561298f9190612fb9565b90505f8260a00151826129a29190612f8f565b9050826080015183606001516129b891906130f5565b81116129e1578083606001516129ce91906130f5565b5f858152600460205260409020556129f5565b60808301515f858152600460205260409020555b50505f828152600460209081526040808320546005909252909120600201555b50506001016128d6565b6040518061012001604052805f81526020015f81526020015f81526020015f81526020015f81526020015f81526020015f81526020015f151581526020015f81525090565b6040518060e001604052805f6001600160a01b031681526020015f81526020015f8152602001606081526020015f81526020015f8152602001606081525090565b6001600160a01b0381168114612ab9575f80fd5b50565b5f60208284031215612acc575f80fd5b8135612ad781612aa5565b9392505050565b5f60208284031215612aee575f80fd5b5035919050565b805182526020810151602083015260408101516040830152606081015160608301526080810151608083015260a081015160a083015260c081015160c083015260e0810151151560e08301526101008101516101008301525050565b6101208101612b608284612af5565b92915050565b602080825282518282018190525f918401906040840190835b81811015612b9d578351835260209384019390920191600101612b7f565b509095945050505050565b5f8060408385031215612bb9575f80fd5b50508035926020909101359150565b5f8151808452602084019350602083015f5b82811015612bf8578151865260209586019590910190600101612bda565b5093949350505050565b60018060a01b03815116825260208101516020830152604081015160408301525f606082015160e06060850152612c3c60e0850182612bc8565b90506080830151608085015260a083015160a085015260c083015184820360c0860152612c698282612bc8565b95945050505050565b5f602082016020835280845180835260408501915060408160051b8601019250602086015f5b82811015612cc957603f19878603018452612cb4858351612c02565b94506020938401939190910190600101612c98565b50929695505050505050565b5f81518084528060208401602086015e5f602082860101526020601f19601f83011685010191505092915050565b6001600160a01b038616815260a0602082018190525f90612d2690830187612cd5565b8281036040840152612d388187612cd5565b60ff9590951660608401525050608001529392505050565b602081525f612ad76020830184612c02565b5f8060408385031215612d73575f80fd5b8235612d7e81612aa5565b946020939093013593505050565b8015158114612ab9575f80fd5b5f805f805f805f80610100898b031215612db1575f80fd5b883597506020890135965060408901359550606089013594506080890135935060a0890135925060c0890135915060e0890135612ded81612d8c565b809150509295985092959890939650565b634e487b7160e01b5f52604160045260245ffd5b604051601f8201601f1916810167ffffffffffffffff81118282101715612e3b57612e3b612dfe565b604052919050565b5f60208284031215612e53575f80fd5b813567ffffffffffffffff811115612e69575f80fd5b8201601f81018413612e79575f80fd5b803567ffffffffffffffff811115612e9357612e93612dfe565b8060051b612ea360208201612e12565b91825260208184018101929081019087841115612ebe575f80fd5b6020850194505b83851015612ee457843580835260209586019590935090910190612ec5565b979650505050505050565b602080825282518282018190525f918401906040840190835b81811015612b9d57612f1b838551612af5565b602093909301926101209290920191600101612f08565b6020808252818101527f4f776e61626c653a2063616c6c6572206973206e6f7420746865206f776e6572604082015260600190565b634e487b7160e01b5f52603260045260245ffd5b634e487b7160e01b5f52601160045260245ffd5b8082028115828204841417612b6057612b60612f7b565b80820180821115612b6057612b60612f7b565b5f82612fd357634e487b7160e01b5f52601260045260245ffd5b500490565b6001815b600184111561301357808504811115612ff757612ff7612f7b565b600184161561300557908102905b60019390931c928002612fdc565b935093915050565b5f8261302957506001612b60565b8161303557505f612b60565b816001811461304b576002811461305557613071565b6001915050612b60565b60ff84111561306657613066612f7b565b50506001821b612b60565b5060208310610133831016604e8410600b8410161715613094575081810a612b60565b6130a05f198484612fd8565b805f19048211156130b3576130b3612f7b565b029392505050565b5f612ad7838361301b565b602080825260159082015274131bd8dac81c195c9a5bd9081b9bdd08199bdd5b99605a1b604082015260600190565b81810381811115612b6057612b60612f7b565b634e487b7160e01b5f52603160045260245ffd5b5f6020828403121561312c575f80fd5b815167ffffffffffffffff811115613142575f80fd5b8201601f81018413613152575f80fd5b805167ffffffffffffffff81111561316c5761316c612dfe565b61317f601f8201601f1916602001612e12565b818152856020838501011115613193575f80fd5b8160208401602083015e5f91810160200191909152949350505050565b5f602082840312156131c0575f80fd5b815160ff81168114612ad7575f80fd5b5f602082840312156131e0575f80fd5b5051919050565b5f602082840312156131f7575f80fd5b8151612ad781612d8c565b5f6001820161321357613213612f7b565b506001019056fea2646970667358221220ef98f1fb294fe5687edbd88e55ffead82e354968c856525a6935ec4c193f058364736f6c634300081a0033",
			"opcodes": "PUSH1 0x80 PUSH1 0x40 MSTORE PUSH1 0x3 DUP1 SLOAD PUSH1 0xFF PUSH1 0xA0 SHL NOT AND PUSH1 0x1 PUSH1 0xA0 SHL OR SWAP1 SSTORE PUSH2 0x9C4 PUSH1 0x11 SSTORE PUSH2 0xE10 PUSH1 0x12 SSTORE CALLVALUE DUP1 ISZERO PUSH2 0x2E JUMPI PUSH0 DUP1 REVERT JUMPDEST POP PUSH1 0x40 MLOAD PUSH2 0x3A4E CODESIZE SUB DUP1 PUSH2 0x3A4E DUP4 CODECOPY DUP2 ADD PUSH1 0x40 DUP2 SWAP1 MSTORE PUSH2 0x4D SWAP2 PUSH2 0x651 JUMP JUMPDEST PUSH0 DUP1 SLOAD PUSH1 0x1 PUSH1 0x1 PUSH1 0xA0 SHL SUB NOT AND CALLER SWAP1 DUP2 OR DUP3 SSTORE PUSH1 0x40 MLOAD SWAP1 SWAP2 SWAP1 PUSH32 0x8BE0079C531659141344CD1FD0A4F28419497F9722A3DAAFE3B4186F6B6457E0 SWAP1 DUP3 SWAP1 LOG3 PUSH0 DUP1 SLOAD PUSH1 0xFF PUSH1 0xA0 SHL NOT AND SWAP1 SSTORE PUSH1 0x1 DUP1 SSTORE PUSH1 0x2 DUP1 SLOAD PUSH1 0x1 PUSH1 0x1 PUSH1 0xA0 SHL SUB DUP1 DUP9 AND PUSH1 0x1 PUSH1 0x1 PUSH1 0xA0 SHL SUB NOT SWAP3 DUP4 AND DUP2 OR SWAP1 SWAP4 SSTORE PUSH1 0x3 DUP1 SLOAD SWAP2 DUP9 AND SWAP2 SWAP1 SWAP3 AND OR SWAP1 SSTORE PUSH1 0x11 DUP4 SWAP1 SSTORE PUSH1 0x40 DUP1 MLOAD PUSH4 0x313CE567 PUSH1 0xE0 SHL DUP2 MSTORE SWAP1 MLOAD PUSH4 0x313CE567 SWAP2 PUSH1 0x4 DUP1 DUP3 ADD SWAP3 PUSH1 0x20 SWAP3 SWAP1 SWAP2 SWAP1 DUP3 SWAP1 SUB ADD DUP2 DUP7 GAS STATICCALL ISZERO DUP1 ISZERO PUSH2 0x107 JUMPI RETURNDATASIZE PUSH0 DUP1 RETURNDATACOPY RETURNDATASIZE PUSH0 REVERT JUMPDEST POP POP POP POP PUSH1 0x40 MLOAD RETURNDATASIZE PUSH1 0x1F NOT PUSH1 0x1F DUP3 ADD AND DUP3 ADD DUP1 PUSH1 0x40 MSTORE POP DUP2 ADD SWAP1 PUSH2 0x12B SWAP2 SWAP1 PUSH2 0x7B6 JUMP JUMPDEST PUSH1 0x3 PUSH1 0x15 PUSH2 0x100 EXP DUP2 SLOAD DUP2 PUSH1 0xFF MUL NOT AND SWAP1 DUP4 PUSH1 0xFF AND MUL OR SWAP1 SSTORE POP PUSH1 0x3 PUSH0 SWAP1 SLOAD SWAP1 PUSH2 0x100 EXP SWAP1 DIV PUSH1 0x1 PUSH1 0x1 PUSH1 0xA0 SHL SUB AND PUSH1 0x1 PUSH1 0x1 PUSH1 0xA0 SHL SUB AND PUSH4 0x313CE567 PUSH1 0x40 MLOAD DUP2 PUSH4 0xFFFFFFFF AND PUSH1 0xE0 SHL DUP2 MSTORE PUSH1 0x4 ADD PUSH1 0x20 PUSH1 0x40 MLOAD DUP1 DUP4 SUB DUP2 DUP7 GAS STATICCALL ISZERO DUP1 ISZERO PUSH2 0x195 JUMPI RETURNDATASIZE PUSH0 DUP1 RETURNDATACOPY RETURNDATASIZE PUSH0 REVERT JUMPDEST POP POP POP POP PUSH1 0x40 MLOAD RETURNDATASIZE PUSH1 0x1F NOT PUSH1 0x1F DUP3 ADD AND DUP3 ADD DUP1 PUSH1 0x40 MSTORE POP DUP2 ADD SWAP1 PUSH2 0x1B9 SWAP2 SWAP1 PUSH2 0x7B6 JUMP JUMPDEST PUSH1 0x3 DUP1 SLOAD PUSH1 0xFF PUSH1 0xB0 SHL NOT AND PUSH1 0x1 PUSH1 0xB0 SHL PUSH1 0xFF SWAP4 SWAP1 SWAP4 AND SWAP3 SWAP1 SWAP3 MUL SWAP2 SWAP1 SWAP2 OR SWAP1 SSTORE PUSH1 0x6 DUP1 SLOAD PUSH1 0x1 PUSH1 0x1 PUSH1 0xA0 SHL SUB NOT AND PUSH1 0x1 PUSH1 0x1 PUSH1 0xA0 SHL SUB DUP6 AND OR SWAP1 SSTORE PUSH0 JUMPDEST DUP2 MLOAD DUP2 LT ISZERO PUSH2 0x304 JUMPI PUSH2 0x2FC DUP3 DUP3 DUP2 MLOAD DUP2 LT PUSH2 0x214 JUMPI PUSH2 0x214 PUSH2 0x7DD JUMP JUMPDEST PUSH1 0x20 MUL PUSH1 0x20 ADD ADD MLOAD PUSH0 ADD MLOAD DUP4 DUP4 DUP2 MLOAD DUP2 LT PUSH2 0x231 JUMPI PUSH2 0x231 PUSH2 0x7DD JUMP JUMPDEST PUSH1 0x20 MUL PUSH1 0x20 ADD ADD MLOAD PUSH1 0x20 ADD MLOAD DUP5 DUP5 DUP2 MLOAD DUP2 LT PUSH2 0x24F JUMPI PUSH2 0x24F PUSH2 0x7DD JUMP JUMPDEST PUSH1 0x20 MUL PUSH1 0x20 ADD ADD MLOAD PUSH1 0x40 ADD MLOAD DUP6 DUP6 DUP2 MLOAD DUP2 LT PUSH2 0x26D JUMPI PUSH2 0x26D PUSH2 0x7DD JUMP JUMPDEST PUSH1 0x20 MUL PUSH1 0x20 ADD ADD MLOAD PUSH1 0x60 ADD MLOAD DUP7 DUP7 DUP2 MLOAD DUP2 LT PUSH2 0x28B JUMPI PUSH2 0x28B PUSH2 0x7DD JUMP JUMPDEST PUSH1 0x20 MUL PUSH1 0x20 ADD ADD MLOAD PUSH1 0x80 ADD MLOAD DUP8 DUP8 DUP2 MLOAD DUP2 LT PUSH2 0x2A9 JUMPI PUSH2 0x2A9 PUSH2 0x7DD JUMP JUMPDEST PUSH1 0x20 MUL PUSH1 0x20 ADD ADD MLOAD PUSH1 0xA0 ADD MLOAD DUP9 DUP9 DUP2 MLOAD DUP2 LT PUSH2 0x2C7 JUMPI PUSH2 0x2C7 PUSH2 0x7DD JUMP JUMPDEST PUSH1 0x20 MUL PUSH1 0x20 ADD ADD MLOAD PUSH1 0xC0 ADD MLOAD DUP10 DUP10 DUP2 MLOAD DUP2 LT PUSH2 0x2E5 JUMPI PUSH2 0x2E5 PUSH2 0x7DD JUMP JUMPDEST PUSH1 0x20 MUL PUSH1 0x20 ADD ADD MLOAD PUSH1 0xE0 ADD MLOAD PUSH2 0x30F PUSH1 0x20 SHL PUSH1 0x20 SHR JUMP JUMPDEST PUSH1 0x1 ADD PUSH2 0x1F6 JUMP JUMPDEST POP POP POP POP POP POP PUSH2 0x7F1 JUMP JUMPDEST PUSH0 SLOAD PUSH1 0x1 PUSH1 0x1 PUSH1 0xA0 SHL SUB AND CALLER EQ PUSH2 0x36D JUMPI PUSH1 0x40 MLOAD PUSH3 0x461BCD PUSH1 0xE5 SHL DUP2 MSTORE PUSH1 0x20 PUSH1 0x4 DUP3 ADD DUP2 SWAP1 MSTORE PUSH1 0x24 DUP3 ADD MSTORE PUSH32 0x4F776E61626C653A2063616C6C6572206973206E6F7420746865206F776E6572 PUSH1 0x44 DUP3 ADD MSTORE PUSH1 0x64 ADD JUMPDEST PUSH1 0x40 MLOAD DUP1 SWAP2 SUB SWAP1 REVERT JUMPDEST PUSH2 0x2710 DUP7 GT ISZERO PUSH2 0x3B4 JUMPI PUSH1 0x40 MLOAD PUSH3 0x461BCD PUSH1 0xE5 SHL DUP2 MSTORE PUSH1 0x20 PUSH1 0x4 DUP3 ADD MSTORE PUSH1 0x12 PUSH1 0x24 DUP3 ADD MSTORE PUSH18 0x496E76616C69642070657263656E74616765 PUSH1 0x70 SHL PUSH1 0x44 DUP3 ADD MSTORE PUSH1 0x64 ADD PUSH2 0x364 JUMP JUMPDEST DUP4 DUP6 LT ISZERO PUSH2 0x41F JUMPI PUSH1 0x40 MLOAD PUSH3 0x461BCD PUSH1 0xE5 SHL DUP2 MSTORE PUSH1 0x20 PUSH1 0x4 DUP3 ADD MSTORE PUSH1 0x32 PUSH1 0x24 DUP3 ADD MSTORE PUSH32 0x4D61782072617465206D7573742062652067726561746572207468616E206F72 PUSH1 0x44 DUP3 ADD MSTORE PUSH18 0x20657175616C20746F206D696E2072617465 PUSH1 0x70 SHL PUSH1 0x64 DUP3 ADD MSTORE PUSH1 0x84 ADD PUSH2 0x364 JUMP JUMPDEST PUSH0 DUP3 GT PUSH2 0x46E JUMPI PUSH1 0x40 MLOAD PUSH3 0x461BCD PUSH1 0xE5 SHL DUP2 MSTORE PUSH1 0x20 PUSH1 0x4 DUP3 ADD DUP2 SWAP1 MSTORE PUSH1 0x24 DUP3 ADD MSTORE PUSH32 0x537465702073697A65206D7573742062652067726561746572207468616E2030 PUSH1 0x44 DUP3 ADD MSTORE PUSH1 0x64 ADD PUSH2 0x364 JUMP JUMPDEST PUSH0 DUP9 DUP2 MSTORE PUSH1 0x4 PUSH1 0x20 MSTORE PUSH1 0x40 SWAP1 KECCAK256 DUP7 SWAP1 SSTORE PUSH2 0x487 DUP9 PUSH2 0x571 JUMP JUMPDEST PUSH2 0x4C0 JUMPI PUSH1 0x13 DUP1 SLOAD PUSH1 0x1 DUP2 ADD DUP3 SSTORE PUSH0 SWAP2 SWAP1 SWAP2 MSTORE PUSH32 0x66DE8FFDA797E3DE9C05E8FC57B3BF0EC28A930D40B0D285D93C06501CF6A090 ADD DUP9 SWAP1 SSTORE JUMPDEST PUSH1 0x40 DUP1 MLOAD PUSH2 0x120 DUP2 ADD DUP3 MSTORE DUP10 DUP2 MSTORE PUSH1 0x20 DUP1 DUP3 ADD SWAP10 DUP11 MSTORE DUP2 DUP4 ADD SWAP9 DUP10 MSTORE PUSH1 0x60 DUP3 ADD SWAP8 DUP9 MSTORE PUSH1 0x80 DUP3 ADD SWAP7 DUP8 MSTORE PUSH1 0xA0 DUP3 ADD SWAP6 DUP7 MSTORE PUSH1 0xC0 DUP3 ADD SWAP5 DUP6 MSTORE SWAP3 ISZERO ISZERO PUSH1 0xE0 DUP3 ADD SWAP1 DUP2 MSTORE PUSH0 DUP12 DUP2 MSTORE PUSH1 0x5 DUP1 DUP7 MSTORE SWAP4 DUP2 KECCAK256 PUSH1 0x8 DUP2 ADD DUP1 SLOAD PUSH2 0x100 DUP7 ADD SWAP1 DUP2 MSTORE SWAP14 SWAP1 SWAP3 MSTORE SWAP5 DUP5 SWAP1 MSTORE SWAP2 MLOAD DUP5 SSTORE SWAP9 MLOAD PUSH1 0x1 DUP5 ADD SSTORE SWAP7 MLOAD PUSH1 0x2 DUP4 ADD SSTORE SWAP5 MLOAD PUSH1 0x3 DUP3 ADD SSTORE SWAP3 MLOAD PUSH1 0x4 DUP5 ADD SSTORE SWAP1 MLOAD SWAP3 DUP3 ADD SWAP3 SWAP1 SWAP3 SSTORE SWAP1 MLOAD PUSH1 0x6 DUP3 ADD SSTORE SWAP2 MLOAD PUSH1 0x7 SWAP1 SWAP3 ADD DUP1 SLOAD PUSH1 0xFF NOT AND SWAP3 ISZERO ISZERO SWAP3 SWAP1 SWAP3 OR SWAP1 SWAP2 SSTORE SWAP1 MLOAD SWAP1 SSTORE JUMP JUMPDEST PUSH0 DUP1 JUMPDEST PUSH1 0x13 SLOAD DUP2 LT ISZERO PUSH2 0x5B1 JUMPI DUP3 PUSH1 0x13 DUP3 DUP2 SLOAD DUP2 LT PUSH2 0x592 JUMPI PUSH2 0x592 PUSH2 0x7DD JUMP JUMPDEST SWAP1 PUSH0 MSTORE PUSH1 0x20 PUSH0 KECCAK256 ADD SLOAD SUB PUSH2 0x5A9 JUMPI POP PUSH1 0x1 SWAP3 SWAP2 POP POP JUMP JUMPDEST PUSH1 0x1 ADD PUSH2 0x574 JUMP JUMPDEST POP PUSH0 SWAP3 SWAP2 POP POP JUMP JUMPDEST PUSH1 0x1 PUSH1 0x1 PUSH1 0xA0 SHL SUB DUP2 AND DUP2 EQ PUSH2 0x5CD JUMPI PUSH0 DUP1 REVERT JUMPDEST POP JUMP JUMPDEST PUSH4 0x4E487B71 PUSH1 0xE0 SHL PUSH0 MSTORE PUSH1 0x41 PUSH1 0x4 MSTORE PUSH1 0x24 PUSH0 REVERT JUMPDEST PUSH1 0x40 MLOAD PUSH2 0x120 DUP2 ADD PUSH1 0x1 PUSH1 0x1 PUSH1 0x40 SHL SUB DUP2 GT DUP3 DUP3 LT OR ISZERO PUSH2 0x607 JUMPI PUSH2 0x607 PUSH2 0x5D0 JUMP JUMPDEST PUSH1 0x40 MSTORE SWAP1 JUMP JUMPDEST PUSH1 0x40 MLOAD PUSH1 0x1F DUP3 ADD PUSH1 0x1F NOT AND DUP2 ADD PUSH1 0x1 PUSH1 0x1 PUSH1 0x40 SHL SUB DUP2 GT DUP3 DUP3 LT OR ISZERO PUSH2 0x635 JUMPI PUSH2 0x635 PUSH2 0x5D0 JUMP JUMPDEST PUSH1 0x40 MSTORE SWAP2 SWAP1 POP JUMP JUMPDEST DUP1 MLOAD DUP1 ISZERO ISZERO DUP2 EQ PUSH2 0x64C JUMPI PUSH0 DUP1 REVERT JUMPDEST SWAP2 SWAP1 POP JUMP JUMPDEST PUSH0 DUP1 PUSH0 DUP1 PUSH0 PUSH1 0xA0 DUP7 DUP9 SUB SLT ISZERO PUSH2 0x665 JUMPI PUSH0 DUP1 REVERT JUMPDEST DUP6 MLOAD PUSH2 0x670 DUP2 PUSH2 0x5B9 JUMP JUMPDEST PUSH1 0x20 DUP8 ADD MLOAD SWAP1 SWAP6 POP PUSH2 0x681 DUP2 PUSH2 0x5B9 JUMP JUMPDEST PUSH1 0x40 DUP8 ADD MLOAD SWAP1 SWAP5 POP PUSH2 0x692 DUP2 PUSH2 0x5B9 JUMP JUMPDEST PUSH1 0x60 DUP8 ADD MLOAD PUSH1 0x80 DUP9 ADD MLOAD SWAP2 SWAP5 POP SWAP3 POP PUSH1 0x1 PUSH1 0x1 PUSH1 0x40 SHL SUB DUP2 GT ISZERO PUSH2 0x6B4 JUMPI PUSH0 DUP1 REVERT JUMPDEST DUP7 ADD PUSH1 0x1F DUP2 ADD DUP9 SGT PUSH2 0x6C4 JUMPI PUSH0 DUP1 REVERT JUMPDEST DUP1 MLOAD PUSH1 0x1 PUSH1 0x1 PUSH1 0x40 SHL SUB DUP2 GT ISZERO PUSH2 0x6DD JUMPI PUSH2 0x6DD PUSH2 0x5D0 JUMP JUMPDEST PUSH2 0x6EC PUSH1 0x20 DUP3 PUSH1 0x5 SHL ADD PUSH2 0x60D JUMP JUMPDEST DUP1 DUP3 DUP3 MSTORE PUSH1 0x20 DUP3 ADD SWAP2 POP PUSH1 0x20 PUSH2 0x120 DUP5 MUL DUP6 ADD ADD SWAP3 POP DUP11 DUP4 GT ISZERO PUSH2 0x70E JUMPI PUSH0 DUP1 REVERT JUMPDEST PUSH1 0x20 DUP5 ADD SWAP4 POP JUMPDEST DUP3 DUP5 LT ISZERO PUSH2 0x7A5 JUMPI PUSH2 0x120 DUP5 DUP13 SUB SLT ISZERO PUSH2 0x72D JUMPI PUSH0 DUP1 REVERT JUMPDEST PUSH2 0x735 PUSH2 0x5E4 JUMP JUMPDEST DUP5 MLOAD DUP2 MSTORE PUSH1 0x20 DUP1 DUP7 ADD MLOAD SWAP1 DUP3 ADD MSTORE PUSH1 0x40 DUP1 DUP7 ADD MLOAD SWAP1 DUP3 ADD MSTORE PUSH1 0x60 DUP1 DUP7 ADD MLOAD SWAP1 DUP3 ADD MSTORE PUSH1 0x80 DUP1 DUP7 ADD MLOAD SWAP1 DUP3 ADD MSTORE PUSH1 0xA0 DUP1 DUP7 ADD MLOAD SWAP1 DUP3 ADD MSTORE PUSH1 0xC0 DUP1 DUP7 ADD MLOAD SWAP1 DUP3 ADD MSTORE PUSH2 0x781 PUSH1 0xE0 DUP7 ADD PUSH2 0x63D JUMP JUMPDEST PUSH1 0xE0 DUP3 ADD MSTORE PUSH2 0x100 DUP6 DUP2 ADD MLOAD SWAP1 DUP3 ADD MSTORE DUP3 MSTORE PUSH2 0x120 SWAP1 SWAP4 ADD SWAP3 PUSH1 0x20 SWAP1 SWAP2 ADD SWAP1 PUSH2 0x715 JUMP JUMPDEST DUP1 SWAP5 POP POP POP POP POP SWAP3 SWAP6 POP SWAP3 SWAP6 SWAP1 SWAP4 POP JUMP JUMPDEST PUSH0 PUSH1 0x20 DUP3 DUP5 SUB SLT ISZERO PUSH2 0x7C6 JUMPI PUSH0 DUP1 REVERT JUMPDEST DUP2 MLOAD PUSH1 0xFF DUP2 AND DUP2 EQ PUSH2 0x7D6 JUMPI PUSH0 DUP1 REVERT JUMPDEST SWAP4 SWAP3 POP POP POP JUMP JUMPDEST PUSH4 0x4E487B71 PUSH1 0xE0 SHL PUSH0 MSTORE PUSH1 0x32 PUSH1 0x4 MSTORE PUSH1 0x24 PUSH0 REVERT JUMPDEST PUSH2 0x3250 DUP1 PUSH2 0x7FE PUSH0 CODECOPY PUSH0 RETURN INVALID PUSH1 0x80 PUSH1 0x40 MSTORE PUSH1 0x4 CALLDATASIZE LT PUSH2 0x24C JUMPI PUSH0 CALLDATALOAD PUSH1 0xE0 SHR DUP1 PUSH4 0x850BAD94 GT PUSH2 0x134 JUMPI DUP1 PUSH4 0xC2E5FE76 GT PUSH2 0xB3 JUMPI DUP1 PUSH4 0xDE644C76 GT PUSH2 0x78 JUMPI DUP1 PUSH4 0xDE644C76 EQ PUSH2 0x80E JUMPI DUP1 PUSH4 0xE2BBB158 EQ PUSH2 0x82F JUMPI DUP1 PUSH4 0xF256DFC5 EQ PUSH2 0x84E JUMPI DUP1 PUSH4 0xF2FDE38B EQ PUSH2 0x86D JUMPI DUP1 PUSH4 0xF66E4BE3 EQ PUSH2 0x88C JUMPI DUP1 PUSH4 0xF7C618C1 EQ PUSH2 0x8AC JUMPI PUSH0 DUP1 REVERT JUMPDEST DUP1 PUSH4 0xC2E5FE76 EQ PUSH2 0x745 JUMPI DUP1 PUSH4 0xC53C5FC1 EQ PUSH2 0x773 JUMPI DUP1 PUSH4 0xC5C35196 EQ PUSH2 0x787 JUMPI DUP1 PUSH4 0xCD099205 EQ PUSH2 0x7C1 JUMPI DUP1 PUSH4 0xCD8DE42C EQ PUSH2 0x7EF JUMPI PUSH0 DUP1 REVERT JUMPDEST DUP1 PUSH4 0x9A4577A2 GT PUSH2 0xF9 JUMPI DUP1 PUSH4 0x9A4577A2 EQ PUSH2 0x696 JUMPI DUP1 PUSH4 0x9BDCECD1 EQ PUSH2 0x6B5 JUMPI DUP1 PUSH4 0xBA743F99 EQ PUSH2 0x6E7 JUMPI DUP1 PUSH4 0xC0941214 EQ PUSH2 0x706 JUMPI DUP1 PUSH4 0xC2412676 EQ PUSH2 0x726 JUMPI PUSH0 DUP1 REVERT JUMPDEST DUP1 PUSH4 0x850BAD94 EQ PUSH2 0x5F2 JUMPI DUP1 PUSH4 0x8DA5CB5B EQ PUSH2 0x61D JUMPI DUP1 PUSH4 0x917BB998 EQ PUSH2 0x639 JUMPI DUP1 PUSH4 0x91DC842E EQ PUSH2 0x658 JUMPI DUP1 PUSH4 0x95302CC0 EQ PUSH2 0x677 JUMPI PUSH0 DUP1 REVERT JUMPDEST DUP1 PUSH4 0x41EE13BE GT PUSH2 0x1CB JUMPI DUP1 PUSH4 0x5C975ABB GT PUSH2 0x190 JUMPI DUP1 PUSH4 0x5C975ABB EQ PUSH2 0x52F JUMPI DUP1 PUSH4 0x647428B9 EQ PUSH2 0x558 JUMPI DUP1 PUSH4 0x6A1D18D2 EQ PUSH2 0x57D JUMPI DUP1 PUSH4 0x6B130DC2 EQ PUSH2 0x59C JUMPI DUP1 PUSH4 0x6BA13A82 EQ PUSH2 0x5B1 JUMPI DUP1 PUSH4 0x6F77926B EQ PUSH2 0x5C6 JUMPI PUSH0 DUP1 REVERT JUMPDEST DUP1 PUSH4 0x41EE13BE EQ PUSH2 0x485 JUMPI DUP1 PUSH4 0x45982A66 EQ PUSH2 0x4A6 JUMPI DUP1 PUSH4 0x4D70378A EQ PUSH2 0x4D2 JUMPI DUP1 PUSH4 0x52B8745F EQ PUSH2 0x4F1 JUMPI DUP1 PUSH4 0x58098BF4 EQ PUSH2 0x510 JUMPI PUSH0 DUP1 REVERT JUMPDEST DUP1 PUSH4 0x2B4A16A0 GT PUSH2 0x211 JUMPI DUP1 PUSH4 0x2B4A16A0 EQ PUSH2 0x321 JUMPI DUP1 PUSH4 0x31D7A262 EQ PUSH2 0x340 JUMPI DUP1 PUSH4 0x365B98B2 EQ PUSH2 0x35F JUMPI DUP1 PUSH4 0x39129CFF EQ PUSH2 0x3AB JUMPI DUP1 PUSH4 0x3D51C72D EQ PUSH2 0x459 JUMPI PUSH0 DUP1 REVERT JUMPDEST DUP1 PUSH4 0x3962D46 EQ PUSH2 0x257 JUMPI DUP1 PUSH4 0xA6F93E6 EQ PUSH2 0x295 JUMPI DUP1 PUSH4 0x16ADA547 EQ PUSH2 0x2C0 JUMPI DUP1 PUSH4 0x230FFA0F EQ PUSH2 0x2D5 JUMPI DUP1 PUSH4 0x27BA372C EQ PUSH2 0x2F6 JUMPI PUSH0 DUP1 REVERT JUMPDEST CALLDATASIZE PUSH2 0x253 JUMPI STOP JUMPDEST PUSH0 DUP1 REVERT JUMPDEST CALLVALUE DUP1 ISZERO PUSH2 0x262 JUMPI PUSH0 DUP1 REVERT JUMPDEST POP PUSH2 0x282 PUSH2 0x271 CALLDATASIZE PUSH1 0x4 PUSH2 0x2ABC JUMP JUMPDEST PUSH1 0xB PUSH1 0x20 MSTORE PUSH0 SWAP1 DUP2 MSTORE PUSH1 0x40 SWAP1 KECCAK256 SLOAD DUP2 JUMP JUMPDEST PUSH1 0x40 MLOAD SWAP1 DUP2 MSTORE PUSH1 0x20 ADD JUMPDEST PUSH1 0x40 MLOAD DUP1 SWAP2 SUB SWAP1 RETURN JUMPDEST CALLVALUE DUP1 ISZERO PUSH2 0x2A0 JUMPI PUSH0 DUP1 REVERT JUMPDEST POP PUSH2 0x282 PUSH2 0x2AF CALLDATASIZE PUSH1 0x4 PUSH2 0x2ABC JUMP JUMPDEST PUSH1 0xC PUSH1 0x20 MSTORE PUSH0 SWAP1 DUP2 MSTORE PUSH1 0x40 SWAP1 KECCAK256 SLOAD DUP2 JUMP JUMPDEST CALLVALUE DUP1 ISZERO PUSH2 0x2CB JUMPI PUSH0 DUP1 REVERT JUMPDEST POP PUSH2 0x282 PUSH1 0x12 SLOAD DUP2 JUMP JUMPDEST CALLVALUE DUP1 ISZERO PUSH2 0x2E0 JUMPI PUSH0 DUP1 REVERT JUMPDEST POP PUSH2 0x2F4 PUSH2 0x2EF CALLDATASIZE PUSH1 0x4 PUSH2 0x2ADE JUMP JUMPDEST PUSH2 0x8CB JUMP JUMPDEST STOP JUMPDEST CALLVALUE DUP1 ISZERO PUSH2 0x301 JUMPI PUSH0 DUP1 REVERT JUMPDEST POP PUSH2 0x282 PUSH2 0x310 CALLDATASIZE PUSH1 0x4 PUSH2 0x2ABC JUMP JUMPDEST PUSH1 0x8 PUSH1 0x20 MSTORE PUSH0 SWAP1 DUP2 MSTORE PUSH1 0x40 SWAP1 KECCAK256 SLOAD DUP2 JUMP JUMPDEST CALLVALUE DUP1 ISZERO PUSH2 0x32C JUMPI PUSH0 DUP1 REVERT JUMPDEST POP PUSH2 0x282 PUSH2 0x33B CALLDATASIZE PUSH1 0x4 PUSH2 0x2ADE JUMP JUMPDEST PUSH2 0x97B JUMP JUMPDEST CALLVALUE DUP1 ISZERO PUSH2 0x34B JUMPI PUSH0 DUP1 REVERT JUMPDEST POP PUSH2 0x282 PUSH2 0x35A CALLDATASIZE PUSH1 0x4 PUSH2 0x2ABC JUMP JUMPDEST PUSH2 0x99A JUMP JUMPDEST CALLVALUE DUP1 ISZERO PUSH2 0x36A JUMPI PUSH0 DUP1 REVERT JUMPDEST POP PUSH2 0x393 PUSH2 0x379 CALLDATASIZE PUSH1 0x4 PUSH2 0x2ADE JUMP JUMPDEST PUSH1 0xE PUSH1 0x20 MSTORE PUSH0 SWAP1 DUP2 MSTORE PUSH1 0x40 SWAP1 KECCAK256 SLOAD PUSH1 0x1 PUSH1 0x1 PUSH1 0xA0 SHL SUB AND DUP2 JUMP JUMPDEST PUSH1 0x40 MLOAD PUSH1 0x1 PUSH1 0x1 PUSH1 0xA0 SHL SUB SWAP1 SWAP2 AND DUP2 MSTORE PUSH1 0x20 ADD PUSH2 0x28C JUMP JUMPDEST CALLVALUE DUP1 ISZERO PUSH2 0x3B6 JUMPI PUSH0 DUP1 REVERT JUMPDEST POP PUSH2 0x413 PUSH2 0x3C5 CALLDATASIZE PUSH1 0x4 PUSH2 0x2ADE JUMP JUMPDEST PUSH1 0x5 PUSH1 0x20 DUP2 SWAP1 MSTORE PUSH0 SWAP2 DUP3 MSTORE PUSH1 0x40 SWAP1 SWAP2 KECCAK256 DUP1 SLOAD PUSH1 0x1 DUP3 ADD SLOAD PUSH1 0x2 DUP4 ADD SLOAD PUSH1 0x3 DUP5 ADD SLOAD PUSH1 0x4 DUP6 ADD SLOAD SWAP6 DUP6 ADD SLOAD PUSH1 0x6 DUP7 ADD SLOAD PUSH1 0x7 DUP8 ADD SLOAD PUSH1 0x8 SWAP1 SWAP8 ADD SLOAD SWAP6 SWAP8 SWAP5 SWAP7 SWAP4 SWAP6 SWAP3 SWAP5 SWAP4 SWAP2 SWAP3 SWAP1 SWAP2 PUSH1 0xFF AND SWAP1 DUP10 JUMP JUMPDEST PUSH1 0x40 DUP1 MLOAD SWAP10 DUP11 MSTORE PUSH1 0x20 DUP11 ADD SWAP9 SWAP1 SWAP9 MSTORE SWAP7 DUP9 ADD SWAP6 SWAP1 SWAP6 MSTORE PUSH1 0x60 DUP8 ADD SWAP4 SWAP1 SWAP4 MSTORE PUSH1 0x80 DUP7 ADD SWAP2 SWAP1 SWAP2 MSTORE PUSH1 0xA0 DUP6 ADD MSTORE PUSH1 0xC0 DUP5 ADD MSTORE ISZERO ISZERO PUSH1 0xE0 DUP4 ADD MSTORE PUSH2 0x100 DUP3 ADD MSTORE PUSH2 0x120 ADD PUSH2 0x28C JUMP JUMPDEST CALLVALUE DUP1 ISZERO PUSH2 0x464 JUMPI PUSH0 DUP1 REVERT JUMPDEST POP PUSH2 0x478 PUSH2 0x473 CALLDATASIZE PUSH1 0x4 PUSH2 0x2ADE JUMP JUMPDEST PUSH2 0xB28 JUMP JUMPDEST PUSH1 0x40 MLOAD PUSH2 0x28C SWAP2 SWAP1 PUSH2 0x2B51 JUMP JUMPDEST CALLVALUE DUP1 ISZERO PUSH2 0x490 JUMPI PUSH0 DUP1 REVERT JUMPDEST POP PUSH2 0x499 PUSH2 0xBD1 JUMP JUMPDEST PUSH1 0x40 MLOAD PUSH2 0x28C SWAP2 SWAP1 PUSH2 0x2B66 JUMP JUMPDEST CALLVALUE DUP1 ISZERO PUSH2 0x4B1 JUMPI PUSH0 DUP1 REVERT JUMPDEST POP PUSH2 0x4C5 PUSH2 0x4C0 CALLDATASIZE PUSH1 0x4 PUSH2 0x2BA8 JUMP JUMPDEST PUSH2 0xC27 JUMP JUMPDEST PUSH1 0x40 MLOAD PUSH2 0x28C SWAP2 SWAP1 PUSH2 0x2C72 JUMP JUMPDEST CALLVALUE DUP1 ISZERO PUSH2 0x4DD JUMPI PUSH0 DUP1 REVERT JUMPDEST POP PUSH2 0x2F4 PUSH2 0x4EC CALLDATASIZE PUSH1 0x4 PUSH2 0x2ADE JUMP JUMPDEST PUSH2 0xD1E JUMP JUMPDEST CALLVALUE DUP1 ISZERO PUSH2 0x4FC JUMPI PUSH0 DUP1 REVERT JUMPDEST POP PUSH2 0x2F4 PUSH2 0x50B CALLDATASIZE PUSH1 0x4 PUSH2 0x2ABC JUMP JUMPDEST PUSH2 0xEA7 JUMP JUMPDEST CALLVALUE DUP1 ISZERO PUSH2 0x51B JUMPI PUSH0 DUP1 REVERT JUMPDEST POP PUSH2 0x2F4 PUSH2 0x52A CALLDATASIZE PUSH1 0x4 PUSH2 0x2ABC JUMP JUMPDEST PUSH2 0xF3B JUMP JUMPDEST CALLVALUE DUP1 ISZERO PUSH2 0x53A JUMPI PUSH0 DUP1 REVERT JUMPDEST POP PUSH0 SLOAD PUSH1 0x1 PUSH1 0xA0 SHL SWAP1 DIV PUSH1 0xFF AND JUMPDEST PUSH1 0x40 MLOAD SWAP1 ISZERO ISZERO DUP2 MSTORE PUSH1 0x20 ADD PUSH2 0x28C JUMP JUMPDEST CALLVALUE DUP1 ISZERO PUSH2 0x563 JUMPI PUSH0 DUP1 REVERT JUMPDEST POP PUSH2 0x56C PUSH2 0xFCC JUMP JUMPDEST PUSH1 0x40 MLOAD PUSH2 0x28C SWAP6 SWAP5 SWAP4 SWAP3 SWAP2 SWAP1 PUSH2 0x2D03 JUMP JUMPDEST CALLVALUE DUP1 ISZERO PUSH2 0x588 JUMPI PUSH0 DUP1 REVERT JUMPDEST POP PUSH2 0x2F4 PUSH2 0x597 CALLDATASIZE PUSH1 0x4 PUSH2 0x2ADE JUMP JUMPDEST PUSH2 0x11A7 JUMP JUMPDEST CALLVALUE DUP1 ISZERO PUSH2 0x5A7 JUMPI PUSH0 DUP1 REVERT JUMPDEST POP PUSH2 0x282 PUSH1 0x11 SLOAD DUP2 JUMP JUMPDEST CALLVALUE DUP1 ISZERO PUSH2 0x5BC JUMPI PUSH0 DUP1 REVERT JUMPDEST POP PUSH2 0x282 PUSH1 0xF SLOAD DUP2 JUMP JUMPDEST CALLVALUE DUP1 ISZERO PUSH2 0x5D1 JUMPI PUSH0 DUP1 REVERT JUMPDEST POP PUSH2 0x5E5 PUSH2 0x5E0 CALLDATASIZE PUSH1 0x4 PUSH2 0x2ABC JUMP JUMPDEST PUSH2 0x121C JUMP JUMPDEST PUSH1 0x40 MLOAD PUSH2 0x28C SWAP2 SWAP1 PUSH2 0x2D50 JUMP JUMPDEST CALLVALUE DUP1 ISZERO PUSH2 0x5FD JUMPI PUSH0 DUP1 REVERT JUMPDEST POP PUSH2 0x282 PUSH2 0x60C CALLDATASIZE PUSH1 0x4 PUSH2 0x2ADE JUMP JUMPDEST PUSH1 0x4 PUSH1 0x20 MSTORE PUSH0 SWAP1 DUP2 MSTORE PUSH1 0x40 SWAP1 KECCAK256 SLOAD DUP2 JUMP JUMPDEST CALLVALUE DUP1 ISZERO PUSH2 0x628 JUMPI PUSH0 DUP1 REVERT JUMPDEST POP PUSH0 SLOAD PUSH1 0x1 PUSH1 0x1 PUSH1 0xA0 SHL SUB AND PUSH2 0x393 JUMP JUMPDEST CALLVALUE DUP1 ISZERO PUSH2 0x644 JUMPI PUSH0 DUP1 REVERT JUMPDEST POP PUSH2 0x2F4 PUSH2 0x653 CALLDATASIZE PUSH1 0x4 PUSH2 0x2D62 JUMP JUMPDEST PUSH2 0x1350 JUMP JUMPDEST CALLVALUE DUP1 ISZERO PUSH2 0x663 JUMPI PUSH0 DUP1 REVERT JUMPDEST POP PUSH2 0x282 PUSH2 0x672 CALLDATASIZE PUSH1 0x4 PUSH2 0x2D62 JUMP JUMPDEST PUSH2 0x1499 JUMP JUMPDEST CALLVALUE DUP1 ISZERO PUSH2 0x682 JUMPI PUSH0 DUP1 REVERT JUMPDEST POP PUSH2 0x282 PUSH2 0x691 CALLDATASIZE PUSH1 0x4 PUSH2 0x2D62 JUMP JUMPDEST PUSH2 0x14C4 JUMP JUMPDEST CALLVALUE DUP1 ISZERO PUSH2 0x6A1 JUMPI PUSH0 DUP1 REVERT JUMPDEST POP PUSH2 0x2F4 PUSH2 0x6B0 CALLDATASIZE PUSH1 0x4 PUSH2 0x2D99 JUMP JUMPDEST PUSH2 0x14DD JUMP JUMPDEST CALLVALUE DUP1 ISZERO PUSH2 0x6C0 JUMPI PUSH0 DUP1 REVERT JUMPDEST POP PUSH1 0x3 SLOAD PUSH2 0x6D5 SWAP1 PUSH1 0x1 PUSH1 0xB0 SHL SWAP1 DIV PUSH1 0xFF AND DUP2 JUMP JUMPDEST PUSH1 0x40 MLOAD PUSH1 0xFF SWAP1 SWAP2 AND DUP2 MSTORE PUSH1 0x20 ADD PUSH2 0x28C JUMP JUMPDEST CALLVALUE DUP1 ISZERO PUSH2 0x6F2 JUMPI PUSH0 DUP1 REVERT JUMPDEST POP PUSH2 0x282 PUSH2 0x701 CALLDATASIZE PUSH1 0x4 PUSH2 0x2D62 JUMP JUMPDEST PUSH2 0x170A JUMP JUMPDEST CALLVALUE DUP1 ISZERO PUSH2 0x711 JUMPI PUSH0 DUP1 REVERT JUMPDEST POP PUSH1 0x3 SLOAD PUSH2 0x6D5 SWAP1 PUSH1 0x1 PUSH1 0xA8 SHL SWAP1 DIV PUSH1 0xFF AND DUP2 JUMP JUMPDEST CALLVALUE DUP1 ISZERO PUSH2 0x731 JUMPI PUSH0 DUP1 REVERT JUMPDEST POP PUSH1 0x2 SLOAD PUSH2 0x393 SWAP1 PUSH1 0x1 PUSH1 0x1 PUSH1 0xA0 SHL SUB AND DUP2 JUMP JUMPDEST CALLVALUE DUP1 ISZERO PUSH2 0x750 JUMPI PUSH0 DUP1 REVERT JUMPDEST POP PUSH2 0x548 PUSH2 0x75F CALLDATASIZE PUSH1 0x4 PUSH2 0x2ABC JUMP JUMPDEST PUSH1 0xD PUSH1 0x20 MSTORE PUSH0 SWAP1 DUP2 MSTORE PUSH1 0x40 SWAP1 KECCAK256 SLOAD PUSH1 0xFF AND DUP2 JUMP JUMPDEST CALLVALUE DUP1 ISZERO PUSH2 0x77E JUMPI PUSH0 DUP1 REVERT JUMPDEST POP PUSH2 0x56C PUSH2 0x1723 JUMP JUMPDEST CALLVALUE DUP1 ISZERO PUSH2 0x792 JUMPI PUSH0 DUP1 REVERT JUMPDEST POP PUSH2 0x7A6 PUSH2 0x7A1 CALLDATASIZE PUSH1 0x4 PUSH2 0x2E43 JUMP JUMPDEST PUSH2 0x18BA JUMP JUMPDEST PUSH1 0x40 DUP1 MLOAD SWAP4 DUP5 MSTORE PUSH1 0x20 DUP5 ADD SWAP3 SWAP1 SWAP3 MSTORE SWAP1 DUP3 ADD MSTORE PUSH1 0x60 ADD PUSH2 0x28C JUMP JUMPDEST CALLVALUE DUP1 ISZERO PUSH2 0x7CC JUMPI PUSH0 DUP1 REVERT JUMPDEST POP PUSH2 0x548 PUSH2 0x7DB CALLDATASIZE PUSH1 0x4 PUSH2 0x2ABC JUMP JUMPDEST PUSH1 0x10 PUSH1 0x20 MSTORE PUSH0 SWAP1 DUP2 MSTORE PUSH1 0x40 SWAP1 KECCAK256 SLOAD PUSH1 0xFF AND DUP2 JUMP JUMPDEST CALLVALUE DUP1 ISZERO PUSH2 0x7FA JUMPI PUSH0 DUP1 REVERT JUMPDEST POP PUSH2 0x2F4 PUSH2 0x809 CALLDATASIZE PUSH1 0x4 PUSH2 0x2ABC JUMP JUMPDEST PUSH2 0x222F JUMP JUMPDEST CALLVALUE DUP1 ISZERO PUSH2 0x819 JUMPI PUSH0 DUP1 REVERT JUMPDEST POP PUSH2 0x822 PUSH2 0x227A JUMP JUMPDEST PUSH1 0x40 MLOAD PUSH2 0x28C SWAP2 SWAP1 PUSH2 0x2EEF JUMP JUMPDEST CALLVALUE DUP1 ISZERO PUSH2 0x83A JUMPI PUSH0 DUP1 REVERT JUMPDEST POP PUSH2 0x2F4 PUSH2 0x849 CALLDATASIZE PUSH1 0x4 PUSH2 0x2BA8 JUMP JUMPDEST PUSH2 0x23B3 JUMP JUMPDEST CALLVALUE DUP1 ISZERO PUSH2 0x859 JUMPI PUSH0 DUP1 REVERT JUMPDEST POP PUSH1 0x6 SLOAD PUSH2 0x393 SWAP1 PUSH1 0x1 PUSH1 0x1 PUSH1 0xA0 SHL SUB AND DUP2 JUMP JUMPDEST CALLVALUE DUP1 ISZERO PUSH2 0x878 JUMPI PUSH0 DUP1 REVERT JUMPDEST POP PUSH2 0x2F4 PUSH2 0x887 CALLDATASIZE PUSH1 0x4 PUSH2 0x2ABC JUMP JUMPDEST PUSH2 0x26E0 JUMP JUMPDEST CALLVALUE DUP1 ISZERO PUSH2 0x897 JUMPI PUSH0 DUP1 REVERT JUMPDEST POP PUSH1 0x3 SLOAD PUSH2 0x548 SWAP1 PUSH1 0x1 PUSH1 0xA0 SHL SWAP1 DIV PUSH1 0xFF AND DUP2 JUMP JUMPDEST CALLVALUE DUP1 ISZERO PUSH2 0x8B7 JUMPI PUSH0 DUP1 REVERT JUMPDEST POP PUSH1 0x3 SLOAD PUSH2 0x393 SWAP1 PUSH1 0x1 PUSH1 0x1 PUSH1 0xA0 SHL SUB AND DUP2 JUMP JUMPDEST PUSH0 SLOAD PUSH1 0x1 PUSH1 0x1 PUSH1 0xA0 SHL SUB AND CALLER EQ PUSH2 0x8FD JUMPI PUSH1 0x40 MLOAD PUSH3 0x461BCD PUSH1 0xE5 SHL DUP2 MSTORE PUSH1 0x4 ADD PUSH2 0x8F4 SWAP1 PUSH2 0x2F32 JUMP JUMPDEST PUSH1 0x40 MLOAD DUP1 SWAP2 SUB SWAP1 REVERT JUMPDEST DUP1 SELFBALANCE LT ISZERO PUSH2 0x94D JUMPI PUSH1 0x40 MLOAD PUSH3 0x461BCD PUSH1 0xE5 SHL DUP2 MSTORE PUSH1 0x20 PUSH1 0x4 DUP3 ADD MSTORE PUSH1 0x1A PUSH1 0x24 DUP3 ADD MSTORE PUSH32 0x496E73756666696369656E742065746865722062616C616E6365000000000000 PUSH1 0x44 DUP3 ADD MSTORE PUSH1 0x64 ADD PUSH2 0x8F4 JUMP JUMPDEST PUSH1 0x40 MLOAD CALLER SWAP1 DUP3 ISZERO PUSH2 0x8FC MUL SWAP1 DUP4 SWAP1 PUSH0 DUP2 DUP2 DUP2 DUP6 DUP9 DUP9 CALL SWAP4 POP POP POP POP ISZERO DUP1 ISZERO PUSH2 0x977 JUMPI RETURNDATASIZE PUSH0 DUP1 RETURNDATACOPY RETURNDATASIZE PUSH0 REVERT JUMPDEST POP POP JUMP JUMPDEST PUSH1 0x13 DUP2 DUP2 SLOAD DUP2 LT PUSH2 0x98A JUMPI PUSH0 DUP1 REVERT JUMPDEST PUSH0 SWAP2 DUP3 MSTORE PUSH1 0x20 SWAP1 SWAP2 KECCAK256 ADD SLOAD SWAP1 POP DUP2 JUMP JUMPDEST PUSH0 DUP1 TIMESTAMP DUP2 JUMPDEST PUSH1 0x1 PUSH1 0x1 PUSH1 0xA0 SHL SUB DUP6 AND PUSH0 SWAP1 DUP2 MSTORE PUSH1 0x7 PUSH1 0x20 MSTORE PUSH1 0x40 SWAP1 KECCAK256 SLOAD DUP2 LT ISZERO PUSH2 0xB1F JUMPI PUSH1 0x12 SLOAD PUSH1 0x1 PUSH1 0x1 PUSH1 0xA0 SHL SUB DUP7 AND PUSH0 SWAP1 DUP2 MSTORE PUSH1 0x9 PUSH1 0x20 MSTORE PUSH1 0x40 DUP2 KECCAK256 DUP1 SLOAD SWAP2 SWAP3 SWAP2 DUP5 SWAP1 DUP2 LT PUSH2 0x9ED JUMPI PUSH2 0x9ED PUSH2 0x2F67 JUMP JUMPDEST SWAP1 PUSH0 MSTORE PUSH1 0x20 PUSH0 KECCAK256 ADD SLOAD PUSH2 0xA00 SWAP2 SWAP1 PUSH2 0x2F8F JUMP JUMPDEST PUSH1 0x1 PUSH1 0x1 PUSH1 0xA0 SHL SUB DUP8 AND PUSH0 SWAP1 DUP2 MSTORE PUSH1 0xA PUSH1 0x20 MSTORE PUSH1 0x40 SWAP1 KECCAK256 DUP1 SLOAD DUP5 SWAP1 DUP2 LT PUSH2 0xA29 JUMPI PUSH2 0xA29 PUSH2 0x2F67 JUMP JUMPDEST SWAP1 PUSH0 MSTORE PUSH1 0x20 PUSH0 KECCAK256 ADD SLOAD PUSH2 0xA3C SWAP2 SWAP1 PUSH2 0x2FA6 JUMP JUMPDEST SWAP1 POP DUP1 DUP4 GT ISZERO PUSH2 0xB16 JUMPI PUSH1 0x1 PUSH1 0x1 PUSH1 0xA0 SHL SUB DUP7 AND PUSH0 SWAP1 DUP2 MSTORE PUSH1 0x9 PUSH1 0x20 MSTORE PUSH1 0x40 DUP2 KECCAK256 DUP1 SLOAD PUSH2 0x2710 SWAP2 PUSH1 0x4 SWAP2 DUP5 SWAP2 SWAP1 DUP8 SWAP1 DUP2 LT PUSH2 0xA79 JUMPI PUSH2 0xA79 PUSH2 0x2F67 JUMP JUMPDEST SWAP1 PUSH0 MSTORE PUSH1 0x20 PUSH0 KECCAK256 ADD SLOAD DUP2 MSTORE PUSH1 0x20 ADD SWAP1 DUP2 MSTORE PUSH1 0x20 ADD PUSH0 KECCAK256 SLOAD PUSH1 0x7 PUSH0 DUP11 PUSH1 0x1 PUSH1 0x1 PUSH1 0xA0 SHL SUB AND PUSH1 0x1 PUSH1 0x1 PUSH1 0xA0 SHL SUB AND DUP2 MSTORE PUSH1 0x20 ADD SWAP1 DUP2 MSTORE PUSH1 0x20 ADD PUSH0 KECCAK256 DUP6 DUP2 SLOAD DUP2 LT PUSH2 0xAC4 JUMPI PUSH2 0xAC4 PUSH2 0x2F67 JUMP JUMPDEST SWAP1 PUSH0 MSTORE PUSH1 0x20 PUSH0 KECCAK256 ADD SLOAD PUSH2 0xAD7 SWAP2 SWAP1 PUSH2 0x2F8F JUMP JUMPDEST PUSH2 0xAE1 SWAP2 SWAP1 PUSH2 0x2FB9 JUMP JUMPDEST PUSH1 0x3 SLOAD SWAP1 SWAP2 POP PUSH2 0xAFC SWAP1 PUSH1 0x1 PUSH1 0xA8 SHL SWAP1 DIV PUSH1 0xFF AND PUSH1 0xA PUSH2 0x30BB JUMP JUMPDEST PUSH2 0xB06 SWAP1 DUP3 PUSH2 0x2FB9 JUMP JUMPDEST SWAP1 POP PUSH2 0xB12 DUP2 DUP7 PUSH2 0x2FA6 JUMP JUMPDEST SWAP5 POP POP JUMPDEST POP PUSH1 0x1 ADD PUSH2 0x99F JUMP JUMPDEST POP SWAP1 SWAP4 SWAP3 POP POP POP JUMP JUMPDEST PUSH2 0xB30 PUSH2 0x2A1F JUMP JUMPDEST PUSH2 0xB39 DUP3 PUSH2 0x27C7 JUMP JUMPDEST PUSH2 0xB55 JUMPI PUSH1 0x40 MLOAD PUSH3 0x461BCD PUSH1 0xE5 SHL DUP2 MSTORE PUSH1 0x4 ADD PUSH2 0x8F4 SWAP1 PUSH2 0x30C6 JUMP JUMPDEST POP PUSH0 SWAP1 DUP2 MSTORE PUSH1 0x5 PUSH1 0x20 DUP2 DUP2 MSTORE PUSH1 0x40 SWAP3 DUP4 SWAP1 KECCAK256 DUP4 MLOAD PUSH2 0x120 DUP2 ADD DUP6 MSTORE DUP2 SLOAD DUP2 MSTORE PUSH1 0x1 DUP3 ADD SLOAD SWAP3 DUP2 ADD SWAP3 SWAP1 SWAP3 MSTORE PUSH1 0x2 DUP2 ADD SLOAD SWAP4 DUP3 ADD SWAP4 SWAP1 SWAP4 MSTORE PUSH1 0x3 DUP4 ADD SLOAD PUSH1 0x60 DUP3 ADD MSTORE PUSH1 0x4 DUP4 ADD SLOAD PUSH1 0x80 DUP3 ADD MSTORE SWAP1 DUP3 ADD SLOAD PUSH1 0xA0 DUP3 ADD MSTORE PUSH1 0x6 DUP3 ADD SLOAD PUSH1 0xC0 DUP3 ADD MSTORE PUSH1 0x7 DUP3 ADD SLOAD PUSH1 0xFF AND ISZERO ISZERO PUSH1 0xE0 DUP3 ADD MSTORE PUSH1 0x8 SWAP1 SWAP2 ADD SLOAD PUSH2 0x100 DUP3 ADD MSTORE SWAP1 JUMP JUMPDEST PUSH1 0x60 PUSH1 0x13 DUP1 SLOAD DUP1 PUSH1 0x20 MUL PUSH1 0x20 ADD PUSH1 0x40 MLOAD SWAP1 DUP2 ADD PUSH1 0x40 MSTORE DUP1 SWAP3 SWAP2 SWAP1 DUP2 DUP2 MSTORE PUSH1 0x20 ADD DUP3 DUP1 SLOAD DUP1 ISZERO PUSH2 0xC1D JUMPI PUSH1 0x20 MUL DUP3 ADD SWAP2 SWAP1 PUSH0 MSTORE PUSH1 0x20 PUSH0 KECCAK256 SWAP1 JUMPDEST DUP2 SLOAD DUP2 MSTORE PUSH1 0x20 ADD SWAP1 PUSH1 0x1 ADD SWAP1 DUP1 DUP4 GT PUSH2 0xC09 JUMPI JUMPDEST POP POP POP POP POP SWAP1 POP SWAP1 JUMP JUMPDEST PUSH1 0x60 DUP2 PUSH0 SUB PUSH2 0xC36 JUMPI PUSH1 0xF SLOAD SWAP2 POP JUMPDEST PUSH0 PUSH2 0xC41 DUP4 DUP6 PUSH2 0x2FA6 JUMP JUMPDEST SWAP1 POP PUSH2 0xC4D DUP5 DUP3 PUSH2 0x30F5 JUMP JUMPDEST PUSH8 0xFFFFFFFFFFFFFFFF DUP2 GT ISZERO PUSH2 0xC65 JUMPI PUSH2 0xC65 PUSH2 0x2DFE JUMP JUMPDEST PUSH1 0x40 MLOAD SWAP1 DUP1 DUP3 MSTORE DUP1 PUSH1 0x20 MUL PUSH1 0x20 ADD DUP3 ADD PUSH1 0x40 MSTORE DUP1 ISZERO PUSH2 0xC9E JUMPI DUP2 PUSH1 0x20 ADD JUMPDEST PUSH2 0xC8B PUSH2 0x2A64 JUMP JUMPDEST DUP2 MSTORE PUSH1 0x20 ADD SWAP1 PUSH1 0x1 SWAP1 SUB SWAP1 DUP2 PUSH2 0xC83 JUMPI SWAP1 POP JUMPDEST POP SWAP2 POP PUSH0 JUMPDEST PUSH2 0xCAD DUP6 DUP4 PUSH2 0x30F5 JUMP JUMPDEST DUP2 LT ISZERO PUSH2 0xD16 JUMPI PUSH2 0xCF1 PUSH1 0xE PUSH0 DUP8 DUP5 PUSH1 0xF SLOAD PUSH2 0xCC9 SWAP2 SWAP1 PUSH2 0x30F5 JUMP JUMPDEST PUSH2 0xCD3 SWAP2 SWAP1 PUSH2 0x30F5 JUMP JUMPDEST DUP2 MSTORE PUSH1 0x20 DUP2 ADD SWAP2 SWAP1 SWAP2 MSTORE PUSH1 0x40 ADD PUSH0 KECCAK256 SLOAD PUSH1 0x1 PUSH1 0x1 PUSH1 0xA0 SHL SUB AND PUSH2 0x121C JUMP JUMPDEST DUP4 DUP3 DUP2 MLOAD DUP2 LT PUSH2 0xD03 JUMPI PUSH2 0xD03 PUSH2 0x2F67 JUMP JUMPDEST PUSH1 0x20 SWAP1 DUP2 MUL SWAP2 SWAP1 SWAP2 ADD ADD MSTORE PUSH1 0x1 ADD PUSH2 0xCA3 JUMP JUMPDEST POP POP SWAP3 SWAP2 POP POP JUMP JUMPDEST PUSH0 SLOAD PUSH1 0x1 PUSH1 0x1 PUSH1 0xA0 SHL SUB AND CALLER EQ PUSH2 0xD47 JUMPI PUSH1 0x40 MLOAD PUSH3 0x461BCD PUSH1 0xE5 SHL DUP2 MSTORE PUSH1 0x4 ADD PUSH2 0x8F4 SWAP1 PUSH2 0x2F32 JUMP JUMPDEST PUSH2 0xD50 DUP2 PUSH2 0x27C7 JUMP JUMPDEST PUSH2 0xD6C JUMPI PUSH1 0x40 MLOAD PUSH3 0x461BCD PUSH1 0xE5 SHL DUP2 MSTORE PUSH1 0x4 ADD PUSH2 0x8F4 SWAP1 PUSH2 0x30C6 JUMP JUMPDEST PUSH0 DUP1 DUP1 JUMPDEST PUSH1 0x13 SLOAD DUP2 LT ISZERO PUSH2 0xDB0 JUMPI DUP4 PUSH1 0x13 DUP3 DUP2 SLOAD DUP2 LT PUSH2 0xD8E JUMPI PUSH2 0xD8E PUSH2 0x2F67 JUMP JUMPDEST SWAP1 PUSH0 MSTORE PUSH1 0x20 PUSH0 KECCAK256 ADD SLOAD SUB PUSH2 0xDA8 JUMPI DUP1 SWAP3 POP PUSH1 0x1 SWAP2 POP PUSH2 0xDB0 JUMP JUMPDEST PUSH1 0x1 ADD PUSH2 0xD70 JUMP JUMPDEST POP DUP1 PUSH2 0xDCE JUMPI PUSH1 0x40 MLOAD PUSH3 0x461BCD PUSH1 0xE5 SHL DUP2 MSTORE PUSH1 0x4 ADD PUSH2 0x8F4 SWAP1 PUSH2 0x30C6 JUMP JUMPDEST PUSH0 DUP4 DUP2 MSTORE PUSH1 0x5 PUSH1 0x20 DUP2 SWAP1 MSTORE PUSH1 0x40 DUP3 KECCAK256 DUP3 DUP2 SSTORE PUSH1 0x1 DUP2 ADD DUP4 SWAP1 SSTORE PUSH1 0x2 DUP2 ADD DUP4 SWAP1 SSTORE PUSH1 0x3 DUP2 ADD DUP4 SWAP1 SSTORE PUSH1 0x4 DUP2 ADD DUP4 SWAP1 SSTORE SWAP1 DUP2 ADD DUP3 SWAP1 SSTORE PUSH1 0x6 DUP2 ADD DUP3 SWAP1 SSTORE PUSH1 0x7 DUP2 ADD DUP1 SLOAD PUSH1 0xFF NOT AND SWAP1 SSTORE PUSH1 0x8 ADD SSTORE DUP2 JUMPDEST PUSH1 0x13 SLOAD PUSH2 0xE2A SWAP1 PUSH1 0x1 SWAP1 PUSH2 0x30F5 JUMP JUMPDEST DUP2 LT ISZERO PUSH2 0xE7D JUMPI PUSH1 0x13 PUSH2 0xE3E DUP3 PUSH1 0x1 PUSH2 0x2FA6 JUMP JUMPDEST DUP2 SLOAD DUP2 LT PUSH2 0xE4E JUMPI PUSH2 0xE4E PUSH2 0x2F67 JUMP JUMPDEST SWAP1 PUSH0 MSTORE PUSH1 0x20 PUSH0 KECCAK256 ADD SLOAD PUSH1 0x13 DUP3 DUP2 SLOAD DUP2 LT PUSH2 0xE6A JUMPI PUSH2 0xE6A PUSH2 0x2F67 JUMP JUMPDEST PUSH0 SWAP2 DUP3 MSTORE PUSH1 0x20 SWAP1 SWAP2 KECCAK256 ADD SSTORE PUSH1 0x1 ADD PUSH2 0xE1B JUMP JUMPDEST POP PUSH1 0x13 DUP1 SLOAD DUP1 PUSH2 0xE8F JUMPI PUSH2 0xE8F PUSH2 0x3108 JUMP JUMPDEST PUSH1 0x1 SWAP1 SUB DUP2 DUP2 SWAP1 PUSH0 MSTORE PUSH1 0x20 PUSH0 KECCAK256 ADD PUSH0 SWAP1 SSTORE SWAP1 SSTORE POP POP POP JUMP JUMPDEST PUSH0 SLOAD PUSH1 0x1 PUSH1 0x1 PUSH1 0xA0 SHL SUB AND CALLER EQ PUSH2 0xED0 JUMPI PUSH1 0x40 MLOAD PUSH3 0x461BCD PUSH1 0xE5 SHL DUP2 MSTORE PUSH1 0x4 ADD PUSH2 0x8F4 SWAP1 PUSH2 0x2F32 JUMP JUMPDEST PUSH1 0x1 PUSH1 0x1 PUSH1 0xA0 SHL SUB DUP2 AND PUSH2 0xF18 JUMPI PUSH1 0x40 MLOAD PUSH3 0x461BCD PUSH1 0xE5 SHL DUP2 MSTORE PUSH1 0x20 PUSH1 0x4 DUP3 ADD MSTORE PUSH1 0xF PUSH1 0x24 DUP3 ADD MSTORE PUSH15 0x496E76616C69642061646472657373 PUSH1 0x88 SHL PUSH1 0x44 DUP3 ADD MSTORE PUSH1 0x64 ADD PUSH2 0x8F4 JUMP JUMPDEST PUSH1 0x1 PUSH1 0x1 PUSH1 0xA0 SHL SUB AND PUSH0 SWAP1 DUP2 MSTORE PUSH1 0x10 PUSH1 0x20 MSTORE PUSH1 0x40 SWAP1 KECCAK256 DUP1 SLOAD PUSH1 0xFF NOT AND PUSH1 0x1 OR SWAP1 SSTORE JUMP JUMPDEST PUSH0 SLOAD PUSH1 0x1 PUSH1 0x1 PUSH1 0xA0 SHL SUB AND CALLER EQ PUSH2 0xF64 JUMPI PUSH1 0x40 MLOAD PUSH3 0x461BCD PUSH1 0xE5 SHL DUP2 MSTORE PUSH1 0x4 ADD PUSH2 0x8F4 SWAP1 PUSH2 0x2F32 JUMP JUMPDEST PUSH1 0x1 PUSH1 0x1 PUSH1 0xA0 SHL SUB DUP2 AND PUSH2 0xFAC JUMPI PUSH1 0x40 MLOAD PUSH3 0x461BCD PUSH1 0xE5 SHL DUP2 MSTORE PUSH1 0x20 PUSH1 0x4 DUP3 ADD MSTORE PUSH1 0xF PUSH1 0x24 DUP3 ADD MSTORE PUSH15 0x496E76616C69642061646472657373 PUSH1 0x88 SHL PUSH1 0x44 DUP3 ADD MSTORE PUSH1 0x64 ADD PUSH2 0x8F4 JUMP JUMPDEST PUSH1 0x1 PUSH1 0x1 PUSH1 0xA0 SHL SUB AND PUSH0 SWAP1 DUP2 MSTORE PUSH1 0x10 PUSH1 0x20 MSTORE PUSH1 0x40 SWAP1 KECCAK256 DUP1 SLOAD PUSH1 0xFF NOT AND SWAP1 SSTORE JUMP JUMPDEST PUSH1 0x3 SLOAD PUSH1 0x40 DUP1 MLOAD PUSH4 0x6FDDE03 PUSH1 0xE0 SHL DUP2 MSTORE SWAP1 MLOAD PUSH1 0x1 PUSH1 0x1 PUSH1 0xA0 SHL SUB SWAP1 SWAP3 AND SWAP2 PUSH1 0x60 SWAP2 DUP3 SWAP2 PUSH0 SWAP2 DUP3 SWAP2 DUP7 SWAP2 PUSH4 0x6FDDE03 SWAP2 PUSH1 0x4 DUP1 DUP4 ADD SWAP3 DUP7 SWAP3 SWAP2 SWAP1 DUP3 SWAP1 SUB ADD DUP2 DUP7 GAS STATICCALL ISZERO DUP1 ISZERO PUSH2 0x101D JUMPI RETURNDATASIZE PUSH0 DUP1 RETURNDATACOPY RETURNDATASIZE PUSH0 REVERT JUMPDEST POP POP POP POP PUSH1 0x40 MLOAD RETURNDATASIZE PUSH0 DUP3 RETURNDATACOPY PUSH1 0x1F RETURNDATASIZE SWAP1 DUP2 ADD PUSH1 0x1F NOT AND DUP3 ADD PUSH1 0x40 MSTORE PUSH2 0x1044 SWAP2 SWAP1 DUP2 ADD SWAP1 PUSH2 0x311C JUMP JUMPDEST SWAP4 POP PUSH1 0x3 PUSH0 SWAP1 SLOAD SWAP1 PUSH2 0x100 EXP SWAP1 DIV PUSH1 0x1 PUSH1 0x1 PUSH1 0xA0 SHL SUB AND PUSH1 0x1 PUSH1 0x1 PUSH1 0xA0 SHL SUB AND PUSH4 0x95D89B41 PUSH1 0x40 MLOAD DUP2 PUSH4 0xFFFFFFFF AND PUSH1 0xE0 SHL DUP2 MSTORE PUSH1 0x4 ADD PUSH0 PUSH1 0x40 MLOAD DUP1 DUP4 SUB DUP2 DUP7 GAS STATICCALL ISZERO DUP1 ISZERO PUSH2 0x1095 JUMPI RETURNDATASIZE PUSH0 DUP1 RETURNDATACOPY RETURNDATASIZE PUSH0 REVERT JUMPDEST POP POP POP POP PUSH1 0x40 MLOAD RETURNDATASIZE PUSH0 DUP3 RETURNDATACOPY PUSH1 0x1F RETURNDATASIZE SWAP1 DUP2 ADD PUSH1 0x1F NOT AND DUP3 ADD PUSH1 0x40 MSTORE PUSH2 0x10BC SWAP2 SWAP1 DUP2 ADD SWAP1 PUSH2 0x311C JUMP JUMPDEST SWAP3 POP PUSH1 0x3 PUSH0 SWAP1 SLOAD SWAP1 PUSH2 0x100 EXP SWAP1 DIV PUSH1 0x1 PUSH1 0x1 PUSH1 0xA0 SHL SUB AND PUSH1 0x1 PUSH1 0x1 PUSH1 0xA0 SHL SUB AND PUSH4 0x313CE567 PUSH1 0x40 MLOAD DUP2 PUSH4 0xFFFFFFFF AND PUSH1 0xE0 SHL DUP2 MSTORE PUSH1 0x4 ADD PUSH1 0x20 PUSH1 0x40 MLOAD DUP1 DUP4 SUB DUP2 DUP7 GAS STATICCALL ISZERO DUP1 ISZERO PUSH2 0x110E JUMPI RETURNDATASIZE PUSH0 DUP1 RETURNDATACOPY RETURNDATASIZE PUSH0 REVERT JUMPDEST POP POP POP POP PUSH1 0x40 MLOAD RETURNDATASIZE PUSH1 0x1F NOT PUSH1 0x1F DUP3 ADD AND DUP3 ADD DUP1 PUSH1 0x40 MSTORE POP DUP2 ADD SWAP1 PUSH2 0x1132 SWAP2 SWAP1 PUSH2 0x31B0 JUMP JUMPDEST PUSH1 0x3 SLOAD PUSH1 0x40 MLOAD PUSH4 0x70A08231 PUSH1 0xE0 SHL DUP2 MSTORE ADDRESS PUSH1 0x4 DUP3 ADD MSTORE SWAP2 SWAP4 POP PUSH1 0x1 PUSH1 0x1 PUSH1 0xA0 SHL SUB AND SWAP1 PUSH4 0x70A08231 SWAP1 PUSH1 0x24 ADD JUMPDEST PUSH1 0x20 PUSH1 0x40 MLOAD DUP1 DUP4 SUB DUP2 DUP7 GAS STATICCALL ISZERO DUP1 ISZERO PUSH2 0x117A JUMPI RETURNDATASIZE PUSH0 DUP1 RETURNDATACOPY RETURNDATASIZE PUSH0 REVERT JUMPDEST POP POP POP POP PUSH1 0x40 MLOAD RETURNDATASIZE PUSH1 0x1F NOT PUSH1 0x1F DUP3 ADD AND DUP3 ADD DUP1 PUSH1 0x40 MSTORE POP DUP2 ADD SWAP1 PUSH2 0x119E SWAP2 SWAP1 PUSH2 0x31D0 JUMP JUMPDEST SWAP1 POP SWAP1 SWAP2 SWAP3 SWAP4 SWAP5 JUMP JUMPDEST PUSH0 SLOAD PUSH1 0x1 PUSH1 0x1 PUSH1 0xA0 SHL SUB AND CALLER EQ PUSH2 0x11D0 JUMPI PUSH1 0x40 MLOAD PUSH3 0x461BCD PUSH1 0xE5 SHL DUP2 MSTORE PUSH1 0x4 ADD PUSH2 0x8F4 SWAP1 PUSH2 0x2F32 JUMP JUMPDEST PUSH2 0x2710 DUP2 GT ISZERO PUSH2 0x1217 JUMPI PUSH1 0x40 MLOAD PUSH3 0x461BCD PUSH1 0xE5 SHL DUP2 MSTORE PUSH1 0x20 PUSH1 0x4 DUP3 ADD MSTORE PUSH1 0x12 PUSH1 0x24 DUP3 ADD MSTORE PUSH18 0x496E76616C69642070657263656E74616765 PUSH1 0x70 SHL PUSH1 0x44 DUP3 ADD MSTORE PUSH1 0x64 ADD PUSH2 0x8F4 JUMP JUMPDEST PUSH1 0x11 SSTORE JUMP JUMPDEST PUSH2 0x1224 PUSH2 0x2A64 JUMP JUMPDEST PUSH1 0x40 DUP1 MLOAD PUSH1 0xE0 DUP2 ADD DUP3 MSTORE PUSH1 0x1 PUSH1 0x1 PUSH1 0xA0 SHL SUB DUP5 AND DUP1 DUP3 MSTORE PUSH0 DUP2 DUP2 MSTORE PUSH1 0x8 PUSH1 0x20 SWAP1 DUP2 MSTORE DUP5 DUP3 KECCAK256 SLOAD DUP2 DUP6 ADD MSTORE DUP3 DUP3 MSTORE PUSH1 0xC DUP2 MSTORE DUP5 DUP3 KECCAK256 SLOAD DUP5 DUP7 ADD MSTORE SWAP2 DUP2 MSTORE PUSH1 0x9 DUP3 MSTORE DUP4 SWAP1 KECCAK256 DUP1 SLOAD DUP5 MLOAD DUP2 DUP5 MUL DUP2 ADD DUP5 ADD SWAP1 SWAP6 MSTORE DUP1 DUP6 MSTORE SWAP3 SWAP4 PUSH1 0x60 DUP6 ADD SWAP4 SWAP1 SWAP3 DUP4 ADD DUP3 DUP3 DUP1 ISZERO PUSH2 0x12AE JUMPI PUSH1 0x20 MUL DUP3 ADD SWAP2 SWAP1 PUSH0 MSTORE PUSH1 0x20 PUSH0 KECCAK256 SWAP1 JUMPDEST DUP2 SLOAD DUP2 MSTORE PUSH1 0x20 ADD SWAP1 PUSH1 0x1 ADD SWAP1 DUP1 DUP4 GT PUSH2 0x129A JUMPI JUMPDEST POP POP POP SWAP2 DUP4 MSTORE POP POP PUSH1 0x1 PUSH1 0x1 PUSH1 0xA0 SHL SUB DUP5 AND PUSH0 SWAP1 DUP2 MSTORE PUSH1 0xB PUSH1 0x20 SWAP1 DUP2 MSTORE PUSH1 0x40 SWAP2 DUP3 SWAP1 KECCAK256 SLOAD SWAP1 DUP4 ADD MSTORE ADD PUSH2 0x12E0 DUP5 PUSH2 0x99A JUMP JUMPDEST DUP2 MSTORE PUSH1 0x1 PUSH1 0x1 PUSH1 0xA0 SHL SUB DUP5 AND PUSH0 SWAP1 DUP2 MSTORE PUSH1 0xA PUSH1 0x20 SWAP1 DUP2 MSTORE PUSH1 0x40 SWAP2 DUP3 SWAP1 KECCAK256 DUP1 SLOAD DUP4 MLOAD DUP2 DUP5 MUL DUP2 ADD DUP5 ADD SWAP1 SWAP5 MSTORE DUP1 DUP5 MSTORE SWAP4 DUP3 ADD SWAP4 SWAP1 SWAP2 DUP4 ADD DUP3 DUP3 DUP1 ISZERO PUSH2 0x1341 JUMPI PUSH1 0x20 MUL DUP3 ADD SWAP2 SWAP1 PUSH0 MSTORE PUSH1 0x20 PUSH0 KECCAK256 SWAP1 JUMPDEST DUP2 SLOAD DUP2 MSTORE PUSH1 0x20 ADD SWAP1 PUSH1 0x1 ADD SWAP1 DUP1 DUP4 GT PUSH2 0x132D JUMPI JUMPDEST POP POP POP POP POP DUP2 MSTORE POP SWAP1 POP SWAP2 SWAP1 POP JUMP JUMPDEST PUSH0 SLOAD PUSH1 0x1 PUSH1 0x1 PUSH1 0xA0 SHL SUB AND CALLER EQ PUSH2 0x1379 JUMPI PUSH1 0x40 MLOAD PUSH3 0x461BCD PUSH1 0xE5 SHL DUP2 MSTORE PUSH1 0x4 ADD PUSH2 0x8F4 SWAP1 PUSH2 0x2F32 JUMP JUMPDEST PUSH1 0x40 MLOAD PUSH4 0x70A08231 PUSH1 0xE0 SHL DUP2 MSTORE ADDRESS PUSH1 0x4 DUP3 ADD MSTORE DUP2 SWAP1 PUSH1 0x1 PUSH1 0x1 PUSH1 0xA0 SHL SUB DUP5 AND SWAP1 PUSH4 0x70A08231 SWAP1 PUSH1 0x24 ADD PUSH1 0x20 PUSH1 0x40 MLOAD DUP1 DUP4 SUB DUP2 DUP7 GAS STATICCALL ISZERO DUP1 ISZERO PUSH2 0x13BD JUMPI RETURNDATASIZE PUSH0 DUP1 RETURNDATACOPY RETURNDATASIZE PUSH0 REVERT JUMPDEST POP POP POP POP PUSH1 0x40 MLOAD RETURNDATASIZE PUSH1 0x1F NOT PUSH1 0x1F DUP3 ADD AND DUP3 ADD DUP1 PUSH1 0x40 MSTORE POP DUP2 ADD SWAP1 PUSH2 0x13E1 SWAP2 SWAP1 PUSH2 0x31D0 JUMP JUMPDEST LT ISZERO PUSH2 0x1426 JUMPI PUSH1 0x40 MLOAD PUSH3 0x461BCD PUSH1 0xE5 SHL DUP2 MSTORE PUSH1 0x20 PUSH1 0x4 DUP3 ADD MSTORE PUSH1 0x14 PUSH1 0x24 DUP3 ADD MSTORE PUSH20 0x496E73756666696369656E742062616C616E6365 PUSH1 0x60 SHL PUSH1 0x44 DUP3 ADD MSTORE PUSH1 0x64 ADD PUSH2 0x8F4 JUMP JUMPDEST PUSH1 0x40 MLOAD PUSH4 0xA9059CBB PUSH1 0xE0 SHL DUP2 MSTORE CALLER PUSH1 0x4 DUP3 ADD MSTORE PUSH1 0x24 DUP2 ADD DUP3 SWAP1 MSTORE PUSH1 0x1 PUSH1 0x1 PUSH1 0xA0 SHL SUB DUP4 AND SWAP1 PUSH4 0xA9059CBB SWAP1 PUSH1 0x44 ADD PUSH1 0x20 PUSH1 0x40 MLOAD DUP1 DUP4 SUB DUP2 PUSH0 DUP8 GAS CALL ISZERO DUP1 ISZERO PUSH2 0x1470 JUMPI RETURNDATASIZE PUSH0 DUP1 RETURNDATACOPY RETURNDATASIZE PUSH0 REVERT JUMPDEST POP POP POP POP PUSH1 0x40 MLOAD RETURNDATASIZE PUSH1 0x1F NOT PUSH1 0x1F DUP3 ADD AND DUP3 ADD DUP1 PUSH1 0x40 MSTORE POP DUP2 ADD SWAP1 PUSH2 0x1494 SWAP2 SWAP1 PUSH2 0x31E7 JUMP JUMPDEST POP POP POP JUMP JUMPDEST PUSH1 0x7 PUSH1 0x20 MSTORE DUP2 PUSH0 MSTORE PUSH1 0x40 PUSH0 KECCAK256 DUP2 DUP2 SLOAD DUP2 LT PUSH2 0x14B2 JUMPI PUSH0 DUP1 REVERT JUMPDEST SWAP1 PUSH0 MSTORE PUSH1 0x20 PUSH0 KECCAK256 ADD PUSH0 SWAP2 POP SWAP2 POP POP SLOAD DUP2 JUMP JUMPDEST PUSH1 0x9 PUSH1 0x20 MSTORE DUP2 PUSH0 MSTORE PUSH1 0x40 PUSH0 KECCAK256 DUP2 DUP2 SLOAD DUP2 LT PUSH2 0x14B2 JUMPI PUSH0 DUP1 REVERT JUMPDEST PUSH0 SLOAD PUSH1 0x1 PUSH1 0x1 PUSH1 0xA0 SHL SUB AND CALLER EQ PUSH2 0x1506 JUMPI PUSH1 0x40 MLOAD PUSH3 0x461BCD PUSH1 0xE5 SHL DUP2 MSTORE PUSH1 0x4 ADD PUSH2 0x8F4 SWAP1 PUSH2 0x2F32 JUMP JUMPDEST PUSH2 0x2710 DUP7 GT ISZERO PUSH2 0x154D JUMPI PUSH1 0x40 MLOAD PUSH3 0x461BCD PUSH1 0xE5 SHL DUP2 MSTORE PUSH1 0x20 PUSH1 0x4 DUP3 ADD MSTORE PUSH1 0x12 PUSH1 0x24 DUP3 ADD MSTORE PUSH18 0x496E76616C69642070657263656E74616765 PUSH1 0x70 SHL PUSH1 0x44 DUP3 ADD MSTORE PUSH1 0x64 ADD PUSH2 0x8F4 JUMP JUMPDEST DUP4 DUP6 LT ISZERO PUSH2 0x15B8 JUMPI PUSH1 0x40 MLOAD PUSH3 0x461BCD PUSH1 0xE5 SHL DUP2 MSTORE PUSH1 0x20 PUSH1 0x4 DUP3 ADD MSTORE PUSH1 0x32 PUSH1 0x24 DUP3 ADD MSTORE PUSH32 0x4D61782072617465206D7573742062652067726561746572207468616E206F72 PUSH1 0x44 DUP3 ADD MSTORE PUSH18 0x20657175616C20746F206D696E2072617465 PUSH1 0x70 SHL PUSH1 0x64 DUP3 ADD MSTORE PUSH1 0x84 ADD PUSH2 0x8F4 JUMP JUMPDEST PUSH0 DUP3 GT PUSH2 0x1607 JUMPI PUSH1 0x40 MLOAD PUSH3 0x461BCD PUSH1 0xE5 SHL DUP2 MSTORE PUSH1 0x20 PUSH1 0x4 DUP3 ADD DUP2 SWAP1 MSTORE PUSH1 0x24 DUP3 ADD MSTORE PUSH32 0x537465702073697A65206D7573742062652067726561746572207468616E2030 PUSH1 0x44 DUP3 ADD MSTORE PUSH1 0x64 ADD PUSH2 0x8F4 JUMP JUMPDEST PUSH0 DUP9 DUP2 MSTORE PUSH1 0x4 PUSH1 0x20 MSTORE PUSH1 0x40 SWAP1 KECCAK256 DUP7 SWAP1 SSTORE PUSH2 0x1620 DUP9 PUSH2 0x27C7 JUMP JUMPDEST PUSH2 0x1659 JUMPI PUSH1 0x13 DUP1 SLOAD PUSH1 0x1 DUP2 ADD DUP3 SSTORE PUSH0 SWAP2 SWAP1 SWAP2 MSTORE PUSH32 0x66DE8FFDA797E3DE9C05E8FC57B3BF0EC28A930D40B0D285D93C06501CF6A090 ADD DUP9 SWAP1 SSTORE JUMPDEST PUSH1 0x40 DUP1 MLOAD PUSH2 0x120 DUP2 ADD DUP3 MSTORE DUP10 DUP2 MSTORE PUSH1 0x20 DUP1 DUP3 ADD SWAP10 DUP11 MSTORE DUP2 DUP4 ADD SWAP9 DUP10 MSTORE PUSH1 0x60 DUP3 ADD SWAP8 DUP9 MSTORE PUSH1 0x80 DUP3 ADD SWAP7 DUP8 MSTORE PUSH1 0xA0 DUP3 ADD SWAP6 DUP7 MSTORE PUSH1 0xC0 DUP3 ADD SWAP5 DUP6 MSTORE SWAP3 ISZERO ISZERO PUSH1 0xE0 DUP3 ADD SWAP1 DUP2 MSTORE PUSH0 DUP12 DUP2 MSTORE PUSH1 0x5 DUP1 DUP7 MSTORE SWAP4 DUP2 KECCAK256 PUSH1 0x8 DUP2 ADD DUP1 SLOAD PUSH2 0x100 DUP7 ADD SWAP1 DUP2 MSTORE SWAP14 SWAP1 SWAP3 MSTORE SWAP5 DUP5 SWAP1 MSTORE SWAP2 MLOAD DUP5 SSTORE SWAP9 MLOAD PUSH1 0x1 DUP5 ADD SSTORE SWAP7 MLOAD PUSH1 0x2 DUP4 ADD SSTORE SWAP5 MLOAD PUSH1 0x3 DUP3 ADD SSTORE SWAP3 MLOAD PUSH1 0x4 DUP5 ADD SSTORE SWAP1 MLOAD SWAP3 DUP3 ADD SWAP3 SWAP1 SWAP3 SSTORE SWAP1 MLOAD PUSH1 0x6 DUP3 ADD SSTORE SWAP2 MLOAD PUSH1 0x7 SWAP1 SWAP3 ADD DUP1 SLOAD PUSH1 0xFF NOT AND SWAP3 ISZERO ISZERO SWAP3 SWAP1 SWAP3 OR SWAP1 SWAP2 SSTORE SWAP1 MLOAD SWAP1 SSTORE JUMP JUMPDEST PUSH1 0xA PUSH1 0x20 MSTORE DUP2 PUSH0 MSTORE PUSH1 0x40 PUSH0 KECCAK256 DUP2 DUP2 SLOAD DUP2 LT PUSH2 0x14B2 JUMPI PUSH0 DUP1 REVERT JUMPDEST PUSH1 0x2 SLOAD PUSH1 0x40 DUP1 MLOAD PUSH4 0x6FDDE03 PUSH1 0xE0 SHL DUP2 MSTORE SWAP1 MLOAD PUSH1 0x1 PUSH1 0x1 PUSH1 0xA0 SHL SUB SWAP1 SWAP3 AND SWAP2 PUSH1 0x60 SWAP2 DUP3 SWAP2 PUSH0 SWAP2 DUP3 SWAP2 DUP7 SWAP2 PUSH4 0x6FDDE03 SWAP2 PUSH1 0x4 DUP1 DUP4 ADD SWAP3 DUP7 SWAP3 SWAP2 SWAP1 DUP3 SWAP1 SUB ADD DUP2 DUP7 GAS STATICCALL ISZERO DUP1 ISZERO PUSH2 0x1774 JUMPI RETURNDATASIZE PUSH0 DUP1 RETURNDATACOPY RETURNDATASIZE PUSH0 REVERT JUMPDEST POP POP POP POP PUSH1 0x40 MLOAD RETURNDATASIZE PUSH0 DUP3 RETURNDATACOPY PUSH1 0x1F RETURNDATASIZE SWAP1 DUP2 ADD PUSH1 0x1F NOT AND DUP3 ADD PUSH1 0x40 MSTORE PUSH2 0x179B SWAP2 SWAP1 DUP2 ADD SWAP1 PUSH2 0x311C JUMP JUMPDEST SWAP4 POP PUSH1 0x2 PUSH0 SWAP1 SLOAD SWAP1 PUSH2 0x100 EXP SWAP1 DIV PUSH1 0x1 PUSH1 0x1 PUSH1 0xA0 SHL SUB AND PUSH1 0x1 PUSH1 0x1 PUSH1 0xA0 SHL SUB AND PUSH4 0x95D89B41 PUSH1 0x40 MLOAD DUP2 PUSH4 0xFFFFFFFF AND PUSH1 0xE0 SHL DUP2 MSTORE PUSH1 0x4 ADD PUSH0 PUSH1 0x40 MLOAD DUP1 DUP4 SUB DUP2 DUP7 GAS STATICCALL ISZERO DUP1 ISZERO PUSH2 0x17EC JUMPI RETURNDATASIZE PUSH0 DUP1 RETURNDATACOPY RETURNDATASIZE PUSH0 REVERT JUMPDEST POP POP POP POP PUSH1 0x40 MLOAD RETURNDATASIZE PUSH0 DUP3 RETURNDATACOPY PUSH1 0x1F RETURNDATASIZE SWAP1 DUP2 ADD PUSH1 0x1F NOT AND DUP3 ADD PUSH1 0x40 MSTORE PUSH2 0x1813 SWAP2 SWAP1 DUP2 ADD SWAP1 PUSH2 0x311C JUMP JUMPDEST SWAP3 POP PUSH1 0x2 PUSH0 SWAP1 SLOAD SWAP1 PUSH2 0x100 EXP SWAP1 DIV PUSH1 0x1 PUSH1 0x1 PUSH1 0xA0 SHL SUB AND PUSH1 0x1 PUSH1 0x1 PUSH1 0xA0 SHL SUB AND PUSH4 0x313CE567 PUSH1 0x40 MLOAD DUP2 PUSH4 0xFFFFFFFF AND PUSH1 0xE0 SHL DUP2 MSTORE PUSH1 0x4 ADD PUSH1 0x20 PUSH1 0x40 MLOAD DUP1 DUP4 SUB DUP2 DUP7 GAS STATICCALL ISZERO DUP1 ISZERO PUSH2 0x1865 JUMPI RETURNDATASIZE PUSH0 DUP1 RETURNDATACOPY RETURNDATASIZE PUSH0 REVERT JUMPDEST POP POP POP POP PUSH1 0x40 MLOAD RETURNDATASIZE PUSH1 0x1F NOT PUSH1 0x1F DUP3 ADD AND DUP3 ADD DUP1 PUSH1 0x40 MSTORE POP DUP2 ADD SWAP1 PUSH2 0x1889 SWAP2 SWAP1 PUSH2 0x31B0 JUMP JUMPDEST PUSH1 0x2 SLOAD PUSH1 0x40 MLOAD PUSH4 0x70A08231 PUSH1 0xE0 SHL DUP2 MSTORE ADDRESS PUSH1 0x4 DUP3 ADD MSTORE SWAP2 SWAP4 POP PUSH1 0x1 PUSH1 0x1 PUSH1 0xA0 SHL SUB AND SWAP1 PUSH4 0x70A08231 SWAP1 PUSH1 0x24 ADD PUSH2 0x115F JUMP JUMPDEST PUSH0 DUP1 PUSH0 PUSH2 0x18D0 PUSH0 SLOAD PUSH1 0xFF PUSH1 0x1 PUSH1 0xA0 SHL SWAP1 SWAP2 DIV AND SWAP1 JUMP JUMPDEST ISZERO PUSH2 0x1910 JUMPI PUSH1 0x40 MLOAD PUSH3 0x461BCD PUSH1 0xE5 SHL DUP2 MSTORE PUSH1 0x20 PUSH1 0x4 DUP3 ADD MSTORE PUSH1 0x10 PUSH1 0x24 DUP3 ADD MSTORE PUSH16 0x14185D5CD8589B194E881C185D5CD959 PUSH1 0x82 SHL PUSH1 0x44 DUP3 ADD MSTORE PUSH1 0x64 ADD PUSH2 0x8F4 JUMP JUMPDEST PUSH2 0x1918 PUSH2 0x280F JUMP JUMPDEST CALLER PUSH0 SWAP1 DUP2 MSTORE PUSH1 0x10 PUSH1 0x20 MSTORE PUSH1 0x40 SWAP1 KECCAK256 SLOAD PUSH1 0xFF AND ISZERO PUSH2 0x196A JUMPI PUSH1 0x40 MLOAD PUSH3 0x461BCD PUSH1 0xE5 SHL DUP2 MSTORE PUSH1 0x20 PUSH1 0x4 DUP3 ADD MSTORE PUSH1 0x10 PUSH1 0x24 DUP3 ADD MSTORE PUSH16 0x4163636F756E74206973207370616D21 PUSH1 0x80 SHL PUSH1 0x44 DUP3 ADD MSTORE PUSH1 0x64 ADD PUSH2 0x8F4 JUMP JUMPDEST CALLER PUSH0 SWAP1 DUP2 MSTORE PUSH1 0x8 PUSH1 0x20 MSTORE PUSH1 0x40 DUP2 KECCAK256 SLOAD DUP2 SWAP1 DUP2 SWAP1 TIMESTAMP DUP3 JUMPDEST DUP10 MLOAD DUP2 LT ISZERO PUSH2 0x1DB8 JUMPI CALLER PUSH0 SWAP1 DUP2 MSTORE PUSH1 0x7 PUSH1 0x20 MSTORE PUSH1 0x40 DUP2 KECCAK256 DUP12 MLOAD DUP13 SWAP1 DUP5 SWAP1 DUP2 LT PUSH2 0x19AB JUMPI PUSH2 0x19AB PUSH2 0x2F67 JUMP JUMPDEST PUSH1 0x20 MUL PUSH1 0x20 ADD ADD MLOAD DUP2 SLOAD DUP2 LT PUSH2 0x19C3 JUMPI PUSH2 0x19C3 PUSH2 0x2F67 JUMP JUMPDEST SWAP1 PUSH0 MSTORE PUSH1 0x20 PUSH0 KECCAK256 ADD SLOAD GT ISZERO PUSH2 0x1DB0 JUMPI PUSH1 0x12 SLOAD CALLER PUSH0 SWAP1 DUP2 MSTORE PUSH1 0x9 PUSH1 0x20 MSTORE PUSH1 0x40 DUP2 KECCAK256 DUP13 MLOAD SWAP2 SWAP3 SWAP2 DUP14 SWAP1 DUP6 SWAP1 DUP2 LT PUSH2 0x19FA JUMPI PUSH2 0x19FA PUSH2 0x2F67 JUMP JUMPDEST PUSH1 0x20 MUL PUSH1 0x20 ADD ADD MLOAD DUP2 SLOAD DUP2 LT PUSH2 0x1A12 JUMPI PUSH2 0x1A12 PUSH2 0x2F67 JUMP JUMPDEST SWAP1 PUSH0 MSTORE PUSH1 0x20 PUSH0 KECCAK256 ADD SLOAD PUSH2 0x1A25 SWAP2 SWAP1 PUSH2 0x2F8F JUMP JUMPDEST CALLER PUSH0 SWAP1 DUP2 MSTORE PUSH1 0xA PUSH1 0x20 MSTORE PUSH1 0x40 SWAP1 KECCAK256 DUP13 MLOAD DUP14 SWAP1 DUP6 SWAP1 DUP2 LT PUSH2 0x1A47 JUMPI PUSH2 0x1A47 PUSH2 0x2F67 JUMP JUMPDEST PUSH1 0x20 MUL PUSH1 0x20 ADD ADD MLOAD DUP2 SLOAD DUP2 LT PUSH2 0x1A5F JUMPI PUSH2 0x1A5F PUSH2 0x2F67 JUMP JUMPDEST SWAP1 PUSH0 MSTORE PUSH1 0x20 PUSH0 KECCAK256 ADD SLOAD PUSH2 0x1A72 SWAP2 SWAP1 PUSH2 0x2FA6 JUMP JUMPDEST SWAP1 POP DUP1 DUP4 GT ISZERO PUSH2 0x1BDC JUMPI PUSH0 PUSH2 0x2710 PUSH1 0x4 PUSH0 PUSH1 0x9 PUSH0 CALLER PUSH1 0x1 PUSH1 0x1 PUSH1 0xA0 SHL SUB AND PUSH1 0x1 PUSH1 0x1 PUSH1 0xA0 SHL SUB AND DUP2 MSTORE PUSH1 0x20 ADD SWAP1 DUP2 MSTORE PUSH1 0x20 ADD PUSH0 KECCAK256 DUP16 DUP8 DUP2 MLOAD DUP2 LT PUSH2 0x1AB8 JUMPI PUSH2 0x1AB8 PUSH2 0x2F67 JUMP JUMPDEST PUSH1 0x20 MUL PUSH1 0x20 ADD ADD MLOAD DUP2 SLOAD DUP2 LT PUSH2 0x1AD0 JUMPI PUSH2 0x1AD0 PUSH2 0x2F67 JUMP JUMPDEST SWAP1 PUSH0 MSTORE PUSH1 0x20 PUSH0 KECCAK256 ADD SLOAD DUP2 MSTORE PUSH1 0x20 ADD SWAP1 DUP2 MSTORE PUSH1 0x20 ADD PUSH0 KECCAK256 SLOAD PUSH1 0x7 PUSH0 CALLER PUSH1 0x1 PUSH1 0x1 PUSH1 0xA0 SHL SUB AND PUSH1 0x1 PUSH1 0x1 PUSH1 0xA0 SHL SUB AND DUP2 MSTORE PUSH1 0x20 ADD SWAP1 DUP2 MSTORE PUSH1 0x20 ADD PUSH0 KECCAK256 DUP15 DUP7 DUP2 MLOAD DUP2 LT PUSH2 0x1B1C JUMPI PUSH2 0x1B1C PUSH2 0x2F67 JUMP JUMPDEST PUSH1 0x20 MUL PUSH1 0x20 ADD ADD MLOAD DUP2 SLOAD DUP2 LT PUSH2 0x1B34 JUMPI PUSH2 0x1B34 PUSH2 0x2F67 JUMP JUMPDEST SWAP1 PUSH0 MSTORE PUSH1 0x20 PUSH0 KECCAK256 ADD SLOAD PUSH2 0x1B47 SWAP2 SWAP1 PUSH2 0x2F8F JUMP JUMPDEST PUSH2 0x1B51 SWAP2 SWAP1 PUSH2 0x2FB9 JUMP JUMPDEST PUSH1 0x3 SLOAD SWAP1 SWAP2 POP PUSH2 0x1B6C SWAP1 PUSH1 0x1 PUSH1 0xA8 SHL SWAP1 DIV PUSH1 0xFF AND PUSH1 0xA PUSH2 0x30BB JUMP JUMPDEST PUSH2 0x1B76 SWAP1 DUP3 PUSH2 0x2FB9 JUMP JUMPDEST SWAP1 POP PUSH2 0x1B82 DUP2 DUP9 PUSH2 0x2FA6 JUMP JUMPDEST CALLER PUSH0 SWAP1 DUP2 MSTORE PUSH1 0x7 PUSH1 0x20 MSTORE PUSH1 0x40 SWAP1 KECCAK256 DUP14 MLOAD SWAP2 SWAP9 POP SWAP1 DUP14 SWAP1 DUP6 SWAP1 DUP2 LT PUSH2 0x1BA8 JUMPI PUSH2 0x1BA8 PUSH2 0x2F67 JUMP JUMPDEST PUSH1 0x20 MUL PUSH1 0x20 ADD ADD MLOAD DUP2 SLOAD DUP2 LT PUSH2 0x1BC0 JUMPI PUSH2 0x1BC0 PUSH2 0x2F67 JUMP JUMPDEST SWAP1 PUSH0 MSTORE PUSH1 0x20 PUSH0 KECCAK256 ADD SLOAD DUP9 PUSH2 0x1BD4 SWAP2 SWAP1 PUSH2 0x2FA6 JUMP JUMPDEST SWAP8 POP POP PUSH2 0x1CDB JUMP JUMPDEST PUSH1 0x11 SLOAD PUSH0 SWAP1 ISZERO PUSH2 0x1C6E JUMPI PUSH1 0x11 SLOAD CALLER PUSH0 SWAP1 DUP2 MSTORE PUSH1 0x7 PUSH1 0x20 MSTORE PUSH1 0x40 SWAP1 KECCAK256 DUP14 MLOAD PUSH2 0x2710 SWAP3 SWAP2 SWAP1 DUP16 SWAP1 DUP8 SWAP1 DUP2 LT PUSH2 0x1C11 JUMPI PUSH2 0x1C11 PUSH2 0x2F67 JUMP JUMPDEST PUSH1 0x20 MUL PUSH1 0x20 ADD ADD MLOAD DUP2 SLOAD DUP2 LT PUSH2 0x1C29 JUMPI PUSH2 0x1C29 PUSH2 0x2F67 JUMP JUMPDEST SWAP1 PUSH0 MSTORE PUSH1 0x20 PUSH0 KECCAK256 ADD SLOAD PUSH2 0x1C3C SWAP2 SWAP1 PUSH2 0x2F8F JUMP JUMPDEST PUSH2 0x1C46 SWAP2 SWAP1 PUSH2 0x2FB9 JUMP JUMPDEST PUSH1 0x3 SLOAD SWAP1 SWAP2 POP PUSH2 0x1C61 SWAP1 PUSH1 0x1 PUSH1 0xA8 SHL SWAP1 DIV PUSH1 0xFF AND PUSH1 0xA PUSH2 0x30BB JUMP JUMPDEST PUSH2 0x1C6B SWAP1 DUP3 PUSH2 0x2FB9 JUMP JUMPDEST SWAP1 POP JUMPDEST CALLER PUSH0 SWAP1 DUP2 MSTORE PUSH1 0x7 PUSH1 0x20 MSTORE PUSH1 0x40 DUP2 KECCAK256 DUP14 MLOAD DUP4 SWAP2 SWAP1 DUP16 SWAP1 DUP8 SWAP1 DUP2 LT PUSH2 0x1C93 JUMPI PUSH2 0x1C93 PUSH2 0x2F67 JUMP JUMPDEST PUSH1 0x20 MUL PUSH1 0x20 ADD ADD MLOAD DUP2 SLOAD DUP2 LT PUSH2 0x1CAB JUMPI PUSH2 0x1CAB PUSH2 0x2F67 JUMP JUMPDEST SWAP1 PUSH0 MSTORE PUSH1 0x20 PUSH0 KECCAK256 ADD SLOAD PUSH2 0x1CBE SWAP2 SWAP1 PUSH2 0x30F5 JUMP JUMPDEST SWAP1 POP PUSH2 0x1CCA DUP2 DUP11 PUSH2 0x2FA6 JUMP JUMPDEST SWAP9 POP PUSH2 0x1CD6 DUP3 DUP9 PUSH2 0x2FA6 JUMP JUMPDEST SWAP7 POP POP POP JUMPDEST CALLER PUSH0 SWAP1 DUP2 MSTORE PUSH1 0x7 PUSH1 0x20 MSTORE PUSH1 0x40 SWAP1 KECCAK256 DUP12 MLOAD DUP13 SWAP1 DUP5 SWAP1 DUP2 LT PUSH2 0x1CFD JUMPI PUSH2 0x1CFD PUSH2 0x2F67 JUMP JUMPDEST PUSH1 0x20 MUL PUSH1 0x20 ADD ADD MLOAD DUP2 SLOAD DUP2 LT PUSH2 0x1D15 JUMPI PUSH2 0x1D15 PUSH2 0x2F67 JUMP JUMPDEST SWAP1 PUSH0 MSTORE PUSH1 0x20 PUSH0 KECCAK256 ADD SLOAD PUSH1 0x5 PUSH0 DUP14 DUP6 DUP2 MLOAD DUP2 LT PUSH2 0x1D33 JUMPI PUSH2 0x1D33 PUSH2 0x2F67 JUMP JUMPDEST PUSH1 0x20 MUL PUSH1 0x20 ADD ADD MLOAD DUP2 MSTORE PUSH1 0x20 ADD SWAP1 DUP2 MSTORE PUSH1 0x20 ADD PUSH0 KECCAK256 PUSH1 0x8 ADD PUSH0 DUP3 DUP3 SLOAD PUSH2 0x1D59 SWAP2 SWAP1 PUSH2 0x30F5 JUMP JUMPDEST SWAP1 SWAP2 SSTORE POP POP CALLER PUSH0 SWAP1 DUP2 MSTORE PUSH1 0x7 PUSH1 0x20 MSTORE PUSH1 0x40 SWAP1 KECCAK256 DUP12 MLOAD DUP13 SWAP1 DUP5 SWAP1 DUP2 LT PUSH2 0x1D80 JUMPI PUSH2 0x1D80 PUSH2 0x2F67 JUMP JUMPDEST PUSH1 0x20 MUL PUSH1 0x20 ADD ADD MLOAD DUP2 SLOAD DUP2 LT PUSH2 0x1D98 JUMPI PUSH2 0x1D98 PUSH2 0x2F67 JUMP JUMPDEST SWAP1 PUSH0 MSTORE PUSH1 0x20 PUSH0 KECCAK256 ADD SLOAD DUP5 PUSH2 0x1DAC SWAP2 SWAP1 PUSH2 0x30F5 JUMP JUMPDEST SWAP4 POP POP JUMPDEST PUSH1 0x1 ADD PUSH2 0x1980 JUMP JUMPDEST POP PUSH0 JUMPDEST DUP10 MLOAD DUP2 LT ISZERO PUSH2 0x1FD4 JUMPI PUSH0 DUP11 DUP3 DUP2 MLOAD DUP2 LT PUSH2 0x1DD7 JUMPI PUSH2 0x1DD7 PUSH2 0x2F67 JUMP JUMPDEST PUSH1 0x20 MUL PUSH1 0x20 ADD ADD MLOAD SWAP1 POP JUMPDEST CALLER PUSH0 SWAP1 DUP2 MSTORE PUSH1 0x7 PUSH1 0x20 MSTORE PUSH1 0x40 SWAP1 KECCAK256 SLOAD PUSH2 0x1DFD SWAP1 PUSH1 0x1 SWAP1 PUSH2 0x30F5 JUMP JUMPDEST DUP2 LT ISZERO PUSH2 0x1F32 JUMPI CALLER PUSH0 SWAP1 DUP2 MSTORE PUSH1 0x7 PUSH1 0x20 MSTORE PUSH1 0x40 SWAP1 KECCAK256 PUSH2 0x1E1D DUP3 PUSH1 0x1 PUSH2 0x2FA6 JUMP JUMPDEST DUP2 SLOAD DUP2 LT PUSH2 0x1E2D JUMPI PUSH2 0x1E2D PUSH2 0x2F67 JUMP JUMPDEST PUSH0 SWAP2 DUP3 MSTORE PUSH1 0x20 DUP1 DUP4 KECCAK256 SWAP1 SWAP2 ADD SLOAD CALLER DUP4 MSTORE PUSH1 0x7 SWAP1 SWAP2 MSTORE PUSH1 0x40 SWAP1 SWAP2 KECCAK256 DUP1 SLOAD DUP4 SWAP1 DUP2 LT PUSH2 0x1E59 JUMPI PUSH2 0x1E59 PUSH2 0x2F67 JUMP JUMPDEST PUSH0 SWAP2 DUP3 MSTORE PUSH1 0x20 DUP1 DUP4 KECCAK256 SWAP1 SWAP2 ADD SWAP3 SWAP1 SWAP3 SSTORE CALLER DUP2 MSTORE PUSH1 0x9 SWAP1 SWAP2 MSTORE PUSH1 0x40 SWAP1 KECCAK256 PUSH2 0x1E80 DUP3 PUSH1 0x1 PUSH2 0x2FA6 JUMP JUMPDEST DUP2 SLOAD DUP2 LT PUSH2 0x1E90 JUMPI PUSH2 0x1E90 PUSH2 0x2F67 JUMP JUMPDEST PUSH0 SWAP2 DUP3 MSTORE PUSH1 0x20 DUP1 DUP4 KECCAK256 SWAP1 SWAP2 ADD SLOAD CALLER DUP4 MSTORE PUSH1 0x9 SWAP1 SWAP2 MSTORE PUSH1 0x40 SWAP1 SWAP2 KECCAK256 DUP1 SLOAD DUP4 SWAP1 DUP2 LT PUSH2 0x1EBC JUMPI PUSH2 0x1EBC PUSH2 0x2F67 JUMP JUMPDEST PUSH0 SWAP2 DUP3 MSTORE PUSH1 0x20 DUP1 DUP4 KECCAK256 SWAP1 SWAP2 ADD SWAP3 SWAP1 SWAP3 SSTORE CALLER DUP2 MSTORE PUSH1 0xA SWAP1 SWAP2 MSTORE PUSH1 0x40 SWAP1 KECCAK256 PUSH2 0x1EE3 DUP3 PUSH1 0x1 PUSH2 0x2FA6 JUMP JUMPDEST DUP2 SLOAD DUP2 LT PUSH2 0x1EF3 JUMPI PUSH2 0x1EF3 PUSH2 0x2F67 JUMP JUMPDEST PUSH0 SWAP2 DUP3 MSTORE PUSH1 0x20 DUP1 DUP4 KECCAK256 SWAP1 SWAP2 ADD SLOAD CALLER DUP4 MSTORE PUSH1 0xA SWAP1 SWAP2 MSTORE PUSH1 0x40 SWAP1 SWAP2 KECCAK256 DUP1 SLOAD DUP4 SWAP1 DUP2 LT PUSH2 0x1F1F JUMPI PUSH2 0x1F1F PUSH2 0x2F67 JUMP JUMPDEST PUSH0 SWAP2 DUP3 MSTORE PUSH1 0x20 SWAP1 SWAP2 KECCAK256 ADD SSTORE PUSH1 0x1 ADD PUSH2 0x1DE2 JUMP JUMPDEST POP CALLER PUSH0 SWAP1 DUP2 MSTORE PUSH1 0x7 PUSH1 0x20 MSTORE PUSH1 0x40 SWAP1 KECCAK256 DUP1 SLOAD DUP1 PUSH2 0x1F50 JUMPI PUSH2 0x1F50 PUSH2 0x3108 JUMP JUMPDEST PUSH0 DUP3 DUP2 MSTORE PUSH1 0x20 DUP1 DUP3 KECCAK256 DUP4 ADD PUSH0 NOT SWAP1 DUP2 ADD DUP4 SWAP1 SSTORE SWAP1 SWAP3 ADD SWAP1 SWAP3 SSTORE CALLER DUP3 MSTORE PUSH1 0x9 SWAP1 MSTORE PUSH1 0x40 SWAP1 KECCAK256 DUP1 SLOAD DUP1 PUSH2 0x1F83 JUMPI PUSH2 0x1F83 PUSH2 0x3108 JUMP JUMPDEST PUSH0 DUP3 DUP2 MSTORE PUSH1 0x20 DUP1 DUP3 KECCAK256 DUP4 ADD PUSH0 NOT SWAP1 DUP2 ADD DUP4 SWAP1 SSTORE SWAP1 SWAP3 ADD SWAP1 SWAP3 SSTORE CALLER DUP3 MSTORE PUSH1 0xA SWAP1 MSTORE PUSH1 0x40 SWAP1 KECCAK256 DUP1 SLOAD DUP1 PUSH2 0x1FB6 JUMPI PUSH2 0x1FB6 PUSH2 0x3108 JUMP JUMPDEST PUSH0 DUP3 DUP2 MSTORE PUSH1 0x20 DUP2 KECCAK256 DUP3 ADD PUSH0 NOT SWAP1 DUP2 ADD SWAP2 SWAP1 SWAP2 SSTORE ADD SWAP1 SSTORE PUSH1 0x1 ADD PUSH2 0x1DBB JUMP JUMPDEST POP DUP5 ISZERO PUSH2 0x2082 JUMPI PUSH1 0x2 SLOAD PUSH1 0x3 SLOAD PUSH1 0x1 PUSH1 0x1 PUSH1 0xA0 SHL SUB SWAP1 SWAP2 AND SWAP1 PUSH4 0xA9059CBB SWAP1 CALLER SWAP1 PUSH2 0x200A SWAP1 PUSH1 0x1 PUSH1 0xA8 SHL SWAP1 DIV PUSH1 0xFF AND PUSH1 0xA PUSH2 0x30BB JUMP JUMPDEST PUSH2 0x2014 SWAP1 DUP10 PUSH2 0x2FB9 JUMP JUMPDEST PUSH1 0x40 MLOAD PUSH1 0x1 PUSH1 0x1 PUSH1 0xE0 SHL SUB NOT PUSH1 0xE0 DUP6 SWAP1 SHL AND DUP2 MSTORE PUSH1 0x1 PUSH1 0x1 PUSH1 0xA0 SHL SUB SWAP1 SWAP3 AND PUSH1 0x4 DUP4 ADD MSTORE PUSH1 0x24 DUP3 ADD MSTORE PUSH1 0x44 ADD PUSH1 0x20 PUSH1 0x40 MLOAD DUP1 DUP4 SUB DUP2 PUSH0 DUP8 GAS CALL ISZERO DUP1 ISZERO PUSH2 0x205C JUMPI RETURNDATASIZE PUSH0 DUP1 RETURNDATACOPY RETURNDATASIZE PUSH0 REVERT JUMPDEST POP POP POP POP PUSH1 0x40 MLOAD RETURNDATASIZE PUSH1 0x1F NOT PUSH1 0x1F DUP3 ADD AND DUP3 ADD DUP1 PUSH1 0x40 MSTORE POP DUP2 ADD SWAP1 PUSH2 0x2080 SWAP2 SWAP1 PUSH2 0x31E7 JUMP JUMPDEST POP JUMPDEST DUP4 ISZERO PUSH2 0x212B JUMPI PUSH1 0x3 SLOAD PUSH1 0x1 PUSH1 0x1 PUSH1 0xA0 SHL SUB DUP2 AND SWAP1 PUSH4 0xA9059CBB SWAP1 CALLER SWAP1 PUSH2 0x20B3 SWAP1 PUSH1 0x1 PUSH1 0xB0 SHL SWAP1 DIV PUSH1 0xFF AND PUSH1 0xA PUSH2 0x30BB JUMP JUMPDEST PUSH2 0x20BD SWAP1 DUP9 PUSH2 0x2FB9 JUMP JUMPDEST PUSH1 0x40 MLOAD PUSH1 0x1 PUSH1 0x1 PUSH1 0xE0 SHL SUB NOT PUSH1 0xE0 DUP6 SWAP1 SHL AND DUP2 MSTORE PUSH1 0x1 PUSH1 0x1 PUSH1 0xA0 SHL SUB SWAP1 SWAP3 AND PUSH1 0x4 DUP4 ADD MSTORE PUSH1 0x24 DUP3 ADD MSTORE PUSH1 0x44 ADD PUSH1 0x20 PUSH1 0x40 MLOAD DUP1 DUP4 SUB DUP2 PUSH0 DUP8 GAS CALL ISZERO DUP1 ISZERO PUSH2 0x2105 JUMPI RETURNDATASIZE PUSH0 DUP1 RETURNDATACOPY RETURNDATASIZE PUSH0 REVERT JUMPDEST POP POP POP POP PUSH1 0x40 MLOAD RETURNDATASIZE PUSH1 0x1F NOT PUSH1 0x1F DUP3 ADD AND DUP3 ADD DUP1 PUSH1 0x40 MSTORE POP DUP2 ADD SWAP1 PUSH2 0x2129 SWAP2 SWAP1 PUSH2 0x31E7 JUMP JUMPDEST POP JUMPDEST DUP3 ISZERO PUSH2 0x21DB JUMPI PUSH1 0x2 SLOAD PUSH1 0x6 SLOAD PUSH1 0x3 SLOAD PUSH1 0x1 PUSH1 0x1 PUSH1 0xA0 SHL SUB SWAP3 DUP4 AND SWAP3 PUSH4 0xA9059CBB SWAP3 AND SWAP1 PUSH2 0x2163 SWAP1 PUSH1 0x1 PUSH1 0xA8 SHL SWAP1 DIV PUSH1 0xFF AND PUSH1 0xA PUSH2 0x30BB JUMP JUMPDEST PUSH2 0x216D SWAP1 DUP8 PUSH2 0x2FB9 JUMP JUMPDEST PUSH1 0x40 MLOAD PUSH1 0x1 PUSH1 0x1 PUSH1 0xE0 SHL SUB NOT PUSH1 0xE0 DUP6 SWAP1 SHL AND DUP2 MSTORE PUSH1 0x1 PUSH1 0x1 PUSH1 0xA0 SHL SUB SWAP1 SWAP3 AND PUSH1 0x4 DUP4 ADD MSTORE PUSH1 0x24 DUP3 ADD MSTORE PUSH1 0x44 ADD PUSH1 0x20 PUSH1 0x40 MLOAD DUP1 DUP4 SUB DUP2 PUSH0 DUP8 GAS CALL ISZERO DUP1 ISZERO PUSH2 0x21B5 JUMPI RETURNDATASIZE PUSH0 DUP1 RETURNDATACOPY RETURNDATASIZE PUSH0 REVERT JUMPDEST POP POP POP POP PUSH1 0x40 MLOAD RETURNDATASIZE PUSH1 0x1F NOT PUSH1 0x1F DUP3 ADD AND DUP3 ADD DUP1 PUSH1 0x40 MSTORE POP DUP2 ADD SWAP1 PUSH2 0x21D9 SWAP2 SWAP1 PUSH2 0x31E7 JUMP JUMPDEST POP JUMPDEST CALLER PUSH0 SWAP1 DUP2 MSTORE PUSH1 0x8 PUSH1 0x20 SWAP1 DUP2 MSTORE PUSH1 0x40 DUP1 DUP4 KECCAK256 DUP6 SWAP1 SSTORE PUSH1 0xB SWAP1 SWAP2 MSTORE DUP2 KECCAK256 DUP1 SLOAD DUP7 SWAP3 SWAP1 PUSH2 0x2206 SWAP1 DUP5 SWAP1 PUSH2 0x2FA6 JUMP JUMPDEST SWAP1 SWAP2 SSTORE POP POP CALLER PUSH0 SWAP1 DUP2 MSTORE PUSH1 0xC PUSH1 0x20 MSTORE PUSH1 0x40 SWAP1 KECCAK256 TIMESTAMP SWAP1 SSTORE POP POP PUSH1 0x1 DUP1 SSTORE SWAP2 SWAP7 SWAP1 SWAP6 POP SWAP1 SWAP4 POP SWAP2 POP POP JUMP JUMPDEST PUSH0 SLOAD PUSH1 0x1 PUSH1 0x1 PUSH1 0xA0 SHL SUB AND CALLER EQ PUSH2 0x2258 JUMPI PUSH1 0x40 MLOAD PUSH3 0x461BCD PUSH1 0xE5 SHL DUP2 MSTORE PUSH1 0x4 ADD PUSH2 0x8F4 SWAP1 PUSH2 0x2F32 JUMP JUMPDEST PUSH1 0x6 DUP1 SLOAD PUSH1 0x1 PUSH1 0x1 PUSH1 0xA0 SHL SUB NOT AND PUSH1 0x1 PUSH1 0x1 PUSH1 0xA0 SHL SUB SWAP3 SWAP1 SWAP3 AND SWAP2 SWAP1 SWAP2 OR SWAP1 SSTORE JUMP JUMPDEST PUSH1 0x13 SLOAD PUSH1 0x60 SWAP1 ISZERO PUSH2 0x23B0 JUMPI PUSH1 0x13 SLOAD PUSH8 0xFFFFFFFFFFFFFFFF DUP2 GT ISZERO PUSH2 0x22A0 JUMPI PUSH2 0x22A0 PUSH2 0x2DFE JUMP JUMPDEST PUSH1 0x40 MLOAD SWAP1 DUP1 DUP3 MSTORE DUP1 PUSH1 0x20 MUL PUSH1 0x20 ADD DUP3 ADD PUSH1 0x40 MSTORE DUP1 ISZERO PUSH2 0x22D9 JUMPI DUP2 PUSH1 0x20 ADD JUMPDEST PUSH2 0x22C6 PUSH2 0x2A1F JUMP JUMPDEST DUP2 MSTORE PUSH1 0x20 ADD SWAP1 PUSH1 0x1 SWAP1 SUB SWAP1 DUP2 PUSH2 0x22BE JUMPI SWAP1 POP JUMPDEST POP SWAP1 POP PUSH0 JUMPDEST PUSH1 0x13 SLOAD DUP2 LT ISZERO PUSH2 0x23AE JUMPI PUSH1 0x5 PUSH0 PUSH1 0x13 DUP4 DUP2 SLOAD DUP2 LT PUSH2 0x22FE JUMPI PUSH2 0x22FE PUSH2 0x2F67 JUMP JUMPDEST SWAP1 PUSH0 MSTORE PUSH1 0x20 PUSH0 KECCAK256 ADD SLOAD DUP2 MSTORE PUSH1 0x20 ADD SWAP1 DUP2 MSTORE PUSH1 0x20 ADD PUSH0 KECCAK256 PUSH1 0x40 MLOAD DUP1 PUSH2 0x120 ADD PUSH1 0x40 MSTORE SWAP1 DUP2 PUSH0 DUP3 ADD SLOAD DUP2 MSTORE PUSH1 0x20 ADD PUSH1 0x1 DUP3 ADD SLOAD DUP2 MSTORE PUSH1 0x20 ADD PUSH1 0x2 DUP3 ADD SLOAD DUP2 MSTORE PUSH1 0x20 ADD PUSH1 0x3 DUP3 ADD SLOAD DUP2 MSTORE PUSH1 0x20 ADD PUSH1 0x4 DUP3 ADD SLOAD DUP2 MSTORE PUSH1 0x20 ADD PUSH1 0x5 DUP3 ADD SLOAD DUP2 MSTORE PUSH1 0x20 ADD PUSH1 0x6 DUP3 ADD SLOAD DUP2 MSTORE PUSH1 0x20 ADD PUSH1 0x7 DUP3 ADD PUSH0 SWAP1 SLOAD SWAP1 PUSH2 0x100 EXP SWAP1 DIV PUSH1 0xFF AND ISZERO ISZERO ISZERO ISZERO DUP2 MSTORE PUSH1 0x20 ADD PUSH1 0x8 DUP3 ADD SLOAD DUP2 MSTORE POP POP DUP3 DUP3 DUP2 MLOAD DUP2 LT PUSH2 0x239B JUMPI PUSH2 0x239B PUSH2 0x2F67 JUMP JUMPDEST PUSH1 0x20 SWAP1 DUP2 MUL SWAP2 SWAP1 SWAP2 ADD ADD MSTORE PUSH1 0x1 ADD PUSH2 0x22DE JUMP JUMPDEST POP JUMPDEST SWAP1 JUMP JUMPDEST PUSH0 SLOAD PUSH1 0x1 PUSH1 0xA0 SHL SWAP1 DIV PUSH1 0xFF AND ISZERO PUSH2 0x23FF JUMPI PUSH1 0x40 MLOAD PUSH3 0x461BCD PUSH1 0xE5 SHL DUP2 MSTORE PUSH1 0x20 PUSH1 0x4 DUP3 ADD MSTORE PUSH1 0x10 PUSH1 0x24 DUP3 ADD MSTORE PUSH16 0x14185D5CD8589B194E881C185D5CD959 PUSH1 0x82 SHL PUSH1 0x44 DUP3 ADD MSTORE PUSH1 0x64 ADD PUSH2 0x8F4 JUMP JUMPDEST PUSH2 0x2407 PUSH2 0x280F JUMP JUMPDEST CALLER PUSH0 SWAP1 DUP2 MSTORE PUSH1 0x10 PUSH1 0x20 MSTORE PUSH1 0x40 SWAP1 KECCAK256 SLOAD PUSH1 0xFF AND ISZERO PUSH2 0x2459 JUMPI PUSH1 0x40 MLOAD PUSH3 0x461BCD PUSH1 0xE5 SHL DUP2 MSTORE PUSH1 0x20 PUSH1 0x4 DUP3 ADD MSTORE PUSH1 0x10 PUSH1 0x24 DUP3 ADD MSTORE PUSH16 0x4163636F756E74206973207370616D21 PUSH1 0x80 SHL PUSH1 0x44 DUP3 ADD MSTORE PUSH1 0x64 ADD PUSH2 0x8F4 JUMP JUMPDEST PUSH2 0x2462 DUP2 PUSH2 0x27C7 JUMP JUMPDEST PUSH2 0x24A4 JUMPI PUSH1 0x40 MLOAD PUSH3 0x461BCD PUSH1 0xE5 SHL DUP2 MSTORE PUSH1 0x20 PUSH1 0x4 DUP3 ADD MSTORE PUSH1 0x13 PUSH1 0x24 DUP3 ADD MSTORE PUSH19 0x125B9D985B1A59081B1BD8DAC81C195C9A5BD9 PUSH1 0x6A SHL PUSH1 0x44 DUP3 ADD MSTORE PUSH1 0x64 ADD PUSH2 0x8F4 JUMP JUMPDEST PUSH0 DUP2 DUP2 MSTORE PUSH1 0x5 PUSH1 0x20 MSTORE PUSH1 0x40 SWAP1 KECCAK256 PUSH1 0x1 ADD SLOAD DUP3 LT ISZERO PUSH2 0x24F5 JUMPI PUSH1 0x40 MLOAD PUSH3 0x461BCD PUSH1 0xE5 SHL DUP2 MSTORE PUSH1 0x20 PUSH1 0x4 DUP3 ADD MSTORE PUSH1 0xE PUSH1 0x24 DUP3 ADD MSTORE PUSH14 0x125B9D985B1A5908185B5BDD5B9D PUSH1 0x92 SHL PUSH1 0x44 DUP3 ADD MSTORE PUSH1 0x64 ADD PUSH2 0x8F4 JUMP JUMPDEST PUSH1 0x2 SLOAD PUSH1 0x40 MLOAD PUSH4 0x23B872DD PUSH1 0xE0 SHL DUP2 MSTORE CALLER PUSH1 0x4 DUP3 ADD MSTORE ADDRESS PUSH1 0x24 DUP3 ADD MSTORE PUSH1 0x44 DUP2 ADD DUP5 SWAP1 MSTORE TIMESTAMP SWAP2 PUSH1 0x1 PUSH1 0x1 PUSH1 0xA0 SHL SUB AND SWAP1 PUSH4 0x23B872DD SWAP1 PUSH1 0x64 ADD PUSH1 0x20 PUSH1 0x40 MLOAD DUP1 DUP4 SUB DUP2 PUSH0 DUP8 GAS CALL ISZERO DUP1 ISZERO PUSH2 0x2549 JUMPI RETURNDATASIZE PUSH0 DUP1 RETURNDATACOPY RETURNDATASIZE PUSH0 REVERT JUMPDEST POP POP POP POP PUSH1 0x40 MLOAD RETURNDATASIZE PUSH1 0x1F NOT PUSH1 0x1F DUP3 ADD AND DUP3 ADD DUP1 PUSH1 0x40 MSTORE POP DUP2 ADD SWAP1 PUSH2 0x256D SWAP2 SWAP1 PUSH2 0x31E7 JUMP JUMPDEST POP CALLER PUSH0 DUP2 DUP2 MSTORE PUSH1 0x7 PUSH1 0x20 SWAP1 DUP2 MSTORE PUSH1 0x40 DUP1 DUP4 KECCAK256 DUP1 SLOAD PUSH1 0x1 DUP2 DUP2 ADD DUP4 SSTORE SWAP2 DUP6 MSTORE DUP4 DUP6 KECCAK256 ADD DUP9 SWAP1 SSTORE DUP5 DUP5 MSTORE PUSH1 0xA DUP4 MSTORE DUP2 DUP5 KECCAK256 DUP1 SLOAD SWAP2 DUP3 ADD DUP2 SSTORE DUP5 MSTORE DUP3 DUP5 KECCAK256 PUSH5 0xFFFFFFFFFF DUP8 AND SWAP2 ADD SSTORE SWAP3 DUP3 MSTORE PUSH1 0x8 SWAP1 MSTORE SWAP1 DUP2 KECCAK256 DUP1 SLOAD DUP6 SWAP3 SWAP1 PUSH2 0x25CD SWAP1 DUP5 SWAP1 PUSH2 0x2FA6 JUMP JUMPDEST SWAP1 SWAP2 SSTORE POP POP CALLER PUSH0 DUP2 DUP2 MSTORE PUSH1 0x9 PUSH1 0x20 SWAP1 DUP2 MSTORE PUSH1 0x40 DUP1 DUP4 KECCAK256 DUP1 SLOAD PUSH1 0x1 DUP2 ADD DUP3 SSTORE SWAP1 DUP5 MSTORE DUP3 DUP5 KECCAK256 ADD DUP7 SWAP1 SSTORE SWAP3 DUP3 MSTORE PUSH1 0xC DUP2 MSTORE DUP3 DUP3 KECCAK256 TIMESTAMP SWAP1 SSTORE DUP5 DUP3 MSTORE PUSH1 0x5 SWAP1 MSTORE SWAP1 DUP2 KECCAK256 PUSH1 0x8 ADD DUP1 SLOAD DUP6 SWAP3 SWAP1 PUSH2 0x261F SWAP1 DUP5 SWAP1 PUSH2 0x2FA6 JUMP JUMPDEST SWAP1 SWAP2 SSTORE POP POP CALLER PUSH0 SWAP1 DUP2 MSTORE PUSH1 0xD PUSH1 0x20 MSTORE PUSH1 0x40 SWAP1 KECCAK256 SLOAD PUSH1 0xFF AND PUSH2 0x2689 JUMPI PUSH1 0xF DUP1 SLOAD SWAP1 PUSH0 PUSH2 0x2649 DUP4 PUSH2 0x3202 JUMP JUMPDEST SWAP1 SWAP2 SSTORE POP POP PUSH1 0xF SLOAD PUSH0 SWAP1 DUP2 MSTORE PUSH1 0xE PUSH1 0x20 SWAP1 DUP2 MSTORE PUSH1 0x40 DUP1 DUP4 KECCAK256 DUP1 SLOAD PUSH1 0x1 PUSH1 0x1 PUSH1 0xA0 SHL SUB NOT AND CALLER SWAP1 DUP2 OR SWAP1 SWAP2 SSTORE DUP4 MSTORE PUSH1 0xD SWAP1 SWAP2 MSTORE SWAP1 KECCAK256 DUP1 SLOAD PUSH1 0xFF NOT AND PUSH1 0x1 OR SWAP1 SSTORE JUMPDEST PUSH2 0x2691 PUSH2 0x2868 JUMP JUMPDEST PUSH1 0x40 DUP1 MLOAD DUP5 DUP2 MSTORE PUSH1 0x20 DUP2 ADD DUP5 SWAP1 MSTORE SWAP1 DUP2 ADD DUP3 SWAP1 MSTORE ADDRESS SWAP1 CALLER SWAP1 PUSH32 0xE44628ED4B392C5EF46FFC833D640EEFD957E81A312E583E0CC57EED5F04ADA3 SWAP1 PUSH1 0x60 ADD PUSH1 0x40 MLOAD DUP1 SWAP2 SUB SWAP1 LOG3 POP PUSH2 0x977 PUSH1 0x1 DUP1 SSTORE JUMP JUMPDEST PUSH0 SLOAD PUSH1 0x1 PUSH1 0x1 PUSH1 0xA0 SHL SUB AND CALLER EQ PUSH2 0x2709 JUMPI PUSH1 0x40 MLOAD PUSH3 0x461BCD PUSH1 0xE5 SHL DUP2 MSTORE PUSH1 0x4 ADD PUSH2 0x8F4 SWAP1 PUSH2 0x2F32 JUMP JUMPDEST PUSH1 0x1 PUSH1 0x1 PUSH1 0xA0 SHL SUB DUP2 AND PUSH2 0x276E JUMPI PUSH1 0x40 MLOAD PUSH3 0x461BCD PUSH1 0xE5 SHL DUP2 MSTORE PUSH1 0x20 PUSH1 0x4 DUP3 ADD MSTORE PUSH1 0x26 PUSH1 0x24 DUP3 ADD MSTORE PUSH32 0x4F776E61626C653A206E6577206F776E657220697320746865207A65726F2061 PUSH1 0x44 DUP3 ADD MSTORE PUSH6 0x646472657373 PUSH1 0xD0 SHL PUSH1 0x64 DUP3 ADD MSTORE PUSH1 0x84 ADD PUSH2 0x8F4 JUMP JUMPDEST PUSH0 DUP1 SLOAD PUSH1 0x40 MLOAD PUSH1 0x1 PUSH1 0x1 PUSH1 0xA0 SHL SUB DUP1 DUP6 AND SWAP4 SWAP3 AND SWAP2 PUSH32 0x8BE0079C531659141344CD1FD0A4F28419497F9722A3DAAFE3B4186F6B6457E0 SWAP2 LOG3 PUSH0 DUP1 SLOAD PUSH1 0x1 PUSH1 0x1 PUSH1 0xA0 SHL SUB NOT AND PUSH1 0x1 PUSH1 0x1 PUSH1 0xA0 SHL SUB SWAP3 SWAP1 SWAP3 AND SWAP2 SWAP1 SWAP2 OR SWAP1 SSTORE JUMP JUMPDEST PUSH0 DUP1 JUMPDEST PUSH1 0x13 SLOAD DUP2 LT ISZERO PUSH2 0x2807 JUMPI DUP3 PUSH1 0x13 DUP3 DUP2 SLOAD DUP2 LT PUSH2 0x27E8 JUMPI PUSH2 0x27E8 PUSH2 0x2F67 JUMP JUMPDEST SWAP1 PUSH0 MSTORE PUSH1 0x20 PUSH0 KECCAK256 ADD SLOAD SUB PUSH2 0x27FF JUMPI POP PUSH1 0x1 SWAP3 SWAP2 POP POP JUMP JUMPDEST PUSH1 0x1 ADD PUSH2 0x27CA JUMP JUMPDEST POP PUSH0 SWAP3 SWAP2 POP POP JUMP JUMPDEST PUSH1 0x2 PUSH1 0x1 SLOAD SUB PUSH2 0x2861 JUMPI PUSH1 0x40 MLOAD PUSH3 0x461BCD PUSH1 0xE5 SHL DUP2 MSTORE PUSH1 0x20 PUSH1 0x4 DUP3 ADD MSTORE PUSH1 0x1F PUSH1 0x24 DUP3 ADD MSTORE PUSH32 0x5265656E7472616E637947756172643A207265656E7472616E742063616C6C00 PUSH1 0x44 DUP3 ADD MSTORE PUSH1 0x64 ADD PUSH2 0x8F4 JUMP JUMPDEST PUSH1 0x2 PUSH1 0x1 SSTORE JUMP JUMPDEST PUSH1 0x2 SLOAD PUSH1 0x40 MLOAD PUSH4 0x70A08231 PUSH1 0xE0 SHL DUP2 MSTORE ADDRESS PUSH1 0x4 DUP3 ADD MSTORE PUSH0 SWAP2 PUSH1 0x1 PUSH1 0x1 PUSH1 0xA0 SHL SUB AND SWAP1 PUSH4 0x70A08231 SWAP1 PUSH1 0x24 ADD PUSH1 0x20 PUSH1 0x40 MLOAD DUP1 DUP4 SUB DUP2 DUP7 GAS STATICCALL ISZERO DUP1 ISZERO PUSH2 0x28AE JUMPI RETURNDATASIZE PUSH0 DUP1 RETURNDATACOPY RETURNDATASIZE PUSH0 REVERT JUMPDEST POP POP POP POP PUSH1 0x40 MLOAD RETURNDATASIZE PUSH1 0x1F NOT PUSH1 0x1F DUP3 ADD AND DUP3 ADD DUP1 PUSH1 0x40 MSTORE POP DUP2 ADD SWAP1 PUSH2 0x28D2 SWAP2 SWAP1 PUSH2 0x31D0 JUMP JUMPDEST SWAP1 POP PUSH0 JUMPDEST PUSH1 0x13 SLOAD DUP2 LT ISZERO PUSH2 0x977 JUMPI PUSH0 PUSH1 0x13 DUP3 DUP2 SLOAD DUP2 LT PUSH2 0x28F4 JUMPI PUSH2 0x28F4 PUSH2 0x2F67 JUMP JUMPDEST PUSH0 SWAP2 DUP3 MSTORE PUSH1 0x20 DUP1 DUP4 KECCAK256 SWAP1 SWAP2 ADD SLOAD DUP1 DUP4 MSTORE PUSH1 0x5 DUP1 DUP4 MSTORE PUSH1 0x40 SWAP4 DUP5 SWAP1 KECCAK256 DUP5 MLOAD PUSH2 0x120 DUP2 ADD DUP7 MSTORE DUP2 SLOAD DUP2 MSTORE PUSH1 0x1 DUP3 ADD SLOAD SWAP5 DUP2 ADD SWAP5 SWAP1 SWAP5 MSTORE PUSH1 0x2 DUP2 ADD SLOAD SWAP5 DUP5 ADD SWAP5 SWAP1 SWAP5 MSTORE PUSH1 0x3 DUP5 ADD SLOAD PUSH1 0x60 DUP5 ADD MSTORE PUSH1 0x4 DUP5 ADD SLOAD PUSH1 0x80 DUP5 ADD MSTORE DUP4 ADD SLOAD PUSH1 0xA0 DUP4 ADD MSTORE PUSH1 0x6 DUP4 ADD SLOAD PUSH1 0xC0 DUP4 ADD MSTORE PUSH1 0x7 DUP4 ADD SLOAD PUSH1 0xFF AND ISZERO ISZERO PUSH1 0xE0 DUP4 ADD DUP2 SWAP1 MSTORE PUSH1 0x8 SWAP1 SWAP4 ADD SLOAD PUSH2 0x100 DUP4 ADD MSTORE SWAP3 POP SWAP1 PUSH2 0x2A15 JUMPI PUSH0 DUP2 PUSH1 0xC0 ADD MLOAD DUP6 PUSH2 0x298F SWAP2 SWAP1 PUSH2 0x2FB9 JUMP JUMPDEST SWAP1 POP PUSH0 DUP3 PUSH1 0xA0 ADD MLOAD DUP3 PUSH2 0x29A2 SWAP2 SWAP1 PUSH2 0x2F8F JUMP JUMPDEST SWAP1 POP DUP3 PUSH1 0x80 ADD MLOAD DUP4 PUSH1 0x60 ADD MLOAD PUSH2 0x29B8 SWAP2 SWAP1 PUSH2 0x30F5 JUMP JUMPDEST DUP2 GT PUSH2 0x29E1 JUMPI DUP1 DUP4 PUSH1 0x60 ADD MLOAD PUSH2 0x29CE SWAP2 SWAP1 PUSH2 0x30F5 JUMP JUMPDEST PUSH0 DUP6 DUP2 MSTORE PUSH1 0x4 PUSH1 0x20 MSTORE PUSH1 0x40 SWAP1 KECCAK256 SSTORE PUSH2 0x29F5 JUMP JUMPDEST PUSH1 0x80 DUP4 ADD MLOAD PUSH0 DUP6 DUP2 MSTORE PUSH1 0x4 PUSH1 0x20 MSTORE PUSH1 0x40 SWAP1 KECCAK256 SSTORE JUMPDEST POP POP PUSH0 DUP3 DUP2 MSTORE PUSH1 0x4 PUSH1 0x20 SWAP1 DUP2 MSTORE PUSH1 0x40 DUP1 DUP4 KECCAK256 SLOAD PUSH1 0x5 SWAP1 SWAP3 MSTORE SWAP1 SWAP2 KECCAK256 PUSH1 0x2 ADD SSTORE JUMPDEST POP POP PUSH1 0x1 ADD PUSH2 0x28D6 JUMP JUMPDEST PUSH1 0x40 MLOAD DUP1 PUSH2 0x120 ADD PUSH1 0x40 MSTORE DUP1 PUSH0 DUP2 MSTORE PUSH1 0x20 ADD PUSH0 DUP2 MSTORE PUSH1 0x20 ADD PUSH0 DUP2 MSTORE PUSH1 0x20 ADD PUSH0 DUP2 MSTORE PUSH1 0x20 ADD PUSH0 DUP2 MSTORE PUSH1 0x20 ADD PUSH0 DUP2 MSTORE PUSH1 0x20 ADD PUSH0 DUP2 MSTORE PUSH1 0x20 ADD PUSH0 ISZERO ISZERO DUP2 MSTORE PUSH1 0x20 ADD PUSH0 DUP2 MSTORE POP SWAP1 JUMP JUMPDEST PUSH1 0x40 MLOAD DUP1 PUSH1 0xE0 ADD PUSH1 0x40 MSTORE DUP1 PUSH0 PUSH1 0x1 PUSH1 0x1 PUSH1 0xA0 SHL SUB AND DUP2 MSTORE PUSH1 0x20 ADD PUSH0 DUP2 MSTORE PUSH1 0x20 ADD PUSH0 DUP2 MSTORE PUSH1 0x20 ADD PUSH1 0x60 DUP2 MSTORE PUSH1 0x20 ADD PUSH0 DUP2 MSTORE PUSH1 0x20 ADD PUSH0 DUP2 MSTORE PUSH1 0x20 ADD PUSH1 0x60 DUP2 MSTORE POP SWAP1 JUMP JUMPDEST PUSH1 0x1 PUSH1 0x1 PUSH1 0xA0 SHL SUB DUP2 AND DUP2 EQ PUSH2 0x2AB9 JUMPI PUSH0 DUP1 REVERT JUMPDEST POP JUMP JUMPDEST PUSH0 PUSH1 0x20 DUP3 DUP5 SUB SLT ISZERO PUSH2 0x2ACC JUMPI PUSH0 DUP1 REVERT JUMPDEST DUP2 CALLDATALOAD PUSH2 0x2AD7 DUP2 PUSH2 0x2AA5 JUMP JUMPDEST SWAP4 SWAP3 POP POP POP JUMP JUMPDEST PUSH0 PUSH1 0x20 DUP3 DUP5 SUB SLT ISZERO PUSH2 0x2AEE JUMPI PUSH0 DUP1 REVERT JUMPDEST POP CALLDATALOAD SWAP2 SWAP1 POP JUMP JUMPDEST DUP1 MLOAD DUP3 MSTORE PUSH1 0x20 DUP2 ADD MLOAD PUSH1 0x20 DUP4 ADD MSTORE PUSH1 0x40 DUP2 ADD MLOAD PUSH1 0x40 DUP4 ADD MSTORE PUSH1 0x60 DUP2 ADD MLOAD PUSH1 0x60 DUP4 ADD MSTORE PUSH1 0x80 DUP2 ADD MLOAD PUSH1 0x80 DUP4 ADD MSTORE PUSH1 0xA0 DUP2 ADD MLOAD PUSH1 0xA0 DUP4 ADD MSTORE PUSH1 0xC0 DUP2 ADD MLOAD PUSH1 0xC0 DUP4 ADD MSTORE PUSH1 0xE0 DUP2 ADD MLOAD ISZERO ISZERO PUSH1 0xE0 DUP4 ADD MSTORE PUSH2 0x100 DUP2 ADD MLOAD PUSH2 0x100 DUP4 ADD MSTORE POP POP JUMP JUMPDEST PUSH2 0x120 DUP2 ADD PUSH2 0x2B60 DUP3 DUP5 PUSH2 0x2AF5 JUMP JUMPDEST SWAP3 SWAP2 POP POP JUMP JUMPDEST PUSH1 0x20 DUP1 DUP3 MSTORE DUP3 MLOAD DUP3 DUP3 ADD DUP2 SWAP1 MSTORE PUSH0 SWAP2 DUP5 ADD SWAP1 PUSH1 0x40 DUP5 ADD SWAP1 DUP4 JUMPDEST DUP2 DUP2 LT ISZERO PUSH2 0x2B9D JUMPI DUP4 MLOAD DUP4 MSTORE PUSH1 0x20 SWAP4 DUP5 ADD SWAP4 SWAP1 SWAP3 ADD SWAP2 PUSH1 0x1 ADD PUSH2 0x2B7F JUMP JUMPDEST POP SWAP1 SWAP6 SWAP5 POP POP POP POP POP JUMP JUMPDEST PUSH0 DUP1 PUSH1 0x40 DUP4 DUP6 SUB SLT ISZERO PUSH2 0x2BB9 JUMPI PUSH0 DUP1 REVERT JUMPDEST POP POP DUP1 CALLDATALOAD SWAP3 PUSH1 0x20 SWAP1 SWAP2 ADD CALLDATALOAD SWAP2 POP JUMP JUMPDEST PUSH0 DUP2 MLOAD DUP1 DUP5 MSTORE PUSH1 0x20 DUP5 ADD SWAP4 POP PUSH1 0x20 DUP4 ADD PUSH0 JUMPDEST DUP3 DUP2 LT ISZERO PUSH2 0x2BF8 JUMPI DUP2 MLOAD DUP7 MSTORE PUSH1 0x20 SWAP6 DUP7 ADD SWAP6 SWAP1 SWAP2 ADD SWAP1 PUSH1 0x1 ADD PUSH2 0x2BDA JUMP JUMPDEST POP SWAP4 SWAP5 SWAP4 POP POP POP POP JUMP JUMPDEST PUSH1 0x1 DUP1 PUSH1 0xA0 SHL SUB DUP2 MLOAD AND DUP3 MSTORE PUSH1 0x20 DUP2 ADD MLOAD PUSH1 0x20 DUP4 ADD MSTORE PUSH1 0x40 DUP2 ADD MLOAD PUSH1 0x40 DUP4 ADD MSTORE PUSH0 PUSH1 0x60 DUP3 ADD MLOAD PUSH1 0xE0 PUSH1 0x60 DUP6 ADD MSTORE PUSH2 0x2C3C PUSH1 0xE0 DUP6 ADD DUP3 PUSH2 0x2BC8 JUMP JUMPDEST SWAP1 POP PUSH1 0x80 DUP4 ADD MLOAD PUSH1 0x80 DUP6 ADD MSTORE PUSH1 0xA0 DUP4 ADD MLOAD PUSH1 0xA0 DUP6 ADD MSTORE PUSH1 0xC0 DUP4 ADD MLOAD DUP5 DUP3 SUB PUSH1 0xC0 DUP7 ADD MSTORE PUSH2 0x2C69 DUP3 DUP3 PUSH2 0x2BC8 JUMP JUMPDEST SWAP6 SWAP5 POP POP POP POP POP JUMP JUMPDEST PUSH0 PUSH1 0x20 DUP3 ADD PUSH1 0x20 DUP4 MSTORE DUP1 DUP5 MLOAD DUP1 DUP4 MSTORE PUSH1 0x40 DUP6 ADD SWAP2 POP PUSH1 0x40 DUP2 PUSH1 0x5 SHL DUP7 ADD ADD SWAP3 POP PUSH1 0x20 DUP7 ADD PUSH0 JUMPDEST DUP3 DUP2 LT ISZERO PUSH2 0x2CC9 JUMPI PUSH1 0x3F NOT DUP8 DUP7 SUB ADD DUP5 MSTORE PUSH2 0x2CB4 DUP6 DUP4 MLOAD PUSH2 0x2C02 JUMP JUMPDEST SWAP5 POP PUSH1 0x20 SWAP4 DUP5 ADD SWAP4 SWAP2 SWAP1 SWAP2 ADD SWAP1 PUSH1 0x1 ADD PUSH2 0x2C98 JUMP JUMPDEST POP SWAP3 SWAP7 SWAP6 POP POP POP POP POP POP JUMP JUMPDEST PUSH0 DUP2 MLOAD DUP1 DUP5 MSTORE DUP1 PUSH1 0x20 DUP5 ADD PUSH1 0x20 DUP7 ADD MCOPY PUSH0 PUSH1 0x20 DUP3 DUP7 ADD ADD MSTORE PUSH1 0x20 PUSH1 0x1F NOT PUSH1 0x1F DUP4 ADD AND DUP6 ADD ADD SWAP2 POP POP SWAP3 SWAP2 POP POP JUMP JUMPDEST PUSH1 0x1 PUSH1 0x1 PUSH1 0xA0 SHL SUB DUP7 AND DUP2 MSTORE PUSH1 0xA0 PUSH1 0x20 DUP3 ADD DUP2 SWAP1 MSTORE PUSH0 SWAP1 PUSH2 0x2D26 SWAP1 DUP4 ADD DUP8 PUSH2 0x2CD5 JUMP JUMPDEST DUP3 DUP2 SUB PUSH1 0x40 DUP5 ADD MSTORE PUSH2 0x2D38 DUP2 DUP8 PUSH2 0x2CD5 JUMP JUMPDEST PUSH1 0xFF SWAP6 SWAP1 SWAP6 AND PUSH1 0x60 DUP5 ADD MSTORE POP POP PUSH1 0x80 ADD MSTORE SWAP4 SWAP3 POP POP POP JUMP JUMPDEST PUSH1 0x20 DUP2 MSTORE PUSH0 PUSH2 0x2AD7 PUSH1 0x20 DUP4 ADD DUP5 PUSH2 0x2C02 JUMP JUMPDEST PUSH0 DUP1 PUSH1 0x40 DUP4 DUP6 SUB SLT ISZERO PUSH2 0x2D73 JUMPI PUSH0 DUP1 REVERT JUMPDEST DUP3 CALLDATALOAD PUSH2 0x2D7E DUP2 PUSH2 0x2AA5 JUMP JUMPDEST SWAP5 PUSH1 0x20 SWAP4 SWAP1 SWAP4 ADD CALLDATALOAD SWAP4 POP POP POP JUMP JUMPDEST DUP1 ISZERO ISZERO DUP2 EQ PUSH2 0x2AB9 JUMPI PUSH0 DUP1 REVERT JUMPDEST PUSH0 DUP1 PUSH0 DUP1 PUSH0 DUP1 PUSH0 DUP1 PUSH2 0x100 DUP10 DUP12 SUB SLT ISZERO PUSH2 0x2DB1 JUMPI PUSH0 DUP1 REVERT JUMPDEST DUP9 CALLDATALOAD SWAP8 POP PUSH1 0x20 DUP10 ADD CALLDATALOAD SWAP7 POP PUSH1 0x40 DUP10 ADD CALLDATALOAD SWAP6 POP PUSH1 0x60 DUP10 ADD CALLDATALOAD SWAP5 POP PUSH1 0x80 DUP10 ADD CALLDATALOAD SWAP4 POP PUSH1 0xA0 DUP10 ADD CALLDATALOAD SWAP3 POP PUSH1 0xC0 DUP10 ADD CALLDATALOAD SWAP2 POP PUSH1 0xE0 DUP10 ADD CALLDATALOAD PUSH2 0x2DED DUP2 PUSH2 0x2D8C JUMP JUMPDEST DUP1 SWAP2 POP POP SWAP3 SWAP6 SWAP9 POP SWAP3 SWAP6 SWAP9 SWAP1 SWAP4 SWAP7 POP JUMP JUMPDEST PUSH4 0x4E487B71 PUSH1 0xE0 SHL PUSH0 MSTORE PUSH1 0x41 PUSH1 0x4 MSTORE PUSH1 0x24 PUSH0 REVERT JUMPDEST PUSH1 0x40 MLOAD PUSH1 0x1F DUP3 ADD PUSH1 0x1F NOT AND DUP2 ADD PUSH8 0xFFFFFFFFFFFFFFFF DUP2 GT DUP3 DUP3 LT OR ISZERO PUSH2 0x2E3B JUMPI PUSH2 0x2E3B PUSH2 0x2DFE JUMP JUMPDEST PUSH1 0x40 MSTORE SWAP2 SWAP1 POP JUMP JUMPDEST PUSH0 PUSH1 0x20 DUP3 DUP5 SUB SLT ISZERO PUSH2 0x2E53 JUMPI PUSH0 DUP1 REVERT JUMPDEST DUP2 CALLDATALOAD PUSH8 0xFFFFFFFFFFFFFFFF DUP2 GT ISZERO PUSH2 0x2E69 JUMPI PUSH0 DUP1 REVERT JUMPDEST DUP3 ADD PUSH1 0x1F DUP2 ADD DUP5 SGT PUSH2 0x2E79 JUMPI PUSH0 DUP1 REVERT JUMPDEST DUP1 CALLDATALOAD PUSH8 0xFFFFFFFFFFFFFFFF DUP2 GT ISZERO PUSH2 0x2E93 JUMPI PUSH2 0x2E93 PUSH2 0x2DFE JUMP JUMPDEST DUP1 PUSH1 0x5 SHL PUSH2 0x2EA3 PUSH1 0x20 DUP3 ADD PUSH2 0x2E12 JUMP JUMPDEST SWAP2 DUP3 MSTORE PUSH1 0x20 DUP2 DUP5 ADD DUP2 ADD SWAP3 SWAP1 DUP2 ADD SWAP1 DUP8 DUP5 GT ISZERO PUSH2 0x2EBE JUMPI PUSH0 DUP1 REVERT JUMPDEST PUSH1 0x20 DUP6 ADD SWAP5 POP JUMPDEST DUP4 DUP6 LT ISZERO PUSH2 0x2EE4 JUMPI DUP5 CALLDATALOAD DUP1 DUP4 MSTORE PUSH1 0x20 SWAP6 DUP7 ADD SWAP6 SWAP1 SWAP4 POP SWAP1 SWAP2 ADD SWAP1 PUSH2 0x2EC5 JUMP JUMPDEST SWAP8 SWAP7 POP POP POP POP POP POP POP JUMP JUMPDEST PUSH1 0x20 DUP1 DUP3 MSTORE DUP3 MLOAD DUP3 DUP3 ADD DUP2 SWAP1 MSTORE PUSH0 SWAP2 DUP5 ADD SWAP1 PUSH1 0x40 DUP5 ADD SWAP1 DUP4 JUMPDEST DUP2 DUP2 LT ISZERO PUSH2 0x2B9D JUMPI PUSH2 0x2F1B DUP4 DUP6 MLOAD PUSH2 0x2AF5 JUMP JUMPDEST PUSH1 0x20 SWAP4 SWAP1 SWAP4 ADD SWAP3 PUSH2 0x120 SWAP3 SWAP1 SWAP3 ADD SWAP2 PUSH1 0x1 ADD PUSH2 0x2F08 JUMP JUMPDEST PUSH1 0x20 DUP1 DUP3 MSTORE DUP2 DUP2 ADD MSTORE PUSH32 0x4F776E61626C653A2063616C6C6572206973206E6F7420746865206F776E6572 PUSH1 0x40 DUP3 ADD MSTORE PUSH1 0x60 ADD SWAP1 JUMP JUMPDEST PUSH4 0x4E487B71 PUSH1 0xE0 SHL PUSH0 MSTORE PUSH1 0x32 PUSH1 0x4 MSTORE PUSH1 0x24 PUSH0 REVERT JUMPDEST PUSH4 0x4E487B71 PUSH1 0xE0 SHL PUSH0 MSTORE PUSH1 0x11 PUSH1 0x4 MSTORE PUSH1 0x24 PUSH0 REVERT JUMPDEST DUP1 DUP3 MUL DUP2 ISZERO DUP3 DUP3 DIV DUP5 EQ OR PUSH2 0x2B60 JUMPI PUSH2 0x2B60 PUSH2 0x2F7B JUMP JUMPDEST DUP1 DUP3 ADD DUP1 DUP3 GT ISZERO PUSH2 0x2B60 JUMPI PUSH2 0x2B60 PUSH2 0x2F7B JUMP JUMPDEST PUSH0 DUP3 PUSH2 0x2FD3 JUMPI PUSH4 0x4E487B71 PUSH1 0xE0 SHL PUSH0 MSTORE PUSH1 0x12 PUSH1 0x4 MSTORE PUSH1 0x24 PUSH0 REVERT JUMPDEST POP DIV SWAP1 JUMP JUMPDEST PUSH1 0x1 DUP2 JUMPDEST PUSH1 0x1 DUP5 GT ISZERO PUSH2 0x3013 JUMPI DUP1 DUP6 DIV DUP2 GT ISZERO PUSH2 0x2FF7 JUMPI PUSH2 0x2FF7 PUSH2 0x2F7B JUMP JUMPDEST PUSH1 0x1 DUP5 AND ISZERO PUSH2 0x3005 JUMPI SWAP1 DUP2 MUL SWAP1 JUMPDEST PUSH1 0x1 SWAP4 SWAP1 SWAP4 SHR SWAP3 DUP1 MUL PUSH2 0x2FDC JUMP JUMPDEST SWAP4 POP SWAP4 SWAP2 POP POP JUMP JUMPDEST PUSH0 DUP3 PUSH2 0x3029 JUMPI POP PUSH1 0x1 PUSH2 0x2B60 JUMP JUMPDEST DUP2 PUSH2 0x3035 JUMPI POP PUSH0 PUSH2 0x2B60 JUMP JUMPDEST DUP2 PUSH1 0x1 DUP2 EQ PUSH2 0x304B JUMPI PUSH1 0x2 DUP2 EQ PUSH2 0x3055 JUMPI PUSH2 0x3071 JUMP JUMPDEST PUSH1 0x1 SWAP2 POP POP PUSH2 0x2B60 JUMP JUMPDEST PUSH1 0xFF DUP5 GT ISZERO PUSH2 0x3066 JUMPI PUSH2 0x3066 PUSH2 0x2F7B JUMP JUMPDEST POP POP PUSH1 0x1 DUP3 SHL PUSH2 0x2B60 JUMP JUMPDEST POP PUSH1 0x20 DUP4 LT PUSH2 0x133 DUP4 LT AND PUSH1 0x4E DUP5 LT PUSH1 0xB DUP5 LT AND OR ISZERO PUSH2 0x3094 JUMPI POP DUP2 DUP2 EXP PUSH2 0x2B60 JUMP JUMPDEST PUSH2 0x30A0 PUSH0 NOT DUP5 DUP5 PUSH2 0x2FD8 JUMP JUMPDEST DUP1 PUSH0 NOT DIV DUP3 GT ISZERO PUSH2 0x30B3 JUMPI PUSH2 0x30B3 PUSH2 0x2F7B JUMP JUMPDEST MUL SWAP4 SWAP3 POP POP POP JUMP JUMPDEST PUSH0 PUSH2 0x2AD7 DUP4 DUP4 PUSH2 0x301B JUMP JUMPDEST PUSH1 0x20 DUP1 DUP3 MSTORE PUSH1 0x15 SWAP1 DUP3 ADD MSTORE PUSH21 0x131BD8DAC81C195C9A5BD9081B9BDD08199BDD5B99 PUSH1 0x5A SHL PUSH1 0x40 DUP3 ADD MSTORE PUSH1 0x60 ADD SWAP1 JUMP JUMPDEST DUP2 DUP2 SUB DUP2 DUP2 GT ISZERO PUSH2 0x2B60 JUMPI PUSH2 0x2B60 PUSH2 0x2F7B JUMP JUMPDEST PUSH4 0x4E487B71 PUSH1 0xE0 SHL PUSH0 MSTORE PUSH1 0x31 PUSH1 0x4 MSTORE PUSH1 0x24 PUSH0 REVERT JUMPDEST PUSH0 PUSH1 0x20 DUP3 DUP5 SUB SLT ISZERO PUSH2 0x312C JUMPI PUSH0 DUP1 REVERT JUMPDEST DUP2 MLOAD PUSH8 0xFFFFFFFFFFFFFFFF DUP2 GT ISZERO PUSH2 0x3142 JUMPI PUSH0 DUP1 REVERT JUMPDEST DUP3 ADD PUSH1 0x1F DUP2 ADD DUP5 SGT PUSH2 0x3152 JUMPI PUSH0 DUP1 REVERT JUMPDEST DUP1 MLOAD PUSH8 0xFFFFFFFFFFFFFFFF DUP2 GT ISZERO PUSH2 0x316C JUMPI PUSH2 0x316C PUSH2 0x2DFE JUMP JUMPDEST PUSH2 0x317F PUSH1 0x1F DUP3 ADD PUSH1 0x1F NOT AND PUSH1 0x20 ADD PUSH2 0x2E12 JUMP JUMPDEST DUP2 DUP2 MSTORE DUP6 PUSH1 0x20 DUP4 DUP6 ADD ADD GT ISZERO PUSH2 0x3193 JUMPI PUSH0 DUP1 REVERT JUMPDEST DUP2 PUSH1 0x20 DUP5 ADD PUSH1 0x20 DUP4 ADD MCOPY PUSH0 SWAP2 DUP2 ADD PUSH1 0x20 ADD SWAP2 SWAP1 SWAP2 MSTORE SWAP5 SWAP4 POP POP POP POP JUMP JUMPDEST PUSH0 PUSH1 0x20 DUP3 DUP5 SUB SLT ISZERO PUSH2 0x31C0 JUMPI PUSH0 DUP1 REVERT JUMPDEST DUP2 MLOAD PUSH1 0xFF DUP2 AND DUP2 EQ PUSH2 0x2AD7 JUMPI PUSH0 DUP1 REVERT JUMPDEST PUSH0 PUSH1 0x20 DUP3 DUP5 SUB SLT ISZERO PUSH2 0x31E0 JUMPI PUSH0 DUP1 REVERT JUMPDEST POP MLOAD SWAP2 SWAP1 POP JUMP JUMPDEST PUSH0 PUSH1 0x20 DUP3 DUP5 SUB SLT ISZERO PUSH2 0x31F7 JUMPI PUSH0 DUP1 REVERT JUMPDEST DUP2 MLOAD PUSH2 0x2AD7 DUP2 PUSH2 0x2D8C JUMP JUMPDEST PUSH0 PUSH1 0x1 DUP3 ADD PUSH2 0x3213 JUMPI PUSH2 0x3213 PUSH2 0x2F7B JUMP JUMPDEST POP PUSH1 0x1 ADD SWAP1 JUMP INVALID LOG2 PUSH5 0x6970667358 0x22 SLT KECCAK256 0xEF SWAP9 CALL 0xFB 0x29 0x4F 0xE5 PUSH9 0x7EDBD88E55FFEAD82E CALLDATALOAD BLOBHASH PUSH9 0xC856525A6935EC4C19 EXTCODEHASH SDIV DUP4 PUSH5 0x736F6C6343 STOP ADDMOD BYTE STOP CALLER "
		},
		"gasEstimates": {
			"creation": {
				"codeDepositCost": "2576000",
				"executionCost": "infinite",
				"totalCost": "infinite"
			},
			"external": {
				"IS_ULTIMATE_STAKE_FACTORY()": "2458",
				"Token()": "2469",
				"addSpam(address)": "26887",
				"allocation(uint256)": "2470",
				"allowedLockPeriods(uint256)": "4607",
				"deductionPercentage()": "2394",
				"deposit(uint256,uint256)": "infinite",
				"depositTokenDecimals()": "2440",
				"depositeTime(address,uint256)": "4809",
				"depositeToken(address,uint256)": "4832",
				"depositeTokensTotal(address)": "2634",
				"emergencyWithdrawTokens(address,uint256)": "infinite",
				"emergencyWithdrawWei(uint256)": "infinite",
				"getLockPeriodParams(uint256)": "infinite",
				"getLockPeriods()": "infinite",
				"getLockPeriodsInfo()": "infinite",
				"getRewardTokenInfo()": "infinite",
				"getStakeTokenInfo()": "infinite",
				"getUser(address)": "infinite",
				"getUsers(uint256,uint256)": "infinite",
				"harwest(uint256[])": "infinite",
				"isSpam(address)": "2633",
				"lastUpdated(address)": "2568",
				"lockPeriodParams(uint256)": "19647",
				"lockableDays(address,uint256)": "4854",
				"owner()": "2397",
				"paused()": "2353",
				"pendingRewards(address)": "infinite",
				"removeLockPeriod(uint256)": "infinite",
				"removeSpam(address)": "26903",
				"rewardToken()": "2490",
				"rewardTokenDecimals()": "2396",
				"setAllocation(uint256,uint256,uint256,uint256,uint256,uint256,uint256,bool)": "infinite",
				"setDeductionPercentage(uint256)": "24576",
				"setTaxReceiver(address)": "26835",
				"taxreceiver()": "2424",
				"time()": "2374",
				"transferOwnership(address)": "30499",
				"users(uint256)": "2564",
				"usersCount()": "2416",
				"usersExists(address)": "2567",
				"withdrawedReward(address)": "2546"
			},
			"internal": {
				"allocationPercentageUpdate()": "infinite",
				"isLockPeriodAllowed(uint256)": "infinite"
			}
		},
		"methodIdentifiers": {
			"IS_ULTIMATE_STAKE_FACTORY()": "f66e4be3",
			"Token()": "c2412676",
			"addSpam(address)": "52b8745f",
			"allocation(uint256)": "850bad94",
			"allowedLockPeriods(uint256)": "2b4a16a0",
			"deductionPercentage()": "6b130dc2",
			"deposit(uint256,uint256)": "e2bbb158",
			"depositTokenDecimals()": "c0941214",
			"depositeTime(address,uint256)": "ba743f99",
			"depositeToken(address,uint256)": "91dc842e",
			"depositeTokensTotal(address)": "27ba372c",
			"emergencyWithdrawTokens(address,uint256)": "917bb998",
			"emergencyWithdrawWei(uint256)": "230ffa0f",
			"getLockPeriodParams(uint256)": "3d51c72d",
			"getLockPeriods()": "41ee13be",
			"getLockPeriodsInfo()": "de644c76",
			"getRewardTokenInfo()": "647428b9",
			"getStakeTokenInfo()": "c53c5fc1",
			"getUser(address)": "6f77926b",
			"getUsers(uint256,uint256)": "45982a66",
			"harwest(uint256[])": "c5c35196",
			"isSpam(address)": "cd099205",
			"lastUpdated(address)": "0a6f93e6",
			"lockPeriodParams(uint256)": "39129cff",
			"lockableDays(address,uint256)": "95302cc0",
			"owner()": "8da5cb5b",
			"paused()": "5c975abb",
			"pendingRewards(address)": "31d7a262",
			"removeLockPeriod(uint256)": "4d70378a",
			"removeSpam(address)": "58098bf4",
			"rewardToken()": "f7c618c1",
			"rewardTokenDecimals()": "9bdcecd1",
			"setAllocation(uint256,uint256,uint256,uint256,uint256,uint256,uint256,bool)": "9a4577a2",
			"setDeductionPercentage(uint256)": "6a1d18d2",
			"setTaxReceiver(address)": "cd8de42c",
			"taxreceiver()": "f256dfc5",
			"time()": "16ada547",
			"transferOwnership(address)": "f2fde38b",
			"users(uint256)": "365b98b2",
			"usersCount()": "6ba13a82",
			"usersExists(address)": "c2e5fe76",
			"withdrawedReward(address)": "03962d46"
		}
	},
	"abi": [
		{
			"inputs": [
				{
					"internalType": "contract IERC20",
					"name": "_token",
					"type": "address"
				},
				{
					"internalType": "contract IERC20",
					"name": "_rewardToken",
					"type": "address"
				},
				{
					"internalType": "address",
					"name": "_taxreceiver",
					"type": "address"
				},
				{
					"internalType": "uint256",
					"name": "_deductionPercentage",
					"type": "uint256"
				},
				{
					"components": [
						{
							"internalType": "uint256",
							"name": "lockTimeDays",
							"type": "uint256"
						},
						{
							"internalType": "uint256",
							"name": "minimumDeposit",
							"type": "uint256"
						},
						{
							"internalType": "uint256",
							"name": "percentageBasisPoints",
							"type": "uint256"
						},
						{
							"internalType": "uint256",
							"name": "maxRate",
							"type": "uint256"
						},
						{
							"internalType": "uint256",
							"name": "minRate",
							"type": "uint256"
						},
						{
							"internalType": "uint256",
							"name": "decrementStep",
							"type": "uint256"
						},
						{
							"internalType": "uint256",
							"name": "stepSize",
							"type": "uint256"
						},
						{
							"internalType": "bool",
							"name": "fixedBasisPoints",
							"type": "bool"
						},
						{
							"internalType": "uint256",
							"name": "stakedAmount",
							"type": "uint256"
						}
					],
					"internalType": "struct StakeFactory.LockPeriodParams[]",
					"name": "_initLockPeriods",
					"type": "tuple[]"
				}
			],
			"stateMutability": "nonpayable",
			"type": "constructor"
		},
		{
			"anonymous": false,
			"inputs": [
				{
					"indexed": true,
					"internalType": "address",
					"name": "to",
					"type": "address"
				},
				{
					"indexed": true,
					"internalType": "address",
					"name": "From",
					"type": "address"
				},
				{
					"indexed": false,
					"internalType": "uint256",
					"name": "amount",
					"type": "uint256"
				},
				{
					"indexed": false,
					"internalType": "uint256",
					"name": "day",
					"type": "uint256"
				},
				{
					"indexed": false,
					"internalType": "uint256",
					"name": "time",
					"type": "uint256"
				}
			],
			"name": "Deposite_",
			"type": "event"
		},
		{
			"anonymous": false,
			"inputs": [
				{
					"indexed": true,
					"internalType": "address",
					"name": "previousOwner",
					"type": "address"
				},
				{
					"indexed": true,
					"internalType": "address",
					"name": "newOwner",
					"type": "address"
				}
			],
			"name": "OwnershipTransferred",
			"type": "event"
		},
		{
			"anonymous": false,
			"inputs": [
				{
					"indexed": false,
					"internalType": "address",
					"name": "account",
					"type": "address"
				}
			],
			"name": "Paused",
			"type": "event"
		},
		{
			"anonymous": false,
			"inputs": [
				{
					"indexed": false,
					"internalType": "address",
					"name": "account",
					"type": "address"
				}
			],
			"name": "Unpaused",
			"type": "event"
		},
		{
			"inputs": [],
			"name": "IS_ULTIMATE_STAKE_FACTORY",
			"outputs": [
				{
					"internalType": "bool",
					"name": "",
					"type": "bool"
				}
			],
			"stateMutability": "view",
			"type": "function"
		},
		{
			"inputs": [],
			"name": "Token",
			"outputs": [
				{
					"internalType": "contract IERC20",
					"name": "",
					"type": "address"
				}
			],
			"stateMutability": "view",
			"type": "function"
		},
		{
			"inputs": [
				{
					"internalType": "address",
					"name": "_addr",
					"type": "address"
				}
			],
			"name": "addSpam",
			"outputs": [],
			"stateMutability": "nonpayable",
			"type": "function"
		},
		{
			"inputs": [
				{
					"internalType": "uint256",
					"name": "",
					"type": "uint256"
				}
			],
			"name": "allocation",
			"outputs": [
				{
					"internalType": "uint256",
					"name": "",
					"type": "uint256"
				}
			],
			"stateMutability": "view",
			"type": "function"
		},
		{
			"inputs": [
				{
					"internalType": "uint256",
					"name": "",
					"type": "uint256"
				}
			],
			"name": "allowedLockPeriods",
			"outputs": [
				{
					"internalType": "uint256",
					"name": "",
					"type": "uint256"
				}
			],
			"stateMutability": "view",
			"type": "function"
		},
		{
			"inputs": [],
			"name": "deductionPercentage",
			"outputs": [
				{
					"internalType": "uint256",
					"name": "",
					"type": "uint256"
				}
			],
			"stateMutability": "view",
			"type": "function"
		},
		{
			"inputs": [
				{
					"internalType": "uint256",
					"name": "_amount",
					"type": "uint256"
				},
				{
					"internalType": "uint256",
					"name": "_lockDays",
					"type": "uint256"
				}
			],
			"name": "deposit",
			"outputs": [],
			"stateMutability": "nonpayable",
			"type": "function"
		},
		{
			"inputs": [],
			"name": "depositTokenDecimals",
			"outputs": [
				{
					"internalType": "uint8",
					"name": "",
					"type": "uint8"
				}
			],
			"stateMutability": "view",
			"type": "function"
		},
		{
			"inputs": [
				{
					"internalType": "address",
					"name": "",
					"type": "address"
				},
				{
					"internalType": "uint256",
					"name": "",
					"type": "uint256"
				}
			],
			"name": "depositeTime",
			"outputs": [
				{
					"internalType": "uint256",
					"name": "",
					"type": "uint256"
				}
			],
			"stateMutability": "view",
			"type": "function"
		},
		{
			"inputs": [
				{
					"internalType": "address",
					"name": "",
					"type": "address"
				},
				{
					"internalType": "uint256",
					"name": "",
					"type": "uint256"
				}
			],
			"name": "depositeToken",
			"outputs": [
				{
					"internalType": "uint256",
					"name": "",
					"type": "uint256"
				}
			],
			"stateMutability": "view",
			"type": "function"
		},
		{
			"inputs": [
				{
					"internalType": "address",
					"name": "",
					"type": "address"
				}
			],
			"name": "depositeTokensTotal",
			"outputs": [
				{
					"internalType": "uint256",
					"name": "",
					"type": "uint256"
				}
			],
			"stateMutability": "view",
			"type": "function"
		},
		{
			"inputs": [
				{
					"internalType": "contract IERC20",
					"name": "_token",
					"type": "address"
				},
				{
					"internalType": "uint256",
					"name": "_amount",
					"type": "uint256"
				}
			],
			"name": "emergencyWithdrawTokens",
			"outputs": [],
			"stateMutability": "nonpayable",
			"type": "function"
		},
		{
			"inputs": [
				{
					"internalType": "uint256",
					"name": "_amount",
					"type": "uint256"
				}
			],
			"name": "emergencyWithdrawWei",
			"outputs": [],
			"stateMutability": "nonpayable",
			"type": "function"
		},
		{
			"inputs": [
				{
					"internalType": "uint256",
					"name": "_days",
					"type": "uint256"
				}
			],
			"name": "getLockPeriodParams",
			"outputs": [
				{
					"components": [
						{
							"internalType": "uint256",
							"name": "lockTimeDays",
							"type": "uint256"
						},
						{
							"internalType": "uint256",
							"name": "minimumDeposit",
							"type": "uint256"
						},
						{
							"internalType": "uint256",
							"name": "percentageBasisPoints",
							"type": "uint256"
						},
						{
							"internalType": "uint256",
							"name": "maxRate",
							"type": "uint256"
						},
						{
							"internalType": "uint256",
							"name": "minRate",
							"type": "uint256"
						},
						{
							"internalType": "uint256",
							"name": "decrementStep",
							"type": "uint256"
						},
						{
							"internalType": "uint256",
							"name": "stepSize",
							"type": "uint256"
						},
						{
							"internalType": "bool",
							"name": "fixedBasisPoints",
							"type": "bool"
						},
						{
							"internalType": "uint256",
							"name": "stakedAmount",
							"type": "uint256"
						}
					],
					"internalType": "struct StakeFactory.LockPeriodParams",
					"name": "",
					"type": "tuple"
				}
			],
			"stateMutability": "view",
			"type": "function"
		},
		{
			"inputs": [],
			"name": "getLockPeriods",
			"outputs": [
				{
					"internalType": "uint256[]",
					"name": "",
					"type": "uint256[]"
				}
			],
			"stateMutability": "view",
			"type": "function"
		},
		{
			"inputs": [],
			"name": "getLockPeriodsInfo",
			"outputs": [
				{
					"components": [
						{
							"internalType": "uint256",
							"name": "lockTimeDays",
							"type": "uint256"
						},
						{
							"internalType": "uint256",
							"name": "minimumDeposit",
							"type": "uint256"
						},
						{
							"internalType": "uint256",
							"name": "percentageBasisPoints",
							"type": "uint256"
						},
						{
							"internalType": "uint256",
							"name": "maxRate",
							"type": "uint256"
						},
						{
							"internalType": "uint256",
							"name": "minRate",
							"type": "uint256"
						},
						{
							"internalType": "uint256",
							"name": "decrementStep",
							"type": "uint256"
						},
						{
							"internalType": "uint256",
							"name": "stepSize",
							"type": "uint256"
						},
						{
							"internalType": "bool",
							"name": "fixedBasisPoints",
							"type": "bool"
						},
						{
							"internalType": "uint256",
							"name": "stakedAmount",
							"type": "uint256"
						}
					],
					"internalType": "struct StakeFactory.LockPeriodParams[]",
					"name": "ret",
					"type": "tuple[]"
				}
			],
			"stateMutability": "view",
			"type": "function"
		},
		{
			"inputs": [],
			"name": "getRewardTokenInfo",
			"outputs": [
				{
					"internalType": "address",
					"name": "addr",
					"type": "address"
				},
				{
					"internalType": "string",
					"name": "name",
					"type": "string"
				},
				{
					"internalType": "string",
					"name": "symbol",
					"type": "string"
				},
				{
					"internalType": "uint8",
					"name": "decimals",
					"type": "uint8"
				},
				{
					"internalType": "uint256",
					"name": "balance",
					"type": "uint256"
				}
			],
			"stateMutability": "view",
			"type": "function"
		},
		{
			"inputs": [],
			"name": "getStakeTokenInfo",
			"outputs": [
				{
					"internalType": "address",
					"name": "addr",
					"type": "address"
				},
				{
					"internalType": "string",
					"name": "name",
					"type": "string"
				},
				{
					"internalType": "string",
					"name": "symbol",
					"type": "string"
				},
				{
					"internalType": "uint8",
					"name": "decimals",
					"type": "uint8"
				},
				{
					"internalType": "uint256",
					"name": "balance",
					"type": "uint256"
				}
			],
			"stateMutability": "view",
			"type": "function"
		},
		{
			"inputs": [
				{
					"internalType": "address",
					"name": "user",
					"type": "address"
				}
			],
			"name": "getUser",
			"outputs": [
				{
					"components": [
						{
							"internalType": "address",
							"name": "Address",
							"type": "address"
						},
						{
							"internalType": "uint256",
							"name": "DepositeTokenTotal",
							"type": "uint256"
						},
						{
							"internalType": "uint256",
							"name": "LastUpdated",
							"type": "uint256"
						},
						{
							"internalType": "uint256[]",
							"name": "LockableDays",
							"type": "uint256[]"
						},
						{
							"internalType": "uint256",
							"name": "WithdrawedReward",
							"type": "uint256"
						},
						{
							"internalType": "uint256",
							"name": "WithdrawAbleReward",
							"type": "uint256"
						},
						{
							"internalType": "uint256[]",
							"name": "DepositeTime",
							"type": "uint256[]"
						}
					],
					"internalType": "struct StakeFactory.UserInfo",
					"name": "info",
					"type": "tuple"
				}
			],
			"stateMutability": "view",
			"type": "function"
		},
		{
			"inputs": [
				{
					"internalType": "uint256",
					"name": "_offset",
					"type": "uint256"
				},
				{
					"internalType": "uint256",
					"name": "_limit",
					"type": "uint256"
				}
			],
			"name": "getUsers",
			"outputs": [
				{
					"components": [
						{
							"internalType": "address",
							"name": "Address",
							"type": "address"
						},
						{
							"internalType": "uint256",
							"name": "DepositeTokenTotal",
							"type": "uint256"
						},
						{
							"internalType": "uint256",
							"name": "LastUpdated",
							"type": "uint256"
						},
						{
							"internalType": "uint256[]",
							"name": "LockableDays",
							"type": "uint256[]"
						},
						{
							"internalType": "uint256",
							"name": "WithdrawedReward",
							"type": "uint256"
						},
						{
							"internalType": "uint256",
							"name": "WithdrawAbleReward",
							"type": "uint256"
						},
						{
							"internalType": "uint256[]",
							"name": "DepositeTime",
							"type": "uint256[]"
						}
					],
					"internalType": "struct StakeFactory.UserInfo[]",
					"name": "ret",
					"type": "tuple[]"
				}
			],
			"stateMutability": "view",
			"type": "function"
		},
		{
			"inputs": [
				{
					"internalType": "uint256[]",
					"name": "_index",
					"type": "uint256[]"
				}
			],
			"name": "harwest",
			"outputs": [
				{
					"internalType": "uint256",
					"name": "_totalWithdrawAmount",
					"type": "uint256"
				},
				{
					"internalType": "uint256",
					"name": "_totalReward",
					"type": "uint256"
				},
				{
					"internalType": "uint256",
					"name": "_deductionFee",
					"type": "uint256"
				}
			],
			"stateMutability": "nonpayable",
			"type": "function"
		},
		{
			"inputs": [
				{
					"internalType": "address",
					"name": "",
					"type": "address"
				}
			],
			"name": "isSpam",
			"outputs": [
				{
					"internalType": "bool",
					"name": "",
					"type": "bool"
				}
			],
			"stateMutability": "view",
			"type": "function"
		},
		{
			"inputs": [
				{
					"internalType": "address",
					"name": "",
					"type": "address"
				}
			],
			"name": "lastUpdated",
			"outputs": [
				{
					"internalType": "uint256",
					"name": "",
					"type": "uint256"
				}
			],
			"stateMutability": "view",
			"type": "function"
		},
		{
			"inputs": [
				{
					"internalType": "uint256",
					"name": "",
					"type": "uint256"
				}
			],
			"name": "lockPeriodParams",
			"outputs": [
				{
					"internalType": "uint256",
					"name": "lockTimeDays",
					"type": "uint256"
				},
				{
					"internalType": "uint256",
					"name": "minimumDeposit",
					"type": "uint256"
				},
				{
					"internalType": "uint256",
					"name": "percentageBasisPoints",
					"type": "uint256"
				},
				{
					"internalType": "uint256",
					"name": "maxRate",
					"type": "uint256"
				},
				{
					"internalType": "uint256",
					"name": "minRate",
					"type": "uint256"
				},
				{
					"internalType": "uint256",
					"name": "decrementStep",
					"type": "uint256"
				},
				{
					"internalType": "uint256",
					"name": "stepSize",
					"type": "uint256"
				},
				{
					"internalType": "bool",
					"name": "fixedBasisPoints",
					"type": "bool"
				},
				{
					"internalType": "uint256",
					"name": "stakedAmount",
					"type": "uint256"
				}
			],
			"stateMutability": "view",
			"type": "function"
		},
		{
			"inputs": [
				{
					"internalType": "address",
					"name": "",
					"type": "address"
				},
				{
					"internalType": "uint256",
					"name": "",
					"type": "uint256"
				}
			],
			"name": "lockableDays",
			"outputs": [
				{
					"internalType": "uint256",
					"name": "",
					"type": "uint256"
				}
			],
			"stateMutability": "view",
			"type": "function"
		},
		{
			"inputs": [],
			"name": "owner",
			"outputs": [
				{
					"internalType": "address",
					"name": "",
					"type": "address"
				}
			],
			"stateMutability": "view",
			"type": "function"
		},
		{
			"inputs": [],
			"name": "paused",
			"outputs": [
				{
					"internalType": "bool",
					"name": "",
					"type": "bool"
				}
			],
			"stateMutability": "view",
			"type": "function"
		},
		{
			"inputs": [
				{
					"internalType": "address",
					"name": "_address",
					"type": "address"
				}
			],
			"name": "pendingRewards",
			"outputs": [
				{
					"internalType": "uint256",
					"name": "reward",
					"type": "uint256"
				}
			],
			"stateMutability": "view",
			"type": "function"
		},
		{
			"inputs": [
				{
					"internalType": "uint256",
					"name": "_days",
					"type": "uint256"
				}
			],
			"name": "removeLockPeriod",
			"outputs": [],
			"stateMutability": "nonpayable",
			"type": "function"
		},
		{
			"inputs": [
				{
					"internalType": "address",
					"name": "_addr",
					"type": "address"
				}
			],
			"name": "removeSpam",
			"outputs": [],
			"stateMutability": "nonpayable",
			"type": "function"
		},
		{
			"inputs": [],
			"name": "rewardToken",
			"outputs": [
				{
					"internalType": "contract IERC20",
					"name": "",
					"type": "address"
				}
			],
			"stateMutability": "view",
			"type": "function"
		},
		{
			"inputs": [],
			"name": "rewardTokenDecimals",
			"outputs": [
				{
					"internalType": "uint8",
					"name": "",
					"type": "uint8"
				}
			],
			"stateMutability": "view",
			"type": "function"
		},
		{
			"inputs": [
				{
					"internalType": "uint256",
					"name": "_days",
					"type": "uint256"
				},
				{
					"internalType": "uint256",
					"name": "_minimumDeposit",
					"type": "uint256"
				},
				{
					"internalType": "uint256",
					"name": "percentageBasisPoints",
					"type": "uint256"
				},
				{
					"internalType": "uint256",
					"name": "_maxRate",
					"type": "uint256"
				},
				{
					"internalType": "uint256",
					"name": "_minRate",
					"type": "uint256"
				},
				{
					"internalType": "uint256",
					"name": "_decrementStep",
					"type": "uint256"
				},
				{
					"internalType": "uint256",
					"name": "_stepSize",
					"type": "uint256"
				},
				{
					"internalType": "bool",
					"name": "_fixedBasisPoints",
					"type": "bool"
				}
			],
			"name": "setAllocation",
			"outputs": [],
			"stateMutability": "nonpayable",
			"type": "function"
		},
		{
			"inputs": [
				{
					"internalType": "uint256",
					"name": "percentageBasisPoints",
					"type": "uint256"
				}
			],
			"name": "setDeductionPercentage",
			"outputs": [],
			"stateMutability": "nonpayable",
			"type": "function"
		},
		{
			"inputs": [
				{
					"internalType": "address",
					"name": "_newTaxReceiver",
					"type": "address"
				}
			],
			"name": "setTaxReceiver",
			"outputs": [],
			"stateMutability": "nonpayable",
			"type": "function"
		},
		{
			"inputs": [],
			"name": "taxreceiver",
			"outputs": [
				{
					"internalType": "address",
					"name": "",
					"type": "address"
				}
			],
			"stateMutability": "view",
			"type": "function"
		},
		{
			"inputs": [],
			"name": "time",
			"outputs": [
				{
					"internalType": "uint256",
					"name": "",
					"type": "uint256"
				}
			],
			"stateMutability": "view",
			"type": "function"
		},
		{
			"inputs": [
				{
					"internalType": "address",
					"name": "newOwner",
					"type": "address"
				}
			],
			"name": "transferOwnership",
			"outputs": [],
			"stateMutability": "nonpayable",
			"type": "function"
		},
		{
			"inputs": [
				{
					"internalType": "uint256",
					"name": "",
					"type": "uint256"
				}
			],
			"name": "users",
			"outputs": [
				{
					"internalType": "address",
					"name": "",
					"type": "address"
				}
			],
			"stateMutability": "view",
			"type": "function"
		},
		{
			"inputs": [],
			"name": "usersCount",
			"outputs": [
				{
					"internalType": "uint256",
					"name": "",
					"type": "uint256"
				}
			],
			"stateMutability": "view",
			"type": "function"
		},
		{
			"inputs": [
				{
					"internalType": "address",
					"name": "",
					"type": "address"
				}
			],
			"name": "usersExists",
			"outputs": [
				{
					"internalType": "bool",
					"name": "",
					"type": "bool"
				}
			],
			"stateMutability": "view",
			"type": "function"
		},
		{
			"inputs": [
				{
					"internalType": "address",
					"name": "",
					"type": "address"
				}
			],
			"name": "withdrawedReward",
			"outputs": [
				{
					"internalType": "uint256",
					"name": "",
					"type": "uint256"
				}
			],
			"stateMutability": "view",
			"type": "function"
		},
		{
			"stateMutability": "payable",
			"type": "receive"
		}
	]
}