{
	"data": {
		"bytecode": {
			"linkReferences": {},
			"object": "608060405234801561001057600080fd5b5061035a806100206000396000f3fe608060405234801561001057600080fd5b50600436106100365760003560e01c80639953ba471461003b578063e48baf8414610060575b600080fd5b61004e610049366004610136565b610073565b60405190815260200160405180910390f35b61004e61006e366004610172565b6100ef565b60008160ff168360ff1611156100b157600061008f83856101ce565b60ff16905061009f81600a6102d7565b6100a990866102e3565b9150506100e8565b8160ff168360ff1610156100e55760006100cb84846101ce565b60ff1690506100db81600a6102d7565b6100a99086610305565b50825b9392505050565b6000806127106100ff8688610305565b61010991906102e3565b9050610116818585610073565b9695505050505050565b803560ff8116811461013157600080fd5b919050565b60008060006060848603121561014b57600080fd5b8335925061015b60208501610120565b915061016960408501610120565b90509250925092565b6000806000806080858703121561018857600080fd5b843593506020850135925061019f60408601610120565b91506101ad60608601610120565b905092959194509250565b634e487b7160e01b600052601160045260246000fd5b600060ff821660ff8416808210156101e8576101e86101b8565b90039392505050565b600181815b8085111561022c578160001904821115610212576102126101b8565b8085161561021f57918102915b93841c93908002906101f6565b509250929050565b600082610243575060016102d1565b81610250575060006102d1565b816001811461026657600281146102705761028c565b60019150506102d1565b60ff841115610281576102816101b8565b50506001821b6102d1565b5060208310610133831016604e8410600b84101617156102af575081810a6102d1565b6102b983836101f1565b80600019048211156102cd576102cd6101b8565b0290505b92915050565b60006100e88383610234565b60008261030057634e487b7160e01b600052601260045260246000fd5b500490565b600081600019048311821515161561031f5761031f6101b8565b50029056fea26469706673582212200b7198771cb51d94ec8eb85674ee6cae7b5ae653a33e94d557571d577779bd1164736f6c634300080c0033",
			"opcodes": "PUSH1 0x80 PUSH1 0x40 MSTORE CALLVALUE DUP1 ISZERO PUSH2 0x10 JUMPI PUSH1 0x0 DUP1 REVERT JUMPDEST POP PUSH2 0x35A DUP1 PUSH2 0x20 PUSH1 0x0 CODECOPY PUSH1 0x0 RETURN INVALID PUSH1 0x80 PUSH1 0x40 MSTORE CALLVALUE DUP1 ISZERO PUSH2 0x10 JUMPI PUSH1 0x0 DUP1 REVERT JUMPDEST POP PUSH1 0x4 CALLDATASIZE LT PUSH2 0x36 JUMPI PUSH1 0x0 CALLDATALOAD PUSH1 0xE0 SHR DUP1 PUSH4 0x9953BA47 EQ PUSH2 0x3B JUMPI DUP1 PUSH4 0xE48BAF84 EQ PUSH2 0x60 JUMPI JUMPDEST PUSH1 0x0 DUP1 REVERT JUMPDEST PUSH2 0x4E PUSH2 0x49 CALLDATASIZE PUSH1 0x4 PUSH2 0x136 JUMP JUMPDEST PUSH2 0x73 JUMP JUMPDEST PUSH1 0x40 MLOAD SWAP1 DUP2 MSTORE PUSH1 0x20 ADD PUSH1 0x40 MLOAD DUP1 SWAP2 SUB SWAP1 RETURN JUMPDEST PUSH2 0x4E PUSH2 0x6E CALLDATASIZE PUSH1 0x4 PUSH2 0x172 JUMP JUMPDEST PUSH2 0xEF JUMP JUMPDEST PUSH1 0x0 DUP2 PUSH1 0xFF AND DUP4 PUSH1 0xFF AND GT ISZERO PUSH2 0xB1 JUMPI PUSH1 0x0 PUSH2 0x8F DUP4 DUP6 PUSH2 0x1CE JUMP JUMPDEST PUSH1 0xFF AND SWAP1 POP PUSH2 0x9F DUP2 PUSH1 0xA PUSH2 0x2D7 JUMP JUMPDEST PUSH2 0xA9 SWAP1 DUP7 PUSH2 0x2E3 JUMP JUMPDEST SWAP2 POP POP PUSH2 0xE8 JUMP JUMPDEST DUP2 PUSH1 0xFF AND DUP4 PUSH1 0xFF AND LT ISZERO PUSH2 0xE5 JUMPI PUSH1 0x0 PUSH2 0xCB DUP5 DUP5 PUSH2 0x1CE JUMP JUMPDEST PUSH1 0xFF AND SWAP1 POP PUSH2 0xDB DUP2 PUSH1 0xA PUSH2 0x2D7 JUMP JUMPDEST PUSH2 0xA9 SWAP1 DUP7 PUSH2 0x305 JUMP JUMPDEST POP DUP3 JUMPDEST SWAP4 SWAP3 POP POP POP JUMP JUMPDEST PUSH1 0x0 DUP1 PUSH2 0x2710 PUSH2 0xFF DUP7 DUP9 PUSH2 0x305 JUMP JUMPDEST PUSH2 0x109 SWAP2 SWAP1 PUSH2 0x2E3 JUMP JUMPDEST SWAP1 POP PUSH2 0x116 DUP2 DUP6 DUP6 PUSH2 0x73 JUMP JUMPDEST SWAP7 SWAP6 POP POP POP POP POP POP JUMP JUMPDEST DUP1 CALLDATALOAD PUSH1 0xFF DUP2 AND DUP2 EQ PUSH2 0x131 JUMPI PUSH1 0x0 DUP1 REVERT JUMPDEST SWAP2 SWAP1 POP JUMP JUMPDEST PUSH1 0x0 DUP1 PUSH1 0x0 PUSH1 0x60 DUP5 DUP7 SUB SLT ISZERO PUSH2 0x14B JUMPI PUSH1 0x0 DUP1 REVERT JUMPDEST DUP4 CALLDATALOAD SWAP3 POP PUSH2 0x15B PUSH1 0x20 DUP6 ADD PUSH2 0x120 JUMP JUMPDEST SWAP2 POP PUSH2 0x169 PUSH1 0x40 DUP6 ADD PUSH2 0x120 JUMP JUMPDEST SWAP1 POP SWAP3 POP SWAP3 POP SWAP3 JUMP JUMPDEST PUSH1 0x0 DUP1 PUSH1 0x0 DUP1 PUSH1 0x80 DUP6 DUP8 SUB SLT ISZERO PUSH2 0x188 JUMPI PUSH1 0x0 DUP1 REVERT JUMPDEST DUP5 CALLDATALOAD SWAP4 POP PUSH1 0x20 DUP6 ADD CALLDATALOAD SWAP3 POP PUSH2 0x19F PUSH1 0x40 DUP7 ADD PUSH2 0x120 JUMP JUMPDEST SWAP2 POP PUSH2 0x1AD PUSH1 0x60 DUP7 ADD PUSH2 0x120 JUMP JUMPDEST SWAP1 POP SWAP3 SWAP6 SWAP2 SWAP5 POP SWAP3 POP JUMP JUMPDEST PUSH4 0x4E487B71 PUSH1 0xE0 SHL PUSH1 0x0 MSTORE PUSH1 0x11 PUSH1 0x4 MSTORE PUSH1 0x24 PUSH1 0x0 REVERT JUMPDEST PUSH1 0x0 PUSH1 0xFF DUP3 AND PUSH1 0xFF DUP5 AND DUP1 DUP3 LT ISZERO PUSH2 0x1E8 JUMPI PUSH2 0x1E8 PUSH2 0x1B8 JUMP JUMPDEST SWAP1 SUB SWAP4 SWAP3 POP POP POP JUMP JUMPDEST PUSH1 0x1 DUP2 DUP2 JUMPDEST DUP1 DUP6 GT ISZERO PUSH2 0x22C JUMPI DUP2 PUSH1 0x0 NOT DIV DUP3 GT ISZERO PUSH2 0x212 JUMPI PUSH2 0x212 PUSH2 0x1B8 JUMP JUMPDEST DUP1 DUP6 AND ISZERO PUSH2 0x21F JUMPI SWAP2 DUP2 MUL SWAP2 JUMPDEST SWAP4 DUP5 SHR SWAP4 SWAP1 DUP1 MUL SWAP1 PUSH2 0x1F6 JUMP JUMPDEST POP SWAP3 POP SWAP3 SWAP1 POP JUMP JUMPDEST PUSH1 0x0 DUP3 PUSH2 0x243 JUMPI POP PUSH1 0x1 PUSH2 0x2D1 JUMP JUMPDEST DUP2 PUSH2 0x250 JUMPI POP PUSH1 0x0 PUSH2 0x2D1 JUMP JUMPDEST DUP2 PUSH1 0x1 DUP2 EQ PUSH2 0x266 JUMPI PUSH1 0x2 DUP2 EQ PUSH2 0x270 JUMPI PUSH2 0x28C JUMP JUMPDEST PUSH1 0x1 SWAP2 POP POP PUSH2 0x2D1 JUMP JUMPDEST PUSH1 0xFF DUP5 GT ISZERO PUSH2 0x281 JUMPI PUSH2 0x281 PUSH2 0x1B8 JUMP JUMPDEST POP POP PUSH1 0x1 DUP3 SHL PUSH2 0x2D1 JUMP JUMPDEST POP PUSH1 0x20 DUP4 LT PUSH2 0x133 DUP4 LT AND PUSH1 0x4E DUP5 LT PUSH1 0xB DUP5 LT AND OR ISZERO PUSH2 0x2AF JUMPI POP DUP2 DUP2 EXP PUSH2 0x2D1 JUMP JUMPDEST PUSH2 0x2B9 DUP4 DUP4 PUSH2 0x1F1 JUMP JUMPDEST DUP1 PUSH1 0x0 NOT DIV DUP3 GT ISZERO PUSH2 0x2CD JUMPI PUSH2 0x2CD PUSH2 0x1B8 JUMP JUMPDEST MUL SWAP1 POP JUMPDEST SWAP3 SWAP2 POP POP JUMP JUMPDEST PUSH1 0x0 PUSH2 0xE8 DUP4 DUP4 PUSH2 0x234 JUMP JUMPDEST PUSH1 0x0 DUP3 PUSH2 0x300 JUMPI PUSH4 0x4E487B71 PUSH1 0xE0 SHL PUSH1 0x0 MSTORE PUSH1 0x12 PUSH1 0x4 MSTORE PUSH1 0x24 PUSH1 0x0 REVERT JUMPDEST POP DIV SWAP1 JUMP JUMPDEST PUSH1 0x0 DUP2 PUSH1 0x0 NOT DIV DUP4 GT DUP3 ISZERO ISZERO AND ISZERO PUSH2 0x31F JUMPI PUSH2 0x31F PUSH2 0x1B8 JUMP JUMPDEST POP MUL SWAP1 JUMP INVALID LOG2 PUSH5 0x6970667358 0x22 SLT KECCAK256 SIGNEXTEND PUSH18 0x98771CB51D94EC8EB85674EE6CAE7B5AE653 LOG3 RETURNDATACOPY SWAP5 0xD5 JUMPI JUMPI SAR JUMPI PUSH24 0x79BD1164736F6C634300080C003300000000000000000000 "
		},
		"gasEstimates": {
			"creation": {
				"codeDepositCost": "171600",
				"executionCost": "214",
				"totalCost": "171814"
			},
			"external": {
				"convertTokenAToTokenB(uint256,uint8,uint8)": "infinite",
				"testCalc(uint256,uint256,uint8,uint8)": "infinite"
			}
		},
		"methodIdentifiers": {
			"convertTokenAToTokenB(uint256,uint8,uint8)": "9953ba47",
			"testCalc(uint256,uint256,uint8,uint8)": "e48baf84"
		}
	},
	"abi": [
		{
			"inputs": [
				{
					"internalType": "uint256",
					"name": "inAmountTokenA",
					"type": "uint256"
				},
				{
					"internalType": "uint8",
					"name": "tokenADecimals",
					"type": "uint8"
				},
				{
					"internalType": "uint8",
					"name": "tokenBDecimals",
					"type": "uint8"
				}
			],
			"name": "convertTokenAToTokenB",
			"outputs": [
				{
					"internalType": "uint256",
					"name": "outAmountTokenB",
					"type": "uint256"
				}
			],
			"stateMutability": "pure",
			"type": "function"
		},
		{
			"inputs": [
				{
					"internalType": "uint256",
					"name": "stakeAmount",
					"type": "uint256"
				},
				{
					"internalType": "uint256",
					"name": "apyPercentage",
					"type": "uint256"
				},
				{
					"internalType": "uint8",
					"name": "stakeDecimals",
					"type": "uint8"
				},
				{
					"internalType": "uint8",
					"name": "rewardDecimals",
					"type": "uint8"
				}
			],
			"name": "testCalc",
			"outputs": [
				{
					"internalType": "uint256",
					"name": "ret",
					"type": "uint256"
				}
			],
			"stateMutability": "pure",
			"type": "function"
		}
	]
}